{"abi":[{"type":"function","name":"AccessControl_init","inputs":[{"name":"admin","type":"address","internalType":"address"}],"outputs":[],"stateMutability":"nonpayable"},{"type":"function","name":"canCall","inputs":[{"name":"user","type":"address","internalType":"address"},{"name":"functionSig","type":"bytes4","internalType":"bytes4"}],"outputs":[{"name":"","type":"bool","internalType":"bool"}],"stateMutability":"view"},{"type":"function","name":"functionRoles","inputs":[{"name":"functionSig","type":"bytes4","internalType":"bytes4"}],"outputs":[{"name":"","type":"bytes32","internalType":"bytes32"}],"stateMutability":"view"},{"type":"function","name":"hasRole","inputs":[{"name":"user","type":"address","internalType":"address"},{"name":"role","type":"uint8","internalType":"uint8"}],"outputs":[{"name":"","type":"bool","internalType":"bool"}],"stateMutability":"view"},{"type":"function","name":"setFunctionAccess","inputs":[{"name":"functionSig","type":"bytes4","internalType":"bytes4"},{"name":"role","type":"uint8","internalType":"uint8"},{"name":"enabled","type":"bool","internalType":"bool"}],"outputs":[],"stateMutability":"nonpayable"},{"type":"function","name":"setUserRole","inputs":[{"name":"user","type":"address","internalType":"address"},{"name":"role","type":"uint8","internalType":"uint8"},{"name":"enabled","type":"bool","internalType":"bool"}],"outputs":[],"stateMutability":"nonpayable"},{"type":"function","name":"userRoles","inputs":[{"name":"user","type":"address","internalType":"address"}],"outputs":[{"name":"","type":"bytes32","internalType":"bytes32"}],"stateMutability":"view"},{"type":"event","name":"FunctionAccessChanged","inputs":[{"name":"functionSig","type":"bytes4","indexed":true,"internalType":"bytes4"},{"name":"role","type":"uint8","indexed":true,"internalType":"uint8"},{"name":"enabled","type":"bool","indexed":false,"internalType":"bool"}],"anonymous":false},{"type":"event","name":"UserRoleUpdated","inputs":[{"name":"user","type":"address","indexed":true,"internalType":"address"},{"name":"role","type":"uint8","indexed":true,"internalType":"uint8"},{"name":"enabled","type":"bool","indexed":false,"internalType":"bool"}],"anonymous":false},{"type":"error","name":"AccessControl_CallerIsNotAuthorized","inputs":[{"name":"caller","type":"address","internalType":"address"},{"name":"functionSig","type":"bytes4","internalType":"bytes4"}]},{"type":"error","name":"AccessControl_CannotRemoveAdminFromCriticalFunction","inputs":[{"name":"functionSig","type":"bytes4","internalType":"bytes4"}]}],"bytecode":{"object":"0x60808060405234601557610537908161001a8239f35b5f80fdfe60806040526004361015610011575f80fd5b5f358060e01c80634c1c1fcd1461039e5780635fcc08b01461035957806367aff484146102a057806374d5e1001461027457806386bed3e01461023057806395a8c58d146101f15763ef4e953114610067575f80fd5b346101ed5760603660031901126101ed57610080610415565b9061008961042c565b61009161043c565b916001600160e01b0319166100a68133610483565b156101d75750811561011c57602060ff7f582ef36343e8b1880321539d4cfd56efd85de66528023dd3c6ce00eb273a04779263ffffffff60e01b86165f525f5160206104e25f395f51905f52835260405f2060018383161b81541790555b604051941515855216936001600160e01b03191692a3005b60ff8116908115806101a2575b6101835760ff6020917f582ef36343e8b1880321539d4cfd56efd85de66528023dd3c6ce00eb273a04779363ffffffff60e01b87165f525f5160206104e25f395f51905f528452600160405f20911b198154169055610104565b632f5e2ee760e01b5f9081526001600160e01b03198516600452602490fd5b506001600160e01b0319841663ef4e953160e01b81149081156101c6575b50610129565b6319ebfd2160e21b1490505f6101c0565b631d64bc3360e11b5f523360045260245260445ffd5b5f80fd5b346101ed5760403660031901126101ed57602061020c6103ff565b600160ff61022161021b61042c565b9361044b565b5492161b161515604051908152f35b346101ed5760403660031901126101ed576102496103ff565b602435906001600160e01b0319821682036101ed5760209161026a91610483565b6040519015158152f35b346101ed5760203660031901126101ed5760206102976102926103ff565b61044b565b54604051908152f35b50346101ed5760603660031901126101ed576102ba6103ff565b906102c361042c565b6102cb61043c565b916001600160e01b0319166102e08133610483565b156101d75750602060ff7f4c9bdd0c8e073eb5eda2250b18d8e5121ff27b62064fbeeeed4869bb99bc5bf292845f1461033f5761031c8661044b565b60018383161b81541790555b604051941515855216936001600160a01b031692a3005b6103488661044b565b60018383161b198154169055610328565b346101ed5760203660031901126101ed576001600160e01b031961037b610415565b165f525f5160206104e25f395f51905f52602052602060405f2054604051908152f35b346101ed5760203660031901126101ed575f6103b86103ff565b6103c18161044b565b600181541790557f4c9bdd0c8e073eb5eda2250b18d8e5121ff27b62064fbeeeed4869bb99bc5bf26020604051926001845260018060a01b031692a3005b600435906001600160a01b03821682036101ed57565b600435906001600160e01b0319821682036101ed57565b6024359060ff821682036101ed57565b6044359081151582036101ed57565b6001600160a01b03165f9081527f35edad4c931e57ec40cedc90b9e3e052832d1b49c07eb789b019aea9b39c91d96020526040902090565b61048c8161044b565b549163ffffffff60e01b165f525f5160206104e25f395f51905f5260205260405f20549081156104d9576104c160019161044b565b541615918215926104d157505090565b161515919050565b50505060019056fe35edad4c931e57ec40cedc90b9e3e052832d1b49c07eb789b019aea9b39c91daa264697066735822122074594921f97a0abe055b2d5a4dea3c33dedd78779ea0d72018a51ac51caf2bca64736f6c634300081e0033","linkReferences":{}},"methodIdentifiers":{"AccessControl_init(address)":"4c1c1fcd","canCall(address,bytes4)":"86bed3e0","functionRoles(bytes4)":"5fcc08b0","hasRole(address,uint8)":"95a8c58d","setFunctionAccess(bytes4,uint8,bool)":"ef4e9531","setUserRole(address,uint8,bool)":"67aff484","userRoles(address)":"74d5e100"},"id":41}