{"abi":[{"type":"function","name":"AccessControl_init","inputs":[{"name":"admin","type":"address","internalType":"address"}],"outputs":[],"stateMutability":"nonpayable"},{"type":"function","name":"authority","inputs":[],"outputs":[{"name":"","type":"address","internalType":"address"}],"stateMutability":"view"},{"type":"function","name":"canCall","inputs":[{"name":"user","type":"address","internalType":"address"},{"name":"functionSig","type":"bytes4","internalType":"bytes4"}],"outputs":[{"name":"","type":"bool","internalType":"bool"}],"stateMutability":"view"},{"type":"function","name":"functionRoles","inputs":[{"name":"functionSig","type":"bytes4","internalType":"bytes4"}],"outputs":[{"name":"","type":"bytes32","internalType":"bytes32"}],"stateMutability":"view"},{"type":"function","name":"hasRole","inputs":[{"name":"user","type":"address","internalType":"address"},{"name":"role","type":"uint8","internalType":"uint8"}],"outputs":[{"name":"","type":"bool","internalType":"bool"}],"stateMutability":"view"},{"type":"function","name":"packedSelectors","inputs":[],"outputs":[{"name":"","type":"bytes","internalType":"bytes"}],"stateMutability":"pure"},{"type":"function","name":"setAuthority","inputs":[{"name":"newAuthority","type":"address","internalType":"address"}],"outputs":[],"stateMutability":"nonpayable"},{"type":"function","name":"setFunctionAccess","inputs":[{"name":"functionSig","type":"bytes4","internalType":"bytes4"},{"name":"role","type":"uint8","internalType":"uint8"},{"name":"enabled","type":"bool","internalType":"bool"}],"outputs":[],"stateMutability":"nonpayable"},{"type":"function","name":"setUserRole","inputs":[{"name":"user","type":"address","internalType":"address"},{"name":"role","type":"uint8","internalType":"uint8"},{"name":"enabled","type":"bool","internalType":"bool"}],"outputs":[],"stateMutability":"nonpayable"},{"type":"function","name":"userRoles","inputs":[{"name":"user","type":"address","internalType":"address"}],"outputs":[{"name":"","type":"bytes32","internalType":"bytes32"}],"stateMutability":"view"},{"type":"event","name":"AuthorityUpdated","inputs":[{"name":"oldAuthority","type":"address","indexed":true,"internalType":"address"},{"name":"newAuthority","type":"address","indexed":true,"internalType":"address"}],"anonymous":false},{"type":"event","name":"FunctionAccessChanged","inputs":[{"name":"functionSig","type":"bytes4","indexed":true,"internalType":"bytes4"},{"name":"role","type":"uint8","indexed":true,"internalType":"uint8"},{"name":"enabled","type":"bool","indexed":false,"internalType":"bool"}],"anonymous":false},{"type":"event","name":"UserRoleUpdated","inputs":[{"name":"user","type":"address","indexed":true,"internalType":"address"},{"name":"role","type":"uint8","indexed":true,"internalType":"uint8"},{"name":"enabled","type":"bool","indexed":false,"internalType":"bool"}],"anonymous":false},{"type":"error","name":"AccessControl_CallerIsNotAuthorized","inputs":[{"name":"caller","type":"address","internalType":"address"},{"name":"functionSig","type":"bytes4","internalType":"bytes4"}]},{"type":"error","name":"AccessControl_CannotRemoveAdminFromCriticalFunction","inputs":[{"name":"functionSig","type":"bytes4","internalType":"bytes4"}]}],"bytecode":{"object":"0x608080604052346015576108cf908161001a8239f35b5f80fdfe6080806040526004361015610012575f80fd5b5f35908160e01c9081633e62267c146104d2575080634c1c1fcd146104a65780635fcc08b01461046157806367aff484146103a857806374d5e1001461037c5780637a9e5e4b146102e057806386bed3e01461029c57806395a8c58d1461025d578063bf7e214f146102165763ef4e95311461008c575f80fd5b34610212576060366003190112610212576100a56105b1565b906100ae6105c8565b6100b66105d8565b916001600160e01b0319166100cb813361069e565b156101fc5750811561014157602060ff7f582ef36343e8b1880321539d4cfd56efd85de66528023dd3c6ce00eb273a04779263ffffffff60e01b86165f525f51602061087a5f395f51905f52835260405f2060018383161b81541790555b604051941515855216936001600160e01b03191692a3005b60ff8116908115806101c7575b6101a85760ff6020917f582ef36343e8b1880321539d4cfd56efd85de66528023dd3c6ce00eb273a04779363ffffffff60e01b87165f525f51602061087a5f395f51905f528452600160405f20911b198154169055610129565b632f5e2ee760e01b5f9081526001600160e01b03198516600452602490fd5b506001600160e01b0319841663ef4e953160e01b81149081156101eb575b5061014e565b6319ebfd2160e21b1490505f6101e5565b631d64bc3360e11b5f523360045260245260445ffd5b5f80fd5b34610212575f366003190112610212577fce1c17acaaa67de66e928cd49c8f658667a825223bee6fda99a14908362bcdac546040516001600160a01b039091168152602090f35b3461021257604036600319011261021257602061027861059b565b600160ff61028d6102876105c8565b9361061d565b5492161b161515604051908152f35b34610212576040366003190112610212576102b561059b565b602435906001600160e01b031982168203610212576020916102d6916106ef565b6040519015158152f35b5034610212576020366003190112610212576102fa61059b565b906001600160e01b03191661030f813361069e565b156101fc57507fce1c17acaaa67de66e928cd49c8f658667a825223bee6fda99a14908362bcdac80546001600160a01b039283166001600160a01b0319821681179092559091167fa3396fd7f6e0a21b50e5089d2da70d5ac0a3bbbd1f617a93f134b763899801985f80a3005b3461021257602036600319011261021257602061039f61039a61059b565b61061d565b54604051908152f35b5034610212576060366003190112610212576103c261059b565b906103cb6105c8565b6103d36105d8565b916001600160e01b0319166103e8813361069e565b156101fc5750602060ff7f4c9bdd0c8e073eb5eda2250b18d8e5121ff27b62064fbeeeed4869bb99bc5bf292845f14610447576104248661061d565b60018383161b81541790555b604051941515855216936001600160a01b031692a3005b6104508661061d565b60018383161b198154169055610430565b34610212576020366003190112610212576001600160e01b03196104836105b1565b165f525f51602061087a5f395f51905f52602052602060405f2054604051908152f35b34610212576020366003190112610212576104c76104c261059b565b610655565b6104d030610655565b005b34610212575f3660031901126102125763ef4e953160e01b602082019081526319ebfd2160e21b602480840191909152630435f69f60e51b60288401526395a8c58d60e01b602c8401526274d5e160e81b60308401526305fcc08b60e41b603484015263bf7e214f60e01b6038840152637a9e5e4b60e01b603c840152634c1c1fcd60e01b60408481019190915290835290916105706044826105e7565b8151928391602083525180918160208501528484015e5f828201840152601f01601f19168101030190f35b600435906001600160a01b038216820361021257565b600435906001600160e01b03198216820361021257565b6024359060ff8216820361021257565b60443590811515820361021257565b90601f8019910116810190811067ffffffffffffffff82111761060957604052565b634e487b7160e01b5f52604160045260245ffd5b6001600160a01b03165f9081527fce1c17acaaa67de66e928cd49c8f658667a825223bee6fda99a14908362bcdaa6020526040902090565b5f906106608161061d565b600181541790557f4c9bdd0c8e073eb5eda2250b18d8e5121ff27b62064fbeeeed4869bb99bc5bf26020604051926001845260018060a01b031692a3565b816106a8916106ef565b6106e9577f511915e52b7f9e690b9fdc662acaf5600fd3722c87eb951d3abd26e93a784dca5c9060ff82166106dd5750505f90565b6106e691610837565b90565b50600190565b7fce1c17acaaa67de66e928cd49c8f658667a825223bee6fda99a14908362bcdac546001600160a01b03168061078c575b5061072a8161061d565b549163ffffffff60e01b165f525f51602061087a5f395f51905f5260205260405f20549081156107775761075f60019161061d565b5416151591821561076f57505090565b161515919050565b60019250610785915061061d565b5416151590565b6040805163b700961360e01b81526001600160a01b03841660048201523060248201526001600160e01b03198516604482015291829060649082905afa5f91816107e8575b5015610720576107e1575f610720565b5050600190565b9091506040813d60401161082f575b81610804604093836105e7565b81010312610212578051908115158203610212576020015163ffffffff81160361021257905f6107d1565b3d91506107f7565b60ff169081156107e15763ffffffff60e01b165f525f51602061087a5f395f51905f5260205260405f2054908115610873576001901b16151590565b50505f9056fece1c17acaaa67de66e928cd49c8f658667a825223bee6fda99a14908362bcdaba26469706673582212200ae9cc288014d3ab009359a18a266dda9efe711ecccc0b6cf923b3ebc904c91464736f6c634300081e0033","linkReferences":{}},"methodIdentifiers":{"AccessControl_init(address)":"4c1c1fcd","authority()":"bf7e214f","canCall(address,bytes4)":"86bed3e0","functionRoles(bytes4)":"5fcc08b0","hasRole(address,uint8)":"95a8c58d","packedSelectors()":"3e62267c","setAuthority(address)":"7a9e5e4b","setFunctionAccess(bytes4,uint8,bool)":"ef4e9531","setUserRole(address,uint8,bool)":"67aff484","userRoles(address)":"74d5e100"},"id":123}