{"abi":[{"type":"function","name":"affiliateSince","inputs":[{"name":"","type":"address","internalType":"address"},{"name":"","type":"address","internalType":"address"}],"outputs":[{"name":"","type":"uint256","internalType":"uint256"}],"stateMutability":"view"},{"type":"function","name":"affiliateUntil","inputs":[{"name":"","type":"address","internalType":"address"},{"name":"","type":"address","internalType":"address"}],"outputs":[{"name":"","type":"uint256","internalType":"uint256"}],"stateMutability":"view"},{"type":"function","name":"batchSetAffiliateStatus","inputs":[{"name":"token","type":"address","internalType":"address"},{"name":"holders","type":"address[]","internalType":"address[]"},{"name":"statuses","type":"bool[]","internalType":"bool[]"}],"outputs":[],"stateMutability":"nonpayable"},{"type":"function","name":"checkIsAffiliate","inputs":[{"name":"token","type":"address","internalType":"address"},{"name":"holder","type":"address","internalType":"address"}],"outputs":[{"name":"","type":"bool","internalType":"bool"}],"stateMutability":"view"},{"type":"function","name":"getAffiliateDuration","inputs":[{"name":"token","type":"address","internalType":"address"},{"name":"holder","type":"address","internalType":"address"}],"outputs":[{"name":"","type":"uint256","internalType":"uint256"}],"stateMutability":"view"},{"type":"function","name":"getAffiliateHistory","inputs":[{"name":"token","type":"address","internalType":"address"},{"name":"holder","type":"address","internalType":"address"}],"outputs":[{"name":"currentStatus","type":"bool","internalType":"bool"},{"name":"since","type":"uint256","internalType":"uint256"},{"name":"until","type":"uint256","internalType":"uint256"}],"stateMutability":"view"},{"type":"function","name":"getAffiliateSince","inputs":[{"name":"token","type":"address","internalType":"address"},{"name":"holder","type":"address","internalType":"address"}],"outputs":[{"name":"","type":"uint256","internalType":"uint256"}],"stateMutability":"view"},{"type":"function","name":"isAffiliate","inputs":[{"name":"","type":"address","internalType":"address"},{"name":"","type":"address","internalType":"address"}],"outputs":[{"name":"","type":"bool","internalType":"bool"}],"stateMutability":"view"},{"type":"function","name":"moduleName","inputs":[],"outputs":[{"name":"","type":"string","internalType":"string"}],"stateMutability":"pure"},{"type":"function","name":"moduleVersion","inputs":[],"outputs":[{"name":"","type":"string","internalType":"string"}],"stateMutability":"pure"},{"type":"function","name":"processTransfer","inputs":[{"name":"","type":"address","internalType":"address"},{"name":"","type":"address","internalType":"address"},{"name":"","type":"bytes32","internalType":"bytes32"},{"name":"","type":"uint256","internalType":"uint256"}],"outputs":[],"stateMutability":"pure"},{"type":"function","name":"setAffiliateStatus","inputs":[{"name":"token","type":"address","internalType":"address"},{"name":"holder","type":"address","internalType":"address"},{"name":"status","type":"bool","internalType":"bool"}],"outputs":[],"stateMutability":"nonpayable"},{"type":"function","name":"tokenOwner","inputs":[{"name":"","type":"address","internalType":"address"}],"outputs":[{"name":"","type":"address","internalType":"address"}],"stateMutability":"view"},{"type":"function","name":"validateTransfer","inputs":[{"name":"","type":"address","internalType":"address"},{"name":"","type":"address","internalType":"address"},{"name":"","type":"bytes32","internalType":"bytes32"},{"name":"","type":"uint256","internalType":"uint256"}],"outputs":[{"name":"","type":"bool","internalType":"bool"}],"stateMutability":"pure"},{"type":"event","name":"AffiliateStatusBatchSet","inputs":[{"name":"token","type":"address","indexed":true,"internalType":"address"},{"name":"count","type":"uint256","indexed":false,"internalType":"uint256"}],"anonymous":false},{"type":"event","name":"AffiliateStatusSet","inputs":[{"name":"token","type":"address","indexed":true,"internalType":"address"},{"name":"holder","type":"address","indexed":true,"internalType":"address"},{"name":"isAffiliate","type":"bool","indexed":false,"internalType":"bool"}],"anonymous":false},{"type":"error","name":"AffiliateStatus_UnauthorizedCaller","inputs":[]},{"type":"error","name":"LengthMismatch","inputs":[]}],"bytecode":{"object":"0x608080604052346015576109e7908161001a8239f35b5f80fdfe60806040526004361015610011575f80fd5b5f3560e01c8063048b092e1461075b5780633ab69b621461071b57806359409d57146106c55780639000ad22146106c557806393f0899a1461065d578063962b155914610640578063969529de146103d457806399c4a5c214610349578063baa3b4d7146102e1578063d99099ee1461019b578063dca79b3a1461014b578063e00e83c31461013b578063e307a4c8146100eb5763eb6aa188146100b3575f80fd5b346100e75760403660031901126100e75760206100df6100d1610787565b6100d961079d565b90610903565b604051908152f35b5f80fd5b346100e75760403660031901126100e757610104610787565b61010c61079d565b6001600160a01b039182165f908152600160209081526040808320949093168252928352819020549051908152f35b346100e757610149366107dd565b005b346100e75760403660031901126100e757610164610787565b61016c61079d565b6001600160a01b039182165f908152600260209081526040808320949093168252928352819020549051908152f35b346100e75760603660031901126100e7576101b4610787565b6101bc61079d565b90604435908115908115938484036100e7577f121c002522e3dbc8f9f00629e7b366448448fe3f9090504ce4551d88bd55ea2a92826101fc602094610952565b6001600160a01b039081165f8181528086526040808220938616808352938752808220548383528288528183209483529387529020805460ff191660ff8915158116919091179091559096911690806102d9575b156102a05750505f8481526001835260408082206001600160a01b0384168084529085528183204290558683526002855281832090835284528120555b6040519485526001600160a01b031693a3005b816102d1575b501561028d575f8481526002835260408082206001600160a01b03841683528452902042905561028d565b9050866102a6565b508015610250565b346100e7575f3660031901126100e757604051604081019080821067ffffffffffffffff831117610335576103319160405260058152640312e302e360dc1b6020820152604051918291826107b3565b0390f35b634e487b7160e01b5f52604160045260245ffd5b346100e75760403660031901126100e7576060610364610787565b61036c61079d565b6001600160a01b039182165f81815260208181526040808320959094168083529481528382205483835260018252848320868452825284832054938352600282528483209583529481529083902054835160ff95909516151585529084019190915290820152f35b346100e75760603660031901126100e7576103ed610787565b60243567ffffffffffffffff81116100e75761040d90369060040161081b565b909160443567ffffffffffffffff81116100e75761042f90369060040161081b565b61043883610952565b808403610631576001600160a01b0390921693915f5b84811061048357857fabc2d452dd24a21f2b6ba162e95d7656ae7709919bf10abf59a82ea0c1b2a989602087604051908152a2005b600190865f525f60205260405f206104a461049f8389896108be565b6108e2565b838060a01b03165f5260205260ff60405f2054166105086104ce6104c98487896108be565b6108f6565b895f525f60205260405f206104e761049f868c8c6108be565b868060a01b03165f5260205260405f209060ff801983541691151516179055565b6105166104c98386886108be565b80610629575b156105d35750865f528160205260405f2061053b61049f8389896108be565b838060a01b03165f5260205260405f20429055865f52600260205260405f2061056861049f8389896108be565b838060a01b03165f526020525f60408120555b61058961049f8288886108be565b877f121c002522e3dbc8f9f00629e7b366448448fe3f9090504ce4551d88bd55ea2a60206105bb6104c986898b6108be565b936040519415158552868060a01b031693a30161044e565b6105e16104c98386886108be565b159081610621575b501561057b57865f52600260205260405f2061060961049f8389896108be565b838060a01b03165f5260205260405f2042905561057b565b9050886105e9565b50801561051c565b631fec674760e31b5f5260045ffd5b346100e75761064e366107dd565b50505050602060405160018152f35b346100e7575f3660031901126100e757604051604081019080821067ffffffffffffffff8311176103355761033191604052601781527f416666696c6961746520537461747573204d6f64756c650000000000000000006020820152604051918291826107b3565b346100e75760403660031901126100e7576106de610787565b6106e661079d565b9060018060a01b03165f525f60205260405f209060018060a01b03165f52602052602060ff60405f2054166040519015158152f35b346100e75760203660031901126100e7576001600160a01b0361073c610787565b165f526003602052602060018060a01b0360405f205416604051908152f35b346100e75760403660031901126100e75760206100df610779610787565b61078161079d565b9061084c565b600435906001600160a01b03821682036100e757565b602435906001600160a01b03821682036100e757565b602060409281835280519182918282860152018484015e5f828201840152601f01601f1916010190565b60809060031901126100e7576004356001600160a01b03811681036100e757906024356001600160a01b03811681036100e757906044359060643590565b9181601f840112156100e75782359167ffffffffffffffff83116100e7576020808501948460051b0101116100e757565b6001600160a01b039081165f818152602081815260408083209486168352939052919091205460ff16156108b8575f52600160205260405f209060018060a01b03165f5260205260405f205442034281116108a45790565b634e487b7160e01b5f52601160045260245ffd5b50505f90565b91908110156108ce5760051b0190565b634e487b7160e01b5f52603260045260245ffd5b356001600160a01b03811681036100e75790565b3580151581036100e75790565b6001600160a01b039081165f818152602081815260408083209486168352939052919091205460ff16156108b8575f52600160205260405f209060018060a01b03165f5260205260405f205490565b6001600160a01b039081165f818152600360205260409020549091168061099857505f52600360205260405f20336bffffffffffffffffffffffff60a01b825416179055565b905033036109a257565b63761fe7a760e11b5f5260045ffdfea2646970667358221220a42a93c88a34f1e11d89613966e6a97b2b0d35e745313fdba9ca6f722c8ff5eb64736f6c634300081e0033","linkReferences":{}},"methodIdentifiers":{"affiliateSince(address,address)":"e307a4c8","affiliateUntil(address,address)":"dca79b3a","batchSetAffiliateStatus(address,address[],bool[])":"969529de","checkIsAffiliate(address,address)":"59409d57","getAffiliateDuration(address,address)":"048b092e","getAffiliateHistory(address,address)":"99c4a5c2","getAffiliateSince(address,address)":"eb6aa188","isAffiliate(address,address)":"9000ad22","moduleName()":"93f0899a","moduleVersion()":"baa3b4d7","processTransfer(address,address,bytes32,uint256)":"e00e83c3","setAffiliateStatus(address,address,bool)":"d99099ee","tokenOwner(address)":"3ab69b62","validateTransfer(address,address,bytes32,uint256)":"962b1559"},"id":235}