{"abi":[{"type":"function","name":"calculateGainLoss","inputs":[{"name":"token","type":"address","internalType":"address"},{"name":"units","type":"uint256","internalType":"uint256"},{"name":"expectedProceeds","type":"uint256","internalType":"uint256"}],"outputs":[{"name":"costBasis","type":"uint256","internalType":"uint256"},{"name":"realizedGain","type":"int256","internalType":"int256"},{"name":"isLongTerm","type":"bool","internalType":"bool"}],"stateMutability":"view"},{"type":"function","name":"checkWashSale","inputs":[{"name":"token","type":"address","internalType":"address"}],"outputs":[{"name":"isWashSale","type":"bool","internalType":"bool"},{"name":"recentAcquisitions","type":"uint256","internalType":"uint256"},{"name":"windowStart","type":"uint256","internalType":"uint256"},{"name":"windowEnd","type":"uint256","internalType":"uint256"}],"stateMutability":"view"},{"type":"function","name":"packedSelectors","inputs":[],"outputs":[{"name":"","type":"bytes","internalType":"bytes"}],"stateMutability":"pure"},{"type":"function","name":"previewSale","inputs":[{"name":"token","type":"address","internalType":"address"},{"name":"units","type":"uint256","internalType":"uint256"}],"outputs":[{"name":"lotIds","type":"bytes32[]","internalType":"bytes32[]"},{"name":"quantities","type":"uint256[]","internalType":"uint256[]"},{"name":"costBasis","type":"uint256","internalType":"uint256"},{"name":"taxStrategy","type":"uint8","internalType":"uint8"}],"stateMutability":"view"},{"type":"function","name":"sellAsset","inputs":[{"name":"token","type":"address","internalType":"address"},{"name":"units","type":"uint256","internalType":"uint256"},{"name":"buyer","type":"address","internalType":"address"},{"name":"paymentToken","type":"address","internalType":"address"},{"name":"price","type":"uint256","internalType":"uint256"}],"outputs":[{"name":"lotIds","type":"bytes32[]","internalType":"bytes32[]"},{"name":"quantities","type":"uint256[]","internalType":"uint256[]"},{"name":"costBasis","type":"uint256","internalType":"uint256"}],"stateMutability":"nonpayable"},{"type":"event","name":"AssetDisposed","inputs":[{"name":"wallet","type":"address","indexed":true,"internalType":"address"},{"name":"token","type":"address","indexed":true,"internalType":"address"},{"name":"lotIds","type":"bytes32[]","indexed":false,"internalType":"bytes32[]"},{"name":"quantities","type":"uint256[]","indexed":false,"internalType":"uint256[]"},{"name":"totalUnits","type":"uint256","indexed":false,"internalType":"uint256"},{"name":"counterparty","type":"address","indexed":true,"internalType":"address"},{"name":"paymentToken","type":"address","indexed":false,"internalType":"address"},{"name":"proceeds","type":"uint256","indexed":false,"internalType":"uint256"},{"name":"costBasis","type":"uint256","indexed":false,"internalType":"uint256"},{"name":"taxStrategy","type":"uint8","indexed":false,"internalType":"uint8"},{"name":"disposalType","type":"uint8","indexed":false,"internalType":"enum IAssetDisposal.DisposalType"}],"anonymous":false},{"type":"event","name":"WashSaleDetected","inputs":[{"name":"wallet","type":"address","indexed":true,"internalType":"address"},{"name":"token","type":"address","indexed":true,"internalType":"address"},{"name":"disallowedLoss","type":"uint256","indexed":false,"internalType":"uint256"},{"name":"windowStart","type":"uint256","indexed":false,"internalType":"uint256"},{"name":"windowEnd","type":"uint256","indexed":false,"internalType":"uint256"},{"name":"recentAcquisitions","type":"uint256","indexed":false,"internalType":"uint256"}],"anonymous":false},{"type":"error","name":"AccessControl_CallerIsNotAuthorized","inputs":[{"name":"caller","type":"address","internalType":"address"},{"name":"functionSig","type":"bytes4","internalType":"bytes4"}]},{"type":"error","name":"AssetDisposal_InsufficientBalance","inputs":[]},{"type":"error","name":"AssetDisposal_InvalidBuyer","inputs":[]},{"type":"error","name":"AssetDisposal_InvalidPrice","inputs":[]},{"type":"error","name":"AssetDisposal_InvalidToken","inputs":[]},{"type":"error","name":"AssetDisposal_NotInitialized","inputs":[]},{"type":"error","name":"AssetDisposal_PaymentFailed","inputs":[]},{"type":"error","name":"AssetDisposal_TransferFailed","inputs":[]},{"type":"error","name":"SafeERC20FailedOperation","inputs":[{"name":"token","type":"address","internalType":"address"}]}],"bytecode":{"object":"0x6080806040523460155761127d908161001a8239f35b5f80fdfe6080806040526004361015610012575f80fd5b5f358060e01c91826311817f14146108f5575081633e62267c1461086f5781634a236d53146107035781638c6891cc14610156575063a41e056d14610055575f80fd5b346101525760603660031901126101525761006e610a34565b6001600160a01b03811690604435821561014357604051636b8fb8ab60e01b81523060048201526024803590820152925f90849060449082905afa8015610138575f935f91610110575b506100c4908484610e53565b91828203915f841280158285131691841216176100fc576060936100e791610f67565b90604051928352602083015215156040820152f35b634e487b7160e01b5f52601160045260245ffd5b6100c4945061013191503d805f833e6101298183610a7d565b810190610b28565b90936100b8565b6040513d5f823e3d90fd5b638f9bb13d60e01b5f5260045ffd5b5f80fd5b346101525760a03660031901126101525761016f610a34565b602435906044356001600160a01b0381169190829003610152576064356001600160a01b0381169081900361015257608435946001600160e01b0319166101b68133610f19565b156106ed57506001600160a01b0382169283156101435780156106de5785156106cf57604051636b8fb8ab60e01b815230600482015260248101869052905f82604481885afa938415610138575f925f956106ad575b5082511561069e57848361021f92610e53565b9460405197632eff3ef160e11b89523060048a0152602089602481855afa988915610138575f99610662575b505f96875b8751891015610278576102706001916102698b8b610c16565b5190610be0565b980197610250565b90918793928a8c5f5b895181101561034d576102a7866102a28761029c858d610c16565b51610e22565b610e35565b6102b1828c610c16565b51906102bd838b610c16565b51604051926345ee5b2d60e11b845260048401528b602484015260448301525f6064830152608482015260e060a48201525f60e482015261010060c48201525f610104820152602081610124815f8c5af1801561013857610322575b50600101610281565b602090813d8111610346575b6103388183610a7d565b81010312610152578b610319565b503d61032e565b50929196949890935060205f604051828101906323b872dd60e01b82528860248201523060448201528560648201526064815261038b608482610a7d565b519082855af115610138575f513d6106595750803b155b6106475786821061045b575b8760ff6104439a94610451989796947f79703321fe482736208cdc83dc062196a584edb314d4bb8bda89ef1a2e5109bb946104076103f9604051966101008852610100880190610a4a565b86810360208801528b610a4a565b966040860152606085015260808401528960a08401521660c08201525f60e08201528030930390a4604051948594606086526060860190610a4a565b908482036020860152610a4a565b9060408301520390f35b9591969294909362278d0042115f146106405762278cff1942014281116100fc57955b62278d004201988942116100fc57604051630c9a9a8b60e31b8152306004820152965f886024818f5afa978815610138575f9861061c575b505f995f5b8951811015610572578d5f6104d0838d610c16565b51602460405180948193638ce16f8160e01b835260048301525afa908115610138575f91610550575b5061016081015115159081610540575b81610531575b5061051d575b6001016104bb565b9a610529600191610e14565b9b9050610515565b9050606042910151108f61050f565b90508b6060820151101590610509565b61056c91503d805f833e6105648183610a7d565b810190610cbf565b8f6104f9565b50879b7f79703321fe482736208cdc83dc062196a584edb314d4bb8bda89ef1a2e5109bb959894969950908d6104519b6104439f999d60ff9695948f86836105cc575b50505050505094509496979850949a5050506103ae565b6105d591610bd3565b926040519384526020840152604083015260608201527f839d4e4b7dfaa958fa44a312ac3251b8337fd0ee867aec408e01afd3f3cf5e6a60803092a3878f80808f866105b5565b6106399198503d805f833e6106318183610a7d565b810190610bed565b968c6104b6565b5f9561047e565b635274afe760e01b5f5260045260245ffd5b600114156103a2565b9098506020813d602011610696575b8161067e60209383610a7d565b810103126101525761068f90610bc5565b978961024b565b3d9150610671565b633c2fc55760e11b5f5260045ffd5b9094506106c59192503d805f833e6101298183610a7d565b919091938861020c565b631f810ebf60e21b5f5260045ffd5b630831aba160e11b5f5260045ffd5b631d64bc3360e11b5f523360045260245260445ffd5b346101525760203660031901126101525761071c610a34565b6001600160a01b03165f81156101435762278d004211156108685762278cff1942014281116100fc57905b62278d004201918242116100fc57604051630c9a9a8b60e31b81523060048201525f81602481885afa908115610138575f9161084e575b505f5b815181101561082f576107948183610c16565b5160405190638ce16f8160e01b825260048201525f816024818a5afa908115610138575f91610815575b5061016081015115159081610805575b816107f6575b506107e2575b600101610781565b926107ee600191610e14565b9390506107da565b905060604291015110876107d4565b90508360608201511015906107ce565b61082991503d805f833e6105648183610a7d565b876107be565b6080848685604051928015158452602084015260408301526060820152f35b61086291503d805f833e6106318183610a7d565b8561077e565b5f90610747565b34610152575f366003190112610152576040805163a41e056d60e01b60208201908152634a236d5360e01b60248301526304605fc560e21b602883015263231a247360e21b602c8301526010825291906108ca603082610a7d565b8151928391602083525180918160208501528484015e5f828201840152601f01601f19168101030190f35b346101525760403660031901126101525761090e610a34565b906001600160a01b038216801561014357636b8fb8ab60e01b825230600483015260248035908301525f82604481845afa928315610138575f925f94610a0a575b50602061095f8585602494610e53565b9260405192838092632eff3ef160e11b82523060048301525afa908115610138575f916109c4575b5060ff906109b46109a695604051968796608088526080880190610a4a565b908682036020880152610a4a565b9260408501521660608301520390f35b90506020813d602011610a02575b816109df60209383610a7d565b81010312610152576109a6936109b46109f960ff93610bc5565b92505093610987565b3d91506109d2565b602491945061095f9350610a296020913d805f833e6101298183610a7d565b95909450915061094f565b600435906001600160a01b038216820361015257565b90602080835192838152019201905f5b818110610a675750505090565b8251845260209384019390920191600101610a5a565b90601f8019910116810190811067ffffffffffffffff821117610a9f57604052565b634e487b7160e01b5f52604160045260245ffd5b67ffffffffffffffff8111610a9f5760051b60200190565b9080601f83011215610152578151610ae281610ab3565b92610af06040519485610a7d565b81845260208085019260051b82010192831161015257602001905b828210610b185750505090565b8151815260209182019101610b0b565b919060408382031261015257825167ffffffffffffffff81116101525781610b51918501610acb565b9260208101519067ffffffffffffffff821161015257019080601f83011215610152578151610b7f81610ab3565b92610b8d6040519485610a7d565b81845260208085019260051b82010192831161015257602001905b828210610bb55750505090565b8151815260209182019101610ba8565b519060ff8216820361015257565b919082039182116100fc57565b919082018092116100fc57565b9060208282031261015257815167ffffffffffffffff811161015257610c139201610acb565b90565b8051821015610c2a5760209160051b010190565b634e487b7160e01b5f52603260045260245ffd5b51906001600160a01b038216820361015257565b92919267ffffffffffffffff8211610a9f5760405191610c7c601f8201601f191660200184610a7d565b829481845281830111610152578281602093845f96015e010152565b9080601f83011215610152578151610c1392602001610c52565b5190811515820361015257565b6020818303126101525780519067ffffffffffffffff82116101525701906101a08282031261015257604051916101a0830183811067ffffffffffffffff821117610a9f57604052610d1081610c3e565b8352602081015160208401526040810151604084015260608101516060840152610d3c60808201610c3e565b608084015260a081015160a084015260c081015167ffffffffffffffff81116101525782610d6b918301610c98565b60c0840152610d7c60e08201610c3e565b60e0840152610d8e6101008201610bc5565b61010084015261012081015161012084015261014081015167ffffffffffffffff81116101525782610dc1918301610c98565b610140840152610dd46101608201610cb2565b6101608401526101808101519067ffffffffffffffff821161015257019080601f83011215610152578151610e0b92602001610c52565b61018082015290565b5f1981146100fc5760010190565b818102929181159184041417156100fc57565b8115610e3f570490565b634e487b7160e01b5f52601260045260245ffd5b909291925f905f5b8151811015610f1257610e6e8183610c16565b51604051638ce16f8160e01b815260048101919091525f816024816001600160a01b0389165afa908115610138575f91610ef8575b506020810190878251610ebc575b505050600101610e5b565b610eef92610ee18597936040610ed7600198610ee996610c16565b5191015190610e22565b905190610e35565b90610be0565b92905f87610eb1565b610f0c91503d805f833e6105648183610a7d565b5f610ea3565b5050925050565b81610f2391611014565b610f61577f511915e52b7f9e690b9fdc662acaf5600fd3722c87eb951d3abd26e93a784dca5c9060ff8216610f585750505f90565b610c13916111f2565b50600190565b919080511561100e575f19905f5b8151811015610ff657610f888183610c16565b51604051638ce16f8160e01b815260048101919091525f816024816001600160a01b038a165afa8015610138576060915f91610fdc575b500151838110610fd3575b50600101610f75565b92506001610fca565b610ff091503d805f833e6105648183610a7d565b5f610fbf565b50506301e1338091925061100a9042610bd3565b1190565b505f9150565b7fce1c17acaaa67de66e928cd49c8f658667a825223bee6fda99a14908362bcdac546001600160a01b031680611149575b5060018060a01b0381165f527fce1c17acaaa67de66e928cd49c8f658667a825223bee6fda99a14908362bcdaa60205260405f20549163ffffffff60e01b165f527fce1c17acaaa67de66e928cd49c8f658667a825223bee6fda99a14908362bcdab60205260405f2054908115611105576001600160a01b03165f9081527fce1c17acaaa67de66e928cd49c8f658667a825223bee6fda99a14908362bcdaa602052604090205460011615159182156110fd57505090565b161515919050565b6001600160a01b03165f9081527fce1c17acaaa67de66e928cd49c8f658667a825223bee6fda99a14908362bcdaa602052604090205460011615159150610c139050565b6040805163b700961360e01b81526001600160a01b03841660048201523060248201526001600160e01b03198516604482015291829060649082905afa5f91816111a5575b50156110455761119e575f611045565b5050600190565b9091506040813d6040116111ea575b816111c160409383610a7d565b810103126101525760206111d482610cb2565b91015163ffffffff81160361015257905f61118e565b3d91506111b4565b60ff1690811561119e5763ffffffff60e01b165f527fce1c17acaaa67de66e928cd49c8f658667a825223bee6fda99a14908362bcdab60205260405f2054908115611241576001901b16151590565b50505f9056fea264697066735822122077ab30ddf344634f71861aa593d980cb2c8a98ae576cf4512fc60695d3aaa34e64736f6c634300081e0033","linkReferences":{}},"methodIdentifiers":{"calculateGainLoss(address,uint256,uint256)":"a41e056d","checkWashSale(address)":"4a236d53","packedSelectors()":"3e62267c","previewSale(address,uint256)":"11817f14","sellAsset(address,uint256,address,address,uint256)":"8c6891cc"},"id":345}