{"abi":[{"type":"function","name":"CapitalCall_init","inputs":[{"name":"membershipToken","type":"address","internalType":"address"},{"name":"paymentToken","type":"address","internalType":"address"}],"outputs":[],"stateMutability":"nonpayable"},{"type":"function","name":"cancelCapitalCall","inputs":[{"name":"callId","type":"uint256","internalType":"uint256"}],"outputs":[],"stateMutability":"nonpayable"},{"type":"function","name":"contributeToCall","inputs":[{"name":"callId","type":"uint256","internalType":"uint256"},{"name":"amount","type":"uint256","internalType":"uint256"}],"outputs":[],"stateMutability":"nonpayable"},{"type":"function","name":"createCapitalCall","inputs":[{"name":"totalAmount","type":"uint256","internalType":"uint256"},{"name":"dueDate","type":"uint256","internalType":"uint256"},{"name":"purposeHash","type":"bytes32","internalType":"bytes32"},{"name":"paymentToken","type":"address","internalType":"address"},{"name":"members","type":"address[]","internalType":"address[]"}],"outputs":[{"name":"callId","type":"uint256","internalType":"uint256"}],"stateMutability":"nonpayable"},{"type":"function","name":"getCallCommitments","inputs":[{"name":"callId","type":"uint256","internalType":"uint256"}],"outputs":[{"name":"commitments","type":"tuple[]","internalType":"struct ICapitalCall.CallCommitment[]","components":[{"name":"member","type":"address","internalType":"address"},{"name":"ownershipBps","type":"uint256","internalType":"uint256"},{"name":"amountDue","type":"uint256","internalType":"uint256"},{"name":"amountPaid","type":"uint256","internalType":"uint256"}]}],"stateMutability":"view"},{"type":"function","name":"getCapitalCall","inputs":[{"name":"callId","type":"uint256","internalType":"uint256"}],"outputs":[{"name":"call","type":"tuple","internalType":"struct ICapitalCall.CapitalCall","components":[{"name":"id","type":"uint256","internalType":"uint256"},{"name":"totalAmount","type":"uint256","internalType":"uint256"},{"name":"totalReceived","type":"uint256","internalType":"uint256"},{"name":"dueDate","type":"uint256","internalType":"uint256"},{"name":"purposeHash","type":"bytes32","internalType":"bytes32"},{"name":"paymentToken","type":"address","internalType":"address"},{"name":"createdAt","type":"uint256","internalType":"uint256"},{"name":"cancelled","type":"bool","internalType":"bool"}]}],"stateMutability":"view"},{"type":"function","name":"getCapitalCallCount","inputs":[],"outputs":[{"name":"count","type":"uint256","internalType":"uint256"}],"stateMutability":"view"},{"type":"function","name":"getCommitment","inputs":[{"name":"callId","type":"uint256","internalType":"uint256"},{"name":"member","type":"address","internalType":"address"}],"outputs":[{"name":"commitment","type":"tuple","internalType":"struct ICapitalCall.CallCommitment","components":[{"name":"member","type":"address","internalType":"address"},{"name":"ownershipBps","type":"uint256","internalType":"uint256"},{"name":"amountDue","type":"uint256","internalType":"uint256"},{"name":"amountPaid","type":"uint256","internalType":"uint256"}]}],"stateMutability":"view"},{"type":"function","name":"getComplianceModule","inputs":[],"outputs":[{"name":"module","type":"address","internalType":"address"}],"stateMutability":"view"},{"type":"function","name":"getFundCapitalSummary","inputs":[],"outputs":[{"name":"summary","type":"tuple","internalType":"struct ICapitalCall.FundCapitalSummary","components":[{"name":"membershipToken","type":"address","internalType":"address"},{"name":"paymentToken","type":"address","internalType":"address"},{"name":"totalCommitted","type":"uint256","internalType":"uint256"},{"name":"totalContributed","type":"uint256","internalType":"uint256"},{"name":"totalDistributed","type":"uint256","internalType":"uint256"},{"name":"capitalCallCount","type":"uint256","internalType":"uint256"}]}],"stateMutability":"view"},{"type":"function","name":"getMemberOwnership","inputs":[{"name":"member","type":"address","internalType":"address"}],"outputs":[{"name":"ownershipBps","type":"uint256","internalType":"uint256"}],"stateMutability":"view"},{"type":"function","name":"getMemberTotalContributed","inputs":[{"name":"member","type":"address","internalType":"address"}],"outputs":[{"name":"total","type":"uint256","internalType":"uint256"}],"stateMutability":"view"},{"type":"function","name":"getMembershipToken","inputs":[],"outputs":[{"name":"token","type":"address","internalType":"address"}],"stateMutability":"view"},{"type":"function","name":"getPaymentToken","inputs":[],"outputs":[{"name":"token","type":"address","internalType":"address"}],"stateMutability":"view"},{"type":"function","name":"isCallFunded","inputs":[{"name":"callId","type":"uint256","internalType":"uint256"}],"outputs":[{"name":"funded","type":"bool","internalType":"bool"}],"stateMutability":"view"},{"type":"function","name":"isCapitalCallInitialized","inputs":[],"outputs":[{"name":"initialized","type":"bool","internalType":"bool"}],"stateMutability":"view"},{"type":"function","name":"packedSelectors","inputs":[],"outputs":[{"name":"","type":"bytes","internalType":"bytes"}],"stateMutability":"pure"},{"type":"function","name":"recordOffchainContribution","inputs":[{"name":"callId","type":"uint256","internalType":"uint256"},{"name":"member","type":"address","internalType":"address"},{"name":"amount","type":"uint256","internalType":"uint256"}],"outputs":[],"stateMutability":"nonpayable"},{"type":"function","name":"setComplianceModule","inputs":[{"name":"module","type":"address","internalType":"address"}],"outputs":[],"stateMutability":"nonpayable"},{"type":"function","name":"transferCommitments","inputs":[{"name":"from","type":"address","internalType":"address"},{"name":"to","type":"address","internalType":"address"},{"name":"tokenAmount","type":"uint256","internalType":"uint256"}],"outputs":[],"stateMutability":"nonpayable"},{"type":"event","name":"CapitalCallCancelled","inputs":[{"name":"callId","type":"uint256","indexed":true,"internalType":"uint256"}],"anonymous":false},{"type":"event","name":"CapitalCallCreated","inputs":[{"name":"callId","type":"uint256","indexed":true,"internalType":"uint256"},{"name":"totalAmount","type":"uint256","indexed":false,"internalType":"uint256"},{"name":"dueDate","type":"uint256","indexed":false,"internalType":"uint256"},{"name":"purposeHash","type":"bytes32","indexed":false,"internalType":"bytes32"},{"name":"paymentToken","type":"address","indexed":true,"internalType":"address"}],"anonymous":false},{"type":"event","name":"CapitalCallFunded","inputs":[{"name":"callId","type":"uint256","indexed":true,"internalType":"uint256"},{"name":"totalReceived","type":"uint256","indexed":false,"internalType":"uint256"}],"anonymous":false},{"type":"event","name":"CommitmentCalculated","inputs":[{"name":"callId","type":"uint256","indexed":true,"internalType":"uint256"},{"name":"member","type":"address","indexed":true,"internalType":"address"},{"name":"ownershipBps","type":"uint256","indexed":false,"internalType":"uint256"},{"name":"amountDue","type":"uint256","indexed":false,"internalType":"uint256"}],"anonymous":false},{"type":"event","name":"CommitmentsTransferred","inputs":[{"name":"callId","type":"uint256","indexed":true,"internalType":"uint256"},{"name":"from","type":"address","indexed":true,"internalType":"address"},{"name":"to","type":"address","indexed":true,"internalType":"address"},{"name":"amountDueTransferred","type":"uint256","indexed":false,"internalType":"uint256"},{"name":"amountPaidTransferred","type":"uint256","indexed":false,"internalType":"uint256"}],"anonymous":false},{"type":"event","name":"ComplianceModuleSet","inputs":[{"name":"module","type":"address","indexed":true,"internalType":"address"}],"anonymous":false},{"type":"event","name":"ContributionReceived","inputs":[{"name":"callId","type":"uint256","indexed":true,"internalType":"uint256"},{"name":"member","type":"address","indexed":true,"internalType":"address"},{"name":"amount","type":"uint256","indexed":false,"internalType":"uint256"},{"name":"isOffchain","type":"bool","indexed":false,"internalType":"bool"}],"anonymous":false},{"type":"event","name":"TokensMinted","inputs":[{"name":"callId","type":"uint256","indexed":true,"internalType":"uint256"},{"name":"member","type":"address","indexed":true,"internalType":"address"},{"name":"tokensMinted","type":"uint256","indexed":false,"internalType":"uint256"}],"anonymous":false},{"type":"error","name":"AccessControl_CallerIsNotAuthorized","inputs":[{"name":"caller","type":"address","internalType":"address"},{"name":"functionSig","type":"bytes4","internalType":"bytes4"}]},{"type":"error","name":"CapitalCall_AlreadyInitialized","inputs":[]},{"type":"error","name":"CapitalCall_CallCancelled","inputs":[]},{"type":"error","name":"CapitalCall_CallFullyFunded","inputs":[]},{"type":"error","name":"CapitalCall_CallNotFound","inputs":[]},{"type":"error","name":"CapitalCall_ExceedsAmountDue","inputs":[]},{"type":"error","name":"CapitalCall_InvalidAmount","inputs":[]},{"type":"error","name":"CapitalCall_InvalidDueDate","inputs":[]},{"type":"error","name":"CapitalCall_InvalidMember","inputs":[]},{"type":"error","name":"CapitalCall_NoCommitment","inputs":[]},{"type":"error","name":"CapitalCall_NoMembershipToken","inputs":[]},{"type":"error","name":"CapitalCall_NoTokenHolders","inputs":[]},{"type":"error","name":"CapitalCall_NotInitialized","inputs":[]},{"type":"error","name":"CapitalCall_UnauthorizedCaller","inputs":[]},{"type":"error","name":"SafeERC20FailedOperation","inputs":[{"name":"token","type":"address","internalType":"address"}]}],"bytecode":{"object":"0x6080806040523460155761206f908161001a8239f35b5f80fdfe6080806040526004361015610012575f80fd5b5f35908160e01c9081630f1bc0d8146114105750806318fc07c0146113d25780631dcda395146113a45780633993a51e1461128157806339eff876146110815780633d5e20171461104c5780633e62267c14610f03578063423db9c714610e535780634c998d0214610e285780634f0585f214610ca65780635977eeb514610b495780636aa81d4514610b01578063756bada0146109ed57806389fb26821461092d57806397cb5b10146104c9578063b1e15bf1146103f6578063bd3ff781146103ca578063c79339e214610383578063d41c3a651461034f5763e1f0e169146100fa575f80fd5b3461034b57606036600319011261034b5760043590610117611458565b90604435906001600160e01b0319166101308133611cfc565b15610335575060ff5f516020611ffa5f395f51905f52541615610326578015610317576001600160a01b038216801561030857835f525f51602061201a5f395f51905f5260205260405f20926005840154156102f95760ff6006850154166102ea57815f526009840160205260405f205480156102db576101c1600a860191845f528260205260405f2054906114e5565b84116102cc5760208484887fe3a3c4f3cdaa1ed257de7ec52114e6f93de7e08963cb632caa2587432c94a442604061027f85849961023b60018f7f5c8e94c72da12a6d6a1213edafd788896df5fd2d6527a9adeb11f8e5d0be1c4c9c8a5f528c52865f2061023086825461152a565b9055019d8e5461152a565b8d55610255825f516020611f9a5f395f51905f525461152a565b5f516020611f9a5f395f51905f525561026d816114f2565b61027883825461152a565b9055611baa565b948151908152600187820152a3604051908152a354905481101561029f57005b60207f85357f838e5d4c9f0eebb41e1b6a409bfa4eeb74025294c765a7c9eb405279ba91604051908152a2005b6343193ac160e01b5f5260045ffd5b633321b38d60e01b5f5260045ffd5b63f654662b60e01b5f5260045ffd5b631e3eeb2b60e21b5f5260045ffd5b63c4b04ec360e01b5f5260045ffd5b631fb8ee3760e01b5f5260045ffd5b636df89dd160e11b5f5260045ffd5b631d64bc3360e11b5f523360045260245260445ffd5b5f80fd5b3461034b575f36600319011261034b575f516020611f7a5f395f51905f52546040516001600160a01b039091168152602090f35b3461034b575f36600319011261034b577fb2e2f89cd6fdb17c259a726a88bd97db087e587e03e26ea97dbb5c52186018a2546040516001600160a01b039091168152602090f35b3461034b57602036600319011261034b5760206103ed6103e8611442565b6114f2565b54604051908152f35b3461034b57604036600319011261034b5761040f611442565b610417611458565b906001600160a01b038116156104ba575f516020611ffa5f395f51905f525460ff81166104ab576001600160a81b03191660089190911b610100600160a81b03161760019081175f516020611ffa5f395f51905f52555f516020611f7a5f395f51905f5280546001600160a01b0319166001600160a01b0393909316929092179091555f516020611fba5f395f51905f5255005b63d06b3c1760e01b5f5260045ffd5b6353bb6ad360e11b5f5260045ffd5b503461034b5760a036600319011261034b576064356001600160a01b0381169060243590600435906044359084810361034b576084359467ffffffffffffffff861161034b573660238701121561034b5785600401359667ffffffffffffffff881161034b573660248960051b8901011161034b576001600160e01b0319166105528133611cfc565b15610335575060ff5f516020611ffa5f395f51905f52541615610326578315610317574285111561091e57861561090f5761090957505f516020611f7a5f395f51905f52546001600160a01b0316915b5f516020611fba5f395f51905f5254925f19841461081957600184015f516020611fba5f395f51905f52555f8481525f51602061201a5f395f51905f526020526040902082815560028101869055600381018490556004810180546001600160a01b0319166001600160a01b0390931692831790554260058201559460078601600160401b89116108b4578054898255808a106108e3575b5060248801905f5260205f20905f5b8a81106108c8575050505f516020611fda5f395f51905f525493600160401b8510156108b457606086927f16a264b062e068916c0d6d6d083f12cda988962af93817dc7b75f89e710e7349926106cf856106b78a600160049c015f516020611fda5f395f51905f52556116c1565b90919082549060031b91821b915f19901b1916179055565b6040519187835260208301526040820152a35f516020611ffa5f395f51905f52546040516318160ddd60e01b815292602091849190829060081c6001600160a01b03165afa91821561086a575f92610880575b505f95946009600886019501965b868110156108755760249061074b828260051b850101611b96565b5f516020611ffa5f395f51905f52546040516370a0823160e01b81526001600160a01b039283166004820181905290949092602092869291839160081c165afa92831561086a575f93610837575b50821561082d5761271083029283046127100361081957867f7596b9a89e5c7931356d2b7d0b55285dba5a6a9041a1d23e447d2562959be46160406107e08960019761154a565b8d6127106107ee838c611537565b0490865f528d60205282845f2055865f5260205280835f205582519182526020820152a35b01610730565b634e487b7160e01b5f52601160045260245ffd5b5060019150610813565b9092506020813d8211610862575b81610852602093836114c3565b8101031261034b5751915f610799565b3d9150610845565b6040513d5f823e3d90fd5b602085604051908152f35b9091506020813d6020116108ac575b8161089c602093836114c3565b8101031261034b5751905f610722565b3d915061088f565b634e487b7160e01b5f52604160045260245ffd5b60019060206108d684611b96565b9301928185015501610649565b815f528960205f2091820191015b8181106108fe575061063a565b5f81556001016108f1565b916105a2565b631863a48760e31b5f5260045ffd5b631ad8dc6f60e21b5f5260045ffd5b3461034b57604036600319011261034b576080610948611458565b61095061169d565b506004355f9081525f51602061201a5f395f51905f52602090815260408083206001600160a01b03851684526008810183528184205460098201845282852054600a9092019093529281902054905193909291906109ad8561148a565b6001600160a01b03168085526020808601928352604080870194855260609687019586528051928352925190820152915190820152905191810191909152f35b3461034b57602036600319011261034b576101006004355f60e0604051610a13816114a6565b8281528260208201528260408201528260608201528260808201528260a08201528260c08201520152805f525f51602061201a5f395f51905f5260205260405f208054906001810154600282015460038301549060018060a01b036004850154169260ff60066005870154960154169560e0604051610a91816114a6565b8981526020810192835260408101938452606081019485526080810195865260a0810196875260c0810197885201961515875260405197885251602088015251604087015251606086015251608085015260018060a01b0390511660a08401525160c083015251151560e0820152f35b3461034b57606036600319011261034b57610b1a611442565b610b22611458565b9060ff5f516020611ffa5f395f51905f5254161561032657610b47916044359161172e565b005b503461034b57602036600319011261034b57600435906001600160e01b031916610b738133611cfc565b15610335575060ff5f516020611ffa5f395f51905f5254161561032657805f525f51602061201a5f395f51905f5260205260405f206005810154156102f957600601805460ff81166102ea5760ff191660011790555f516020611fda5f395f51905f52545f5b818110610c08575b827faa95595b8ba1eee616974ef0d83592b6f217a285cdc00d144ed1c488a7f4c95b5f80a2005b82610c12826116c1565b90549060031b1c14610c2657600101610bd9565b5f198201918211610819576106b7610c40610c4d936116c1565b90549060031b1c916116c1565b5f516020611fda5f395f51905f52548015610c92575f1901610c6e816116c1565b8154905f199060031b1b191690555f516020611fda5f395f51905f52555f80610be1565b634e487b7160e01b5f52603160045260245ffd5b3461034b57602036600319011261034b576004355f525f51602061201a5f395f51905f5260205260405f2060078101805490610ce182611685565b92610cef60405194856114c3565b828452601f19610cfe84611685565b015f5b818110610e115750505f6008820192600a600984019301915b858110610d9757866040518091602082016020835281518091526020604084019201905f5b818110610d4d575050500390f35b919350916020608082610d8960019488516060809160018060a01b03815116845260208101516020850152604081015160408501520151910152565b019401910191849392610d3f565b80610da460019284611705565b905460039190911b1c60a083901b839003165f818152602088815260408083205489835281842054928990529281902054905193909290610de48561148a565b8452602084015260408301526060820152610dff828a61171a565b52610e0a818961171a565b5001610d1a565b602090610e1c61169d565b82828901015201610d01565b3461034b57602036600319011261034b576020610e4b610e46611442565b611568565b604051908152f35b503461034b57602036600319011261034b57610e6d611442565b906001600160e01b031916610e828133611cfc565b15610335575060ff5f516020611ffa5f395f51905f52541615610326577fb2e2f89cd6fdb17c259a726a88bd97db087e587e03e26ea97dbb5c52186018a280546001600160a01b0319166001600160a01b039290921691821790557f3474a5c7c524cc1e2a83f0e56a46e3e3f9143cc25c9f96ebb9578758998bf5585f80a2005b3461034b575f36600319011261034b576040805163b1e15bf160e01b60208201908152635977eeb560e01b6024830152631cf7fc3b60e11b602883015263097cb5b160e41b602c830152632782c2f960e11b60308301526303ab5d6d60e51b6034830152633d5e201760e01b60388301526344fd934160e11b603c8301526363c99cf160e11b82840152631cc9d28f60e11b604483015263264cc68160e11b604883015263bd3ff78160e01b604c808401919091526301e3781b60e31b605084015263d41c3a6560e01b60548401526263f01f60e61b6058840152631dcda39560e01b605c84015263e1f0e16960e01b606084015263423db9c760e01b6064840152636aa81d4560e01b606884015282529190611021606c826114c3565b8151928391602083525180918160208501528484015e5f828201840152601f01601f19168101030190f35b3461034b575f36600319011261034b575f516020611fba5f395f51905f52545f19810190811161081957602090604051908152f35b3461034b57604036600319011261034b5760043560243560ff5f516020611ffa5f395f51905f5254161561032657801561031757815f525f51602061201a5f395f51905f5260205260405f20906005820154156102f95760ff6006830154166102ea57335f90815260098301602052604090205480156102db5761111d600a84019160018060a01b0333165f528260205260405f2054906114e5565b82116102cc5760018060a01b0360048401541660205f604051828101906323b872dd60e01b8252336024820152306044820152866064820152606481526111656084826114c3565b519082855af11561086a575f513d6112785750803b155b611266575060018060a01b0333165f5260205260405f2061119e82825461152a565b905560018201906111b081835461152a565b82556111ca815f516020611f9a5f395f51905f525461152a565b5f516020611f9a5f395f51905f52556111e2336114f2565b6111ed82825461152a565b90556111f98133611baa565b906040519081525f6020820152847fe3a3c4f3cdaa1ed257de7ec52114e6f93de7e08963cb632caa2587432c94a44260403393a3604051908152837f5c8e94c72da12a6d6a1213edafd788896df5fd2d6527a9adeb11f8e5d0be1c4c60203393a354905481101561029f57005b635274afe760e01b5f5260045260245ffd5b6001141561117c565b3461034b575f36600319011261034b575f60a06040516112a08161146e565b8281526020810183905260408101839052606081018390526080810183905201525f516020611ffa5f395f51905f52545f516020611f7a5f395f51905f52547fb2e2f89cd6fdb17c259a726a88bd97db087e587e03e26ea97dbb5c52186018a3545f516020611f9a5f395f51905f52545f516020611fba5f395f51905f5254919360081c6001600160a01b03908116935f198401939116919083116108195760c0946040519261134f8461146e565b85845260208401908152604084019182526060840192835260a060808501945f86520194855260405195865260018060a01b0390511660208601525160408501525160608401525160808301525160a0820152f35b3461034b575f36600319011261034b57602060ff5f516020611ffa5f395f51905f5254166040519015158152f35b3461034b57602036600319011261034b576004355f525f51602061201a5f395f51905f52602052602060405f20600181015490541115604051908152f35b3461034b575f36600319011261034b575f516020611ffa5f395f51905f525460081c6001600160a01b03168152602090f35b600435906001600160a01b038216820361034b57565b602435906001600160a01b038216820361034b57565b60c0810190811067ffffffffffffffff8211176108b457604052565b6080810190811067ffffffffffffffff8211176108b457604052565b610100810190811067ffffffffffffffff8211176108b457604052565b90601f8019910116810190811067ffffffffffffffff8211176108b457604052565b9190820391821161081957565b6001600160a01b03165f9081527fb2e2f89cd6fdb17c259a726a88bd97db087e587e03e26ea97dbb5c52186018a86020526040902090565b9190820180921161081957565b8181029291811591840414171561081957565b8115611554570490565b634e487b7160e01b5f52601260045260245ffd5b5f516020611ffa5f395f51905f525460081c6001600160a01b031690811561167f576040516318160ddd60e01b815290602082600481865afa91821561086a575f9261164b575b508115611644576040516370a0823160e01b81526001600160a01b03909116600482015291602090839060249082905afa91821561086a575f92611610575b5061271082029180830461271014901517156108195761160d9161154a565b90565b9091506020813d60201161163c575b8161162c602093836114c3565b8101031261034b5751905f6115ee565b3d915061161f565b5050505f90565b9091506020813d602011611677575b81611667602093836114c3565b8101031261034b5751905f6115af565b3d915061165a565b50505f90565b67ffffffffffffffff81116108b45760051b60200190565b604051906116aa8261148a565b5f6060838281528260208201528260408201520152565b5f516020611fda5f395f51905f52548110156116f1575f516020611fda5f395f51905f525f5260205f2001905f90565b634e487b7160e01b5f52603260045260245ffd5b80548210156116f1575f5260205f2001905f90565b80518210156116f15760209160051b010190565b7fb2e2f89cd6fdb17c259a726a88bd97db087e587e03e26ea97dbb5c52186018a2549293926001600160a01b03163303611b87576001600160a01b03169283158015611b76575b611b37578015611b37575f516020611ffa5f395f51905f52546040516318160ddd60e01b8152906020908290600490829060081c6001600160a01b03165afa90811561086a575f91611b44575b508015611b3d57670de0b6b3a76400008202918204670de0b6b3a764000003610819576117ee9161154a565b928315611b37575f670de0b6b3a7640000850292858404670de0b6b3a76400001415670de0b6b3a7640000612710880297880461271014159704925b5f516020611fda5f395f51905f5254811015611b2d57611849816116c1565b90549060031b1c90815f525f51602061201a5f395f51905f5260205260405f209160ff600684015416611b2357600183015483541115611b23576008830190875f528160205260405f20548015611b1757670de0b6b3a76400008102908104670de0b6b3a7640000036108195785610819576118ca6127108d92048b61154a565b92670de0b6b3a76400008411611b07575b8960098701815f5280602052670de0b6b3a764000061191b60405f205497600a8b01945f5284602052826119148260405f20549b611537565b0498611537565b0493861580611aff575b611aef57610819578b5f528060205260405f206119438782546114e5565b90558b5f528160205260405f2061195b8582546114e5565b90558b5f52826020528a60405f2054115f14611ae3578b5f52826020526119868b60405f20546114e5565b908c95949392915b865f528360205260405f205560018060a01b038b165f5260205260405f206119b787825461152a565b905560018060a01b038a165f5260205260405f206119d683825461152a565b905560018060a01b0389165f5260205260405f206119f58a825461152a565b90555f9560075f9101968754915b828110611a9b575b5015611a56575b506001955060405193845260208401527f2b78192e9aba10919990ffc582131c61e5f0142ee53dbf6da6ce5527f7cadf3a6040868060a01b03891694a45b0161182a565b9250600160401b8310156108b457611a7683600197888d96018155611705565b81549060031b90888060a01b038b16821b91898060a01b03901b19161790555f611a12565b9091929394611aaa828a611705565b905460039190911b1c6001600160a01b03908116908c1614611ad55750600101908b94939291611a03565b94939291505060015f611a0b565b8b94939291905f61198e565b5050505050505060019150611a50565b508415611925565b670de0b6b3a764000093506118db565b50505060019150611a50565b5060019150611a50565b5050505050509050565b50509050565b5050509050565b90506020813d602011611b6e575b81611b5f602093836114c3565b8101031261034b57515f6117c2565b3d9150611b52565b506001600160a01b03821615611775565b637e22573560e01b5f5260045ffd5b356001600160a01b038116810361034b5790565b5f516020611ffa5f395f51905f525490919060081c6001600160a01b03168015611644576040516318160ddd60e01b8152602081600481855afa90811561086a575f91611cc8575b505f9283929180611c875750935b6040516340c10f1960e01b602082019081526001600160a01b039092166024820152604480820187905281528390611c396064826114c3565b51925af13d15611c82573d67ffffffffffffffff81116108b45760405190611c6b601f8201601f1916602001836114c3565b81525f60203d92013e5b15611c7d5790565b505f90565b611c75565b611c9f825f516020611f9a5f395f51905f52546114e5565b9081158514611cb057505093611c00565b611cbd90611cc293611537565b61154a565b93611c00565b9190506020823d602011611cf4575b81611ce4602093836114c3565b8101031261034b5790515f611bf2565b3d9150611cd7565b81611d0691611d4a565b611d44577f511915e52b7f9e690b9fdc662acaf5600fd3722c87eb951d3abd26e93a784dca5c9060ff8216611d3b5750505f90565b61160d91611f2a565b50600190565b7fce1c17acaaa67de66e928cd49c8f658667a825223bee6fda99a14908362bcdac546001600160a01b031680611e7f575b5060018060a01b0381165f527fce1c17acaaa67de66e928cd49c8f658667a825223bee6fda99a14908362bcdaa60205260405f20549163ffffffff60e01b165f527fce1c17acaaa67de66e928cd49c8f658667a825223bee6fda99a14908362bcdab60205260405f2054908115611e3b576001600160a01b03165f9081527fce1c17acaaa67de66e928cd49c8f658667a825223bee6fda99a14908362bcdaa60205260409020546001161515918215611e3357505090565b161515919050565b6001600160a01b03165f9081527fce1c17acaaa67de66e928cd49c8f658667a825223bee6fda99a14908362bcdaa60205260409020546001161515915061160d9050565b6040805163b700961360e01b81526001600160a01b03841660048201523060248201526001600160e01b03198516604482015291829060649082905afa5f9181611edb575b5015611d7b57611ed4575f611d7b565b5050600190565b9091506040813d604011611f22575b81611ef7604093836114c3565b8101031261034b57805190811515820361034b576020015163ffffffff81160361034b57905f611ec4565b3d9150611eea565b60ff16908115611ed45763ffffffff60e01b165f527fce1c17acaaa67de66e928cd49c8f658667a825223bee6fda99a14908362bcdab60205260405f205490811561167f576001901b1615159056feb2e2f89cd6fdb17c259a726a88bd97db087e587e03e26ea97dbb5c52186018a1b2e2f89cd6fdb17c259a726a88bd97db087e587e03e26ea97dbb5c52186018a4b2e2f89cd6fdb17c259a726a88bd97db087e587e03e26ea97dbb5c52186018a5b2e2f89cd6fdb17c259a726a88bd97db087e587e03e26ea97dbb5c52186018a6b2e2f89cd6fdb17c259a726a88bd97db087e587e03e26ea97dbb5c52186018a0b2e2f89cd6fdb17c259a726a88bd97db087e587e03e26ea97dbb5c52186018a7a264697066735822122001ff3779436db4ed2e0a750b8ef61423dcdf6e9fa556bf04c1e1d10c5960aea664736f6c634300081e0033","linkReferences":{}},"methodIdentifiers":{"CapitalCall_init(address,address)":"b1e15bf1","cancelCapitalCall(uint256)":"5977eeb5","contributeToCall(uint256,uint256)":"39eff876","createCapitalCall(uint256,uint256,bytes32,address,address[])":"97cb5b10","getCallCommitments(uint256)":"4f0585f2","getCapitalCall(uint256)":"756bada0","getCapitalCallCount()":"3d5e2017","getCommitment(uint256,address)":"89fb2682","getComplianceModule()":"c79339e2","getFundCapitalSummary()":"3993a51e","getMemberOwnership(address)":"4c998d02","getMemberTotalContributed(address)":"bd3ff781","getMembershipToken()":"0f1bc0d8","getPaymentToken()":"d41c3a65","isCallFunded(uint256)":"18fc07c0","isCapitalCallInitialized()":"1dcda395","packedSelectors()":"3e62267c","recordOffchainContribution(uint256,address,uint256)":"e1f0e169","setComplianceModule(address)":"423db9c7","transferCommitments(address,address,uint256)":"6aa81d45"},"id":346}