{"abi":[{"type":"receive","stateMutability":"payable"},{"type":"function","name":"MAX_PLATFORM_DEPLOYMENT_COST","inputs":[],"outputs":[{"name":"","type":"uint256","internalType":"uint256"}],"stateMutability":"view"},{"type":"function","name":"PLATFORM","inputs":[],"outputs":[{"name":"","type":"address","internalType":"address"}],"stateMutability":"view"},{"type":"function","name":"Paymaster_init","inputs":[{"name":"_entryPoint","type":"address","internalType":"address"}],"outputs":[],"stateMutability":"nonpayable"},{"type":"function","name":"canSponsorOperation","inputs":[{"name":"sponsor","type":"address","internalType":"address"},{"name":"user","type":"address","internalType":"address"},{"name":"operation","type":"bytes4","internalType":"bytes4"},{"name":"estimatedCost","type":"uint256","internalType":"uint256"}],"outputs":[{"name":"canSponsor","type":"bool","internalType":"bool"},{"name":"reason","type":"string","internalType":"string"}],"stateMutability":"view"},{"type":"function","name":"depositToEntryPoint","inputs":[],"outputs":[],"stateMutability":"payable"},{"type":"function","name":"depositToPlatform","inputs":[],"outputs":[],"stateMutability":"payable"},{"type":"function","name":"entryPoint","inputs":[],"outputs":[{"name":"","type":"address","internalType":"address"}],"stateMutability":"view"},{"type":"function","name":"fund","inputs":[{"name":"sponsor","type":"address","internalType":"address"}],"outputs":[],"stateMutability":"payable"},{"type":"function","name":"getAvailableBalance","inputs":[{"name":"sponsor","type":"address","internalType":"address"}],"outputs":[{"name":"available","type":"uint256","internalType":"uint256"}],"stateMutability":"view"},{"type":"function","name":"getDepositInEntryPoint","inputs":[],"outputs":[{"name":"","type":"uint256","internalType":"uint256"}],"stateMutability":"view"},{"type":"function","name":"getPlatformBalance","inputs":[],"outputs":[{"name":"balance","type":"uint256","internalType":"uint256"},{"name":"reserved","type":"uint256","internalType":"uint256"},{"name":"totalDeployments","type":"uint256","internalType":"uint256"}],"stateMutability":"view"},{"type":"function","name":"getSponsorBalance","inputs":[{"name":"sponsor","type":"address","internalType":"address"}],"outputs":[{"name":"balance","type":"uint256","internalType":"uint256"},{"name":"reserved","type":"uint256","internalType":"uint256"},{"name":"lifetimeSpent","type":"uint256","internalType":"uint256"},{"name":"monthlySpent","type":"uint256","internalType":"uint256"}],"stateMutability":"view"},{"type":"function","name":"getTotalSponsored","inputs":[],"outputs":[{"name":"","type":"uint256","internalType":"uint256"}],"stateMutability":"view"},{"type":"function","name":"isDeploymentSponsored","inputs":[{"name":"wallet","type":"address","internalType":"address"}],"outputs":[{"name":"","type":"bool","internalType":"bool"}],"stateMutability":"view"},{"type":"function","name":"isPaused","inputs":[],"outputs":[{"name":"","type":"bool","internalType":"bool"}],"stateMutability":"view"},{"type":"function","name":"packedSelectors","inputs":[],"outputs":[{"name":"","type":"bytes","internalType":"bytes"}],"stateMutability":"pure"},{"type":"function","name":"pause","inputs":[],"outputs":[],"stateMutability":"nonpayable"},{"type":"function","name":"postOp","inputs":[{"name":"","type":"uint8","internalType":"uint8"},{"name":"context","type":"bytes","internalType":"bytes"},{"name":"actualGasCost","type":"uint256","internalType":"uint256"},{"name":"","type":"uint256","internalType":"uint256"}],"outputs":[],"stateMutability":"nonpayable"},{"type":"function","name":"unpause","inputs":[],"outputs":[],"stateMutability":"nonpayable"},{"type":"function","name":"validatePaymasterUserOp","inputs":[{"name":"userOp","type":"tuple","internalType":"struct PackedUserOperation","components":[{"name":"sender","type":"address","internalType":"address"},{"name":"nonce","type":"uint256","internalType":"uint256"},{"name":"initCode","type":"bytes","internalType":"bytes"},{"name":"callData","type":"bytes","internalType":"bytes"},{"name":"accountGasLimits","type":"bytes32","internalType":"bytes32"},{"name":"preVerificationGas","type":"uint256","internalType":"uint256"},{"name":"gasFees","type":"bytes32","internalType":"bytes32"},{"name":"paymasterAndData","type":"bytes","internalType":"bytes"},{"name":"signature","type":"bytes","internalType":"bytes"}]},{"name":"userOpHash","type":"bytes32","internalType":"bytes32"},{"name":"maxCost","type":"uint256","internalType":"uint256"}],"outputs":[{"name":"context","type":"bytes","internalType":"bytes"},{"name":"validationData","type":"uint256","internalType":"uint256"}],"stateMutability":"nonpayable"},{"type":"function","name":"withdraw","inputs":[{"name":"amount","type":"uint256","internalType":"uint256"},{"name":"recipient","type":"address","internalType":"address payable"}],"outputs":[],"stateMutability":"nonpayable"},{"type":"function","name":"withdrawFromEntryPoint","inputs":[{"name":"to","type":"address","internalType":"address payable"},{"name":"amount","type":"uint256","internalType":"uint256"}],"outputs":[],"stateMutability":"nonpayable"},{"type":"event","name":"Deposited","inputs":[{"name":"sponsor","type":"address","indexed":true,"internalType":"address"},{"name":"amount","type":"uint256","indexed":false,"internalType":"uint256"}],"anonymous":false},{"type":"event","name":"Paused","inputs":[],"anonymous":false},{"type":"event","name":"PolicyCheckFailed","inputs":[{"name":"sponsor","type":"address","indexed":true,"internalType":"address"},{"name":"user","type":"address","indexed":true,"internalType":"address"},{"name":"reason","type":"string","indexed":false,"internalType":"string"}],"anonymous":false},{"type":"event","name":"Sponsored","inputs":[{"name":"sponsor","type":"address","indexed":true,"internalType":"address"},{"name":"user","type":"address","indexed":true,"internalType":"address"},{"name":"actualCost","type":"uint256","indexed":false,"internalType":"uint256"},{"name":"refunded","type":"uint256","indexed":false,"internalType":"uint256"}],"anonymous":false},{"type":"event","name":"Unpaused","inputs":[],"anonymous":false},{"type":"event","name":"Withdrawn","inputs":[{"name":"sponsor","type":"address","indexed":true,"internalType":"address"},{"name":"recipient","type":"address","indexed":true,"internalType":"address"},{"name":"amount","type":"uint256","indexed":false,"internalType":"uint256"}],"anonymous":false},{"type":"error","name":"AccessControl_CallerIsNotAuthorized","inputs":[{"name":"caller","type":"address","internalType":"address"},{"name":"functionSig","type":"bytes4","internalType":"bytes4"}]},{"type":"error","name":"Paymaster_AlreadyInitialized","inputs":[]},{"type":"error","name":"Paymaster_InsufficientAvailableBalance","inputs":[]},{"type":"error","name":"Paymaster_InsufficientDepositInEntryPoint","inputs":[]},{"type":"error","name":"Paymaster_InsufficientSponsorBalance","inputs":[]},{"type":"error","name":"Paymaster_InvalidEntryPoint","inputs":[]},{"type":"error","name":"Paymaster_InvalidRecipient","inputs":[]},{"type":"error","name":"Paymaster_InvalidSponsor","inputs":[]},{"type":"error","name":"Paymaster_Paused","inputs":[]},{"type":"error","name":"Paymaster_PolicyDenied","inputs":[{"name":"reason","type":"string","internalType":"string"}]},{"type":"error","name":"Paymaster_TransferFailed","inputs":[]},{"type":"error","name":"Paymaster_Unauthorized","inputs":[]},{"type":"error","name":"Paymaster_ZeroDeposit","inputs":[]}],"bytecode":{"object":"0x608080604052346015576117e3908161001a8239f35b5f80fdfe6080604052600436101561001a575b3615610018575f80fd5b005b5f5f358060e01c908162f714ce14610c3a5781630a6d79e014610c1957816316a82d7514610be85781631b3ba10114610b755781632302440814610a925781633469d407146109c65781633e62267c146108775781633f4ba83a1461080257816352b7512c1461079b5781636a4a45b81461072f5781636c24a76f146106f85781637c627b21146104a85781637efc77fa1461048c5781638456cb59146103fe575080638eb0ecf21461038e578063b0d691fe14610359578063b187bd261461032a578063ba9bf757146102de578063c7d763081461024e578063cfbe775d14610211578063de481f17146101c25763f321763014610119575061000e565b346101bf57806003193601126101bf575f51602061174e5f395f51905f52546040516370a0823160e01b815230600482015290602090829060249082906001600160a01b03165afa9081156101b457829161017a575b602082604051908152f35b90506020813d6020116101ac575b8161019560209383610e08565b810103126101a85760209150515f61016f565b5080fd5b3d9150610188565b6040513d84823e3d90fd5b80fd5b50346101bf5760203660031901126101bf5760806101e66101e1610d3c565b610d8a565b8054906001810154906003600282015491015491604051938452602084015260408301526060820152f35b50346101bf57806003193601126101bf5760207f3204e2df09762338777a1b6b89ef8f250edc7f0cc264c8b25d0fcf2c59df20ba54604051908152f35b50346101bf5760403660031901126101bf5780610269610d3c565b5f51602061174e5f395f51905f52546001600160a01b031690813b156102da5760405163040b850f60e31b81526001600160a01b03909116600482015260248035908201529082908290604490829084905af180156101b4576102c95750f35b816102d391610e08565b6101bf5780f35b5050fd5b50346101bf57806003193601126101bf5760015f525f51602061178e5f395f51905f52602052606060405f20805490600260018201549101549060405192835260208301526040820152f35b50346101bf57806003193601126101bf57602060ff5f51602061172e5f395f51905f5254166040519015158152f35b50346101bf57806003193601126101bf575f51602061174e5f395f51905f52546040516001600160a01b039091168152602090f35b50346101bf5760203660031901126101bf576103a8610d3c565b5f51602061174e5f395f51905f5254906001600160a01b0382166103ef576001600160a01b03166001600160a01b031991909116175f51602061174e5f395f51905f525580f35b630167a86360e41b8352600483fd5b9050346101a857816003193601126101a8576001600160e01b0319166104248133611424565b156104765750600160ff195f51602061172e5f395f51905f525416175f51602061172e5f395f51905f52557f9e87fac88ff661f02d44f95383c817fece4bce600a3dab7a54406878b965e7528180a180f35b631d64bc3360e11b825233600452602452604490fd5b82346101bf57806003193601126101bf57602060405160018152f35b82346101bf5760803660031901126101bf5760043560ff8116036101bf5760243567ffffffffffffffff81116101a857366023820112156101a857806004013567ffffffffffffffff81116106f4578101903660248301116106f45760443591608090829003126106f45761051f60248201610d52565b91606461052e60448401610d52565b6001600160a01b03908116941692013561054783610d8a565b85918381116106e2575b61056060018301918254610de7565b905561057683610571848454610e5a565b610de7565b815560028101610587848254610e5a565b9055600481019062278d0065ffffffffffff8354160165ffffffffffff81116106ce5784919065ffffffffffff1642106106b55760030155805465ffffffffffff19164265ffffffffffff161790555b610602827f3204e2df09762338777a1b6b89ef8f250edc7f0cc264c8b25d0fcf2c59df20ba54610e5a565b7f3204e2df09762338777a1b6b89ef8f250edc7f0cc264c8b25d0fcf2c59df20ba5560018303610660575b7fec3e39c3c84c30bff1f79d2736cd5c684597be5ea62883a55ccd80153ddf8eb89160409182519182526020820152a380f35b823b156106b15784604051631a6fdff760e11b8152856004820152836024820152818160448183895af180156101b45761069c575b505061062d565b816106a691610e08565b6106b1578486610695565b8480fd5b905060039150016106c7838254610e5a565b90556105d7565b634e487b7160e01b88526011600452602488fd5b91506106ee8383610de7565b91610551565b8280fd5b82346101bf5760203660031901126101bf57602061072761071a6101e1610d3c565b6001815491015490610de7565b604051908152f35b82346101bf5760803660031901126101bf57610749610d3c565b610751610d26565b604435906001600160e01b0319821682036107975761077493506064359261131a565b9061079360405192839215158352604060208401526040830190610d66565b0390f35b8380fd5b82346101bf5760603660031901126101bf576004359067ffffffffffffffff82116101bf5761012060031983360301126101bf576107f86107e460443560243560048601610f19565b604051928392604084526040840190610d66565b9060208301520390f35b9050346101a857816003193601126101a8576001600160e01b0319166108288133611424565b15610476575060ff195f51602061172e5f395f51905f5254165f51602061172e5f395f51905f52557fa45f47fdea8a1efdd9029a5691c7f759c32b7c698632b563573e155625d169338180a180f35b82346101bf57806003193601126101bf576040805162536bcf60e51b6020820152633f7e3bfd60e11b6024820152634758767960e11b6028820152630d4948b760e31b602c820152631b3ba10160e01b6030820152633469d40760e01b603482015263586b48ff60e11b6038820152630460488160e31b603c820152636c24a76f60e01b91810191909152630f32176360e41b604482015263ba9bf75760e01b604882015263de481f1760e01b604c82015263cfbe775d60e01b60508201526316a82d7560e01b6054808301919091526358c3de9360e11b6058830152638456cb5960e01b605c830152637c627b2160e01b6060830152631fa5d41d60e11b60648301526314add44b60e21b6068830152627b8a6760e11b606c8301526318faec6160e31b60708301528152610793906109b2607482610e08565b604051918291602083526020830190610d66565b82806003193601126101bf573415610a835760ff5f51602061172e5f395f51905f525416610a745760015f525f51602061178e5f395f51905f52602052600460405f20610a14348254610e5a565b81550165ffffffffffff81541615610a57575b5060017f2da466a7b24304f47e87fa2e1e5a81b9831ce54fec19055ce277ca2f39ba42c46020604051348152a280f35b805465ffffffffffff19164265ffffffffffff1617905581610a27565b630abf4b0760e41b8152600490fd5b636e0782f360e11b8152600490fd5b8260203660031901126101bf57610aa7610d3c565b6001600160a01b038116908115610b66573415610b575760ff5f51602061172e5f395f51905f525416610b4857610adf600491610d8a565b610aea348254610e5a565b81550165ffffffffffff81541615610b2b575b507f2da466a7b24304f47e87fa2e1e5a81b9831ce54fec19055ce277ca2f39ba42c46020604051348152a280f35b805465ffffffffffff19164265ffffffffffff1617905582610afd565b630abf4b0760e41b8352600483fd5b636e0782f360e11b8352600483fd5b63568c53ff60e01b8352600483fd5b825f366003190112610be4575f51602061174e5f395f51905f52546001600160a01b0316803b15610be4575f6024916040519283809263b760faf960e01b825230600483015234905af18015610bd957610bcd575080f35b61001891505f90610e08565b6040513d5f823e3d90fd5b5f80fd5b34610be4576020366003190112610be457602060ff610c0d610c08610d3c565b610daf565b54166040519015158152f35b34610be4575f366003190112610be4576020604051662386f26fc100008152f35b34610be4576040366003190112610be4576004356001600160a01b03610c5e610d26565b16908115610d1757610c6f33610d8a565b805482610c80600184015483610de7565b10610d085782610c8f91610de7565b90555f80808084865af13d15610d03573d610ca981610e3e565b90610cb76040519283610e08565b81525f60203d92013e5b15610cf4576040519081527fd1c19fbcd4551a5edfb66d43d2e337c04837afda3482b42bdf569a8fccdae5fb60203392a3005b638676f1b560e01b5f5260045ffd5b610cc1565b6331d7c90360e01b5f5260045ffd5b63acbbf65560e01b5f5260045ffd5b602435906001600160a01b0382168203610be457565b600435906001600160a01b0382168203610be457565b35906001600160a01b0382168203610be457565b805180835260209291819084018484015e5f828201840152601f01601f1916010190565b6001600160a01b03165f9081525f51602061178e5f395f51905f526020526040902090565b6001600160a01b03165f9081527f3204e2df09762338777a1b6b89ef8f250edc7f0cc264c8b25d0fcf2c59df20bc6020526040902090565b91908203918211610df457565b634e487b7160e01b5f52601160045260245ffd5b90601f8019910116810190811067ffffffffffffffff821117610e2a57604052565b634e487b7160e01b5f52604160045260245ffd5b67ffffffffffffffff8111610e2a57601f01601f191660200190565b91908201809211610df457565b903590601e1981360301821215610be4570180359067ffffffffffffffff8211610be457602001918136038313610be457565b51908115158203610be457565b9190604083820312610be457610ebc83610e9a565b9260208101519067ffffffffffffffff8211610be4570181601f82011215610be457805190610eea82610e3e565b92610ef86040519485610e08565b82845260208383010111610be457815f9260208093018386015e8301015290565b9160ff5f51602061172e5f395f51905f525416611309578235926001600160a01b03841690818503610be457610f526040820182610e67565b90506111155760e081016048610f688284610e67565b90501061110157610f799082610e67565b604811610be4576034013560601c94610f9186610d8a565b91848354106110a757610fe091610fa85f92611475565b60405163cb9ad44560e01b81526001600160a01b0390921660048301526001600160e01b031916602482015291829081906044820190565b0381895afa908115610bd9575f905f92611082575b501561103b575060010161100a838254610e5a565b90556040805160208101959095528401526060830152608080830191909152815261103660a082610e08565b905f90565b9050611068919493505f51602061176e5f395f51905f529250604051918291602083526020830190610d66565b0390a3604051611079602082610e08565b5f815290600190565b90506110a091503d805f833e6110988183610e08565b810190610ea7565b905f610ff5565b505050929150505f51602061176e5f395f51905f52606060405160208152601c60208201527f496e73756666696369656e742073706f6e736f722062616c616e6365000000006040820152a3604051611079602082610e08565b505050505050604051611079602082610e08565b509260ff61112282610daf565b54166112b157662386f26fc10000821161124a5760015f525f51602061178e5f395f51905f526020527f20b0e3922c14ececb3a9b1666c416884673d92160f9dc6738ef136e31617b6d7547f20b0e3922c14ececb3a9b1666c416884673d92160f9dc6738ef136e31617b6d88054909291849161119e91610de7565b106111f1576111ac90610daf565b600160ff198254161790556111c2828254610e5a565b90556040805160016020820152908101939093526060830152608080830191909152815261103660a082610e08565b5050505060015f51602061176e5f395f51905f52606060405160208152601d60208201527f496e73756666696369656e7420706c6174666f726d2062616c616e63650000006040820152a3604051611079602082610e08565b50505060015f51602061176e5f395f51905f52608060405160208152602660208201527f4465706c6f796d656e7420636f7374206578636565647320706c6174666f726d604082015265081b1a5b5a5d60d21b6060820152a3604051611079602082610e08565b50505060015f51602061176e5f395f51905f52606060405160208152601c60208201527f4465706c6f796d656e7420616c72656164792073706f6e736f726564000000006040820152a3604051611079602082610e08565b505050604051611079602082610e08565b919260ff5f51602061172e5f395f51905f5254166113f05761133e61071a84610d8a565b106113b05760405163cb9ad44560e01b81526001600160a01b0391821660048201526001600160e01b03199390931660248401529192915f9184916044918391165afa918215610bd9575f905f9361139557509190565b90506113ac9192503d805f833e6110988183610e08565b9091565b5050505f906040516113c3604082610e08565b601c81527f496e73756666696369656e742073706f6e736f722062616c616e636500000000602082015290565b505050505f90604051611404604082610e08565b601081526f14185e5b585cdd195c881c185d5cd95960821b602082015290565b8161142e91611500565b61146f577f511915e52b7f9e690b9fdc662acaf5600fd3722c87eb951d3abd26e93a784dca5c9060ff82166114635750505f90565b61146c916116de565b90565b50600190565b6060810160046114858284610e67565b9050106114fa576114968183610e67565b600411610be457356001600160e01b03191691635b0e93fb60e11b8314806114e4575b6114c257505090565b6114cc9250610e67565b608811610be457608401356001600160e01b03191690565b5060a46114f18383610e67565b905010156114b9565b50505f90565b7fce1c17acaaa67de66e928cd49c8f658667a825223bee6fda99a14908362bcdac546001600160a01b031680611635575b5060018060a01b0381165f527fce1c17acaaa67de66e928cd49c8f658667a825223bee6fda99a14908362bcdaa60205260405f20549163ffffffff60e01b165f527fce1c17acaaa67de66e928cd49c8f658667a825223bee6fda99a14908362bcdab60205260405f20549081156115f1576001600160a01b03165f9081527fce1c17acaaa67de66e928cd49c8f658667a825223bee6fda99a14908362bcdaa602052604090205460011615159182156115e957505090565b161515919050565b6001600160a01b03165f9081527fce1c17acaaa67de66e928cd49c8f658667a825223bee6fda99a14908362bcdaa60205260409020546001161515915061146c9050565b6040805163b700961360e01b81526001600160a01b03841660048201523060248201526001600160e01b03198516604482015291829060649082905afa5f9181611691575b50156115315761168a575f611531565b5050600190565b9091506040813d6040116116d6575b816116ad60409383610e08565b81010312610be45760206116c082610e9a565b91015163ffffffff811603610be457905f61167a565b3d91506116a0565b60ff1690811561168a5763ffffffff60e01b165f527fce1c17acaaa67de66e928cd49c8f658667a825223bee6fda99a14908362bcdab60205260405f20549081156114fa576001901b1615159056fe3204e2df09762338777a1b6b89ef8f250edc7f0cc264c8b25d0fcf2c59df20bb3204e2df09762338777a1b6b89ef8f250edc7f0cc264c8b25d0fcf2c59df20b7ddfa86e99ab0631781ea7a869ec6907b1e875ed74b0e2d083ed770548cae45253204e2df09762338777a1b6b89ef8f250edc7f0cc264c8b25d0fcf2c59df20b8a2646970667358221220d0c401bb5b4aba216d51319c6378b254392862bc79fd6f362cb1dd128e57d3a064736f6c634300081e0033","linkReferences":{}},"methodIdentifiers":{"MAX_PLATFORM_DEPLOYMENT_COST()":"0a6d79e0","PLATFORM()":"7efc77fa","Paymaster_init(address)":"8eb0ecf2","canSponsorOperation(address,address,bytes4,uint256)":"6a4a45b8","depositToEntryPoint()":"1b3ba101","depositToPlatform()":"3469d407","entryPoint()":"b0d691fe","fund(address)":"23024408","getAvailableBalance(address)":"6c24a76f","getDepositInEntryPoint()":"f3217630","getPlatformBalance()":"ba9bf757","getSponsorBalance(address)":"de481f17","getTotalSponsored()":"cfbe775d","isDeploymentSponsored(address)":"16a82d75","isPaused()":"b187bd26","packedSelectors()":"3e62267c","pause()":"8456cb59","postOp(uint8,bytes,uint256,uint256)":"7c627b21","unpause()":"3f4ba83a","validatePaymasterUserOp((address,uint256,bytes,bytes,bytes32,uint256,bytes32,bytes,bytes),bytes32,uint256)":"52b7512c","withdraw(uint256,address)":"00f714ce","withdrawFromEntryPoint(address,uint256)":"c7d76308"},"id":218}