{"abi":[{"type":"function","name":"Commitment_init","inputs":[{"name":"membershipToken","type":"address","internalType":"address"},{"name":"paymentToken","type":"address","internalType":"address"}],"outputs":[],"stateMutability":"nonpayable"},{"type":"function","name":"acceptCommitment","inputs":[{"name":"commitmentId","type":"bytes32","internalType":"bytes32"}],"outputs":[],"stateMutability":"nonpayable"},{"type":"function","name":"adjustCommitment","inputs":[{"name":"commitmentId","type":"bytes32","internalType":"bytes32"},{"name":"newAmount","type":"uint256","internalType":"uint256"},{"name":"reason","type":"string","internalType":"string"}],"outputs":[],"stateMutability":"nonpayable"},{"type":"function","name":"cancelCommitment","inputs":[{"name":"commitmentId","type":"bytes32","internalType":"bytes32"},{"name":"reason","type":"string","internalType":"string"}],"outputs":[],"stateMutability":"nonpayable"},{"type":"function","name":"createCommitment","inputs":[{"name":"member","type":"address","internalType":"address"},{"name":"amount","type":"uint256","internalType":"uint256"}],"outputs":[{"name":"commitmentId","type":"bytes32","internalType":"bytes32"}],"stateMutability":"nonpayable"},{"type":"function","name":"getActiveCommitments","inputs":[],"outputs":[{"name":"","type":"tuple[]","internalType":"struct ICommitment.MemberCommitment[]","components":[{"name":"member","type":"address","internalType":"address"},{"name":"totalCommitted","type":"uint256","internalType":"uint256"},{"name":"totalCalled","type":"uint256","internalType":"uint256"},{"name":"totalFunded","type":"uint256","internalType":"uint256"},{"name":"tokensMinted","type":"uint256","internalType":"uint256"},{"name":"status","type":"uint8","internalType":"enum ICommitment.CommitmentStatus"},{"name":"subscribedAt","type":"uint256","internalType":"uint256"},{"name":"admittedAt","type":"uint256","internalType":"uint256"},{"name":"firstFundingAt","type":"uint256","internalType":"uint256"},{"name":"lastFundingAt","type":"uint256","internalType":"uint256"},{"name":"defaultedAt","type":"uint256","internalType":"uint256"}]}],"stateMutability":"view"},{"type":"function","name":"getCommitmentById","inputs":[{"name":"commitmentId","type":"bytes32","internalType":"bytes32"}],"outputs":[{"name":"","type":"tuple","internalType":"struct ICommitment.MemberCommitment","components":[{"name":"member","type":"address","internalType":"address"},{"name":"totalCommitted","type":"uint256","internalType":"uint256"},{"name":"totalCalled","type":"uint256","internalType":"uint256"},{"name":"totalFunded","type":"uint256","internalType":"uint256"},{"name":"tokensMinted","type":"uint256","internalType":"uint256"},{"name":"status","type":"uint8","internalType":"enum ICommitment.CommitmentStatus"},{"name":"subscribedAt","type":"uint256","internalType":"uint256"},{"name":"admittedAt","type":"uint256","internalType":"uint256"},{"name":"firstFundingAt","type":"uint256","internalType":"uint256"},{"name":"lastFundingAt","type":"uint256","internalType":"uint256"},{"name":"defaultedAt","type":"uint256","internalType":"uint256"}]}],"stateMutability":"view"},{"type":"function","name":"getCommitmentId","inputs":[{"name":"member","type":"address","internalType":"address"}],"outputs":[{"name":"","type":"bytes32","internalType":"bytes32"}],"stateMutability":"view"},{"type":"function","name":"getCommitmentMembershipToken","inputs":[],"outputs":[{"name":"","type":"address","internalType":"address"}],"stateMutability":"view"},{"type":"function","name":"getCommitmentPaymentToken","inputs":[],"outputs":[{"name":"","type":"address","internalType":"address"}],"stateMutability":"view"},{"type":"function","name":"getCommitmentSummary","inputs":[],"outputs":[{"name":"","type":"tuple","internalType":"struct ICommitment.FundCommitmentSummary","components":[{"name":"totalCommitted","type":"uint256","internalType":"uint256"},{"name":"totalCalled","type":"uint256","internalType":"uint256"},{"name":"totalFunded","type":"uint256","internalType":"uint256"},{"name":"totalTokensMinted","type":"uint256","internalType":"uint256"},{"name":"activeCommitments","type":"uint256","internalType":"uint256"},{"name":"defaultedCommitments","type":"uint256","internalType":"uint256"}]}],"stateMutability":"view"},{"type":"function","name":"getMemberCommitment","inputs":[{"name":"member","type":"address","internalType":"address"}],"outputs":[{"name":"","type":"tuple","internalType":"struct ICommitment.MemberCommitment","components":[{"name":"member","type":"address","internalType":"address"},{"name":"totalCommitted","type":"uint256","internalType":"uint256"},{"name":"totalCalled","type":"uint256","internalType":"uint256"},{"name":"totalFunded","type":"uint256","internalType":"uint256"},{"name":"tokensMinted","type":"uint256","internalType":"uint256"},{"name":"status","type":"uint8","internalType":"enum ICommitment.CommitmentStatus"},{"name":"subscribedAt","type":"uint256","internalType":"uint256"},{"name":"admittedAt","type":"uint256","internalType":"uint256"},{"name":"firstFundingAt","type":"uint256","internalType":"uint256"},{"name":"lastFundingAt","type":"uint256","internalType":"uint256"},{"name":"defaultedAt","type":"uint256","internalType":"uint256"}]}],"stateMutability":"view"},{"type":"function","name":"getMemberOwnershipBps","inputs":[{"name":"member","type":"address","internalType":"address"}],"outputs":[{"name":"","type":"uint256","internalType":"uint256"}],"stateMutability":"view"},{"type":"function","name":"getUnfundedCommitment","inputs":[{"name":"member","type":"address","internalType":"address"}],"outputs":[{"name":"","type":"uint256","internalType":"uint256"}],"stateMutability":"view"},{"type":"function","name":"hasActiveCommitment","inputs":[{"name":"member","type":"address","internalType":"address"}],"outputs":[{"name":"","type":"bool","internalType":"bool"}],"stateMutability":"view"},{"type":"function","name":"isCommitmentInitialized","inputs":[],"outputs":[{"name":"","type":"bool","internalType":"bool"}],"stateMutability":"view"},{"type":"function","name":"markDefaulted","inputs":[{"name":"commitmentId","type":"bytes32","internalType":"bytes32"}],"outputs":[],"stateMutability":"nonpayable"},{"type":"function","name":"packedSelectors","inputs":[],"outputs":[{"name":"","type":"bytes","internalType":"bytes"}],"stateMutability":"pure"},{"type":"function","name":"recordCapitalCalled","inputs":[{"name":"member","type":"address","internalType":"address"},{"name":"amount","type":"uint256","internalType":"uint256"}],"outputs":[],"stateMutability":"nonpayable"},{"type":"function","name":"recordCapitalFunded","inputs":[{"name":"member","type":"address","internalType":"address"},{"name":"amount","type":"uint256","internalType":"uint256"}],"outputs":[{"name":"tokensMinted","type":"uint256","internalType":"uint256"}],"stateMutability":"nonpayable"},{"type":"event","name":"CapitalFunded","inputs":[{"name":"commitmentId","type":"bytes32","indexed":true,"internalType":"bytes32"},{"name":"member","type":"address","indexed":true,"internalType":"address"},{"name":"amount","type":"uint256","indexed":false,"internalType":"uint256"},{"name":"tokensMinted","type":"uint256","indexed":false,"internalType":"uint256"},{"name":"timestamp","type":"uint256","indexed":false,"internalType":"uint256"}],"anonymous":false},{"type":"event","name":"CommitmentAccepted","inputs":[{"name":"commitmentId","type":"bytes32","indexed":true,"internalType":"bytes32"},{"name":"member","type":"address","indexed":true,"internalType":"address"},{"name":"timestamp","type":"uint256","indexed":false,"internalType":"uint256"}],"anonymous":false},{"type":"event","name":"CommitmentAdjusted","inputs":[{"name":"commitmentId","type":"bytes32","indexed":true,"internalType":"bytes32"},{"name":"member","type":"address","indexed":true,"internalType":"address"},{"name":"oldAmount","type":"uint256","indexed":false,"internalType":"uint256"},{"name":"newAmount","type":"uint256","indexed":false,"internalType":"uint256"},{"name":"reason","type":"string","indexed":false,"internalType":"string"}],"anonymous":false},{"type":"event","name":"CommitmentCancelled","inputs":[{"name":"commitmentId","type":"bytes32","indexed":true,"internalType":"bytes32"},{"name":"member","type":"address","indexed":true,"internalType":"address"},{"name":"reason","type":"string","indexed":false,"internalType":"string"},{"name":"timestamp","type":"uint256","indexed":false,"internalType":"uint256"}],"anonymous":false},{"type":"event","name":"CommitmentCreated","inputs":[{"name":"commitmentId","type":"bytes32","indexed":true,"internalType":"bytes32"},{"name":"member","type":"address","indexed":true,"internalType":"address"},{"name":"amount","type":"uint256","indexed":false,"internalType":"uint256"},{"name":"timestamp","type":"uint256","indexed":false,"internalType":"uint256"}],"anonymous":false},{"type":"event","name":"CommitmentDefaulted","inputs":[{"name":"commitmentId","type":"bytes32","indexed":true,"internalType":"bytes32"},{"name":"member","type":"address","indexed":true,"internalType":"address"},{"name":"amountUnfunded","type":"uint256","indexed":false,"internalType":"uint256"},{"name":"timestamp","type":"uint256","indexed":false,"internalType":"uint256"}],"anonymous":false},{"type":"error","name":"AccessControl_CallerIsNotAuthorized","inputs":[{"name":"caller","type":"address","internalType":"address"},{"name":"functionSig","type":"bytes4","internalType":"bytes4"}]},{"type":"error","name":"Commitment_AlreadyExists","inputs":[]},{"type":"error","name":"Commitment_AlreadyInitialized","inputs":[]},{"type":"error","name":"Commitment_BelowFunded","inputs":[]},{"type":"error","name":"Commitment_CannotCancel","inputs":[]},{"type":"error","name":"Commitment_CannotDefault","inputs":[]},{"type":"error","name":"Commitment_ExceedsCommitment","inputs":[]},{"type":"error","name":"Commitment_InvalidAmount","inputs":[]},{"type":"error","name":"Commitment_InvalidMember","inputs":[]},{"type":"error","name":"Commitment_InvalidStatus","inputs":[]},{"type":"error","name":"Commitment_NotAccepted","inputs":[]},{"type":"error","name":"Commitment_NotFound","inputs":[]},{"type":"error","name":"Commitment_NotInitialized","inputs":[]}],"bytecode":{"object":"0x60808060405234601557611b79908161001a8239f35b5f80fdfe6080806040526004361015610012575f80fd5b5f905f35908160e01c908163140e501814611489575080632cbe4bc8146113c45780633618ae8b1461139d5780633e62267c146112535780634875e9e0146111b9578063510756891461118b5780635ba3b4d314610ff55780635c50aa2214610f9e5780636210034114610e9b5780637107472714610dc55780638397e0ab14610c9b57806388fa724914610aa3578063a1fc2a1814610875578063cc0abdd514610852578063de4542b31461077f578063ec6a091714610754578063ecb8bab3146105d0578063f42134e8146102c7578063f9fb25f91461027c5763fcf7ef04146100fc575f80fd5b346102785760603660031901126102785760043560243560443567ffffffffffffffff811161027457610133903690600401611551565b936001600160e01b0319166101488133611806565b1561025e575060ff5f516020611ae45f395f51905f5254161561024f578285525f516020611b045f395f51905f526020526040852080549091906001600160a01b0316156102405782156102315760038201548310610231579061022b7fc8d733c32cbf6a458a5b1bd362099241462a0c1d0590446d8b34cb39e075344493926001830192848454946101f2826101ed885f516020611aa45f395f51905f525461167b565b6116fa565b5f516020611aa45f395f51905f52555560018060a01b039054169660405194859485526020850152606060408501526060840191611688565b0390a380f35b63029b318d60e21b8652600486fd5b63185563d760e11b8652600486fd5b633abbac9d60e21b8552600485fd5b631d64bc3360e11b865233600452602452604485fd5b8480fd5b5080fd5b82346102c457806003193601126102c4577fa5e5a52d60d11acf8aaf62522dc9fa7e6a4e28e7093a19e4b3ef0f461cdfc24c546040516001600160a01b039091168152602090f35b80fd5b346104ff5760403660031901126104ff576102e06114bb565b6024359060ff5f516020611ae45f395f51905f525416156105c1576103048161157f565b549081156105b257815f525f516020611b045f395f51905f5260205260405f209160ff600584015416600581101561059e5760010361058f5760038301805461034d86826116fa565b60018601541061058057856103749160088701805415610577575b504260098801556116fa565b90556103a1847fa5e5a52d60d11acf8aaf62522dc9fa7e6a4e28e7093a19e4b3ef0f461cdfc24f546116fa565b7fa5e5a52d60d11acf8aaf62522dc9fa7e6a4e28e7093a19e4b3ef0f461cdfc24f8190555f516020611ae45f395f51905f52546040516318160ddd60e01b815260089190911c6001600160a01b0316939190602081600481885afa9081156104f45787905f92610541575b50610417919261167b565b9080158015610539575b15610503575050600485945b016104398582546116fa565b9055610453845f516020611ac45f395f51905f52546116fa565b5f516020611ac45f395f51905f5255823b156104ff575f80916044604051809481936340c10f1960e01b835260018060a01b0316978860048401528960248401525af180156104f4576020957f9ca3da6376f9e2c08a09f770e12694df9a528e620931cc743985a2e2e5147c22926060926104e4575b506040519081528587820152426040820152a3604051908152f35b5f6104ee916115f0565b5f6104c9565b6040513d5f823e3d90fd5b5f80fd5b8087029087820414871517156105255760049161051f91611788565b9461042d565b634e487b7160e01b5f52601160045260245ffd5b508115610421565b9150506020813d60201161056f575b8161055d602093836115f0565b810103126104ff57518661041761040c565b3d9150610550565b42905588610368565b633cd92eed60e21b5f5260045ffd5b634124035160e11b5f5260045ffd5b634e487b7160e01b5f52602160045260245ffd5b63185563d760e11b5f5260045ffd5b633abbac9d60e21b5f5260045ffd5b50346104ff5760203660031901126104ff57600435906001600160e01b0319166105fa8133611806565b1561073e575060ff5f516020611ae45f395f51905f525416156105c1575f8181525f516020611b045f395f51905f526020526040902080549091906001600160a01b0316156105b2576005820160ff815416600581101561059e5760010361072f57600260ff1982541617905542600a8301556106845f516020611a845f395f51905f525461166f565b5f516020611a845f395f51905f52556106bd7fa5e5a52d60d11acf8aaf62522dc9fa7e6a4e28e7093a19e4b3ef0f461cdfc252546116a8565b7fa5e5a52d60d11acf8aaf62522dc9fa7e6a4e28e7093a19e4b3ef0f461cdfc252557f787ab4a2b33aff624306d75c2412d58290684c2af29d2490a6bfe93aab75f6846040610715600185015460038601549061167b565b935481519485524260208601526001600160a01b031693a3005b633f9d38e960e11b5f5260045ffd5b631d64bc3360e11b5f523360045260245260445ffd5b346104ff5760203660031901126104ff5760206107776107726114bb565b6117a6565b604051908152f35b346104ff5760403660031901126104ff576107986114bb565b6024359060ff5f516020611ae45f395f51905f525416156105c1576107bc9061157f565b5480156105b2575f525f516020611b045f395f51905f5260205260405f209060ff600583015416600581101561059e5760010361058f57600261082e92016108058282546116fa565b90557fa5e5a52d60d11acf8aaf62522dc9fa7e6a4e28e7093a19e4b3ef0f461cdfc24e546116fa565b7fa5e5a52d60d11acf8aaf62522dc9fa7e6a4e28e7093a19e4b3ef0f461cdfc24e55005b346104ff5760203660031901126104ff5760206107776108706114bb565b611733565b346104ff575f3660031901126104ff575f5f5f516020611b245f395f51905f5254905b818110610a4857506108a982611707565b916108b760405193846115f0565b8083526108c6601f1991611707565b015f5b818110610a315750505f905f5b81811061092e57836040518091602082016020835281518091526020604084019201905f5b818110610909575050500390f35b9193509160206101608261092060019488516114d1565b0194019101918493926108fb565b610937816116b6565b90549060031b1c5f525f516020611b045f395f51905f5260205260405f2060ff600582015416600581101561059e5760018114610979575b50506001016108d6565b600160a09592951b6001900385541694600181015491600282015490600383015490600484015490600685015491600786015493600887015495600988015497600a015498604051809e6109cc826115b7565b81526020015260408d015260608c015260808b01526109ee9060a08b01611663565b60c089015260e0880152610100870152610120860152610140850152610a13816116a8565b93610a1e828761171f565b52610a29908561171f565b50848061096f565b602090610a3c611612565b828287010152016108c9565b610a51816116b6565b90549060031b1c5f525f516020611b045f395f51905f5260205260ff600560405f20015416600581101561059e57600114610a8f575b600101610898565b91610a9b6001916116a8565b929050610a87565b50346104ff5760403660031901126104ff57610abd6114bb565b90602435906001600160e01b031916610ad68133611806565b1561073e575060ff5f516020611ae45f395f51905f525416156105c1576001600160a01b0382168015610c8c578115610c7d57610b128361157f565b54610c6e5760405160208101903060601b82526bffffffffffffffffffffffff198560601b16603482015242604882015260488152610b526068826115f0565b51902091825f525f516020611b045f395f51905f5260205260405f20826bffffffffffffffffffffffff60a01b8254161781558160018201556005810160ff1981541690556006429101555f516020611b245f395f51905f52549368010000000000000000851015610c5a576040849283610c1f7fbe02b785c79a967d5314bbf78dbd890b6ebe673762c9691f7bf0360ac2e67f2694610c068a600160209c015f516020611b245f395f51905f52556116b6565b81549060031b9085821b915f19901b191617905561157f565b55610c38815f516020611aa45f395f51905f52546116fa565b5f516020611aa45f395f51905f525581519081524287820152a3604051908152f35b634e487b7160e01b5f52604160045260245ffd5b6340b1e88760e01b5f5260045ffd5b63029b318d60e21b5f5260045ffd5b637f1a958d60e11b5f5260045ffd5b346104ff575f3660031901126104ff575f60a0604051610cba816115d4565b828152826020820152826040820152826060820152826080820152015260c05f516020611aa45f395f51905f52547fa5e5a52d60d11acf8aaf62522dc9fa7e6a4e28e7093a19e4b3ef0f461cdfc24e547fa5e5a52d60d11acf8aaf62522dc9fa7e6a4e28e7093a19e4b3ef0f461cdfc24f545f516020611ac45f395f51905f52545f516020611a845f395f51905f5254917fa5e5a52d60d11acf8aaf62522dc9fa7e6a4e28e7093a19e4b3ef0f461cdfc252549360a0604051610d7c816115d4565b87815260208101928352604081019384526060810194855260808101958652019485526040519586525160208601525160408501525160608401525160808301525160a0820152f35b346104ff5760203660031901126104ff57610dde611612565b506004355f525f516020611b045f395f51905f5260205261016060405f2060018060a01b0381541690600181015490600281015460038201546004830154610e7060ff600586015416600686015492600787015494600888015496600a60098a0154990154996040519b610e518d6115b7565b8c5260208c015260408b015260608a0152608089015260a08801611663565b60c086015260e0850152610100840152610120830152610140820152610e9960405180926114d1565bf35b50346104ff5760203660031901126104ff57600435906001600160e01b031916610ec58133611806565b1561073e575060ff5f516020611ae45f395f51905f525416156105c1575f8181525f516020611b045f395f51905f526020526040902080546001600160a01b0316156105b2576005810160ff815416600581101561059e57610f8f57600160ff19825416179055426007820155610f495f516020611a845f395f51905f52546116a8565b5f516020611a845f395f51905f525560018060a01b03905416907f0bff663e38e8d800a3ef5d37b9bc5a339b076b2e7891e0dabcf425061b746ae16020604051428152a3005b63773e037560e01b5f5260045ffd5b346104ff5760203660031901126104ff57610fbf610fba6114bb565b61157f565b545f525f516020611b045f395f51905f5260205260ff600560405f20015416600581101561059e57602090600160405191148152f35b50346104ff5760403660031901126104ff5760043560243567ffffffffffffffff81116104ff5761102a903690600401611551565b926001600160e01b03191661103f8133611806565b1561073e575060ff5f516020611ae45f395f51905f525416156105c1575f8281525f516020611b045f395f51905f526020526040902080549091906001600160a01b0316156105b257600582019160ff8354169260058410158061059e578415158061117e575b61116f57600383015461116f5761059e5760017fc6ac5ec3e47921b339176cba7cedf1892c7dc4d94c82275aff44105f00a389299414611144575b600360ff1982541617905561110860018201545f516020611aa45f395f51905f525461167b565b5f516020611aa45f395f51905f525560018060a01b0390541693611139604051928392604084526040840191611688565b4260208301520390a3005b61115b5f516020611a845f395f51905f525461166f565b5f516020611a845f395f51905f52556110e1565b63335cc6ad60e11b5f5260045ffd5b50505f60018514156110a6565b346104ff575f3660031901126104ff57602060ff5f516020611ae45f395f51905f5254166040519015158152f35b346104ff5760203660031901126104ff576111e36111d56114bb565b6111dd611612565b5061157f565b545f525f516020611b045f395f51905f5260205261016060405f2060018060a01b0381541690600181015490600281015460038201546004830154610e7060ff600586015416600686015492600787015494600888015496600a60098a0154990154996040519b610e518d6115b7565b346104ff575f3660031901126104ff5760408051630597c97960e31b60208201908152636210034160e01b6024830152633f3dfbc160e21b6028830152635ba3b4d360e01b602c8301526388fa724960e01b603083015263143f854360e31b6034830152637107472760e01b6038830152633618ae8b60e01b603c830152630281ca0360e31b8284015263f9fb25f960e01b6044830152638397e0ab60e01b6048830152630243af4f60e51b604c8084019190915263ec6a091760e01b605084015263cc0abdd560e01b6054840152632e28551160e11b6058840152635107568960e01b605c84015263ecb8bab360e01b606084015263de4542b360e01b6064840152631e84269d60e31b606884015282529190611372606c826115f0565b8151928391602083525180918160208501528484015e5f828201840152601f01601f19168101030190f35b346104ff5760203660031901126104ff5760206113bb610fba6114bb565b54604051908152f35b346104ff5760403660031901126104ff576113dd6114bb565b6024356001600160a01b03811691908290036104ff576001600160a01b03811615610c8c575f516020611ae45f395f51905f525460ff811661147b576001600160a81b03191660089190911b610100600160a81b0316176001175f516020611ae45f395f51905f52557fa5e5a52d60d11acf8aaf62522dc9fa7e6a4e28e7093a19e4b3ef0f461cdfc24c80546001600160a01b031916919091179055005b622e0f1d60e21b5f5260045ffd5b346104ff575f3660031901126104ff575f516020611ae45f395f51905f525460081c6001600160a01b03168152602090f35b600435906001600160a01b03821682036104ff57565b60018060a01b0381511682526020810151602083015260408101516040830152606081015160608301526080810151608083015260a0810151600581101561059e5761014091829160a085015260c081015160c085015260e081015160e08501526101008101516101008501526101208101516101208501520151910152565b9181601f840112156104ff5782359167ffffffffffffffff83116104ff57602083818601950101116104ff57565b6001600160a01b03165f9081527fa5e5a52d60d11acf8aaf62522dc9fa7e6a4e28e7093a19e4b3ef0f461cdfc2556020526040902090565b610160810190811067ffffffffffffffff821117610c5a57604052565b60c0810190811067ffffffffffffffff821117610c5a57604052565b90601f8019910116810190811067ffffffffffffffff821117610c5a57604052565b6040519061161f826115b7565b5f610140838281528260208201528260408201528260608201528260808201528260a08201528260c08201528260e082015282610100820152826101208201520152565b600582101561059e5752565b8015610525575f190190565b9190820391821161052557565b908060209392818452848401375f828201840152601f01601f1916010190565b5f1981146105255760010190565b5f516020611b245f395f51905f52548110156116e6575f516020611b245f395f51905f525f5260205f2001905f90565b634e487b7160e01b5f52603260045260245ffd5b9190820180921161052557565b67ffffffffffffffff8111610c5a5760051b60200190565b80518210156116e65760209160051b010190565b61173c9061157f565b545f525f516020611b045f395f51905f5260205260405f2060ff600582015416600581101561059e576001036117835780600360016117809301549101549061167b565b90565b505f90565b8115611792570490565b634e487b7160e01b5f52601260045260245ffd5b5f516020611ac45f395f51905f5254908115611800576117c59061157f565b545f525f516020611b045f395f51905f52602052600460405f2001549061271082029180830461271014901517156105255761178091611788565b50505f90565b8161181091611854565b61184e577f511915e52b7f9e690b9fdc662acaf5600fd3722c87eb951d3abd26e93a784dca5c9060ff82166118455750505f90565b61178091611a34565b50600190565b7fce1c17acaaa67de66e928cd49c8f658667a825223bee6fda99a14908362bcdac546001600160a01b031680611989575b5060018060a01b0381165f527fce1c17acaaa67de66e928cd49c8f658667a825223bee6fda99a14908362bcdaa60205260405f20549163ffffffff60e01b165f527fce1c17acaaa67de66e928cd49c8f658667a825223bee6fda99a14908362bcdab60205260405f2054908115611945576001600160a01b03165f9081527fce1c17acaaa67de66e928cd49c8f658667a825223bee6fda99a14908362bcdaa6020526040902054600116151591821561193d57505090565b161515919050565b6001600160a01b03165f9081527fce1c17acaaa67de66e928cd49c8f658667a825223bee6fda99a14908362bcdaa6020526040902054600116151591506117809050565b6040805163b700961360e01b81526001600160a01b03841660048201523060248201526001600160e01b03198516604482015291829060649082905afa5f91816119e5575b5015611885576119de575f611885565b5050600190565b9091506040813d604011611a2c575b81611a01604093836115f0565b810103126104ff5780519081151582036104ff576020015163ffffffff8116036104ff57905f6119ce565b3d91506119f4565b60ff169081156119de5763ffffffff60e01b165f527fce1c17acaaa67de66e928cd49c8f658667a825223bee6fda99a14908362bcdab60205260405f2054908115611800576001901b1615159056fea5e5a52d60d11acf8aaf62522dc9fa7e6a4e28e7093a19e4b3ef0f461cdfc251a5e5a52d60d11acf8aaf62522dc9fa7e6a4e28e7093a19e4b3ef0f461cdfc24da5e5a52d60d11acf8aaf62522dc9fa7e6a4e28e7093a19e4b3ef0f461cdfc250a5e5a52d60d11acf8aaf62522dc9fa7e6a4e28e7093a19e4b3ef0f461cdfc24ba5e5a52d60d11acf8aaf62522dc9fa7e6a4e28e7093a19e4b3ef0f461cdfc254a5e5a52d60d11acf8aaf62522dc9fa7e6a4e28e7093a19e4b3ef0f461cdfc253a26469706673582212208bf68c7227e4b8294b47b48ff34ac7db7140de47c3cd5a73e6f1b232c63d172c64736f6c634300081e0033","linkReferences":{}},"methodIdentifiers":{"Commitment_init(address,address)":"2cbe4bc8","acceptCommitment(bytes32)":"62100341","adjustCommitment(bytes32,uint256,string)":"fcf7ef04","cancelCommitment(bytes32,string)":"5ba3b4d3","createCommitment(address,uint256)":"88fa7249","getActiveCommitments()":"a1fc2a18","getCommitmentById(bytes32)":"71074727","getCommitmentId(address)":"3618ae8b","getCommitmentMembershipToken()":"140e5018","getCommitmentPaymentToken()":"f9fb25f9","getCommitmentSummary()":"8397e0ab","getMemberCommitment(address)":"4875e9e0","getMemberOwnershipBps(address)":"ec6a0917","getUnfundedCommitment(address)":"cc0abdd5","hasActiveCommitment(address)":"5c50aa22","isCommitmentInitialized()":"51075689","markDefaulted(bytes32)":"ecb8bab3","packedSelectors()":"3e62267c","recordCapitalCalled(address,uint256)":"de4542b3","recordCapitalFunded(address,uint256)":"f42134e8"},"id":347}