{"abi":[{"type":"function","name":"addTrustedKYCProvider","inputs":[{"name":"provider","type":"address","internalType":"address"}],"outputs":[],"stateMutability":"nonpayable"},{"type":"function","name":"getClassificationStatus","inputs":[{"name":"investor","type":"address","internalType":"address"}],"outputs":[{"name":"","type":"tuple","internalType":"struct ComplianceStorage.ClassificationStatus","components":[{"name":"classifications","type":"bytes32[]","internalType":"bytes32[]"},{"name":"verifiedAt","type":"uint64","internalType":"uint64"},{"name":"expirationTime","type":"uint64","internalType":"uint64"},{"name":"verifiedBy","type":"address","internalType":"address"},{"name":"revoked","type":"bool","internalType":"bool"},{"name":"revokedAt","type":"uint64","internalType":"uint64"}]}],"stateMutability":"view"},{"type":"function","name":"getKYCStatus","inputs":[{"name":"investor","type":"address","internalType":"address"}],"outputs":[{"name":"","type":"tuple","internalType":"struct ComplianceStorage.KYCStatus","components":[{"name":"isVerified","type":"bool","internalType":"bool"},{"name":"verifiedAt","type":"uint64","internalType":"uint64"},{"name":"expirationTime","type":"uint64","internalType":"uint64"},{"name":"verifiedBy","type":"address","internalType":"address"},{"name":"revoked","type":"bool","internalType":"bool"},{"name":"revokedAt","type":"uint64","internalType":"uint64"}]}],"stateMutability":"view"},{"type":"function","name":"getTrustedKYCProviders","inputs":[],"outputs":[{"name":"","type":"address[]","internalType":"address[]"}],"stateMutability":"view"},{"type":"function","name":"hasClassification","inputs":[{"name":"investor","type":"address","internalType":"address"},{"name":"classificationId","type":"bytes32","internalType":"bytes32"}],"outputs":[{"name":"","type":"bool","internalType":"bool"}],"stateMutability":"view"},{"type":"function","name":"isClassificationValid","inputs":[{"name":"investor","type":"address","internalType":"address"}],"outputs":[{"name":"","type":"bool","internalType":"bool"}],"stateMutability":"view"},{"type":"function","name":"isClassificationValid","inputs":[{"name":"investor","type":"address","internalType":"address"},{"name":"classificationId","type":"bytes32","internalType":"bytes32"}],"outputs":[{"name":"","type":"bool","internalType":"bool"}],"stateMutability":"view"},{"type":"function","name":"isKYCValid","inputs":[{"name":"investor","type":"address","internalType":"address"}],"outputs":[{"name":"","type":"bool","internalType":"bool"}],"stateMutability":"view"},{"type":"function","name":"isTrustedKYCProvider","inputs":[{"name":"provider","type":"address","internalType":"address"}],"outputs":[{"name":"","type":"bool","internalType":"bool"}],"stateMutability":"view"},{"type":"function","name":"packedSelectors","inputs":[],"outputs":[{"name":"","type":"bytes","internalType":"bytes"}],"stateMutability":"pure"},{"type":"function","name":"removeTrustedKYCProvider","inputs":[{"name":"provider","type":"address","internalType":"address"}],"outputs":[],"stateMutability":"nonpayable"},{"type":"function","name":"revokeClassification","inputs":[{"name":"investor","type":"address","internalType":"address"}],"outputs":[],"stateMutability":"nonpayable"},{"type":"function","name":"revokeKYC","inputs":[{"name":"investor","type":"address","internalType":"address"}],"outputs":[],"stateMutability":"nonpayable"},{"type":"function","name":"selfCertifyClassifications","inputs":[{"name":"classifications","type":"bytes32[]","internalType":"bytes32[]"},{"name":"expirationTime","type":"uint64","internalType":"uint64"}],"outputs":[],"stateMutability":"nonpayable"},{"type":"function","name":"setClassificationStatus","inputs":[{"name":"investor","type":"address","internalType":"address"},{"name":"classifications","type":"bytes32[]","internalType":"bytes32[]"},{"name":"expirationTime","type":"uint64","internalType":"uint64"}],"outputs":[],"stateMutability":"nonpayable"},{"type":"function","name":"setKYCStatus","inputs":[{"name":"investor","type":"address","internalType":"address"},{"name":"verified","type":"bool","internalType":"bool"},{"name":"expirationTime","type":"uint64","internalType":"uint64"}],"outputs":[],"stateMutability":"nonpayable"},{"type":"event","name":"ClassificationRevoked","inputs":[{"name":"investor","type":"address","indexed":true,"internalType":"address"},{"name":"revokedBy","type":"address","indexed":true,"internalType":"address"}],"anonymous":false},{"type":"event","name":"ClassificationUpdated","inputs":[{"name":"investor","type":"address","indexed":true,"internalType":"address"},{"name":"classifications","type":"bytes32[]","indexed":false,"internalType":"bytes32[]"},{"name":"expirationTime","type":"uint64","indexed":false,"internalType":"uint64"},{"name":"verifiedBy","type":"address","indexed":true,"internalType":"address"}],"anonymous":false},{"type":"event","name":"KYCRevoked","inputs":[{"name":"investor","type":"address","indexed":true,"internalType":"address"},{"name":"revokedBy","type":"address","indexed":true,"internalType":"address"}],"anonymous":false},{"type":"event","name":"KYCStatusUpdated","inputs":[{"name":"investor","type":"address","indexed":true,"internalType":"address"},{"name":"verified","type":"bool","indexed":false,"internalType":"bool"},{"name":"expirationTime","type":"uint64","indexed":false,"internalType":"uint64"},{"name":"verifiedBy","type":"address","indexed":true,"internalType":"address"}],"anonymous":false},{"type":"event","name":"TrustedKYCProviderAdded","inputs":[{"name":"provider","type":"address","indexed":true,"internalType":"address"}],"anonymous":false},{"type":"event","name":"TrustedKYCProviderRemoved","inputs":[{"name":"provider","type":"address","indexed":true,"internalType":"address"}],"anonymous":false},{"type":"error","name":"AccessControl_CallerIsNotAuthorized","inputs":[{"name":"caller","type":"address","internalType":"address"},{"name":"functionSig","type":"bytes4","internalType":"bytes4"}]},{"type":"error","name":"ComplianceAdmin_InvalidExpiration","inputs":[]},{"type":"error","name":"ComplianceAdmin_NotAuthorized","inputs":[]},{"type":"error","name":"ComplianceAdmin_ProviderAlreadyTrusted","inputs":[]},{"type":"error","name":"ComplianceAdmin_ProviderNotTrusted","inputs":[]}],"bytecode":{"object":"0x60808060405234601557611645908161001a8239f35b5f80fdfe6080806040526004361015610012575f80fd5b5f358060e01c9182620c8df014610f22575081629c11b314610e815781630185493e14610c7d57816339ba645b14610bdd5781633c62397014610a495781633e62267c146109375781637d587163146103b45781638e538f2c1461085a5781638f03521814610837578163b2c0427a14610697578163b4b3ec53146105e3578163c7f3e0271461042c57508063cf0e0f9d146103ff578063e14b0b9b146103b9578063e54f54a9146103b45763e7ccc536146100cc575f80fd5b34610385576040366003190112610385576004356001600160401b038111610385576100fc903690600401611072565b602435906001600160401b03821680830361038557801515806103aa575b61039b575f80604051602081019063138391d760e11b825260048152610141602482611051565b5190305afa3d15610393573d906001600160401b0382116103405760405191610174601f8201601f191660200184611051565b82523d5f602084013e5b15908115610389575b8115610363575b506103545761019b61119a565b604051916101a883611036565b83835260208301926001600160401b034216845260408101918252606081019333855260808201925f8452600160a08401955f8752818060a01b0333165f520160205260405f2092518051906001600160401b03821161034057600160401b821161034057845482865580831061031a575b50602001845f5260205f205f5b838110610306578551600188018054875167ffffffffffffffff60401b60409190911b166001600160401b039384166001600160801b0319909216919091171790558a516002890180548b5160ff60a01b90151560a01b166001600160a01b039093166001600160a81b0319909116179190911781558d918d916102cf918d5b51825467ffffffffffffffff60a81b1916911660a81b67ffffffffffffffff60a81b16179055565b7f1465b11ca974723b654e2b0081f0d38bd24ef75feff1af5f3dd707cfb2f5ff19604051806103013395339583611116565b0390a3005b600190602084519401938184015501610227565b855f528260205f2091820191015b818110610335575061021a565b5f8155600101610328565b634e487b7160e01b5f52604160045260245ffd5b633469b36b60e11b5f5260045ffd5b905060208180518101031261038557602061037e910161118d565b155f61018e565b5f80fd5b8051159150610187565b60609061017e565b637006a69960e01b5f5260045ffd5b504281111561011a565b6110ef565b34610385576020366003190112610385576103d2611020565b60026103dc61119a565b019060018060a01b03165f52602052602060ff60405f2054166040519015158152f35b3461038557602036600319011261038557602061042261041d611020565b611373565b6040519015158152f35b3461038557602036600319011261038557610445611020565b906001600160e01b03191661045a81336112c1565b156105cd575061046861119a565b6002810160018060a01b0383165f528060205260ff60405f205416156105be576001600160a01b0383165f81815260209290925260408220805460ff1916905591600301905b815490818110156105b657836104c48285611164565b905460039190911b1c6001600160a01b0316146104e55760019150016104ae565b5f1982019182116105a25761051961050061053d9385611164565b905460039190911b1c6001600160a01b03169184611164565b81546001600160a01b0393841660039290921b91821b9390911b1916919091179055565b8054801561058e575f1901906105538282611164565b81549060018060a01b039060031b1b19169055555b7f8c78c70485c70056ecb2d22ec712b54ba92ef2a2d535b31861cfa10c408f3a725f80a2005b634e487b7160e01b5f52603160045260245ffd5b634e487b7160e01b5f52601160045260245ffd5b505050610568565b6334636d8360e01b5f5260045ffd5b631d64bc3360e11b5f523360045260245260445ffd5b34610385575f3660031901126103855760036105fd61119a565b01604051806020835491828152019081935f5260205f20905f5b818110610678575050508161062d910382611051565b604051918291602083019060208452518091526040830191905f5b818110610656575050500390f35b82516001600160a01b0316845285945060209384019390920191600101610648565b82546001600160a01b0316845260209093019260019283019201610617565b34610385576020366003190112610385576106b0611020565b5f60a06040516106bf81611036565b60608152826020820152826040820152826060820152826080820152015260016106e761119a565b019060018060a01b03165f5260205260405f206040519061070782611036565b6040518081602084549283815201845f5260205f20925f5b81811061081e57505061073492500382611051565b8252600181015491600260208201926001600160401b03851684526001600160401b03604084019560401c1685520154926060820160018060a01b0385168152608083019160ff8660a01c16151583526001600160401b0360a085019660a81c168652604051946020865260e0860194519460c060208801528551809152602061010088019601905f5b81811061080857505050916001600160401b0380949281889995511660408901525116606087015260018060a01b03905116608086015251151560a0850152511660c08301520390f35b82518852602097880197909201916001016107be565b845483526001948501948694506020909301920161071f565b34610385576020366003190112610385576020610422610855611020565b611312565b3461038557602036600319011261038557610873611020565b906001600160e01b03191661088881336112c1565b156105cd575061089661119a565b600281019060018060a01b0383165f528160205260ff60405f2054166109285760039160018060a01b0384165f5260205260405f20600160ff19825416179055018054600160401b81101561034057610519816108f99360018694018155611164565b6001600160a01b03167f2f318712f7675065656372e4471d609c7d356fad5514a34b43f40f9fa5d9bd2b5f80a2005b63a6183b3160e01b5f5260045ffd5b34610385575f3660031901126103855760408051632394e3cb60e21b60208201908152635960213d60e11b602483015261c8df60e41b602883015263b4b3ec5360e01b602c830152637d58716360e01b60308301526311e06a4360e31b603483015263e54f54a960e01b603883015263cf0e0f9d60e01b603c8084019190915263e14b0b9b60e01b8385015263c7f3e02760e01b6044840152629c11b360e01b60488401526339ba645b60e01b604c8401526373e6629b60e11b605084015262c2a49f60e11b60548401526303c6239760e41b605884015282529190610a1e605c82611051565b8151928391602083525180918160208501528484015e5f828201840152601f01601f19168101030190f35b3461038557606036600319011261038557610a62611020565b602435801515809103610385576001600160401b03610a7f6110d9565b610a876111de565b1680151580610bd3575b61039b57610b97610aa061119a565b6001600160401b0360405191610ab583611036565b8583526102a760208401834216815260016040860195888752606081019633885260808201935f855260a08301965f88528d858060a01b03165f5260205260405f209251151560ff80198554169116178355519068ffffffffffffffff0070ffffffffffffffff0000000000000000008454925160481b169260081b169070ffffffffffffffffffffffffffffffff00191617178155019460018060a01b039060018060a01b03905116166bffffffffffffffffffffffff60a01b865416178555511515849081549060ff60a01b90151560a01b169060ff60a01b1916179055565b60405191825260208201527f6d1041e17a81625574c275a3ee9082166554a03f07bb47f37a5a03e46c2c4b416040339360018060a01b031692a3005b5042811115610a91565b3461038557602036600319011261038557610bf6611020565b610bfe6111de565b610c0661119a565b6001600160a01b0382165f90815260209190915260409020600101805468ffffffffffffffffff60a01b19164260a81b67ffffffffffffffff60a81b1617600160a01b17905533906001600160a01b03167f78bb145ee492fe6a233227a728eed873e98371bcf51d46ce3a6827a3001835525f80a3005b3461038557606036600319011261038557610c96611020565b6024356001600160401b03811161038557610cb5903690600401611072565b610cbd6110d9565b610cc56111de565b6001600160401b03811680151580610e77575b61039b57610ce461119a565b60405191610cf183611036565b84835260208301926001600160401b034216845260408101918252606081019333855260808201925f8452600160a08401955f8752818060a01b038b165f520160205260405f2092518051906001600160401b03821161034057600160401b8211610340578454828655808310610e51575b50602001845f5260205f205f5b838110610e3d575050925160018501805493516001600160801b03199094166001600160401b039283161760409490941b67ffffffffffffffff60401b1693909317909255509451600292909201805493516001600160a81b03199094166001600160a01b03939093169290921792151560a01b60ff60a01b169290921781557f1465b11ca974723b654e2b0081f0d38bd24ef75feff1af5f3dd707cfb2f5ff1994610301949093610e2293506102a7565b60405133956001600160a01b03169490928392909183611116565b600190602084519401938184015501610d70565b855f528260205f2091820191015b818110610e6c5750610d63565b5f8155600101610e5f565b5042811115610cd8565b3461038557602036600319011261038557610e9a611020565b610ea26111de565b6001610eac61119a565b6001600160a01b0383165f908152910160205260409020600201805468ffffffffffffffffff60a01b19164260a81b67ffffffffffffffff60a81b1617600160a01b17905533906001600160a01b03167fb826a8a8a5e6d25239a2677d716e493b112feaa86538d7581720f10c50d005435f80a3005b34610385576020366003190112610385575f60a0610f3e611020565b92610f4881611036565b8281528260208201528260408201528260608201528260808201520152610f6d61119a565b9060018060a01b03165f5260205260c060405f206001600160401b03604051610f9581611036565b82549060ff82161515938482528360016020840192828660081c16845282604086019660481c16865201549381606085019360018060a01b03871685528160a0608088019760ff8a831c1615158952019760a81c168752604051988952511660208801525116604086015260018060a01b0390511660608501525115156080840152511660a0820152f35b600435906001600160a01b038216820361038557565b60c081019081106001600160401b0382111761034057604052565b90601f801991011681019081106001600160401b0382111761034057604052565b9080601f83011215610385578135916001600160401b038311610340578260051b90604051936110a56020840186611051565b845260208085019282010192831161038557602001905b8282106110c95750505090565b81358152602091820191016110bc565b604435906001600160401b038216820361038557565b3461038557604036600319011261038557602061042261110d611020565b60243590611228565b90929192604082016040835281518091526020606084019201905f5b81811061114e575050506001600160401b036020919416910152565b8251845260209384019390920191600101611132565b8054821015611179575f5260205f2001905f90565b634e487b7160e01b5f52603260045260245ffd5b5190811515820361038557565b604051602081017fa908fa0981167790537a5ed2f30e0c716eb8f3ad63bb9978cc6fcf47ffc2c7f68152602082526111d3604083611051565b9051902060ff191690565b6111f35f356001600160e01b031916336113e2565b61122657600261120161119a565b335f9081529101602052604090205460ff1661122657633469b36b60e11b5f5260045ffd5b565b600161123261119a565b019060018060a01b03165f5260205260405f209060ff600283015460a01c166112b1576001600160401b03600183015460401c1680151590816112b7575b506112b1578154915f5b83811061128957505050505f90565b826112948284611164565b90549060031b1c146112a85760010161127a565b50505050600190565b50505f90565b905042115f611270565b816112cb916113e2565b61130c577f511915e52b7f9e690b9fdc662acaf5600fd3722c87eb951d3abd26e93a784dca5c9060ff82166113005750505f90565b611309916115c0565b90565b50600190565b600161131c61119a565b019060018060a01b03165f5260205260405f2060ff600282015460a01c16611364576001600160401b03600182015460401c168015159081611369575b506113645754151590565b505f90565b905042115f611359565b61137b61119a565b9060018060a01b03165f5260205260405f2080549060ff8216159081156113d0575b506113645760481c6001600160401b031680151590816113c6575b506113c257600190565b5f90565b905042115f6113b8565b60ff91506001015460a01c165f61139d565b7fce1c17acaaa67de66e928cd49c8f658667a825223bee6fda99a14908362bcdac546001600160a01b031680611517575b5060018060a01b0381165f527fce1c17acaaa67de66e928cd49c8f658667a825223bee6fda99a14908362bcdaa60205260405f20549163ffffffff60e01b165f527fce1c17acaaa67de66e928cd49c8f658667a825223bee6fda99a14908362bcdab60205260405f20549081156114d3576001600160a01b03165f9081527fce1c17acaaa67de66e928cd49c8f658667a825223bee6fda99a14908362bcdaa602052604090205460011615159182156114cb57505090565b161515919050565b6001600160a01b03165f9081527fce1c17acaaa67de66e928cd49c8f658667a825223bee6fda99a14908362bcdaa6020526040902054600116151591506113099050565b6040805163b700961360e01b81526001600160a01b03841660048201523060248201526001600160e01b03198516604482015291829060649082905afa5f9181611573575b50156114135761156c575f611413565b5050600190565b9091506040813d6040116115b8575b8161158f60409383611051565b810103126103855760206115a28261118d565b91015163ffffffff81160361038557905f61155c565b3d9150611582565b60ff1690811561156c5763ffffffff60e01b165f527fce1c17acaaa67de66e928cd49c8f658667a825223bee6fda99a14908362bcdab60205260405f20549081156112b1576001901b1615159056fea26469706673582212205ef69782c2d279ea84ec9e44e65ddc918fd024080f93cab27e094178384fa25064736f6c634300081e0033","linkReferences":{}},"methodIdentifiers":{"addTrustedKYCProvider(address)":"8e538f2c","getClassificationStatus(address)":"b2c0427a","getKYCStatus(address)":"000c8df0","getTrustedKYCProviders()":"b4b3ec53","hasClassification(address,bytes32)":"7d587163","isClassificationValid(address)":"8f035218","isClassificationValid(address,bytes32)":"e54f54a9","isKYCValid(address)":"cf0e0f9d","isTrustedKYCProvider(address)":"e14b0b9b","packedSelectors()":"3e62267c","removeTrustedKYCProvider(address)":"c7f3e027","revokeClassification(address)":"009c11b3","revokeKYC(address)":"39ba645b","selfCertifyClassifications(bytes32[],uint64)":"e7ccc536","setClassificationStatus(address,bytes32[],uint64)":"0185493e","setKYCStatus(address,bool,uint64)":"3c623970"},"id":172}