{
    "abi": [
        {
            "type": "function",
            "name": "createDiamond",
            "inputs": [
                {
                    "name": "initParams",
                    "type": "tuple",
                    "internalType": "struct Diamond.InitParams",
                    "components": [
                        {
                            "name": "baseFacets",
                            "type": "tuple[]",
                            "internalType": "struct IDiamond.FacetCut[]",
                            "components": [
                                {
                                    "name": "facet",
                                    "type": "address",
                                    "internalType": "address"
                                },
                                {
                                    "name": "action",
                                    "type": "uint8",
                                    "internalType": "enum IDiamond.FacetCutAction"
                                },
                                {
                                    "name": "selectors",
                                    "type": "bytes4[]",
                                    "internalType": "bytes4[]"
                                }
                            ]
                        },
                        {
                            "name": "init",
                            "type": "address",
                            "internalType": "address"
                        },
                        {
                            "name": "initData",
                            "type": "bytes",
                            "internalType": "bytes"
                        }
                    ]
                }
            ],
            "outputs": [
                {
                    "name": "diamond",
                    "type": "address",
                    "internalType": "address"
                }
            ],
            "stateMutability": "nonpayable"
        },
        {
            "type": "function",
            "name": "predictDiamondAddress",
            "inputs": [
                {
                    "name": "initParams",
                    "type": "tuple",
                    "internalType": "struct Diamond.InitParams",
                    "components": [
                        {
                            "name": "baseFacets",
                            "type": "tuple[]",
                            "internalType": "struct IDiamond.FacetCut[]",
                            "components": [
                                {
                                    "name": "facet",
                                    "type": "address",
                                    "internalType": "address"
                                },
                                {
                                    "name": "action",
                                    "type": "uint8",
                                    "internalType": "enum IDiamond.FacetCutAction"
                                },
                                {
                                    "name": "selectors",
                                    "type": "bytes4[]",
                                    "internalType": "bytes4[]"
                                }
                            ]
                        },
                        {
                            "name": "init",
                            "type": "address",
                            "internalType": "address"
                        },
                        {
                            "name": "initData",
                            "type": "bytes",
                            "internalType": "bytes"
                        }
                    ]
                }
            ],
            "outputs": [
                {
                    "name": "diamond",
                    "type": "address",
                    "internalType": "address"
                }
            ],
            "stateMutability": "view"
        },
        {
            "type": "event",
            "name": "ContractDeployed",
            "inputs": [
                {
                    "name": "deployed",
                    "type": "address",
                    "indexed": true,
                    "internalType": "address"
                },
                {
                    "name": "salt",
                    "type": "bytes32",
                    "indexed": true,
                    "internalType": "bytes32"
                },
                {
                    "name": "deployer",
                    "type": "address",
                    "indexed": true,
                    "internalType": "address"
                }
            ],
            "anonymous": false
        },
        {
            "type": "event",
            "name": "DiamondCreated",
            "inputs": [
                {
                    "name": "diamond",
                    "type": "address",
                    "indexed": true,
                    "internalType": "address"
                },
                {
                    "name": "deployer",
                    "type": "address",
                    "indexed": true,
                    "internalType": "address"
                }
            ],
            "anonymous": false
        },
        {
            "type": "error",
            "name": "Create2FactoryNotAvailable",
            "inputs": []
        },
        {
            "type": "error",
            "name": "DeploymentFailed",
            "inputs": []
        },
        {
            "type": "error",
            "name": "DiamondFactory_LoupeNotSupported",
            "inputs": []
        }
    ],
    "bytecode": {
        "object": "0x608080604052346015576119e0908161001a8239f35b5f80fdfe60806040526004361015610011575f80fd5b5f3560e01c8063e27019501461014e5763f6f892051461002f575f80fd5b3461014a5760206001600160a01b036100503661004b36610431565b6104ff565b61005981610828565b60405190916100d161110661007087820185610495565b808452868401906108a5823986604051936100a08561009284820193846106e9565b03601f198101875286610495565b60405194859383850197518091895e840190838201905f8252519283915e01015f815203601f198101835282610495565b51902060405190848201927fff0000000000000000000000000000000000000000000000000000000000000084527fc0deb853af168215879d284cc8b4d0a645fa9b0e0000000000000000000000006021840152603583015260558201526055815261013e607582610495565b51902016604051908152f35b5f80fd5b3461014a576101603661004b36610431565b61016981610828565b906111066101e4604051916101816020820184610495565b80835260208301906108a582396020604051946101b3866101a584820193846106e9565b03601f198101885287610495565b60405195869383850196518091885e840190838201905f8252519283915e01015f815203601f198101845283610495565b73c0deb853af168215879d284cc8b4d0a645fa9b0e3b15610409575f91829161023160408051809360208201958987525180918484015e810186838201520301601f198101835282610495565b51908273c0deb853af168215879d284cc8b4d0a645fa9b0e5af13d15610401573d9061025c826104e3565b9161026a6040519384610495565b82523d5f602084013e5b156103f95760208180518101031261014a5760200151906001600160a01b03821680920361014a5781156103d157604051903290837f290afdae231a3fc0bbae8b1af63698b0a1d79b21ad17df0342dfb952fe74f8e55f80a47f01ffc9a70000000000000000000000000000000000000000000000000000000081527f48e2b093000000000000000000000000000000000000000000000000000000006004820152602081602481855afa9081156103c6575f9161038b575b50156103635760405160209133817f71751e5e2acf55c66b5cd561185167b3697dfdca6e826313b671ba173b1d5cfc5f80a38152f35b7f932e0e2e000000000000000000000000000000000000000000000000000000005f5260045ffd5b90506020813d6020116103be575b816103a660209383610495565b8101031261014a5751801515810361014a578261032d565b3d9150610399565b6040513d5f823e3d90fd5b7f30116425000000000000000000000000000000000000000000000000000000005f5260045ffd5b602081519101fd5b606090610274565b7ff92a1640000000000000000000000000000000000000000000000000000000005f5260045ffd5b602060031982011261014a576004359067ffffffffffffffff821161014a57606090829003600319011261014a5760040190565b6060810190811067ffffffffffffffff82111761048157604052565b634e487b7160e01b5f52604160045260245ffd5b90601f8019910116810190811067ffffffffffffffff82111761048157604052565b67ffffffffffffffff81116104815760051b60200190565b35906001600160a01b038216820361014a57565b67ffffffffffffffff811161048157601f01601f191660200190565b919060608382031261014a5760405161051781610465565b8093803567ffffffffffffffff811161014a57810183601f8201121561014a57803590610543826104b7565b916105516040519384610495565b80835260208084019160051b8301019186831161014a5760208101915b8383106105eb57505050508252610587602082016104cf565b602083015260408101359067ffffffffffffffff821161014a57019082601f8301121561014a5781356105b9816104e3565b936105c76040519586610495565b8185526020828501011161014a576020815f92826040960183880137850101520152565b823567ffffffffffffffff811161014a5782016060818a03601f19011261014a576040519061061982610465565b610625602082016104cf565b82526040810135600381101561014a576020830152606081013567ffffffffffffffff811161014a57602091010189601f8201121561014a578035610669816104b7565b916106776040519384610495565b81835260208084019260051b820101908c821161014a57602001915b8183106106b057505050604082015281526020928301920161056e565b82357fffffffff000000000000000000000000000000000000000000000000000000008116810361014a57815260209283019201610693565b60208152608081019180519260606020840152835180915260a0830190602060a08260051b8601019501915f905b82821061076a5750505050602092916040826001600160a01b03868095015116828401520151906060601f19828603019101528051918291828552018484015e5f828201840152601f01601f1916010190565b90919295609f19868203018252865160608201906001600160a01b038151168352602081015190600382101561081457604060809160209384870152015193606060408201528451809452019201905f905b8082106107da57505050602080600192980192019201909291610717565b9091926020806001927fffffffff0000000000000000000000000000000000000000000000000000000087511681520194019201906107bc565b634e487b7160e01b5f52602160045260245ffd5b604081015160208151910120906001600160a01b0360208251519201511660405191602083019360808552600c60a08501527f4469616d6f6e642d76312e30000000000000000000000000000000000000000060c085015260408401526060830152608082015260c0815261089e60e082610495565b5190209056fe608060405234610824576111068038038061001981610931565b928339810190602081830312610824578051906001600160401b0382116108245701906060828203126108245761004e6108fe565b82519092906001600160401b03811161082457810182601f820112156108245780519061008261007d83610956565b610931565b9160208084838152019160051b830101918583116108245760208101915b838310610828575050505083526100b96020820161096d565b6020840190815260408201519092906001600160401b038111610824576100e0920161099c565b60408084019182525f5160206110e65f395f51905f525491939082901c60ff1615916001600160401b0381168015908161081c575b6001149081610812575b159081610809575b506107fa576001600160401b031981166001175f5160206110e65f395f51905f5255826107d0575b505191519251925f926001600160a01b03909116915b815184101561063e5761017884836109d8565b51926020840193845160038110156105d95760021061062f5780516001600160a01b0316156106205780516001600160a01b0316803b1561060e57506040810194855151156105ed57805160038110156105d9576102dd575051935191956001600160a01b039094169391926101ed85610e18565b506001600160a01b038516965f5b85518110156102c6576001600160e01b031961021782886109d8565b511680156102b7575f8181525f5160206110865f395f51905f5260205260409020546001600160a01b03166102a5575f8181525f5160206110865f395f51905f526020908152604080832080546001600160a01b0319168e1790556001600160a01b038b1683525f5160206110665f395f51905f5290915290206001929161029e91610eba565b50016101fb565b630e6c4db160e41b5f5260045260245ffd5b6327dfc55960e21b5f5260045ffd5b5094509490955060019192505b0192909391610165565b809795975160038110156105d95760010361048757505195516001600160a01b03909616959193919261030f87610e18565b506001600160a01b038716945f5b8551811015610476576001600160e01b031961033982886109d8565b51165f8181525f5160206110865f395f51905f5260205260409020546001600160a01b03169080156102b757308214610467578a8214610455578115610443575f8181525f5160206110865f395f51905f526020908152604080832080546001600160a01b0319168d1790556001600160a01b038e1683525f5160206110665f395f51905f5290915290206001939291610401916103d8908290610eba565b506001600160a01b0383165f9081525f5160206110665f395f51905f5260205260409020610d67565b506001600160a01b0381165f9081525f5160206110665f395f51905f52602052604090205415610433575b500161031d565b61043c90610c0c565b505f61042c565b63e5f0fdd160e01b5f5260045260245ffd5b632334ace960e21b5f5260045260245ffd5b630e7ce30960e11b5f5260045ffd5b5094509490955060019192506102d3565b96919695929493955160038110156105d9576002146104ab575b50506001906102d3565b5190516001600160a01b039091163081149692959094919392915f5b85518110156105c6576001600160e01b03196104e382886109d8565b511680156102b75789610467575f8181525f5160206110865f395f51905f5260205260409020546001600160a01b03168890036105b0575f8181525f5160206110865f395f51905f526020908152604080832080546001600160a01b03191690556001600160a01b038b1683525f5160206110665f395f51905f5290915290206001929161057091610d67565b506001600160a01b0388165f9081525f5160206110665f395f51905f526020526040902054156105a1575b016104c7565b6105aa88610c0c565b5061059b565b876337b61b6b60e21b5f5260045260245260445ffd5b509450949095506001919250905f6104a1565b634e487b7160e01b5f52602160045260245ffd5b5051630624c68560e31b5f9081526001600160a01b03909116600452602490fd5b631d16e70f60e31b5f5260045260245ffd5b6369b404df60e01b5f5260045ffd5b63d0a8a14560e01b5f5260045ffd5b8483604051606081016060825285518091526080820190602060808260051b8501019701915f905b82821061073a5750505050806020816106cd969785837f8faa70878671ccd212d20771b795c50af8fd3ff6cf27f4bde57e5d4de0aeb67396015281810360408301528651808252808489018584015e5f828201850152601f01601f191601030190a1610a00565b6106e0575b60405160f49081610f728239f35b68ff0000000000000000195f5160206110e65f395f51905f5254165f5160206110e65f395f51905f52557fc7f505b2f371ae2175ee4913f4499e1f2633a7b5936321eed1cdaeb6115181d2602060405160018152a16106d2565b848903607f19018152835180516001600160a01b03168a5260208101519499939492939192606083019160038210156105d957604060809160209384870152015193606060408201528451809452019201905f905b8082106107ad575050506020806001929a0192019201909291610666565b82516001600160e01b03191684526020938401939092019160019091019061078f565b6001600160481b03191668010000000000000001175f5160206110e65f395f51905f52555f61014f565b63f92ee8a960e01b5f5260045ffd5b9050155f610127565b303b15915061011f565b849150610115565b5f80fd5b82516001600160401b0381116108245782016060818903601f190112610824576108506108fe565b9061085d6020820161096d565b82526040810151600381101561082457602083015260608101516001600160401b03811161082457602091010188601f820112156108245780516108a361007d82610956565b9160208084848152019260051b820101908b821161082457602001915b8183106108dd5750505060408201528152602092830192016100a0565b82516001600160e01b031981168103610824578152602092830192016108c0565b60405190606082016001600160401b0381118382101761091d57604052565b634e487b7160e01b5f52604160045260245ffd5b6040519190601f01601f191682016001600160401b0381118382101761091d57604052565b6001600160401b03811161091d5760051b60200190565b51906001600160a01b038216820361082457565b6001600160401b03811161091d57601f01601f191660200190565b81601f82011215610824578051906109b661007d83610981565b928284526020838301011161082457815f9260208093018386015e8301015290565b80518210156109ec5760209160051b010190565b634e487b7160e01b5f52603260045260245ffd5b6001600160a01b0381169291908315610bb45773d1a302d1a302d1a302d1a302d1a302d1a302d1a38414610a5657803b15610a4357610a40929350610bba565b50565b8363323eaa2b60e11b5f5260045260245ffd5b5080919250518101906020820190602081840312610824576020810151906001600160401b038211610824570181603f8201121561082457602081015192610aa061007d85610956565b936020808087848152019260051b85010101928484116108245760408101915b848310610b2e5750505050505080515f5b818110610add57505050565b6001600160a01b03610aef82856109d8565b515116803b15610b1c5790610b156001926020610b0c84886109d8565b51015190610bba565b5001610ad1565b63323eaa2b60e11b5f5260045260245ffd5b82516001600160401b0381116108245782016020810191906040908603601f1901126108245760408051919082016001600160401b0381118382101761091d57604052610b7d6020840161096d565b82526040830151916001600160401b03831161082457610ba58960208096958196010161099c565b83820152815201920191610ac0565b50509050565b5f80610bec93602081519101845af43d15610bef573d91610bdd61007d84610981565b9283523d5f602085013e610f13565b90565b606091610f13565b80548210156109ec575f5260205f2001905f90565b5f8181525f5160206110c65f395f51905f5260205260409020548015610d61575f198101818111610d4d575f5160206110a65f395f51905f52545f19810191908211610d4d57818103610cdb575b5050505f5160206110a65f395f51905f52548015610cc7575f1901610c8c815f5160206110a65f395f51905f52610bf7565b8154905f199060031b1b191690555f5160206110a65f395f51905f52555f525f5160206110c65f395f51905f526020525f6040812055600190565b634e487b7160e01b5f52603160045260245ffd5b610d2b610cf8610d15935f5160206110a65f395f51905f52610bf7565b90549060031b1c9283925f5160206110a65f395f51905f52610bf7565b819391549060031b91821b915f19901b19161790565b90555f525f5160206110c65f395f51905f5260205260405f20555f8080610c5a565b634e487b7160e01b5f52601160045260245ffd5b50505f90565b906001820191815f528260205260405f20548015155f14610e10575f198101818111610d4d5782545f19810191908211610d4d57818103610ddb575b50505080548015610cc7575f190190610dbc8282610bf7565b8154905f199060031b1b19169055555f526020525f6040812055600190565b610dfb610deb610d159386610bf7565b90549060031b1c92839286610bf7565b90555f528360205260405f20555f8080610da3565b505050505f90565b805f525f5160206110c65f395f51905f5260205260405f2054155f14610eb5575f5160206110a65f395f51905f52546801000000000000000081101561091d57610e86610d158260018594015f5160206110a65f395f51905f52555f5160206110a65f395f51905f52610bf7565b90555f5160206110a65f395f51905f5254905f525f5160206110c65f395f51905f5260205260405f2055600190565b505f90565b6001810190825f528160205260405f2054155f14610f0c5780546801000000000000000081101561091d57610ef9610d15826001879401855584610bf7565b905554915f5260205260405f2055600190565b5050505f90565b90610f375750805115610f2857602081519101fd5b63d6bda27560e01b5f5260045ffd5b81511580610f68575b610f48575090565b639996b31560e01b5f9081526001600160a01b0391909116600452602490fd5b50803b15610f4056fe6080604052361560bc577fffffffff000000000000000000000000000000000000000000000000000000005f3516805f527f909db06a919bc771a05b58d84870d6b5a9ab034fa690108bc14bff4c4574573d60205273ffffffffffffffffffffffffffffffffffffffff60405f2054169081156091575f8083368280378136915af43d5f803e15608d573d5ff35b3d5ffd5b7f9dcb6788000000000000000000000000000000000000000000000000000000005f5260045260245ffd5b00fea2646970667358221220373724e6b84ef4fbf15c8bfb0e37cd05f3c41c42dd29c227d82d9cfa27ea67d564736f6c634300081c0033909db06a919bc771a05b58d84870d6b5a9ab034fa690108bc14bff4c4574573e909db06a919bc771a05b58d84870d6b5a9ab034fa690108bc14bff4c4574573d909db06a919bc771a05b58d84870d6b5a9ab034fa690108bc14bff4c4574573b909db06a919bc771a05b58d84870d6b5a9ab034fa690108bc14bff4c4574573cf0c57e16840df040f15088dc2f81fe391c3923bec73e23a9662efc9c229c6a00a26469706673582212203c36c4c01dcadac7694030abae18968a624d6da8f3914e4ad3ffe476c7f2c45f64736f6c634300081c0033",
        "linkReferences": {}
    },
    "methodIdentifiers": {
        "createDiamond(((address,uint8,bytes4[])[],address,bytes))": "e2701950",
        "predictDiamondAddress(((address,uint8,bytes4[])[],address,bytes))": "f6f89205"
    },
    "id": 41
}