{"abi":[{"type":"function","name":"DiamondInspect_init","inputs":[],"outputs":[],"stateMutability":"nonpayable"},{"type":"function","name":"facetAddress","inputs":[{"name":"_selector","type":"bytes4","internalType":"bytes4"}],"outputs":[{"name":"facet","type":"address","internalType":"address"}],"stateMutability":"view"},{"type":"function","name":"functionFacetPairs","inputs":[],"outputs":[{"name":"pairs","type":"bytes","internalType":"bytes"}],"stateMutability":"view"},{"type":"function","name":"packedSelectors","inputs":[],"outputs":[{"name":"","type":"bytes","internalType":"bytes"}],"stateMutability":"pure"},{"type":"function","name":"supportsInterface","inputs":[{"name":"interfaceId","type":"bytes4","internalType":"bytes4"}],"outputs":[{"name":"","type":"bool","internalType":"bool"}],"stateMutability":"view"}],"bytecode":{"object":"0x6080806040523460155761049c908161001a8239f35b5f80fdfe60806040526004361015610011575f80fd5b5f3560e01c806301ffc9a7146100645780633e62267c1461005f57806360b5befb1461005a578063cdffacc6146100555763f6713f2014610050575f80fd5b6102e2565b610287565b610170565b610106565b346100b557610072366100b9565b63ffffffff60e01b165f527f49e5d4b4dffd3ea9dfcc29574ccfe2842c2a5e7f5ff2aa4017ab24c98e921557602052602060ff60405f2054166040519015158152f35b5f80fd5b60209060031901126100b5576004356001600160e01b0319811681036100b55790565b602060409281835280519182918282860152018484015e5f828201840152601f01601f1916010190565b346100b5575f3660031901126100b5576040516360b5befb60e01b60208201526366ffd66360e11b60248201526301ffc9a760e01b60288201526307b389f960e51b602c8201526010815261016c90610160603082610391565b604051918291826100dc565b0390f35b346100b5575f3660031901126100b5577f49e5d4b4dffd3ea9dfcc29574ccfe2842c2a5e7f5ff2aa4017ab24c98e92155654601881029080820460181481151715610273576101be826103b8565b916101cc6040519384610391565b8083526101db601f19916103b8565b013660208401375f5b8181106101f9576040518061016c85826100dc565b806102156102086001936103d4565b90549060031b1c60e01b90565b61025f6102528263ffffffff60e01b165f527f49e5d4b4dffd3ea9dfcc29574ccfe2842c2a5e7f5ff2aa4017ab24c98e92155560205260405f2090565b546001600160a01b031690565b60401b1760206018830286010152016101e4565b634e487b7160e01b5f52601160045260245ffd5b346100b55760206001600160a01b036102d86102a2366100b9565b63ffffffff60e01b165f527f49e5d4b4dffd3ea9dfcc29574ccfe2842c2a5e7f5ff2aa4017ab24c98e92155560205260405f2090565b5416604051908152f35b346100b5575f3660031901126100b5577f49e5d4b4dffd3ea9dfcc29574ccfe2842c2a5e7f5ff2aa4017ab24c98e9215576020527f46d24cea8ad25ab4e97c6df2da0ab230a16d2fad7a63870d5378b4a4c9ff3f9e8054600160ff19918216811790925563ad4a123d60e01b5f527f93ebd221489e37135a2363c254eb820dbf71d92df8471d3a2313ee7ae165c8c480549091169091179055005b634e487b7160e01b5f52604160045260245ffd5b90601f8019910116810190811067ffffffffffffffff8211176103b357604052565b61037d565b67ffffffffffffffff81116103b357601f01601f191660200190565b907f49e5d4b4dffd3ea9dfcc29574ccfe2842c2a5e7f5ff2aa4017ab24c98e92155654821015610452577f49e5d4b4dffd3ea9dfcc29574ccfe2842c2a5e7f5ff2aa4017ab24c98e9215565f52600382901c7fdaf47bc1c9212e8f00f9438529ac76fddd192cd49f69c265ab7ecf51df03a66e019160021b601c1690565b634e487b7160e01b5f52603260045260245ffdfea2646970667358221220d196158f7d9c0c838c1606e0e8ef5dbc2223b40c09d1bf7a3bec2a2389d2fbf264736f6c634300081e0033","linkReferences":{}},"methodIdentifiers":{"DiamondInspect_init()":"f6713f20","facetAddress(bytes4)":"cdffacc6","functionFacetPairs()":"60b5befb","packedSelectors()":"3e62267c","supportsInterface(bytes4)":"01ffc9a7"},"id":124}