{"abi":[{"type":"constructor","inputs":[{"name":"registry","type":"address","internalType":"contract ISchemaRegistry"}],"stateMutability":"nonpayable"},{"type":"function","name":"attest","inputs":[{"name":"request","type":"tuple","internalType":"struct AttestationRequest","components":[{"name":"schema","type":"bytes32","internalType":"bytes32"},{"name":"data","type":"tuple","internalType":"struct AttestationRequestData","components":[{"name":"recipient","type":"address","internalType":"address"},{"name":"expirationTime","type":"uint64","internalType":"uint64"},{"name":"revocable","type":"bool","internalType":"bool"},{"name":"refUID","type":"bytes32","internalType":"bytes32"},{"name":"data","type":"bytes","internalType":"bytes"},{"name":"value","type":"uint256","internalType":"uint256"}]}]}],"outputs":[{"name":"","type":"bytes32","internalType":"bytes32"}],"stateMutability":"payable"},{"type":"function","name":"attestByDelegation","inputs":[{"name":"delegatedRequest","type":"tuple","internalType":"struct DelegatedAttestationRequest","components":[{"name":"schema","type":"bytes32","internalType":"bytes32"},{"name":"data","type":"tuple","internalType":"struct AttestationRequestData","components":[{"name":"recipient","type":"address","internalType":"address"},{"name":"expirationTime","type":"uint64","internalType":"uint64"},{"name":"revocable","type":"bool","internalType":"bool"},{"name":"refUID","type":"bytes32","internalType":"bytes32"},{"name":"data","type":"bytes","internalType":"bytes"},{"name":"value","type":"uint256","internalType":"uint256"}]},{"name":"signature","type":"tuple","internalType":"struct Signature","components":[{"name":"v","type":"uint8","internalType":"uint8"},{"name":"r","type":"bytes32","internalType":"bytes32"},{"name":"s","type":"bytes32","internalType":"bytes32"}]},{"name":"attester","type":"address","internalType":"address"},{"name":"deadline","type":"uint64","internalType":"uint64"}]}],"outputs":[{"name":"","type":"bytes32","internalType":"bytes32"}],"stateMutability":"payable"},{"type":"function","name":"eip712Domain","inputs":[],"outputs":[{"name":"fields","type":"bytes1","internalType":"bytes1"},{"name":"name","type":"string","internalType":"string"},{"name":"version","type":"string","internalType":"string"},{"name":"chainId","type":"uint256","internalType":"uint256"},{"name":"verifyingContract","type":"address","internalType":"address"},{"name":"salt","type":"bytes32","internalType":"bytes32"},{"name":"extensions","type":"uint256[]","internalType":"uint256[]"}],"stateMutability":"view"},{"type":"function","name":"getAttestTypeHash","inputs":[],"outputs":[{"name":"","type":"bytes32","internalType":"bytes32"}],"stateMutability":"pure"},{"type":"function","name":"getAttestation","inputs":[{"name":"uid","type":"bytes32","internalType":"bytes32"}],"outputs":[{"name":"","type":"tuple","internalType":"struct Attestation","components":[{"name":"uid","type":"bytes32","internalType":"bytes32"},{"name":"schema","type":"bytes32","internalType":"bytes32"},{"name":"time","type":"uint64","internalType":"uint64"},{"name":"expirationTime","type":"uint64","internalType":"uint64"},{"name":"revocationTime","type":"uint64","internalType":"uint64"},{"name":"refUID","type":"bytes32","internalType":"bytes32"},{"name":"recipient","type":"address","internalType":"address"},{"name":"attester","type":"address","internalType":"address"},{"name":"revocable","type":"bool","internalType":"bool"},{"name":"data","type":"bytes","internalType":"bytes"}]}],"stateMutability":"view"},{"type":"function","name":"getDomainSeparator","inputs":[],"outputs":[{"name":"","type":"bytes32","internalType":"bytes32"}],"stateMutability":"view"},{"type":"function","name":"getName","inputs":[],"outputs":[{"name":"","type":"string","internalType":"string"}],"stateMutability":"view"},{"type":"function","name":"getNonce","inputs":[{"name":"account","type":"address","internalType":"address"}],"outputs":[{"name":"","type":"uint256","internalType":"uint256"}],"stateMutability":"view"},{"type":"function","name":"getRevokeOffchain","inputs":[{"name":"revoker","type":"address","internalType":"address"},{"name":"data","type":"bytes32","internalType":"bytes32"}],"outputs":[{"name":"","type":"uint64","internalType":"uint64"}],"stateMutability":"view"},{"type":"function","name":"getRevokeTypeHash","inputs":[],"outputs":[{"name":"","type":"bytes32","internalType":"bytes32"}],"stateMutability":"pure"},{"type":"function","name":"getSchemaRegistry","inputs":[],"outputs":[{"name":"","type":"address","internalType":"contract ISchemaRegistry"}],"stateMutability":"view"},{"type":"function","name":"getTimestamp","inputs":[{"name":"data","type":"bytes32","internalType":"bytes32"}],"outputs":[{"name":"","type":"uint64","internalType":"uint64"}],"stateMutability":"view"},{"type":"function","name":"increaseNonce","inputs":[{"name":"newNonce","type":"uint256","internalType":"uint256"}],"outputs":[],"stateMutability":"nonpayable"},{"type":"function","name":"isAttestationValid","inputs":[{"name":"uid","type":"bytes32","internalType":"bytes32"}],"outputs":[{"name":"","type":"bool","internalType":"bool"}],"stateMutability":"view"},{"type":"function","name":"multiAttest","inputs":[{"name":"multiRequests","type":"tuple[]","internalType":"struct MultiAttestationRequest[]","components":[{"name":"schema","type":"bytes32","internalType":"bytes32"},{"name":"data","type":"tuple[]","internalType":"struct AttestationRequestData[]","components":[{"name":"recipient","type":"address","internalType":"address"},{"name":"expirationTime","type":"uint64","internalType":"uint64"},{"name":"revocable","type":"bool","internalType":"bool"},{"name":"refUID","type":"bytes32","internalType":"bytes32"},{"name":"data","type":"bytes","internalType":"bytes"},{"name":"value","type":"uint256","internalType":"uint256"}]}]}],"outputs":[{"name":"","type":"bytes32[]","internalType":"bytes32[]"}],"stateMutability":"payable"},{"type":"function","name":"multiAttestByDelegation","inputs":[{"name":"multiDelegatedRequests","type":"tuple[]","internalType":"struct MultiDelegatedAttestationRequest[]","components":[{"name":"schema","type":"bytes32","internalType":"bytes32"},{"name":"data","type":"tuple[]","internalType":"struct AttestationRequestData[]","components":[{"name":"recipient","type":"address","internalType":"address"},{"name":"expirationTime","type":"uint64","internalType":"uint64"},{"name":"revocable","type":"bool","internalType":"bool"},{"name":"refUID","type":"bytes32","internalType":"bytes32"},{"name":"data","type":"bytes","internalType":"bytes"},{"name":"value","type":"uint256","internalType":"uint256"}]},{"name":"signatures","type":"tuple[]","internalType":"struct Signature[]","components":[{"name":"v","type":"uint8","internalType":"uint8"},{"name":"r","type":"bytes32","internalType":"bytes32"},{"name":"s","type":"bytes32","internalType":"bytes32"}]},{"name":"attester","type":"address","internalType":"address"},{"name":"deadline","type":"uint64","internalType":"uint64"}]}],"outputs":[{"name":"","type":"bytes32[]","internalType":"bytes32[]"}],"stateMutability":"payable"},{"type":"function","name":"multiRevoke","inputs":[{"name":"multiRequests","type":"tuple[]","internalType":"struct MultiRevocationRequest[]","components":[{"name":"schema","type":"bytes32","internalType":"bytes32"},{"name":"data","type":"tuple[]","internalType":"struct RevocationRequestData[]","components":[{"name":"uid","type":"bytes32","internalType":"bytes32"},{"name":"value","type":"uint256","internalType":"uint256"}]}]}],"outputs":[],"stateMutability":"payable"},{"type":"function","name":"multiRevokeByDelegation","inputs":[{"name":"multiDelegatedRequests","type":"tuple[]","internalType":"struct MultiDelegatedRevocationRequest[]","components":[{"name":"schema","type":"bytes32","internalType":"bytes32"},{"name":"data","type":"tuple[]","internalType":"struct RevocationRequestData[]","components":[{"name":"uid","type":"bytes32","internalType":"bytes32"},{"name":"value","type":"uint256","internalType":"uint256"}]},{"name":"signatures","type":"tuple[]","internalType":"struct Signature[]","components":[{"name":"v","type":"uint8","internalType":"uint8"},{"name":"r","type":"bytes32","internalType":"bytes32"},{"name":"s","type":"bytes32","internalType":"bytes32"}]},{"name":"revoker","type":"address","internalType":"address"},{"name":"deadline","type":"uint64","internalType":"uint64"}]}],"outputs":[],"stateMutability":"payable"},{"type":"function","name":"multiRevokeOffchain","inputs":[{"name":"data","type":"bytes32[]","internalType":"bytes32[]"}],"outputs":[{"name":"","type":"uint64","internalType":"uint64"}],"stateMutability":"nonpayable"},{"type":"function","name":"multiTimestamp","inputs":[{"name":"data","type":"bytes32[]","internalType":"bytes32[]"}],"outputs":[{"name":"","type":"uint64","internalType":"uint64"}],"stateMutability":"nonpayable"},{"type":"function","name":"revoke","inputs":[{"name":"request","type":"tuple","internalType":"struct RevocationRequest","components":[{"name":"schema","type":"bytes32","internalType":"bytes32"},{"name":"data","type":"tuple","internalType":"struct RevocationRequestData","components":[{"name":"uid","type":"bytes32","internalType":"bytes32"},{"name":"value","type":"uint256","internalType":"uint256"}]}]}],"outputs":[],"stateMutability":"payable"},{"type":"function","name":"revokeByDelegation","inputs":[{"name":"delegatedRequest","type":"tuple","internalType":"struct DelegatedRevocationRequest","components":[{"name":"schema","type":"bytes32","internalType":"bytes32"},{"name":"data","type":"tuple","internalType":"struct RevocationRequestData","components":[{"name":"uid","type":"bytes32","internalType":"bytes32"},{"name":"value","type":"uint256","internalType":"uint256"}]},{"name":"signature","type":"tuple","internalType":"struct Signature","components":[{"name":"v","type":"uint8","internalType":"uint8"},{"name":"r","type":"bytes32","internalType":"bytes32"},{"name":"s","type":"bytes32","internalType":"bytes32"}]},{"name":"revoker","type":"address","internalType":"address"},{"name":"deadline","type":"uint64","internalType":"uint64"}]}],"outputs":[],"stateMutability":"payable"},{"type":"function","name":"revokeOffchain","inputs":[{"name":"data","type":"bytes32","internalType":"bytes32"}],"outputs":[{"name":"","type":"uint64","internalType":"uint64"}],"stateMutability":"nonpayable"},{"type":"function","name":"timestamp","inputs":[{"name":"data","type":"bytes32","internalType":"bytes32"}],"outputs":[{"name":"","type":"uint64","internalType":"uint64"}],"stateMutability":"nonpayable"},{"type":"function","name":"version","inputs":[],"outputs":[{"name":"","type":"string","internalType":"string"}],"stateMutability":"view"},{"type":"event","name":"Attested","inputs":[{"name":"recipient","type":"address","indexed":true,"internalType":"address"},{"name":"attester","type":"address","indexed":true,"internalType":"address"},{"name":"uid","type":"bytes32","indexed":false,"internalType":"bytes32"},{"name":"schemaUID","type":"bytes32","indexed":true,"internalType":"bytes32"}],"anonymous":false},{"type":"event","name":"EIP712DomainChanged","inputs":[],"anonymous":false},{"type":"event","name":"NonceIncreased","inputs":[{"name":"oldNonce","type":"uint256","indexed":false,"internalType":"uint256"},{"name":"newNonce","type":"uint256","indexed":false,"internalType":"uint256"}],"anonymous":false},{"type":"event","name":"Revoked","inputs":[{"name":"recipient","type":"address","indexed":true,"internalType":"address"},{"name":"attester","type":"address","indexed":true,"internalType":"address"},{"name":"uid","type":"bytes32","indexed":false,"internalType":"bytes32"},{"name":"schemaUID","type":"bytes32","indexed":true,"internalType":"bytes32"}],"anonymous":false},{"type":"event","name":"RevokedOffchain","inputs":[{"name":"revoker","type":"address","indexed":true,"internalType":"address"},{"name":"data","type":"bytes32","indexed":true,"internalType":"bytes32"},{"name":"timestamp","type":"uint64","indexed":true,"internalType":"uint64"}],"anonymous":false},{"type":"event","name":"Timestamped","inputs":[{"name":"data","type":"bytes32","indexed":true,"internalType":"bytes32"},{"name":"timestamp","type":"uint64","indexed":true,"internalType":"uint64"}],"anonymous":false},{"type":"error","name":"AccessDenied","inputs":[]},{"type":"error","name":"AlreadyRevoked","inputs":[]},{"type":"error","name":"AlreadyRevokedOffchain","inputs":[]},{"type":"error","name":"AlreadyTimestamped","inputs":[]},{"type":"error","name":"DeadlineExpired","inputs":[]},{"type":"error","name":"FailedCall","inputs":[]},{"type":"error","name":"InsufficientBalance","inputs":[{"name":"balance","type":"uint256","internalType":"uint256"},{"name":"needed","type":"uint256","internalType":"uint256"}]},{"type":"error","name":"InsufficientValue","inputs":[]},{"type":"error","name":"InvalidAttestation","inputs":[]},{"type":"error","name":"InvalidAttestations","inputs":[]},{"type":"error","name":"InvalidExpirationTime","inputs":[]},{"type":"error","name":"InvalidLength","inputs":[]},{"type":"error","name":"InvalidNonce","inputs":[]},{"type":"error","name":"InvalidOffset","inputs":[]},{"type":"error","name":"InvalidRegistry","inputs":[]},{"type":"error","name":"InvalidRevocation","inputs":[]},{"type":"error","name":"InvalidRevocations","inputs":[]},{"type":"error","name":"InvalidSchema","inputs":[]},{"type":"error","name":"InvalidShortString","inputs":[]},{"type":"error","name":"InvalidSignature","inputs":[]},{"type":"error","name":"InvalidVerifier","inputs":[]},{"type":"error","name":"Irrevocable","inputs":[]},{"type":"error","name":"NotFound","inputs":[]},{"type":"error","name":"NotPayable","inputs":[]},{"type":"error","name":"StringTooLong","inputs":[{"name":"str","type":"string","internalType":"string"}]},{"type":"error","name":"WrongSchema","inputs":[]}],"bytecode":{"object":"0x6101e0806040523461032c5760208161418980380380916100208285610330565b83398101031261032c57516001600160a01b0381169081810361032c576040519161004c604084610330565b60038352602083016245415360e81b81526040519061006c604083610330565b600582526020820190640312e342e360dc1b82526001608052600460a0525f60c05261009786610353565b610180526100a4836104d5565b6101a05285519020918261014052519020806101605246610100526040519060208201927f8b73c3c69bb8fe3d512ecc4cf759cc79239f7b179b0ffacaa9a75d522b39400f8452604083015260608201524660808201523060a082015260a0815261011060c082610330565b51902060e052306101205282516001600160401b03811161031857600254600181811c9116801561030e575b60208210146102fa57601f8111610297575b506020601f821160011461023457819293945f92610229575b50508160011b915f199060031b1c1916176002555b1561021a576101c052604051613b7b908161060e823960805181610868015260a05181610893015260c051816108be015260e051816130540152610100518161311101526101205181613025015261014051816130a3015261016051816130c9015261018051816106e701526101a0518161071301526101c0518181816101d601528181611b7b01528181611e2b015281816121c601526127e10152f35b6311a1e69760e01b5f5260045ffd5b015190505f80610167565b601f1982169060025f52805f20915f5b81811061027f57509583600195969710610267575b505050811b0160025561017c565b01515f1960f88460031b161c191690555f8080610259565b9192602060018192868b015181550194019201610244565b60025f527f405787fa12a823e0f2b7631cc41b3ba8828b3321ca811111fa75cd3aa3bb5ace601f830160051c810191602084106102f0575b601f0160051c01905b8181106102e5575061014e565b5f81556001016102d8565b90915081906102cf565b634e487b7160e01b5f52602260045260245ffd5b90607f169061013c565b634e487b7160e01b5f52604160045260245ffd5b5f80fd5b601f909101601f19168101906001600160401b0382119082101761031857604052565b908151602081105f146103cd575090601f81511161038d57602081519101516020821061037e571790565b5f198260200360031b1b161790565b604460209160405192839163305a27a960e01b83528160048401528051918291826024860152018484015e5f828201840152601f01601f19168101030190fd5b6001600160401b038111610318575f54600181811c911680156104cb575b60208210146102fa57601f8111610499575b50602092601f821160011461043a57928192935f9261042f575b50508160011b915f199060031b1c1916175f5560ff90565b015190505f80610417565b601f198216935f8052805f20915f5b8681106104815750836001959610610469575b505050811b015f5560ff90565b01515f1960f88460031b161c191690555f808061045c565b91926020600181928685015181550194019201610449565b5f8052601f60205f20910160051c810190601f830160051c015b8181106104c057506103fd565b5f81556001016104b3565b90607f16906103eb565b908151602081105f14610500575090601f81511161038d57602081519101516020821061037e571790565b6001600160401b03811161031857600154600181811c91168015610603575b60208210146102fa57601f81116105d0575b50602092601f821160011461056f57928192935f92610564575b50508160011b915f199060031b1c19161760015560ff90565b015190505f8061054b565b601f1982169360015f52805f20915f5b8681106105b857508360019596106105a0575b505050811b0160015560ff90565b01515f1960f88460031b161c191690555f8080610592565b9192602060018192868501518155019401920161057f565b60015f52601f60205f20910160051c810190601f830160051c015b8181106105f85750610531565b5f81556001016105eb565b90607f169061051f56fe60806040526004361015610011575f80fd5b5f3560e01c80630eabf66014610dde57806312b11a1714610da457806313893f6114610d3557806317d7de7c14610c6b5780632d0335ab14610c335780633c04271514610b4357806344adc90e14610a655780634692626714610a255780634cb7e9e5146109745780634d0030701461094b57806354fd4d501461084957806379f7573a146107b857806384b0196e146106cf57806395411525146104c2578063a3112a6414610477578063a6d4dbc7146103a2578063b469318d14610355578063b83010d31461031b578063cf190f34146102f1578063d45c4435146102be578063e30bb5631461028a578063e71ff3651461021c578063ed24911d146101fa578063f10b5cc8146101b75763f17325e71461012c575f80fd5b60203660031901126101b3576004356001600160401b0381116101b35780600401604060031983360301126101b35760206101a381936101aa9361018561017161152d565b92610180602436920184611592565b611471565b61018e8361134b565b526101988261134b565b50349133913561217e565b015161134b565b51604051908152f35b5f80fd5b346101b3575f3660031901126101b35760206040516001600160a01b037f0000000000000000000000000000000000000000000000000000000000000000168152f35b346101b3575f3660031901126101b357602061021461301b565b604051908152f35b346101b35760203660031901126101b3576004356001600160401b0381116101b35761024c903690600401610fde565b906001600160401b034216915f5b81811061026c57602084604051908152f35b806102848561027e600194868861138d565b35612e0c565b0161025a565b346101b35760203660031901126101b35760206102b46004355f52600460205260405f2054151590565b6040519015158152f35b346101b35760203660031901126101b3576004355f52600560205260206001600160401b0360405f205416604051908152f35b346101b35760203660031901126101b35760206001600160401b0342166102148160043533611fa3565b346101b3575f3660031901126101b35760206040517fb5d556f07587ec0f08cf386545cc4362c702a001650c2058002615ee5c9d1e758152f35b346101b35760403660031901126101b3576001600160a01b03610376611032565b165f52600660205260405f206024355f5260205260206001600160401b0360405f205416604051908152f35b6101003660031901126101b3576040516103bb8161118e565b6004358082526103ca36611262565b602083015260603660631901126101b3576040516103e7816111d8565b60643560ff811681036101b3578152608435602082015260a4356040820152604083015260c4356001600160a01b03811681036101b35780606084015260e4356001600160401b03811681036101b35783610449916080610475960152611879565b6104516116c6565b61045a36611262565b6104638261134b565b5261046d8161134b565b503492611b56565b005b346101b35760203660031901126101b357610490611779565b506004355f5260046020526104be6104aa60405f206117c3565b6040519182916020835260208301906110c8565b0390f35b60203660031901126101b3576004356001600160401b0381116101b3576104ed903690600401610fde565b906104f7826115bb565b915f915f1982019083345b848210610522576104be6105168789612da4565b6040519182918261105c565b610532828685999698979961116c565b946105406020870187611626565b939091841580156106b7575b61068f575f9996604089019460608a01968a359960808c0135996001600160401b038b16809b14159e5b83811015610620578f908e61059b8c6105958d8560051b810190611592565b92611744565b83101561060c576105ab8e6115a7565b936101b3578f908f906001956105f16001600160a01b03926105e061060697604051976105d78961118e565b88523690611471565b6020870152369060608902016112f9565b60408501521660608301526080820152612041565b01610576565b634e487b7160e01b5f52603260045260245ffd5b509a8d9e5061065d949c50839a50600198506106576106669698889f61064f9060209a9d9796959d14966115a7565b93369161165b565b90612796565b9586519061136c565b940180516106748989611358565b5261067f8888611358565b5051510195019093959291610502565b7f947d5a84000000000000000000000000000000000000000000000000000000005f5260045ffd5b506106c56040890189611744565b905085141561054c565b346101b3575f3660031901126101b35761078a61070b7f00000000000000000000000000000000000000000000000000000000000000006136e5565b6104be6107377f000000000000000000000000000000000000000000000000000000000000000061375d565b6107986040519161074960208461122a565b5f83525f3681376040519586957f0f00000000000000000000000000000000000000000000000000000000000000875260e0602088015260e087019061100e565b90858203604087015261100e565b904660608501523060808501525f60a085015283820360c0850152611095565b346101b35760203660031901126101b357600435335f52600360205260405f20549081811115610821577f57b09af877df9068fd60a69d7b21f5576b8b38955812d6ae4ac52942f1e38fb791604091335f52600360205280835f205582519182526020820152a1005b7f756688fe000000000000000000000000000000000000000000000000000000005f5260045ffd5b346101b3575f3660031901126101b3576104be6020610937600161088c7f0000000000000000000000000000000000000000000000000000000000000000612e97565b81846108b77f0000000000000000000000000000000000000000000000000000000000000000612e97565b81806108e27f0000000000000000000000000000000000000000000000000000000000000000612e97565b9260405199878b985191829101848a015e870190601760f91b83830152805192839101602183015e010190601760f91b84830152805192839101600283015e01015f838201520301601f19810183528261122a565b60405191829160208352602083019061100e565b346101b35760203660031901126101b35760206001600160401b03421661021481600435612e0c565b60203660031901126101b3576004356001600160401b0381116101b35761099f903690600401610fde565b5f19810191905f90345b8183106109b257005b6109bd838386611604565b6020810135601e19823603018112156101b3578101918235926001600160401b0384116101b357602001928060061b360384136101b35760019382610a1792610a1d95610a108c8b14943393369161128a565b9035611e05565b9061136c565b9201916109a9565b60603660031901126101b357610475610a3c6116c6565b610a4536611262565b610a4e8261134b565b52610a588161134b565b5034903390600435611b56565b60203660031901126101b3576004356001600160401b0381116101b357610a90903690600401610fde565b90610a9a826115bb565b915f9134905f925f198101905b808510610abb576104be6105168789612da4565b9091929394610acb868386611604565b906020820191610adb8382611626565b90501561068f57610b1b610b1289898885610b0b610afd60019a602099611626565b93909514943393369161165b565b9035612796565b9788519061136c565b96018051610b29898b611358565b52610b34888a611358565b50515101950193929190610aa7565b60203660031901126101b3576004356001600160401b0381116101b357806004019060e060031982360301126101b357604051610b7f8161118e565b82359283825260248301938435946001600160401b0386116101b357610c2b6101aa95610c126101a395610bff60209a98610bc18c9a60043691880101611471565b8a820152610bd236604487016112f9565b6040820152610bf560c460a4870196610bea88611048565b606085015201611337565b6080820152612041565b610180610c0a61152d565b953692611592565b610c1b8461134b565b52610c258361134b565b506115a7565b90349261217e565b346101b35760203660031901126101b3576001600160a01b03610c54611032565b165f526003602052602060405f2054604051908152f35b346101b3575f3660031901126101b3576040515f600254610c8b8161139d565b8084529060018116908115610d115750600114610cb3575b6104be836109378185038261122a565b60025f9081527f405787fa12a823e0f2b7631cc41b3ba8828b3321ca811111fa75cd3aa3bb5ace939250905b808210610cf757509091508101602001610937610ca3565b919260018160209254838588010152019101909291610cdf565b60ff191660208086019190915291151560051b840190910191506109379050610ca3565b346101b35760203660031901126101b3576004356001600160401b0381116101b357610d65903690600401610fde565b906001600160401b034216915f5b818110610d8557602084604051908152f35b80610d9e85610d97600194868861138d565b3533611fa3565b01610d73565b346101b3575f3660031901126101b35760206040517ffeb2925a02bae3dae48d424a0437a2b6ac939aa9230ddc55a1a76f065d9880768152f35b60203660031901126101b3576004356001600160401b0381116101b357610e09903690600401610fde565b5f198101915f91345b818410610e1b57005b610e2684838561116c565b60a0813603126101b357604051610e3c8161118e565b8135815260208201356001600160401b0381116101b357820136601f820112156101b357610e7190369060208135910161128a565b906020810191825260408301356001600160401b0381116101b357830136601f820112156101b357803590610ea58261124b565b91610eb3604051938461122a565b808352602060608185019202830101913683116101b357602001905b828210610fc45750505060408201818152610eff6080610ef160608801611048565b966060860197885201611337565b936080840194855251938451928315908115610fb8575b5061068f575f5b838110610f535750505050610f4b928460019593610a179351906001600160a01b038c8c1494511691611e05565b930192610e12565b600190610fb28651610f65838a611358565b51610f71848851611358565b516001600160a01b038c5116906001600160401b038851169260405194610f978661118e565b85526020850152604084015260608301526080820152611879565b01610f1d565b9050518314158c610f16565b6020606091610fd336856112f9565b815201910190610ecf565b9181601f840112156101b3578235916001600160401b0383116101b3576020808501948460051b0101116101b357565b805180835260209291819084018484015e5f828201840152601f01601f1916010190565b600435906001600160a01b03821682036101b357565b35906001600160a01b03821682036101b357565b60206040818301928281528451809452019201905f5b81811061107f5750505090565b8251845260209384019390920191600101611072565b90602080835192838152019201905f5b8181106110b25750505090565b82518452602093840193909201916001016110a5565b906101406101206111699380518452602081015160208501526001600160401b0360408201511660408501526001600160401b0360608201511660608501526001600160401b03608082015116608085015260a081015160a08501526001600160a01b0360c08201511660c08501526001600160a01b0360e08201511660e0850152610100810151151561010085015201519181610120820152019061100e565b90565b919081101561060c5760051b81013590609e19813603018212156101b3570190565b60a081019081106001600160401b038211176111a957604052565b634e487b7160e01b5f52604160045260245ffd5b604081019081106001600160401b038211176111a957604052565b606081019081106001600160401b038211176111a957604052565b60c081019081106001600160401b038211176111a957604052565b61014081019081106001600160401b038211176111a957604052565b90601f801991011681019081106001600160401b038211176111a957604052565b6001600160401b0381116111a95760051b60200190565b60409060231901126101b3576040519061127b826111bd565b60243582526044356020830152565b9291926112968261124b565b936112a4604051958661122a565b602085848152019260061b8201918183116101b357925b8284106112c85750505050565b6040848303126101b357602060409182516112e2816111bd565b8635815282870135838201528152019301926112bb565b91908260609103126101b357604051611311816111d8565b8092803560ff811681036101b35760409182918452602081013560208501520135910152565b35906001600160401b03821682036101b357565b80511561060c5760200190565b805182101561060c5760209160051b010190565b9190820391821161137957565b634e487b7160e01b5f52601160045260245ffd5b919081101561060c5760051b0190565b90600182811c921680156113cb575b60208310146113b757565b634e487b7160e01b5f52602260045260245ffd5b91607f16916113ac565b5f92918154916113e48361139d565b8083529260018116908115611439575060011461140057505050565b5f9081526020812093945091925b83831061141f575060209250010190565b60018160209294939454838587010152019101919061140e565b915050602093945060ff929192191683830152151560051b010190565b6001600160401b0381116111a957601f01601f191660200190565b919060c0838203126101b3576040519061148a826111f3565b819361149581611048565b83526114a360208201611337565b6020840152604081013580151581036101b35760408401526060810135606084015260808101356001600160401b0381116101b35781019082601f830112156101b3578135926114f284611456565b90611500604051928361122a565b848252602085850101116101b3575f60208560a09682889701838601378301015260808501520135910152565b6040805190919061153e838261122a565b6001815291601f1901825f5b82811061155657505050565b602090604051611565816111f3565b5f81525f838201525f60408201525f6060820152606060808201525f60a08201528282850101520161154a565b90359060be19813603018212156101b3570190565b356001600160a01b03811681036101b35790565b906115c58261124b565b6115d2604051918261122a565b82815280926115e3601f199161124b565b01905f5b8281106115f357505050565b8060606020809385010152016115e7565b919081101561060c5760051b81013590603e19813603018212156101b3570190565b903590601e19813603018212156101b357018035906001600160401b0382116101b357602001918160051b360383136101b357565b9291906116678161124b565b93611675604051958661122a565b602085838152019160051b8101918383116101b35781905b83821061169b575050505050565b81356001600160401b0381116101b3576020916116bb8784938701611471565b81520191019061168d565b604080519091906116d7838261122a565b6001815291601f1901825f5b8281106116ef57505050565b6020906040516116fe816111bd565b5f81525f83820152828285010152016116e3565b9061171c8261124b565b611729604051918261122a565b828152809261173a601f199161124b565b0190602036910137565b903590601e19813603018212156101b357018035906001600160401b0382116101b3576020019160608202360383136101b357565b604051906117868261120e565b6060610120835f81525f60208201525f60408201525f838201525f60808201525f60a08201525f60c08201525f60e08201525f6101008201520152565b9060066101206040516117d58161120e565b611867819580548352600181015460208401526001600160401b0360028201548181166040860152818160401c16606086015260801c166080840152600381015460a08401526001600160a01b0360048201541660c084015260ff60058201546001600160a01b03811660e086015260a01c16151561010084015261186060405180968193016113d5565b038461122a565b0152565b5f1981146113795760010190565b608081016001600160401b038151168015159081611a14575b506119ec57816001600160a01b0361194d60206119bd9501519260408101519460608201948486511692519160208251920151845f5260036020526001600160401b0360405f20928354936118e68561186b565b90555116926040519460208601967fb5d556f07587ec0f08cf386545cc4362c702a001650c2058002615ee5c9d1e75885260408701526060860152608085015260a084015260c083015260e082015260e081526119456101008261122a565b519020613137565b9151166119b860208401516119aa60ff60408701519651166040519687936020850191926041937fff00000000000000000000000000000000000000000000000000000000000000928452602084015260f81b1660408201520190565b03601f19810185528461122a565b613178565b156119c457565b7f8baa579f000000000000000000000000000000000000000000000000000000005f5260045ffd5b7f1ab7da6b000000000000000000000000000000000000000000000000000000005f5260045ffd5b90506001600160401b034216115f611892565b519081151582036101b357565b6020818303126101b3578051906001600160401b0382116101b35701906080828203126101b35760405191608083018381106001600160401b038211176111a9576040528051835260208101516001600160a01b03811681036101b3576020840152611aa260408201611a27565b60408401526060810151906001600160401b0382116101b3570181601f820112156101b357805190611ad382611456565b92611ae1604051948561122a565b828452602083830101116101b357815f9260208093018386015e83010152606082015290565b90611b118261124b565b611b1e604051918261122a565b8281528092611b2f601f199161124b565b01905f5b828110611b3f57505050565b602090611b4a611779565b82828501015201611b33565b9190604051906351753e3760e11b82528360048301525f826024816001600160a01b037f0000000000000000000000000000000000000000000000000000000000000000165afa918215611dfa575f92611dd6575b50815115611d865792835190611bc082611b07565b93611bca83611712565b95426001600160401b0316905f5b858110611bf3575050505050509161116993916001936132c0565b611bfd8183611358565b519081515f52600460205260405f2091825415611dae5786600184015403611d865760058301546001600160a01b03871690816001600160a01b03821603611d5e5760a01c60ff1615611d365760028401916001600160401b03835460801c16611d0e577ff930a6e2523c9cc298691873087a740550b8fc85a0680830414c148ed927f61560206001600160a01b038f8f88611cfb918f9993611cd18f9d611ccc60019f60c0989067ffffffffffffffff60801b1967ffffffffffffffff60801b83549260801b169116179055565b6117c3565b611cdb8484611358565b52611ce68383611358565b50611cf583888b015192611358565b52611358565b510151169251604051908152a401611bd8565b7f905e7107000000000000000000000000000000000000000000000000000000005f5260045ffd5b7f157bd4c3000000000000000000000000000000000000000000000000000000005f5260045ffd5b7f4ca88867000000000000000000000000000000000000000000000000000000005f5260045ffd5b7fbf37b20e000000000000000000000000000000000000000000000000000000005f5260045ffd5b7fc5723b51000000000000000000000000000000000000000000000000000000005f5260045ffd5b611df39192503d805f833e611deb818361122a565b810190611a34565b905f611bab565b6040513d5f823e3d90fd5b949392916040516351753e3760e11b81528660048201525f816024816001600160a01b037f0000000000000000000000000000000000000000000000000000000000000000165afa908115611dfa575f91611f89575b50805115611d86578251611e6e81611b07565b92611e7882611712565b94426001600160401b0316905f5b848110611e9d5750505050506111699596506132c0565b611ea78183611358565b519081515f52600460205260405f20805415611dae578d600182015403611d865760058101546001600160a01b03871690816001600160a01b03821603611d5e5760a01c60ff1615611d365760028201936001600160401b03855460801c16611d0e578f9260206001600160a01b0360c08f8f8990611f7692611cd18f98611ccc60019f9a7ff930a6e2523c9cc298691873087a740550b8fc85a0680830414c148ed927f6159b9067ffffffffffffffff60801b1967ffffffffffffffff60801b83549260801b169116179055565b510151169251604051908152a401611e86565b611f9d91503d805f833e611deb818361122a565b5f611e5b565b6001600160a01b031691825f52600660205260405f2090825f52816020526001600160401b0360405f205416612019576001600160401b0391835f5260205260405f20828216831982541617905516917f92a1f7a41a7c585a8b09e25b195e225b1d43248daca46b0faf9e0792777a22295f80a4565b7fec9d6eeb000000000000000000000000000000000000000000000000000000005f5260045ffd5b608081016001600160401b038151168015159081612152575b506119ec57816001600160a01b0361194d60206119bd9501519260408101519460608201948486511692519185825116916001600160401b03602082015116906040810151151560608201519060a060808401516020815191012093015193885f5260036020526001600160401b0360405f20968754976120da8961186b565b90555116966040519860208a019a7ffeb2925a02bae3dae48d424a0437a2b6ac939aa9230ddc55a1a76f065d9880768c5260408b015260608a0152608089015260a088015260c087015260e086015261010085015261012084015261014083015261016082015261016081526119456101808261122a565b90506001600160401b034216115f61205a565b60405190612172826111bd565b60606020835f81520152565b9291612188612165565b50815193612194612165565b9461219e81611712565b6020870152604051916351753e3760e11b83528060048401525f836024816001600160a01b037f0000000000000000000000000000000000000000000000000000000000000000165afa928315611dfa575f9361277a575b50825115611d865761220a82949592611b07565b9361221481611712565b955f935b82851061223757505050505091612232939160019361350d565b815290565b919599909498939761224c8984999599611358565b519960208b01976001600160401b038951168015159081612766575b5061273e5760408201511580612731575b611d365789988c606081015191516001600160401b03169181516001600160a01b031690604083015115159260800151936040519d8e6122b88161120e565b5f8152602001528d426001600160401b031660408201526060015260808d015f905260a08d015260c08c01526001600160a01b038a1660e08c01526101008b01526101208a01525f5b60208a015160c08b015160e08c01519060408d01518d606081015161010082015115159060a08301519261012001519360405196879660208801998a526bffffffffffffffffffffffff199060601b1660408801526bffffffffffffffffffffffff199060601b16605487015260c01b6001600160c01b031916606886015260c01b6001600160c01b031916607085015260f81b6078840152607983015280516020819201609984015e81018460e01b7fffffffff0000000000000000000000000000000000000000000000000000000016609982015203609901601b19810182526004016123f0908261122a565b519020805f52600460205260405f205415612414575060010163ffffffff16612301565b91979d99939b929895949c9050999599818452815f52600460205260405f2084518155602085015160018201556124d0600282016001600160401b0380604089015116166001600160401b031982541617815560608701516fffffffffffffffff0000000000000000196fffffffffffffffff000000000000000083549260401b1691161781556001600160401b0360808801511667ffffffffffffffff60801b1967ffffffffffffffff60801b83549260801b169116179055565b60a085810151600383015560c086015160048301805473ffffffffffffffffffffffffffffffffffffffff19166001600160a01b0392831617905560e08701516005840180546101008a01517fffffffffffffffffffffff000000000000000000000000000000000000000000909116929093169190911791151590921b60ff60a01b161790556101208501518051906001600160401b0382116111a95761257b600684015461139d565b601f81116126ed575b50909e9f9e8994939291602090601f831160011461267f57600692915f9183612674575b50508160011b915f199060031b1c1916179101555b8d8c8c606084015180612649575b508660206001600160a01b03959487946125f0848660019e611cf5836126089a611358565b506126008460a089015192611358565b520151611358565b5251166040519182527f8bf46bf4cfd674fa735a3d63ec1c9ad4153f033c290341f3a588b75685141b3560206001600160a01b03891693a401939190612218565b925050506126649193505f52600460205260405f2054151590565b15611dae5786918d8c8c5f6125cb565b015190505f806125a8565b90600684015f52805f20915f5b601f19851681106126d25750918391600193600695601f198116106126ba575b505050811b019101556125bd565b01515f1960f88460031b161c191690555f80806126ac565b8183015184558d98506001909301926020928301920161268c565b600684015f5260205f20601f840160051c81016020851061272a575b601f830160051c8201811061271f575050612584565b5f8155600101612709565b5080612709565b5060408c01511515612279565b7f08e8b937000000000000000000000000000000000000000000000000000000005f5260045ffd5b90506001600160401b03421610155f612268565b61278f9193503d805f833e611deb818361122a565b915f6121f6565b92909493916127a3612165565b508551936127af612165565b946127b981611712565b6020870152604051906351753e3760e11b82528260048301525f826024816001600160a01b037f0000000000000000000000000000000000000000000000000000000000000000165afa918215611dfa575f92612d88575b50815115611d86579297909161282684611b07565b9861283085611712565b945f935b81851061284c5750505050509561223294959661350d565b919593989496999092976128608a84611358565b519a60208c01986001600160401b038a51168015159081612d74575b5061273e5760408101511580612d67575b611d36578a998d606081015191516001600160401b03169181516001600160a01b031690604083015115159260800151936040519e8f906128cd8261120e565b5f82526020820152426001600160401b03166040820152606001528d608081015f905260a0015260c08d01526001600160a01b038b1660e08d01526101008c01526101208b01525f5b60208b015160c08c015160e08d0151908d604081015190606081015161010082015115159060a08301519261012001519360405196879660208801998a526bffffffffffffffffffffffff199060601b1660408801526bffffffffffffffffffffffff199060601b16605487015260c01b6001600160c01b031916606886015260c01b6001600160c01b031916607085015260f81b6078840152607983015280516020819201609984015e81018460e01b7fffffffff0000000000000000000000000000000000000000000000000000000016609982015203609901601b1981018252600401612a06908261122a565b519020805f52600460205260405f205415612a2a575060010163ffffffff16612916565b90509d979b9199929a949d9c909698939c808452805f52600460205260405f20918451835560208501516001840155612ae8600284016001600160401b0380604089015116166001600160401b031982541617815560608701516fffffffffffffffff0000000000000000196fffffffffffffffff000000000000000083549260401b1691161781556001600160401b0360808801511667ffffffffffffffff60801b1967ffffffffffffffff60801b83549260801b169116179055565b60a085015160038401556001600160a01b0360c0860151166001600160a01b0360048501911673ffffffffffffffffffffffffffffffffffffffff19825416179055600583016001600160a01b038060e0880151161673ffffffffffffffffffffffffffffffffffffffff1982541617815561010086015115157fffffffffffffffffffffff00ffffffffffffffffffffffffffffffffffffffff60ff60a01b83549260a01b1691161790556101208501519283516001600160401b0381116111a9578894612bba600684015461139d565b601f8111612d0f575b50602090601f8311600114612ca157600692915f9183612c96575b50508160011b915f199060031b1c1916179101555b8d8b8b606084015180612c6b575b508660206001600160a01b03959487946125f0848660019e611cf583612c269a611358565b5251166040519182527f8bf46bf4cfd674fa735a3d63ec1c9ad4153f033c290341f3a588b75685141b3560206001600160a01b03881693a40193949a92909192612834565b92505050612c869193505f52600460205260405f2054151590565b15611dae5785918d8b8b5f612c01565b015190505f80612bde565b90600684015f52805f20915f5b601f1985168110612cf45750918391600193600695601f19811610612cdc575b505050811b01910155612bf3565b01515f1960f88460031b161c191690555f8080612cce565b8183015184558c985060019093019260209283019201612cae565b90919293949550600684015f5260205f20601f840160051c810160208510612d60575b908b979695949392915b601f830160051c82018110612d52575050612bc3565b5f81558c9850600101612d3c565b5080612d32565b5060408d0151151561288d565b90506001600160401b03421610155f61287c565b612d9d9192503d805f833e611deb818361122a565b905f612811565b90612dae90611712565b905f8151915f5b838110612dc3575050505090565b612dcd8183611358565b5180515f915b818310612de557505050600101612db5565b90919460018091612df68885611358565b51612e01828c611358565b520195019190612dd3565b90815f5260056020526001600160401b0360405f205416612e6f576001600160401b0390825f52600560205260405f20828216831982541617905516907f5aafceeb1c7ad58e4a84898bdee37c02c0fc46e7d24e6b60e8209449f183459f5f80a3565b7f2e267946000000000000000000000000000000000000000000000000000000005f5260045ffd5b805f917a184f03e93ff9f4daa797ed6e38ed64bf6a1f010000000000000000821015612ff3575b806d04ee2d6d415b85acef8100000000600a921015612fd8575b662386f26fc10000811015612fc4575b6305f5e100811015612fb3575b612710811015612fa4575b6064811015612f96575b1015612f8b575b600a60216001840193612f2385611456565b94612f31604051968761122a565b808652612f40601f1991611456565b013660208701378401015b5f1901917f30313233343536373839616263646566000000000000000000000000000000008282061a8353048015612f8657600a9091612f4b565b505090565b600190910190612f11565b606460029104930192612f0a565b61271060049104930192612f00565b6305f5e10060089104930192612ef5565b662386f26fc1000060109104930192612ee8565b6d04ee2d6d415b85acef810000000060209104930192612ed8565b50604091507a184f03e93ff9f4daa797ed6e38ed64bf6a1f0100000000000000008104612ebe565b6001600160a01b037f00000000000000000000000000000000000000000000000000000000000000001630148061310e575b15613076577f000000000000000000000000000000000000000000000000000000000000000090565b60405160208101907f8b73c3c69bb8fe3d512ecc4cf759cc79239f7b179b0ffacaa9a75d522b39400f82527f000000000000000000000000000000000000000000000000000000000000000060408201527f000000000000000000000000000000000000000000000000000000000000000060608201524660808201523060a082015260a0815261310860c08261122a565b51902090565b507f0000000000000000000000000000000000000000000000000000000000000000461461304d565b60429061314261301b565b90604051917f19010000000000000000000000000000000000000000000000000000000000008352600283015260228201522090565b9190823b6131c7579061318a916137c3565b5060048110156131b3571591826131a057505090565b6001600160a01b03919250811691161490565b634e487b7160e01b5f52602160045260245ffd5b915f926131fd61320b85946040519283916020830195630b135d3f60e11b8752602484015260406044840152606483019061100e565b03601f19810183528261122a565b51915afa613217613794565b81613245575b81613226575090565b90506020818051810103126101b35760200151630b135d3f60e11b1490565b90506020815110159061321d565b929160408401936040815282518095526060810194602060608260051b8401019401905f5b818110613295575050506111699394506020818403910152611095565b9091946020806132b1600193605f19888203018c5289516110c8565b97019801910196919096613278565b939190805194600186146134e757602001516001600160a01b03169081156134a8575f95604051636723702360e11b8152602081600481875afa908115611dfa575f9161346e575b50905f915b8183106133e0575050509160209161335593876040518096819582947f88e5b2d900000000000000000000000000000000000000000000000000000000845260048401613253565b03925af1908115611dfa575f916133a6575b501561337e57613375575090565b61116990613a35565b7fbf2f3a8b000000000000000000000000000000000000000000000000000000005f5260045ffd5b90506020813d6020116133d8575b816133c16020938361122a565b810103126101b3576133d290611a27565b5f613367565b3d91506133b4565b909197966133ee8987611358565b51801561346357821561343b578181116134135780600192039801985b01919061330d565b7f11011294000000000000000000000000000000000000000000000000000000005f5260045ffd5b7f1574f9f3000000000000000000000000000000000000000000000000000000005f5260045ffd5b50969760019061340b565b90506020813d6020116134a0575b816134896020938361122a565b810103126101b35761349a90611a27565b5f613308565b3d915061347c565b50505f939192935b8281106134d0575050506134c357505f90565b6134cc90613a35565b5f90565b6134da8183611358565b5161343b576001016134b0565b906111699550916135066134ff60019496959661134b565b519161134b565b51916137fd565b939190805194600186146136ce57602001516001600160a01b031690811561369c575f95604051636723702360e11b8152602081600481875afa908115611dfa575f91613662575b50905f915b81831061362457505050916020916135a293876040518096819582947f91db0b7e00000000000000000000000000000000000000000000000000000000845260048401613253565b03925af1908115611dfa575f916135ea575b50156135c257613375575090565b7fe8bee839000000000000000000000000000000000000000000000000000000005f5260045ffd5b90506020813d60201161361c575b816136056020938361122a565b810103126101b35761361690611a27565b5f6135b4565b3d91506135f8565b909197966136328987611358565b51801561365757821561343b578181116134135780600192039801985b01919061355a565b50969760019061364f565b90506020813d602011613694575b8161367d6020938361122a565b810103126101b35761368e90611a27565b5f613555565b3d9150613670565b50505f939192935b8281106136b7575050506134c357505f90565b6136c18183611358565b5161343b576001016136a4565b906111699550916135066134ff5f9496959661134b565b60ff81146137445760ff811690601f821161371c576040519161370960408461122a565b6020808452838101919036833783525290565b7fb3512b0c000000000000000000000000000000000000000000000000000000005f5260045ffd5b5060405161116981613756815f6113d5565b038261122a565b60ff81146137815760ff811690601f821161371c576040519161370960408461122a565b50604051611169816137568160016113d5565b3d156137be573d906137a582611456565b916137b3604051938461122a565b82523d5f602084013e565b606090565b81519190604183036137f3576137ec9250602082015190606060408401519301515f1a90613ac3565b9192909190565b50505f9160029190565b6020015191949290916001600160a01b0316908115613a235790859291836139a6575b6020929190156138ed5761386a916040519485809481937fe49617e100000000000000000000000000000000000000000000000000000000835287600484015260248301906110c8565b03925af1908115611dfa575f916138b3575b501561388b575b613375575090565b7fccf3bb27000000000000000000000000000000000000000000000000000000005f5260045ffd5b90506020813d6020116138e5575b816138ce6020938361122a565b810103126101b3576138df90611a27565b5f61387c565b3d91506138c1565b61392d916040519485809481937fe60c350500000000000000000000000000000000000000000000000000000000835287600484015260248301906110c8565b03925af1908115611dfa575f9161396c575b50613883577fbd8ba84d000000000000000000000000000000000000000000000000000000005f5260045ffd5b90506020813d60201161399e575b816139876020938361122a565b810103126101b35761399890611a27565b5f61393f565b3d915061397a565b9491909250604051636723702360e11b8152602081600481875afa908115611dfa575f916139e9575b501561343b57818611613413579085900393859290613820565b90506020813d602011613a1b575b81613a046020938361122a565b810103126101b357613a1590611a27565b5f6139cf565b3d91506139f7565b505050909161343b576134c357505f90565b80613a3d5750565b804710613a94575f80808093335af1613a54613794565b9015613a5d5750565b805115613a6c57602081519101fd5b7fd6bda275000000000000000000000000000000000000000000000000000000005f5260045ffd5b477fcf479181000000000000000000000000000000000000000000000000000000005f5260045260245260445ffd5b91907f7fffffffffffffffffffffffffffffff5d576e7357a4501ddfe92f46681b20a08411613b3a579160209360809260ff5f9560405194855216868401526040830152606082015282805260015afa15611dfa575f516001600160a01b03811615613b3057905f905f90565b505f906001905f90565b5050505f916003919056fea2646970667358221220c18b6bc91d5de64aafe09e4fa3e5554f455d4b9253fc2b649ce46275b4c0ed8d64736f6c634300081c0033","linkReferences":{}},"methodIdentifiers":{"attest((bytes32,(address,uint64,bool,bytes32,bytes,uint256)))":"f17325e7","attestByDelegation((bytes32,(address,uint64,bool,bytes32,bytes,uint256),(uint8,bytes32,bytes32),address,uint64))":"3c042715","eip712Domain()":"84b0196e","getAttestTypeHash()":"12b11a17","getAttestation(bytes32)":"a3112a64","getDomainSeparator()":"ed24911d","getName()":"17d7de7c","getNonce(address)":"2d0335ab","getRevokeOffchain(address,bytes32)":"b469318d","getRevokeTypeHash()":"b83010d3","getSchemaRegistry()":"f10b5cc8","getTimestamp(bytes32)":"d45c4435","increaseNonce(uint256)":"79f7573a","isAttestationValid(bytes32)":"e30bb563","multiAttest((bytes32,(address,uint64,bool,bytes32,bytes,uint256)[])[])":"44adc90e","multiAttestByDelegation((bytes32,(address,uint64,bool,bytes32,bytes,uint256)[],(uint8,bytes32,bytes32)[],address,uint64)[])":"95411525","multiRevoke((bytes32,(bytes32,uint256)[])[])":"4cb7e9e5","multiRevokeByDelegation((bytes32,(bytes32,uint256)[],(uint8,bytes32,bytes32)[],address,uint64)[])":"0eabf660","multiRevokeOffchain(bytes32[])":"13893f61","multiTimestamp(bytes32[])":"e71ff365","revoke((bytes32,(bytes32,uint256)))":"46926267","revokeByDelegation((bytes32,(bytes32,uint256),(uint8,bytes32,bytes32),address,uint64))":"a6d4dbc7","revokeOffchain(bytes32)":"cf190f34","timestamp(bytes32)":"4d003070","version()":"54fd4d50"},"id":6}