{"abi":[{"type":"function","name":"EscrowCore_init","inputs":[{"name":"seller","type":"address","internalType":"address"},{"name":"paymentToken","type":"address","internalType":"address"},{"name":"price","type":"uint256","internalType":"uint256"},{"name":"depositAmount","type":"uint256","internalType":"uint256"},{"name":"inspectionPeriod","type":"uint256","internalType":"uint256"},{"name":"metadataURI","type":"string","internalType":"string"}],"outputs":[],"stateMutability":"nonpayable"},{"type":"function","name":"acceptOffer","inputs":[{"name":"buyer","type":"address","internalType":"address"}],"outputs":[],"stateMutability":"nonpayable"},{"type":"function","name":"cancel","inputs":[],"outputs":[],"stateMutability":"nonpayable"},{"type":"function","name":"depositFunds","inputs":[{"name":"","type":"uint256","internalType":"uint256"}],"outputs":[],"stateMutability":"pure"},{"type":"function","name":"finalizeDeal","inputs":[],"outputs":[],"stateMutability":"pure"},{"type":"function","name":"getDetails","inputs":[],"outputs":[{"name":"info","type":"tuple","internalType":"struct EscrowStorage.EscrowInfo","components":[{"name":"seller","type":"address","internalType":"address"},{"name":"buyer","type":"address","internalType":"address"},{"name":"arbiter","type":"address","internalType":"address"},{"name":"state","type":"uint8","internalType":"enum EscrowStorage.EscrowState"},{"name":"fundsInEscrow","type":"uint256","internalType":"uint256"},{"name":"escrowStartTime","type":"uint256","internalType":"uint256"},{"name":"initialized","type":"bool","internalType":"bool"}]},{"name":"terms","type":"tuple","internalType":"struct EscrowStorage.EscrowTerms","components":[{"name":"price","type":"uint256","internalType":"uint256"},{"name":"paymentToken","type":"address","internalType":"address"},{"name":"depositAmount","type":"uint256","internalType":"uint256"},{"name":"inspectionPeriod","type":"uint256","internalType":"uint256"}]},{"name":"metadata","type":"tuple","internalType":"struct EscrowStorage.AssetMetadata","components":[{"name":"uri","type":"string","internalType":"string"}]}],"stateMutability":"view"},{"type":"function","name":"list","inputs":[],"outputs":[],"stateMutability":"nonpayable"},{"type":"function","name":"packedSelectors","inputs":[],"outputs":[{"name":"","type":"bytes","internalType":"bytes"}],"stateMutability":"pure"},{"type":"function","name":"raiseDispute","inputs":[],"outputs":[],"stateMutability":"nonpayable"},{"type":"function","name":"resolveDispute","inputs":[{"name":"","type":"bool","internalType":"bool"}],"outputs":[],"stateMutability":"pure"},{"type":"event","name":"DisputeRaised","inputs":[{"name":"initiator","type":"address","indexed":true,"internalType":"address"}],"anonymous":false},{"type":"event","name":"DisputeResolved","inputs":[{"name":"favorBuyer","type":"bool","indexed":false,"internalType":"bool"}],"anonymous":false},{"type":"event","name":"EscrowCancelled","inputs":[],"anonymous":false},{"type":"event","name":"EscrowCompleted","inputs":[{"name":"seller","type":"address","indexed":true,"internalType":"address"},{"name":"amount","type":"uint256","indexed":false,"internalType":"uint256"}],"anonymous":false},{"type":"event","name":"EscrowFunded","inputs":[{"name":"buyer","type":"address","indexed":true,"internalType":"address"},{"name":"amount","type":"uint256","indexed":false,"internalType":"uint256"}],"anonymous":false},{"type":"event","name":"EscrowInitialized","inputs":[{"name":"seller","type":"address","indexed":true,"internalType":"address"},{"name":"price","type":"uint256","indexed":false,"internalType":"uint256"}],"anonymous":false},{"type":"event","name":"EscrowListed","inputs":[{"name":"price","type":"uint256","indexed":false,"internalType":"uint256"}],"anonymous":false},{"type":"event","name":"OfferAccepted","inputs":[{"name":"buyer","type":"address","indexed":true,"internalType":"address"}],"anonymous":false},{"type":"event","name":"UserRoleUpdated","inputs":[{"name":"user","type":"address","indexed":true,"internalType":"address"},{"name":"role","type":"uint8","indexed":true,"internalType":"uint8"},{"name":"enabled","type":"bool","indexed":false,"internalType":"bool"}],"anonymous":false},{"type":"error","name":"Escrow_AlreadyInitialized","inputs":[]},{"type":"error","name":"Escrow_FundsLocked","inputs":[]},{"type":"error","name":"Escrow_InvalidAmount","inputs":[]},{"type":"error","name":"Escrow_InvalidState","inputs":[]},{"type":"error","name":"Escrow_NoFundsToRelease","inputs":[]},{"type":"error","name":"Escrow_NotArbiter","inputs":[]},{"type":"error","name":"Escrow_NotBuyer","inputs":[]},{"type":"error","name":"Escrow_NotSeller","inputs":[]},{"type":"error","name":"ReentrancyGuard_ReentrantCall","inputs":[]}],"bytecode":{"object":"0x60808060405234601557610e3c908161001a8239f35b5f80fdfe60806040526004361015610011575f80fd5b5f3560e01c80630f560cd714610bc35780633b76594d14610bad5780633e62267c14610af85780635d943b64146106e55780636daa2d441461061157806389e1e82a146105f1578063b6261d0a14610503578063e337cdff146104ee578063ea8a1af0146104385763fbbf93a014610087575f80fd5b34610434575f366003190112610434575f60c06040516100a681610cbc565b8281528260208201528260408201528260608201528260808201528260a082015201525f60606040516100d881610cd8565b828152826020820152826040820152015260606040516100f781610cf4565b5260405161010481610cbc565b5f516020610da75f395f51905f52546001600160a01b0390811682527f66dca96face871434ff19b095d0b356e2d2ac41eb67928f77a486e6f4823554d548116602083019081525f516020610dc75f395f51905f5254918216604084019081529160608401919060a01c60ff1660078110156103965782527f66dca96face871434ff19b095d0b356e2d2ac41eb67928f77a486e6f4823554f5492608085019384527f66dca96face871434ff19b095d0b356e2d2ac41eb67928f77a486e6f48235550549260a0860193845260ff7f66dca96face871434ff19b095d0b356e2d2ac41eb67928f77a486e6f48235551541660c08701901515815260405161020a81610cd8565b7f66dca96face871434ff19b095d0b356e2d2ac41eb67928f77a486e6f4823555254815260018060a01b037f66dca96face871434ff19b095d0b356e2d2ac41eb67928f77a486e6f48235553541691602082019283527f66dca96face871434ff19b095d0b356e2d2ac41eb67928f77a486e6f482355545493604083019485527f66dca96face871434ff19b095d0b356e2d2ac41eb67928f77a486e6f48235555549560608401968752604051976102c189610cf4565b6040515f516020610de75f395f51905f5254815f6102de83610d6e565b808352926001811690811561041557506001146103aa575b61030292500382610d10565b8952604080519c516001600160a01b039081168e529151821660208e0152915116908b0152519660078810156103965789986103929860608b01525160808a01525160a089015251151560c08801525160e087015260018060a01b0390511661010086015251610120850152516101408401526101806101608401525160206101808401526101a0830190610c82565b0390f35b634e487b7160e01b5f52602160045260245ffd5b505f516020610de75f395f51905f525f90815290917fa50d4104989546c7583c63ae1951dccac95eaab089431f1334d07b4ccd29b6925b8183106103f9575050906020610302928201016102f6565b60209193508060019154838588010152019101909183926103e1565b6020925061030294915060ff191682840152151560051b8201016102f6565b5f80fd5b34610434575f366003190112610434575f516020610da75f395f51905f52546001600160a01b031633036104df5760ff5f516020610dc75f395f51905f525460a01c166007811015610396576003146104d0575f516020610dc75f395f51905f52805460ff60a01b1916600560a01b1790557f6e3be9294e58d10b9c8053cfd5e09871b67e442fe394d6b0870d336b9df984a95f80a1005b63570e9ed160e11b5f5260045ffd5b6302f9514360e61b5f5260045ffd5b34610434575f36600319011215610d32575f80fd5b346104345760203660031901126104345761051c610ca6565b5f516020610da75f395f51905f52546001600160a01b031633036104df5760ff5f516020610dc75f395f51905f525460a01c166007811015610396576001036105e2577f66dca96face871434ff19b095d0b356e2d2ac41eb67928f77a486e6f4823554d80546001600160a01b0319166001600160a01b039290921691821790555f516020610dc75f395f51905f52805460ff60a01b1916600160a11b1790557fa13d0dc21c62e74caff064bba409ce28da1203587604c27c24db78f80e5fcaaf5f80a2005b63d74eb97160e01b5f5260045ffd5b346104345760203660031901126104345760043580151514610d32575f80fd5b34610434575f3660031901126104345760ff5f516020610dc75f395f51905f525460a01c166007811015610396576003036105e2575f516020610da75f395f51905f52546001600160a01b0316331415806106b1575b6104df575f516020610dc75f395f51905f52805460ff60a01b1916600360a11b179055337f0b3cd97b16a08a5c77357c276d248827ad32dfd56060f7c55d6255537ba3d9625f80a2005b507f66dca96face871434ff19b095d0b356e2d2ac41eb67928f77a486e6f4823554d546001600160a01b0316331415610667565b346104345760c0366003190112610434576106fe610ca6565b6024356001600160a01b0381169190829003610434576044359060a4359067ffffffffffffffff8211610434573660238301121561043457816004013567ffffffffffffffff8111610ad55760405192610762601f8301601f191660200185610d10565b818452366024838301011161043457815f92602460209301838701378401015260ff7f66dca96face871434ff19b095d0b356e2d2ac41eb67928f77a486e6f482355515416610ae9575f516020610da75f395f51905f5280546001600160a01b03929092166001600160a01b031992831681179091555f516020610dc75f395f51905f5280546001600160a81b0319163360ff60a01b19161790557f66dca96face871434ff19b095d0b356e2d2ac41eb67928f77a486e6f48235551805460ff191660011790557f66dca96face871434ff19b095d0b356e2d2ac41eb67928f77a486e6f4823555380549092169490941790557f66dca96face871434ff19b095d0b356e2d2ac41eb67928f77a486e6f482355528290556064357f66dca96face871434ff19b095d0b356e2d2ac41eb67928f77a486e6f48235554556084357f66dca96face871434ff19b095d0b356e2d2ac41eb67928f77a486e6f482355555580519067ffffffffffffffff8211610ad5576108ec5f516020610de75f395f51905f5254610d6e565b601f8111610a66575b50602090601f83116001146109c55791807fabc7e3c0e6e2a98fb46176d0b2f7c4b8f232b818356a5eafbc1608bdaeaddd1c94926020945f926109ba575b50508160011b915f199060031b1c1916175f516020610de75f395f51905f52555b835f527fce1c17acaaa67de66e928cd49c8f658667a825223bee6fda99a14908362bcdaa825260405f20600181541790555f847f4c9bdd0c8e073eb5eda2250b18d8e5121ff27b62064fbeeeed4869bb99bc5bf28460405160018152a3604051908152a2005b015190508680610933565b90601f198316915f516020610de75f395f51905f525f52815f20925f5b818110610a4e57509260019285926020967fabc7e3c0e6e2a98fb46176d0b2f7c4b8f232b818356a5eafbc1608bdaeaddd1c989610610a36575b505050811b015f516020610de75f395f51905f5255610954565b01515f1960f88460031b161c19169055868080610a1c565b929360206001819287860151815501950193016109e2565b5f516020610de75f395f51905f525f527fa50d4104989546c7583c63ae1951dccac95eaab089431f1334d07b4ccd29b692601f840160051c81019160208510610acb575b601f0160051c01905b818110610ac057506108f5565b5f8155600101610ab3565b9091508190610aaa565b634e487b7160e01b5f52604160045260245ffd5b6313a95e5b60e11b5f5260045ffd5b34610434575f36600319011261043457604080516317650ed960e21b6020820152635b130e8560e11b602480830191909152630ea8a1af60e41b6028830152633b76594d60e01b602c83015263e337cdff60e01b60308301526307ddfc9d60e51b6034830152630f560cd760e01b6038830152631b6a8b5160e21b603c8301526344f0f41560e11b9282019290925290815261039290610b99604482610d10565b604051918291602083526020830190610c82565b3461043457602036600319011215610d32575f80fd5b34610434575f366003190112610434575f516020610da75f395f51905f52546001600160a01b031633036104df5760ff5f516020610dc75f395f51905f525460a01c166007811015610396576105e2575f516020610dc75f395f51905f52805460ff60a01b1916600160a01b1790557f66dca96face871434ff19b095d0b356e2d2ac41eb67928f77a486e6f48235552546040519081527fe3768fe9b71b60feee457c291595396b5bca53f7198f3425f659e19e6a11ea1290602090a1005b805180835260209291819084018484015e5f828201840152601f01601f1916010190565b600435906001600160a01b038216820361043457565b60e0810190811067ffffffffffffffff821117610ad557604052565b6080810190811067ffffffffffffffff821117610ad557604052565b6020810190811067ffffffffffffffff821117610ad557604052565b90601f8019910116810190811067ffffffffffffffff821117610ad557604052565b60405162461bcd60e51b8152602060048201526014602482015273155cd948115cd8dc9bddd19d5b991cd19858d95d60621b6044820152606490fd5b90600182811c92168015610d9c575b6020831014610d8857565b634e487b7160e01b5f52602260045260245ffd5b91607f1691610d7d56fe66dca96face871434ff19b095d0b356e2d2ac41eb67928f77a486e6f4823554c66dca96face871434ff19b095d0b356e2d2ac41eb67928f77a486e6f4823554e66dca96face871434ff19b095d0b356e2d2ac41eb67928f77a486e6f48235556a2646970667358221220269a16915e32176b47b5af7dec6a1c1659ea4df3fa755ad9cc749eceb23240cd64736f6c634300081e0033","linkReferences":{}},"methodIdentifiers":{"EscrowCore_init(address,address,uint256,uint256,uint256,string)":"5d943b64","acceptOffer(address)":"b6261d0a","cancel()":"ea8a1af0","depositFunds(uint256)":"3b76594d","finalizeDeal()":"e337cdff","getDetails()":"fbbf93a0","list()":"0f560cd7","packedSelectors()":"3e62267c","raiseDispute()":"6daa2d44","resolveDispute(bool)":"89e1e82a"},"id":147}