{"abi":[{"type":"function","name":"EscrowFactoryCore_init","inputs":[{"name":"diamondFactory","type":"address","internalType":"address"},{"name":"admin","type":"address","internalType":"address"}],"outputs":[],"stateMutability":"nonpayable"},{"type":"function","name":"createEscrow","inputs":[{"name":"facets","type":"address[]","internalType":"address[]"},{"name":"initAddress","type":"address","internalType":"address"},{"name":"initData","type":"bytes","internalType":"bytes"},{"name":"salt","type":"bytes32","internalType":"bytes32"},{"name":"paymentToken","type":"address","internalType":"address"},{"name":"terms","type":"tuple","internalType":"struct EscrowStorage.EscrowTerms","components":[{"name":"price","type":"uint256","internalType":"uint256"},{"name":"paymentToken","type":"address","internalType":"address"},{"name":"depositAmount","type":"uint256","internalType":"uint256"},{"name":"inspectionPeriod","type":"uint256","internalType":"uint256"}]}],"outputs":[{"name":"","type":"address","internalType":"address"}],"stateMutability":"payable"},{"type":"function","name":"getDiamondFactory","inputs":[],"outputs":[{"name":"","type":"address","internalType":"address"}],"stateMutability":"view"},{"type":"function","name":"getEscrowCount","inputs":[],"outputs":[{"name":"","type":"uint256","internalType":"uint256"}],"stateMutability":"view"},{"type":"function","name":"getEscrows","inputs":[],"outputs":[{"name":"","type":"address[]","internalType":"address[]"}],"stateMutability":"view"},{"type":"function","name":"isInitialized","inputs":[],"outputs":[{"name":"","type":"bool","internalType":"bool"}],"stateMutability":"view"},{"type":"function","name":"packedSelectors","inputs":[],"outputs":[{"name":"","type":"bytes","internalType":"bytes"}],"stateMutability":"pure"},{"type":"function","name":"predictEscrowAddress","inputs":[{"name":"deployer","type":"address","internalType":"address"},{"name":"facets","type":"address[]","internalType":"address[]"},{"name":"initAddress","type":"address","internalType":"address"},{"name":"initData","type":"bytes","internalType":"bytes"},{"name":"salt","type":"bytes32","internalType":"bytes32"}],"outputs":[{"name":"","type":"address","internalType":"address"}],"stateMutability":"view"},{"type":"function","name":"setDiamondFactory","inputs":[{"name":"newFactory","type":"address","internalType":"address"}],"outputs":[],"stateMutability":"nonpayable"},{"type":"event","name":"EscrowCreated","inputs":[{"name":"escrow","type":"address","indexed":true,"internalType":"address"},{"name":"seller","type":"address","indexed":true,"internalType":"address"},{"name":"price","type":"uint256","indexed":false,"internalType":"uint256"}],"anonymous":false},{"type":"event","name":"EscrowFactoryInitialized","inputs":[{"name":"diamondFactory","type":"address","indexed":false,"internalType":"address"},{"name":"admin","type":"address","indexed":false,"internalType":"address"}],"anonymous":false},{"type":"error","name":"AccessControl_CallerIsNotAuthorized","inputs":[{"name":"caller","type":"address","internalType":"address"},{"name":"functionSig","type":"bytes4","internalType":"bytes4"}]},{"type":"error","name":"ReentrancyGuard_ReentrantCall","inputs":[]}],"bytecode":{"object":"0x6080806040523460155761102a908161001a8239f35b5f80fdfe60806040526004361015610011575f80fd5b5f3560e01c806316b15135146100a45780632d0471811461009f578063392e53cd1461009a5780633e62267c146100955780636afcb6da146100905780637d93c5981461008b5780637ee3b5cd14610086578063867a3880146100815763bf2279621461007c575f80fd5b6106bd565b610624565b6103c5565b610391565b6102fc565b61021a565b6101b1565b6100f4565b346100df575f3660031901126100df577f6c243f4f73343206ad9228ef319d0f262405518097fc919cd7148565cbfbf2f45460805260206080f35b5f80fd5b6001600160a01b038116036100df57565b346100df5760203660031901126100df57600435610111816100e3565b5f356001600160e01b0319166101278133610c73565b1561019b57506001600160a01b038116156101475761014590610741565b005b60405162461bcd60e51b815260206004820152602660248201527f457363726f77466163746f72793a20496e76616c696420666163746f7279206160448201526564647265737360d01b6064820152608490fd5b631d64bc3360e11b5f523360045260245260445ffd5b346100df575f3660031901126100df57602060ff5f516020610fd55f395f51905f525460a01c166040519015158152f35b805180835260209291819084018484015e5f828201840152601f01601f1916010190565b9060206102179281815201906101e2565b90565b346100df575f3660031901126100df5760408051637ee3b5cd60e01b602080830191909152635f913cb160e11b602483015263010cf47160e71b602883015263357e5b6d60e11b602c8301526316b1513560e01b603083015263392e53cd60e01b6034830152630fb278b360e31b6038830152632d04718160e01b603c83015281526102b6916102aa908261078f565b60405191829182610206565b0390f35b60206040818301928281528451809452019201905f5b8181106102dd5750505090565b82516001600160a01b03168452602093840193909201916001016102d0565b346100df575f3660031901126100df576040515f516020610fb55f395f51905f5280548083525f91825260208301917f0274a88cdf18c9cdddae43e3dfedd7ac172a5b041994c0480ea56909347aab6391905b818110610372576102b6856103668187038261078f565b604051918291826102ba565b82546001600160a01b031684526020909301926001928301920161034f565b346100df575f3660031901126100df575f516020610fd55f395f51905f52546040516001600160a01b039091168152602090f35b346100df5760403660031901126100df576004356103e2816100e3565b6024356103ee816100e3565b5f516020610fd55f395f51905f525460a01c60ff16610575576001600160a01b03821615610522576001600160a01b038116156104dd5761042e82610741565b5f516020610fd55f395f51905f52805460ff60a01b1916600160a01b17905561045760206107b6565b637ee3b5cd60e01b8152916001925f5b8481106104ac57604080516001600160a01b038581168252861660208201527f479a72c47e05fc7a32f157750a6f016406751490fba85cc17ba705eb1dd78aa59190a1005b806104d16104cc6104be8894866107da565b516001600160e01b03191690565b6107f0565b82815417905501610467565b60405162461bcd60e51b815260206004820152601c60248201527f457363726f77466163746f72793a20496e76616c69642041646d696e000000006044820152606490fd5b60405162461bcd60e51b815260206004820152602560248201527f457363726f77466163746f72793a20496e76616c6964204469616d6f6e64466160448201526463746f727960d81b6064820152608490fd5b60405162461bcd60e51b815260206004820152602260248201527f457363726f77466163746f72793a20416c726561647920696e697469616c697a604482015261195960f21b6064820152608490fd5b9181601f840112156100df5782359167ffffffffffffffff83116100df576020808501948460051b0101116100df57565b9181601f840112156100df5782359167ffffffffffffffff83116100df57602083818601950101116100df57565b346100df5760a03660031901126100df57600435610641816100e3565b60243567ffffffffffffffff81116100df576106619036906004016105c5565b916044359261066f846100e3565b6064359267ffffffffffffffff84116100df576102b6946106976106a39536906004016105f6565b939092608435956108a9565b6040516001600160a01b0390911681529081906020820190565b6101203660031901126100df5760043567ffffffffffffffff81116100df576106ea9036906004016105c5565b906024356106f7816100e3565b60443567ffffffffffffffff81116100df576107179036906004016105f6565b6064359160843593610728856100e3565b60803660a31901126100df576102b6966106a39661096e565b60018060a01b03166bffffffffffffffffffffffff60a01b5f516020610fd55f395f51905f525416175f516020610fd55f395f51905f5255565b634e487b7160e01b5f52604160045260245ffd5b90601f8019910116810190811067ffffffffffffffff8211176107b157604052565b61077b565b906107c4604051928361078f565b565b634e487b7160e01b5f52603260045260245ffd5b9060018110156107eb5760051b0190565b6107c6565b63ffffffff60e01b165f527fce1c17acaaa67de66e928cd49c8f658667a825223bee6fda99a14908362bcdab60205260405f2090565b908160209103126100df5751610217816100e3565b916020908281520191905f5b8181106108545750505090565b9091926020806001928635610868816100e3565b848060a01b031681520194019101919091610847565b908060209392818452848401375f828201840152601f01601f1916010190565b6040513d5f823e3d90fd5b5f516020610fd55f395f51905f525460405163d5cd29fd60e01b81526001600160a01b03928316600482015260a06024820152976020978997939092169587958695929461092594929390916109049160a48901919061083b565b6001600160a01b03909316604487015285830360031901606487015261087e565b90608483015203915afa908115610969575f91610940575090565b610217915060203d602011610962575b61095a818361078f565b810190610826565b503d610950565b61089e565b909193929560ff5f516020610fd55f395f51905f525460a01c1615610b1c576020956109f1916001600160a01b038116610b04575b505f516020610fd55f395f51905f52546109d3906109c7906001600160a01b031681565b6001600160a01b031690565b9460405198899788968796632435834760e21b885260048801610b85565b039134905af1908115610969575f91610ae5575b50610a0f81610bc5565b6001600160a01b0381165f9081527f6c243f4f73343206ad9228ef319d0f262405518097fc919cd7148565cbfbf2f360205260409020610a5690805460ff19166001179055565b610aa7610a837f6c243f4f73343206ad9228ef319d0f262405518097fc919cd7148565cbfbf2f454610c51565b7f6c243f4f73343206ad9228ef319d0f262405518097fc919cd7148565cbfbf2f455565b60405160a435815233906001600160a01b038316907f78da7430b15648a5954de6bf3f6dc65a9eb64c292537d89a2a9989fdd367992390602090a390565b610afe915060203d6020116109625761095a818361078f565b5f610a05565b610b1690610b10610b61565b90610d00565b5f6109a3565b60405162461bcd60e51b815260206004820152601e60248201527f457363726f77466163746f72793a204e6f7420696e697469616c697a656400006044820152606490fd5b60405190610b7060408361078f565b6006825265457363726f7760d01b6020830152565b9695949093610ba3606095610bc0959460808b5260808b019161083b565b6001600160a01b039093166020890152878303604089015261087e565b930152565b5f516020610fb55f395f51905f5254680100000000000000008110156107b15760018101805f516020610fb55f395f51905f52558110156107eb575f516020610fb55f395f51905f525f527f0274a88cdf18c9cdddae43e3dfedd7ac172a5b041994c0480ea56909347aab630180546001600160a01b0319166001600160a01b03909216919091179055565b5f198114610c5f5760010190565b634e487b7160e01b5f52601160045260245ffd5b81610c7d91610ddb565b610cbb577f511915e52b7f9e690b9fdc662acaf5600fd3722c87eb951d3abd26e93a784dca5c9060ff8216610cb25750505f90565b61021791610f89565b50600190565b3d15610cfb573d9067ffffffffffffffff82116107b15760405191610cf0601f8201601f19166020018461078f565b82523d5f602084013e565b606090565b5f9190610d3e610d4c849360405192839160208301956393def2af60e01b875260018060a01b031660248401526040604484015260648301906101e2565b03601f19810183528261078f565b5190305af4610d59610cc1565b9015610d625750565b805115610d7157805190602001fd5b60405162461bcd60e51b815260206004820152601560248201527418dbdb1b1958dd14185e5b595b9d0819985a5b1959605a1b6044820152606490fd5b91908260409103126100df57815180151581036100df5760209092015163ffffffff811681036100df5790565b7fce1c17acaaa67de66e928cd49c8f658667a825223bee6fda99a14908362bcdac546001600160a01b031680610ee9575b506001600160a01b0381165f9081527fce1c17acaaa67de66e928cd49c8f658667a825223bee6fda99a14908362bcdaa60205260409020610e4e9054926107f0565b54908115610ea5576001600160a01b03165f9081527fce1c17acaaa67de66e928cd49c8f658667a825223bee6fda99a14908362bcdaa60205260409020546001161515918215610e9d57505090565b161515919050565b6001600160a01b03165f9081527fce1c17acaaa67de66e928cd49c8f658667a825223bee6fda99a14908362bcdaa6020526040902054600116151591506102179050565b610efb906001600160a01b03166109c7565b6040805163b700961360e01b81526001600160a01b03841660048201523060248201526001600160e01b03198516604482015291829060649082905afa5f9181610f57575b5015610e0c57610f50575f610e0c565b5050600190565b610f7a91925060403d604011610f82575b610f72818361078f565b810190610dae565b50905f610f40565b503d610f68565b60ff16908115610f5057610f9c906107f0565b54908115610fae576001901b16151590565b50505f9056fe6c243f4f73343206ad9228ef319d0f262405518097fc919cd7148565cbfbf2f26c243f4f73343206ad9228ef319d0f262405518097fc919cd7148565cbfbf2f1a2646970667358221220efec9aca6f4666a1b35690c8267097b2c322e7d9cff52b7fc820738054714e6364736f6c634300081e0033","linkReferences":{}},"methodIdentifiers":{"EscrowFactoryCore_init(address,address)":"7ee3b5cd","createEscrow(address[],address,bytes,bytes32,address,(uint256,address,uint256,uint256))":"bf227962","getDiamondFactory()":"7d93c598","getEscrowCount()":"16b15135","getEscrows()":"6afcb6da","isInitialized()":"392e53cd","packedSelectors()":"3e62267c","predictEscrowAddress(address,address[],address,bytes,bytes32)":"867a3880","setDiamondFactory(address)":"2d047181"},"id":149}