{"abi":[{"type":"function","name":"FactoryPayment_init","inputs":[{"name":"feeRecipient","type":"address","internalType":"address"}],"outputs":[],"stateMutability":"nonpayable"},{"type":"function","name":"configurePaymentToken","inputs":[{"name":"paymentToken","type":"address","internalType":"address"},{"name":"feeAmount","type":"uint256","internalType":"uint256"},{"name":"isActive","type":"bool","internalType":"bool"}],"outputs":[],"stateMutability":"nonpayable"},{"type":"function","name":"getAcceptedTokens","inputs":[],"outputs":[{"name":"tokens","type":"address[]","internalType":"address[]"}],"stateMutability":"view"},{"type":"function","name":"getFeeRecipient","inputs":[],"outputs":[{"name":"recipient","type":"address","internalType":"address"}],"stateMutability":"view"},{"type":"function","name":"getPaymentStats","inputs":[],"outputs":[{"name":"paymentsEnabled","type":"bool","internalType":"bool"},{"name":"deploymentCount","type":"uint256","internalType":"uint256"}],"stateMutability":"view"},{"type":"function","name":"getPaymentTokenConfig","inputs":[{"name":"paymentToken","type":"address","internalType":"address"}],"outputs":[{"name":"config","type":"tuple","internalType":"struct IFactoryPayment.PaymentTokenConfig","components":[{"name":"isActive","type":"bool","internalType":"bool"},{"name":"feeAmount","type":"uint256","internalType":"uint256"},{"name":"totalCollected","type":"uint256","internalType":"uint256"}]}],"stateMutability":"view"},{"type":"function","name":"isPaymentInitialized","inputs":[],"outputs":[{"name":"initialized","type":"bool","internalType":"bool"}],"stateMutability":"view"},{"type":"function","name":"setFeeRecipient","inputs":[{"name":"feeRecipient","type":"address","internalType":"address"}],"outputs":[],"stateMutability":"nonpayable"},{"type":"function","name":"setPaymentsEnabled","inputs":[{"name":"enabled","type":"bool","internalType":"bool"}],"outputs":[],"stateMutability":"nonpayable"},{"type":"event","name":"FeeRecipientUpdated","inputs":[{"name":"feeRecipient","type":"address","indexed":true,"internalType":"address"}],"anonymous":false},{"type":"event","name":"PaymentCollected","inputs":[{"name":"payer","type":"address","indexed":true,"internalType":"address"},{"name":"paymentToken","type":"address","indexed":true,"internalType":"address"},{"name":"amount","type":"uint256","indexed":false,"internalType":"uint256"},{"name":"deploymentType","type":"string","indexed":false,"internalType":"string"}],"anonymous":false},{"type":"event","name":"PaymentModuleInitialized","inputs":[{"name":"feeRecipient","type":"address","indexed":true,"internalType":"address"}],"anonymous":false},{"type":"event","name":"PaymentTokenConfigured","inputs":[{"name":"paymentToken","type":"address","indexed":true,"internalType":"address"},{"name":"feeAmount","type":"uint256","indexed":false,"internalType":"uint256"},{"name":"isActive","type":"bool","indexed":false,"internalType":"bool"}],"anonymous":false},{"type":"event","name":"PaymentsStatusChanged","inputs":[{"name":"enabled","type":"bool","indexed":false,"internalType":"bool"}],"anonymous":false},{"type":"error","name":"AccessControl_CallerIsNotAuthorized","inputs":[{"name":"caller","type":"address","internalType":"address"},{"name":"functionSig","type":"bytes4","internalType":"bytes4"}]},{"type":"error","name":"FactoryPayment_AlreadyInitialized","inputs":[]},{"type":"error","name":"FactoryPayment_InsufficientAllowance","inputs":[]},{"type":"error","name":"FactoryPayment_InvalidFeeRecipient","inputs":[]},{"type":"error","name":"FactoryPayment_InvalidPaymentToken","inputs":[]},{"type":"error","name":"FactoryPayment_NotInitialized","inputs":[]},{"type":"error","name":"FactoryPayment_PaymentTokenNotAccepted","inputs":[]},{"type":"error","name":"FactoryPayment_TransferFailed","inputs":[]}],"bytecode":{"object":"0x6080806040523460155761085d908161001a8239f35b5f80fdfe6080806040526004361015610012575f80fd5b5f358060e01c91826315984f11146105e7575081632f757006146104ff5781634ccb20c0146104c75781638d6ec0561461042d578163b2c3e6d9146103ff578163c6a00f2514610239578163d4389ad81461017d578163e74b981b146100dc575063f6b7d31d14610081575f80fd5b346100d8575f3660031901126100d857604060ff5f5160206107e85f395f51905f525460081c167f1cdc7cbe128cc8c11e8f2c138fe66ea4623b4a9d99bef16ab15912686af3f4eb54825191151582526020820152f35b5f80fd5b346100d85760203660031901126100d8576100f5610697565b906001600160e01b03191661010a81336106fe565b1561016757506101186107bf565b6001600160a01b03811690811561015857610132906106c9565b7f7a7b5a0a132f9e0581eb8527f66eae9ee89c2a3e79d4ac7e41a1f1f4d48a7fc25f80a2005b637de34c5d60e11b5f5260045ffd5b631d64bc3360e11b5f523360045260245260445ffd5b346100d85760203660031901126100d857610196610697565b5f5160206107e85f395f51905f525460ff811661022a576001600160a01b0382169182156101585760016101dd9260ff1916175f5160206107e85f395f51905f52556106c9565b61010061ff00195f5160206107e85f395f51905f525416175f5160206107e85f395f51905f52557fd442eec8b9f2b512ec96d13fd9eb625103cf47323cf49bf675a68dabac842e185f80a2005b637a5fbb0b60e11b5f5260045ffd5b346100d85760603660031901126100d857610252610697565b9060243590604435801515918282036100d8576001600160e01b03191661027981336106fe565b1561016757506102876107bf565b6001600160a01b0384169384156103f0576001600160a01b03165f9081527f1cdc7cbe128cc8c11e8f2c138fe66ea4623b4a9d99bef16ab15912686af3f4e9602052604090209060ff8254161590816103e3575b816103db575b5061032c575b916040918160017ff063555f7bb11f1cfc7d1ddbb4d09a2bd5b68aa7203c74ba7b5faf22dda0e95f9560ff1981541660ff8516178155015582519182526020820152a2005b915f5160206108085f395f51905f525491680100000000000000008310156103c75760018301805f5160206108085f395f51905f52558310156103b3575f5160206108085f395f51905f525f527fb8f9092f82206b04c6e4d6b4bcb3cab382f2b5396514e3f383d904c55354aadf90920180546001600160a01b03191685179055916102e7565b634e487b7160e01b5f52603260045260245ffd5b634e487b7160e01b5f52604160045260245ffd5b9050856102e1565b60018301541591506102db565b63b76a099d60e01b5f5260045ffd5b346100d8575f3660031901126100d857602060ff5f5160206107e85f395f51905f5254166040519015158152f35b346100d85760203660031901126100d857600435908115158092036100d8576001600160e01b03191661046081336106fe565b15610167577f2cbc8a6edddf44b1e26cac204981bb42247897a4d5f7051fceb95833cecfb6516020836104916107bf565b5f5160206107e85f395f51905f525461ff008260081b169061ff001916175f5160206107e85f395f51905f5255604051908152a1005b346100d8575f3660031901126100d8575f5160206107e85f395f51905f525460405160109190911c6001600160a01b03168152602090f35b346100d8575f3660031901126100d8576040515f5160206108085f395f51905f5280548083525f918252602083019182917fb8f9092f82206b04c6e4d6b4bcb3cab382f2b5396514e3f383d904c55354aadf915b8181106105c857505050829003601f01601f1916820167ffffffffffffffff8111838210176103c75760408181526020808352845190830181905291928392918301915f5b8181106105a6575050500390f35b82516001600160a01b0316845285945060209384019390920191600101610598565b82546001600160a01b0316845260209093019260019283019201610553565b346100d85760203660031901126100d8576106536060915f6040610609610697565b92610613816106ad565b828152826020820152015260018060a01b03165f527f1cdc7cbe128cc8c11e8f2c138fe66ea4623b4a9d99bef16ab15912686af3f4e960205260405f2090565b60ff8154169060026001820154910154906040805193610672856106ad565b1515938481526020810192835201918252604051928352516020830152516040820152f35b600435906001600160a01b03821682036100d857565b6060810190811067ffffffffffffffff8211176103c757604052565b5f5160206107e85f395f51905f52805462010000600160b01b03191660109290921b62010000600160b01b0316919091179055565b6001600160a01b03165f8181527f35edad4c931e57ec40cedc90b9e3e052832d1b49c07eb789b019aea9b39c91d960209081526040808320546001600160e01b031990951683527f35edad4c931e57ec40cedc90b9e3e052832d1b49c07eb789b019aea9b39c91da9091529020549081156107b7575f527f35edad4c931e57ec40cedc90b9e3e052832d1b49c07eb789b019aea9b39c91d9602052600160405f20541615918215926107af57505090565b161515919050565b505050600190565b60ff5f5160206107e85f395f51905f525416156107d857565b635ae3d3fb60e01b5f5260045ffdfe1cdc7cbe128cc8c11e8f2c138fe66ea4623b4a9d99bef16ab15912686af3f4e81cdc7cbe128cc8c11e8f2c138fe66ea4623b4a9d99bef16ab15912686af3f4eaa2646970667358221220c89e9cb36fd735ab0f7d135c880f7534461441f82f2bd9958ed0ff6ac31bf71a64736f6c634300081e0033","linkReferences":{}},"methodIdentifiers":{"FactoryPayment_init(address)":"d4389ad8","configurePaymentToken(address,uint256,bool)":"c6a00f25","getAcceptedTokens()":"2f757006","getFeeRecipient()":"4ccb20c0","getPaymentStats()":"f6b7d31d","getPaymentTokenConfig(address)":"15984f11","isPaymentInitialized()":"b2c3e6d9","setFeeRecipient(address)":"e74b981b","setPaymentsEnabled(bool)":"8d6ec056"},"id":46}