{"abi":[{"type":"function","name":"FactoryPayment_init","inputs":[{"name":"feeRecipient","type":"address","internalType":"address"}],"outputs":[],"stateMutability":"nonpayable"},{"type":"function","name":"collectPayment","inputs":[{"name":"paymentToken","type":"address","internalType":"address"},{"name":"deploymentType","type":"string","internalType":"string"}],"outputs":[],"stateMutability":"nonpayable"},{"type":"function","name":"configurePaymentToken","inputs":[{"name":"paymentToken","type":"address","internalType":"address"},{"name":"feeAmount","type":"uint256","internalType":"uint256"},{"name":"isActive","type":"bool","internalType":"bool"}],"outputs":[],"stateMutability":"nonpayable"},{"type":"function","name":"getAcceptedTokens","inputs":[],"outputs":[{"name":"tokens","type":"address[]","internalType":"address[]"}],"stateMutability":"view"},{"type":"function","name":"getDiscount","inputs":[{"name":"user","type":"address","internalType":"address"}],"outputs":[{"name":"discountBasisPoints","type":"uint256","internalType":"uint256"}],"stateMutability":"view"},{"type":"function","name":"getFeeRecipient","inputs":[],"outputs":[{"name":"recipient","type":"address","internalType":"address"}],"stateMutability":"view"},{"type":"function","name":"getPaymentStats","inputs":[],"outputs":[{"name":"paymentsEnabled","type":"bool","internalType":"bool"},{"name":"deploymentCount","type":"uint256","internalType":"uint256"}],"stateMutability":"view"},{"type":"function","name":"getPaymentTokenConfig","inputs":[{"name":"paymentToken","type":"address","internalType":"address"}],"outputs":[{"name":"config","type":"tuple","internalType":"struct IFactoryPayment.PaymentTokenConfig","components":[{"name":"isActive","type":"bool","internalType":"bool"},{"name":"feeAmount","type":"uint256","internalType":"uint256"},{"name":"totalCollected","type":"uint256","internalType":"uint256"}]}],"stateMutability":"view"},{"type":"function","name":"isPaymentInitialized","inputs":[],"outputs":[{"name":"initialized","type":"bool","internalType":"bool"}],"stateMutability":"view"},{"type":"function","name":"packedSelectors","inputs":[],"outputs":[{"name":"","type":"bytes","internalType":"bytes"}],"stateMutability":"pure"},{"type":"function","name":"setDiscount","inputs":[{"name":"user","type":"address","internalType":"address"},{"name":"discountBasisPoints","type":"uint256","internalType":"uint256"}],"outputs":[],"stateMutability":"nonpayable"},{"type":"function","name":"setFeeRecipient","inputs":[{"name":"feeRecipient","type":"address","internalType":"address"}],"outputs":[],"stateMutability":"nonpayable"},{"type":"function","name":"setPaymentsEnabled","inputs":[{"name":"enabled","type":"bool","internalType":"bool"}],"outputs":[],"stateMutability":"nonpayable"},{"type":"event","name":"DiscountSet","inputs":[{"name":"user","type":"address","indexed":true,"internalType":"address"},{"name":"discountBasisPoints","type":"uint256","indexed":false,"internalType":"uint256"}],"anonymous":false},{"type":"event","name":"FeeRecipientUpdated","inputs":[{"name":"feeRecipient","type":"address","indexed":true,"internalType":"address"}],"anonymous":false},{"type":"event","name":"PaymentCollected","inputs":[{"name":"payer","type":"address","indexed":true,"internalType":"address"},{"name":"paymentToken","type":"address","indexed":true,"internalType":"address"},{"name":"amount","type":"uint256","indexed":false,"internalType":"uint256"},{"name":"deploymentType","type":"string","indexed":false,"internalType":"string"}],"anonymous":false},{"type":"event","name":"PaymentModuleInitialized","inputs":[{"name":"feeRecipient","type":"address","indexed":true,"internalType":"address"}],"anonymous":false},{"type":"event","name":"PaymentTokenConfigured","inputs":[{"name":"paymentToken","type":"address","indexed":true,"internalType":"address"},{"name":"feeAmount","type":"uint256","indexed":false,"internalType":"uint256"},{"name":"isActive","type":"bool","indexed":false,"internalType":"bool"}],"anonymous":false},{"type":"event","name":"PaymentsStatusChanged","inputs":[{"name":"enabled","type":"bool","indexed":false,"internalType":"bool"}],"anonymous":false},{"type":"error","name":"AccessControl_CallerIsNotAuthorized","inputs":[{"name":"caller","type":"address","internalType":"address"},{"name":"functionSig","type":"bytes4","internalType":"bytes4"}]},{"type":"error","name":"FactoryPayment_AlreadyInitialized","inputs":[]},{"type":"error","name":"FactoryPayment_InsufficientAllowance","inputs":[]},{"type":"error","name":"FactoryPayment_InvalidDiscount","inputs":[]},{"type":"error","name":"FactoryPayment_InvalidFeeRecipient","inputs":[]},{"type":"error","name":"FactoryPayment_InvalidPaymentToken","inputs":[]},{"type":"error","name":"FactoryPayment_NotInitialized","inputs":[]},{"type":"error","name":"FactoryPayment_PaymentTokenNotAccepted","inputs":[]},{"type":"error","name":"FactoryPayment_TransferFailed","inputs":[]}],"bytecode":{"object":"0x60808060405234601557610f11908161001a8239f35b5f80fdfe60806040526004361015610011575f80fd5b5f358060e01c90816306f2791a1461084b57816315984f11146107cb5781631e92ffe51461072a5781632f757006146106675781633e62267c146105875781634ccb20c01461054f5781638d6ec056146104b557816393def2af14610427578163b2c3e6d9146103f9578163c6a00f251461025f578163d4389ad8146101a7578163e74b981b14610106575063f6b7d31d146100ab575f80fd5b34610102575f36600319011261010257604060ff5f516020610ebc5f395f51905f525460081c167f77e37c1abe729fece8d826f763b1bdff0dcd06df03e941db66e68d8ab93ac67854825191151582526020820152f35b5f80fd5b346101025760203660031901126101025761011f610877565b906001600160e01b0319166101348133610bfc565b156101915750610142610c4d565b6001600160a01b0381169081156101825761015c90610bc7565b7f7a7b5a0a132f9e0581eb8527f66eae9ee89c2a3e79d4ac7e41a1f1f4d48a7fc25f80a2005b637de34c5d60e11b5f5260045ffd5b631d64bc3360e11b5f523360045260245260445ffd5b34610102576020366003190112610102576101c0610877565b5f516020610ebc5f395f51905f525460ff8116610250576001600160a01b0382169182156101825760016102079260ff1916175f516020610ebc5f395f51905f5255610bc7565b61ff00195f516020610ebc5f395f51905f5254165f516020610ebc5f395f51905f52557fd442eec8b9f2b512ec96d13fd9eb625103cf47323cf49bf675a68dabac842e185f80a2005b637a5fbb0b60e11b5f5260045ffd5b3461010257606036600319011261010257610278610877565b906024359060443580151591828203610102576001600160e01b03191661029f8133610bfc565b1561019157506102ad610c4d565b6001600160a01b0384169384156103ea576102c790610927565b9060ff8254161590816103dd575b816103d5575b50610326575b916040918160017ff063555f7bb11f1cfc7d1ddbb4d09a2bd5b68aa7203c74ba7b5faf22dda0e95f9560ff1981541660ff8516178155015582519182526020820152a2005b915f516020610e9c5f395f51905f525491680100000000000000008310156103c15760018301805f516020610e9c5f395f51905f52558310156103ad575f516020610e9c5f395f51905f525f527fe5fa9d410d7b9008096063d76ec6918a807742631d915c660a8af185dbdb212490920180546001600160a01b03191685179055916102e1565b634e487b7160e01b5f52603260045260245ffd5b634e487b7160e01b5f52604160045260245ffd5b9050856102db565b60018301541591506102d5565b63b76a099d60e01b5f5260045ffd5b34610102575f36600319011261010257602060ff5f516020610ebc5f395f51905f5254166040519015158152f35b3461010257604036600319011261010257610440610877565b6024359067ffffffffffffffff821161010257366023830112156101025781600401359067ffffffffffffffff82116103c1576040519161048b601f8201601f1916602001846108cd565b8083523660248286010111610102576020815f9260246104b39701838701378401015261095f565b005b346101025760203660031901126101025760043590811515809203610102576001600160e01b0319166104e88133610bfc565b15610191577f2cbc8a6edddf44b1e26cac204981bb42247897a4d5f7051fceb95833cecfb651602083610519610c4d565b5f516020610ebc5f395f51905f525461ff008260081b169061ff001916175f516020610ebc5f395f51905f5255604051908152a1005b34610102575f366003190112610102575f516020610ebc5f395f51905f525460405160109190911c6001600160a01b03168152602090f35b34610102575f3660031901126101025760408051631a87135b60e31b602082015263c6a00f2560e01b602482015263e74b981b60e01b60288201526346b7602b60e11b602c820152631e92ffe560e01b6030808301919091526393def2af60e01b60348301526315984f1160e01b60388301526317bab80360e11b603c8301526301332c8360e61b9282019290925263f6b7d31d60e01b604482015263b2c3e6d960e01b60488201526303793c8d60e11b604c8201529081526106639061064f6050826108cd565b60405191829160208352602083019061088d565b0390f35b34610102575f366003190112610102576040518060205f516020610e9c5f395f51905f5254928381520180925f516020610e9c5f395f51905f525f5260205f20905f5b81811061070b57505050816106c09103826108cd565b604051918291602083019060208452518091526040830191905f5b8181106106e9575050500390f35b82516001600160a01b03168452859450602093840193909201916001016106db565b82546001600160a01b03168452602090930192600192830192016106aa565b3461010257604036600319011261010257610743610877565b90602435906001600160e01b03191661075c8133610bfc565b15610191575061076a610c4d565b6001600160a01b0382169182156103ea5761271082116107bc57817f637bd656a37735385d7cdf9d178f011d76219f7bce376e3b4af724f636ccaba7926107b26020936108ef565b55604051908152a2005b63293ed9f360e21b5f5260045ffd5b346101025760203660031901126101025760606108076107e9610877565b5f604080516107f7816108b1565b8281528260208201520152610927565b60ff8154169060026001820154910154906040805193610826856108b1565b1515938481526020810192835201918252604051928352516020830152516040820152f35b3461010257602036600319011261010257602061086e610869610877565b6108ef565b54604051908152f35b600435906001600160a01b038216820361010257565b805180835260209291819084018484015e5f828201840152601f01601f1916010190565b6060810190811067ffffffffffffffff8211176103c157604052565b90601f8019910116810190811067ffffffffffffffff8211176103c157604052565b6001600160a01b03165f9081527f77e37c1abe729fece8d826f763b1bdff0dcd06df03e941db66e68d8ab93ac6796020526040902090565b6001600160a01b03165f9081527f77e37c1abe729fece8d826f763b1bdff0dcd06df03e941db66e68d8ab93ac6766020526040902090565b905f516020610ebc5f395f51905f525460ff811615610bb85760ff8160081c1615610bb35761098d83610927565b9060ff82541615610ba4576001820154916109a7336108ef565b54839080610b75575b50508215610b6e57604051636eb1769f60e11b81523360048201523060248201526001600160a01b03861695906020816044818a5afa8015610b635785915f91610b2e575b5010610b1f5760408051606086815260109590951c6001600160a01b03169091523390931b602c526323b872dd60601b600c5260205f6064601c82855af1908160015f51141615610b01575b50506002905f6060528260405201805490838201809211610aed57557f77e37c1abe729fece8d826f763b1bdff0dcd06df03e941db66e68d8ab93ac67854915f198314610aed5760017f034a0731aa318c4a6771dbe0e52ee46d2f9f8b0eaca250cb0f826cb21f565b2893017f77e37c1abe729fece8d826f763b1bdff0dcd06df03e941db66e68d8ab93ac6785581526040602082015280610ae83394604083019061088d565b0390a3565b634e487b7160e01b5f52601160045260245ffd5b3b153d171015610b12575f80610a41565b637939f4245f526004601cfd5b63b550764d60e01b5f5260045ffd5b9150506020813d602011610b5b575b81610b4a602093836108cd565b81010312610102578490515f6109f5565b3d9150610b3d565b6040513d5f823e3d90fd5b5050505050565b9091935061271003906127108211610aed57818102918183041490151715610aed576127109004915f806109b0565b635320358b60e11b5f5260045ffd5b505050565b635ae3d3fb60e01b5f5260045ffd5b5f516020610ebc5f395f51905f52805462010000600160b01b03191660109290921b62010000600160b01b0316919091179055565b81610c0691610c66565b610c47577f511915e52b7f9e690b9fdc662acaf5600fd3722c87eb951d3abd26e93a784dca5c9060ff8216610c3b5750505f90565b610c4491610e46565b90565b50600190565b60ff5f516020610ebc5f395f51905f52541615610bb857565b7fce1c17acaaa67de66e928cd49c8f658667a825223bee6fda99a14908362bcdac546001600160a01b031680610d9b575b5060018060a01b0381165f527fce1c17acaaa67de66e928cd49c8f658667a825223bee6fda99a14908362bcdaa60205260405f20549163ffffffff60e01b165f527fce1c17acaaa67de66e928cd49c8f658667a825223bee6fda99a14908362bcdab60205260405f2054908115610d57576001600160a01b03165f9081527fce1c17acaaa67de66e928cd49c8f658667a825223bee6fda99a14908362bcdaa60205260409020546001161515918215610d4f57505090565b161515919050565b6001600160a01b03165f9081527fce1c17acaaa67de66e928cd49c8f658667a825223bee6fda99a14908362bcdaa602052604090205460011615159150610c449050565b6040805163b700961360e01b81526001600160a01b03841660048201523060248201526001600160e01b03198516604482015291829060649082905afa5f9181610df7575b5015610c9757610df0575f610c97565b5050600190565b9091506040813d604011610e3e575b81610e13604093836108cd565b81010312610102578051908115158203610102576020015163ffffffff81160361010257905f610de0565b3d9150610e06565b60ff16908115610df05763ffffffff60e01b165f527fce1c17acaaa67de66e928cd49c8f658667a825223bee6fda99a14908362bcdab60205260405f2054908115610e95576001901b16151590565b50505f9056fe77e37c1abe729fece8d826f763b1bdff0dcd06df03e941db66e68d8ab93ac67777e37c1abe729fece8d826f763b1bdff0dcd06df03e941db66e68d8ab93ac675a26469706673582212207c56c0215152fd1e8a4a41b21c53c23e966364ab0087c1fa95a126d1e22090e564736f6c634300081e0033","linkReferences":{}},"methodIdentifiers":{"FactoryPayment_init(address)":"d4389ad8","collectPayment(address,string)":"93def2af","configurePaymentToken(address,uint256,bool)":"c6a00f25","getAcceptedTokens()":"2f757006","getDiscount(address)":"06f2791a","getFeeRecipient()":"4ccb20c0","getPaymentStats()":"f6b7d31d","getPaymentTokenConfig(address)":"15984f11","isPaymentInitialized()":"b2c3e6d9","packedSelectors()":"3e62267c","setDiscount(address,uint256)":"1e92ffe5","setFeeRecipient(address)":"e74b981b","setPaymentsEnabled(bool)":"8d6ec056"},"id":128}