{"abi":[{"type":"function","name":"FACTORY_ADMIN_ROLE","inputs":[],"outputs":[{"name":"","type":"uint8","internalType":"uint8"}],"stateMutability":"view"},{"type":"function","name":"FactoryCore_init","inputs":[{"name":"admin","type":"address","internalType":"address"},{"name":"facetRegistry","type":"address","internalType":"address"},{"name":"treasury","type":"address","internalType":"address"},{"name":"creationFee","type":"uint256","internalType":"uint256"}],"outputs":[],"stateMutability":"nonpayable"},{"type":"function","name":"createDiamond","inputs":[{"name":"cuts","type":"tuple[]","internalType":"struct IDiamondCut.FacetCut[]","components":[{"name":"facetAddress","type":"address","internalType":"address"},{"name":"action","type":"uint8","internalType":"enum IDiamondCut.FacetCutAction"},{"name":"functionSelectors","type":"bytes4[]","internalType":"bytes4[]"}]},{"name":"init","type":"address","internalType":"address"},{"name":"initData","type":"bytes","internalType":"bytes"},{"name":"salt","type":"bytes32","internalType":"bytes32"}],"outputs":[{"name":"diamond","type":"address","internalType":"address"}],"stateMutability":"payable"},{"type":"function","name":"getAllDiamonds","inputs":[],"outputs":[{"name":"diamonds","type":"address[]","internalType":"address[]"}],"stateMutability":"view"},{"type":"function","name":"getCreationFee","inputs":[],"outputs":[{"name":"amount","type":"uint256","internalType":"uint256"}],"stateMutability":"view"},{"type":"function","name":"getDiamondsByDeployer","inputs":[{"name":"deployer","type":"address","internalType":"address"}],"outputs":[{"name":"diamonds","type":"address[]","internalType":"address[]"}],"stateMutability":"view"},{"type":"function","name":"getFacetRegistry","inputs":[],"outputs":[{"name":"registry","type":"address","internalType":"address"}],"stateMutability":"view"},{"type":"function","name":"isDiamondDeployed","inputs":[{"name":"diamond","type":"address","internalType":"address"}],"outputs":[{"name":"deployed","type":"bool","internalType":"bool"}],"stateMutability":"view"},{"type":"function","name":"predictDiamondAddress","inputs":[{"name":"deployer","type":"address","internalType":"address"},{"name":"cuts","type":"tuple[]","internalType":"struct IDiamondCut.FacetCut[]","components":[{"name":"facetAddress","type":"address","internalType":"address"},{"name":"action","type":"uint8","internalType":"enum IDiamondCut.FacetCutAction"},{"name":"functionSelectors","type":"bytes4[]","internalType":"bytes4[]"}]},{"name":"init","type":"address","internalType":"address"},{"name":"initData","type":"bytes","internalType":"bytes"},{"name":"salt","type":"bytes32","internalType":"bytes32"}],"outputs":[{"name":"predicted","type":"address","internalType":"address"}],"stateMutability":"view"},{"type":"function","name":"setCreationFee","inputs":[{"name":"fee","type":"uint256","internalType":"uint256"}],"outputs":[],"stateMutability":"nonpayable"},{"type":"function","name":"setFacetRegistry","inputs":[{"name":"registry","type":"address","internalType":"address"}],"outputs":[],"stateMutability":"nonpayable"},{"type":"function","name":"setTreasury","inputs":[{"name":"treasury","type":"address","internalType":"address"}],"outputs":[],"stateMutability":"nonpayable"},{"type":"event","name":"DiamondCreated","inputs":[{"name":"diamond","type":"address","indexed":true,"internalType":"address"},{"name":"deployer","type":"address","indexed":true,"internalType":"address"},{"name":"salt","type":"bytes32","indexed":true,"internalType":"bytes32"}],"anonymous":false},{"type":"event","name":"PaymentReceived","inputs":[{"name":"payer","type":"address","indexed":true,"internalType":"address"},{"name":"amount","type":"uint256","indexed":false,"internalType":"uint256"},{"name":"diamond","type":"address","indexed":true,"internalType":"address"}],"anonymous":false},{"type":"error","name":"AccessControl_CallerIsNotAuthorized","inputs":[{"name":"caller","type":"address","internalType":"address"},{"name":"functionSig","type":"bytes4","internalType":"bytes4"}]},{"type":"error","name":"Factory_DeploymentFailed","inputs":[]},{"type":"error","name":"Factory_DiamondAlreadyExists","inputs":[]},{"type":"error","name":"Factory_InsufficientPayment","inputs":[]},{"type":"error","name":"Factory_InvalidCuts","inputs":[]},{"type":"error","name":"Factory_PaymentTransferFailed","inputs":[]},{"type":"error","name":"Factory_RegistryNotSet","inputs":[]}],"bytecode":{"object":"0x60808060405234601557611913908161001a8239f35b5f80fdfe60806040526004361015610011575f80fd5b5f3560e01c806304af7300146100d45780630504c76b146100cf57806312cf4801146100ca57806323e0d792146100c55780633360cf5e146100c05780633be668b8146100bb578063a9856cf9146100b6578063b7d86225146100b1578063d15d4150146100ac578063db07b68e146100a7578063dd31b0a1146100a25763f0f442601461009d575f80fd5b610848565b6107f1565b6107c8565b6106ac565b610655565b6105de565b610531565b6104d4565b61043a565b61040e565b6101c1565b34610108575f366003190112610108575f51602061189e5f395f51905f52546040516001600160a01b039091168152602090f35b5f80fd5b9181601f840112156101085782359167ffffffffffffffff8311610108576020808501948460051b01011161010857565b602435906001600160a01b038216820361010857565b600435906001600160a01b038216820361010857565b604435906001600160a01b038216820361010857565b35906001600160a01b038216820361010857565b9181601f840112156101085782359167ffffffffffffffff8311610108576020838186019501011161010857565b60803660031901126101085760043567ffffffffffffffff8111610108576101ed90369060040161010c565b906101f661013d565b9160443567ffffffffffffffff811161010857610217903690600401610193565b90606435945f5160206118be5f395f51905f525434106103ff575f51602061189e5f395f51905f52546001600160a01b03166103f0575b61026086335f526020526034600c2090565b9361028161027a61027587878787878d610d6b565b610886565b5460ff1690565b6103e15761028e95610e33565b906102a861029b83610886565b805460ff19166001179055565b6102b18261091e565b335f9081527f8175bc1f008025c0c572bfe9f64528f4f9f8552885c06715085747822d7c5b1d602052604090206102e99083906109af565b7f8175bc1f008025c0c572bfe9f64528f4f9f8552885c06715085747822d7c5b1a546001600160a01b0316801515806103d8575b610373575b5060405191829161036f9190336001600160a01b0383167f642f5a2067d063f700d0959847cb7da7d95d758cb8e53b05571f2a14956417035f80a46001600160a01b031682526020820190565b0390f35b5f8080809334905af1610384610a21565b50156103c9576040513481526001600160a01b0383169033907fad9df62a81fe6be2a989b7ab92b1322b9405ab1ecf6e3b204539448002d6cf6990602090a35f610322565b63f912a01360e01b5f5260045ffd5b5034151561031d565b633f9f42bd60e21b5f5260045ffd5b6103fa8486610c49565b61024e565b63ad29d7a560e01b5f5260045ffd5b3461010857602036600319011261010857602060ff61042e610275610153565b54166040519015158152f35b346101085760a036600319011261010857610453610153565b60243567ffffffffffffffff81116101085761047390369060040161010c565b9161047c610169565b906064359167ffffffffffffffff8311610108576104bf946104a56104b9943690600401610193565b949093608435905f526020526034600c2090565b94610d6b565b6040516001600160a01b039091168152602090f35b34610108575f36600319011261010857602060405160018152f35b60206040818301928281528451809452019201905f5b8181106105125750505090565b82516001600160a01b0316845260209384019390920191600101610505565b346101085760203660031901126101085761058561054d610153565b6001600160a01b03165f9081527f8175bc1f008025c0c572bfe9f64528f4f9f8552885c06715085747822d7c5b1d6020526040902090565b60405190805480835260208301915f5260205f20905f5b8181106105bf5761036f856105b3818703826109ef565b604051918291826104ef565b82546001600160a01b031684526020909301926001928301920161059c565b34610108575f366003190112610108576040515f51602061187e5f395f51905f525480825260208201905f51602061187e5f395f51905f525f5260205f20905f5b8181106106365761036f856105b3818703826109ef565b82546001600160a01b031684526020909301926001928301920161061f565b34610108576020366003190112610108576004355f356001600160e01b03191661067f8133610eac565b1561069657505f5160206118be5f395f51905f5255005b631d64bc3360e11b5f523360045260245260445ffd5b34610108576080366003190112610108576106c5610153565b6106fd6106d061013d565b6106ec6106db610169565b6106e760643593610a60565b610a95565b5f5160206118be5f395f51905f5255565b61071860019161070c816108be565b600181541790556108be565b600281541790556107296080610a11565b63dd31b0a160e01b815263b7d8622560e01b6020820152630787a21360e51b6040820152630d15d41560e41b60608201525f5b6004811061076657005b806107bc610786610778869486610af0565b516001600160e01b03191690565b63ffffffff60e01b165f527f35edad4c931e57ec40cedc90b9e3e052832d1b49c07eb789b019aea9b39c91da60205260405f2090565b8281541790550161075c565b34610108575f3660031901126101085760205f5160206118be5f395f51905f5254604051908152f35b346101085760203660031901126101085761080a610153565b5f356001600160e01b031916906108218233610eac565b156108315761082f90610a60565b005b50631d64bc3360e11b5f523360045260245260445ffd5b3461010857602036600319011261010857610861610153565b5f356001600160e01b031916906108788233610eac565b156108315761082f90610a95565b6001600160a01b03165f9081527f8175bc1f008025c0c572bfe9f64528f4f9f8552885c06715085747822d7c5b1b6020526040902090565b6001600160a01b03165f9081527f35edad4c931e57ec40cedc90b9e3e052832d1b49c07eb789b019aea9b39c91d96020526040902090565b634e487b7160e01b5f52604160045260245ffd5b634e487b7160e01b5f52603260045260245ffd5b5f51602061187e5f395f51905f5254600160401b8110156109aa5760018101805f51602061187e5f395f51905f52558110156109a5575f51602061187e5f395f51905f525f527f565ebb1d6825b57d3878d2df9bd2cbc6c99312cc573a7a6917b91a46c35d82ea0180546001600160a01b0319166001600160a01b03909216919091179055565b61090a565b6108f6565b805490600160401b8210156109aa57600182018082558210156109a5575f5260205f20019060018060a01b03166001600160601b0360a01b825416179055565b90601f8019910116810190811067ffffffffffffffff8211176109aa57604052565b90610a1f60405192836109ef565b565b3d15610a5b573d9067ffffffffffffffff82116109aa5760405191610a50601f8201601f1916602001846109ef565b82523d5f602084013e565b606090565b60018060a01b03166001600160601b0360a01b5f51602061189e5f395f51905f525416175f51602061189e5f395f51905f5255565b60018060a01b03166001600160601b0360a01b7f8175bc1f008025c0c572bfe9f64528f4f9f8552885c06715085747822d7c5b1a5416177f8175bc1f008025c0c572bfe9f64528f4f9f8552885c06715085747822d7c5b1a55565b9060048110156109a55760051b0190565b90816020910312610108575180151581036101085790565b916020908281520191905f905b808210610b335750505090565b90919283359063ffffffff60e01b821680920361010857602081600193829352019401920190610b26565b906020838281520160208260051b85010193835f915b848310610b845750505050505090565b909192939495601f198282030185528635605e19843603018112156101085783016001600160a01b03610bb68261017f565b168252602081013560038110156101085760208301526040810135601e198236030181121561010857016020813591019067ffffffffffffffff8111610108578060051b3603821361010857610c1c602092839260608681604060019901520191610b19565b980196950193019190610b74565b916020610c3b938181520191610b5e565b90565b6040513d5f823e3d90fd5b908015610ccb575f51602061189e5f395f51905f52546001600160a01b03169081610c7357505050565b610cb192602092610c94906001600160a01b03165b6001600160a01b031690565b9060405180958194829363b630e87f60e01b845260048401610c2a565b03915afa908115610d09575f91610cda575b5015610ccb57565b634346e00760e11b5f5260045ffd5b610cfc915060203d602011610d02575b610cf481836109ef565b810190610b01565b5f610cc3565b503d610cea565b610c3e565b610d278694959260209794606084526060840191610b5e565b6001600160a01b0390951681870152808503604090910152818452848401375f828201840152601f01601f1916010190565b805191908290602001825e015f815290565b90610da0610e2492610d92610c8897610c3b9997610d929760405196879560208701610d0e565b03601f1981018352826109ef565b610d92610ddc61092e92610db660208501610a11565b93808552610f506020860139604051928391610dd6602084018097610d59565b90610d59565b5190206040516001600160f81b0319602082019081523060601b6bffffffffffffffffffffffff19166021830152603582019590955260558101919091529182906075820190565b5190206001600160a01b031690565b9193610e4d93610d92929560405196879560208701610d0e565b610d92610e8761092e9260405193610e6860208201866109ef565b808552610f506020860139604051928391610dd6602084018097610d59565b51905ff5906001600160a01b03821615610e9d57565b63d6e0f82d60e01b5f5260045ffd5b610ef0610eb8826108be565b549263ffffffff60e01b165f527f35edad4c931e57ec40cedc90b9e3e052832d1b49c07eb789b019aea9b39c91da60205260405f2090565b54908115610f47576001600160a01b03165f9081527f35edad4c931e57ec40cedc90b9e3e052832d1b49c07eb789b019aea9b39c91d960205260409020546001161580159290610f3f57505090565b161515919050565b50505060019056fe608060405261092e80380380610014816101f5565b9283398101906060818303126100c45780516001600160401b0381116100c45781019082601f830112156100c4578151916100566100518461021a565b6101f5565b9260208085838152019160051b830101918583116100c45760208101915b8383106100c8575050505061008b60208201610231565b6040820151939091906001600160401b0385116100c4576100b6946100b09201610260565b91610501565b60405160b890816108568239f35b5f80fd5b82516001600160401b0381116100c45782016060818903601f1901126100c4576100f06101b2565b906100fd60208201610231565b8252604081015160038110156100c457602083015260608101516001600160401b0381116100c457602091010188601f820112156100c45780516101436100518261021a565b9160208084848152019260051b820101908b82116100c457602001915b81831061017d575050506040820152815260209283019201610074565b82516001600160e01b0319811681036100c457815260209283019201610160565b634e487b7160e01b5f52604160045260245ffd5b60405190606082016001600160401b038111838210176101d157604052565b61019e565b60408051919082016001600160401b038111838210176101d157604052565b6040519190601f01601f191682016001600160401b038111838210176101d157604052565b6001600160401b0381116101d15760051b60200190565b51906001600160a01b03821682036100c457565b6001600160401b0381116101d157601f01601f191660200190565b81601f820112156100c45780519061027a61005183610245565b92828452602083830101116100c457815f9260208093018386015e8301015290565b600311156102a657565b634e487b7160e01b5f52602160045260245ffd5b805180835260209291819084018484015e5f828201840152601f01601f1916010190565b9392909193606081016060825283518091526080820190602060808260051b8501019501915f905b828210610337575050506001600160a01b0390951660208201529293506103349260408184039101526102ba565b90565b848703607f19018152835180516001600160a01b0316885260208101519497939492939192606083019160038210156102a657604060809160209384870152015193606060408201528451809452019201905f905b8082106103aa57505050602080600192980192019201909291610306565b82516001600160e01b03191684526020938401939092019160019091019061038c565b3d156103ed573d906103e161005183610245565b9182523d5f602084013e565b606090565b9060206103349281815201906102ba565b6020818303126100c4578051906001600160401b0382116100c457019080601f830112156100c45781519161043a6100518461021a565b9260208085838152019160051b830101918383116100c45760208101915b83831061046757505050505090565b82516001600160401b0381116100c4578201906040828703601f1901126100c4576104906101d6565b9061049d60208401610231565b82526040830151916001600160401b0383116100c4576104c588602080969581960101610260565b83820152815201920191610458565b634e487b7160e01b5f52603260045260245ffd5b80518210156104fc5760209160051b010190565b6104d4565b817f8faa70878671ccd212d20771b795c50af8fd3ff6cf27f4bde57e5d4de0aeb6739161052d81610704565b61053d85604051938493846102de565b0390a16001600160a01b0381168061055457505050565b73d1a302d1a302d1a302d1a302d1a302d1a302d1a30361063757508060208061058293518301019101610403565b8051905f5b82811061059357505050565b6105ae6105a082846104e8565b51516001600160a01b031690565b803b15610618575f809160206105c485876104e8565b51015190602082519201905af46105d96103cd565b90156105e85750600101610587565b8051156105f757805190602001fd5b604051636e6e000d60e01b815290819061061490600483016103f2565b0390fd5b604051636e6e000d60e01b8152602060048201525f6024820152604490fd5b803b1561061857815f929160208493519201905af46106546103cd565b90156105e85750565b5160038110156102a65790565b5f51602061090e5f395f51905f525490680100000000000000008210156101d15760018201805f51602061090e5f395f51905f52558210156104fc575f51602061090e5f395f51905f525f5260205f208260031c019163ffffffff60e084549260051b169260e01c831b921b1916179055565b61ffff1661ffff81146106f05760010190565b634e487b7160e01b5f52601160045260245ffd5b8051905f5b82811061071557505050565b61072b602061072483856104e8565b510161065d565b604061073783856104e8565b5101516107476105a084866104e8565b916107518161029c565b15610761575b5050600101610709565b9091939461077e5f51602061090e5f395f51905f525461ffff1690565b955f965b83518810156108445761083c6001916108376107af6107a18c896104e8565b516001600160e01b03191690565b6108326107ba6101d6565b6001600160a01b038b8116825261ffff861660208084019182526001600160e01b031986165f9081527f8e1a93f2f638a12c40bcad461338b7dea6f167bb43768f444b7871ce94e27a1a9091526040902092518354915161ffff60a01b60a09190911b1692166001600160b01b031990911617179055565b61066a565b6106dd565b970196610782565b50949150945060019150905f61075756fe608060405236156080575f80356001600160e01b0319168082527f8e1a93f2f638a12c40bcad461338b7dea6f167bb43768f444b7871ce94e27a1a6020526040909120546001600160a01b0316908115606e575f8083368280378136915af43d5f803e15606a573d5ff35b3d5ffd5b632cf008a360e21b5f5260045260245ffd5b00fea264697066735822122064410db18255ad2b6553466613df70519c069154921e8208fc4efadbf84416ac64736f6c634300081e00338e1a93f2f638a12c40bcad461338b7dea6f167bb43768f444b7871ce94e27a1b8175bc1f008025c0c572bfe9f64528f4f9f8552885c06715085747822d7c5b1c8175bc1f008025c0c572bfe9f64528f4f9f8552885c06715085747822d7c5b188175bc1f008025c0c572bfe9f64528f4f9f8552885c06715085747822d7c5b19a2646970667358221220956c4b4f053611559d5859a49b1686dc0186530b5b0fdb88203fc048926fd4a764736f6c634300081e0033","linkReferences":{}},"methodIdentifiers":{"FACTORY_ADMIN_ROLE()":"3360cf5e","FactoryCore_init(address,address,address,uint256)":"d15d4150","createDiamond((address,uint8,bytes4[])[],address,bytes,bytes32)":"0504c76b","getAllDiamonds()":"a9856cf9","getCreationFee()":"db07b68e","getDiamondsByDeployer(address)":"3be668b8","getFacetRegistry()":"04af7300","isDiamondDeployed(address)":"12cf4801","predictDiamondAddress(address,(address,uint8,bytes4[])[],address,bytes,bytes32)":"23e0d792","setCreationFee(uint256)":"b7d86225","setFacetRegistry(address)":"dd31b0a1","setTreasury(address)":"f0f44260"},"id":45}