{"abi":[{"type":"function","name":"FACTORY_ADMIN_ROLE","inputs":[],"outputs":[{"name":"","type":"uint8","internalType":"uint8"}],"stateMutability":"view"},{"type":"function","name":"FactoryCore_init","inputs":[{"name":"admin","type":"address","internalType":"address"},{"name":"facetRegistry","type":"address","internalType":"address"},{"name":"treasury","type":"address","internalType":"address"},{"name":"creationFee","type":"uint256","internalType":"uint256"}],"outputs":[],"stateMutability":"nonpayable"},{"type":"function","name":"createDiamond","inputs":[{"name":"facets","type":"address[]","internalType":"address[]"},{"name":"init","type":"address","internalType":"address"},{"name":"initData","type":"bytes","internalType":"bytes"},{"name":"salt","type":"bytes32","internalType":"bytes32"}],"outputs":[{"name":"diamond","type":"address","internalType":"address"}],"stateMutability":"payable"},{"type":"function","name":"getAllDiamonds","inputs":[],"outputs":[{"name":"diamonds","type":"address[]","internalType":"address[]"}],"stateMutability":"view"},{"type":"function","name":"getCreationFee","inputs":[],"outputs":[{"name":"amount","type":"uint256","internalType":"uint256"}],"stateMutability":"view"},{"type":"function","name":"getDiamondsByDeployer","inputs":[{"name":"deployer","type":"address","internalType":"address"}],"outputs":[{"name":"diamonds","type":"address[]","internalType":"address[]"}],"stateMutability":"view"},{"type":"function","name":"getFacetRegistry","inputs":[],"outputs":[{"name":"registry","type":"address","internalType":"address"}],"stateMutability":"view"},{"type":"function","name":"isDiamondDeployed","inputs":[{"name":"diamond","type":"address","internalType":"address"}],"outputs":[{"name":"deployed","type":"bool","internalType":"bool"}],"stateMutability":"view"},{"type":"function","name":"packedSelectors","inputs":[],"outputs":[{"name":"","type":"bytes","internalType":"bytes"}],"stateMutability":"pure"},{"type":"function","name":"predictDiamondAddress","inputs":[{"name":"deployer","type":"address","internalType":"address"},{"name":"facets","type":"address[]","internalType":"address[]"},{"name":"init","type":"address","internalType":"address"},{"name":"initData","type":"bytes","internalType":"bytes"},{"name":"salt","type":"bytes32","internalType":"bytes32"}],"outputs":[{"name":"predicted","type":"address","internalType":"address"}],"stateMutability":"view"},{"type":"function","name":"setCreationFee","inputs":[{"name":"fee","type":"uint256","internalType":"uint256"}],"outputs":[],"stateMutability":"nonpayable"},{"type":"function","name":"setFacetRegistry","inputs":[{"name":"registry","type":"address","internalType":"address"}],"outputs":[],"stateMutability":"nonpayable"},{"type":"function","name":"setTreasury","inputs":[{"name":"treasury","type":"address","internalType":"address"}],"outputs":[],"stateMutability":"nonpayable"},{"type":"event","name":"DiamondCreated","inputs":[{"name":"diamond","type":"address","indexed":true,"internalType":"address"},{"name":"deployer","type":"address","indexed":true,"internalType":"address"},{"name":"salt","type":"bytes32","indexed":true,"internalType":"bytes32"}],"anonymous":false},{"type":"event","name":"FacetRegistryUpdated","inputs":[{"name":"registry","type":"address","indexed":true,"internalType":"address"}],"anonymous":false},{"type":"event","name":"PaymentReceived","inputs":[{"name":"payer","type":"address","indexed":true,"internalType":"address"},{"name":"amount","type":"uint256","indexed":false,"internalType":"uint256"},{"name":"diamond","type":"address","indexed":true,"internalType":"address"}],"anonymous":false},{"type":"error","name":"AccessControl_CallerIsNotAuthorized","inputs":[{"name":"caller","type":"address","internalType":"address"},{"name":"functionSig","type":"bytes4","internalType":"bytes4"}]},{"type":"error","name":"Factory_DeploymentFailed","inputs":[]},{"type":"error","name":"Factory_DiamondAlreadyExists","inputs":[]},{"type":"error","name":"Factory_InsufficientPayment","inputs":[]},{"type":"error","name":"Factory_InvalidFacets","inputs":[]},{"type":"error","name":"Factory_PaymentTransferFailed","inputs":[]},{"type":"error","name":"Factory_RegistryNotSet","inputs":[]}],"bytecode":{"object":"0x60808060405234601557611a8c908161001a8239f35b5f80fdfe60806040526004361015610011575f80fd5b5f3560e01c806304af7300146100e457806312cf4801146100df5780633360cf5e146100da5780633be668b8146100d55780633e62267c146100d057806390d60d1c146100cb578063a9856cf9146100c6578063b7d86225146100c1578063d15d4150146100bc578063d5cd29fd146100b7578063db07b68e146100b2578063dd31b0a1146100ad5763f0f44260146100a8575f80fd5b610913565b6108a6565b61087d565b6107e3565b6106f8565b6106a1565b61062a565b6103e6565b6102c7565b6101ec565b61018f565b61015e565b34610118575f366003190112610118575f5160206119f75f395f51905f52546040516001600160a01b039091168152602090f35b5f80fd5b600435906001600160a01b038216820361011857565b602435906001600160a01b038216820361011857565b604435906001600160a01b038216820361011857565b3461011857602036600319011261011857602060ff61018361017e61011c565b61096a565b54166040519015158152f35b34610118575f36600319011261011857602060405160018152f35b60206040818301928281528451809452019201905f5b8181106101cd5750505090565b82516001600160a01b03168452602093840193909201916001016101c0565b346101185760203660031901126101185761024061020861011c565b6001600160a01b03165f9081527fc167b7763ed3ad5eefe174ec9e6dbd27dcfe0f5ab9e028e4d97d412d6a27e7e46020526040902090565b60405190805480835260208301915f5260205f20905f5b81811061027e5761027a8561026e818703826109ee565b604051918291826101aa565b0390f35b82546001600160a01b0316845260209093019260019283019201610257565b602060409281835280519182918282860152018484015e5f828201840152601f01601f1916010190565b34610118575f36600319011261011857604051632435834760e21b602082015263d5cd29fd60e01b60248201526312cf480160e01b6028820152636d83db4760e11b602c8201526204af7360e81b603082015263dd31b0a160e01b603482015261027a9063b7d8622560e01b6038820152630787a21360e51b603c82015263a9856cf960e01b604082015263077ccd1760e31b6044820152630d15d41560e41b6048820152602c815261037b604c826109ee565b6040519182918261029d565b9181601f840112156101185782359167ffffffffffffffff8311610118576020808501948460051b01011161011857565b9181601f840112156101185782359167ffffffffffffffff8311610118576020838186019501011161011857565b60803660031901126101185760043567ffffffffffffffff811161011857610412903690600401610387565b9061041b610132565b9160443567ffffffffffffffff81116101185761043c9036906004016103b8565b90606435945f516020611a375f395f51905f5254341061061b575f5160206119f75f395f51905f52546001600160a01b031661060c575b61048586335f526020526034600c2090565b936104a161049a61017e87878787878d610dc1565b5460ff1690565b6105fd576104ae95610e89565b906104c86104bb8361096a565b805460ff19166001179055565b6104d182610a29565b335f9081527fc167b7763ed3ad5eefe174ec9e6dbd27dcfe0f5ab9e028e4d97d412d6a27e7e460205260409020610509908390610ab5565b7fc167b7763ed3ad5eefe174ec9e6dbd27dcfe0f5ab9e028e4d97d412d6a27e7e1546001600160a01b0316801515806105f4575b61058f575b5060405191829161027a9190336001600160a01b0383167f642f5a2067d063f700d0959847cb7da7d95d758cb8e53b05571f2a14956417035f80a46001600160a01b031682526020820190565b5f8080809334905af16105a0610b05565b50156105e5576040513481526001600160a01b0383169033907fad9df62a81fe6be2a989b7ab92b1322b9405ab1ecf6e3b204539448002d6cf6990602090a35f610542565b63f912a01360e01b5f5260045ffd5b5034151561053d565b633f9f42bd60e21b5f5260045ffd5b6106168486610c9f565b610473565b63ad29d7a560e01b5f5260045ffd5b34610118575f366003190112610118576040515f516020611a175f395f51905f525480825260208201905f516020611a175f395f51905f525f5260205f20905f5b8181106106825761027a8561026e818703826109ee565b82546001600160a01b031684526020909301926001928301920161066b565b34610118576020366003190112610118576004355f356001600160e01b0319166106cb8133610f02565b156106e257505f516020611a375f395f51905f5255005b631d64bc3360e11b5f523360045260245260445ffd5b346101185760803660031901126101185761071161011c565b61074961071c610132565b610738610727610148565b61073360643593610b44565b610b79565b5f516020611a375f395f51905f5255565b610764600191610758816109a2565b600181541790556109a2565b600281541790556107756080610af5565b63dd31b0a160e01b815263b7d8622560e01b6020820152630787a21360e51b6040820152630d15d41560e41b60608201525f5b600481106107b257005b806107d76107d26107c4869486610bd4565b516001600160e01b03191690565b610be5565b828154179055016107a8565b346101185760a0366003190112610118576107fc61011c565b60243567ffffffffffffffff81116101185761081c903690600401610387565b91610825610148565b906064359167ffffffffffffffff8311610118576108689461084e6108629436906004016103b8565b949093608435905f526020526034600c2090565b94610dc1565b6040516001600160a01b039091168152602090f35b34610118575f3660031901126101185760205f516020611a375f395f51905f5254604051908152f35b34610118576020366003190112610118576108bf61011c565b5f356001600160e01b0319166108d58133610f02565b156106e257506108e481610b44565b6001600160a01b03167fe232fd3d746538e0089f65d8445e32fd4b488d6b6cbb6f3f0e04cc017aafe02e5f80a2005b346101185760203660031901126101185761092c61011c565b5f356001600160e01b031916906109438233610f02565b156109535761095190610b79565b005b50631d64bc3360e11b5f523360045260245260445ffd5b6001600160a01b03165f9081527fc167b7763ed3ad5eefe174ec9e6dbd27dcfe0f5ab9e028e4d97d412d6a27e7e26020526040902090565b6001600160a01b03165f9081527fce1c17acaaa67de66e928cd49c8f658667a825223bee6fda99a14908362bcdaa6020526040902090565b634e487b7160e01b5f52604160045260245ffd5b90601f8019910116810190811067ffffffffffffffff821117610a1057604052565b6109da565b634e487b7160e01b5f52603260045260245ffd5b5f516020611a175f395f51905f5254600160401b811015610a105760018101805f516020611a175f395f51905f5255811015610ab0575f516020611a175f395f51905f525f527fc910f1d755427d865bcd9c5b258ac1e1d859ea41ef9e53f54722539718829f8d0180546001600160a01b0319166001600160a01b03909216919091179055565b610a15565b805490600160401b821015610a105760018201808255821015610ab0575f5260205f20019060018060a01b03166001600160601b0360a01b825416179055565b90610b0360405192836109ee565b565b3d15610b3f573d9067ffffffffffffffff8211610a105760405191610b34601f8201601f1916602001846109ee565b82523d5f602084013e565b606090565b60018060a01b03166001600160601b0360a01b5f5160206119f75f395f51905f525416175f5160206119f75f395f51905f5255565b60018060a01b03166001600160601b0360a01b7fc167b7763ed3ad5eefe174ec9e6dbd27dcfe0f5ab9e028e4d97d412d6a27e7e15416177fc167b7763ed3ad5eefe174ec9e6dbd27dcfe0f5ab9e028e4d97d412d6a27e7e155565b906004811015610ab05760051b0190565b63ffffffff60e01b165f527fce1c17acaaa67de66e928cd49c8f658667a825223bee6fda99a14908362bcdab60205260405f2090565b5190811515820361011857565b9081602091031261011857610c3c90610c1b565b90565b916020908281520191905f905b808210610c595750505090565b90919283359060018060a01b03821680920361011857602081600193829352019401920190610c4c565b916020610c3c938181520191610c3f565b6040513d5f823e3d90fd5b908015610d21575f5160206119f75f395f51905f52546001600160a01b03169081610cc957505050565b610d0792602092610cea906001600160a01b03165b6001600160a01b031690565b906040518095819482936350ac763960e11b845260048401610c83565b03915afa908115610d5f575f91610d30575b5015610d2157565b636696726160e11b5f5260045ffd5b610d52915060203d602011610d58575b610d4a81836109ee565b810190610c28565b5f610d19565b503d610d40565b610c94565b610d7d8694959260209794606084526060840191610c3f565b6001600160a01b0390951681870152808503604090910152818452848401375f828201840152601f01601f1916010190565b805191908290602001825e015f815290565b90610df6610e7a92610de8610cde97610c3c9997610de89760405196879560208701610d64565b03601f1981018352826109ee565b610de8610e326108d192610e0c60208501610af5565b938085526111266020860139604051928391610e2c602084018097610daf565b90610daf565b5190206040516001600160f81b0319602082019081523060601b6bffffffffffffffffffffffff19166021830152603582019590955260558101919091529182906075820190565b5190206001600160a01b031690565b9193610ea393610de8929560405196879560208701610d64565b610de8610edd6108d19260405193610ebe60208201866109ee565b8085526111266020860139604051928391610e2c602084018097610daf565b51905ff5906001600160a01b03821615610ef357565b63d6e0f82d60e01b5f5260045ffd5b81610f0c91610f7a565b610f4a577f511915e52b7f9e690b9fdc662acaf5600fd3722c87eb951d3abd26e93a784dca5c9060ff8216610f415750505f90565b610c3c916110fa565b50600190565b9190826040910312610118576020610f6783610c1b565b92015163ffffffff811681036101185790565b7fce1c17acaaa67de66e928cd49c8f658667a825223bee6fda99a14908362bcdac546001600160a01b03168061105a575b50610fbf610fb8826109a2565b5492610be5565b54908115611016576001600160a01b03165f9081527fce1c17acaaa67de66e928cd49c8f658667a825223bee6fda99a14908362bcdaa6020526040902054600116151591821561100e57505090565b161515919050565b6001600160a01b03165f9081527fce1c17acaaa67de66e928cd49c8f658667a825223bee6fda99a14908362bcdaa602052604090205460011615159150610c3c9050565b61106c906001600160a01b0316610cde565b6040805163b700961360e01b81526001600160a01b03841660048201523060248201526001600160e01b03198516604482015291829060649082905afa5f91816110c8575b5015610fab576110c1575f610fab565b5050600190565b6110eb91925060403d6040116110f3575b6110e381836109ee565b810190610f50565b50905f6110b1565b503d6110d9565b60ff169081156110c15761110d90610be5565b5490811561111f576001901b16151590565b50505f9056fe60806040526108d18038038091610015826100f3565b60803960608160800191126100c3576080516001600160401b0381116100c35781609f820112156100c35780608001519061004f8261016d565b9161005d6040519384610139565b80835260a0602084019160051b830101918483116100c35760a001905b8282106100c75750505061008e60a0610184565b60c0516001600160401b0381116100c3576100b5936100af916080016101b3565b916101f9565b60405160b890816107d98239f35b5f80fd5b602080916100d484610184565b81520191019061007a565b634e487b7160e01b5f52604160045260245ffd5b6080601f91909101601f19168101906001600160401b0382119082101761011957604052565b6100df565b604081019081106001600160401b0382111761011957604052565b601f909101601f19168101906001600160401b0382119082101761011957604052565b6040519061016b604083610139565b565b6001600160401b0381116101195760051b60200190565b51906001600160a01b03821682036100c357565b6001600160401b03811161011957601f01601f191660200190565b81601f820112156100c3578051906101ca82610198565b926101d86040519485610139565b828452602083830101116100c357815f9260208093018386015e8301015290565b8051905f5b828110610212575050509061016b91610680565b61022c61021f8284610450565b516001600160a01b031690565b6001600160a01b038116801561042d57813b1561041157604051630f98899f60e21b8152905f82600481845afa91821561040c575f926103e8575b50815160021c9182156103cc575f5160206108b15f395f51905f525461ffff16905f5b84811061029f575050505050506001016101fe565b60208160021b83010151926102f06102e46102d78663ffffffff60e01b165f525f5160206108915f395f51905f5260205260405f2090565b546001600160a01b031690565b6001600160a01b031690565b6103af57908461037a60019361036c61030761015c565b6001600160a01b038c8116825261ffff841660208084019182526001600160e01b03198c165f9081525f5160206108915f395f51905f529091526040902092518354915161ffff60a01b60a09190911b1692166001600160b01b031990911617179055565b6103758761049c565b61050f565b946001600160e01b0319167f8ebe71df07c7735e3354de642e0e78bd4883f86387fd862933fb2bda80a33ac45f80a30161028a565b63728b6a3f60e01b5f526001600160e01b0319841660045260245ffd5b639204b01f60e01b5f526001600160a01b03841660045260245ffd5b6104059192503d805f833e6103fd8183610139565b810190610469565b905f610267565b610491565b630be58b3960e11b5f526001600160a01b03821660045260245ffd5b637a529df560e11b5f5260045ffd5b634e487b7160e01b5f52603260045260245ffd5b80518210156104645760209160051b010190565b61043c565b906020828203126100c35781516001600160401b0381116100c35761048e92016101b3565b90565b6040513d5f823e3d90fd5b5f5160206108b15f395f51905f525490680100000000000000008210156101195760018201805f5160206108b15f395f51905f5255821015610464575f5160206108b15f395f51905f525f5260205f208260031c019163ffffffff60e084549260051b169260e01c831b921b1916179055565b61ffff1661ffff81146105225760010190565b634e487b7160e01b5f52601160045260245ffd5b6020818303126100c3578051906001600160401b0382116100c357019080601f830112156100c35781519161056a8361016d565b926105786040519485610139565b80845260208085019160051b830101918383116100c35760208101915b8383106105a457505050505090565b82516001600160401b0381116100c3578201906040828703601f1901126100c357604051906105d28261011e565b6105de60208401610184565b82526040830151916001600160401b0383116100c357610606886020809695819601016101b3565b83820152815201920191610595565b3d1561063f573d9061062682610198565b916106346040519384610139565b82523d5f602084013e565b606090565b6001600160a01b0390911681526040602080830182905283519183018290526060938291018484015e5f828201840152601f01601f1916010190565b906001600160a01b03821680156107d35773d1a302d1a302d1a302d1a302d1a302d1a302d1a31461070057813b15610411575f80825160208401855af4916106c6610615565b92156106d157505050565b8251156106e057825160208401fd5b6106fc604051928392636be7954360e11b845260048401610644565b0390fd5b610714915060208082518301019101610536565b80515f5b81811061072457505050565b61073f6107318285610450565b51516001600160a01b031690565b803b156107b8575f8060206107548588610450565b510151602081519101845af490610769610615565b9115610779575050600101610718565b8151839086901561078c57835160208501fd5b60209161079891610450565b510151604051636be7954360e11b81529182916106fc9160048401610644565b630be58b3960e11b5f526001600160a01b031660045260245ffd5b50505056fe608060405236156080575f80356001600160e01b0319168082527f49e5d4b4dffd3ea9dfcc29574ccfe2842c2a5e7f5ff2aa4017ab24c98e9215556020526040909120546001600160a01b0316908115606e575f8083368280378136915af43d5f803e15606a573d5ff35b3d5ffd5b632cf008a360e21b5f5260045260245ffd5b00fea26469706673582212200e66529fbf525de0fcb687c887fa7cb6efa2cec66eb5a888d92b7f9f89e5b41e64736f6c634300081e003349e5d4b4dffd3ea9dfcc29574ccfe2842c2a5e7f5ff2aa4017ab24c98e92155549e5d4b4dffd3ea9dfcc29574ccfe2842c2a5e7f5ff2aa4017ab24c98e921556c167b7763ed3ad5eefe174ec9e6dbd27dcfe0f5ab9e028e4d97d412d6a27e7dfc167b7763ed3ad5eefe174ec9e6dbd27dcfe0f5ab9e028e4d97d412d6a27e7e3c167b7763ed3ad5eefe174ec9e6dbd27dcfe0f5ab9e028e4d97d412d6a27e7e0a264697066735822122066f03eac3dee6641141552e3a23531c3148eda0827e6c6d505fcf49b0656bd2864736f6c634300081e0033","linkReferences":{}},"methodIdentifiers":{"FACTORY_ADMIN_ROLE()":"3360cf5e","FactoryCore_init(address,address,address,uint256)":"d15d4150","createDiamond(address[],address,bytes,bytes32)":"90d60d1c","getAllDiamonds()":"a9856cf9","getCreationFee()":"db07b68e","getDiamondsByDeployer(address)":"3be668b8","getFacetRegistry()":"04af7300","isDiamondDeployed(address)":"12cf4801","packedSelectors()":"3e62267c","predictDiamondAddress(address,address[],address,bytes,bytes32)":"d5cd29fd","setCreationFee(uint256)":"b7d86225","setFacetRegistry(address)":"dd31b0a1","setTreasury(address)":"f0f44260"},"id":127}