{"abi":[{"type":"function","name":"FeeAccrual_init","inputs":[{"name":"config","type":"tuple","internalType":"struct IFeeAccrual.FeeConfig","components":[{"name":"managementFeeBps","type":"uint256","internalType":"uint256"},{"name":"carryBps","type":"uint256","internalType":"uint256"},{"name":"hurdleBps","type":"uint256","internalType":"uint256"},{"name":"feeRecipient","type":"address","internalType":"address"},{"name":"feeBase","type":"uint8","internalType":"enum IFeeAccrual.FeeBase"}]},{"name":"paymentToken","type":"address","internalType":"address"}],"outputs":[],"stateMutability":"nonpayable"},{"type":"function","name":"accrueManagementFee","inputs":[{"name":"currentNAV","type":"uint256","internalType":"uint256"}],"outputs":[{"name":"accruedAmount","type":"uint256","internalType":"uint256"}],"stateMutability":"nonpayable"},{"type":"function","name":"calculateCarry","inputs":[{"name":"distributionAmount","type":"uint256","internalType":"uint256"},{"name":"totalContributed","type":"uint256","internalType":"uint256"},{"name":"totalPriorDistributions","type":"uint256","internalType":"uint256"}],"outputs":[{"name":"carryAmount","type":"uint256","internalType":"uint256"},{"name":"lpAmount","type":"uint256","internalType":"uint256"}],"stateMutability":"view"},{"type":"function","name":"calculatePendingAccrual","inputs":[{"name":"currentNAV","type":"uint256","internalType":"uint256"}],"outputs":[{"name":"pendingFees","type":"uint256","internalType":"uint256"}],"stateMutability":"view"},{"type":"function","name":"getAccruedFees","inputs":[],"outputs":[{"name":"managementFee","type":"uint256","internalType":"uint256"}],"stateMutability":"view"},{"type":"function","name":"getFeeConfig","inputs":[],"outputs":[{"name":"","type":"tuple","internalType":"struct IFeeAccrual.FeeConfig","components":[{"name":"managementFeeBps","type":"uint256","internalType":"uint256"},{"name":"carryBps","type":"uint256","internalType":"uint256"},{"name":"hurdleBps","type":"uint256","internalType":"uint256"},{"name":"feeRecipient","type":"address","internalType":"address"},{"name":"feeBase","type":"uint8","internalType":"enum IFeeAccrual.FeeBase"}]}],"stateMutability":"view"},{"type":"function","name":"getFeeState","inputs":[],"outputs":[{"name":"","type":"tuple","internalType":"struct IFeeAccrual.FeeState","components":[{"name":"accruedManagementFee","type":"uint256","internalType":"uint256"},{"name":"totalManagementFeesPaid","type":"uint256","internalType":"uint256"},{"name":"totalCarryPaid","type":"uint256","internalType":"uint256"},{"name":"lastAccrualTimestamp","type":"uint256","internalType":"uint256"},{"name":"lastSettlementTimestamp","type":"uint256","internalType":"uint256"}]}],"stateMutability":"view"},{"type":"function","name":"getNetNAV","inputs":[{"name":"grossNAV","type":"uint256","internalType":"uint256"}],"outputs":[{"name":"netNAV","type":"uint256","internalType":"uint256"}],"stateMutability":"view"},{"type":"function","name":"getPaymentToken","inputs":[],"outputs":[{"name":"","type":"address","internalType":"address"}],"stateMutability":"view"},{"type":"function","name":"getTotalFeesPaid","inputs":[],"outputs":[{"name":"managementFees","type":"uint256","internalType":"uint256"},{"name":"carry","type":"uint256","internalType":"uint256"}],"stateMutability":"view"},{"type":"function","name":"isFeeAccrualInitialized","inputs":[],"outputs":[{"name":"","type":"bool","internalType":"bool"}],"stateMutability":"view"},{"type":"function","name":"packedSelectors","inputs":[],"outputs":[{"name":"","type":"bytes","internalType":"bytes"}],"stateMutability":"pure"},{"type":"function","name":"recordCarryPaid","inputs":[{"name":"amount","type":"uint256","internalType":"uint256"}],"outputs":[],"stateMutability":"nonpayable"},{"type":"function","name":"setFeeConfig","inputs":[{"name":"config","type":"tuple","internalType":"struct IFeeAccrual.FeeConfig","components":[{"name":"managementFeeBps","type":"uint256","internalType":"uint256"},{"name":"carryBps","type":"uint256","internalType":"uint256"},{"name":"hurdleBps","type":"uint256","internalType":"uint256"},{"name":"feeRecipient","type":"address","internalType":"address"},{"name":"feeBase","type":"uint8","internalType":"enum IFeeAccrual.FeeBase"}]}],"outputs":[],"stateMutability":"nonpayable"},{"type":"function","name":"setFeeRecipient","inputs":[{"name":"recipient","type":"address","internalType":"address"}],"outputs":[],"stateMutability":"nonpayable"},{"type":"function","name":"settleManagementFee","inputs":[{"name":"currentNAV","type":"uint256","internalType":"uint256"}],"outputs":[{"name":"feesPaid","type":"uint256","internalType":"uint256"}],"stateMutability":"nonpayable"},{"type":"function","name":"updateFeeBaseValue","inputs":[{"name":"value","type":"uint256","internalType":"uint256"}],"outputs":[],"stateMutability":"nonpayable"},{"type":"event","name":"CarryCalculated","inputs":[{"name":"distributionAmount","type":"uint256","indexed":false,"internalType":"uint256"},{"name":"profit","type":"uint256","indexed":false,"internalType":"uint256"},{"name":"carryAmount","type":"uint256","indexed":false,"internalType":"uint256"},{"name":"recipient","type":"address","indexed":false,"internalType":"address"}],"anonymous":false},{"type":"event","name":"FeeConfigUpdated","inputs":[{"name":"managementFeeBps","type":"uint256","indexed":false,"internalType":"uint256"},{"name":"carryBps","type":"uint256","indexed":false,"internalType":"uint256"},{"name":"hurdleBps","type":"uint256","indexed":false,"internalType":"uint256"},{"name":"feeRecipient","type":"address","indexed":false,"internalType":"address"},{"name":"feeBase","type":"uint8","indexed":false,"internalType":"enum IFeeAccrual.FeeBase"}],"anonymous":false},{"type":"event","name":"FeeSettled","inputs":[{"name":"amount","type":"uint256","indexed":false,"internalType":"uint256"},{"name":"recipient","type":"address","indexed":false,"internalType":"address"}],"anonymous":false},{"type":"event","name":"ManagementFeeAccrued","inputs":[{"name":"amount","type":"uint256","indexed":false,"internalType":"uint256"},{"name":"feeBase","type":"uint256","indexed":false,"internalType":"uint256"},{"name":"daysAccrued","type":"uint256","indexed":false,"internalType":"uint256"},{"name":"totalAccrued","type":"uint256","indexed":false,"internalType":"uint256"}],"anonymous":false},{"type":"error","name":"AccessControl_CallerIsNotAuthorized","inputs":[{"name":"caller","type":"address","internalType":"address"},{"name":"functionSig","type":"bytes4","internalType":"bytes4"}]},{"type":"error","name":"FeeAccrual_AccrualTooRecent","inputs":[]},{"type":"error","name":"FeeAccrual_AlreadyInitialized","inputs":[]},{"type":"error","name":"FeeAccrual_InsufficientBalance","inputs":[]},{"type":"error","name":"FeeAccrual_InvalidFeeRate","inputs":[]},{"type":"error","name":"FeeAccrual_InvalidRecipient","inputs":[]},{"type":"error","name":"FeeAccrual_NoFeesToSettle","inputs":[]},{"type":"error","name":"FeeAccrual_NotInitialized","inputs":[]},{"type":"error","name":"SafeERC20FailedOperation","inputs":[{"name":"token","type":"address","internalType":"address"}]}],"bytecode":{"object":"0x60808060405234601557611487908161001a8239f35b5f80fdfe6080806040526004361015610012575f80fd5b5f35908160e01c9081630fca453d14610baa575080631b1b50d714610a8a5780631f3da15014610a6157806331a3140d14610a255780633e62267c146109055780635fbbc0d2146108345780636cf73804146107f85780639133a2f0146107da578063a230beb2146107bc578063b474274c1461074f578063c607ca5a1461068a578063d41c3a6514610652578063d5872bbc1461060b578063ddc563ca146105ce578063e74b981b14610565578063ea3fdd66146104085763f7ebf0cf146100d9575f80fd5b34610303576020366003190112610303576001600160e01b0319166100fe8133611094565b156103f2575f5160206113f25f395f51905f525460ff8116156103e3576101335f5160206113525f395f51905f525442610ce2565b8061031e575b505f5160206114125f395f51905f525490811561030f576040516370a0823160e01b815230600482015260089190911c6001600160a01b03169190602081602481865afa80156102bc5782915f916102d6575b50106102c7575f5f5160206114125f395f51905f52556101ba815f5160206113d25f395f51905f5254610da3565b5f5160206113d25f395f51905f5255427f82ec8343762457bc16af7306da0344d306c5b769118dbec3878a67b6f098a792555f5160206114325f395f51905f525460405163a9059cbb60e01b60208083019182526001600160a01b039093166024830152604480830185905282525f91610235606482610c96565b519082865af1156102bc575f513d6102b35750813b155b6102a0576020907f325e1457e1b16e60663ecc9d25b1597cbe647452dce9ab22e7a25d2823ce3d4c604060018060a01b035f5160206114325f395f51905f52541681519084825285820152a1604051908152f35b50635274afe760e01b5f5260045260245ffd5b6001141561024c565b6040513d5f823e3d90fd5b63160e059f60e21b5f5260045ffd5b9150506020813d602011610307575b816102f260209383610c96565b81010312610303578190518461018c565b5f80fd5b3d91506102e5565b63ecb747a160e01b5f5260045ffd5b60ff5f5160206114325f395f51905f525460a01c1660038110156103cf576002036103ba57600435905b81610354575b50610139565b61037f64496cebb8009161037a610394945f5160206113725f395f51905f525490610d03565b610d03565b045f5160206114125f395f51905f5254610da3565b5f5160206114125f395f51905f5255425f5160206113525f395f51905f5255818061034e565b5f5160206113125f395f51905f525490610348565b634e487b7160e01b5f52602160045260245ffd5b633c028a8560e11b5f5260045ffd5b631d64bc3360e11b5f523360045260245260445ffd5b3461030357366003190160c081126103035760a0136103035760a4356001600160a01b0381168082036103035715610547576004356103e8811161055657602435916113888311610556576001600160a01b03610463610be2565b1615610547575f5160206113f25f395f51905f525460ff8116610538576001600160a81b03191660089190911b610100600160a81b0316176001175f5160206113f25f395f51905f52555f5160206113725f395f51905f52555f5160206113b25f395f51905f52556044355f5160206113325f395f51905f52556104ed6104e8610be2565b610bf8565b60843560038110156103035761050290610c32565b425f5160206113525f395f51905f528190557f82ec8343762457bc16af7306da0344d306c5b769118dbec3878a67b6f098a79255005b63ccd85ee760e01b5f5260045ffd5b63349fc67960e01b5f5260045ffd5b632b824a0b60e21b5f5260045ffd5b503461030357602036600319011261030357600435906001600160a01b03821690818303610303576001600160e01b0319166105a18133611094565b156103f2575060ff5f5160206113f25f395f51905f525416156103e35715610547576105cc90610bf8565b005b346103035760203660031901126103035760ff5f5160206113f25f395f51905f525416156103e3576020610603600435610f3d565b604051908152f35b346103035760603660031901126103035760ff5f5160206113f25f395f51905f525416156103e3576040610646604435602435600435610e8d565b82519182526020820152f35b34610303575f366003190112610303575f5160206113f25f395f51905f525460405160089190911c6001600160a01b03168152602090f35b34610303575f366003190112610303576106a2610cb8565b5060a05f5160206114125f395f51905f52545f5160206113d25f395f51905f52545f5160206113925f395f51905f52545f5160206113525f395f51905f5254907f82ec8343762457bc16af7306da0344d306c5b769118dbec3878a67b6f098a7925492608060405161071381610c66565b86815260208101928352604081019384526060810194855201938452604051948552516020850152516040840152516060830152516080820152f35b5034610303576020366003190112610303576001600160e01b0319166107758133611094565b156103f25760ff5f5160206113f25f395f51905f525416156103e3576107ab6004355f5160206113925f395f51905f5254610da3565b5f5160206113925f395f51905f5255005b34610303576020366003190112610303576020610603600435610db0565b34610303576020366003190112610303576020610603600435610d16565b34610303575f3660031901126103035760405f5160206113d25f395f51905f52545f5160206113925f395f51905f525482519182526020820152f35b34610303575f3660031901126103035761084c610cb8565b505f5160206113725f395f51905f52545f5160206113b25f395f51905f5254905f5160206113325f395f51905f52545f5160206114325f395f51905f52549060ff8260a01c1691604051936108a085610c66565b845260208401948552604084019182526001600160a01b031660608401908152608084019160038410156103cf5760a09561090394845260405195518652516020860152516040850152600180861b039051166060840152516080830190610bd5565bf35b34610303575f366003190112610303576040805163751feeb360e11b60208201908152636ee2b1e560e11b6024830152633561caef60e21b60288301526309133a2f60e41b602c8301526301f3da1560e41b6030830152632fdde06960e11b6034830152636303e52d60e11b60388301526351185f5960e11b603c83015263d41c3a6560e01b82840152631b3dce0160e21b6044830152630fca453d60e01b6048830152632d1d09d360e21b604c830152631b1b50d760e01b605083015263e74b981b60e01b605483015263f7ebf0cf60e01b60588301526331a3140d60e01b605c83015282825291906109fa606082610c96565b8151928391602083525180918160208501528484015e5f828201840152601f01601f19168101030190f35b346103035760203660031901126103035760ff5f5160206113f25f395f51905f525416156103e3576004355f5160206113125f395f51905f5255005b34610303575f3660031901126103035760205f5160206114125f395f51905f5254604051908152f35b50346103035760a0366003190112610303576001600160e01b031916610ab08133611094565b156103f25760ff5f5160206113f25f395f51905f525416156103e3576004356103e88111610556576024356113888111610556576001600160a01b03610af4610be2565b161561054757815f5160206113725f395f51905f5255805f5160206113b25f395f51905f525560443591825f5160206113325f395f51905f5255610b396104e8610be2565b608435926003841015610303578360a093610ba792610b787fd15164ebacf05fcfdd42b3b95e67ab11c76c6b10e9eb68e2cf2edc3db66e9a5b97610c32565b610b80610be2565b9160405195865260208601526040850152600180861b031660608401526080830190610bd5565ba1005b34610303575f3660031901126103035760209060ff5f5160206113f25f395f51905f52541615158152f35b9060038210156103cf5752565b6064356001600160a01b03811681036103035790565b60018060a01b03166bffffffffffffffffffffffff60a01b5f5160206114325f395f51905f525416175f5160206114325f395f51905f5255565b60038110156103cf575f5160206114325f395f51905f52805460ff60a01b191660a09290921b60ff60a01b16919091179055565b60a0810190811067ffffffffffffffff821117610c8257604052565b634e487b7160e01b5f52604160045260245ffd5b90601f8019910116810190811067ffffffffffffffff821117610c8257604052565b60405190610cc582610c66565b5f6080838281528260208201528260408201528260608201520152565b91908203918211610cef57565b634e487b7160e01b5f52601160045260245ffd5b81810292918115918404141715610cef57565b610d2e5f5160206113525f395f51905f525442610ce2565b908115610d885760ff5f5160206114325f395f51905f525460a01c1660038110156103cf57600203610d8e575b8015610d885764496cebb8009161037a610d84925f5160206113725f395f51905f525490610d03565b0490565b50505f90565b505f5160206113125f395f51905f5254610d5b565b91908201809211610cef57565b5f610dc95f5160206113525f395f51905f525442610ce2565b9081151580610e84575b610e0a575b610df191505f5160206114125f395f51905f5254610da3565b808211610dfe5750505f90565b610e0791610ce2565b90565b60ff5f5160206114325f395f51905f525460a01c169160038310156103cf57610df192600203610e7057835b80610e43575b5050610dd8565b64496cebb80092509061037a610e68925f5160206113725f395f51905f525490610d03565b045f80610e3c565b5f5160206113125f395f51905f5254610e36565b50821515610dd3565b929190610e9a8483610da3565b9181831115610f3557610ec8612710610ec15f5160206113325f395f51905f525485610d03565b0483610da3565b9283811115610f2c57838210610f045750505050610e07612710610efc845b5f5160206113b25f395f51905f525490610d03565b048093610ce2565b610e079361271093610efc9310610f2357610f1e91610ce2565b610ee7565b610f1e91610ce2565b505050505f9190565b5050505f9190565b610f555f5160206113525f395f51905f525442610ce2565b908115610d885760ff5f5160206114325f395f51905f525460a01c1660038110156103cf5760020361107e57905b8115610d8857620151808104801591821561105657610fba64496cebb8009161037a5f5160206113725f395f51905f525487610d03565b04925b83610fc9575b50505090565b7f03a74e6bcb5a1507d2be8436fb49d76de42938e9d916262bec301e681b81895d92608092611006865f5160206114125f395f51905f5254610da3565b91825f5160206114125f395f51905f5255425f5160206113525f395f51905f5255155f1461104e575b60405192868452602084015260408301526060820152a15f8080610fc3565b50600161102f565b506237b1d06110778261037a5f5160206113725f395f51905f525487610d03565b0492610fbd565b505f5160206113125f395f51905f525490610f83565b8161109e916110e2565b6110dc577f511915e52b7f9e690b9fdc662acaf5600fd3722c87eb951d3abd26e93a784dca5c9060ff82166110d35750505f90565b610e07916112c2565b50600190565b7fce1c17acaaa67de66e928cd49c8f658667a825223bee6fda99a14908362bcdac546001600160a01b031680611217575b5060018060a01b0381165f527fce1c17acaaa67de66e928cd49c8f658667a825223bee6fda99a14908362bcdaa60205260405f20549163ffffffff60e01b165f527fce1c17acaaa67de66e928cd49c8f658667a825223bee6fda99a14908362bcdab60205260405f20549081156111d3576001600160a01b03165f9081527fce1c17acaaa67de66e928cd49c8f658667a825223bee6fda99a14908362bcdaa602052604090205460011615159182156111cb57505090565b161515919050565b6001600160a01b03165f9081527fce1c17acaaa67de66e928cd49c8f658667a825223bee6fda99a14908362bcdaa602052604090205460011615159150610e079050565b6040805163b700961360e01b81526001600160a01b03841660048201523060248201526001600160e01b03198516604482015291829060649082905afa5f9181611273575b50156111135761126c575f611113565b5050600190565b9091506040813d6040116112ba575b8161128f60409383610c96565b81010312610303578051908115158203610303576020015163ffffffff81160361030357905f61125c565b3d9150611282565b60ff1690811561126c5763ffffffff60e01b165f527fce1c17acaaa67de66e928cd49c8f658667a825223bee6fda99a14908362bcdab60205260405f2054908115610d88576001901b1615159056fe82ec8343762457bc16af7306da0344d306c5b769118dbec3878a67b6f098a79382ec8343762457bc16af7306da0344d306c5b769118dbec3878a67b6f098a78c82ec8343762457bc16af7306da0344d306c5b769118dbec3878a67b6f098a79182ec8343762457bc16af7306da0344d306c5b769118dbec3878a67b6f098a78a82ec8343762457bc16af7306da0344d306c5b769118dbec3878a67b6f098a79082ec8343762457bc16af7306da0344d306c5b769118dbec3878a67b6f098a78b82ec8343762457bc16af7306da0344d306c5b769118dbec3878a67b6f098a78f82ec8343762457bc16af7306da0344d306c5b769118dbec3878a67b6f098a78982ec8343762457bc16af7306da0344d306c5b769118dbec3878a67b6f098a78e82ec8343762457bc16af7306da0344d306c5b769118dbec3878a67b6f098a78da26469706673582212201b1a85708232043aa7075a68ea574ad503355888d9d35a5ece36b0b9be64c24564736f6c634300081e0033","linkReferences":{}},"methodIdentifiers":{"FeeAccrual_init((uint256,uint256,uint256,address,uint8),address)":"ea3fdd66","accrueManagementFee(uint256)":"ddc563ca","calculateCarry(uint256,uint256,uint256)":"d5872bbc","calculatePendingAccrual(uint256)":"9133a2f0","getAccruedFees()":"1f3da150","getFeeConfig()":"5fbbc0d2","getFeeState()":"c607ca5a","getNetNAV(uint256)":"a230beb2","getPaymentToken()":"d41c3a65","getTotalFeesPaid()":"6cf73804","isFeeAccrualInitialized()":"0fca453d","packedSelectors()":"3e62267c","recordCarryPaid(uint256)":"b474274c","setFeeConfig((uint256,uint256,uint256,address,uint8))":"1b1b50d7","setFeeRecipient(address)":"e74b981b","settleManagementFee(uint256)":"f7ebf0cf","updateFeeBaseValue(uint256)":"31a3140d"},"id":348}