{"abi":[{"type":"function","name":"acquisitionDate","inputs":[{"name":"","type":"address","internalType":"address"},{"name":"","type":"bytes32","internalType":"bytes32"},{"name":"","type":"address","internalType":"address"}],"outputs":[{"name":"","type":"uint256","internalType":"uint256"}],"stateMutability":"view"},{"type":"function","name":"batchSetAcquisitionDates","inputs":[{"name":"token","type":"address","internalType":"address"},{"name":"lotIds","type":"bytes32[]","internalType":"bytes32[]"},{"name":"holders","type":"address[]","internalType":"address[]"},{"name":"dates","type":"uint256[]","internalType":"uint256[]"}],"outputs":[],"stateMutability":"nonpayable"},{"type":"function","name":"getDaysRemaining","inputs":[{"name":"token","type":"address","internalType":"address"},{"name":"lotId","type":"bytes32","internalType":"bytes32"},{"name":"holder","type":"address","internalType":"address"}],"outputs":[{"name":"","type":"uint256","internalType":"uint256"}],"stateMutability":"view"},{"type":"function","name":"getUnlockDate","inputs":[{"name":"token","type":"address","internalType":"address"},{"name":"lotId","type":"bytes32","internalType":"bytes32"},{"name":"holder","type":"address","internalType":"address"}],"outputs":[{"name":"","type":"uint256","internalType":"uint256"}],"stateMutability":"view"},{"type":"function","name":"holdingPeriod","inputs":[{"name":"","type":"address","internalType":"address"}],"outputs":[{"name":"","type":"uint256","internalType":"uint256"}],"stateMutability":"view"},{"type":"function","name":"isUnlocked","inputs":[{"name":"token","type":"address","internalType":"address"},{"name":"lotId","type":"bytes32","internalType":"bytes32"},{"name":"holder","type":"address","internalType":"address"}],"outputs":[{"name":"","type":"bool","internalType":"bool"}],"stateMutability":"view"},{"type":"function","name":"moduleName","inputs":[],"outputs":[{"name":"","type":"string","internalType":"string"}],"stateMutability":"pure"},{"type":"function","name":"moduleVersion","inputs":[],"outputs":[{"name":"","type":"string","internalType":"string"}],"stateMutability":"pure"},{"type":"function","name":"processTransfer","inputs":[{"name":"from","type":"address","internalType":"address"},{"name":"to","type":"address","internalType":"address"},{"name":"lotId","type":"bytes32","internalType":"bytes32"},{"name":"","type":"uint256","internalType":"uint256"}],"outputs":[],"stateMutability":"nonpayable"},{"type":"function","name":"setAcquisitionDate","inputs":[{"name":"token","type":"address","internalType":"address"},{"name":"lotId","type":"bytes32","internalType":"bytes32"},{"name":"holder","type":"address","internalType":"address"},{"name":"date","type":"uint256","internalType":"uint256"}],"outputs":[],"stateMutability":"nonpayable"},{"type":"function","name":"setHoldingPeriod","inputs":[{"name":"token","type":"address","internalType":"address"},{"name":"period","type":"uint256","internalType":"uint256"}],"outputs":[],"stateMutability":"nonpayable"},{"type":"function","name":"tokenOwner","inputs":[{"name":"","type":"address","internalType":"address"}],"outputs":[{"name":"","type":"address","internalType":"address"}],"stateMutability":"view"},{"type":"function","name":"validateTransfer","inputs":[{"name":"from","type":"address","internalType":"address"},{"name":"to","type":"address","internalType":"address"},{"name":"lotId","type":"bytes32","internalType":"bytes32"},{"name":"","type":"uint256","internalType":"uint256"}],"outputs":[{"name":"","type":"bool","internalType":"bool"}],"stateMutability":"view"},{"type":"event","name":"AcquisitionDateSet","inputs":[{"name":"token","type":"address","indexed":true,"internalType":"address"},{"name":"lotId","type":"bytes32","indexed":true,"internalType":"bytes32"},{"name":"holder","type":"address","indexed":true,"internalType":"address"},{"name":"date","type":"uint256","indexed":false,"internalType":"uint256"}],"anonymous":false},{"type":"event","name":"AcquisitionDateUpdated","inputs":[{"name":"token","type":"address","indexed":true,"internalType":"address"},{"name":"lotId","type":"bytes32","indexed":true,"internalType":"bytes32"},{"name":"holder","type":"address","indexed":true,"internalType":"address"},{"name":"date","type":"uint256","indexed":false,"internalType":"uint256"}],"anonymous":false},{"type":"event","name":"HoldingPeriodSet","inputs":[{"name":"token","type":"address","indexed":true,"internalType":"address"},{"name":"period","type":"uint256","indexed":false,"internalType":"uint256"}],"anonymous":false},{"type":"error","name":"HoldingPeriod_UnauthorizedCaller","inputs":[]},{"type":"error","name":"LengthMismatch","inputs":[]}],"bytecode":{"object":"0x608080604052346015576108cf908161001a8239f35b5f80fdfe60806040526004361015610011575f80fd5b5f3560e01c80631ecbdfe31461051b5780633ab69b62146104db5780633e46709d146104bd57806363586775146104a45780636e1b20241461044d5780637c1e8f01146103b957806386464386146102325780638eb144c8146101fb57806393f0899a1461019b578063962b155914610177578063baa3b4d71461010f578063c73b31ab146100c65763e00e83c3146100a8575f80fd5b346100c2576100c06100b936610630565b50916107af565b005b5f80fd5b346100c2576100d43661059b565b9160018060a01b03165f52600160205260405f20905f5260205260405f209060018060a01b03165f52602052602060405f2054604051908152f35b346100c2575f3660031901126100c257604051604081019080821067ffffffffffffffff8311176101635761015f9160405260058152640312e302e360dc1b602082015260405191829182610606565b0390f35b634e487b7160e01b5f52604160045260245ffd5b346100c257602061019161018a36610630565b509161072a565b6040519015158152f35b346100c2575f3660031901126100c257604051604081019080821067ffffffffffffffff8311176101635761015f916040526015815274486f6c64696e6720506572696f64204d6f64756c6560581b602082015260405191829182610606565b346100c25760203660031901126100c2576001600160a01b0361021c610585565b165f525f602052602060405f2054604051908152f35b346100c25760803660031901126100c25761024b610585565b60243567ffffffffffffffff81116100c25761026b9036906004016105d5565b60449291923567ffffffffffffffff81116100c25761028e9036906004016105d5565b9160643567ffffffffffffffff81116100c2576102af9036906004016105d5565b90936102ba8661083a565b8083148015906103af575b6103a05791946001600160a01b0316915f5b8681106102e057005b808686867f3f927137799a7816600e18539d1db49605195605a3a39cacc1d1235d8e13a89e6020610389868f8f61035d838d8f948260019f9561037c928f8f8f916103839a8c61032f926106f2565b35915f5260018e5260405f206103468686866106f2565b355f528e5261036261035d868960405f20946106f2565b610716565b6001600160a01b03165f908152908e5260409020556106f2565b359a6106f2565b976106f2565b3594604051958652878060a01b031694a4016102d7565b631fec674760e31b5f5260045ffd5b50818114156102c5565b346100c25760803660031901126100c2576103d2610585565b6044356001600160a01b03811691602435918390036100c2577f3f927137799a7816600e18539d1db49605195605a3a39cacc1d1235d8e13a89e60206064359261041b8161083a565b6001600160a01b03165f81815260018352604080822087835284528082208883528452908190208590555193845292a4005b346100c257602061049c6104603661059b565b6001600160a01b039283165f8181526001875260408082209482529387528381209490921682529285528181205492815280855220549061066e565b604051908152f35b346100c257602061049c6104b73661059b565b9161068f565b346100c25760206104d06104603661059b565b421015604051908152f35b346100c25760203660031901126100c2576001600160a01b036104fc610585565b165f526002602052602060018060a01b0360405f205416604051908152f35b346100c25760403660031901126100c257610534610585565b7fddf9459b850154ef3755107195498307b22d9f75167f76b0dc0f3e736581e2e06020602435926105648161083a565b6001600160a01b03165f8181528083526040908190208590555193845292a2005b600435906001600160a01b03821682036100c257565b60609060031901126100c2576004356001600160a01b03811681036100c25790602435906044356001600160a01b03811681036100c25790565b9181601f840112156100c25782359167ffffffffffffffff83116100c2576020808501948460051b0101116100c257565b602060409281835280519182918282860152018484015e5f828201840152601f01601f1916010190565b60809060031901126100c2576004356001600160a01b03811681036100c257906024356001600160a01b03811681036100c257906044359060643590565b9190820180921161067b57565b634e487b7160e01b5f52601160045260245ffd5b6001600160a01b039081165f818152600160209081526040808320958352948152848220939095168152918452828220549082529281905220546106d29161066e565b804210156106ed5742810390811161067b5762015180900490565b505f90565b91908110156107025760051b0190565b634e487b7160e01b5f52603260045260245ffd5b356001600160a01b03811681036100c25790565b906001600160a01b0382161590811561079d575b5061079657335f525f60205260405f205490811561078e5761078892335f52600160205260405f20905f5260205260405f209060018060a01b03165f5260205260405f205461066e565b42101590565b505050600190565b5050600190565b6001600160a01b03161590505f61073e565b9091906001600160a01b0316158015610829575b61082557335f81815260016020908152604080832085845282528083206001600160a01b039690961680845295825291829020429081905591519182527fc8b9632b1b773f92f5fe3e57d8de103f875d123e71a0d3f63223831ded45145191a4565b5050565b506001600160a01b038216156107c3565b6001600160a01b039081165f818152600260205260409020549091168061088057505f52600260205260405f20336bffffffffffffffffffffffff60a01b825416179055565b9050330361088a57565b6386d4419b60e01b5f5260045ffdfea2646970667358221220ba5b6def445f0e306dee634fe557e6f5ce434b4731c77416b1351fffa989a0d364736f6c634300081e0033","linkReferences":{}},"methodIdentifiers":{"acquisitionDate(address,bytes32,address)":"c73b31ab","batchSetAcquisitionDates(address,bytes32[],address[],uint256[])":"86464386","getDaysRemaining(address,bytes32,address)":"63586775","getUnlockDate(address,bytes32,address)":"6e1b2024","holdingPeriod(address)":"8eb144c8","isUnlocked(address,bytes32,address)":"3e46709d","moduleName()":"93f0899a","moduleVersion()":"baa3b4d7","processTransfer(address,address,bytes32,uint256)":"e00e83c3","setAcquisitionDate(address,bytes32,address,uint256)":"7c1e8f01","setHoldingPeriod(address,uint256)":"1ecbdfe3","tokenOwner(address)":"3ab69b62","validateTransfer(address,address,bytes32,uint256)":"962b1559"},"id":237}