{"abi":[{"type":"function","name":"claimExternalIncome","inputs":[{"name":"distributionContract","type":"address","internalType":"address"},{"name":"distributionId","type":"uint256","internalType":"uint256"},{"name":"sourceAsset","type":"address","internalType":"address"},{"name":"incomeType","type":"uint8","internalType":"enum IIncomeReceivable.IncomeType"},{"name":"description","type":"string","internalType":"string"}],"outputs":[{"name":"amount","type":"uint256","internalType":"uint256"}],"stateMutability":"nonpayable"},{"type":"function","name":"classifyReceivedIncome","inputs":[{"name":"token","type":"address","internalType":"address"},{"name":"amount","type":"uint256","internalType":"uint256"},{"name":"receivedAt","type":"uint256","internalType":"uint256"},{"name":"incomeType","type":"uint8","internalType":"enum IIncomeReceivable.IncomeType"},{"name":"description","type":"string","internalType":"string"}],"outputs":[],"stateMutability":"nonpayable"},{"type":"function","name":"getClaimableIncome","inputs":[{"name":"distributionContract","type":"address","internalType":"address"},{"name":"distributionId","type":"uint256","internalType":"uint256"}],"outputs":[{"name":"amount","type":"uint256","internalType":"uint256"}],"stateMutability":"view"},{"type":"function","name":"getDistributionDetails","inputs":[{"name":"distributionContract","type":"address","internalType":"address"},{"name":"distributionId","type":"uint256","internalType":"uint256"}],"outputs":[{"name":"paymentToken","type":"address","internalType":"address"},{"name":"totalAmount","type":"uint256","internalType":"uint256"},{"name":"expiresAt","type":"uint256","internalType":"uint256"},{"name":"cancelled","type":"bool","internalType":"bool"}],"stateMutability":"view"},{"type":"function","name":"packedSelectors","inputs":[],"outputs":[{"name":"","type":"bytes","internalType":"bytes"}],"stateMutability":"pure"},{"type":"function","name":"recordOffChainIncome","inputs":[{"name":"sourceAsset","type":"address","internalType":"address"},{"name":"paymentToken","type":"address","internalType":"address"},{"name":"amount","type":"uint256","internalType":"uint256"},{"name":"incomeType","type":"uint8","internalType":"enum IIncomeReceivable.IncomeType"},{"name":"description","type":"string","internalType":"string"}],"outputs":[],"stateMutability":"nonpayable"},{"type":"event","name":"IncomeReceived","inputs":[{"name":"wallet","type":"address","indexed":true,"internalType":"address"},{"name":"sourceAsset","type":"address","indexed":true,"internalType":"address"},{"name":"paymentToken","type":"address","indexed":true,"internalType":"address"},{"name":"amount","type":"uint256","indexed":false,"internalType":"uint256"},{"name":"incomeType","type":"uint8","indexed":false,"internalType":"enum IIncomeReceivable.IncomeType"},{"name":"description","type":"string","indexed":false,"internalType":"string"},{"name":"timestamp","type":"uint256","indexed":false,"internalType":"uint256"}],"anonymous":false},{"type":"event","name":"ReceiptClassified","inputs":[{"name":"wallet","type":"address","indexed":true,"internalType":"address"},{"name":"token","type":"address","indexed":true,"internalType":"address"},{"name":"amount","type":"uint256","indexed":false,"internalType":"uint256"},{"name":"receivedAt","type":"uint256","indexed":false,"internalType":"uint256"},{"name":"incomeType","type":"uint8","indexed":false,"internalType":"enum IIncomeReceivable.IncomeType"}],"anonymous":false},{"type":"error","name":"AccessControl_CallerIsNotAuthorized","inputs":[{"name":"caller","type":"address","internalType":"address"},{"name":"functionSig","type":"bytes4","internalType":"bytes4"}]},{"type":"error","name":"IncomeReceivable_ClaimFailed","inputs":[]},{"type":"error","name":"IncomeReceivable_InvalidAsset","inputs":[]},{"type":"error","name":"IncomeReceivable_InvalidTimestamp","inputs":[]},{"type":"error","name":"IncomeReceivable_ZeroAmount","inputs":[]}],"bytecode":{"object":"0x60808060405234601557610ac6908161001a8239f35b5f80fdfe6080806040526004361015610012575f80fd5b5f35908160e01c9081633e62267c1461063957508063599fedaf14610596578063af185361146104d0578063befb9b781461043d578063d7767dea146103345763e2d75ab314610060575f80fd5b346102535760a0366003190112610253576100796106ca565b6024356044356001600160a01b03811690819003610253576064359360058510156102535760843567ffffffffffffffff8111610253576100be9036906004016106e0565b9490916001600160e01b0319166100d5813361080f565b1561031e5750821561030f57604051633b345a8760e01b8152600481018590526001600160a01b0391909116939060e081602481885afa90811561025f575f916102da575b506040516370a0823160e01b81523060048201526001600160a01b0391909116949091602083602481895afa92831561025f575f936102a6575b505f9160246020926040519485938492631d648ec160e11b845260048401525af15f9181610272575b5061026a57506040516370a0823160e01b815230600482015290602082602481885afa91821561025f575f92610227575b50810390811161021357935b8415610204576020957f67dae0a840ec822f2c13f419d58bacc762c078511f26162dcd1c33a1886a5af6916101f9604051928392309642928b866107ce565b0390a4604051908152f35b63c628184360e01b5f5260045ffd5b634e487b7160e01b5f52601160045260245ffd5b9091506020813d602011610257575b816102436020938361070e565b810103126102535751905f6101ae565b5f80fd5b3d9150610236565b6040513d5f823e3d90fd5b9050936101ba565b9091506020813d60201161029e575b8161028e6020938361070e565b810103126102535751905f61017d565b3d9150610281565b9092506020813d6020116102d2575b816102c26020938361070e565b810103126102535751915f610154565b3d91506102b5565b6102fc915060e03d60e011610308575b6102f4818361070e565b810190610765565b5050505050505f61011a565b503d6102ea565b6355065e1760e11b5f5260045ffd5b631d64bc3360e11b5f523360045260245260445ffd5b50346102535760a03660031901126102535761034e6106ca565b6024359060643560443560058210156102535760843567ffffffffffffffff8111610253576103819036906004016106e0565b956001600160e01b031916610396813361080f565b1561031e575084156102045742821161042e575f857f67dae0a840ec822f2c13f419d58bacc762c078511f26162dcd1c33a1886a5af66104069660018060a01b03169889946103ee876040519384938b3098866107ce565b0390a4604051938452602084015260408301906107ad565b7f2529dc303fa92dfa40446d49bd91c6636758588b8d1acb5e216fedc2291ffd9060603092a3005b639367e0fb60e01b5f5260045ffd5b34610253576040366003190112610253576044602061045a6106ca565b604051633c628caf60e11b8152602480356004830152309082015292839182906001600160a01b03165afa801561025f575f9061049d575b602090604051908152f35b506020813d6020116104c8575b816104b76020938361070e565b810103126102535760209051610492565b3d91506104aa565b50346102535760a0366003190112610253576104ea6106ca565b6024356001600160a01b038116929190839003610253576044356064359160058310156102535760843567ffffffffffffffff8111610253576105319036906004016106e0565b91909463ffffffff60e01b16610547813361080f565b1561031e57508215610204576105917f67dae0a840ec822f2c13f419d58bacc762c078511f26162dcd1c33a1886a5af69360405193849360018060a01b03169730974293866107ce565b0390a4005b3461025357604036600319011261025357602460e06105b36106ca565b604051633b345a87831b81528335600482015292839182906001600160a01b03165afa90811561025f576080915f915f5f915f9361060e575b506040519360018060a01b031684526020840152604083015215156060820152f35b9250505061062b915060e03d60e011610308576102f4818361070e565b9450909291508690506105ec565b34610253575f3660031901126102535763e2d75ab360e01b60208201908152636bbb3ef560e11b60248301526317df736f60e31b602883015263599fedaf60e01b602c83015263af18536160e01b6030830152601482529060409061069f60348261070e565b8151928391602083525180918160208501528484015e5f828201840152601f01601f19168101030190f35b600435906001600160a01b038216820361025357565b9181601f840112156102535782359167ffffffffffffffff8311610253576020838186019501011161025357565b90601f8019910116810190811067ffffffffffffffff82111761073057604052565b634e487b7160e01b5f52604160045260245ffd5b51906001600160a01b038216820361025357565b5190811515820361025357565b908160e09103126102535761077981610744565b9161078660208301610744565b916040810151916060820151916080810151916107aa60c060a08401519301610758565b90565b9060058210156107ba5752565b634e487b7160e01b5f52602160045260245ffd5b9594936060936107e860a09483948a5260208a01906107ad565b60806040890152816080890152838801375f828288010152601f8019910116850101930152565b816108199161085d565b610857577f511915e52b7f9e690b9fdc662acaf5600fd3722c87eb951d3abd26e93a784dca5c9060ff821661084e5750505f90565b6107aa91610a3b565b50600190565b7fce1c17acaaa67de66e928cd49c8f658667a825223bee6fda99a14908362bcdac546001600160a01b031680610992575b5060018060a01b0381165f527fce1c17acaaa67de66e928cd49c8f658667a825223bee6fda99a14908362bcdaa60205260405f20549163ffffffff60e01b165f527fce1c17acaaa67de66e928cd49c8f658667a825223bee6fda99a14908362bcdab60205260405f205490811561094e576001600160a01b03165f9081527fce1c17acaaa67de66e928cd49c8f658667a825223bee6fda99a14908362bcdaa6020526040902054600116151591821561094657505090565b161515919050565b6001600160a01b03165f9081527fce1c17acaaa67de66e928cd49c8f658667a825223bee6fda99a14908362bcdaa6020526040902054600116151591506107aa9050565b6040805163b700961360e01b81526001600160a01b03841660048201523060248201526001600160e01b03198516604482015291829060649082905afa5f91816109ee575b501561088e576109e7575f61088e565b5050600190565b9091506040813d604011610a33575b81610a0a6040938361070e565b81010312610253576020610a1d82610758565b91015163ffffffff81160361025357905f6109d7565b3d91506109fd565b60ff169081156109e75763ffffffff60e01b165f527fce1c17acaaa67de66e928cd49c8f658667a825223bee6fda99a14908362bcdab60205260405f2054908115610a8a576001901b16151590565b50505f9056fea2646970667358221220a37268401ce0efb23accecbc2b6ecd07f5e423c6194e1c3c6d5d4b3500e7783664736f6c634300081e0033","linkReferences":{}},"methodIdentifiers":{"claimExternalIncome(address,uint256,address,uint8,string)":"e2d75ab3","classifyReceivedIncome(address,uint256,uint256,uint8,string)":"d7767dea","getClaimableIncome(address,uint256)":"befb9b78","getDistributionDetails(address,uint256)":"599fedaf","packedSelectors()":"3e62267c","recordOffChainIncome(address,address,uint256,uint8,string)":"af185361"},"id":349}