{"abi":[{"type":"function","name":"Investment_init","inputs":[],"outputs":[],"stateMutability":"nonpayable"},{"type":"function","name":"createInvestment","inputs":[{"name":"target","type":"address","internalType":"address"},{"name":"assetType","type":"uint8","internalType":"enum IInvestment.AssetType"},{"name":"description","type":"string","internalType":"string"}],"outputs":[{"name":"investmentId","type":"uint256","internalType":"uint256"}],"stateMutability":"nonpayable"},{"type":"function","name":"executeInvestment","inputs":[{"name":"investmentId","type":"uint256","internalType":"uint256"},{"name":"amount","type":"uint256","internalType":"uint256"}],"outputs":[],"stateMutability":"nonpayable"},{"type":"function","name":"exitInvestment","inputs":[{"name":"investmentId","type":"uint256","internalType":"uint256"},{"name":"exitValue","type":"uint256","internalType":"uint256"},{"name":"proceeds","type":"uint256","internalType":"uint256"}],"outputs":[],"stateMutability":"nonpayable"},{"type":"function","name":"getInvestment","inputs":[{"name":"investmentId","type":"uint256","internalType":"uint256"}],"outputs":[{"name":"","type":"tuple","internalType":"struct IInvestment.Investment","components":[{"name":"id","type":"uint256","internalType":"uint256"},{"name":"target","type":"address","internalType":"address"},{"name":"assetType","type":"uint8","internalType":"enum IInvestment.AssetType"},{"name":"description","type":"string","internalType":"string"},{"name":"amount","type":"uint256","internalType":"uint256"},{"name":"currentValuation","type":"uint256","internalType":"uint256"},{"name":"lastValuationAt","type":"uint256","internalType":"uint256"},{"name":"investedAt","type":"uint256","internalType":"uint256"},{"name":"exitValue","type":"uint256","internalType":"uint256"},{"name":"exitProceeds","type":"uint256","internalType":"uint256"},{"name":"exitedAt","type":"uint256","internalType":"uint256"},{"name":"status","type":"uint8","internalType":"enum IInvestment.InvestmentStatus"}]}],"stateMutability":"view"},{"type":"function","name":"getInvestmentCount","inputs":[],"outputs":[{"name":"","type":"uint256","internalType":"uint256"}],"stateMutability":"view"},{"type":"function","name":"getTotalInvested","inputs":[],"outputs":[{"name":"","type":"uint256","internalType":"uint256"}],"stateMutability":"view"},{"type":"function","name":"getTotalValuation","inputs":[],"outputs":[{"name":"","type":"uint256","internalType":"uint256"}],"stateMutability":"view"},{"type":"function","name":"isInvestmentInitialized","inputs":[],"outputs":[{"name":"","type":"bool","internalType":"bool"}],"stateMutability":"view"},{"type":"function","name":"packedSelectors","inputs":[],"outputs":[{"name":"","type":"bytes","internalType":"bytes"}],"stateMutability":"pure"},{"type":"function","name":"updateValuation","inputs":[{"name":"investmentId","type":"uint256","internalType":"uint256"},{"name":"newValuation","type":"uint256","internalType":"uint256"}],"outputs":[],"stateMutability":"nonpayable"},{"type":"event","name":"InvestmentCreated","inputs":[{"name":"investmentId","type":"uint256","indexed":true,"internalType":"uint256"},{"name":"target","type":"address","indexed":true,"internalType":"address"},{"name":"assetType","type":"uint8","indexed":false,"internalType":"enum IInvestment.AssetType"},{"name":"description","type":"string","indexed":false,"internalType":"string"}],"anonymous":false},{"type":"event","name":"InvestmentExecuted","inputs":[{"name":"investmentId","type":"uint256","indexed":true,"internalType":"uint256"},{"name":"amount","type":"uint256","indexed":false,"internalType":"uint256"},{"name":"timestamp","type":"uint256","indexed":false,"internalType":"uint256"}],"anonymous":false},{"type":"event","name":"InvestmentExited","inputs":[{"name":"investmentId","type":"uint256","indexed":true,"internalType":"uint256"},{"name":"exitValue","type":"uint256","indexed":false,"internalType":"uint256"},{"name":"proceeds","type":"uint256","indexed":false,"internalType":"uint256"},{"name":"timestamp","type":"uint256","indexed":false,"internalType":"uint256"}],"anonymous":false},{"type":"event","name":"ValuationUpdated","inputs":[{"name":"investmentId","type":"uint256","indexed":true,"internalType":"uint256"},{"name":"oldValue","type":"uint256","indexed":false,"internalType":"uint256"},{"name":"newValue","type":"uint256","indexed":false,"internalType":"uint256"},{"name":"timestamp","type":"uint256","indexed":false,"internalType":"uint256"}],"anonymous":false},{"type":"error","name":"AccessControl_CallerIsNotAuthorized","inputs":[{"name":"caller","type":"address","internalType":"address"},{"name":"functionSig","type":"bytes4","internalType":"bytes4"}]},{"type":"error","name":"Investment_AlreadyExecuted","inputs":[]},{"type":"error","name":"Investment_AlreadyExited","inputs":[]},{"type":"error","name":"Investment_AlreadyInitialized","inputs":[]},{"type":"error","name":"Investment_InvalidAmount","inputs":[]},{"type":"error","name":"Investment_InvalidTarget","inputs":[]},{"type":"error","name":"Investment_NotExecuted","inputs":[]},{"type":"error","name":"Investment_NotFound","inputs":[]},{"type":"error","name":"Investment_NotInitialized","inputs":[]}],"bytecode":{"object":"0x608080604052346015576111d1908161001a8239f35b5f80fdfe60806040526004361015610011575f80fd5b5f358060e01c8063136021a614610c3457806322ae634f146109ae5780633422d300146108325780633e62267c1461076d5780635f9457331461072d5780636dc0fc6b146106085780638467456b146105c8578063a7ec0f601461059a578063ad006a6c1461053b578063b8d84697146104ef5763dba0be9a14610093575f80fd5b346104eb5760603660031901126104eb57600435906001600160a01b03821682036104eb57600760243510156104eb576044359067ffffffffffffffff82116104eb57366023830112156104eb5767ffffffffffffffff8260040135116104eb573660248360040135840101116104eb576001600160e01b0319166101188133610e75565b156104d5575060ff5f51602061115c5f395f51905f525416156104c6576001600160a01b038216156104b7575f51602061111c5f395f51905f5254905f1982146104a357600182015f51602061111c5f395f51905f52556040519261017c84610de5565b6001600160a01b038116845261019760243560208601610e24565b6040516101b26004840135601f01601f191660200182610e02565b60048301358082526024840160208301375f602084600401358301015260408501525f60608501525f60808501525f60a08501525f60c08501525f60e08501525f6101008501525f6101208501525f61014085015261016084019060018252835f525f51602061117c5f395f51905f5260205260405f2060018060a01b03865116815490602088015160078110156103c1576001600160a81b03199092161760a09190911b60ff60a01b1617815560408601518051600183019167ffffffffffffffff821161048f576102858354610e30565b601f811161044a575b50602090601f83116001146103e05791806009949261014096945f926103d5575b50508160011b915f199060031b1c19161790555b606088015160028201556080880151600382015560a0880151600482015560c0880151600582015560e0880151600682015561010088015160078201556101208801516008820155019501519060038210156103c15760209585937f0d3c1b01e50dc73f94fc22f5c9956379b14390b541c945aa9ead097437015f729360ff8019845416911617825551151561ff0082549160081b169061ff0019161790556060604051809261037582602435610d91565b60408983015286600401356040830152866004013560248801848401375f6004909701358281018401979097526001600160a01b031695601f01601f19168101030190a3604051908152f35b634e487b7160e01b5f52602160045260245ffd5b015190505f806102af565b90601f19831691845f52815f20925f5b81811061043257509260019285926101409896600998961061041a575b505050811b0190556102c3565b01515f1960f88460031b161c191690555f808061040d565b929360206001819287860151815501950193016103f0565b835f5260205f20601f840160051c81019160208510610485575b601f0160051c01905b81811061047a575061028e565b5f815560010161046d565b9091508190610464565b634e487b7160e01b5f52604160045260245ffd5b634e487b7160e01b5f52601160045260245ffd5b6331072cad60e11b5f5260045ffd5b636164b01960e11b5f5260045ffd5b631d64bc3360e11b5f523360045260245260445ffd5b5f80fd5b346104eb575f3660031901126104eb5760ff5f51602061115c5f395f51905f525416156104c6575f51602061111c5f395f51905f52545f1981019081116104a357602090604051908152f35b346104eb575f3660031901126104eb575f51602061115c5f395f51905f525460ff811661058b5760ff191660019081175f51602061115c5f395f51905f52555f51602061111c5f395f51905f5255005b63804d8aff60e01b5f5260045ffd5b346104eb575f3660031901126104eb57602060ff5f51602061115c5f395f51905f5254166040519015158152f35b346104eb575f3660031901126104eb5760ff5f51602061115c5f395f51905f525416156104c65760205f51602061113c5f395f51905f5254604051908152f35b50346104eb5761061736610dc2565b90916001600160e01b03191661062d8133610e75565b156104d5575060ff5f51602061115c5f395f51905f525416156104c657815f525f51602061117c5f395f51905f5260205260405f20600981015460ff8160081c161561071e5760ff1660038110156103c15760010361070f577f3595386453dfce41a7d04c4df78617a8b6c7c42b6174caf34f4c1b410c00f8aa916003820191818354936106d2826106cd875f51602061113c5f395f51905f5254610dd8565b610e68565b5f51602061113c5f395f51905f52555560044291015561070a6040519283924291846040919493926060820195825260208201520152565b0390a2005b636c0fcd2d60e11b5f5260045ffd5b63087a168f60e11b5f5260045ffd5b346104eb575f3660031901126104eb5760ff5f51602061115c5f395f51905f525416156104c65760205f5160206110fc5f395f51905f5254604051908152f35b346104eb575f3660031901126104eb5760408051632b401a9b60e21b6020820152636dd05f4d60e11b6024820152623422d360e81b6028808301919091526309b010d360e11b602c8301526322ae634f60e01b603083015263b8d8469760e01b6034830152635f94573360e01b6038830152638467456b60e01b603c83015263053f607b60e51b92820192909252636dc0fc6b60e01b604482015290815261082e9061081a604882610e02565b604051918291602083526020830190610d9e565b0390f35b50346104eb5761084136610dc2565b90916001600160e01b0319166108578133610e75565b156104d5575060ff5f51602061115c5f395f51905f525416156104c657801561099f57815f525f51602061117c5f395f51905f5260205260405f206009810191825460ff8160081c161561071e5760ff1660038110156103c157610990577f3595386453dfce41a7d04c4df78617a8b6c7c42b6174caf34f4c1b410c00f8aa92828260026060950155826003820155426004820155600542910155600160ff19825416179055610915815f5160206110fc5f395f51905f5254610e68565b5f5160206110fc5f395f51905f525561093c815f51602061113c5f395f51905f5254610e68565b5f51602061113c5f395f51905f5255837ff4293c129c3510ed566b37f52de0ba143eb5df90be3efa7d1438b121b5d4ad8360408051848152426020820152a2604051905f82526020820152426040820152a2005b6359a6835560e11b5f5260045ffd5b6317945eb360e21b5f5260045ffd5b346104eb5760203660031901126104eb576004355f6101606040516109d281610de5565b8281528260208201528260408201526060808201528260808201528260a08201528260c08201528260e0820152826101008201528261012082015282610140820152015260ff5f51602061115c5f395f51905f525416156104c657805f525f51602061117c5f395f51905f5260205260405f2090600982015460ff8160081c161561071e5782549060018401936002810154936003820154600483015460058401549160068501549360ff6008600788015497015497169960405191610a9783610de5565b82526001600160a01b038916602083019081529a6040830199610ac09060a01c60ff168b610e24565b60405191825f825492610ad284610e30565b8084529360018116908115610c125750600114610bce575b50610af792500383610e02565b60608301918252608083019a8b5260a0830193845260c0830194855260e0830195865261010083019687526101208301978852610140830198895261016083019960038210156103c157610b8893610b74928c52604080519e8f926020845251602084015260018060a01b039051169101525160608d0190610d91565b5161018060808c01526101a08b0190610d9e565b975160a08a01525160c08901525160e088015251610100870152516101208601525161014085015251610160840152519060038210156103c15782916101808301520390f35b90505f9291925260205f20905f915b818310610bf6575050906020610af7928201018f610aea565b6020919350806001915483858901015201910190918492610bdd565b905060209250610af794915060ff191682840152151560051b8201018f610aea565b50346104eb5760603660031901126104eb576004359060443590602435906001600160e01b031916610c668133610e75565b156104d5575060ff5f51602061115c5f395f51905f525416156104c657825f525f51602061117c5f395f51905f5260205260405f209160098301805460ff8160081c161561071e5760ff1660038110156103c157801561070f57600214610d82578284610d0660027f885c04e8006a5afaec3452e0bb4675edfcda6cc0db147c06daba269ddf4b8f259701545f5160206110fc5f395f51905f5254610dd8565b5f5160206110fc5f395f51905f52556003810190610d3382545f51602061113c5f395f51905f5254610dd8565b5f51602061113c5f395f51905f525582600682015584600782015560084291015555600260ff1982541617905561070a6040519283924291846040919493926060820195825260208201520152565b63c8fe928360e01b5f5260045ffd5b9060078210156103c15752565b805180835260209291819084018484015e5f828201840152601f01601f1916010190565b60409060031901126104eb576004359060243590565b919082039182116104a357565b610180810190811067ffffffffffffffff82111761048f57604052565b90601f8019910116810190811067ffffffffffffffff82111761048f57604052565b60078210156103c15752565b90600182811c92168015610e5e575b6020831014610e4a57565b634e487b7160e01b5f52602260045260245ffd5b91607f1691610e3f565b919082018092116104a357565b81610e7f91610ec6565b610ec0577f511915e52b7f9e690b9fdc662acaf5600fd3722c87eb951d3abd26e93a784dca5c9060ff8216610eb45750505f90565b610ebd916110a6565b90565b50600190565b7fce1c17acaaa67de66e928cd49c8f658667a825223bee6fda99a14908362bcdac546001600160a01b031680610ffb575b5060018060a01b0381165f527fce1c17acaaa67de66e928cd49c8f658667a825223bee6fda99a14908362bcdaa60205260405f20549163ffffffff60e01b165f527fce1c17acaaa67de66e928cd49c8f658667a825223bee6fda99a14908362bcdab60205260405f2054908115610fb7576001600160a01b03165f9081527fce1c17acaaa67de66e928cd49c8f658667a825223bee6fda99a14908362bcdaa60205260409020546001161515918215610faf57505090565b161515919050565b6001600160a01b03165f9081527fce1c17acaaa67de66e928cd49c8f658667a825223bee6fda99a14908362bcdaa602052604090205460011615159150610ebd9050565b6040805163b700961360e01b81526001600160a01b03841660048201523060248201526001600160e01b03198516604482015291829060649082905afa5f9181611057575b5015610ef757611050575f610ef7565b5050600190565b9091506040813d60401161109e575b8161107360409383610e02565b810103126104eb5780519081151582036104eb576020015163ffffffff8116036104eb57905f611040565b3d9150611066565b60ff169081156110505763ffffffff60e01b165f527fce1c17acaaa67de66e928cd49c8f658667a825223bee6fda99a14908362bcdab60205260405f20549081156110f5576001901b16151590565b50505f9056fe967bf9749b31b5fa7e5a16eb7bdb0ee757a05b327f7a46cfcfbdd67ca2dabace967bf9749b31b5fa7e5a16eb7bdb0ee757a05b327f7a46cfcfbdd67ca2dabacd967bf9749b31b5fa7e5a16eb7bdb0ee757a05b327f7a46cfcfbdd67ca2dabacf967bf9749b31b5fa7e5a16eb7bdb0ee757a05b327f7a46cfcfbdd67ca2dabacc967bf9749b31b5fa7e5a16eb7bdb0ee757a05b327f7a46cfcfbdd67ca2dabad0a264697066735822122031c20dba26fe30707903f4431661a466543a4ea07b6e70543baa63521c85bba064736f6c634300081e0033","linkReferences":{}},"methodIdentifiers":{"Investment_init()":"ad006a6c","createInvestment(address,uint8,string)":"dba0be9a","executeInvestment(uint256,uint256)":"3422d300","exitInvestment(uint256,uint256,uint256)":"136021a6","getInvestment(uint256)":"22ae634f","getInvestmentCount()":"b8d84697","getTotalInvested()":"5f945733","getTotalValuation()":"8467456b","isInvestmentInitialized()":"a7ec0f60","packedSelectors()":"3e62267c","updateValuation(uint256,uint256)":"6dc0fc6b"},"id":359}