{"abi":[{"type":"function","name":"batchSetLockup","inputs":[{"name":"lotIds","type":"bytes32[]","internalType":"bytes32[]"},{"name":"unlockTimes","type":"uint256[]","internalType":"uint256[]"}],"outputs":[],"stateMutability":"nonpayable"},{"type":"function","name":"extendLockup","inputs":[{"name":"lotId","type":"bytes32","internalType":"bytes32"},{"name":"newUnlockTime","type":"uint256","internalType":"uint256"}],"outputs":[],"stateMutability":"nonpayable"},{"type":"function","name":"getRemainingLockTime","inputs":[{"name":"lotId","type":"bytes32","internalType":"bytes32"}],"outputs":[{"name":"","type":"uint256","internalType":"uint256"}],"stateMutability":"view"},{"type":"function","name":"isLocked","inputs":[{"name":"lotId","type":"bytes32","internalType":"bytes32"}],"outputs":[{"name":"","type":"bool","internalType":"bool"}],"stateMutability":"view"},{"type":"function","name":"lotToToken","inputs":[{"name":"","type":"bytes32","internalType":"bytes32"}],"outputs":[{"name":"","type":"address","internalType":"address"}],"stateMutability":"view"},{"type":"function","name":"lotUnlockTime","inputs":[{"name":"","type":"bytes32","internalType":"bytes32"}],"outputs":[{"name":"","type":"uint256","internalType":"uint256"}],"stateMutability":"view"},{"type":"function","name":"moduleName","inputs":[],"outputs":[{"name":"","type":"string","internalType":"string"}],"stateMutability":"pure"},{"type":"function","name":"moduleVersion","inputs":[],"outputs":[{"name":"","type":"string","internalType":"string"}],"stateMutability":"pure"},{"type":"function","name":"processTransfer","inputs":[{"name":"","type":"address","internalType":"address"},{"name":"","type":"address","internalType":"address"},{"name":"lotId","type":"bytes32","internalType":"bytes32"},{"name":"","type":"uint256","internalType":"uint256"}],"outputs":[],"stateMutability":"pure"},{"type":"function","name":"removeLockup","inputs":[{"name":"lotId","type":"bytes32","internalType":"bytes32"}],"outputs":[],"stateMutability":"nonpayable"},{"type":"function","name":"setLockup","inputs":[{"name":"lotId","type":"bytes32","internalType":"bytes32"},{"name":"unlockTime","type":"uint256","internalType":"uint256"}],"outputs":[],"stateMutability":"nonpayable"},{"type":"function","name":"validateTransfer","inputs":[{"name":"from","type":"address","internalType":"address"},{"name":"","type":"address","internalType":"address"},{"name":"lotId","type":"bytes32","internalType":"bytes32"},{"name":"","type":"uint256","internalType":"uint256"}],"outputs":[{"name":"","type":"bool","internalType":"bool"}],"stateMutability":"view"},{"type":"event","name":"LockupExtended","inputs":[{"name":"lotId","type":"bytes32","indexed":true,"internalType":"bytes32"},{"name":"oldUnlockTime","type":"uint256","indexed":false,"internalType":"uint256"},{"name":"newUnlockTime","type":"uint256","indexed":false,"internalType":"uint256"}],"anonymous":false},{"type":"event","name":"LockupRemoved","inputs":[{"name":"lotId","type":"bytes32","indexed":true,"internalType":"bytes32"}],"anonymous":false},{"type":"event","name":"LockupSet","inputs":[{"name":"lotId","type":"bytes32","indexed":true,"internalType":"bytes32"},{"name":"unlockTime","type":"uint256","indexed":false,"internalType":"uint256"}],"anonymous":false},{"type":"error","name":"CanOnlyExtendLockup","inputs":[]},{"type":"error","name":"LengthMismatch","inputs":[]},{"type":"error","name":"Lockup_UnauthorizedCaller","inputs":[]},{"type":"error","name":"LotStillLocked","inputs":[{"name":"lotId","type":"bytes32","internalType":"bytes32"},{"name":"unlockTime","type":"uint256","internalType":"uint256"}]}],"bytecode":{"object":"0x60808060405234601557610642908161001a8239f35b5f80fdfe60806040526004361015610011575f80fd5b5f3560e01c8063027ff9bb1461040957806332a16f4e146103e057806338e0a06c1461038f5780633ce90177146103695780634efacb691461027357806393f0899a14610212578063962b1559146101ec578063a6c6fa0c146101ba578063baa3b4d714610152578063ddc541a0146100da578063e00e83c3146100ca5763fb2a48bc1461009d575f80fd5b346100c65760203660031901126100c6576004355f525f602052602060405f2054604051908152f35b5f80fd5b346100c6576100d8366104ca565b005b346100c6576100e836610459565b6100f1826105b2565b815f525f60205260405f20549081811115610144577f7118c55e9589056de945d97e880803a1d3b47adcf496ef1c0bcdc8debf35958891604091845f525f60205280835f205582519182526020820152a2005b6205babd60ed1b5f5260045ffd5b346100c6575f3660031901126100c657604051604081019080821067ffffffffffffffff8311176101a6576101a29160405260058152640312e302e360dc1b6020820152604051918291826104a0565b0390f35b634e487b7160e01b5f52604160045260245ffd5b346100c65760203660031901126100c6576004355f526001602052602060018060a01b0360405f205416604051908152f35b346100c65760206102086101ff366104ca565b5091905061057d565b6040519015158152f35b346100c6575f3660031901126100c657604051604081019080821067ffffffffffffffff8311176101a6576101a29160405260168152754c6f636b7570436f6d706c69616e63654d6f64756c6560501b6020820152604051918291826104a0565b346100c65760403660031901126100c65760043567ffffffffffffffff81116100c6576102a490369060040161046f565b9060243567ffffffffffffffff81116100c6576102c590369060040161046f565b9182840361035a575f5b8481106102d857005b806102ef6102e96001938886610559565b356105b2565b6102fa818686610559565b35610306828886610559565b355f525f60205260405f205561031d818785610559565b357fcbd77625eee1968c138eacd9a0480eb1013dd390555e2da31edc847f8c05e812602061034c848989610559565b35604051908152a2016102cf565b631fec674760e31b5f5260045ffd5b346100c65760203660031901126100c6576020610387600435610508565b604051908152f35b346100c65760207fcbd77625eee1968c138eacd9a0480eb1013dd390555e2da31edc847f8c05e8126103c036610459565b6103cb8294926105b2565b835f525f82528060405f2055604051908152a2005b346100c65760203660031901126100c65760206102086004355f525f60205260405f2054421090565b346100c65760203660031901126100c657600435610426816105b2565b805f525f6020525f60408120557ffd42fb1bb75960eeb55c4c2dcafa322f100e97533d8243122da440cb9fc68e615f80a2005b60409060031901126100c6576004359060243590565b9181601f840112156100c65782359167ffffffffffffffff83116100c6576020808501948460051b0101116100c657565b602060409281835280519182918282860152018484015e5f828201840152601f01601f1916010190565b60809060031901126100c6576004356001600160a01b03811681036100c657906024356001600160a01b03811681036100c657906044359060643590565b5f525f60205260405f205480158015610546575b6105415742810390811161052d5790565b634e487b7160e01b5f52601160045260245ffd5b505f90565b505f19810181811161052d57421161051c565b91908110156105695760051b0190565b634e487b7160e01b5f52603260045260245ffd5b6001600160a01b0316156105ac5761059f905f525f60205260405f2054421090565b6105a857600190565b5f90565b50600190565b5f818152600160205260409020546001600160a01b0316806105f357505f52600160205260405f20336bffffffffffffffffffffffff60a01b825416179055565b905033036105fd57565b63be40fca160e01b5f5260045ffdfea2646970667358221220d52849c74522b112acfa1bce26e4ff50d41d686dbf4bcb65d3b70f2a44c7dd9f64736f6c634300081e0033","linkReferences":{}},"methodIdentifiers":{"batchSetLockup(bytes32[],uint256[])":"4efacb69","extendLockup(bytes32,uint256)":"ddc541a0","getRemainingLockTime(bytes32)":"3ce90177","isLocked(bytes32)":"32a16f4e","lotToToken(bytes32)":"a6c6fa0c","lotUnlockTime(bytes32)":"fb2a48bc","moduleName()":"93f0899a","moduleVersion()":"baa3b4d7","processTransfer(address,address,bytes32,uint256)":"e00e83c3","removeLockup(bytes32)":"027ff9bb","setLockup(bytes32,uint256)":"38e0a06c","validateTransfer(address,address,bytes32,uint256)":"962b1559"},"id":238}