{"abi":[{"type":"function","name":"autoExemptRoles","inputs":[{"name":"","type":"address","internalType":"address"}],"outputs":[{"name":"","type":"bytes32","internalType":"bytes32"}],"stateMutability":"view"},{"type":"function","name":"getAutoExemptRoles","inputs":[{"name":"token","type":"address","internalType":"address"}],"outputs":[{"name":"","type":"bytes32","internalType":"bytes32"}],"stateMutability":"view"},{"type":"function","name":"getMinimumBalance","inputs":[{"name":"token","type":"address","internalType":"address"}],"outputs":[{"name":"","type":"uint256","internalType":"uint256"}],"stateMutability":"view"},{"type":"function","name":"isExempt","inputs":[{"name":"","type":"address","internalType":"address"},{"name":"","type":"address","internalType":"address"}],"outputs":[{"name":"","type":"bool","internalType":"bool"}],"stateMutability":"view"},{"type":"function","name":"isHolderExempt","inputs":[{"name":"token","type":"address","internalType":"address"},{"name":"holder","type":"address","internalType":"address"}],"outputs":[{"name":"","type":"bool","internalType":"bool"}],"stateMutability":"view"},{"type":"function","name":"isRoleAutoExempt","inputs":[{"name":"token","type":"address","internalType":"address"},{"name":"role","type":"uint8","internalType":"uint8"}],"outputs":[{"name":"","type":"bool","internalType":"bool"}],"stateMutability":"view"},{"type":"function","name":"minimumBalance","inputs":[{"name":"","type":"address","internalType":"address"}],"outputs":[{"name":"","type":"uint256","internalType":"uint256"}],"stateMutability":"view"},{"type":"function","name":"moduleName","inputs":[],"outputs":[{"name":"","type":"string","internalType":"string"}],"stateMutability":"pure"},{"type":"function","name":"moduleVersion","inputs":[],"outputs":[{"name":"","type":"string","internalType":"string"}],"stateMutability":"pure"},{"type":"function","name":"previewTransfer","inputs":[{"name":"token","type":"address","internalType":"address"},{"name":"from","type":"address","internalType":"address"},{"name":"quantity","type":"uint256","internalType":"uint256"}],"outputs":[{"name":"allowed","type":"bool","internalType":"bool"},{"name":"balanceAfter","type":"uint256","internalType":"uint256"},{"name":"minimum","type":"uint256","internalType":"uint256"}],"stateMutability":"view"},{"type":"function","name":"processTransfer","inputs":[{"name":"","type":"address","internalType":"address"},{"name":"","type":"address","internalType":"address"},{"name":"","type":"bytes32","internalType":"bytes32"},{"name":"","type":"uint256","internalType":"uint256"}],"outputs":[],"stateMutability":"nonpayable"},{"type":"function","name":"setAutoExemptRole","inputs":[{"name":"token","type":"address","internalType":"address"},{"name":"role","type":"uint8","internalType":"uint8"},{"name":"exempt","type":"bool","internalType":"bool"}],"outputs":[],"stateMutability":"nonpayable"},{"type":"function","name":"setExemption","inputs":[{"name":"token","type":"address","internalType":"address"},{"name":"holder","type":"address","internalType":"address"},{"name":"exempt","type":"bool","internalType":"bool"}],"outputs":[],"stateMutability":"nonpayable"},{"type":"function","name":"setMinimumBalance","inputs":[{"name":"token","type":"address","internalType":"address"},{"name":"minimum","type":"uint256","internalType":"uint256"}],"outputs":[],"stateMutability":"nonpayable"},{"type":"function","name":"tokenOwner","inputs":[{"name":"","type":"address","internalType":"address"}],"outputs":[{"name":"","type":"address","internalType":"address"}],"stateMutability":"view"},{"type":"function","name":"validateTransfer","inputs":[{"name":"from","type":"address","internalType":"address"},{"name":"to","type":"address","internalType":"address"},{"name":"","type":"bytes32","internalType":"bytes32"},{"name":"quantity","type":"uint256","internalType":"uint256"}],"outputs":[{"name":"","type":"bool","internalType":"bool"}],"stateMutability":"view"},{"type":"event","name":"AutoExemptRoleSet","inputs":[{"name":"token","type":"address","indexed":true,"internalType":"address"},{"name":"role","type":"uint8","indexed":false,"internalType":"uint8"},{"name":"exempt","type":"bool","indexed":false,"internalType":"bool"}],"anonymous":false},{"type":"event","name":"MinimumBalanceExemptionSet","inputs":[{"name":"token","type":"address","indexed":true,"internalType":"address"},{"name":"holder","type":"address","indexed":true,"internalType":"address"},{"name":"exempt","type":"bool","indexed":false,"internalType":"bool"}],"anonymous":false},{"type":"event","name":"MinimumBalanceSet","inputs":[{"name":"token","type":"address","indexed":true,"internalType":"address"},{"name":"minimum","type":"uint256","indexed":false,"internalType":"uint256"}],"anonymous":false},{"type":"error","name":"MinimumBalance_BelowMinimum","inputs":[{"name":"balanceAfter","type":"uint256","internalType":"uint256"},{"name":"minimum","type":"uint256","internalType":"uint256"}]},{"type":"error","name":"MinimumBalance_UnauthorizedCaller","inputs":[]}],"bytecode":{"object":"0x6080806040523460155761091d908161001a8239f35b5f80fdfe6080806040526004361015610012575f80fd5b5f3560e01c90816307363912146104a9575080632c2463071461022857806333098745146102d5578063363c5a4d146103e45780633ab69b62146103a457806370fb18961461030c57806391bfa2bf146102d557806393f0899a14610285578063962b1559146102605780639b6c9591146102285780639d8b9a49146101e4578063a49c44d71461017a578063baa3b4d714610137578063dfc693f0146100cc578063e00e83c3146101275763fb229b5c146100cc575f80fd5b34610123576040366003190112610123576100e56104ef565b6100ed610505565b9060018060a01b03165f52600160205260405f209060018060a01b03165f52602052602060ff60405f2054166040519015158152f35b5f80fd5b346101235761013536610564565b005b34610123575f366003190112610123576101766040516101586040826105a2565b60058152640312e302e360dc1b60208201526040519182918261053a565b0390f35b34610123576040366003190112610123576101936104ef565b7fc3b4266639528bbf9205b7bd79ef016aabdc292020a30fa14bb1538e76cd776e6020602435926101c38161073b565b6001600160a01b03165f8181528083526040908190208590555193845292a2005b346101235760603660031901126101235760606102136102026104ef565b61020a610505565b604435916106a9565b90604051921515835260208301526040820152f35b34610123576020366003190112610123576001600160a01b036102496104ef565b165f526002602052602060405f2054604051908152f35b3461012357602061027b61027336610564565b9290506105f9565b6040519015158152f35b34610123575f366003190112610123576101766040516102a66040826105a2565b60168152754d696e696d756d2042616c616e6365204d6f64756c6560501b60208201526040519182918261053a565b34610123576020366003190112610123576001600160a01b036102f66104ef565b165f525f602052602060405f2054604051908152f35b34610123576060366003190112610123576103256104ef565b61032d610505565b7f6abcb1f7084a024a5c07237e78cbeb74d38d4557890d3df25b1dd8701d11a73b602061035861052b565b936103628161073b565b6001600160a01b039081165f81815260018452604080822096909316808252958452829020805460ff191696151560ff811697909717905590519485529293a3005b34610123576020366003190112610123576001600160a01b036103c56104ef565b165f526003602052602060018060a01b0360405f205416604051908152f35b34610123576060366003190112610123576103fd6104ef565b7f3950a360053b88dbe4ee564a2ceab3510fdd1bd6418bccb1e11274f81e8d39a2604061042861051b565b9261043161052b565b61043a8261073b565b8015610481576001600160a01b0382165f90815260026020528390208054600160ff88161b1790555b825160ff959095168552151560208501526001600160a01b031692a2005b6001600160a01b0382165f90815260026020528390208054600160ff88161b19169055610463565b34610123576040366003190112610123576020906104c56104ef565b6104cd61051b565b9060018060a01b03165f5260028352600160ff60405f205492161b1615158152f35b600435906001600160a01b038216820361012357565b602435906001600160a01b038216820361012357565b6024359060ff8216820361012357565b60443590811515820361012357565b602060409281835280519182918282860152018484015e5f828201840152601f01601f1916010190565b6080906003190112610123576004356001600160a01b038116810361012357906024356001600160a01b038116810361012357906044359060643590565b90601f8019910116810190811067ffffffffffffffff8211176105c457604052565b634e487b7160e01b5f52604160045260245ffd5b919082039182116105e557565b634e487b7160e01b5f52601160045260245ffd5b91906001600160a01b03831615908115610697575b5061068057335f52600160205260405f2060018060a01b0383165f5260205260ff60405f2054166106805761064382336107d9565b61068057335f525f60205260405f205491821561068f576106649033610872565b9080821061068757610675916105d8565b801561068057101590565b5050600190565b50505f610675565b505050600190565b6001600160a01b03161590505f61060e565b6001600160a01b038082165f9081526020818152604080832054600183528184209487168452939091529020549093929060ff16610730576106eb81836107d9565b610730578315610730576106fe91610872565b908082106107275761070f916105d8565b905b81158183821561072057505092565b1015939050565b50505f90610711565b5050506001915f9190565b6001600160a01b039081165f818152600360205260409020549091168061078157505f52600360205260405f20336bffffffffffffffffffffffff60a01b825416179055565b9050330361078b57565b63c36fd48960e01b5f5260045ffd5b3d156107d4573d9067ffffffffffffffff82116105c457604051916107c9601f8201601f1916602001846105a2565b82523d5f602084013e565b606090565b6001600160a01b0381165f9081526002602052604090205491821561086b575f9182916040516020810191630351b57760e11b835260018060a01b031660248201526024815261082a6044826105a2565b51915afa61083661079a565b90158015610860575b61085a57602081805181010312610123576020015116151590565b50505f90565b50602081511061083f565b5050505f90565b6040516370a0823160e01b602082019081526001600160a01b0390931660248083019190915281525f928392916108aa6044826105a2565b51915afa6108b661079a565b901580156108dc575b6108d757602081805181010312610123576020015190565b505f90565b5060208151106108bf56fea26469706673582212206b2837ab82d8342833ed4e82821462a91be7bc2e5fe8f69059185e93ab6241a564736f6c634300081e0033","linkReferences":{}},"methodIdentifiers":{"autoExemptRoles(address)":"2c246307","getAutoExemptRoles(address)":"9b6c9591","getMinimumBalance(address)":"91bfa2bf","isExempt(address,address)":"dfc693f0","isHolderExempt(address,address)":"fb229b5c","isRoleAutoExempt(address,uint8)":"07363912","minimumBalance(address)":"33098745","moduleName()":"93f0899a","moduleVersion()":"baa3b4d7","previewTransfer(address,address,uint256)":"9d8b9a49","processTransfer(address,address,bytes32,uint256)":"e00e83c3","setAutoExemptRole(address,uint8,bool)":"363c5a4d","setExemption(address,address,bool)":"70fb1896","setMinimumBalance(address,uint256)":"a49c44d7","tokenOwner(address)":"3ab69b62","validateTransfer(address,address,bytes32,uint256)":"962b1559"},"id":239}