{"abi":[{"type":"constructor","inputs":[],"stateMutability":"nonpayable"},{"type":"function","name":"OfferingCore_init","inputs":[{"name":"issuer","type":"address","internalType":"address"},{"name":"tokenAddress","type":"address","internalType":"address"},{"name":"paymentToken","type":"address","internalType":"address"},{"name":"paymentRecipient","type":"address","internalType":"address"},{"name":"pricePerToken","type":"uint256","internalType":"uint256"},{"name":"minInvestment","type":"uint256","internalType":"uint256"},{"name":"maxAmount","type":"uint256","internalType":"uint256"},{"name":"deadline","type":"uint256","internalType":"uint256"},{"name":"uri","type":"string","internalType":"string"}],"outputs":[],"stateMutability":"nonpayable"},{"type":"function","name":"attachInvestmentAgreement","inputs":[{"name":"investmentId","type":"uint256","internalType":"uint256"},{"name":"documentUID","type":"bytes32","internalType":"bytes32"}],"outputs":[],"stateMutability":"nonpayable"},{"type":"function","name":"claimRefund","inputs":[{"name":"investmentId","type":"uint256","internalType":"uint256"}],"outputs":[],"stateMutability":"nonpayable"},{"type":"function","name":"countersignInvestment","inputs":[{"name":"investmentId","type":"uint256","internalType":"uint256"}],"outputs":[],"stateMutability":"nonpayable"},{"type":"function","name":"getAllInvestors","inputs":[],"outputs":[{"name":"investors","type":"address[]","internalType":"address[]"}],"stateMutability":"view"},{"type":"function","name":"getInvestment","inputs":[{"name":"investmentId","type":"uint256","internalType":"uint256"}],"outputs":[{"name":"investment","type":"tuple","internalType":"struct OfferingCoreStorage.Investment","components":[{"name":"investor","type":"address","internalType":"address"},{"name":"amount","type":"uint256","internalType":"uint256"},{"name":"tokenQuantity","type":"uint256","internalType":"uint256"},{"name":"pricePerToken","type":"uint256","internalType":"uint256"},{"name":"timestamp","type":"uint256","internalType":"uint256"},{"name":"status","type":"uint8","internalType":"enum OfferingCoreStorage.InvestmentStatus"},{"name":"paymentEscrowed","type":"bool","internalType":"bool"},{"name":"subscriptionAgreementRef","type":"bytes32","internalType":"bytes32"},{"name":"issuedLotId","type":"bytes32","internalType":"bytes32"}]}],"stateMutability":"view"},{"type":"function","name":"getInvestorInvestments","inputs":[{"name":"investor","type":"address","internalType":"address"}],"outputs":[{"name":"investmentIds","type":"uint256[]","internalType":"uint256[]"}],"stateMutability":"view"},{"type":"function","name":"getInvestorPaymentTotal","inputs":[{"name":"investor","type":"address","internalType":"address"}],"outputs":[{"name":"totalPayments","type":"uint256","internalType":"uint256"}],"stateMutability":"view"},{"type":"function","name":"getInvestorTotalInvestment","inputs":[{"name":"investor","type":"address","internalType":"address"}],"outputs":[{"name":"totalAmount","type":"uint256","internalType":"uint256"}],"stateMutability":"view"},{"type":"function","name":"getOfferingInfo","inputs":[],"outputs":[{"name":"info","type":"tuple","internalType":"struct OfferingCoreStorage.OfferingInfo","components":[{"name":"issuer","type":"address","internalType":"address"},{"name":"tokenAddress","type":"address","internalType":"address"},{"name":"paymentToken","type":"address","internalType":"address"},{"name":"paymentRecipient","type":"address","internalType":"address"},{"name":"pricePerToken","type":"uint256","internalType":"uint256"},{"name":"minInvestment","type":"uint256","internalType":"uint256"},{"name":"maxAmount","type":"uint256","internalType":"uint256"},{"name":"deadline","type":"uint256","internalType":"uint256"},{"name":"totalInvested","type":"uint256","internalType":"uint256"},{"name":"investorCount","type":"uint256","internalType":"uint256"},{"name":"status","type":"uint8","internalType":"enum OfferingCoreStorage.OfferingStatus"},{"name":"uri","type":"string","internalType":"string"}]}],"stateMutability":"view"},{"type":"function","name":"getPaymentInfo","inputs":[],"outputs":[{"name":"paymentToken","type":"address","internalType":"address"},{"name":"paymentRecipient","type":"address","internalType":"address"},{"name":"totalPaymentsReceived","type":"uint256","internalType":"uint256"}],"stateMutability":"view"},{"type":"function","name":"invest","inputs":[{"name":"amount","type":"uint256","internalType":"uint256"},{"name":"attestationUID","type":"bytes32","internalType":"bytes32"}],"outputs":[{"name":"investmentId","type":"uint256","internalType":"uint256"}],"stateMutability":"payable"},{"type":"function","name":"rejectInvestment","inputs":[{"name":"investmentId","type":"uint256","internalType":"uint256"}],"outputs":[],"stateMutability":"nonpayable"},{"type":"function","name":"updateOfferingStatus","inputs":[{"name":"newStatus","type":"uint8","internalType":"enum OfferingCoreStorage.OfferingStatus"}],"outputs":[],"stateMutability":"nonpayable"},{"type":"event","name":"FunctionAccessChanged","inputs":[{"name":"functionSig","type":"bytes4","indexed":true,"internalType":"bytes4"},{"name":"role","type":"uint8","indexed":true,"internalType":"uint8"},{"name":"enabled","type":"bool","indexed":false,"internalType":"bool"}],"anonymous":false},{"type":"event","name":"FundsDeposited","inputs":[{"name":"investor","type":"address","indexed":true,"internalType":"address"},{"name":"investmentId","type":"uint256","indexed":true,"internalType":"uint256"},{"name":"amount","type":"uint256","indexed":false,"internalType":"uint256"},{"name":"tokenQuantity","type":"uint256","indexed":false,"internalType":"uint256"},{"name":"identityUID","type":"bytes32","indexed":false,"internalType":"bytes32"},{"name":"qualificationUID","type":"bytes32","indexed":false,"internalType":"bytes32"}],"anonymous":false},{"type":"event","name":"Initialized","inputs":[{"name":"version","type":"uint64","indexed":false,"internalType":"uint64"}],"anonymous":false},{"type":"event","name":"InvestmentAccepted","inputs":[{"name":"investmentId","type":"uint256","indexed":true,"internalType":"uint256"},{"name":"issuer","type":"address","indexed":true,"internalType":"address"},{"name":"investor","type":"address","indexed":true,"internalType":"address"}],"anonymous":false},{"type":"event","name":"InvestmentAgreementAttached","inputs":[{"name":"investmentId","type":"uint256","indexed":true,"internalType":"uint256"},{"name":"documentUID","type":"bytes32","indexed":false,"internalType":"bytes32"}],"anonymous":false},{"type":"event","name":"InvestmentAgreementExecuted","inputs":[{"name":"investmentId","type":"uint256","indexed":true,"internalType":"uint256"},{"name":"investor","type":"address","indexed":true,"internalType":"address"},{"name":"issuer","type":"address","indexed":true,"internalType":"address"},{"name":"amount","type":"uint256","indexed":false,"internalType":"uint256"},{"name":"tokenQuantity","type":"uint256","indexed":false,"internalType":"uint256"},{"name":"pricePerToken","type":"uint256","indexed":false,"internalType":"uint256"},{"name":"subscriptionAgreementRef","type":"bytes32","indexed":false,"internalType":"bytes32"}],"anonymous":false},{"type":"event","name":"InvestmentRefunded","inputs":[{"name":"investmentId","type":"uint256","indexed":true,"internalType":"uint256"},{"name":"investor","type":"address","indexed":true,"internalType":"address"}],"anonymous":false},{"type":"event","name":"InvestmentRejected","inputs":[{"name":"investmentId","type":"uint256","indexed":true,"internalType":"uint256"},{"name":"issuer","type":"address","indexed":true,"internalType":"address"},{"name":"investor","type":"address","indexed":true,"internalType":"address"}],"anonymous":false},{"type":"event","name":"OfferingInitialized","inputs":[{"name":"issuer","type":"address","indexed":true,"internalType":"address"},{"name":"token","type":"address","indexed":true,"internalType":"address"},{"name":"paymentToken","type":"address","indexed":false,"internalType":"address"},{"name":"paymentRecipient","type":"address","indexed":false,"internalType":"address"},{"name":"pricePerToken","type":"uint256","indexed":false,"internalType":"uint256"},{"name":"minInvestment","type":"uint256","indexed":false,"internalType":"uint256"},{"name":"maxAmount","type":"uint256","indexed":false,"internalType":"uint256"},{"name":"deadline","type":"uint256","indexed":false,"internalType":"uint256"},{"name":"uri","type":"string","indexed":false,"internalType":"string"}],"anonymous":false},{"type":"event","name":"OfferingStatusChanged","inputs":[{"name":"oldStatus","type":"uint8","indexed":false,"internalType":"enum OfferingCoreStorage.OfferingStatus"},{"name":"newStatus","type":"uint8","indexed":false,"internalType":"enum OfferingCoreStorage.OfferingStatus"}],"anonymous":false},{"type":"event","name":"TokensIssued","inputs":[{"name":"investmentId","type":"uint256","indexed":true,"internalType":"uint256"},{"name":"investor","type":"address","indexed":true,"internalType":"address"},{"name":"tokenQuantity","type":"uint256","indexed":false,"internalType":"uint256"},{"name":"lotId","type":"bytes32","indexed":true,"internalType":"bytes32"}],"anonymous":false},{"type":"event","name":"UserRoleUpdated","inputs":[{"name":"user","type":"address","indexed":true,"internalType":"address"},{"name":"role","type":"uint8","indexed":true,"internalType":"uint8"},{"name":"enabled","type":"bool","indexed":false,"internalType":"bool"}],"anonymous":false},{"type":"error","name":"AccessControl_CallerIsNotAuthorized","inputs":[]},{"type":"error","name":"AccessControl_CannotRemoveAdmin","inputs":[]},{"type":"error","name":"CallerIsNotAuthorized","inputs":[]},{"type":"error","name":"DelegateNotAllowed","inputs":[]},{"type":"error","name":"InvalidInitialization","inputs":[]},{"type":"error","name":"NotInitializing","inputs":[]},{"type":"error","name":"OfferingCore_AlreadyCountersigned","inputs":[]},{"type":"error","name":"OfferingCore_AlreadyInitialized","inputs":[]},{"type":"error","name":"OfferingCore_AlreadyProcessed","inputs":[]},{"type":"error","name":"OfferingCore_BelowMinimumInvestment","inputs":[]},{"type":"error","name":"OfferingCore_DeadlinePassed","inputs":[]},{"type":"error","name":"OfferingCore_ExceedsMaximumAmount","inputs":[]},{"type":"error","name":"OfferingCore_GracePeriodNotExpired","inputs":[]},{"type":"error","name":"OfferingCore_InvalidAttestation","inputs":[]},{"type":"error","name":"OfferingCore_InvestmentNotFound","inputs":[]},{"type":"error","name":"OfferingCore_NotAuthorized","inputs":[]},{"type":"error","name":"OfferingCore_NotInvestor","inputs":[]},{"type":"error","name":"OfferingCore_OfferingNotActive","inputs":[]},{"type":"error","name":"OfferingCore_UnsupportedOfferingType","inputs":[]},{"type":"error","name":"OnlyDelegate","inputs":[]},{"type":"error","name":"ReentrancyGuardReentrantCall","inputs":[]},{"type":"error","name":"SafeERC20FailedOperation","inputs":[{"name":"token","type":"address","internalType":"address"}]}],"bytecode":{"object":"0x60a0806040523460b457306080525f5160206134bc5f395f51905f525460ff8160401c1660a5576002600160401b03196001600160401b038216016053575b60405161340390816100b98239608051815050f35b6001600160401b0319166001600160401b039081175f5160206134bc5f395f51905f525581527fc7f505b2f371ae2175ee4913f4499e1f2633a7b5936321eed1cdaeb6115181d290602090a15f80603e565b63f92ee8a960e01b5f5260045ffd5b5f80fdfe60806040526004361015610011575f80fd5b5f3560e01c806244eff4146100f357806304da3f19146100ee57806309a3352f146100e957806316268c28146100e457806322ae634f146100df5780634c431f00146100da5780635b7baf64146100d5578063788fe028146100d0578063aae0b1e0146100cb578063ad7724f2146100c6578063b60aacaa146100c1578063d0a2f2c4146100bc578063d2a641e4146100b75763f0fb56a8146100b2575f80fd5b6114f2565b6113f2565b61134a565b610e72565b610e11565b610d8c565b610a7d565b610906565b61085f565b610781565b610634565b610556565b6104ba565b61020b565b6004111561010257565b634e487b7160e01b5f52602160045260245ffd5b90610120826100f8565b52565b805180835260209291819084018484015e5f828201840152601f01601f1916010190565b6101a0610160610208936020845261016b6020850182516001600160a01b03169052565b60208101516001600160a01b0316604085015260408101516001600160a01b0316606085015260608101516001600160a01b03166080850152608081015160a085015260a081015160c085015260c081015160e085015260e08101516101008501526101008101516101208501526101208101516101408501526101f761014082015183860190610116565b015191610180808201520190610123565b90565b346104b6575f3660031901126104b657606061016060405161022c81610ca7565b5f81525f60208201525f60408201525f838201525f60808201525f60a08201525f60c08201525f60e08201525f6101008201525f6101208201525f61014082015201526104b261027a610d08565b6102bb6102ae7f708bad8aa3b81bea04edad4b5c1dd58143a36561836ce96b5588ecea4e84e39f546001600160a01b031690565b6001600160a01b03168252565b6102ff6102ef7f708bad8aa3b81bea04edad4b5c1dd58143a36561836ce96b5588ecea4e84e3a0546001600160a01b031690565b6001600160a01b03166020830152565b6103306103205f5160206133ae5f395f51905f52546001600160a01b031690565b6001600160a01b03166040830152565b6103746103647f708bad8aa3b81bea04edad4b5c1dd58143a36561836ce96b5588ecea4e84e3a2546001600160a01b031690565b6001600160a01b03166060830152565b7f708bad8aa3b81bea04edad4b5c1dd58143a36561836ce96b5588ecea4e84e3a35460808201527f708bad8aa3b81bea04edad4b5c1dd58143a36561836ce96b5588ecea4e84e3a45460a08201527f708bad8aa3b81bea04edad4b5c1dd58143a36561836ce96b5588ecea4e84e3a55460c08201527f708bad8aa3b81bea04edad4b5c1dd58143a36561836ce96b5588ecea4e84e3a65460e08201527f708bad8aa3b81bea04edad4b5c1dd58143a36561836ce96b5588ecea4e84e3a7546101008201527f708bad8aa3b81bea04edad4b5c1dd58143a36561836ce96b5588ecea4e84e3a85461012082015261049861048e7f708bad8aa3b81bea04edad4b5c1dd58143a36561836ce96b5588ecea4e84e3a95460ff1690565b61014083016115c6565b6104a0611607565b61016082015260405191829182610147565b0390f35b5f80fd5b346104b6575f3660031901126104b6575f5160206133ae5f395f51905f52547f708bad8aa3b81bea04edad4b5c1dd58143a36561836ce96b5588ecea4e84e3a2547f708bad8aa3b81bea04edad4b5c1dd58143a36561836ce96b5588ecea4e84e3af54604080516001600160a01b03948516815293909216602084015290820152606090f35b60409060031901126104b6576004359060243590565b346104b65761056436610540565b61056c61209b565b1561060c57815f527f708bad8aa3b81bea04edad4b5c1dd58143a36561836ce96b5588ecea4e84e3ab60205260405f20906001600160a01b03825416156105e4576006919091018190556040519081527f86a3fe58abd946870b0d070e20ef781722a19d2a156d907bfe478ec44278b7d390602090a2005b7f250d2846000000000000000000000000000000000000000000000000000000005f5260045ffd5b7ffe7ae43a000000000000000000000000000000000000000000000000000000005f5260045ffd5b346104b65760203660031901126104b65760043560048110156104b65761065961209b565b1561060c577f090dc240b6971396472961dc185f630e0a38a8785c5c37c22b858ac2255a7fbb9060ff7f708bad8aa3b81bea04edad4b5c1dd58143a36561836ce96b5588ecea4e84e3a954166106ae826100f8565b60ff197f708bad8aa3b81bea04edad4b5c1dd58143a36561836ce96b5588ecea4e84e3a9541660ff8316177f708bad8aa3b81bea04edad4b5c1dd58143a36561836ce96b5588ecea4e84e3a95561070a60405192839283611712565b0390a1005b919091610100806101208301946001600160a01b0381511684526020810151602085015260408101516040850152606081015160608501526080810151608085015260a081015161075f816100f8565b60a085015260c08181015115159085015260e081015160e08501520151910152565b346104b65760203660031901126104b6576004355f6101006040516107a581610cc9565b8281528260208201528260408201528260608201528260808201528260a08201528260c08201528260e082015201525f527f708bad8aa3b81bea04edad4b5c1dd58143a36561836ce96b5588ecea4e84e3ab6020526104b261080960405f20611740565b6040519182918261070f565b6001600160a01b038116036104b657565b60206040818301928281528451809452019201905f5b8181106108495750505090565b825184526020938401939092019160010161083c565b346104b65760203660031901126104b6576108b560043561087f81610815565b6001600160a01b03165f527f708bad8aa3b81bea04edad4b5c1dd58143a36561836ce96b5588ecea4e84e3ad60205260405f2090565b6040519081602082549182815201915f5260205f20905f5b8181106108f0576104b2856108e481870382610ce6565b60405191829182610826565b82548452602090930192600192830192016108cd565b346104b65760203660031901126104b65760043561094b815f527f708bad8aa3b81bea04edad4b5c1dd58143a36561836ce96b5588ecea4e84e3ab60205260405f2090565b80546001600160a01b031680156105e4576001600160a01b03163303610a555760058101805460ff1661097d816100f8565b610a2d576109ab7f708bad8aa3b81bea04edad4b5c1dd58143a36561836ce96b5588ecea4e84e3a6546117f0565b421115610a05576001600160a01b03916109c76109dd92611812565b6109d084612245565b546001600160a01b031690565b16907f7753f0811884796ae94129b9370b6b1b9d4d2a4c042da6fe85c9b6da1325985b5f80a3005b7f6f9fd3ac000000000000000000000000000000000000000000000000000000005f5260045ffd5b7f03785a64000000000000000000000000000000000000000000000000000000005f5260045ffd5b7fff97c4df000000000000000000000000000000000000000000000000000000005f5260045ffd5b346104b65760203660031901126104b657600435610aa0610a9c61209b565b1590565b61060c57610ad5815f527f708bad8aa3b81bea04edad4b5c1dd58143a36561836ce96b5588ecea4e84e3ab60205260405f2090565b90610ae782546001600160a01b031690565b906001600160a01b038216156105e45760058301805460ff16610b09816100f8565b610a2d57610b4890610b22836001870195865490612563565b610b3483610b2f87611740565b612655565b610b3d81611829565b805461ff0019169055565b610b528254612909565b7f666ddf3bc13b0c4f440e0e8594b43a0bb0effc85c0634af74e876a6a63665f71610bb4610baf610baa845f527f708bad8aa3b81bea04edad4b5c1dd58143a36561836ce96b5588ecea4e84e3ab60205260405f2090565b611740565b612a54565b93846007820155610bd883610bd083546001600160a01b031690565b865490612bef565b6001600160a01b03610bf182546001600160a01b031690565b1693604051958533867fd22f7b83f7419d73eafaf66fdcd6f0f01880e3265bb1caa8774786e4e331f7055f80a485857f1d7fa5da104d4016f3767ffc70f02dd9d902b9e7cf61697017ac0387aeb3a33760028601549980610c578c829190602083019252565b0390a45494610c8e600660038401549301546040519384933399859094939260609260808301968352602083015260408201520152565b0390a4005b634e487b7160e01b5f52604160045260245ffd5b610180810190811067ffffffffffffffff821117610cc457604052565b610c93565b610120810190811067ffffffffffffffff821117610cc457604052565b90601f8019910116810190811067ffffffffffffffff821117610cc457604052565b60405190610d1861018083610ce6565b565b60405190610d1861012083610ce6565b67ffffffffffffffff8111610cc457601f01601f191660200190565b81601f820112156104b657803590610d5d82610d2a565b92610d6b6040519485610ce6565b828452602083830101116104b657815f926020809301838601378301015290565b346104b6576101203660031901126104b657600435610daa81610815565b60243590610db782610815565b604435610dc381610815565b606435610dcf81610815565b60843560a4359060c43592610de360e43590565b94610104359767ffffffffffffffff89116104b657610e09610e0f993690600401610d46565b97611857565b005b346104b65760203660031901126104b6576020610e69600435610e3381610815565b6001600160a01b03165f527f708bad8aa3b81bea04edad4b5c1dd58143a36561836ce96b5588ecea4e84e3b060205260405f2090565b54604051908152f35b610e7b36610540565b6001610ea87f708bad8aa3b81bea04edad4b5c1dd58143a36561836ce96b5588ecea4e84e3a95460ff1690565b610eb1816100f8565b036112e0577f708bad8aa3b81bea04edad4b5c1dd58143a36561836ce96b5588ecea4e84e3a65442116112b857610eea610a9c83612cc3565b61123f5781610f00611179926104b29433612d47565b6012610f337f708bad8aa3b81bea04edad4b5c1dd58143a36561836ce96b5588ecea4e84e3a0546001600160a01b031690565b6001600160a01b03811661118c575b50610f58610f52610f8092611e66565b83611e9b565b7f708bad8aa3b81bea04edad4b5c1dd58143a36561836ce96b5588ecea4e84e3a35490611eae565b90610f8c821515611ecc565b7f6fdfec0989a0db9eb7c54b77a3b15caecd2c85c394a5dcf62c04e6195f3907797f708bad8aa3b81bea04edad4b5c1dd58143a36561836ce96b5588ecea4e84e3ac54938493611002610fde86611f17565b7f708bad8aa3b81bea04edad4b5c1dd58143a36561836ce96b5588ecea4e84e3ac55565b61100c8585612e14565b6110b2611017612f35565b7f708bad8aa3b81bea04edad4b5c1dd58143a36561836ce96b5588ecea4e84e3a35490611042610d1a565b33815291876020840152846040840152606083015242608083015261106960a08301611735565b600160c083015260e08201525f6101008201526110ad875f527f708bad8aa3b81bea04edad4b5c1dd58143a36561836ce96b5588ecea4e84e3ab60205260405f2090565b611f25565b6111046110e0857f708bad8aa3b81bea04edad4b5c1dd58143a36561836ce96b5588ecea4e84e3af54611805565b7f708bad8aa3b81bea04edad4b5c1dd58143a36561836ce96b5588ecea4e84e3af55565b335f9081527f708bad8aa3b81bea04edad4b5c1dd58143a36561836ce96b5588ecea4e84e3b06020526040902061113c858254611805565b90556111488533612fb5565b6111538585336130ec565b6040519182913395836060905f9294936080820195825260208201528260408201520152565b0390a36040519081529081906020820190565b600491506111b16111a56020926001600160a01b031690565b6001600160a01b031690565b604051928380927f313ce5670000000000000000000000000000000000000000000000000000000082525afa5f918161120e575b506111ff5750610f80610f58610f5260125b925050610f42565b610f58610f52610f80926111f7565b61123191925060203d602011611238575b6112298183610ce6565b810190611e47565b905f6111e5565b503d61121f565b507f708bad8aa3b81bea04edad4b5c1dd58143a36561836ce96b5588ecea4e84e3a4541115611290577f8898dccb000000000000000000000000000000000000000000000000000000005f5260045ffd5b7f6fc5c84c000000000000000000000000000000000000000000000000000000005f5260045ffd5b7f2617b4cb000000000000000000000000000000000000000000000000000000005f5260045ffd5b7f55e9770e000000000000000000000000000000000000000000000000000000005f5260045ffd5b60206040818301928281528451809452019201905f5b81811061132b5750505090565b82516001600160a01b031684526020938401939092019160010161131e565b346104b6575f3660031901126104b6576040517f708bad8aa3b81bea04edad4b5c1dd58143a36561836ce96b5588ecea4e84e3ae80548083525f91825260208301917f4ec1c5fc699575e39ea0581996a90e3e676b9107cd167e1b74f9e6df3d967b1f91905b8181106113d3576104b2856113c781870382610ce6565b60405191829182611308565b82546001600160a01b03168452602090930192600192830192016113b0565b346104b65760203660031901126104b65760043561140f81610815565b6001600160a01b03165f9081527f708bad8aa3b81bea04edad4b5c1dd58143a36561836ce96b5588ecea4e84e3ad602052604081208054905f5b82811061145b57604051848152602090f35b61149c611468828461203f565b90549060031b1c5f527f708bad8aa3b81bea04edad4b5c1dd58143a36561836ce96b5588ecea4e84e3ab60205260405f2090565b600581015460ff166114ad816100f8565b80159081156114de575b506114c6575b50600101611449565b60019194826114d792015490611805565b93906114bd565b600191506114eb816100f8565b145f6114b7565b346104b65760203660031901126104b657600435611511610a9c61209b565b61060c57611546815f527f708bad8aa3b81bea04edad4b5c1dd58143a36561836ce96b5588ecea4e84e3ab60205260405f2090565b6001600160a01b0361155f82546001600160a01b031690565b16156105e45760058101805460ff16611577816100f8565b610a2d576001600160a01b03916109c761159092611840565b169033907f135dc16718b461c44ae749630a98a1bebd63e710b328ad36bf0c21b9693f61675f80a4005b600190610120826100f8565b610120826100f8565b90600182811c921680156115fd575b60208310146115e957565b634e487b7160e01b5f52602260045260245ffd5b91607f16916115de565b604051905f827f708bad8aa3b81bea04edad4b5c1dd58143a36561836ce96b5588ecea4e84e3aa5491611639836115cf565b80835292600181169081156116db575060011461165d575b610d1892500383610ce6565b507f708bad8aa3b81bea04edad4b5c1dd58143a36561836ce96b5588ecea4e84e3aa5f90815290917f54ac9907a926b582ede83bb8a21c70921e2c65b3e32bd1a279d4efdc75d422d15b8183106116bf575050906020610d1892820101611651565b60209193508060019154838589010152019101909184926116a7565b60209250610d1894915060ff191682840152151560051b820101611651565b90611704816100f8565b60ff80198354169116179055565b6040810193929160209190611726816100f8565b8152611731836100f8565b0152565b5f90610120826100f8565b90600761174b610d1a565b9261176d61176082546001600160a01b031690565b6001600160a01b03168552565b600181015460208501526002810154604085015260038101546060850152600481015460808501526117c86117bf60058301546117b66117ad8260ff1690565b60a089016115c6565b60081c60ff1690565b151560c0860152565b600681015460e08501520154610100830152565b634e487b7160e01b5f52601160045260245ffd5b9062093a80820180921161180057565b6117dc565b9190820180921161180057565b61181c60036100f8565b805460ff19166003179055565b61183360016100f8565b805460ff19166001179055565b61184a60026100f8565b805460ff19166002179055565b9791969093949560ff7ff0c57e16840df040f15088dc2f81fe391c3923bec73e23a9662efc9c229c6a005460401c1615611a2d577f708bad8aa3b81bea04edad4b5c1dd58143a36561836ce96b5588ecea4e84e3b55460ff16611a05577f393a63ea637c258da582ed0ffb8ccd62f78704d5a0a3fe71d31625f10bab7d33966001600160a01b0396611a009561196d8c6119016118f2610d08565b6001600160a01b039092168252565b6001600160a01b038a1660208201526001600160a01b038d1660408201526001600160a01b03831660608201528360808201528460a08201528560c08201528660e08201525f6101008201525f61012082015261196161014082016115ba565b87610160820152611b70565b61199660017f708bad8aa3b81bea04edad4b5c1dd58143a36561836ce96b5588ecea4e84e3ac55565b6119e6600160ff197f708bad8aa3b81bea04edad4b5c1dd58143a36561836ce96b5588ecea4e84e3b55416177f708bad8aa3b81bea04edad4b5c1dd58143a36561836ce96b5588ecea4e84e3b555565b6119ef8c612c59565b88604051998a99169c169a88611df9565b0390a3565b7f0cc21589000000000000000000000000000000000000000000000000000000005f5260045ffd5b7fd7e6bcf8000000000000000000000000000000000000000000000000000000005f5260045ffd5b601f8211611a6257505050565b5f5260205f20906020601f840160051c83019310611a9a575b601f0160051c01905b818110611a8f575050565b5f8155600101611a84565b9091508190611a7b565b919091825167ffffffffffffffff8111610cc457611acc81611ac684546115cf565b84611a55565b6020601f8211600114611b0b578190611afc9394955f92611b00575b50508160011b915f199060031b1c19161790565b9055565b015190505f80611ae8565b601f19821690611b1e845f5260205f2090565b915f5b818110611b5857509583600195969710611b40575b505050811b019055565b01515f1960f88460031b161c191690555f8080611b36565b9192602060018192868b015181550194019201611b21565b610160610d1891611bc7611b8b82516001600160a01b031690565b7f708bad8aa3b81bea04edad4b5c1dd58143a36561836ce96b5588ecea4e84e39f906001600160a01b03166001600160a01b0319825416179055565b611c1a611bde60208301516001600160a01b031690565b7f708bad8aa3b81bea04edad4b5c1dd58143a36561836ce96b5588ecea4e84e3a0906001600160a01b03166001600160a01b0319825416179055565b611c5a611c3160408301516001600160a01b031690565b5f5160206133ae5f395f51905f52906001600160a01b03166001600160a01b0319825416179055565b611cad611c7160608301516001600160a01b031690565b7f708bad8aa3b81bea04edad4b5c1dd58143a36561836ce96b5588ecea4e84e3a2906001600160a01b03166001600160a01b0319825416179055565b60808101517f708bad8aa3b81bea04edad4b5c1dd58143a36561836ce96b5588ecea4e84e3a35560a08101517f708bad8aa3b81bea04edad4b5c1dd58143a36561836ce96b5588ecea4e84e3a45560c08101517f708bad8aa3b81bea04edad4b5c1dd58143a36561836ce96b5588ecea4e84e3a55560e08101517f708bad8aa3b81bea04edad4b5c1dd58143a36561836ce96b5588ecea4e84e3a6556101008101517f708bad8aa3b81bea04edad4b5c1dd58143a36561836ce96b5588ecea4e84e3a7556101208101517f708bad8aa3b81bea04edad4b5c1dd58143a36561836ce96b5588ecea4e84e3a855611dd1610140820151611dab816100f8565b7f708bad8aa3b81bea04edad4b5c1dd58143a36561836ce96b5588ecea4e84e3a96116fa565b01517f708bad8aa3b81bea04edad4b5c1dd58143a36561836ce96b5588ecea4e84e3aa611aa4565b9390926001600160a01b0360e09693816102089a999616875216602086015260408501526060840152608083015260a08201528160c08201520190610123565b519060ff821682036104b657565b908160209103126104b65761020890611e39565b6040513d5f823e3d90fd5b60ff16604d811161180057600a0a90565b90670de0b6b3a7640000820291808304670de0b6b3a7640000149015171561180057565b8181029291811591840414171561180057565b8115611eb8570490565b634e487b7160e01b5f52601260045260245ffd5b15611ed357565b606460405162461bcd60e51b815260206004820152601460248201527f496e766573746d656e7420746f6f20736d616c6c0000000000000000000000006044820152fd5b5f1981146118005760010190565b90610100600791611f5c611f4082516001600160a01b031690565b85906001600160a01b03166001600160a01b0319825416179055565b60208101516001850155604081015160028501556060810151600385015560808101516004850155611fbf60058501611fa260a0840151611f9c816100f8565b826116fa565b60c08301511515815461ff00191690151560081b61ff0016179055565b60e081015160068501550151910155565b634e487b7160e01b5f52603260045260245ffd5b7f708bad8aa3b81bea04edad4b5c1dd58143a36561836ce96b5588ecea4e84e3ae5481101561203a577f708bad8aa3b81bea04edad4b5c1dd58143a36561836ce96b5588ecea4e84e3ae5f5260205f2001905f90565b611fd0565b805482101561203a575f5260205f2001905f90565b3d1561207e573d9061206582610d2a565b916120736040519384610ce6565b82523d5f602084013e565b606090565b908160209103126104b6575180151581036104b65790565b7f708bad8aa3b81bea04edad4b5c1dd58143a36561836ce96b5588ecea4e84e39f546001600160a01b031680331461215157803b1561214c576040517ffa8c59dc00000000000000000000000000000000000000000000000000000000602082019081523360248301525f92839290919061212381604481015b03601f198101835282610ce6565b51915afa61212f612054565b81612138575090565b610208915060208082518301019101612083565b505f90565b50600190565b1561215e57565b606460405162461bcd60e51b815260206004820152601c60248201527f455243323020657363726f7720616d6f756e74206d69736d61746368000000006044820152fd5b9190820391821161180057565b156121b657565b606460405162461bcd60e51b815260206004820152601a60248201527f45544820657363726f7720616d6f756e74206d69736d617463680000000000006044820152fd5b1561220157565b606460405162461bcd60e51b815260206004820152601a60248201527f45544820726566756e64207472616e73666572206661696c65640000000000006044820152fd5b612276815f527f708bad8aa3b81bea04edad4b5c1dd58143a36561836ce96b5588ecea4e84e3ab60205260405f2090565b90600582019061228e610a9c835460ff9060081c1690565b6124f857610d18926122b45f5160206133ae5f395f51905f52546001600160a01b031690565b6001600160a01b0381166123b257505f8080846123a2829583612394612304610b3d9a5f527f708bad8aa3b81bea04edad4b5c1dd58143a36561836ce96b5588ecea4e84e3b260205260405f2090565b5494612315600185015487146121af565b612367612343877f708bad8aa3b81bea04edad4b5c1dd58143a36561836ce96b5588ecea4e84e3b1546121a2565b7f708bad8aa3b81bea04edad4b5c1dd58143a36561836ce96b5588ecea4e84e3b155565b5f527f708bad8aa3b81bea04edad4b5c1dd58143a36561836ce96b5588ecea4e84e3b260205260405f2090565b55546001600160a01b031690565b5af16123ac612054565b506121fa565b905f6124ba61248d8561245361240c876123f66124f39a5f527f708bad8aa3b81bea04edad4b5c1dd58143a36561836ce96b5588ecea4e84e3b460205260405f2090565b906001600160a01b03165f5260205260405f2090565b549661241d60018801548914612157565b6001600160a01b03165f527f708bad8aa3b81bea04edad4b5c1dd58143a36561836ce96b5588ecea4e84e3b360205260405f2090565b61245e8782546121a2565b90555f527f708bad8aa3b81bea04edad4b5c1dd58143a36561836ce96b5588ecea4e84e3b460205260405f2090565b5f5160206133ae5f395f51905f52546001600160a01b03166001600160a01b03165f5260205260405f2090565b556124ed6124df6111a55f5160206133ae5f395f51905f52546001600160a01b031690565b91546001600160a01b031690565b90613147565b610b3d565b60405162461bcd60e51b815260206004820152602560248201527f5061796d656e74206e6f7420696e20657363726f77202d2063616e6e6f74207260448201527f6566756e640000000000000000000000000000000000000000000000000000006064820152608490fd5b5f926125be849361211560405193849260208401967f7f629509000000000000000000000000000000000000000000000000000000008852602485016040919493926001600160a01b03606083019616825260208201520152565b5190305afa506125cc612054565b50565b156125d657565b608460405162461bcd60e51b8152602060048201526024808201527f436f72706f726174652045544820657363726f77207472616e7366657220666160448201527f696c6564000000000000000000000000000000000000000000000000000000006064820152fd5b91908260409103126104b6576020825192015190565b612665610a9c60c0830151151590565b612905575f5160206133ae5f395f51905f52546001600160a01b03168061285457505f6126fb6126bc845f527f708bad8aa3b81bea04edad4b5c1dd58143a36561836ce96b5588ecea4e84e3b260205260405f2090565b54936126cd602085015186146121af565b612367612343867f708bad8aa3b81bea04edad4b5c1dd58143a36561836ce96b5588ecea4e84e3b1546121a2565b557f708bad8aa3b81bea04edad4b5c1dd58143a36561836ce96b5588ecea4e84e3a2546001600160a01b0316612730816131a8565b1561283957506127b6916040916127856127776111a56111a57f708bad8aa3b81bea04edad4b5c1dd58143a36561836ce96b5588ecea4e84e3a2546001600160a01b031690565b91516001600160a01b031690565b8351635bc2147d60e11b81526001600160a01b03909116600482015260248101839052938492839182906044820190565b03925af1908161280b575b50610d185760405162461bcd60e51b815260206004820152601b60248201527f46756e6420657363726f77207472616e73666572206661696c656400000000006044820152606490fd5b61282c9060403d604011612832575b6128248183610ce6565b81019061263f565b506127c1565b503d61281a565b5f80809350610d189481935af161284e612054565b506125cf565b6128b361248d846128a88461241d602061289d5f986123f6610d189c5f527f708bad8aa3b81bea04edad4b5c1dd58143a36561836ce96b5588ecea4e84e3b460205260405f2090565b549801518814612157565b61245e8682546121a2565b556128d56111a55f5160206133ae5f395f51905f52546001600160a01b031690565b7f708bad8aa3b81bea04edad4b5c1dd58143a36561836ce96b5588ecea4e84e3a2546001600160a01b03166124ed565b5050565b7f708bad8aa3b81bea04edad4b5c1dd58143a36561836ce96b5588ecea4e84e3a75490810180911161180057807f708bad8aa3b81bea04edad4b5c1dd58143a36561836ce96b5588ecea4e84e3a7556129827f708bad8aa3b81bea04edad4b5c1dd58143a36561836ce96b5588ecea4e84e3a854611f17565b7f708bad8aa3b81bea04edad4b5c1dd58143a36561836ce96b5588ecea4e84e3a8557f708bad8aa3b81bea04edad4b5c1dd58143a36561836ce96b5588ecea4e84e3a55411156129ce57565b7f090dc240b6971396472961dc185f630e0a38a8785c5c37c22b858ac2255a7fbb60ff7f708bad8aa3b81bea04edad4b5c1dd58143a36561836ce96b5588ecea4e84e3a954612a4f8260028119841617807f708bad8aa3b81bea04edad4b5c1dd58143a36561836ce96b5588ecea4e84e3a955166040519384931683611712565b0390a1565b7f708bad8aa3b81bea04edad4b5c1dd58143a36561836ce96b5588ecea4e84e3a05490612a896001600160a01b0383166131a8565b15612ac4577f708bad8aa3b81bea04edad4b5c1dd58143a36561836ce96b5588ecea4e84e3a05461020892506001600160a01b0316906131f8565b80612ad460206040930151611e77565b612af96111a56111a5612aec86860194855190611eae565b966001600160a01b031690565b905f612b0c84516001600160a01b031690565b915191612bb86080612b325f5160206133ae5f395f51905f52546001600160a01b031690565b9601518751988997889687957f0d9f3875000000000000000000000000000000000000000000000000000000008752600487019594939290916001600160a01b03809316875260208701521660408501526060840152608083015261010060a08301525f61010083015261012060c08301525f6101208301525f60e06101408401930152565b03925af1908115612bea575f91612bcd575090565b612be6915060403d604011612832576128248183610ce6565b5090565b611e5b565b5f92612c4a849361211560405193849260208401967f99221b60000000000000000000000000000000000000000000000000000000008852602485016040919493926001600160a01b03606083019616825260208201520152565b519082305af1506125cc612054565b6001600160a01b035f91168082527f01a4eee68dd85ae21f7af43541cdad31dffdda01c908cfeea5c0dd9e8cbc10a060205260408220600181541790557f4c9bdd0c8e073eb5eda2250b18d8e5121ff27b62064fbeeeed4869bb99bc5bf2602060405160018152a3565b7f708bad8aa3b81bea04edad4b5c1dd58143a36561836ce96b5588ecea4e84e3a4548110159081612cf2575090565b90507f708bad8aa3b81bea04edad4b5c1dd58143a36561836ce96b5588ecea4e84e3a754908101809111611800577f708bad8aa3b81bea04edad4b5c1dd58143a36561836ce96b5588ecea4e84e3a554101590565b5f92918392604051916001600160a01b0360208401947fce9439530000000000000000000000000000000000000000000000000000000086521660248401526044830152606482015260648152612d9f608482610ce6565b5190305afa612dac612054565b9015612db55750565b8051918215612dc45750602001fd5b915050565b15612dd057565b606460405162461bcd60e51b815260206004820152601460248201527f496e636f72726563742045544820616d6f756e740000000000000000000000006044820152fd5b906001600160a01b035f5160206133ae5f395f51905f52541680155f14612e765750612e7390612e45833414612dc9565b612367612343847f708bad8aa3b81bea04edad4b5c1dd58143a36561836ce96b5588ecea4e84e3b154611805565b55565b34612ecb57612e7391612e9f84612e9661248d946001600160a01b031690565b309033906132e5565b612ec061241d5f5160206133ae5f395f51905f52546001600160a01b031690565b61245e858254611805565b608460405162461bcd60e51b815260206004820152602160248201527f4e6f2045544820657870656374656420666f7220746f6b656e207061796d656e60448201527f74000000000000000000000000000000000000000000000000000000000000006064820152fd5b5f5f8060405160208101907f0837d3e500000000000000000000000000000000000000000000000000000000825260048152612f72602482610ce6565b5190305afa612f7f612054565b90612f88575090565b90506060818051810103126104b657612be66060602083015192612faf6040820151610815565b01611e39565b90612ff0826001600160a01b03165f527f708bad8aa3b81bea04edad4b5c1dd58143a36561836ce96b5588ecea4e84e3ad60205260405f2090565b805468010000000000000000811015610cc4576130129160018201815561203f565b819291549060031b91821b915f19901b19161790556001613063826001600160a01b03165f527f708bad8aa3b81bea04edad4b5c1dd58143a36561836ce96b5588ecea4e84e3ad60205260405f2090565b541461306c5750565b7f708bad8aa3b81bea04edad4b5c1dd58143a36561836ce96b5588ecea4e84e3ae5468010000000000000000811015610cc4578060016130ce92017f708bad8aa3b81bea04edad4b5c1dd58143a36561836ce96b5588ecea4e84e3ae55611fe4565b6001600160a01b0380839493549260031b9316831b921b1916179055565b5f92612c4a849361211560405193849260208401967f087efee9000000000000000000000000000000000000000000000000000000008852602485016040919493926001600160a01b03606083019616825260208201520152565b6040517fa9059cbb0000000000000000000000000000000000000000000000000000000060208201526001600160a01b0390921660248301526044820192909252610d18916131a382606481015b03601f198101845283610ce6565b613340565b803b1561214c575f809160405160208101907f289caf68000000000000000000000000000000000000000000000000000000008252600481526131ec602482610ce6565b51915afa612be6612054565b90613209610a9c60c0840151151590565b156132145750505f90565b81604091613231602061326b95015192516001600160a01b031690565b826001600160a01b038551809781968295635bc2147d60e11b845260048401602090939291936001600160a01b0360408201951681520152565b0393165af15f91816132c2575b506102085760405162461bcd60e51b815260206004820152601660248201527f46756e6420696e766573746d656e74206661696c6564000000000000000000006044820152606490fd5b6132dc91925060403d604011612832576128248183610ce6565b9050905f613278565b6040517f23b872dd0000000000000000000000000000000000000000000000000000000060208201526001600160a01b0392831660248201529290911660448301526064820192909252610d18916131a38260848101613195565b905f602091828151910182855af115611e5b575f513d6133a457506001600160a01b0381163b155b61336f5750565b6001600160a01b03907f5274afe7000000000000000000000000000000000000000000000000000000005f521660045260245ffd5b6001141561336856fe708bad8aa3b81bea04edad4b5c1dd58143a36561836ce96b5588ecea4e84e3a1a26469706673582212203904f215b387d64ba90ace3c839152ab42e7a51b4058ad709b9ada3c62d3eddb64736f6c634300081c0033f0c57e16840df040f15088dc2f81fe391c3923bec73e23a9662efc9c229c6a00","linkReferences":{}},"methodIdentifiers":{"OfferingCore_init(address,address,address,address,uint256,uint256,uint256,uint256,string)":"aae0b1e0","attachInvestmentAgreement(uint256,bytes32)":"09a3352f","claimRefund(uint256)":"5b7baf64","countersignInvestment(uint256)":"788fe028","getAllInvestors()":"d0a2f2c4","getInvestment(uint256)":"22ae634f","getInvestorInvestments(address)":"4c431f00","getInvestorPaymentTotal(address)":"ad7724f2","getInvestorTotalInvestment(address)":"d2a641e4","getOfferingInfo()":"0044eff4","getPaymentInfo()":"04da3f19","invest(uint256,bytes32)":"b60aacaa","rejectInvestment(uint256)":"f0fb56a8","updateOfferingStatus(uint8)":"16268c28"},"id":178}