{"abi":[{"type":"function","name":"OfferingFactoryCore_init","inputs":[{"name":"diamondFactory","type":"address","internalType":"address"},{"name":"admin","type":"address","internalType":"address"}],"outputs":[],"stateMutability":"nonpayable"},{"type":"function","name":"createOffering","inputs":[{"name":"config","type":"tuple","internalType":"struct IOfferingFactory.OfferingConfig","components":[{"name":"admin","type":"address","internalType":"address"},{"name":"issuer","type":"address","internalType":"address"},{"name":"tokenAddress","type":"address","internalType":"address"},{"name":"paymentToken","type":"address","internalType":"address"},{"name":"paymentRecipient","type":"address","internalType":"address"},{"name":"pricePerToken","type":"uint256","internalType":"uint256"},{"name":"minInvestment","type":"uint256","internalType":"uint256"},{"name":"maxAmount","type":"uint256","internalType":"uint256"},{"name":"deadline","type":"uint256","internalType":"uint256"},{"name":"allowsSelfCertification","type":"bool","internalType":"bool"},{"name":"allowsGeneralSolicitation","type":"bool","internalType":"bool"}]},{"name":"facets","type":"address[]","internalType":"address[]"},{"name":"initAddress","type":"address","internalType":"address"},{"name":"initData","type":"bytes","internalType":"bytes"},{"name":"complianceModules","type":"tuple[]","internalType":"struct IOfferingFactory.ComplianceModuleConfig[]","components":[{"name":"moduleName","type":"string","internalType":"string"},{"name":"executionOrder","type":"uint256","internalType":"uint256"},{"name":"enabled","type":"bool","internalType":"bool"},{"name":"initData","type":"bytes","internalType":"bytes"}]},{"name":"salt","type":"bytes32","internalType":"bytes32"},{"name":"paymentToken","type":"address","internalType":"address"}],"outputs":[{"name":"result","type":"tuple","internalType":"struct IOfferingFactory.DeploymentResult","components":[{"name":"offeringDiamond","type":"address","internalType":"address"},{"name":"complianceModules","type":"address[]","internalType":"address[]"},{"name":"moduleNames","type":"string[]","internalType":"string[]"}]}],"stateMutability":"payable"},{"type":"function","name":"getDiamondFactory","inputs":[],"outputs":[{"name":"","type":"address","internalType":"address"}],"stateMutability":"view"},{"type":"function","name":"getOfferingCount","inputs":[],"outputs":[{"name":"","type":"uint256","internalType":"uint256"}],"stateMutability":"view"},{"type":"function","name":"isInitialized","inputs":[],"outputs":[{"name":"","type":"bool","internalType":"bool"}],"stateMutability":"view"},{"type":"function","name":"packedSelectors","inputs":[],"outputs":[{"name":"","type":"bytes","internalType":"bytes"}],"stateMutability":"pure"},{"type":"function","name":"predictOfferingAddress","inputs":[{"name":"deployer","type":"address","internalType":"address"},{"name":"facets","type":"address[]","internalType":"address[]"},{"name":"initAddress","type":"address","internalType":"address"},{"name":"initData","type":"bytes","internalType":"bytes"},{"name":"salt","type":"bytes32","internalType":"bytes32"}],"outputs":[{"name":"","type":"address","internalType":"address"}],"stateMutability":"view"},{"type":"function","name":"setDiamondFactory","inputs":[{"name":"newFactory","type":"address","internalType":"address"}],"outputs":[],"stateMutability":"nonpayable"},{"type":"event","name":"OfferingCreated","inputs":[{"name":"offeringDiamond","type":"address","indexed":true,"internalType":"address"},{"name":"issuer","type":"address","indexed":true,"internalType":"address"},{"name":"admin","type":"address","indexed":true,"internalType":"address"},{"name":"complianceModules","type":"address[]","indexed":false,"internalType":"address[]"}],"anonymous":false},{"type":"event","name":"OfferingFactoryInitialized","inputs":[{"name":"diamondFactory","type":"address","indexed":true,"internalType":"address"},{"name":"admin","type":"address","indexed":true,"internalType":"address"}],"anonymous":false},{"type":"error","name":"AccessControl_CallerIsNotAuthorized","inputs":[{"name":"caller","type":"address","internalType":"address"},{"name":"functionSig","type":"bytes4","internalType":"bytes4"}]},{"type":"error","name":"FailedDeployment","inputs":[]},{"type":"error","name":"InsufficientBalance","inputs":[{"name":"balance","type":"uint256","internalType":"uint256"},{"name":"needed","type":"uint256","internalType":"uint256"}]},{"type":"error","name":"OfferingFactory_AlreadyInitialized","inputs":[]},{"type":"error","name":"OfferingFactory_InvalidConfiguration","inputs":[]},{"type":"error","name":"OfferingFactory_InvalidDiamondFactory","inputs":[]},{"type":"error","name":"OfferingFactory_ModuleNotActive","inputs":[{"name":"moduleName","type":"string","internalType":"string"}]},{"type":"error","name":"OfferingFactory_ModuleNotFound","inputs":[{"name":"moduleName","type":"string","internalType":"string"}]},{"type":"error","name":"OfferingFactory_NotInitialized","inputs":[]}],"bytecode":{"object":"0x60808060405234601557611850908161001a8239f35b5f80fdfe60806040526004361015610011575f80fd5b5f358060e01c9081632d0471811461009757508063392e53cd146100925780633e62267c1461008d5780637d93c598146100885780638d0bbea81461008357806399481a931461007e578063d7df0932146100795763de191b3314610074575f80fd5b6108ef565b610422565b6103e6565b61032f565b6102ca565b610239565b6101d3565b3461015557602036600319011261015557600435906100b582610159565b6001600160e01b0319166100c98133610f78565b1561013f57506001600160a01b038116156100e9576100e790610a24565b005b60405162461bcd60e51b815260206004820152602860248201527f4f66666572696e67466163746f72793a20496e76616c696420666163746f7279604482015267206164647265737360c01b6064820152608490fd5b631d64bc3360e11b5f523360045260245260445ffd5b5f80fd5b6001600160a01b0381160361015557565b6044359061017782610159565b565b6004359061017782610159565b6024359061017782610159565b6064359061017782610159565b6084359061017782610159565b610184359061017782610159565b610204359061017782610159565b5f91031261015557565b34610155575f36600319011261015557602060ff5f5160206117fb5f395f51905f5254166040519015158152f35b805180835260209291819084018484015e5f828201840152601f01601f1916010190565b906020610236928181520190610201565b90565b34610155575f36600319011261015557604051636bef849960e11b602082015263de191b3360e01b60248201526311a177d560e31b6028820152630fb278b360e31b602c820152632d04718160e01b60308201526399481a9360e01b603482015263392e53cd60e01b6038820152601c81526102c6906102ba603c826105ba565b60405191829182610225565b0390f35b34610155575f366003190112610155575f5160206117fb5f395f51905f525460405160089190911c6001600160a01b03168152602090f35b9181601f84011215610155578235916001600160401b038311610155576020838186019501011161015557565b346101555760a03660031901126101555760043561034c81610159565b602435906001600160401b0382116101555736602383011215610155578160040135916001600160401b038311610155573660248460051b830101116101555761039461016a565b92606435926001600160401b038411610155576102c6946103bc6103cc953690600401610302565b9390926024608435960190610a97565b6040516001600160a01b0390911681529081906020820190565b34610155575f3660031901126101555760207fd1df11c0c6128e2bce9ef2eab23435bf9729297865cf91d3a1acc398d796ea2f54604051908152f35b346101555760403660031901126101555760043561043f81610159565b60243561044b81610159565b5f5160206117fb5f395f51905f525460ff16610577576001600160a01b038216908115610568576001600160a01b0381169283156105595761048c90610a24565b6104b6600160ff195f5160206117fb5f395f51905f525416175f5160206117fb5f395f51905f5255565b6001600160a01b03165f9081525f5160206117db5f395f51905f5260205260409020600190600181541790556104ec60206105eb565b636bef849960e11b81525f5b828110610528575050507f09f087f650eb0ed3efdd219a4c50aad45c2436d18c5c098a2dcf9787de66e71f5f80a3005b8061054d61054861053a869486610bb4565b516001600160e01b03191690565b610bca565b828154179055016104f8565b6353740f3160e11b5f5260045ffd5b636a0fb36f60e01b5f5260045ffd5b6390c2b48f60e01b5f5260045ffd5b634e487b7160e01b5f52604160045260245ffd5b608081019081106001600160401b038211176105b557604052565b610586565b90601f801991011681019081106001600160401b038211176105b557604052565b60405190610177610160836105ba565b9061017760405192836105ba565b8015150361015557565b6101243590610177826105f9565b6101443590610177826105f9565b3590610177826105f9565b6001600160401b0381116105b55760051b60200190565b9080601f830112156101555781356106588161062a565b9261066660405194856105ba565b81845260208085019260051b82010192831161015557602001905b82821061068e5750505090565b60208091833561069d81610159565b815201910190610681565b6001600160401b0381116105b557601f01601f191660200190565b9291926106cf826106a8565b916106dd60405193846105ba565b829481845281830111610155578281602093845f960137010152565b9080601f8301121561015557816020610236933591016106c3565b9080601f830112156101555781359161072c8361062a565b9261073a60405194856105ba565b80845260208085019160051b830101918383116101555760208101915b83831061076657505050505090565b82356001600160401b038111610155578201906080828703601f19011261015557604051906107948261059a565b60208301356001600160401b0381116101555760209084010187601f8201121561015557878160206107c8933591016106c3565b8252604083013560208301526107e06060840161061f565b60408301526080830135916001600160401b0383116101555761080b886020809695819601016106f9565b6060820152815201920191610757565b9080602083519182815201916020808360051b8301019401925f915b83831061084657505050505090565b9091929394602080610864600193601f198682030187528951610201565b97019301930191939290610837565b602080825282516001600160a01b031681830152808301516060604084015280516080840181905293949360a08401939291909101905f5b8181106108d057505050604061023693940151906060601f198285030191015261081b565b82516001600160a01b03168552602094850194909201916001016108ab565b3660031901610220811261015557610160136101555761090d6105db565b610915610179565b815261091f610186565b602082015261092c61016a565b6040820152610939610193565b60608201526109466101a0565b608082015260a43560a082015260c43560c082015260e43560e082015261010435610100820152610975610603565b610120820152610983610611565b610140820152610164356001600160401b038111610155576109a9903690600401610641565b906109b26101ad565b906101a4356001600160401b038111610155576109d39036906004016106f9565b926101c435926001600160401b038411610155576102c6946109fc610a18953690600401610714565b916101e43593610a0a6101bb565b95610a13610c00565b610c2f565b60405191829182610873565b5f5160206117fb5f395f51905f528054610100600160a81b03191660089290921b610100600160a81b0316919091179055565b90816020910312610155575161023681610159565b908060209392818452848401375f828201840152601f01601f1916010190565b6040513d5f823e3d90fd5b5f5160206117fb5f395f51905f525460405163d5cd29fd60e01b81526001600160a01b03928316600482015260a0602482015260a481018590529760089190911c909116958795919460c4870194919390915f5b818110610b6c575050506001600160a01b0316604486015260209593859384939192610b239290858303600319016064870152610a6c565b90608483015203915afa908115610b67575f91610b3e575090565b610236915060203d602011610b60575b610b5881836105ba565b810190610a57565b503d610b4e565b610a8c565b91969750919293946020806001928935610b8581610159565b848060a01b0316815201970191019189979695949392610aeb565b634e487b7160e01b5f52603260045260245ffd5b906001811015610bc55760051b0190565b610ba0565b63ffffffff60e01b165f527fce1c17acaaa67de66e928cd49c8f658667a825223bee6fda99a14908362bcdab60205260405f2090565b60405190606082018281106001600160401b038211176105b55760405260606040835f81528260208201520152565b969295949391909560ff5f5160206117fb5f395f51905f52541615610e9657602093610c5a88610fc6565b6001600160a01b038116610e7e575b505f5160206117fb5f395f51905f5254610c9c90610c909060081c6001600160a01b031681565b6001600160a01b031690565b91610cbd60405197889586948594632435834760e21b865260048601610f07565b039134905af1908115610b6757610ce88592610d55945f91610e5f575b506001600160a01b03168352565b610d39610d157fd1df11c0c6128e2bce9ef2eab23435bf9729297865cf91d3a1acc398d796ea2f54610f45565b7fd1df11c0c6128e2bce9ef2eab23435bf9729297865cf91d3a1acc398d796ea2f55565b83516001600160a01b031682516001600160a01b03169061115e565b333b610df6575b8151610d7c906001600160a01b031682516001600160a01b03169061120e565b81516001600160a01b03166020820151610da7906001600160a01b031692516001600160a01b031690565b60208401516040516001600160a01b0392831694831693909216917f409506a8cea493cd5cbd60c6c1baaccf1f4216ffaef29725708acbafad9f2489918190610df09082610f67565b0390a490565b8151610e0c90610c90906001600160a01b031681565b803b1561015557604051637a9e5e4b60e01b8152336004820152905f908290602490829084905af18015610b6757610e45575b50610d5c565b80610e535f610e59936105ba565b806101c9565b5f610e3f565b610e78915060203d602011610b6057610b5881836105ba565b5f610cda565b610e9090610e8a610ea5565b90611097565b5f610c69565b639557cad560e01b5f5260045ffd5b60405190610eb46040836105ba565b60088252674f66666572696e6760c01b6020830152565b90602080835192838152019201905f5b818110610ee85750505090565b82516001600160a01b0316845260209384019390920191600101610edb565b94939291606092610f23610f4093608089526080890190610ecb565b6001600160a01b0390921660208801528682036040880152610201565b930152565b5f198114610f535760010190565b634e487b7160e01b5f52601160045260245ffd5b906020610236928181520190610ecb565b81610f8291611306565b610fc0577f511915e52b7f9e690b9fdc662acaf5600fd3722c87eb951d3abd26e93a784dca5c9060ff8216610fb75750505f90565b6102369161147b565b50600190565b80516001600160a01b031615610559576020810151610fed906001600160a01b0316610c90565b15610559576040810151611009906001600160a01b0316610c90565b15610559576060810151611025906001600160a01b0316610c90565b15610559576080810151611041906001600160a01b0316610c90565b156105595760a0810151156105595760e08101511561055957610100015142101561055957565b3d15611092573d90611079826106a8565b9161108760405193846105ba565b82523d5f602084013e565b606090565b5f91906110d56110e3849360405192839160208301956393def2af60e01b875260018060a01b03166024840152604060448401526064830190610201565b03601f1981018352826105ba565b5190305af46110f0611068565b90156110f95750565b80511561110857805190602001fd5b60405162461bcd60e51b815260206004820152601560248201527418dbdb1b1958dd14185e5b595b9d0819985a5b1959605a1b604482015280606481015b0390fd5b8051821015610bc55760209160051b010190565b9092919283519361116e8561062a565b61117b60405191826105ba565b858152601f1961118a8761062a565b01366020830137602085015261119f8561062a565b6111ac60405191826105ba565b858152601f196111bb8761062a565b015f5b8181106111fd57505060408501525f5b8581106111dd57505050505050565b806111f781876111ef6001958761114a565b518789611509565b016111ce565b8060606020809386010152016111be565b306001600160a01b03831603611222575050565b6001600160a01b031690813b15610155576040516319ebfd2160e21b81526001600160a01b039190911660048201525f60248201819052600160448301528160648183865af18015610b67576112c6575b50803b15610155576040516319ebfd2160e21b81523060048201525f602482018190526044820181905290918290606490829084905af18015610b67576112b8575b50565b80610e535f610177936105ba565b80610e535f6112d4936105ba565b5f611273565b919082604091031261015557602082516112f3816105f9565b92015163ffffffff811681036101555790565b7fce1c17acaaa67de66e928cd49c8f658667a825223bee6fda99a14908362bcdac546001600160a01b0316806113db575b506001600160a01b0381165f9081525f5160206117db5f395f51905f5260205260409020611366905492610bca565b549081156113aa576001600160a01b03165f9081525f5160206117db5f395f51905f52602052604090205460011615159182156113a257505090565b161515919050565b6001600160a01b03165f9081525f5160206117db5f395f51905f526020526040902054600116151591506102369050565b6113ed906001600160a01b0316610c90565b6040805163b700961360e01b81526001600160a01b03841660048201523060248201526001600160e01b03198516604482015291829060649082905afa5f9181611449575b501561133757611442575f611337565b5050600190565b61146c91925060403d604011611474575b61146481836105ba565b8101906112da565b50905f611432565b503d61145a565b60ff169081156114425761148e90610bca565b549081156114a0576001901b16151590565b50505f90565b6040518151909260209284929081908501845e82019081520301902090565b6114dd60409295949395606083526060830190610201565b6001600160a01b0390951660208201520152565b91906020610f40600192604086526040860190610201565b939291906115387fd1df11c0c6128e2bce9ef2eab23435bf9729297865cf91d3a1acc398d796ea3083516114a6565b805490956001600160a01b0382169182156116ac5761155b9060a01c60ff161590565b61168d576001918361157292606087015192611717565b950161157e8154610f45565b905560018060a01b03168151602083015190823b1561015557865f916115b860405194859384936373b4d29b60e11b8552600485016114c5565b038183865af18015610b6757611679575b506040820151611611575b506040906115fc6112b5956115ed86602087015161114a565b6001600160a01b039091169052565b519101519061160b838361114a565b5261114a565b90805191803b15610155576040516380e4ff1f60e01b8152925f91849182908490829061164190600483016114f1565b03925af18015610b67576112b5956040936115fc92611665575b50955050906115d4565b80610e535f611673936105ba565b5f61165b565b80610e535f611687936105ba565b5f6115c9565b8351604051631584159b60e21b81529081906111469060048301610225565b845160405163f4e181ad60e01b81529081906111469060048301610225565b156116d257565b60405162461bcd60e51b815260206004820152601c60248201527f4d6f64756c6520696e697469616c697a6174696f6e206661696c6564000000006044820152606490fd5b6e5af43d82803e903d91602b57fd5bf390763d602d80600a3d3981f3363d3d373d3d3d363d7300000062ffffff8260881c16175f5260781b17602052603760095ff0926001600160a01b038416156117cb5760405163cf7a1d7760e01b602082019081526001600160a01b03938416602483015293909216604483015260606064830152610236925f9283926117b79082906110d5906084830190610201565b519082865af16117c5611068565b506116cb565b63b06ebf3d60e01b5f5260045ffdfece1c17acaaa67de66e928cd49c8f658667a825223bee6fda99a14908362bcdaad1df11c0c6128e2bce9ef2eab23435bf9729297865cf91d3a1acc398d796ea2ea2646970667358221220de0875e6402f2518690805e257e76f134a5406a21b8c5af2ab18c792671ddf6a64736f6c634300081e0033","linkReferences":{}},"methodIdentifiers":{"OfferingFactoryCore_init(address,address)":"d7df0932","createOffering((address,address,address,address,address,uint256,uint256,uint256,uint256,bool,bool),address[],address,bytes,(string,uint256,bool,bytes)[],bytes32,address)":"de191b33","getDiamondFactory()":"7d93c598","getOfferingCount()":"99481a93","isInitialized()":"392e53cd","packedSelectors()":"3e62267c","predictOfferingAddress(address,address[],address,bytes,bytes32)":"8d0bbea8","setDiamondFactory(address)":"2d047181"},"id":180}