{"abi":[{"type":"function","name":"OfferingCore_init","inputs":[{"name":"issuer","type":"address","internalType":"address"},{"name":"tokenAddress","type":"address","internalType":"address"},{"name":"paymentToken","type":"address","internalType":"address"},{"name":"paymentRecipient","type":"address","internalType":"address"},{"name":"pricePerToken","type":"uint256","internalType":"uint256"},{"name":"minInvestment","type":"uint256","internalType":"uint256"},{"name":"maxAmount","type":"uint256","internalType":"uint256"},{"name":"deadline","type":"uint256","internalType":"uint256"},{"name":"uri","type":"string","internalType":"string"}],"outputs":[],"stateMutability":"nonpayable"},{"type":"function","name":"attachInvestmentAgreement","inputs":[{"name":"investmentId","type":"uint256","internalType":"uint256"},{"name":"documentUID","type":"bytes32","internalType":"bytes32"}],"outputs":[],"stateMutability":"nonpayable"},{"type":"function","name":"claimRefund","inputs":[{"name":"investmentId","type":"uint256","internalType":"uint256"}],"outputs":[],"stateMutability":"nonpayable"},{"type":"function","name":"countersignInvestment","inputs":[{"name":"investmentId","type":"uint256","internalType":"uint256"}],"outputs":[],"stateMutability":"nonpayable"},{"type":"function","name":"getAllInvestors","inputs":[],"outputs":[{"name":"investors","type":"address[]","internalType":"address[]"}],"stateMutability":"view"},{"type":"function","name":"getInvestment","inputs":[{"name":"investmentId","type":"uint256","internalType":"uint256"}],"outputs":[{"name":"investment","type":"tuple","internalType":"struct OfferingStorage.Investment","components":[{"name":"investor","type":"address","internalType":"address"},{"name":"amount","type":"uint256","internalType":"uint256"},{"name":"tokenQuantity","type":"uint256","internalType":"uint256"},{"name":"pricePerToken","type":"uint256","internalType":"uint256"},{"name":"timestamp","type":"uint256","internalType":"uint256"},{"name":"status","type":"uint8","internalType":"enum OfferingStorage.InvestmentStatus"},{"name":"paymentEscrowed","type":"bool","internalType":"bool"},{"name":"subscriptionAgreementRef","type":"bytes32","internalType":"bytes32"},{"name":"issuedLotId","type":"bytes32","internalType":"bytes32"}]}],"stateMutability":"view"},{"type":"function","name":"getInvestorInvestments","inputs":[{"name":"investor","type":"address","internalType":"address"}],"outputs":[{"name":"investmentIds","type":"uint256[]","internalType":"uint256[]"}],"stateMutability":"view"},{"type":"function","name":"getInvestorPaymentTotal","inputs":[{"name":"investor","type":"address","internalType":"address"}],"outputs":[{"name":"totalPayments","type":"uint256","internalType":"uint256"}],"stateMutability":"view"},{"type":"function","name":"getInvestorTotalInvestment","inputs":[{"name":"investor","type":"address","internalType":"address"}],"outputs":[{"name":"totalAmount","type":"uint256","internalType":"uint256"}],"stateMutability":"view"},{"type":"function","name":"getOfferingInfo","inputs":[],"outputs":[{"name":"info","type":"tuple","internalType":"struct OfferingStorage.OfferingInfo","components":[{"name":"issuer","type":"address","internalType":"address"},{"name":"tokenAddress","type":"address","internalType":"address"},{"name":"paymentToken","type":"address","internalType":"address"},{"name":"paymentRecipient","type":"address","internalType":"address"},{"name":"pricePerToken","type":"uint256","internalType":"uint256"},{"name":"minInvestment","type":"uint256","internalType":"uint256"},{"name":"maxAmount","type":"uint256","internalType":"uint256"},{"name":"deadline","type":"uint256","internalType":"uint256"},{"name":"totalInvested","type":"uint256","internalType":"uint256"},{"name":"investorCount","type":"uint256","internalType":"uint256"},{"name":"status","type":"uint8","internalType":"enum OfferingStorage.OfferingStatus"},{"name":"uri","type":"string","internalType":"string"}]}],"stateMutability":"view"},{"type":"function","name":"getPaymentInfo","inputs":[],"outputs":[{"name":"paymentToken","type":"address","internalType":"address"},{"name":"paymentRecipient","type":"address","internalType":"address"},{"name":"totalPaymentsReceived","type":"uint256","internalType":"uint256"}],"stateMutability":"view"},{"type":"function","name":"invest","inputs":[{"name":"amount","type":"uint256","internalType":"uint256"},{"name":"attestationUIDs","type":"bytes32[]","internalType":"bytes32[]"}],"outputs":[{"name":"investmentId","type":"uint256","internalType":"uint256"}],"stateMutability":"payable"},{"type":"function","name":"rejectInvestment","inputs":[{"name":"investmentId","type":"uint256","internalType":"uint256"}],"outputs":[],"stateMutability":"nonpayable"},{"type":"function","name":"updateOfferingStatus","inputs":[{"name":"newStatus","type":"uint8","internalType":"enum OfferingStorage.OfferingStatus"}],"outputs":[],"stateMutability":"nonpayable"},{"type":"event","name":"FundsDeposited","inputs":[{"name":"investor","type":"address","indexed":true,"internalType":"address"},{"name":"investmentId","type":"uint256","indexed":true,"internalType":"uint256"},{"name":"amount","type":"uint256","indexed":false,"internalType":"uint256"},{"name":"tokenQuantity","type":"uint256","indexed":false,"internalType":"uint256"},{"name":"identityUID","type":"bytes32","indexed":false,"internalType":"bytes32"},{"name":"qualificationUID","type":"bytes32","indexed":false,"internalType":"bytes32"}],"anonymous":false},{"type":"event","name":"InvestmentAccepted","inputs":[{"name":"investmentId","type":"uint256","indexed":true,"internalType":"uint256"},{"name":"issuer","type":"address","indexed":true,"internalType":"address"},{"name":"investor","type":"address","indexed":true,"internalType":"address"}],"anonymous":false},{"type":"event","name":"InvestmentAgreementAttached","inputs":[{"name":"investmentId","type":"uint256","indexed":true,"internalType":"uint256"},{"name":"documentUID","type":"bytes32","indexed":false,"internalType":"bytes32"}],"anonymous":false},{"type":"event","name":"InvestmentAgreementExecuted","inputs":[{"name":"investmentId","type":"uint256","indexed":true,"internalType":"uint256"},{"name":"investor","type":"address","indexed":true,"internalType":"address"},{"name":"issuer","type":"address","indexed":true,"internalType":"address"},{"name":"amount","type":"uint256","indexed":false,"internalType":"uint256"},{"name":"tokenQuantity","type":"uint256","indexed":false,"internalType":"uint256"},{"name":"pricePerToken","type":"uint256","indexed":false,"internalType":"uint256"},{"name":"subscriptionAgreementRef","type":"bytes32","indexed":false,"internalType":"bytes32"}],"anonymous":false},{"type":"event","name":"InvestmentRefunded","inputs":[{"name":"investmentId","type":"uint256","indexed":true,"internalType":"uint256"},{"name":"investor","type":"address","indexed":true,"internalType":"address"}],"anonymous":false},{"type":"event","name":"InvestmentRejected","inputs":[{"name":"investmentId","type":"uint256","indexed":true,"internalType":"uint256"},{"name":"issuer","type":"address","indexed":true,"internalType":"address"},{"name":"investor","type":"address","indexed":true,"internalType":"address"}],"anonymous":false},{"type":"event","name":"OfferingInitialized","inputs":[{"name":"issuer","type":"address","indexed":true,"internalType":"address"},{"name":"token","type":"address","indexed":true,"internalType":"address"},{"name":"paymentToken","type":"address","indexed":false,"internalType":"address"},{"name":"paymentRecipient","type":"address","indexed":false,"internalType":"address"},{"name":"pricePerToken","type":"uint256","indexed":false,"internalType":"uint256"},{"name":"minInvestment","type":"uint256","indexed":false,"internalType":"uint256"},{"name":"maxAmount","type":"uint256","indexed":false,"internalType":"uint256"},{"name":"deadline","type":"uint256","indexed":false,"internalType":"uint256"},{"name":"uri","type":"string","indexed":false,"internalType":"string"}],"anonymous":false},{"type":"event","name":"OfferingStatusChanged","inputs":[{"name":"oldStatus","type":"uint8","indexed":false,"internalType":"enum OfferingStorage.OfferingStatus"},{"name":"newStatus","type":"uint8","indexed":false,"internalType":"enum OfferingStorage.OfferingStatus"}],"anonymous":false},{"type":"event","name":"TokensIssued","inputs":[{"name":"investmentId","type":"uint256","indexed":true,"internalType":"uint256"},{"name":"investor","type":"address","indexed":true,"internalType":"address"},{"name":"tokenQuantity","type":"uint256","indexed":false,"internalType":"uint256"},{"name":"lotId","type":"bytes32","indexed":true,"internalType":"bytes32"}],"anonymous":false},{"type":"event","name":"UserRoleUpdated","inputs":[{"name":"user","type":"address","indexed":true,"internalType":"address"},{"name":"role","type":"uint8","indexed":true,"internalType":"uint8"},{"name":"enabled","type":"bool","indexed":false,"internalType":"bool"}],"anonymous":false},{"type":"error","name":"OfferingCore_AlreadyCountersigned","inputs":[]},{"type":"error","name":"OfferingCore_AlreadyInitialized","inputs":[]},{"type":"error","name":"OfferingCore_AlreadyProcessed","inputs":[]},{"type":"error","name":"OfferingCore_BelowMinimumInvestment","inputs":[]},{"type":"error","name":"OfferingCore_DeadlinePassed","inputs":[]},{"type":"error","name":"OfferingCore_DocumentSignatureRequired","inputs":[]},{"type":"error","name":"OfferingCore_ETHTransferFailed","inputs":[]},{"type":"error","name":"OfferingCore_EscrowAmountMismatch","inputs":[]},{"type":"error","name":"OfferingCore_ExceedsMaximumAmount","inputs":[]},{"type":"error","name":"OfferingCore_GracePeriodNotExpired","inputs":[]},{"type":"error","name":"OfferingCore_IncorrectETHAmount","inputs":[]},{"type":"error","name":"OfferingCore_InvalidAttestation","inputs":[]},{"type":"error","name":"OfferingCore_InvestmentNotFound","inputs":[]},{"type":"error","name":"OfferingCore_InvestmentTooSmall","inputs":[]},{"type":"error","name":"OfferingCore_NoETHExpected","inputs":[]},{"type":"error","name":"OfferingCore_NotAuthorized","inputs":[]},{"type":"error","name":"OfferingCore_NotInvestor","inputs":[]},{"type":"error","name":"OfferingCore_OfferingNotActive","inputs":[]},{"type":"error","name":"OfferingCore_PaymentNotInEscrow","inputs":[]},{"type":"error","name":"OfferingCore_TokenIssuanceFailed","inputs":[]},{"type":"error","name":"OfferingCore_UnsupportedOfferingType","inputs":[]},{"type":"error","name":"ReentrancyGuard_ReentrantCall","inputs":[]}],"bytecode":{"object":"0x608080604052346015576128f1908161001a8239f35b5f80fdfe60806040526004361015610011575f80fd5b5f3560e01c806244eff4146100f357806304da3f19146100ee57806309a3352f146100e957806316268c28146100e457806322ae634f146100df5780634c431f00146100da5780635b7baf64146100d5578063788fe028146100d0578063aae0b1e0146100cb578063ad7724f2146100c6578063b80f3f55146100c1578063d0a2f2c4146100bc578063d2a641e4146100b75763f0fb56a8146100b2575f80fd5b610dca565b610d1d565b610c88565b610ba3565b610b40565b610abd565b610858565b61075a565b6106e4565b610606565b6104f3565b610441565b6103ce565b610207565b6004111561010257565b634e487b7160e01b5f52602160045260245ffd5b90610120826100f8565b52565b805180835260209291819084018484015e5f828201840152601f01601f1916010190565b602080825282516001600160a01b031690820152610204916101a0906101609060208101516001600160a01b0316604085015260408101516001600160a01b0316606085015260608101516001600160a01b03166080850152608081015160a085015260a081015160c085015260c081015160e085015260e08101516101008501526101008101516101208501526101208101516101408501526101f361014082015183860190610116565b015191610180808201520190610123565b90565b346103ca575f3660031901126103ca576060610160604051610228816109d8565b5f81525f60208201525f60408201525f838201525f60808201525f60a08201525f60c08201525f60e08201525f6101008201525f6101208201525f61014082015201526103c6610276610a39565b7f53f955f4c4a9361ccb46aadc7047f8c04fa3701865bfe8009fc4a965d8bec473546001600160a01b031681527f53f955f4c4a9361ccb46aadc7047f8c04fa3701865bfe8009fc4a965d8bec474546001600160a01b031660208201525f51602061271c5f395f51905f52546001600160a01b031660408201525f51602061279c5f395f51905f52546001600160a01b031660608201525f51602061275c5f395f51905f525460808201525f5160206127bc5f395f51905f525460a08201525f51602061283c5f395f51905f525460c08201525f51602061281c5f395f51905f525460e08201525f5160206127fc5f395f51905f52546101008201525f51602061285c5f395f51905f52546101208201526103ac6103a25f5160206126fc5f395f51905f525460ff1690565b6101408301610e89565b6103b4610eca565b61016082015260405191829182610147565b0390f35b5f80fd5b346103ca575f3660031901126103ca575f51602061271c5f395f51905f52545f51602061279c5f395f51905f52547f53f955f4c4a9361ccb46aadc7047f8c04fa3701865bfe8009fc4a965d8bec48354604080516001600160a01b03948516815293909216602084015290820152606090f35b346103ca5760403660031901126103ca57600435602435610460611a7c565b156104e4575f8281527f53f955f4c4a9361ccb46aadc7047f8c04fa3701865bfe8009fc4a965d8bec47f6020526040902080546001600160a01b0316156104d5576006018190556040519081527f86a3fe58abd946870b0d070e20ef781722a19d2a156d907bfe478ec44278b7d390602090a2005b631286942360e11b5f5260045ffd5b637f3d721d60e11b5f5260045ffd5b346103ca5760203660031901126103ca5760043560048110156103ca57610518611a7c565b156104e4577f090dc240b6971396472961dc185f630e0a38a8785c5c37c22b858ac2255a7fbb9060ff5f5160206126fc5f395f51905f52541661055a826100f8565b60ff195f5160206126fc5f395f51905f52541660ff8316175f5160206126fc5f395f51905f525561059060405192839283611002565b0390a1005b9190916101008061012083019460018060a01b0381511684526020810151602085015260408101516040850152606081015160608501526080810151608085015260a08101516105e4816100f8565b60a085015260c08181015115159085015260e081015160e08501520151910152565b346103ca5760203660031901126103ca576004355f61010060405161062a816109fa565b8281528260208201528260408201528260608201528260808201528260a08201528260c08201528260e082015201525f527f53f955f4c4a9361ccb46aadc7047f8c04fa3701865bfe8009fc4a965d8bec47f6020526103c661068e60405f20611030565b60405191829182610595565b6001600160a01b038116036103ca57565b60206040818301928281528451809452019201905f5b8181106106ce5750505090565b82518452602093840193909201916001016106c1565b346103ca5760203660031901126103ca576107096004356107048161069a565b6110b8565b6040519081602082549182815201915f5260205f20905f5b818110610744576103c68561073881870382610a17565b604051918291826106ab565b8254845260209093019260019283019201610721565b346103ca5760203660031901126103ca57600435610776611b1f565b61077f81610fbd565b80546001600160a01b031680156104d5576001600160a01b031633036108495760058101805460ff166107b1816100f8565b61083b576107cc5f51602061281c5f395f51905f525461113c565b42111561082c576107dc9061115e565b6107e582611b91565b546001600160a01b0316907f7753f0811884796ae94129b9370b6b1b9d4d2a4c042da6fe85c9b6da1325985b5f80a361082a60015f51602061289c5f395f51905f5255565b005b631be7f4eb60e21b5f5260045ffd5b62de169960e21b5f5260045ffd5b63ff97c4df60e01b5f5260045ffd5b346103ca5760203660031901126103ca57600435610874611b1f565b61088361087f611a7c565b1590565b6104e45761089081610fbd565b805490916001600160a01b039091169081156104d55760058301805460ff166108b8816100f8565b61083b576108f7906108d1836001870195865490611d8c565b6108e3836108de87611030565b611de0565b6108ec81611175565b805461ff0019169055565b6109018254611f72565b825461091a9082906001600160a01b0316845490612046565b82546040516001600160a01b03909116927f666ddf3bc13b0c4f440e0e8594b43a0bb0effc85c0634af74e876a6a63665f71919081906109ab908633877fd22f7b83f7419d73eafaf66fdcd6f0f01880e3265bb1caa8774786e4e331f7055f80a45460028801546003890154906006339a015492859094939260609260808301968352602083015260408201520152565b0390a461082a60015f51602061289c5f395f51905f5255565b634e487b7160e01b5f52604160045260245ffd5b610180810190811067ffffffffffffffff8211176109f557604052565b6109c4565b610120810190811067ffffffffffffffff8211176109f557604052565b90601f8019910116810190811067ffffffffffffffff8211176109f557604052565b60405190610a4961018083610a17565b565b60405190610a4961012083610a17565b67ffffffffffffffff81116109f557601f01601f191660200190565b81601f820112156103ca57803590610a8e82610a5b565b92610a9c6040519485610a17565b828452602083830101116103ca57815f926020809301838601378301015290565b346103ca576101203660031901126103ca57600435610adb8161069a565b60243590610ae88261069a565b604435610af48161069a565b606435610b008161069a565b60843560a4359060c43592610b1460e43590565b94610104359767ffffffffffffffff89116103ca57610b3a61082a993690600401610a77565b97611486565b346103ca5760203660031901126103ca576020610b9a600435610b628161069a565b6001600160a01b03165f9081527f53f955f4c4a9361ccb46aadc7047f8c04fa3701865bfe8009fc4a965d8bec4846020526040902090565b54604051908152f35b60403660031901126103ca5760243560043567ffffffffffffffff82116103ca57366023830112156103ca5781600401359167ffffffffffffffff83116109f5578260051b60405193610bf96020830186610a17565b845260246020850191830101913683116103ca57602401905b828210610c36576103c6610c268686611619565b6040519081529081906020820190565b8135815260209182019101610c12565b60206040818301928281528451809452019201905f5b818110610c695750505090565b82516001600160a01b0316845260209384019390920191600101610c5c565b346103ca575f3660031901126103ca576040515f51602061277c5f395f51905f5280548083525f91825260208301917f97100dee0064ad66d3f30b0b0d58c4e84f6237f158b44a83f0c455bea8eace7291905b818110610cfe576103c685610cf281870382610a17565b60405191829182610c46565b82546001600160a01b0316845260209093019260019283019201610cdb565b346103ca5760203660031901126103ca57600435610d3a8161069a565b610d445f916110b8565b8054905f5b828110610d5b57604051848152602090f35b610d74610d688284611a0c565b90549060031b1c610fbd565b600581015460ff16610d85816100f8565b8015908115610db6575b50610d9e575b50600101610d49565b6001919482610daf92015490611151565b9390610d95565b60019150610dc3816100f8565b145f610d8f565b346103ca5760203660031901126103ca57600435610de6611b1f565b610df161087f611a7c565b6104e457610dfe81610fbd565b80546001600160a01b0316156104d55760058101805460ff16610e20816100f8565b61083b57610e2d9061118c565b610e3682611b91565b546001600160a01b03169033907f135dc16718b461c44ae749630a98a1bebd63e710b328ad36bf0c21b9693f61675f80a461082a60015f51602061289c5f395f51905f5255565b600190610120826100f8565b610120826100f8565b90600182811c92168015610ec0575b6020831014610eac57565b634e487b7160e01b5f52602260045260245ffd5b91607f1691610ea1565b604051905f827f53f955f4c4a9361ccb46aadc7047f8c04fa3701865bfe8009fc4a965d8bec47e5491610efc83610e92565b8083529260018116908115610f9e5750600114610f20575b610a4992500383610a17565b507f53f955f4c4a9361ccb46aadc7047f8c04fa3701865bfe8009fc4a965d8bec47e5f90815290917f975f57468a4544365bda3ba724a5d4431e7c7235597517a48ed1c7d98f46b7715b818310610f82575050906020610a4992820101610f14565b6020919350806001915483858901015201910190918492610f6a565b60209250610a4994915060ff191682840152151560051b820101610f14565b5f527f53f955f4c4a9361ccb46aadc7047f8c04fa3701865bfe8009fc4a965d8bec47f60205260405f2090565b90610ff4816100f8565b60ff80198354169116179055565b6040810193929160209190611016816100f8565b8152611021836100f8565b0152565b5f90610120826100f8565b90600761103b610a4b565b83546001600160a01b0316815292600181015460208501526002810154604085015260038101546060850152600481015460808501526110a461109b60058301546110926110898260ff1690565b60a08901610e89565b60081c60ff1690565b151560c0860152565b600681015460e08501520154610100830152565b6001600160a01b03165f9081527f53f955f4c4a9361ccb46aadc7047f8c04fa3701865bfe8009fc4a965d8bec4816020526040902090565b6001600160a01b03165f9081527f53f955f4c4a9361ccb46aadc7047f8c04fa3701865bfe8009fc4a965d8bec4876020526040902090565b634e487b7160e01b5f52601160045260245ffd5b9062093a80820180921161114c57565b611128565b9190820180921161114c57565b61116860036100f8565b805460ff19166003179055565b61117f60016100f8565b805460ff19166001179055565b61119660026100f8565b805460ff19166002179055565b601f82116111b057505050565b5f5260205f20906020601f840160051c830193106111e8575b601f0160051c01905b8181106111dd575050565b5f81556001016111d2565b90915081906111c9565b919091825167ffffffffffffffff81116109f55761121a816112148454610e92565b846111a3565b6020601f821160011461125957819061124a9394955f9261124e575b50508160011b915f199060031b1c19161790565b9055565b015190505f80611236565b601f1982169061126c845f5260205f2090565b915f5b8181106112a65750958360019596971061128e575b505050811b019055565b01515f1960f88460031b161c191690555f8080611284565b9192602060018192868b01518155019401920161126f565b80517f53f955f4c4a9361ccb46aadc7047f8c04fa3701865bfe8009fc4a965d8bec47380546001600160a01b039283166001600160a01b03199182161790915560208301517f53f955f4c4a9361ccb46aadc7047f8c04fa3701865bfe8009fc4a965d8bec474805491841691831691909117905560408301515f51602061271c5f395f51905f52805491841691831691909117905560608301515f51602061279c5f395f51905f52805491909316911617905560808101515f51602061275c5f395f51905f525560a08101515f5160206127bc5f395f51905f525560c08101515f51602061283c5f395f51905f525560e08101515f51602061281c5f395f51905f52556101008101515f5160206127fc5f395f51905f52556101208101515f51602061285c5f395f51905f5255610140810151610a49916101609161141990611406816100f8565b5f5160206126fc5f395f51905f52610fea565b01517f53f955f4c4a9361ccb46aadc7047f8c04fa3701865bfe8009fc4a965d8bec47e6111f2565b93909260e0959261020498979460018060a01b0316865260018060a01b0316602086015260408501526060840152608083015260a08201528160c08201520190610123565b97919690939294956114b97f53f955f4c4a9361ccb46aadc7047f8c04fa3701865bfe8009fc4a965d8bec4725460ff1690565b61160a577f393a63ea637c258da582ed0ffb8ccd62f78704d5a0a3fe71d31625f10bab7d339661160594611533600160ff197f53f955f4c4a9361ccb46aadc7047f8c04fa3701865bfe8009fc4a965d8bec4725416177f53f955f4c4a9361ccb46aadc7047f8c04fa3701865bfe8009fc4a965d8bec47255565b6115b661153e610a39565b6001600160a01b038d1681526001600160a01b03891660208201526001600160a01b038c1660408201526001600160a01b038a1660608201528260808201528360a08201528460c08201528560e08201525f6101008201525f6101208201526115aa6101408201610e7d565b866101608201526112be565b6115df60017f53f955f4c4a9361ccb46aadc7047f8c04fa3701865bfe8009fc4a965d8bec48055565b6115e88b612098565b6040516001600160a01b039788169b909716999697889788611441565b0390a3565b630cc2158960e01b5f5260045ffd5b90611622611b1f565b600161163c5f5160206126fc5f395f51905f525460ff1690565b611645816100f8565b036118cc575f51602061281c5f395f51905f525442116118bd5761166b61087f83612101565b6118895761167a90823361214c565b611683336121f1565b6116a461168f826118db565b5f51602061275c5f395f51905f5254906118ff565b801561187a57611860917f6fdfec0989a0db9eb7c54b77a3b15caecd2c85c394a5dcf62c04e6195f3907797f53f955f4c4a9361ccb46aadc7047f8c04fa3701865bfe8009fc4a965d8bec480549384936117246117008661191d565b7f53f955f4c4a9361ccb46aadc7047f8c04fa3701865bfe8009fc4a965d8bec48055565b61172e8585612281565b61179961173961232f565b5f51602061275c5f395f51905f525490611751610a4b565b33815291876020840152846040840152606083015242608083015261177860a08301611025565b600160c083015260e08201525f61010082015261179487610fbd565b61192b565b6117eb6117c7857f53f955f4c4a9361ccb46aadc7047f8c04fa3701865bfe8009fc4a965d8bec48354611151565b7f53f955f4c4a9361ccb46aadc7047f8c04fa3701865bfe8009fc4a965d8bec48355565b335f9081527f53f955f4c4a9361ccb46aadc7047f8c04fa3701865bfe8009fc4a965d8bec48460205260409020611823858254611151565b905561182f85336123ab565b61183a858533612456565b6040519182913395836060905f9294936080820195825260208201528260408201520152565b0390a390610a4960015f51602061289c5f395f51905f5255565b633fc25a9960e11b5f5260045ffd5b505f5160206127bc5f395f51905f525411156118ae57638898dccb60e01b5f5260045ffd5b631bf1721360e21b5f5260045ffd5b632617b4cb60e01b5f5260045ffd5b632af4bb8760e11b5f5260045ffd5b90670de0b6b3a7640000820291808304670de0b6b3a7640000149015171561114c57565b8115611909570490565b634e487b7160e01b5f52601260045260245ffd5b5f19811461114c5760010190565b815181546001600160a01b0319166001600160a01b039091161781559060079061010090602081015160018501556040810151600285015560608101516003850155608081015160048501556119b26005850161199560a084015161198f816100f8565b82610fea565b60c08301511515815461ff00191690151560081b61ff0016179055565b60e081015160068501550151910155565b634e487b7160e01b5f52603260045260245ffd5b5f51602061277c5f395f51905f5254811015611a07575f51602061277c5f395f51905f525f5260205f2001905f90565b6119c3565b8054821015611a07575f5260205f2001905f90565b60405190611a30602083610a17565b5f8252565b3d15611a5f573d90611a4682610a5b565b91611a546040519384610a17565b82523d5f602084013e565b606090565b908160209103126103ca575180151581036103ca5790565b7f53f955f4c4a9361ccb46aadc7047f8c04fa3701865bfe8009fc4a965d8bec473546001600160a01b0316803314611b1957803b15611b1457604051633ea3167760e21b602082019081523360248301525f928392909190611aeb81604481015b03601f198101835282610a17565b51915afa611af7611a35565b81611b00575090565b610204915060208082518301019101611a64565b505f90565b50600190565b60015f51602061289c5f395f51905f525414611b6e575b60025f51602061289c5f395f51905f525414611b5f5760025f51602061289c5f395f51905f5255565b638ac2de0f60e01b5f5260045ffd5b60015f51602061289c5f395f51905f5255611b36565b9190820391821161114c57565b611b9a81610fbd565b6005810191611bb161087f845460ff9060081c1690565b611d7d575f51602061271c5f395f51905f52546001600160a01b031680611c9a5750611bf1815f525f51602061273c5f395f51905f5260205260405f2090565b549060018301548203611c8b575f82611c61829583611c53819796611c39611c2884995f51602061287c5f395f51905f5254611b84565b5f51602061287c5f395f51905f5255565b5f525f51602061273c5f395f51905f5260205260405f2090565b55546001600160a01b031690565b5af1611c6b611a35565b5015611c7c57805461ff0019169055565b6303e1bddb60e31b5f5260045ffd5b63a520994b60e01b5f5260045ffd5b9291611cd384611cbe845f525f5160206127dc5f395f51905f5260205260405f2090565b9060018060a01b03165f5260205260405f2090565b549060018101548203611c8b575f611d47611d1e611d7895611cf7610a49996110f0565b611d02878254611b84565b90555f525f5160206127dc5f395f51905f5260205260405f2090565b5f51602061271c5f395f51905f52546001600160a01b03165f9081526020919091526040902090565b555f51602061271c5f395f51905f5254611d72906001600160a01b031691546001600160a01b031690565b90612499565b6108ec565b63f1e2bf4760e01b5f5260045ffd5b604051637f62950960e01b602082019081526001600160a01b039092166024820152604481019290925260648201929092525f918291611dcf8160848101611add565b5190305afa50611ddd611a35565b50565b611df061087f60c0830151151590565b611f6e575f51602061271c5f395f51905f52546001600160a01b031680611ebd5750611e30825f525f51602061273c5f395f51905f5260205260405f2090565b5460208201518103611c8b575f808083611e5c611c2883965f51602061287c5f395f51905f5254611b84565b81611e7b885f525f51602061273c5f395f51905f5260205260405f2090565b555f51602061279c5f395f51905f52546001600160a01b03165af1611e9e611a35565b5015611c7c57611eb9611eb38360079361259f565b92610fbd565b0155565b90611ee082611cbe855f525f5160206127dc5f395f51905f5260205260405f2090565b549160208201518303611c8b5783611eb992611f69600795611f04611eb3956110f0565b611f0f828254611b84565b90555f611f33611d1e865f525f5160206127dc5f395f51905f5260205260405f2090565b555f51602061271c5f395f51905f52546001600160a01b03165f51602061279c5f395f51905f52546001600160a01b0316611d72565b61259f565b5050565b5f5160206127fc5f395f51905f525490810180911161114c57805f5160206127fc5f395f51905f5255611fb25f51602061285c5f395f51905f525461191d565b5f51602061285c5f395f51905f52555f51602061283c5f395f51905f52541115611fd857565b7f090dc240b6971396472961dc185f630e0a38a8785c5c37c22b858ac2255a7fbb60ff5f5160206126fc5f395f51905f52541661201560026100f8565b5f5160206126fc5f395f51905f52805460ff191660029081179091556040519182916120419183611002565b0390a1565b6040516304c910db60e51b602082019081526001600160a01b039092166024820152604481019290925260648201929092525f9182916120898160848101611add565b519082305af150611ddd611a35565b5f9060018060a01b03168082527f35edad4c931e57ec40cedc90b9e3e052832d1b49c07eb789b019aea9b39c91d960205260408220600181541790557f4c9bdd0c8e073eb5eda2250b18d8e5121ff27b62064fbeeeed4869bb99bc5bf2602060405160018152a3565b5f5160206127bc5f395f51905f5254811015908161211d575090565b90505f5160206127fc5f395f51905f525490810180911161114c575f51602061283c5f395f51905f5254101590565b909160405191602083019363f073128960e01b8552608484019160018060a01b031660248501526044840152606060648401528151809152602060a484019201905f5b8181106121db5750505091816121b15f9493859403601f198101835282610a17565b5190305afa6121be611a35565b90156121c75750565b80519182156121d65750602001fd5b915050565b825184526020938401939092019160010161218f565b60405163996d0fc360e01b602082019081526001600160a01b0390921660248201525f9182916122248160448101611add565b5190305afa612231611a35565b9080612277575b61223f5750565b61087f8160208061225594518301019101611a64565b61225b57565b61226361232f565b15610a4957638f3ef05560e01b5f5260045ffd5b5080511515612238565b5f51602061271c5f395f51905f52549091906001600160a01b0316806122da57508134036122cb576122c890611c39611c28845f51602061287c5f395f51905f5254611151565b55565b631f46ec3960e11b5f5260045ffd5b34612320576122c8916122f484611d1e93309033906126b3565b5f51602061271c5f395f51905f5254612315906001600160a01b03166110f0565b611d02858254611151565b6330b1d9ed60e01b5f5260045ffd5b5f5f806040516020810190630837d3e560e01b825260048152612353602482610a17565b5190305afa612360611a35565b90806123a1575b61236f575090565b90506060818051810103126103ca576060602082015191612393604082015161069a565b015160ff8116036103ca5790565b5080511515612367565b906123b5826110b8565b8054600160401b8110156109f5576123d291600182018155611a0c565b819291549060031b91821b915f19901b191617905560016123f2826110b8565b54146123fb5750565b5f51602061277c5f395f51905f5254600160401b8110156109f55780600161243292015f51602061277c5f395f51905f52556119d7565b81546001600160a01b0393841660039290921b91821b9390911b1916919091179055565b60405163087efee960e01b602082019081526001600160a01b039092166024820152604481019290925260648201929092525f9182916120898160848101611add565b5f929183809360405190602082019363a9059cbb60e01b855260018060a01b031660248301526044820152604481526124d3606482610a17565b51925af16124df611a35565b90159081156124f0575b50611c7c57565b8051801515925082612505575b50505f6124e9565b6125189250602080918301019101611a64565b155f806124fd565b91908260409103126103ca576020825192015190565b9796929461258f9460e096612581945f999460018060a01b03168c5260208c015260018060a01b031660408b015260608a0152608089015261010060a0890152610100880190610123565b9086820360c0880152610123565b930152565b6040513d5f823e3d90fd5b6125cc916040916125da6125b1611a21565b84516020810194909452306040850152929485906060820190565b03601f198101865285610a17565b7f53f955f4c4a9361ccb46aadc7047f8c04fa3701865bfe8009fc4a965d8bec4745461261c90612610906001600160a01b031681565b6001600160a01b031690565b8151848301515f51602061271c5f395f51905f52546001600160a01b03928316979394935f9361266c9260609116950151968851998a9889978896630d9f387560e01b8852429360048901612536565b03925af19081156126ae575f91612681575090565b6126a3915060403d6040116126a7575b61269b8183610a17565b810190612520565b5090565b503d612691565b612594565b6040516323b872dd60e01b602082019081526001600160a01b03938416602483015293909216604483015260648201939093525f928392909183906124d38160848101611add56fe53f955f4c4a9361ccb46aadc7047f8c04fa3701865bfe8009fc4a965d8bec47d53f955f4c4a9361ccb46aadc7047f8c04fa3701865bfe8009fc4a965d8bec47553f955f4c4a9361ccb46aadc7047f8c04fa3701865bfe8009fc4a965d8bec48653f955f4c4a9361ccb46aadc7047f8c04fa3701865bfe8009fc4a965d8bec47753f955f4c4a9361ccb46aadc7047f8c04fa3701865bfe8009fc4a965d8bec48253f955f4c4a9361ccb46aadc7047f8c04fa3701865bfe8009fc4a965d8bec47653f955f4c4a9361ccb46aadc7047f8c04fa3701865bfe8009fc4a965d8bec47853f955f4c4a9361ccb46aadc7047f8c04fa3701865bfe8009fc4a965d8bec48853f955f4c4a9361ccb46aadc7047f8c04fa3701865bfe8009fc4a965d8bec47b53f955f4c4a9361ccb46aadc7047f8c04fa3701865bfe8009fc4a965d8bec47a53f955f4c4a9361ccb46aadc7047f8c04fa3701865bfe8009fc4a965d8bec47953f955f4c4a9361ccb46aadc7047f8c04fa3701865bfe8009fc4a965d8bec47c53f955f4c4a9361ccb46aadc7047f8c04fa3701865bfe8009fc4a965d8bec485d0c6a028de93945f0fa1f9ad253dc7bd6cb2d21bf622eeb9ea646dbba161167fa264697066735822122099b6faa0ed0346327c26802e3f1c5684ed7fab6a8716fc3c36edc0474fd7d6c564736f6c634300081e0033","linkReferences":{}},"methodIdentifiers":{"OfferingCore_init(address,address,address,address,uint256,uint256,uint256,uint256,string)":"aae0b1e0","attachInvestmentAgreement(uint256,bytes32)":"09a3352f","claimRefund(uint256)":"5b7baf64","countersignInvestment(uint256)":"788fe028","getAllInvestors()":"d0a2f2c4","getInvestment(uint256)":"22ae634f","getInvestorInvestments(address)":"4c431f00","getInvestorPaymentTotal(address)":"ad7724f2","getInvestorTotalInvestment(address)":"d2a641e4","getOfferingInfo()":"0044eff4","getPaymentInfo()":"04da3f19","invest(uint256,bytes32[])":"b80f3f55","rejectInvestment(uint256)":"f0fb56a8","updateOfferingStatus(uint8)":"16268c28"},"id":69}