{"abi":[{"type":"function","name":"addDocumentRequirement","inputs":[{"name":"allowedTemplateIds","type":"bytes32[]","internalType":"bytes32[]"},{"name":"isRequired","type":"bool","internalType":"bool"},{"name":"minRequired","type":"uint8","internalType":"uint8"},{"name":"maxRequired","type":"uint8","internalType":"uint8"},{"name":"priority","type":"uint8","internalType":"uint8"},{"name":"label","type":"string","internalType":"string"}],"outputs":[],"stateMutability":"nonpayable"},{"type":"function","name":"addRequiredSigner","inputs":[{"name":"templateId","type":"bytes32","internalType":"bytes32"},{"name":"signer","type":"address","internalType":"address"}],"outputs":[],"stateMutability":"nonpayable"},{"type":"function","name":"canAccessDocument","inputs":[{"name":"user","type":"address","internalType":"address"},{"name":"accessLevel","type":"uint8","internalType":"enum IOfferingDocuments.DocumentAccessLevel"}],"outputs":[{"name":"canAccess","type":"bool","internalType":"bool"}],"stateMutability":"view"},{"type":"function","name":"canSignRequiredDocument","inputs":[{"name":"signer","type":"address","internalType":"address"}],"outputs":[{"name":"eligible","type":"bool","internalType":"bool"}],"stateMutability":"view"},{"type":"function","name":"createDocument","inputs":[{"name":"documentId","type":"bytes32","internalType":"bytes32"},{"name":"contentHash","type":"bytes32","internalType":"bytes32"},{"name":"storageURI","type":"string","internalType":"string"},{"name":"title","type":"string","internalType":"string"},{"name":"templateId","type":"bytes32","internalType":"bytes32"}],"outputs":[],"stateMutability":"nonpayable"},{"type":"function","name":"getDocument","inputs":[{"name":"documentId","type":"bytes32","internalType":"bytes32"}],"outputs":[{"name":"document","type":"tuple","internalType":"struct OfferingStorage.Document","components":[{"name":"contentHash","type":"bytes32","internalType":"bytes32"},{"name":"storageURI","type":"string","internalType":"string"},{"name":"title","type":"string","internalType":"string"},{"name":"templateId","type":"bytes32","internalType":"bytes32"},{"name":"creator","type":"address","internalType":"address"},{"name":"createdAt","type":"uint256","internalType":"uint256"},{"name":"exists","type":"bool","internalType":"bool"}]}],"stateMutability":"view"},{"type":"function","name":"getDocumentRequirement","inputs":[{"name":"index","type":"uint256","internalType":"uint256"}],"outputs":[{"name":"","type":"tuple","internalType":"struct OfferingStorage.DocumentRequirement","components":[{"name":"allowedTemplateIds","type":"bytes32[]","internalType":"bytes32[]"},{"name":"isRequired","type":"bool","internalType":"bool"},{"name":"minRequired","type":"uint8","internalType":"uint8"},{"name":"maxRequired","type":"uint8","internalType":"uint8"},{"name":"priority","type":"uint8","internalType":"uint8"},{"name":"label","type":"string","internalType":"string"}]}],"stateMutability":"view"},{"type":"function","name":"getDocumentRequirements","inputs":[],"outputs":[{"name":"","type":"tuple[]","internalType":"struct OfferingStorage.DocumentRequirement[]","components":[{"name":"allowedTemplateIds","type":"bytes32[]","internalType":"bytes32[]"},{"name":"isRequired","type":"bool","internalType":"bool"},{"name":"minRequired","type":"uint8","internalType":"uint8"},{"name":"maxRequired","type":"uint8","internalType":"uint8"},{"name":"priority","type":"uint8","internalType":"uint8"},{"name":"label","type":"string","internalType":"string"}]}],"stateMutability":"view"},{"type":"function","name":"getInvestorSignedDocument","inputs":[{"name":"investor","type":"address","internalType":"address"}],"outputs":[{"name":"documentId","type":"bytes32","internalType":"bytes32"}],"stateMutability":"view"},{"type":"function","name":"getInvestorSignedDocumentsByGroup","inputs":[{"name":"investor","type":"address","internalType":"address"}],"outputs":[{"name":"signedByGroup","type":"bytes32[][]","internalType":"bytes32[][]"}],"stateMutability":"view"},{"type":"function","name":"getRequiredDocumentInfo","inputs":[],"outputs":[{"name":"templateId","type":"bytes32","internalType":"bytes32"},{"name":"eligibility","type":"uint8","internalType":"enum IOfferingDocuments.SignerEligibility"}],"stateMutability":"view"},{"type":"function","name":"getRequiredSigners","inputs":[{"name":"templateId","type":"bytes32","internalType":"bytes32"}],"outputs":[{"name":"signers","type":"address[]","internalType":"address[]"}],"stateMutability":"view"},{"type":"function","name":"hasSignedAllRequiredDocuments","inputs":[{"name":"investor","type":"address","internalType":"address"}],"outputs":[{"name":"satisfied","type":"bool","internalType":"bool"}],"stateMutability":"view"},{"type":"function","name":"hasSignedDocument","inputs":[{"name":"investor","type":"address","internalType":"address"},{"name":"documentId","type":"bytes32","internalType":"bytes32"}],"outputs":[{"name":"hasSigned","type":"bool","internalType":"bool"},{"name":"signedAt","type":"uint256","internalType":"uint256"}],"stateMutability":"view"},{"type":"function","name":"hasSignedRequiredDocument","inputs":[{"name":"investor","type":"address","internalType":"address"}],"outputs":[{"name":"hasSigned","type":"bool","internalType":"bool"}],"stateMutability":"view"},{"type":"function","name":"isRequiredSignerForTemplate","inputs":[{"name":"templateId","type":"bytes32","internalType":"bytes32"},{"name":"signer","type":"address","internalType":"address"}],"outputs":[{"name":"isRequired","type":"bool","internalType":"bool"}],"stateMutability":"view"},{"type":"function","name":"packedSelectors","inputs":[],"outputs":[{"name":"","type":"bytes","internalType":"bytes"}],"stateMutability":"pure"},{"type":"function","name":"removeDocumentRequirement","inputs":[{"name":"index","type":"uint256","internalType":"uint256"}],"outputs":[],"stateMutability":"nonpayable"},{"type":"function","name":"removeRequiredSigner","inputs":[{"name":"templateId","type":"bytes32","internalType":"bytes32"},{"name":"signer","type":"address","internalType":"address"}],"outputs":[],"stateMutability":"nonpayable"},{"type":"function","name":"setCustomEligibilityModule","inputs":[{"name":"module","type":"address","internalType":"address"}],"outputs":[],"stateMutability":"nonpayable"},{"type":"function","name":"setDocumentEligibilityMode","inputs":[{"name":"mode","type":"uint8","internalType":"uint8"}],"outputs":[],"stateMutability":"nonpayable"},{"type":"function","name":"setRequiredSigners","inputs":[{"name":"templateId","type":"bytes32","internalType":"bytes32"},{"name":"signers","type":"address[]","internalType":"address[]"}],"outputs":[],"stateMutability":"nonpayable"},{"type":"function","name":"signDocument","inputs":[{"name":"documentId","type":"bytes32","internalType":"bytes32"},{"name":"actualSigner","type":"address","internalType":"address"},{"name":"signerProof","type":"bytes","internalType":"bytes"}],"outputs":[],"stateMutability":"nonpayable"},{"type":"function","name":"updateDocumentRequirement","inputs":[{"name":"index","type":"uint256","internalType":"uint256"},{"name":"minRequired","type":"uint8","internalType":"uint8"},{"name":"maxRequired","type":"uint8","internalType":"uint8"},{"name":"priority","type":"uint8","internalType":"uint8"},{"name":"label","type":"string","internalType":"string"}],"outputs":[],"stateMutability":"nonpayable"},{"type":"event","name":"CustomEligibilityModuleSet","inputs":[{"name":"module","type":"address","indexed":true,"internalType":"address"}],"anonymous":false},{"type":"event","name":"DocumentCreated","inputs":[{"name":"documentId","type":"bytes32","indexed":true,"internalType":"bytes32"},{"name":"templateId","type":"bytes32","indexed":true,"internalType":"bytes32"},{"name":"creator","type":"address","indexed":true,"internalType":"address"},{"name":"title","type":"string","indexed":false,"internalType":"string"}],"anonymous":false},{"type":"event","name":"DocumentEligibilityModeSet","inputs":[{"name":"mode","type":"uint8","indexed":false,"internalType":"uint8"}],"anonymous":false},{"type":"event","name":"DocumentRequirementAdded","inputs":[{"name":"requirementIndex","type":"uint256","indexed":true,"internalType":"uint256"},{"name":"label","type":"string","indexed":false,"internalType":"string"},{"name":"minRequired","type":"uint8","indexed":false,"internalType":"uint8"},{"name":"maxRequired","type":"uint8","indexed":false,"internalType":"uint8"}],"anonymous":false},{"type":"event","name":"DocumentRequirementRemoved","inputs":[{"name":"requirementIndex","type":"uint256","indexed":true,"internalType":"uint256"}],"anonymous":false},{"type":"event","name":"DocumentRequirementUpdated","inputs":[{"name":"requirementIndex","type":"uint256","indexed":true,"internalType":"uint256"},{"name":"label","type":"string","indexed":false,"internalType":"string"},{"name":"minRequired","type":"uint8","indexed":false,"internalType":"uint8"},{"name":"maxRequired","type":"uint8","indexed":false,"internalType":"uint8"},{"name":"priority","type":"uint8","indexed":false,"internalType":"uint8"}],"anonymous":false},{"type":"event","name":"DocumentSigned","inputs":[{"name":"documentId","type":"bytes32","indexed":true,"internalType":"bytes32"},{"name":"signer","type":"address","indexed":true,"internalType":"address"},{"name":"timestamp","type":"uint256","indexed":false,"internalType":"uint256"}],"anonymous":false},{"type":"event","name":"DocumentSignedByRepresentative","inputs":[{"name":"documentId","type":"bytes32","indexed":true,"internalType":"bytes32"},{"name":"actualSigner","type":"address","indexed":true,"internalType":"address"},{"name":"entity","type":"address","indexed":true,"internalType":"address"},{"name":"timestamp","type":"uint256","indexed":false,"internalType":"uint256"}],"anonymous":false},{"type":"event","name":"RequiredSignerAdded","inputs":[{"name":"templateId","type":"bytes32","indexed":true,"internalType":"bytes32"},{"name":"signer","type":"address","indexed":true,"internalType":"address"}],"anonymous":false},{"type":"event","name":"RequiredSignerRemoved","inputs":[{"name":"templateId","type":"bytes32","indexed":true,"internalType":"bytes32"},{"name":"signer","type":"address","indexed":true,"internalType":"address"}],"anonymous":false},{"type":"event","name":"RequiredSignersSet","inputs":[{"name":"templateId","type":"bytes32","indexed":true,"internalType":"bytes32"},{"name":"signers","type":"address[]","indexed":false,"internalType":"address[]"}],"anonymous":false},{"type":"error","name":"AccessControl_CallerIsNotAuthorized","inputs":[{"name":"caller","type":"address","internalType":"address"},{"name":"functionSig","type":"bytes4","internalType":"bytes4"}]},{"type":"error","name":"OfferingDocuments_AlreadySigned","inputs":[]},{"type":"error","name":"OfferingDocuments_CannotChangeTemplateAfterInvestments","inputs":[]},{"type":"error","name":"OfferingDocuments_DocumentAlreadyExists","inputs":[]},{"type":"error","name":"OfferingDocuments_DocumentNotFound","inputs":[]},{"type":"error","name":"OfferingDocuments_InvalidDocumentId","inputs":[]},{"type":"error","name":"OfferingDocuments_InvalidEligibilityMode","inputs":[]},{"type":"error","name":"OfferingDocuments_InvalidMinMax","inputs":[]},{"type":"error","name":"OfferingDocuments_InvalidRequirementIndex","inputs":[]},{"type":"error","name":"OfferingDocuments_InvalidSignerProof","inputs":[]},{"type":"error","name":"OfferingDocuments_InvalidTemplateId","inputs":[]},{"type":"error","name":"OfferingDocuments_MaxDocumentsReached","inputs":[]},{"type":"error","name":"OfferingDocuments_MinDocumentsNotMet","inputs":[]},{"type":"error","name":"OfferingDocuments_NoRequiredDocument","inputs":[]},{"type":"error","name":"OfferingDocuments_NotAuthorizedSigner","inputs":[]},{"type":"error","name":"OfferingDocuments_NotRequiredDocument","inputs":[]},{"type":"error","name":"OfferingDocuments_TemplateNotFound","inputs":[]}],"bytecode":{"object":"0x60808060405234601557613331908161001a8239f35b5f80fdfe60806040526004361015610011575f80fd5b5f358060e01c8063038be967146120ab5780630837d3e51461207c578063129ffd2114611e47578063251948e114611a5d578063289e04d714611a045780633c615c89146119d85780633c713544146119b55780633e62267c1461184b57806341775d48146116275780634e01b34a1461156357806350459e25146115215780635ef22e88146114fe57806364a4abd81461120a578063921c09d7146111795780639773f86e1461113d578063996d0fc3146110aa578063a36a53e614610cca578063a3a868dc14610c27578063ad0bb95314610b28578063b10d6b41146109e9578063cc2a3b3714610966578063f3f9904014610440578063f98a6386146101805763f9fbd93314610122575f80fd5b3461017c57604036600319011261017c5761013b612100565b6001600160e01b0319909116906101528233612d63565b156101655761016390600435612b01565b005b50631d64bc3360e11b5f523360045260245260445ffd5b5f80fd5b503461017c5760a036600319011261017c576004356024359160ff831680840361017c576101ac61228d565b6101b461229d565b906084356001600160401b03811161017c576101d4903690600401612234565b936001600160e01b0319166101e98133612d63565b1561042a57505f51602061327c5f395f51905f525485101561041b577f0fa078836d60d6f1a26f9c39e4aa04fc112fb285ab1bb896760cc332f16a2be05461040c5760ff8116958684116103fe576102408661237a565b5090815488116103fe57836102a69161028c6002956102746001870193849061ff0082549160081b169061ff001916179055565b825462ff0000191660109190911b62ff000016178255565b9063ff00000082549160181b169063ff0000001916179055565b01948351956001600160401b0387116103ea576102cd876102c78354612545565b83612593565b602096601f811160011461035f579161033e959493916103278460ff957f2a1b83313d8a35d27676e4a8217bb61163f529bbbdcbf38e61eee715fe69bae79a9b5f91610354575b508160011b915f199060031b1c19161790565b90555b604051958695608087526080870190612252565b93602086015260408501521660608301520390a2005b90508801515f610314565b601f198116825f52885f20905f5b8181106103d257508261033e98979694927f2a1b83313d8a35d27676e4a8217bb61163f529bbbdcbf38e61eee715fe69bae79a9b60ff9795600194106103ba575b5050811b01905561032a565b8901515f1960f88460031b161c191690555f806103ae565b888b0151835560209a8b019a6001909301920161036d565b634e487b7160e01b5f52604160045260245ffd5b6243ed5160e21b5f5260045ffd5b6339fce09f60e01b5f5260045ffd5b63cdaded6b60e01b5f5260045ffd5b631d64bc3360e11b5f523360045260245260445ffd5b3461017c57606036600319011261017c5760043561045c612100565b6044356001600160401b03811161017c573660238201121561017c5761048c9036906024816004013591016121ef565b905f51602061327c5f395f51905f52541561095757825f525f51602061323c5f395f51905f5260205260405f2060ff6006820154161561094857600301545f8181525f51602061325c5f395f51905f5260205260408120546104ed8161237a565b50915f8354905b81811061091d575b50501561090e575f8681525f5160206132dc5f395f51905f52602090815260408083203384529091529020600201546108ff57600161053d60ff9233612db1565b92015460101c1611156108f05760ff5f5160206132bc5f395f51905f5254166105658161212c565b61056e8161212c565b6108d3575f9081525f51602061329c5f395f51905f526020908152604080832033845290915290205460ff16156108c4575b6001600160a01b031690811515806108ba575b156107de57602061067b91604051828101907f4361705369676e20446f63756d656e74205369676e617475726520417574686f8252673934bd30ba34b7b760c11b60408201523060601b604882015286605c8201523360601b607c8201524660908201526090815261062660b0826121ce565b5190207f19457468657265756d205369676e6564204d6573736167653a0a3332000000005f52601c52603c5f206040519384928392630b135d3f60e11b84526004840152604060248401526044830190612252565b0381855afa9081156107d3575f91610790575b506001600160e01b0319166374eca2c160e11b01610781576107476040516106b5816121b3565b8281523360208083018281524260408086019182526001606087018181525f8b81525f5160206132dc5f395f51905f528752838120978152969095529420945185546001600160a01b039182166001600160a01b031991821617875592519486018054959091169490921693909317905590516002830155516003909101805460ff191691151560ff16919091179055565b8161075133612342565b55604051914283527f056feefb9bba149abbce45617e85a28fcda7d6bca7cac3c98a0ecd2654a6420160203394a4005b63287dd65360e11b5f5260045ffd5b90506020813d6020116107cb575b816107ab602093836121ce565b8101031261017c57516001600160e01b03198116810361017c578361068e565b3d915061079e565b6040513d5f823e3d90fd5b50506108806040516107ef816121b3565b338082525f6020808401828152426040808701918252606087018581528986525f5160206132dc5f395f51905f5285528186209686529590935291909220935184546001600160a01b039182166001600160a01b0319918216178655925160018601805491909216931692909217909155516002830155516003909101805460ff191691151560ff16919091179055565b8061088a33612342565b55604051904282527fcb4765881b79e3f3e656357a384db0c5ebdbdad01ab9fbc82ea10f38b7730dbc60203393a3005b50338214156105b3565b6385f8b9bd60e01b5f5260045ffd5b506108dd33612c59565b6105a0576385f8b9bd60e01b5f5260045ffd5b630fa525eb60e11b5f5260045ffd5b634015883f60e11b5f5260045ffd5b6320093bf560e11b5f5260045ffd5b85610928828761240c565b90549060031b1c1461093c576001016104f4565b505050600187806104fc565b638c9c58df60e01b5f5260045ffd5b631fc32dab60e11b5f5260045ffd5b3461017c57602036600319011261017c57600435606060a060405161098a81612198565b8281525f60208201525f60408201525f838201525f608082015201525f51602061327c5f395f51905f525481101561041b576109d16109cb6109e59261237a565b50612aa5565b6040519182916020835260208301906122ad565b0390f35b3461017c57602036600319011261017c575f60c0604051610a098161217d565b82815260606020820152606060408201528260608201528260808201528260a082015201526004355f525f51602061323c5f395f51905f5260205260405f20604051610a548161217d565b81548152610a6460018301612a07565b9160208201928352610a7860028201612a07565b604083019081526003820154916060840192835260018060a01b036004820154166080850190815260ff600660058401549360a088019485520154169260c0860193158015855261094857610b0090610aed60405198899860208a525160208a01525160e060408a0152610100890190612252565b9051878203601f19016060890152612252565b93516080860152516001600160a01b031660a08501525160c084015251151560e08301520390f35b3461017c575f36600319011261017c575f51602061327c5f395f51905f5254610b5081612276565b90610b5e60405192836121ce565b8082525f51602061327c5f395f51905f525f9081526020830191907f68f592839c6aa7d7317e0d00fffacc9df3ac57c512738ce191909af3a7a2c5b4835b838310610c0957848660405191829160208301906020845251809152604083019060408160051b85010192915f905b828210610bda57505050500390f35b91936001919395506020610bf98192603f198a820301865288516122ad565b9601920192018594939192610bcb565b60036020600192610c1985612aa5565b815201920192019190610b9c565b503461017c57602036600319011261017c576004359060ff821680920361017c576001600160e01b031916610c5c8133612d63565b1561042a575060038111610cbb576020817f0764f6622260e626c96900578dffbf2a8efafae753a8dc07f47578131ae75be69260ff195f5160206132bc5f395f51905f525416175f5160206132bc5f395f51905f5255604051908152a1005b636a481c3b60e01b5f5260045ffd5b503461017c5760c036600319011261017c576004356001600160401b03811161017c573660238201121561017c57806004013590610d0782612276565b91610d1560405193846121ce565b8083526024602084019160051b8301019136831161017c57602401905b82821061109a57505050602435908115159283830361017c57610d5361228d565b92610d5c61229d565b6084359060ff821680920361017c5760a4356001600160401b03811161017c57610d8a903690600401612234565b936001600160e01b031916610d9f8133612d63565b1561042a575084511561108b5760ff8091169516918583116103fe5785159081611083575b506103fe577f0fa078836d60d6f1a26f9c39e4aa04fc112fb285ab1bb896760cc332f16a2be05461040c575f51602061327c5f395f51905f52549560405190610e0c82612198565b858252602082019081526040820192848452606083018881526080840191825260a0840194878652600160401b8b10156103ea5760018b015f51602061327c5f395f51905f5255610e5c8b61237a565b95909561107057518051906001600160401b0382116103ea57602090610e828389612788565b01865f5260205f205f5b83811061105c5750505050610f1092610ef660ff879694610ede828096610ec8600160029d01995115158a9060ff801983541691151516179055565b51885461ff001916911660081b61ff0016178755565b51855462ff00001916911660101b62ff000016178455565b51825463ff0000001916911660181b63ff00000016179055565b0190518051906001600160401b0382116103ea57610f3882610f328554612545565b85612593565b602090601f8311600114610ff957610f6792915f9183610fee575b50508160011b915f199060031b1c19161790565b90555b5f5b8351811015610fa25780610f82600192866124d9565b515f525f51602061325c5f395f51905f526020528660405f205501610f6c565b50610fde92507f4cf0dc7cc781403ab9f178f48c7f1c49842ef2502cc007e0620a8dc31507b94b93604051938493606085526060850190612252565b91602084015260408301520390a2005b015190505f80610f53565b90601f19831691845f52815f20925f5b818110611044575090846001959493921061102c575b505050811b019055610f6a565b01515f1960f88460031b161c191690555f808061101f565b92936020600181928786015181550195019301611009565b600190602084519401938184015501610e8c565b634e487b7160e01b5f525f60045260245ffd5b90505f610dc4565b63ad064c1760e01b5f5260045ffd5b8135815260209182019101610d32565b3461017c57602036600319011261017c576110c3612116565b604051630bde45d160e31b81526001600160a01b039091166004820152602081602481305afa80156107d3575f90611103575b6020906040519015158152f35b506020813d602011611135575b8161111d602093836121ce565b8101031261017c576111306020916129fa565b6110f6565b3d9150611110565b3461017c57604036600319011261017c57611156612116565b60243590600482101561017c5760209161116f91612900565b6040519015158152f35b503461017c57602036600319011261017c57611193612116565b906001600160e01b0319166111a88133612d63565b1561042a57505f5160206132bc5f395f51905f528054610100600160a81b031916600883901b610100600160a81b03161790556001600160a01b03167f616b9ff2d063e472a3ae2c9607792d0804fbb5508f09b155d6977ecce1e8e65d5f80a2005b503461017c57602036600319011261017c57600435906001600160e01b0319166112348133612d63565b1561042a57505f51602061327c5f395f51905f525481101561041b577f0fa078836d60d6f1a26f9c39e4aa04fc112fb285ab1bb896760cc332f16a2be05461040c576112886112828261237a565b506124fb565b905f5b82518110156112c157806112a1600192856124d9565b515f525f51602061325c5f395f51905f526020525f60408120550161128b565b505f51602061327c5f395f51905f52545f1981019081116114ea578082036113e3575b505f51602061327c5f395f51905f525480156113cf575f19016113068161237a565b6110705780545f8255806113ab575b50805f600160029301550161132a8154612545565b9081611368575b50505f51602061327c5f395f51905f52557f6a21b0a8b8e78126c1a884f11d00ea9ebb13315d1085f55a5210b7a90d34d4ce5f80a2005b81601f5f931160011461137f5750555b8280611331565b8183526020832061139b91601f0160051c81019060010161257d565b8082528160208120915555611378565b815f5260205f20908101905b8181106113c45750611315565b5f81556001016113b7565b634e487b7160e01b5f52603160045260245ffd5b6113ec9061237a565b506113f68261237a565b61107057818103611450575b50506114106112828261237a565b5f5b81518110156114485780611428600192846124d9565b515f525f51602061325c5f395f51905f526020528360405f205501611412565b5050816112e4565b600280836114616114e395856127c8565b6114db6001850160ff6001840161148782825416849060ff801983541691151516179055565b8054835461ff001916600891821c841690911b61ff00161783558054835462ff00001916601091821c841690911b62ff0000161783555460181c1663ff00000082549160181b169063ff0000001916179055565b019101612821565b8180611402565b634e487b7160e01b5f52601160045260245ffd5b3461017c57602036600319011261017c57602061116f61151c612116565b612720565b503461017c57604036600319011261017c5761153b612100565b6001600160e01b0319909116906115528233612d63565b156101655761016390600435612663565b3461017c57602036600319011261017c576004355f525f51602061321c5f395f51905f5260205260405f20604051806020835491828152019081935f5260205f20905f5b81811061160857505050816115bd9103826121ce565b604051918291602083019060208452518091526040830191905f5b8181106115e6575050500390f35b82516001600160a01b03168452859450602093840193909201916001016115d8565b82546001600160a01b03168452602090930192600192830192016115a7565b503461017c57604036600319011261017c5760043590602435906001600160401b03821161017c573660238301121561017c578160040135906001600160401b03821161017c576024830192602436918460051b01011161017c576001600160e01b0319166116968133612d63565b1561042a5750825f525f51602061321c5f395f51905f5260205260405f20905f5b825481101561171157600190855f525f51602061329c5f395f51905f5260205260405f206116e5828661240c565b848060a01b0391549060031b1c16838060a01b03165f5260205260405f2060ff198154169055016116b7565b848285825f525f51602061321c5f395f51905f5260205260405f2080545f825580611831575b50505f5b8281106117b4575060405191806020840160208552526040830191905f905b80821061178a57857f2501acd8f2f5de07f98732b95a4a5bb4e8209f7030c609fa582fc1427acc79fb86860387a2005b90919283359060018060a01b03821680920361017c5760208160019382935201940192019061175a565b600190845f525f51602061321c5f395f51905f526020526117eb60405f206117e56117e08488886125f8565b612608565b9061261c565b845f525f51602061329c5f395f51905f5260205260405f206118116117e08387876125f8565b838060a01b03165f5260205260405f208260ff198254161790550161173b565b611844915f5260205f209081019061257d565b8380611737565b3461017c575f36600319011261017c57604080516351b529f360e11b60208201526350459e2560e01b6024820152634bb9fc3760e11b6028820152630f1c4d5160e21b602c82015263251948e160e01b603082015263b10d6b4160e01b603482015263cc2a3b3760e01b603882015263ad0bb95360e01b603c820152633c615c8960e01b9181019190915263129ffd2160e01b6044820152630837d3e560e01b6048820152632700d9a560e11b604c820152630bde45d160e31b605082015263289e04d760e01b605482015263996d0fc360e01b605882015263038be96760e01b605c80830191909152630c94957b60e31b606083015263f9fbd93360e01b606483015263921c09d760e01b60688301526328ea1a3760e21b606c83015263082eeba960e31b60708301526303cfe64160e61b6074830152637cc531c360e11b607883015281526109e5906119a1607c826121ce565b604051918291602083526020830190612252565b3461017c57602036600319011261017c57602061116f6119d3612116565b6125d6565b3461017c57602036600319011261017c5760206119fb6119f6612116565b612342565b54604051908152f35b3461017c57604036600319011261017c57611a1d612116565b6024355f525f5160206132dc5f395f51905f5260205260405f209060018060a01b03165f5260205260406002815f20015481519080151582526020820152f35b3461017c5760a036600319011261017c576004356044356001600160401b03811161017c57611a90903690600401612234565b6064356001600160401b03811161017c57611aaf903690600401612234565b91608435918115611e3857815f525f51602061323c5f395f51905f5260205260ff600660405f20015416611e29575f5f5f51602061327c5f395f51905f52545b808210611dc5575b505015611db65760405190611b0b8261217d565b6024358252602082019081526040820185815260608301858152608084019033825260a085019242845260c086019460018652875f525f51602061323c5f395f51905f5260205260405f20965187556001870190518051906001600160401b0382116103ea57611b7f82610f328554612545565b602090601f8311600114611d5357611bad92915f9183611d485750508160011b915f199060031b1c19161790565b90555b51805160028701916001600160401b0382116103ea57611bd482610f328554612545565b602090601f8311600114611cda57826006979593611c589a99979593611c0e935f92611ccf5750508160011b915f199060031b1c19161790565b90555b516003860155516004850180546001600160a01b039092166001600160a01b0319909216919091179055516005840155519101805460ff191691151560ff16919091179055565b611c613361230a565b8054600160401b8110156103ea57611c7e9160018201815561240c565b81549060031b9083821b915f19901b19161790557ff2c80f448c6d4e755b20ce6bb42b87856d578da264519d604797a0301ed55dcc6040516020815280611cca33966020830190612252565b0390a4005b015190508e80610f53565b90601f19831691845f52815f20925f5b818110611d30575092600192859260069a9896611c589d9c9a989610611d18575b505050811b019055611c11565b01515f1960f88460031b161c191690558d8080611d0b565b92936020600181928786015181550195019301611cea565b015190508d80610f53565b90601f19831691845f52815f20925f5b818110611d9e5750908460019594939210611d86575b505050811b019055611bb0565b01515f1960f88460031b161c191690558c8080611d79565b92936020600181928786015181550195019301611d63565b63f74fef5960e01b5f5260045ffd5b611dd661128283969497959361237a565b905f5b8251811015611e1b5785611ded82856124d9565b5114611dfb57600101611dd9565b509193955050600193919391825b611e165760010190611aef565b611af7565b509193958093959150611e09565b63426e592760e11b5f5260045ffd5b63126d712360e11b5f5260045ffd5b3461017c57602036600319011261017c57611e60612116565b5f51602061327c5f395f51905f5254611e7881612276565b91611e8660405193846121ce565b818352601f19611e9583612276565b015f5b81811061206b5750505f5b828110611f1157836040518091602082016020835281518091526040830190602060408260051b8601019301915f905b828210611ee257505050500390f35b91936001919395506020611f018192603f198a8203018652885161214a565b9601920192018594939192611ed3565b611f1a8161237a565b50805490611f27826124a7565b915f915f5b828110611f8b57505050611f3f816124a7565b915f5b828110611f6c5750505090600191611f5a82876124d9565b52611f6581866124d9565b5001611ea3565b80611f79600192846124d9565b51611f8482876124d9565b5201611f42565b611f95818361240c565b90549060031b1c611fa58861230a565b805490915f5b828110611fbf575b50505050600101611f2c565b611fc9818561240c565b90549060031b1c5f525f51602061323c5f395f51905f5260205281600360405f2001541480612025575b611fff57600101611fab565b5061201b925086915061201560019497896124d9565b526124ed565b93908a8080611fb3565b50612030818561240c565b90549060031b1c5f525f5160206132dc5f395f51905f5260205260405f2060018060a01b038c165f52602052600260405f2001541515611ff3565b806060602080938801015201611e98565b3461017c575f36600319011261017c576040612096612421565b82519182526120a48161212c565b6020820152f35b3461017c57604036600319011261017c576120c4612100565b6004355f525f51602061329c5f395f51905f5260205260405f209060018060a01b03165f52602052602060ff60405f2054166040519015158152f35b602435906001600160a01b038216820361017c57565b600435906001600160a01b038216820361017c57565b6004111561213657565b634e487b7160e01b5f52602160045260245ffd5b90602080835192838152019201905f5b8181106121675750505090565b825184526020938401939092019160010161215a565b60e081019081106001600160401b038211176103ea57604052565b60c081019081106001600160401b038211176103ea57604052565b608081019081106001600160401b038211176103ea57604052565b90601f801991011681019081106001600160401b038211176103ea57604052565b9291926001600160401b0382116103ea5760405191612218601f8201601f1916602001846121ce565b82948184528183011161017c578281602093845f960137010152565b9080601f8301121561017c5781602061224f933591016121ef565b90565b805180835260209291819084018484015e5f828201840152601f01601f1916010190565b6001600160401b0381116103ea5760051b60200190565b6044359060ff8216820361017c57565b6064359060ff8216820361017c57565b61224f9160a06122c6835160c0845260c084019061214a565b9260208101511515602084015260ff604082015116604084015260ff606082015116606084015260ff608082015116608084015201519060a0818403910152612252565b6001600160a01b03165f9081527f0fa078836d60d6f1a26f9c39e4aa04fc112fb285ab1bb896760cc332f16a2bf86020526040902090565b6001600160a01b03165f9081527f0fa078836d60d6f1a26f9c39e4aa04fc112fb285ab1bb896760cc332f16a2bf66020526040902090565b5f51602061327c5f395f51905f52548110156123ae575f51602061327c5f395f51905f525f52600360205f20910201905f90565b634e487b7160e01b5f52603260045260245ffd5b5f51602061327c5f395f51905f5254156123ae575f51602061327c5f395f51905f525f9081527f68f592839c6aa7d7317e0d00fffacc9df3ac57c512738ce191909af3a7a2c5b491565b80548210156123ae575f5260205f2001905f90565b5f51602061327c5f395f51905f5254151580612495575b61245d5760ff5f5160206132bc5f395f51905f525416906124588261212c565b5f9190565b6124656123c2565b508054156123ae575f5260205f20549060ff5f5160206132bc5f395f51905f525416916124918361212c565b9190565b5061249e6123c2565b50541515612438565b906124b182612276565b6124be60405191826121ce565b82815280926124cf601f1991612276565b0190602036910137565b80518210156123ae5760209160051b010190565b5f1981146114ea5760010190565b90604051918281549182825260208201905f5260205f20925f5b81811061252c57505061252a925003836121ce565b565b8454835260019485019487945060209093019201612515565b90600182811c92168015612573575b602083101461255f57565b634e487b7160e01b5f52602260045260245ffd5b91607f1691612554565b818110612588575050565b5f815560010161257d565b9190601f81116125a257505050565b61252a925f5260205f20906020601f840160051c830193106125cc575b601f0160051c019061257d565b90915081906125bf565b5f51602061327c5f395f51905f5254156125f35761224f90612c59565b505f90565b91908110156123ae5760051b0190565b356001600160a01b038116810361017c5790565b90815491600160401b8310156103ea578261263f91600161252a9501815561240c565b81546001600160a01b0393841660039290921b91821b9390911b1916919091179055565b90815f525f51602061329c5f395f51905f5260205260405f2060018060a01b0382165f5260205260ff60405f20541661271c57815f525f51602061321c5f395f51905f526020526126b78160405f2061261c565b5f8281525f51602061329c5f395f51905f52602090815260408083206001600160a01b0394909416808452939091528120805460ff191660011790559091907ff423ea79bc99e6796ba530677a5c10483e4a7b201eccb884de028d467e0e9df29080a3565b5050565b5f51602061327c5f395f51905f5254905f5b82811061274157505050600190565b600161274c8261237a565b50015460ff81161561277f5760ff6127648385612db1565b9160081c1611612778576001905b01612732565b5050505f90565b50600190612772565b90600160401b81116103ea578154918181558282106127a657505050565b5f5260205f2091820191015b8181106127bd575050565b5f81556001016127b2565b81811461271c578154916001600160401b0383116103ea576127ea8383612788565b5f5260205f20905f5260205f208154915f925b84841061280b575050505050565b60018091920193845492818501550192906127fd565b9190918281146128fb576128358354612545565b6001600160401b0381116103ea57612857816128518454612545565b84612593565b5f93601f82116001146128955761288692939482915f9261288a5750508160011b915f199060031b1c19161790565b9055565b015490505f80610f53565b601f198216905f5260205f2094835f5260205f20915f5b8181106128e3575095836001959697106128cb575b505050811b019055565b01545f1960f88460031b161c191690555f80806128c1565b9192600180602092868b0154815501940192016128ac565b509050565b9061290a8161212c565b80156129f3577f0fa078836d60d6f1a26f9c39e4aa04fc112fb285ab1bb896760cc332f16a2bd7546001600160a01b0316906129458161212c565b600381146129d2576129568161212c565b6002811461297e5760019061296a8161212c565b146129755750505f90565b61224f91612fdd565b506001600160a01b0382165f9081527f0fa078836d60d6f1a26f9c39e4aa04fc112fb285ab1bb896760cc332f16a2be7602052604090205415916129c29190612f9a565b8115916129cd575090565b905090565b506129dd8183612ee3565b9182156129e957505090565b61224f9250612f57565b5050600190565b5190811515820361017c57565b9060405191825f825492612a1a84612545565b8084529360018116908115612a835750600114612a3f575b5061252a925003836121ce565b90505f9291925260205f20905f915b818310612a6757505090602061252a928201015f612a32565b6020919350806001915483858901015201910190918492612a4e565b90506020925061252a94915060ff191682840152151560051b8201015f612a32565b90604051612ab281612198565b60a0612afc60028395612ac4816124fb565b855260ff600182015481811615156020880152818160081c166040880152818160101c16606088015260181c16608086015201612a07565b910152565b805f525f51602061329c5f395f51905f5260205260405f2060018060a01b0383165f5260205260ff60405f2054161561271c575f8181525f51602061329c5f395f51905f52602090815260408083206001600160a01b03861684528252808320805460ff191690558383525f51602061321c5f395f51905f52909152812092905b835480821015612c4f57612b96828661240c565b905460039190911b1c6001600160a01b0390811690841614612bbb5750600101612b82565b929391925f198101919082116114ea5761263f612bdb612bf4938561240c565b905460039190911b1c6001600160a01b0316918461240c565b805480156113cf575f190190612c0a828261240c565b81549060018060a01b039060031b1b19169055555b6001600160a01b0316907f6a1b4c158163e3f20bb7d98717c441faffde96c991e9481215c5342a3c530bbb5f80a3565b5050909150612c1f565b5f5160206132bc5f395f51905f525460ff8116612c758161212c565b612c7e8161212c565b60018103612c8e57505050600190565b612c978161212c565b60028103612ca757505050600190565b612cb08161212c565b60038103612d4a575060081c6001600160a01b0316908115612d44576040516366e305fd60e01b81526001600160a01b03909116600482015290602090829060249082905afa5f9181612d08575b5061224f57505f90565b9091506020813d602011612d3c575b81612d24602093836121ce565b8101031261017c57612d35906129fa565b905f612cfe565b3d9150612d17565b50505f90565b915050612d568161212c565b15612d5f575f90565b5f90565b81612d6d91613020565b612dab577f511915e52b7f9e690b9fdc662acaf5600fd3722c87eb951d3abd26e93a784dca5c9060ff8216612da25750505f90565b61224f916131cc565b50600190565b5f915f51602061327c5f395f51905f525481101561277857612dd29061237a565b508054905f5b828110612de6575050505090565b612df0818361240c565b90549060031b1c612e008561230a565b8054905f5b828110612e19575b50505050600101612dd8565b612e23818361240c565b90549060031b1c5f525f51602061323c5f395f51905f5260205283600360405f2001541480612e73575b612e5957600101612e05565b5050505093612e696001916124ed565b94905f8080612e0d565b50612e7e818361240c565b90549060031b1c5f525f5160206132dc5f395f51905f5260205260405f2060018060a01b0389165f52602052600260405f2001541515612e4d565b919082604091031261017c576020612ed0836129fa565b92015163ffffffff8116810361017c5790565b604080516368fc2b7760e11b81525f60048201526001600160a01b03928316602482015292909183916044918391165afa5f9181612f25575061224f57505f90565b612f4891925060403d604011612f50575b612f4081836121ce565b810190612eb9565b50905f612cfe565b503d612f36565b604080516368fc2b7760e11b8152600260048201526001600160a01b03928316602482015292909183916044918391165afa5f9181612f25575061224f57505f90565b604080516368fc2b7760e11b8152600560048201526001600160a01b03928316602482015292909183916044918391165afa5f9181612f25575061224f57505f90565b604080516368fc2b7760e11b8152600660048201526001600160a01b03928316602482015292909183916044918391165afa5f9181612f25575061224f57505f90565b7fce1c17acaaa67de66e928cd49c8f658667a825223bee6fda99a14908362bcdac546001600160a01b031680613155575b5060018060a01b0381165f527fce1c17acaaa67de66e928cd49c8f658667a825223bee6fda99a14908362bcdaa60205260405f20549163ffffffff60e01b165f527fce1c17acaaa67de66e928cd49c8f658667a825223bee6fda99a14908362bcdab60205260405f2054908115613111576001600160a01b03165f9081527fce1c17acaaa67de66e928cd49c8f658667a825223bee6fda99a14908362bcdaa6020526040902054600116151591821561310957505090565b161515919050565b6001600160a01b03165f9081527fce1c17acaaa67de66e928cd49c8f658667a825223bee6fda99a14908362bcdaa60205260409020546001161515915061224f9050565b6040805163b700961360e01b81526001600160a01b03841660048201523060248201526001600160e01b03198516604482015291829060649082905afa5f91816131aa575b5015613051576129f3575f613051565b6131c491925060403d604011612f5057612f4081836121ce565b50905f61319a565b60ff169081156129f35763ffffffff60e01b165f527fce1c17acaaa67de66e928cd49c8f658667a825223bee6fda99a14908362bcdab60205260405f2054908115612d44576001901b1615159056fe0fa078836d60d6f1a26f9c39e4aa04fc112fb285ab1bb896760cc332f16a2bf30fa078836d60d6f1a26f9c39e4aa04fc112fb285ab1bb896760cc332f16a2bf50fa078836d60d6f1a26f9c39e4aa04fc112fb285ab1bb896760cc332f16a2bf10fa078836d60d6f1a26f9c39e4aa04fc112fb285ab1bb896760cc332f16a2bf00fa078836d60d6f1a26f9c39e4aa04fc112fb285ab1bb896760cc332f16a2bf40fa078836d60d6f1a26f9c39e4aa04fc112fb285ab1bb896760cc332f16a2bf20fa078836d60d6f1a26f9c39e4aa04fc112fb285ab1bb896760cc332f16a2bf7a2646970667358221220f49b64a8f510e552f690d64779897ecd7438fa13e6afa3d1c1901974b26a727264736f6c634300081e0033","linkReferences":{}},"methodIdentifiers":{"addDocumentRequirement(bytes32[],bool,uint8,uint8,uint8,string)":"a36a53e6","addRequiredSigner(bytes32,address)":"50459e25","canAccessDocument(address,uint8)":"9773f86e","canSignRequiredDocument(address)":"3c713544","createDocument(bytes32,bytes32,string,string,bytes32)":"251948e1","getDocument(bytes32)":"b10d6b41","getDocumentRequirement(uint256)":"cc2a3b37","getDocumentRequirements()":"ad0bb953","getInvestorSignedDocument(address)":"3c615c89","getInvestorSignedDocumentsByGroup(address)":"129ffd21","getRequiredDocumentInfo()":"0837d3e5","getRequiredSigners(bytes32)":"4e01b34a","hasSignedAllRequiredDocuments(address)":"5ef22e88","hasSignedDocument(address,bytes32)":"289e04d7","hasSignedRequiredDocument(address)":"996d0fc3","isRequiredSignerForTemplate(bytes32,address)":"038be967","packedSelectors()":"3e62267c","removeDocumentRequirement(uint256)":"64a4abd8","removeRequiredSigner(bytes32,address)":"f9fbd933","setCustomEligibilityModule(address)":"921c09d7","setDocumentEligibilityMode(uint8)":"a3a868dc","setRequiredSigners(bytes32,address[])":"41775d48","signDocument(bytes32,address,bytes)":"f3f99040","updateDocumentRequirement(uint256,uint8,uint8,uint8,string)":"f98a6386"},"id":175}