{"abi":[{"type":"function","name":"OfferingCore_init","inputs":[{"name":"issuer","type":"address","internalType":"address"},{"name":"tokenAddress","type":"address","internalType":"address"},{"name":"paymentToken","type":"address","internalType":"address"},{"name":"paymentRecipient","type":"address","internalType":"address"},{"name":"pricePerToken","type":"uint256","internalType":"uint256"},{"name":"minInvestment","type":"uint256","internalType":"uint256"},{"name":"maxAmount","type":"uint256","internalType":"uint256"},{"name":"deadline","type":"uint256","internalType":"uint256"},{"name":"uri","type":"string","internalType":"string"}],"outputs":[],"stateMutability":"nonpayable"},{"type":"function","name":"attachInvestmentAgreement","inputs":[{"name":"investmentId","type":"uint256","internalType":"uint256"},{"name":"documentUID","type":"bytes32","internalType":"bytes32"}],"outputs":[],"stateMutability":"nonpayable"},{"type":"function","name":"claimRefund","inputs":[{"name":"investmentId","type":"uint256","internalType":"uint256"}],"outputs":[],"stateMutability":"nonpayable"},{"type":"function","name":"countersignInvestment","inputs":[{"name":"investmentId","type":"uint256","internalType":"uint256"}],"outputs":[],"stateMutability":"nonpayable"},{"type":"function","name":"getAllInvestors","inputs":[],"outputs":[{"name":"investors","type":"address[]","internalType":"address[]"}],"stateMutability":"view"},{"type":"function","name":"getInvestment","inputs":[{"name":"investmentId","type":"uint256","internalType":"uint256"}],"outputs":[{"name":"investment","type":"tuple","internalType":"struct OfferingStorage.Investment","components":[{"name":"investor","type":"address","internalType":"address"},{"name":"amount","type":"uint256","internalType":"uint256"},{"name":"tokenQuantity","type":"uint256","internalType":"uint256"},{"name":"pricePerToken","type":"uint256","internalType":"uint256"},{"name":"timestamp","type":"uint256","internalType":"uint256"},{"name":"status","type":"uint8","internalType":"enum OfferingStorage.InvestmentStatus"},{"name":"paymentEscrowed","type":"bool","internalType":"bool"},{"name":"subscriptionAgreementRef","type":"bytes32","internalType":"bytes32"},{"name":"issuedLotId","type":"bytes32","internalType":"bytes32"}]}],"stateMutability":"view"},{"type":"function","name":"getInvestorInvestments","inputs":[{"name":"investor","type":"address","internalType":"address"}],"outputs":[{"name":"investmentIds","type":"uint256[]","internalType":"uint256[]"}],"stateMutability":"view"},{"type":"function","name":"getInvestorPaymentTotal","inputs":[{"name":"investor","type":"address","internalType":"address"}],"outputs":[{"name":"totalPayments","type":"uint256","internalType":"uint256"}],"stateMutability":"view"},{"type":"function","name":"getInvestorTotalInvestment","inputs":[{"name":"investor","type":"address","internalType":"address"}],"outputs":[{"name":"totalAmount","type":"uint256","internalType":"uint256"}],"stateMutability":"view"},{"type":"function","name":"getOfferingInfo","inputs":[],"outputs":[{"name":"info","type":"tuple","internalType":"struct OfferingStorage.OfferingInfo","components":[{"name":"issuer","type":"address","internalType":"address"},{"name":"tokenAddress","type":"address","internalType":"address"},{"name":"paymentToken","type":"address","internalType":"address"},{"name":"paymentRecipient","type":"address","internalType":"address"},{"name":"pricePerToken","type":"uint256","internalType":"uint256"},{"name":"minInvestment","type":"uint256","internalType":"uint256"},{"name":"maxAmount","type":"uint256","internalType":"uint256"},{"name":"deadline","type":"uint256","internalType":"uint256"},{"name":"totalInvested","type":"uint256","internalType":"uint256"},{"name":"investorCount","type":"uint256","internalType":"uint256"},{"name":"status","type":"uint8","internalType":"enum OfferingStorage.OfferingStatus"},{"name":"uri","type":"string","internalType":"string"}]}],"stateMutability":"view"},{"type":"function","name":"getPaymentInfo","inputs":[],"outputs":[{"name":"paymentToken","type":"address","internalType":"address"},{"name":"paymentRecipient","type":"address","internalType":"address"},{"name":"totalPaymentsReceived","type":"uint256","internalType":"uint256"}],"stateMutability":"view"},{"type":"function","name":"invest","inputs":[{"name":"amount","type":"uint256","internalType":"uint256"},{"name":"attestationUIDs","type":"bytes32[]","internalType":"bytes32[]"}],"outputs":[{"name":"investmentId","type":"uint256","internalType":"uint256"}],"stateMutability":"payable"},{"type":"function","name":"rejectInvestment","inputs":[{"name":"investmentId","type":"uint256","internalType":"uint256"}],"outputs":[],"stateMutability":"nonpayable"},{"type":"function","name":"updateOfferingStatus","inputs":[{"name":"newStatus","type":"uint8","internalType":"enum OfferingStorage.OfferingStatus"}],"outputs":[],"stateMutability":"nonpayable"},{"type":"event","name":"FundsDeposited","inputs":[{"name":"investor","type":"address","indexed":true,"internalType":"address"},{"name":"investmentId","type":"uint256","indexed":true,"internalType":"uint256"},{"name":"amount","type":"uint256","indexed":false,"internalType":"uint256"},{"name":"tokenQuantity","type":"uint256","indexed":false,"internalType":"uint256"},{"name":"identityUID","type":"bytes32","indexed":false,"internalType":"bytes32"},{"name":"qualificationUID","type":"bytes32","indexed":false,"internalType":"bytes32"}],"anonymous":false},{"type":"event","name":"InvestmentAccepted","inputs":[{"name":"investmentId","type":"uint256","indexed":true,"internalType":"uint256"},{"name":"issuer","type":"address","indexed":true,"internalType":"address"},{"name":"investor","type":"address","indexed":true,"internalType":"address"}],"anonymous":false},{"type":"event","name":"InvestmentAgreementAttached","inputs":[{"name":"investmentId","type":"uint256","indexed":true,"internalType":"uint256"},{"name":"documentUID","type":"bytes32","indexed":false,"internalType":"bytes32"}],"anonymous":false},{"type":"event","name":"InvestmentAgreementExecuted","inputs":[{"name":"investmentId","type":"uint256","indexed":true,"internalType":"uint256"},{"name":"investor","type":"address","indexed":true,"internalType":"address"},{"name":"issuer","type":"address","indexed":true,"internalType":"address"},{"name":"amount","type":"uint256","indexed":false,"internalType":"uint256"},{"name":"tokenQuantity","type":"uint256","indexed":false,"internalType":"uint256"},{"name":"pricePerToken","type":"uint256","indexed":false,"internalType":"uint256"},{"name":"subscriptionAgreementRef","type":"bytes32","indexed":false,"internalType":"bytes32"}],"anonymous":false},{"type":"event","name":"InvestmentRefunded","inputs":[{"name":"investmentId","type":"uint256","indexed":true,"internalType":"uint256"},{"name":"investor","type":"address","indexed":true,"internalType":"address"}],"anonymous":false},{"type":"event","name":"InvestmentRejected","inputs":[{"name":"investmentId","type":"uint256","indexed":true,"internalType":"uint256"},{"name":"issuer","type":"address","indexed":true,"internalType":"address"},{"name":"investor","type":"address","indexed":true,"internalType":"address"}],"anonymous":false},{"type":"event","name":"OfferingInitialized","inputs":[{"name":"issuer","type":"address","indexed":true,"internalType":"address"},{"name":"token","type":"address","indexed":true,"internalType":"address"},{"name":"paymentToken","type":"address","indexed":false,"internalType":"address"},{"name":"paymentRecipient","type":"address","indexed":false,"internalType":"address"},{"name":"pricePerToken","type":"uint256","indexed":false,"internalType":"uint256"},{"name":"minInvestment","type":"uint256","indexed":false,"internalType":"uint256"},{"name":"maxAmount","type":"uint256","indexed":false,"internalType":"uint256"},{"name":"deadline","type":"uint256","indexed":false,"internalType":"uint256"},{"name":"uri","type":"string","indexed":false,"internalType":"string"}],"anonymous":false},{"type":"event","name":"OfferingStatusChanged","inputs":[{"name":"oldStatus","type":"uint8","indexed":false,"internalType":"enum OfferingStorage.OfferingStatus"},{"name":"newStatus","type":"uint8","indexed":false,"internalType":"enum OfferingStorage.OfferingStatus"}],"anonymous":false},{"type":"event","name":"TokensIssued","inputs":[{"name":"investmentId","type":"uint256","indexed":true,"internalType":"uint256"},{"name":"investor","type":"address","indexed":true,"internalType":"address"},{"name":"tokenQuantity","type":"uint256","indexed":false,"internalType":"uint256"},{"name":"lotId","type":"bytes32","indexed":true,"internalType":"bytes32"}],"anonymous":false},{"type":"event","name":"UserRoleUpdated","inputs":[{"name":"user","type":"address","indexed":true,"internalType":"address"},{"name":"role","type":"uint8","indexed":true,"internalType":"uint8"},{"name":"enabled","type":"bool","indexed":false,"internalType":"bool"}],"anonymous":false},{"type":"error","name":"OfferingCore_AlreadyCountersigned","inputs":[]},{"type":"error","name":"OfferingCore_AlreadyInitialized","inputs":[]},{"type":"error","name":"OfferingCore_AlreadyProcessed","inputs":[]},{"type":"error","name":"OfferingCore_BelowMinimumInvestment","inputs":[]},{"type":"error","name":"OfferingCore_DeadlinePassed","inputs":[]},{"type":"error","name":"OfferingCore_DocumentSignatureRequired","inputs":[]},{"type":"error","name":"OfferingCore_ETHTransferFailed","inputs":[]},{"type":"error","name":"OfferingCore_EscrowAmountMismatch","inputs":[]},{"type":"error","name":"OfferingCore_ExceedsMaximumAmount","inputs":[]},{"type":"error","name":"OfferingCore_GracePeriodNotExpired","inputs":[]},{"type":"error","name":"OfferingCore_IncorrectETHAmount","inputs":[]},{"type":"error","name":"OfferingCore_InvalidAttestation","inputs":[]},{"type":"error","name":"OfferingCore_InvestmentNotFound","inputs":[]},{"type":"error","name":"OfferingCore_InvestmentTooSmall","inputs":[]},{"type":"error","name":"OfferingCore_NoETHExpected","inputs":[]},{"type":"error","name":"OfferingCore_NotAuthorized","inputs":[]},{"type":"error","name":"OfferingCore_NotInvestor","inputs":[]},{"type":"error","name":"OfferingCore_OfferingNotActive","inputs":[]},{"type":"error","name":"OfferingCore_PaymentNotInEscrow","inputs":[]},{"type":"error","name":"OfferingCore_TokenIssuanceFailed","inputs":[]},{"type":"error","name":"OfferingCore_UnsupportedOfferingType","inputs":[]},{"type":"error","name":"ReentrancyGuard_ReentrantCall","inputs":[]}],"bytecode":{"object":"0x60808060405234601557612e2b908161001a8239f35b5f80fdfe60806040526004361015610011575f80fd5b5f3560e01c806244eff4146100f357806304da3f19146100ee57806309a3352f146100e957806316268c28146100e457806322ae634f146100df5780634c431f00146100da5780635b7baf64146100d5578063788fe028146100d0578063aae0b1e0146100cb578063ad7724f2146100c6578063b80f3f55146100c1578063d0a2f2c4146100bc578063d2a641e4146100b75763f0fb56a8146100b2575f80fd5b610dd9565b610d2c565b610c97565b610bbb565b610b40565b610abd565b610858565b61075a565b6106e4565b610606565b6104f3565b610441565b6103ce565b610207565b6004111561010257565b634e487b7160e01b5f52602160045260245ffd5b90610120826100f8565b52565b805180835260209291819084018484015e5f828201840152601f01601f1916010190565b602080825282516001600160a01b031690820152610204916101a0906101609060208101516001600160a01b0316604085015260408101516001600160a01b0316606085015260608101516001600160a01b03166080850152608081015160a085015260a081015160c085015260c081015160e085015260e08101516101008501526101008101516101208501526101208101516101408501526101f361014082015183860190610116565b015191610180808201520190610123565b90565b346103ca575f3660031901126103ca576060610160604051610228816109d8565b5f81525f60208201525f60408201525f838201525f60808201525f60a08201525f60c08201525f60e08201525f6101008201525f6101208201525f61014082015201526103c6610276610a39565b7f53f955f4c4a9361ccb46aadc7047f8c04fa3701865bfe8009fc4a965d8bec473546001600160a01b031681527f53f955f4c4a9361ccb46aadc7047f8c04fa3701865bfe8009fc4a965d8bec474546001600160a01b031660208201525f516020612c565f395f51905f52546001600160a01b031660408201525f516020612cd65f395f51905f52546001600160a01b031660608201525f516020612c965f395f51905f525460808201525f516020612cf65f395f51905f525460a08201525f516020612d765f395f51905f525460c08201525f516020612d565f395f51905f525460e08201525f516020612d365f395f51905f52546101008201525f516020612d965f395f51905f52546101208201526103ac6103a25f516020612c365f395f51905f525460ff1690565b6101408301610e98565b6103b4610ed9565b61016082015260405191829182610147565b0390f35b5f80fd5b346103ca575f3660031901126103ca575f516020612c565f395f51905f52545f516020612cd65f395f51905f52547f53f955f4c4a9361ccb46aadc7047f8c04fa3701865bfe8009fc4a965d8bec48354604080516001600160a01b03948516815293909216602084015290820152606090f35b346103ca5760403660031901126103ca57600435602435610460611b53565b156104e4575f8281527f53f955f4c4a9361ccb46aadc7047f8c04fa3701865bfe8009fc4a965d8bec47f6020526040902080546001600160a01b0316156104d5576006018190556040519081527f86a3fe58abd946870b0d070e20ef781722a19d2a156d907bfe478ec44278b7d390602090a2005b631286942360e11b5f5260045ffd5b637f3d721d60e11b5f5260045ffd5b346103ca5760203660031901126103ca5760043560048110156103ca57610518611b53565b156104e4577f090dc240b6971396472961dc185f630e0a38a8785c5c37c22b858ac2255a7fbb9060ff5f516020612c365f395f51905f52541661055a826100f8565b60ff195f516020612c365f395f51905f52541660ff8316175f516020612c365f395f51905f525561059060405192839283611011565b0390a1005b9190916101008061012083019460018060a01b0381511684526020810151602085015260408101516040850152606081015160608501526080810151608085015260a08101516105e4816100f8565b60a085015260c08181015115159085015260e081015160e08501520151910152565b346103ca5760203660031901126103ca576004355f61010060405161062a816109fa565b8281528260208201528260408201528260608201528260808201528260a08201528260c08201528260e082015201525f527f53f955f4c4a9361ccb46aadc7047f8c04fa3701865bfe8009fc4a965d8bec47f6020526103c661068e60405f2061103f565b60405191829182610595565b6001600160a01b038116036103ca57565b60206040818301928281528451809452019201905f5b8181106106ce5750505090565b82518452602093840193909201916001016106c1565b346103ca5760203660031901126103ca576107096004356107048161069a565b6110c7565b6040519081602082549182815201915f5260205f20905f5b818110610744576103c68561073881870382610a17565b604051918291826106ab565b8254845260209093019260019283019201610721565b346103ca5760203660031901126103ca57600435610776611bf6565b61077f81610fcc565b80546001600160a01b031680156104d5576001600160a01b031633036108495760058101805460ff166107b1816100f8565b61083b576107cc5f516020612d565f395f51905f525461114b565b42111561082c576107dc9061116d565b6107e582611c68565b546001600160a01b0316907f7753f0811884796ae94129b9370b6b1b9d4d2a4c042da6fe85c9b6da1325985b5f80a361082a60015f516020612dd65f395f51905f5255565b005b631be7f4eb60e21b5f5260045ffd5b62de169960e21b5f5260045ffd5b63ff97c4df60e01b5f5260045ffd5b346103ca5760203660031901126103ca57600435610874611bf6565b61088361087f611b53565b1590565b6104e45761089081610fcc565b805490916001600160a01b039091169081156104d55760058301805460ff166108b8816100f8565b61083b576108f7906108d1836001870195865490611e63565b6108e3836108de8761103f565b611eb7565b6108ec81611184565b805461ff0019169055565b6109018254612049565b825461091a9082906001600160a01b0316845490612156565b82546040516001600160a01b03909116927f666ddf3bc13b0c4f440e0e8594b43a0bb0effc85c0634af74e876a6a63665f71919081906109ab908633877fd22f7b83f7419d73eafaf66fdcd6f0f01880e3265bb1caa8774786e4e331f7055f80a45460028801546003890154906006339a015492859094939260609260808301968352602083015260408201520152565b0390a461082a60015f516020612dd65f395f51905f5255565b634e487b7160e01b5f52604160045260245ffd5b610180810190811067ffffffffffffffff8211176109f557604052565b6109c4565b610120810190811067ffffffffffffffff8211176109f557604052565b90601f8019910116810190811067ffffffffffffffff8211176109f557604052565b60405190610a4961018083610a17565b565b60405190610a4961012083610a17565b67ffffffffffffffff81116109f557601f01601f191660200190565b81601f820112156103ca57803590610a8e82610a5b565b92610a9c6040519485610a17565b828452602083830101116103ca57815f926020809301838601378301015290565b346103ca576101203660031901126103ca57600435610adb8161069a565b60243590610ae88261069a565b604435610af48161069a565b606435610b008161069a565b60843560a4359060c43592610b1460e43590565b94610104359767ffffffffffffffff89116103ca57610b3a61082a993690600401610a77565b97611495565b346103ca5760203660031901126103ca576020610b9a600435610b628161069a565b6001600160a01b03165f9081527f53f955f4c4a9361ccb46aadc7047f8c04fa3701865bfe8009fc4a965d8bec4846020526040902090565b54604051908152f35b67ffffffffffffffff81116109f55760051b60200190565b60403660031901126103ca5760243560043567ffffffffffffffff82116103ca57366023830112156103ca57816004013591610bf683610ba3565b92610c046040519485610a17565b8084526024602085019160051b830101913683116103ca57602401905b828210610c45576103c6610c3586866116f1565b6040519081529081906020820190565b8135815260209182019101610c21565b60206040818301928281528451809452019201905f5b818110610c785750505090565b82516001600160a01b0316845260209384019390920191600101610c6b565b346103ca575f3660031901126103ca576040515f516020612cb65f395f51905f5280548083525f91825260208301917f97100dee0064ad66d3f30b0b0d58c4e84f6237f158b44a83f0c455bea8eace7291905b818110610d0d576103c685610d0181870382610a17565b60405191829182610c55565b82546001600160a01b0316845260209093019260019283019201610cea565b346103ca5760203660031901126103ca57600435610d498161069a565b610d535f916110c7565b8054905f5b828110610d6a57604051848152602090f35b610d83610d778284611aee565b90549060031b1c610fcc565b600581015460ff16610d94816100f8565b8015908115610dc5575b50610dad575b50600101610d58565b6001919482610dbe92015490611160565b9390610da4565b60019150610dd2816100f8565b145f610d9e565b346103ca5760203660031901126103ca57600435610df5611bf6565b610e0061087f611b53565b6104e457610e0d81610fcc565b80546001600160a01b0316156104d55760058101805460ff16610e2f816100f8565b61083b57610e3c9061119b565b610e4582611c68565b546001600160a01b03169033907f135dc16718b461c44ae749630a98a1bebd63e710b328ad36bf0c21b9693f61675f80a461082a60015f516020612dd65f395f51905f5255565b600190610120826100f8565b610120826100f8565b90600182811c92168015610ecf575b6020831014610ebb57565b634e487b7160e01b5f52602260045260245ffd5b91607f1691610eb0565b604051905f827f53f955f4c4a9361ccb46aadc7047f8c04fa3701865bfe8009fc4a965d8bec47e5491610f0b83610ea1565b8083529260018116908115610fad5750600114610f2f575b610a4992500383610a17565b507f53f955f4c4a9361ccb46aadc7047f8c04fa3701865bfe8009fc4a965d8bec47e5f90815290917f975f57468a4544365bda3ba724a5d4431e7c7235597517a48ed1c7d98f46b7715b818310610f91575050906020610a4992820101610f23565b6020919350806001915483858901015201910190918492610f79565b60209250610a4994915060ff191682840152151560051b820101610f23565b5f527f53f955f4c4a9361ccb46aadc7047f8c04fa3701865bfe8009fc4a965d8bec47f60205260405f2090565b90611003816100f8565b60ff80198354169116179055565b6040810193929160209190611025816100f8565b8152611030836100f8565b0152565b5f90610120826100f8565b90600761104a610a4b565b83546001600160a01b0316815292600181015460208501526002810154604085015260038101546060850152600481015460808501526110b36110aa60058301546110a16110988260ff1690565b60a08901610e98565b60081c60ff1690565b151560c0860152565b600681015460e08501520154610100830152565b6001600160a01b03165f9081527f53f955f4c4a9361ccb46aadc7047f8c04fa3701865bfe8009fc4a965d8bec4816020526040902090565b6001600160a01b03165f9081527f53f955f4c4a9361ccb46aadc7047f8c04fa3701865bfe8009fc4a965d8bec4876020526040902090565b634e487b7160e01b5f52601160045260245ffd5b9062093a80820180921161115b57565b611137565b9190820180921161115b57565b61117760036100f8565b805460ff19166003179055565b61118e60016100f8565b805460ff19166001179055565b6111a560026100f8565b805460ff19166002179055565b601f82116111bf57505050565b5f5260205f20906020601f840160051c830193106111f7575b601f0160051c01905b8181106111ec575050565b5f81556001016111e1565b90915081906111d8565b919091825167ffffffffffffffff81116109f557611229816112238454610ea1565b846111b2565b6020601f82116001146112685781906112599394955f9261125d575b50508160011b915f199060031b1c19161790565b9055565b015190505f80611245565b601f1982169061127b845f5260205f2090565b915f5b8181106112b55750958360019596971061129d575b505050811b019055565b01515f1960f88460031b161c191690555f8080611293565b9192602060018192868b01518155019401920161127e565b80517f53f955f4c4a9361ccb46aadc7047f8c04fa3701865bfe8009fc4a965d8bec47380546001600160a01b039283166001600160a01b03199182161790915560208301517f53f955f4c4a9361ccb46aadc7047f8c04fa3701865bfe8009fc4a965d8bec474805491841691831691909117905560408301515f516020612c565f395f51905f52805491841691831691909117905560608301515f516020612cd65f395f51905f52805491909316911617905560808101515f516020612c965f395f51905f525560a08101515f516020612cf65f395f51905f525560c08101515f516020612d765f395f51905f525560e08101515f516020612d565f395f51905f52556101008101515f516020612d365f395f51905f52556101208101515f516020612d965f395f51905f5255610140810151610a49916101609161142890611415816100f8565b5f516020612c365f395f51905f52610ff9565b01517f53f955f4c4a9361ccb46aadc7047f8c04fa3701865bfe8009fc4a965d8bec47e611201565b93909260e0959261020498979460018060a01b0316865260018060a01b0316602086015260408501526060840152608083015260a08201528160c08201520190610123565b97919690939294956114c87f53f955f4c4a9361ccb46aadc7047f8c04fa3701865bfe8009fc4a965d8bec4725460ff1690565b6116e2577f393a63ea637c258da582ed0ffb8ccd62f78704d5a0a3fe71d31625f10bab7d33966116dd94611542600160ff197f53f955f4c4a9361ccb46aadc7047f8c04fa3701865bfe8009fc4a965d8bec4725416177f53f955f4c4a9361ccb46aadc7047f8c04fa3701865bfe8009fc4a965d8bec47255565b6115c561154d610a39565b6001600160a01b038d1681526001600160a01b03891660208201526001600160a01b038c1660408201526001600160a01b038a1660608201528260808201528360a08201528460c08201528560e08201525f6101008201525f6101208201526115b96101408201610e8c565b866101608201526112cd565b6115ee60017f53f955f4c4a9361ccb46aadc7047f8c04fa3701865bfe8009fc4a965d8bec48055565b6116165f7f53f955f4c4a9361ccb46aadc7047f8c04fa3701865bfe8009fc4a965d8bec49555565b61163e5f7f53f955f4c4a9361ccb46aadc7047f8c04fa3701865bfe8009fc4a965d8bec49655565b61166760017f53f955f4c4a9361ccb46aadc7047f8c04fa3701865bfe8009fc4a965d8bec49255565b6116b7600160ff197f53f955f4c4a9361ccb46aadc7047f8c04fa3701865bfe8009fc4a965d8bec4915416177f53f955f4c4a9361ccb46aadc7047f8c04fa3701865bfe8009fc4a965d8bec49155565b6116c08b6121b4565b6040516001600160a01b039788169b909716999697889788611450565b0390a3565b630cc2158960e01b5f5260045ffd5b906116fa611bf6565b60016117145f516020612c365f395f51905f525460ff1690565b61171d816100f8565b036119ae575f516020612d565f395f51905f5254421161199f5761174361087f8361221d565b61196b5761175290823361228a565b61175b3361232f565b61177c611767826119bd565b5f516020612c965f395f51905f5254906119e1565b801561195c57611942917f6fdfec0989a0db9eb7c54b77a3b15caecd2c85c394a5dcf62c04e6195f3907797f53f955f4c4a9361ccb46aadc7047f8c04fa3701865bfe8009fc4a965d8bec480549384936117fc6117d8866119ff565b7f53f955f4c4a9361ccb46aadc7047f8c04fa3701865bfe8009fc4a965d8bec48055565b61180685856123bf565b611871611811612478565b5f516020612c965f395f51905f525490611829610a4b565b33815291876020840152846040840152606083015242608083015261185060a08301611034565b600160c083015260e08201525f61010082015261186c87610fcc565b611a0d565b61187b853361256e565b6118cd6118a9857f53f955f4c4a9361ccb46aadc7047f8c04fa3701865bfe8009fc4a965d8bec48354611160565b7f53f955f4c4a9361ccb46aadc7047f8c04fa3701865bfe8009fc4a965d8bec48355565b335f9081527f53f955f4c4a9361ccb46aadc7047f8c04fa3701865bfe8009fc4a965d8bec48460205260409020611905858254611160565b905561191185336126d2565b61191c85853361277d565b6040519182913395836060905f9294936080820195825260208201528260408201520152565b0390a390610a4960015f516020612dd65f395f51905f5255565b633fc25a9960e11b5f5260045ffd5b505f516020612cf65f395f51905f5254111561199057638898dccb60e01b5f5260045ffd5b631bf1721360e21b5f5260045ffd5b632617b4cb60e01b5f5260045ffd5b632af4bb8760e11b5f5260045ffd5b90670de0b6b3a7640000820291808304670de0b6b3a7640000149015171561115b57565b81156119eb570490565b634e487b7160e01b5f52601260045260245ffd5b5f19811461115b5760010190565b815181546001600160a01b0319166001600160a01b03909116178155906007906101009060208101516001850155604081015160028501556060810151600385015560808101516004850155611a9460058501611a7760a0840151611a71816100f8565b82610ff9565b60c08301511515815461ff00191690151560081b61ff0016179055565b60e081015160068501550151910155565b634e487b7160e01b5f52603260045260245ffd5b5f516020612cb65f395f51905f5254811015611ae9575f516020612cb65f395f51905f525f5260205f2001905f90565b611aa5565b8054821015611ae9575f5260205f2001905f90565b3d15611b2d573d90611b1482610a5b565b91611b226040519384610a17565b82523d5f602084013e565b606090565b519081151582036103ca57565b908160209103126103ca5761020490611b32565b7f53f955f4c4a9361ccb46aadc7047f8c04fa3701865bfe8009fc4a965d8bec473546001600160a01b0316803314611bf057803b15611beb57604051633ea3167760e21b602082019081523360248301525f928392909190611bc281604481015b03601f198101835282610a17565b51915afa611bce611b03565b81611bd7575090565b610204915060208082518301019101611b3f565b505f90565b50600190565b60015f516020612dd65f395f51905f525414611c45575b60025f516020612dd65f395f51905f525414611c365760025f516020612dd65f395f51905f5255565b638ac2de0f60e01b5f5260045ffd5b60015f516020612dd65f395f51905f5255611c0d565b9190820391821161115b57565b611c7181610fcc565b6005810191611c8861087f845460ff9060081c1690565b611e54575f516020612c565f395f51905f52546001600160a01b031680611d715750611cc8815f525f516020612c765f395f51905f5260205260405f2090565b549060018301548203611d62575f82611d38829583611d2a819796611d10611cff84995f516020612db65f395f51905f5254611c5b565b5f516020612db65f395f51905f5255565b5f525f516020612c765f395f51905f5260205260405f2090565b55546001600160a01b031690565b5af1611d42611b03565b5015611d5357805461ff0019169055565b6303e1bddb60e31b5f5260045ffd5b63a520994b60e01b5f5260045ffd5b9291611daa84611d95845f525f516020612d165f395f51905f5260205260405f2090565b9060018060a01b03165f5260205260405f2090565b549060018101548203611d62575f611e1e611df5611e4f95611dce610a49996110ff565b611dd9878254611c5b565b90555f525f516020612d165f395f51905f5260205260405f2090565b5f516020612c565f395f51905f52546001600160a01b03165f9081526020919091526040902090565b555f516020612c565f395f51905f5254611e49906001600160a01b031691546001600160a01b031690565b906127c0565b6108ec565b63f1e2bf4760e01b5f5260045ffd5b604051637f62950960e01b602082019081526001600160a01b039092166024820152604481019290925260648201929092525f918291611ea68160848101611bb4565b5190305afa50611eb4611b03565b50565b611ec761087f60c0830151151590565b612045575f516020612c565f395f51905f52546001600160a01b031680611f945750611f07825f525f516020612c765f395f51905f5260205260405f2090565b5460208201518103611d62575f808083611f33611cff83965f516020612db65f395f51905f5254611c5b565b81611f52885f525f516020612c765f395f51905f5260205260405f2090565b555f516020612cd65f395f51905f52546001600160a01b03165af1611f75611b03565b5015611d5357611f90611f8a836007936128c3565b92610fcc565b0155565b90611fb782611d95855f525f516020612d165f395f51905f5260205260405f2090565b549160208201518303611d625783611f9092612040600795611fdb611f8a956110ff565b611fe6828254611c5b565b90555f61200a611df5865f525f516020612d165f395f51905f5260205260405f2090565b555f516020612c565f395f51905f52546001600160a01b03165f516020612cd65f395f51905f52546001600160a01b0316611e49565b6128c3565b5050565b5f516020612d365f395f51905f525490810180911161115b575f516020612d365f395f51905f52556120885f516020612d965f395f51905f52546119ff565b5f516020612d965f395f51905f52555f516020612d365f395f51905f52547f53f955f4c4a9361ccb46aadc7047f8c04fa3701865bfe8009fc4a965d8bec49554810180911161115b575f516020612d765f395f51905f525411156120e857565b7f090dc240b6971396472961dc185f630e0a38a8785c5c37c22b858ac2255a7fbb60ff5f516020612c365f395f51905f52541661212560026100f8565b5f516020612c365f395f51905f52805460ff191660029081179091559061215160405192839283611011565b0390a1565b6040516304c910db60e51b602082019081526001600160a01b038316602483015260448201939093526064810193909352610a499290915f9182919061219f8160848101611bb4565b519082305af1506121ae611b03565b50612b0a565b5f9060018060a01b03168082527f35edad4c931e57ec40cedc90b9e3e052832d1b49c07eb789b019aea9b39c91d960205260408220600181541790557f4c9bdd0c8e073eb5eda2250b18d8e5121ff27b62064fbeeeed4869bb99bc5bf2602060405160018152a3565b5f516020612cf65f395f51905f52548110611beb575f516020612d365f395f51905f5254907f53f955f4c4a9361ccb46aadc7047f8c04fa3701865bfe8009fc4a965d8bec49554820180921161115b57810180911161115b575f516020612d765f395f51905f5254101590565b909160405191602083019363f073128960e01b8552608484019160018060a01b031660248501526044840152606060648401528151809152602060a484019201905f5b8181106123195750505091816122ef5f9493859403601f198101835282610a17565b5190305afa6122fc611b03565b90156123055750565b80519182156123145750602001fd5b915050565b82518452602093840193909201916001016122cd565b60405163996d0fc360e01b602082019081526001600160a01b0390921660248201525f9182916123628160448101611bb4565b5190305afa61236f611b03565b90806123b5575b61237d5750565b61087f8160208061239394518301019101611b3f565b61239957565b6123a1612478565b15610a4957638f3ef05560e01b5f5260045ffd5b5080511515612376565b5f516020612c565f395f51905f52549091906001600160a01b03168061241857508134036124095761240690611d10611cff845f516020612db65f395f51905f5254611160565b55565b631f46ec3960e11b5f5260045ffd5b3461245e576124069161243284611df59330903390612bed565b5f516020612c565f395f51905f5254612453906001600160a01b03166110ff565b611dd9858254611160565b6330b1d9ed60e01b5f5260045ffd5b5190610a498261069a565b5f5f806040516020810190630837d3e560e01b82526004815261249c602482610a17565b5190305afa6124a9611b03565b90806124ea575b6124b8575090565b90506060818051810103126103ca5760606020820151916124dc604082015161069a565b015160ff8116036103ca5790565b50805115156124b0565b6020818303126103ca5780519067ffffffffffffffff82116103ca570181601f820112156103ca5780519061252882610a5b565b926125366040519485610a17565b828452602083830101116103ca57815f9260208093018386015e8301015290565b604090610204939281528160208201520190610123565b604051631efbd8db60e11b602082019081526001600160a01b03831660248301529192915f918291906125a48160448101611bb4565b5190305afa6125b1611b03565b90806126c8575b6125c157505050565b806020806125d493518301019101611b3f565b6125dc575050565b6040516355a26bbf60e01b602082019081526001600160a01b03841660248301525f9182919061260f8160448101611bb4565b5190305afa61261c611b03565b90806126be575b61262c57505050565b5f91611bb46126666126488460208088975183010191016124f4565b604051928391602083019563e44437eb60e01b875260248401612557565b519082305af1612674611b03565b5061267c5750565b60405163c0fc0d4360e01b602082019081526001600160a01b0390921660248201525f9182916126af8160448101611bb4565b519082305af150611eb4611b03565b5080511515612623565b50805115156125b8565b906126dc826110c7565b8054600160401b8110156109f5576126f991600182018155611aee565b819291549060031b91821b915f19901b19161790556001612719826110c7565b54146127225750565b5f516020612cb65f395f51905f5254600160401b8110156109f55780600161275992015f516020612cb65f395f51905f5255611ab9565b81546001600160a01b0393841660039290921b91821b9390911b1916919091179055565b60405163087efee960e01b602082019081526001600160a01b039092166024820152604481019290925260648201929092525f9182916126af8160848101611bb4565b5f929183809360405190602082019363a9059cbb60e01b855260018060a01b031660248301526044820152604481526127fa606482610a17565b51925af1612806611b03565b9015908115612817575b50611d5357565b805180151592508261282c575b50505f612810565b61283f9250602080918301019101611b3f565b155f80612824565b91908260409103126103ca576020825192015190565b969591936128b39360e0955f979360018060a01b03168a5260208a015260018060a01b031660408901526060880152608087015261010060a08701528361010087015261012060c0870152610120860190610123565b930152565b6040513d5f823e3d90fd5b906040905f808351602081019063208674cb60e01b82526128f081611bb487602483019190602083019252565b5190305afa6128fd611b03565b9080612a1e575b156129fb5761291d9150602080825183010191016124f4565b7f53f955f4c4a9361ccb46aadc7047f8c04fa3701865bfe8009fc4a965d8bec4745461295f90612953906001600160a01b031681565b6001600160a01b031690565b83516001600160a01b0316935f848201516129b460606129925f516020612c565f395f51905f525460018060a01b031690565b94015195875198899788968795630d9f387560e01b875242936004880161285d565b03925af19081156129f6575f916129c9575090565b6129eb915060403d6040116129ef575b6129e38183610a17565b810190612847565b5090565b503d6129d9565b6128b8565b5081516020810191909152306040820152612a198160608101611bb4565b61291d565b5080511515612904565b519067ffffffffffffffff821682036103ca57565b919060c0838203126103ca57825167ffffffffffffffff81116103ca5783019080601f830112156103ca578151612a7381610ba3565b92612a816040519485610a17565b81845260208085019260051b8201019283116103ca57602001905b828210612ae65750505091612ab360208201612a28565b91612ac060408301612a28565b91612acd6060820161246d565b9161020460a0612adf60808501611b32565b9301612a28565b8151815260209182019101612a9c565b8051821015611ae95760209160051b010190565b604051635960213d60e11b602082019081526001600160a01b03831660248301529192915f91829190612b408160448101611bb4565b5190305afa612b4d611b03565b90158015612be4575b612bdf5780602080612b6d93518301019101612a3d565b50505050505f5b8151811015612bd957805f80612b8c60019486612af6565b516040516303ab62b960e01b602082019081526001600160a01b038a1660248301526044820192909252612bc38160648101611bb4565b519082305af150612bd2611b03565b5001612b74565b50509050565b509050565b50805115612b56565b6040516323b872dd60e01b602082019081526001600160a01b03938416602483015293909216604483015260648201939093525f928392909183906127fa8160848101611bb456fe53f955f4c4a9361ccb46aadc7047f8c04fa3701865bfe8009fc4a965d8bec47d53f955f4c4a9361ccb46aadc7047f8c04fa3701865bfe8009fc4a965d8bec47553f955f4c4a9361ccb46aadc7047f8c04fa3701865bfe8009fc4a965d8bec48653f955f4c4a9361ccb46aadc7047f8c04fa3701865bfe8009fc4a965d8bec47753f955f4c4a9361ccb46aadc7047f8c04fa3701865bfe8009fc4a965d8bec48253f955f4c4a9361ccb46aadc7047f8c04fa3701865bfe8009fc4a965d8bec47653f955f4c4a9361ccb46aadc7047f8c04fa3701865bfe8009fc4a965d8bec47853f955f4c4a9361ccb46aadc7047f8c04fa3701865bfe8009fc4a965d8bec48853f955f4c4a9361ccb46aadc7047f8c04fa3701865bfe8009fc4a965d8bec47b53f955f4c4a9361ccb46aadc7047f8c04fa3701865bfe8009fc4a965d8bec47a53f955f4c4a9361ccb46aadc7047f8c04fa3701865bfe8009fc4a965d8bec47953f955f4c4a9361ccb46aadc7047f8c04fa3701865bfe8009fc4a965d8bec47c53f955f4c4a9361ccb46aadc7047f8c04fa3701865bfe8009fc4a965d8bec485d0c6a028de93945f0fa1f9ad253dc7bd6cb2d21bf622eeb9ea646dbba161167fa2646970667358221220bae654c62da16e5ff234bf450f10c39dcd5c763c2705b4d9113dbdda3197797c64736f6c634300081e0033","linkReferences":{}},"methodIdentifiers":{"OfferingCore_init(address,address,address,address,uint256,uint256,uint256,uint256,string)":"aae0b1e0","attachInvestmentAgreement(uint256,bytes32)":"09a3352f","claimRefund(uint256)":"5b7baf64","countersignInvestment(uint256)":"788fe028","getAllInvestors()":"d0a2f2c4","getInvestment(uint256)":"22ae634f","getInvestorInvestments(address)":"4c431f00","getInvestorPaymentTotal(address)":"ad7724f2","getInvestorTotalInvestment(address)":"d2a641e4","getOfferingInfo()":"0044eff4","getPaymentInfo()":"04da3f19","invest(uint256,bytes32[])":"b80f3f55","rejectInvestment(uint256)":"f0fb56a8","updateOfferingStatus(uint8)":"16268c28"},"id":71}