{"abi":[{"type":"function","name":"Compliance_init","inputs":[{"name":"_allowsSelfCertification","type":"bool","internalType":"bool"},{"name":"_allowsGeneralSolicitation","type":"bool","internalType":"bool"}],"outputs":[],"stateMutability":"nonpayable"},{"type":"function","name":"allowsGeneralSolicitation","inputs":[],"outputs":[{"name":"allowed","type":"bool","internalType":"bool"}],"stateMutability":"view"},{"type":"function","name":"allowsSelfCertification","inputs":[],"outputs":[{"name":"allowed","type":"bool","internalType":"bool"}],"stateMutability":"view"},{"type":"function","name":"checkComplianceWithAttestations","inputs":[{"name":"investor","type":"address","internalType":"address"},{"name":"amount","type":"uint256","internalType":"uint256"},{"name":"attestationUIDs","type":"bytes32[]","internalType":"bytes32[]"}],"outputs":[{"name":"canInvest","type":"bool","internalType":"bool"},{"name":"failureReason","type":"string","internalType":"string"}],"stateMutability":"view"},{"type":"function","name":"executeAfterInvestmentCompliance","inputs":[{"name":"","type":"address","internalType":"address"},{"name":"","type":"uint256","internalType":"uint256"},{"name":"","type":"uint256","internalType":"uint256"}],"outputs":[],"stateMutability":"pure"},{"type":"function","name":"executeBeforeInvestmentComplianceWithAttestations","inputs":[{"name":"investor","type":"address","internalType":"address"},{"name":"amount","type":"uint256","internalType":"uint256"},{"name":"attestationUIDs","type":"bytes32[]","internalType":"bytes32[]"}],"outputs":[],"stateMutability":"view"},{"type":"function","name":"getClassificationCount","inputs":[{"name":"classificationId","type":"bytes32","internalType":"bytes32"}],"outputs":[{"name":"count","type":"uint256","internalType":"uint256"}],"stateMutability":"view"},{"type":"function","name":"getEnabledModules","inputs":[],"outputs":[{"name":"names","type":"string[]","internalType":"string[]"},{"name":"addresses","type":"address[]","internalType":"address[]"}],"stateMutability":"view"},{"type":"function","name":"getModuleInfo","inputs":[{"name":"name","type":"string","internalType":"string"}],"outputs":[{"name":"moduleAddress","type":"address","internalType":"address"},{"name":"enabled","type":"bool","internalType":"bool"},{"name":"executionOrder","type":"uint256","internalType":"uint256"}],"stateMutability":"view"},{"type":"function","name":"getRegisteredModules","inputs":[],"outputs":[{"name":"names","type":"string[]","internalType":"string[]"}],"stateMutability":"view"},{"type":"function","name":"isComplianceInitialized","inputs":[],"outputs":[{"name":"","type":"bool","internalType":"bool"}],"stateMutability":"view"},{"type":"function","name":"isInvestorClassified","inputs":[{"name":"investor","type":"address","internalType":"address"},{"name":"classificationId","type":"bytes32","internalType":"bytes32"}],"outputs":[{"name":"classified","type":"bool","internalType":"bool"}],"stateMutability":"view"},{"type":"function","name":"registerComplianceModule","inputs":[{"name":"name","type":"string","internalType":"string"},{"name":"moduleAddress","type":"address","internalType":"address"},{"name":"executionOrder","type":"uint256","internalType":"uint256"}],"outputs":[],"stateMutability":"nonpayable"},{"type":"function","name":"setAllowsGeneralSolicitation","inputs":[{"name":"allowed","type":"bool","internalType":"bool"}],"outputs":[],"stateMutability":"nonpayable"},{"type":"function","name":"setAllowsSelfCertification","inputs":[{"name":"allowed","type":"bool","internalType":"bool"}],"outputs":[],"stateMutability":"nonpayable"},{"type":"function","name":"setModuleEnabled","inputs":[{"name":"name","type":"string","internalType":"string"},{"name":"enabled","type":"bool","internalType":"bool"}],"outputs":[],"stateMutability":"nonpayable"},{"type":"function","name":"unregisterComplianceModule","inputs":[{"name":"name","type":"string","internalType":"string"}],"outputs":[],"stateMutability":"nonpayable"},{"type":"function","name":"updateInvestorClassification","inputs":[{"name":"investor","type":"address","internalType":"address"},{"name":"classificationId","type":"bytes32","internalType":"bytes32"}],"outputs":[],"stateMutability":"nonpayable"},{"type":"event","name":"AllowsGeneralSolicitationUpdated","inputs":[{"name":"allowed","type":"bool","indexed":false,"internalType":"bool"}],"anonymous":false},{"type":"event","name":"AllowsSelfCertificationUpdated","inputs":[{"name":"allowed","type":"bool","indexed":false,"internalType":"bool"}],"anonymous":false},{"type":"event","name":"ComplianceInitialized","inputs":[{"name":"allowsSelfCertification","type":"bool","indexed":false,"internalType":"bool"},{"name":"allowsGeneralSolicitation","type":"bool","indexed":false,"internalType":"bool"}],"anonymous":false},{"type":"event","name":"ComplianceModuleEnabled","inputs":[{"name":"name","type":"string","indexed":true,"internalType":"string"},{"name":"enabled","type":"bool","indexed":false,"internalType":"bool"}],"anonymous":false},{"type":"event","name":"ComplianceModuleRegistered","inputs":[{"name":"name","type":"string","indexed":true,"internalType":"string"},{"name":"moduleAddress","type":"address","indexed":true,"internalType":"address"},{"name":"executionOrder","type":"uint256","indexed":false,"internalType":"uint256"}],"anonymous":false},{"type":"event","name":"ComplianceModuleUnregistered","inputs":[{"name":"name","type":"string","indexed":true,"internalType":"string"}],"anonymous":false},{"type":"event","name":"InvestorClassificationUpdated","inputs":[{"name":"investor","type":"address","indexed":true,"internalType":"address"},{"name":"classificationId","type":"bytes32","indexed":true,"internalType":"bytes32"},{"name":"newCount","type":"uint256","indexed":false,"internalType":"uint256"}],"anonymous":false},{"type":"error","name":"AccessControl_CallerIsNotAuthorized","inputs":[{"name":"caller","type":"address","internalType":"address"},{"name":"functionSig","type":"bytes4","internalType":"bytes4"}]},{"type":"error","name":"Compliance_AlreadyInitialized","inputs":[]},{"type":"error","name":"Compliance_CheckFailed","inputs":[{"name":"moduleName","type":"string","internalType":"string"},{"name":"reason","type":"string","internalType":"string"}]},{"type":"error","name":"Compliance_InvalidModuleAddress","inputs":[]},{"type":"error","name":"Compliance_ModuleAlreadyRegistered","inputs":[{"name":"name","type":"string","internalType":"string"}]},{"type":"error","name":"Compliance_ModuleNotFound","inputs":[{"name":"name","type":"string","internalType":"string"}]},{"type":"error","name":"Compliance_NotInitialized","inputs":[]}],"bytecode":{"object":"0x60808060405234601557611a1f908161001a8239f35b5f80fdfe60806040526004361015610011575f80fd5b5f3560e01c806303ab62b914610134578063087efee91461012f57806317db9b871461012a57806320c6809e14610125578063216c926114610120578063270723ae1461011b5780632eeedc1b146101165780634e3ea33b146101115780635d18a5001461010c57806380e4ff1f146101075780638948573f1461010257806389c643fd146100fd578063b0e7ab8a146100f8578063d33fdf4f146100f3578063dafa9955146100ee578063e769a536146100e9578063f0731289146100e45763f45b07ce146100df575f80fd5b610e37565b610e08565b610cab565b610b87565b610aff565b610a9e565b610a31565b6109c5565b6108a5565b61082c565b6107fe565b6107c8565b6106f1565b6106a8565b61053c565b6103d1565b61031c565b61017d565b600435906001600160a01b038216820361014f57565b5f80fd5b602435906001600160a01b038216820361014f57565b35906001600160a01b038216820361014f57565b3461014f57604036600319011261014f57610196610139565b602435905f356001600160e01b0319166101b081336116b0565b1561030657505f8281527f53f955f4c4a9361ccb46aadc7047f8c04fa3701865bfe8009fc4a965d8bec48f602090815260408083206001600160a01b038516845290915290205460ff161561020157005b5f8281527f53f955f4c4a9361ccb46aadc7047f8c04fa3701865bfe8009fc4a965d8bec48f602090815260408083206001600160a01b0385168452909152902061025290805460ff19166001179055565b610283825f527f53f955f4c4a9361ccb46aadc7047f8c04fa3701865bfe8009fc4a965d8bec49060205260405f2090565b61028d8154610f7e565b90557f266a029349c835ba46da7845a69c14b21f4919fcf824cd24f837f2d919944c106103016102e4845f527f53f955f4c4a9361ccb46aadc7047f8c04fa3701865bfe8009fc4a965d8bec49060205260405f2090565b546040519081526001600160a01b03909316929081906020820190565b0390a3005b631d64bc3360e11b5f523360045260245260445ffd5b3461014f57606036600319011261014f57610335610139565b005b5f91031261014f57565b805180835260209291819084018484015e5f828201840152601f01601f1916010190565b9080602083519182815201916020808360051b8301019401925f915b83831061039057505050505090565b90919293946020806103ae600193601f198682030187528951610341565b97019301930191939290610381565b9060206103ce928181520190610365565b90565b3461014f575f36600319011261014f575f5160206119ca5f395f51905f52546103f981610f91565b905f5b818110610415576040518061041185826103bd565b0390f35b80610421600192610fee565b90549060031b1c5f525f5160206119aa5f395f51905f5260205261044760405f20611084565b6104518286611038565b5261045c8185611038565b50016103fc565b634e487b7160e01b5f52604160045260245ffd5b90601f8019910116810190811067ffffffffffffffff82111761049957604052565b610463565b604051906104ad608083610477565b565b67ffffffffffffffff811161049957601f01601f191660200190565b81601f8201121561014f578035906104e2826104af565b926104f06040519485610477565b8284526020838301011161014f57815f926020809301838601378301015290565b602060031982011261014f576004359067ffffffffffffffff821161014f576103ce916004016104cb565b3461014f5761054a36610511565b5f356001600160e01b03191661056081336116b0565b1561030657506105856105815f51602061198a5f395f51905f525460ff1690565b1590565b6106995780516020820120906001600160a01b036105b560016105a785610f50565b01546001600160a01b031690565b1615610678575f5b5f5160206119ca5f395f51905f52548082101561066757836105eb6105e184610fee565b90549060031b1c90565b146105f957506001016105bd565b6106419361062a61063c9361062461061e6105e161061961063797611133565b610fee565b91610fee565b90611141565b61063261115e565b610f50565b6111f5565b611267565b7f79d37148e93a01552e5d3282e26c42fea03895035c2690fef2fa3d803b7b60835f80a2005b505061063c61063761064193610f50565b604051631e3baa7160e21b81529081906106959060048301611122565b0390fd5b630f17ec8f60e21b5f5260045ffd5b3461014f57602036600319011261014f576004355f527f53f955f4c4a9361ccb46aadc7047f8c04fa3701865bfe8009fc4a965d8bec490602052602060405f2054604051908152f35b3461014f575f36600319011261014f57602060ff5f51602061198a5f395f51905f525460081c166040519015158152f35b67ffffffffffffffff81116104995760051b60200190565b606060031982011261014f576107506004610169565b91602435916044359067ffffffffffffffff821161014f578060238301121561014f57816004013561078181610722565b9261078f6040519485610477565b8184526024602085019260051b82010192831161014f57602401905b8282106107b85750505090565b81358152602091820191016107ab565b3461014f576107df6107d93661073a565b91611361565b9061041160405192839215158352604060208401526040830190610341565b3461014f575f36600319011261014f57602060ff5f51602061198a5f395f51905f5254166040519015158152f35b3461014f5761083a36610511565b602081519101205f525f5160206119aa5f395f51905f52602052606060405f206002600182015491015460ff6040519260018060a01b038116845260a01c16151560208301526040820152f35b60243590811515820361014f57565b60043590811515820361014f57565b3461014f57604036600319011261014f5760043567ffffffffffffffff811161014f576108d69036906004016104cb565b6108de610887565b905f356001600160e01b0319166108f581336116b0565b1561030657506109166105815f51602061198a5f395f51905f525460ff1690565b61069957805160208201206001600160a01b0361093760016105a784610f50565b16156109aa576109927f2ccabfa52252a0ae8373bb5795e47c048569815241345a11a7996ddd9ed821619261063c8560016109746109a596610f50565b01805460ff60a01b191691151560a01b60ff60a01b16919091179055565b6040519315158452929081906020820190565b0390a2005b604051631e3baa7160e21b8152806106958460048301611122565b3461014f57602036600319011261014f576109de610896565b5f356001600160e01b0319166109f481336116b0565b15610306577f704e3415911c12cc5ce3d8bd4ea734079824afd52d3ad538bc696fd13c9121e8602083610a268161143d565b6040519015158152a1005b3461014f57604036600319011261014f57602060ff610a92610a51610139565b6024355f527f53f955f4c4a9361ccb46aadc7047f8c04fa3701865bfe8009fc4a965d8bec48f845260405f209060018060a01b03165f5260205260405f2090565b54166040519015158152f35b3461014f57602036600319011261014f57610ab7610896565b5f356001600160e01b031916610acd81336116b0565b15610306577f73cd1be93d1be8ea9c017743db8c7680b4b60576ffcdad78ca562ed5e9636d39602083610a268161146e565b3461014f575f36600319011261014f57602060ff5f51602061198a5f395f51905f525460101c166040519015158152f35b90610b4390604083526040830190610365565b906020818303910152602080835192838152019201905f5b818110610b685750505090565b82516001600160a01b0316845260209384019390920191600101610b5b565b3461014f575f36600319011261014f575f5160206119ca5f395f51905f52545f5f5b828110610c6b5750610bc3610bbd82610f91565b916114a1565b915f5f5b828110610be05750505061041160405192839283610b30565b610bef6106326105e183610fee565b60018101549060a082901c60ff16610c0c575b5050600101610bc7565b92610c5e610c45610c6393610c2360019697611084565b610c2d858b611038565b52610c38848a611038565b506001600160a01b031690565b610c4f838a611038565b6001600160a01b039091169052565b610f7e565b91905f610c02565b610c8a6001610c7f6106326105e185610fee565b015460a01c60ff1690565b610c97575b600101610ba9565b90610ca3600191610f7e565b919050610c8f565b3461014f57606036600319011261014f5760043567ffffffffffffffff811161014f57610cdc9036906004016104cb565b610ce4610153565b90604435905f356001600160e01b031916610cff81336116b0565b156103065750610d206105815f51602061198a5f395f51905f525460ff1690565b610699576001600160a01b038316928315610df9578151602083012090610d5a610d4e60016105a785610f50565b6001600160a01b031690565b610dde577f1322c41c5a9eead8cd522b002dd028a85de90a4f18bc94a2785fa28792dda8209261063c61030193610dc8610dcd94610dae610d9961049e565b8681526001600160a01b039092166020830152565b5f6040820152886060820152610dc383610f50565b611516565b611632565b604051938452929081906020820190565b604051630d5371ad60e21b8152806106958560048301611122565b638df65b2760e01b5f5260045ffd5b3461014f57610e163661073a565b9060ff5f51602061198a5f395f51905f5254161561069957610335926117a0565b3461014f57604036600319011261014f57610e50610896565b610e58610887565b5f51602061198a5f395f51905f52549060ff8216610f41577f704e3415911c12cc5ce3d8bd4ea734079824afd52d3ad538bc696fd13c9121e8610f277f73cd1be93d1be8ea9c017743db8c7680b4b60576ffcdad78ca562ed5e9636d39946001610f3c9560ff1916175f51602061198a5f395f51905f5255610ed98161143d565b610ee28461146e565b7faba38fa6bbb53d63f5f74234babe6cb32052695709f0d18503b9c7879d458e5b6040805183151581528615156020820152a160405190151581529081906020820190565b0390a160405190151581529081906020820190565b0390a1005b63435d465760e11b5f5260045ffd5b5f525f5160206119aa5f395f51905f5260205260405f2090565b634e487b7160e01b5f52601160045260245ffd5b5f198114610f8c5760010190565b610f6a565b90610f9b82610722565b610fa86040519182610477565b8281528092610fb9601f1991610722565b01905f5b828110610fc957505050565b806060602080938501015201610fbd565b634e487b7160e01b5f52603260045260245ffd5b5f5160206119ca5f395f51905f525481101561101e575f5160206119ca5f395f51905f525f5260205f2001905f90565b610fda565b805482101561101e575f5260205f2001905f90565b805182101561101e5760209160051b010190565b90600182811c9216801561107a575b602083101461106657565b634e487b7160e01b5f52602260045260245ffd5b91607f169161105b565b9060405191825f8254926110978461104c565b808452936001811690811561110057506001146110bc575b506104ad92500383610477565b90505f9291925260205f20905f915b8183106110e45750509060206104ad928201015f6110af565b60209193508060019154838589010152019101909184926110cb565b9050602092506104ad94915060ff191682840152151560051b8201015f6110af565b9060206103ce928181520190610341565b5f19810191908211610f8c57565b9161115a9183549060031b91821b915f19901b19161790565b9055565b5f5160206119ca5f395f51905f525480156111cb575f198101905f5160206119ca5f395f51905f525482101561101e575f5160206119ca5f395f51905f525f8181527fbeaf8578901ce829d4c815fd16b2617775d23a2f2da415cda3ae97ab2680c0b59092019190915555565b634e487b7160e01b5f52603160045260245ffd5b8181106111ea575050565b5f81556001016111df565b60025f91611203815461104c565b80611214575b508260018201550155565b601f811160011461122a57508281555b5f611209565b8184526020842061124691601f0160051c8101906001016111df565b808352826020812080548260011b9083198460031b1c191617835555611224565b602090604051918183925191829101835e81015f815203902090565b60405190611292602083610477565b5f8252565b5f9060033d116112a357565b905060045f803e5f5160e01c90565b5f60443d106103ce576040513d600319016004823e8051913d602484011167ffffffffffffffff841117611320578282019283519167ffffffffffffffff8311611318573d8401600319018584016020011161131857506103ce92910160200190610477565b949350505050565b92915050565b60405190611335604083610477565b601882527f556e6b6e6f776e20636f6d706c69616e6365206572726f7200000000000000006020830152565b60609291303b1561014f579291906020608060405195869563f073128960e01b875260048701918183019560018060a01b031683528483015260408201528451809452019201905f5b818110611424575050509080825f93500381305afa908161140a575b506113ff576113d3611297565b6308c379a0146113e8575b5f906103ce611326565b6113f06112b2565b806113fb57506113de565b5f91565b6001906103ce611283565b806114185f61141e93610477565b80610337565b5f6113c6565b82518452859450602093840193909201916001016113aa565b61ff005f51602061198a5f395f51905f525491151560081b169061ff001916175f51602061198a5f395f51905f5255565b62ff00005f51602061198a5f395f51905f525491151560101b169062ff00001916175f51602061198a5f395f51905f5255565b906114ab82610722565b6114b86040519182610477565b82815280926114c9601f1991610722565b0190602036910137565b9190601f81116114e257505050565b6104ad925f5260205f20906020601f840160051c8301931061150c575b601f0160051c01906111df565b90915081906114ff565b90805180519067ffffffffffffffff82116104995761153f82611539865461104c565b866114d3565b602090601f83116001146115c3578260609360029593611574935f926115b8575b50508160011b915f199060031b1c19161790565b84555b602081015160018501805460408401516001600160a01b039093166001600160a81b03199091161791151560a01b60ff60a01b169190911790550151910155565b015190505f80611560565b90601f198316916115d7865f5260205f2090565b925f5b81811061161a57509260019285926060966002989610611602575b505050811b018455611577565b01515f1960f88460031b161c191690555f80806115f5565b929360206001819287860151815501950193016115da565b5f5160206119ca5f395f51905f52546801000000000000000081101561049957600181015f5160206119ca5f395f51905f52555f5160206119ca5f395f51905f525481101561101e575f5160206119ca5f395f51905f525f527fbeaf8578901ce829d4c815fd16b2617775d23a2f2da415cda3ae97ab2680c0b60155565b6001600160a01b03165f8181527f35edad4c931e57ec40cedc90b9e3e052832d1b49c07eb789b019aea9b39c91d960209081526040808320546001600160e01b031990951683527f35edad4c931e57ec40cedc90b9e3e052832d1b49c07eb789b019aea9b39c91da909152902054908115611769575f527f35edad4c931e57ec40cedc90b9e3e052832d1b49c07eb789b019aea9b39c91d9602052600160405f205416159182159261176157505090565b161515919050565b505050600190565b3d1561179b573d90611782826104af565b916117906040519384610477565b82523d5f602084013e565b606090565b905f5160206119ca5f395f51905f52548015611928575f949394929192915b8183106117ce57505050509050565b6118066117eb6105e1855f5160206119ca5f395f51905f52611023565b5f5160206119aa5f395f51905f52905f5260205260405f2090565b9360018501549661181e6105818960ff9060a01c1690565b61191a5792965f96606094918891906001600160a01b0316955b835183101561190a5761184b8385611038565b5115611901575f80876118a06118ae611864888a611038565b51604051630d6fa34b60e21b602082019081526001600160a01b039095166024820152604481018c905260648101919091529182906084820190565b03601f198101835282610477565b51908a5afa906118bc611771565b916118ce5750600190925b0191611838565b94979598939950509894505060015b156118f35750506001905b0191929493946117bf565b6118fc90611084565b61192e565b916001906118c7565b93969497929891509894506118dd565b9596509260019194506118e8565b50505050565b9080519081611984576040805163b4b3687b60e01b8152600481018290529061195a6044830186610341565b6b10da1958dac819985a5b195960a21b60208483039260031984016024870152600c815201520190fd5b602001fdfe53f955f4c4a9361ccb46aadc7047f8c04fa3701865bfe8009fc4a965d8bec48e53f955f4c4a9361ccb46aadc7047f8c04fa3701865bfe8009fc4a965d8bec48c53f955f4c4a9361ccb46aadc7047f8c04fa3701865bfe8009fc4a965d8bec48da2646970667358221220c0c111db44e192ce705cd58663dec8142ce871c9c60028bc500a82d9f5f438fd64736f6c634300081e0033","linkReferences":{}},"methodIdentifiers":{"Compliance_init(bool,bool)":"f45b07ce","allowsGeneralSolicitation()":"d33fdf4f","allowsSelfCertification()":"270723ae","checkComplianceWithAttestations(address,uint256,bytes32[])":"2eeedc1b","executeAfterInvestmentCompliance(address,uint256,uint256)":"087efee9","executeBeforeInvestmentComplianceWithAttestations(address,uint256,bytes32[])":"f0731289","getClassificationCount(bytes32)":"216c9261","getEnabledModules()":"dafa9955","getModuleInfo(string)":"5d18a500","getRegisteredModules()":"17db9b87","isComplianceInitialized()":"4e3ea33b","isInvestorClassified(address,bytes32)":"89c643fd","registerComplianceModule(string,address,uint256)":"e769a536","setAllowsGeneralSolicitation(bool)":"b0e7ab8a","setAllowsSelfCertification(bool)":"8948573f","setModuleEnabled(string,bool)":"80e4ff1f","unregisterComplianceModule(string)":"20c6809e","updateInvestorClassification(address,bytes32)":"03ab62b9"},"id":68}