{"abi":[{"type":"function","name":"Compliance_init","inputs":[{"name":"_allowsSelfCertification","type":"bool","internalType":"bool"},{"name":"_allowsGeneralSolicitation","type":"bool","internalType":"bool"}],"outputs":[],"stateMutability":"nonpayable"},{"type":"function","name":"allowsGeneralSolicitation","inputs":[],"outputs":[{"name":"allowed","type":"bool","internalType":"bool"}],"stateMutability":"view"},{"type":"function","name":"allowsSelfCertification","inputs":[],"outputs":[{"name":"allowed","type":"bool","internalType":"bool"}],"stateMutability":"view"},{"type":"function","name":"checkComplianceWithAttestations","inputs":[{"name":"investor","type":"address","internalType":"address"},{"name":"amount","type":"uint256","internalType":"uint256"},{"name":"attestationUIDs","type":"bytes32[]","internalType":"bytes32[]"}],"outputs":[{"name":"canInvest","type":"bool","internalType":"bool"},{"name":"failureReason","type":"string","internalType":"string"}],"stateMutability":"view"},{"type":"function","name":"executeAfterCountersignCompliance","inputs":[{"name":"","type":"address","internalType":"address"},{"name":"","type":"uint256","internalType":"uint256"},{"name":"","type":"uint256","internalType":"uint256"}],"outputs":[],"stateMutability":"pure"},{"type":"function","name":"executeAfterInvestmentCompliance","inputs":[{"name":"","type":"address","internalType":"address"},{"name":"","type":"uint256","internalType":"uint256"},{"name":"","type":"uint256","internalType":"uint256"}],"outputs":[],"stateMutability":"pure"},{"type":"function","name":"executeBeforeCountersignCompliance","inputs":[{"name":"investor","type":"address","internalType":"address"},{"name":"amount","type":"uint256","internalType":"uint256"},{"name":"","type":"uint256","internalType":"uint256"}],"outputs":[],"stateMutability":"view"},{"type":"function","name":"executeBeforeInvestmentComplianceWithAttestations","inputs":[{"name":"investor","type":"address","internalType":"address"},{"name":"amount","type":"uint256","internalType":"uint256"},{"name":"attestationUIDs","type":"bytes32[]","internalType":"bytes32[]"}],"outputs":[],"stateMutability":"view"},{"type":"function","name":"getClassificationCount","inputs":[{"name":"classificationId","type":"bytes32","internalType":"bytes32"}],"outputs":[{"name":"count","type":"uint256","internalType":"uint256"}],"stateMutability":"view"},{"type":"function","name":"getEnabledModules","inputs":[],"outputs":[{"name":"names","type":"string[]","internalType":"string[]"},{"name":"addresses","type":"address[]","internalType":"address[]"}],"stateMutability":"view"},{"type":"function","name":"getModuleInfo","inputs":[{"name":"name","type":"string","internalType":"string"}],"outputs":[{"name":"moduleAddress","type":"address","internalType":"address"},{"name":"enabled","type":"bool","internalType":"bool"},{"name":"executionOrder","type":"uint256","internalType":"uint256"}],"stateMutability":"view"},{"type":"function","name":"getRegisteredModules","inputs":[],"outputs":[{"name":"names","type":"string[]","internalType":"string[]"}],"stateMutability":"view"},{"type":"function","name":"isComplianceInitialized","inputs":[],"outputs":[{"name":"","type":"bool","internalType":"bool"}],"stateMutability":"view"},{"type":"function","name":"isInvestorClassified","inputs":[{"name":"investor","type":"address","internalType":"address"},{"name":"classificationId","type":"bytes32","internalType":"bytes32"}],"outputs":[{"name":"classified","type":"bool","internalType":"bool"}],"stateMutability":"view"},{"type":"function","name":"packedSelectors","inputs":[],"outputs":[{"name":"","type":"bytes","internalType":"bytes"}],"stateMutability":"pure"},{"type":"function","name":"registerComplianceModule","inputs":[{"name":"name","type":"string","internalType":"string"},{"name":"moduleAddress","type":"address","internalType":"address"},{"name":"executionOrder","type":"uint256","internalType":"uint256"}],"outputs":[],"stateMutability":"nonpayable"},{"type":"function","name":"setAllowsGeneralSolicitation","inputs":[{"name":"allowed","type":"bool","internalType":"bool"}],"outputs":[],"stateMutability":"nonpayable"},{"type":"function","name":"setAllowsSelfCertification","inputs":[{"name":"allowed","type":"bool","internalType":"bool"}],"outputs":[],"stateMutability":"nonpayable"},{"type":"function","name":"setModuleEnabled","inputs":[{"name":"name","type":"string","internalType":"string"},{"name":"enabled","type":"bool","internalType":"bool"}],"outputs":[],"stateMutability":"nonpayable"},{"type":"function","name":"unregisterComplianceModule","inputs":[{"name":"name","type":"string","internalType":"string"}],"outputs":[],"stateMutability":"nonpayable"},{"type":"function","name":"updateInvestorClassification","inputs":[{"name":"investor","type":"address","internalType":"address"},{"name":"classificationId","type":"bytes32","internalType":"bytes32"}],"outputs":[],"stateMutability":"nonpayable"},{"type":"event","name":"AllowsGeneralSolicitationUpdated","inputs":[{"name":"allowed","type":"bool","indexed":false,"internalType":"bool"}],"anonymous":false},{"type":"event","name":"AllowsSelfCertificationUpdated","inputs":[{"name":"allowed","type":"bool","indexed":false,"internalType":"bool"}],"anonymous":false},{"type":"event","name":"ComplianceInitialized","inputs":[{"name":"allowsSelfCertification","type":"bool","indexed":false,"internalType":"bool"},{"name":"allowsGeneralSolicitation","type":"bool","indexed":false,"internalType":"bool"}],"anonymous":false},{"type":"event","name":"ComplianceModuleEnabled","inputs":[{"name":"name","type":"string","indexed":true,"internalType":"string"},{"name":"enabled","type":"bool","indexed":false,"internalType":"bool"}],"anonymous":false},{"type":"event","name":"ComplianceModuleRegistered","inputs":[{"name":"name","type":"string","indexed":true,"internalType":"string"},{"name":"moduleAddress","type":"address","indexed":true,"internalType":"address"},{"name":"executionOrder","type":"uint256","indexed":false,"internalType":"uint256"}],"anonymous":false},{"type":"event","name":"ComplianceModuleUnregistered","inputs":[{"name":"name","type":"string","indexed":true,"internalType":"string"}],"anonymous":false},{"type":"event","name":"InvestorClassificationUpdated","inputs":[{"name":"investor","type":"address","indexed":true,"internalType":"address"},{"name":"classificationId","type":"bytes32","indexed":true,"internalType":"bytes32"},{"name":"newCount","type":"uint256","indexed":false,"internalType":"uint256"}],"anonymous":false},{"type":"error","name":"AccessControl_CallerIsNotAuthorized","inputs":[{"name":"caller","type":"address","internalType":"address"},{"name":"functionSig","type":"bytes4","internalType":"bytes4"}]},{"type":"error","name":"Compliance_AlreadyInitialized","inputs":[]},{"type":"error","name":"Compliance_CheckFailed","inputs":[{"name":"moduleName","type":"string","internalType":"string"},{"name":"reason","type":"string","internalType":"string"}]},{"type":"error","name":"Compliance_InvalidModuleAddress","inputs":[]},{"type":"error","name":"Compliance_ModuleAlreadyRegistered","inputs":[{"name":"name","type":"string","internalType":"string"}]},{"type":"error","name":"Compliance_ModuleNotFound","inputs":[{"name":"name","type":"string","internalType":"string"}]},{"type":"error","name":"Compliance_NotInitialized","inputs":[]}],"bytecode":{"object":"0x60808060405234601557611e24908161001a8239f35b5f80fdfe60806040526004361015610011575f80fd5b5f3560e01c806303ab62b91461015f578063087efee91461011e57806317db9b871461015a57806320c6809e14610155578063216c926114610150578063270723ae1461014b5780632eeedc1b146101465780633e62267c146101415780634e3ea33b1461013c5780635d18a500146101375780637f6295091461013257806380e4ff1f1461012d5780638948573f1461012857806389c643fd1461012357806399221b601461011e578063b0e7ab8a14610119578063d33fdf4f14610114578063dafa99551461010f578063e769a5361461010a578063f0731289146101055763f45b07ce14610100575f80fd5b611008565b610fd9565b610e7c565b610d58565b610cd0565b610c6b565b610371565b610bfe565b610b8e565b610a6a565b610a17565b6109bc565b61098e565b610859565b610812565b61073b565b6106f2565b610586565b61041b565b6101a8565b600435906001600160a01b038216820361017a57565b5f80fd5b602435906001600160a01b038216820361017a57565b35906001600160a01b038216820361017a57565b3461017a57604036600319011261017a576101c1610164565b602435905f356001600160e01b0319166101db8133611878565b1561033157505f8281527f0fa078836d60d6f1a26f9c39e4aa04fc112fb285ab1bb896760cc332f16a2bfc602090815260408083206001600160a01b038516845290915290205460ff161561022c57005b5f8281527f0fa078836d60d6f1a26f9c39e4aa04fc112fb285ab1bb896760cc332f16a2bfc602090815260408083206001600160a01b0385168452909152902061027d90805460ff19166001179055565b6102ae825f527f0fa078836d60d6f1a26f9c39e4aa04fc112fb285ab1bb896760cc332f16a2bfd60205260405f2090565b6102b88154611157565b90557f266a029349c835ba46da7845a69c14b21f4919fcf824cd24f837f2d919944c1061032c61030f845f527f0fa078836d60d6f1a26f9c39e4aa04fc112fb285ab1bb896760cc332f16a2bfd60205260405f2090565b546040519081526001600160a01b03909316929081906020820190565b0390a3005b631d64bc3360e11b5f523360045260245260445ffd5b606090600319011261017a576004356001600160a01b038116810361017a57906024359060443590565b3461017a5761037f36610347565b005b5f91031261017a57565b805180835260209291819084018484015e5f828201840152601f01601f1916010190565b9080602083519182815201916020808360051b8301019401925f915b8383106103da57505050505090565b90919293946020806103f8600193601f19868203018752895161038b565b970193019301919392906103cb565b9060206104189281815201906103af565b90565b3461017a575f36600319011261017a575f516020611dcf5f395f51905f52546104438161116a565b905f5b81811061045f576040518061045b8582610407565b0390f35b8061046b6001926111c7565b90549060031b1c5f525f516020611daf5f395f51905f5260205261049160405f2061125d565b61049b8286611211565b526104a68185611211565b5001610446565b634e487b7160e01b5f52604160045260245ffd5b90601f8019910116810190811067ffffffffffffffff8211176104e357604052565b6104ad565b604051906104f76080836104c1565b565b67ffffffffffffffff81116104e357601f01601f191660200190565b81601f8201121561017a5780359061052c826104f9565b9261053a60405194856104c1565b8284526020838301011161017a57815f926020809301838601378301015290565b602060031982011261017a576004359067ffffffffffffffff821161017a5761041891600401610515565b3461017a576105943661055b565b5f356001600160e01b0319166105aa8133611878565b1561033157506105cf6105cb5f516020611d8f5f395f51905f525460ff1690565b1590565b6106e35780516020820120906001600160a01b036105ff60016105f185611129565b01546001600160a01b031690565b16156106c2575f5b5f516020611dcf5f395f51905f5254808210156106b1578361063561062b846111c7565b90549060031b1c90565b146106435750600101610607565b61068b936106746106869361066e61066861062b610663610681976112fb565b6111c7565b916111c7565b90611309565b61067c611326565b611129565b6113bd565b61142f565b7f79d37148e93a01552e5d3282e26c42fea03895035c2690fef2fa3d803b7b60835f80a2005b505061068661068161068b93611129565b604051631e3baa7160e21b81529081906106df9060048301610848565b0390fd5b630f17ec8f60e21b5f5260045ffd5b3461017a57602036600319011261017a576004355f527f0fa078836d60d6f1a26f9c39e4aa04fc112fb285ab1bb896760cc332f16a2bfd602052602060405f2054604051908152f35b3461017a575f36600319011261017a57602060ff5f516020611d8f5f395f51905f525460081c166040519015158152f35b67ffffffffffffffff81116104e35760051b60200190565b606060031982011261017a5761079a6004610194565b91602435916044359067ffffffffffffffff821161017a578060238301121561017a5781600401356107cb8161076c565b926107d960405194856104c1565b8184526024602085019260051b82010192831161017a57602401905b8282106108025750505090565b81358152602091820191016107f5565b3461017a5761082961082336610784565b91611529565b9061045b6040519283921515835260406020840152604083019061038b565b90602061041892818152019061038b565b3461017a575f36600319011261017a57604051637a2d83e760e11b602082015261045b9063d33fdf4f60e01b602482015263138391d760e11b6028820152632eeedc1b60e01b602c8201526304c910db60e51b603082015263087efee960e01b6034820152637f62950960e01b603882015263f073128960e01b603c82015263216c926160e01b604082015263dafa995560e01b6044820152625d18a560e81b60488201526317db9b8760e01b604c820152634e3ea33b60e01b60508201526389c643fd60e01b60548201526373b4d29b60e11b6058820152635873d5c560e11b605c820152638948573f60e01b60608201526380e4ff1f60e01b6064820152631063404f60e11b60688201526303ab62b960e01b606c820152605081526109826070826104c1565b60405191829182610848565b3461017a575f36600319011261017a57602060ff5f516020611d8f5f395f51905f5254166040519015158152f35b3461017a576109ca3661055b565b602081519101205f525f516020611daf5f395f51905f52602052606060405f206002600182015491015460ff6040519260018060a01b038116845260a01c16151560208301526040820152f35b3461017a57610a2536610347565b509060ff5f516020611d8f5f395f51905f525416156106e35761037f9160405191610a516020846104c1565b5f8084523660208501376118f5565b8015150361017a57565b3461017a57604036600319011261017a5760043567ffffffffffffffff811161017a57610a9b903690600401610515565b60243590610aa882610a60565b5f356001600160e01b031916610abe8133611878565b156103315750610adf6105cb5f516020611d8f5f395f51905f525460ff1690565b6106e357805160208201206001600160a01b03610b0060016105f184611129565b1615610b7357610b5b7f2ccabfa52252a0ae8373bb5795e47c048569815241345a11a7996ddd9ed8216192610686856001610b3d610b6e96611129565b01805460ff60a01b191691151560a01b60ff60a01b16919091179055565b6040519315158452929081906020820190565b0390a2005b604051631e3baa7160e21b8152806106df8460048301610848565b3461017a57602036600319011261017a57600435610bab81610a60565b5f356001600160e01b031916610bc18133611878565b15610331577f704e3415911c12cc5ce3d8bd4ea734079824afd52d3ad538bc696fd13c9121e8602083610bf381611605565b6040519015158152a1005b3461017a57604036600319011261017a57602060ff610c5f610c1e610164565b6024355f527f0fa078836d60d6f1a26f9c39e4aa04fc112fb285ab1bb896760cc332f16a2bfc845260405f209060018060a01b03165f5260205260405f2090565b54166040519015158152f35b3461017a57602036600319011261017a57600435610c8881610a60565b5f356001600160e01b031916610c9e8133611878565b15610331577f73cd1be93d1be8ea9c017743db8c7680b4b60576ffcdad78ca562ed5e9636d39602083610bf381611636565b3461017a575f36600319011261017a57602060ff5f516020611d8f5f395f51905f525460101c166040519015158152f35b90610d14906040835260408301906103af565b906020818303910152602080835192838152019201905f5b818110610d395750505090565b82516001600160a01b0316845260209384019390920191600101610d2c565b3461017a575f36600319011261017a575f516020611dcf5f395f51905f52545f5f5b828110610e3c5750610d94610d8e8261116a565b91611669565b915f5f5b828110610db15750505061045b60405192839283610d01565b610dc061067c61062b836111c7565b60018101549060a082901c60ff16610ddd575b5050600101610d98565b92610e2f610e16610e3493610df46001969761125d565b610dfe858b611211565b52610e09848a611211565b506001600160a01b031690565b610e20838a611211565b6001600160a01b039091169052565b611157565b91905f610dd3565b610e5b6001610e5061067c61062b856111c7565b015460a01c60ff1690565b610e68575b600101610d7a565b90610e74600191611157565b919050610e60565b3461017a57606036600319011261017a5760043567ffffffffffffffff811161017a57610ead903690600401610515565b610eb561017e565b90604435905f356001600160e01b031916610ed08133611878565b156103315750610ef16105cb5f516020611d8f5f395f51905f525460ff1690565b6106e3576001600160a01b038316928315610fca578151602083012090610f2b610f1f60016105f185611129565b6001600160a01b031690565b610faf577f1322c41c5a9eead8cd522b002dd028a85de90a4f18bc94a2785fa28792dda8209261068661032c93610f99610f9e94610f7f610f6a6104e8565b8681526001600160a01b039092166020830152565b5f6040820152886060820152610f9483611129565b6116de565b6117fa565b604051938452929081906020820190565b604051630d5371ad60e21b8152806106df8560048301610848565b638df65b2760e01b5f5260045ffd5b3461017a57610fe736610784565b9060ff5f516020611d8f5f395f51905f525416156106e35761037f926118f5565b3461017a57604036600319011261017a5760043561102581610a60565b60243561103181610a60565b5f516020611d8f5f395f51905f52549060ff821661111a577f704e3415911c12cc5ce3d8bd4ea734079824afd52d3ad538bc696fd13c9121e86111007f73cd1be93d1be8ea9c017743db8c7680b4b60576ffcdad78ca562ed5e9636d399460016111159560ff1916175f516020611d8f5f395f51905f52556110b281611605565b6110bb84611636565b7faba38fa6bbb53d63f5f74234babe6cb32052695709f0d18503b9c7879d458e5b6040805183151581528615156020820152a160405190151581529081906020820190565b0390a160405190151581529081906020820190565b0390a1005b63435d465760e11b5f5260045ffd5b5f525f516020611daf5f395f51905f5260205260405f2090565b634e487b7160e01b5f52601160045260245ffd5b5f1981146111655760010190565b611143565b906111748261076c565b61118160405191826104c1565b8281528092611192601f199161076c565b01905f5b8281106111a257505050565b806060602080938501015201611196565b634e487b7160e01b5f52603260045260245ffd5b5f516020611dcf5f395f51905f52548110156111f7575f516020611dcf5f395f51905f525f5260205f2001905f90565b6111b3565b80548210156111f7575f5260205f2001905f90565b80518210156111f75760209160051b010190565b90600182811c92168015611253575b602083101461123f57565b634e487b7160e01b5f52602260045260245ffd5b91607f1691611234565b9060405191825f82549261127084611225565b80845293600181169081156112d95750600114611295575b506104f7925003836104c1565b90505f9291925260205f20905f915b8183106112bd5750509060206104f7928201015f611288565b60209193508060019154838589010152019101909184926112a4565b9050602092506104f794915060ff191682840152151560051b8201015f611288565b5f1981019190821161116557565b916113229183549060031b91821b915f19901b19161790565b9055565b5f516020611dcf5f395f51905f52548015611393575f198101905f516020611dcf5f395f51905f52548210156111f7575f516020611dcf5f395f51905f525f8181527fd07ab8150a03a1b788d1baf2d0897ca547eb89d615bc6427574ef5d4c7dfc18d9092019190915555565b634e487b7160e01b5f52603160045260245ffd5b8181106113b2575050565b5f81556001016113a7565b60025f916113cb8154611225565b806113dc575b508260018201550155565b601f81116001146113f257508281555b5f6113d1565b8184526020842061140e91601f0160051c8101906001016113a7565b808352826020812080548260011b9083198460031b1c1916178355556113ec565b602090604051918183925191829101835e81015f815203902090565b6040519061145a6020836104c1565b5f8252565b5f9060033d1161146b57565b905060045f803e5f5160e01c90565b5f60443d10610418576040513d600319016004823e8051913d602484011167ffffffffffffffff8411176114e8578282019283519167ffffffffffffffff83116114e0573d840160031901858401602001116114e05750610418929101602001906104c1565b949350505050565b92915050565b604051906114fd6040836104c1565b601882527f556e6b6e6f776e20636f6d706c69616e6365206572726f7200000000000000006020830152565b60609291303b1561017a579291906020608060405195869563f073128960e01b875260048701918183019560018060a01b031683528483015260408201528451809452019201905f5b8181106115ec575050509080825f93500381305afa90816115d2575b506115c75761159b61145f565b6308c379a0146115b0575b5f906104186114ee565b6115b861147a565b806115c357506115a6565b5f91565b60019061041861144b565b806115e05f6115e6936104c1565b80610381565b5f61158e565b8251845285945060209384019390920191600101611572565b61ff005f516020611d8f5f395f51905f525491151560081b169061ff001916175f516020611d8f5f395f51905f5255565b62ff00005f516020611d8f5f395f51905f525491151560101b169062ff00001916175f516020611d8f5f395f51905f5255565b906116738261076c565b61168060405191826104c1565b8281528092611691601f199161076c565b0190602036910137565b9190601f81116116aa57505050565b6104f7925f5260205f20906020601f840160051c830193106116d4575b601f0160051c01906113a7565b90915081906116c7565b90805180519067ffffffffffffffff82116104e357611707826117018654611225565b8661169b565b602090601f831160011461178b57826060936002959361173c935f92611780575b50508160011b915f199060031b1c19161790565b84555b602081015160018501805460408401516001600160a01b039093166001600160a81b03199091161791151560a01b60ff60a01b169190911790550151910155565b015190505f80611728565b90601f1983169161179f865f5260205f2090565b925f5b8181106117e2575092600192859260609660029896106117ca575b505050811b01845561173f565b01515f1960f88460031b161c191690555f80806117bd565b929360206001819287860151815501950193016117a2565b5f516020611dcf5f395f51905f5254680100000000000000008110156104e357600181015f516020611dcf5f395f51905f52555f516020611dcf5f395f51905f52548110156111f7575f516020611dcf5f395f51905f525f527fd07ab8150a03a1b788d1baf2d0897ca547eb89d615bc6427574ef5d4c7dfc18e0155565b8161188291611afc565b6118c0577f511915e52b7f9e690b9fdc662acaf5600fd3722c87eb951d3abd26e93a784dca5c9060ff82166118b75750505f90565b61041891611cdb565b50600190565b3d156118f0573d906118d7826104f9565b916118e560405193846104c1565b82523d5f602084013e565b606090565b905f516020611dcf5f395f51905f5254918215611aca575f5b83811061191c575050505050565b61195461193961062b835f516020611dcf5f395f51905f526111fc565b5f516020611daf5f395f51905f52905f5260205260405f2090565b60018101549060ff60a083901c1615611ac0575f606092885180155f14611a0657505f9081906001600160a01b0316604051630d6fa34b60e21b602082019081526001600160a01b038a166024830152604482018b90525f6064830152906119c981608481015b03601f1981018352826104c1565b51915afa6119d56118c6565b90156119ff57505060015b156119f15750506001905b0161190e565b6119fa9061125d565b611d33565b92506119e0565b5f916001600160a01b0316905b808310611a23575b5050506119e0565b909194878b611a328882611211565b5115611ab5575f91611a45898493611211565b51604051630d6fa34b60e21b602082019081526001600160a01b039093166024820152604481018e90526064810191909152611a8481608481016119bb565b5190865afa90611a926118c6565b91611aa55750600190955b019190611a13565b95505050505060015f8080611a1b565b505094600190611a9d565b50506001906119eb565b50505050565b919082604091031261017a5760208251611ae981610a60565b92015163ffffffff8116810361017a5790565b7fce1c17acaaa67de66e928cd49c8f658667a825223bee6fda99a14908362bcdac546001600160a01b031680611c3b575b506001600160a01b0381165f9081527fce1c17acaaa67de66e928cd49c8f658667a825223bee6fda99a14908362bcdaa60205260409020611ba090549263ffffffff60e01b165f527fce1c17acaaa67de66e928cd49c8f658667a825223bee6fda99a14908362bcdab60205260405f2090565b54908115611bf7576001600160a01b03165f9081527fce1c17acaaa67de66e928cd49c8f658667a825223bee6fda99a14908362bcdaa60205260409020546001161515918215611bef57505090565b161515919050565b6001600160a01b03165f9081527fce1c17acaaa67de66e928cd49c8f658667a825223bee6fda99a14908362bcdaa6020526040902054600116151591506104189050565b611c4d906001600160a01b0316610f1f565b6040805163b700961360e01b81526001600160a01b03841660048201523060248201526001600160e01b03198516604482015291829060649082905afa5f9181611ca9575b5015611b2d57611ca2575f611b2d565b5050600190565b611ccc91925060403d604011611cd4575b611cc481836104c1565b810190611ad0565b50905f611c92565b503d611cba565b60ff16908115611ca2576001600160e01b0319165f9081527fce1c17acaaa67de66e928cd49c8f658667a825223bee6fda99a14908362bcdab6020526040902054908115611d2d576001901b16151590565b50505f90565b9080519081611d89576040805163b4b3687b60e01b81526004810182905290611d5f604483018661038b565b6b10da1958dac819985a5b195960a21b60208483039260031984016024870152600c815201520190fd5b602001fdfe0fa078836d60d6f1a26f9c39e4aa04fc112fb285ab1bb896760cc332f16a2bfb0fa078836d60d6f1a26f9c39e4aa04fc112fb285ab1bb896760cc332f16a2bf90fa078836d60d6f1a26f9c39e4aa04fc112fb285ab1bb896760cc332f16a2bfaa2646970667358221220c3868c4b1712c34dbd608703d473f65cc03c1e5546f7b898fe05994c859199a164736f6c634300081e0033","linkReferences":{}},"methodIdentifiers":{"Compliance_init(bool,bool)":"f45b07ce","allowsGeneralSolicitation()":"d33fdf4f","allowsSelfCertification()":"270723ae","checkComplianceWithAttestations(address,uint256,bytes32[])":"2eeedc1b","executeAfterCountersignCompliance(address,uint256,uint256)":"99221b60","executeAfterInvestmentCompliance(address,uint256,uint256)":"087efee9","executeBeforeCountersignCompliance(address,uint256,uint256)":"7f629509","executeBeforeInvestmentComplianceWithAttestations(address,uint256,bytes32[])":"f0731289","getClassificationCount(bytes32)":"216c9261","getEnabledModules()":"dafa9955","getModuleInfo(string)":"5d18a500","getRegisteredModules()":"17db9b87","isComplianceInitialized()":"4e3ea33b","isInvestorClassified(address,bytes32)":"89c643fd","packedSelectors()":"3e62267c","registerComplianceModule(string,address,uint256)":"e769a536","setAllowsGeneralSolicitation(bool)":"b0e7ab8a","setAllowsSelfCertification(bool)":"8948573f","setModuleEnabled(string,bool)":"80e4ff1f","unregisterComplianceModule(string)":"20c6809e","updateInvestorClassification(address,bytes32)":"03ab62b9"},"id":173}