{"abi":[{"type":"function","name":"clearPreApprovedTermsForInvestor","inputs":[{"name":"investor","type":"address","internalType":"address"}],"outputs":[],"stateMutability":"nonpayable"},{"type":"function","name":"createCustomTermsInvestment","inputs":[{"name":"investor","type":"address","internalType":"address"},{"name":"amount","type":"uint256","internalType":"uint256"},{"name":"subscriptionAgreementId","type":"bytes32","internalType":"bytes32"},{"name":"encodedCustomTerms","type":"bytes","internalType":"bytes"},{"name":"paymentReceived","type":"bool","internalType":"bool"}],"outputs":[{"name":"investmentId","type":"uint256","internalType":"uint256"}],"stateMutability":"nonpayable"},{"type":"function","name":"getCustomTermsForInvestment","inputs":[{"name":"investmentId","type":"uint256","internalType":"uint256"}],"outputs":[{"name":"encodedTerms","type":"bytes","internalType":"bytes"}],"stateMutability":"view"},{"type":"function","name":"getPreApprovedTermsForInvestor","inputs":[{"name":"investor","type":"address","internalType":"address"}],"outputs":[{"name":"encodedTerms","type":"bytes","internalType":"bytes"}],"stateMutability":"view"},{"type":"function","name":"hasCustomTermsForInvestment","inputs":[{"name":"investmentId","type":"uint256","internalType":"uint256"}],"outputs":[{"name":"hasTerms","type":"bool","internalType":"bool"}],"stateMutability":"view"},{"type":"function","name":"hasPreApprovedTermsForInvestor","inputs":[{"name":"investor","type":"address","internalType":"address"}],"outputs":[{"name":"hasTerms","type":"bool","internalType":"bool"}],"stateMutability":"view"},{"type":"function","name":"packedSelectors","inputs":[],"outputs":[{"name":"","type":"bytes","internalType":"bytes"}],"stateMutability":"pure"},{"type":"function","name":"setCustomTermsForInvestment","inputs":[{"name":"investmentId","type":"uint256","internalType":"uint256"},{"name":"encodedTerms","type":"bytes","internalType":"bytes"}],"outputs":[],"stateMutability":"nonpayable"},{"type":"function","name":"setPreApprovedTermsForInvestor","inputs":[{"name":"investor","type":"address","internalType":"address"},{"name":"encodedTerms","type":"bytes","internalType":"bytes"}],"outputs":[],"stateMutability":"nonpayable"},{"type":"event","name":"CustomInvestmentCreated","inputs":[{"name":"investmentId","type":"uint256","indexed":true,"internalType":"uint256"},{"name":"investor","type":"address","indexed":true,"internalType":"address"},{"name":"amount","type":"uint256","indexed":false,"internalType":"uint256"}],"anonymous":false},{"type":"event","name":"CustomTermsSet","inputs":[{"name":"investmentId","type":"uint256","indexed":true,"internalType":"uint256"},{"name":"investor","type":"address","indexed":true,"internalType":"address"},{"name":"termsData","type":"bytes","indexed":false,"internalType":"bytes"}],"anonymous":false},{"type":"error","name":"AccessControl_CallerIsNotAuthorized","inputs":[{"name":"caller","type":"address","internalType":"address"},{"name":"functionSig","type":"bytes4","internalType":"bytes4"}]},{"type":"error","name":"OfferingTerms_InvalidInvestment","inputs":[]},{"type":"error","name":"OfferingTerms_NoCustomTerms","inputs":[]}],"bytecode":{"object":"0x60808060405234601557611329908161001a8239f35b5f80fdfe60806040526004361015610011575f80fd5b5f358060e01c806304538fb7146107ea578063208674cb146107125780633df7b1b6146106e15780633e62267c1461065157806355a26bbf1461055d5780635f293b7c146103a6578063706780ce1461036b578063c0fc0d43146102ac5763e44437eb1461007d575f80fd5b346102a85760403660031901126102a85760043560243567ffffffffffffffff81116102a8576100b1903690600401610ec0565b91909263ffffffff60e01b166100c7813361102d565b156102925750805f527f0fa078836d60d6f1a26f9c39e4aa04fc112fb285ab1bb896760cc332f16a2be560205260018060a01b0360405f20541691815f527f7471b02febe7c12ca5b437e9cd24ad91356552d272c7ba043c2a49e6e8c029ec60205260405f209367ffffffffffffffff821161027e576101478554610f48565b601f8111610243575b505f94601f83116001146101d35761018e83805f5160206112b45f395f51905f529697985f916101c8575b508160011b915f199060031b1c19161790565b90555b835f525f5160206112d45f395f51905f5260205260405f20600160ff198254161790556101c360405192839283611006565b0390a3005b90508401355f61017b565b601f19831695815f5260205f20905f5b88811061022b5750845f5160206112b45f395f51905f5296979810610212575b5050600183811b019055610191565b8301355f19600386901b60f8161c191690555f80610203565b909160206001819285880135815501930191016101e3565b61026e90865f5260205f20601f850160051c81019160208610610274575b601f0160051c0190610f80565b5f610150565b9091508190610261565b634e487b7160e01b5f52604160045260245ffd5b631d64bc3360e11b5f523360045260245260445ffd5b5f80fd5b50346102a85760203660031901126102a8576102c6610eaa565b6001600160e01b0319909116906102dd823361102d565b1561035457806102ef61030792610fce565b6102f98154610f48565b9081610311575b5050610f96565b805460ff19169055005b81601f5f93116001146103285750555b8280610300565b8183526020832061034491601f0160051c810190600101610f80565b8082528160208120915555610321565b50631d64bc3360e11b5f523360045260245260445ffd5b346102a85760203660031901126102a8576004355f525f5160206112d45f395f51905f52602052602060ff60405f2054166040519015158152f35b50346102a85760403660031901126102a8576103c0610eaa565b9060243567ffffffffffffffff81116102a8576103e1903690600401610ec0565b916001600160e01b0319166103f6813361102d565b1561029257506001600160a01b03831692831561054e5761041681610fce565b67ffffffffffffffff841161027e5761042f8154610f48565b601f811161051e575b505f601f85116001146104a65784925f5160206112b45f395f51905f52949261047a855f98610481958a9161049b57508160011b915f199060031b1c19161790565b9055610f96565b600160ff198254161790556101c360405192839283611006565b90508601355f61017b565b601f19851690825f5260205f20915f5b818110610506575092610481928795925f985f5160206112b45f395f51905f529896106104ed575b5050600185811b019055610f96565b881960f88860031b161c19908601351690555f806104de565b9192602060018192868a0135815501940192016104b6565b61054890825f5260205f20601f870160051c8101916020881061027457601f0160051c0190610f80565b5f610438565b630cfc1ba360e01b5f5260045ffd5b346102a85760203660031901126102a857610576610eaa565b60ff61058182610f96565b5416156106425761059190610fce565b604051905f908054906105a382610f48565b808552916001811690811561061b57506001146105db575b6105d7846105cb81860382610f18565b60405191829182610eee565b0390f35b5f90815260208120939250905b808210610601575090915081016020016105cb826105bb565b9192600181602092548385880101520191019092916105e8565b60ff191660208087019190915292151560051b850190920192506105cb91508390506105bb565b630827ae4f60e21b5f5260045ffd5b346102a8575f3660031901126102a8576040805163c0fc0d4360e01b6020808301919091526304538fb760e01b602483015263208674cb60e01b60288301526355a26bbf60e01b602c830152633833c06760e11b6030830152631efbd8db60e11b603483015263e44437eb60e01b60388301526317ca4edf60e21b603c83015281526105d7916105cb9082610f18565b346102a85760203660031901126102a857602060ff610706610701610eaa565b610f96565b54166040519015158152f35b346102a85760203660031901126102a857600435805f525f5160206112d45f395f51905f5260205260ff60405f20541615610642575f527f7471b02febe7c12ca5b437e9cd24ad91356552d272c7ba043c2a49e6e8c029ec60205260405f20604051905f9080549061078382610f48565b808552916001811690811561061b57506001146107aa576105d7846105cb81860382610f18565b5f90815260208120939250905b8082106107d0575090915081016020016105cb826105bb565b9192600181602092548385880101520191019092916107b7565b50346102a85760a03660031901126102a857610804610eaa565b6024359060643567ffffffffffffffff81116102a857610828903690600401610ec0565b9290916084359485151586036102a8576001600160e01b03191661084c813361102d565b156102925750811561054e577f0fa078836d60d6f1a26f9c39e4aa04fc112fb285ab1bb896760cc332f16a2bd85460405163313ce56760e01b815290602090829060049082906001600160a01b03165afa8015610e9f575f90610e62575b60ff915016604d8111610c7457600a0a928383029383850403610c74577f0fa078836d60d6f1a26f9c39e4aa04fc112fb285ab1bb896760cc332f16a2bdb54938415610e4e5784900494851561054e577f0fa078836d60d6f1a26f9c39e4aa04fc112fb285ab1bb896760cc332f16a2be6549561092687610f3a565b7f0fa078836d60d6f1a26f9c39e4aa04fc112fb285ab1bb896760cc332f16a2be6558715610e47576001905b60405191610120830183811067ffffffffffffffff82111761027e5760405260018060a01b03861697888452602084019088825260408501938452606085019081526080850142815260a08601916004851015610e33578c94835260c08701955f875260e088019460443586526101008901965f88525f527f0fa078836d60d6f1a26f9c39e4aa04fc112fb285ab1bb896760cc332f16a2be560205260405f209860018060a01b039051166bffffffffffffffffffffffff60a01b8a54161789555160018901555160028801555160038701555160048601556005850190516004811015610e335760079460ff61ff0084549251151560081b1692169061ffff19161717905551600684015551910155855f527f7471b02febe7c12ca5b437e9cd24ad91356552d272c7ba043c2a49e6e8c029ec60205260405f209167ffffffffffffffff821161027e57610aa78354610f48565b601f8111610e03575b505f90601f8311600114610d9f57610adf92915f9183610d94575b50508160011b915f199060031b1c19161790565b90555b5f8481525f5160206112d45f395f51905f5260209081526040808320805460ff191660011790556001600160a01b03841683527f0fa078836d60d6f1a26f9c39e4aa04fc112fb285ab1bb896760cc332f16a2be9909152902060ff90541615610c9c575b50815f527f0fa078836d60d6f1a26f9c39e4aa04fc112fb285ab1bb896760cc332f16a2be760205260405f208054600160401b81101561027e5760018101808355811015610c885784915f5260205f2001557f0fa078836d60d6f1a26f9c39e4aa04fc112fb285ab1bb896760cc332f16a2bdf5493818501809511610c7457602084927fa62afd8d8c9451f375dff71e2fe8ba8f0a997d172e9609164b0a7c2d52b70b659282977f0fa078836d60d6f1a26f9c39e4aa04fc112fb285ab1bb896760cc332f16a2bdf55610c23575b604051908152a3604051908152f35b610c4d7f0fa078836d60d6f1a26f9c39e4aa04fc112fb285ab1bb896760cc332f16a2be054610f3a565b7f0fa078836d60d6f1a26f9c39e4aa04fc112fb285ab1bb896760cc332f16a2be055610c14565b634e487b7160e01b5f52601160045260245ffd5b634e487b7160e01b5f52603260045260245ffd5b7f0fa078836d60d6f1a26f9c39e4aa04fc112fb285ab1bb896760cc332f16a2be85490600160401b82101561027e57600182017f0fa078836d60d6f1a26f9c39e4aa04fc112fb285ab1bb896760cc332f16a2be8557f0fa078836d60d6f1a26f9c39e4aa04fc112fb285ab1bb896760cc332f16a2be854821015610c88577fd4106935f03f1aed21dc4f0b60e4ab9fad8ed04c8f636d8e64379e2776a0b7f190910180546001600160a01b031916841790556001600160a01b03165f9081527f0fa078836d60d6f1a26f9c39e4aa04fc112fb285ab1bb896760cc332f16a2be960205260409020805460ff191660011790555f610b46565b013590505f80610acb565b601f19831691845f5260205f20925f5b818110610deb5750908460019594939210610dd2575b505050811b019055610ae2565b01355f19600384901b60f8161c191690555f8080610dc5565b91936020600181928787013581550195019201610daf565b610e2d90845f5260205f20601f850160051c8101916020861061027457601f0160051c0190610f80565b5f610ab0565b634e487b7160e01b5f52602160045260245ffd5b5f90610952565b634e487b7160e01b5f52601260045260245ffd5b506020813d602011610e97575b81610e7c60209383610f18565b810103126102a8575160ff811681036102a85760ff906108aa565b3d9150610e6f565b6040513d5f823e3d90fd5b600435906001600160a01b03821682036102a857565b9181601f840112156102a85782359167ffffffffffffffff83116102a857602083818601950101116102a857565b602060409281835280519182918282860152018484015e5f828201840152601f01601f1916010190565b90601f8019910116810190811067ffffffffffffffff82111761027e57604052565b5f198114610c745760010190565b90600182811c92168015610f76575b6020831014610f6257565b634e487b7160e01b5f52602260045260245ffd5b91607f1691610f57565b818110610f8b575050565b5f8155600101610f80565b6001600160a01b03165f9081527f7471b02febe7c12ca5b437e9cd24ad91356552d272c7ba043c2a49e6e8c029eb6020526040902090565b6001600160a01b03165f9081527f7471b02febe7c12ca5b437e9cd24ad91356552d272c7ba043c2a49e6e8c029ea6020526040902090565b90918060409360208452816020850152848401375f828201840152601f01601f1916010190565b816110379161107e565b611078577f511915e52b7f9e690b9fdc662acaf5600fd3722c87eb951d3abd26e93a784dca5c9060ff821661106c5750505f90565b6110759161125e565b90565b50600190565b7fce1c17acaaa67de66e928cd49c8f658667a825223bee6fda99a14908362bcdac546001600160a01b0316806111b3575b5060018060a01b0381165f527fce1c17acaaa67de66e928cd49c8f658667a825223bee6fda99a14908362bcdaa60205260405f20549163ffffffff60e01b165f527fce1c17acaaa67de66e928cd49c8f658667a825223bee6fda99a14908362bcdab60205260405f205490811561116f576001600160a01b03165f9081527fce1c17acaaa67de66e928cd49c8f658667a825223bee6fda99a14908362bcdaa6020526040902054600116151591821561116757505090565b161515919050565b6001600160a01b03165f9081527fce1c17acaaa67de66e928cd49c8f658667a825223bee6fda99a14908362bcdaa6020526040902054600116151591506110759050565b6040805163b700961360e01b81526001600160a01b03841660048201523060248201526001600160e01b03198516604482015291829060649082905afa5f918161120f575b50156110af57611208575f6110af565b5050600190565b9091506040813d604011611256575b8161122b60409383610f18565b810103126102a85780519081151582036102a8576020015163ffffffff8116036102a857905f6111f8565b3d915061121e565b60ff169081156112085763ffffffff60e01b165f527fce1c17acaaa67de66e928cd49c8f658667a825223bee6fda99a14908362bcdab60205260405f20549081156112ad576001901b16151590565b50505f9056fe0d8b6ba57828084c44b862d0b20ad0b5c23e1dac79c796afa887ee3b704631937471b02febe7c12ca5b437e9cd24ad91356552d272c7ba043c2a49e6e8c029eda2646970667358221220179abf9cc15c781aa810611e2621881853b92026d80e4a5c9803e9eed72be1c664736f6c634300081e0033","linkReferences":{}},"methodIdentifiers":{"clearPreApprovedTermsForInvestor(address)":"c0fc0d43","createCustomTermsInvestment(address,uint256,bytes32,bytes,bool)":"04538fb7","getCustomTermsForInvestment(uint256)":"208674cb","getPreApprovedTermsForInvestor(address)":"55a26bbf","hasCustomTermsForInvestment(uint256)":"706780ce","hasPreApprovedTermsForInvestor(address)":"3df7b1b6","packedSelectors()":"3e62267c","setCustomTermsForInvestment(uint256,bytes)":"e44437eb","setPreApprovedTermsForInvestor(address,bytes)":"5f293b7c"},"id":177}