{"abi":[{"type":"function","name":"OffchainInvestment_init","inputs":[],"outputs":[],"stateMutability":"nonpayable"},{"type":"function","name":"cancelOffchainInvestment","inputs":[{"name":"investmentId","type":"uint256","internalType":"uint256"}],"outputs":[],"stateMutability":"nonpayable"},{"type":"function","name":"confirmOffchainInvestment","inputs":[{"name":"investmentId","type":"uint256","internalType":"uint256"}],"outputs":[],"stateMutability":"nonpayable"},{"type":"function","name":"getInvestorOffchainInvestments","inputs":[{"name":"investor","type":"address","internalType":"address"}],"outputs":[{"name":"","type":"uint256[]","internalType":"uint256[]"}],"stateMutability":"view"},{"type":"function","name":"getNextOffchainInvestmentId","inputs":[],"outputs":[{"name":"","type":"uint256","internalType":"uint256"}],"stateMutability":"view"},{"type":"function","name":"getOffchainInvestment","inputs":[{"name":"investmentId","type":"uint256","internalType":"uint256"}],"outputs":[{"name":"","type":"tuple","internalType":"struct OfferingStorage.OffchainInvestment","components":[{"name":"investor","type":"address","internalType":"address"},{"name":"amount","type":"uint256","internalType":"uint256"},{"name":"tokenQuantity","type":"uint256","internalType":"uint256"},{"name":"timestamp","type":"uint256","internalType":"uint256"},{"name":"status","type":"uint8","internalType":"enum OfferingStorage.OffchainInvestmentStatus"},{"name":"paymentMethod","type":"string","internalType":"string"},{"name":"referenceId","type":"string","internalType":"string"},{"name":"attestationUID","type":"bytes32","internalType":"bytes32"},{"name":"subscriptionAgreementRef","type":"bytes32","internalType":"bytes32"},{"name":"confirmedAt","type":"uint256","internalType":"uint256"}]}],"stateMutability":"view"},{"type":"function","name":"getTotalOffchainConfirmed","inputs":[],"outputs":[{"name":"","type":"uint256","internalType":"uint256"}],"stateMutability":"view"},{"type":"function","name":"getTotalOffchainPending","inputs":[],"outputs":[{"name":"","type":"uint256","internalType":"uint256"}],"stateMutability":"view"},{"type":"function","name":"isOffchainInvestmentInitialized","inputs":[],"outputs":[{"name":"","type":"bool","internalType":"bool"}],"stateMutability":"view"},{"type":"function","name":"recordOffchainInvestment","inputs":[{"name":"investor","type":"address","internalType":"address"},{"name":"amount","type":"uint256","internalType":"uint256"},{"name":"tokenQuantity","type":"uint256","internalType":"uint256"},{"name":"paymentMethod","type":"string","internalType":"string"},{"name":"referenceId","type":"string","internalType":"string"},{"name":"attestationUID","type":"bytes32","internalType":"bytes32"},{"name":"subscriptionAgreementRef","type":"bytes32","internalType":"bytes32"}],"outputs":[{"name":"investmentId","type":"uint256","internalType":"uint256"}],"stateMutability":"nonpayable"},{"type":"event","name":"OffchainInvestmentCancelled","inputs":[{"name":"investmentId","type":"uint256","indexed":true,"internalType":"uint256"},{"name":"cancelledBy","type":"address","indexed":true,"internalType":"address"}],"anonymous":false},{"type":"event","name":"OffchainInvestmentConfirmed","inputs":[{"name":"investmentId","type":"uint256","indexed":true,"internalType":"uint256"},{"name":"confirmedBy","type":"address","indexed":true,"internalType":"address"}],"anonymous":false},{"type":"event","name":"OffchainInvestmentInitialized","inputs":[],"anonymous":false},{"type":"event","name":"OffchainInvestmentRecorded","inputs":[{"name":"investmentId","type":"uint256","indexed":true,"internalType":"uint256"},{"name":"investor","type":"address","indexed":true,"internalType":"address"},{"name":"amount","type":"uint256","indexed":false,"internalType":"uint256"},{"name":"tokenQuantity","type":"uint256","indexed":false,"internalType":"uint256"},{"name":"paymentMethod","type":"string","indexed":false,"internalType":"string"}],"anonymous":false},{"type":"error","name":"AccessControl_CallerIsNotAuthorized","inputs":[{"name":"caller","type":"address","internalType":"address"},{"name":"functionSig","type":"bytes4","internalType":"bytes4"}]},{"type":"error","name":"OffchainInvestment_AlreadyInitialized","inputs":[]},{"type":"error","name":"OffchainInvestment_InvalidAmount","inputs":[]},{"type":"error","name":"OffchainInvestment_InvalidInvestmentId","inputs":[]},{"type":"error","name":"OffchainInvestment_NotPending","inputs":[]}],"bytecode":{"object":"0x60808060405234601557610f19908161001a8239f35b5f80fdfe6080806040526004361015610012575f80fd5b5f358060e01c9182632328af7b14610baa575081634a87a6f114610ad85781634f16ebdb146109fd5781636b440cf0146108c957816397fc64f5146108a0578163a433c0211461037957508063b24c1315146101a3578063c77026121461017a578063f2339fde146100d15763f882ad201461008c575f80fd5b346100cd575f3660031901126100cd57602060ff7f53f955f4c4a9361ccb46aadc7047f8c04fa3701865bfe8009fc4a965d8bec49154166040519015158152f35b5f80fd5b346100cd575f3660031901126100cd577f53f955f4c4a9361ccb46aadc7047f8c04fa3701865bfe8009fc4a965d8bec4915460ff811661016b5760ff191660019081177f53f955f4c4a9361ccb46aadc7047f8c04fa3701865bfe8009fc4a965d8bec491555f516020610ea45f395f51905f52557f9fdd005c0fefd275b45475c3bd7126e1c92e881833470153d78c8512a377663c5f80a1005b6303babb6d60e51b5f5260045ffd5b346100cd575f3660031901126100cd5760205f516020610e845f395f51905f5254604051908152f35b346100cd5760203660031901126100cd576004355f6101206040516101c781610c58565b828152826020820152826040820152826060820152826080820152606060a0820152606060c08201528260e08201528261010082015201525f516020610ea45f395f51905f525481101561036a575f525f516020610ec45f395f51905f5260205260405f206040519061023982610c58565b60018060a01b038154168252600181015460208301908152600282015490604084019182526003830154926060850193845260ff6004820154166080860190600381101561035657815261028f60058301610d22565b9060a087019182526102a360068401610d22565b9560c0880196875260078401549560e0890196875260096008860154956101008b019687520154956101208a019687526040519960208b5260018060a01b0390511660208b01525160408a0152516060890152516080880152519460038610156103565761032961033c92889760a08901525161014060c0890152610160880190610c27565b9051868203601f190160e0880152610c27565b925161010085015251610120840152516101408301520390f35b634e487b7160e01b5f52602160045260245ffd5b638681969d60e01b5f5260045ffd5b346100cd5760e03660031901126100cd57610392610be3565b604435919060243560643567ffffffffffffffff81116100cd576103ba903690600401610bf9565b9460843567ffffffffffffffff81116100cd576103db903690600401610bf9565b94909563ffffffff60e01b166103f18133610dc2565b1561088a5750831561087b575f516020610ea45f395f51905f5254955f19871461086757600187015f516020610ea45f395f51905f5255866040519161043683610c58565b60018060a01b03841697888452602084019188835260408501918783528c61048160608801934285526104728c60808b01945f86523691610ca4565b9360a08a019485523691610ca4565b9260c0880193845260e088019460a435865261010089019660c43588526101208a01985f8a525f525f516020610ec45f395f51905f5260205260405f209960018060a01b039051166bffffffffffffffffffffffff60a01b8b5416178a555160018a015551600289015551600388015560048701905160038110156103565760ff8019835416911617905560058601905180519067ffffffffffffffff82116106d75781906105308454610cea565b601f8111610817575b50602090601f83116001146107b4575f926107a9575b50508160011b915f199060031b1c19161790555b518051600686019167ffffffffffffffff82116106d7576105848354610cea565b601f8111610764575b50602090601f83116001146106f6579180600996949261060e9a999896945f926106eb575b50508160011b915f199060031b1c19161790555b516007850155516008840155519101556001600160a01b03165f9081527f53f955f4c4a9361ccb46aadc7047f8c04fa3701865bfe8009fc4a965d8bec4946020526040902090565b805493680100000000000000008510156106d757600185018083558510156106c357876020987f7c623ac611d6631c2c59d05141a0907874df40d70afb9e2c1620827af47dbf32958980986080965f528c5f20015561067b845f516020610e845f395f51905f5254610c97565b5f516020610e845f395f51905f525560405195869485528b85015260606040850152816060850152848401375f828201840152601f01601f19168101030190a3604051908152f35b634e487b7160e01b5f52603260045260245ffd5b634e487b7160e01b5f52604160045260245ffd5b015190505f806105b2565b90601f19831691845f52815f20925f5b81811061074c575092600192859261060e9c9b9a989660099a989610610734575b505050811b0190556105c6565b01515f1960f88460031b161c191690555f8080610727565b92936020600181928786015181550195019301610706565b835f5260205f20601f840160051c8101916020851061079f575b601f0160051c01905b818110610794575061058d565b5f8155600101610787565b909150819061077e565b015190508f8061054f565b5f8581528281209350601f198516905b8181106107ff57509084600195949392106107e7575b505050811b019055610563565b01515f1960f88460031b161c191690558f80806107da565b929360206001819287860151815501950193016107c4565b909150835f5260205f20601f840160051c8101916020851061085d575b90601f859493920160051c01905b81811061084f5750610539565b5f8155849350600101610842565b9091508190610834565b634e487b7160e01b5f52601160045260245ffd5b633bd5bdfb60e01b5f5260045ffd5b631d64bc3360e11b5f523360045260245260445ffd5b346100cd575f3660031901126100cd5760205f516020610ea45f395f51905f5254604051908152f35b346100cd5760203660031901126100cd57600435906001600160e01b0319166108f28133610dc2565b1561088a57505f516020610ea45f395f51905f525481101561036a57805f525f516020610ec45f395f51905f5260205260405f206004810160ff8154166003811015610356576109ee576109a4916001918260ff198254161790554260098201550161096d81545f516020610e845f395f51905f5254610c4b565b5f516020610e845f395f51905f5255547f53f955f4c4a9361ccb46aadc7047f8c04fa3701865bfe8009fc4a965d8bec49554610c97565b7f53f955f4c4a9361ccb46aadc7047f8c04fa3701865bfe8009fc4a965d8bec4955533907f0d66a839b4231d44ad8fac60de8cba3f8b5004c3abeed67a2d02f0f55b318b5f5f80a3005b63d79b44e160e01b5f5260045ffd5b346100cd5760203660031901126100cd57610a51610a19610be3565b6001600160a01b03165f9081527f53f955f4c4a9361ccb46aadc7047f8c04fa3701865bfe8009fc4a965d8bec4946020526040902090565b604051806020835491828152019081935f5260205f20905f5b818110610ac25750505081610a80910382610c75565b604051918291602083019060208452518091526040830191905f5b818110610aa9575050500390f35b8251845285945060209384019390920191600101610a9b565b8254845260209093019260019283019201610a6a565b346100cd5760203660031901126100cd57600435906001600160e01b031916610b018133610dc2565b1561088a57505f516020610ea45f395f51905f525481101561036a57805f525f516020610ec45f395f51905f5260205260405f206004810160ff8154166003811015610356576109ee57805460ff19166002179055600101545f516020610e845f395f51905f5254610b739190610c4b565b5f516020610e845f395f51905f525533907f3e852a8a6ab520f601a6a4d6ae21e4352db40600c79d2d04ef2c3f4dc0a390f85f80a3005b346100cd575f3660031901126100cd576020907f53f955f4c4a9361ccb46aadc7047f8c04fa3701865bfe8009fc4a965d8bec495548152f35b600435906001600160a01b03821682036100cd57565b9181601f840112156100cd5782359167ffffffffffffffff83116100cd57602083818601950101116100cd57565b805180835260209291819084018484015e5f828201840152601f01601f1916010190565b9190820391821161086757565b610140810190811067ffffffffffffffff8211176106d757604052565b90601f8019910116810190811067ffffffffffffffff8211176106d757604052565b9190820180921161086757565b92919267ffffffffffffffff82116106d75760405191610cce601f8201601f191660200184610c75565b8294818452818301116100cd578281602093845f960137010152565b90600182811c92168015610d18575b6020831014610d0457565b634e487b7160e01b5f52602260045260245ffd5b91607f1691610cf9565b9060405191825f825492610d3584610cea565b8084529360018116908115610da05750600114610d5c575b50610d5a92500383610c75565b565b90505f9291925260205f20905f915b818310610d84575050906020610d5a928201015f610d4d565b6020919350806001915483858901015201910190918492610d6b565b905060209250610d5a94915060ff191682840152151560051b8201015f610d4d565b6001600160a01b03165f8181527f35edad4c931e57ec40cedc90b9e3e052832d1b49c07eb789b019aea9b39c91d960209081526040808320546001600160e01b031990951683527f35edad4c931e57ec40cedc90b9e3e052832d1b49c07eb789b019aea9b39c91da909152902054908115610e7b575f527f35edad4c931e57ec40cedc90b9e3e052832d1b49c07eb789b019aea9b39c91d9602052600160405f2054161591821592610e7357505090565b161515919050565b50505060019056fe53f955f4c4a9361ccb46aadc7047f8c04fa3701865bfe8009fc4a965d8bec49653f955f4c4a9361ccb46aadc7047f8c04fa3701865bfe8009fc4a965d8bec49253f955f4c4a9361ccb46aadc7047f8c04fa3701865bfe8009fc4a965d8bec493a2646970667358221220915aab49006b62e96aece15ac785504bce87436670a7cf60867f3c8aca280a8064736f6c634300081e0033","linkReferences":{}},"methodIdentifiers":{"OffchainInvestment_init()":"f2339fde","cancelOffchainInvestment(uint256)":"4a87a6f1","confirmOffchainInvestment(uint256)":"6b440cf0","getInvestorOffchainInvestments(address)":"4f16ebdb","getNextOffchainInvestmentId()":"97fc64f5","getOffchainInvestment(uint256)":"b24c1315","getTotalOffchainConfirmed()":"2328af7b","getTotalOffchainPending()":"c7702612","isOffchainInvestmentInitialized()":"f882ad20","recordOffchainInvestment(address,uint256,uint256,string,string,bytes32,bytes32)":"a433c021"},"id":71}