{"abi":[{"type":"function","name":"canSignRequiredDocument","inputs":[{"name":"signer","type":"address","internalType":"address"}],"outputs":[{"name":"eligible","type":"bool","internalType":"bool"}],"stateMutability":"view"},{"type":"function","name":"getRequiredDocumentInfo","inputs":[],"outputs":[{"name":"documentId","type":"bytes32","internalType":"bytes32"},{"name":"documentWallet","type":"address","internalType":"address"},{"name":"eligibility","type":"uint8","internalType":"enum IOfferingDocuments.SignerEligibility"}],"stateMutability":"view"},{"type":"function","name":"hasSignedDocument","inputs":[{"name":"investor","type":"address","internalType":"address"},{"name":"documentId","type":"bytes32","internalType":"bytes32"}],"outputs":[{"name":"hasSigned","type":"bool","internalType":"bool"},{"name":"signedAt","type":"uint256","internalType":"uint256"}],"stateMutability":"view"},{"type":"function","name":"hasSignedRequiredDocument","inputs":[{"name":"investor","type":"address","internalType":"address"}],"outputs":[{"name":"hasSigned","type":"bool","internalType":"bool"}],"stateMutability":"view"},{"type":"function","name":"setRequiredDocument","inputs":[{"name":"documentId","type":"bytes32","internalType":"bytes32"},{"name":"eligibility","type":"uint8","internalType":"enum IOfferingDocuments.SignerEligibility"},{"name":"customModule","type":"address","internalType":"address"}],"outputs":[],"stateMutability":"nonpayable"},{"type":"function","name":"signDocument","inputs":[{"name":"documentId","type":"bytes32","internalType":"bytes32"}],"outputs":[],"stateMutability":"nonpayable"},{"type":"event","name":"DocumentSigned","inputs":[{"name":"documentId","type":"bytes32","indexed":true,"internalType":"bytes32"},{"name":"signer","type":"address","indexed":true,"internalType":"address"},{"name":"timestamp","type":"uint256","indexed":false,"internalType":"uint256"}],"anonymous":false},{"type":"event","name":"RequiredDocumentSet","inputs":[{"name":"documentId","type":"bytes32","indexed":true,"internalType":"bytes32"},{"name":"documentWallet","type":"address","indexed":true,"internalType":"address"},{"name":"eligibility","type":"uint8","indexed":false,"internalType":"enum IOfferingDocuments.SignerEligibility"}],"anonymous":false},{"type":"error","name":"AccessControl_CallerIsNotAuthorized","inputs":[{"name":"caller","type":"address","internalType":"address"},{"name":"functionSig","type":"bytes4","internalType":"bytes4"}]},{"type":"error","name":"OfferingDocuments_DocumentNotFoundInWallet","inputs":[]},{"type":"error","name":"OfferingDocuments_InvalidWalletAddress","inputs":[]},{"type":"error","name":"OfferingDocuments_NoRequiredDocument","inputs":[]},{"type":"error","name":"OfferingDocuments_NotAuthorizedSigner","inputs":[]},{"type":"error","name":"OfferingDocuments_NotRequiredDocument","inputs":[]}],"bytecode":{"object":"0x60808060405234601557610aa1908161001a8239f35b5f80fdfe60806040526004361015610011575f80fd5b5f5f358060e01c80630837d3e51461040a578063166cba38146102fb578063289e04d7146102c55780633c713544146102a1578063996d0fc3146102705763e32b7e311461005d575f80fd5b3461026c57606036600319011261026c576004356024356004811015610268576044356001600160a01b0381169390849003610264576001600160e01b0319166100a78133610972565b1561024e57507f53f955f4c4a9361ccb46aadc7047f8c04fa3701865bfe8009fc4a965d8bec473546001600160a01b031692831561023f5760405163b10d6b4160e01b8152600481018490528581602481885afa869181610214575b506101175763c16780bb60e01b8652600486fd5b6001600160a01b031615610205575f516020610a2c5f395f51905f528390555f516020610a4c5f395f51905f52805460ff60a01b1986166001600160a81b03199091161760a084901b60ff60a01b161790557f4e9ed7f3d9651f6efc160f090c61555de6f7ce43f8c44f54f5232bb7033e72d591602091600382146101a9575b506101a5604051809261046e565ba380f35b6bffffffffffffffffffffffff60a01b7f53f955f4c4a9361ccb46aadc7047f8c04fa3701865bfe8009fc4a965d8bec48b5416177f53f955f4c4a9361ccb46aadc7047f8c04fa3701865bfe8009fc4a965d8bec48b555f610197565b63c16780bb60e01b8552600485fd5b6102319192503d8089833e61022981836104b4565b8101906106d9565b50505050915050905f610103565b637f6511d160e11b8552600485fd5b631d64bc3360e11b855233600452602452604484fd5b8480fd5b8380fd5b5080fd5b823461029e57602036600319011261029e57602061029461028f61048f565b6105e5565b6040519015158152f35b80fd5b823461029e57602036600319011261029e5760206102946102c061048f565b6105be565b823461029e57604036600319011261029e5760406102ed6102e461048f565b60243590610514565b825191151582526020820152f35b82346103d95760203660031901126103d9576004355f516020610a2c5f395f51905f525480156103fb5781036103ec5761033581336107dd565b156103dd575f516020610a4c5f395f51905f52546001600160a01b0316803b156103d9575f8091604460405180948193630e176f6960e21b83528760048401523360248401525af180156103ce576103b9575b50604051904282527fcb4765881b79e3f3e656357a384db0c5ebdbdad01ab9fbc82ea10f38b7730dbc60203393a380f35b6103c69192505f906104b4565b5f9082610388565b6040513d5f823e3d90fd5b5f80fd5b6385f8b9bd60e01b5f5260045ffd5b6320093bf560e11b5f5260045ffd5b631fc32dab60e11b5f5260045ffd5b346103d9575f3660031901126103d95760605f516020610a2c5f395f51905f525461046c5f516020610a4c5f395f51905f525461044c60ff8260a01c166104a5565b604080519485526001600160a01b0390921660208501529083019061046e565bf35b90600482101561047b5752565b634e487b7160e01b5f52602160045260245ffd5b600435906001600160a01b03821682036103d957565b60ff16600481101561047b5790565b90601f8019910116810190811067ffffffffffffffff8211176104d657604052565b634e487b7160e01b5f52604160045260245ffd5b519081151582036103d957565b91908260409103126103d957602061050e836104ea565b92015190565b5f516020610a4c5f395f51905f52546001600160a01b03169081156105b5576040805163beeb2a5760e01b81526001600160a01b039290921660048301526024820193909352929190839060449082905afa91825f915f94610582575b5061057e57505f91508190565b9190565b9093506105a7915060403d6040116105ae575b61059f81836104b4565b8101906104f7565b925f610571565b503d610595565b5050505f905f90565b5f516020610a2c5f395f51905f525480156105df576105dc916107dd565b90565b50505f90565b5f516020610a2c5f395f51905f52549081156105df575f516020610a4c5f395f51905f52546040805163beeb2a5760e01b81526001600160a01b03938416600482015260248101949094529183916044918391165afa5f918161064d575b506105dc57505f90565b61066791925060403d6040116105ae5761059f81836104b4565b50905f610643565b81601f820112156103d95780519067ffffffffffffffff82116104d657604051926106a4601f8401601f1916602001856104b4565b828452602083830101116103d957815f9260208093018386015e8301015290565b51906001600160a01b03821682036103d957565b9060e0828203126103d957815192602083015167ffffffffffffffff81116103d9578261070791850161066f565b92610714604082016106c5565b92606082015192608083015167ffffffffffffffff81116103d957830182601f820112156103d95780519067ffffffffffffffff82116104d6578160051b6040519261076360208301856104b4565b8352602080840191830101918583116103d957602001905b8282106107c5575050509260a081015167ffffffffffffffff81116103d957836107a691830161066f565b9260c082015167ffffffffffffffff81116103d9576105dc920161066f565b602080916107d2846106c5565b81520191019061077b565b5f516020610a4c5f395f51905f5254916107fc60ff8460a01c166104a5565b600481101561047b57806108aa575060405163b10d6b4160e01b81526004810191909152915f90839060249082906001600160a01b03165afa5f9281610887575b506108485750505f90565b5f5b825181101561088057600581901b8301602001516001600160a01b038381169116146108785760010161084a565b505050600190565b5050505f90565b61089c9193503d805f833e61022981836104b4565b50509350505050915f61083d565b91925050600281036108bd575050600190565b6003146108c957505f90565b7f53f955f4c4a9361ccb46aadc7047f8c04fa3701865bfe8009fc4a965d8bec48b546001600160a01b03169081156105df576040516366e305fd60e01b81526001600160a01b03909116600482015290602090829060249082905afa5f918161093657506105dc57505f90565b9091506020813d60201161096a575b81610952602093836104b4565b810103126103d957610963906104ea565b905f610643565b3d9150610945565b6001600160a01b03165f8181527f35edad4c931e57ec40cedc90b9e3e052832d1b49c07eb789b019aea9b39c91d960209081526040808320546001600160e01b031990951683527f35edad4c931e57ec40cedc90b9e3e052832d1b49c07eb789b019aea9b39c91da909152902054908115610878575f527f35edad4c931e57ec40cedc90b9e3e052832d1b49c07eb789b019aea9b39c91d9602052600160405f2054161591821592610a2357505090565b16151591905056fe53f955f4c4a9361ccb46aadc7047f8c04fa3701865bfe8009fc4a965d8bec48953f955f4c4a9361ccb46aadc7047f8c04fa3701865bfe8009fc4a965d8bec48aa2646970667358221220fd7d187ed282d7afdd61fe34950d3fde48e4448caaac050e46d876ff3094151864736f6c634300081e0033","linkReferences":{}},"methodIdentifiers":{"canSignRequiredDocument(address)":"3c713544","getRequiredDocumentInfo()":"0837d3e5","hasSignedDocument(address,bytes32)":"289e04d7","hasSignedRequiredDocument(address)":"996d0fc3","setRequiredDocument(bytes32,uint8,address)":"e32b7e31","signDocument(bytes32)":"166cba38"},"id":70}