{"abi":[{"type":"function","name":"OfferingFactoryCore_init","inputs":[{"name":"diamondFactory","type":"address","internalType":"address"},{"name":"admin","type":"address","internalType":"address"}],"outputs":[],"stateMutability":"nonpayable"},{"type":"function","name":"createOffering","inputs":[{"name":"config","type":"tuple","internalType":"struct IOfferingFactory.OfferingConfig","components":[{"name":"admin","type":"address","internalType":"address"},{"name":"issuer","type":"address","internalType":"address"},{"name":"allowsSelfCertification","type":"bool","internalType":"bool"},{"name":"allowsGeneralSolicitation","type":"bool","internalType":"bool"}]},{"name":"facetCuts","type":"tuple[]","internalType":"struct IDiamondCut.FacetCut[]","components":[{"name":"facetAddress","type":"address","internalType":"address"},{"name":"action","type":"uint8","internalType":"enum IDiamondCut.FacetCutAction"},{"name":"functionSelectors","type":"bytes4[]","internalType":"bytes4[]"}]},{"name":"initAddress","type":"address","internalType":"address"},{"name":"initData","type":"bytes","internalType":"bytes"},{"name":"salt","type":"bytes32","internalType":"bytes32"}],"outputs":[{"name":"result","type":"tuple","internalType":"struct IOfferingFactory.DeploymentResult","components":[{"name":"offeringDiamond","type":"address","internalType":"address"}]}],"stateMutability":"payable"},{"type":"function","name":"getDiamondFactory","inputs":[],"outputs":[{"name":"","type":"address","internalType":"address"}],"stateMutability":"view"},{"type":"function","name":"getOfferingCount","inputs":[],"outputs":[{"name":"","type":"uint256","internalType":"uint256"}],"stateMutability":"view"},{"type":"function","name":"isInitialized","inputs":[],"outputs":[{"name":"","type":"bool","internalType":"bool"}],"stateMutability":"view"},{"type":"function","name":"predictOfferingAddress","inputs":[{"name":"deployer","type":"address","internalType":"address"},{"name":"facetCuts","type":"tuple[]","internalType":"struct IDiamondCut.FacetCut[]","components":[{"name":"facetAddress","type":"address","internalType":"address"},{"name":"action","type":"uint8","internalType":"enum IDiamondCut.FacetCutAction"},{"name":"functionSelectors","type":"bytes4[]","internalType":"bytes4[]"}]},{"name":"initAddress","type":"address","internalType":"address"},{"name":"initData","type":"bytes","internalType":"bytes"},{"name":"salt","type":"bytes32","internalType":"bytes32"}],"outputs":[{"name":"","type":"address","internalType":"address"}],"stateMutability":"view"},{"type":"event","name":"OfferingCreated","inputs":[{"name":"offeringDiamond","type":"address","indexed":true,"internalType":"address"},{"name":"issuer","type":"address","indexed":true,"internalType":"address"},{"name":"admin","type":"address","indexed":true,"internalType":"address"},{"name":"deployer","type":"address","indexed":false,"internalType":"address"}],"anonymous":false},{"type":"event","name":"OfferingFactoryInitialized","inputs":[{"name":"diamondFactory","type":"address","indexed":true,"internalType":"address"},{"name":"admin","type":"address","indexed":true,"internalType":"address"}],"anonymous":false},{"type":"error","name":"OfferingFactory_AlreadyInitialized","inputs":[]},{"type":"error","name":"OfferingFactory_InvalidConfiguration","inputs":[]},{"type":"error","name":"OfferingFactory_InvalidDiamondFactory","inputs":[]},{"type":"error","name":"OfferingFactory_NotInitialized","inputs":[]}],"bytecode":{"object":"0x608080604052346015576108a1908161001a8239f35b5f80fdfe6080806040526004361015610012575f80fd5b5f3560e01c908163392e53cd146105e357508063399ae333146104b55780637d93c5981461047d57806399481a9314610441578063c7a0d6c0146101e35763d7df09321461005e575f80fd5b346101df5760403660031901126101df5761007761060e565b6024356001600160a01b03811691908290036101df575f51602061084c5f395f51905f52549060ff82166101d0576001600160a01b0381169182156101c15783156101b2576001916101008360a81b039060081b16906affffffffffffffffffffff60a81b1617175f51602061084c5f395f51905f5255815f527f35edad4c931e57ec40cedc90b9e3e052832d1b49c07eb789b019aea9b39c91d960205260405f206001815417905560405161012c81610683565b636bef849960e11b81525f5b600181101561018a5760019063ffffffff60e01b8160051b840151165f527f35edad4c931e57ec40cedc90b9e3e052832d1b49c07eb789b019aea9b39c91da60205260405f2082815417905501610138565b50507f09f087f650eb0ed3efdd219a4c50aad45c2436d18c5c098a2dcf9787de66e71f5f80a3005b6353740f3160e11b5f5260045ffd5b636a0fb36f60e01b5f5260045ffd5b6390c2b48f60e01b5f5260045ffd5b5f80fd5b366003190161010081126101df576080136101df5760843567ffffffffffffffff81116101df57610218903690600401610624565b60a4356001600160a01b038116908190036101df5760c43567ffffffffffffffff81116101df5761024d903690600401610655565b9190926040519461025d86610683565b5f86525f51602061084c5f395f51905f52549160ff831615610432576001600160a01b0361028961081f565b1615801561041a575b6101b2576102dc6102c59460209660405198899788968796630504c76b60e01b88526080600489015260848801916106f4565b9260248601526003198584030160448601526107ff565b60e43560648301520391349060081c6001600160a01b03165af190811561040f575f916103e0575b506001600160a01b031681527fe652770ebe7c092a3911ab640850a1b4a03df6f702b3fb5890d70c3ba69c260354905f1982146103cc576001602092017fe652770ebe7c092a3911ab640850a1b4a03df6f702b3fb5890d70c3ba69c26035560018060a01b03815116610375610835565b9061037e61081f565b6040513381526001600160a01b039182169390911691907fcb5121d62af3666f006aa371be1f8c976d09277a6b824fb80da99cf530f7ff19908690a460405190516001600160a01b03168152f35b634e487b7160e01b5f52601160045260245ffd5b610402915060203d602011610408575b6103fa81836106b3565b8101906106d5565b82610304565b503d6103f0565b6040513d5f823e3d90fd5b506001600160a01b0361042b610835565b1615610292565b639557cad560e01b5f5260045ffd5b346101df575f3660031901126101df5760207fe652770ebe7c092a3911ab640850a1b4a03df6f702b3fb5890d70c3ba69c260354604051908152f35b346101df575f3660031901126101df575f51602061084c5f395f51905f525460405160089190911c6001600160a01b03168152602090f35b346101df5760a03660031901126101df576104ce61060e565b60243567ffffffffffffffff81116101df576104ee903690600401610624565b906044356001600160a01b038116908190036101df576064359267ffffffffffffffff84116101df576105809461059761052e6020963690600401610655565b5f51602061084c5f395f51905f52546040516311f06bc960e11b81526001600160a01b03958616600482015260a06024820152998a9860089290921c909516968896879691949260a4880191906106f4565b9260448601526003198584030160648601526107ff565b608435608483015203915afa801561040f576020915f916105c6575b506040516001600160a01b039091168152f35b6105dd9150823d8411610408576103fa81836106b3565b826105b3565b346101df575f3660031901126101df5760209060ff5f51602061084c5f395f51905f52541615158152f35b600435906001600160a01b03821682036101df57565b9181601f840112156101df5782359167ffffffffffffffff83116101df576020808501948460051b0101116101df57565b9181601f840112156101df5782359167ffffffffffffffff83116101df57602083818601950101116101df57565b6020810190811067ffffffffffffffff82111761069f57604052565b634e487b7160e01b5f52604160045260245ffd5b90601f8019910116810190811067ffffffffffffffff82111761069f57604052565b908160209103126101df57516001600160a01b03811681036101df5790565b9091602081848152019260208160051b83010193835f935b83851061071c5750505050505090565b909192939495601f198282030184528635605e19843603018112156101df576060820190840180356001600160a01b038116908190036101df578352602081013560038110156101df5760208401526040810135601e19823603018112156101df5701906020823592019267ffffffffffffffff83116101df578260051b360384136101df578260809260606040840152520191905f905b8082106107d457505050602080600192980194019501939294919061070c565b90919283359063ffffffff60e01b82168092036101df576020816001938293520194019201906107b4565b908060209392818452848401375f828201840152601f01601f1916010190565b6004356001600160a01b03811681036101df5790565b6024356001600160a01b03811681036101df579056fee652770ebe7c092a3911ab640850a1b4a03df6f702b3fb5890d70c3ba69c2602a26469706673582212202124b5a8e574f1adffa8238488651fe73baaa1a38d7202e2ef79611d49eedf9864736f6c634300081e0033","linkReferences":{}},"methodIdentifiers":{"OfferingFactoryCore_init(address,address)":"d7df0932","createOffering((address,address,bool,bool),(address,uint8,bytes4[])[],address,bytes,bytes32)":"c7a0d6c0","getDiamondFactory()":"7d93c598","getOfferingCount()":"99481a93","isInitialized()":"392e53cd","predictOfferingAddress(address,(address,uint8,bytes4[])[],address,bytes,bytes32)":"399ae333"},"id":73}