{"abi":[{"type":"constructor","inputs":[],"stateMutability":"nonpayable"},{"type":"function","name":"OfferingCore_init","inputs":[{"name":"issuerWallet","type":"address","internalType":"address"},{"name":"tokenAddress","type":"address","internalType":"address"},{"name":"paymentToken","type":"address","internalType":"address"},{"name":"paymentRecipient","type":"address","internalType":"address"},{"name":"pricePerToken","type":"uint256","internalType":"uint256"},{"name":"minInvestment","type":"uint256","internalType":"uint256"},{"name":"maxAmount","type":"uint256","internalType":"uint256"},{"name":"deadline","type":"uint256","internalType":"uint256"}],"outputs":[],"stateMutability":"nonpayable"},{"type":"function","name":"attachInvestmentAgreement","inputs":[{"name":"investmentId","type":"uint256","internalType":"uint256"},{"name":"documentUID","type":"bytes32","internalType":"bytes32"}],"outputs":[],"stateMutability":"nonpayable"},{"type":"function","name":"claimRefund","inputs":[{"name":"investmentId","type":"uint256","internalType":"uint256"}],"outputs":[],"stateMutability":"nonpayable"},{"type":"function","name":"countersignInvestment","inputs":[{"name":"investmentId","type":"uint256","internalType":"uint256"}],"outputs":[],"stateMutability":"nonpayable"},{"type":"function","name":"getAllInvestors","inputs":[],"outputs":[{"name":"investors","type":"address[]","internalType":"address[]"}],"stateMutability":"view"},{"type":"function","name":"getInvestment","inputs":[{"name":"investmentId","type":"uint256","internalType":"uint256"}],"outputs":[{"name":"investment","type":"tuple","internalType":"struct OfferingCoreStorage.Investment","components":[{"name":"investor","type":"address","internalType":"address"},{"name":"amount","type":"uint256","internalType":"uint256"},{"name":"tokenQuantity","type":"uint256","internalType":"uint256"},{"name":"pricePerToken","type":"uint256","internalType":"uint256"},{"name":"timestamp","type":"uint256","internalType":"uint256"},{"name":"status","type":"uint8","internalType":"enum OfferingCoreStorage.InvestmentStatus"},{"name":"paymentEscrowed","type":"bool","internalType":"bool"},{"name":"subscriptionAgreementRef","type":"bytes32","internalType":"bytes32"},{"name":"issuedLotId","type":"bytes32","internalType":"bytes32"}]}],"stateMutability":"view"},{"type":"function","name":"getInvestorInvestments","inputs":[{"name":"investor","type":"address","internalType":"address"}],"outputs":[{"name":"investmentIds","type":"uint256[]","internalType":"uint256[]"}],"stateMutability":"view"},{"type":"function","name":"getInvestorPaymentTotal","inputs":[{"name":"investor","type":"address","internalType":"address"}],"outputs":[{"name":"totalPayments","type":"uint256","internalType":"uint256"}],"stateMutability":"view"},{"type":"function","name":"getOfferingInfo","inputs":[],"outputs":[{"name":"info","type":"tuple","internalType":"struct OfferingCoreStorage.OfferingInfo","components":[{"name":"issuerWallet","type":"address","internalType":"address"},{"name":"tokenAddress","type":"address","internalType":"address"},{"name":"paymentToken","type":"address","internalType":"address"},{"name":"paymentRecipient","type":"address","internalType":"address"},{"name":"pricePerToken","type":"uint256","internalType":"uint256"},{"name":"minInvestment","type":"uint256","internalType":"uint256"},{"name":"maxAmount","type":"uint256","internalType":"uint256"},{"name":"deadline","type":"uint256","internalType":"uint256"},{"name":"totalInvested","type":"uint256","internalType":"uint256"},{"name":"investorCount","type":"uint256","internalType":"uint256"},{"name":"status","type":"uint8","internalType":"enum OfferingCoreStorage.OfferingStatus"}]}],"stateMutability":"view"},{"type":"function","name":"getPaymentInfo","inputs":[],"outputs":[{"name":"paymentToken","type":"address","internalType":"address"},{"name":"paymentRecipient","type":"address","internalType":"address"},{"name":"totalPaymentsReceived","type":"uint256","internalType":"uint256"}],"stateMutability":"view"},{"type":"function","name":"invest","inputs":[{"name":"amount","type":"uint256","internalType":"uint256"}],"outputs":[{"name":"investmentId","type":"uint256","internalType":"uint256"}],"stateMutability":"payable"},{"type":"function","name":"rejectInvestment","inputs":[{"name":"investmentId","type":"uint256","internalType":"uint256"}],"outputs":[],"stateMutability":"nonpayable"},{"type":"function","name":"updateOfferingStatus","inputs":[{"name":"newStatus","type":"uint8","internalType":"enum OfferingCoreStorage.OfferingStatus"}],"outputs":[],"stateMutability":"nonpayable"},{"type":"event","name":"Initialized","inputs":[{"name":"version","type":"uint64","indexed":false,"internalType":"uint64"}],"anonymous":false},{"type":"event","name":"InvestmentAgreementAttached","inputs":[{"name":"investmentId","type":"uint256","indexed":true,"internalType":"uint256"},{"name":"documentUID","type":"bytes32","indexed":false,"internalType":"bytes32"}],"anonymous":false},{"type":"event","name":"InvestmentAgreementExecuted","inputs":[{"name":"investmentId","type":"uint256","indexed":true,"internalType":"uint256"},{"name":"investor","type":"address","indexed":true,"internalType":"address"},{"name":"issuer","type":"address","indexed":true,"internalType":"address"},{"name":"amount","type":"uint256","indexed":false,"internalType":"uint256"},{"name":"tokenQuantity","type":"uint256","indexed":false,"internalType":"uint256"},{"name":"pricePerToken","type":"uint256","indexed":false,"internalType":"uint256"},{"name":"subscriptionAgreementRef","type":"bytes32","indexed":false,"internalType":"bytes32"}],"anonymous":false},{"type":"event","name":"InvestmentCountersigned","inputs":[{"name":"investmentId","type":"uint256","indexed":true,"internalType":"uint256"},{"name":"issuer","type":"address","indexed":true,"internalType":"address"},{"name":"investor","type":"address","indexed":true,"internalType":"address"}],"anonymous":false},{"type":"event","name":"InvestmentMade","inputs":[{"name":"investor","type":"address","indexed":true,"internalType":"address"},{"name":"investmentId","type":"uint256","indexed":true,"internalType":"uint256"},{"name":"amount","type":"uint256","indexed":false,"internalType":"uint256"},{"name":"identityUID","type":"bytes32","indexed":false,"internalType":"bytes32"},{"name":"qualificationUID","type":"bytes32","indexed":false,"internalType":"bytes32"}],"anonymous":false},{"type":"event","name":"InvestmentRefunded","inputs":[{"name":"investmentId","type":"uint256","indexed":true,"internalType":"uint256"},{"name":"investor","type":"address","indexed":true,"internalType":"address"}],"anonymous":false},{"type":"event","name":"InvestmentRejected","inputs":[{"name":"investmentId","type":"uint256","indexed":true,"internalType":"uint256"},{"name":"issuer","type":"address","indexed":true,"internalType":"address"},{"name":"investor","type":"address","indexed":true,"internalType":"address"}],"anonymous":false},{"type":"event","name":"OfferingInitialized","inputs":[{"name":"issuer","type":"address","indexed":true,"internalType":"address"},{"name":"token","type":"address","indexed":true,"internalType":"address"},{"name":"pricePerToken","type":"uint256","indexed":false,"internalType":"uint256"},{"name":"maxAmount","type":"uint256","indexed":false,"internalType":"uint256"}],"anonymous":false},{"type":"event","name":"OfferingStatusChanged","inputs":[{"name":"oldStatus","type":"uint8","indexed":false,"internalType":"enum OfferingCoreStorage.OfferingStatus"},{"name":"newStatus","type":"uint8","indexed":false,"internalType":"enum OfferingCoreStorage.OfferingStatus"}],"anonymous":false},{"type":"event","name":"TokensIssued","inputs":[{"name":"investmentId","type":"uint256","indexed":true,"internalType":"uint256"},{"name":"investor","type":"address","indexed":true,"internalType":"address"},{"name":"tokenQuantity","type":"uint256","indexed":false,"internalType":"uint256"},{"name":"lotId","type":"bytes32","indexed":true,"internalType":"bytes32"}],"anonymous":false},{"type":"error","name":"CallerIsNotAuthorized","inputs":[]},{"type":"error","name":"DelegateNotAllowed","inputs":[]},{"type":"error","name":"InvalidInitialization","inputs":[]},{"type":"error","name":"NotInitializing","inputs":[]},{"type":"error","name":"OfferingCore_AlreadyCountersigned","inputs":[]},{"type":"error","name":"OfferingCore_AlreadyInitialized","inputs":[]},{"type":"error","name":"OfferingCore_AlreadyProcessed","inputs":[]},{"type":"error","name":"OfferingCore_BelowMinimumInvestment","inputs":[]},{"type":"error","name":"OfferingCore_DeadlinePassed","inputs":[]},{"type":"error","name":"OfferingCore_ExceedsMaximumAmount","inputs":[]},{"type":"error","name":"OfferingCore_GracePeriodNotExpired","inputs":[]},{"type":"error","name":"OfferingCore_InvalidAttestation","inputs":[]},{"type":"error","name":"OfferingCore_InvestmentNotFound","inputs":[]},{"type":"error","name":"OfferingCore_NotAuthorized","inputs":[]},{"type":"error","name":"OfferingCore_NotInvestor","inputs":[]},{"type":"error","name":"OfferingCore_OfferingNotActive","inputs":[]},{"type":"error","name":"OfferingCore_UnsupportedOfferingType","inputs":[]},{"type":"error","name":"OnlyDelegate","inputs":[]},{"type":"error","name":"ReentrancyGuardReentrantCall","inputs":[]},{"type":"error","name":"SafeERC20FailedOperation","inputs":[{"name":"token","type":"address","internalType":"address"}]}],"bytecode":{"object":"0x60a0806040523460b457306080525f516020612f1d5f395f51905f525460ff8160401c1660a5576002600160401b03196001600160401b038216016053575b604051612e6490816100b98239608051815050f35b6001600160401b0319166001600160401b039081175f516020612f1d5f395f51905f525581527fc7f505b2f371ae2175ee4913f4499e1f2633a7b5936321eed1cdaeb6115181d290602090a15f80603e565b63f92ee8a960e01b5f5260045ffd5b5f80fdfe60806040526004361015610011575f80fd5b5f3560e01c806244eff4146100e357806304da3f19146100de57806309a3352f146100d957806316268c28146100d457806322ae634f146100cf5780632afcf480146100ca5780633f647669146100c55780634c431f00146100c05780635b7baf64146100bb578063788fe028146100b6578063ad7724f2146100b1578063d0a2f2c4146100ac5763f0fb56a8146100a7575f80fd5b61136b565b6112c3565b611224565b611012565b610e9b565b610df8565b610b83565b6107a0565b61070c565b6105bf565b6104dc565b610456565b6101bc565b600411156100f257565b634e487b7160e01b5f52602160045260245ffd5b90610110826100e8565b52565b6101ba90929192610140806101608301956101378482516001600160a01b03169052565b6020818101516001600160a01b0316908501526040818101516001600160a01b0316908501526060818101516001600160a01b0316908501526080810151608085015260a081015160a085015260c081015160c085015260e081015160e08501526101008101516101008501526101208101516101208501520151910190610106565b565b34610452575f366003190112610452575f6101406040516101dc81611447565b8281528260208201528260408201528260608201528260808201528260a08201528260c08201528260e08201528261010082015282610120820152015261044e6102246114a8565b6102656102587f708bad8aa3b81bea04edad4b5c1dd58143a36561836ce96b5588ecea4e84e39f546001600160a01b031690565b6001600160a01b03168252565b6102a96102997f708bad8aa3b81bea04edad4b5c1dd58143a36561836ce96b5588ecea4e84e3a0546001600160a01b031690565b6001600160a01b03166020830152565b6102da6102ca5f516020612e0f5f395f51905f52546001600160a01b031690565b6001600160a01b03166040830152565b61031e61030e7f708bad8aa3b81bea04edad4b5c1dd58143a36561836ce96b5588ecea4e84e3a2546001600160a01b031690565b6001600160a01b03166060830152565b7f708bad8aa3b81bea04edad4b5c1dd58143a36561836ce96b5588ecea4e84e3a35460808201527f708bad8aa3b81bea04edad4b5c1dd58143a36561836ce96b5588ecea4e84e3a45460a08201527f708bad8aa3b81bea04edad4b5c1dd58143a36561836ce96b5588ecea4e84e3a55460c08201527f708bad8aa3b81bea04edad4b5c1dd58143a36561836ce96b5588ecea4e84e3a65460e08201527f708bad8aa3b81bea04edad4b5c1dd58143a36561836ce96b5588ecea4e84e3a7546101008201527f708bad8aa3b81bea04edad4b5c1dd58143a36561836ce96b5588ecea4e84e3a8546101208201526104426104387f708bad8aa3b81bea04edad4b5c1dd58143a36561836ce96b5588ecea4e84e3a95460ff1690565b61014083016114d4565b60405191829182610113565b0390f35b5f80fd5b34610452575f366003190112610452575f516020612e0f5f395f51905f52547f708bad8aa3b81bea04edad4b5c1dd58143a36561836ce96b5588ecea4e84e3a2547f708bad8aa3b81bea04edad4b5c1dd58143a36561836ce96b5588ecea4e84e3ae54604080516001600160a01b03948516815293909216602084015290820152606090f35b34610452576040366003190112610452576004356024356104fb611a3d565b1561059757815f527f708bad8aa3b81bea04edad4b5c1dd58143a36561836ce96b5588ecea4e84e3aa60205260405f206001600160a01b038154161561056f576006018190556040519081527f86a3fe58abd946870b0d070e20ef781722a19d2a156d907bfe478ec44278b7d390602090a2005b7f250d2846000000000000000000000000000000000000000000000000000000005f5260045ffd5b7ffe7ae43a000000000000000000000000000000000000000000000000000000005f5260045ffd5b34610452576020366003190112610452576004356004811015610452576105e4611a3d565b15610597577f090dc240b6971396472961dc185f630e0a38a8785c5c37c22b858ac2255a7fbb9060ff7f708bad8aa3b81bea04edad4b5c1dd58143a36561836ce96b5588ecea4e84e3a95416610639826100e8565b60ff197f708bad8aa3b81bea04edad4b5c1dd58143a36561836ce96b5588ecea4e84e3a9541660ff8316177f708bad8aa3b81bea04edad4b5c1dd58143a36561836ce96b5588ecea4e84e3a955610695604051928392836114f5565b0390a1005b919091610100806101208301946001600160a01b0381511684526020810151602085015260408101516040850152606081015160608501526080810151608085015260a08101516106ea816100e8565b60a085015260c08181015115159085015260e081015160e08501520151910152565b34610452576020366003190112610452576004355f61010060405161073081611469565b8281528260208201528260408201528260608201528260808201528260a08201528260c08201528260e082015201525f527f708bad8aa3b81bea04edad4b5c1dd58143a36561836ce96b5588ecea4e84e3aa60205261044e61079460405f20611523565b6040519182918261069a565b60203660031901126104525760043560016107dc7f708bad8aa3b81bea04edad4b5c1dd58143a36561836ce96b5588ecea4e84e3a95460ff1690565b6107e5816100e8565b03610b03577f708bad8aa3b81bea04edad4b5c1dd58143a36561836ce96b5588ecea4e84e3a6544211610adb5761082261081e82611afc565b1590565b610a63576109778161083761044e9333611b80565b61086b610843826115d3565b7f708bad8aa3b81bea04edad4b5c1dd58143a36561836ce96b5588ecea4e84e3a354906115fc565b9061087782151561161a565b7f708bad8aa3b81bea04edad4b5c1dd58143a36561836ce96b5588ecea4e84e3ab549283926108cc6108a885611665565b7f708bad8aa3b81bea04edad4b5c1dd58143a36561836ce96b5588ecea4e84e3ab55565b6108d68484611c47565b6108de611e4b565b7f708bad8aa3b81bea04edad4b5c1dd58143a36561836ce96b5588ecea4e84e3a3546109086114b8565b338152928560208501526040840152606083015242608083015261092e60a08301611518565b600160c083015260e08201525f610100820152610972845f527f708bad8aa3b81bea04edad4b5c1dd58143a36561836ce96b5588ecea4e84e3aa60205260405f2090565b6116b8565b6109c96109a5827f708bad8aa3b81bea04edad4b5c1dd58143a36561836ce96b5588ecea4e84e3ae54611773565b7f708bad8aa3b81bea04edad4b5c1dd58143a36561836ce96b5588ecea4e84e3ae55565b335f9081527f708bad8aa3b81bea04edad4b5c1dd58143a36561836ce96b5588ecea4e84e3af60205260409020610a01828254611773565b9055610a0d8233611f85565b610a188282336120b4565b604080519182525f602083018190529082015233907f0f74ffd52801e98f862db8bcde7035a11d4ef8ad742dc679619dac41ac78510d90606090a36040519081529081906020820190565b7f708bad8aa3b81bea04edad4b5c1dd58143a36561836ce96b5588ecea4e84e3a4541115610ab3577f8898dccb000000000000000000000000000000000000000000000000000000005f5260045ffd5b7f6fc5c84c000000000000000000000000000000000000000000000000000000005f5260045ffd5b7f2617b4cb000000000000000000000000000000000000000000000000000000005f5260045ffd5b7f55e9770e000000000000000000000000000000000000000000000000000000005f5260045ffd5b600435906001600160a01b038216820361045257565b602435906001600160a01b038216820361045257565b604435906001600160a01b038216820361045257565b606435906001600160a01b038216820361045257565b346104525761010036600319011261045257610b9d610b2b565b610ba5610b41565b610bad610b57565b610bb5610b6d565b906084359260a43560c43560e4359360ff7ff0c57e16840df040f15088dc2f81fe391c3923bec73e23a9662efc9c229c6a005460401c1615610d97577f708bad8aa3b81bea04edad4b5c1dd58143a36561836ce96b5588ecea4e84e3b45460ff16610d6f57876001600160a01b0395610d6a94610c9d7f7036fa610177c8b5c15cf52356e554d12667f13715943ef378c0d33e1597ebd099610c8d610cd396610c6e610c5f6114a8565b6001600160a01b039098168852565b6001600160a01b038b1660208801526001600160a01b03166040870152565b6001600160a01b03166060850152565b89608084015260a08301528360c083015260e08201525f6101008201525f610120820152610cce61014082016114c8565b611780565b610cfc60017f708bad8aa3b81bea04edad4b5c1dd58143a36561836ce96b5588ecea4e84e3ab55565b610d4c600160ff197f708bad8aa3b81bea04edad4b5c1dd58143a36561836ce96b5588ecea4e84e3b45416177f708bad8aa3b81bea04edad4b5c1dd58143a36561836ce96b5588ecea4e84e3b455565b83604051948594169716958360209093929193604081019481520152565b0390a3005b7f0cc21589000000000000000000000000000000000000000000000000000000005f5260045ffd5b7fd7e6bcf8000000000000000000000000000000000000000000000000000000005f5260045ffd5b60206040818301928281528451809452019201905f5b818110610de25750505090565b8251845260209384019390920191600101610dd5565b3461045257602036600319011261045257610e4a610e14610b2b565b6001600160a01b03165f527f708bad8aa3b81bea04edad4b5c1dd58143a36561836ce96b5588ecea4e84e3ac60205260405f2090565b6040519081602082549182815201915f5260205f20905f5b818110610e855761044e85610e7981870382611486565b60405191829182610dbf565b8254845260209093019260019283019201610e62565b3461045257602036600319011261045257600435610ee0815f527f708bad8aa3b81bea04edad4b5c1dd58143a36561836ce96b5588ecea4e84e3aa60205260405f2090565b80546001600160a01b0316801561056f576001600160a01b03163303610fea5760058101805460ff16610f12816100e8565b610fc257610f407f708bad8aa3b81bea04edad4b5c1dd58143a36561836ce96b5588ecea4e84e3a654611763565b421115610f9a576001600160a01b0391610f5c610f7292611673565b610f658461220f565b546001600160a01b031690565b16907f7753f0811884796ae94129b9370b6b1b9d4d2a4c042da6fe85c9b6da1325985b5f80a3005b7f6f9fd3ac000000000000000000000000000000000000000000000000000000005f5260045ffd5b7f03785a64000000000000000000000000000000000000000000000000000000005f5260045ffd5b7fff97c4df000000000000000000000000000000000000000000000000000000005f5260045ffd5b346104525760203660031901126104525760043561103161081e611a3d565b61059757611066815f527f708bad8aa3b81bea04edad4b5c1dd58143a36561836ce96b5588ecea4e84e3aa60205260405f2090565b9061107882546001600160a01b031690565b906001600160a01b0382161561056f5760058301805460ff1661109a816100e8565b610fc2576110d9906110b3836001870195865490612456565b6110c5836110c087611523565b612550565b6110ce8161168a565b805461ff0019169055565b6110e38254612804565b7f666ddf3bc13b0c4f440e0e8594b43a0bb0effc85c0634af74e876a6a63665f7161114561114061113b845f527f708bad8aa3b81bea04edad4b5c1dd58143a36561836ce96b5588ecea4e84e3aa60205260405f2090565b611523565b61294f565b938460078201556111698361116183546001600160a01b031690565b865490612ae9565b6001600160a01b0361118282546001600160a01b031690565b1693604051958533867f598da46e5030134f434872f8ddd95596a89546443077998490407d710cbb77dd5f80a485857f1d7fa5da104d4016f3767ffc70f02dd9d902b9e7cf61697017ac0387aeb3a337600286015499806111e88c829190602083019252565b0390a4549461121f600660038401549301546040519384933399859094939260609260808301968352602083015260408201520152565b0390a4005b34610452576020366003190112610452576020611278611242610b2b565b6001600160a01b03165f527f708bad8aa3b81bea04edad4b5c1dd58143a36561836ce96b5588ecea4e84e3af60205260405f2090565b54604051908152f35b60206040818301928281528451809452019201905f5b8181106112a45750505090565b82516001600160a01b0316845260209384019390920191600101611297565b34610452575f366003190112610452576040517f708bad8aa3b81bea04edad4b5c1dd58143a36561836ce96b5588ecea4e84e3ad80548083525f91825260208301917fc06dfc60f4832a846e5ad2ed4f47b8e3582947bc3bb2d3186659d5712be20d6191905b81811061134c5761044e8561134081870382611486565b60405191829182611281565b82546001600160a01b0316845260209093019260019283019201611329565b346104525760203660031901126104525760043561138a61081e611a3d565b610597576113bf815f527f708bad8aa3b81bea04edad4b5c1dd58143a36561836ce96b5588ecea4e84e3aa60205260405f2090565b6001600160a01b036113d882546001600160a01b031690565b161561056f5760058101805460ff166113f0816100e8565b610fc2576001600160a01b0391610f5c611409926116a1565b169033907f135dc16718b461c44ae749630a98a1bebd63e710b328ad36bf0c21b9693f61675f80a4005b634e487b7160e01b5f52604160045260245ffd5b610160810190811067ffffffffffffffff82111761146457604052565b611433565b610120810190811067ffffffffffffffff82111761146457604052565b90601f8019910116810190811067ffffffffffffffff82111761146457604052565b604051906101ba61016083611486565b604051906101ba61012083611486565b600190610110826100e8565b610110826100e8565b906114e7816100e8565b60ff80198354169116179055565b6040810193929160209190611509816100e8565b8152611514836100e8565b0152565b5f90610110826100e8565b90600761152e6114b8565b9261155061154382546001600160a01b031690565b6001600160a01b03168552565b600181015460208501526002810154604085015260038101546060850152600481015460808501526115ab6115a260058301546115996115908260ff1690565b60a089016114d4565b60081c60ff1690565b151560c0860152565b600681015460e08501520154610100830152565b634e487b7160e01b5f52601160045260245ffd5b90670de0b6b3a7640000820291808304670de0b6b3a764000014901517156115f757565b6115bf565b8115611606570490565b634e487b7160e01b5f52601260045260245ffd5b1561162157565b606460405162461bcd60e51b815260206004820152601460248201527f496e766573746d656e7420746f6f20736d616c6c0000000000000000000000006044820152fd5b5f1981146115f75760010190565b61167d60036100e8565b805460ff19166003179055565b61169460016100e8565b805460ff19166001179055565b6116ab60026100e8565b805460ff19166002179055565b906101006007916116ef6116d382516001600160a01b031690565b85906001600160a01b03166001600160a01b0319825416179055565b602081015160018501556040810151600285015560608101516003850155608081015160048501556117526005850161173560a084015161172f816100e8565b826114dd565b60c08301511515815461ff00191690151560081b61ff0016179055565b60e081015160068501550151910155565b9062093a8082018092116115f757565b919082018092116115f757565b6101406101ba916117d761179b82516001600160a01b031690565b7f708bad8aa3b81bea04edad4b5c1dd58143a36561836ce96b5588ecea4e84e39f906001600160a01b03166001600160a01b0319825416179055565b61182a6117ee60208301516001600160a01b031690565b7f708bad8aa3b81bea04edad4b5c1dd58143a36561836ce96b5588ecea4e84e3a0906001600160a01b03166001600160a01b0319825416179055565b61186a61184160408301516001600160a01b031690565b5f516020612e0f5f395f51905f52906001600160a01b03166001600160a01b0319825416179055565b6118bd61188160608301516001600160a01b031690565b7f708bad8aa3b81bea04edad4b5c1dd58143a36561836ce96b5588ecea4e84e3a2906001600160a01b03166001600160a01b0319825416179055565b60808101517f708bad8aa3b81bea04edad4b5c1dd58143a36561836ce96b5588ecea4e84e3a35560a08101517f708bad8aa3b81bea04edad4b5c1dd58143a36561836ce96b5588ecea4e84e3a45560c08101517f708bad8aa3b81bea04edad4b5c1dd58143a36561836ce96b5588ecea4e84e3a55560e08101517f708bad8aa3b81bea04edad4b5c1dd58143a36561836ce96b5588ecea4e84e3a6556101008101517f708bad8aa3b81bea04edad4b5c1dd58143a36561836ce96b5588ecea4e84e3a7556101208101517f708bad8aa3b81bea04edad4b5c1dd58143a36561836ce96b5588ecea4e84e3a85501516119b4816100e8565b7f708bad8aa3b81bea04edad4b5c1dd58143a36561836ce96b5588ecea4e84e3a96114dd565b67ffffffffffffffff811161146457601f01601f191660200190565b3d15611a20573d90611a07826119da565b91611a156040519384611486565b82523d5f602084013e565b606090565b90816020910312610452575180151581036104525790565b7f708bad8aa3b81bea04edad4b5c1dd58143a36561836ce96b5588ecea4e84e39f546001600160a01b0316803314611af657803b15611af1576040517ffa8c59dc00000000000000000000000000000000000000000000000000000000602082019081523360248301525f928392909190611ac581604481015b03601f198101835282611486565b51915afa611ad16119f6565b81611ada575090565b611aee915060208082518301019101611a25565b90565b505f90565b50600190565b7f708bad8aa3b81bea04edad4b5c1dd58143a36561836ce96b5588ecea4e84e3a4548110159081611b2b575090565b90507f708bad8aa3b81bea04edad4b5c1dd58143a36561836ce96b5588ecea4e84e3a7549081018091116115f7577f708bad8aa3b81bea04edad4b5c1dd58143a36561836ce96b5588ecea4e84e3a554101590565b6040517f34006cad00000000000000000000000000000000000000000000000000000000602082019081526001600160a01b03909216602482015260448101929092525f91829190611bd58160648101611ab7565b5190305afa611be26119f6565b9015611beb5750565b80519081611bf7575050565b602001fd5b15611c0357565b606460405162461bcd60e51b815260206004820152601460248201527f496e636f72726563742045544820616d6f756e740000000000000000000000006044820152fd5b906001600160a01b035f516020612e0f5f395f51905f52541680155f14611cfa5750611cf790611c78833414611bfc565b611cca611ca6847f708bad8aa3b81bea04edad4b5c1dd58143a36561836ce96b5588ecea4e84e3b054611773565b7f708bad8aa3b81bea04edad4b5c1dd58143a36561836ce96b5588ecea4e84e3b055565b5f527f708bad8aa3b81bea04edad4b5c1dd58143a36561836ce96b5588ecea4e84e3b160205260405f2090565b55565b34611de157611cf791611d2384611d1a611db4946001600160a01b031690565b30903390612b44565b611d7a611d445f516020612e0f5f395f51905f52546001600160a01b031690565b6001600160a01b03165f527f708bad8aa3b81bea04edad4b5c1dd58143a36561836ce96b5588ecea4e84e3b260205260405f2090565b611d85858254611773565b90555f527f708bad8aa3b81bea04edad4b5c1dd58143a36561836ce96b5588ecea4e84e3b360205260405f2090565b5f516020612e0f5f395f51905f52546001600160a01b03166001600160a01b03165f5260205260405f2090565b608460405162461bcd60e51b815260206004820152602160248201527f4e6f2045544820657870656374656420666f7220746f6b656e207061796d656e60448201527f74000000000000000000000000000000000000000000000000000000000000006064820152fd5b5f5f8060405160208101907f0837d3e500000000000000000000000000000000000000000000000000000000825260048152611e88602482611486565b5190305afa611e956119f6565b90611e9e575090565b809150518101606082602083019203126104525760208201519160608101519067ffffffffffffffff8211610452570181603f82011215610452576020810151611ee7816119da565b92611ef56040519485611486565b81845260408383010111610452575f92816040602094018483015e01015290565b634e487b7160e01b5f52603260045260245ffd5b7f708bad8aa3b81bea04edad4b5c1dd58143a36561836ce96b5588ecea4e84e3ad54811015611f80577f708bad8aa3b81bea04edad4b5c1dd58143a36561836ce96b5588ecea4e84e3ad5f5260205f2001905f90565b611f16565b90611fc0826001600160a01b03165f527f708bad8aa3b81bea04edad4b5c1dd58143a36561836ce96b5588ecea4e84e3ac60205260405f2090565b90815491680100000000000000008310156114645760018301808255831015611f80575f9081526020902090910155600161202b826001600160a01b03165f527f708bad8aa3b81bea04edad4b5c1dd58143a36561836ce96b5588ecea4e84e3ac60205260405f2090565b54146120345750565b7f708bad8aa3b81bea04edad4b5c1dd58143a36561836ce96b5588ecea4e84e3ad54680100000000000000008110156114645780600161209692017f708bad8aa3b81bea04edad4b5c1dd58143a36561836ce96b5588ecea4e84e3ad55611f2a565b6001600160a01b0380839493549260031b9316831b921b1916179055565b5f9261210f8493611ab760405193849260208401967f087efee9000000000000000000000000000000000000000000000000000000008852602485016040919493926001600160a01b03606083019616825260208201520152565b519082305af15061211e6119f6565b50565b1561212857565b606460405162461bcd60e51b815260206004820152601c60248201527f455243323020657363726f7720616d6f756e74206d69736d61746368000000006044820152fd5b919082039182116115f757565b1561218057565b606460405162461bcd60e51b815260206004820152601a60248201527f45544820657363726f7720616d6f756e74206d69736d617463680000000000006044820152fd5b156121cb57565b606460405162461bcd60e51b815260206004820152601a60248201527f45544820726566756e64207472616e73666572206661696c65640000000000006044820152fd5b612240815f527f708bad8aa3b81bea04edad4b5c1dd58143a36561836ce96b5588ecea4e84e3aa60205260405f2090565b90600582019061225861081e835460ff9060081c1690565b6123eb576101ba9261227e5f516020612e0f5f395f51905f52546001600160a01b031690565b6001600160a01b03811661232b57505f80808461231b82958361230d6122ce6110ce9a5f527f708bad8aa3b81bea04edad4b5c1dd58143a36561836ce96b5588ecea4e84e3b160205260405f2090565b54946122df60018501548714612179565b611cca611ca6877f708bad8aa3b81bea04edad4b5c1dd58143a36561836ce96b5588ecea4e84e3b05461216c565b55546001600160a01b031690565b5af16123256119f6565b506121c4565b905f6123a1611db4856123966123858761236f6123e69a5f527f708bad8aa3b81bea04edad4b5c1dd58143a36561836ce96b5588ecea4e84e3b360205260405f2090565b906001600160a01b03165f5260205260405f2090565b5496611d4460018801548914612121565b611d8587825461216c565b556123e06123d26123c65f516020612e0f5f395f51905f52546001600160a01b031690565b6001600160a01b031690565b91546001600160a01b031690565b90612ba4565b6110ce565b60405162461bcd60e51b815260206004820152602560248201527f5061796d656e74206e6f7420696e20657363726f77202d2063616e6e6f74207260448201527f6566756e640000000000000000000000000000000000000000000000000000006064820152608490fd5b5f926124b18493611ab760405193849260208401967f7f629509000000000000000000000000000000000000000000000000000000008852602485016040919493926001600160a01b03606083019616825260208201520152565b5190305afa5061211e6119f6565b156124c657565b608460405162461bcd60e51b8152602060048201526024808201527f436f72706f726174652045544820657363726f77207472616e7366657220666160448201527f696c6564000000000000000000000000000000000000000000000000000000006064820152fd5b9190826040910312610452576020825192015190565b6040513d5f823e3d90fd5b61256061081e60c0830151151590565b612800575f516020612e0f5f395f51905f52546001600160a01b03168061274f57505f6125f66125b7845f527f708bad8aa3b81bea04edad4b5c1dd58143a36561836ce96b5588ecea4e84e3b160205260405f2090565b54936125c860208501518614612179565b611cca611ca6867f708bad8aa3b81bea04edad4b5c1dd58143a36561836ce96b5588ecea4e84e3b05461216c565b557f708bad8aa3b81bea04edad4b5c1dd58143a36561836ce96b5588ecea4e84e3a2546001600160a01b031661262b81612bf6565b1561273457506126b1916040916126806126726123c66123c67f708bad8aa3b81bea04edad4b5c1dd58143a36561836ce96b5588ecea4e84e3a2546001600160a01b031690565b91516001600160a01b031690565b8351635bc2147d60e11b81526001600160a01b03909116600482015260248101839052938492839182906044820190565b03925af19081612706575b506101ba5760405162461bcd60e51b815260206004820152601b60248201527f46756e6420657363726f77207472616e73666572206661696c656400000000006044820152606490fd5b6127279060403d60401161272d575b61271f8183611486565b81019061252f565b506126bc565b503d612715565b5f808093506101ba9481935af16127496119f6565b506124bf565b6127ae611db4846127a384611d4460206127985f9861236f6101ba9c5f527f708bad8aa3b81bea04edad4b5c1dd58143a36561836ce96b5588ecea4e84e3b360205260405f2090565b549801518814612121565b611d8586825461216c565b556127d06123c65f516020612e0f5f395f51905f52546001600160a01b031690565b7f708bad8aa3b81bea04edad4b5c1dd58143a36561836ce96b5588ecea4e84e3a2546001600160a01b03166123e0565b5050565b7f708bad8aa3b81bea04edad4b5c1dd58143a36561836ce96b5588ecea4e84e3a7549081018091116115f757807f708bad8aa3b81bea04edad4b5c1dd58143a36561836ce96b5588ecea4e84e3a75561287d7f708bad8aa3b81bea04edad4b5c1dd58143a36561836ce96b5588ecea4e84e3a854611665565b7f708bad8aa3b81bea04edad4b5c1dd58143a36561836ce96b5588ecea4e84e3a8557f708bad8aa3b81bea04edad4b5c1dd58143a36561836ce96b5588ecea4e84e3a55411156128c957565b7f090dc240b6971396472961dc185f630e0a38a8785c5c37c22b858ac2255a7fbb60ff7f708bad8aa3b81bea04edad4b5c1dd58143a36561836ce96b5588ecea4e84e3a95461294a8260028119841617807f708bad8aa3b81bea04edad4b5c1dd58143a36561836ce96b5588ecea4e84e3a9551660405193849316836114f5565b0390a1565b7f708bad8aa3b81bea04edad4b5c1dd58143a36561836ce96b5588ecea4e84e3a054906129846001600160a01b038316612bf6565b156129bf577f708bad8aa3b81bea04edad4b5c1dd58143a36561836ce96b5588ecea4e84e3a054611aee92506001600160a01b031690612cb4565b806129cf602060409301516115d3565b6129f46123c66123c66129e7868601948551906115fc565b966001600160a01b031690565b905f612a0784516001600160a01b031690565b915191612ab26080612a2d5f516020612e0f5f395f51905f52546001600160a01b031690565b9601518751602080820152601f60408201527f52756c652035303628632920696e766573746d656e74206f66666572696e6700606082015290612a7d82608081015b03601f198101845283611486565b8851998a98899788967f0d9f387500000000000000000000000000000000000000000000000000000000885260048801612c46565b03925af1908115612ae4575f91612ac7575090565b612ae0915060403d60401161272d5761271f8183611486565b5090565b612545565b5f9261210f8493611ab760405193849260208401967f99221b60000000000000000000000000000000000000000000000000000000008852602485016040919493926001600160a01b03606083019616825260208201520152565b6040517f23b872dd0000000000000000000000000000000000000000000000000000000060208201526001600160a01b03928316602482015292909116604483015260648201929092526101ba91612b9f8260848101612a6f565b612da1565b6040517fa9059cbb0000000000000000000000000000000000000000000000000000000060208201526001600160a01b03909216602483015260448201929092526101ba91612b9f8260648101612a6f565b803b15611af1575f809160405160208101907f289caf6800000000000000000000000000000000000000000000000000000000825260048152612c3a602482611486565b51915afa612ae06119f6565b9695909460e0946001600160a01b0361014095602095825f9a168c52868c01521660408a01526060890152608088015261010060a08801528461010088015261012060c08801528051918291826101208a0152018388015e83828288010152601f8019910116850101930152565b90612cc561081e60c0840151151590565b15612cd05750505f90565b81604091612ced6020612d2795015192516001600160a01b031690565b826001600160a01b038551809781968295635bc2147d60e11b845260048401602090939291936001600160a01b0360408201951681520152565b0393165af15f9181612d7e575b50611aee5760405162461bcd60e51b815260206004820152601660248201527f46756e6420696e766573746d656e74206661696c6564000000000000000000006044820152606490fd5b612d9891925060403d60401161272d5761271f8183611486565b9050905f612d34565b905f602091828151910182855af115612545575f513d612e0557506001600160a01b0381163b155b612dd05750565b6001600160a01b03907f5274afe7000000000000000000000000000000000000000000000000000000005f521660045260245ffd5b60011415612dc956fe708bad8aa3b81bea04edad4b5c1dd58143a36561836ce96b5588ecea4e84e3a1a2646970667358221220aee5b38bce18c6f50077b08ba354ebbcab69486b481771752b692b781e2bd8d764736f6c634300081c0033f0c57e16840df040f15088dc2f81fe391c3923bec73e23a9662efc9c229c6a00","linkReferences":{}},"methodIdentifiers":{"OfferingCore_init(address,address,address,address,uint256,uint256,uint256,uint256)":"3f647669","attachInvestmentAgreement(uint256,bytes32)":"09a3352f","claimRefund(uint256)":"5b7baf64","countersignInvestment(uint256)":"788fe028","getAllInvestors()":"d0a2f2c4","getInvestment(uint256)":"22ae634f","getInvestorInvestments(address)":"4c431f00","getInvestorPaymentTotal(address)":"ad7724f2","getOfferingInfo()":"0044eff4","getPaymentInfo()":"04da3f19","invest(uint256)":"2afcf480","rejectInvestment(uint256)":"f0fb56a8","updateOfferingStatus(uint8)":"16268c28"},"id":165}