{"abi":[{"type":"function","name":"addDocumentRequirement","inputs":[{"name":"allowedTemplateIds","type":"bytes32[]","internalType":"bytes32[]"},{"name":"isRequired","type":"bool","internalType":"bool"},{"name":"minRequired","type":"uint8","internalType":"uint8"},{"name":"maxRequired","type":"uint8","internalType":"uint8"},{"name":"priority","type":"uint8","internalType":"uint8"},{"name":"label","type":"string","internalType":"string"}],"outputs":[],"stateMutability":"nonpayable"},{"type":"function","name":"canSignRequiredDocument","inputs":[{"name":"signer","type":"address","internalType":"address"}],"outputs":[{"name":"eligible","type":"bool","internalType":"bool"}],"stateMutability":"view"},{"type":"function","name":"createDocument","inputs":[{"name":"documentId","type":"bytes32","internalType":"bytes32"},{"name":"contentHash","type":"bytes32","internalType":"bytes32"},{"name":"storageURI","type":"string","internalType":"string"},{"name":"title","type":"string","internalType":"string"},{"name":"templateId","type":"bytes32","internalType":"bytes32"}],"outputs":[],"stateMutability":"nonpayable"},{"type":"function","name":"getDocument","inputs":[{"name":"documentId","type":"bytes32","internalType":"bytes32"}],"outputs":[{"name":"document","type":"tuple","internalType":"struct OfferingStorage.Document","components":[{"name":"contentHash","type":"bytes32","internalType":"bytes32"},{"name":"storageURI","type":"string","internalType":"string"},{"name":"title","type":"string","internalType":"string"},{"name":"templateId","type":"bytes32","internalType":"bytes32"},{"name":"creator","type":"address","internalType":"address"},{"name":"createdAt","type":"uint256","internalType":"uint256"},{"name":"exists","type":"bool","internalType":"bool"}]}],"stateMutability":"view"},{"type":"function","name":"getDocumentRequirement","inputs":[{"name":"index","type":"uint256","internalType":"uint256"}],"outputs":[{"name":"","type":"tuple","internalType":"struct OfferingStorage.DocumentRequirement","components":[{"name":"allowedTemplateIds","type":"bytes32[]","internalType":"bytes32[]"},{"name":"isRequired","type":"bool","internalType":"bool"},{"name":"minRequired","type":"uint8","internalType":"uint8"},{"name":"maxRequired","type":"uint8","internalType":"uint8"},{"name":"priority","type":"uint8","internalType":"uint8"},{"name":"label","type":"string","internalType":"string"}]}],"stateMutability":"view"},{"type":"function","name":"getDocumentRequirements","inputs":[],"outputs":[{"name":"","type":"tuple[]","internalType":"struct OfferingStorage.DocumentRequirement[]","components":[{"name":"allowedTemplateIds","type":"bytes32[]","internalType":"bytes32[]"},{"name":"isRequired","type":"bool","internalType":"bool"},{"name":"minRequired","type":"uint8","internalType":"uint8"},{"name":"maxRequired","type":"uint8","internalType":"uint8"},{"name":"priority","type":"uint8","internalType":"uint8"},{"name":"label","type":"string","internalType":"string"}]}],"stateMutability":"view"},{"type":"function","name":"getInvestorSignedDocument","inputs":[{"name":"investor","type":"address","internalType":"address"}],"outputs":[{"name":"documentId","type":"bytes32","internalType":"bytes32"}],"stateMutability":"view"},{"type":"function","name":"getInvestorSignedDocumentsByGroup","inputs":[{"name":"investor","type":"address","internalType":"address"}],"outputs":[{"name":"signedByGroup","type":"bytes32[][]","internalType":"bytes32[][]"}],"stateMutability":"view"},{"type":"function","name":"getRequiredDocumentInfo","inputs":[],"outputs":[{"name":"templateId","type":"bytes32","internalType":"bytes32"},{"name":"eligibility","type":"uint8","internalType":"enum IOfferingDocuments.SignerEligibility"}],"stateMutability":"view"},{"type":"function","name":"hasSignedAllRequiredDocuments","inputs":[{"name":"investor","type":"address","internalType":"address"}],"outputs":[{"name":"satisfied","type":"bool","internalType":"bool"}],"stateMutability":"view"},{"type":"function","name":"hasSignedDocument","inputs":[{"name":"investor","type":"address","internalType":"address"},{"name":"documentId","type":"bytes32","internalType":"bytes32"}],"outputs":[{"name":"hasSigned","type":"bool","internalType":"bool"},{"name":"signedAt","type":"uint256","internalType":"uint256"}],"stateMutability":"view"},{"type":"function","name":"hasSignedRequiredDocument","inputs":[{"name":"investor","type":"address","internalType":"address"}],"outputs":[{"name":"hasSigned","type":"bool","internalType":"bool"}],"stateMutability":"view"},{"type":"function","name":"removeDocumentRequirement","inputs":[{"name":"index","type":"uint256","internalType":"uint256"}],"outputs":[],"stateMutability":"nonpayable"},{"type":"function","name":"setCustomEligibilityModule","inputs":[{"name":"module","type":"address","internalType":"address"}],"outputs":[],"stateMutability":"nonpayable"},{"type":"function","name":"setDocumentEligibilityMode","inputs":[{"name":"mode","type":"uint8","internalType":"uint8"}],"outputs":[],"stateMutability":"nonpayable"},{"type":"function","name":"signDocument","inputs":[{"name":"documentId","type":"bytes32","internalType":"bytes32"}],"outputs":[],"stateMutability":"nonpayable"},{"type":"function","name":"updateDocumentRequirement","inputs":[{"name":"index","type":"uint256","internalType":"uint256"},{"name":"minRequired","type":"uint8","internalType":"uint8"},{"name":"maxRequired","type":"uint8","internalType":"uint8"},{"name":"priority","type":"uint8","internalType":"uint8"},{"name":"label","type":"string","internalType":"string"}],"outputs":[],"stateMutability":"nonpayable"},{"type":"event","name":"CustomEligibilityModuleSet","inputs":[{"name":"module","type":"address","indexed":true,"internalType":"address"}],"anonymous":false},{"type":"event","name":"DocumentCreated","inputs":[{"name":"documentId","type":"bytes32","indexed":true,"internalType":"bytes32"},{"name":"templateId","type":"bytes32","indexed":true,"internalType":"bytes32"},{"name":"creator","type":"address","indexed":true,"internalType":"address"},{"name":"title","type":"string","indexed":false,"internalType":"string"}],"anonymous":false},{"type":"event","name":"DocumentEligibilityModeSet","inputs":[{"name":"mode","type":"uint8","indexed":false,"internalType":"uint8"}],"anonymous":false},{"type":"event","name":"DocumentRequirementAdded","inputs":[{"name":"requirementIndex","type":"uint256","indexed":true,"internalType":"uint256"},{"name":"label","type":"string","indexed":false,"internalType":"string"},{"name":"minRequired","type":"uint8","indexed":false,"internalType":"uint8"},{"name":"maxRequired","type":"uint8","indexed":false,"internalType":"uint8"}],"anonymous":false},{"type":"event","name":"DocumentRequirementRemoved","inputs":[{"name":"requirementIndex","type":"uint256","indexed":true,"internalType":"uint256"}],"anonymous":false},{"type":"event","name":"DocumentRequirementUpdated","inputs":[{"name":"requirementIndex","type":"uint256","indexed":true,"internalType":"uint256"},{"name":"label","type":"string","indexed":false,"internalType":"string"},{"name":"minRequired","type":"uint8","indexed":false,"internalType":"uint8"},{"name":"maxRequired","type":"uint8","indexed":false,"internalType":"uint8"},{"name":"priority","type":"uint8","indexed":false,"internalType":"uint8"}],"anonymous":false},{"type":"event","name":"DocumentSigned","inputs":[{"name":"documentId","type":"bytes32","indexed":true,"internalType":"bytes32"},{"name":"signer","type":"address","indexed":true,"internalType":"address"},{"name":"timestamp","type":"uint256","indexed":false,"internalType":"uint256"}],"anonymous":false},{"type":"event","name":"DocumentSignedByRepresentative","inputs":[{"name":"documentId","type":"bytes32","indexed":true,"internalType":"bytes32"},{"name":"actualSigner","type":"address","indexed":true,"internalType":"address"},{"name":"entity","type":"address","indexed":true,"internalType":"address"},{"name":"timestamp","type":"uint256","indexed":false,"internalType":"uint256"}],"anonymous":false},{"type":"error","name":"AccessControl_CallerIsNotAuthorized","inputs":[{"name":"caller","type":"address","internalType":"address"},{"name":"functionSig","type":"bytes4","internalType":"bytes4"}]},{"type":"error","name":"OfferingDocuments_AlreadySigned","inputs":[]},{"type":"error","name":"OfferingDocuments_CannotChangeTemplateAfterInvestments","inputs":[]},{"type":"error","name":"OfferingDocuments_DocumentAlreadyExists","inputs":[]},{"type":"error","name":"OfferingDocuments_DocumentNotFound","inputs":[]},{"type":"error","name":"OfferingDocuments_InvalidDocumentId","inputs":[]},{"type":"error","name":"OfferingDocuments_InvalidEligibilityMode","inputs":[]},{"type":"error","name":"OfferingDocuments_InvalidMinMax","inputs":[]},{"type":"error","name":"OfferingDocuments_InvalidRequirementIndex","inputs":[]},{"type":"error","name":"OfferingDocuments_InvalidTemplateId","inputs":[]},{"type":"error","name":"OfferingDocuments_MaxDocumentsReached","inputs":[]},{"type":"error","name":"OfferingDocuments_MinDocumentsNotMet","inputs":[]},{"type":"error","name":"OfferingDocuments_NoRequiredDocument","inputs":[]},{"type":"error","name":"OfferingDocuments_NotAuthorizedSigner","inputs":[]},{"type":"error","name":"OfferingDocuments_NotRequiredDocument","inputs":[]},{"type":"error","name":"OfferingDocuments_TemplateNotFound","inputs":[]}],"bytecode":{"object":"0x608080604052346015576123de908161001a8239f35b5f80fdfe60806040526004361015610011575f80fd5b5f358060e01c80630837d3e514611882578063129ffd211461164d578063166cba38146113f4578063251948e11461100a578063289e04d714610fb15780633c615c8914610f525780633c71354414610f2f5780635ef22e8814610f0257806364a4abd814610c0e578063921c09d714610b7d578063996d0fc314610aeb578063a36a53e61461070b578063a3a868dc14610668578063ad0bb95314610569578063b10d6b411461041b578063cc2a3b37146103985763f98a6386146100d5575f80fd5b346103945760a0366003190112610394576004356024359160ff8316808403610394576101006119d4565b6101086119e4565b906084356001600160401b03811161039457610128903690600401611968565b936001600160e01b03191661013d8133612205565b1561037e57505f5160206123895f395f51905f525485101561036f577f53f955f4c4a9361ccb46aadc7047f8c04fa3701865bfe8009fc4a965d8bec47c546103605760ff8116958684116103525761019486611a78565b50908154881161035257836101fa916101e06002956101c86001870193849061ff0082549160081b169061ff001916179055565b825462ff0000191660109190911b62ff000016178255565b9063ff00000082549160181b169063ff0000001916179055565b01948351956001600160401b03871161033e576102218761021b8354611c81565b83611ccf565b602096601f81116001146102b357916102929594939161027b8460ff957f2a1b83313d8a35d27676e4a8217bb61163f529bbbdcbf38e61eee715fe69bae79a9b5f916102a8575b508160011b915f199060031b1c19161790565b90555b6040519586956080875260808701906119f4565b93602086015260408501521660608301520390a2005b90508801515f610268565b601f198116825f52885f20905f5b81811061032657508261029298979694927f2a1b83313d8a35d27676e4a8217bb61163f529bbbdcbf38e61eee715fe69bae79a9b60ff97956001941061030e575b5050811b01905561027e565b8901515f1960f88460031b161c191690555f80610302565b888b0151835560209a8b019a600190930192016102c1565b634e487b7160e01b5f52604160045260245ffd5b6243ed5160e21b5f5260045ffd5b6339fce09f60e01b5f5260045ffd5b63cdaded6b60e01b5f5260045ffd5b631d64bc3360e11b5f523360045260245260445ffd5b5f80fd5b3461039457602036600319011261039457600435606060a06040516103bc8161192c565b8281525f60208201525f60408201525f838201525f608082015201525f5160206123895f395f51905f525481101561036f576104036103fd61041792611a78565b50611fce565b604051918291602083526020830190611a18565b0390f35b34610394576020366003190112610394575f60c060405161043b81611911565b82815260606020820152606060408201528260608201528260808201528260a082015201526004355f525f5160206123095f395f51905f5260205260405f2060405161048681611911565b8154815261049660018301611f30565b91602082019283526104aa60028201611f30565b604083019081526003820154916060840192835260018060a01b036004820154166080850190815260ff600660058401549360a088019485520154169260c0860193158015855261055a576105329061051f60405198899860208a525160208a01525160e060408a01526101008901906119f4565b9051878203601f190160608901526119f4565b93516080860152516001600160a01b031660a08501525160c084015251151560e08301520390f35b638c9c58df60e01b5f5260045ffd5b34610394575f366003190112610394575f5160206123895f395f51905f5254610591816119bd565b9061059f6040519283611947565b8082525f5160206123895f395f51905f525f9081526020830191907fe42bccf02e10141c5de39772219065f3066ef718d23aac33da8bac8a81b41ac7835b83831061064a57848660405191829160208301906020845251809152604083019060408160051b85010192915f905b82821061061b57505050500390f35b9193600191939550602061063a8192603f198a82030186528851611a18565b960192019201859493919261060c565b6003602060019261065a85611fce565b8152019201920191906105dd565b5034610394576020366003190112610394576004359060ff8216809203610394576001600160e01b03191661069d8133612205565b1561037e5750600381116106fc576020817f0764f6622260e626c96900578dffbf2a8efafae753a8dc07f47578131ae75be69260ff195f5160206123695f395f51905f525416175f5160206123695f395f51905f5255604051908152a1005b636a481c3b60e01b5f5260045ffd5b50346103945760c0366003190112610394576004356001600160401b038111610394573660238201121561039457806004013590610748826119bd565b916107566040519384611947565b8083526024602084019160051b8301019136831161039457602401905b828210610adb575050506024359081151592838303610394576107946119d4565b9261079d6119e4565b6084359060ff82168092036103945760a4356001600160401b038111610394576107cb903690600401611968565b936001600160e01b0319166107e08133612205565b1561037e5750845115610acc5760ff8091169516918583116103525785159081610ac4575b50610352577f53f955f4c4a9361ccb46aadc7047f8c04fa3701865bfe8009fc4a965d8bec47c54610360575f5160206123895f395f51905f5254956040519061084d8261192c565b858252602082019081526040820192848452606083018881526080840191825260a0840194878652600160401b8b101561033e5760018b015f5160206123895f395f51905f525561089d8b611a78565b959095610ab157518051906001600160401b03821161033e576020906108c38389611d9c565b01865f5260205f205f5b838110610a9d57505050506109519261093760ff87969461091f828096610909600160029d01995115158a9060ff801983541691151516179055565b51885461ff001916911660081b61ff0016178755565b51855462ff00001916911660101b62ff000016178455565b51825463ff0000001916911660181b63ff00000016179055565b0190518051906001600160401b03821161033e57610979826109738554611c81565b85611ccf565b602090601f8311600114610a3a576109a892915f9183610a2f575b50508160011b915f199060031b1c19161790565b90555b5f5b83518110156109e357806109c360019286611c15565b515f525f5160206123295f395f51905f526020528660405f2055016109ad565b50610a1f92507f4cf0dc7cc781403ab9f178f48c7f1c49842ef2502cc007e0620a8dc31507b94b936040519384936060855260608501906119f4565b91602084015260408301520390a2005b015190505f80610994565b90601f19831691845f52815f20925f5b818110610a855750908460019594939210610a6d575b505050811b0190556109ab565b01515f1960f88460031b161c191690555f8080610a60565b92936020600181928786015181550195019301610a4a565b6001906020845194019381840155016108cd565b634e487b7160e01b5f525f60045260245ffd5b90505f610805565b63ad064c1760e01b5f5260045ffd5b8135815260209182019101610773565b3461039457602036600319011261039457610b046118c8565b604051630bde45d160e31b81526001600160a01b039091166004820152602081602481305afa8015610b72576020915f91610b45575b506040519015158152f35b610b659150823d8411610b6b575b610b5d8183611947565b810190611f18565b82610b3a565b503d610b53565b6040513d5f823e3d90fd5b503461039457602036600319011261039457610b976118c8565b906001600160e01b031916610bac8133612205565b1561037e57505f5160206123695f395f51905f528054610100600160a81b031916600883901b610100600160a81b03161790556001600160a01b03167f616b9ff2d063e472a3ae2c9607792d0804fbb5508f09b155d6977ecce1e8e65d5f80a2005b503461039457602036600319011261039457600435906001600160e01b031916610c388133612205565b1561037e57505f5160206123895f395f51905f525481101561036f577f53f955f4c4a9361ccb46aadc7047f8c04fa3701865bfe8009fc4a965d8bec47c5461036057610c8c610c8682611a78565b50611c37565b905f5b8251811015610cc55780610ca560019285611c15565b515f525f5160206123295f395f51905f526020525f604081205501610c8f565b505f5160206123895f395f51905f52545f198101908111610eee57808203610de7575b505f5160206123895f395f51905f52548015610dd3575f1901610d0a81611a78565b610ab15780545f825580610daf575b50805f6001600293015501610d2e8154611c81565b9081610d6c575b50505f5160206123895f395f51905f52557f6a21b0a8b8e78126c1a884f11d00ea9ebb13315d1085f55a5210b7a90d34d4ce5f80a2005b81601f5f9311600114610d835750555b8280610d35565b81835260208320610d9f91601f0160051c810190600101611cb9565b8082528160208120915555610d7c565b815f5260205f20908101905b818110610dc85750610d19565b5f8155600101610dbb565b634e487b7160e01b5f52603160045260245ffd5b610df090611a78565b50610dfa82611a78565b610ab157818103610e54575b5050610e14610c8682611a78565b5f5b8151811015610e4c5780610e2c60019284611c15565b515f525f5160206123295f395f51905f526020528360405f205501610e16565b505081610ce8565b60028083610e65610ee79585611ddc565b610edf6001850160ff60018401610e8b82825416849060ff801983541691151516179055565b8054835461ff001916600891821c841690911b61ff00161783558054835462ff00001916601091821c841690911b62ff0000161783555460181c1663ff00000082549160181b169063ff0000001916179055565b019101611e39565b8180610e06565b634e487b7160e01b5f52601160045260245ffd5b34610394576020366003190112610394576020610f25610f206118c8565b611d34565b6040519015158152f35b34610394576020366003190112610394576020610f25610f4d6118c8565b611d12565b34610394576020366003190112610394576020610fa8610f706118c8565b6001600160a01b03165f9081527f53f955f4c4a9361ccb46aadc7047f8c04fa3701865bfe8009fc4a965d8bec48f6020526040902090565b54604051908152f35b3461039457604036600319011261039457610fca6118c8565b6024355f525f5160206123495f395f51905f5260205260405f209060018060a01b03165f5260205260406002815f20015481519080151582526020820152f35b346103945760a0366003190112610394576004356044356001600160401b0381116103945761103d903690600401611968565b6064356001600160401b0381116103945761105c903690600401611968565b916084359181156113e557815f525f5160206123095f395f51905f5260205260ff600660405f200154166113d6575f5f5f5160206123895f395f51905f52545b808210611372575b50501561136357604051906110b882611911565b6024358252602082019081526040820185815260608301858152608084019033825260a085019242845260c086019460018652875f525f5160206123095f395f51905f5260205260405f20965187556001870190518051906001600160401b03821161033e5761112c826109738554611c81565b602090601f83116001146113005761115a92915f91836112f55750508160011b915f199060031b1c19161790565b90555b51805160028701916001600160401b03821161033e57611181826109738554611c81565b602090601f8311600114611287578260069795936112059a999795936111bb935f9261127c5750508160011b915f199060031b1c19161790565b90555b516003860155516004850180546001600160a01b039092166001600160a01b0319909216919091179055516005840155519101805460ff191691151560ff16919091179055565b61120e33611bdd565b8054600160401b81101561033e5761122b91600182018155611b0a565b81549060031b9083821b915f19901b19161790557ff2c80f448c6d4e755b20ce6bb42b87856d578da264519d604797a0301ed55dcc6040516020815280611277339660208301906119f4565b0390a4005b015190508e80610994565b90601f19831691845f52815f20925f5b8181106112dd575092600192859260069a98966112059d9c9a9896106112c5575b505050811b0190556111be565b01515f1960f88460031b161c191690558d80806112b8565b92936020600181928786015181550195019301611297565b015190508d80610994565b90601f19831691845f52815f20925f5b81811061134b5750908460019594939210611333575b505050811b01905561115d565b01515f1960f88460031b161c191690558c8080611326565b92936020600181928786015181550195019301611310565b63f74fef5960e01b5f5260045ffd5b611383610c86839694979593611a78565b905f5b82518110156113c8578561139a8285611c15565b51146113a857600101611386565b509193955050600193919391825b6113c3576001019061109c565b6110a4565b5091939580939591506113b6565b63426e592760e11b5f5260045ffd5b63126d712360e11b5f5260045ffd5b34610394576020366003190112610394576004355f5160206123895f395f51905f52541561163e57805f525f5160206123095f395f51905f5260205260405f2060ff6006820154161561055a5760030154805f525f5160206123295f395f51905f5260205260405f20545f61146882611a78565b50805490935f5b828110611611575b50505015611602575f8381525f5160206123495f395f51905f52602090815260408083203384529091529020600201546115f35760016114b960ff923361202a565b92015460101c1611156115e4576114cf33612132565b156115d55760405160808101908082106001600160401b0383111761033e576040918252338082525f602080840182815242858701818152606087018581528986525f5160206123495f395f51905f5285528886208787528552888620975188546001600160a01b039182166001600160a01b0319918216178a55945160018a0180549190921695169490941790935551600287015590516003909501805460ff191695151560ff16959095179094557f53f955f4c4a9361ccb46aadc7047f8c04fa3701865bfe8009fc4a965d8bec48f815290849020859055925191825292917fcb4765881b79e3f3e656357a384db0c5ebdbdad01ab9fbc82ea10f38b7730dbc91a3005b6385f8b9bd60e01b5f5260045ffd5b630fa525eb60e11b5f5260045ffd5b634015883f60e11b5f5260045ffd5b6320093bf560e11b5f5260045ffd5b8161161c8288611b0a565b90549060031b1c146116305760010161146f565b505050506001848080611477565b631fc32dab60e11b5f5260045ffd5b34610394576020366003190112610394576116666118c8565b5f5160206123895f395f51905f525461167e816119bd565b9161168c6040519384611947565b818352601f1961169b836119bd565b015f5b8181106118715750505f5b82811061171757836040518091602082016020835281518091526040830190602060408260051b8601019301915f905b8282106116e857505050500390f35b919360019193955060206117078192603f198a820301865288516118de565b96019201920185949391926116d9565b61172081611a78565b5080549061172d82611bab565b915f915f5b8281106117915750505061174581611bab565b915f5b82811061177257505050906001916117608287611c15565b5261176b8186611c15565b50016116a9565b8061177f60019284611c15565b5161178a8287611c15565b5201611748565b61179b8183611b0a565b90549060031b1c6117ab88611bdd565b805490915f5b8281106117c5575b50505050600101611732565b6117cf8185611b0a565b90549060031b1c5f525f5160206123095f395f51905f5260205281600360405f200154148061182b575b611805576001016117b1565b50611821925086915061181b6001949789611c15565b52611c29565b93908a80806117b9565b506118368185611b0a565b90549060031b1c5f525f5160206123495f395f51905f5260205260405f2060018060a01b038c165f52602052600260405f20015415156117f9565b80606060208093880101520161169e565b34610394575f3660031901126103945761189a611b2e565b9060405190815260048210156118b4576040916020820152f35b634e487b7160e01b5f52602160045260245ffd5b600435906001600160a01b038216820361039457565b90602080835192838152019201905f5b8181106118fb5750505090565b82518452602093840193909201916001016118ee565b60e081019081106001600160401b0382111761033e57604052565b60c081019081106001600160401b0382111761033e57604052565b90601f801991011681019081106001600160401b0382111761033e57604052565b81601f82011215610394578035906001600160401b03821161033e576040519261199c601f8401601f191660200185611947565b8284526020838301011161039457815f926020809301838601378301015290565b6001600160401b03811161033e5760051b60200190565b6044359060ff8216820361039457565b6064359060ff8216820361039457565b805180835260209291819084018484015e5f828201840152601f01601f1916010190565b611a759160a0611a31835160c0845260c08401906118de565b9260208101511515602084015260ff604082015116604084015260ff606082015116606084015260ff608082015116608084015201519060a08184039101526119f4565b90565b5f5160206123895f395f51905f5254811015611aac575f5160206123895f395f51905f525f52600360205f20910201905f90565b634e487b7160e01b5f52603260045260245ffd5b5f5160206123895f395f51905f525415611aac575f5160206123895f395f51905f525f9081527fe42bccf02e10141c5de39772219065f3066ef718d23aac33da8bac8a81b41ac791565b8054821015611aac575f5260205f2001905f90565b60ff1660048110156118b45790565b5f5160206123895f395f51905f5254151580611b99575b611b6757611b6360ff5f5160206123695f395f51905f525416611b1f565b5f91565b611b6f611ac0565b50805415611aac575f5260205f205490611a7560ff5f5160206123695f395f51905f525416611b1f565b50611ba2611ac0565b50541515611b45565b90611bb5826119bd565b611bc26040519182611947565b8281528092611bd3601f19916119bd565b0190602036910137565b6001600160a01b03165f9081527f53f955f4c4a9361ccb46aadc7047f8c04fa3701865bfe8009fc4a965d8bec4916020526040902090565b8051821015611aac5760209160051b010190565b5f198114610eee5760010190565b90604051918281549182825260208201905f5260205f20925f5b818110611c68575050611c6692500383611947565b565b8454835260019485019487945060209093019201611c51565b90600182811c92168015611caf575b6020831014611c9b57565b634e487b7160e01b5f52602260045260245ffd5b91607f1691611c90565b818110611cc4575050565b5f8155600101611cb9565b9190601f8111611cde57505050565b611c66925f5260205f20906020601f840160051c83019310611d08575b601f0160051c0190611cb9565b9091508190611cfb565b5f5160206123895f395f51905f525415611d2f57611a7590612132565b505f90565b5f5160206123895f395f51905f5254905f5b828110611d5557505050600190565b6001611d6082611a78565b50015460ff811615611d935760ff611d78838561202a565b9160081c1611611d8c576001905b01611d46565b5050505f90565b50600190611d86565b90600160401b811161033e57815491818155828210611dba57505050565b5f5260205f2091820191015b818110611dd1575050565b5f8155600101611dc6565b818114611e35578154916001600160401b03831161033e57611dfe8383611d9c565b5f5260205f20905f5260205f208154915f925b848410611e1f575050505050565b6001809192019384549281850155019290611e11565b5050565b919091828114611f1357611e4d8354611c81565b6001600160401b03811161033e57611e6f81611e698454611c81565b84611ccf565b5f93601f8211600114611ead57611e9e92939482915f92611ea25750508160011b915f199060031b1c19161790565b9055565b015490505f80610994565b601f198216905f5260205f2094835f5260205f20915f5b818110611efb57509583600195969710611ee3575b505050811b019055565b01545f1960f88460031b161c191690555f8080611ed9565b9192600180602092868b015481550194019201611ec4565b509050565b90816020910312610394575180151581036103945790565b9060405191825f825492611f4384611c81565b8084529360018116908115611fac5750600114611f68575b50611c6692500383611947565b90505f9291925260205f20905f915b818310611f90575050906020611c66928201015f611f5b565b6020919350806001915483858901015201910190918492611f77565b905060209250611c6694915060ff191682840152151560051b8201015f611f5b565b90604051611fdb8161192c565b60a061202560028395611fed81611c37565b855260ff600182015481811615156020880152818160081c166040880152818160101c16606088015260181c16608086015201611f30565b910152565b5f915f5160206123895f395f51905f5254811015611d8c5761204b90611a78565b508054905f5b82811061205f575050505090565b6120698183611b0a565b90549060031b1c61207985611bdd565b8054905f5b828110612092575b50505050600101612051565b61209c8183611b0a565b90549060031b1c5f525f5160206123095f395f51905f5260205283600360405f20015414806120ec575b6120d25760010161207e565b50505050936120e2600191611c29565b94905f8080612086565b506120f78183611b0a565b90549060031b1c5f525f5160206123495f395f51905f5260205260405f2060018060a01b0389165f52602052600260405f20015415156120c6565b5f5160206123695f395f51905f525461214d60ff8216611b1f565b60048110156118b4576001810361216657505050600190565b6002810361217657505050600190565b600381036121f5575060081c6001600160a01b03169081156121ef576040516366e305fd60e01b81526001600160a01b03909116600482015290602090829060249082905afa5f91816121ce575b50611a7557505f90565b6121e891925060203d602011610b6b57610b5d8183611947565b905f6121c4565b50505f90565b91505015612201575f90565b5f90565b60018060a01b0381165f527f35edad4c931e57ec40cedc90b9e3e052832d1b49c07eb789b019aea9b39c91d960205260405f20549163ffffffff60e01b165f527f35edad4c931e57ec40cedc90b9e3e052832d1b49c07eb789b019aea9b39c91da60205260405f20549081156122c4576001600160a01b03165f9081527f35edad4c931e57ec40cedc90b9e3e052832d1b49c07eb789b019aea9b39c91d9602052604090205460011615159182156122bc57505090565b161515919050565b6001600160a01b03165f9081527f35edad4c931e57ec40cedc90b9e3e052832d1b49c07eb789b019aea9b39c91d9602052604090205460011615159150611a75905056fe53f955f4c4a9361ccb46aadc7047f8c04fa3701865bfe8009fc4a965d8bec48e53f955f4c4a9361ccb46aadc7047f8c04fa3701865bfe8009fc4a965d8bec48c53f955f4c4a9361ccb46aadc7047f8c04fa3701865bfe8009fc4a965d8bec49053f955f4c4a9361ccb46aadc7047f8c04fa3701865bfe8009fc4a965d8bec48d53f955f4c4a9361ccb46aadc7047f8c04fa3701865bfe8009fc4a965d8bec48ba264697066735822122044c4588cb576d4d6c2095d1f8fd06d7050e70e2bb64b5a0bdcf7a802cb74650464736f6c634300081e0033","linkReferences":{}},"methodIdentifiers":{"addDocumentRequirement(bytes32[],bool,uint8,uint8,uint8,string)":"a36a53e6","canSignRequiredDocument(address)":"3c713544","createDocument(bytes32,bytes32,string,string,bytes32)":"251948e1","getDocument(bytes32)":"b10d6b41","getDocumentRequirement(uint256)":"cc2a3b37","getDocumentRequirements()":"ad0bb953","getInvestorSignedDocument(address)":"3c615c89","getInvestorSignedDocumentsByGroup(address)":"129ffd21","getRequiredDocumentInfo()":"0837d3e5","hasSignedAllRequiredDocuments(address)":"5ef22e88","hasSignedDocument(address,bytes32)":"289e04d7","hasSignedRequiredDocument(address)":"996d0fc3","removeDocumentRequirement(uint256)":"64a4abd8","setCustomEligibilityModule(address)":"921c09d7","setDocumentEligibilityMode(uint8)":"a3a868dc","signDocument(bytes32)":"166cba38","updateDocumentRequirement(uint256,uint8,uint8,uint8,string)":"f98a6386"},"id":45}