{"abi":[{"type":"function","name":"OfferingCore_init","inputs":[{"name":"issuer","type":"address","internalType":"address"},{"name":"tokenAddress","type":"address","internalType":"address"},{"name":"paymentToken","type":"address","internalType":"address"},{"name":"paymentRecipient","type":"address","internalType":"address"},{"name":"pricePerToken","type":"uint256","internalType":"uint256"},{"name":"minInvestment","type":"uint256","internalType":"uint256"},{"name":"maxAmount","type":"uint256","internalType":"uint256"},{"name":"deadline","type":"uint256","internalType":"uint256"},{"name":"uri","type":"string","internalType":"string"}],"outputs":[],"stateMutability":"nonpayable"},{"type":"function","name":"OfferingCore_initCommitmentBased","inputs":[{"name":"issuer","type":"address","internalType":"address"},{"name":"tokenAddress","type":"address","internalType":"address"},{"name":"paymentToken","type":"address","internalType":"address"},{"name":"paymentRecipient","type":"address","internalType":"address"},{"name":"pricePerToken","type":"uint256","internalType":"uint256"},{"name":"minInvestment","type":"uint256","internalType":"uint256"},{"name":"maxAmount","type":"uint256","internalType":"uint256"},{"name":"deadline","type":"uint256","internalType":"uint256"},{"name":"uri","type":"string","internalType":"string"}],"outputs":[],"stateMutability":"nonpayable"},{"type":"function","name":"attachInvestmentAgreement","inputs":[{"name":"investmentId","type":"uint256","internalType":"uint256"},{"name":"documentUID","type":"bytes32","internalType":"bytes32"}],"outputs":[],"stateMutability":"nonpayable"},{"type":"function","name":"claimRefund","inputs":[{"name":"investmentId","type":"uint256","internalType":"uint256"}],"outputs":[],"stateMutability":"nonpayable"},{"type":"function","name":"commitToOffering","inputs":[{"name":"commitmentAmount","type":"uint256","internalType":"uint256"},{"name":"attestationUIDs","type":"bytes32[]","internalType":"bytes32[]"}],"outputs":[{"name":"investmentId","type":"uint256","internalType":"uint256"}],"stateMutability":"nonpayable"},{"type":"function","name":"countersignInvestment","inputs":[{"name":"investmentId","type":"uint256","internalType":"uint256"}],"outputs":[],"stateMutability":"nonpayable"},{"type":"function","name":"extendDeadline","inputs":[{"name":"newDeadline","type":"uint256","internalType":"uint256"}],"outputs":[],"stateMutability":"nonpayable"},{"type":"function","name":"getAllInvestors","inputs":[],"outputs":[{"name":"investors","type":"address[]","internalType":"address[]"}],"stateMutability":"view"},{"type":"function","name":"getDocumentSignerRole","inputs":[],"outputs":[{"name":"roleId","type":"uint8","internalType":"uint8"}],"stateMutability":"view"},{"type":"function","name":"getInvestment","inputs":[{"name":"investmentId","type":"uint256","internalType":"uint256"}],"outputs":[{"name":"investment","type":"tuple","internalType":"struct OfferingStorage.Investment","components":[{"name":"investor","type":"address","internalType":"address"},{"name":"amount","type":"uint256","internalType":"uint256"},{"name":"tokenQuantity","type":"uint256","internalType":"uint256"},{"name":"pricePerToken","type":"uint256","internalType":"uint256"},{"name":"timestamp","type":"uint256","internalType":"uint256"},{"name":"status","type":"uint8","internalType":"enum OfferingStorage.InvestmentStatus"},{"name":"paymentEscrowed","type":"bool","internalType":"bool"},{"name":"subscriptionAgreementRef","type":"bytes32","internalType":"bytes32"},{"name":"issuedLotId","type":"bytes32","internalType":"bytes32"}]}],"stateMutability":"view"},{"type":"function","name":"getInvestorCapitalContributed","inputs":[{"name":"investor","type":"address","internalType":"address"}],"outputs":[{"name":"capitalContributed","type":"uint256","internalType":"uint256"}],"stateMutability":"view"},{"type":"function","name":"getInvestorCommitment","inputs":[{"name":"investor","type":"address","internalType":"address"}],"outputs":[{"name":"commitmentAmount","type":"uint256","internalType":"uint256"}],"stateMutability":"view"},{"type":"function","name":"getInvestorInvestments","inputs":[{"name":"investor","type":"address","internalType":"address"}],"outputs":[{"name":"investmentIds","type":"uint256[]","internalType":"uint256[]"}],"stateMutability":"view"},{"type":"function","name":"getInvestorPaymentTotal","inputs":[{"name":"investor","type":"address","internalType":"address"}],"outputs":[{"name":"totalPayments","type":"uint256","internalType":"uint256"}],"stateMutability":"view"},{"type":"function","name":"getInvestorTotalInvestment","inputs":[{"name":"investor","type":"address","internalType":"address"}],"outputs":[{"name":"totalAmount","type":"uint256","internalType":"uint256"}],"stateMutability":"view"},{"type":"function","name":"getInvestorUnfundedCommitment","inputs":[{"name":"investor","type":"address","internalType":"address"}],"outputs":[{"name":"unfundedAmount","type":"uint256","internalType":"uint256"}],"stateMutability":"view"},{"type":"function","name":"getOfferingInfo","inputs":[],"outputs":[{"name":"info","type":"tuple","internalType":"struct OfferingStorage.OfferingInfo","components":[{"name":"issuer","type":"address","internalType":"address"},{"name":"tokenAddress","type":"address","internalType":"address"},{"name":"paymentToken","type":"address","internalType":"address"},{"name":"paymentRecipient","type":"address","internalType":"address"},{"name":"pricePerToken","type":"uint256","internalType":"uint256"},{"name":"minInvestment","type":"uint256","internalType":"uint256"},{"name":"maxAmount","type":"uint256","internalType":"uint256"},{"name":"deadline","type":"uint256","internalType":"uint256"},{"name":"totalInvested","type":"uint256","internalType":"uint256"},{"name":"investorCount","type":"uint256","internalType":"uint256"},{"name":"status","type":"uint8","internalType":"enum OfferingStorage.OfferingStatus"},{"name":"uri","type":"string","internalType":"string"},{"name":"isCommitmentBased","type":"bool","internalType":"bool"}]}],"stateMutability":"view"},{"type":"function","name":"getPaymentInfo","inputs":[],"outputs":[{"name":"paymentToken","type":"address","internalType":"address"},{"name":"paymentRecipient","type":"address","internalType":"address"},{"name":"totalPaymentsReceived","type":"uint256","internalType":"uint256"}],"stateMutability":"view"},{"type":"function","name":"getTotalCommitted","inputs":[],"outputs":[{"name":"totalCommitted","type":"uint256","internalType":"uint256"}],"stateMutability":"view"},{"type":"function","name":"invest","inputs":[{"name":"amount","type":"uint256","internalType":"uint256"},{"name":"attestationUIDs","type":"bytes32[]","internalType":"bytes32[]"}],"outputs":[{"name":"investmentId","type":"uint256","internalType":"uint256"}],"stateMutability":"payable"},{"type":"function","name":"isCommitmentBased","inputs":[],"outputs":[{"name":"","type":"bool","internalType":"bool"}],"stateMutability":"view"},{"type":"function","name":"packedSelectors","inputs":[],"outputs":[{"name":"","type":"bytes","internalType":"bytes"}],"stateMutability":"pure"},{"type":"function","name":"recordCapitalContribution","inputs":[{"name":"investor","type":"address","internalType":"address"},{"name":"amount","type":"uint256","internalType":"uint256"}],"outputs":[],"stateMutability":"nonpayable"},{"type":"function","name":"rejectInvestment","inputs":[{"name":"investmentId","type":"uint256","internalType":"uint256"}],"outputs":[],"stateMutability":"nonpayable"},{"type":"function","name":"setDocumentSignerRole","inputs":[{"name":"roleId","type":"uint8","internalType":"uint8"}],"outputs":[],"stateMutability":"nonpayable"},{"type":"function","name":"updateMinMaxInvestment","inputs":[{"name":"newMinInvestment","type":"uint256","internalType":"uint256"},{"name":"newMaxAmount","type":"uint256","internalType":"uint256"}],"outputs":[],"stateMutability":"nonpayable"},{"type":"function","name":"updateOfferingStatus","inputs":[{"name":"newStatus","type":"uint8","internalType":"enum OfferingStorage.OfferingStatus"}],"outputs":[],"stateMutability":"nonpayable"},{"type":"function","name":"updateOfferingURI","inputs":[{"name":"newURI","type":"string","internalType":"string"}],"outputs":[],"stateMutability":"nonpayable"},{"type":"function","name":"updatePaymentRecipient","inputs":[{"name":"newRecipient","type":"address","internalType":"address"}],"outputs":[],"stateMutability":"nonpayable"},{"type":"function","name":"updatePricePerToken","inputs":[{"name":"newPrice","type":"uint256","internalType":"uint256"}],"outputs":[],"stateMutability":"nonpayable"},{"type":"event","name":"CommitmentContribution","inputs":[{"name":"investor","type":"address","indexed":true,"internalType":"address"},{"name":"amount","type":"uint256","indexed":false,"internalType":"uint256"},{"name":"totalContributed","type":"uint256","indexed":false,"internalType":"uint256"},{"name":"remainingCommitment","type":"uint256","indexed":false,"internalType":"uint256"}],"anonymous":false},{"type":"event","name":"CommitmentMade","inputs":[{"name":"investor","type":"address","indexed":true,"internalType":"address"},{"name":"investmentId","type":"uint256","indexed":true,"internalType":"uint256"},{"name":"commitmentAmount","type":"uint256","indexed":false,"internalType":"uint256"},{"name":"tokenQuantity","type":"uint256","indexed":false,"internalType":"uint256"},{"name":"subscriptionAgreementRef","type":"bytes32","indexed":false,"internalType":"bytes32"}],"anonymous":false},{"type":"event","name":"DeadlineExtended","inputs":[{"name":"oldDeadline","type":"uint256","indexed":false,"internalType":"uint256"},{"name":"newDeadline","type":"uint256","indexed":false,"internalType":"uint256"}],"anonymous":false},{"type":"event","name":"DocumentSigned","inputs":[{"name":"documentId","type":"bytes32","indexed":true,"internalType":"bytes32"},{"name":"signer","type":"address","indexed":true,"internalType":"address"},{"name":"timestamp","type":"uint256","indexed":false,"internalType":"uint256"}],"anonymous":false},{"type":"event","name":"DocumentSignerRoleUpdated","inputs":[{"name":"roleId","type":"uint8","indexed":false,"internalType":"uint8"}],"anonymous":false},{"type":"event","name":"FundsDeposited","inputs":[{"name":"investor","type":"address","indexed":true,"internalType":"address"},{"name":"investmentId","type":"uint256","indexed":true,"internalType":"uint256"},{"name":"amount","type":"uint256","indexed":false,"internalType":"uint256"},{"name":"tokenQuantity","type":"uint256","indexed":false,"internalType":"uint256"},{"name":"identityUID","type":"bytes32","indexed":false,"internalType":"bytes32"},{"name":"qualificationUID","type":"bytes32","indexed":false,"internalType":"bytes32"}],"anonymous":false},{"type":"event","name":"InvestmentAccepted","inputs":[{"name":"investmentId","type":"uint256","indexed":true,"internalType":"uint256"},{"name":"issuer","type":"address","indexed":true,"internalType":"address"},{"name":"investor","type":"address","indexed":true,"internalType":"address"}],"anonymous":false},{"type":"event","name":"InvestmentAgreementAttached","inputs":[{"name":"investmentId","type":"uint256","indexed":true,"internalType":"uint256"},{"name":"documentUID","type":"bytes32","indexed":false,"internalType":"bytes32"}],"anonymous":false},{"type":"event","name":"InvestmentAgreementExecuted","inputs":[{"name":"investmentId","type":"uint256","indexed":true,"internalType":"uint256"},{"name":"investor","type":"address","indexed":true,"internalType":"address"},{"name":"issuer","type":"address","indexed":true,"internalType":"address"},{"name":"amount","type":"uint256","indexed":false,"internalType":"uint256"},{"name":"tokenQuantity","type":"uint256","indexed":false,"internalType":"uint256"},{"name":"pricePerToken","type":"uint256","indexed":false,"internalType":"uint256"},{"name":"subscriptionAgreementRef","type":"bytes32","indexed":false,"internalType":"bytes32"}],"anonymous":false},{"type":"event","name":"InvestmentRefunded","inputs":[{"name":"investmentId","type":"uint256","indexed":true,"internalType":"uint256"},{"name":"investor","type":"address","indexed":true,"internalType":"address"}],"anonymous":false},{"type":"event","name":"InvestmentRejected","inputs":[{"name":"investmentId","type":"uint256","indexed":true,"internalType":"uint256"},{"name":"issuer","type":"address","indexed":true,"internalType":"address"},{"name":"investor","type":"address","indexed":true,"internalType":"address"}],"anonymous":false},{"type":"event","name":"MinMaxInvestmentUpdated","inputs":[{"name":"oldMin","type":"uint256","indexed":false,"internalType":"uint256"},{"name":"newMin","type":"uint256","indexed":false,"internalType":"uint256"},{"name":"oldMax","type":"uint256","indexed":false,"internalType":"uint256"},{"name":"newMax","type":"uint256","indexed":false,"internalType":"uint256"}],"anonymous":false},{"type":"event","name":"OfferingInitialized","inputs":[{"name":"issuer","type":"address","indexed":true,"internalType":"address"},{"name":"token","type":"address","indexed":true,"internalType":"address"},{"name":"paymentToken","type":"address","indexed":false,"internalType":"address"},{"name":"paymentRecipient","type":"address","indexed":false,"internalType":"address"},{"name":"pricePerToken","type":"uint256","indexed":false,"internalType":"uint256"},{"name":"minInvestment","type":"uint256","indexed":false,"internalType":"uint256"},{"name":"maxAmount","type":"uint256","indexed":false,"internalType":"uint256"},{"name":"deadline","type":"uint256","indexed":false,"internalType":"uint256"},{"name":"uri","type":"string","indexed":false,"internalType":"string"}],"anonymous":false},{"type":"event","name":"OfferingStatusChanged","inputs":[{"name":"oldStatus","type":"uint8","indexed":false,"internalType":"enum OfferingStorage.OfferingStatus"},{"name":"newStatus","type":"uint8","indexed":false,"internalType":"enum OfferingStorage.OfferingStatus"}],"anonymous":false},{"type":"event","name":"OfferingURIUpdated","inputs":[{"name":"oldURI","type":"string","indexed":false,"internalType":"string"},{"name":"newURI","type":"string","indexed":false,"internalType":"string"}],"anonymous":false},{"type":"event","name":"PaymentRecipientUpdated","inputs":[{"name":"oldRecipient","type":"address","indexed":true,"internalType":"address"},{"name":"newRecipient","type":"address","indexed":true,"internalType":"address"}],"anonymous":false},{"type":"event","name":"PricePerTokenUpdated","inputs":[{"name":"oldPrice","type":"uint256","indexed":false,"internalType":"uint256"},{"name":"newPrice","type":"uint256","indexed":false,"internalType":"uint256"}],"anonymous":false},{"type":"event","name":"TokensIssued","inputs":[{"name":"investmentId","type":"uint256","indexed":true,"internalType":"uint256"},{"name":"investor","type":"address","indexed":true,"internalType":"address"},{"name":"tokenQuantity","type":"uint256","indexed":false,"internalType":"uint256"},{"name":"lotId","type":"bytes32","indexed":true,"internalType":"bytes32"}],"anonymous":false},{"type":"event","name":"UserRoleUpdated","inputs":[{"name":"user","type":"address","indexed":true,"internalType":"address"},{"name":"role","type":"uint8","indexed":true,"internalType":"uint8"},{"name":"enabled","type":"bool","indexed":false,"internalType":"bool"}],"anonymous":false},{"type":"error","name":"OfferingCore_AlreadyCountersigned","inputs":[]},{"type":"error","name":"OfferingCore_AlreadyInitialized","inputs":[]},{"type":"error","name":"OfferingCore_AlreadyProcessed","inputs":[]},{"type":"error","name":"OfferingCore_BelowMinimumInvestment","inputs":[]},{"type":"error","name":"OfferingCore_CannotCancelWithFunds","inputs":[]},{"type":"error","name":"OfferingCore_CannotUpdateWithInvestments","inputs":[]},{"type":"error","name":"OfferingCore_DeadlineCannotBeReduced","inputs":[]},{"type":"error","name":"OfferingCore_DeadlinePassed","inputs":[]},{"type":"error","name":"OfferingCore_DocumentSignatureRequired","inputs":[]},{"type":"error","name":"OfferingCore_ETHTransferFailed","inputs":[]},{"type":"error","name":"OfferingCore_EscrowAmountMismatch","inputs":[]},{"type":"error","name":"OfferingCore_ExceedsCommitment","inputs":[]},{"type":"error","name":"OfferingCore_ExceedsMaximumAmount","inputs":[]},{"type":"error","name":"OfferingCore_GracePeriodNotExpired","inputs":[]},{"type":"error","name":"OfferingCore_IncorrectETHAmount","inputs":[]},{"type":"error","name":"OfferingCore_InvalidAttestation","inputs":[]},{"type":"error","name":"OfferingCore_InvalidDeadline","inputs":[]},{"type":"error","name":"OfferingCore_InvalidMinMaxValues","inputs":[]},{"type":"error","name":"OfferingCore_InvalidPrice","inputs":[]},{"type":"error","name":"OfferingCore_InvalidRecipient","inputs":[]},{"type":"error","name":"OfferingCore_InvestmentNotFound","inputs":[]},{"type":"error","name":"OfferingCore_InvestmentTooSmall","inputs":[]},{"type":"error","name":"OfferingCore_IsCommitmentBased","inputs":[]},{"type":"error","name":"OfferingCore_NoCommitment","inputs":[]},{"type":"error","name":"OfferingCore_NoETHExpected","inputs":[]},{"type":"error","name":"OfferingCore_NotAuthorized","inputs":[]},{"type":"error","name":"OfferingCore_NotCommitmentBased","inputs":[]},{"type":"error","name":"OfferingCore_NotInvestor","inputs":[]},{"type":"error","name":"OfferingCore_OfferingNotActive","inputs":[]},{"type":"error","name":"OfferingCore_PaymentNotInEscrow","inputs":[]},{"type":"error","name":"OfferingCore_TokenIssuanceFailed","inputs":[]},{"type":"error","name":"OfferingCore_UnsupportedOfferingType","inputs":[]},{"type":"error","name":"ReentrancyGuard_ReentrantCall","inputs":[]}],"bytecode":{"object":"0x60808060405234601557614423908161001a8239f35b5f80fdfe60806040526004361015610011575f80fd5b5f3560e01c806244eff4146101f357806304da3f19146101ee57806309a3352f146101e957806316268c28146101e457806322ae634f146101df578063307e093f146101da578063389b7533146101d55780633c33077c146101d05780633e62267c146101cb57806341833250146101c65780634c431f00146101c157806353021d95146101bc5780635b7baf64146101b7578063788fe028146101b25780638ec294a0146101ad578063a2a47c2b146101a8578063aae0b1e0146101a3578063ab4b39291461019e578063ad7724f214610199578063b7855ce314610194578063b7a184401461018f578063b80f3f551461018a578063b9886acd14610185578063c5eb0ce014610180578063d0a2f2c41461017b578063d2a641e414610176578063e72dd39814610171578063ed4bdf4c1461016c578063eee7a047146101675763f0fb56a814610162575f80fd5b612123565b6120e4565b6120bd565b611f15565b611e68565b611dd3565b611c49565b611a16565b6116a7565b6114f2565b611495565b61143b565b61134d565b6110fb565b610ed7565b610e32565b610c5c565b610b6a565b610b3a565b610ac4565b610a5d565b6108b4565b6107b2565b6106f6565b6106cd565b610639565b6104d3565b61041c565b6103a9565b61031e565b634e487b7160e01b5f52602160045260245ffd5b6004111561021657565b6101f8565b906102258261020c565b52565b805180835260209291819084018484015e5f828201840152601f01601f1916010190565b602080825282516001600160a01b03169082015261031b9060208301516001600160a01b0316604082015260408301516001600160a01b0316606082015260608301516001600160a01b03166080820152608083015160a082015260a083015160c082015260c083015160e082015260e08301516101008201526101008301516101208201526101208301516101408201526102f261014084015161016083019061021b565b6101a061018061031161016086015183838601526101c0850190610228565b9401511515910152565b90565b346103a5575f3660031901126103a5575f61018060405161033e81610f8f565b8281528260208201528260408201528260608201528260808201528260a08201528260c08201528260e0820152826101008201528261012082015282610140820152606061016082015201526103a1610395612376565b6040519182918261024c565b0390f35b5f80fd5b346103a5575f3660031901126103a5575f5160206141ce5f395f51905f52545f5160206143ce5f395f51905f52547f0fa078836d60d6f1a26f9c39e4aa04fc112fb285ab1bb896760cc332f16a2bea54604080516001600160a01b03948516815293909216602084015290820152606090f35b346103a55760403660031901126103a55760043560243561043b612cca565b156104c4575f8281527f0fa078836d60d6f1a26f9c39e4aa04fc112fb285ab1bb896760cc332f16a2be56020526040902080546001600160a01b0316156104b5576006018190556040519081527f86a3fe58abd946870b0d070e20ef781722a19d2a156d907bfe478ec44278b7d39080602081015b0390a2005b631286942360e11b5f5260045ffd5b637f3d721d60e11b5f5260045ffd5b346103a55760203660031901126103a55760043560048110156103a5576104ff6104fb612cca565b1590565b6104c45761050c8161020c565b6003811461056c575b7f090dc240b6971396472961dc185f630e0a38a8785c5c37c22b858ac2255a7fbb9061054f5f5160206142ae5f395f51905f525460ff1690565b61055882612621565b6105676040519283928361266a565b0390a1005b5f51602061416e5f395f51905f52545f5160206141ce5f395f51905f52546001600160a01b0316806105ae575b501561051557631072e72d60e21b5f5260045ffd5b906105bb6105c292612510565b5490612614565b5f610599565b9190916101008061012083019460018060a01b0381511684526020810151602085015260408101516040850152606081015160608501526080810151608085015260a08101516106178161020c565b60a085015260c08181015115159085015260e081015160e08501520151910152565b346103a55760203660031901126103a5576004355f61010060405161065d81610fb0565b8281528260208201528260408201528260608201528260808201528260a08201528260c08201528260e082015201525f527f0fa078836d60d6f1a26f9c39e4aa04fc112fb285ab1bb896760cc332f16a2be56020526103a16106c160405f2061268d565b604051918291826105c8565b346103a5575f3660031901126103a55760205f51602061422e5f395f51905f5254604051908152f35b346103a55760203660031901126103a557600435610712612cca565b156104c4575f51602061420e5f395f51905f525490818111156107925742811115610783575f51602061420e5f395f51905f528190556040805192835260208301919091527f073d5fd87a7e0c2a384727f9aab2e84826370623aba582638b425a417e799a2c919081908101610567565b632c4f3c6d60e11b5f5260045ffd5b6337ed839560e01b5f5260045ffd5b6001600160a01b038116036103a557565b346103a55760203660031901126103a5576004356107cf816107a1565b6107da6104fb612cca565b6104c4576001600160a01b038116908115610894575f51602061416e5f395f51905f52545f5160206141ce5f395f51905f52546001600160a01b031680610881575b50610872575f5160206143ce5f395f51905f5280546001600160a01b039283166001600160a01b0319821617909155167faf0e532fb53d8550245c2f27684f1093ea619aa11090123a8bc0a2012b3ebcd35f80a3005b633c14880160e01b5f5260045ffd5b906105bb61088e92612510565b5f61081c565b63f991e43960e01b5f5260045ffd5b90602061031b928181520190610228565b346103a5575f3660031901126103a557604051630557058f60e51b60208201526103a1906302de861160e61b60248201526309a3352f60e01b60288201526316deebd960e21b602c82015263b9886acd60e01b6030820152630f11fc0560e31b603482015263389b753360e01b6038820152633428bcb160e21b603c82015263eee7a04760e01b60408201526322ae634f60e01b6044820152633b52f7d360e21b60488201526353021d9560e01b604c820152624c431f60e81b60508201526356bb927960e11b60548201526334a9907960e21b605882015263b7855ce360e01b605c82015262113bfd60e21b60608201526304da3f1960e01b606482015263307e093f60e01b606882015263b80f3f5560e01b606c820152630418332560e41b607082015263062f586760e51b6074820152631e1f6ad560e31b607882015263a2a47c2b60e01b607c82015263ab4b392960e01b60808201526302c4d18560e31b6084820152631ce5ba7360e31b6088820152630f0cc1df60e21b608c82015263047614a560e51b609082015260748152610a51609482610fe7565b604051918291826108a3565b346103a5575f3660031901126103a557602060ff5f5160206141ae5f395f51905f5254166040519015158152f35b60206040818301928281528451809452019201905f5b818110610aae5750505090565b8251845260209384019390920191600101610aa1565b346103a55760203660031901126103a557610ae9600435610ae4816107a1565b612548565b6040519081602082549182815201915f5260205f20905f5b818110610b24576103a185610b1881870382610fe7565b60405191829182610a8b565b8254845260209093019260019283019201610b01565b346103a55760203660031901126103a5576020610b61600435610b5c816107a1565b612580565b54604051908152f35b346103a55760203660031901126103a557600435610b86612d6d565b610b8f816124e3565b80546001600160a01b031680156104b5576001600160a01b03163303610c4d5760058101805460ff16610bc18161020c565b610c3f57610bdc5f51602061420e5f395f51905f5254612604565b421115610c3057805460ff19166003179055610bf782612dcf565b546001600160a01b0316907f7753f0811884796ae94129b9370b6b1b9d4d2a4c042da6fe85c9b6da1325985b5f80a3610c2e612dab565b005b631be7f4eb60e21b5f5260045ffd5b62de169960e21b5f5260045ffd5b63ff97c4df60e01b5f5260045ffd5b346103a55760203660031901126103a557600435610c78612d6d565b610c836104fb612cca565b6104c457610c90816124e3565b805490916001600160a01b039091169081156104b5576005830192610cb6845460ff1690565b610cbf8161020c565b610c3f5780610d016104fb60017f666ddf3bc13b0c4f440e0e8594b43a0bb0effc85c0634af74e876a6a63665f71940195610cfc86885483612fca565b61303c565b610d3b6006830196875480610e23575b50610d2486610d1f8661268d565b61328d565b805460ff191660011781555b805461ff0019169055565b5f5160206141ae5f395f51905f525460ff1615610e1857610de8575b8054610d709084906001600160a01b0316865490613563565b80546001600160a01b039081161693610ddd6040519283928733887fd22f7b83f7419d73eafaf66fdcd6f0f01880e3265bb1caa8774786e4e331f7055f80a45490600360028201549101549033995492859094939260609260808301968352602083015260408201520152565b0390a4610c2e612dab565b610e13610e025f51602061424e5f395f51905f525461275d565b5f51602061424e5f395f51905f5255565b610d57565b610e13908554613430565b610e2c906131b7565b5f610d11565b346103a55760203660031901126103a557600435610e4e612cca565b156104c4578015610ebd5760015f51602061428e5f395f51905f525411610872575f51602061432e5f395f51905f528054908290556040805191825260208201929092527fb8df7294cc8dc05f372238011f026130e9ae8470f3c8327b8d54a652a95bfd249181908101610567565b630c4278c360e11b5f5260045ffd5b60ff8116036103a557565b346103a55760203660031901126103a557600435610ef481610ecc565b610efc612cca565b156104c457602060ff7f5c6716d3a2484895e5f78109ae3a5bcf03a039d6b4bdca45df7083c4d0f360f292168060ff197f0fa078836d60d6f1a26f9c39e4aa04fc112fb285ab1bb896760cc332f16a2be45416177f0fa078836d60d6f1a26f9c39e4aa04fc112fb285ab1bb896760cc332f16a2be455604051908152a1005b634e487b7160e01b5f52604160045260245ffd5b6101a081019081106001600160401b03821117610fab57604052565b610f7b565b61012081019081106001600160401b03821117610fab57604052565b60c081019081106001600160401b03821117610fab57604052565b90601f801991011681019081106001600160401b03821117610fab57604052565b604051906110186101a083610fe7565b565b6040519061101861012083610fe7565b6001600160401b038111610fab57601f01601f191660200190565b81601f820112156103a55780359061105c8261102a565b9261106a6040519485610fe7565b828452602083830101116103a557815f926020809301838601378301015290565b6101206003198201126103a5576004356110a4816107a1565b916024356110b1816107a1565b916044356110be816107a1565b916064356110cb816107a1565b916084359160a4359160c4359160e4359161010435906001600160401b0382116103a55761031b91600401611045565b346103a5576111093661108b565b916111275f51602061434e5f395f51905f5298959497985460ff1690565b61133e577f393a63ea637c258da582ed0ffb8ccd62f78704d5a0a3fe71d31625f10bab7d33966113399461115961276b565b6111e4611164611008565b6001600160a01b038d1681526001600160a01b03891660208201526001600160a01b038c1660408201526001600160a01b038a1660608201528260808201528360a08201528460c08201528560e08201525f6101008201525f6101208201526111d1610140820160019052565b866101608201525f610180820152612908565b6111fa60015f51602061428e5f395f51905f5255565b6112225f7f0fa078836d60d6f1a26f9c39e4aa04fc112fb285ab1bb896760cc332f16a2c0255565b61124a5f7f0fa078836d60d6f1a26f9c39e4aa04fc112fb285ab1bb896760cc332f16a2c0355565b61127360017f0fa078836d60d6f1a26f9c39e4aa04fc112fb285ab1bb896760cc332f16a2bff55565b6112c3600160ff197f0fa078836d60d6f1a26f9c39e4aa04fc112fb285ab1bb896760cc332f16a2bfe5416177f0fa078836d60d6f1a26f9c39e4aa04fc112fb285ab1bb896760cc332f16a2bfe55565b611313600260ff197f0fa078836d60d6f1a26f9c39e4aa04fc112fb285ab1bb896760cc332f16a2bf25416177f0fa078836d60d6f1a26f9c39e4aa04fc112fb285ab1bb896760cc332f16a2bf255565b61131c8b6135c1565b6040516001600160a01b039788169b909716999697889788612a97565b0390a3005b630cc2158960e01b5f5260045ffd5b346103a55760403660031901126103a55760243560043561136f6104fb612cca565b6104c45781811161142c57801561142c57811561142c575f51602061438e5f395f51905f5254821061142c577fd222a2061e3af1cc9f0056b4a6eef47f98a6b9e12ba01c43b163bfebf6d38fd1916105675f5160206143ae5f395f51905f5254915f51602061426e5f395f51905f52546113f4855f5160206143ae5f395f51905f5255565b611409825f51602061426e5f395f51905f5255565b604051948594859094939260609260808301968352602083015260408201520152565b6304e1b02160e11b5f5260045ffd5b346103a55760203660031901126103a5576020610b6160043561145d816107a1565b6001600160a01b03165f9081527f0fa078836d60d6f1a26f9c39e4aa04fc112fb285ab1bb896760cc332f16a2beb6020526040902090565b346103a55760203660031901126103a5576004356114b2816107a1565b6114c56114be82612580565b54916125b8565b54808211156114e85781039081116114e3576020905b604051908152f35b6125f0565b505060205f6114db565b346103a5576115003661108b565b9161151e5f51602061434e5f395f51905f5298959497985460ff1690565b61133e577f393a63ea637c258da582ed0ffb8ccd62f78704d5a0a3fe71d31625f10bab7d33966113399461155061276b565b6115e261155b611008565b6001600160a01b038d1681526001600160a01b03891660208201526001600160a01b038c1660408201526001600160a01b038a1660608201528260808201528360a08201528460c08201528560e08201525f6101008201525f6101208201526115c8610140820160019052565b866101608201526115dd610180820160019052565b612908565b6115f860015f51602061428e5f395f51905f5255565b6111fa5f5f51602061422e5f395f51905f5255565b6001600160401b038111610fab5760051b60200190565b9060406003198301126103a55760043591602435906001600160401b0382116103a557806023830112156103a55781600401356116608161160d565b9261166e6040519485610fe7565b8184526024602085019260051b8201019283116103a557602401905b8282106116975750505090565b813581526020918201910161168a565b6116b036611624565b6116b8612d6d565b5f5160206141ae5f395f51905f525460ff16611a075760016116e85f5160206142ae5f395f51905f525460ff1690565b6116f18161020c565b036119f8575f51602061420e5f395f51905f525442116119e9576117176104fb83613631565b6119b55761172690823361369e565b61172f3361375f565b5f5160206141ee5f395f51905f525460049060209061176490611758906001600160a01b031681565b6001600160a01b031690565b60405163313ce56760e01b815292839182905afa80156119b05761179661179c916117b1935f91611981575b50612b09565b83612b1a565b5f51602061432e5f395f51905f525490612b2d565b908115611972576103a191611957917f6fdfec0989a0db9eb7c54b77a3b15caecd2c85c394a5dcf62c04e6195f3907795f51602061428e5f395f51905f52549384936118106117ff8661275d565b5f51602061428e5f395f51905f5255565b61181a8585613845565b611886611826336138f3565b5f51602061432e5f395f51905f52549061183e61101a565b3381529187602084015284604084015260608301524260808301525f60a083015261186c60c0830160019052565b60e08201525f610100820152611881876124e3565b612b4b565b61189085336139da565b6118e26118be857f0fa078836d60d6f1a26f9c39e4aa04fc112fb285ab1bb896760cc332f16a2bea54612614565b7f0fa078836d60d6f1a26f9c39e4aa04fc112fb285ab1bb896760cc332f16a2bea55565b335f9081527f0fa078836d60d6f1a26f9c39e4aa04fc112fb285ab1bb896760cc332f16a2beb6020526040902061191a858254612614565b90556119268533613b3e565b611931858533613c60565b6040519182913395836060905f9294936080820195825260208201528260408201520152565b0390a3611962612dab565b6040519081529081906020820190565b633fc25a9960e11b5f5260045ffd5b6119a3915060203d6020116119a9575b61199b8183610fe7565b810190612ae9565b5f611790565b503d611991565b612afe565b505f5160206143ae5f395f51905f525411156119da57638898dccb60e01b5f5260045ffd5b631bf1721360e21b5f5260045ffd5b632617b4cb60e01b5f5260045ffd5b632af4bb8760e11b5f5260045ffd5b63cbd5af3160e01b5f5260045ffd5b346103a557611a2436611624565b611a2c612d6d565b611a476104fb5f5160206141ae5f395f51905f525460ff1690565b611c3b576001611a655f5160206142ae5f395f51905f525460ff1690565b611a6e8161020c565b036119f8575f51602061420e5f395f51905f525442116119e957611a946104fb83613631565b6119b557611aa390823361369e565b611aac3361375f565b5f5160206141ee5f395f51905f5254600490602090611ad590611758906001600160a01b031681565b60405163313ce56760e01b815292839182905afa80156119b05761179661179c91611b06935f916119815750612b09565b908115611972576103a1917f94d618c88f40b12dd5b3a3d5bfeef72524ed6869a8995caaea80d569ed87b2b3915f51602061428e5f395f51905f5254928392611b516117ff8561275d565b611b5a336138f3565b90611bb25f51602061432e5f395f51905f5254611b7561101a565b3381529086602083015283604083015260608201524260808201525f60a08201525f60c08201528360e08201525f610100820152611881876124e3565b611bbc85336139da565b611be8611bd7855f51602061422e5f395f51905f5254612614565b5f51602061422e5f395f51905f5255565b611bf133612580565b611bfc858254612614565b9055611c088533613b3e565b611c128433613ca3565b611c1d858533613c60565b60408051948552602085019190915283015233918060608101611957565b62efec8760e21b5f5260045ffd5b346103a55760403660031901126103a557600435611c66816107a1565b60243590611c756104fb612cca565b6104c457611c946104fb5f5160206141ae5f395f51905f525460ff1690565b611c3b57611ca181612580565b548015611d8257611cb1826125b8565b5480821115611d7a57611cc391612adc565b808311611d6b5781611cf57f309a8ca8a9911e5465563ac460d09429e49422b9119264f53ea799c6193548de936125b8565b611d00858254612614565b9055611d2e611d1d855f51602061438e5f395f51905f5254612614565b5f51602061438e5f395f51905f5255565b6104b0611d4585611d3e846125b8565b5494612adc565b60405193849360018060a01b031696846040919493926060820195825260208201520152565b63377f479760e11b5f5260045ffd5b50505f611cc3565b63b2f0489360e01b5f5260045ffd5b60206040818301928281528451809452019201905f5b818110611db45750505090565b82516001600160a01b0316845260209384019390920191600101611da7565b346103a5575f3660031901126103a5576040515f51602061436e5f395f51905f5280548083525f91825260208301917fd4106935f03f1aed21dc4f0b60e4ab9fad8ed04c8f636d8e64379e2776a0b7f191905b818110611e49576103a185611e3d81870382610fe7565b60405191829182611d91565b82546001600160a01b0316845260209093019260019283019201611e26565b346103a55760203660031901126103a557600435611e85816107a1565b611e8f5f91612548565b8054905f5b828110611ea657604051848152602090f35b611ebf611eb38284612c2c565b90549060031b1c6124e3565b600581015460ff16611ed08161020c565b8015908115611f01575b50611ee9575b50600101611e94565b6001919482611efa92015490612614565b9390611ee0565b60019150611f0e8161020c565b145f611eda565b346103a55760203660031901126103a5576004356001600160401b0381116103a557611f45903690600401611045565b611f4d612cca565b156104c457611f5a61220b565b908051916001600160401b038311610fab57611f8c83611f875f5160206142ce5f395f51905f52546121d3565b612792565b6020601f841160011461200457837fc8b7972fbcabc31a76dba2abb3d620d0eafcf17a3798a462440e5891ec68059394611fda925f91611ff9575b508160011b915f199060031b1c19161790565b5f5160206142ce5f395f51905f52555b61056760405192839283612c41565b90508401515f611fc7565b5f5160206142ce5f395f51905f525f52601f198416907f6f8a197fc537c420af0757c25a985c0ac1ef25040892fbcc98eed4ffd482acca915f5b8181106120a557509185917fc8b7972fbcabc31a76dba2abb3d620d0eafcf17a3798a462440e5891ec680593966001941061208d575b5050811b015f5160206142ce5f395f51905f5255611fea565b8501515f1960f88460031b161c191690555f80612074565b9192602060018192868901518155019401920161203e565b346103a55760203660031901126103a5576020610b616004356120df816107a1565b6125b8565b346103a5575f3660031901126103a557602060ff7f0fa078836d60d6f1a26f9c39e4aa04fc112fb285ab1bb896760cc332f16a2be45416604051908152f35b346103a55760203660031901126103a55760043561213f612d6d565b61214a6104fb612cca565b6104c457612157816124e3565b80546001600160a01b0316156104b55760058101805460ff166121798161020c565b610c3f57805460ff1916600217905561219182612dcf565b546001600160a01b03169033907f135dc16718b461c44ae749630a98a1bebd63e710b328ad36bf0c21b9693f61675f80a4610c2e612dab565b6102258261020c565b90600182811c92168015612201575b60208310146121ed57565b634e487b7160e01b5f52602260045260245ffd5b91607f16916121e2565b604051905f825f5160206142ce5f395f51905f52549161222a836121d3565b80835292600181169081156122b9575060011461224e575b61101892500383610fe7565b505f5160206142ce5f395f51905f525f90815290917f6f8a197fc537c420af0757c25a985c0ac1ef25040892fbcc98eed4ffd482acca5b81831061229d57505090602061101892820101612242565b6020919350806001915483858901015201910190918492612285565b6020925061101894915060ff191682840152151560051b820101612242565b9060405191825f8254926122eb846121d3565b80845293600181169081156123545750600114612310575b5061101892500383610fe7565b90505f9291925260205f20905f915b818310612338575050906020611018928201015f612303565b602091935080600191548385890101520191019091849261231f565b90506020925061101894915060ff191682840152151560051b8201015f612303565b61237e611008565b7f0fa078836d60d6f1a26f9c39e4aa04fc112fb285ab1bb896760cc332f16a2bd7546001600160a01b03168152905f5160206141ee5f395f51905f52546001600160a01b031660208301525f5160206141ce5f395f51905f52546001600160a01b031660408301525f5160206143ce5f395f51905f52546001600160a01b031660608301525f51602061432e5f395f51905f525460808301525f5160206143ae5f395f51905f525460a08301525f51602061426e5f395f51905f525460c08301525f51602061420e5f395f51905f525460e08301525f51602061438e5f395f51905f52546101008301525f51602061424e5f395f51905f52546101208301526124a26124985f5160206142ae5f395f51905f525460ff1690565b61014084016121ca565b6124b85f5160206142ce5f395f51905f526122d8565b6101608301526110186124d95f5160206141ae5f395f51905f525460ff1690565b1515610180840152565b5f527f0fa078836d60d6f1a26f9c39e4aa04fc112fb285ab1bb896760cc332f16a2be560205260405f2090565b6001600160a01b03165f9081527f0fa078836d60d6f1a26f9c39e4aa04fc112fb285ab1bb896760cc332f16a2bee6020526040902090565b6001600160a01b03165f9081527f0fa078836d60d6f1a26f9c39e4aa04fc112fb285ab1bb896760cc332f16a2be76020526040902090565b6001600160a01b03165f9081527f0fa078836d60d6f1a26f9c39e4aa04fc112fb285ab1bb896760cc332f16a2c056020526040902090565b6001600160a01b03165f9081527f0fa078836d60d6f1a26f9c39e4aa04fc112fb285ab1bb896760cc332f16a2c066020526040902090565b634e487b7160e01b5f52601160045260245ffd5b9062093a8082018092116114e357565b919082018092116114e357565b61262a8161020c565b60ff80195f5160206142ae5f395f51905f5254169116175f5160206142ae5f395f51905f5255565b9061265c8161020c565b60ff80198354169116179055565b604081019392916020919061267e8161020c565b81526126898361020c565b0152565b90600761269861101a565b83546001600160a01b0316815292600181015460208501526002810154604085015260038101546060850152600481015460808501526127016126f860058301546126ef6126e68260ff1690565b60a089016121ca565b60081c60ff1690565b151560c0860152565b600681015460e08501520154610100830152565b90604051918281549182825260208201905f5260205f20925f5b81811061274457505061101892500383610fe7565b845483526001948501948794506020909301920161272f565b5f1981146114e35760010190565b600160ff195f51602061434e5f395f51905f525416175f51602061434e5f395f51905f5255565b601f811161279e575050565b5f5160206142ce5f395f51905f525f5260205f20906020601f840160051c830193106127e4575b601f0160051c01905b8181106127d9575050565b5f81556001016127ce565b90915081906127c5565b601f82116127fb57505050565b5f5260205f20906020601f840160051c83019310612833575b601f0160051c01905b818110612828575050565b5f815560010161281d565b9091508190612814565b91909182516001600160401b038111610fab576128648161285e84546121d3565b846127ee565b6020601f82116001146128a35781906128949394955f92612898575b50508160011b915f199060031b1c19161790565b9055565b015190505f80612880565b601f198216906128b6845f5260205f2090565b915f5b8181106128f0575095836001959697106128d8575b505050811b019055565b01515f1960f88460031b161c191690555f80806128ce565b9192602060018192868b0151815501940192016128b9565b80517f0fa078836d60d6f1a26f9c39e4aa04fc112fb285ab1bb896760cc332f16a2bd780546001600160a01b039283166001600160a01b03199182161790915560208301515f5160206141ee5f395f51905f52805491841691831691909117905560408301515f5160206141ce5f395f51905f52805491841691831691909117905560608301515f5160206143ce5f395f51905f52805491909316911617905560808101515f51602061432e5f395f51905f525560a08101515f5160206143ae5f395f51905f525560c08101515f51602061426e5f395f51905f525560e08101515f51602061420e5f395f51905f52556101008101515f51602061438e5f395f51905f52556101208101515f51602061424e5f395f51905f525561014081015161101891612a78916101809190612a5590612a428161020c565b5f5160206142ae5f395f51905f52612652565b612a716101608201515f5160206142ce5f395f51905f5261283d565b0151151590565b5f5160206141ae5f395f51905f529060ff801983541691151516179055565b93909260e0959261031b98979460018060a01b0316865260018060a01b0316602086015260408501526060840152608083015260a08201528160c08201520190610228565b919082039182116114e357565b908160209103126103a5575161031b81610ecc565b6040513d5f823e3d90fd5b60ff16604d81116114e357600a0a90565b818102929181159184041417156114e357565b8115612b37570490565b634e487b7160e01b5f52601260045260245ffd5b815181546001600160a01b0319166001600160a01b03909116178155906007906101009060208101516001850155604081015160028501556060810151600385015560808101516004850155612bd260058501612bb560a0840151612baf8161020c565b82612652565b60c08301511515815461ff00191690151560081b61ff0016179055565b60e081015160068501550151910155565b634e487b7160e01b5f52603260045260245ffd5b5f51602061436e5f395f51905f5254811015612c27575f51602061436e5f395f51905f525f5260205f2001905f90565b612be3565b8054821015612c27575f5260205f2001905f90565b9091612c5861031b93604084526040840190610228565b916020818403910152610228565b60405190612c75602083610fe7565b5f8252565b3d15612ca4573d90612c8b8261102a565b91612c996040519384610fe7565b82523d5f602084013e565b606090565b519081151582036103a557565b908160209103126103a55761031b90612ca9565b7f0fa078836d60d6f1a26f9c39e4aa04fc112fb285ab1bb896760cc332f16a2bd7546001600160a01b0316803314612d6757803b15612d6257604051633ea3167760e21b602082019081523360248301525f928392909190612d3981604481015b03601f198101835282610fe7565b51915afa612d45612c7a565b81612d4e575090565b61031b915060208082518301019101612cb6565b505f90565b50600190565b5f51602061418e5f395f51905f525460ff8116612d9c5760ff19166001175f51602061418e5f395f51905f5255565b638ac2de0f60e01b5f5260045ffd5b60ff195f51602061418e5f395f51905f5254165f51602061418e5f395f51905f5255565b612dd8816124e3565b6005810191612def6104fb845460ff9060081c1690565b612fbb575f5160206141ce5f395f51905f52546001600160a01b031680612ed85750612e2f815f525f5160206142ee5f395f51905f5260205260405f2090565b549060018301548203612ec9575f82612e9f829583612e91819796612e77612e6684995f51602061416e5f395f51905f5254612adc565b5f51602061416e5f395f51905f5255565b5f525f5160206142ee5f395f51905f5260205260405f2090565b55546001600160a01b031690565b5af1612ea9612c7a565b5015612eba57805461ff0019169055565b6303e1bddb60e31b5f5260045ffd5b63a520994b60e01b5f5260045ffd5b9291612f1184612efc845f525f51602061430e5f395f51905f5260205260405f2090565b9060018060a01b03165f5260205260405f2090565b549060018101548203612ec9575f612f85612f5c612fb695612f3561101899612510565b612f40878254612adc565b90555f525f51602061430e5f395f51905f5260205260405f2090565b5f5160206141ce5f395f51905f52546001600160a01b03165f9081526020919091526040902090565b555f5160206141ce5f395f51905f5254612fb0906001600160a01b031691546001600160a01b031690565b90613d01565b610d30565b63f1e2bf4760e01b5f5260045ffd5b604051637f62950960e01b602082019081526001600160a01b039092166024820152604481019290925260648201929092525f91829161300d8160848101612d2b565b5190305afa5061301b612c7a565b50565b8051821015612c275760209160051b010190565b6003111561021657565b61304d61304882612548565b612715565b5f5b815181101561309857600161307a600561307261306c858761301e565b516124e3565b015460ff1690565b6130838161020c565b146130905760010161304f565b505050600190565b50506001600160a01b03165f9081527f0fa078836d60d6f1a26f9c39e4aa04fc112fb285ab1bb896760cc332f16a2c01602052604090206130d890612715565b5f5b815181101561314257600161312560046130726130f7858761301e565b515f527f0fa078836d60d6f1a26f9c39e4aa04fc112fb285ab1bb896760cc332f16a2c0060205260405f2090565b61312e81613032565b1461313b576001016130da565b5050600190565b50505f90565b815181546001600160a01b0319166001600160a01b03919091161781556110189160039060609060208101516001850180546001600160a01b0319166001600160a01b0392909216919091179055604081015160028501550151151591019060ff801983541691151516179055565b801561301b575f8181527f0fa078836d60d6f1a26f9c39e4aa04fc112fb285ab1bb896760cc332f16a2bf76020908152604080832033845290915290206002015461301b5761325c60405161320d608082610fe7565b3381525f60208201524260408201525f606082015261325733612efc855f527f0fa078836d60d6f1a26f9c39e4aa04fc112fb285ab1bb896760cc332f16a2bf760205260405f2090565b613148565b6040514281523391907fcb4765881b79e3f3e656357a384db0c5ebdbdad01ab9fbc82ea10f38b7730dbc90602090a3565b8161329b60c0830151151590565b6132b9575b6132af6132b591600793613dfd565b926124e3565b0155565b505f5160206141ce5f395f51905f52546001600160a01b03168061337f57506132f6825f525f5160206142ee5f395f51905f5260205260405f2090565b5460208201518103612ec9575f808083613322612e6683965f51602061416e5f395f51905f5254612adc565b81613341885f525f5160206142ee5f395f51905f5260205260405f2090565b555f5160206143ce5f395f51905f52546001600160a01b03165af1613364612c7a565b5015612eba576132b56132af836007935b93509150506132a0565b906133a282612efc855f525f51602061430e5f395f51905f5260205260405f2090565b549160208201518303612ec957836132b59261342b6007956133c66132af95612510565b6133d1828254612adc565b90555f6133f5612f5c865f525f51602061430e5f395f51905f5260205260405f2090565b555f5160206141ce5f395f51905f52546001600160a01b03165f5160206143ce5f395f51905f52546001600160a01b0316612fb0565b613375565b5f51602061438e5f395f51905f52549081018091116114e3575f51602061438e5f395f51905f5255613538575b5f51602061438e5f395f51905f52547f0fa078836d60d6f1a26f9c39e4aa04fc112fb285ab1bb896760cc332f16a2c025481018091116114e3575f51602061426e5f395f51905f525411156134ae57565b7f090dc240b6971396472961dc185f630e0a38a8785c5c37c22b858ac2255a7fbb6134e75f5160206142ae5f395f51905f525460ff1690565b613511600260ff195f5160206142ae5f395f51905f525416175f5160206142ae5f395f51905f5255565b5f5160206142ae5f395f51905f525460ff16906135336040519283928361266a565b0390a1565b61354f5f51602061424e5f395f51905f525461275d565b5f51602061424e5f395f51905f525561345d565b6040516304c910db60e51b602082019081526001600160a01b0383166024830152604482019390935260648101939093526110189290915f918291906135ac8160848101612d2b565b519082305af1506135bb612c7a565b50614046565b6001600160a01b03165f8181527fce1c17acaaa67de66e928cd49c8f658667a825223bee6fda99a14908362bcdaa602090815260408083208054600190811790915590519081529192917f4c9bdd0c8e073eb5eda2250b18d8e5121ff27b62064fbeeeed4869bb99bc5bf29190a3565b5f5160206143ae5f395f51905f52548110612d62575f51602061438e5f395f51905f5254907f0fa078836d60d6f1a26f9c39e4aa04fc112fb285ab1bb896760cc332f16a2c025482018092116114e35781018091116114e3575f51602061426e5f395f51905f5254101590565b909160405191602083019363f073128960e01b8552608484019160018060a01b031660248501526044840152606060648401528151809152602060a484019201905f5b81811061372d5750505091816137035f9493859403601f198101835282610fe7565b5190305afa613710612c7a565b90156137195750565b80519182156137285750602001fd5b915050565b82518452602093840193909201916001016136e1565b91908260409103126103a5576020825192015161031b81610ecc565b5f806040516020810190630837d3e560e01b825260048152613782602482610fe7565b5190305afa61378f612c7a565b9015801561383c575b61383857806020806137af93518301019101613743565b501561301b5760405163996d0fc360e01b602082019081526001600160a01b0390921660248201525f9182916137e88160448101612d2b565b5190305afa6137f5612c7a565b908061382e575b6138035750565b6104fb8160208061381994518301019101612cb6565b61381f57565b638f3ef05560e01b5f5260045ffd5b50805115156137fc565b5050565b50805115613798565b5f5160206141ce5f395f51905f52549091906001600160a01b03168061389e575081340361388f5761388c90612e77612e66845f51602061416e5f395f51905f5254612614565b55565b631f46ec3960e11b5f5260045ffd5b346138e45761388c916138b884612f5c9330903390614125565b5f5160206141ce5f395f51905f52546138d9906001600160a01b0316612510565b612f40858254612614565b6330b1d9ed60e01b5f5260045ffd5b5f8080926040516020810191633c615c8960e01b835260018060a01b0316602482015260248152613925604482610fe7565b5190305afa613932612c7a565b9080613957575b613941575090565b90506020818051810103126103a5576020015190565b5080511515613939565b6020818303126103a5578051906001600160401b0382116103a5570181601f820112156103a5578051906139948261102a565b926139a26040519485610fe7565b828452602083830101116103a557815f9260208093018386015e8301015290565b60409061031b939281528160208201520190610228565b604051631efbd8db60e11b602082019081526001600160a01b03831660248301529192915f91829190613a108160448101612d2b565b5190305afa613a1d612c7a565b9080613b34575b613a2d57505050565b80602080613a4093518301019101612cb6565b613a48575050565b6040516355a26bbf60e01b602082019081526001600160a01b03841660248301525f91829190613a7b8160448101612d2b565b5190305afa613a88612c7a565b9080613b2a575b613a9857505050565b5f91612d2b613ad2613ab4846020808897518301019101613961565b604051928391602083019563e44437eb60e01b8752602484016139c3565b519082305af1613ae0612c7a565b50613ae85750565b60405163c0fc0d4360e01b602082019081526001600160a01b0390921660248201525f918291613b1b8160448101612d2b565b519082305af15061301b612c7a565b5080511515613a8f565b5080511515613a24565b90613b4882612548565b90815491600160401b831015610fab5782613b6b916001613b8395018155612c2c565b90919082549060031b91821b915f19901b1916179055565b6001600160a01b0381165f9081527f0fa078836d60d6f1a26f9c39e4aa04fc112fb285ab1bb896760cc332f16a2be9602052604090205460ff1615613bc55750565b5f51602061436e5f395f51905f5254600160401b811015610fab5761101891613c03826001613c5394015f51602061436e5f395f51905f5255612bf7565b81546001600160a01b0393841660039290921b82811b94901b19169290921790555f9081527f0fa078836d60d6f1a26f9c39e4aa04fc112fb285ab1bb896760cc332f16a2be96020526040902090565b805460ff19166001179055565b60405163087efee960e01b602082019081526001600160a01b039092166024820152604481019290925260648201929092525f918291613b1b8160848101612d2b565b5f5160206143ce5f395f51905f52546040516388fa724960e01b602082019081526001600160a01b03938416602483015260448201949094525f93849390921691908390613cf48160648101612d2b565b51925af15061301b612c7a565b60405163a9059cbb60e01b602082019081526001600160a01b03909316602482015260448101939093525f928392908390613d3f8160648101612d2b565b51925af1613d4b612c7a565b9015908115613d5c575b50612eba57565b8051801515925082613d71575b50505f613d55565b613d849250602080918301019101612cb6565b155f80613d69565b91908260409103126103a5576020825192015190565b96959193613df89360e0955f979360018060a01b03168a5260208a015260018060a01b031660408901526060880152608087015261010060a08701528361010087015261012060c0870152610120860190610228565b930152565b905f8091604051613e2881612d2b602082019463208674cb60e01b8652602483019190602083019252565b5190305afa613e35612c7a565b9080613f23575b15613f1357613e5681602080604094518301019101613961565b60208301515f5160206141ee5f395f51905f5254909190613e8190611758906001600160a01b031681565b84519091905f9085906001600160a01b03169601515f5160206141ce5f395f51905f5254613ed1906001600160a01b031693875198899788968795630d9f387560e01b8752429360048801613da2565b03925af19081156119b0575f91613ee6575090565b613f08915060403d604011613f0c575b613f008183610fe7565b810190613d8c565b5090565b503d613ef6565b506040613f1e612c66565b613e56565b5080511515613e3c565b51906001600160401b03821682036103a557565b5190611018826107a1565b6020818303126103a5578051906001600160401b0382116103a5570160c0818303126103a55760405191613f7f83610fcc565b81516001600160401b0381116103a55782019080601f830112156103a5578151613fa88161160d565b92613fb66040519485610fe7565b81845260208085019260051b8201019283116103a557602001905b8282106140365750505061402e9160a0918452613ff060208201613f2d565b602085015261400160408201613f2d565b604085015261401260608201613f41565b606085015261402360808201612ca9565b608085015201613f2d565b60a082015290565b8151815260209182019101613fd1565b604051635960213d60e11b602082019081526001600160a01b03831660248301529192915f9182919061407c8160448101612d2b565b5190305afa614089612c7a565b9015801561411c575b61411757806020806140a993518301019101613f4c565b515f5b815181101561411157805f806140c46001948661301e565b516040516303ab62b960e01b602082019081526001600160a01b038a16602483015260448201929092526140fb8160648101612d2b565b519082305af15061410a612c7a565b50016140ac565b50509050565b509050565b50805115614092565b6040516323b872dd60e01b602082019081526001600160a01b03938416602483015293909216604483015260648201939093525f92839290918390613d3f8160848101612d2b56fe0fa078836d60d6f1a26f9c39e4aa04fc112fb285ab1bb896760cc332f16a2bec0dbc862179e7dd4188cf2cd6f46b98781f59ec6fc25ed07fcc476c2fb8d0592c0fa078836d60d6f1a26f9c39e4aa04fc112fb285ab1bb896760cc332f16a2be30fa078836d60d6f1a26f9c39e4aa04fc112fb285ab1bb896760cc332f16a2bd90fa078836d60d6f1a26f9c39e4aa04fc112fb285ab1bb896760cc332f16a2bd80fa078836d60d6f1a26f9c39e4aa04fc112fb285ab1bb896760cc332f16a2bde0fa078836d60d6f1a26f9c39e4aa04fc112fb285ab1bb896760cc332f16a2c040fa078836d60d6f1a26f9c39e4aa04fc112fb285ab1bb896760cc332f16a2be00fa078836d60d6f1a26f9c39e4aa04fc112fb285ab1bb896760cc332f16a2bdd0fa078836d60d6f1a26f9c39e4aa04fc112fb285ab1bb896760cc332f16a2be60fa078836d60d6f1a26f9c39e4aa04fc112fb285ab1bb896760cc332f16a2be10fa078836d60d6f1a26f9c39e4aa04fc112fb285ab1bb896760cc332f16a2be20fa078836d60d6f1a26f9c39e4aa04fc112fb285ab1bb896760cc332f16a2bed0fa078836d60d6f1a26f9c39e4aa04fc112fb285ab1bb896760cc332f16a2bef0fa078836d60d6f1a26f9c39e4aa04fc112fb285ab1bb896760cc332f16a2bdb0fa078836d60d6f1a26f9c39e4aa04fc112fb285ab1bb896760cc332f16a2bd60fa078836d60d6f1a26f9c39e4aa04fc112fb285ab1bb896760cc332f16a2be80fa078836d60d6f1a26f9c39e4aa04fc112fb285ab1bb896760cc332f16a2bdf0fa078836d60d6f1a26f9c39e4aa04fc112fb285ab1bb896760cc332f16a2bdc0fa078836d60d6f1a26f9c39e4aa04fc112fb285ab1bb896760cc332f16a2bdaa2646970667358221220b190bcc4a2f71278a6517320776411f07496f061263b924ea7aa5597e1ef786d64736f6c634300081e0033","linkReferences":{}},"methodIdentifiers":{"OfferingCore_init(address,address,address,address,uint256,uint256,uint256,uint256,string)":"aae0b1e0","OfferingCore_initCommitmentBased(address,address,address,address,uint256,uint256,uint256,uint256,string)":"b7a18440","attachInvestmentAgreement(uint256,bytes32)":"09a3352f","claimRefund(uint256)":"5b7baf64","commitToOffering(uint256,bytes32[])":"b9886acd","countersignInvestment(uint256)":"788fe028","extendDeadline(uint256)":"389b7533","getAllInvestors()":"d0a2f2c4","getDocumentSignerRole()":"eee7a047","getInvestment(uint256)":"22ae634f","getInvestorCapitalContributed(address)":"ed4bdf4c","getInvestorCommitment(address)":"53021d95","getInvestorInvestments(address)":"4c431f00","getInvestorPaymentTotal(address)":"ad7724f2","getInvestorTotalInvestment(address)":"d2a641e4","getInvestorUnfundedCommitment(address)":"b7855ce3","getOfferingInfo()":"0044eff4","getPaymentInfo()":"04da3f19","getTotalCommitted()":"307e093f","invest(uint256,bytes32[])":"b80f3f55","isCommitmentBased()":"41833250","packedSelectors()":"3e62267c","recordCapitalContribution(address,uint256)":"c5eb0ce0","rejectInvestment(uint256)":"f0fb56a8","setDocumentSignerRole(uint8)":"a2a47c2b","updateMinMaxInvestment(uint256,uint256)":"ab4b3929","updateOfferingStatus(uint8)":"16268c28","updateOfferingURI(string)":"e72dd398","updatePaymentRecipient(address)":"3c33077c","updatePricePerToken(uint256)":"8ec294a0"},"id":174}