{"abi":[{"type":"function","name":"OfferingCore_init","inputs":[{"name":"issuer","type":"address","internalType":"address"},{"name":"tokenAddress","type":"address","internalType":"address"},{"name":"paymentToken","type":"address","internalType":"address"},{"name":"paymentRecipient","type":"address","internalType":"address"},{"name":"pricePerToken","type":"uint256","internalType":"uint256"},{"name":"minInvestment","type":"uint256","internalType":"uint256"},{"name":"maxAmount","type":"uint256","internalType":"uint256"},{"name":"deadline","type":"uint256","internalType":"uint256"},{"name":"uri","type":"string","internalType":"string"}],"outputs":[],"stateMutability":"nonpayable"},{"type":"function","name":"attachInvestmentAgreement","inputs":[{"name":"investmentId","type":"uint256","internalType":"uint256"},{"name":"documentUID","type":"bytes32","internalType":"bytes32"}],"outputs":[],"stateMutability":"nonpayable"},{"type":"function","name":"claimRefund","inputs":[{"name":"investmentId","type":"uint256","internalType":"uint256"}],"outputs":[],"stateMutability":"nonpayable"},{"type":"function","name":"countersignInvestment","inputs":[{"name":"investmentId","type":"uint256","internalType":"uint256"}],"outputs":[],"stateMutability":"nonpayable"},{"type":"function","name":"countersignInvestmentAsRepresentative","inputs":[{"name":"investmentId","type":"uint256","internalType":"uint256"},{"name":"entityAddress","type":"address","internalType":"address"}],"outputs":[],"stateMutability":"nonpayable"},{"type":"function","name":"getAllInvestors","inputs":[],"outputs":[{"name":"investors","type":"address[]","internalType":"address[]"}],"stateMutability":"view"},{"type":"function","name":"getDocumentSignerRole","inputs":[],"outputs":[{"name":"roleId","type":"uint8","internalType":"uint8"}],"stateMutability":"view"},{"type":"function","name":"getInvestment","inputs":[{"name":"investmentId","type":"uint256","internalType":"uint256"}],"outputs":[{"name":"investment","type":"tuple","internalType":"struct OfferingStorage.Investment","components":[{"name":"investor","type":"address","internalType":"address"},{"name":"amount","type":"uint256","internalType":"uint256"},{"name":"tokenQuantity","type":"uint256","internalType":"uint256"},{"name":"pricePerToken","type":"uint256","internalType":"uint256"},{"name":"timestamp","type":"uint256","internalType":"uint256"},{"name":"status","type":"uint8","internalType":"enum OfferingStorage.InvestmentStatus"},{"name":"paymentEscrowed","type":"bool","internalType":"bool"},{"name":"subscriptionAgreementRef","type":"bytes32","internalType":"bytes32"},{"name":"issuedLotId","type":"bytes32","internalType":"bytes32"}]}],"stateMutability":"view"},{"type":"function","name":"getInvestorInvestments","inputs":[{"name":"investor","type":"address","internalType":"address"}],"outputs":[{"name":"investmentIds","type":"uint256[]","internalType":"uint256[]"}],"stateMutability":"view"},{"type":"function","name":"getInvestorPaymentTotal","inputs":[{"name":"investor","type":"address","internalType":"address"}],"outputs":[{"name":"totalPayments","type":"uint256","internalType":"uint256"}],"stateMutability":"view"},{"type":"function","name":"getInvestorTotalInvestment","inputs":[{"name":"investor","type":"address","internalType":"address"}],"outputs":[{"name":"totalAmount","type":"uint256","internalType":"uint256"}],"stateMutability":"view"},{"type":"function","name":"getOfferingInfo","inputs":[],"outputs":[{"name":"info","type":"tuple","internalType":"struct OfferingStorage.OfferingInfo","components":[{"name":"issuer","type":"address","internalType":"address"},{"name":"tokenAddress","type":"address","internalType":"address"},{"name":"paymentToken","type":"address","internalType":"address"},{"name":"paymentRecipient","type":"address","internalType":"address"},{"name":"pricePerToken","type":"uint256","internalType":"uint256"},{"name":"minInvestment","type":"uint256","internalType":"uint256"},{"name":"maxAmount","type":"uint256","internalType":"uint256"},{"name":"deadline","type":"uint256","internalType":"uint256"},{"name":"totalInvested","type":"uint256","internalType":"uint256"},{"name":"investorCount","type":"uint256","internalType":"uint256"},{"name":"status","type":"uint8","internalType":"enum OfferingStorage.OfferingStatus"},{"name":"uri","type":"string","internalType":"string"}]}],"stateMutability":"view"},{"type":"function","name":"getPaymentInfo","inputs":[],"outputs":[{"name":"paymentToken","type":"address","internalType":"address"},{"name":"paymentRecipient","type":"address","internalType":"address"},{"name":"totalPaymentsReceived","type":"uint256","internalType":"uint256"}],"stateMutability":"view"},{"type":"function","name":"invest","inputs":[{"name":"amount","type":"uint256","internalType":"uint256"},{"name":"attestationUIDs","type":"bytes32[]","internalType":"bytes32[]"}],"outputs":[{"name":"investmentId","type":"uint256","internalType":"uint256"}],"stateMutability":"payable"},{"type":"function","name":"investAsRepresentative","inputs":[{"name":"amount","type":"uint256","internalType":"uint256"},{"name":"attestationUIDs","type":"bytes32[]","internalType":"bytes32[]"},{"name":"entityAddress","type":"address","internalType":"address"}],"outputs":[{"name":"investmentId","type":"uint256","internalType":"uint256"}],"stateMutability":"payable"},{"type":"function","name":"rejectInvestment","inputs":[{"name":"investmentId","type":"uint256","internalType":"uint256"}],"outputs":[],"stateMutability":"nonpayable"},{"type":"function","name":"setDocumentSignerRole","inputs":[{"name":"roleId","type":"uint8","internalType":"uint8"}],"outputs":[],"stateMutability":"nonpayable"},{"type":"function","name":"updateOfferingStatus","inputs":[{"name":"newStatus","type":"uint8","internalType":"enum OfferingStorage.OfferingStatus"}],"outputs":[],"stateMutability":"nonpayable"},{"type":"event","name":"DocumentSigned","inputs":[{"name":"documentId","type":"bytes32","indexed":true,"internalType":"bytes32"},{"name":"signer","type":"address","indexed":true,"internalType":"address"},{"name":"timestamp","type":"uint256","indexed":false,"internalType":"uint256"}],"anonymous":false},{"type":"event","name":"DocumentSignedByRepresentative","inputs":[{"name":"documentId","type":"bytes32","indexed":true,"internalType":"bytes32"},{"name":"actualSigner","type":"address","indexed":true,"internalType":"address"},{"name":"entity","type":"address","indexed":true,"internalType":"address"},{"name":"timestamp","type":"uint256","indexed":false,"internalType":"uint256"}],"anonymous":false},{"type":"event","name":"DocumentSignerRoleUpdated","inputs":[{"name":"roleId","type":"uint8","indexed":false,"internalType":"uint8"}],"anonymous":false},{"type":"event","name":"FundsDeposited","inputs":[{"name":"investor","type":"address","indexed":true,"internalType":"address"},{"name":"investmentId","type":"uint256","indexed":true,"internalType":"uint256"},{"name":"amount","type":"uint256","indexed":false,"internalType":"uint256"},{"name":"tokenQuantity","type":"uint256","indexed":false,"internalType":"uint256"},{"name":"identityUID","type":"bytes32","indexed":false,"internalType":"bytes32"},{"name":"qualificationUID","type":"bytes32","indexed":false,"internalType":"bytes32"}],"anonymous":false},{"type":"event","name":"InvestmentAccepted","inputs":[{"name":"investmentId","type":"uint256","indexed":true,"internalType":"uint256"},{"name":"issuer","type":"address","indexed":true,"internalType":"address"},{"name":"investor","type":"address","indexed":true,"internalType":"address"}],"anonymous":false},{"type":"event","name":"InvestmentAgreementAttached","inputs":[{"name":"investmentId","type":"uint256","indexed":true,"internalType":"uint256"},{"name":"documentUID","type":"bytes32","indexed":false,"internalType":"bytes32"}],"anonymous":false},{"type":"event","name":"InvestmentAgreementExecuted","inputs":[{"name":"investmentId","type":"uint256","indexed":true,"internalType":"uint256"},{"name":"investor","type":"address","indexed":true,"internalType":"address"},{"name":"issuer","type":"address","indexed":true,"internalType":"address"},{"name":"amount","type":"uint256","indexed":false,"internalType":"uint256"},{"name":"tokenQuantity","type":"uint256","indexed":false,"internalType":"uint256"},{"name":"pricePerToken","type":"uint256","indexed":false,"internalType":"uint256"},{"name":"subscriptionAgreementRef","type":"bytes32","indexed":false,"internalType":"bytes32"}],"anonymous":false},{"type":"event","name":"InvestmentMadeAsRepresentative","inputs":[{"name":"investmentId","type":"uint256","indexed":true,"internalType":"uint256"},{"name":"actualInvestor","type":"address","indexed":true,"internalType":"address"},{"name":"entityAddress","type":"address","indexed":true,"internalType":"address"},{"name":"amount","type":"uint256","indexed":false,"internalType":"uint256"},{"name":"tokenQuantity","type":"uint256","indexed":false,"internalType":"uint256"}],"anonymous":false},{"type":"event","name":"InvestmentRefunded","inputs":[{"name":"investmentId","type":"uint256","indexed":true,"internalType":"uint256"},{"name":"investor","type":"address","indexed":true,"internalType":"address"}],"anonymous":false},{"type":"event","name":"InvestmentRejected","inputs":[{"name":"investmentId","type":"uint256","indexed":true,"internalType":"uint256"},{"name":"issuer","type":"address","indexed":true,"internalType":"address"},{"name":"investor","type":"address","indexed":true,"internalType":"address"}],"anonymous":false},{"type":"event","name":"OfferingInitialized","inputs":[{"name":"issuer","type":"address","indexed":true,"internalType":"address"},{"name":"token","type":"address","indexed":true,"internalType":"address"},{"name":"paymentToken","type":"address","indexed":false,"internalType":"address"},{"name":"paymentRecipient","type":"address","indexed":false,"internalType":"address"},{"name":"pricePerToken","type":"uint256","indexed":false,"internalType":"uint256"},{"name":"minInvestment","type":"uint256","indexed":false,"internalType":"uint256"},{"name":"maxAmount","type":"uint256","indexed":false,"internalType":"uint256"},{"name":"deadline","type":"uint256","indexed":false,"internalType":"uint256"},{"name":"uri","type":"string","indexed":false,"internalType":"string"}],"anonymous":false},{"type":"event","name":"OfferingStatusChanged","inputs":[{"name":"oldStatus","type":"uint8","indexed":false,"internalType":"enum OfferingStorage.OfferingStatus"},{"name":"newStatus","type":"uint8","indexed":false,"internalType":"enum OfferingStorage.OfferingStatus"}],"anonymous":false},{"type":"event","name":"TokensIssued","inputs":[{"name":"investmentId","type":"uint256","indexed":true,"internalType":"uint256"},{"name":"investor","type":"address","indexed":true,"internalType":"address"},{"name":"tokenQuantity","type":"uint256","indexed":false,"internalType":"uint256"},{"name":"lotId","type":"bytes32","indexed":true,"internalType":"bytes32"}],"anonymous":false},{"type":"event","name":"UserRoleUpdated","inputs":[{"name":"user","type":"address","indexed":true,"internalType":"address"},{"name":"role","type":"uint8","indexed":true,"internalType":"uint8"},{"name":"enabled","type":"bool","indexed":false,"internalType":"bool"}],"anonymous":false},{"type":"error","name":"OfferingCore_AlreadyCountersigned","inputs":[]},{"type":"error","name":"OfferingCore_AlreadyInitialized","inputs":[]},{"type":"error","name":"OfferingCore_AlreadyProcessed","inputs":[]},{"type":"error","name":"OfferingCore_BelowMinimumInvestment","inputs":[]},{"type":"error","name":"OfferingCore_CannotCancelWithFunds","inputs":[]},{"type":"error","name":"OfferingCore_DeadlinePassed","inputs":[]},{"type":"error","name":"OfferingCore_DocumentSignatureRequired","inputs":[]},{"type":"error","name":"OfferingCore_ETHTransferFailed","inputs":[]},{"type":"error","name":"OfferingCore_EscrowAmountMismatch","inputs":[]},{"type":"error","name":"OfferingCore_ExceedsMaximumAmount","inputs":[]},{"type":"error","name":"OfferingCore_GracePeriodNotExpired","inputs":[]},{"type":"error","name":"OfferingCore_IncorrectETHAmount","inputs":[]},{"type":"error","name":"OfferingCore_InvalidAttestation","inputs":[]},{"type":"error","name":"OfferingCore_InvestmentNotFound","inputs":[]},{"type":"error","name":"OfferingCore_InvestmentTooSmall","inputs":[]},{"type":"error","name":"OfferingCore_NoETHExpected","inputs":[]},{"type":"error","name":"OfferingCore_NotAuthorized","inputs":[]},{"type":"error","name":"OfferingCore_NotAuthorizedRepresentative","inputs":[]},{"type":"error","name":"OfferingCore_NotInvestor","inputs":[]},{"type":"error","name":"OfferingCore_OfferingNotActive","inputs":[]},{"type":"error","name":"OfferingCore_PaymentNotInEscrow","inputs":[]},{"type":"error","name":"OfferingCore_TokenIssuanceFailed","inputs":[]},{"type":"error","name":"OfferingCore_UnsupportedOfferingType","inputs":[]},{"type":"error","name":"ReentrancyGuard_ReentrantCall","inputs":[]}],"bytecode":{"object":"0x60808060405234601557613945908161001a8239f35b5f80fdfe60806040526004361015610011575f80fd5b5f3560e01c806244eff41461013357806304da3f191461012e57806309a3352f146101295780631472c4fc1461012457806316268c281461011f57806322ae634f1461011a5780634c431f00146101155780635b7baf6414610110578063788fe0281461010b5780637c5bad6514610106578063a2a47c2b14610101578063aae0b1e0146100fc578063ad7724f2146100f7578063b80f3f55146100f2578063d0a2f2c4146100ed578063d2a641e4146100e8578063eee7a047146100e35763f0fb56a8146100de575f80fd5b611633565b611607565b61155a565b6114c5565b611227565b6111f7565b611175565b611096565b610cec565b610a6c565b61098a565b610914565b610847565b610708565b610510565b61044d565b6103ed565b61024c565b634e487b7160e01b5f52602160045260245ffd5b6004111561015657565b610138565b906101658261014c565b52565b805180835260209291819084018484015e5f828201840152601f01601f1916010190565b602080825282516001600160a01b031690820152610249916101a0906101609060208101516001600160a01b0316604085015260408101516001600160a01b0316606085015260608101516001600160a01b03166080850152608081015160a085015260a081015160c085015260c081015160e085015260e08101516101008501526101008101516101208501526101208101516101408501526102386101408201518386019061015b565b015191610180808201520190610168565b90565b346103e9575f3660031901126103e957606061016060405161026d81610bdd565b5f81525f60208201525f60408201525f838201525f60808201525f60a08201525f60c08201525f60e08201525f6101008201525f6101208201525f61014082015201526103e56102bb610c56565b5f5160206137905f395f51905f52546001600160a01b031681525f5160206137705f395f51905f52546001600160a01b031660208201525f5160206136905f395f51905f52546001600160a01b031660408201525f5160206137b05f395f51905f52546001600160a01b031660608201525f5160206137105f395f51905f525460808201525f5160206137d05f395f51905f525460a08201525f5160206138705f395f51905f525460c08201525f5160206138305f395f51905f525460e08201525f5160206138105f395f51905f52546101008201525f5160206138b05f395f51905f52546101208201526103cb6103c15f5160206136705f395f51905f525460ff1690565b61014083016116da565b6103d361171b565b6101608201526040519182918261018c565b0390f35b5f80fd5b346103e9575f3660031901126103e9575f5160206136905f395f51905f52545f5160206137b05f395f51905f52545f5160206138d05f395f51905f5254604080516001600160a01b03948516815293909216602084015290820152606090f35b346103e95760403660031901126103e95760043560243561046c612136565b156104f0575f8281527f53f955f4c4a9361ccb46aadc7047f8c04fa3701865bfe8009fc4a965d8bec4806020526040902080546001600160a01b0316156104e1576006018190556040519081527f86a3fe58abd946870b0d070e20ef781722a19d2a156d907bfe478ec44278b7d390602090a2005b631286942360e11b5f5260045ffd5b637f3d721d60e11b5f5260045ffd5b6001600160a01b038116036103e957565b346103e95760403660031901126103e957600435602435610530816104ff565b6105386121c6565b5f5160206137905f395f51905f5254610561906001600160a01b03165b6001600160a01b031690565b6001600160a01b038216929083036104f0576105846105808333612228565b1590565b6106f9576105918161180e565b805490926001600160a01b039091169081156104e15760058401916105b7835460ff1690565b6105c08161014c565b6106eb576106497f666ddf3bc13b0c4f440e0e8594b43a0bb0effc85c0634af74e876a6a63665f719361064261060861058060018a01956106038a8854836122c1565b612333565b916006890195865490816106d9575b505061062b886106268b61183b565b61258d565b805460ff191660011781555b805461ff0019169055565b8254612779565b84546106629085906001600160a01b0316835490612899565b84546106cc906001600160a01b039081161695604051938493888a897fd22f7b83f7419d73eafaf66fdcd6f0f01880e3265bb1caa8774786e4e331f7055f80a454600283015460039093015491549085526020850192909252604084015260608301526080820190565b0390a46106d7612204565b005b6106e4913390612439565b5f80610617565b62de169960e21b5f5260045ffd5b6328fe9ad960e11b5f5260045ffd5b346103e95760203660031901126103e95760043560048110156103e95761072d612136565b156104f05761073b8161014c565b6003811461079b575b7f090dc240b6971396472961dc185f630e0a38a8785c5c37c22b858ac2255a7fbb9061077e5f5160206136705f395f51905f525460ff1690565b61078782611911565b61079660405192839283611942565b0390a1005b6107c25f5160206138105f395f51905f52545f5160206136f05f395f51905f525490611904565b1561074457631072e72d60e21b5f5260045ffd5b9190916101008061012083019460018060a01b0381511684526020810151602085015260408101516040850152606081015160608501526080810151608085015260a08101516108258161014c565b60a085015260c08181015115159085015260e081015160e08501520151910152565b346103e95760203660031901126103e9576004355f61010060405161086b81610bfe565b8281528260208201528260408201528260608201528260808201528260a08201528260c08201528260e082015201525f527f53f955f4c4a9361ccb46aadc7047f8c04fa3701865bfe8009fc4a965d8bec4806020526103e56108cf60405f2061183b565b604051918291826107d6565b60206040818301928281528451809452019201905f5b8181106108fe5750505090565b82518452602093840193909201916001016108f1565b346103e95760203660031901126103e957610939600435610934816104ff565b611965565b6040519081602082549182815201915f5260205f20905f5b818110610974576103e58561096881870382610c35565b604051918291826108db565b8254845260209093019260019283019201610951565b346103e95760203660031901126103e9576004356109a66121c6565b6109af8161180e565b80546001600160a01b031680156104e1576001600160a01b03163303610a5d5760058101805460ff166109e18161014c565b6106eb576109fc5f5160206138305f395f51905f52546118ef565b421115610a4e57805460ff19166003179055610a17826128f7565b546001600160a01b0316907f7753f0811884796ae94129b9370b6b1b9d4d2a4c042da6fe85c9b6da1325985b5f80a36106d7612204565b631be7f4eb60e21b5f5260045ffd5b63ff97c4df60e01b5f5260045ffd5b346103e95760203660031901126103e957600435610a886121c6565b610a93610580612136565b6104f057610aa08161180e565b805490916001600160a01b039091169081156104e1576005830192610ac6845460ff1690565b610acf8161014c565b6106eb5780610b34610b0f61058060017f666ddf3bc13b0c4f440e0e8594b43a0bb0effc85c0634af74e876a6a63665f71950196610603878954836122c1565b610b2d6006840197885480610bba575b5061062b876106268761183b565b8554612779565b8054610b4d9084906001600160a01b0316865490612899565b80546001600160a01b0390811616936106cc6040519283928733887fd22f7b83f7419d73eafaf66fdcd6f0f01880e3265bb1caa8774786e4e331f7055f80a45490600360028201549101549033995492859094939260609260808301968352602083015260408201520152565b610bc390612a7f565b5f610b1f565b634e487b7160e01b5f52604160045260245ffd5b61018081019081106001600160401b03821117610bf957604052565b610bc9565b61012081019081106001600160401b03821117610bf957604052565b60c081019081106001600160401b03821117610bf957604052565b90601f801991011681019081106001600160401b03821117610bf957604052565b60405190610c6661018083610c35565b565b60405190610c6661012083610c35565b6001600160401b038111610bf95760051b60200190565b9080601f830112156103e9578135610ca681610c78565b92610cb46040519485610c35565b81845260208085019260051b8201019283116103e957602001905b828210610cdc5750505090565b8135815260209182019101610ccf565b60603660031901126103e9576004356024356001600160401b0381116103e957610d1a903690600401610c8f565b60443590610d27826104ff565b610d2f6121c6565b610d3c6105808333612228565b6106f9576001610d5a5f5160206136705f395f51905f525460ff1690565b610d638161014c565b0361107c575f5160206138305f395f51905f5254421161106d57610d8961058084612b2e565b61103857610d98908383612b88565b610da181612c49565b5f5160206137705f395f51905f5254600490602090610dca90610555906001600160a01b031681565b60405163313ce56760e01b815292839182905afa801561103357610dfc610e0291610e17935f91611004575b50611a75565b84611aaa565b5f5160206137105f395f51905f525490611abd565b8015610ff5576103e592610fca927f82575f0b29fca1d16d9048bddc4b78a3229e210cdfcc811718d4c9e6e9707af65f5160206137305f395f51905f5254948592610e75610e6485611adb565b5f5160206137305f395f51905f5255565b610e7f8486612d2b565b610efa610e8b82612dd9565b80610fe5575b5f5160206137105f395f51905f525490610ea9610c68565b6001600160a01b03851681529188602084015289604084015260608301524260808301525f60a0830152610ee060c0830160019052565b60e08201525f610100820152610ef58661180e565b611ae9565b610f048482612ec0565b610f30610f1f865f5160206138d05f395f51905f5254611904565b5f5160206138d05f395f51905f5255565b610f398161199d565b610f44868254611904565b9055610f508482613024565b610f5b848683613146565b60018060a01b03169483867f6fdfec0989a0db9eb7c54b77a3b15caecd2c85c394a5dcf62c04e6195f39077960405180610fae868b836060905f9294936080820195825260208201528260408201520152565b0390a36040805195865260208601919091523394918291820190565b0390a4610fd5612204565b6040519081529081906020820190565b610ff0833383612439565b610e91565b633fc25a9960e11b5f5260045ffd5b611026915060203d60201161102c575b61101e8183610c35565b810190611a55565b5f610df6565b503d611014565b611a6a565b825f5160206137d05f395f51905f5254115f1461105e57638898dccb60e01b5f5260045ffd5b631bf1721360e21b5f5260045ffd5b632617b4cb60e01b5f5260045ffd5b632af4bb8760e11b5f5260045ffd5b60ff8116036103e957565b346103e95760203660031901126103e9576004356110b38161108b565b6110bb612136565b156104f057602060ff7f5c6716d3a2484895e5f78109ae3a5bcf03a039d6b4bdca45df7083c4d0f360f292168060ff195f5160206138905f395f51905f525416175f5160206138905f395f51905f5255604051908152a1005b6001600160401b038111610bf957601f01601f191660200190565b81601f820112156103e95780359061114682611114565b926111546040519485610c35565b828452602083830101116103e957815f926020809301838601378301015290565b346103e9576101203660031901126103e957600435611193816104ff565b602435906111a0826104ff565b6044356111ac816104ff565b6064356111b8816104ff565b60843560a4359060c435926111cc60e43590565b9461010435976001600160401b0389116103e9576111f16106d799369060040161112f565b97611e3d565b346103e95760203660031901126103e957602061121e600435611219816104ff565b61199d565b54604051908152f35b60403660031901126103e9576004356024356001600160401b0381116103e957611255903690600401610c8f565b61125d6121c6565b60016112775f5160206136705f395f51905f525460ff1690565b6112808161014c565b0361107c575f5160206138305f395f51905f5254421161106d576112a661058083612b2e565b61145e576112b5908233612b88565b6112be33612c49565b5f5160206137705f395f51905f52546004906020906112e790610555906001600160a01b031681565b60405163313ce56760e01b815292839182905afa801561103357611318610e029161131e935f916110045750611a75565b83611aaa565b908115610ff5576103e591611453917f6fdfec0989a0db9eb7c54b77a3b15caecd2c85c394a5dcf62c04e6195f3907795f5160206137305f395f51905f525493849361136c610e6486611adb565b6113768585612d2b565b6113dd61138233612dd9565b5f5160206137105f395f51905f52549061139a610c68565b3381529187602084015284604084015260608301524260808301525f60a08301526113c860c0830160019052565b60e08201525f610100820152610ef58761180e565b6113e78533612ec0565b611402610f1f855f5160206138d05f395f51905f5254611904565b61140b3361199d565b611416858254611904565b90556114228533613024565b61142d858533613146565b6040519182913395836060905f9294936080820195825260208201528260408201520152565b0390a3610fd5612204565b505f5160206137d05f395f51905f5254111561105e57638898dccb60e01b5f5260045ffd5b60206040818301928281528451809452019201905f5b8181106114a65750505090565b82516001600160a01b0316845260209384019390920191600101611499565b346103e9575f3660031901126103e9576040515f5160206138f05f395f51905f5280548083525f91825260208301917ffc52d7c23fb750bdbcae09e441fa66e945cf483966920152b03b8f627f5d2ae291905b81811061153b576103e58561152f81870382610c35565b60405191829182611483565b82546001600160a01b0316845260209093019260019283019201611518565b346103e95760203660031901126103e957600435611577816104ff565b6115815f91611965565b8054905f5b82811061159857604051848152602090f35b6115b16115a582846120bd565b90549060031b1c61180e565b600581015460ff166115c28161014c565b80159081156115f3575b506115db575b50600101611586565b60019194826115ec92015490611904565b93906115d2565b600191506116008161014c565b145f6115cc565b346103e9575f3660031901126103e957602060ff5f5160206138905f395f51905f525416604051908152f35b346103e95760203660031901126103e95760043561164f6121c6565b61165a610580612136565b6104f0576116678161180e565b80546001600160a01b0316156104e15760058101805460ff166116898161014c565b6106eb57805460ff191660021790556116a1826128f7565b546001600160a01b03169033907f135dc16718b461c44ae749630a98a1bebd63e710b328ad36bf0c21b9693f61675f80a46106d7612204565b6101658261014c565b90600182811c92168015611711575b60208310146116fd57565b634e487b7160e01b5f52602260045260245ffd5b91607f16916116f2565b604051905f827f53f955f4c4a9361ccb46aadc7047f8c04fa3701865bfe8009fc4a965d8bec47e549161174d836116e3565b80835292600181169081156117ef5750600114611771575b610c6692500383610c35565b507f53f955f4c4a9361ccb46aadc7047f8c04fa3701865bfe8009fc4a965d8bec47e5f90815290917f975f57468a4544365bda3ba724a5d4431e7c7235597517a48ed1c7d98f46b7715b8183106117d3575050906020610c6692820101611765565b60209193508060019154838589010152019101909184926117bb565b60209250610c6694915060ff191682840152151560051b820101611765565b5f527f53f955f4c4a9361ccb46aadc7047f8c04fa3701865bfe8009fc4a965d8bec48060205260405f2090565b906007611846610c68565b83546001600160a01b0316815292600181015460208501526002810154604085015260038101546060850152600481015460808501526118af6118a6600583015461189d6118948260ff1690565b60a089016116da565b60081c60ff1690565b151560c0860152565b600681015460e08501520154610100830152565b906118cd8161014c565b60ff80198354169116179055565b634e487b7160e01b5f52601160045260245ffd5b9062093a8082018092116118ff57565b6118db565b919082018092116118ff57565b61191a8161014c565b60ff80195f5160206136705f395f51905f5254169116175f5160206136705f395f51905f5255565b60408101939291602091906119568161014c565b81526119618361014c565b0152565b6001600160a01b03165f9081527f53f955f4c4a9361ccb46aadc7047f8c04fa3701865bfe8009fc4a965d8bec4826020526040902090565b6001600160a01b03165f9081527f53f955f4c4a9361ccb46aadc7047f8c04fa3701865bfe8009fc4a965d8bec4866020526040902090565b6001600160a01b03165f9081527f53f955f4c4a9361ccb46aadc7047f8c04fa3701865bfe8009fc4a965d8bec4896020526040902090565b90604051918281549182825260208201905f5260205f20925f5b818110611a3c575050610c6692500383610c35565b8454835260019485019487945060209093019201611a27565b908160209103126103e957516102498161108b565b6040513d5f823e3d90fd5b60ff16604d81116118ff57600a0a90565b90670de0b6b3a7640000820291808304670de0b6b3a764000014901517156118ff57565b818102929181159184041417156118ff57565b8115611ac7570490565b634e487b7160e01b5f52601260045260245ffd5b5f1981146118ff5760010190565b815181546001600160a01b0319166001600160a01b03909116178155906007906101009060208101516001850155604081015160028501556060810151600385015560808101516004850155611b7060058501611b5360a0840151611b4d8161014c565b826118c3565b60c08301511515815461ff00191690151560081b61ff0016179055565b60e081015160068501550151910155565b601f8211611b8e57505050565b5f5260205f20906020601f840160051c83019310611bc6575b601f0160051c01905b818110611bbb575050565b5f8155600101611bb0565b9091508190611ba7565b91909182516001600160401b038111610bf957611bf781611bf184546116e3565b84611b81565b6020601f8211600114611c36578190611c279394955f92611c2b575b50508160011b915f199060031b1c19161790565b9055565b015190505f80611c13565b601f19821690611c49845f5260205f2090565b915f5b818110611c8357509583600195969710611c6b575b505050811b019055565b01515f1960f88460031b161c191690555f8080611c61565b9192602060018192868b015181550194019201611c4c565b80515f5160206137905f395f51905f5280546001600160a01b039283166001600160a01b03199182161790915560208301515f5160206137705f395f51905f52805491841691831691909117905560408301515f5160206136905f395f51905f52805491841691831691909117905560608301515f5160206137b05f395f51905f52805491909316911617905560808101515f5160206137105f395f51905f525560a08101515f5160206137d05f395f51905f525560c08101515f5160206138705f395f51905f525560e08101515f5160206138305f395f51905f52556101008101515f5160206138105f395f51905f52556101208101515f5160206138b05f395f51905f5255610140810151610c669161016091611dd090611dbd8161014c565b5f5160206136705f395f51905f526118c3565b01517f53f955f4c4a9361ccb46aadc7047f8c04fa3701865bfe8009fc4a965d8bec47e611bd0565b93909260e0959261024998979460018060a01b0316865260018060a01b0316602086015260408501526060840152608083015260a08201528160c08201520190610168565b9791969093929495611e707f53f955f4c4a9361ccb46aadc7047f8c04fa3701865bfe8009fc4a965d8bec4725460ff1690565b612065577f393a63ea637c258da582ed0ffb8ccd62f78704d5a0a3fe71d31625f10bab7d339661206094611eea600160ff197f53f955f4c4a9361ccb46aadc7047f8c04fa3701865bfe8009fc4a965d8bec4725416177f53f955f4c4a9361ccb46aadc7047f8c04fa3701865bfe8009fc4a965d8bec47255565b611f6e611ef5610c56565b6001600160a01b038d1681526001600160a01b03891660208201526001600160a01b038c1660408201526001600160a01b038a1660608201528260808201528360a08201528460c08201528560e08201525f6101008201525f610120820152611f62610140820160019052565b86610160820152611c9b565b611f8460015f5160206137305f395f51905f5255565b611f995f5f5160206136f05f395f51905f5255565b611fc15f7f53f955f4c4a9361ccb46aadc7047f8c04fa3701865bfe8009fc4a965d8bec4a255565b611fea60017f53f955f4c4a9361ccb46aadc7047f8c04fa3701865bfe8009fc4a965d8bec49e55565b61203a600160ff197f53f955f4c4a9361ccb46aadc7047f8c04fa3701865bfe8009fc4a965d8bec49d5416177f53f955f4c4a9361ccb46aadc7047f8c04fa3701865bfe8009fc4a965d8bec49d55565b6120438b613189565b6040516001600160a01b039788169b909716999697889788611df8565b0390a3565b630cc2158960e01b5f5260045ffd5b634e487b7160e01b5f52603260045260245ffd5b5f5160206138f05f395f51905f52548110156120b8575f5160206138f05f395f51905f525f5260205f2001905f90565b612074565b80548210156120b8575f5260205f2001905f90565b604051906120e1602083610c35565b5f8252565b3d15612110573d906120f782611114565b916121056040519384610c35565b82523d5f602084013e565b606090565b519081151582036103e957565b908160209103126103e95761024990612115565b5f5160206137905f395f51905f52546001600160a01b03168033146121c057803b156121bb57604051633ea3167760e21b602082019081523360248301525f92839290919061219281604481015b03601f198101835282610c35565b51915afa61219e6120e6565b816121a7575090565b610249915060208082518301019101612122565b505f90565b50600190565b5f5160206137505f395f51905f525460ff81166121f55760ff19166001175f5160206137505f395f51905f5255565b638ac2de0f60e01b5f5260045ffd5b60ff195f5160206137505f395f51905f5254165f5160206137505f395f51905f5255565b813b156122bb575f91829161224b5f5160206138905f395f51905f525460ff1690565b60ff8116156122b3575b6040516395a8c58d60e01b602082019081526001600160a01b03909316602482015260ff909116604482015261228e8160648101612184565b51915afa61229a6120e6565b816122a857816121a7575090565b80511515915061219e565b506032612255565b50505f90565b604051637f62950960e01b602082019081526001600160a01b039092166024820152604481019290925260648201929092525f9182916123048160848101612184565b5190305afa506123126120e6565b50565b80518210156120b85760209160051b010190565b6003111561015657565b61234461233f82611965565b611a0d565b5f5b815181101561238f57600161237160056123696123638587612315565b5161180e565b015460ff1690565b61237a8161014c565b1461238757600101612346565b505050600190565b50506001600160a01b03165f9081527f53f955f4c4a9361ccb46aadc7047f8c04fa3701865bfe8009fc4a965d8bec4a0602052604090206123cf90611a0d565b5f5b81518110156122bb57600161241c60046123696123ee8587612315565b515f527f53f955f4c4a9361ccb46aadc7047f8c04fa3701865bfe8009fc4a965d8bec49f60205260405f2090565b61242581612329565b14612432576001016123d1565b5050600190565b919091801561257b57600261247b83612466845f525f5160206136b05f395f51905f5260205260405f2090565b9060018060a01b03165f5260205260405f2090565b015461257b5761253d604051612492608082610c35565b6001600160a01b03858116825284166020820152426040820152600160608201526124d584612466855f525f5160206136b05f395f51905f5260205260405f2090565b815181546001600160a01b0319166001600160a01b039190911617815560609060039060208401516001820180546001600160a01b0319166001600160a01b03929092169190911790556040840151600282015501910151151560ff80198354169116179055565b6040514281526001600160a01b0392831693909216917f056feefb9bba149abbce45617e85a28fcda7d6bca7cac3c98a0ecd2654a6420190602090a4565b505050565b919082039182116118ff57565b61259d61058060c0830151151590565b612775575f5160206136905f395f51905f52546001600160a01b03168061269957506125dd825f525f5160206137f05f395f51905f5260205260405f2090565b546020820151810361268a575f80808361261a61260983965f5160206138505f395f51905f5254612580565b5f5160206138505f395f51905f5255565b81612639885f525f5160206137f05f395f51905f5260205260405f2090565b555f5160206137b05f395f51905f52546001600160a01b03165af161265c6120e6565b501561267b57612677612671836007936132ea565b9261180e565b0155565b6303e1bddb60e31b5f5260045ffd5b63a520994b60e01b5f5260045ffd5b906126bc82612466855f525f5160206136d05f395f51905f5260205260405f2090565b54916020820151830361268a5783612677926127706007956126e0612671956119d5565b6126eb828254612580565b90555f61273861270f865f525f5160206136d05f395f51905f5260205260405f2090565b5f5160206136905f395f51905f52546001600160a01b03165f9081526020919091526040902090565b555f5160206136905f395f51905f52546001600160a01b03165f5160206137b05f395f51905f52546001600160a01b03165b906131f2565b6132ea565b5050565b5f5160206138105f395f51905f52549081018091116118ff575f5160206138105f395f51905f525561286e575b5f5160206138105f395f51905f52545f5160206136f05f395f51905f525481018091116118ff575f5160206138705f395f51905f525411156127e457565b7f090dc240b6971396472961dc185f630e0a38a8785c5c37c22b858ac2255a7fbb61281d5f5160206136705f395f51905f525460ff1690565b612847600260ff195f5160206136705f395f51905f525416175f5160206136705f395f51905f5255565b5f5160206136705f395f51905f525460ff169061286960405192839283611942565b0390a1565b6128855f5160206138b05f395f51905f5254611adb565b5f5160206138b05f395f51905f52556127a6565b6040516304c910db60e51b602082019081526001600160a01b038316602483015260448201939093526064810193909352610c669290915f918291906128e28160848101612184565b519082305af1506128f16120e6565b50613548565b6129008161180e565b6005810191612917610580845460ff9060081c1690565b612a70575f5160206136905f395f51905f52546001600160a01b0316806129d15750612957815f525f5160206137f05f395f51905f5260205260405f2090565b54906001830154820361268a575f826129b68295836129a881979661298e61260984995f5160206138505f395f51905f5254612580565b5f525f5160206137f05f395f51905f5260205260405f2090565b55546001600160a01b031690565b5af16129c06120e6565b501561267b57805461ff0019169055565b92916129f584612466845f525f5160206136d05f395f51905f5260205260405f2090565b54906001810154820361268a575f612a4061270f612a6b95612a19610c66996119d5565b612a24878254612580565b90555f525f5160206136d05f395f51905f5260205260405f2090565b555f5160206136905f395f51905f525461276a906001600160a01b031691546001600160a01b031690565b610637565b63f1e2bf4760e01b5f5260045ffd5b8015612312575f8181525f5160206136b05f395f51905f526020908152604080832033845290915290206002015461231257612af9604051612ac2608082610c35565b3381525f60208201524260408201525f60608201526124d533612466855f525f5160206136b05f395f51905f5260205260405f2090565b6040514281523391907fcb4765881b79e3f3e656357a384db0c5ebdbdad01ab9fbc82ea10f38b7730dbc908060208101612060565b5f5160206137d05f395f51905f525481106121bb575f5160206138105f395f51905f5254905f5160206136f05f395f51905f525482018092116118ff5781018091116118ff575f5160206138705f395f51905f5254101590565b909160405191602083019363f073128960e01b8552608484019160018060a01b031660248501526044840152606060648401528151809152602060a484019201905f5b818110612c17575050509181612bed5f9493859403601f198101835282610c35565b5190305afa612bfa6120e6565b9015612c035750565b8051918215612c125750602001fd5b915050565b8251845260209384019390920191600101612bcb565b91908260409103126103e957602082519201516102498161108b565b5f806040516020810190630837d3e560e01b825260048152612c6c602482610c35565b5190305afa612c796120e6565b90158015612d22575b6127755780602080612c9993518301019101612c2d565b50156123125760405163996d0fc360e01b602082019081526001600160a01b0390921660248201525f918291612cd28160448101612184565b5190305afa612cdf6120e6565b9080612d18575b612ced5750565b61058081602080612d0394518301019101612122565b612d0957565b638f3ef05560e01b5f5260045ffd5b5080511515612ce6565b50805115612c82565b5f5160206136905f395f51905f52549091906001600160a01b031680612d845750813403612d7557612d729061298e612609845f5160206138505f395f51905f5254611904565b55565b631f46ec3960e11b5f5260045ffd5b34612dca57612d7291612d9e8461270f9330903390613627565b5f5160206136905f395f51905f5254612dbf906001600160a01b03166119d5565b612a24858254611904565b6330b1d9ed60e01b5f5260045ffd5b5f8080926040516020810191633c615c8960e01b835260018060a01b0316602482015260248152612e0b604482610c35565b5190305afa612e186120e6565b9080612e3d575b612e27575090565b90506020818051810103126103e9576020015190565b5080511515612e1f565b6020818303126103e9578051906001600160401b0382116103e9570181601f820112156103e957805190612e7a82611114565b92612e886040519485610c35565b828452602083830101116103e957815f9260208093018386015e8301015290565b604090610249939281528160208201520190610168565b604051631efbd8db60e11b602082019081526001600160a01b03831660248301529192915f91829190612ef68160448101612184565b5190305afa612f036120e6565b908061301a575b612f1357505050565b80602080612f2693518301019101612122565b612f2e575050565b6040516355a26bbf60e01b602082019081526001600160a01b03841660248301525f91829190612f618160448101612184565b5190305afa612f6e6120e6565b9080613010575b612f7e57505050565b5f91612184612fb8612f9a846020808897518301019101612e47565b604051928391602083019563e44437eb60e01b875260248401612ea9565b519082305af1612fc66120e6565b50612fce5750565b60405163c0fc0d4360e01b602082019081526001600160a01b0390921660248201525f9182916130018160448101612184565b519082305af1506123126120e6565b5080511515612f75565b5080511515612f0a565b9061302e82611965565b90815491600160401b831015610bf95782613051916001613069950181556120bd565b90919082549060031b91821b915f19901b1916179055565b6001600160a01b0381165f9081527f53f955f4c4a9361ccb46aadc7047f8c04fa3701865bfe8009fc4a965d8bec484602052604090205460ff16156130ab5750565b5f5160206138f05f395f51905f5254600160401b811015610bf957610c66916130e982600161313994015f5160206138f05f395f51905f5255612088565b81546001600160a01b0393841660039290921b82811b94901b19169290921790555f9081527f53f955f4c4a9361ccb46aadc7047f8c04fa3701865bfe8009fc4a965d8bec4846020526040902090565b805460ff19166001179055565b60405163087efee960e01b602082019081526001600160a01b039092166024820152604481019290925260648201929092525f9182916130018160848101612184565b5f9060018060a01b03168082527f35edad4c931e57ec40cedc90b9e3e052832d1b49c07eb789b019aea9b39c91d960205260408220600181541790557f4c9bdd0c8e073eb5eda2250b18d8e5121ff27b62064fbeeeed4869bb99bc5bf2602060405160018152a3565b5f929183809360405190602082019363a9059cbb60e01b855260018060a01b0316602483015260448201526044815261322c606482610c35565b51925af16132386120e6565b9015908115613249575b5061267b57565b805180151592508261325e575b50505f613242565b6132719250602080918301019101612122565b155f80613256565b91908260409103126103e9576020825192015190565b969591936132e59360e0955f979360018060a01b03168a5260208a015260018060a01b031660408901526060880152608087015261010060a08701528361010087015261012060c0870152610120860190610168565b930152565b905f809160405161331581612184602082019463208674cb60e01b8652602483019190602083019252565b5190305afa6133226120e6565b9080613425575b156134155761334381602080604094518301019101612e47565b6133506020840151611a86565b9261336083820194855190611abd565b915f6133966133886105556105555f5160206137705f395f51905f525460018060a01b031690565b93516001600160a01b031690565b95515f5160206136905f395f51905f52546133d3906001600160a01b031693875198899788968795630d9f387560e01b875242936004880161328f565b03925af1908115611033575f916133e8575090565b61340a915060403d60401161340e575b6134028183610c35565b810190613279565b5090565b503d6133f8565b5060406134206120d2565b613343565b5080511515613329565b51906001600160401b03821682036103e957565b5190610c66826104ff565b6020818303126103e9578051906001600160401b0382116103e9570160c0818303126103e9576040519161348183610c1a565b81516001600160401b0381116103e95782019080601f830112156103e95781516134aa81610c78565b926134b86040519485610c35565b81845260208085019260051b8201019283116103e957602001905b828210613538575050506135309160a09184526134f26020820161342f565b60208501526135036040820161342f565b604085015261351460608201613443565b606085015261352560808201612115565b60808501520161342f565b60a082015290565b81518152602091820191016134d3565b604051635960213d60e11b602082019081526001600160a01b03831660248301529192915f9182919061357e8160448101612184565b5190305afa61358b6120e6565b9015801561361e575b61361957806020806135ab9351830101910161344e565b515f5b815181101561361357805f806135c660019486612315565b516040516303ab62b960e01b602082019081526001600160a01b038a16602483015260448201929092526135fd8160648101612184565b519082305af15061360c6120e6565b50016135ae565b50509050565b509050565b50805115613594565b6040516323b872dd60e01b602082019081526001600160a01b03938416602483015293909216604483015260648201939093525f9283929091839061322c816084810161218456fe53f955f4c4a9361ccb46aadc7047f8c04fa3701865bfe8009fc4a965d8bec47d53f955f4c4a9361ccb46aadc7047f8c04fa3701865bfe8009fc4a965d8bec47553f955f4c4a9361ccb46aadc7047f8c04fa3701865bfe8009fc4a965d8bec49653f955f4c4a9361ccb46aadc7047f8c04fa3701865bfe8009fc4a965d8bec48a53f955f4c4a9361ccb46aadc7047f8c04fa3701865bfe8009fc4a965d8bec4a153f955f4c4a9361ccb46aadc7047f8c04fa3701865bfe8009fc4a965d8bec47753f955f4c4a9361ccb46aadc7047f8c04fa3701865bfe8009fc4a965d8bec481ea537ac6c471129dee30132a4026bd38608a576514ee9b613614ef11e3ecb5b353f955f4c4a9361ccb46aadc7047f8c04fa3701865bfe8009fc4a965d8bec47453f955f4c4a9361ccb46aadc7047f8c04fa3701865bfe8009fc4a965d8bec47353f955f4c4a9361ccb46aadc7047f8c04fa3701865bfe8009fc4a965d8bec47653f955f4c4a9361ccb46aadc7047f8c04fa3701865bfe8009fc4a965d8bec47853f955f4c4a9361ccb46aadc7047f8c04fa3701865bfe8009fc4a965d8bec48853f955f4c4a9361ccb46aadc7047f8c04fa3701865bfe8009fc4a965d8bec47b53f955f4c4a9361ccb46aadc7047f8c04fa3701865bfe8009fc4a965d8bec47a53f955f4c4a9361ccb46aadc7047f8c04fa3701865bfe8009fc4a965d8bec48753f955f4c4a9361ccb46aadc7047f8c04fa3701865bfe8009fc4a965d8bec47953f955f4c4a9361ccb46aadc7047f8c04fa3701865bfe8009fc4a965d8bec47f53f955f4c4a9361ccb46aadc7047f8c04fa3701865bfe8009fc4a965d8bec47c53f955f4c4a9361ccb46aadc7047f8c04fa3701865bfe8009fc4a965d8bec48553f955f4c4a9361ccb46aadc7047f8c04fa3701865bfe8009fc4a965d8bec483a2646970667358221220f8190ec01e55905126199f98c2b77fd4520f887eaf5ec5a43cbe9f7dc7ea432964736f6c634300081e0033","linkReferences":{}},"methodIdentifiers":{"OfferingCore_init(address,address,address,address,uint256,uint256,uint256,uint256,string)":"aae0b1e0","attachInvestmentAgreement(uint256,bytes32)":"09a3352f","claimRefund(uint256)":"5b7baf64","countersignInvestment(uint256)":"788fe028","countersignInvestmentAsRepresentative(uint256,address)":"1472c4fc","getAllInvestors()":"d0a2f2c4","getDocumentSignerRole()":"eee7a047","getInvestment(uint256)":"22ae634f","getInvestorInvestments(address)":"4c431f00","getInvestorPaymentTotal(address)":"ad7724f2","getInvestorTotalInvestment(address)":"d2a641e4","getOfferingInfo()":"0044eff4","getPaymentInfo()":"04da3f19","invest(uint256,bytes32[])":"b80f3f55","investAsRepresentative(uint256,bytes32[],address)":"7c5bad65","rejectInvestment(uint256)":"f0fb56a8","setDocumentSignerRole(uint8)":"a2a47c2b","updateOfferingStatus(uint8)":"16268c28"},"id":110}