{"abi":[{"type":"function","name":"addDocumentRequirement","inputs":[{"name":"allowedTemplateIds","type":"bytes32[]","internalType":"bytes32[]"},{"name":"isRequired","type":"bool","internalType":"bool"},{"name":"minRequired","type":"uint8","internalType":"uint8"},{"name":"maxRequired","type":"uint8","internalType":"uint8"},{"name":"priority","type":"uint8","internalType":"uint8"},{"name":"label","type":"string","internalType":"string"}],"outputs":[],"stateMutability":"nonpayable"},{"type":"function","name":"addRequiredSigner","inputs":[{"name":"templateId","type":"bytes32","internalType":"bytes32"},{"name":"signer","type":"address","internalType":"address"}],"outputs":[],"stateMutability":"nonpayable"},{"type":"function","name":"canAccessDocument","inputs":[{"name":"user","type":"address","internalType":"address"},{"name":"accessLevel","type":"uint8","internalType":"enum IOfferingDocuments.DocumentAccessLevel"}],"outputs":[{"name":"canAccess","type":"bool","internalType":"bool"}],"stateMutability":"view"},{"type":"function","name":"canSignRequiredDocument","inputs":[{"name":"signer","type":"address","internalType":"address"}],"outputs":[{"name":"eligible","type":"bool","internalType":"bool"}],"stateMutability":"view"},{"type":"function","name":"createDocument","inputs":[{"name":"documentId","type":"bytes32","internalType":"bytes32"},{"name":"contentHash","type":"bytes32","internalType":"bytes32"},{"name":"storageURI","type":"string","internalType":"string"},{"name":"title","type":"string","internalType":"string"},{"name":"templateId","type":"bytes32","internalType":"bytes32"}],"outputs":[],"stateMutability":"nonpayable"},{"type":"function","name":"getDocument","inputs":[{"name":"documentId","type":"bytes32","internalType":"bytes32"}],"outputs":[{"name":"document","type":"tuple","internalType":"struct OfferingStorage.Document","components":[{"name":"contentHash","type":"bytes32","internalType":"bytes32"},{"name":"storageURI","type":"string","internalType":"string"},{"name":"title","type":"string","internalType":"string"},{"name":"templateId","type":"bytes32","internalType":"bytes32"},{"name":"creator","type":"address","internalType":"address"},{"name":"createdAt","type":"uint256","internalType":"uint256"},{"name":"exists","type":"bool","internalType":"bool"}]}],"stateMutability":"view"},{"type":"function","name":"getDocumentRequirement","inputs":[{"name":"index","type":"uint256","internalType":"uint256"}],"outputs":[{"name":"","type":"tuple","internalType":"struct OfferingStorage.DocumentRequirement","components":[{"name":"allowedTemplateIds","type":"bytes32[]","internalType":"bytes32[]"},{"name":"isRequired","type":"bool","internalType":"bool"},{"name":"minRequired","type":"uint8","internalType":"uint8"},{"name":"maxRequired","type":"uint8","internalType":"uint8"},{"name":"priority","type":"uint8","internalType":"uint8"},{"name":"label","type":"string","internalType":"string"}]}],"stateMutability":"view"},{"type":"function","name":"getDocumentRequirements","inputs":[],"outputs":[{"name":"","type":"tuple[]","internalType":"struct OfferingStorage.DocumentRequirement[]","components":[{"name":"allowedTemplateIds","type":"bytes32[]","internalType":"bytes32[]"},{"name":"isRequired","type":"bool","internalType":"bool"},{"name":"minRequired","type":"uint8","internalType":"uint8"},{"name":"maxRequired","type":"uint8","internalType":"uint8"},{"name":"priority","type":"uint8","internalType":"uint8"},{"name":"label","type":"string","internalType":"string"}]}],"stateMutability":"view"},{"type":"function","name":"getInvestorSignedDocument","inputs":[{"name":"investor","type":"address","internalType":"address"}],"outputs":[{"name":"documentId","type":"bytes32","internalType":"bytes32"}],"stateMutability":"view"},{"type":"function","name":"getInvestorSignedDocumentsByGroup","inputs":[{"name":"investor","type":"address","internalType":"address"}],"outputs":[{"name":"signedByGroup","type":"bytes32[][]","internalType":"bytes32[][]"}],"stateMutability":"view"},{"type":"function","name":"getRequiredDocumentInfo","inputs":[],"outputs":[{"name":"templateId","type":"bytes32","internalType":"bytes32"},{"name":"eligibility","type":"uint8","internalType":"enum IOfferingDocuments.SignerEligibility"}],"stateMutability":"view"},{"type":"function","name":"getRequiredSigners","inputs":[{"name":"templateId","type":"bytes32","internalType":"bytes32"}],"outputs":[{"name":"signers","type":"address[]","internalType":"address[]"}],"stateMutability":"view"},{"type":"function","name":"hasSignedAllRequiredDocuments","inputs":[{"name":"investor","type":"address","internalType":"address"}],"outputs":[{"name":"satisfied","type":"bool","internalType":"bool"}],"stateMutability":"view"},{"type":"function","name":"hasSignedDocument","inputs":[{"name":"investor","type":"address","internalType":"address"},{"name":"documentId","type":"bytes32","internalType":"bytes32"}],"outputs":[{"name":"hasSigned","type":"bool","internalType":"bool"},{"name":"signedAt","type":"uint256","internalType":"uint256"}],"stateMutability":"view"},{"type":"function","name":"hasSignedRequiredDocument","inputs":[{"name":"investor","type":"address","internalType":"address"}],"outputs":[{"name":"hasSigned","type":"bool","internalType":"bool"}],"stateMutability":"view"},{"type":"function","name":"isRequiredSignerForTemplate","inputs":[{"name":"templateId","type":"bytes32","internalType":"bytes32"},{"name":"signer","type":"address","internalType":"address"}],"outputs":[{"name":"isRequired","type":"bool","internalType":"bool"}],"stateMutability":"view"},{"type":"function","name":"removeDocumentRequirement","inputs":[{"name":"index","type":"uint256","internalType":"uint256"}],"outputs":[],"stateMutability":"nonpayable"},{"type":"function","name":"removeRequiredSigner","inputs":[{"name":"templateId","type":"bytes32","internalType":"bytes32"},{"name":"signer","type":"address","internalType":"address"}],"outputs":[],"stateMutability":"nonpayable"},{"type":"function","name":"setCustomEligibilityModule","inputs":[{"name":"module","type":"address","internalType":"address"}],"outputs":[],"stateMutability":"nonpayable"},{"type":"function","name":"setDocumentEligibilityMode","inputs":[{"name":"mode","type":"uint8","internalType":"uint8"}],"outputs":[],"stateMutability":"nonpayable"},{"type":"function","name":"setRequiredSigners","inputs":[{"name":"templateId","type":"bytes32","internalType":"bytes32"},{"name":"signers","type":"address[]","internalType":"address[]"}],"outputs":[],"stateMutability":"nonpayable"},{"type":"function","name":"signDocument","inputs":[{"name":"documentId","type":"bytes32","internalType":"bytes32"},{"name":"actualSigner","type":"address","internalType":"address"},{"name":"signerProof","type":"bytes","internalType":"bytes"}],"outputs":[],"stateMutability":"nonpayable"},{"type":"function","name":"updateDocumentRequirement","inputs":[{"name":"index","type":"uint256","internalType":"uint256"},{"name":"minRequired","type":"uint8","internalType":"uint8"},{"name":"maxRequired","type":"uint8","internalType":"uint8"},{"name":"priority","type":"uint8","internalType":"uint8"},{"name":"label","type":"string","internalType":"string"}],"outputs":[],"stateMutability":"nonpayable"},{"type":"event","name":"CustomEligibilityModuleSet","inputs":[{"name":"module","type":"address","indexed":true,"internalType":"address"}],"anonymous":false},{"type":"event","name":"DocumentCreated","inputs":[{"name":"documentId","type":"bytes32","indexed":true,"internalType":"bytes32"},{"name":"templateId","type":"bytes32","indexed":true,"internalType":"bytes32"},{"name":"creator","type":"address","indexed":true,"internalType":"address"},{"name":"title","type":"string","indexed":false,"internalType":"string"}],"anonymous":false},{"type":"event","name":"DocumentEligibilityModeSet","inputs":[{"name":"mode","type":"uint8","indexed":false,"internalType":"uint8"}],"anonymous":false},{"type":"event","name":"DocumentRequirementAdded","inputs":[{"name":"requirementIndex","type":"uint256","indexed":true,"internalType":"uint256"},{"name":"label","type":"string","indexed":false,"internalType":"string"},{"name":"minRequired","type":"uint8","indexed":false,"internalType":"uint8"},{"name":"maxRequired","type":"uint8","indexed":false,"internalType":"uint8"}],"anonymous":false},{"type":"event","name":"DocumentRequirementRemoved","inputs":[{"name":"requirementIndex","type":"uint256","indexed":true,"internalType":"uint256"}],"anonymous":false},{"type":"event","name":"DocumentRequirementUpdated","inputs":[{"name":"requirementIndex","type":"uint256","indexed":true,"internalType":"uint256"},{"name":"label","type":"string","indexed":false,"internalType":"string"},{"name":"minRequired","type":"uint8","indexed":false,"internalType":"uint8"},{"name":"maxRequired","type":"uint8","indexed":false,"internalType":"uint8"},{"name":"priority","type":"uint8","indexed":false,"internalType":"uint8"}],"anonymous":false},{"type":"event","name":"DocumentSigned","inputs":[{"name":"documentId","type":"bytes32","indexed":true,"internalType":"bytes32"},{"name":"signer","type":"address","indexed":true,"internalType":"address"},{"name":"timestamp","type":"uint256","indexed":false,"internalType":"uint256"}],"anonymous":false},{"type":"event","name":"DocumentSignedByRepresentative","inputs":[{"name":"documentId","type":"bytes32","indexed":true,"internalType":"bytes32"},{"name":"actualSigner","type":"address","indexed":true,"internalType":"address"},{"name":"entity","type":"address","indexed":true,"internalType":"address"},{"name":"timestamp","type":"uint256","indexed":false,"internalType":"uint256"}],"anonymous":false},{"type":"event","name":"RequiredSignerAdded","inputs":[{"name":"templateId","type":"bytes32","indexed":true,"internalType":"bytes32"},{"name":"signer","type":"address","indexed":true,"internalType":"address"}],"anonymous":false},{"type":"event","name":"RequiredSignerRemoved","inputs":[{"name":"templateId","type":"bytes32","indexed":true,"internalType":"bytes32"},{"name":"signer","type":"address","indexed":true,"internalType":"address"}],"anonymous":false},{"type":"event","name":"RequiredSignersSet","inputs":[{"name":"templateId","type":"bytes32","indexed":true,"internalType":"bytes32"},{"name":"signers","type":"address[]","indexed":false,"internalType":"address[]"}],"anonymous":false},{"type":"error","name":"AccessControl_CallerIsNotAuthorized","inputs":[{"name":"caller","type":"address","internalType":"address"},{"name":"functionSig","type":"bytes4","internalType":"bytes4"}]},{"type":"error","name":"OfferingDocuments_AlreadySigned","inputs":[]},{"type":"error","name":"OfferingDocuments_CannotChangeTemplateAfterInvestments","inputs":[]},{"type":"error","name":"OfferingDocuments_DocumentAlreadyExists","inputs":[]},{"type":"error","name":"OfferingDocuments_DocumentNotFound","inputs":[]},{"type":"error","name":"OfferingDocuments_InvalidDocumentId","inputs":[]},{"type":"error","name":"OfferingDocuments_InvalidEligibilityMode","inputs":[]},{"type":"error","name":"OfferingDocuments_InvalidMinMax","inputs":[]},{"type":"error","name":"OfferingDocuments_InvalidRequirementIndex","inputs":[]},{"type":"error","name":"OfferingDocuments_InvalidSignerProof","inputs":[]},{"type":"error","name":"OfferingDocuments_InvalidTemplateId","inputs":[]},{"type":"error","name":"OfferingDocuments_MaxDocumentsReached","inputs":[]},{"type":"error","name":"OfferingDocuments_MinDocumentsNotMet","inputs":[]},{"type":"error","name":"OfferingDocuments_NoRequiredDocument","inputs":[]},{"type":"error","name":"OfferingDocuments_NotAuthorizedSigner","inputs":[]},{"type":"error","name":"OfferingDocuments_NotRequiredDocument","inputs":[]},{"type":"error","name":"OfferingDocuments_TemplateNotFound","inputs":[]}],"bytecode":{"object":"0x6080806040523460155761311f908161001a8239f35b5f80fdfe60806040526004361015610011575f80fd5b5f358060e01c8063038be96714611f365780630837d3e514611f07578063129ffd2114611cd2578063251948e1146118e8578063289e04d71461188f5780633c615c89146118635780633c7135441461184057806341775d481461161c5780634e01b34a1461155857806350459e25146115165780635ef22e88146114f357806364a4abd8146111ff578063921c09d71461116e5780639773f86e14611132578063996d0fc31461109f578063a36a53e614610cbf578063a3a868dc14610c1c578063ad0bb95314610b1d578063b10d6b41146109de578063cc2a3b371461095b578063f3f9904014610435578063f98a6386146101755763f9fbd93314610117575f80fd5b3461017157604036600319011261017157610130611f8b565b6001600160e01b0319909116906101478233612c18565b1561015a576101589060043561298c565b005b50631d64bc3360e11b5f523360045260245260445ffd5b5f80fd5b50346101715760a0366003190112610171576004356024359160ff8316808403610171576101a16120f4565b6101a9612104565b906084356001600160401b038111610171576101c99036906004016120bf565b936001600160e01b0319166101de8133612c18565b1561041f57505f5160206130ca5f395f51905f5254851015610410577f53f955f4c4a9361ccb46aadc7047f8c04fa3701865bfe8009fc4a965d8bec47c546104015760ff8116958684116103f35761023586612205565b5090815488116103f3578361029b916102816002956102696001870193849061ff0082549160081b169061ff001916179055565b825462ff0000191660109190911b62ff000016178255565b9063ff00000082549160181b169063ff0000001916179055565b01948351956001600160401b0387116103df576102c2876102bc83546123d0565b8361241e565b602096601f811160011461035457916103339594939161031c8460ff957f2a1b83313d8a35d27676e4a8217bb61163f529bbbdcbf38e61eee715fe69bae79a9b5f91610349575b508160011b915f199060031b1c19161790565b90555b604051958695608087526080870190612114565b93602086015260408501521660608301520390a2005b90508801515f610309565b601f198116825f52885f20905f5b8181106103c757508261033398979694927f2a1b83313d8a35d27676e4a8217bb61163f529bbbdcbf38e61eee715fe69bae79a9b60ff9795600194106103af575b5050811b01905561031f565b8901515f1960f88460031b161c191690555f806103a3565b888b0151835560209a8b019a60019093019201610362565b634e487b7160e01b5f52604160045260245ffd5b6243ed5160e21b5f5260045ffd5b6339fce09f60e01b5f5260045ffd5b63cdaded6b60e01b5f5260045ffd5b631d64bc3360e11b5f523360045260245260445ffd5b3461017157606036600319011261017157600435610451611f8b565b6044356001600160401b03811161017157366023820112156101715761048190369060248160040135910161207a565b905f5160206130ca5f395f51905f52541561094c57825f525f51602061306a5f395f51905f5260205260405f2060ff6006820154161561093d57600301545f8181525f51602061302a5f395f51905f5260205260408120546104e281612205565b50915f8354905b818110610912575b505015610903575f8681525f51602061304a5f395f51905f52602090815260408083203384529091529020600201546108f457600161053260ff9233612dd4565b92015460101c1611156108e55760ff5f51602061308a5f395f51905f52541661055a81611fb7565b61056381611fb7565b6108c8575f9081525f5160206130aa5f395f51905f526020908152604080832033845290915290205460ff16156108b9575b6001600160a01b031690811515806108af575b156107d357602061067091604051828101907f4361705369676e20446f63756d656e74205369676e617475726520417574686f8252673934bd30ba34b7b760c11b60408201523060601b604882015286605c8201523360601b607c8201524660908201526090815261061b60b082612059565b5190207f19457468657265756d205369676e6564204d6573736167653a0a3332000000005f52601c52603c5f206040519384928392630b135d3f60e11b84526004840152604060248401526044830190612114565b0381855afa9081156107c8575f91610785575b506001600160e01b0319166374eca2c160e11b016107765761073c6040516106aa8161203e565b8281523360208083018281524260408086019182526001606087018181525f8b81525f51602061304a5f395f51905f528752838120978152969095529420945185546001600160a01b039182166001600160a01b031991821617875592519486018054959091169490921693909317905590516002830155516003909101805460ff191691151560ff16919091179055565b81610746336121cd565b55604051914283527f056feefb9bba149abbce45617e85a28fcda7d6bca7cac3c98a0ecd2654a6420160203394a4005b63287dd65360e11b5f5260045ffd5b90506020813d6020116107c0575b816107a060209383612059565b8101031261017157516001600160e01b0319811681036101715783610683565b3d9150610793565b6040513d5f823e3d90fd5b50506108756040516107e48161203e565b338082525f6020808401828152426040808701918252606087018581528986525f51602061304a5f395f51905f5285528186209686529590935291909220935184546001600160a01b039182166001600160a01b0319918216178655925160018601805491909216931692909217909155516002830155516003909101805460ff191691151560ff16919091179055565b8061087f336121cd565b55604051904282527fcb4765881b79e3f3e656357a384db0c5ebdbdad01ab9fbc82ea10f38b7730dbc60203393a3005b50338214156105a8565b6385f8b9bd60e01b5f5260045ffd5b506108d233612ae4565b610595576385f8b9bd60e01b5f5260045ffd5b630fa525eb60e11b5f5260045ffd5b634015883f60e11b5f5260045ffd5b6320093bf560e11b5f5260045ffd5b8561091d8287612297565b90549060031b1c14610931576001016104e9565b505050600187806104f1565b638c9c58df60e01b5f5260045ffd5b631fc32dab60e11b5f5260045ffd5b3461017157602036600319011261017157600435606060a060405161097f81612023565b8281525f60208201525f60408201525f838201525f608082015201525f5160206130ca5f395f51905f5254811015610410576109c66109c06109da92612205565b50612930565b604051918291602083526020830190612138565b0390f35b34610171576020366003190112610171575f60c06040516109fe81612008565b82815260606020820152606060408201528260608201528260808201528260a082015201526004355f525f51602061306a5f395f51905f5260205260405f20604051610a4981612008565b81548152610a5960018301612892565b9160208201928352610a6d60028201612892565b604083019081526003820154916060840192835260018060a01b036004820154166080850190815260ff600660058401549360a088019485520154169260c0860193158015855261093d57610af590610ae260405198899860208a525160208a01525160e060408a0152610100890190612114565b9051878203601f19016060890152612114565b93516080860152516001600160a01b031660a08501525160c084015251151560e08301520390f35b34610171575f366003190112610171575f5160206130ca5f395f51905f5254610b45816120dd565b90610b536040519283612059565b8082525f5160206130ca5f395f51905f525f9081526020830191907fe42bccf02e10141c5de39772219065f3066ef718d23aac33da8bac8a81b41ac7835b838310610bfe57848660405191829160208301906020845251809152604083019060408160051b85010192915f905b828210610bcf57505050500390f35b91936001919395506020610bee8192603f198a82030186528851612138565b9601920192018594939192610bc0565b60036020600192610c0e85612930565b815201920192019190610b91565b5034610171576020366003190112610171576004359060ff8216809203610171576001600160e01b031916610c518133612c18565b1561041f575060038111610cb0576020817f0764f6622260e626c96900578dffbf2a8efafae753a8dc07f47578131ae75be69260ff195f51602061308a5f395f51905f525416175f51602061308a5f395f51905f5255604051908152a1005b636a481c3b60e01b5f5260045ffd5b50346101715760c0366003190112610171576004356001600160401b038111610171573660238201121561017157806004013590610cfc826120dd565b91610d0a6040519384612059565b8083526024602084019160051b8301019136831161017157602401905b82821061108f57505050602435908115159283830361017157610d486120f4565b92610d51612104565b6084359060ff82168092036101715760a4356001600160401b03811161017157610d7f9036906004016120bf565b936001600160e01b031916610d948133612c18565b1561041f57508451156110805760ff8091169516918583116103f35785159081611078575b506103f3577f53f955f4c4a9361ccb46aadc7047f8c04fa3701865bfe8009fc4a965d8bec47c54610401575f5160206130ca5f395f51905f52549560405190610e0182612023565b858252602082019081526040820192848452606083018881526080840191825260a0840194878652600160401b8b10156103df5760018b015f5160206130ca5f395f51905f5255610e518b612205565b95909561106557518051906001600160401b0382116103df57602090610e778389612613565b01865f5260205f205f5b8381106110515750505050610f0592610eeb60ff879694610ed3828096610ebd600160029d01995115158a9060ff801983541691151516179055565b51885461ff001916911660081b61ff0016178755565b51855462ff00001916911660101b62ff000016178455565b51825463ff0000001916911660181b63ff00000016179055565b0190518051906001600160401b0382116103df57610f2d82610f2785546123d0565b8561241e565b602090601f8311600114610fee57610f5c92915f9183610fe3575b50508160011b915f199060031b1c19161790565b90555b5f5b8351811015610f975780610f7760019286612364565b515f525f51602061302a5f395f51905f526020528660405f205501610f61565b50610fd392507f4cf0dc7cc781403ab9f178f48c7f1c49842ef2502cc007e0620a8dc31507b94b93604051938493606085526060850190612114565b91602084015260408301520390a2005b015190505f80610f48565b90601f19831691845f52815f20925f5b8181106110395750908460019594939210611021575b505050811b019055610f5f565b01515f1960f88460031b161c191690555f8080611014565b92936020600181928786015181550195019301610ffe565b600190602084519401938184015501610e81565b634e487b7160e01b5f525f60045260245ffd5b90505f610db9565b63ad064c1760e01b5f5260045ffd5b8135815260209182019101610d27565b34610171576020366003190112610171576110b8611fa1565b604051630bde45d160e31b81526001600160a01b039091166004820152602081602481305afa80156107c8575f906110f8575b6020906040519015158152f35b506020813d60201161112a575b8161111260209383612059565b8101031261017157611125602091612885565b6110eb565b3d9150611105565b346101715760403660031901126101715761114b611fa1565b602435906004821015610171576020916111649161278b565b6040519015158152f35b503461017157602036600319011261017157611188611fa1565b906001600160e01b03191661119d8133612c18565b1561041f57505f51602061308a5f395f51905f528054610100600160a81b031916600883901b610100600160a81b03161790556001600160a01b03167f616b9ff2d063e472a3ae2c9607792d0804fbb5508f09b155d6977ecce1e8e65d5f80a2005b503461017157602036600319011261017157600435906001600160e01b0319166112298133612c18565b1561041f57505f5160206130ca5f395f51905f5254811015610410577f53f955f4c4a9361ccb46aadc7047f8c04fa3701865bfe8009fc4a965d8bec47c546104015761127d61127782612205565b50612386565b905f5b82518110156112b6578061129660019285612364565b515f525f51602061302a5f395f51905f526020525f604081205501611280565b505f5160206130ca5f395f51905f52545f1981019081116114df578082036113d8575b505f5160206130ca5f395f51905f525480156113c4575f19016112fb81612205565b6110655780545f8255806113a0575b50805f600160029301550161131f81546123d0565b908161135d575b50505f5160206130ca5f395f51905f52557f6a21b0a8b8e78126c1a884f11d00ea9ebb13315d1085f55a5210b7a90d34d4ce5f80a2005b81601f5f93116001146113745750555b8280611326565b8183526020832061139091601f0160051c810190600101612408565b808252816020812091555561136d565b815f5260205f20908101905b8181106113b9575061130a565b5f81556001016113ac565b634e487b7160e01b5f52603160045260245ffd5b6113e190612205565b506113eb82612205565b61106557818103611445575b505061140561127782612205565b5f5b815181101561143d578061141d60019284612364565b515f525f51602061302a5f395f51905f526020528360405f205501611407565b5050816112d9565b600280836114566114d89585612653565b6114d06001850160ff6001840161147c82825416849060ff801983541691151516179055565b8054835461ff001916600891821c841690911b61ff00161783558054835462ff00001916601091821c841690911b62ff0000161783555460181c1663ff00000082549160181b169063ff0000001916179055565b0191016126ac565b81806113f7565b634e487b7160e01b5f52601160045260245ffd5b34610171576020366003190112610171576020611164611511611fa1565b6125ab565b503461017157604036600319011261017157611530611f8b565b6001600160e01b0319909116906115478233612c18565b1561015a57610158906004356124ee565b34610171576020366003190112610171576004355f525f51602061300a5f395f51905f5260205260405f20604051806020835491828152019081935f5260205f20905f5b8181106115fd57505050816115b2910382612059565b604051918291602083019060208452518091526040830191905f5b8181106115db575050500390f35b82516001600160a01b03168452859450602093840193909201916001016115cd565b82546001600160a01b031684526020909301926001928301920161159c565b50346101715760403660031901126101715760043590602435906001600160401b0382116101715736602383011215610171578160040135906001600160401b038211610171576024830192602436918460051b010111610171576001600160e01b03191661168b8133612c18565b1561041f5750825f525f51602061300a5f395f51905f5260205260405f20905f5b825481101561170657600190855f525f5160206130aa5f395f51905f5260205260405f206116da8286612297565b848060a01b0391549060031b1c16838060a01b03165f5260205260405f2060ff198154169055016116ac565b848285825f525f51602061300a5f395f51905f5260205260405f2080545f825580611826575b50505f5b8281106117a9575060405191806020840160208552526040830191905f905b80821061177f57857f2501acd8f2f5de07f98732b95a4a5bb4e8209f7030c609fa582fc1427acc79fb86860387a2005b90919283359060018060a01b0382168092036101715760208160019382935201940192019061174f565b600190845f525f51602061300a5f395f51905f526020526117e060405f206117da6117d5848888612483565b612493565b906124a7565b845f525f5160206130aa5f395f51905f5260205260405f206118066117d5838787612483565b838060a01b03165f5260205260405f208260ff1982541617905501611730565b611839915f5260205f2090810190612408565b838061172c565b3461017157602036600319011261017157602061116461185e611fa1565b612461565b34610171576020366003190112610171576020611886611881611fa1565b6121cd565b54604051908152f35b34610171576040366003190112610171576118a8611fa1565b6024355f525f51602061304a5f395f51905f5260205260405f209060018060a01b03165f5260205260406002815f20015481519080151582526020820152f35b346101715760a0366003190112610171576004356044356001600160401b0381116101715761191b9036906004016120bf565b6064356001600160401b0381116101715761193a9036906004016120bf565b91608435918115611cc357815f525f51602061306a5f395f51905f5260205260ff600660405f20015416611cb4575f5f5f5160206130ca5f395f51905f52545b808210611c50575b505015611c41576040519061199682612008565b6024358252602082019081526040820185815260608301858152608084019033825260a085019242845260c086019460018652875f525f51602061306a5f395f51905f5260205260405f20965187556001870190518051906001600160401b0382116103df57611a0a82610f2785546123d0565b602090601f8311600114611bde57611a3892915f9183611bd35750508160011b915f199060031b1c19161790565b90555b51805160028701916001600160401b0382116103df57611a5f82610f2785546123d0565b602090601f8311600114611b6557826006979593611ae39a99979593611a99935f92611b5a5750508160011b915f199060031b1c19161790565b90555b516003860155516004850180546001600160a01b039092166001600160a01b0319909216919091179055516005840155519101805460ff191691151560ff16919091179055565b611aec33612195565b8054600160401b8110156103df57611b0991600182018155612297565b81549060031b9083821b915f19901b19161790557ff2c80f448c6d4e755b20ce6bb42b87856d578da264519d604797a0301ed55dcc6040516020815280611b5533966020830190612114565b0390a4005b015190508e80610f48565b90601f19831691845f52815f20925f5b818110611bbb575092600192859260069a9896611ae39d9c9a989610611ba3575b505050811b019055611a9c565b01515f1960f88460031b161c191690558d8080611b96565b92936020600181928786015181550195019301611b75565b015190508d80610f48565b90601f19831691845f52815f20925f5b818110611c295750908460019594939210611c11575b505050811b019055611a3b565b01515f1960f88460031b161c191690558c8080611c04565b92936020600181928786015181550195019301611bee565b63f74fef5960e01b5f5260045ffd5b611c61611277839694979593612205565b905f5b8251811015611ca65785611c788285612364565b5114611c8657600101611c64565b509193955050600193919391825b611ca1576001019061197a565b611982565b509193958093959150611c94565b63426e592760e11b5f5260045ffd5b63126d712360e11b5f5260045ffd5b3461017157602036600319011261017157611ceb611fa1565b5f5160206130ca5f395f51905f5254611d03816120dd565b91611d116040519384612059565b818352601f19611d20836120dd565b015f5b818110611ef65750505f5b828110611d9c57836040518091602082016020835281518091526040830190602060408260051b8601019301915f905b828210611d6d57505050500390f35b91936001919395506020611d8c8192603f198a82030186528851611fd5565b9601920192018594939192611d5e565b611da581612205565b50805490611db282612332565b915f915f5b828110611e1657505050611dca81612332565b915f5b828110611df75750505090600191611de58287612364565b52611df08186612364565b5001611d2e565b80611e0460019284612364565b51611e0f8287612364565b5201611dcd565b611e208183612297565b90549060031b1c611e3088612195565b805490915f5b828110611e4a575b50505050600101611db7565b611e548185612297565b90549060031b1c5f525f51602061306a5f395f51905f5260205281600360405f2001541480611eb0575b611e8a57600101611e36565b50611ea69250869150611ea06001949789612364565b52612378565b93908a8080611e3e565b50611ebb8185612297565b90549060031b1c5f525f51602061304a5f395f51905f5260205260405f2060018060a01b038c165f52602052600260405f2001541515611e7e565b806060602080938801015201611d23565b34610171575f366003190112610171576040611f216122ac565b8251918252611f2f81611fb7565b6020820152f35b3461017157604036600319011261017157611f4f611f8b565b6004355f525f5160206130aa5f395f51905f5260205260405f209060018060a01b03165f52602052602060ff60405f2054166040519015158152f35b602435906001600160a01b038216820361017157565b600435906001600160a01b038216820361017157565b60041115611fc157565b634e487b7160e01b5f52602160045260245ffd5b90602080835192838152019201905f5b818110611ff25750505090565b8251845260209384019390920191600101611fe5565b60e081019081106001600160401b038211176103df57604052565b60c081019081106001600160401b038211176103df57604052565b608081019081106001600160401b038211176103df57604052565b90601f801991011681019081106001600160401b038211176103df57604052565b9291926001600160401b0382116103df57604051916120a3601f8201601f191660200184612059565b829481845281830111610171578281602093845f960137010152565b9080601f83011215610171578160206120da9335910161207a565b90565b6001600160401b0381116103df5760051b60200190565b6044359060ff8216820361017157565b6064359060ff8216820361017157565b805180835260209291819084018484015e5f828201840152601f01601f1916010190565b6120da9160a0612151835160c0845260c0840190611fd5565b9260208101511515602084015260ff604082015116604084015260ff606082015116606084015260ff608082015116608084015201519060a0818403910152612114565b6001600160a01b03165f9081527f53f955f4c4a9361ccb46aadc7047f8c04fa3701865bfe8009fc4a965d8bec4936020526040902090565b6001600160a01b03165f9081527f53f955f4c4a9361ccb46aadc7047f8c04fa3701865bfe8009fc4a965d8bec4916020526040902090565b5f5160206130ca5f395f51905f5254811015612239575f5160206130ca5f395f51905f525f52600360205f20910201905f90565b634e487b7160e01b5f52603260045260245ffd5b5f5160206130ca5f395f51905f525415612239575f5160206130ca5f395f51905f525f9081527fe42bccf02e10141c5de39772219065f3066ef718d23aac33da8bac8a81b41ac791565b8054821015612239575f5260205f2001905f90565b5f5160206130ca5f395f51905f5254151580612320575b6122e85760ff5f51602061308a5f395f51905f525416906122e382611fb7565b5f9190565b6122f061224d565b50805415612239575f5260205f20549060ff5f51602061308a5f395f51905f5254169161231c83611fb7565b9190565b5061232961224d565b505415156122c3565b9061233c826120dd565b6123496040519182612059565b828152809261235a601f19916120dd565b0190602036910137565b80518210156122395760209160051b010190565b5f1981146114df5760010190565b90604051918281549182825260208201905f5260205f20925f5b8181106123b75750506123b592500383612059565b565b84548352600194850194879450602090930192016123a0565b90600182811c921680156123fe575b60208310146123ea57565b634e487b7160e01b5f52602260045260245ffd5b91607f16916123df565b818110612413575050565b5f8155600101612408565b9190601f811161242d57505050565b6123b5925f5260205f20906020601f840160051c83019310612457575b601f0160051c0190612408565b909150819061244a565b5f5160206130ca5f395f51905f52541561247e576120da90612ae4565b505f90565b91908110156122395760051b0190565b356001600160a01b03811681036101715790565b90815491600160401b8310156103df57826124ca9160016123b595018155612297565b81546001600160a01b0393841660039290921b91821b9390911b1916919091179055565b90815f525f5160206130aa5f395f51905f5260205260405f2060018060a01b0382165f5260205260ff60405f2054166125a757815f525f51602061300a5f395f51905f526020526125428160405f206124a7565b5f8281525f5160206130aa5f395f51905f52602090815260408083206001600160a01b0394909416808452939091528120805460ff191660011790559091907ff423ea79bc99e6796ba530677a5c10483e4a7b201eccb884de028d467e0e9df29080a3565b5050565b5f5160206130ca5f395f51905f5254905f5b8281106125cc57505050600190565b60016125d782612205565b50015460ff81161561260a5760ff6125ef8385612dd4565b9160081c1611612603576001905b016125bd565b5050505f90565b506001906125fd565b90600160401b81116103df5781549181815582821061263157505050565b5f5260205f2091820191015b818110612648575050565b5f815560010161263d565b8181146125a7578154916001600160401b0383116103df576126758383612613565b5f5260205f20905f5260205f208154915f925b848410612696575050505050565b6001809192019384549281850155019290612688565b919091828114612786576126c083546123d0565b6001600160401b0381116103df576126e2816126dc84546123d0565b8461241e565b5f93601f82116001146127205761271192939482915f926127155750508160011b915f199060031b1c19161790565b9055565b015490505f80610f48565b601f198216905f5260205f2094835f5260205f20915f5b81811061276e57509583600195969710612756575b505050811b019055565b01545f1960f88460031b161c191690555f808061274c565b9192600180602092868b015481550194019201612737565b509050565b9061279581611fb7565b801561287e577f53f955f4c4a9361ccb46aadc7047f8c04fa3701865bfe8009fc4a965d8bec473546001600160a01b0316906127d081611fb7565b6003811461285d576127e181611fb7565b60028114612809576001906127f581611fb7565b146128005750505f90565b6120da91612fc6565b506001600160a01b0382165f9081527f53f955f4c4a9361ccb46aadc7047f8c04fa3701865bfe8009fc4a965d8bec4826020526040902054159161284d9190612f83565b811591612858575090565b905090565b506128688183612edc565b91821561287457505090565b6120da9250612f40565b5050600190565b5190811515820361017157565b9060405191825f8254926128a5846123d0565b808452936001811690811561290e57506001146128ca575b506123b592500383612059565b90505f9291925260205f20905f915b8183106128f25750509060206123b5928201015f6128bd565b60209193508060019154838589010152019101909184926128d9565b9050602092506123b594915060ff191682840152151560051b8201015f6128bd565b9060405161293d81612023565b60a06129876002839561294f81612386565b855260ff600182015481811615156020880152818160081c166040880152818160101c16606088015260181c16608086015201612892565b910152565b805f525f5160206130aa5f395f51905f5260205260405f2060018060a01b0383165f5260205260ff60405f205416156125a7575f8181525f5160206130aa5f395f51905f52602090815260408083206001600160a01b03861684528252808320805460ff191690558383525f51602061300a5f395f51905f52909152812092905b835480821015612ada57612a218286612297565b905460039190911b1c6001600160a01b0390811690841614612a465750600101612a0d565b929391925f198101919082116114df576124ca612a66612a7f9385612297565b905460039190911b1c6001600160a01b03169184612297565b805480156113c4575f190190612a958282612297565b81549060018060a01b039060031b1b19169055555b6001600160a01b0316907f6a1b4c158163e3f20bb7d98717c441faffde96c991e9481215c5342a3c530bbb5f80a3565b5050909150612aaa565b5f51602061308a5f395f51905f525460ff8116612b0081611fb7565b612b0981611fb7565b60018103612b1957505050600190565b612b2281611fb7565b60028103612b3257505050600190565b612b3b81611fb7565b60038103612bd5575060081c6001600160a01b0316908115612bcf576040516366e305fd60e01b81526001600160a01b03909116600482015290602090829060249082905afa5f9181612b93575b506120da57505f90565b9091506020813d602011612bc7575b81612baf60209383612059565b8101031261017157612bc090612885565b905f612b89565b3d9150612ba2565b50505f90565b915050612be181611fb7565b15612bea575f90565b5f90565b9190826040910312610171576020612c0583612885565b92015163ffffffff811681036101715790565b7f35edad4c931e57ec40cedc90b9e3e052832d1b49c07eb789b019aea9b39c91db546001600160a01b031680612d4d575b5060018060a01b0381165f527f35edad4c931e57ec40cedc90b9e3e052832d1b49c07eb789b019aea9b39c91d960205260405f20549163ffffffff60e01b165f527f35edad4c931e57ec40cedc90b9e3e052832d1b49c07eb789b019aea9b39c91da60205260405f2054908115612d09576001600160a01b03165f9081527f35edad4c931e57ec40cedc90b9e3e052832d1b49c07eb789b019aea9b39c91d960205260409020546001161515918215612d0157505090565b161515919050565b6001600160a01b03165f9081527f35edad4c931e57ec40cedc90b9e3e052832d1b49c07eb789b019aea9b39c91d96020526040902054600116151591506120da9050565b6040805163b700961360e01b81526001600160a01b03841660048201523060248201526001600160e01b03198516604482015291829060649082905afa5f9181612da2575b5015612c495761287e575f612c49565b612dc591925060403d604011612dcd575b612dbd8183612059565b810190612bee565b50905f612d92565b503d612db3565b5f915f5160206130ca5f395f51905f525481101561260357612df590612205565b508054905f5b828110612e09575050505090565b612e138183612297565b90549060031b1c612e2385612195565b8054905f5b828110612e3c575b50505050600101612dfb565b612e468183612297565b90549060031b1c5f525f51602061306a5f395f51905f5260205283600360405f2001541480612e96575b612e7c57600101612e28565b5050505093612e8c600191612378565b94905f8080612e30565b50612ea18183612297565b90549060031b1c5f525f51602061304a5f395f51905f5260205260405f2060018060a01b0389165f52602052600260405f2001541515612e70565b604080516368fc2b7760e11b81525f60048201526001600160a01b03928316602482015292909183916044918391165afa5f9181612f1e57506120da57505f90565b612f3891925060403d604011612dcd57612dbd8183612059565b50905f612b89565b604080516368fc2b7760e11b8152600260048201526001600160a01b03928316602482015292909183916044918391165afa5f9181612f1e57506120da57505f90565b604080516368fc2b7760e11b8152600560048201526001600160a01b03928316602482015292909183916044918391165afa5f9181612f1e57506120da57505f90565b604080516368fc2b7760e11b8152600660048201526001600160a01b03928316602482015292909183916044918391165afa5f9181612f1e57506120da57505f9056fe53f955f4c4a9361ccb46aadc7047f8c04fa3701865bfe8009fc4a965d8bec48e53f955f4c4a9361ccb46aadc7047f8c04fa3701865bfe8009fc4a965d8bec48c53f955f4c4a9361ccb46aadc7047f8c04fa3701865bfe8009fc4a965d8bec49253f955f4c4a9361ccb46aadc7047f8c04fa3701865bfe8009fc4a965d8bec49053f955f4c4a9361ccb46aadc7047f8c04fa3701865bfe8009fc4a965d8bec48d53f955f4c4a9361ccb46aadc7047f8c04fa3701865bfe8009fc4a965d8bec48f53f955f4c4a9361ccb46aadc7047f8c04fa3701865bfe8009fc4a965d8bec48ba2646970667358221220a43a8f5dfbdce823c962595c325167056699f89869317209d72ad371e9fea1ac64736f6c634300081e0033","linkReferences":{}},"methodIdentifiers":{"addDocumentRequirement(bytes32[],bool,uint8,uint8,uint8,string)":"a36a53e6","addRequiredSigner(bytes32,address)":"50459e25","canAccessDocument(address,uint8)":"9773f86e","canSignRequiredDocument(address)":"3c713544","createDocument(bytes32,bytes32,string,string,bytes32)":"251948e1","getDocument(bytes32)":"b10d6b41","getDocumentRequirement(uint256)":"cc2a3b37","getDocumentRequirements()":"ad0bb953","getInvestorSignedDocument(address)":"3c615c89","getInvestorSignedDocumentsByGroup(address)":"129ffd21","getRequiredDocumentInfo()":"0837d3e5","getRequiredSigners(bytes32)":"4e01b34a","hasSignedAllRequiredDocuments(address)":"5ef22e88","hasSignedDocument(address,bytes32)":"289e04d7","hasSignedRequiredDocument(address)":"996d0fc3","isRequiredSignerForTemplate(bytes32,address)":"038be967","removeDocumentRequirement(uint256)":"64a4abd8","removeRequiredSigner(bytes32,address)":"f9fbd933","setCustomEligibilityModule(address)":"921c09d7","setDocumentEligibilityMode(uint8)":"a3a868dc","setRequiredSigners(bytes32,address[])":"41775d48","signDocument(bytes32,address,bytes)":"f3f99040","updateDocumentRequirement(uint256,uint8,uint8,uint8,string)":"f98a6386"},"id":96}