{"abi":[{"type":"function","name":"OffchainInvestment_init","inputs":[],"outputs":[],"stateMutability":"nonpayable"},{"type":"function","name":"cancelOffchainInvestment","inputs":[{"name":"investmentId","type":"uint256","internalType":"uint256"}],"outputs":[],"stateMutability":"nonpayable"},{"type":"function","name":"confirmOffchainInvestment","inputs":[{"name":"investmentId","type":"uint256","internalType":"uint256"}],"outputs":[],"stateMutability":"nonpayable"},{"type":"function","name":"getInvestorOffchainInvestments","inputs":[{"name":"investor","type":"address","internalType":"address"}],"outputs":[{"name":"","type":"uint256[]","internalType":"uint256[]"}],"stateMutability":"view"},{"type":"function","name":"getNextOffchainInvestmentId","inputs":[],"outputs":[{"name":"","type":"uint256","internalType":"uint256"}],"stateMutability":"view"},{"type":"function","name":"getOffchainInvestment","inputs":[{"name":"investmentId","type":"uint256","internalType":"uint256"}],"outputs":[{"name":"","type":"tuple","internalType":"struct OfferingStorage.OffchainInvestment","components":[{"name":"investor","type":"address","internalType":"address"},{"name":"amount","type":"uint256","internalType":"uint256"},{"name":"tokenQuantity","type":"uint256","internalType":"uint256"},{"name":"timestamp","type":"uint256","internalType":"uint256"},{"name":"status","type":"uint8","internalType":"enum OfferingStorage.OffchainInvestmentStatus"},{"name":"paymentMethod","type":"string","internalType":"string"},{"name":"referenceId","type":"string","internalType":"string"},{"name":"attestationUID","type":"bytes32","internalType":"bytes32"},{"name":"subscriptionAgreementRef","type":"bytes32","internalType":"bytes32"},{"name":"confirmedAt","type":"uint256","internalType":"uint256"}]}],"stateMutability":"view"},{"type":"function","name":"getTotalOffchainConfirmed","inputs":[],"outputs":[{"name":"","type":"uint256","internalType":"uint256"}],"stateMutability":"view"},{"type":"function","name":"getTotalOffchainPending","inputs":[],"outputs":[{"name":"","type":"uint256","internalType":"uint256"}],"stateMutability":"view"},{"type":"function","name":"isOffchainInvestmentInitialized","inputs":[],"outputs":[{"name":"","type":"bool","internalType":"bool"}],"stateMutability":"view"},{"type":"function","name":"packedSelectors","inputs":[],"outputs":[{"name":"","type":"bytes","internalType":"bytes"}],"stateMutability":"pure"},{"type":"function","name":"recordOffchainInvestment","inputs":[{"name":"investor","type":"address","internalType":"address"},{"name":"amount","type":"uint256","internalType":"uint256"},{"name":"tokenQuantity","type":"uint256","internalType":"uint256"},{"name":"paymentMethod","type":"string","internalType":"string"},{"name":"referenceId","type":"string","internalType":"string"},{"name":"attestationUID","type":"bytes32","internalType":"bytes32"},{"name":"subscriptionAgreementRef","type":"bytes32","internalType":"bytes32"}],"outputs":[{"name":"investmentId","type":"uint256","internalType":"uint256"}],"stateMutability":"nonpayable"},{"type":"event","name":"OffchainInvestmentCancelled","inputs":[{"name":"investmentId","type":"uint256","indexed":true,"internalType":"uint256"},{"name":"cancelledBy","type":"address","indexed":true,"internalType":"address"}],"anonymous":false},{"type":"event","name":"OffchainInvestmentConfirmed","inputs":[{"name":"investmentId","type":"uint256","indexed":true,"internalType":"uint256"},{"name":"confirmedBy","type":"address","indexed":true,"internalType":"address"}],"anonymous":false},{"type":"event","name":"OffchainInvestmentInitialized","inputs":[],"anonymous":false},{"type":"event","name":"OffchainInvestmentRecorded","inputs":[{"name":"investmentId","type":"uint256","indexed":true,"internalType":"uint256"},{"name":"investor","type":"address","indexed":true,"internalType":"address"},{"name":"amount","type":"uint256","indexed":false,"internalType":"uint256"},{"name":"tokenQuantity","type":"uint256","indexed":false,"internalType":"uint256"},{"name":"paymentMethod","type":"string","indexed":false,"internalType":"string"}],"anonymous":false},{"type":"event","name":"OfferingStatusChanged","inputs":[{"name":"oldStatus","type":"uint8","indexed":false,"internalType":"enum OfferingStorage.OfferingStatus"},{"name":"newStatus","type":"uint8","indexed":false,"internalType":"enum OfferingStorage.OfferingStatus"}],"anonymous":false},{"type":"error","name":"AccessControl_CallerIsNotAuthorized","inputs":[{"name":"caller","type":"address","internalType":"address"},{"name":"functionSig","type":"bytes4","internalType":"bytes4"}]},{"type":"error","name":"OffchainInvestment_AlreadyInitialized","inputs":[]},{"type":"error","name":"OffchainInvestment_InvalidAmount","inputs":[]},{"type":"error","name":"OffchainInvestment_InvalidInvestmentId","inputs":[]},{"type":"error","name":"OffchainInvestment_NotPending","inputs":[]}],"bytecode":{"object":"0x608080604052346015576119e1908161001a8239f35b5f80fdfe60806040526004361015610011575f80fd5b5f3560e01c80632328af7b146100c45780633e62267c146100bf5780634a87a6f1146100ba5780634f16ebdb146100b55780636b440cf0146100b057806397fc64f5146100ab578063a433c021146100a6578063b24c1315146100a1578063c77026121461009c578063f2339fde146100975763f882ad2014610092575f80fd5b610a14565b61096b565b610942565b6108b0565b610757565b610700565b6103aa565b610334565b6101e1565b610129565b346100ed575f3660031901126100ed5760205f51602061190c5f395f51905f5254604051908152f35b5f80fd5b805180835260209291819084018484015e5f828201840152601f01601f1916010190565b9060206101269281815201906100f1565b90565b346100ed575f3660031901126100ed57604051637919cfef60e11b6020820152634a87a6f160e01b60248201526306b440cf60e41b6028820152634f16ebdb60e01b602c8201526397fc64f560e01b603082015263b24c131560e01b6034820152632328af7b60e01b60388201526101dd906363b8130960e11b603c8201526307c4156960e51b604082015263a433c02160e01b6044820152602881526101d1604882610aa7565b60405191829182610115565b0390f35b346100ed5760203660031901126100ed576004355f356001600160e01b03191661020b81336111ea565b156102d457505f51602061198c5f395f51905f52548110156102c55761023081610ac9565b6004810190610240825460ff1690565b610249816107fa565b6102b657600161027d9161026761028e94600260ff19825416179055565b01545f51602061192c5f395f51905f5254610b22565b5f51602061192c5f395f51905f5255565b33907f3e852a8a6ab520f601a6a4d6ae21e4352db40600c79d2d04ef2c3f4dc0a390f85f80a3005b63d79b44e160e01b5f5260045ffd5b638681969d60e01b5f5260045ffd5b631d64bc3360e11b5f523360045260245260445ffd5b6001600160a01b038116036100ed57565b60206040818301928281528451809452019201905f5b81811061031e5750505090565b8251845260209384019390920191600101610311565b346100ed5760203660031901126100ed57610359600435610354816102ea565b610b34565b6040519081602082549182815201915f5260205f20905f5b818110610394576101dd8561038881870382610aa7565b604051918291826102fb565b8254845260209093019260019283019201610371565b346100ed5760203660031901126100ed576004355f356001600160e01b0319166103d481336111ea565b156102d457505f51602061198c5f395f51905f52548110156102c5576103f981610ac9565b6004810190610409825460ff1690565b610412816107fa565b6102b657805461050b928492909161050391906001600160a01b03169261046061045261044e600185019661044989895483611267565b611331565b1590565b825460ff1916600117909255565b42600983015561048261027d85545f51602061192c5f395f51905f5254610b22565b6104af61049e85545f51602061190c5f395f51905f5254610bb6565b5f51602061190c5f395f51905f5255565b81546001600160a01b03165f8181527f0fa078836d60d6f1a26f9c39e4aa04fc112fb285ab1bb896760cc332f16a2be9602052604090205460ff16156106a9575b50610653575b546001600160a01b031690565b90549061143e565b6105457f0fa078836d60d6f1a26f9c39e4aa04fc112fb285ab1bb896760cc332f16a2bdf545f51602061190c5f395f51905f525490610bb6565b7f0fa078836d60d6f1a26f9c39e4aa04fc112fb285ab1bb896760cc332f16a2bdd54111580610629575b61059c575b33907f0d66a839b4231d44ad8fac60de8cba3f8b5004c3abeed67a2d02f0f55b318b5f5f80a3005b7f090dc240b6971396472961dc185f630e0a38a8785c5c37c22b858ac2255a7fbb6105d55f51602061194c5f395f51905f525460ff1690565b6105ff600260ff195f51602061194c5f395f51905f525416175f51602061194c5f395f51905f5255565b5f51602061194c5f395f51905f525460ff169061062160405192839283610c89565b0390a1610574565b5060016106445f51602061194c5f395f51905f525460ff1690565b61064d81610c7f565b1461056f565b6106a46106807f0fa078836d60d6f1a26f9c39e4aa04fc112fb285ab1bb896760cc332f16a2be054610c71565b7f0fa078836d60d6f1a26f9c39e4aa04fc112fb285ab1bb896760cc332f16a2be055565b6104f6565b6106b290610bd7565b81546001600160a01b03165f9081527f0fa078836d60d6f1a26f9c39e4aa04fc112fb285ab1bb896760cc332f16a2be9602052604090206106fa90805460ff19166001179055565b5f6104f0565b346100ed575f3660031901126100ed5760205f51602061198c5f395f51905f5254604051908152f35b9181601f840112156100ed5782359167ffffffffffffffff83116100ed57602083818601950101116100ed57565b346100ed5760e03660031901126100ed57600435610774816102ea565b602435906044359060643567ffffffffffffffff81116100ed5761079c903690600401610729565b93906084359367ffffffffffffffff85116100ed576101dd956107c66107d6963690600401610729565b93909260a4359560c43597610cac565b6040519081529081906020820190565b634e487b7160e01b5f52602160045260245ffd5b6003111561080457565b6107e6565b9060038210156108045752565b602080825282516001600160a01b03169082015260208201516040820152604082015160608201526060820151608082015261085a608083015160a0830190610809565b61014061012061089261087c60a08601518460c08701526101608601906100f1565b60c0860151858203601f190160e08701526100f1565b9360e081015161010085015261010081015182850152015191015290565b346100ed5760203660031901126100ed576004355f6101206040516108d481610a69565b828152826020820152826040820152826060820152826080820152606060a0820152606060c08201528260e08201528261010082015201525f51602061198c5f395f51905f52548110156102c5576109366109316101dd92610ac9565b611158565b60405191829182610816565b346100ed575f3660031901126100ed5760205f51602061192c5f395f51905f5254604051908152f35b346100ed575f3660031901126100ed577f0fa078836d60d6f1a26f9c39e4aa04fc112fb285ab1bb896760cc332f16a2bfe5460ff8116610a055760ff191660019081177f0fa078836d60d6f1a26f9c39e4aa04fc112fb285ab1bb896760cc332f16a2bfe555f51602061198c5f395f51905f52557f9fdd005c0fefd275b45475c3bd7126e1c92e881833470153d78c8512a377663c5f80a1005b6303babb6d60e51b5f5260045ffd5b346100ed575f3660031901126100ed57602060ff7f0fa078836d60d6f1a26f9c39e4aa04fc112fb285ab1bb896760cc332f16a2bfe54166040519015158152f35b634e487b7160e01b5f52604160045260245ffd5b610140810190811067ffffffffffffffff821117610a8657604052565b610a55565b60c0810190811067ffffffffffffffff821117610a8657604052565b90601f8019910116810190811067ffffffffffffffff821117610a8657604052565b5f527f0fa078836d60d6f1a26f9c39e4aa04fc112fb285ab1bb896760cc332f16a2c0060205260405f2090565b9060038110156108045760ff80198354169116179055565b634e487b7160e01b5f52601160045260245ffd5b91908203918211610b2f57565b610b0e565b6001600160a01b03165f9081527f0fa078836d60d6f1a26f9c39e4aa04fc112fb285ab1bb896760cc332f16a2c016020526040902090565b90604051918281549182825260208201905f5260205f20925f5b818110610b9d575050610b9b92500383610aa7565b565b8454835260019485019487945060209093019201610b86565b91908201809211610b2f57565b634e487b7160e01b5f52603260045260245ffd5b5f51602061196c5f395f51905f5254600160401b811015610a8657600181015f51602061196c5f395f51905f52555f51602061196c5f395f51905f5254811015610c6c575f51602061196c5f395f51905f525f527fd4106935f03f1aed21dc4f0b60e4ab9fad8ed04c8f636d8e64379e2776a0b7f10180546001600160a01b0319166001600160a01b03909216919091179055565b610bc3565b5f198114610b2f5760010190565b6004111561080457565b6040810193929160209190610c9d81610c7f565b8152610ca883610c7f565b0152565b93919697959092949563ffffffff60e01b5f3516610cca81336111ea565b156102d457508315610df5575f51602061198c5f395f51905f5254988997610cf189610c71565b5f51602061198c5f395f51905f5255610d08610e04565b6001600160a01b0388168152938660208601528a6040860152426060860152608085015f905236610d3a90878b610e3c565b60a08601523690610d4a92610e3c565b60c084015260e08301526101008201525f610120820152610d6a86610ac9565b90610d7491610fc5565b84610d7e84610b34565b90610d889161105f565b815f51602061192c5f395f51905f525490610da291610bb6565b5f51602061192c5f395f51905f52556040516001600160a01b039093169592938493610dce9385611088565b037f7c623ac611d6631c2c59d05141a0907874df40d70afb9e2c1620827af47dbf3291a390565b633bd5bdfb60e01b5f5260045ffd5b60405190610b9b61014083610aa7565b60038210156108045752565b67ffffffffffffffff8111610a8657601f01601f191660200190565b929192610e4882610e20565b91610e566040519384610aa7565b8294818452818301116100ed578281602093845f960137010152565b90600182811c92168015610ea0575b6020831014610e8c57565b634e487b7160e01b5f52602260045260245ffd5b91607f1691610e81565b601f8211610eb757505050565b5f5260205f20906020601f840160051c83019310610eef575b601f0160051c01905b818110610ee4575050565b5f8155600101610ed9565b9091508190610ed0565b919091825167ffffffffffffffff8111610a8657610f2181610f1b8454610e72565b84610eaa565b6020601f8211600114610f60578190610f519394955f92610f55575b50508160011b915f199060031b1c19161790565b9055565b015190505f80610f3d565b601f19821690610f73845f5260205f2090565b915f5b818110610fad57509583600195969710610f95575b505050811b019055565b01515f1960f88460031b161c191690555f8080610f8b565b9192602060018192868b015181550194019201610f76565b815181546001600160a01b0319166001600160a01b0390911617815590600990610120906020810151600185015560408101516002850155606081015160038501556110216080820151611018816107fa565b60048601610af6565b61103260a082015160058601610ef9565b61104360c082015160068601610ef9565b60e0810151600785015561010081015160088501550151910155565b805490600160401b821015610a865760018201808255821015610c6c575f908152602090200155565b928492608095928552602085015260606040850152816060850152848401375f828201840152601f01601f1916010190565b9060405191825f8254926110cd84610e72565b808452936001811690811561113657506001146110f2575b50610b9b92500383610aa7565b90505f9291925260205f20905f915b81831061111a575050906020610b9b928201015f6110e5565b6020919350806001915483858901015201910190918492611101565b905060209250610b9b94915060ff191682840152151560051b8201015f6110e5565b906009611163610e04565b83546001600160a01b03168152926001810154602085015260028101546040850152600381015460608501526111a96111a0600483015460ff1690565b60808601610e14565b6111b5600582016110ba565b60a08501526111c6600682016110ba565b60c0850152600781015460e085015260088101546101008501520154610120830152565b816111f4916114e1565b611232577f511915e52b7f9e690b9fdc662acaf5600fd3722c87eb951d3abd26e93a784dca5c9060ff82166112295750505f90565b610126916116b0565b50600190565b3d15611262573d9061124982610e20565b916112576040519384610aa7565b82523d5f602084013e565b606090565b604051637f62950960e01b602082019081526001600160a01b039092166024820152604481019290925260648201929092525f9182916112b481608481015b03601f198101835282610aa7565b5190305afa6112c1611238565b90156112ca5750565b8051156112d957602081519101fd5b606460405162461bcd60e51b815260206004820152602060248201527f4f6666636861696e20636f6d706c69616e636520636865636b206661696c65646044820152fd5b8051821015610c6c5760209160051b010190565b6001600160a01b0381165f9081527f0fa078836d60d6f1a26f9c39e4aa04fc112fb285ab1bb896760cc332f16a2be76020526040902061137590610b6c565b610b6c565b5f5b81518110156113e85760016113ca60056113c2611394858761131d565b515f527f0fa078836d60d6f1a26f9c39e4aa04fc112fb285ab1bb896760cc332f16a2be560205260405f2090565b015460ff1690565b6113d381610c7f565b146113e057600101611377565b505050600190565b50506113706113f691610b34565b5f5b815181101561143857600161141b60046113c2611415858761131d565b51610ac9565b611424816107fa565b14611431576001016113f8565b5050600190565b50505f90565b6040516304c910db60e51b602082019081526001600160a01b038316602483015260448201939093526064810193909352610b9b9290915f9182919061148781608481016112a6565b519082305af1611495611238565b90156114a2575b50611829565b51151561149c565b519081151582036100ed57565b91908260409103126100ed5760206114ce836114aa565b92015163ffffffff811681036100ed5790565b7fce1c17acaaa67de66e928cd49c8f658667a825223bee6fda99a14908362bcdac546001600160a01b031680611620575b506001600160a01b0381165f9081527fce1c17acaaa67de66e928cd49c8f658667a825223bee6fda99a14908362bcdaa6020526040902061158590549263ffffffff60e01b165f527fce1c17acaaa67de66e928cd49c8f658667a825223bee6fda99a14908362bcdab60205260405f2090565b549081156115dc576001600160a01b03165f9081527fce1c17acaaa67de66e928cd49c8f658667a825223bee6fda99a14908362bcdaa602052604090205460011615159182156115d457505090565b161515919050565b6001600160a01b03165f9081527fce1c17acaaa67de66e928cd49c8f658667a825223bee6fda99a14908362bcdaa6020526040902054600116151591506101269050565b6001600160a01b03166040805163b700961360e01b81526001600160a01b03841660048201523060248201526001600160e01b03198516604482015291829060649082905afa5f918161167e575b501561151257611431575f611512565b6116a191925060403d6040116116a9575b6116998183610aa7565b8101906114b7565b50905f61166e565b503d61168f565b60ff16908115611431576001600160e01b0319165f9081527fce1c17acaaa67de66e928cd49c8f658667a825223bee6fda99a14908362bcdab6020526040902054908115611438576001901b16151590565b519067ffffffffffffffff821682036100ed57565b5190610b9b826102ea565b6020818303126100ed5780519067ffffffffffffffff82116100ed570160c0818303126100ed576040519161175683610a8b565b815167ffffffffffffffff81116100ed5782019080601f830112156100ed5781519167ffffffffffffffff8311610a86578260051b906040519361179d6020840186610aa7565b84526020808501928201019283116100ed57602001905b828210611819575050506118119160a09184526117d360208201611702565b60208501526117e460408201611702565b60408501526117f560608201611717565b6060850152611806608082016114aa565b608085015201611702565b60a082015290565b81518152602091820191016117b4565b604051635960213d60e11b602082019081526001600160a01b03831660248301529192915f9182919061185f81604481016112a6565b5190305afa61186c611238565b90158015611902575b6118fd578060208061188c93518301019101611722565b905f5b825180518210156118f657905f806118a98360019561131d565b516040516303ab62b960e01b602082019081526001600160a01b038a16602483015260448201929092526118e081606481016112a6565b519082305af1506118ef611238565b500161188f565b5050915050565b509050565b5080511561187556fe0fa078836d60d6f1a26f9c39e4aa04fc112fb285ab1bb896760cc332f16a2c020fa078836d60d6f1a26f9c39e4aa04fc112fb285ab1bb896760cc332f16a2c030fa078836d60d6f1a26f9c39e4aa04fc112fb285ab1bb896760cc332f16a2be10fa078836d60d6f1a26f9c39e4aa04fc112fb285ab1bb896760cc332f16a2be80fa078836d60d6f1a26f9c39e4aa04fc112fb285ab1bb896760cc332f16a2bffa2646970667358221220309c70318edcceabc339442988fa6ec6b4cf3381e2691193adc85930ba76a60f64736f6c634300081e0033","linkReferences":{}},"methodIdentifiers":{"OffchainInvestment_init()":"f2339fde","cancelOffchainInvestment(uint256)":"4a87a6f1","confirmOffchainInvestment(uint256)":"6b440cf0","getInvestorOffchainInvestments(address)":"4f16ebdb","getNextOffchainInvestmentId()":"97fc64f5","getOffchainInvestment(uint256)":"b24c1315","getTotalOffchainConfirmed()":"2328af7b","getTotalOffchainPending()":"c7702612","isOffchainInvestmentInitialized()":"f882ad20","packedSelectors()":"3e62267c","recordOffchainInvestment(address,uint256,uint256,string,string,bytes32,bytes32)":"a433c021"},"id":176}