{"abi":[{"type":"function","name":"Compliance_init","inputs":[{"name":"allowsSelfCertification","type":"bool","internalType":"bool"},{"name":"allowsGeneralSolicitation","type":"bool","internalType":"bool"}],"outputs":[],"stateMutability":"nonpayable"},{"type":"function","name":"allowsGeneralSolicitation","inputs":[],"outputs":[{"name":"allowed","type":"bool","internalType":"bool"}],"stateMutability":"view"},{"type":"function","name":"allowsSelfCertification","inputs":[],"outputs":[{"name":"allowed","type":"bool","internalType":"bool"}],"stateMutability":"view"},{"type":"function","name":"checkCompliance","inputs":[{"name":"investor","type":"address","internalType":"address"},{"name":"amount","type":"uint256","internalType":"uint256"},{"name":"attestationUID","type":"bytes32","internalType":"bytes32"}],"outputs":[{"name":"canInvest","type":"bool","internalType":"bool"},{"name":"failureReason","type":"string","internalType":"string"}],"stateMutability":"view"},{"type":"function","name":"executeAfterInvestmentCompliance","inputs":[{"name":"investor","type":"address","internalType":"address"},{"name":"amount","type":"uint256","internalType":"uint256"},{"name":"investmentId","type":"uint256","internalType":"uint256"}],"outputs":[],"stateMutability":"nonpayable"},{"type":"function","name":"executeBeforeInvestmentCompliance","inputs":[{"name":"investor","type":"address","internalType":"address"},{"name":"amount","type":"uint256","internalType":"uint256"},{"name":"attestationUID","type":"bytes32","internalType":"bytes32"}],"outputs":[],"stateMutability":"view"},{"type":"function","name":"getClassificationCount","inputs":[{"name":"classificationId","type":"bytes32","internalType":"bytes32"}],"outputs":[{"name":"count","type":"uint256","internalType":"uint256"}],"stateMutability":"view"},{"type":"function","name":"getEnabledModules","inputs":[],"outputs":[{"name":"names","type":"string[]","internalType":"string[]"},{"name":"addresses","type":"address[]","internalType":"address[]"}],"stateMutability":"view"},{"type":"function","name":"getModuleInfo","inputs":[{"name":"name","type":"string","internalType":"string"}],"outputs":[{"name":"moduleAddress","type":"address","internalType":"address"},{"name":"enabled","type":"bool","internalType":"bool"},{"name":"executionOrder","type":"uint256","internalType":"uint256"}],"stateMutability":"view"},{"type":"function","name":"getRegisteredModules","inputs":[],"outputs":[{"name":"names","type":"string[]","internalType":"string[]"}],"stateMutability":"view"},{"type":"function","name":"isComplianceInitialized","inputs":[],"outputs":[{"name":"","type":"bool","internalType":"bool"}],"stateMutability":"view"},{"type":"function","name":"isInvestorClassified","inputs":[{"name":"investor","type":"address","internalType":"address"},{"name":"classificationId","type":"bytes32","internalType":"bytes32"}],"outputs":[{"name":"classified","type":"bool","internalType":"bool"}],"stateMutability":"view"},{"type":"function","name":"registerComplianceModule","inputs":[{"name":"name","type":"string","internalType":"string"},{"name":"moduleAddress","type":"address","internalType":"address"},{"name":"executionOrder","type":"uint256","internalType":"uint256"}],"outputs":[],"stateMutability":"nonpayable"},{"type":"function","name":"setAllowsGeneralSolicitation","inputs":[{"name":"allowed","type":"bool","internalType":"bool"}],"outputs":[],"stateMutability":"nonpayable"},{"type":"function","name":"setAllowsSelfCertification","inputs":[{"name":"allowed","type":"bool","internalType":"bool"}],"outputs":[],"stateMutability":"nonpayable"},{"type":"function","name":"setModuleEnabled","inputs":[{"name":"name","type":"string","internalType":"string"},{"name":"enabled","type":"bool","internalType":"bool"}],"outputs":[],"stateMutability":"nonpayable"},{"type":"function","name":"unregisterComplianceModule","inputs":[{"name":"name","type":"string","internalType":"string"}],"outputs":[],"stateMutability":"nonpayable"},{"type":"function","name":"updateInvestorClassification","inputs":[{"name":"investor","type":"address","internalType":"address"},{"name":"classificationId","type":"bytes32","internalType":"bytes32"}],"outputs":[],"stateMutability":"nonpayable"},{"type":"event","name":"AllowsGeneralSolicitationUpdated","inputs":[{"name":"allowed","type":"bool","indexed":false,"internalType":"bool"}],"anonymous":false},{"type":"event","name":"AllowsSelfCertificationUpdated","inputs":[{"name":"allowed","type":"bool","indexed":false,"internalType":"bool"}],"anonymous":false},{"type":"event","name":"ComplianceInitialized","inputs":[{"name":"allowsSelfCertification","type":"bool","indexed":false,"internalType":"bool"},{"name":"allowsGeneralSolicitation","type":"bool","indexed":false,"internalType":"bool"}],"anonymous":false},{"type":"event","name":"ComplianceModuleEnabled","inputs":[{"name":"name","type":"string","indexed":true,"internalType":"string"},{"name":"enabled","type":"bool","indexed":false,"internalType":"bool"}],"anonymous":false},{"type":"event","name":"ComplianceModuleRegistered","inputs":[{"name":"name","type":"string","indexed":true,"internalType":"string"},{"name":"moduleAddress","type":"address","indexed":true,"internalType":"address"},{"name":"executionOrder","type":"uint256","indexed":false,"internalType":"uint256"}],"anonymous":false},{"type":"event","name":"ComplianceModuleUnregistered","inputs":[{"name":"name","type":"string","indexed":true,"internalType":"string"}],"anonymous":false},{"type":"event","name":"Initialized","inputs":[{"name":"version","type":"uint64","indexed":false,"internalType":"uint64"}],"anonymous":false},{"type":"event","name":"InvestorClassificationUpdated","inputs":[{"name":"investor","type":"address","indexed":true,"internalType":"address"},{"name":"classificationId","type":"bytes32","indexed":true,"internalType":"bytes32"},{"name":"newCount","type":"uint256","indexed":false,"internalType":"uint256"}],"anonymous":false},{"type":"error","name":"CallerIsNotAuthorized","inputs":[]},{"type":"error","name":"Compliance_AlreadyInitialized","inputs":[]},{"type":"error","name":"Compliance_CheckFailed","inputs":[{"name":"moduleName","type":"string","internalType":"string"},{"name":"reason","type":"string","internalType":"string"}]},{"type":"error","name":"Compliance_InvalidModuleAddress","inputs":[]},{"type":"error","name":"Compliance_ModuleAlreadyRegistered","inputs":[{"name":"name","type":"string","internalType":"string"}]},{"type":"error","name":"Compliance_ModuleNotFound","inputs":[{"name":"name","type":"string","internalType":"string"}]},{"type":"error","name":"Compliance_NotInitialized","inputs":[]},{"type":"error","name":"DelegateNotAllowed","inputs":[]},{"type":"error","name":"InvalidInitialization","inputs":[]},{"type":"error","name":"NotInitializing","inputs":[]},{"type":"error","name":"OnlyDelegate","inputs":[]},{"type":"error","name":"ReentrancyGuardReentrantCall","inputs":[]}],"bytecode":{"object":"0x60a0806040523460b457306080525f51602061202f5f395f51905f525460ff8160401c1660a5576002600160401b03196001600160401b038216016053575b604051611f7690816100b98239608051815050f35b6001600160401b0319166001600160401b039081175f51602061202f5f395f51905f525581527fc7f505b2f371ae2175ee4913f4499e1f2633a7b5936321eed1cdaeb6115181d290602090a15f80603e565b63f92ee8a960e01b5f5260045ffd5b5f80fdfe60806040526004361015610011575f80fd5b5f3560e01c806303ab62b914610134578063087efee91461012f57806317db9b871461012a57806320c6809e14610125578063216c926114610120578063270723ae1461011b5780634e3ea33b146101165780635b5119ac146101115780635d18a5001461010c57806380e4ff1f146101075780638948573f1461010257806389c643fd146100fd578063b0e7ab8a146100f8578063ce943953146100f3578063d33fdf4f146100ee578063dafa9955146100e9578063e769a536146100e45763f45b07ce146100df575f80fd5b610d9d565b610ca0565b610b46565b610aab565b610a41565b610965565b6108f7565b61081b565b61071f565b6106a6565b610670565b610605565b6105c4565b61057b565b6104ae565b610330565b610287565b610169565b600435906001600160a01b038216820361014f57565b5f80fd5b602435906001600160a01b038216820361014f57565b3461014f57604036600319011261014f57610182610139565b6024356040516301ffc9a760e01b8152639f3dfa9560e01b600482015260208180602481010381305afa908115610263575f91610268575b501561020c57604051630435f69f60e51b81523360048201526001600160e01b03195f35166024820152602081604481305afa908115610263575f91610234575b501561020c5761020a91611010565b005b7f2e575215000000000000000000000000000000000000000000000000000000005f5260045ffd5b610256915060203d60201161025c575b61024e81836103e9565b810190610fc9565b5f6101fb565b503d610244565b610fde565b610281915060203d60201161025c5761024e81836103e9565b5f6101ba565b3461014f57606036600319011261014f5761020a610139565b805180835260209291819084018484015e5f828201840152601f01601f1916010190565b9080602083519182815201916020808360051b8301019401925f915b8383106102ef57505050505090565b909192939460208061030d600193601f1986820301875289516102a0565b970193019301919392906102e0565b90602061032d9281815201906102c4565b90565b3461014f575f36600319011261014f575f516020611f215f395f51905f52546103588161116c565b905f5b8181106103745760405180610370858261031c565b0390f35b806103806001926111c9565b90549060031b1c5f527f34312f4f63469897aac9b8f39429824766478db22b41f413b27ea0b004ef521c6020526103b960405f2061125f565b6103c38286611213565b526103ce8185611213565b500161035b565b634e487b7160e01b5f52604160045260245ffd5b90601f8019910116810190811067ffffffffffffffff82111761040b57604052565b6103d5565b6040519061041f6080836103e9565b565b67ffffffffffffffff811161040b57601f01601f191660200190565b81601f8201121561014f5780359061045482610421565b9261046260405194856103e9565b8284526020838301011161014f57815f926020809301838601378301015290565b602060031982011261014f576004359067ffffffffffffffff821161014f5761032d9160040161043d565b3461014f576104bc36610483565b6040516301ffc9a760e01b8152639f3dfa9560e01b6004820152602081602481305afa908115610263575f9161055c575b501561020c57604051630435f69f60e51b81523360048201526001600160e01b03195f35166024820152602081604481305afa908115610263575f9161053d575b501561020c5761020a9061145e565b610556915060203d60201161025c5761024e81836103e9565b5f61052e565b610575915060203d60201161025c5761024e81836103e9565b5f6104ed565b3461014f57602036600319011261014f576004355f527f34312f4f63469897aac9b8f39429824766478db22b41f413b27ea0b004ef521f602052602060405f2054604051908152f35b3461014f575f36600319011261014f57602060ff7f34312f4f63469897aac9b8f39429824766478db22b41f413b27ea0b004ef521e54166040519015158152f35b3461014f575f36600319011261014f57602060ff7f34312f4f63469897aac9b8f39429824766478db22b41f413b27ea0b004ef521b54166040519015158152f35b606090600319011261014f576004356001600160a01b038116810361014f57906024359060443590565b3461014f5761068761068136610646565b9161169b565b90610370604051928392151583526040602084015260408301906102a0565b3461014f576106b436610483565b602081519101205f527f34312f4f63469897aac9b8f39429824766478db22b41f413b27ea0b004ef521c602052606060405f206002600182015491015460ff604051926001600160a01b038116845260a01c16151560208301526040820152f35b8015150361014f57565b3461014f57604036600319011261014f5760043567ffffffffffffffff811161014f5761075090369060040161043d565b60243561075c81610715565b6040516301ffc9a760e01b8152639f3dfa9560e01b6004820152602081602481305afa908115610263575f916107fc575b501561020c57604051630435f69f60e51b81523360048201526001600160e01b03195f35166024820152602081604481305afa908115610263575f916107dd575b501561020c5761020a91611753565b6107f6915060203d60201161025c5761024e81836103e9565b5f6107ce565b610815915060203d60201161025c5761024e81836103e9565b5f61078d565b3461014f57602036600319011261014f5760043561083881610715565b6040516301ffc9a760e01b8152639f3dfa9560e01b6004820152602081602481305afa908115610263575f916108d8575b501561020c57604051630435f69f60e51b81523360048201526001600160e01b03195f35166024820152602081604481305afa908115610263575f916108b9575b501561020c5761020a90611878565b6108d2915060203d60201161025c5761024e81836103e9565b5f6108aa565b6108f1915060203d60201161025c5761024e81836103e9565b5f610869565b3461014f57604036600319011261014f57602060ff610959610917610139565b6024355f527f34312f4f63469897aac9b8f39429824766478db22b41f413b27ea0b004ef5220845260405f20906001600160a01b03165f5260205260405f2090565b54166040519015158152f35b3461014f57602036600319011261014f5760043561098281610715565b6040516301ffc9a760e01b8152639f3dfa9560e01b6004820152602081602481305afa908115610263575f91610a22575b501561020c57604051630435f69f60e51b81523360048201526001600160e01b03195f35166024820152602081604481305afa908115610263575f91610a03575b501561020c5761020a906118fb565b610a1c915060203d60201161025c5761024e81836103e9565b5f6109f4565b610a3b915060203d60201161025c5761024e81836103e9565b5f6109b3565b3461014f57610a4f36610646565b9060ff7f34312f4f63469897aac9b8f39429824766478db22b41f413b27ea0b004ef521b541615610a835761020a92611d71565b7f3c5fb23c000000000000000000000000000000000000000000000000000000005f5260045ffd5b3461014f575f36600319011261014f57602060ff7f34312f4f63469897aac9b8f39429824766478db22b41f413b27ea0b004ef521e5460081c166040519015158152f35b90610b02906040835260408301906102c4565b906020818303910152602080835192838152019201905f5b818110610b275750505090565b82516001600160a01b0316845260209384019390920191600101610b1a565b3461014f575f36600319011261014f575f516020611f215f395f51905f52545f5f5b828110610c605750610b82610b7c8261116c565b9161195a565b915f5f5b828110610b9f5750505061037060405192839283610aef565b610be5610bb8610bae836111c9565b90549060031b1c90565b5f527f34312f4f63469897aac9b8f39429824766478db22b41f413b27ea0b004ef521c60205260405f2090565b60018101549060a082901c60ff16610c02575b5050600101610b86565b92610c53610c3b610c5893610c196001969761125f565b610c23858b611213565b52610c2e848a611213565b506001600160a01b031690565b610c45838a611213565b906001600160a01b03169052565b610ffd565b91905f610bf8565b610c7f6001610c74610bb8610bae856111c9565b015460a01c60ff1690565b610c8c575b600101610b68565b90610c98600191610ffd565b919050610c84565b3461014f57606036600319011261014f5760043567ffffffffffffffff811161014f57610cd190369060040161043d565b610cd9610153565b6040516301ffc9a760e01b8152639f3dfa9560e01b60048201526044359190602081602481305afa908115610263575f91610d7e575b501561020c57604051630435f69f60e51b81523360048201526001600160e01b03195f35166024820152602081604481305afa908115610263575f91610d5f575b501561020c5761020a92611ba2565b610d78915060203d60201161025c5761024e81836103e9565b5f610d50565b610d97915060203d60201161025c5761024e81836103e9565b5f610d0f565b3461014f57604036600319011261014f57600435610dba81610715565b602435610dc681610715565b60ff7ff0c57e16840df040f15088dc2f81fe391c3923bec73e23a9662efc9c229c6a005460401c1615610fa1577f34312f4f63469897aac9b8f39429824766478db22b41f413b27ea0b004ef521b549060ff8216610f79577f704e3415911c12cc5ce3d8bd4ea734079824afd52d3ad538bc696fd13c9121e8610f5f7f73cd1be93d1be8ea9c017743db8c7680b4b60576ffcdad78ca562ed5e9636d39946001610f749560ff1916177f34312f4f63469897aac9b8f39429824766478db22b41f413b27ea0b004ef521b55610ee58160ff80197f34312f4f63469897aac9b8f39429824766478db22b41f413b27ea0b004ef521e541691151516177f34312f4f63469897aac9b8f39429824766478db22b41f413b27ea0b004ef521e55565b7f34312f4f63469897aac9b8f39429824766478db22b41f413b27ea0b004ef521e805461ff00191685151560081b61ff00161790557faba38fa6bbb53d63f5f74234babe6cb32052695709f0d18503b9c7879d458e5b6040805183151581528615156020820152a160405190151581529081906020820190565b0390a160405190151581529081906020820190565b0390a1005b7f86ba8cae000000000000000000000000000000000000000000000000000000005f5260045ffd5b7fd7e6bcf8000000000000000000000000000000000000000000000000000000005f5260045ffd5b9081602091031261014f575161032d81610715565b6040513d5f823e3d90fd5b634e487b7160e01b5f52601160045260245ffd5b5f19811461100b5760010190565b610fe9565b815f527f34312f4f63469897aac9b8f39429824766478db22b41f413b27ea0b004ef522060205260ff6110578260405f20906001600160a01b03165f5260205260405f2090565b541615611062575050565b815f527f34312f4f63469897aac9b8f39429824766478db22b41f413b27ea0b004ef52206020526110a78160405f20906001600160a01b03165f5260205260405f2090565b805460ff191660011790555f8281527f34312f4f63469897aac9b8f39429824766478db22b41f413b27ea0b004ef521f602052604090206110e88154610ffd565b90557f266a029349c835ba46da7845a69c14b21f4919fcf824cd24f837f2d919944c106001600160a01b03611144845f527f34312f4f63469897aac9b8f39429824766478db22b41f413b27ea0b004ef521f60205260405f2090565b54604051908152921691602090a3565b67ffffffffffffffff811161040b5760051b60200190565b9061117682611154565b61118360405191826103e9565b8281528092611194601f1991611154565b01905f5b8281106111a457505050565b806060602080938501015201611198565b634e487b7160e01b5f52603260045260245ffd5b5f516020611f215f395f51905f52548110156111f9575f516020611f215f395f51905f525f5260205f2001905f90565b6111b5565b80548210156111f9575f5260205f2001905f90565b80518210156111f95760209160051b010190565b90600182811c92168015611255575b602083101461124157565b634e487b7160e01b5f52602260045260245ffd5b91607f1691611236565b9060405191825f82549261127284611227565b80845293600181169081156112db5750600114611297575b5061041f925003836103e9565b90505f9291925260205f20905f915b8183106112bf57505090602061041f928201015f61128a565b60209193508060019154838589010152019101909184926112a6565b90506020925061041f94915060ff191682840152151560051b8201015f61128a565b90602061032d9281815201906102a0565b5f1981019190821161100b57565b916113359183549060031b91821b915f19901b19161790565b9055565b5f516020611f215f395f51905f525480156113a6575f198101905f516020611f215f395f51905f52548210156111f9575f516020611f215f395f51905f525f8181527fd26ca6a75a4aaaf8bc1278343f9d5954d6b806c0d9bf365be14150ab4aa10db89092019190915555565b634e487b7160e01b5f52603160045260245ffd5b8181106113c5575050565b5f81556001016113ba565b60025f916113de8154611227565b806113ef575b508260018201550155565b601f811160011461140557508281555b5f6113e4565b8184526020842061142191601f0160051c8101906001016113ba565b808352826020812080548260011b9083198460031b1c1916178355556113ff565b602090604051918183925191829101835e81015f815203902090565b61149061148c7f34312f4f63469897aac9b8f39429824766478db22b41f413b27ea0b004ef521b5460ff1690565b1590565b610a835780516020820120906001600160a01b036114e860016114da855f527f34312f4f63469897aac9b8f39429824766478db22b41f413b27ea0b004ef521c60205260405f2090565b01546001600160a01b031690565b161561159c575f5b5f516020611f215f395f51905f52548082101561158b5783611514610bae846111c9565b1461152257506001016114f0565b611565936115536115609361154d611547610bae61154261155b9761130e565b6111c9565b916111c9565b9061131c565b610bb8611339565b6113d0565b611442565b7f79d37148e93a01552e5d3282e26c42fea03895035c2690fef2fa3d803b7b60835f80a2565b505061156061155b61156593610bb8565b6115b990604051918291631e3baa7160e21b8352600483016112fd565b0390fd5b604051906115cc6020836103e9565b5f8252565b5f9060033d116115dd57565b905060045f803e5f5160e01c90565b5f60443d1061032d576040513d600319016004823e8051913d602484011167ffffffffffffffff84111761165a578282019283519167ffffffffffffffff8311611652573d84016003190185840160200111611652575061032d929101602001906103e9565b949350505050565b92915050565b6040519061166f6040836103e9565b601882527f556e6b6e6f776e20636f6d706c69616e6365206572726f7200000000000000006020830152565b90303b1561014f576040517fce9439530000000000000000000000000000000000000000000000000000000081526001600160a01b03929092166004830152602482015260448101919091525f81606481305afa908161173a575b5061172f576117036115d1565b6308c379a014611718575b5f9061032d611660565b6117206115ec565b8061172b575061170e565b5f91565b60019061032d6115bd565b806117465f80936103e9565b80031261014f575f6116f6565b60ff7f34312f4f63469897aac9b8f39429824766478db22b41f413b27ea0b004ef521b541615610a8357805160208201206001600160a01b038060016117c0845f527f34312f4f63469897aac9b8f39429824766478db22b41f413b27ea0b004ef521c60205260405f2090565b015416161561185d576118457f2ccabfa52252a0ae8373bb5795e47c048569815241345a11a7996ddd9ed8216192611560856001611828611858965f527f34312f4f63469897aac9b8f39429824766478db22b41f413b27ea0b004ef521c60205260405f2090565b019060ff60a01b1960ff60a01b835492151560a01b169116179055565b6040519315158452929081906020820190565b0390a2565b604051631e3baa7160e21b8152806115b984600483016112fd565b60207f704e3415911c12cc5ce3d8bd4ea734079824afd52d3ad538bc696fd13c9121e8916118f08160ff80197f34312f4f63469897aac9b8f39429824766478db22b41f413b27ea0b004ef521e541691151516177f34312f4f63469897aac9b8f39429824766478db22b41f413b27ea0b004ef521e55565b6040519015158152a1565b7f34312f4f63469897aac9b8f39429824766478db22b41f413b27ea0b004ef521e805461ff00191682151560081b61ff00161790557f73cd1be93d1be8ea9c017743db8c7680b4b60576ffcdad78ca562ed5e9636d39906020906118f0565b9061196482611154565b61197160405191826103e9565b8281528092611982601f1991611154565b0190602036910137565b9190601f811161199b57505050565b61041f925f5260205f20906020601f840160051c830193106119c5575b601f0160051c01906113ba565b90915081906119b8565b90805180519067ffffffffffffffff821161040b576119f8826119f28654611227565b8661198c565b602090601f8311600114611ab5578260609360029593611a2d935f92611aaa575b50508160011b915f199060031b1c19161790565b84555b611aa360018501611a82611a4e60208501516001600160a01b031690565b82906001600160a01b03167fffffffffffffffffffffffff0000000000000000000000000000000000000000825416179055565b60408301511515815460ff60a01b191690151560a01b60ff60a01b16179055565b0151910155565b015190505f80611a19565b90601f19831691611ac9865f5260205f2090565b925f5b818110611b0c57509260019285926060966002989610611af4575b505050811b018455611a30565b01515f1960f88460031b161c191690555f8080611ae7565b92936020600181928786015181550195019301611acc565b5f516020611f215f395f51905f52546801000000000000000081101561040b57600181015f516020611f215f395f51905f52555f516020611f215f395f51905f52548110156111f9575f516020611f215f395f51905f525f527fd26ca6a75a4aaaf8bc1278343f9d5954d6b806c0d9bf365be14150ab4aa10db90155565b919091611bd361148c7f34312f4f63469897aac9b8f39429824766478db22b41f413b27ea0b004ef521b5460ff1690565b610a83576001600160a01b038316928315611d1a578151602083012090611c35611c2960016114da855f527f34312f4f63469897aac9b8f39429824766478db22b41f413b27ea0b004ef521c60205260405f2090565b6001600160a01b031690565b611ce6577f1322c41c5a9eead8cd522b002dd028a85de90a4f18bc94a2785fa28792dda82092611560611ce193611ccb611cd094611c89611c74610410565b8681526001600160a01b039092166020830152565b5f6040820152886060820152611cc6835f527f34312f4f63469897aac9b8f39429824766478db22b41f413b27ea0b004ef521c60205260405f2090565b6119cf565b611b24565b604051938452929081906020820190565b0390a3565b6040517f354dc6b4000000000000000000000000000000000000000000000000000000008152806115b985600483016112fd565b7f8df65b27000000000000000000000000000000000000000000000000000000005f5260045ffd5b3d15611d6c573d90611d5382610421565b91611d6160405193846103e9565b82523d5f602084013e565b606090565b905f516020611f215f395f51905f5254918215611e95575f5b838110611d98575050505050565b611de3611db5610bae835f516020611f215f395f51905f526111fe565b7f34312f4f63469897aac9b8f39429824766478db22b41f413b27ea0b004ef521c905f5260205260405f2090565b600181015460ff60a082901c1615611e8b575f611e0781926001600160a01b031690565b6040517f35be8d2c00000000000000000000000000000000000000000000000000000000602082019081526001600160a01b03881660248301526044820189905260648083018c9052825290611e5e6084826103e9565b51915afa90611e6b611d42565b9115611e7d5750506001905b01611d8a565b611e869061125f565b611e9b565b5050600190611e77565b50505050565b9080519081611f1b57826040611ee08151927fb4b3687b00000000000000000000000000000000000000000000000000000000845282600485015260448401906102a0565b7f436865636b206661696c6564000000000000000000000000000000000000000060208483039260031984016024870152600c815201520190fd5b602001fdfe34312f4f63469897aac9b8f39429824766478db22b41f413b27ea0b004ef521da26469706673582212202294be0022d14810ce357235a8b5a592f7d70431231db8daa9456fa6aa93245064736f6c634300081c0033f0c57e16840df040f15088dc2f81fe391c3923bec73e23a9662efc9c229c6a00","linkReferences":{}},"methodIdentifiers":{"Compliance_init(bool,bool)":"f45b07ce","allowsGeneralSolicitation()":"d33fdf4f","allowsSelfCertification()":"270723ae","checkCompliance(address,uint256,bytes32)":"5b5119ac","executeAfterInvestmentCompliance(address,uint256,uint256)":"087efee9","executeBeforeInvestmentCompliance(address,uint256,bytes32)":"ce943953","getClassificationCount(bytes32)":"216c9261","getEnabledModules()":"dafa9955","getModuleInfo(string)":"5d18a500","getRegisteredModules()":"17db9b87","isComplianceInitialized()":"4e3ea33b","isInvestorClassified(address,bytes32)":"89c643fd","registerComplianceModule(string,address,uint256)":"e769a536","setAllowsGeneralSolicitation(bool)":"b0e7ab8a","setAllowsSelfCertification(bool)":"8948573f","setModuleEnabled(string,bool)":"80e4ff1f","unregisterComplianceModule(string)":"20c6809e","updateInvestorClassification(address,bytes32)":"03ab62b9"},"id":167}