{"abi":[{"type":"constructor","inputs":[],"stateMutability":"nonpayable"},{"type":"function","name":"OfferingCore_init","inputs":[{"name":"issuer","type":"address","internalType":"address"},{"name":"tokenAddress","type":"address","internalType":"address"},{"name":"paymentToken","type":"address","internalType":"address"},{"name":"paymentRecipient","type":"address","internalType":"address"},{"name":"pricePerToken","type":"uint256","internalType":"uint256"},{"name":"minInvestment","type":"uint256","internalType":"uint256"},{"name":"maxAmount","type":"uint256","internalType":"uint256"},{"name":"deadline","type":"uint256","internalType":"uint256"},{"name":"uri","type":"string","internalType":"string"}],"outputs":[],"stateMutability":"nonpayable"},{"type":"function","name":"attachInvestmentAgreement","inputs":[{"name":"investmentId","type":"uint256","internalType":"uint256"},{"name":"documentUID","type":"bytes32","internalType":"bytes32"}],"outputs":[],"stateMutability":"nonpayable"},{"type":"function","name":"claimRefund","inputs":[{"name":"investmentId","type":"uint256","internalType":"uint256"}],"outputs":[],"stateMutability":"nonpayable"},{"type":"function","name":"countersignInvestment","inputs":[{"name":"investmentId","type":"uint256","internalType":"uint256"}],"outputs":[],"stateMutability":"nonpayable"},{"type":"function","name":"getAllInvestors","inputs":[],"outputs":[{"name":"investors","type":"address[]","internalType":"address[]"}],"stateMutability":"view"},{"type":"function","name":"getInvestment","inputs":[{"name":"investmentId","type":"uint256","internalType":"uint256"}],"outputs":[{"name":"investment","type":"tuple","internalType":"struct OfferingCoreStorage.Investment","components":[{"name":"investor","type":"address","internalType":"address"},{"name":"amount","type":"uint256","internalType":"uint256"},{"name":"tokenQuantity","type":"uint256","internalType":"uint256"},{"name":"pricePerToken","type":"uint256","internalType":"uint256"},{"name":"timestamp","type":"uint256","internalType":"uint256"},{"name":"status","type":"uint8","internalType":"enum OfferingCoreStorage.InvestmentStatus"},{"name":"paymentEscrowed","type":"bool","internalType":"bool"},{"name":"subscriptionAgreementRef","type":"bytes32","internalType":"bytes32"},{"name":"issuedLotId","type":"bytes32","internalType":"bytes32"}]}],"stateMutability":"view"},{"type":"function","name":"getInvestorInvestments","inputs":[{"name":"investor","type":"address","internalType":"address"}],"outputs":[{"name":"investmentIds","type":"uint256[]","internalType":"uint256[]"}],"stateMutability":"view"},{"type":"function","name":"getInvestorPaymentTotal","inputs":[{"name":"investor","type":"address","internalType":"address"}],"outputs":[{"name":"totalPayments","type":"uint256","internalType":"uint256"}],"stateMutability":"view"},{"type":"function","name":"getOfferingInfo","inputs":[],"outputs":[{"name":"info","type":"tuple","internalType":"struct OfferingCoreStorage.OfferingInfo","components":[{"name":"issuer","type":"address","internalType":"address"},{"name":"tokenAddress","type":"address","internalType":"address"},{"name":"paymentToken","type":"address","internalType":"address"},{"name":"paymentRecipient","type":"address","internalType":"address"},{"name":"pricePerToken","type":"uint256","internalType":"uint256"},{"name":"minInvestment","type":"uint256","internalType":"uint256"},{"name":"maxAmount","type":"uint256","internalType":"uint256"},{"name":"deadline","type":"uint256","internalType":"uint256"},{"name":"totalInvested","type":"uint256","internalType":"uint256"},{"name":"investorCount","type":"uint256","internalType":"uint256"},{"name":"status","type":"uint8","internalType":"enum OfferingCoreStorage.OfferingStatus"},{"name":"uri","type":"string","internalType":"string"}]}],"stateMutability":"view"},{"type":"function","name":"getPaymentInfo","inputs":[],"outputs":[{"name":"paymentToken","type":"address","internalType":"address"},{"name":"paymentRecipient","type":"address","internalType":"address"},{"name":"totalPaymentsReceived","type":"uint256","internalType":"uint256"}],"stateMutability":"view"},{"type":"function","name":"invest","inputs":[{"name":"amount","type":"uint256","internalType":"uint256"}],"outputs":[{"name":"investmentId","type":"uint256","internalType":"uint256"}],"stateMutability":"payable"},{"type":"function","name":"rejectInvestment","inputs":[{"name":"investmentId","type":"uint256","internalType":"uint256"}],"outputs":[],"stateMutability":"nonpayable"},{"type":"function","name":"updateOfferingStatus","inputs":[{"name":"newStatus","type":"uint8","internalType":"enum OfferingCoreStorage.OfferingStatus"}],"outputs":[],"stateMutability":"nonpayable"},{"type":"event","name":"FundsDeposited","inputs":[{"name":"investor","type":"address","indexed":true,"internalType":"address"},{"name":"investmentId","type":"uint256","indexed":true,"internalType":"uint256"},{"name":"amount","type":"uint256","indexed":false,"internalType":"uint256"},{"name":"identityUID","type":"bytes32","indexed":false,"internalType":"bytes32"},{"name":"qualificationUID","type":"bytes32","indexed":false,"internalType":"bytes32"}],"anonymous":false},{"type":"event","name":"Initialized","inputs":[{"name":"version","type":"uint64","indexed":false,"internalType":"uint64"}],"anonymous":false},{"type":"event","name":"InvestmentAccepted","inputs":[{"name":"investmentId","type":"uint256","indexed":true,"internalType":"uint256"},{"name":"issuer","type":"address","indexed":true,"internalType":"address"},{"name":"investor","type":"address","indexed":true,"internalType":"address"}],"anonymous":false},{"type":"event","name":"InvestmentAgreementAttached","inputs":[{"name":"investmentId","type":"uint256","indexed":true,"internalType":"uint256"},{"name":"documentUID","type":"bytes32","indexed":false,"internalType":"bytes32"}],"anonymous":false},{"type":"event","name":"InvestmentAgreementExecuted","inputs":[{"name":"investmentId","type":"uint256","indexed":true,"internalType":"uint256"},{"name":"investor","type":"address","indexed":true,"internalType":"address"},{"name":"issuer","type":"address","indexed":true,"internalType":"address"},{"name":"amount","type":"uint256","indexed":false,"internalType":"uint256"},{"name":"tokenQuantity","type":"uint256","indexed":false,"internalType":"uint256"},{"name":"pricePerToken","type":"uint256","indexed":false,"internalType":"uint256"},{"name":"subscriptionAgreementRef","type":"bytes32","indexed":false,"internalType":"bytes32"}],"anonymous":false},{"type":"event","name":"InvestmentRefunded","inputs":[{"name":"investmentId","type":"uint256","indexed":true,"internalType":"uint256"},{"name":"investor","type":"address","indexed":true,"internalType":"address"}],"anonymous":false},{"type":"event","name":"InvestmentRejected","inputs":[{"name":"investmentId","type":"uint256","indexed":true,"internalType":"uint256"},{"name":"issuer","type":"address","indexed":true,"internalType":"address"},{"name":"investor","type":"address","indexed":true,"internalType":"address"}],"anonymous":false},{"type":"event","name":"OfferingInitialized","inputs":[{"name":"issuer","type":"address","indexed":true,"internalType":"address"},{"name":"token","type":"address","indexed":true,"internalType":"address"},{"name":"paymentToken","type":"address","indexed":false,"internalType":"address"},{"name":"paymentRecipient","type":"address","indexed":false,"internalType":"address"},{"name":"pricePerToken","type":"uint256","indexed":false,"internalType":"uint256"},{"name":"minInvestment","type":"uint256","indexed":false,"internalType":"uint256"},{"name":"maxAmount","type":"uint256","indexed":false,"internalType":"uint256"},{"name":"deadline","type":"uint256","indexed":false,"internalType":"uint256"},{"name":"uri","type":"string","indexed":false,"internalType":"string"}],"anonymous":false},{"type":"event","name":"OfferingStatusChanged","inputs":[{"name":"oldStatus","type":"uint8","indexed":false,"internalType":"enum OfferingCoreStorage.OfferingStatus"},{"name":"newStatus","type":"uint8","indexed":false,"internalType":"enum OfferingCoreStorage.OfferingStatus"}],"anonymous":false},{"type":"event","name":"TokensIssued","inputs":[{"name":"investmentId","type":"uint256","indexed":true,"internalType":"uint256"},{"name":"investor","type":"address","indexed":true,"internalType":"address"},{"name":"tokenQuantity","type":"uint256","indexed":false,"internalType":"uint256"},{"name":"lotId","type":"bytes32","indexed":true,"internalType":"bytes32"}],"anonymous":false},{"type":"error","name":"CallerIsNotAuthorized","inputs":[]},{"type":"error","name":"DelegateNotAllowed","inputs":[]},{"type":"error","name":"InvalidInitialization","inputs":[]},{"type":"error","name":"NotInitializing","inputs":[]},{"type":"error","name":"OfferingCore_AlreadyCountersigned","inputs":[]},{"type":"error","name":"OfferingCore_AlreadyInitialized","inputs":[]},{"type":"error","name":"OfferingCore_AlreadyProcessed","inputs":[]},{"type":"error","name":"OfferingCore_BelowMinimumInvestment","inputs":[]},{"type":"error","name":"OfferingCore_DeadlinePassed","inputs":[]},{"type":"error","name":"OfferingCore_ExceedsMaximumAmount","inputs":[]},{"type":"error","name":"OfferingCore_GracePeriodNotExpired","inputs":[]},{"type":"error","name":"OfferingCore_InvalidAttestation","inputs":[]},{"type":"error","name":"OfferingCore_InvestmentNotFound","inputs":[]},{"type":"error","name":"OfferingCore_NotAuthorized","inputs":[]},{"type":"error","name":"OfferingCore_NotInvestor","inputs":[]},{"type":"error","name":"OfferingCore_OfferingNotActive","inputs":[]},{"type":"error","name":"OfferingCore_UnsupportedOfferingType","inputs":[]},{"type":"error","name":"OnlyDelegate","inputs":[]},{"type":"error","name":"ReentrancyGuardReentrantCall","inputs":[]},{"type":"error","name":"SafeERC20FailedOperation","inputs":[{"name":"token","type":"address","internalType":"address"}]}],"bytecode":{"object":"0x60a0806040523460b457306080525f5160206132245f395f51905f525460ff8160401c1660a5576002600160401b03196001600160401b038216016053575b60405161316b90816100b98239608051815050f35b6001600160401b0319166001600160401b039081175f5160206132245f395f51905f525581527fc7f505b2f371ae2175ee4913f4499e1f2633a7b5936321eed1cdaeb6115181d290602090a15f80603e565b63f92ee8a960e01b5f5260045ffd5b5f80fdfe60806040526004361015610011575f80fd5b5f3560e01c806244eff4146100e357806304da3f19146100de57806309a3352f146100d957806316268c28146100d457806322ae634f146100cf5780632afcf480146100ca5780634c431f00146100c55780635b7baf64146100c0578063788fe028146100bb578063aae0b1e0146100b6578063ad7724f2146100b1578063d0a2f2c4146100ac5763f0fb56a8146100a7575f80fd5b6112df565b611237565b611198565b6110ef565b610e2a565b610cb3565b610c10565b6107f4565b610760565b610613565b610530565b6104aa565b6101fb565b600411156100f257565b634e487b7160e01b5f52602160045260245ffd5b90610110826100e8565b52565b805180835260209291819084018484015e5f828201840152601f01601f1916010190565b6101a06101606101f8936020845261015b6020850182516001600160a01b03169052565b60208101516001600160a01b0316604085015260408101516001600160a01b0316606085015260608101516001600160a01b03166080850152608081015160a085015260a081015160c085015260c081015160e085015260e08101516101008501526101008101516101208501526101208101516101408501526101e761014082015183860190610106565b015191610180808201520190610113565b90565b346104a6575f3660031901126104a657606061016060405161021c81611050565b5f81525f60208201525f60408201525f838201525f60808201525f60a08201525f60c08201525f60e08201525f6101008201525f6101208201525f61014082015201526104a261026a6110b1565b6102ab61029e7f708bad8aa3b81bea04edad4b5c1dd58143a36561836ce96b5588ecea4e84e39f546001600160a01b031690565b6001600160a01b03168252565b6102ef6102df7f708bad8aa3b81bea04edad4b5c1dd58143a36561836ce96b5588ecea4e84e3a0546001600160a01b031690565b6001600160a01b03166020830152565b6103206103105f5160206131165f395f51905f52546001600160a01b031690565b6001600160a01b03166040830152565b6103646103547f708bad8aa3b81bea04edad4b5c1dd58143a36561836ce96b5588ecea4e84e3a2546001600160a01b031690565b6001600160a01b03166060830152565b7f708bad8aa3b81bea04edad4b5c1dd58143a36561836ce96b5588ecea4e84e3a35460808201527f708bad8aa3b81bea04edad4b5c1dd58143a36561836ce96b5588ecea4e84e3a45460a08201527f708bad8aa3b81bea04edad4b5c1dd58143a36561836ce96b5588ecea4e84e3a55460c08201527f708bad8aa3b81bea04edad4b5c1dd58143a36561836ce96b5588ecea4e84e3a65460e08201527f708bad8aa3b81bea04edad4b5c1dd58143a36561836ce96b5588ecea4e84e3a7546101008201527f708bad8aa3b81bea04edad4b5c1dd58143a36561836ce96b5588ecea4e84e3a85461012082015261048861047e7f708bad8aa3b81bea04edad4b5c1dd58143a36561836ce96b5588ecea4e84e3a95460ff1690565b61014083016113b3565b6104906113f4565b61016082015260405191829182610137565b0390f35b5f80fd5b346104a6575f3660031901126104a6575f5160206131165f395f51905f52547f708bad8aa3b81bea04edad4b5c1dd58143a36561836ce96b5588ecea4e84e3a2547f708bad8aa3b81bea04edad4b5c1dd58143a36561836ce96b5588ecea4e84e3af54604080516001600160a01b03948516815293909216602084015290820152606090f35b346104a65760403660031901126104a65760043560243561054f611daa565b156105eb57815f527f708bad8aa3b81bea04edad4b5c1dd58143a36561836ce96b5588ecea4e84e3ab60205260405f206001600160a01b03815416156105c3576006018190556040519081527f86a3fe58abd946870b0d070e20ef781722a19d2a156d907bfe478ec44278b7d390602090a2005b7f250d2846000000000000000000000000000000000000000000000000000000005f5260045ffd5b7ffe7ae43a000000000000000000000000000000000000000000000000000000005f5260045ffd5b346104a65760203660031901126104a65760043560048110156104a657610638611daa565b156105eb577f090dc240b6971396472961dc185f630e0a38a8785c5c37c22b858ac2255a7fbb9060ff7f708bad8aa3b81bea04edad4b5c1dd58143a36561836ce96b5588ecea4e84e3a9541661068d826100e8565b60ff197f708bad8aa3b81bea04edad4b5c1dd58143a36561836ce96b5588ecea4e84e3a9541660ff8316177f708bad8aa3b81bea04edad4b5c1dd58143a36561836ce96b5588ecea4e84e3a9556106e9604051928392836114ff565b0390a1005b919091610100806101208301946001600160a01b0381511684526020810151602085015260408101516040850152606081015160608501526080810151608085015260a081015161073e816100e8565b60a085015260c08181015115159085015260e081015160e08501520151910152565b346104a65760203660031901126104a6576004355f61010060405161078481611072565b8281528260208201528260408201528260608201528260808201528260a08201528260c08201528260e082015201525f527f708bad8aa3b81bea04edad4b5c1dd58143a36561836ce96b5588ecea4e84e3ab6020526104a26107e860405f2061152d565b604051918291826106ee565b60203660031901126104a65760043560016108307f708bad8aa3b81bea04edad4b5c1dd58143a36561836ce96b5588ecea4e84e3a95460ff1690565b610839816100e8565b03610b57577f708bad8aa3b81bea04edad4b5c1dd58143a36561836ce96b5588ecea4e84e3a6544211610b2f5761087661087282611e66565b1590565b610ab7576109cb8161088b6104a29333611eea565b6108bf610897826115dd565b7f708bad8aa3b81bea04edad4b5c1dd58143a36561836ce96b5588ecea4e84e3a35490611606565b906108cb821515611624565b7f708bad8aa3b81bea04edad4b5c1dd58143a36561836ce96b5588ecea4e84e3ac549283926109206108fc8561166f565b7f708bad8aa3b81bea04edad4b5c1dd58143a36561836ce96b5588ecea4e84e3ac55565b61092a8484611fb1565b6109326121b5565b7f708bad8aa3b81bea04edad4b5c1dd58143a36561836ce96b5588ecea4e84e3a35461095c6110c3565b338152928560208501526040840152606083015242608083015261098260a08301611522565b600160c083015260e08201525f6101008201526109c6845f527f708bad8aa3b81bea04edad4b5c1dd58143a36561836ce96b5588ecea4e84e3ab60205260405f2090565b6116c2565b610a1d6109f9827f708bad8aa3b81bea04edad4b5c1dd58143a36561836ce96b5588ecea4e84e3af5461177d565b7f708bad8aa3b81bea04edad4b5c1dd58143a36561836ce96b5588ecea4e84e3af55565b335f9081527f708bad8aa3b81bea04edad4b5c1dd58143a36561836ce96b5588ecea4e84e3b060205260409020610a5582825461177d565b9055610a6182336122ef565b610a6c82823361241e565b604080519182525f602083018190529082015233907ffda2910009ffb0c3547ad52e4c034f0fe9662291b1f90b837de8b2f9eb7d753490606090a36040519081529081906020820190565b7f708bad8aa3b81bea04edad4b5c1dd58143a36561836ce96b5588ecea4e84e3a4541115610b07577f8898dccb000000000000000000000000000000000000000000000000000000005f5260045ffd5b7f6fc5c84c000000000000000000000000000000000000000000000000000000005f5260045ffd5b7f2617b4cb000000000000000000000000000000000000000000000000000000005f5260045ffd5b7f55e9770e000000000000000000000000000000000000000000000000000000005f5260045ffd5b600435906001600160a01b03821682036104a657565b602435906001600160a01b03821682036104a657565b604435906001600160a01b03821682036104a657565b606435906001600160a01b03821682036104a657565b60206040818301928281528451809452019201905f5b818110610bfa5750505090565b8251845260209384019390920191600101610bed565b346104a65760203660031901126104a657610c62610c2c610b7f565b6001600160a01b03165f527f708bad8aa3b81bea04edad4b5c1dd58143a36561836ce96b5588ecea4e84e3ad60205260405f2090565b6040519081602082549182815201915f5260205f20905f5b818110610c9d576104a285610c918187038261108f565b60405191829182610bd7565b8254845260209093019260019283019201610c7a565b346104a65760203660031901126104a657600435610cf8815f527f708bad8aa3b81bea04edad4b5c1dd58143a36561836ce96b5588ecea4e84e3ab60205260405f2090565b80546001600160a01b031680156105c3576001600160a01b03163303610e025760058101805460ff16610d2a816100e8565b610dda57610d587f708bad8aa3b81bea04edad4b5c1dd58143a36561836ce96b5588ecea4e84e3a65461176d565b421115610db2576001600160a01b0391610d74610d8a9261167d565b610d7d84612579565b546001600160a01b031690565b16907f7753f0811884796ae94129b9370b6b1b9d4d2a4c042da6fe85c9b6da1325985b5f80a3005b7f6f9fd3ac000000000000000000000000000000000000000000000000000000005f5260045ffd5b7f03785a64000000000000000000000000000000000000000000000000000000005f5260045ffd5b7fff97c4df000000000000000000000000000000000000000000000000000000005f5260045ffd5b346104a65760203660031901126104a657600435610e49610872611daa565b6105eb57610e7e815f527f708bad8aa3b81bea04edad4b5c1dd58143a36561836ce96b5588ecea4e84e3ab60205260405f2090565b90610e9082546001600160a01b031690565b906001600160a01b038216156105c35760058301805460ff16610eb2816100e8565b610dda57610ef190610ecb8360018701958654906127c0565b610edd83610ed88761152d565b6128ba565b610ee681611694565b805461ff0019169055565b610efb8254612b6e565b7f666ddf3bc13b0c4f440e0e8594b43a0bb0effc85c0634af74e876a6a63665f71610f5d610f58610f53845f527f708bad8aa3b81bea04edad4b5c1dd58143a36561836ce96b5588ecea4e84e3ab60205260405f2090565b61152d565b612cb9565b93846007820155610f8183610f7983546001600160a01b031690565b865490612e54565b6001600160a01b03610f9a82546001600160a01b031690565b1693604051958533867fd22f7b83f7419d73eafaf66fdcd6f0f01880e3265bb1caa8774786e4e331f7055f80a485857f1d7fa5da104d4016f3767ffc70f02dd9d902b9e7cf61697017ac0387aeb3a337600286015499806110008c829190602083019252565b0390a45494611037600660038401549301546040519384933399859094939260609260808301968352602083015260408201520152565b0390a4005b634e487b7160e01b5f52604160045260245ffd5b610180810190811067ffffffffffffffff82111761106d57604052565b61103c565b610120810190811067ffffffffffffffff82111761106d57604052565b90601f8019910116810190811067ffffffffffffffff82111761106d57604052565b604051906110c16101808361108f565b565b604051906110c16101208361108f565b67ffffffffffffffff811161106d57601f01601f191660200190565b346104a6576101203660031901126104a657611109610b7f565b611111610b95565b9061111a610bab565b611122610bc1565b60843560a4359060c4359260e43594610104359767ffffffffffffffff89116104a6573660238a0112156104a65788600401359761115f896110d3565b9861116d6040519a8b61108f565b808a52366024828d0101116104a6576020815f928c836111969f6024019101378b01015261178a565b005b346104a65760203660031901126104a65760206111ec6111b6610b7f565b6001600160a01b03165f527f708bad8aa3b81bea04edad4b5c1dd58143a36561836ce96b5588ecea4e84e3b060205260405f2090565b54604051908152f35b60206040818301928281528451809452019201905f5b8181106112185750505090565b82516001600160a01b031684526020938401939092019160010161120b565b346104a6575f3660031901126104a6576040517f708bad8aa3b81bea04edad4b5c1dd58143a36561836ce96b5588ecea4e84e3ae80548083525f91825260208301917f4ec1c5fc699575e39ea0581996a90e3e676b9107cd167e1b74f9e6df3d967b1f91905b8181106112c0576104a2856112b48187038261108f565b604051918291826111f5565b82546001600160a01b031684526020909301926001928301920161129d565b346104a65760203660031901126104a6576004356112fe610872611daa565b6105eb57611333815f527f708bad8aa3b81bea04edad4b5c1dd58143a36561836ce96b5588ecea4e84e3ab60205260405f2090565b6001600160a01b0361134c82546001600160a01b031690565b16156105c35760058101805460ff16611364816100e8565b610dda576001600160a01b0391610d7461137d926116ab565b169033907f135dc16718b461c44ae749630a98a1bebd63e710b328ad36bf0c21b9693f61675f80a4005b600190610110826100e8565b610110826100e8565b90600182811c921680156113ea575b60208310146113d657565b634e487b7160e01b5f52602260045260245ffd5b91607f16916113cb565b604051905f827f708bad8aa3b81bea04edad4b5c1dd58143a36561836ce96b5588ecea4e84e3aa5491611426836113bc565b80835292600181169081156114c8575060011461144a575b6110c19250038361108f565b507f708bad8aa3b81bea04edad4b5c1dd58143a36561836ce96b5588ecea4e84e3aa5f90815290917f54ac9907a926b582ede83bb8a21c70921e2c65b3e32bd1a279d4efdc75d422d15b8183106114ac5750509060206110c19282010161143e565b6020919350806001915483858901015201910190918492611494565b602092506110c194915060ff191682840152151560051b82010161143e565b906114f1816100e8565b60ff80198354169116179055565b6040810193929160209190611513816100e8565b815261151e836100e8565b0152565b5f90610110826100e8565b9060076115386110c3565b9261155a61154d82546001600160a01b031690565b6001600160a01b03168552565b600181015460208501526002810154604085015260038101546060850152600481015460808501526115b56115ac60058301546115a361159a8260ff1690565b60a089016113b3565b60081c60ff1690565b151560c0860152565b600681015460e08501520154610100830152565b634e487b7160e01b5f52601160045260245ffd5b90670de0b6b3a7640000820291808304670de0b6b3a7640000149015171561160157565b6115c9565b8115611610570490565b634e487b7160e01b5f52601260045260245ffd5b1561162b57565b606460405162461bcd60e51b815260206004820152601460248201527f496e766573746d656e7420746f6f20736d616c6c0000000000000000000000006044820152fd5b5f1981146116015760010190565b61168760036100e8565b805460ff19166003179055565b61169e60016100e8565b805460ff19166001179055565b6116b560026100e8565b805460ff19166002179055565b906101006007916116f96116dd82516001600160a01b031690565b85906001600160a01b03166001600160a01b0319825416179055565b6020810151600185015560408101516002850155606081015160038501556080810151600485015561175c6005850161173f60a0840151611739816100e8565b826114e7565b60c08301511515815461ff00191690151560081b61ff0016179055565b60e081015160068501550151910155565b9062093a80820180921161160157565b9190820180921161160157565b9791969093949560ff7ff0c57e16840df040f15088dc2f81fe391c3923bec73e23a9662efc9c229c6a005460401c1615611957577f708bad8aa3b81bea04edad4b5c1dd58143a36561836ce96b5588ecea4e84e3b55460ff1661192f577f393a63ea637c258da582ed0ffb8ccd62f78704d5a0a3fe71d31625f10bab7d33966001600160a01b039661192a956118a08c6118346118256110b1565b6001600160a01b039092168252565b6001600160a01b038a1660208201526001600160a01b038d1660408201526001600160a01b03831660608201528360808201528460a08201528560c08201528660e08201525f6101008201525f61012082015261189461014082016113a7565b87610160820152611a9a565b6118c960017f708bad8aa3b81bea04edad4b5c1dd58143a36561836ce96b5588ecea4e84e3ac55565b611919600160ff197f708bad8aa3b81bea04edad4b5c1dd58143a36561836ce96b5588ecea4e84e3b55416177f708bad8aa3b81bea04edad4b5c1dd58143a36561836ce96b5588ecea4e84e3b555565b88604051998a99169c169a88611d23565b0390a3565b7f0cc21589000000000000000000000000000000000000000000000000000000005f5260045ffd5b7fd7e6bcf8000000000000000000000000000000000000000000000000000000005f5260045ffd5b601f821161198c57505050565b5f5260205f20906020601f840160051c830193106119c4575b601f0160051c01905b8181106119b9575050565b5f81556001016119ae565b90915081906119a5565b919091825167ffffffffffffffff811161106d576119f6816119f084546113bc565b8461197f565b6020601f8211600114611a35578190611a269394955f92611a2a575b50508160011b915f199060031b1c19161790565b9055565b015190505f80611a12565b601f19821690611a48845f5260205f2090565b915f5b818110611a8257509583600195969710611a6a575b505050811b019055565b01515f1960f88460031b161c191690555f8080611a60565b9192602060018192868b015181550194019201611a4b565b6101606110c191611af1611ab582516001600160a01b031690565b7f708bad8aa3b81bea04edad4b5c1dd58143a36561836ce96b5588ecea4e84e39f906001600160a01b03166001600160a01b0319825416179055565b611b44611b0860208301516001600160a01b031690565b7f708bad8aa3b81bea04edad4b5c1dd58143a36561836ce96b5588ecea4e84e3a0906001600160a01b03166001600160a01b0319825416179055565b611b84611b5b60408301516001600160a01b031690565b5f5160206131165f395f51905f52906001600160a01b03166001600160a01b0319825416179055565b611bd7611b9b60608301516001600160a01b031690565b7f708bad8aa3b81bea04edad4b5c1dd58143a36561836ce96b5588ecea4e84e3a2906001600160a01b03166001600160a01b0319825416179055565b60808101517f708bad8aa3b81bea04edad4b5c1dd58143a36561836ce96b5588ecea4e84e3a35560a08101517f708bad8aa3b81bea04edad4b5c1dd58143a36561836ce96b5588ecea4e84e3a45560c08101517f708bad8aa3b81bea04edad4b5c1dd58143a36561836ce96b5588ecea4e84e3a55560e08101517f708bad8aa3b81bea04edad4b5c1dd58143a36561836ce96b5588ecea4e84e3a6556101008101517f708bad8aa3b81bea04edad4b5c1dd58143a36561836ce96b5588ecea4e84e3a7556101208101517f708bad8aa3b81bea04edad4b5c1dd58143a36561836ce96b5588ecea4e84e3a855611cfb610140820151611cd5816100e8565b7f708bad8aa3b81bea04edad4b5c1dd58143a36561836ce96b5588ecea4e84e3a96114e7565b01517f708bad8aa3b81bea04edad4b5c1dd58143a36561836ce96b5588ecea4e84e3aa6119ce565b9390926001600160a01b0360e09693816101f89a999616875216602086015260408501526060840152608083015260a08201528160c08201520190610113565b3d15611d8d573d90611d74826110d3565b91611d82604051938461108f565b82523d5f602084013e565b606090565b908160209103126104a6575180151581036104a65790565b7f708bad8aa3b81bea04edad4b5c1dd58143a36561836ce96b5588ecea4e84e39f546001600160a01b0316803314611e6057803b15611e5b576040517ffa8c59dc00000000000000000000000000000000000000000000000000000000602082019081523360248301525f928392909190611e3281604481015b03601f19810183528261108f565b51915afa611e3e611d63565b81611e47575090565b6101f8915060208082518301019101611d92565b505f90565b50600190565b7f708bad8aa3b81bea04edad4b5c1dd58143a36561836ce96b5588ecea4e84e3a4548110159081611e95575090565b90507f708bad8aa3b81bea04edad4b5c1dd58143a36561836ce96b5588ecea4e84e3a754908101809111611601577f708bad8aa3b81bea04edad4b5c1dd58143a36561836ce96b5588ecea4e84e3a554101590565b6040517f34006cad00000000000000000000000000000000000000000000000000000000602082019081526001600160a01b03909216602482015260448101929092525f91829190611f3f8160648101611e24565b5190305afa611f4c611d63565b9015611f555750565b80519081611f61575050565b602001fd5b15611f6d57565b606460405162461bcd60e51b815260206004820152601460248201527f496e636f72726563742045544820616d6f756e740000000000000000000000006044820152fd5b906001600160a01b035f5160206131165f395f51905f52541680155f14612064575061206190611fe2833414611f66565b612034612010847f708bad8aa3b81bea04edad4b5c1dd58143a36561836ce96b5588ecea4e84e3b15461177d565b7f708bad8aa3b81bea04edad4b5c1dd58143a36561836ce96b5588ecea4e84e3b155565b5f527f708bad8aa3b81bea04edad4b5c1dd58143a36561836ce96b5588ecea4e84e3b260205260405f2090565b55565b3461214b576120619161208d8461208461211e946001600160a01b031690565b30903390612eaf565b6120e46120ae5f5160206131165f395f51905f52546001600160a01b031690565b6001600160a01b03165f527f708bad8aa3b81bea04edad4b5c1dd58143a36561836ce96b5588ecea4e84e3b360205260405f2090565b6120ef85825461177d565b90555f527f708bad8aa3b81bea04edad4b5c1dd58143a36561836ce96b5588ecea4e84e3b460205260405f2090565b5f5160206131165f395f51905f52546001600160a01b03166001600160a01b03165f5260205260405f2090565b608460405162461bcd60e51b815260206004820152602160248201527f4e6f2045544820657870656374656420666f7220746f6b656e207061796d656e60448201527f74000000000000000000000000000000000000000000000000000000000000006064820152fd5b5f5f8060405160208101907f0837d3e5000000000000000000000000000000000000000000000000000000008252600481526121f260248261108f565b5190305afa6121ff611d63565b90612208575090565b809150518101606082602083019203126104a65760208201519160608101519067ffffffffffffffff82116104a6570181603f820112156104a6576020810151612251816110d3565b9261225f604051948561108f565b818452604083830101116104a6575f92816040602094018483015e01015290565b634e487b7160e01b5f52603260045260245ffd5b7f708bad8aa3b81bea04edad4b5c1dd58143a36561836ce96b5588ecea4e84e3ae548110156122ea577f708bad8aa3b81bea04edad4b5c1dd58143a36561836ce96b5588ecea4e84e3ae5f5260205f2001905f90565b612280565b9061232a826001600160a01b03165f527f708bad8aa3b81bea04edad4b5c1dd58143a36561836ce96b5588ecea4e84e3ad60205260405f2090565b908154916801000000000000000083101561106d57600183018082558310156122ea575f90815260209020909101556001612395826001600160a01b03165f527f708bad8aa3b81bea04edad4b5c1dd58143a36561836ce96b5588ecea4e84e3ad60205260405f2090565b541461239e5750565b7f708bad8aa3b81bea04edad4b5c1dd58143a36561836ce96b5588ecea4e84e3ae546801000000000000000081101561106d5780600161240092017f708bad8aa3b81bea04edad4b5c1dd58143a36561836ce96b5588ecea4e84e3ae55612294565b6001600160a01b0380839493549260031b9316831b921b1916179055565b5f926124798493611e2460405193849260208401967f087efee9000000000000000000000000000000000000000000000000000000008852602485016040919493926001600160a01b03606083019616825260208201520152565b519082305af150612488611d63565b50565b1561249257565b606460405162461bcd60e51b815260206004820152601c60248201527f455243323020657363726f7720616d6f756e74206d69736d61746368000000006044820152fd5b9190820391821161160157565b156124ea57565b606460405162461bcd60e51b815260206004820152601a60248201527f45544820657363726f7720616d6f756e74206d69736d617463680000000000006044820152fd5b1561253557565b606460405162461bcd60e51b815260206004820152601a60248201527f45544820726566756e64207472616e73666572206661696c65640000000000006044820152fd5b6125aa815f527f708bad8aa3b81bea04edad4b5c1dd58143a36561836ce96b5588ecea4e84e3ab60205260405f2090565b9060058201906125c2610872835460ff9060081c1690565b612755576110c1926125e85f5160206131165f395f51905f52546001600160a01b031690565b6001600160a01b03811661269557505f808084612685829583612677612638610ee69a5f527f708bad8aa3b81bea04edad4b5c1dd58143a36561836ce96b5588ecea4e84e3b260205260405f2090565b5494612649600185015487146124e3565b612034612010877f708bad8aa3b81bea04edad4b5c1dd58143a36561836ce96b5588ecea4e84e3b1546124d6565b55546001600160a01b031690565b5af161268f611d63565b5061252e565b905f61270b61211e856127006126ef876126d96127509a5f527f708bad8aa3b81bea04edad4b5c1dd58143a36561836ce96b5588ecea4e84e3b460205260405f2090565b906001600160a01b03165f5260205260405f2090565b54966120ae6001880154891461248b565b6120ef8782546124d6565b5561274a61273c6127305f5160206131165f395f51905f52546001600160a01b031690565b6001600160a01b031690565b91546001600160a01b031690565b90612f19565b610ee6565b60405162461bcd60e51b815260206004820152602560248201527f5061796d656e74206e6f7420696e20657363726f77202d2063616e6e6f74207260448201527f6566756e640000000000000000000000000000000000000000000000000000006064820152608490fd5b5f9261281b8493611e2460405193849260208401967f7f629509000000000000000000000000000000000000000000000000000000008852602485016040919493926001600160a01b03606083019616825260208201520152565b5190305afa50612488611d63565b1561283057565b608460405162461bcd60e51b8152602060048201526024808201527f436f72706f726174652045544820657363726f77207472616e7366657220666160448201527f696c6564000000000000000000000000000000000000000000000000000000006064820152fd5b91908260409103126104a6576020825192015190565b6040513d5f823e3d90fd5b6128ca61087260c0830151151590565b612b6a575f5160206131165f395f51905f52546001600160a01b031680612ab957505f612960612921845f527f708bad8aa3b81bea04edad4b5c1dd58143a36561836ce96b5588ecea4e84e3b260205260405f2090565b5493612932602085015186146124e3565b612034612010867f708bad8aa3b81bea04edad4b5c1dd58143a36561836ce96b5588ecea4e84e3b1546124d6565b557f708bad8aa3b81bea04edad4b5c1dd58143a36561836ce96b5588ecea4e84e3a2546001600160a01b031661299581612f6b565b15612a9e5750612a1b916040916129ea6129dc6127306127307f708bad8aa3b81bea04edad4b5c1dd58143a36561836ce96b5588ecea4e84e3a2546001600160a01b031690565b91516001600160a01b031690565b8351635bc2147d60e11b81526001600160a01b03909116600482015260248101839052938492839182906044820190565b03925af19081612a70575b506110c15760405162461bcd60e51b815260206004820152601b60248201527f46756e6420657363726f77207472616e73666572206661696c656400000000006044820152606490fd5b612a919060403d604011612a97575b612a89818361108f565b810190612899565b50612a26565b503d612a7f565b5f808093506110c19481935af1612ab3611d63565b50612829565b612b1861211e84612b0d846120ae6020612b025f986126d96110c19c5f527f708bad8aa3b81bea04edad4b5c1dd58143a36561836ce96b5588ecea4e84e3b460205260405f2090565b54980151881461248b565b6120ef8682546124d6565b55612b3a6127305f5160206131165f395f51905f52546001600160a01b031690565b7f708bad8aa3b81bea04edad4b5c1dd58143a36561836ce96b5588ecea4e84e3a2546001600160a01b031661274a565b5050565b7f708bad8aa3b81bea04edad4b5c1dd58143a36561836ce96b5588ecea4e84e3a75490810180911161160157807f708bad8aa3b81bea04edad4b5c1dd58143a36561836ce96b5588ecea4e84e3a755612be77f708bad8aa3b81bea04edad4b5c1dd58143a36561836ce96b5588ecea4e84e3a85461166f565b7f708bad8aa3b81bea04edad4b5c1dd58143a36561836ce96b5588ecea4e84e3a8557f708bad8aa3b81bea04edad4b5c1dd58143a36561836ce96b5588ecea4e84e3a5541115612c3357565b7f090dc240b6971396472961dc185f630e0a38a8785c5c37c22b858ac2255a7fbb60ff7f708bad8aa3b81bea04edad4b5c1dd58143a36561836ce96b5588ecea4e84e3a954612cb48260028119841617807f708bad8aa3b81bea04edad4b5c1dd58143a36561836ce96b5588ecea4e84e3a9551660405193849316836114ff565b0390a1565b7f708bad8aa3b81bea04edad4b5c1dd58143a36561836ce96b5588ecea4e84e3a05490612cee6001600160a01b038316612f6b565b15612d29577f708bad8aa3b81bea04edad4b5c1dd58143a36561836ce96b5588ecea4e84e3a0546101f892506001600160a01b031690612fbb565b80612d39602060409301516115dd565b612d5e612730612730612d5186860194855190611606565b966001600160a01b031690565b905f612d7184516001600160a01b031690565b915191612e1d6080612d975f5160206131165f395f51905f52546001600160a01b031690565b9601518751988997889687957f0d9f3875000000000000000000000000000000000000000000000000000000008752600487019594939290916001600160a01b03809316875260208701521660408501526060840152608083015261010060a08301525f61010083015261012060c08301525f6101208301525f60e06101408401930152565b03925af1908115612e4f575f91612e32575090565b612e4b915060403d604011612a9757612a89818361108f565b5090565b6128af565b5f926124798493611e2460405193849260208401967f99221b60000000000000000000000000000000000000000000000000000000008852602485016040919493926001600160a01b03606083019616825260208201520152565b6040517f23b872dd0000000000000000000000000000000000000000000000000000000060208201526001600160a01b03928316602482015292909116604483015260648201929092526110c191612f1482608481015b03601f19810184528361108f565b6130a8565b6040517fa9059cbb0000000000000000000000000000000000000000000000000000000060208201526001600160a01b03909216602483015260448201929092526110c191612f148260648101612f06565b803b15611e5b575f809160405160208101907f289caf6800000000000000000000000000000000000000000000000000000000825260048152612faf60248261108f565b51915afa612e4b611d63565b90612fcc61087260c0840151151590565b15612fd75750505f90565b81604091612ff4602061302e95015192516001600160a01b031690565b826001600160a01b038551809781968295635bc2147d60e11b845260048401602090939291936001600160a01b0360408201951681520152565b0393165af15f9181613085575b506101f85760405162461bcd60e51b815260206004820152601660248201527f46756e6420696e766573746d656e74206661696c6564000000000000000000006044820152606490fd5b61309f91925060403d604011612a9757612a89818361108f565b9050905f61303b565b905f602091828151910182855af1156128af575f513d61310c57506001600160a01b0381163b155b6130d75750565b6001600160a01b03907f5274afe7000000000000000000000000000000000000000000000000000000005f521660045260245ffd5b600114156130d056fe708bad8aa3b81bea04edad4b5c1dd58143a36561836ce96b5588ecea4e84e3a1a2646970667358221220721863ae88de7b2b4e5d77606a45c3e400f7e2aa8847e27babe6a4c13aed965764736f6c634300081c0033f0c57e16840df040f15088dc2f81fe391c3923bec73e23a9662efc9c229c6a00","linkReferences":{}},"methodIdentifiers":{"OfferingCore_init(address,address,address,address,uint256,uint256,uint256,uint256,string)":"aae0b1e0","attachInvestmentAgreement(uint256,bytes32)":"09a3352f","claimRefund(uint256)":"5b7baf64","countersignInvestment(uint256)":"788fe028","getAllInvestors()":"d0a2f2c4","getInvestment(uint256)":"22ae634f","getInvestorInvestments(address)":"4c431f00","getInvestorPaymentTotal(address)":"ad7724f2","getOfferingInfo()":"0044eff4","getPaymentInfo()":"04da3f19","invest(uint256)":"2afcf480","rejectInvestment(uint256)":"f0fb56a8","updateOfferingStatus(uint8)":"16268c28"},"id":195}