{"abi":[{"type":"function","name":"RedemptionControl_init","inputs":[{"name":"gateBps","type":"uint16","internalType":"uint16"},{"name":"periodDays","type":"uint32","internalType":"uint32"},{"name":"noticeDays","type":"uint32","internalType":"uint32"},{"name":"lockupDays","type":"uint32","internalType":"uint32"}],"outputs":[],"stateMutability":"nonpayable"},{"type":"function","name":"cancelRedemption","inputs":[{"name":"requestId","type":"uint256","internalType":"uint256"}],"outputs":[],"stateMutability":"nonpayable"},{"type":"function","name":"createSidePocket","inputs":[{"name":"investmentId","type":"uint256","internalType":"uint256"},{"name":"reason","type":"string","internalType":"string"}],"outputs":[{"name":"sidePocketId","type":"uint256","internalType":"uint256"}],"stateMutability":"nonpayable"},{"type":"function","name":"distributeSidePocket","inputs":[{"name":"sidePocketId","type":"uint256","internalType":"uint256"}],"outputs":[],"stateMutability":"nonpayable"},{"type":"function","name":"forceCancelRedemption","inputs":[{"name":"requestId","type":"uint256","internalType":"uint256"},{"name":"reason","type":"string","internalType":"string"}],"outputs":[],"stateMutability":"nonpayable"},{"type":"function","name":"getActiveSidePockets","inputs":[],"outputs":[{"name":"","type":"tuple[]","internalType":"struct IRedemptionControl.SidePocket[]","components":[{"name":"sidePocketId","type":"uint256","internalType":"uint256"},{"name":"investmentId","type":"uint256","internalType":"uint256"},{"name":"createdAt","type":"uint256","internalType":"uint256"},{"name":"distributedAt","type":"uint256","internalType":"uint256"},{"name":"isActive","type":"bool","internalType":"bool"}]}],"stateMutability":"view"},{"type":"function","name":"getCurrentPeriodSummary","inputs":[],"outputs":[{"name":"","type":"tuple","internalType":"struct IRedemptionControl.PeriodSummary","components":[{"name":"periodStart","type":"uint256","internalType":"uint256"},{"name":"periodEnd","type":"uint256","internalType":"uint256"},{"name":"totalRequested","type":"uint256","internalType":"uint256"},{"name":"totalFulfilled","type":"uint256","internalType":"uint256"},{"name":"gateLimit","type":"uint256","internalType":"uint256"},{"name":"gateRemaining","type":"uint256","internalType":"uint256"}]}],"stateMutability":"view"},{"type":"function","name":"getGateConfig","inputs":[],"outputs":[{"name":"","type":"tuple","internalType":"struct IRedemptionControl.GateConfig","components":[{"name":"gateBps","type":"uint16","internalType":"uint16"},{"name":"periodDays","type":"uint32","internalType":"uint32"},{"name":"noticeDays","type":"uint32","internalType":"uint32"},{"name":"lockupDays","type":"uint32","internalType":"uint32"},{"name":"enabled","type":"bool","internalType":"bool"}]}],"stateMutability":"view"},{"type":"function","name":"getInvestorRequests","inputs":[{"name":"investor","type":"address","internalType":"address"}],"outputs":[{"name":"","type":"tuple[]","internalType":"struct IRedemptionControl.RedemptionRequest[]","components":[{"name":"requestId","type":"uint256","internalType":"uint256"},{"name":"investor","type":"address","internalType":"address"},{"name":"sharesRequested","type":"uint256","internalType":"uint256"},{"name":"sharesFulfilled","type":"uint256","internalType":"uint256"},{"name":"sharesRemaining","type":"uint256","internalType":"uint256"},{"name":"requestedAt","type":"uint256","internalType":"uint256"},{"name":"eligibleAt","type":"uint256","internalType":"uint256"},{"name":"status","type":"uint8","internalType":"enum IRedemptionControl.RedemptionStatus"}]}],"stateMutability":"view"},{"type":"function","name":"getPendingRedemptionCount","inputs":[],"outputs":[{"name":"","type":"uint256","internalType":"uint256"}],"stateMutability":"view"},{"type":"function","name":"getRedeemableNAV","inputs":[],"outputs":[{"name":"","type":"uint256","internalType":"uint256"}],"stateMutability":"view"},{"type":"function","name":"getRedemptionRequest","inputs":[{"name":"requestId","type":"uint256","internalType":"uint256"}],"outputs":[{"name":"","type":"tuple","internalType":"struct IRedemptionControl.RedemptionRequest","components":[{"name":"requestId","type":"uint256","internalType":"uint256"},{"name":"investor","type":"address","internalType":"address"},{"name":"sharesRequested","type":"uint256","internalType":"uint256"},{"name":"sharesFulfilled","type":"uint256","internalType":"uint256"},{"name":"sharesRemaining","type":"uint256","internalType":"uint256"},{"name":"requestedAt","type":"uint256","internalType":"uint256"},{"name":"eligibleAt","type":"uint256","internalType":"uint256"},{"name":"status","type":"uint8","internalType":"enum IRedemptionControl.RedemptionStatus"}]}],"stateMutability":"view"},{"type":"function","name":"getSidePocket","inputs":[{"name":"sidePocketId","type":"uint256","internalType":"uint256"}],"outputs":[{"name":"","type":"tuple","internalType":"struct IRedemptionControl.SidePocket","components":[{"name":"sidePocketId","type":"uint256","internalType":"uint256"},{"name":"investmentId","type":"uint256","internalType":"uint256"},{"name":"createdAt","type":"uint256","internalType":"uint256"},{"name":"distributedAt","type":"uint256","internalType":"uint256"},{"name":"isActive","type":"bool","internalType":"bool"}]}],"stateMutability":"view"},{"type":"function","name":"getTotalPendingShares","inputs":[],"outputs":[{"name":"","type":"uint256","internalType":"uint256"}],"stateMutability":"view"},{"type":"function","name":"isInLockup","inputs":[{"name":"investor","type":"address","internalType":"address"}],"outputs":[{"name":"inLockup","type":"bool","internalType":"bool"},{"name":"lockupEnds","type":"uint256","internalType":"uint256"}],"stateMutability":"view"},{"type":"function","name":"isRedemptionControlInitialized","inputs":[],"outputs":[{"name":"","type":"bool","internalType":"bool"}],"stateMutability":"view"},{"type":"function","name":"isRedemptionsSuspended","inputs":[],"outputs":[{"name":"","type":"bool","internalType":"bool"}],"stateMutability":"view"},{"type":"function","name":"packedSelectors","inputs":[],"outputs":[{"name":"","type":"bytes","internalType":"bytes"}],"stateMutability":"pure"},{"type":"function","name":"previewRedemption","inputs":[{"name":"shares","type":"uint256","internalType":"uint256"}],"outputs":[{"name":"estimatedProceeds","type":"uint256","internalType":"uint256"},{"name":"navPerShare","type":"uint256","internalType":"uint256"},{"name":"wouldBeGated","type":"bool","internalType":"bool"}],"stateMutability":"view"},{"type":"function","name":"processRedemptions","inputs":[{"name":"maxRequests","type":"uint256","internalType":"uint256"}],"outputs":[{"name":"processedCount","type":"uint256","internalType":"uint256"},{"name":"totalSharesRedeemed","type":"uint256","internalType":"uint256"},{"name":"totalAmountPaid","type":"uint256","internalType":"uint256"}],"stateMutability":"nonpayable"},{"type":"function","name":"recordInvestorEntry","inputs":[{"name":"investor","type":"address","internalType":"address"}],"outputs":[],"stateMutability":"nonpayable"},{"type":"function","name":"requestRedemption","inputs":[{"name":"shares","type":"uint256","internalType":"uint256"}],"outputs":[{"name":"requestId","type":"uint256","internalType":"uint256"}],"stateMutability":"nonpayable"},{"type":"function","name":"resumeRedemptions","inputs":[],"outputs":[],"stateMutability":"nonpayable"},{"type":"function","name":"setGateConfig","inputs":[{"name":"gateBps","type":"uint16","internalType":"uint16"},{"name":"periodDays","type":"uint32","internalType":"uint32"},{"name":"noticeDays","type":"uint32","internalType":"uint32"},{"name":"lockupDays","type":"uint32","internalType":"uint32"}],"outputs":[],"stateMutability":"nonpayable"},{"type":"function","name":"setGatesEnabled","inputs":[{"name":"enabled","type":"bool","internalType":"bool"}],"outputs":[],"stateMutability":"nonpayable"},{"type":"function","name":"suspendRedemptions","inputs":[{"name":"reason","type":"uint8","internalType":"enum IRedemptionControl.SuspensionReason"},{"name":"description","type":"string","internalType":"string"}],"outputs":[],"stateMutability":"nonpayable"},{"type":"event","name":"GateConfigured","inputs":[{"name":"gateBps","type":"uint16","indexed":false,"internalType":"uint16"},{"name":"periodDays","type":"uint32","indexed":false,"internalType":"uint32"},{"name":"noticeDays","type":"uint32","indexed":false,"internalType":"uint32"},{"name":"lockupDays","type":"uint32","indexed":false,"internalType":"uint32"}],"anonymous":false},{"type":"event","name":"GatePeriodReset","inputs":[{"name":"periodStart","type":"uint256","indexed":false,"internalType":"uint256"},{"name":"periodEnd","type":"uint256","indexed":false,"internalType":"uint256"},{"name":"gateLimit","type":"uint256","indexed":false,"internalType":"uint256"}],"anonymous":false},{"type":"event","name":"RedemptionCancelled","inputs":[{"name":"requestId","type":"uint256","indexed":true,"internalType":"uint256"},{"name":"investor","type":"address","indexed":true,"internalType":"address"},{"name":"reason","type":"string","indexed":false,"internalType":"string"}],"anonymous":false},{"type":"event","name":"RedemptionControlInitialized","inputs":[{"name":"gateBps","type":"uint16","indexed":false,"internalType":"uint16"},{"name":"periodDays","type":"uint32","indexed":false,"internalType":"uint32"},{"name":"noticeDays","type":"uint32","indexed":false,"internalType":"uint32"}],"anonymous":false},{"type":"event","name":"RedemptionProcessed","inputs":[{"name":"requestId","type":"uint256","indexed":true,"internalType":"uint256"},{"name":"investor","type":"address","indexed":true,"internalType":"address"},{"name":"sharesFulfilled","type":"uint256","indexed":false,"internalType":"uint256"},{"name":"amountPaid","type":"uint256","indexed":false,"internalType":"uint256"},{"name":"navPerShare","type":"uint256","indexed":false,"internalType":"uint256"}],"anonymous":false},{"type":"event","name":"RedemptionRequested","inputs":[{"name":"requestId","type":"uint256","indexed":true,"internalType":"uint256"},{"name":"investor","type":"address","indexed":true,"internalType":"address"},{"name":"shares","type":"uint256","indexed":false,"internalType":"uint256"},{"name":"eligibleAt","type":"uint256","indexed":false,"internalType":"uint256"}],"anonymous":false},{"type":"event","name":"RedemptionsResumed","inputs":[{"name":"resumedBy","type":"address","indexed":true,"internalType":"address"}],"anonymous":false},{"type":"event","name":"RedemptionsSuspended","inputs":[{"name":"reason","type":"uint8","indexed":true,"internalType":"enum IRedemptionControl.SuspensionReason"},{"name":"description","type":"string","indexed":false,"internalType":"string"},{"name":"suspendedBy","type":"address","indexed":true,"internalType":"address"}],"anonymous":false},{"type":"event","name":"SidePocketCreated","inputs":[{"name":"sidePocketId","type":"uint256","indexed":true,"internalType":"uint256"},{"name":"investmentId","type":"uint256","indexed":true,"internalType":"uint256"},{"name":"reason","type":"string","indexed":false,"internalType":"string"}],"anonymous":false},{"type":"event","name":"SidePocketDistributed","inputs":[{"name":"sidePocketId","type":"uint256","indexed":true,"internalType":"uint256"},{"name":"totalDistributed","type":"uint256","indexed":false,"internalType":"uint256"},{"name":"recipientCount","type":"uint256","indexed":false,"internalType":"uint256"}],"anonymous":false},{"type":"error","name":"AccessControl_CallerIsNotAuthorized","inputs":[{"name":"caller","type":"address","internalType":"address"},{"name":"functionSig","type":"bytes4","internalType":"bytes4"}]},{"type":"error","name":"Redemption_AlreadyInitialized","inputs":[]},{"type":"error","name":"Redemption_AlreadyProcessed","inputs":[]},{"type":"error","name":"Redemption_GateExceeded","inputs":[{"name":"requested","type":"uint256","internalType":"uint256"},{"name":"available","type":"uint256","internalType":"uint256"}]},{"type":"error","name":"Redemption_InLockupPeriod","inputs":[{"name":"lockupEnds","type":"uint256","internalType":"uint256"}]},{"type":"error","name":"Redemption_InNoticePeriod","inputs":[{"name":"eligibleAt","type":"uint256","internalType":"uint256"}]},{"type":"error","name":"Redemption_InsufficientShares","inputs":[{"name":"requested","type":"uint256","internalType":"uint256"},{"name":"available","type":"uint256","internalType":"uint256"}]},{"type":"error","name":"Redemption_InvalidAmount","inputs":[]},{"type":"error","name":"Redemption_InvestmentNotIlliquid","inputs":[]},{"type":"error","name":"Redemption_NotInitialized","inputs":[]},{"type":"error","name":"Redemption_NotOpenEnded","inputs":[]},{"type":"error","name":"Redemption_NotRequestOwner","inputs":[]},{"type":"error","name":"Redemption_NotSuspended","inputs":[]},{"type":"error","name":"Redemption_RequestNotFound","inputs":[{"name":"requestId","type":"uint256","internalType":"uint256"}]},{"type":"error","name":"Redemption_SidePocketAlreadyDistributed","inputs":[]},{"type":"error","name":"Redemption_SidePocketNotFound","inputs":[{"name":"sidePocketId","type":"uint256","internalType":"uint256"}]},{"type":"error","name":"Redemption_Suspended","inputs":[]}],"bytecode":{"object":"0x608080604052346015576129fe908161001a8239f35b5f80fdfe60a06040526004361015610011575f80fd5b5f358060e01c806304acab8f14611e2657806308a9c76714611de45780630c28846c14611da757806318e4b39014611ca857806319dedb2f14611ad05780631c931ccb14611a265780632cab9efc146119875780632caf761d1461196d5780632ce546f314611912578063361c5f6d146117a55780633aa6f0ee146116f45780633e62267c1461155c5780634080860a146115335780634e598204146113315780638e6ef34f146111de5780639219e510146110b157806393145564146110805780639b06d1741461100a578063aa7c09ee14610ef1578063ab5859fa14610ecf578063b4dc829414610a50578063cb0b2b10146107da578063d641ce40146107ac578063e86764521461062b578063eeb3c910146102725763f655863414610138575f80fd5b3461026e575f36600319011261026e576001600160e01b03191661015c81336123de565b15610258575f5160206129495f395f51905f525460ff8116156102495760ff8160081c161561023a5761ff0019165f5160206129495f395f51905f52556101b05f5160206129a95f395f51905f5254612390565b601f81116101f0575b5f5f5160206129a95f395f51905f5255337fc97d1c8d150cefd8b18dc959de0113bab37a1c72041418e9c1c3fefdffdbecc15f80a2005b5f5160206129a95f395f51905f525f5261023490601f0160051c7fca4da862ccbec3ce518d60c23b464c9091fc46a1c32dacaf48fc148b93ffebc9908101906123c8565b806101b9565b636c28092560e01b5f5260045ffd5b636ec2fdfd60e01b5f5260045ffd5b631d64bc3360e11b5f523360045260245260445ffd5b5f80fd5b3461026e57602036600319011261026e576004355f5160206129495f395f51905f525460ff811615610249576102a6612617565b1561061c5760081c60ff1661060d5780156105fe576102c43361242f565b906105ec57506102d33361210f565b905f5f8354905b8181106105515750506102ec81612378565b8211610532575063ffffffff5f5160206129895f395f51905f525460301c166201518081029080820462015180149015171561051e5761032c904261236b565b907f4d23641b8684f5ab45cf672c227331eb8c499bb46f08379613d498522fc52a3e54906103598261234a565b7f4d23641b8684f5ab45cf672c227331eb8c499bb46f08379613d498522fc52a3e556040516103878161218a565b8281526007602082019133835260408101848152606082015f81526080830186815260a084019142835260c08501938a855260e08601975f89528a5f525f5160206128a95f395f51905f5260205260405f2096518755600187019060018060a01b039051166bffffffffffffffffffffffff60a01b82541617905551600286015551600385015551600484015551600583015551600682015501905161042c81611f8c565b61043581611f8c565b60ff801983541691161790555f5160206129295f395f51905f5254600160401b81101561050a578261048a8260016104a294015f5160206129295f395f51905f52555f5160206129295f395f51905f526122e5565b90919082549060031b91821b915f19901b1916179055565b6104ab3361210f565b92835493600160401b85101561050a578361048a866104d19360016020990181556122e5565b60405191825283820152817ff19df946bd7a20f885899acc4fddc6c89e457d8ae2e0fffa630fc997100214bf60403393a3604051908152f35b634e487b7160e01b5f52604160045260245ffd5b634e487b7160e01b5f52601160045260245ffd5b61053b90612378565b90638840130b60e01b5f5260045260245260445ffd5b61055b81866122e5565b90549060031b1c5f525f5160206128a95f395f51905f5260205260405f2060ff60078201541661058a81611f8c565b80159081156105d7575b81156105c3575b506105aa575b506001016102da565b6001919360046105bc9201549061236b565b92906105a1565b600291506105d081611f8c565b148761059b565b90506105e281611f8c565b6001811490610594565b632f4b0dbb60e21b5f5260045260245ffd5b6307ee9b7760e21b5f5260045ffd5b63915b94a760e01b5f5260045ffd5b63ddae525960e01b5f5260045ffd5b3461026e57602036600319011261026e576004356001600160a01b038116810361026e576106589061210f565b805461066381612259565b9161067160405193846121c3565b818352601f1961068083612259565b015f5b8181106107955750505f5b8281106106e657836040518091602082016020835281518091526020604084019201905f5b8181106106c1575050500390f35b919350916020610100826106d86001948851611faa565b0194019101918493926106b3565b806106f3600192846122e5565b90549060031b1c5f525f5160206128a95f395f51905f5260205260405f2060ff6007604051926107228461218a565b80548452858060a01b0386820154166020850152600281015460408501526003810154606085015260048101546080850152600581015460a0850152600681015460c085015201541661077481611f8c565b60e082015261078382876122fa565b5261078e81866122fa565b500161068e565b6020906107a061230e565b82828801015201610683565b3461026e575f36600319011261026e57602060ff5f5160206129495f395f51905f5254166040519015158152f35b503461026e57604036600319011261026e57600435600581101561026e5760243567ffffffffffffffff811161026e57610818903690600401611f2a565b90926001600160e01b03191661082e81336123de565b1561025857505f5160206129495f395f51905f525460ff811615610249576101009061085984611f8c565b62ffff001916601084901b62ff00001617175f5160206129495f395f51905f525567ffffffffffffffff811161050a576108a05f5160206129a95f395f51905f5254612390565b601f81116109eb575b505f601f821160011461092b57817f8f29ee72ff0df1df726bd5ac54ef1092823a4905fb1d4a60ce4b4c9304a75dd79261091b925f91610920575b508160011b905f198360031b1c1916175f5160206129a95f395f51905f52555b61090d84611f8c565b604051918291339683612147565b0390a3005b90508501355f6108e4565b5f5160206129a95f395f51905f525f9081527fca4da862ccbec3ce518d60c23b464c9091fc46a1c32dacaf48fc148b93ffebc99190601f198416905b8181106109d357509183917f8f29ee72ff0df1df726bd5ac54ef1092823a4905fb1d4a60ce4b4c9304a75dd79461091b94106109ba575b5050600181811b015f5160206129a95f395f51905f5255610904565b8601355f19600384901b60f8161c191690555f8061099e565b9192602060018192868a013581550194019201610967565b5f5160206129a95f395f51905f525f52610a40907fca4da862ccbec3ce518d60c23b464c9091fc46a1c32dacaf48fc148b93ffebc9601f840160051c81019160208510610a46575b601f0160051c01906123c8565b5f6108a9565b9091508190610a33565b503461026e57602036600319011261026e57600435906001600160e01b031916610a7a81336123de565b1561025857505f5160206129495f395f51905f525460ff81161561024957610aa0612617565b1561061c5760081c60ff1661060d575f905f915f915f5160206128e95f395f51905f525463ffffffff5f5160206129895f395f51905f525460101c16906201518082029180830462015180149015171561051e5781610afe9161236b565b421015610e60575b50610b0f61252c565b9080610e5857505f5160206129295f395f51905f52549293915b610b3284612259565b610b3f60405191826121c3565b848152601f19610b4e86612259565b013660208301375f93610b5f61220f565b925f5b5f5160206129295f395f51905f5254811080610e4f575b15610dfe57610b87816122b5565b90549060031b1c92835f525f5160206128a95f395f51905f5260205260405f20936006850154421080610db257506004850154918260ff5f5160206129895f395f51905f525460701c1680610da9575b610da1575b8315610d705783610c1491670de0b6b3a7640000610bfa8c84612358565b0460805260038901610c0d83825461236b565b9055612383565b806004880155155f14610d5c5760078601805460ff1916600317905581610c44610c3d8c61234a565b9b896122fa565b525b60ff5f5160206129895f395f51905f525460701c16610ce8575b907fef5d8c8f5b4947e487ae10a82c87ae1412c59796bc090a48308808168dead66888610ca7610ca1610c9787600199989761236b565b9f6080519061236b565b9761234a565b9786808060a01b039101541693610cd860405192839260805190846040919493926060820195825260208201520152565b0390a301965b9697919097610b62565b97907fef5d8c8f5b4947e487ae10a82c87ae1412c59796bc090a48308808168dead66888610ca7610ca1610c9787610d248160019b9a99612383565b9e610d3d825f5160206129095f395f51905f525461236b565b5f5160206129095f395f51905f52559697509798505050505050610c60565b60078601805460ff19166002179055610c46565b509a9394905060019291506003810154610d8d575b500196610cde565b600701805460ff191660021790555f610d85565b899350610bdc565b50838a10610bd7565b90506007600193929b9495019081549060ff8216610dcf81611f8c565b159081610df5575b50610de6575b50500196610cde565b60ff1916831790555f80610ddd565b9050155f610dd7565b508786845f5b828110610e3357505050610e2f90604051938493846040919493926060820195825260208201520152565b0390f35b80610e49610e43600193856122fa565b51612484565b01610e04565b50878210610b79565b929391610b29565b610eab7ff747c188695d436a2b4ff150d228ed8d95f5b676e5cc503bc407d958a1ffe58d91425f5160206128e95f395f51905f52555f5f5160206129095f395f51905f52554261236b565b610eb3612579565b604080514281526020810193909352820152606090a15f610b06565b3461026e575f36600319011261026e576020610ee96125ab565b604051908152f35b3461026e575f36600319011261026e575f60a0604051610f10816121a7565b82815282602082015282604082015282606082015282608082015201525f5160206128e95f395f51905f525463ffffffff5f5160206129895f395f51905f525460101c16906201518082029180830462015180149015171561051e57610f7860c0928261236b565b610f80612579565b5f5160206129095f395f51905f52548082111561100357610fa18183612383565b925b610fab6125ab565b9060a0604051610fba816121a7565b87815260208101928352604081019384526060810194855260808101958652019485526040519586525160208601525160408501525160608401525160808301525160a0820152f35b5f92610fa3565b3461026e57602036600319011261026e5760606004355f61102961220f565b670de0b6b3a764000061103c8285612358565b049260ff5f5160206129895f395f51905f525460701c1661106d575b50604051928352602083015215156040820152f35b90915061107861252c565b109084611058565b3461026e575f36600319011261026e57602060ff5f5160206129495f395f51905f525460081c166040519015158152f35b3461026e57602036600319011261026e5760043560ff5f5160206129495f395f51905f5254161561024957805f525f5160206128a95f395f51905f5260205260405f208054156111cb5760018101546001600160a01b031633036111bc57600701805460ff811661112181611f8c565b600381149081156111a8575b506111995760ff1916600417905561114481612484565b6040519060208252601560208301527421b0b731b2b63632b210313c9034b73b32b9ba37b960591b60408301527fda08d4da0cbeb13abcddcf7768a40f8fc30a9fc589fd8b6fbeb397d026804c3c60603393a3005b63d00a63b360e01b5f5260045ffd5b600491506111b581611f8c565b148461112d565b633eb3276360e01b5f5260045ffd5b506319117c6960e31b5f5260045260245ffd5b3461026e576111ec36611eda565b60ff5f5160206129495f395f51905f52949392945416611322577fec66788162ddce921e1b6376b76991671f009ca1feed01cddf2f641aaa3248d89361129261ffff606095169361128d8515159182608063ffffffff8080604051956112518761216e565b8c8752169889602087015216988960408601521692838b820152015261127687612006565b61127f85612030565b61128886612067565b6120a6565b61222e565b425f5160206128e95f395f51905f525560017f4d23641b8684f5ab45cf672c227331eb8c499bb46f08379613d498522fc52a3e5560017f4d23641b8684f5ab45cf672c227331eb8c499bb46f08379613d498522fc52a4355600160ff195f5160206129495f395f51905f525416175f5160206129495f395f51905f525560405192835260208301526040820152a1005b633bf5e89f60e11b5f5260045ffd5b503461026e5761134036611f58565b929091906001600160e01b03191661135881336123de565b15610258575060ff5f5160206129495f395f51905f5254161561024957805f527f4d23641b8684f5ab45cf672c227331eb8c499bb46f08379613d498522fc52a4660205260ff60405f205416611524577f4d23641b8684f5ab45cf672c227331eb8c499bb46f08379613d498522fc52a4354916113d48361234a565b7f4d23641b8684f5ab45cf672c227331eb8c499bb46f08379613d498522fc52a43556040516114028161216e565b838152600460208201918483526040810142815260608201905f8252608083019460018652885f525f5160206129695f395f51905f5260205260405f2093518455516001840155516002830155516003820155019051151560ff801983541691161790555f5160206128c95f395f51905f5254600160401b81101561050a5760209484926114d58461048a8560017ffea0f656a5e7d8765dbb2582cffe8e48388fcd401ec0f67c91e2884b4c30265597015f5160206128c95f395f51905f52555f5160206128c95f395f51905f526122e5565b845f527f4d23641b8684f5ab45cf672c227331eb8c499bb46f08379613d498522fc52a46875260405f20600160ff1982541617905561151960405192839283612147565b0390a3604051908152f35b6330424c7360e11b5f5260045ffd5b3461026e575f36600319011261026e5760205f5160206129295f395f51905f5254604051908152f35b3461026e575f36600319011261026e5760408051638e6ef34f60e01b602082019081526309219e5160e41b6024830152631396608160e21b60288301526319dedb2f60e01b602c83015263018e4b3960e41b603083015263361c5f6d60e01b603483015263553e04f760e11b6038830152630b2ae7bf60e21b603c830152637433b22960e11b82840152632040430560e11b6044830152632caf761d60e01b6048830152631d53787760e11b604c830152631c931ccb60e01b60508301526355ac2cfd60e11b605483015263030a211b60e21b6058830152630359073960e61b605c8301526324c5155960e21b60608301526326c1b45d60e21b606480840191909152632d3720a560e21b60688401526308a9c76760e01b606c840152630eeb3c9160e41b6070840152633d95618d60e21b60748401526304acab8f60e01b6078840152632ce546f360e01b607c840152630cb0b2b160e41b6080840152825291906116c96084826121c3565b8151928391602083525180918160208501528484015e5f828201840152601f01601f19168101030190f35b3461026e57602036600319011261026e5761170d61230e565b506004355f525f5160206128a95f395f51905f5260205261010060405f2060ff60076040519261173c8461218a565b8054845260018101546001600160a01b03166020850152600281015460408501526003810154606085015260048101546080850152600581015460a0850152600681015460c085015201541661179181611f8c565b60e08201526117a36040518092611faa565bf35b3461026e575f36600319011261026e575f5160206128c95f395f51905f52546117cd81612259565b906117db60405192836121c3565b808252601f196117ea82612259565b015f5b8181106118fb5750505f5b81811061187957826040518091602082016020835281518091526020604084019201905f5b81811061182b575050500390f35b91935091602060a08261186b6001948851608080918051845260208101516020850152604081015160408501526060810151606085015201511515910152565b01940191019184939261181d565b80611885600192612271565b90549060031b1c5f525f5160206129695f395f51905f5260205260405f2060ff6004604051926118b48461216e565b805484528581015460208501526002810154604085015260038101546060850152015416151560808201526118e982866122fa565b526118f481856122fa565b50016117f8565b6020906119066121e5565b828287010152016117ed565b503461026e57602036600319011261026e5760043590811515820361026e576001600160e01b03191661194581336123de565b15610258575060ff5f5160206129495f395f51905f525416156102495761196b9061222e565b005b3461026e575f36600319011261026e576020610ee961220f565b3461026e575f36600319011261026e5761199f6121e5565b5060a06040516119ae8161216e565b5f5160206129895f395f51905f525463ffffffff61ffff8216928381528160208201818560101c168152816040840191818760301c16835260ff60806060870196848a60501c168852019760701c16151587526040519788525116602087015251166040850152511660608301525115156080820152f35b3461026e57602036600319011261026e57611a3f6121e5565b506004355f525f5160206129695f395f51905f5260205260a060405f2060ff600460405192611a6d8461216e565b80548452600181015460208501526002810154604085015260038101546060850152015416151560808201526117a36040518092608080918051845260208101516020850152604081015160408501526060810151606085015201511515910152565b503461026e57602036600319011261026e57600435906001600160e01b031916611afa81336123de565b15610258575060ff5f5160206129495f395f51905f5254161561024957805f525f5160206129695f395f51905f5260205260405f20805415611c955760038101908154611c86576001914290556004810160ff19815416905501545f527f4d23641b8684f5ab45cf672c227331eb8c499bb46f08379613d498522fc52a4660205260405f2060ff1981541690555f5b5f5160206128c95f395f51905f52549081811015611c7f5782611bab82612271565b90549060031b1c14611bc1576001915001611b89565b5f19820191821161051e5761048a611bdb611be893612271565b90549060031b1c91612271565b5f5160206128c95f395f51905f52548015611c6b575f1901611c2a611c1a825f5160206128c95f395f51905f526122e5565b8154905f199060031b1b19169055565b5f5160206128c95f395f51905f52555b7fa05a3107a49d099413ecdee83f762246e2737c09500cfd2648b02c57c7781152604080515f81525f6020820152a2005b634e487b7160e01b5f52603160045260245ffd5b5050611c3a565b6317a5e72960e01b5f5260045ffd5b50631433e36560e01b5f5260045260245ffd5b503461026e57611cb736611f58565b90926001600160e01b031916611ccd81336123de565b15610258575060ff5f5160206129495f395f51905f5254161561024957815f525f5160206128a95f395f51905f5260205260405f2090815415611d9457600782019182549260ff8416611d1f81611f8c565b60038114908115611d80575b506111995760047fda08d4da0cbeb13abcddcf7768a40f8fc30a9fc589fd8b6fbeb397d026804c3c9460ff1916179055611d6484612484565b6001808060a01b03910154169361091b60405192839283612147565b60049150611d8d81611f8c565b145f611d2b565b826319117c6960e31b5f5260045260245ffd5b3461026e57602036600319011261026e576004356001600160a01b038116810361026e57611dd660409161242f565b825191151582526020820152f35b3461026e57602036600319011261026e576004356001600160a01b038116810361026e57611e11816120d7565b5415611e1957005b611e2342916120d7565b55005b503461026e57611e3536611eda565b939192916001600160e01b031916611e4d81336123de565b15610258575060ff5f5160206129495f395f51905f52541615610249577f42c6a0e11050eb724c39baa7b75fb904c75cce86af1193466a3e4668ae7ef1a29363ffffffff809281608096611ea087612006565b611ea981612030565b611eb283612067565b611ebb856120a6565b61ffff60405197168752166020860152166040840152166060820152a1005b608090600319011261026e5760043561ffff8116810361026e579060243563ffffffff8116810361026e579060443563ffffffff8116810361026e579060643563ffffffff8116810361026e5790565b9181601f8401121561026e5782359167ffffffffffffffff831161026e576020838186019501011161026e57565b90604060031983011261026e57600435916024359067ffffffffffffffff821161026e57611f8891600401611f2a565b9091565b60051115611f9657565b634e487b7160e01b5f52602160045260245ffd5b60e080918051845260018060a01b03602082015116602085015260408101516040850152606081015160608501526080810151608085015260a081015160a085015260c081015160c085015201519161200283611f8c565b0152565b61ffff1661ffff195f5160206129895f395f51905f525416175f5160206129895f395f51905f5255565b65ffffffff00005f5160206129895f395f51905f52549160101b169065ffffffff00001916175f5160206129895f395f51905f5255565b69ffffffff0000000000005f5160206129895f395f51905f52549160301b169069ffffffff0000000000001916175f5160206129895f395f51905f5255565b5f5160206129895f395f51905f52805463ffffffff60501b191660509290921b63ffffffff60501b16919091179055565b6001600160a01b03165f9081527f4d23641b8684f5ab45cf672c227331eb8c499bb46f08379613d498522fc52a426020526040902090565b6001600160a01b03165f9081527f4d23641b8684f5ab45cf672c227331eb8c499bb46f08379613d498522fc52a416020526040902090565b90918060409360208452816020850152848401375f828201840152601f01601f1916010190565b60a0810190811067ffffffffffffffff82111761050a57604052565b610100810190811067ffffffffffffffff82111761050a57604052565b60c0810190811067ffffffffffffffff82111761050a57604052565b90601f8019910116810190811067ffffffffffffffff82111761050a57604052565b604051906121f28261216e565b5f6080838281528260208201528260408201528260608201520152565b60ff5f5160206129495f395f51905f5254161561222a575f90565b5f90565b5f5160206129895f395f51905f52805460ff60701b191691151560701b60ff60701b16919091179055565b67ffffffffffffffff811161050a5760051b60200190565b5f5160206128c95f395f51905f52548110156122a1575f5160206128c95f395f51905f525f5260205f2001905f90565b634e487b7160e01b5f52603260045260245ffd5b5f5160206129295f395f51905f52548110156122a1575f5160206129295f395f51905f525f5260205f2001905f90565b80548210156122a1575f5260205f2001905f90565b80518210156122a15760209160051b010190565b6040519061231b8261218a565b5f60e0838281528260208201528260408201528260608201528260808201528260a08201528260c08201520152565b5f19811461051e5760010190565b8181029291811591840414171561051e57565b9190820180921161051e57565b90815f039161051e57565b9190820391821161051e57565b90600182811c921680156123be575b60208310146123aa57565b634e487b7160e01b5f52602260045260245ffd5b91607f169161239f565b8181106123d3575050565b5f81556001016123c8565b816123e89161267b565b612429577f511915e52b7f9e690b9fdc662acaf5600fd3722c87eb951d3abd26e93a784dca5c9060ff821661241d5750505f90565b61242691612859565b90565b50600190565b612438906120d7565b54801561247d5763ffffffff5f5160206129895f395f51905f525460501c166201518081029080820462015180149015171561051e576124779161236b565b80421091565b505f905f90565b5f5b5f5160206129295f395f51905f52548082101561252757826124a7836122b5565b90549060031b1c146124bc5750600101612486565b5f1981019250821161051e5761048a6124d76124e4936122b5565b90549060031b1c916122b5565b5f5160206129295f395f51905f52548015611c6b575f1901612516611c1a825f5160206129295f395f51905f526122e5565b5f5160206129295f395f51905f5255565b505050565b60ff5f5160206129895f395f51905f525460701c16156125745761254e612579565b5f5160206129095f395f51905f52548082111561256e5761242691612383565b50505f90565b5f1990565b5f5160206129895f395f51905f525460ff8160701c16156125a55761ffff16156001171561051e575f90565b505f1990565b5f5f5f5160206129295f395f51905f52545b8082106125c957505090565b90916126026001916125da856122b5565b90549060031b1c5f525f5160206128a95f395f51905f52602052600460405f2001549061236b565b9201906125bd565b5190811515820361026e57565b60405163417ea74160e11b8152602081600481305afa5f918161263f575b5061242657505f90565b9091506020813d602011612673575b8161265b602093836121c3565b8101031261026e5761266c9061260a565b905f612635565b3d915061264e565b7fce1c17acaaa67de66e928cd49c8f658667a825223bee6fda99a14908362bcdac546001600160a01b0316806127b0575b5060018060a01b0381165f527fce1c17acaaa67de66e928cd49c8f658667a825223bee6fda99a14908362bcdaa60205260405f20549163ffffffff60e01b165f527fce1c17acaaa67de66e928cd49c8f658667a825223bee6fda99a14908362bcdab60205260405f205490811561276c576001600160a01b03165f9081527fce1c17acaaa67de66e928cd49c8f658667a825223bee6fda99a14908362bcdaa6020526040902054600116151591821561276457505090565b161515919050565b6001600160a01b03165f9081527fce1c17acaaa67de66e928cd49c8f658667a825223bee6fda99a14908362bcdaa6020526040902054600116151591506124269050565b6040805163b700961360e01b81526001600160a01b03841660048201523060248201526001600160e01b03198516604482015291829060649082905afa5f918161280c575b50156126ac57612805575f6126ac565b5050600190565b9091506040813d604011612851575b81612828604093836121c3565b8101031261026e57602061283b8261260a565b91015163ffffffff81160361026e57905f6127f5565b3d915061281b565b60ff169081156128055763ffffffff60e01b165f527fce1c17acaaa67de66e928cd49c8f658667a825223bee6fda99a14908362bcdab60205260405f205490811561256e576001901b1615159056fe4d23641b8684f5ab45cf672c227331eb8c499bb46f08379613d498522fc52a404d23641b8684f5ab45cf672c227331eb8c499bb46f08379613d498522fc52a444d23641b8684f5ab45cf672c227331eb8c499bb46f08379613d498522fc52a3c4d23641b8684f5ab45cf672c227331eb8c499bb46f08379613d498522fc52a3d4d23641b8684f5ab45cf672c227331eb8c499bb46f08379613d498522fc52a3f4d23641b8684f5ab45cf672c227331eb8c499bb46f08379613d498522fc52a394d23641b8684f5ab45cf672c227331eb8c499bb46f08379613d498522fc52a454d23641b8684f5ab45cf672c227331eb8c499bb46f08379613d498522fc52a3b4d23641b8684f5ab45cf672c227331eb8c499bb46f08379613d498522fc52a3aa26469706673582212203d79790ac76399a9af02e6ed01f70fd211cd6e5822d29d0e5f83a9a85ada118964736f6c634300081e0033","linkReferences":{}},"methodIdentifiers":{"RedemptionControl_init(uint16,uint32,uint32,uint32)":"8e6ef34f","cancelRedemption(uint256)":"9219e510","createSidePocket(uint256,string)":"4e598204","distributeSidePocket(uint256)":"19dedb2f","forceCancelRedemption(uint256,string)":"18e4b390","getActiveSidePockets()":"361c5f6d","getCurrentPeriodSummary()":"aa7c09ee","getGateConfig()":"2cab9efc","getInvestorRequests(address)":"e8676452","getPendingRedemptionCount()":"4080860a","getRedeemableNAV()":"2caf761d","getRedemptionRequest(uint256)":"3aa6f0ee","getSidePocket(uint256)":"1c931ccb","getTotalPendingShares()":"ab5859fa","isInLockup(address)":"0c28846c","isRedemptionControlInitialized()":"d641ce40","isRedemptionsSuspended()":"93145564","packedSelectors()":"3e62267c","previewRedemption(uint256)":"9b06d174","processRedemptions(uint256)":"b4dc8294","recordInvestorEntry(address)":"08a9c767","requestRedemption(uint256)":"eeb3c910","resumeRedemptions()":"f6558634","setGateConfig(uint16,uint32,uint32,uint32)":"04acab8f","setGatesEnabled(bool)":"2ce546f3","suspendRedemptions(uint8,string)":"cb0b2b10"},"id":365}