{"abi":[{"type":"function","name":"REGISTRY_ADMIN_ROLE","inputs":[],"outputs":[{"name":"","type":"uint8","internalType":"uint8"}],"stateMutability":"view"},{"type":"function","name":"RegistryCore_init","inputs":[{"name":"admin","type":"address","internalType":"address"}],"outputs":[],"stateMutability":"nonpayable"},{"type":"function","name":"deprecateFacet","inputs":[{"name":"name","type":"string","internalType":"string"},{"name":"version","type":"string","internalType":"string"}],"outputs":[],"stateMutability":"nonpayable"},{"type":"function","name":"getAllFacetNames","inputs":[],"outputs":[{"name":"","type":"string[]","internalType":"string[]"}],"stateMutability":"view"},{"type":"function","name":"getFacetAddress","inputs":[{"name":"name","type":"string","internalType":"string"},{"name":"version","type":"string","internalType":"string"}],"outputs":[{"name":"","type":"address","internalType":"address"}],"stateMutability":"view"},{"type":"function","name":"getFacetSelectors","inputs":[{"name":"name","type":"string","internalType":"string"},{"name":"version","type":"string","internalType":"string"}],"outputs":[{"name":"","type":"bytes4[]","internalType":"bytes4[]"}],"stateMutability":"view"},{"type":"function","name":"getFacetVersion","inputs":[{"name":"name","type":"string","internalType":"string"},{"name":"version","type":"string","internalType":"string"}],"outputs":[{"name":"","type":"tuple","internalType":"struct IFacetRegistry.FacetVersion","components":[{"name":"facetAddress","type":"address","internalType":"address"},{"name":"deprecated","type":"bool","internalType":"bool"},{"name":"selectors","type":"bytes4[]","internalType":"bytes4[]"}]}],"stateMutability":"view"},{"type":"function","name":"getFacetVersions","inputs":[{"name":"name","type":"string","internalType":"string"}],"outputs":[{"name":"","type":"string[]","internalType":"string[]"}],"stateMutability":"view"},{"type":"function","name":"getUpgradeCuts","inputs":[{"name":"name","type":"string","internalType":"string"},{"name":"oldVersion","type":"string","internalType":"string"},{"name":"newVersion","type":"string","internalType":"string"}],"outputs":[{"name":"cuts","type":"tuple[]","internalType":"struct IDiamondCut.FacetCut[]","components":[{"name":"facetAddress","type":"address","internalType":"address"},{"name":"action","type":"uint8","internalType":"enum IDiamondCut.FacetCutAction"},{"name":"functionSelectors","type":"bytes4[]","internalType":"bytes4[]"}]}],"stateMutability":"view"},{"type":"function","name":"getUpgradeInfo","inputs":[{"name":"name","type":"string","internalType":"string"},{"name":"oldVersion","type":"string","internalType":"string"},{"name":"newVersion","type":"string","internalType":"string"}],"outputs":[{"name":"info","type":"tuple","internalType":"struct IFacetRegistry.UpgradeInfo","components":[{"name":"oldVersion","type":"string","internalType":"string"},{"name":"newVersion","type":"string","internalType":"string"},{"name":"addedSelectors","type":"bytes4[]","internalType":"bytes4[]"},{"name":"removedSelectors","type":"bytes4[]","internalType":"bytes4[]"},{"name":"replacedSelectors","type":"bytes4[]","internalType":"bytes4[]"}]}],"stateMutability":"view"},{"type":"function","name":"isFacetAddressRegistered","inputs":[{"name":"facetAddress","type":"address","internalType":"address"}],"outputs":[{"name":"","type":"bool","internalType":"bool"}],"stateMutability":"view"},{"type":"function","name":"isFacetRegistered","inputs":[{"name":"name","type":"string","internalType":"string"},{"name":"version","type":"string","internalType":"string"}],"outputs":[{"name":"","type":"bool","internalType":"bool"}],"stateMutability":"view"},{"type":"function","name":"registerFacet","inputs":[{"name":"name","type":"string","internalType":"string"},{"name":"version","type":"string","internalType":"string"},{"name":"facetAddress","type":"address","internalType":"address"},{"name":"selectors","type":"bytes4[]","internalType":"bytes4[]"}],"outputs":[],"stateMutability":"nonpayable"},{"type":"function","name":"removeFacet","inputs":[{"name":"name","type":"string","internalType":"string"},{"name":"version","type":"string","internalType":"string"}],"outputs":[],"stateMutability":"nonpayable"},{"type":"function","name":"validateFacetCuts","inputs":[{"name":"cuts","type":"tuple[]","internalType":"struct IDiamondCut.FacetCut[]","components":[{"name":"facetAddress","type":"address","internalType":"address"},{"name":"action","type":"uint8","internalType":"enum IDiamondCut.FacetCutAction"},{"name":"functionSelectors","type":"bytes4[]","internalType":"bytes4[]"}]}],"outputs":[{"name":"","type":"bool","internalType":"bool"}],"stateMutability":"view"},{"type":"event","name":"FacetDeprecated","inputs":[{"name":"nameHash","type":"string","indexed":true,"internalType":"string"},{"name":"versionHash","type":"string","indexed":true,"internalType":"string"},{"name":"name","type":"string","indexed":false,"internalType":"string"},{"name":"version","type":"string","indexed":false,"internalType":"string"}],"anonymous":false},{"type":"event","name":"FacetRegistered","inputs":[{"name":"nameHash","type":"string","indexed":true,"internalType":"string"},{"name":"versionHash","type":"string","indexed":true,"internalType":"string"},{"name":"name","type":"string","indexed":false,"internalType":"string"},{"name":"version","type":"string","indexed":false,"internalType":"string"},{"name":"facetAddress","type":"address","indexed":false,"internalType":"address"},{"name":"selectorCount","type":"uint256","indexed":false,"internalType":"uint256"}],"anonymous":false},{"type":"event","name":"FacetRemoved","inputs":[{"name":"nameHash","type":"string","indexed":true,"internalType":"string"},{"name":"versionHash","type":"string","indexed":true,"internalType":"string"},{"name":"name","type":"string","indexed":false,"internalType":"string"},{"name":"version","type":"string","indexed":false,"internalType":"string"}],"anonymous":false},{"type":"error","name":"AccessControl_CallerIsNotAuthorized","inputs":[{"name":"caller","type":"address","internalType":"address"},{"name":"functionSig","type":"bytes4","internalType":"bytes4"}]},{"type":"error","name":"Registry_EmptyFacetName","inputs":[]},{"type":"error","name":"Registry_EmptyVersion","inputs":[]},{"type":"error","name":"Registry_FacetNotRegistered","inputs":[{"name":"facetAddress","type":"address","internalType":"address"}]},{"type":"error","name":"Registry_FacetVersionAlreadyExists","inputs":[{"name":"name","type":"string","internalType":"string"},{"name":"version","type":"string","internalType":"string"}]},{"type":"error","name":"Registry_FacetVersionDeprecated","inputs":[{"name":"name","type":"string","internalType":"string"},{"name":"version","type":"string","internalType":"string"}]},{"type":"error","name":"Registry_FacetVersionNotFound","inputs":[{"name":"name","type":"string","internalType":"string"},{"name":"version","type":"string","internalType":"string"}]},{"type":"error","name":"Registry_InvalidFacetAddress","inputs":[]},{"type":"error","name":"Registry_NoSelectorsProvided","inputs":[]}],"bytecode":{"object":"0x60808060405234601557611e38908161001a8239f35b5f80fdfe60806040526004361015610011575f80fd5b5f358060e01c90816302a1ab3b146112ea578163069f2a6e146112b55781630a557001146110005781631513486c14610f245781631ea6874f14610e0e57816342051def14610d325781634ae1544114610cd25781639a4d6cc514610ba85781639afe0c9514610a8c578163b630e87f14610a47578163b6c47459146109aa578163bb84fae2146102bc57508063bf584c4b146102a1578063cefc7c73146102705763de648d2b146100c1575f80fd5b3461026c576100cf36611422565b9194936040519460a086018681106001600160401b038211176102585760405260608652602086019260608452604087019460608652606088019660608852608089019960608b5261012b6101248787611596565b828461163e565b956101406101398288611596565b858761163e565b87549096906001600160a01b03161561023a5786546001600160a01b03161561021857505061021498956001806101ee9761019c6101c89f9c988f986101db996101936102019f9a6101a69a3691611ab2565b90523691611ab2565b8652019101611be7565b895286528352604051998a9960208b525160a060208c015260c08b01906114e3565b9051898203601f190160408b01526114e3565b9051878203601f19016060890152611490565b9051858203601f19016080870152611490565b9051838203601f190160a0850152611490565b0390f35b610236858760405194859463246d498b60e11b865260048601611677565b0390fd5b610236838560405194859463246d498b60e11b865260048601611677565b634e487b7160e01b5f52604160045260245ffd5b5f80fd5b3461026c57602036600319011261026c57602060ff6102956102906114cd565b61195a565b54166040519015158152f35b3461026c575f36600319011261026c57602060405160018152f35b3461026c57608036600319011261026c576004356001600160401b03811161026c576102ec9036906004016113a5565b6024356001600160401b03811161026c5761030b9036906004016113a5565b9290916044356001600160a01b0381169081810361026c576064356001600160401b03811161026c57610342903690600401611566565b976001600160e01b0319166103578133611af7565b1561099457508315610985578615610976578215610967578715610958576001600160a01b0361039161038a8688611596565b898961163e565b541661093a576040516103a3816116c3565b838152602081015f81526103b68a6116ff565b926103c460405194856116de565b8a845260208401908b60051b81019036821161026c57915b8183106109195750505090600191604082019384526104056103fe888a611596565b8b8b61163e565b91838060a01b039051166bffffffffffffffffffffffff60a01b83541617825551151581549060ff60a01b9060a01b169060ff60a01b19161781550190518051906001600160401b03821161025857600160401b82116102585760209083548385558084106108cb575b5001915f5260205f208160031c915f5b83811061088057506007198116900380610831575b505050506104a283856115ce565b805490600160401b8210156102585760018201808255821015610778575f5260205f2001906001600160401b038711610258576104df82546119e0565b601f8111610801575b505f9187601f811160011461079757610519935f9161078c575b508860011b905f198a60031b1c191617905561195a565b805460ff1916600117905560ff6105308385611606565b5416156105b8575b7fa9ed1c57ee7f2eb65228f13524aecf94e1e42504786d5dfcbcbb77501bfa83eb9394956105a860405184868237808581015f81520390209660405189828237808a81015f81520390209861059a604051978897608089526080890191611657565b918683036020880152611657565b91604084015260608301520390a3005b5f516020611de35f395f51905f5254600160401b8110156102585760018101805f516020611de35f395f51905f5255811015610778575f516020611de35f395f51905f525f527fd09e61268ebce78c29a1ccce8c5c25ffccd3fde33adf633e60d4c5215f76e72d01956001600160401b0383116102585761063987546119e0565b601f811161073d575b505f96601f84116001146106b857837fa9ed1c57ee7f2eb65228f13524aecf94e1e42504786d5dfcbcbb77501bfa83eb9697985f916106ad575b508460011b905f198660031b1c19161790555b6106998385611606565b805460ff1916600117905595949350610538565b90508501358961067c565b601f19841697815f5260205f20985f5b818110610725575090857fa9ed1c57ee7f2eb65228f13524aecf94e1e42504786d5dfcbcbb77501bfa83eb98999a921061070c575b5050600184811b01905561068f565b8601355f19600387901b60f8161c1916905588806106fd565b878301358b556001909a0199602092830192016106c8565b61076890885f5260205f20601f860160051c8101916020871061076e575b601f0160051c01906119ca565b87610642565b909150819061075b565b634e487b7160e01b5f52603260045260245ffd5b90508701358a610502565b505f81815260208120909389601f1981165b8087106107e3576105199650106107ca575b5050600188811b01905561195a565b8801355f1960038b901b60f8161c1916905589806107bb565b8a8301358455602096870196600190940193909201918b91506107a9565b61082b90835f5260205f20601f8a0160051c81019160208b1061076e57601f0160051c01906119ca565b886104e8565b925f935f5b81811061084b57505050015587808080610494565b9091946020610876600192885160e01c908560021b63ffffffff809160031b9316831b921b19161790565b9601929101610836565b5f5f5b6008811061089857508382015560010161047f565b959060206108c2600192845160e01c908a60021b63ffffffff809160031b9316831b921b19161790565b92019601610883565b6108f990855f52835f20600780870160031c820192601c8860021b16806108ff575b500160031c01906119ca565b8b61046f565b5f198501908154905f19908a0360031b1c1690555f6108ed565b82356001600160e01b03198116810361026c578152602092830192016103dc565b6040516308d869d360e01b8152806102368989888a60048601611677565b633c733a5b60e11b5f5260045ffd5b6339a0084560e21b5f5260045ffd5b63273220d760e01b5f5260045ffd5b63728301c360e11b5f5260045ffd5b631d64bc3360e11b5f523360045260245260445ffd5b3461026c576109b8366113d2565b90929091906001600160a01b036109d26101398484611596565b54161561023a57926001926109ed6109f3936109f996611596565b9161163e565b01611756565b6040518091602082016020835281518091526020604084019201905f5b818110610a24575050500390f35b82516001600160e01b031916845285945060209384019390920191600101610a16565b3461026c57602036600319011261026c576004356001600160401b03811161026c57610a82610a7c6020923690600401611566565b90611a3a565b6040519015158152f35b3461026c57602036600319011261026c576004356001600160401b03811161026c57610abf610ac59136906004016113a5565b906115ce565b8054610ad0816116ff565b90610ade60405192836116de565b80825260208201925f5260205f20925f905b828210610b0557604051806102148682611507565b6040515f8654610b14816119e0565b8084529060018116908115610b855750600114610b4e575b5060019282610b40859460209403826116de565b815201950191019093610af0565b5f888152602081209092505b818310610b6f57505081016020016001610b2c565b6001816020925483868801015201920191610b5a565b60ff191660208581019190915291151560051b8401909101915060019050610b2c565b3461026c575f36600319011261026c575f516020611de35f395f51905f5254610bd0816116ff565b610bdd60405191826116de565b8181525f516020611de35f395f51905f525f9081527fd09e61268ebce78c29a1ccce8c5c25ffccd3fde33adf633e60d4c5215f76e72d9290602083015b828210610c2f57604051806102148682611507565b6040515f8654610c3e816119e0565b8084529060018116908115610caf5750600114610c78575b5060019282610c6a859460209403826116de565b815201950191019093610c1a565b5f888152602081209092505b818310610c9957505081016020016001610c56565b6001816020925483868801015201920191610c84565b60ff191660208581019190915291151560051b8401909101915060019050610c56565b3461026c57610ce0366113d2565b919290916001600160a01b03610d00610cf98685611596565b838661163e565b5416928315610d1457602084604051908152f35b60405163246d498b60e11b8152948594506102369360048601611677565b3461026c57602036600319011261026c57610d63610d4e6114cd565b610d5781611992565b60018154179055611992565b60028154179055604051608081018181106001600160401b03821117610258576040908152635dc27d7160e11b8252631ea6874f60e01b60208301526302a1ab3b60e01b908201526342051def60e01b60608201525f5b6004811015610e0c5760019063ffffffff60e01b8160051b840151165f527f35edad4c931e57ec40cedc90b9e3e052832d1b49c07eb789b019aea9b39c91da60205260405f2082815417905501610dba565b005b3461026c57610e1c366113d2565b92909363ffffffff60e01b16610e328133611af7565b1561099457506001600160a01b03610e4d6101398484611596565b54161561023a577f46c284fea4fb4f54b65e30992d0dd3fa6275ec7b5520341be4ff32e667d9a5f89190610e9d6001600160a01b03610e96610e8f8585611596565b878961163e565b541661195a565b805460ff191690556001610ebb610eb48484611596565b868861163e565b5f81550180545f825580610f04575b5050610eff60405183838237808481015f81520390209460405181888237808281015f81520390209660405194859485611677565b0390a3005b610f1d915f52600760205f20910160031c8101906119ca565b8580610eca565b3461026c57610f32366113d2565b909192610f3d611716565b506001600160a01b03610f5a610f538684611596565b848661163e565b541615610fe157610f6e936109ed91611596565b604051610f7a816116c3565b81546001600160a01b038116825260a01c60ff161515602082019081529161021490610fa890600101611756565b604083019081526040519384936020855260018060a01b0390511660208501525115156040840152516060808401526080830190611490565b91906102369160405194859463246d498b60e11b865260048601611677565b3461026c5761100e36611422565b61102761102086889498979597611596565b868661163e565b9461103c6110358585611596565b838961163e565b86549095906001600160a01b03161561129757505083546001600160a01b031695861561127957866110748760018089019101611be7565b925f929192938251611270575b8351611260575b8051611250575b611098856116ff565b946110a660405196876116de565b8086526110b5601f19916116ff565b015f5b8181106112395750505f928051611200575b5080516111bc575b50508151611184575b505060405160208101916020825280518093526040820192602060408260051b8501019201905f5b8181106111105784840385f35b848403603f19018652825180516001600160a01b0316855260208101519394929391929060038310156111705761116182606060406020959460019787809701520151918160408201520190611490565b95019601910194919094611103565b634e487b7160e01b5f52602160045260245ffd5b6040516111b492611194826116c3565b5f82526002602083015260408201526111ad8285611742565b5282611742565b5081806110db565b916111f89192604051936111cf856116c3565b84526001602085015260408401526111e6816116a1565b926111f18287611742565b5284611742565b5083806110d2565b604051935061120e846116c3565b8284525f6020850152604084015260019261122886611735565b5261123285611735565b50856110ca565b602090611244611716565b82828a010152016110b8565b9361125a906116a1565b9361108f565b9361126a906116a1565b93611088565b60019450611081565b906102369160405194859463246d498b60e11b865260048601611677565b60405163246d498b60e11b8152948594610236945060048601611677565b3461026c5760206109ed6112de6112cb366113d2565b6001600160a01b03959193909290611596565b54161515604051908152f35b3461026c576112f8366113d2565b92909363ffffffff60e01b1661130e8133611af7565b1561099457506001600160a01b036113296101398484611596565b54161561023a579081611360610139837f1380a33d8606bbcd599fe5ee97ac297867515161798cab0741532f9e837472c195611596565b805460ff60a01b1916600160a01b179055604051610eff9083838237808481015f81520390209460405181888237808281015f81520390209660405194859485611677565b9181601f8401121561026c578235916001600160401b03831161026c576020838186019501011161026c57565b604060031982011261026c576004356001600160401b03811161026c57816113fc916004016113a5565b92909291602435906001600160401b03821161026c5761141e916004016113a5565b9091565b606060031982011261026c576004356001600160401b03811161026c578161144c916004016113a5565b929092916024356001600160401b03811161026c578161146e916004016113a5565b92909291604435906001600160401b03821161026c5761141e916004016113a5565b90602080835192838152019201905f5b8181106114ad5750505090565b82516001600160e01b0319168452602093840193909201916001016114a0565b600435906001600160a01b038216820361026c57565b805180835260209291819084018484015e5f828201840152601f01601f1916010190565b602081016020825282518091526040820191602060408360051b8301019401925f915b83831061153957505050505090565b9091929394602080611557600193603f1986820301875289516114e3565b9701930193019193929061152a565b9181601f8401121561026c578235916001600160401b03831161026c576020808501948460051b01011161026c57565b60209082604051938492833781017fc895c0acfab15e871ef9bd016962acf11162210bbc5e3cba510597a251151aba81520301902090565b60209082604051938492833781017fc895c0acfab15e871ef9bd016962acf11162210bbc5e3cba510597a251151abb81520301902090565b60209082604051938492833781017fc895c0acfab15e871ef9bd016962acf11162210bbc5e3cba510597a251151abe81520301902090565b6020919283604051948593843782019081520301902090565b908060209392818452848401375f828201840152601f01601f1916010190565b92906116909061169e9593604086526040860191611657565b926020818503910152611657565b90565b5f1981146116af5760010190565b634e487b7160e01b5f52601160045260245ffd5b606081019081106001600160401b0382111761025857604052565b90601f801991011681019081106001600160401b0382111761025857604052565b6001600160401b0381116102585760051b60200190565b60405190611723826116c3565b60606040835f81525f60208201520152565b8051156107785760200190565b80518210156107785760209160051b010190565b90604051918281549182825260208201905f5260205f20925f905b8060078301106118b5576117c7945491818110611896575b818110611877575b818110611858575b818110611839575b81811061181a575b8181106117fb575b8181106117de575b106117c9575b5003836116de565b565b6001600160e01b03191681526020015f6117bf565b602083811b6001600160e01b0319168552909301926001016117b9565b604083901b6001600160e01b03191684526020909301926001016117b1565b606083901b6001600160e01b03191684526020909301926001016117a9565b608083901b6001600160e01b03191684526020909301926001016117a1565b60a083901b6001600160e01b0319168452602090930192600101611799565b60c083901b6001600160e01b0319168452602090930192600101611791565b60e083901b6001600160e01b0319168452602090930192600101611789565b916008919350610100600191865463ffffffff60e01b8160e01b16825263ffffffff60e01b8160c01b16602083015263ffffffff60e01b8160a01b16604083015263ffffffff60e01b8160801b16606083015263ffffffff60e01b8160601b16608083015263ffffffff60e01b8160401b1660a083015263ffffffff60e01b8160201b1660c083015263ffffffff60e01b1660e0820152019401920185929391611771565b6001600160a01b03165f9081527fc895c0acfab15e871ef9bd016962acf11162210bbc5e3cba510597a251151abc6020526040902090565b6001600160a01b03165f9081527f35edad4c931e57ec40cedc90b9e3e052832d1b49c07eb789b019aea9b39c91d96020526040902090565b8181106119d5575050565b5f81556001016119ca565b90600182811c92168015611a0e575b60208310146119fa57565b634e487b7160e01b5f52602260045260245ffd5b91607f16916119ef565b91908110156107785760051b81013590605e198136030182121561026c570190565b905f5b818110611a4c57505050600190565b6020611a59828486611a18565b0135600381101561026c57600214611aaa57611a76818385611a18565b356001600160a01b038116810361026c57611a9260ff9161195a565b541615611aa3576001905b01611a3d565b5050505f90565b600190611a9d565b9291926001600160401b0382116102585760405191611adb601f8201601f1916602001846116de565b82948184528183011161026c578281602093845f960137010152565b611b0081611992565b549163ffffffff60e01b165f527f35edad4c931e57ec40cedc90b9e3e052832d1b49c07eb789b019aea9b39c91da60205260405f2054908115611b8c576001600160a01b03165f9081527f35edad4c931e57ec40cedc90b9e3e052832d1b49c07eb789b019aea9b39c91d960205260409020546001161580159290611b8457505090565b161515919050565b505050600190565b90611b9e826116ff565b611bab60405191826116de565b8281528092611bbc601f19916116ff565b0190602036910137565b9190918054831015610778575f52601c60205f208360031c019260021b1690565b918154611bf381611b94565b92845494611c0086611b94565b9483871015611d5557611c1287611b94565b965f925f94895f975f5b818110611cbd575050505f5b838110611c57575050505091611c45611c4b92611c519594611d9d565b95611d9d565b94611d9d565b91929190565b80611c7783611c6860019487611bc6565b90549060031b1c60e01b611d5e565b15611c83575b01611c28565b611c8d8185611bc6565b90549060031b1c60e01b611caa611ca38a6116a1565b998d611742565b6001600160e01b03199091169052611c7d565b909198611cce85611c688487611bc6565b15611d165790600191611cfe611ce48387611bc6565b90549060031b1c60e01b91611cf8816116a1565b9c611742565b6001600160e01b031990911690525b01908b91611c1c565b985080611d2560019285611bc6565b90549060031b1c60e01b611d42611d3b8a6116a1565b9989611742565b6001600160e01b03199091169052611d0d565b611c1284611b94565b5f5b8254811015611aa357611d738184611bc6565b63ffffffff60e01b91549060031b1c60e01b1663ffffffff60e01b831614611b8c57600101611d60565b9190611da881611b94565b905f5b818110611db9575090925050565b6001906001600160e01b0319611dcf8288611742565b5116611ddb8286611742565b5201611dab56fec895c0acfab15e871ef9bd016962acf11162210bbc5e3cba510597a251151abda264697066735822122076d5b80204e57c2a36419c60d37d2039333aaf47876a7506ebc09ffb99f4ee3664736f6c634300081e0033","linkReferences":{}},"methodIdentifiers":{"REGISTRY_ADMIN_ROLE()":"bf584c4b","RegistryCore_init(address)":"42051def","deprecateFacet(string,string)":"02a1ab3b","getAllFacetNames()":"9a4d6cc5","getFacetAddress(string,string)":"4ae15441","getFacetSelectors(string,string)":"b6c47459","getFacetVersion(string,string)":"1513486c","getFacetVersions(string)":"9afe0c95","getUpgradeCuts(string,string,string)":"0a557001","getUpgradeInfo(string,string,string)":"de648d2b","isFacetAddressRegistered(address)":"cefc7c73","isFacetRegistered(string,string)":"069f2a6e","registerFacet(string,string,address,bytes4[])":"bb84fae2","removeFacet(string,string)":"1ea6874f","validateFacetCuts((address,uint8,bytes4[])[])":"b630e87f"},"id":47}