{"abi":[{"type":"function","name":"REGISTRY_ADMIN_ROLE","inputs":[],"outputs":[{"name":"","type":"uint8","internalType":"uint8"}],"stateMutability":"view"},{"type":"function","name":"RegistryCore_init","inputs":[{"name":"admin","type":"address","internalType":"address"}],"outputs":[],"stateMutability":"nonpayable"},{"type":"function","name":"deprecateFacet","inputs":[{"name":"name","type":"string","internalType":"string"},{"name":"version","type":"uint256","internalType":"uint256"}],"outputs":[],"stateMutability":"nonpayable"},{"type":"function","name":"getAllFacetNames","inputs":[],"outputs":[{"name":"","type":"string[]","internalType":"string[]"}],"stateMutability":"view"},{"type":"function","name":"getFacetAddress","inputs":[{"name":"name","type":"string","internalType":"string"},{"name":"version","type":"uint256","internalType":"uint256"}],"outputs":[{"name":"","type":"address","internalType":"address"}],"stateMutability":"view"},{"type":"function","name":"getFacetByAddress","inputs":[{"name":"facetAddress","type":"address","internalType":"address"}],"outputs":[{"name":"name","type":"string","internalType":"string"},{"name":"version","type":"uint256","internalType":"uint256"}],"stateMutability":"view"},{"type":"function","name":"getFacetVersion","inputs":[{"name":"name","type":"string","internalType":"string"},{"name":"version","type":"uint256","internalType":"uint256"}],"outputs":[{"name":"","type":"tuple","internalType":"struct IFacetRegistry.FacetVersion","components":[{"name":"facetAddress","type":"address","internalType":"address"},{"name":"deprecated","type":"bool","internalType":"bool"}]}],"stateMutability":"view"},{"type":"function","name":"getLatestFacetAddress","inputs":[{"name":"name","type":"string","internalType":"string"}],"outputs":[{"name":"","type":"address","internalType":"address"}],"stateMutability":"view"},{"type":"function","name":"getLatestVersion","inputs":[{"name":"name","type":"string","internalType":"string"}],"outputs":[{"name":"","type":"uint256","internalType":"uint256"}],"stateMutability":"view"},{"type":"function","name":"isFacetAddressRegistered","inputs":[{"name":"facetAddress","type":"address","internalType":"address"}],"outputs":[{"name":"","type":"bool","internalType":"bool"}],"stateMutability":"view"},{"type":"function","name":"isFacetRegistered","inputs":[{"name":"name","type":"string","internalType":"string"},{"name":"version","type":"uint256","internalType":"uint256"}],"outputs":[{"name":"","type":"bool","internalType":"bool"}],"stateMutability":"view"},{"type":"function","name":"packedSelectors","inputs":[],"outputs":[{"name":"","type":"bytes","internalType":"bytes"}],"stateMutability":"pure"},{"type":"function","name":"registerFacet","inputs":[{"name":"name","type":"string","internalType":"string"},{"name":"facetAddress","type":"address","internalType":"address"}],"outputs":[{"name":"version","type":"uint256","internalType":"uint256"}],"stateMutability":"nonpayable"},{"type":"function","name":"removeFacet","inputs":[{"name":"name","type":"string","internalType":"string"},{"name":"version","type":"uint256","internalType":"uint256"}],"outputs":[],"stateMutability":"nonpayable"},{"type":"function","name":"validateFacets","inputs":[{"name":"facets","type":"address[]","internalType":"address[]"}],"outputs":[{"name":"","type":"bool","internalType":"bool"}],"stateMutability":"view"},{"type":"event","name":"FacetDeprecated","inputs":[{"name":"name","type":"string","indexed":false,"internalType":"string"},{"name":"version","type":"uint256","indexed":true,"internalType":"uint256"}],"anonymous":false},{"type":"event","name":"FacetRegistered","inputs":[{"name":"name","type":"string","indexed":false,"internalType":"string"},{"name":"version","type":"uint256","indexed":true,"internalType":"uint256"},{"name":"facetAddress","type":"address","indexed":true,"internalType":"address"}],"anonymous":false},{"type":"event","name":"FacetRemoved","inputs":[{"name":"name","type":"string","indexed":false,"internalType":"string"},{"name":"version","type":"uint256","indexed":true,"internalType":"uint256"}],"anonymous":false},{"type":"error","name":"AccessControl_CallerIsNotAuthorized","inputs":[{"name":"caller","type":"address","internalType":"address"},{"name":"functionSig","type":"bytes4","internalType":"bytes4"}]},{"type":"error","name":"Registry_EmptyFacetName","inputs":[]},{"type":"error","name":"Registry_FacetNotRegistered","inputs":[{"name":"facetAddress","type":"address","internalType":"address"}]},{"type":"error","name":"Registry_FacetVersionAlreadyExists","inputs":[{"name":"name","type":"string","internalType":"string"},{"name":"version","type":"uint256","internalType":"uint256"}]},{"type":"error","name":"Registry_FacetVersionDeprecated","inputs":[{"name":"name","type":"string","internalType":"string"},{"name":"version","type":"uint256","internalType":"uint256"}]},{"type":"error","name":"Registry_FacetVersionNotFound","inputs":[{"name":"name","type":"string","internalType":"string"},{"name":"version","type":"uint256","internalType":"uint256"}]},{"type":"error","name":"Registry_InvalidFacet","inputs":[{"name":"facetAddress","type":"address","internalType":"address"}]},{"type":"error","name":"Registry_InvalidFacetAddress","inputs":[]},{"type":"error","name":"Registry_InvalidVersion","inputs":[]}],"bytecode":{"object":"0x6080806040523460155761152a908161001a8239f35b5f80fdfe60806040526004361015610011575f80fd5b5f358060e01c80631201347d1461095f5780632f3f74f7146109025780633e62267c1461081557806342051def1461072257806351d2ffb1146106eb5780635f6513071461065357806382d8bf20146106115780638b6214dd146105805780639a4d6cc514610463578063a158ec72146103fa578063b42e5f2614610330578063bf584c4b14610315578063cae96761146102d1578063cefc7c73146102a05763f8443ea4146100bf575f80fd5b3461029c576100cd36610e22565b929091906001600160e01b0319166100e58133611267565b1561028657506100f58282610eec565b835f5260205260018060a01b0360405f20541615610265576101178282610eec565b835f5260205261013260018060a01b0360405f205416610f99565b805460ff191690556101448282610eec565b835f526020525f604081205561015a8282610eb4565b5483148061025b575b6101a6575b7f54cd827687726fa91dea445c79e73ddf706f1069dff0f26cc80d50a366815ad5916101a1604051928392602084526020840191610f5c565b0390a2005b5f915f19840184811161024757805b6101ef575b507f54cd827687726fa91dea445c79e73ddf706f1069dff0f26cc80d50a366815ad5926101e78284610eb4565b559150610168565b6101f98284610eec565b815f5260205260018060a01b0360405f20541661021f57610219906110ed565b806101b5565b92507f54cd827687726fa91dea445c79e73ddf706f1069dff0f26cc80d50a366815ad56101ba565b634e487b7160e01b5f52601160045260245ffd5b5060018311610163565b61028283604051938493630f96684f60e31b855260048501610f7c565b0390fd5b631d64bc3360e11b5f523360045260245260445ffd5b5f80fd5b3461029c57602036600319011261029c57602060ff6102c56102c0610e0c565b610f99565b54166040519015158152f35b3461029c57602036600319011261029c576004356001600160401b03811161029c5761030c6103066020923690600401610ddf565b90610eb4565b54604051908152f35b3461029c575f36600319011261029c57602060405160018152f35b503461029c5761033f36610e22565b926001600160e01b0319166103548133611267565b1561028657506103648183610eec565b835f5260205260018060a01b0360405f205416156103dc5790816103a97f0cc33daf2a7e0f28b95aeeb1cfdad85f7fac111e500286ede5c209a55139a9999383610eec565b5f8581526020918252604090819020805460ff60a01b1916600160a01b179055518181529283926101a192840191610f5c565b604051630f96684f60e31b8152928392610282929060048501610f7c565b3461029c57602036600319011261029c576004356001600160401b03811161029c573660238201121561029c578060040135906001600160401b03821161029c573660248360051b8301011161029c576020916024610459920161121c565b6040519015158152f35b3461029c575f36600319011261029c575f5160206114b55f395f51905f52546001600160401b03811161056c57604051906104a460208260051b0183610e93565b8082525f5160206114b55f395f51905f525f9081526020830191907f11213fd3c72ba96f92a508809ed8c67a6c685d776fc03a83239c9abc1bf9c5b9835b83831061054f57848660405191829160208301906020845251809152604083019060408160051b85010192915f905b82821061052057505050500390f35b9193600191939550602061053f8192603f198a82030186528851610e54565b9601920192018594939192610511565b60016020819261055e8561104d565b8152019201920191906104e2565b634e487b7160e01b5f52604160045260245ffd5b3461029c5761058e36610e22565b915f602060405161059e81610e78565b82815201526105ad8282610eec565b835f5260205260018060a01b0360405f2054161561026557906105cf91610eec565b905f526020526040805f208151906105e682610e78565b5460ff602060018060a01b03831693848152019160a01c161515815282519182525115156020820152f35b3461029c57602036600319011261029c57610649610635610630610e0c565b6110f9565b604051928392604084526040840190610e54565b9060208301520390f35b3461029c57602036600319011261029c576004356001600160401b03811161029c57610683903690600401610ddf565b61068d8183610eb4565b549182156106bc579061069f91610eec565b905f52602052602060018060a01b0360405f205416604051908152f35b906106e1604051928392630f96684f60e31b8452604060048501526044840191610f5c565b5f60248301520390fd5b3461029c576107036106fc36610e22565b9291610eec565b905f52602052602060018060a01b0360405f2054161515604051908152f35b3461029c57602036600319011261029c5761076a61073e610e0c565b6001600160a01b03165f9081525f5160206114d55f395f51905f52602052604090208054600117815590565b60028154179055604051608081018181106001600160401b0382111761056c576040908152631201347d60e01b8252633e110fa960e21b6020830152635a172f9360e11b908201526342051def60e01b60608201525f5b60048110156108135760019063ffffffff60e01b8160051b840151165f527fce1c17acaaa67de66e928cd49c8f658667a825223bee6fda99a14908362bcdab60205260405f20828154179055016107c1565b005b3461029c575f36600319011261029c5760408051631201347d60e01b6020820152633e110fa960e21b6024820152635a172f9360e11b60288201526351d2ffb160e01b602c82015263cefc7c7360e01b6030820152632f3f74f760e01b603480830191909152638b6214dd60e01b603883015263cae9676160e01b603c830152635f65130760e01b92820192909252639a4d6cc560e01b6044820152630416c5f960e51b60488201526350ac763960e11b604c8201526342051def60e01b60508201529081526108fe906108ea605482610e93565b604051918291602083526020830190610e54565b0390f35b3461029c5761091036610e22565b909161091c8382610eec565b825f5260205260018060a01b0360405f20541691821561094157602083604051908152f35b604051630f96684f60e31b8152938493506102829260048501610f7c565b503461029c57604036600319011261029c576004356001600160401b03811161029c57610990903690600401610ddf565b6024356001600160a01b0381169390919084830361029c576001600160e01b0319166109bc8133611267565b1561028657508015610dd0578315610dc157813b15610dae57604051630f98899f60e21b81525f81600481885afa5f9181610d24575b50610a0a5784630275d3ad60e01b5f5260045260245ffd5b908491518015908115610d17575b50610d0457610a278185610eb4565b54926001840180941161024757610a3e8286610eec565b845f5260205260018060a01b0360405f205416610ce557610ac690604051610a6581610e78565b848152602081015f8152610a798589610eec565b5f888152602091909152604090209151825491516001600160a81b03199092166001600160a01b03919091161790151560a01b60ff60a01b1617905584610ac08488610eb4565b55610f99565b805460ff1916600117905560ff610add8286610f24565b541615610b2b575b7fd25c688186d51beade61a1b908954d839939d68bbea33cd6b623ccf1333b198d6020948492610b2060405192839289845289840191610f5c565b0390a3604051908152f35b5f5160206114b55f395f51905f52546801000000000000000081101561056c57806001610b6792015f5160206114b55f395f51905f5255610fd1565b919091610cd2576001600160401b03811161056c57610b868254611015565b601f8111610c8d575b5060209484915f93601f8211600114610c0a57817fd25c688186d51beade61a1b908954d839939d68bbea33cd6b623ccf1333b198d94955f91610bff575b508260011b905f198460031b1c19161790555b610bea8183610f24565b600160ff198254161790559250945050610ae5565b905083013589610bcd565b601f198216815f52885f20905f5b818110610c73575095837fd25c688186d51beade61a1b908954d839939d68bbea33cd6b623ccf1333b198d969710610c5a575b5050600182811b019055610be0565b8401355f19600385901b60f8161c191690558880610c4b565b878601358355968a01968996506001909201918a01610c18565b825f5260205f20601f830160051c81019160208410610cc8575b601f0160051c01905b818110610cbd5750610b8f565b5f8155600101610cb0565b9091508190610ca7565b634e487b7160e01b5f525f60045260245ffd5b508361028284604051938493630617dd2360e51b855260048501610f7c565b50630275d3ad60e01b5f5260045260245ffd5b6003915016151585610a18565b9091503d805f833e610d368183610e93565b81019060208183031261029c578051906001600160401b03821161029c570181601f8201121561029c578051906001600160401b03821161056c5760405192610d89601f8401601f191660200185610e93565b8284526020838301011161029c57815f9260208093018386015e83010152905f6109f2565b83630275d3ad60e01b5f5260045260245ffd5b6339a0084560e21b5f5260045ffd5b63728301c360e11b5f5260045ffd5b9181601f8401121561029c578235916001600160401b03831161029c576020838186019501011161029c57565b600435906001600160a01b038216820361029c57565b604060031982011261029c57600435906001600160401b03821161029c57610e4c91600401610ddf565b909160243590565b805180835260209291819084018484015e5f828201840152601f01601f1916010190565b604081019081106001600160401b0382111761056c57604052565b90601f801991011681019081106001600160401b0382111761056c57604052565b60209082604051938492833781017f9c2b7c2ffbfe2b36c6047c7e111b7c7f0709968df86522a119a288d05a1f460581520301902090565b60209082604051938492833781017f9c2b7c2ffbfe2b36c6047c7e111b7c7f0709968df86522a119a288d05a1f460481520301902090565b60209082604051938492833781017f9c2b7c2ffbfe2b36c6047c7e111b7c7f0709968df86522a119a288d05a1f460881520301902090565b908060209392818452848401375f828201840152601f01601f1916010190565b939291602091610f9491604087526040870191610f5c565b930152565b6001600160a01b03165f9081527f9c2b7c2ffbfe2b36c6047c7e111b7c7f0709968df86522a119a288d05a1f46066020526040902090565b5f5160206114b55f395f51905f5254811015611001575f5160206114b55f395f51905f525f5260205f2001905f90565b634e487b7160e01b5f52603260045260245ffd5b90600182811c92168015611043575b602083101461102f57565b634e487b7160e01b5f52602260045260245ffd5b91607f1691611024565b9060405191825f82549261106084611015565b80845293600181169081156110cb5750600114611087575b5061108592500383610e93565b565b90505f9291925260205f20905f915b8183106110af575050906020611085928201015f611078565b6020919350806001915483858901015201910190918492611096565b90506020925061108594915060ff191682840152151560051b8201015f611078565b8015610247575f190190565b60ff61110482610f99565b54161561120d575f5160206114b55f395f51905f52545f5b81811061113c57505050604051611134602082610e93565b5f8152905f90565b61114e61114882610fd1565b5061104d565b60405190805191602081818401948086835e81017f9c2b7c2ffbfe2b36c6047c7e111b7c7f0709968df86522a119a288d05a1f460581520301902054805b61119b5750505060010161111c565b60405160208184518087835e7f9c2b7c2ffbfe2b36c6047c7e111b7c7f0709968df86522a119a288d05a1f4604908201908152030190205f82815260209190915260409020546001600160a01b03878116911614611202576111fc906110ed565b8061118c565b959450925050509190565b50604051611134602082610e93565b5f5b8281101561125f57600581901b8201356001600160a01b038116810361029c5761124960ff91610f99565b5416156112585760010161121e565b5050505f90565b505050600190565b81611271916112b8565b6112b2577f511915e52b7f9e690b9fdc662acaf5600fd3722c87eb951d3abd26e93a784dca5c9060ff82166112a65750505f90565b6112af9161145f565b90565b50600190565b7fce1c17acaaa67de66e928cd49c8f658667a825223bee6fda99a14908362bcdac546001600160a01b0316806113b4575b5060018060a01b0381165f525f5160206114d55f395f51905f5260205260405f20549163ffffffff60e01b165f527fce1c17acaaa67de66e928cd49c8f658667a825223bee6fda99a14908362bcdab60205260405f2054908115611383576001600160a01b03165f9081525f5160206114d55f395f51905f526020526040902054600116151591821561137b57505090565b161515919050565b6001600160a01b03165f9081525f5160206114d55f395f51905f526020526040902054600116151591506112af9050565b6040805163b700961360e01b81526001600160a01b03841660048201523060248201526001600160e01b03198516604482015291829060649082905afa5f9181611410575b50156112e957611409575f6112e9565b5050600190565b9091506040813d604011611457575b8161142c60409383610e93565b8101031261029c57805190811515820361029c576020015163ffffffff81160361029c57905f6113f9565b3d915061141f565b60ff169081156114095763ffffffff60e01b165f527fce1c17acaaa67de66e928cd49c8f658667a825223bee6fda99a14908362bcdab60205260405f20549081156114ae576001901b16151590565b50505f9056fe9c2b7c2ffbfe2b36c6047c7e111b7c7f0709968df86522a119a288d05a1f4607ce1c17acaaa67de66e928cd49c8f658667a825223bee6fda99a14908362bcdaaa2646970667358221220bb562eec5a701da952a033ec2fbdb3ada4d6436229798cad0a515ad8d103834664736f6c634300081e0033","linkReferences":{}},"methodIdentifiers":{"REGISTRY_ADMIN_ROLE()":"bf584c4b","RegistryCore_init(address)":"42051def","deprecateFacet(string,uint256)":"b42e5f26","getAllFacetNames()":"9a4d6cc5","getFacetAddress(string,uint256)":"2f3f74f7","getFacetByAddress(address)":"82d8bf20","getFacetVersion(string,uint256)":"8b6214dd","getLatestFacetAddress(string)":"5f651307","getLatestVersion(string)":"cae96761","isFacetAddressRegistered(address)":"cefc7c73","isFacetRegistered(string,uint256)":"51d2ffb1","packedSelectors()":"3e62267c","registerFacet(string,address)":"1201347d","removeFacet(string,uint256)":"f8443ea4","validateFacets(address[])":"a158ec72"},"id":131}