{"abi":[{"type":"function","name":"REGISTRY_ADMIN_ROLE","inputs":[],"outputs":[{"name":"","type":"uint8","internalType":"uint8"}],"stateMutability":"view"},{"type":"function","name":"RegistryCore_init","inputs":[{"name":"admin","type":"address","internalType":"address"}],"outputs":[],"stateMutability":"nonpayable"},{"type":"function","name":"deprecateFacet","inputs":[{"name":"name","type":"string","internalType":"string"},{"name":"version","type":"string","internalType":"string"}],"outputs":[],"stateMutability":"nonpayable"},{"type":"function","name":"getAllFacetNames","inputs":[],"outputs":[{"name":"","type":"string[]","internalType":"string[]"}],"stateMutability":"view"},{"type":"function","name":"getFacetAddress","inputs":[{"name":"name","type":"string","internalType":"string"},{"name":"version","type":"string","internalType":"string"}],"outputs":[{"name":"","type":"address","internalType":"address"}],"stateMutability":"view"},{"type":"function","name":"getFacetSelectors","inputs":[{"name":"name","type":"string","internalType":"string"},{"name":"version","type":"string","internalType":"string"}],"outputs":[{"name":"","type":"bytes4[]","internalType":"bytes4[]"}],"stateMutability":"view"},{"type":"function","name":"getFacetVersion","inputs":[{"name":"name","type":"string","internalType":"string"},{"name":"version","type":"string","internalType":"string"}],"outputs":[{"name":"","type":"tuple","internalType":"struct IFacetRegistry.FacetVersion","components":[{"name":"facetAddress","type":"address","internalType":"address"},{"name":"deprecated","type":"bool","internalType":"bool"},{"name":"selectors","type":"bytes4[]","internalType":"bytes4[]"}]}],"stateMutability":"view"},{"type":"function","name":"getFacetVersions","inputs":[{"name":"name","type":"string","internalType":"string"}],"outputs":[{"name":"","type":"string[]","internalType":"string[]"}],"stateMutability":"view"},{"type":"function","name":"getUpgradeCuts","inputs":[{"name":"name","type":"string","internalType":"string"},{"name":"oldVersion","type":"string","internalType":"string"},{"name":"newVersion","type":"string","internalType":"string"}],"outputs":[{"name":"cuts","type":"tuple[]","internalType":"struct IDiamondCut.FacetCut[]","components":[{"name":"facetAddress","type":"address","internalType":"address"},{"name":"action","type":"uint8","internalType":"enum IDiamondCut.FacetCutAction"},{"name":"functionSelectors","type":"bytes4[]","internalType":"bytes4[]"}]}],"stateMutability":"view"},{"type":"function","name":"getUpgradeInfo","inputs":[{"name":"name","type":"string","internalType":"string"},{"name":"oldVersion","type":"string","internalType":"string"},{"name":"newVersion","type":"string","internalType":"string"}],"outputs":[{"name":"info","type":"tuple","internalType":"struct IFacetRegistry.UpgradeInfo","components":[{"name":"oldVersion","type":"string","internalType":"string"},{"name":"newVersion","type":"string","internalType":"string"},{"name":"addedSelectors","type":"bytes4[]","internalType":"bytes4[]"},{"name":"removedSelectors","type":"bytes4[]","internalType":"bytes4[]"},{"name":"replacedSelectors","type":"bytes4[]","internalType":"bytes4[]"}]}],"stateMutability":"view"},{"type":"function","name":"isFacetAddressRegistered","inputs":[{"name":"facetAddress","type":"address","internalType":"address"}],"outputs":[{"name":"","type":"bool","internalType":"bool"}],"stateMutability":"view"},{"type":"function","name":"isFacetRegistered","inputs":[{"name":"name","type":"string","internalType":"string"},{"name":"version","type":"string","internalType":"string"}],"outputs":[{"name":"","type":"bool","internalType":"bool"}],"stateMutability":"view"},{"type":"function","name":"registerFacet","inputs":[{"name":"name","type":"string","internalType":"string"},{"name":"version","type":"string","internalType":"string"},{"name":"facetAddress","type":"address","internalType":"address"},{"name":"selectors","type":"bytes4[]","internalType":"bytes4[]"}],"outputs":[],"stateMutability":"nonpayable"},{"type":"function","name":"removeFacet","inputs":[{"name":"name","type":"string","internalType":"string"},{"name":"version","type":"string","internalType":"string"}],"outputs":[],"stateMutability":"nonpayable"},{"type":"function","name":"validateFacetCuts","inputs":[{"name":"cuts","type":"tuple[]","internalType":"struct IDiamondCut.FacetCut[]","components":[{"name":"facetAddress","type":"address","internalType":"address"},{"name":"action","type":"uint8","internalType":"enum IDiamondCut.FacetCutAction"},{"name":"functionSelectors","type":"bytes4[]","internalType":"bytes4[]"}]}],"outputs":[{"name":"","type":"bool","internalType":"bool"}],"stateMutability":"view"},{"type":"event","name":"FacetDeprecated","inputs":[{"name":"name","type":"string","indexed":true,"internalType":"string"},{"name":"version","type":"string","indexed":true,"internalType":"string"}],"anonymous":false},{"type":"event","name":"FacetRegistered","inputs":[{"name":"name","type":"string","indexed":true,"internalType":"string"},{"name":"version","type":"string","indexed":true,"internalType":"string"},{"name":"facetAddress","type":"address","indexed":false,"internalType":"address"},{"name":"selectorCount","type":"uint256","indexed":false,"internalType":"uint256"}],"anonymous":false},{"type":"event","name":"FacetRemoved","inputs":[{"name":"name","type":"string","indexed":true,"internalType":"string"},{"name":"version","type":"string","indexed":true,"internalType":"string"}],"anonymous":false},{"type":"error","name":"AccessControl_CallerIsNotAuthorized","inputs":[{"name":"caller","type":"address","internalType":"address"},{"name":"functionSig","type":"bytes4","internalType":"bytes4"}]},{"type":"error","name":"Registry_EmptyFacetName","inputs":[]},{"type":"error","name":"Registry_EmptyVersion","inputs":[]},{"type":"error","name":"Registry_FacetNotRegistered","inputs":[{"name":"facetAddress","type":"address","internalType":"address"}]},{"type":"error","name":"Registry_FacetVersionAlreadyExists","inputs":[{"name":"name","type":"string","internalType":"string"},{"name":"version","type":"string","internalType":"string"}]},{"type":"error","name":"Registry_FacetVersionDeprecated","inputs":[{"name":"name","type":"string","internalType":"string"},{"name":"version","type":"string","internalType":"string"}]},{"type":"error","name":"Registry_FacetVersionNotFound","inputs":[{"name":"name","type":"string","internalType":"string"},{"name":"version","type":"string","internalType":"string"}]},{"type":"error","name":"Registry_InvalidFacetAddress","inputs":[]},{"type":"error","name":"Registry_NoSelectorsProvided","inputs":[]}],"bytecode":{"object":"0x60808060405234601557611df8908161001a8239f35b5f80fdfe60806040526004361015610011575f80fd5b5f358060e01c90816302a1ab3b146112b6578163069f2a6e146112815781630a55700114610fcc5781631513486c14610ef05781631ea6874f14610df257816342051def14610d165781634ae1544114610cb65781639a4d6cc514610b8c5781639afe0c9514610a70578163b630e87f14610a2b578163b6c474591461098e578163bb84fae2146102bc57508063bf584c4b146102a1578063cefc7c73146102705763de648d2b146100c1575f80fd5b3461026c576100cf366113e2565b9194936040519460a086018681106001600160401b038211176102585760405260608652602086019260608452604087019460608652606088019660608852608089019960608b5261012b6101248787611556565b82846115fe565b956101406101398288611556565b85876115fe565b87549096906001600160a01b03161561023a5786546001600160a01b03161561021857505061021498956001806101ee9761019c6101c89f9c988f986101db996101936102019f9a6101a69a3691611a72565b90523691611a72565b8652019101611ba7565b895286528352604051998a9960208b525160a060208c015260c08b01906114a3565b9051898203601f190160408b01526114a3565b9051878203601f19016060890152611450565b9051858203601f19016080870152611450565b9051838203601f190160a0850152611450565b0390f35b610236858760405194859463246d498b60e11b865260048601611637565b0390fd5b610236838560405194859463246d498b60e11b865260048601611637565b634e487b7160e01b5f52604160045260245ffd5b5f80fd5b3461026c57602036600319011261026c57602060ff61029561029061148d565b61191a565b54166040519015158152f35b3461026c575f36600319011261026c57602060405160018152f35b3461026c57608036600319011261026c576004356001600160401b03811161026c576102ec903690600401611365565b906024356001600160401b03811161026c5761030c903690600401611365565b90926044356001600160a01b038116939084810361026c576064356001600160401b03811161026c57610343903690600401611526565b976001600160e01b0319166103588133611ab7565b156109785750831561096957841561095a57851561094b57871561093c576001600160a01b0361039261038b8686611556565b878a6115fe565b541661091c576040516103a481611683565b868152602081015f81526103b78a6116bf565b926103c5604051948561169e565b8a845260208401908b60051b81019036821161026c57915b8183106108fb5750505090600191604082019384526104066103ff8888611556565b898c6115fe565b91838060a01b039051166bffffffffffffffffffffffff60a01b83541617825551151581549060ff60a01b9060a01b169060ff60a01b19161781550190518051906001600160401b03821161025857600160401b82116102585760209083548385558084106108ad575b5001915f5260205f208160031c915f5b83811061086257506007198116900380610813575b505050506104a3838361158e565b805490600160401b8210156102585760018201808255821015610759575f5260205f2001906001600160401b038511610258576104e082546119a0565b601f81116107e3575b505f9185601f81116001146107785761051a935f9161076d575b508660011b905f198860031b1c191617905561191a565b805460ff1916600117905560ff61053183836115c6565b54161561058f575b917f09b7c6456cc68353bd58407408bb48a5cb057f4ea85a06f8ca94a8a86a04a8cd9391604093818551928392833781015f815203902094818451928392833781015f81520390209482519182526020820152a3005b5f516020611da35f395f51905f5254600160401b8110156102585760018101805f516020611da35f395f51905f5255811015610759575f516020611da35f395f51905f525f527fd09e61268ebce78c29a1ccce8c5c25ffccd3fde33adf633e60d4c5215f76e72d016001600160401b0383116102585761060f81546119a0565b601f811161071e575b505f601f8411600114610694579183917f09b7c6456cc68353bd58407408bb48a5cb057f4ea85a06f8ca94a8a86a04a8cd9694604096945f91610689575b508360011b905f198560031b1c19161790555b61067382826115c6565b600160ff19825416179055919350919350610539565b90508201358a610656565b601f19841690825f5260205f20915f5b8181106107065750918593917f09b7c6456cc68353bd58407408bb48a5cb057f4ea85a06f8ca94a8a86a04a8cd98966040989694106106ed575b5050600183811b019055610669565b8301355f19600386901b60f8161c1916905589806106de565b919260206001819286890135815501940192016106a4565b61074990825f5260205f20601f860160051c8101916020871061074f575b601f0160051c019061198a565b87610618565b909150819061073c565b634e487b7160e01b5f52603260045260245ffd5b90508801358a610503565b505f81815260208120909387601f1981165b8b8188106107c6575061051a9650106107ad575b5050600186811b01905561191a565b8901355f19600389901b60f8161c19169055898061079e565b83013584556020968701966001909401939092019189915061078a565b61080d90835f5260205f20601f880160051c8101916020891061074f57601f0160051c019061198a565b886104e9565b925f935f5b81811061082d57505050015587808080610495565b9091946020610858600192885160e01c908560021b63ffffffff809160031b9316831b921b19161790565b9601929101610818565b5f5f5b6008811061087a575083820155600101610480565b959060206108a4600192845160e01c908a60021b63ffffffff809160031b9316831b921b19161790565b92019601610865565b6108db90855f52835f20600780870160031c820192601c8860021b16806108e1575b500160031c019061198a565b8b610470565b5f198501908154905f19908a0360031b1c1690555f6108cf565b82356001600160e01b03198116810361026c578152602092830192016103dd565b505061023683866040519485946308d869d360e01b865260048601611637565b633c733a5b60e11b5f5260045ffd5b6339a0084560e21b5f5260045ffd5b63273220d760e01b5f5260045ffd5b63728301c360e11b5f5260045ffd5b631d64bc3360e11b5f523360045260245260445ffd5b3461026c5761099c36611392565b90929091906001600160a01b036109b66101398484611556565b54161561023a57926001926109d16109d7936109dd96611556565b916115fe565b01611716565b6040518091602082016020835281518091526020604084019201905f5b818110610a08575050500390f35b82516001600160e01b0319168452859450602093840193909201916001016109fa565b3461026c57602036600319011261026c576004356001600160401b03811161026c57610a66610a606020923690600401611526565b906119fa565b6040519015158152f35b3461026c57602036600319011261026c576004356001600160401b03811161026c57610aa3610aa9913690600401611365565b9061158e565b8054610ab4816116bf565b90610ac2604051928361169e565b80825260208201925f5260205f20925f905b828210610ae9576040518061021486826114c7565b6040515f8654610af8816119a0565b8084529060018116908115610b695750600114610b32575b5060019282610b248594602094038261169e565b815201950191019093610ad4565b5f888152602081209092505b818310610b5357505081016020016001610b10565b6001816020925483868801015201920191610b3e565b60ff191660208581019190915291151560051b8401909101915060019050610b10565b3461026c575f36600319011261026c575f516020611da35f395f51905f5254610bb4816116bf565b610bc1604051918261169e565b8181525f516020611da35f395f51905f525f9081527fd09e61268ebce78c29a1ccce8c5c25ffccd3fde33adf633e60d4c5215f76e72d9290602083015b828210610c13576040518061021486826114c7565b6040515f8654610c22816119a0565b8084529060018116908115610c935750600114610c5c575b5060019282610c4e8594602094038261169e565b815201950191019093610bfe565b5f888152602081209092505b818310610c7d57505081016020016001610c3a565b6001816020925483868801015201920191610c68565b60ff191660208581019190915291151560051b8401909101915060019050610c3a565b3461026c57610cc436611392565b919290916001600160a01b03610ce4610cdd8685611556565b83866115fe565b5416928315610cf857602084604051908152f35b60405163246d498b60e11b8152948594506102369360048601611637565b3461026c57602036600319011261026c57610d47610d3261148d565b610d3b81611952565b60018154179055611952565b60028154179055604051608081018181106001600160401b03821117610258576040908152635dc27d7160e11b8252631ea6874f60e01b60208301526302a1ab3b60e01b908201526342051def60e01b60608201525f5b6004811015610df05760019063ffffffff60e01b8160051b840151165f527f35edad4c931e57ec40cedc90b9e3e052832d1b49c07eb789b019aea9b39c91da60205260405f2082815417905501610d9e565b005b3461026c57610e0036611392565b92909363ffffffff60e01b16610e168133611ab7565b1561097857506001600160a01b03610e316101398484611556565b54161561023a57610e5e6001600160a01b03610e57610e508585611556565b86886115fe565b541661191a565b805460ff191690556001610e756101398484611556565b5f81550180545f825580610ed0575b505081604051928392833781015f81520390209181604051928392833781015f8152039020907fde6deb7674312b3438302268b883a557573ed9b41c08cf98f5f48c0f3a8ecd3d5f80a3005b610ee9915f52600760205f20910160031c81019061198a565b8480610e84565b3461026c57610efe36611392565b909192610f096116d6565b506001600160a01b03610f26610f1f8684611556565b84866115fe565b541615610fad57610f3a936109d191611556565b604051610f4681611683565b81546001600160a01b038116825260a01c60ff161515602082019081529161021490610f7490600101611716565b604083019081526040519384936020855260018060a01b0390511660208501525115156040840152516060808401526080830190611450565b91906102369160405194859463246d498b60e11b865260048601611637565b3461026c57610fda366113e2565b610ff3610fec86889498979597611556565b86866115fe565b946110086110018585611556565b83896115fe565b86549095906001600160a01b03161561126357505083546001600160a01b031695861561124557866110408760018089019101611ba7565b925f92919293825161123c575b835161122c575b805161121c575b611064856116bf565b94611072604051968761169e565b808652611081601f19916116bf565b015f5b8181106112055750505f9280516111cc575b508051611188575b50508151611150575b505060405160208101916020825280518093526040820192602060408260051b8501019201905f5b8181106110dc5784840385f35b848403603f19018652825180516001600160a01b03168552602081015193949293919290600383101561113c5761112d82606060406020959460019787809701520151918160408201520190611450565b950196019101949190946110cf565b634e487b7160e01b5f52602160045260245ffd5b6040516111809261116082611683565b5f82526002602083015260408201526111798285611702565b5282611702565b5081806110a7565b916111c491926040519361119b85611683565b84526001602085015260408401526111b281611661565b926111bd8287611702565b5284611702565b50838061109e565b60405193506111da84611683565b8284525f602085015260408401526001926111f4866116f5565b526111fe856116f5565b5085611096565b6020906112106116d6565b82828a01015201611084565b9361122690611661565b9361105b565b9361123690611661565b93611054565b6001945061104d565b906102369160405194859463246d498b60e11b865260048601611637565b60405163246d498b60e11b8152948594610236945060048601611637565b3461026c5760206109d16112aa61129736611392565b6001600160a01b03959193909290611556565b54161515604051908152f35b3461026c576112c436611392565b92909363ffffffff60e01b166112da8133611ab7565b1561097857506001600160a01b036112f56101398484611556565b54161561023a57611309610f1f8383611556565b805460ff60a01b1916600160a01b1790556040519182918190833781015f81520390209181604051928392833781015f8152039020907fd4731aa8441803843f0ace5100524b8e85b13d2de0772e1d2c506d298f5b73a65f80a3005b9181601f8401121561026c578235916001600160401b03831161026c576020838186019501011161026c57565b604060031982011261026c576004356001600160401b03811161026c57816113bc91600401611365565b92909291602435906001600160401b03821161026c576113de91600401611365565b9091565b606060031982011261026c576004356001600160401b03811161026c578161140c91600401611365565b929092916024356001600160401b03811161026c578161142e91600401611365565b92909291604435906001600160401b03821161026c576113de91600401611365565b90602080835192838152019201905f5b81811061146d5750505090565b82516001600160e01b031916845260209384019390920191600101611460565b600435906001600160a01b038216820361026c57565b805180835260209291819084018484015e5f828201840152601f01601f1916010190565b602081016020825282518091526040820191602060408360051b8301019401925f915b8383106114f957505050505090565b9091929394602080611517600193603f1986820301875289516114a3565b970193019301919392906114ea565b9181601f8401121561026c578235916001600160401b03831161026c576020808501948460051b01011161026c57565b60209082604051938492833781017fc895c0acfab15e871ef9bd016962acf11162210bbc5e3cba510597a251151aba81520301902090565b60209082604051938492833781017fc895c0acfab15e871ef9bd016962acf11162210bbc5e3cba510597a251151abb81520301902090565b60209082604051938492833781017fc895c0acfab15e871ef9bd016962acf11162210bbc5e3cba510597a251151abe81520301902090565b6020919283604051948593843782019081520301902090565b908060209392818452848401375f828201840152601f01601f1916010190565b92906116509061165e9593604086526040860191611617565b926020818503910152611617565b90565b5f19811461166f5760010190565b634e487b7160e01b5f52601160045260245ffd5b606081019081106001600160401b0382111761025857604052565b90601f801991011681019081106001600160401b0382111761025857604052565b6001600160401b0381116102585760051b60200190565b604051906116e382611683565b60606040835f81525f60208201520152565b8051156107595760200190565b80518210156107595760209160051b010190565b90604051918281549182825260208201905f5260205f20925f905b80600783011061187557611787945491818110611856575b818110611837575b818110611818575b8181106117f9575b8181106117da575b8181106117bb575b81811061179e575b10611789575b50038361169e565b565b6001600160e01b03191681526020015f61177f565b602083811b6001600160e01b031916855290930192600101611779565b604083901b6001600160e01b0319168452602090930192600101611771565b606083901b6001600160e01b0319168452602090930192600101611769565b608083901b6001600160e01b0319168452602090930192600101611761565b60a083901b6001600160e01b0319168452602090930192600101611759565b60c083901b6001600160e01b0319168452602090930192600101611751565b60e083901b6001600160e01b0319168452602090930192600101611749565b916008919350610100600191865463ffffffff60e01b8160e01b16825263ffffffff60e01b8160c01b16602083015263ffffffff60e01b8160a01b16604083015263ffffffff60e01b8160801b16606083015263ffffffff60e01b8160601b16608083015263ffffffff60e01b8160401b1660a083015263ffffffff60e01b8160201b1660c083015263ffffffff60e01b1660e0820152019401920185929391611731565b6001600160a01b03165f9081527fc895c0acfab15e871ef9bd016962acf11162210bbc5e3cba510597a251151abc6020526040902090565b6001600160a01b03165f9081527f35edad4c931e57ec40cedc90b9e3e052832d1b49c07eb789b019aea9b39c91d96020526040902090565b818110611995575050565b5f815560010161198a565b90600182811c921680156119ce575b60208310146119ba57565b634e487b7160e01b5f52602260045260245ffd5b91607f16916119af565b91908110156107595760051b81013590605e198136030182121561026c570190565b905f5b818110611a0c57505050600190565b6020611a198284866119d8565b0135600381101561026c57600214611a6a57611a368183856119d8565b356001600160a01b038116810361026c57611a5260ff9161191a565b541615611a63576001905b016119fd565b5050505f90565b600190611a5d565b9291926001600160401b0382116102585760405191611a9b601f8201601f19166020018461169e565b82948184528183011161026c578281602093845f960137010152565b611ac081611952565b549163ffffffff60e01b165f527f35edad4c931e57ec40cedc90b9e3e052832d1b49c07eb789b019aea9b39c91da60205260405f2054908115611b4c576001600160a01b03165f9081527f35edad4c931e57ec40cedc90b9e3e052832d1b49c07eb789b019aea9b39c91d960205260409020546001161580159290611b4457505090565b161515919050565b505050600190565b90611b5e826116bf565b611b6b604051918261169e565b8281528092611b7c601f19916116bf565b0190602036910137565b9190918054831015610759575f52601c60205f208360031c019260021b1690565b918154611bb381611b54565b92845494611bc086611b54565b9483871015611d1557611bd287611b54565b965f925f94895f975f5b818110611c7d575050505f5b838110611c17575050505091611c05611c0b92611c119594611d5d565b95611d5d565b94611d5d565b91929190565b80611c3783611c2860019487611b86565b90549060031b1c60e01b611d1e565b15611c43575b01611be8565b611c4d8185611b86565b90549060031b1c60e01b611c6a611c638a611661565b998d611702565b6001600160e01b03199091169052611c3d565b909198611c8e85611c288487611b86565b15611cd65790600191611cbe611ca48387611b86565b90549060031b1c60e01b91611cb881611661565b9c611702565b6001600160e01b031990911690525b01908b91611bdc565b985080611ce560019285611b86565b90549060031b1c60e01b611d02611cfb8a611661565b9989611702565b6001600160e01b03199091169052611ccd565b611bd284611b54565b5f5b8254811015611a6357611d338184611b86565b63ffffffff60e01b91549060031b1c60e01b1663ffffffff60e01b831614611b4c57600101611d20565b9190611d6881611b54565b905f5b818110611d79575090925050565b6001906001600160e01b0319611d8f8288611702565b5116611d9b8286611702565b5201611d6b56fec895c0acfab15e871ef9bd016962acf11162210bbc5e3cba510597a251151abda264697066735822122075140354cc2725557aed32817e46d23ed1d16729ee0aedf20f871993fef1f0fc64736f6c634300081e0033","linkReferences":{}},"methodIdentifiers":{"REGISTRY_ADMIN_ROLE()":"bf584c4b","RegistryCore_init(address)":"42051def","deprecateFacet(string,string)":"02a1ab3b","getAllFacetNames()":"9a4d6cc5","getFacetAddress(string,string)":"4ae15441","getFacetSelectors(string,string)":"b6c47459","getFacetVersion(string,string)":"1513486c","getFacetVersions(string)":"9afe0c95","getUpgradeCuts(string,string,string)":"0a557001","getUpgradeInfo(string,string,string)":"de648d2b","isFacetAddressRegistered(address)":"cefc7c73","isFacetRegistered(string,string)":"069f2a6e","registerFacet(string,string,address,bytes4[])":"bb84fae2","removeFacet(string,string)":"1ea6874f","validateFacetCuts((address,uint8,bytes4[])[])":"b630e87f"},"id":49}