{"abi":[{"type":"function","name":"REGISTRY_ADMIN_ROLE","inputs":[],"outputs":[{"name":"","type":"uint8","internalType":"uint8"}],"stateMutability":"view"},{"type":"function","name":"RegistryCore_init","inputs":[{"name":"admin","type":"address","internalType":"address"}],"outputs":[],"stateMutability":"nonpayable"},{"type":"function","name":"deprecateFacet","inputs":[{"name":"name","type":"string","internalType":"string"},{"name":"version","type":"uint256","internalType":"uint256"}],"outputs":[],"stateMutability":"nonpayable"},{"type":"function","name":"getAllFacetNames","inputs":[],"outputs":[{"name":"","type":"string[]","internalType":"string[]"}],"stateMutability":"view"},{"type":"function","name":"getFacetAddress","inputs":[{"name":"name","type":"string","internalType":"string"},{"name":"version","type":"uint256","internalType":"uint256"}],"outputs":[{"name":"","type":"address","internalType":"address"}],"stateMutability":"view"},{"type":"function","name":"getFacetByAddress","inputs":[{"name":"facetAddress","type":"address","internalType":"address"}],"outputs":[{"name":"name","type":"string","internalType":"string"},{"name":"version","type":"uint256","internalType":"uint256"}],"stateMutability":"view"},{"type":"function","name":"getFacetSelectors","inputs":[{"name":"name","type":"string","internalType":"string"},{"name":"version","type":"uint256","internalType":"uint256"}],"outputs":[{"name":"","type":"bytes4[]","internalType":"bytes4[]"}],"stateMutability":"view"},{"type":"function","name":"getFacetVersion","inputs":[{"name":"name","type":"string","internalType":"string"},{"name":"version","type":"uint256","internalType":"uint256"}],"outputs":[{"name":"","type":"tuple","internalType":"struct IFacetRegistry.FacetVersion","components":[{"name":"facetAddress","type":"address","internalType":"address"},{"name":"deprecated","type":"bool","internalType":"bool"},{"name":"selectors","type":"bytes4[]","internalType":"bytes4[]"}]}],"stateMutability":"view"},{"type":"function","name":"getLatestFacetAddress","inputs":[{"name":"name","type":"string","internalType":"string"}],"outputs":[{"name":"","type":"address","internalType":"address"}],"stateMutability":"view"},{"type":"function","name":"getLatestVersion","inputs":[{"name":"name","type":"string","internalType":"string"}],"outputs":[{"name":"","type":"uint256","internalType":"uint256"}],"stateMutability":"view"},{"type":"function","name":"getUpgradeCuts","inputs":[{"name":"name","type":"string","internalType":"string"},{"name":"oldVersion","type":"uint256","internalType":"uint256"},{"name":"newVersion","type":"uint256","internalType":"uint256"}],"outputs":[{"name":"cuts","type":"tuple[]","internalType":"struct IDiamondCut.FacetCut[]","components":[{"name":"facetAddress","type":"address","internalType":"address"},{"name":"action","type":"uint8","internalType":"enum IDiamondCut.FacetCutAction"},{"name":"functionSelectors","type":"bytes4[]","internalType":"bytes4[]"}]}],"stateMutability":"view"},{"type":"function","name":"getUpgradeInfo","inputs":[{"name":"name","type":"string","internalType":"string"},{"name":"oldVersion","type":"uint256","internalType":"uint256"},{"name":"newVersion","type":"uint256","internalType":"uint256"}],"outputs":[{"name":"info","type":"tuple","internalType":"struct IFacetRegistry.UpgradeInfo","components":[{"name":"oldVersion","type":"uint256","internalType":"uint256"},{"name":"newVersion","type":"uint256","internalType":"uint256"},{"name":"addedSelectors","type":"bytes4[]","internalType":"bytes4[]"},{"name":"removedSelectors","type":"bytes4[]","internalType":"bytes4[]"},{"name":"replacedSelectors","type":"bytes4[]","internalType":"bytes4[]"}]}],"stateMutability":"view"},{"type":"function","name":"isFacetAddressRegistered","inputs":[{"name":"facetAddress","type":"address","internalType":"address"}],"outputs":[{"name":"","type":"bool","internalType":"bool"}],"stateMutability":"view"},{"type":"function","name":"isFacetRegistered","inputs":[{"name":"name","type":"string","internalType":"string"},{"name":"version","type":"uint256","internalType":"uint256"}],"outputs":[{"name":"","type":"bool","internalType":"bool"}],"stateMutability":"view"},{"type":"function","name":"registerFacet","inputs":[{"name":"name","type":"string","internalType":"string"},{"name":"facetAddress","type":"address","internalType":"address"},{"name":"selectors","type":"bytes4[]","internalType":"bytes4[]"}],"outputs":[{"name":"version","type":"uint256","internalType":"uint256"}],"stateMutability":"nonpayable"},{"type":"function","name":"removeFacet","inputs":[{"name":"name","type":"string","internalType":"string"},{"name":"version","type":"uint256","internalType":"uint256"}],"outputs":[],"stateMutability":"nonpayable"},{"type":"function","name":"validateFacetCuts","inputs":[{"name":"cuts","type":"tuple[]","internalType":"struct IDiamondCut.FacetCut[]","components":[{"name":"facetAddress","type":"address","internalType":"address"},{"name":"action","type":"uint8","internalType":"enum IDiamondCut.FacetCutAction"},{"name":"functionSelectors","type":"bytes4[]","internalType":"bytes4[]"}]}],"outputs":[{"name":"","type":"bool","internalType":"bool"}],"stateMutability":"view"},{"type":"event","name":"FacetDeprecated","inputs":[{"name":"name","type":"string","indexed":true,"internalType":"string"},{"name":"version","type":"uint256","indexed":true,"internalType":"uint256"}],"anonymous":false},{"type":"event","name":"FacetRegistered","inputs":[{"name":"name","type":"string","indexed":true,"internalType":"string"},{"name":"version","type":"uint256","indexed":true,"internalType":"uint256"},{"name":"facetAddress","type":"address","indexed":false,"internalType":"address"},{"name":"selectorCount","type":"uint256","indexed":false,"internalType":"uint256"}],"anonymous":false},{"type":"event","name":"FacetRemoved","inputs":[{"name":"name","type":"string","indexed":true,"internalType":"string"},{"name":"version","type":"uint256","indexed":true,"internalType":"uint256"}],"anonymous":false},{"type":"error","name":"AccessControl_CallerIsNotAuthorized","inputs":[{"name":"caller","type":"address","internalType":"address"},{"name":"functionSig","type":"bytes4","internalType":"bytes4"}]},{"type":"error","name":"Registry_EmptyFacetName","inputs":[]},{"type":"error","name":"Registry_FacetNotRegistered","inputs":[{"name":"facetAddress","type":"address","internalType":"address"}]},{"type":"error","name":"Registry_FacetVersionAlreadyExists","inputs":[{"name":"name","type":"string","internalType":"string"},{"name":"version","type":"uint256","internalType":"uint256"}]},{"type":"error","name":"Registry_FacetVersionDeprecated","inputs":[{"name":"name","type":"string","internalType":"string"},{"name":"version","type":"uint256","internalType":"uint256"}]},{"type":"error","name":"Registry_FacetVersionNotFound","inputs":[{"name":"name","type":"string","internalType":"string"},{"name":"version","type":"uint256","internalType":"uint256"}]},{"type":"error","name":"Registry_InvalidFacetAddress","inputs":[]},{"type":"error","name":"Registry_InvalidVersion","inputs":[]},{"type":"error","name":"Registry_NoSelectorsProvided","inputs":[]}],"bytecode":{"object":"0x60808060405234601557611d67908161001a8239f35b5f80fdfe60806040526004361015610011575f80fd5b5f358060e01c8062154ddd14610c975780632f3f74f714610c3a57806342051def14610b5f57806351d2ffb114610b285780635f65130714610a905780637b2317071461094c57806382d8bf201461090a5780638b6214dd146108455780639a4d6cc514610747578063b3084906146104b8578063b42e5f261461040d578063b630e87f146103c8578063bcefb8b91461032a578063bf584c4b1461030f578063cae96761146102cb578063cefc7c731461029a5763f8443ea4146100d4575f80fd5b34610296576100e23661126a565b929091906001600160e01b0319166100fa8133611a26565b15610280575061010a828261136b565b835f5260205260018060a01b0360405f2054161561025f5761012c828261136b565b835f5260205261014760018060a01b0360405f205416611481565b805460ff19169055610159828261136b565b835f52602052600160405f205f81550180545f82558061023f575b50506101808282611333565b54831480610235575b6101c5575b81604051928392833781015f81520390207f54cd827687726fa91dea445c79e73ddf706f1069dff0f26cc80d50a366815ad55f80a3005b5f5f19840184811161022157805b6101e9575b506101e38383611333565b5561018e565b6101f3848461136b565b815f5260205260018060a01b0360405f205416610219576102139061160d565b806101d3565b90505f6101d8565b634e487b7160e01b5f52601160045260245ffd5b5060018311610189565b610258915f52600760205f20910160031c81019061146b565b5f80610174565b61027c83604051938493630f96684f60e31b8552600485016113fb565b0390fd5b631d64bc3360e11b5f523360045260245260445ffd5b5f80fd5b3461029657602036600319011261029657602060ff6102bf6102ba611224565b611481565b54166040519015158152f35b34610296576020366003190112610296576004356001600160401b0381116102965761030661030060209236906004016111f7565b90611333565b54604051908152f35b34610296575f36600319011261029657602060405160018152f35b34610296576103383661126a565b91610343828261136b565b835f5260205260018060a01b0360405f2054161561025f57906103659161136b565b905f5260205261037a600160405f200161175b565b6040518091602082016020835281518091526020604084019201905f5b8181106103a5575050500390f35b82516001600160e01b031916845285945060209384019390920191600101610397565b34610296576020366003190112610296576004356001600160401b038111610296576104036103fd602092369060040161123a565b906119ae565b6040519015158152f35b50346102965761041c3661126a565b929091906001600160e01b0319166104348133611a26565b156102805750610444828261136b565b835f5260205260018060a01b0360405f2054161561025f57610466828261136b565b835f5260205260405f20600160a01b60ff60a01b1982541617905581604051928392833781015f81520390207f0cc33daf2a7e0f28b95aeeb1cfdad85f7fac111e500286ede5c209a55139a9995f80a3005b34610296576104c63661129c565b92916104d2818461136b565b825f5260205260405f20926104e7828261136b565b855f5260205260405f209260018060a01b038554161561072a575082546001600160a01b031694851561072a57856105258660018088019101611b16565b925f929192938251610721575b8351610711575b8051610701575b61054985611454565b946105576040519687611433565b808652610566601f1991611454565b015f5b8181106106ea5750505f9280516106b1575b50805161066d575b50508151610635575b505060405160208101916020825280518093526040820192602060408260051b8501019201905f5b8181106105c15784840385f35b848403603f19018652825180516001600160a01b03168552602081015193949293919290600383101561062157610612826060604060209594600197878097015201519181604082015201906112d2565b950196019101949190946105b4565b634e487b7160e01b5f52602160045260245ffd5b6040516106659261064582611418565b5f825260026020830152604082015261065e8285611978565b5282611978565b50818061058c565b916106a991926040519361068085611418565b84526001602085015260408401526106978161195d565b926106a28287611978565b5284611978565b508380610583565b60405193506106bf84611418565b8284525f602085015260408401526001926106d98661196b565b526106e38561196b565b508561057b565b6020906106f561173c565b82828a01015201610569565b9361070b9061195d565b93610540565b9361071b9061195d565b93610539565b60019450610532565b61027c90604051938493630f96684f60e31b8552600485016113fb565b34610296575f366003190112610296575f516020611d125f395f51905f525461076f81611454565b9061077d6040519283611433565b8082525f516020611d125f395f51905f525f9081526020830191907fd09e61268ebce78c29a1ccce8c5c25ffccd3fde33adf633e60d4c5215f76e72d835b83831061082857848660405191829160208301906020845251809152604083019060408160051b85010192915f905b8282106107f957505050500390f35b919360019193955060206108188192603f198a8203018652885161130f565b96019201920185949391926107ea565b6001602081926108378561156d565b8152019201920191906107bb565b34610296576108533661126a565b9161085c61173c565b50610867828261136b565b835f5260205260018060a01b0360405f2054161561025f57906108899161136b565b905f5260205260405f2060405161089f81611418565b81546001600160a01b038116825260a01c60ff1615156020820190815291610906906108cd9060010161175b565b604083019081526040519384936020855260018060a01b03905116602085015251151560408401525160608084015260808301906112d2565b0390f35b346102965760203660031901126102965761094261092e610929611224565b611619565b60405192839260408452604084019061130f565b9060208301520390f35b346102965761095a3661129c565b604051929360a084016001600160401b03811185821017610a7c576040525f845260208401945f86526040850191606083526060860193606085526080870195606087526109a8848461136b565b815f5260205260405f20936109bd818561136b565b835f5260205260405f209360018060a01b038654161561025f5784546001600160a01b031615610a5f575050610906969593600180610a3995610a4c9895610a0b958d528d52019101611b16565b875284528152604051978897602089525160208901525160408801525160a0606088015260c08701906112d2565b9051858203601f190160808701526112d2565b9051838203601f190160a08501526112d2565b61027c84604051938493630f96684f60e31b8552600485016113fb565b634e487b7160e01b5f52604160045260245ffd5b34610296576020366003190112610296576004356001600160401b03811161029657610ac09036906004016111f7565b610aca8183611333565b54918215610af95790610adc9161136b565b905f52602052602060018060a01b0360405f205416604051908152f35b90610b1e604051928392630f96684f60e31b84526040600485015260448401916113db565b5f60248301520390fd5b3461029657610b40610b393661126a565b929161136b565b905f52602052602060018060a01b0360405f2054161515604051908152f35b3461029657602036600319011261029657610b90610b7b611224565b610b84816114b9565b600181541790556114b9565b60028154179055604051608081018181106001600160401b03821117610a7c57604090815262154ddd60e01b8252633e110fa960e21b6020830152635a172f9360e11b908201526342051def60e01b60608201525f5b6004811015610c385760019063ffffffff60e01b8160051b840151165f527f35edad4c931e57ec40cedc90b9e3e052832d1b49c07eb789b019aea9b39c91da60205260405f2082815417905501610be6565b005b3461029657610c483661126a565b9091610c54838261136b565b825f5260205260018060a01b0360405f205416918215610c7957602083604051908152f35b604051630f96684f60e31b81529384935061027c92600485016113fb565b5034610296576060366003190112610296576004356001600160401b03811161029657610cc89036906004016111f7565b6024356001600160a01b0381169392909190848303610296576044356001600160401b03811161029657610d0090369060040161123a565b93909463ffffffff60e01b16610d168133611a26565b15610280575082156111e85785156111d95783156111ca57610d388383611333565b54946001860180961161022157610d4f848461136b565b865f5260205260018060a01b0360405f2054166111ab57604051610d7281611418565b878152602081015f8152610d8587611454565b92610d936040519485611433565b87845260208401908860051b81019036821161029657915b81831061118a575050509060019160408201938452610dca878761136b565b895f5260205260405f2091838060a01b039051166bffffffffffffffffffffffff60a01b83541617825551151581549060ff60a01b9060a01b169060ff60a01b19161781550190518051906001600160401b038211610a7c57600160401b8211610a7c57602090835483855580841061113c575b5001915f5260205f208160031c915f5b8381106110f1575060071981169003806110a0575b50505050610e7c9085610e768585611333565b55611481565b805460ff1916600117905560ff610e9383836113a3565b541615610ee8575b60406020958594937f5c131836ed58997fd5804a1f55436ccbfc64fd3ebe228b578162a105d2684b8b93818451928392833781015f815203902093825191825287820152a3604051908152f35b939291905f516020611d125f395f51905f5254600160401b811015610a7c57806001610f2392015f516020611d125f395f51905f52556114f1565b95909561108d576001600160401b038211610a7c5785610f4560209754611535565b601f8111611054575b505f601f8411600114610fcc5792604092869792827f5c131836ed58997fd5804a1f55436ccbfc64fd3ebe228b578162a105d2684b8b965f91610fc1575b508360011b905f198560031b1c19161790555b610fa982826113a3565b600160ff198254161790559350939450955050610e9b565b90508201355f610f8c565b601f19841690825f52885f20915f5b81811061103d5750928592604095927f5c131836ed58997fd5804a1f55436ccbfc64fd3ebe228b578162a105d2684b8b978a9b9610611024575b5050600183811b019055610f9f565b8301355f19600386901b60f8161c191690555f80611015565b91928a600181928689013581550194019201610fdb565b61107d90825f52885f20601f860160051c8101918a8710611083575b601f0160051c019061146b565b5f610f4e565b9091508190611070565b634e487b7160e01b5f525f60045260245ffd5b925f935f5b8181106110bc575050500155610e7c5f8080610e63565b90919460206110e7600192885160e01c908560021b63ffffffff809160031b9316831b921b19161790565b96019291016110a5565b5f5f5b60088110611109575083820155600101610e4e565b95906020611133600192845160e01c908a60021b63ffffffff809160031b9316831b921b19161790565b920196016110f4565b61116a90855f52835f20600780870160031c820192601c8860021b1680611170575b500160031c019061146b565b5f610e3e565b5f198501908154905f19908a0360031b1c1690555f61115e565b82356001600160e01b03198116810361029657815260209283019201610dab565b505061027c84604051938493630617dd2360e51b8552600485016113fb565b633c733a5b60e11b5f5260045ffd5b6339a0084560e21b5f5260045ffd5b63728301c360e11b5f5260045ffd5b9181601f84011215610296578235916001600160401b038311610296576020838186019501011161029657565b600435906001600160a01b038216820361029657565b9181601f84011215610296578235916001600160401b038311610296576020808501948460051b01011161029657565b604060031982011261029657600435906001600160401b03821161029657611294916004016111f7565b909160243590565b606060031982011261029657600435906001600160401b038211610296576112c6916004016111f7565b90916024359060443590565b90602080835192838152019201905f5b8181106112ef5750505090565b82516001600160e01b0319168452602093840193909201916001016112e2565b805180835260209291819084018484015e5f828201840152601f01601f1916010190565b60209082604051938492833781017fc895c0acfab15e871ef9bd016962acf11162210bbc5e3cba510597a251151abb81520301902090565b60209082604051938492833781017fc895c0acfab15e871ef9bd016962acf11162210bbc5e3cba510597a251151aba81520301902090565b60209082604051938492833781017fc895c0acfab15e871ef9bd016962acf11162210bbc5e3cba510597a251151abe81520301902090565b908060209392818452848401375f828201840152601f01601f1916010190565b939291602091611413916040875260408701916113db565b930152565b606081019081106001600160401b03821117610a7c57604052565b90601f801991011681019081106001600160401b03821117610a7c57604052565b6001600160401b038111610a7c5760051b60200190565b818110611476575050565b5f815560010161146b565b6001600160a01b03165f9081527fc895c0acfab15e871ef9bd016962acf11162210bbc5e3cba510597a251151abc6020526040902090565b6001600160a01b03165f9081527f35edad4c931e57ec40cedc90b9e3e052832d1b49c07eb789b019aea9b39c91d96020526040902090565b5f516020611d125f395f51905f5254811015611521575f516020611d125f395f51905f525f5260205f2001905f90565b634e487b7160e01b5f52603260045260245ffd5b90600182811c92168015611563575b602083101461154f57565b634e487b7160e01b5f52602260045260245ffd5b91607f1691611544565b9060405191825f82549261158084611535565b80845293600181169081156115eb57506001146115a7575b506115a592500383611433565b565b90505f9291925260205f20905f915b8183106115cf5750509060206115a5928201015f611598565b60209193508060019154838589010152019101909184926115b6565b9050602092506115a594915060ff191682840152151560051b8201015f611598565b8015610221575f190190565b60ff61162482611481565b54161561172d575f516020611d125f395f51905f52545f5b81811061165c57505050604051611654602082611433565b5f8152905f90565b61166e611668826114f1565b5061156d565b60405190805191602081818401948086835e81017fc895c0acfab15e871ef9bd016962acf11162210bbc5e3cba510597a251151abb81520301902054805b6116bb5750505060010161163c565b60405160208184518087835e7fc895c0acfab15e871ef9bd016962acf11162210bbc5e3cba510597a251151aba908201908152030190205f82815260209190915260409020546001600160a01b038781169116146117225761171c9061160d565b806116ac565b959450925050509190565b50604051611654602082611433565b6040519061174982611418565b60606040835f81525f60208201520152565b90604051918281549182825260208201905f5260205f20925f905b8060078301106118b8576115a5945491818110611899575b81811061187a575b81811061185b575b81811061183c575b81811061181d575b8181106117fe575b8181106117e1575b106117cc575b500383611433565b6001600160e01b03191681526020015f6117c4565b602083811b6001600160e01b0319168552909301926001016117be565b604083901b6001600160e01b03191684526020909301926001016117b6565b606083901b6001600160e01b03191684526020909301926001016117ae565b608083901b6001600160e01b03191684526020909301926001016117a6565b60a083901b6001600160e01b031916845260209093019260010161179e565b60c083901b6001600160e01b0319168452602090930192600101611796565b60e083901b6001600160e01b031916845260209093019260010161178e565b916008919350610100600191865463ffffffff60e01b8160e01b16825263ffffffff60e01b8160c01b16602083015263ffffffff60e01b8160a01b16604083015263ffffffff60e01b8160801b16606083015263ffffffff60e01b8160601b16608083015263ffffffff60e01b8160401b1660a083015263ffffffff60e01b8160201b1660c083015263ffffffff60e01b1660e0820152019401920185929391611776565b5f1981146102215760010190565b8051156115215760200190565b80518210156115215760209160051b010190565b91908110156115215760051b81013590605e1981360301821215610296570190565b905f5b8181106119c057505050600190565b60206119cd82848661198c565b0135600381101561029657600214611a1e576119ea81838561198c565b356001600160a01b038116810361029657611a0660ff91611481565b541615611a17576001905b016119b1565b5050505f90565b600190611a11565b611a2f816114b9565b549163ffffffff60e01b165f527f35edad4c931e57ec40cedc90b9e3e052832d1b49c07eb789b019aea9b39c91da60205260405f2054908115611abb576001600160a01b03165f9081527f35edad4c931e57ec40cedc90b9e3e052832d1b49c07eb789b019aea9b39c91d960205260409020546001161580159290611ab357505090565b161515919050565b505050600190565b90611acd82611454565b611ada6040519182611433565b8281528092611aeb601f1991611454565b0190602036910137565b9190918054831015611521575f52601c60205f208360031c019260021b1690565b918154611b2281611ac3565b92845494611b2f86611ac3565b9483871015611c8457611b4187611ac3565b965f925f94895f975f5b818110611bec575050505f5b838110611b86575050505091611b74611b7a92611b809594611ccc565b95611ccc565b94611ccc565b91929190565b80611ba683611b9760019487611af5565b90549060031b1c60e01b611c8d565b15611bb2575b01611b57565b611bbc8185611af5565b90549060031b1c60e01b611bd9611bd28a61195d565b998d611978565b6001600160e01b03199091169052611bac565b909198611bfd85611b978487611af5565b15611c455790600191611c2d611c138387611af5565b90549060031b1c60e01b91611c278161195d565b9c611978565b6001600160e01b031990911690525b01908b91611b4b565b985080611c5460019285611af5565b90549060031b1c60e01b611c71611c6a8a61195d565b9989611978565b6001600160e01b03199091169052611c3c565b611b4184611ac3565b5f5b8254811015611a1757611ca28184611af5565b63ffffffff60e01b91549060031b1c60e01b1663ffffffff60e01b831614611abb57600101611c8f565b9190611cd781611ac3565b905f5b818110611ce8575090925050565b6001906001600160e01b0319611cfe8288611978565b5116611d0a8286611978565b5201611cda56fec895c0acfab15e871ef9bd016962acf11162210bbc5e3cba510597a251151abda26469706673582212205bfac647eaf59c1ddec7d9527a1bdfe60aa17ab436011b6ff84427ff4025694564736f6c634300081e0033","linkReferences":{}},"methodIdentifiers":{"REGISTRY_ADMIN_ROLE()":"bf584c4b","RegistryCore_init(address)":"42051def","deprecateFacet(string,uint256)":"b42e5f26","getAllFacetNames()":"9a4d6cc5","getFacetAddress(string,uint256)":"2f3f74f7","getFacetByAddress(address)":"82d8bf20","getFacetSelectors(string,uint256)":"bcefb8b9","getFacetVersion(string,uint256)":"8b6214dd","getLatestFacetAddress(string)":"5f651307","getLatestVersion(string)":"cae96761","getUpgradeCuts(string,uint256,uint256)":"b3084906","getUpgradeInfo(string,uint256,uint256)":"7b231707","isFacetAddressRegistered(address)":"cefc7c73","isFacetRegistered(string,uint256)":"51d2ffb1","registerFacet(string,address,bytes4[])":"00154ddd","removeFacet(string,uint256)":"f8443ea4","validateFacetCuts((address,uint8,bytes4[])[])":"b630e87f"},"id":53}