{"abi":[{"type":"function","name":"ROFR_init","inputs":[{"name":"_token","type":"address","internalType":"address"},{"name":"_admin","type":"address","internalType":"address"},{"name":"_defaultRofrDuration","type":"uint256","internalType":"uint256"}],"outputs":[],"stateMutability":"nonpayable"},{"type":"function","name":"activeRequestBySeller","inputs":[{"name":"","type":"address","internalType":"address"}],"outputs":[{"name":"","type":"uint256","internalType":"uint256"}],"stateMutability":"view"},{"type":"function","name":"approveTransfer","inputs":[{"name":"requestId","type":"uint256","internalType":"uint256"}],"outputs":[],"stateMutability":"nonpayable"},{"type":"function","name":"approvedTransfers","inputs":[{"name":"","type":"address","internalType":"address"},{"name":"","type":"address","internalType":"address"}],"outputs":[{"name":"","type":"uint256","internalType":"uint256"}],"stateMutability":"view"},{"type":"function","name":"cancelRequest","inputs":[{"name":"requestId","type":"uint256","internalType":"uint256"}],"outputs":[],"stateMutability":"nonpayable"},{"type":"function","name":"defaultRofrDuration","inputs":[],"outputs":[{"name":"","type":"uint256","internalType":"uint256"}],"stateMutability":"view"},{"type":"function","name":"executeTransfer","inputs":[{"name":"requestId","type":"uint256","internalType":"uint256"}],"outputs":[],"stateMutability":"nonpayable"},{"type":"function","name":"exerciseROFR","inputs":[{"name":"requestId","type":"uint256","internalType":"uint256"}],"outputs":[],"stateMutability":"nonpayable"},{"type":"function","name":"getRequest","inputs":[{"name":"requestId","type":"uint256","internalType":"uint256"}],"outputs":[{"name":"","type":"tuple","internalType":"struct ROFRModule.TransferRequest","components":[{"name":"id","type":"uint256","internalType":"uint256"},{"name":"seller","type":"address","internalType":"address"},{"name":"proposedBuyer","type":"address","internalType":"address"},{"name":"currentBuyer","type":"address","internalType":"address"},{"name":"amount","type":"uint256","internalType":"uint256"},{"name":"pricePerToken","type":"uint256","internalType":"uint256"},{"name":"paymentToken","type":"address","internalType":"address"},{"name":"status","type":"uint8","internalType":"enum ROFRModule.TransferRequestStatus"},{"name":"rofrExpiresAt","type":"uint256","internalType":"uint256"},{"name":"rofrExercisedBy","type":"address","internalType":"address"},{"name":"createdAt","type":"uint256","internalType":"uint256"},{"name":"rejectionReason","type":"string","internalType":"string"}]}],"stateMutability":"view"},{"type":"function","name":"isTransferApproved","inputs":[{"name":"seller","type":"address","internalType":"address"},{"name":"buyer","type":"address","internalType":"address"},{"name":"amount","type":"uint256","internalType":"uint256"}],"outputs":[{"name":"","type":"bool","internalType":"bool"}],"stateMutability":"view"},{"type":"function","name":"moduleName","inputs":[],"outputs":[{"name":"","type":"string","internalType":"string"}],"stateMutability":"pure"},{"type":"function","name":"moduleVersion","inputs":[],"outputs":[{"name":"","type":"string","internalType":"string"}],"stateMutability":"pure"},{"type":"function","name":"nextRequestId","inputs":[],"outputs":[{"name":"","type":"uint256","internalType":"uint256"}],"stateMutability":"view"},{"type":"function","name":"processTransfer","inputs":[{"name":"from","type":"address","internalType":"address"},{"name":"to","type":"address","internalType":"address"},{"name":"","type":"bytes32","internalType":"bytes32"},{"name":"quantity","type":"uint256","internalType":"uint256"}],"outputs":[],"stateMutability":"nonpayable"},{"type":"function","name":"rejectTransfer","inputs":[{"name":"requestId","type":"uint256","internalType":"uint256"},{"name":"reason","type":"string","internalType":"string"}],"outputs":[],"stateMutability":"nonpayable"},{"type":"function","name":"requestTransfer","inputs":[{"name":"buyer","type":"address","internalType":"address"},{"name":"amount","type":"uint256","internalType":"uint256"},{"name":"pricePerToken","type":"uint256","internalType":"uint256"},{"name":"paymentToken","type":"address","internalType":"address"}],"outputs":[{"name":"requestId","type":"uint256","internalType":"uint256"}],"stateMutability":"nonpayable"},{"type":"function","name":"requests","inputs":[{"name":"","type":"uint256","internalType":"uint256"}],"outputs":[{"name":"id","type":"uint256","internalType":"uint256"},{"name":"seller","type":"address","internalType":"address"},{"name":"proposedBuyer","type":"address","internalType":"address"},{"name":"currentBuyer","type":"address","internalType":"address"},{"name":"amount","type":"uint256","internalType":"uint256"},{"name":"pricePerToken","type":"uint256","internalType":"uint256"},{"name":"paymentToken","type":"address","internalType":"address"},{"name":"status","type":"uint8","internalType":"enum ROFRModule.TransferRequestStatus"},{"name":"rofrExpiresAt","type":"uint256","internalType":"uint256"},{"name":"rofrExercisedBy","type":"address","internalType":"address"},{"name":"createdAt","type":"uint256","internalType":"uint256"},{"name":"rejectionReason","type":"string","internalType":"string"}],"stateMutability":"view"},{"type":"function","name":"setDefaultRofrDuration","inputs":[{"name":"duration","type":"uint256","internalType":"uint256"}],"outputs":[],"stateMutability":"nonpayable"},{"type":"function","name":"startROFRPeriod","inputs":[{"name":"requestId","type":"uint256","internalType":"uint256"},{"name":"duration","type":"uint256","internalType":"uint256"}],"outputs":[],"stateMutability":"nonpayable"},{"type":"function","name":"token","inputs":[],"outputs":[{"name":"","type":"address","internalType":"address"}],"stateMutability":"view"},{"type":"function","name":"validateTransfer","inputs":[{"name":"from","type":"address","internalType":"address"},{"name":"to","type":"address","internalType":"address"},{"name":"","type":"bytes32","internalType":"bytes32"},{"name":"quantity","type":"uint256","internalType":"uint256"}],"outputs":[{"name":"","type":"bool","internalType":"bool"}],"stateMutability":"view"},{"type":"event","name":"ROFRExercised","inputs":[{"name":"requestId","type":"uint256","indexed":true,"internalType":"uint256"},{"name":"exercisedBy","type":"address","indexed":true,"internalType":"address"},{"name":"originalBuyer","type":"address","indexed":true,"internalType":"address"}],"anonymous":false},{"type":"event","name":"ROFRPeriodStarted","inputs":[{"name":"requestId","type":"uint256","indexed":true,"internalType":"uint256"},{"name":"expiresAt","type":"uint256","indexed":false,"internalType":"uint256"},{"name":"duration","type":"uint256","indexed":false,"internalType":"uint256"}],"anonymous":false},{"type":"event","name":"TransferApproved","inputs":[{"name":"requestId","type":"uint256","indexed":true,"internalType":"uint256"},{"name":"buyer","type":"address","indexed":false,"internalType":"address"}],"anonymous":false},{"type":"event","name":"TransferCancelled","inputs":[{"name":"requestId","type":"uint256","indexed":true,"internalType":"uint256"}],"anonymous":false},{"type":"event","name":"TransferCompleted","inputs":[{"name":"requestId","type":"uint256","indexed":true,"internalType":"uint256"},{"name":"seller","type":"address","indexed":true,"internalType":"address"},{"name":"buyer","type":"address","indexed":true,"internalType":"address"},{"name":"amount","type":"uint256","indexed":false,"internalType":"uint256"},{"name":"totalPrice","type":"uint256","indexed":false,"internalType":"uint256"}],"anonymous":false},{"type":"event","name":"TransferRejected","inputs":[{"name":"requestId","type":"uint256","indexed":true,"internalType":"uint256"},{"name":"reason","type":"string","indexed":false,"internalType":"string"}],"anonymous":false},{"type":"event","name":"TransferRequested","inputs":[{"name":"requestId","type":"uint256","indexed":true,"internalType":"uint256"},{"name":"seller","type":"address","indexed":true,"internalType":"address"},{"name":"proposedBuyer","type":"address","indexed":true,"internalType":"address"},{"name":"amount","type":"uint256","indexed":false,"internalType":"uint256"},{"name":"pricePerToken","type":"uint256","indexed":false,"internalType":"uint256"},{"name":"paymentToken","type":"address","indexed":false,"internalType":"address"}],"anonymous":false},{"type":"event","name":"UserRoleUpdated","inputs":[{"name":"user","type":"address","indexed":true,"internalType":"address"},{"name":"role","type":"uint8","indexed":true,"internalType":"uint8"},{"name":"enabled","type":"bool","indexed":false,"internalType":"bool"}],"anonymous":false},{"type":"error","name":"AccessControl_CallerIsNotAuthorized","inputs":[{"name":"caller","type":"address","internalType":"address"},{"name":"functionSig","type":"bytes4","internalType":"bytes4"}]},{"type":"error","name":"ROFR_ActiveRequestExists","inputs":[]},{"type":"error","name":"ROFR_AlreadyInitialized","inputs":[]},{"type":"error","name":"ROFR_InvalidAmount","inputs":[]},{"type":"error","name":"ROFR_InvalidBuyer","inputs":[]},{"type":"error","name":"ROFR_InvalidPrice","inputs":[]},{"type":"error","name":"ROFR_InvalidStatus","inputs":[]},{"type":"error","name":"ROFR_InvalidToken","inputs":[]},{"type":"error","name":"ROFR_NotEligibleForROFR","inputs":[]},{"type":"error","name":"ROFR_NotInitialized","inputs":[]},{"type":"error","name":"ROFR_NotSeller","inputs":[]},{"type":"error","name":"ROFR_PaymentFailed","inputs":[]},{"type":"error","name":"ROFR_ROFRPeriodExpired","inputs":[]},{"type":"error","name":"ROFR_ROFRPeriodNotExpired","inputs":[]},{"type":"error","name":"ROFR_RequestNotFound","inputs":[]},{"type":"error","name":"ROFR_TransferNotApproved","inputs":[]},{"type":"error","name":"SafeERC20FailedOperation","inputs":[{"name":"token","type":"address","internalType":"address"}]}],"bytecode":{"object":"0x60808060405234601557611877908161001a8239f35b5f80fdfe6080806040526004361015610012575f80fd5b5f358060e01c9182631ac7983914611349575081631d2a04121461118e5781633015394c146110d9578163447a826714610d6e5781634dded2ce14610d3c578163559a6e0c14610c6c5781636a84a98514610c4f5781636b43c9e414610a3057816381d12c581461094557816393f0899a146108f9578163962b1559146108d4578163a4994e6114610877578163b07a29f414610838578163b949b6da14610800578163baa3b4d7146107b9578163c58343ef146105d9578163cacca4a01461049657508063e00e83c314610429578063ef113c8214610356578063f05d5752146101305763fc0c546a14610105575f80fd5b3461012c575f36600319011261012c575f546040516001600160a01b039091168152602090f35b5f80fd5b3461012c57602036600319011261012c5760043560ff600354161561034757805f52600460205260405f20805415610338576006810191825460ff8160a01c1660078110156103245760028114159081610318575b50610309576003830180549093906001600160a01b031633036102fa57600481019485546005830154908181029181830414901517156102e657670de0b6b3a76400006001910493818060a01b031692019160205f60018060a01b03855416604051838101916323b872dd60e01b83523360248301526044820152876064820152606481526102156084826113ce565b519082855af1156102db575f513d6102d25750803b155b6102c0575081546001600160a01b039081165f90815260066020908152604080832089548516845282528083208390558554841683526005825280832092909255835460ff60a01b1916600560a01b179093559254955496548351908152918201939093529482169493909116927f5852a8597c05e2681eb281fe81056592279d6f90c8fc19d11ee05a23707fcd629190a4005b635274afe760e01b5f5260045260245ffd5b6001141561022c565b6040513d5f823e3d90fd5b634e487b7160e01b5f52601160045260245ffd5b6321aa66df60e01b5f5260045ffd5b63051e77c160e41b5f5260045ffd5b60039150141585610185565b634e487b7160e01b5f52602160045260245ffd5b63190533d160e21b5f5260045ffd5b6324bd972f60e01b5f5260045ffd5b3461012c57610364366114ff565b6003549260ff841661041a576001600160a01b0316801561040c5760015f9460ff1916176003556bffffffffffffffffffffffff60a01b845416178355600255600180556103ce8160018060a01b03165f525f5160206118225f395f51905f5260205260405f2090565b600181541790557f4c9bdd0c8e073eb5eda2250b18d8e5121ff27b62064fbeeeed4869bb99bc5bf26020604051926001845260018060a01b031692a3005b621dff8560e11b5f5260045ffd5b630a9c53e360e21b5f5260045ffd5b3461012c57610437366114c1565b92905060018060a01b0316805f52600660205260405f2060018060a01b0383165f526020528260405f2054101561046a57005b5f52600660205260405f209060018060a01b03165f5260205260405f2080549182039182116102e65755005b3461012c57602036600319011261012c57600435906001600160e01b0319166104bf81336115d1565b156105c3575060ff600354161561034757805f52600460205260405f20805415610338576006810160ff815460a01c1660078110156103245760018103610595575060078201544210610586577fa4269914b1afdc8f7e4c3aa6794f0de6e37f00884fb97ea9288a1d68ba7de67b916020915b805460ff60a01b1916600160a11b179055600481015460018201546001600160a01b039081165f908152600685526040808220600390950180548416835294865290819020929092559154905191168152a2005b632245981560e11b5f5260045ffd5b610309577fa4269914b1afdc8f7e4c3aa6794f0de6e37f00884fb97ea9288a1d68ba7de67b91602091610532565b631d64bc3360e11b5f523360045260245260445ffd5b3461012c57602036600319011261012c5760606101606040516105fb816113b1565b5f81525f60208201525f60408201525f838201525f60808201525f60a08201525f60c08201525f60e08201525f6101008201525f6101208201525f61014082015201526004355f52600460205260405f2060405190610659826113b1565b8054825260018101546001600160a01b039081166020840190815260028301548216604085019081526003840154831660608601908152600485015460808701908152600586015460a0808901918252600688015496871660c08a0190815291989597929693949293901c60ff169060e08601906007831015610324576040996107b59888976107849585526007880154966101008a01978852610721600a60018060a01b0360088c0154169a6101208d019b8c5261014060098201549d019c8d52016113f0565b6101608c019081528e5160208082529c519c81019c909c529c516001600160a01b039081169e8c019e909e52518d1660608b0152518c1660808a01525160a08901525160c08801525190981660e086015296519396879694610100880190611490565b51610120860152516001600160a01b03166101408501525161016084015251610180808401526101a083019061149d565b0390f35b3461012c575f36600319011261012c576107b56040516107da6040826113ce565b60058152640312e302e360dc1b602082015260405191829160208352602083019061149d565b3461012c57602036600319011261012c576001600160a01b03610821611363565b165f526005602052602060405f2054604051908152f35b3461012c576020610848366114ff565b6001600160a01b039283165f908152600685526040808220939094168152918452908290205491519110158152f35b3461012c57604036600319011261012c57610890611363565b602435906001600160a01b038216820361012c5760018060a01b03165f52600660205260405f209060018060a01b03165f52602052602060405f2054604051908152f35b3461012c5760206108ef6108e7366114c1565b929050611588565b6040519015158152f35b3461012c575f36600319011261012c576107b560405161091a6040826113ce565b600a815269524f46524d6f64756c6560b01b602082015260405191829160208352602083019061149d565b3461012c57602036600319011261012c576004355f52600460205260405f2080546107b560018060a01b036001840154169260018060a01b036002820154169060018060a01b036003820154166004820154610a0a600584015460068501549060078601549360018060a01b03600888015416956109ca600a60098a015499016113f0565b986040519c8d9c8d5260208d015260408c015260608b015260808a015260a089015260018060a01b03811660c089015260ff60e089019160a01c16611490565b61010086015261012085015261014084015261018061016084015261018083019061149d565b3461012c57604036600319011261012c5760043560243567ffffffffffffffff811161012c573660238201121561012c5780600401359267ffffffffffffffff841161012c57366024858401011161012c576001600160e01b031916610a9681336115d1565b156105c3575060ff600354161561034757815f52600460205260405f2092835415610338576006840160ff815460a01c166007811015610324578015159081610c43575b5061030957600160a21b60ff60a01b19825416179055600a840193610b0982610b038754611379565b87611539565b5f94601f8311600114610bb3579160249391604093610b6083807f32e78b430148303a003af67ee84820e88511d2ef52034281f3a6ef17d56fac6f999a5f91610ba6575b508160011b915f199060031b1c19161790565b90555b6001808060a01b03910154165f5260056020525f838120558083519485936020855282602086015201848401375f828201840152601f01601f19168101030190a2005b899150870101358b610b4d565b601f198316815f5260205f20905f5b818110610c2857509160249593917f32e78b430148303a003af67ee84820e88511d2ef52034281f3a6ef17d56fac6f9798866040979510610c0d575b5050600183811b019055610b63565b85018701355f19600386901b60f8161c191690558880610bfe565b86890160240135835560209889019860019093019201610bc2565b60019150141586610ada565b3461012c575f36600319011261012c576020600154604051908152f35b3461012c57604036600319011261012c5760043590602435906001600160e01b031916610c9981336115d1565b156105c3575060ff600354161561034757815f52600460205260405f2080541561033857600681019160ff835460a01c16600781101561032457610309578015610d3257915b805460ff60a01b1916600160a01b179055428083019081106102e6577f18aabb4fe6e22f52793918c17f8523652ec655f00d70208ab6220ab4268488e592816007604094015582519182526020820152a2005b5060025491610cdf565b3461012c57602036600319011261012c576001600160e01b031916610d6181336115d1565b156105c357600435600255005b3461012c57608036600319011261012c57610d87611363565b6064356001600160a01b038116810361012c5760ff6003541615610347576001600160a01b038216156102fa57602435156110ca57604435156110bb57335f52600560205260405f20546110ad57600154905f1982146102e6576001820160015560405192610df5846113b1565b828452336020808601919091526001600160a01b0382811660408088018290526060880191909152602435608088015260443560a088015290841660c08701525f60e08701819052610100870181905261012087015242610140870152519094610e5f86836113ce565b5f808352610160820192835285815260048088526040918290208351815560208401516001820180546001600160a01b03199081166001600160a01b03938416179091559385015160028301805486169183169190911790556060850151600383018054861691831691909117905560808501519282019290925560a0840151600582015560c0840151600682018054909416921691909117825560e08301519192909190600782101561032457835460ff60a01b191660a09290921b60ff60a01b169190911790925561010082015160078201556101208201516008820180546001600160a01b0319166001600160a01b03929092169190911790556101409190910151600982015590518051600a92909201919067ffffffffffffffff821161109957610f9882610f928554611379565b85611539565b8690601f831160011461103657610fc692915f918361102b575b50508160011b915f199060031b1c19161790565b90555b335f52600584528260405f20556040519160243583526044358584015260018060a01b0316604083015260018060a01b031690827f5c305e799a867c1f9a632629eba8ba08f423e4350397ef18fee1cbb4632df2c560603393a4604051908152f35b015190508880610fb2565b90601f19831691845f52885f20925f5b8a82821061108357505090846001959493921061106b575b505050811b019055610fc9565b01515f1960f88460031b161c1916905587808061105e565b6001859682939686015181550195019301611046565b634e487b7160e01b5f52604160045260245ffd5b627529af60e11b5f5260045ffd5b634a72564b60e01b5f5260045ffd5b63b74c6c2f60e01b5f5260045ffd5b3461012c57602036600319011261012c5760043560ff600354161561034757805f52600460205260405f208054156103385760018101546001600160a01b0316330361117f5760060160ff815460a01c1660078110156103245761030957805460ff60a01b1916600360a11b179055335f9081526005602052604081208190557f80325e888c1c82b732ed61a3aaa950ae32a233290f74a648d1a33396664503459080a2005b63799ea7af60e01b5f5260045ffd5b3461012c57602036600319011261012c5760043560ff600354161561034757805f52600460205260405f20805415610338576006810160ff815460a01c1660078110156103245760010361030957600782015442101561133a575f80546040516370a0823160e01b6020820190815233602480840191909152825283926001600160a01b0316916112206044826113ce565b51915afa3d15611332573d9067ffffffffffffffff82116110995760405191611253601f8201601f1916602001846113ce565b82523d5f602084013e5b156113235760208180518101031261012c57602001511561132357600182019060018060a01b03825416331461132357805460ff60a01b1916600360a01b1790556008820180546001600160a01b03199081163390811790925560038401805490911682179055600483015491546001600160a01b039081165f90815260066020908152604080832085845290915281209390935560029093015490921692907f490aab174f797ef0cf9f00a16575d0b299467e395ac06936a2cd3529e2560f7f9080a4005b63342e338d60e01b5f5260045ffd5b60609061125d565b6311688df160e01b5f5260045ffd5b3461012c575f36600319011261012c576020906002548152f35b600435906001600160a01b038216820361012c57565b90600182811c921680156113a7575b602083101461139357565b634e487b7160e01b5f52602260045260245ffd5b91607f1691611388565b610180810190811067ffffffffffffffff82111761109957604052565b90601f8019910116810190811067ffffffffffffffff82111761109957604052565b9060405191825f82549261140384611379565b808452936001811690811561146e575060011461142a575b50611428925003836113ce565b565b90505f9291925260205f20905f915b818310611452575050906020611428928201015f61141b565b6020919350806001915483858901015201910190918492611439565b90506020925061142894915060ff191682840152151560051b8201015f61141b565b9060078210156103245752565b805180835260209291819084018484015e5f828201840152601f01601f1916010190565b608090600319011261012c576004356001600160a01b038116810361012c57906024356001600160a01b038116810361012c57906044359060643590565b606090600319011261012c576004356001600160a01b038116810361012c57906024356001600160a01b038116810361012c579060443590565b601f821161154657505050565b5f5260205f20906020601f840160051c8301931061157e575b601f0160051c01905b818110611573575050565b5f8155600101611568565b909150819061155f565b6001600160a01b031680156115c9576001600160a01b038216156115c9575f52600660205260405f209060018060a01b03165f5260205260405f2054101590565b505050600190565b816115db91611622565b61161c577f511915e52b7f9e690b9fdc662acaf5600fd3722c87eb951d3abd26e93a784dca5c9060ff82166116105750505f90565b611619916117cc565b90565b50600190565b7fce1c17acaaa67de66e928cd49c8f658667a825223bee6fda99a14908362bcdac546001600160a01b031680611721575b506001600160a01b0381165f9081525f5160206118225f395f51905f5260205260409020549163ffffffff60e01b165f527fce1c17acaaa67de66e928cd49c8f658667a825223bee6fda99a14908362bcdab60205260405f20549081156116f0576001600160a01b03165f9081525f5160206118225f395f51905f52602052604090205460011615159182156116e857505090565b161515919050565b6001600160a01b03165f9081525f5160206118225f395f51905f526020526040902054600116151591506116199050565b6040805163b700961360e01b81526001600160a01b03841660048201523060248201526001600160e01b03198516604482015291829060649082905afa5f918161177d575b501561165357611776575f611653565b5050600190565b9091506040813d6040116117c4575b81611799604093836113ce565b8101031261012c57805190811515820361012c576020015163ffffffff81160361012c57905f611766565b3d915061178c565b60ff169081156117765763ffffffff60e01b165f527fce1c17acaaa67de66e928cd49c8f658667a825223bee6fda99a14908362bcdab60205260405f205490811561181b576001901b16151590565b50505f9056fece1c17acaaa67de66e928cd49c8f658667a825223bee6fda99a14908362bcdaaa26469706673582212204cfc670dd1f52827b6406ef744f19bbc265ff46b1feaaa8e5881bdeea92f33fe64736f6c634300081e0033","linkReferences":{}},"methodIdentifiers":{"ROFR_init(address,address,uint256)":"ef113c82","activeRequestBySeller(address)":"b949b6da","approveTransfer(uint256)":"cacca4a0","approvedTransfers(address,address)":"a4994e61","cancelRequest(uint256)":"3015394c","defaultRofrDuration()":"1ac79839","executeTransfer(uint256)":"f05d5752","exerciseROFR(uint256)":"1d2a0412","getRequest(uint256)":"c58343ef","isTransferApproved(address,address,uint256)":"b07a29f4","moduleName()":"93f0899a","moduleVersion()":"baa3b4d7","nextRequestId()":"6a84a985","processTransfer(address,address,bytes32,uint256)":"e00e83c3","rejectTransfer(uint256,string)":"6b43c9e4","requestTransfer(address,uint256,uint256,address)":"447a8267","requests(uint256)":"81d12c58","setDefaultRofrDuration(uint256)":"4dded2ce","startROFRPeriod(uint256,uint256)":"559a6e0c","token()":"fc0c546a","validateTransfer(address,address,bytes32,uint256)":"962b1559"},"id":240}