{"abi":[{"type":"function","name":"TokenMetadata_init","inputs":[{"name":"_name","type":"string","internalType":"string"},{"name":"_symbol","type":"string","internalType":"string"},{"name":"_decimals","type":"uint8","internalType":"uint8"},{"name":"_baseUri","type":"string","internalType":"string"}],"outputs":[],"stateMutability":"nonpayable"},{"type":"function","name":"allowance","inputs":[{"name":"owner","type":"address","internalType":"address"},{"name":"spender","type":"address","internalType":"address"}],"outputs":[{"name":"","type":"uint256","internalType":"uint256"}],"stateMutability":"view"},{"type":"function","name":"approve","inputs":[{"name":"spender","type":"address","internalType":"address"},{"name":"amount","type":"uint256","internalType":"uint256"}],"outputs":[{"name":"","type":"bool","internalType":"bool"}],"stateMutability":"nonpayable"},{"type":"function","name":"baseURI","inputs":[],"outputs":[{"name":"","type":"string","internalType":"string"}],"stateMutability":"view"},{"type":"function","name":"decimals","inputs":[],"outputs":[{"name":"","type":"uint8","internalType":"uint8"}],"stateMutability":"view"},{"type":"function","name":"name","inputs":[],"outputs":[{"name":"","type":"string","internalType":"string"}],"stateMutability":"view"},{"type":"function","name":"symbol","inputs":[],"outputs":[{"name":"","type":"string","internalType":"string"}],"stateMutability":"view"},{"type":"event","name":"Approval","inputs":[{"name":"owner","type":"address","indexed":true,"internalType":"address"},{"name":"spender","type":"address","indexed":true,"internalType":"address"},{"name":"value","type":"uint256","indexed":false,"internalType":"uint256"}],"anonymous":false},{"type":"error","name":"Token_AlreadyInitialized","inputs":[]}],"bytecode":{"object":"0x60808060405234601557610ae5908161001a8239f35b5f80fdfe60806040526004361015610011575f80fd5b5f3560e01c806306fdde03146108c5578063095ea7b31461082d578063313ce567146107ee5780636c0360eb1461071757806395d89b411461061f578063dd62ed3e146105a05763f116f3cc14610066575f80fd5b3461059c57608036600319011261059c5760043567ffffffffffffffff811161059c576100979036906004016109c9565b9060243567ffffffffffffffff811161059c576100b89036906004016109c9565b6044939193359060ff821680920361059c5760643567ffffffffffffffff811161059c576100ea9036906004016109c9565b9390945f516020610a305f395f51905f525490610106826109f7565b61058d5767ffffffffffffffff831161036e5761012383926109f7565b601f811161050f575b505f90601f8311600114610484575f92610479575b50508160011b915f199060031b1c1916175f516020610a305f395f51905f52555b67ffffffffffffffff811161036e576101885f516020610a705f395f51905f52546109f7565b601f811161040a575b505f601f821160011461038d5781929394955f92610382575b50508160011b915f199060031b1c1916175f516020610a705f395f51905f52555b60ff197f01c2455094cda0d5cdfedb8328ca92c26517e5682673870a2f9f06d0ec3f9ccb5416177f01c2455094cda0d5cdfedb8328ca92c26517e5682673870a2f9f06d0ec3f9ccb5567ffffffffffffffff811161036e5761023a5f516020610a505f395f51905f52546109f7565b601f81116102ff575b505f601f82116001146102885781925f9261027d575b50505f19600383901b1c191660019190911b175f516020610a505f395f51905f5255005b013590505f80610259565b601f198216925f516020610a505f395f51905f525f5260205f20915f5b8581106102e7575083600195106102ce575b505050811b015f516020610a505f395f51905f5255005b01355f19600384901b60f8161c191690555f80806102b7565b909260206001819286860135815501940191016102a5565b5f516020610a505f395f51905f525f527f78926ff2c6393c4af14ccf7ab4260f3ac7e5fe09de09064a81f8ccb9abf6658b601f830160051c81019160208410610364575b601f0160051c01905b8181106103595750610243565b5f815560010161034c565b9091508190610343565b634e487b7160e01b5f52604160045260245ffd5b013590505f806101aa565b601f198216955f516020610a705f395f51905f525f5260205f20915f5b8881106103f2575083600195969798106103d9575b505050811b015f516020610a705f395f51905f52556101cb565b01355f19600384901b60f8161c191690555f80806103bf565b909260206001819286860135815501940191016103aa565b5f516020610a705f395f51905f525f527fa50506b1cc74243a0a82c487e5574f42dc6f16a7c1dda2da8b2ff65e3d0564cb601f830160051c8101916020841061046f575b601f0160051c01905b8181106104645750610191565b5f8155600101610457565b909150819061044e565b013590505f80610141565b909150601f198316915f516020610a305f395f51905f525f525f516020610a905f395f51905f52925f5b8181106104f757509084600195949392106104de575b505050811b015f516020610a305f395f51905f5255610162565b01355f19600384901b60f8161c191690555f80806104c4565b919360206001819287870135815501950192016104ae565b9091505f516020610a305f395f51905f525f52601f830160051c5f516020610a905f395f51905f52019060208410610578575b90601f8493920160051c5f516020610a905f395f51905f5201905b81811061056a575061012c565b5f815584935060010161055d565b5f516020610a905f395f51905f529150610542565b6393e721db60e01b5f5260045ffd5b5f80fd5b3461059c57604036600319011261059c576105b96109b3565b602435906001600160a01b038216820361059c576001600160a01b03165f9081527f01c2455094cda0d5cdfedb8328ca92c26517e5682673870a2f9f06d0ec3f9ccd602052604090209060018060a01b03165f52602052602060405f2054604051908152f35b3461059c575f36600319011261059c576040515f5f516020610a705f395f51905f525461064b816109f7565b80845290600181169081156106fb5750600114610699575b50819003601f01601f191681019067ffffffffffffffff82118183101761036e57604082905281906106959082610989565b0390f35b5f516020610a705f395f51905f525f9081529091507fa50506b1cc74243a0a82c487e5574f42dc6f16a7c1dda2da8b2ff65e3d0564cb5b8282106106e557506020915082010182610663565b60018160209254838588010152019101906106d0565b90506020925060ff191682840152151560051b82010182610663565b3461059c575f36600319011261059c576040515f5f516020610a505f395f51905f5254610743816109f7565b80845290600181169081156106fb575060011461078c5750819003601f01601f191681019067ffffffffffffffff82118183101761036e57604082905281906106959082610989565b5f516020610a505f395f51905f525f9081529091507f78926ff2c6393c4af14ccf7ab4260f3ac7e5fe09de09064a81f8ccb9abf6658b5b8282106107d857506020915082010182610663565b60018160209254838588010152019101906107c3565b3461059c575f36600319011261059c57602060ff7f01c2455094cda0d5cdfedb8328ca92c26517e5682673870a2f9f06d0ec3f9ccb5416604051908152f35b3461059c57604036600319011261059c576108466109b3565b335f8181527f01c2455094cda0d5cdfedb8328ca92c26517e5682673870a2f9f06d0ec3f9ccd602090815260408083206001600160a01b03909516808452948252918290206024359081905591519182527f8c5be1e5ebec7d5bd14f71427d1e84f3dd0314c0f7b2291e5b200ac8c7c3b92591a3602060405160018152f35b3461059c575f36600319011261059c576040515f5f516020610a305f395f51905f52546108f1816109f7565b80845290600181169081156106fb575060011461093a5750819003601f01601f191681019067ffffffffffffffff82118183101761036e57604082905281906106959082610989565b5f516020610a305f395f51905f525f9081529091505f516020610a905f395f51905f525b82821061097357506020915082010182610663565b600181602092548385880101520191019061095e565b602060409281835280519182918282860152018484015e5f828201840152601f01601f1916010190565b600435906001600160a01b038216820361059c57565b9181601f8401121561059c5782359167ffffffffffffffff831161059c576020838186019501011161059c57565b90600182811c92168015610a25575b6020831014610a1157565b634e487b7160e01b5f52602260045260245ffd5b91607f1691610a0656fe01c2455094cda0d5cdfedb8328ca92c26517e5682673870a2f9f06d0ec3f9cc901c2455094cda0d5cdfedb8328ca92c26517e5682673870a2f9f06d0ec3f9ccc01c2455094cda0d5cdfedb8328ca92c26517e5682673870a2f9f06d0ec3f9cca5ca8217f63df75c66737b122001cc2c74a3e8e65c377075fc369ca2b9cd01899a264697066735822122096df67aa27e91421abc8b9ec4acef76683c10d195ff96fe4e1dbf21d229a67e664736f6c634300081e0033","linkReferences":{}},"methodIdentifiers":{"TokenMetadata_init(string,string,uint8,string)":"f116f3cc","allowance(address,address)":"dd62ed3e","approve(address,uint256)":"095ea7b3","baseURI()":"6c0360eb","decimals()":"313ce567","name()":"06fdde03","symbol()":"95d89b41"},"id":99}