{"abi":[{"type":"function","name":"adjustLot","inputs":[{"name":"oldLotId","type":"bytes32","internalType":"bytes32"},{"name":"newQuantity","type":"uint256","internalType":"uint256"},{"name":"newPaymentCurrency","type":"address","internalType":"address"},{"name":"newCostBasis","type":"uint256","internalType":"uint256"},{"name":"newAcquisitionDate","type":"uint256","internalType":"uint256"},{"name":"newUri","type":"string","internalType":"string"},{"name":"newData","type":"bytes","internalType":"bytes"},{"name":"reason","type":"string","internalType":"string"}],"outputs":[{"name":"newLotId","type":"bytes32","internalType":"bytes32"}],"stateMutability":"nonpayable"},{"type":"function","name":"consolidateLots","inputs":[{"name":"lotIds","type":"bytes32[]","internalType":"bytes32[]"}],"outputs":[{"name":"newLotId","type":"bytes32","internalType":"bytes32"}],"stateMutability":"nonpayable"},{"type":"function","name":"createLot","inputs":[{"name":"owner","type":"address","internalType":"address"},{"name":"quantity","type":"uint256","internalType":"uint256"},{"name":"paymentCurrency","type":"address","internalType":"address"},{"name":"costBasis","type":"uint256","internalType":"uint256"},{"name":"acquisitionDate","type":"uint256","internalType":"uint256"},{"name":"uri","type":"string","internalType":"string"},{"name":"data","type":"bytes","internalType":"bytes"},{"name":"customId","type":"uint256","internalType":"uint256"}],"outputs":[{"name":"lotId","type":"bytes32","internalType":"bytes32"},{"name":"assignedCustomId","type":"uint256","internalType":"uint256"}],"stateMutability":"nonpayable"},{"type":"function","name":"customIdToLotId","inputs":[{"name":"customId","type":"uint256","internalType":"uint256"}],"outputs":[{"name":"","type":"bytes32","internalType":"bytes32"}],"stateMutability":"view"},{"type":"function","name":"getLot","inputs":[{"name":"lotId","type":"bytes32","internalType":"bytes32"}],"outputs":[{"name":"","type":"tuple","internalType":"struct IToken.Lot","components":[{"name":"owner","type":"address","internalType":"address"},{"name":"paymentCurrency","type":"address","internalType":"address"},{"name":"isValid","type":"bool","internalType":"bool"},{"name":"tType","type":"uint8","internalType":"enum IToken.TransferType"},{"name":"quantity","type":"uint256","internalType":"uint256"},{"name":"costBasis","type":"uint256","internalType":"uint256"},{"name":"acquisitionDate","type":"uint256","internalType":"uint256"},{"name":"lastUpdate","type":"uint256","internalType":"uint256"},{"name":"parentLotId","type":"bytes32","internalType":"bytes32"},{"name":"uri","type":"string","internalType":"string"},{"name":"data","type":"bytes","internalType":"bytes"}]}],"stateMutability":"view"},{"type":"function","name":"getLotsOf","inputs":[{"name":"account","type":"address","internalType":"address"}],"outputs":[{"name":"","type":"bytes32[]","internalType":"bytes32[]"}],"stateMutability":"view"},{"type":"function","name":"getTaxStrategy","inputs":[{"name":"user","type":"address","internalType":"address"}],"outputs":[{"name":"","type":"uint8","internalType":"uint8"}],"stateMutability":"view"},{"type":"function","name":"invalidateLot","inputs":[{"name":"lotId","type":"bytes32","internalType":"bytes32"}],"outputs":[],"stateMutability":"nonpayable"},{"type":"function","name":"lotExists","inputs":[{"name":"lotId","type":"bytes32","internalType":"bytes32"}],"outputs":[{"name":"","type":"bool","internalType":"bool"}],"stateMutability":"view"},{"type":"function","name":"lotIdToCustomId","inputs":[{"name":"lotId","type":"bytes32","internalType":"bytes32"}],"outputs":[{"name":"","type":"uint256","internalType":"uint256"}],"stateMutability":"view"},{"type":"function","name":"nextCustomId","inputs":[],"outputs":[{"name":"","type":"uint256","internalType":"uint256"}],"stateMutability":"view"},{"type":"function","name":"packedSelectors","inputs":[],"outputs":[{"name":"","type":"bytes","internalType":"bytes"}],"stateMutability":"pure"},{"type":"function","name":"selectLotsForAmount","inputs":[{"name":"user","type":"address","internalType":"address"},{"name":"amount","type":"uint256","internalType":"uint256"}],"outputs":[{"name":"selectedLots","type":"bytes32[]","internalType":"bytes32[]"},{"name":"quantities","type":"uint256[]","internalType":"uint256[]"}],"stateMutability":"view"},{"type":"function","name":"setTaxStrategy","inputs":[{"name":"strategy","type":"uint8","internalType":"uint8"}],"outputs":[],"stateMutability":"nonpayable"},{"type":"function","name":"transferLot","inputs":[{"name":"lotId","type":"bytes32","internalType":"bytes32"},{"name":"to","type":"address","internalType":"address"},{"name":"quantity","type":"uint256","internalType":"uint256"},{"name":"tType","type":"uint8","internalType":"enum IToken.TransferType"},{"name":"newCostBasis","type":"uint256","internalType":"uint256"},{"name":"uri","type":"string","internalType":"string"},{"name":"data","type":"bytes","internalType":"bytes"}],"outputs":[{"name":"newLotId","type":"bytes32","internalType":"bytes32"}],"stateMutability":"nonpayable"},{"type":"function","name":"transferLotAs","inputs":[{"name":"owner","type":"address","internalType":"address"},{"name":"lotId","type":"bytes32","internalType":"bytes32"},{"name":"to","type":"address","internalType":"address"},{"name":"quantity","type":"uint256","internalType":"uint256"},{"name":"tType","type":"uint8","internalType":"enum IToken.TransferType"},{"name":"newCostBasis","type":"uint256","internalType":"uint256"},{"name":"uri","type":"string","internalType":"string"},{"name":"data","type":"bytes","internalType":"bytes"}],"outputs":[{"name":"newLotId","type":"bytes32","internalType":"bytes32"}],"stateMutability":"nonpayable"},{"type":"function","name":"updateLotURI","inputs":[{"name":"lotId","type":"bytes32","internalType":"bytes32"},{"name":"newUri","type":"string","internalType":"string"}],"outputs":[],"stateMutability":"nonpayable"},{"type":"event","name":"LotAdjusted","inputs":[{"name":"oldLotId","type":"bytes32","indexed":true,"internalType":"bytes32"},{"name":"newLotId","type":"bytes32","indexed":true,"internalType":"bytes32"},{"name":"owner","type":"address","indexed":true,"internalType":"address"},{"name":"newQuantity","type":"uint256","indexed":false,"internalType":"uint256"},{"name":"newCostBasis","type":"uint256","indexed":false,"internalType":"uint256"},{"name":"newPaymentCurrency","type":"address","indexed":false,"internalType":"address"},{"name":"newAcquisitionDate","type":"uint256","indexed":false,"internalType":"uint256"},{"name":"reason","type":"string","indexed":false,"internalType":"string"}],"anonymous":false},{"type":"event","name":"LotCreated","inputs":[{"name":"lotId","type":"bytes32","indexed":true,"internalType":"bytes32"},{"name":"customId","type":"uint256","indexed":true,"internalType":"uint256"},{"name":"owner","type":"address","indexed":true,"internalType":"address"},{"name":"quantity","type":"uint256","indexed":false,"internalType":"uint256"}],"anonymous":false},{"type":"event","name":"LotInvalidated","inputs":[{"name":"lotId","type":"bytes32","indexed":true,"internalType":"bytes32"}],"anonymous":false},{"type":"event","name":"LotTransferred","inputs":[{"name":"newLotId","type":"bytes32","indexed":true,"internalType":"bytes32"},{"name":"from","type":"address","indexed":true,"internalType":"address"},{"name":"to","type":"address","indexed":true,"internalType":"address"},{"name":"quantity","type":"uint256","indexed":false,"internalType":"uint256"},{"name":"uri","type":"string","indexed":false,"internalType":"string"},{"name":"data","type":"bytes","indexed":false,"internalType":"bytes"},{"name":"tType","type":"uint8","indexed":false,"internalType":"enum IToken.TransferType"},{"name":"newCostBasis","type":"uint256","indexed":false,"internalType":"uint256"}],"anonymous":false},{"type":"event","name":"LotURIUpdated","inputs":[{"name":"lotId","type":"bytes32","indexed":true,"internalType":"bytes32"},{"name":"oldUri","type":"string","indexed":false,"internalType":"string"},{"name":"newUri","type":"string","indexed":false,"internalType":"string"}],"anonymous":false},{"type":"event","name":"LotsConsolidated","inputs":[{"name":"owner","type":"address","indexed":true,"internalType":"address"},{"name":"originalLotIds","type":"bytes32[]","indexed":false,"internalType":"bytes32[]"},{"name":"newLotId","type":"bytes32","indexed":true,"internalType":"bytes32"},{"name":"totalQuantity","type":"uint256","indexed":false,"internalType":"uint256"},{"name":"weightedCostBasis","type":"uint256","indexed":false,"internalType":"uint256"},{"name":"earliestAcquisition","type":"uint256","indexed":false,"internalType":"uint256"}],"anonymous":false},{"type":"event","name":"TaxStrategyUpdated","inputs":[{"name":"user","type":"address","indexed":true,"internalType":"address"},{"name":"strategy","type":"uint8","indexed":false,"internalType":"uint8"}],"anonymous":false},{"type":"event","name":"Transfer","inputs":[{"name":"from","type":"address","indexed":true,"internalType":"address"},{"name":"to","type":"address","indexed":true,"internalType":"address"},{"name":"value","type":"uint256","indexed":false,"internalType":"uint256"}],"anonymous":false},{"type":"error","name":"AccessControl_CallerIsNotAuthorized","inputs":[{"name":"caller","type":"address","internalType":"address"},{"name":"functionSig","type":"bytes4","internalType":"bytes4"}]},{"type":"error","name":"Token_InsufficientBalance","inputs":[]},{"type":"error","name":"Token_InvalidAddress","inputs":[]},{"type":"error","name":"Token_InvalidCustomId","inputs":[]},{"type":"error","name":"Token_InvalidQuantity","inputs":[]},{"type":"error","name":"Token_InvalidValue","inputs":[]},{"type":"error","name":"Token_LotHasNoTokens","inputs":[]},{"type":"error","name":"Token_LotNotExists","inputs":[]},{"type":"error","name":"Token_LotTransferValidationFailed","inputs":[]},{"type":"error","name":"Token_NotAuthorized","inputs":[]},{"type":"error","name":"Token_NotLotOwner","inputs":[]},{"type":"error","name":"Token_VestingAmountExceedsLot","inputs":[]}],"bytecode":{"object":"0x60808060405234601557613dd4908161001a8239f35b5f80fdfe60e06040526004361015610011575f80fd5b5f358060e01c90816305424ebe146129db57816308af629a146128cd5781630d9f38751461235f57816314ff36061461232957816319cfd38014611d27578163273f023c14611cf15781633e62267c14611be95781634db37eb5146119ee578163582eaabc146113265781635dfe7de2146112ed5781636b8fb8ab146110ad5781638bdcb65a14610a805781638ce16f811461089b578163964e14b71461085a5781639e7d8fa11461019857508063cf209d011461016f5763d01a0fca146100d7575f80fd5b3461016b57602036600319011261016b5760043560ff811680910361016b576003811161015c5760048110156101485761011033612b32565b8160ff198254161790556040519081527f3b390bd003355e4bbebd3e567aa4f03175a8ea52b96cb987cc6bbc4fdf5b91fa60203392a2005b634e487b7160e01b5f52602160045260245ffd5b63fbcafcb160e01b5f5260045ffd5b5f80fd5b3461016b575f36600319011261016b5760205f516020613c9f5f395f51905f5254604051908152f35b3461016b57602036600319011261016b57600435906001600160401b03821161016b573660238301121561016b576001600160401b0382600401351161016b57366024836004013560051b8401011161016b576001600160e01b0319166101ff8133612e9d565b156108445750600281600401351061080357806004013515610830576024810135805f525f516020613cff5f395f51905f5260205260405f209160018301549260ff8460a01c161561082157546001600160a01b0316905f19905f9081805b8260040135811061074f57508261027491612e5b565b5f516020613c9f5f395f51905f52549361028d85612c8a565b5f516020613c9f5f395f51905f525560405160208101906102c3816102b543428b8d88612bdf565b03601f198101835282612bbe565b51902096604051906020808301526102f8826102ea60408201886004013560248a01612e79565b03601f198101845283612bbe565b604051996103058b612ba2565b888b5260018060a01b031660208b0152600160408b0152600960608b01528560808b01528360a08b01528260c08b01524260e08b01526101008a01526020986040516103518b82612bbe565b5f808252610120830191825261014083019384528a81525f516020613cff5f395f51905f528c52604090819020835181546001600160a01b0319166001600160a01b039182161782556020850151600183018054948701516001600160a81b0319909516919092161792151560a01b60ff60a01b1692909217825592606081015191600a83101561014857805460ff60a81b191660a89390931b60ff60a81b16929092179091556080810151600284015560a0810151600384015560c0810151600484015560e081015160058401556101000151600683015551805160078301916001600160401b0382116106c7576104548261044e8554612c98565b85612d51565b8c908d601f84116001146106e6575091806104899260089695945f926106db575b50508160011b915f199060031b1c19161790565b90555b0190518051906001600160401b0382116106c7576104ae8261044e8554612c98565b8a90601f831160011461065a576104db92915f918361064f5750508160011b915f199060031b1c19161790565b9055928588928894955b875f525f516020613cbf5f395f51905f5285528560405f2055855f525f516020613d7f5f395f51905f5285528760405f2055610521868461303d565b5f5b876004013581106105b9575061059786977f1df47d6d7975d9e9ee4bb097b24fa8c4387f7b78a15a637434a890890011503d9794937ffb6ba42e90c7679bf93d204329f9cb8fec7de1915615a5a26f83afdd1104f71b93604051938493608085526080850190602481600401359101612e79565b91888a850152604084015260608301520390a3604051908152a4604051908152f35b876105d7929598975081939650600194506004013560248801612e3e565b355f525f516020613cff5f395f51905f528a5261060a60405f2061060383886004013560248a01612e3e565b3590612eee565b61061c81866004013560248801612e3e565b357f0ff0ed35b733a3dabac7f6e6140e420911c45a59e7c56d0d817e1ebd1b5ad8275f80a2018892889495928892610523565b015190508c80610475565b5f8481528c8120929190601f198516908e5b8282106106af575050908460019594939210610697575b505050811b019055928588928894956104e5565b01515f1960f88460031b161c191690558b8080610683565b8060018697829497870151815501960194019061066c565b634e487b7160e01b5f52604160045260245ffd5b015190508f80610475565b9190601f198416855f52835f20935f905b8282106107375750509160019391856008989796941061071f575b505050811b01905561048c565b01515f1960f88460031b161c191690558e8080610712565b806001869782949787015181550196019401906106f7565b61076481846004969496013560248601612e3e565b355f525f516020613cff5f395f51905f5260205260405f209160ff600184015460a01c16156108215782546001600160a01b031687900361081257600283015490811561080357816107b591612e4e565b946003840154808302928304036107ef576004916107d291612e4e565b9201548581106107e6575b5060010161025e565b945060016107dd565b634e487b7160e01b5f52601160045260245ffd5b637782662560e01b5f5260045ffd5b631001f5ed60e31b5f5260045ffd5b63f5c8d26960e01b5f5260045ffd5b634e487b7160e01b5f52603260045260245ffd5b631d64bc3360e11b5f523360045260245260445ffd5b3461016b57602036600319011261016b576004355f525f516020613cff5f395f51905f52602052602060ff600160405f20015460a01c166040519015158152f35b3461016b57602036600319011261016b5760606101406040516108bd81612ba2565b5f81525f60208201525f60408201525f838201525f60808201525f60a08201525f60c08201525f60e08201525f6101008201528261012082015201526004355f525f516020613cff5f395f51905f526020526040805f20610a7c82519161092383612ba2565b60018060a01b038154168352610a686007600183015494602081019560018060a01b03811687528782019060ff8160a01c161515825261096d60ff606085019260a81c1682612e32565b60028601546080840190815260038701549060a08501918252610a3360048901549360c0870194855260058a01549560e0880196875260068b01549761010081019889526109cc8f6109c58e9151809d819301612cd0565b038b612bbe565b6101208101998a526109f18f6109ea600891519e8f92839101612cd0565b038d612bbe565b61014081019b8c528e519e8f9e8f926020845260018060a01b03905116602084015260018060a01b0390511691015251151560608d01525160808c0190612b25565b5160a08a01525160c08901525160e0880152516101008701525161012086015251610160610140860152610180850190612b01565b9051838203601f1901610160850152612b01565b0390f35b3461016b5760e036600319011261016b576024356001600160a01b038116810361016b57600a606435101561016b5760843560a4356001600160401b03811161016b57610ad1903690600401612ad4565b9260c4356001600160401b03811161016b57610af1903690600401612ad4565b946004355f525f516020613cff5f395f51905f5260205260405f2060018060a01b0384161561109e5760ff600182015460a01c16156108215780546001600160a01b031633036108125760443515801561108f575b610803575f806040516020810190635887841960e01b8252610b76816102b56044356004358c3360248601612c09565b5190305afa610b83612c4e565b50156110805760028101610b9a6044358254612c7d565b8091554260058301551561106d575b505f516020613c9f5f395f51905f525493610bc385612c8a565b5f516020613c9f5f395f51905f52556040516020810190610beb816102b543428b8b88612bdf565b51902094805f525f516020613cbf5f395f51905f526020528560405f2055855f525f516020613d7f5f395f51905f5260205260405f20556004355f525f516020613cff5f395f51905f5260205260405f209560018060a01b036001880154169681155f1461106657600391500154965b60405196610c6888612ba2565b6001600160a01b0386168852602088015260016040880152610c8f60643560608901612e32565b60443560808801528760a08801524260c08801524260e0880152600435610100880152610cbd368484613007565b610120880152610cce368286613007565b6101408801525f8681525f516020613cff5f395f51905f526020908152604091829020895181546001600160a01b0319166001600160a01b03918216178255918a0151600182018054948c01516001600160a81b0319909516919093161792151560a01b60ff60a01b169290921781559097906060820151600a81101561014857815460ff60a81b191660a89190911b60ff60a81b161790556080810151600289015560a0810151600389015560c0810151600489015560e081015160058901556101008101516006890155610120810151805160078a01916001600160401b0382116106c757610dc38261044e8554612c98565b602090601f8311600114610ffe579180610df7926101409695945f92610ff35750508160011b915f199060031b1c19161790565b90555b01519788516001600160401b0381116106c757602099610e2a82610e2160088d0154612c98565b60088d01612d51565b8a90601f8311600114610f6c575f516020613d5f5f395f51905f52938a9b6008610e78865f9e9996978f9e9d9c9b988f97610ee29892610f615750508160011b915f199060031b1c19161790565b9101555b610e86868a61303d565b610e8f33612b6a565b610e9c6044358254612c7d565b9055610ea789612b6a565b610eb46044358254612e4e565b9055610ec36044358a33612fc1565b60405193849360018060a01b038b1699339960643593604435886134b3565b0390a460405160443581526001600160a01b0382169033907fddf252ad1be2c89b69c2b068fc378daa952ba7f163c4a11628f55a4df523b3ef908890a3604051610f49816102b588820194639ef3182d60e01b865260443590600435903360248601612c09565b519082305af150610f58612c4e565b50604051908152f35b015190505f80610475565b9060088b015f52805f20915f5b601f1985168110610fdc5750938a9b60086001865f9e99968f9e9d9c9b98965f516020613d5f5f395f51905f529a610ee298601f19811610610fc4575b505050811b01910155610e7c565b01518f1960f88460031b161c191690555f8080610fb6565b91928d600181928685015181550194019201610f79565b015190508e80610475565b90601f19831691845f52815f20925f5b81811061104e57509160019391856101409897969410611036575b505050811b019055610dfa565b01515f1960f88460031b161c191690558d8080611029565b9293602060018192878601518155019501930161100e565b5096610c5b565b61107a9060043590612eee565b86610ba9565b63427a232160e01b5f5260045ffd5b50600281015460443511610b46565b6352397bf960e01b5f5260045ffd5b3461016b57604036600319011261016b576110c6612a75565b6024356110fc60ff6110d784612b32565b54169260018060a01b03165f525f516020613cdf5f395f51905f5260205260405f2090565b80549081156112685761110e82612dd7565b9161111881612dd7565b9461112282612dd7565b925f5b838110611280575050505061113b9084836137cf565b5f908190835b8151841080611277575b156111905761117d61117d61118392611164878a612e1e565b5181111561118a57611176878a612e1e565b5190612c7d565b93612c8a565b9291611141565b80612c7d565b90939250611268576111a181612dd7565b926111ab82612dd7565b92905f915b83831061120e576111d08686604051928392604084526040840190612aa1565b8281036020840152602080835192838152019201905f5b8181106111f5575050500390f35b82518452859450602093840193909201916001016111e7565b61125a60019161121e858a612e1e565b5181111561126257611230858a612e1e565b51905b61123d8686612e1e565b51611248878b612e1e565b5281611254878a612e1e565b52612c7d565b9201916111b0565b80611233565b631a2a58d360e01b5f5260045ffd5b5080151561114b565b806112dc8461129160019486612e09565b90549060031b1c805f525f516020613cff5f395f51905f5260205260405f20906112bb858c612e1e565b5260028101546112cb858e612e1e565b52600360048201549101549061379f565b6112e68288612e1e565b5201611125565b3461016b57602036600319011261016b5760ff61131061130b612a75565b612b32565b5416600481101561014857602090604051908152f35b3461016b5761010036600319011261016b57611340612a8b565b9060a4356001600160401b03811161016b57611360903690600401612ad4565b60c4939193356001600160401b03811161016b57611382903690600401612ad4565b9160e4356001600160401b03811161016b576113a2903690600401612ad4565b9690956001600160e01b0319166113b98133612e9d565b1561084457506004355f525f516020613cff5f395f51905f5260205260405f2060ff600182015460a01c16156108215780546001600160a01b03166080526002810154611414868686866084356064358d602435898b6136d6565b909b949260c0529a90925f516020613c9f5f395f51905f52549161143783612c8a565b5f516020613c9f5f395f51905f52556040516020810190611461816102b543428960805188612bdf565b51902060a0526040519061147482612ba2565b6080518252602082019260018060a01b031683528d6040830193600185526060840190600882526080850188815260a086019060c051825260c08701928b845260e088019442865261010089019660043588526101208a019889526101408a015260a0515f525f516020613cff5f395f51905f5260205261156060405f209a60018060a01b0360018060a01b038c5116166001600160601b0360a01b8d5416178c5560018c019360018060a01b039060018060a01b03905116166001600160601b0360a01b855416178455511515839081549060ff60a01b90151560a01b169060ff60a01b1916179055565b51600a81101561014857815460ff60a81b191660a89190911b60ff60a81b16179055516002880155516003870155516004860155516005850155516006840155518051906001600160401b0382116106c7576115cc826115c36007870154612c98565b60078701612d51565b602090601f831160011461197f5791806115ff9261014095945f92610f615750508160011b915f199060031b1c19161790565b60078401555b01518051906001600160401b0382116106c757611632826116296008860154612c98565b60088601612d51565b602090601f8311600114611914579180611663926008945f92610f615750508160011b915f199060031b1c19161790565b9101555b805f525f516020613cbf5f395f51905f5260205260a05160405f205560a0515f525f516020613d7f5f395f51905f5260205260405f20556116ac60a05160805161303d565b6116b860043586612eee565b838103611858575b508851806117cb575b50506116e197506084359260643592602435916136d6565b50509093929491604051946004357f0ff0ed35b733a3dabac7f6e6140e420911c45a59e7c56d0d817e1ebd1b5ad8275f80a2868652602086015260018060a01b03166040850152606084015260a060808401527fe49c0cc37b4050affdffa0b2032eca69f16c5bfb5d42f94e8e12c295037628f5608051938061176f60a051956004359560a0840191612da0565b0390a460a0515f525f516020613d7f5f395f51905f5260205260405f2054604051918252608051917f1df47d6d7975d9e9ee4bb097b24fa8c4387f7b78a15a637434a890890011503d602060a05192a4602060405160a0518152f35b89019060408a83031261016b5760208a01516001600160401b03811161016b576117fd906020808501918d0101613bfa565b5060408a01516001600160401b03811161016b576116e19a6020611829928161183c9601920101613bfa565b8051611843575b5060805160a0516131bd565b8a806116c9565b6118529060805160a0516132c4565b8c611830565b83808211156118bb5761186e906118b592612c7d565b611879608051612b6a565b611884828254612e4e565b905561189e815f516020613d3f5f395f51905f5254612e4e565b5f516020613d3f5f395f51905f5255608051612f82565b8b6116c0565b61190f916118c891612c7d565b6118d3608051612b6a565b6118de828254612c7d565b90556118f8815f516020613d3f5f395f51905f5254612c7d565b5f516020613d3f5f395f51905f5255608051612f2c565b6118b5565b90600884015f52805f20915f5b601f19851681106119675750918391600193600895601f1981161061194f575b505050811b01910155611667565b01515f1960f88460031b161c191690555f8080611941565b91926020600181928685015181550194019201611921565b90600785015f52805f20915f5b601f19851681106119d657509183916001936101409695601f198116106119be575b505050811b016007840155611605565b01515f1960f88460031b161c191690555f80806119ae565b9192602060018192868501518155019401920161198c565b3461016b57604036600319011261016b57600435906024356001600160401b03811161016b57611a22903690600401612ad4565b91835f525f516020613cff5f395f51905f5260205260405f209060ff600183015460a01c16156108215781546001600160a01b03163314159081611bcd575b50611bbe576007019160405192611a8384611a7c8184612cd0565b0385612bbe565b6001600160401b0382116106c757611aa582611a9f8354612c98565b83612d51565b5f601f8311600114611b31579282611b2192611afc827ff3cb4790138ad78373ff2c5151f6130d8109c6cfa72c970c7f5b5998b4815ac79896611b13985f91611b26575b508160011b915f199060031b1c19161790565b90555b604051948594604086526040860190612b01565b918483036020860152612da0565b0390a2005b90508501358b611ae9565b601f19831690825f5260205f20915f5b818110611ba6575092611b13959285927ff3cb4790138ad78373ff2c5151f6130d8109c6cfa72c970c7f5b5998b4815ac79896611b219610611b8d575b5050600182811b019055611aff565b8401355f19600385901b60f8161c191690558880611b7e565b9192602060018192868a013581550194019201611b41565b6381e6467560e01b5f5260045ffd5b611be291506001600160e01b031916336134f8565b1585611a61565b3461016b575f36600319011261016b576040805163160baaaf60e21b6020820152639e7d8fa160e01b6024820152630d9f387560e01b6028820152630a7f9b0360e11b602c820152638ce16f8160e01b60308201526302a1275f60e11b6034820152632eff3ef160e11b6038820152630457b14d60e11b603c82015263964e14b760e01b818301526309cfc08f60e21b604482015263cf209d0160e01b6048820152636b8fb8ab60e01b604c82015263680d07e560e11b60508201526345ee5b2d60e11b605482015262339fa760e71b6058820152634db37eb560e01b605c820152908152610a7c90611cdd606082612bbe565b604051918291602083526020830190612b01565b3461016b57602036600319011261016b576004355f525f516020613d7f5f395f51905f52602052602060405f2054604051908152f35b3461016b5761010036600319011261016b57611d41612a75565b611d49612a8b565b600a608435101561016b5760a4359160c4356001600160401b03811161016b57611d77903690600401612ad4565b91909260e4356001600160401b03811161016b57611d99903690600401612ad4565b6024355f9081525f516020613cff5f395f51905f52602052604090209194916001600160a01b0384161561109e5760ff600182015460a01c16156108215780546001600160a01b03908116908616036108125760643515801561231a575b610803575f806040516020810190635887841960e01b8252611e28816102b56064358c8c6024359160248601612c09565b5190305afa611e35612c4e565b50156110805760028101611e4c6064358254612c7d565b80915542600583015515612307575b505f516020613c9f5f395f51905f525494611e7586612c8a565b5f516020613c9f5f395f51905f52556040516020810190611e9d816102b543428c8b88612bdf565b51902095805f525f516020613cbf5f395f51905f526020528660405f2055865f525f516020613d7f5f395f51905f5260205260405f20556024355f525f516020613cff5f395f51905f5260205260405f209760018060a01b0360018a0154169881155f14612301576003915001545b60405198611f198a612ba2565b6001600160a01b0386168a5260208a0152600160408a0152611f4060843560608b01612e32565b60643560808a01528060a08a01524260c08a01524260e08a01526024356101008a0152611f6e36858a613007565b6101208a0152611f7f368484613007565b6101408a01525f8781525f516020613cff5f395f51905f5260209081526040918290208b5181546001600160a01b0319166001600160a01b03918216178255918c0151600182018054948e01516001600160a81b0319909516919093161792151560a01b60ff60a01b169290921781559099906060820151600a81101561014857815460ff60a81b191660a89190911b60ff60a81b16179055608081015160028b015560a081015160038b015560c081015160048b015560e081015160058b015561010081015160068b0155610120810151805160078c01916001600160401b0382116106c7576120748261044e8554612c98565b602090601f83116001146122995791806120a8926101409695945f926106db5750508160011b915f199060031b1c19161790565b90555b0151978851996001600160401b038b116106c7578a6120dc60209c6120d36008850154612c98565b60088501612d51565b8b601f821160011461220857958998956121a35f9c9d966102b59a968f968f9e998f885f516020613d5f5f395f51905f5299610f499f6008946121329492610f615750508160011b915f199060031b1c19161790565b9101555b612140878b61303d565b61214989612b6a565b6121566064358254612c7d565b90556121618a612b6a565b61216e6064358254612e4e565b905561217d6064358b8b612fc1565b6040516001600160a01b038b81169a1698909586956084359391929091606435886134b3565b0390a460405160643581526001600160a01b0382811691908616907fddf252ad1be2c89b69c2b068fc378daa952ba7f163c4a11628f55a4df523b3ef908b90a360405192839189830195639ef3182d60e01b8752606435916024359160248601612c09565b600883015f52805f209b5f5b601f19841681106122825750956121a38b9a97966102b59a968e9f965f9f975f9f9a88600892610f499f996001935f516020613d5f5f395f51905f529c601f1981161061226a575b505050811b01910155612136565b01515f1960f88460031b161c191690555f808061225c565b828201518e556001909d019c918e01918e01612214565b90601f19831691845f52815f20925f5b8181106122e9575091600193918561014098979694106122d1575b505050811b0190556120ab565b01515f1960f88460031b161c191690558e80806122c4565b929360206001819287860151815501950193016122a9565b50611f0c565b6123149060243590612eee565b87611e5b565b50600281015460643511611df7565b3461016b57602036600319011261016b576004355f525f516020613cbf5f395f51905f52602052602060405f2054604051908152f35b3461016b5761010036600319011261016b57612379612a75565b612381612a8b565b9160a4356001600160401b03811161016b576123a1903690600401612ad4565b92909160c4356001600160401b03811161016b576123c3903690600401612ad4565b95909160e435906001600160e01b0319166123de8133612e9d565b1561084457506001600160a01b0384161561109e5760243515610803575f516020613c9f5f395f51905f5254156128b7575b8061286e57506124b95f516020613c9f5f395f51905f525461243181612c8a565b5f516020613c9f5f395f51905f5255945b604051602081019061245b816102b543428c8c88612bdf565b519020966040519361246c85612ba2565b6001600160a01b0387811686521660208501526001604085015260086060850152602435608085015260643560a085015260843560c08501524260e08501525f6101008501523691613007565b6101208201526124ca368784613007565b6101408201525f8581525f516020613cff5f395f51905f526020908152604091829020835181546001600160a01b0319166001600160a01b0391821617825591840151600182018054948601516001600160a81b0319909516919093161792151560a01b60ff60a01b169290921781556060830151600a81101561014857815460ff60a81b191660a89190911b60ff60a81b161790556080820151600282015560a0820151600382015560c0820151600482015560e082015160058201556101008201516006820155610120820151805160078301916001600160401b0382116106c7576125bc8261044e8554612c98565b602090601f831160011461280457826101409593600895936125f2935f9261278c5750508160011b915f199060031b1c19161790565b90555b019101518051906001600160401b0382116106c7576126188261044e8554612c98565b602090601f831160011461279757935f9493612652846126e39560409c958998899261278c5750508160011b915f199060031b1c19161790565b90555b61265f888761303d565b8684525f516020613cbf5f395f51905f5260205287898520558784525f516020613d7f5f395f51905f52602052868985205561269a86612b6a565b6126a76024358254612e4e565b90556126c36024355f516020613d3f5f395f51905f5254612e4e565b5f516020613d3f5f395f51905f52556126de60243587612f82565b6130ff565b92908751612713816102b56020820194631442cb4960e21b86528b60248401528c60448401526064830190612b01565b519082305af150612722612c4e565b5061273060843583866131bd565b805161277b575b5081837f1df47d6d7975d9e9ee4bb097b24fa8c4387f7b78a15a637434a890890011503d6020875194602435865260018060a01b031694a482519182526020820152f35b6127869082856132c4565b84612737565b015190508d80610475565b90601f19831691845f52815f20925f5b8181106127ec57508460409b945f98948998946126e398600195106127d4575b505050811b019055612655565b0151881960f88460031b161c191690558c80806127c7565b929360206001819287860151815501950193016127a7565b90601f19831691845f52815f20925f5b81811061285657509260019285926101409896600898961061283e575b505050811b0190556125f5565b01515f1960f88460031b161c191690558c8080612831565b92936020600181928786015181550195019301612814565b5f516020613c9f5f395f51905f525481106128a8578094600182018092116107ef576124b9915f516020613c9f5f395f51905f5255612442565b631231d59560e01b5f5260045ffd5b60015f516020613c9f5f395f51905f5255612410565b3461016b57602036600319011261016b57600435906001600160e01b0319166128f68133612e9d565b156108445750805f525f516020613cff5f395f51905f5260205260405f2060ff600182015460a01c1615610821577fddf252ad1be2c89b69c2b068fc378daa952ba7f163c4a11628f55a4df523b3ef60205f9360018060a01b03845416936129678260028301928884549455612eee565b61297085612b6a565b61297b828254612c7d565b9055612995815f516020613d3f5f395f51905f5254612c7d565b5f516020613d3f5f395f51905f52556129ae8186612f2c565b604051917f0ff0ed35b733a3dabac7f6e6140e420911c45a59e7c56d0d817e1ebd1b5ad8278780a28152a3005b3461016b57602036600319011261016b57612a1c6129f7612a75565b6001600160a01b03165f9081525f516020613cdf5f395f51905f526020526040902090565b6040519081602082549182815201915f5260205f20905f5b818110612a5f57610a7c85612a4b81870382612bbe565b604051918291602083526020830190612aa1565b8254845260209093019260019283019201612a34565b600435906001600160a01b038216820361016b57565b604435906001600160a01b038216820361016b57565b90602080835192838152019201905f5b818110612abe5750505090565b8251845260209384019390920191600101612ab1565b9181601f8401121561016b578235916001600160401b03831161016b576020838186019501011161016b57565b805180835260209291819084018484015e5f828201840152601f01601f1916010190565b90600a8210156101485752565b6001600160a01b03165f9081527f22ce1d58dbbbe3f2573a8aa67a5b301036cf40c4046c3db053dee7e96fed6aca6020526040902090565b6001600160a01b03165f9081527f884b97143fd2abce15e00e9522133610789cde1e35b2d8c3022698f6693d36c66020526040902090565b61016081019081106001600160401b038211176106c757604052565b90601f801991011681019081106001600160401b038211176106c757604052565b929091607494926001600160601b03199060601b1684526014840152603483015260548201520190565b6001600160a01b039182168152911660208201526040810191909152606081019190915260800190565b6001600160401b0381116106c757601f01601f191660200190565b3d15612c78573d90612c5f82612c33565b91612c6d6040519384612bbe565b82523d5f602084013e565b606090565b919082039182116107ef57565b5f1981146107ef5760010190565b90600182811c92168015612cc6575b6020831014612cb257565b634e487b7160e01b5f52602260045260245ffd5b91607f1691612ca7565b5f9291815491612cdf83612c98565b8083529260018116908115612d345750600114612cfb57505050565b5f9081526020812093945091925b838310612d1a575060209250010190565b600181602092949394548385870101520191019190612d09565b915050602093945060ff929192191683830152151560051b010190565b601f8211612d5e57505050565b5f5260205f20906020601f840160051c83019310612d96575b601f0160051c01905b818110612d8b575050565b5f8155600101612d80565b9091508190612d77565b908060209392818452848401375f828201840152601f01601f1916010190565b6001600160401b0381116106c75760051b60200190565b90612de182612dc0565b612dee6040519182612bbe565b8281528092612dff601f1991612dc0565b0190602036910137565b8054821015610830575f5260205f2001905f90565b80518210156108305760209160051b010190565b600a8210156101485752565b91908110156108305760051b0190565b919082018092116107ef57565b8115612e65570490565b634e487b7160e01b5f52601260045260245ffd5b81835290916001600160fb1b03831161016b5760209260051b809284830137010190565b81612ea7916134f8565b612ee8577f511915e52b7f9e690b9fdc662acaf5600fd3722c87eb951d3abd26e93a784dca5c9060ff8216612edc5750505f90565b612ee5916138b6565b90565b50600190565b805460018201805460ff60a01b1916905542600590920191909155612f2a91906001600160a01b03165f516020613cff5f395f51905f5261390b565b565b604051636fb12c5f60e11b602082019081526001600160a01b0390921660248201525f60448201819052606480830194909452928152829190612f70608482612bbe565b519082305af150612f7f612c4e565b50565b5f91908291604051906020820192636fb12c5f60e11b845284602484015260018060a01b03166044830152606482015260648152612f70608482612bbe565b604051636fb12c5f60e11b602082019081526001600160a01b0392831660248301529190921660448301526064808301939093529181525f918291612f70608482612bbe565b92919261301382612c33565b916130216040519384612bbe565b82948184528183011161016b578281602093845f960137010152565b6001600160a01b03165f8181525f516020613cdf5f395f51905f52602052604090208054680100000000000000008110156106c757613086818593600161309c94018155612e09565b819391549060031b91821b915f19901b19161790565b90555f525f516020613cdf5f395f51905f5260205260405f2054905f527f22ce1d58dbbbe3f2573a8aa67a5b301036cf40c4046c3db053dee7e96fed6acb60205260405f2055565b9080601f8301121561016b57816020612ee593359101613007565b919080156131945782019160208184031261016b578035906001600160401b03821161016b570160408184031261016b5760405192604084018481106001600160401b038211176106c75760405281356001600160401b03811161016b57816131699184016130e4565b845260208201356001600160401b03811161016b5761318892016130e4565b91826020820152519190565b5090506040516131a5602082612bbe565b5f8152906040516131b7602082612bbe565b5f815290565b909291926040515f516020613d1f5f395f51905f525480825281602081015f516020613d1f5f395f51905f525f5260205f20925f5b81811061329557505061320792500382612bbe565b5f5b815181101561328d576001905f806001600160a01b036132298487612e1e565b5116604051826020820191637c1e8f0160e01b83523060248201528a6044820152878060a01b038a1660648201528c60848201526084815261326c60a482612bbe565b5192620186a0f161327b612c4e565b5015613288575b01613209565b613282565b505050509050565b84546001600160a01b03168352600194850194869450602090930192016131f2565b5190811515820361016b57565b92919092815180156134ac578260e0918101031261016b576132e8602083016132b7565b91604081015194606082015160808301519060a08401519261331a60e061331160c088016132b7565b960151876139e2565b95604051975f516020613d1f5f395f51905f5254808a5289602081015f516020613d1f5f395f51905f525f5260205f20925f5b81811061348a5750506133629250038a612bbe565b61337b575b61337688612f2a9a9b83613aaf565b613b2f565b98979593915f979593919750604051975f516020613d1f5f395f51905f5254808a5260208a01905f516020613d1f5f395f51905f525f5260205f20905f5b81811061346b57505050896133cf91038a612bbe565b6001600160a01b0381169a5f5b8a5181101561345357805f808f8e6133fc600196878060a01b0392612e1e565b511690826040516020810192636cc84cf760e11b8452306024830152604482015287606482015260648152613432608482612bbe565b5192620186a0f1613441612c4e565b501561344e575b016133dc565b613448565b50999a50969895975093959294919390929091613367565b82546001600160a01b03168452602090930192600192830192016133b9565b84546001600160a01b031683526001948501948e94506020909301920161334d565b5050509050565b9390946134db6134e9936134f4956080989b9a999b885260a0602089015260a0880191612da0565b918583036040870152612da0565b956060830190612b25565b0152565b7fce1c17acaaa67de66e928cd49c8f658667a825223bee6fda99a14908362bcdac546001600160a01b03168061362d575b5060018060a01b0381165f527fce1c17acaaa67de66e928cd49c8f658667a825223bee6fda99a14908362bcdaa60205260405f20549163ffffffff60e01b165f527fce1c17acaaa67de66e928cd49c8f658667a825223bee6fda99a14908362bcdab60205260405f20549081156135e9576001600160a01b03165f9081527fce1c17acaaa67de66e928cd49c8f658667a825223bee6fda99a14908362bcdaa602052604090205460011615159182156135e157505090565b161515919050565b6001600160a01b03165f9081527fce1c17acaaa67de66e928cd49c8f658667a825223bee6fda99a14908362bcdaa602052604090205460011615159150612ee59050565b6040805163b700961360e01b81526001600160a01b03841660048201523060248201526001600160e01b03198516604482015291829060649082905afa5f9181613689575b501561352957613682575f613529565b5050600190565b9091506040813d6040116136ce575b816136a560409383612bbe565b8101031261016b5760206136b8826132b7565b91015163ffffffff81160361016b57905f613672565b3d9150613698565b93989596919099949792998115155f1461379857505b986001600160a01b03811615613784575b978015613779575b96801561376e575b9581156137525761371f913691613007565b935b801561373357612ee592503691613007565b5050612ee560089161374b6040518094819301612cd0565b0382612bbe565b50506040516137688161374b8160078701612cd0565b93613721565b50600483015461370d565b506003830154613705565b5060018301546001600160a01b03166136fd565b90506136ec565b91600481101561014857806137b357505090565b600181036137c15750501990565b909150600203612ee5571990565b919082519160018311156138b05760015b8381106137ee575050505050565b6137f88186612e1e565b516138038285612e1e565b519061380f8385612e1e565b519161381c848487613c40565b91845b83811161385457509161384d91600195949361383b838c612e1e565b526138468289612e1e565b5285612e1e565b52016137e0565b5f1981018181116107ef57808b613879846138726138969584612e1e565b5192612e1e565b52613884818b612e1e565b5161388f848c612e1e565b5288612e1e565b516138a18289612e1e565b5280156107ef575f190161381f565b50505050565b60ff169081156136825763ffffffff60e01b165f527fce1c17acaaa67de66e928cd49c8f658667a825223bee6fda99a14908362bcdab60205260405f2054908115613905576001901b16151590565b50505f90565b9190916008810192825f528360205260405f20549081156139db575f198201928284116107ef57600191828060a01b03165f520160205260405f20918254905f1982019182116107ef578181036139a6575b50505080548015613992575f1901906139768282612e09565b8154905f199060031b1b19169055555f526020525f6040812055565b634e487b7160e01b5f52603160045260245ffd5b6139c66139b66130869386612e09565b90549060031b1c92839286612e09565b90555f528360205260405f20555f808061395d565b5050505050565b8115613905575f525f516020613cff5f395f51905f52602052600260405f20015460405190637d7dff0960e01b82526004820152602081602481305afa908115613aa4575f91613a72575b508015613a6357808211613a54576127108202918204612710036107ef57612ee591612e5b565b634a6c3b5d60e01b5f5260045ffd5b63dc0d724f60e01b5f5260045ffd5b90506020813d602011613a9c575b81613a8d60209383612bbe565b8101031261016b57515f613a2d565b3d9150613a80565b6040513d5f823e3d90fd5b9092918315613b29575f5b81518110156134ac576001905f8060405160208101630e38281b60e21b815287602483015289604483015260448252613af4606483612bbe565b82868060a01b03613b05878a612e1e565b5116925192620186a0f1613b17612c4e565b5015613b24575b01613aba565b613b1e565b50509050565b9492909596939181158015613bf2575b613be8575f5b8551811015613bdd576001905f8060405160208101633c892ab960e01b81528b6024830152858060a01b038d1660448301528d60648301528660848301528760a48301528860c483015289151560e483015260e48252613ba761010483612bbe565b828b613bb987898060a01b0392612e1e565b511692519262030d40f1613bcb612c4e565b5015613bd8575b01613b45565b613bd2565b505050505050505050565b5050505050505050565b508715613b3f565b81601f8201121561016b57805190613c1182612c33565b92613c1f6040519485612bbe565b8284526020838301011161016b57815f9260208093018386015e8301015290565b908215613c9757905f92915b828410613c595750505090565b909192613c668482612e4e565b60011c9082613c758386612e1e565b5111613c905750600181018091116107ef57925b9190613c4c565b9350613c89565b5050505f9056fe22ce1d58dbbbe3f2573a8aa67a5b301036cf40c4046c3db053dee7e96fed6ac522ce1d58dbbbe3f2573a8aa67a5b301036cf40c4046c3db053dee7e96fed6ac622ce1d58dbbbe3f2573a8aa67a5b301036cf40c4046c3db053dee7e96fed6ac422ce1d58dbbbe3f2573a8aa67a5b301036cf40c4046c3db053dee7e96fed6ac32e04875ee2641283b65dd528569752483368dad15bc7cf720b2748e39ada1b4c884b97143fd2abce15e00e9522133610789cde1e35b2d8c3022698f6693d36c78cc737cf11bdfd79c228a016eca672e0382ca654c2cec98e10e03faa913a76bc22ce1d58dbbbe3f2573a8aa67a5b301036cf40c4046c3db053dee7e96fed6ac7a2646970667358221220e1316e2bdf23d62e576f6dc29bd7c4c032dcd90947800ef365e66f1db1249c8b64736f6c634300081e0033","linkReferences":{}},"methodIdentifiers":{"adjustLot(bytes32,uint256,address,uint256,uint256,string,bytes,string)":"582eaabc","consolidateLots(bytes32[])":"9e7d8fa1","createLot(address,uint256,address,uint256,uint256,string,bytes,uint256)":"0d9f3875","customIdToLotId(uint256)":"14ff3606","getLot(bytes32)":"8ce16f81","getLotsOf(address)":"05424ebe","getTaxStrategy(address)":"5dfe7de2","invalidateLot(bytes32)":"08af629a","lotExists(bytes32)":"964e14b7","lotIdToCustomId(bytes32)":"273f023c","nextCustomId()":"cf209d01","packedSelectors()":"3e62267c","selectLotsForAmount(address,uint256)":"6b8fb8ab","setTaxStrategy(uint8)":"d01a0fca","transferLot(bytes32,address,uint256,uint8,uint256,string,bytes)":"8bdcb65a","transferLotAs(address,bytes32,address,uint256,uint8,uint256,string,bytes)":"19cfd380","updateLotURI(bytes32,string)":"4db37eb5"},"id":256}