{"abi":[{"type":"function","name":"cancelClaim","inputs":[{"name":"claimId","type":"bytes32","internalType":"bytes32"}],"outputs":[],"stateMutability":"nonpayable"},{"type":"function","name":"createEmailClaim","inputs":[{"name":"emailHash","type":"bytes32","internalType":"bytes32"},{"name":"claimSecret","type":"bytes32","internalType":"bytes32"},{"name":"quantity","type":"uint256","internalType":"uint256"},{"name":"paymentCurrency","type":"address","internalType":"address"},{"name":"costBasis","type":"uint256","internalType":"uint256"},{"name":"acquisitionDate","type":"uint256","internalType":"uint256"},{"name":"uri","type":"string","internalType":"string"},{"name":"data","type":"bytes","internalType":"bytes"},{"name":"duration","type":"uint256","internalType":"uint256"}],"outputs":[{"name":"claimId","type":"bytes32","internalType":"bytes32"}],"stateMutability":"nonpayable"},{"type":"function","name":"getClaim","inputs":[{"name":"claimId","type":"bytes32","internalType":"bytes32"}],"outputs":[{"name":"emailHash","type":"bytes32","internalType":"bytes32"},{"name":"quantity","type":"uint256","internalType":"uint256"},{"name":"expiresAt","type":"uint256","internalType":"uint256"},{"name":"redeemed","type":"bool","internalType":"bool"},{"name":"issuer","type":"address","internalType":"address"}],"stateMutability":"view"},{"type":"function","name":"packedSelectors","inputs":[],"outputs":[{"name":"","type":"bytes","internalType":"bytes"}],"stateMutability":"pure"},{"type":"function","name":"redeemClaim","inputs":[{"name":"claimId","type":"bytes32","internalType":"bytes32"},{"name":"destinationWallet","type":"address","internalType":"address"},{"name":"claimSecret","type":"bytes32","internalType":"bytes32"}],"outputs":[{"name":"lotId","type":"bytes32","internalType":"bytes32"}],"stateMutability":"nonpayable"},{"type":"event","name":"ClaimCancelled","inputs":[{"name":"claimId","type":"bytes32","indexed":true,"internalType":"bytes32"},{"name":"issuer","type":"address","indexed":true,"internalType":"address"}],"anonymous":false},{"type":"event","name":"ClaimCreated","inputs":[{"name":"claimId","type":"bytes32","indexed":true,"internalType":"bytes32"},{"name":"emailHash","type":"bytes32","indexed":true,"internalType":"bytes32"},{"name":"quantity","type":"uint256","indexed":false,"internalType":"uint256"},{"name":"issuer","type":"address","indexed":true,"internalType":"address"}],"anonymous":false},{"type":"event","name":"ClaimRedeemed","inputs":[{"name":"claimId","type":"bytes32","indexed":true,"internalType":"bytes32"},{"name":"recipient","type":"address","indexed":true,"internalType":"address"},{"name":"lotId","type":"bytes32","indexed":true,"internalType":"bytes32"}],"anonymous":false},{"type":"event","name":"LotCreated","inputs":[{"name":"lotId","type":"bytes32","indexed":true,"internalType":"bytes32"},{"name":"customId","type":"uint256","indexed":true,"internalType":"uint256"},{"name":"owner","type":"address","indexed":true,"internalType":"address"},{"name":"quantity","type":"uint256","indexed":false,"internalType":"uint256"}],"anonymous":false},{"type":"error","name":"AccessControl_CallerIsNotAuthorized","inputs":[{"name":"caller","type":"address","internalType":"address"},{"name":"functionSig","type":"bytes4","internalType":"bytes4"}]},{"type":"error","name":"TokenClaims_AlreadyRedeemed","inputs":[]},{"type":"error","name":"TokenClaims_ClaimExpired","inputs":[]},{"type":"error","name":"TokenClaims_ClaimNotFound","inputs":[]},{"type":"error","name":"TokenClaims_InvalidDestination","inputs":[]},{"type":"error","name":"TokenClaims_InvalidDuration","inputs":[]},{"type":"error","name":"TokenClaims_InvalidQuantity","inputs":[]},{"type":"error","name":"TokenClaims_InvalidSecret","inputs":[]},{"type":"error","name":"TokenClaims_NotIssuer","inputs":[]},{"type":"error","name":"Token_InvalidAddress","inputs":[]},{"type":"error","name":"Token_InvalidQuantity","inputs":[]}],"bytecode":{"object":"0x6080806040523460155761116e908161001a8239f35b5f80fdfe60806040526004361015610011575f80fd5b5f358060e01c90816334d1d5b4146108a2575080633e62267c1461081c57806374244dae14610788578063c9100bcb146107175763f9be493614610053575f80fd5b34610713576060366003190112610713576024356004356001600160a01b03821680830361071357815f525f5160206111195f395f51905f5260205260405f2080541561070457600a8101805460ff81166106f55760098301544210156106e6576002830154604435036106d75783156106c85760019060ff191617905560038101549160018060a01b03600483015416926008600584015493600681015490610122604051916101128361010b8160078501610e11565b0384610d01565b61010b6040518096819301610e11565b83156106b9577f22ce1d58dbbbe3f2573a8aa67a5b301036cf40c4046c3db053dee7e96fed6ac55495600187017f22ce1d58dbbbe3f2573a8aa67a5b301036cf40c4046c3db053dee7e96fed6ac55560405160208101906001600160601b03198c60601b168252886034820152426054820152436074820152607481526101aa609482610d01565b519020976040519361016085019285841067ffffffffffffffff8511176105bc578a936040528886526020860192835260408601926001845260608701906001825260808801918a835260a0890193845260c0890194855260e08901954287526101008a01975f89526101208b01998a526101408b019b8c525f527f22ce1d58dbbbe3f2573a8aa67a5b301036cf40c4046c3db053dee7e96fed6ac360205260405f209960018060a01b039060018060a01b03905116166001600160601b0360a01b8b5416178a5560018a019260018060a01b039060018060a01b03905116166001600160601b0360a01b8454161783555115159082549051600a8110156106a55761ffff60a01b1990911660a09290921b60ff60a01b169190911760a89190911b60ff60a81b16179055516002870155516003860155516004850155516005840155516006830155518051600783019167ffffffffffffffff82116105bc5761031e826103188554610d8a565b85610dc2565b602090601f831160011461063e5791806103529260089695945f926105d0575b50508160011b915f199060031b1c19161790565b90555b01905180519067ffffffffffffffff82116105bc57610378826103188554610d8a565b602090601f83116001146105db576103a692915f91836105d05750508160011b915f199060031b1c19161790565b90555b6001600160a01b0386165f9081527f22ce1d58dbbbe3f2573a8aa67a5b301036cf40c4046c3db053dee7e96fed6ac460205260409020928354680100000000000000008110156105bc57600181018086558110156105a8577f1df47d6d7975d9e9ee4bb097b24fa8c4387f7b78a15a637434a890890011503d6020859461046d829b8a809a9681975f52855f20015560018060a01b03165f527f22ce1d58dbbbe3f2573a8aa67a5b301036cf40c4046c3db053dee7e96fed6ac460205260405f2090565b54845f527f22ce1d58dbbbe3f2573a8aa67a5b301036cf40c4046c3db053dee7e96fed6acb835260405f2055845f527f22ce1d58dbbbe3f2573a8aa67a5b301036cf40c4046c3db053dee7e96fed6ac682528360405f2055835f527f22ce1d58dbbbe3f2573a8aa67a5b301036cf40c4046c3db053dee7e96fed6ac782528460405f2055855f527f884b97143fd2abce15e00e9522133610789cde1e35b2d8c3022698f6693d36c6825260405f20610526828254610d23565b9055610553817f884b97143fd2abce15e00e9522133610789cde1e35b2d8c3022698f6693d36c754610d23565b7f884b97143fd2abce15e00e9522133610789cde1e35b2d8c3022698f6693d36c755604051908152a4604051937f43f1fde5b7a06bea3ef7c991541cae0405f912e285c1011977c11fae329337185f80a48152f35b634e487b7160e01b5f52603260045260245ffd5b634e487b7160e01b5f52604160045260245ffd5b015190505f8061033e565b90601f19831691845f52815f20925f5b818110610626575090846001959493921061060e575b505050811b0190556103a9565b01515f1960f88460031b161c191690555f8080610601565b929360206001819287860151815501950193016105eb565b90601f19831691845f52815f20925f5b81811061068d575091600193918560089897969410610675575b505050811b019055610355565b01515f1960f88460031b161c191690555f8080610668565b9293602060018192878601518155019501930161064e565b634e487b7160e01b5f52602160045260245ffd5b637782662560e01b5f5260045ffd5b6307ae908b60e01b5f5260045ffd5b631308b9e960e11b5f5260045ffd5b6319a467eb60e21b5f5260045ffd5b63973331a360e01b5f5260045ffd5b63d274528960e01b5f5260045ffd5b5f80fd5b34610713576020366003190112610713576004355f525f5160206111195f395f51905f5260205260a060405f20600181015490600381015490600a6009820154910154916040519384526020840152604083015260ff811615156060830152600180841b039060081c166080820152f35b3461071357602036600319011261071357600435805f525f5160206111195f395f51905f5260205260405f2080541561070457600a018054600881901c6001600160a01b0316330361080d5760ff81166106f55760ff1916600117905533907f71e7f4538abfa91725d325ea485529daaabf3cbcae9738aaadb86427b7d459b05f80a3005b63a3d16c3f60e01b5f5260045ffd5b34610713575f3660031901126107135760408051633a1226d760e11b60208201908152630d34756d60e21b602483015263c9100bcb60e01b6028830152637cdf249b60e11b602c830152601082529190610877603082610d01565b8151928391602083525180918160208501528484015e5f828201840152601f01601f19168101030190f35b346107135761012036600319011261071357604435906064356001600160a01b0381169060043590602435908390036107135760c43567ffffffffffffffff8111610713576108f5903690600401610cd3565b9060e43567ffffffffffffffff811161071357610916903690600401610cd3565b61010435979193916001600160e01b0319166109328133610e92565b15610cbd57508815610cae5787158015610ca1575b610c925761099360405160208101908882528760408201528b60608201524260808201524360a08201523360601b60c082015260b4815261098960d482610d01565b5190209842610d23565b9160405193610180850198858a1067ffffffffffffffff8b11176105bc578b996040528a8652610a0660208701978a895260408801998a52606088019d8e52608088019283526109f760a0890194608435865260c08a019660a43588523691610d44565b9560e089019687523691610d44565b610100870190815261012087019586525f6101408801818152336101608a019081528e83525f5160206111195f395f51905f5260205260409092209851895598516001890155985160028801559b516003870155516004860180546001600160a01b0319166001600160a01b0392909216919091179055516005850155516006840155518051939493600784019167ffffffffffffffff82116105bc57610ab1826103188554610d8a565b602090601f8311600114610c2f57610adf92915f9183610c245750508160011b915f199060031b1c19161790565b90555b60088201975197885167ffffffffffffffff81116105bc57602099610b0b826103188554610d8a565b8a90601f8311600114610bbd579180610b3e92600a979695945f92610bb25750508160011b915f199060031b1c19161790565b90555b51600982015592519201805491516001600160a81b031990921660ff931515939093169290921760089190911b610100600160a81b0316179055604051918252339183907fbbdbeef1b45a1746179257fe9fce76789a37da7877afd408c1d529fd02cccb72908690a4604051908152f35b015190508d8061033e565b90601f19831691845f52815f20925f5b818110610c0d5750916001939185600a999897969410610bf5575b505050811b019055610b41565b01515f1960f88460031b161c191690558c8080610be8565b92938e600181928786015181550195019301610bcd565b015190508c8061033e565b90601f19831691845f52815f20925f5b818110610c7a5750908460019594939210610c62575b505050811b019055610ae2565b01515f1960f88460031b161c191690558b8080610c55565b92936020600181928786015181550195019301610c3f565b63e260f46f60e01b5f5260045ffd5b506301e133808811610947565b6390523e2f60e01b5f5260045ffd5b631d64bc3360e11b5f523360045260245260445ffd5b9181601f840112156107135782359167ffffffffffffffff8311610713576020838186019501011161071357565b90601f8019910116810190811067ffffffffffffffff8211176105bc57604052565b91908201809211610d3057565b634e487b7160e01b5f52601160045260245ffd5b92919267ffffffffffffffff82116105bc5760405191610d6e601f8201601f191660200184610d01565b829481845281830111610713578281602093845f960137010152565b90600182811c92168015610db8575b6020831014610da457565b634e487b7160e01b5f52602260045260245ffd5b91607f1691610d99565b601f8211610dcf57505050565b5f5260205f20906020601f840160051c83019310610e07575b601f0160051c01905b818110610dfc575050565b5f8155600101610df1565b9091508190610de8565b5f9291815491610e2083610d8a565b8083529260018116908115610e755750600114610e3c57505050565b5f9081526020812093945091925b838310610e5b575060209250010190565b600181602092949394548385870101520191019190610e4a565b915050602093945060ff929192191683830152151560051b010190565b81610e9c91610ee3565b610edd577f511915e52b7f9e690b9fdc662acaf5600fd3722c87eb951d3abd26e93a784dca5c9060ff8216610ed15750505f90565b610eda916110c3565b90565b50600190565b7fce1c17acaaa67de66e928cd49c8f658667a825223bee6fda99a14908362bcdac546001600160a01b031680611018575b5060018060a01b0381165f527fce1c17acaaa67de66e928cd49c8f658667a825223bee6fda99a14908362bcdaa60205260405f20549163ffffffff60e01b165f527fce1c17acaaa67de66e928cd49c8f658667a825223bee6fda99a14908362bcdab60205260405f2054908115610fd4576001600160a01b03165f9081527fce1c17acaaa67de66e928cd49c8f658667a825223bee6fda99a14908362bcdaa60205260409020546001161515918215610fcc57505090565b161515919050565b6001600160a01b03165f9081527fce1c17acaaa67de66e928cd49c8f658667a825223bee6fda99a14908362bcdaa602052604090205460011615159150610eda9050565b6040805163b700961360e01b81526001600160a01b03841660048201523060248201526001600160e01b03198516604482015291829060649082905afa5f9181611074575b5015610f145761106d575f610f14565b5050600190565b9091506040813d6040116110bb575b8161109060409383610d01565b81010312610713578051908115158203610713576020015163ffffffff81160361071357905f61105d565b3d9150611083565b60ff1690811561106d5763ffffffff60e01b165f527fce1c17acaaa67de66e928cd49c8f658667a825223bee6fda99a14908362bcdab60205260405f2054908115611112576001901b16151590565b50505f9056fe59f690b73a98605fe16d8cce23ea37269fbb7f4ab4a6bf1122d0b2af1752e5aba2646970667358221220990afeb9a2c3503c7db914bb22330302981e804e33687d67debff396a16c79de64736f6c634300081e0033","linkReferences":{}},"methodIdentifiers":{"cancelClaim(bytes32)":"74244dae","createEmailClaim(bytes32,bytes32,uint256,address,uint256,uint256,string,bytes,uint256)":"34d1d5b4","getClaim(bytes32)":"c9100bcb","packedSelectors()":"3e62267c","redeemClaim(bytes32,address,bytes32)":"f9be4936"},"id":249}