{"abi":[{"type":"function","name":"TokenCompliance_init","inputs":[{"name":"admin","type":"address","internalType":"address"},{"name":"modules","type":"address[]","internalType":"address[]"},{"name":"names","type":"string[]","internalType":"string[]"}],"outputs":[],"stateMutability":"nonpayable"},{"type":"function","name":"addComplianceModule","inputs":[{"name":"module","type":"address","internalType":"address"},{"name":"name","type":"string","internalType":"string"}],"outputs":[],"stateMutability":"nonpayable"},{"type":"function","name":"addLotModule","inputs":[{"name":"lotId","type":"bytes32","internalType":"bytes32"},{"name":"module","type":"address","internalType":"address"}],"outputs":[],"stateMutability":"nonpayable"},{"type":"function","name":"getApplicableModules","inputs":[{"name":"lotId","type":"bytes32","internalType":"bytes32"}],"outputs":[{"name":"","type":"address[]","internalType":"address[]"}],"stateMutability":"view"},{"type":"function","name":"getComplianceModules","inputs":[],"outputs":[{"name":"","type":"address[]","internalType":"address[]"}],"stateMutability":"view"},{"type":"function","name":"getModuleByName","inputs":[{"name":"name","type":"string","internalType":"string"}],"outputs":[{"name":"","type":"address","internalType":"address"}],"stateMutability":"view"},{"type":"function","name":"isModuleRegistered","inputs":[{"name":"module","type":"address","internalType":"address"}],"outputs":[{"name":"","type":"bool","internalType":"bool"}],"stateMutability":"view"},{"type":"function","name":"lotHasSpecificModules","inputs":[{"name":"lotId","type":"bytes32","internalType":"bytes32"}],"outputs":[{"name":"","type":"bool","internalType":"bool"}],"stateMutability":"view"},{"type":"function","name":"packedSelectors","inputs":[],"outputs":[{"name":"","type":"bytes","internalType":"bytes"}],"stateMutability":"pure"},{"type":"function","name":"processTransferCompliance","inputs":[{"name":"from","type":"address","internalType":"address"},{"name":"to","type":"address","internalType":"address"},{"name":"lotId","type":"bytes32","internalType":"bytes32"},{"name":"quantity","type":"uint256","internalType":"uint256"}],"outputs":[],"stateMutability":"nonpayable"},{"type":"function","name":"removeComplianceModule","inputs":[{"name":"module","type":"address","internalType":"address"},{"name":"name","type":"string","internalType":"string"}],"outputs":[],"stateMutability":"nonpayable"},{"type":"function","name":"setLotAffiliate","inputs":[{"name":"","type":"bytes32","internalType":"bytes32"},{"name":"holder","type":"address","internalType":"address"},{"name":"isAffiliate","type":"bool","internalType":"bool"}],"outputs":[],"stateMutability":"nonpayable"},{"type":"function","name":"setLotLockup","inputs":[{"name":"lotId","type":"bytes32","internalType":"bytes32"},{"name":"unlockTime","type":"uint256","internalType":"uint256"}],"outputs":[],"stateMutability":"nonpayable"},{"type":"function","name":"setLotVesting","inputs":[{"name":"lotId","type":"bytes32","internalType":"bytes32"},{"name":"tokenHolder","type":"address","internalType":"address"},{"name":"totalAmount","type":"uint256","internalType":"uint256"},{"name":"startTime","type":"uint256","internalType":"uint256"},{"name":"duration","type":"uint256","internalType":"uint256"},{"name":"cliffDuration","type":"uint256","internalType":"uint256"},{"name":"revocable","type":"bool","internalType":"bool"}],"outputs":[],"stateMutability":"nonpayable"},{"type":"function","name":"validateTransferCompliance","inputs":[{"name":"from","type":"address","internalType":"address"},{"name":"to","type":"address","internalType":"address"},{"name":"lotId","type":"bytes32","internalType":"bytes32"},{"name":"quantity","type":"uint256","internalType":"uint256"}],"outputs":[{"name":"","type":"bool","internalType":"bool"}],"stateMutability":"view"},{"type":"event","name":"ComplianceModuleAdded","inputs":[{"name":"module","type":"address","indexed":true,"internalType":"address"},{"name":"name","type":"string","indexed":false,"internalType":"string"}],"anonymous":false},{"type":"event","name":"ComplianceModuleRemoved","inputs":[{"name":"module","type":"address","indexed":true,"internalType":"address"},{"name":"name","type":"string","indexed":false,"internalType":"string"}],"anonymous":false},{"type":"event","name":"LotModuleAdded","inputs":[{"name":"lotId","type":"bytes32","indexed":true,"internalType":"bytes32"},{"name":"module","type":"address","indexed":true,"internalType":"address"}],"anonymous":false},{"type":"event","name":"TransferProcessed","inputs":[{"name":"from","type":"address","indexed":true,"internalType":"address"},{"name":"to","type":"address","indexed":true,"internalType":"address"},{"name":"lotId","type":"bytes32","indexed":true,"internalType":"bytes32"},{"name":"quantity","type":"uint256","indexed":false,"internalType":"uint256"}],"anonymous":false},{"type":"event","name":"UserRoleUpdated","inputs":[{"name":"user","type":"address","indexed":true,"internalType":"address"},{"name":"role","type":"uint8","indexed":true,"internalType":"uint8"},{"name":"enabled","type":"bool","indexed":false,"internalType":"bool"}],"anonymous":false},{"type":"error","name":"AccessControl_CallerIsNotAuthorized","inputs":[{"name":"caller","type":"address","internalType":"address"},{"name":"functionSig","type":"bytes4","internalType":"bytes4"}]},{"type":"error","name":"TokenCompliance_AmountExceedsLot","inputs":[]},{"type":"error","name":"TokenCompliance_LotHasNoTokens","inputs":[]},{"type":"error","name":"TokenCompliance_ModuleCallFailed","inputs":[{"name":"moduleName","type":"string","internalType":"string"}]},{"type":"error","name":"TokenCompliance_ModuleNotInstalled","inputs":[{"name":"moduleName","type":"string","internalType":"string"}]},{"type":"error","name":"Token_InvalidModule","inputs":[]},{"type":"error","name":"Token_MaxModulesReached","inputs":[]},{"type":"error","name":"Token_ModuleAlreadyExists","inputs":[]},{"type":"error","name":"Token_ModuleNotFound","inputs":[]}],"bytecode":{"object":"0x60808060405234601557611b97908161001a8239f35b5f80fdfe60806040526004361015610011575f80fd5b5f358060e01c908163123cc3c61461101e578163140f8f7114610e4e5781631c5ebe2f14610e22578163343a585d14610d4d5781633681532c14610a715781633e62267c146109685781637e3e2cac1461092d578163940cf658146109075781639ef3182d14610791578163a2a4e64e1461069e578163b0ee6e4214610496578163c3cb178e14610346578163c8be2d1c1461031b578163e7b7a33c14610114575063f13d22c1146100c1575f80fd5b346101105760203660031901126101105760043567ffffffffffffffff8111610110576101066100f7602092369060040161129a565b6001600160a01b039291611569565b5416604051908152f35b5f80fd5b3461011057610122366112c8565b91909263ffffffff60e01b1661013881336118b3565b15610305575060ff610149826114e6565b5416156102f6576001600160a01b038116918391905f5b5f516020611b225f395f51905f5254808210156102c85785610181836113bd565b905460039190911b1c6001600160a01b0316146101a15750600101610160565b929391925f198101919082116102b4576101d86101c06101fc936113bd565b905460039190911b1c6001600160a01b0316916113bd565b81546001600160a01b0393841660039290921b91821b9390911b1916919091179055565b5f516020611b225f395f51905f525480156102a0577f82e4f4fd0d295fb3eb47f8f2ad29635566f9d369573f54e110210d94f47ff7f99361026a915f1901610243816113bd565b81549060018060a01b039060031b1b191690555f516020611b225f395f51905f52556114e6565b805460ff1916905561027c8282611569565b6001600160601b0360a01b815416905561029b604051928392836115a1565b0390a2005b634e487b7160e01b5f52603160045260245ffd5b634e487b7160e01b5f52601160045260245ffd5b5050909161026a7f82e4f4fd0d295fb3eb47f8f2ad29635566f9d369573f54e110210d94f47ff7f9936114e6565b6311fedc5f60e31b5f5260045ffd5b631d64bc3360e11b5f523360045260245260445ffd5b34610110575f366003190112610110576103426103366115c8565b6040519182918261137b565b0390f35b346101105760203660031901126101105761035f6115c8565b6004355f527f2e04875ee2641283b65dd528569752483368dad15bc7cf720b2748e39ada1b4f60205260405f20604051908181549182825260208201905f5260205f20925f5b8181106104745750506103ba92500382611416565b6103c782518251906118a6565b916103d183611631565b926103df6040519485611416565b8084526103ee601f1991611631565b013660208501375f5b8151811015610428576001906001600160a01b0361041582856116d4565b511661042182876116d4565b52016103f7565b505f5b8251811015610466576001906001600160a01b0361044982866116d4565b511661045f6104598386516118a6565b876116d4565b520161042b565b60405180610342868261137b565b84546001600160a01b03168352600194850194869450602090930192016103a5565b34610110576060366003190112610110576104af611284565b60243567ffffffffffffffff8111610110576104cf90369060040161134a565b909160443567ffffffffffffffff8111610110576104f190369060040161134a565b93909184840361068057600a841161068f576001600160a01b03165f8181525f516020611b025f395f51905f52602090815260408083208054600190811790915590519081529192917f4c9bdd0c8e073eb5eda2250b18d8e5121ff27b62064fbeeeed4869bb99bc5bf29190a38261056557005b5f5b83811061057057005b6001600160a01b0361058b610586838786611840565b611850565b1615610680578060ff6105ac6105a76105866001958988611840565b6114e6565b541661067b576105c86105c3610586838887611840565b61151e565b6105d96105a7610586838887611840565b805460ff1916831790556105f1610586828786611840565b6106056105ff838988611864565b90611569565b90838060a01b03166001600160601b0360a01b82541617905561062c610586828786611840565b7fc0a019358cc82fa360a239955490df9bb63aa49aee0394e8595628ac63bce9d0610658838988611864565b9092610671604051928392888060a01b031695836115a1565b0390a25b01610567565b610675565b6301770e1160e21b5f5260045ffd5b63ef9041b360e01b5f5260045ffd5b34610110576040366003190112610110576004356106ba61126e565b916001600160e01b0319166106cf81336118b3565b1561030557506001600160a01b03821691821561068057815f527f2e04875ee2641283b65dd528569752483368dad15bc7cf720b2748e39ada1b4f60205260405f2090815491600160401b83101561077d57826101d891600161073495018155611401565b805f525f516020611b425f395f51905f5260205260405f20600160ff198254161790557f877aae19a7fe6eca59b82d698fdd8310d02db06c2d5a61e97faac3ef35f317585f80a3005b634e487b7160e01b5f52604160045260245ffd5b346101105761079f3661130c565b9092831515806108e5575b156108d7576040516361e58bc760e11b8152600481018590525f81602481305afa9081156108cc575f916108aa575b50925b5f5b8451811015610869576001905f806001600160a01b036107fe848a6116d4565b5160405163e00e83c360e01b602082019081526001600160a01b03808b16602484015289166044830152606482018d9052608482018b905292909116919083906108558160a481015b03601f198101835282611416565b51925af150610862611454565b50016107de565b5060405192835284926001600160a01b0391821692909116907ffbc5ebb414a148446a583dca30b3b8c8f3373883133f067f1cd426023b4b1b9990602090a4005b6108c691503d805f833e6108be8183611416565b810190611649565b856107d9565b6040513d5f823e3d90fd5b6108df6115c8565b926107dc565b50835f525f516020611b425f395f51905f5260205260ff60405f2054166107aa565b3461011057602061092361091a3661130c565b929190916116f5565b6040519015158152f35b34610110576020366003190112610110576004355f525f516020611b425f395f51905f52602052602060ff60405f2054166040519015158152f35b34610110575f3660031901126101105760408051635877372160e11b6020820190815263343a585d60e01b6024830152635152732760e11b60288301526361e58bc760e11b602c83015263322f8b4760e21b603083015263f13d22c160e01b6034830152631c5ebe2f60e01b603880840191909152631f8f8b2b60e21b603c840152639ef3182d60e01b838501526339ede8cf60e21b604484015263091e61e360e11b604884015263140f8f7160e01b604c840152630da054cb60e21b60508401526312819ecb60e31b605484015282529190610a46605882611416565b8151928391602083525180918160208501528484015e5f828201840152601f01601f19168101030190f35b346101105760e036600319011261011057600435610a8d61126e565b6044359160c43593841515809503610110576001600160e01b031916610ab381336118b3565b156103055750805f527f22ce1d58dbbbe3f2573a8aa67a5b301036cf40c4046c3db053dee7e96fed6ac3602052600260405f2001549260405193637d7dff0960e01b85526004850152602084602481305afa9384156108cc575f94610d19575b508315610d0a57838111610cfb5761271081029080820461271014901517156102b4575f925f5f516020611b225f395f51905f5254905b818110610c35575b50506001600160a01b03841615610c05575f9586958693604051936020850196633c892ab960e01b8852602486015260018060a01b03166044850152046064830152606435608483015260843560a483015260a43560c483015260e482015260e48152610bc161010482611416565b51925af1610bcd611454565b5015610bd557005b60405163069dd61560e51b815260206004820152600760248201526656657374696e6760c81b6044820152606490fd5b6040516316f6e81760e11b815260206004820152600760248201526656657374696e6760c81b6044820152606490fd5b5f80610c40836113bd565b60018060a01b0391549060031b1c1660405160208101906349f844cd60e11b825260048152610c70602482611416565b51915afa610c7c611454565b90610c8b575b50600101610b4a565b80602080610c9e93518301019101611483565b60208151910120600760206040610cb781519182611416565b828152016656657374696e6760c81b81522014610cd45788610c82565b9050610ce19194506113bd565b905460039190911b1c6001600160a01b0316928680610b52565b6399aea32f60e01b5f5260045ffd5b63256b2d3360e11b5f5260045ffd5b9093506020813d602011610d45575b81610d3560209383611416565b8101031261011057519285610b13565b3d9150610d28565b3461011057610d5b366112c8565b90926001600160e01b031916610d7181336118b3565b1561030557506001600160a01b0382169283156106805760ff610d93846114e6565b5416610e135760095f516020611b225f395f51905f52541161068f57610ddd836105a77fc0a019358cc82fa360a239955490df9bb63aa49aee0394e8595628ac63bce9d09561151e565b805460ff19166001179055610df28282611569565b846001600160601b0360a01b82541617905561029b604051928392836115a1565b6372120d3760e11b5f5260045ffd5b3461011057602036600319011261011057602060ff610e426105a7611284565b54166040519015158152f35b34610110576040366003190112610110576001600160e01b031916610e7381336118b3565b15610305575f5f5f516020611b225f395f51905f5254905b818110610f4b575b50506001600160a01b03811615610f1c575f8091604051826020820191630e38281b60e21b83526004356024820152602435604482015260448152610ed9606482611416565b51925af1610ee5611454565b5015610eed57005b60405163069dd61560e51b815260206004820152600660248201526504c6f636b75760d41b6044820152606490fd5b6040516316f6e81760e11b815260206004820152600660248201526504c6f636b75760d41b6044820152606490fd5b5f80610f56836113bd565b60018060a01b0391549060031b1c1660405160208101906349f844cd60e11b825260048152610f86602482611416565b51915afa610f92611454565b90610fa1575b50600101610e8b565b80602080610fb493518301019101611483565b60208151910120601660206040610fcd81519182611416565b82815201754c6f636b7570436f6d706c69616e63654d6f64756c6560501b81522014610ff95783610f98565b905061100591506113bd565b905460039190911b1c6001600160a01b03168180610e93565b346101105760603660031901126101105761103761126e565b9060443590811515809203610110576001600160e01b03191661105a81336118b3565b1561030557505f5f5f516020611b225f395f51905f5254905b818110611143575b50506001600160a01b03811615611111575f92838093604051906020820193636cc84cf760e11b855230602484015260018060a01b031660448301526064820152606481526110cb608482611416565b51925af16110d7611454565b50156110df57005b60405163069dd61560e51b8152602060048201526009602482015268416666696c6961746560b81b6044820152606490fd5b6040516316f6e81760e11b8152602060048201526009602482015268416666696c6961746560b81b6044820152606490fd5b5f8061114e836113bd565b60018060a01b0391549060031b1c1660405160208101906349f844cd60e11b82526004815261117e602482611416565b51915afa61118a611454565b90611199575b50600101611073565b806020806111ac93518301019101611483565b805160208201908120906040916017602084516111c98682611416565b828152017f416666696c6961746520537461747573204d6f64756c650000000000000000008152201492831561122c575b5050506112075785611190565b905061121391506113bd565b905460039190911b1c6001600160a01b0316838061107b565b6015929350906020915190209261124581519182611416565b8281520174416666696c696174655374617475734d6f64756c6560581b815220148680806111fa565b602435906001600160a01b038216820361011057565b600435906001600160a01b038216820361011057565b9181601f840112156101105782359167ffffffffffffffff8311610110576020838186019501011161011057565b906040600319830112610110576004356001600160a01b038116810361011057916024359067ffffffffffffffff8211610110576113089160040161129a565b9091565b6080906003190112610110576004356001600160a01b038116810361011057906024356001600160a01b038116810361011057906044359060643590565b9181601f840112156101105782359167ffffffffffffffff8311610110576020808501948460051b01011161011057565b60206040818301928281528451809452019201905f5b81811061139e5750505090565b82516001600160a01b0316845260209384019390920191600101611391565b5f516020611b225f395f51905f52548110156113ed575f516020611b225f395f51905f525f5260205f2001905f90565b634e487b7160e01b5f52603260045260245ffd5b80548210156113ed575f5260205f2001905f90565b90601f8019910116810190811067ffffffffffffffff82111761077d57604052565b67ffffffffffffffff811161077d57601f01601f191660200190565b3d1561147e573d9061146582611438565b916114736040519384611416565b82523d5f602084013e565b606090565b6020818303126101105780519067ffffffffffffffff8211610110570181601f82011215610110578051906114b782611438565b926114c56040519485611416565b8284526020838301011161011057815f9260208093018386015e8301015290565b6001600160a01b03165f9081527f2e04875ee2641283b65dd528569752483368dad15bc7cf720b2748e39ada1b4d6020526040902090565b5f516020611b225f395f51905f525490600160401b82101561077d576101d882600161156794015f516020611b225f395f51905f52555f516020611b225f395f51905f52611401565b565b60209082604051938492833781017f2e04875ee2641283b65dd528569752483368dad15bc7cf720b2748e39ada1b4e81520301902090565b90918060409360208452816020850152848401375f828201840152601f01601f1916010190565b604051905f516020611b225f395f51905f525480835282602081015f516020611b225f395f51905f525f5260205f20925f5b81811061160f57505061156792500383611416565b84546001600160a01b03168352600194850194879450602090930192016115fa565b67ffffffffffffffff811161077d5760051b60200190565b6020818303126101105780519067ffffffffffffffff821161011057019080601f830112156101105781519061167e82611631565b9261168c6040519485611416565b82845260208085019360051b82010191821161011057602001915b8183106116b45750505090565b82516001600160a01b0381168103610110578152602092830192016116a7565b80518210156113ed5760209160051b010190565b5190811515820361011057565b91928315158061181e575b15611810576040516361e58bc760e11b8152600481018590525f81602481305afa9081156108cc575f916117f6575b50925b5f5b84518110156117eb575f806001600160a01b0361175184896116d4565b5160405163962b155960e01b602082019081526001600160a01b0380891660248401528a166044830152606482018c90526084820189905292909116919061179c8160a48101610847565b51915afa6117a8611454565b90159081156117c9575b506117bf57600101611734565b5050505050505f90565b90506020818051810103126101105760206117e491016116e8565b155f6117b2565b505050505050600190565b61180a91503d805f833e6108be8183611416565b5f61172f565b6118186115c8565b92611732565b50835f525f516020611b425f395f51905f5260205260ff60405f205416611700565b91908110156113ed5760051b0190565b356001600160a01b03811681036101105790565b91908110156113ed5760051b81013590601e198136030182121561011057019081359167ffffffffffffffff8311610110576020018236038113610110579190565b919082018092116102b457565b816118bd91611904565b6118fe577f511915e52b7f9e690b9fdc662acaf5600fd3722c87eb951d3abd26e93a784dca5c9060ff82166118f25750505f90565b6118fb91611aac565b90565b50600190565b7fce1c17acaaa67de66e928cd49c8f658667a825223bee6fda99a14908362bcdac546001600160a01b031680611a03575b506001600160a01b0381165f9081525f516020611b025f395f51905f5260205260409020549163ffffffff60e01b165f527fce1c17acaaa67de66e928cd49c8f658667a825223bee6fda99a14908362bcdab60205260405f20549081156119d2576001600160a01b03165f9081525f516020611b025f395f51905f52602052604090205460011615159182156119ca57505090565b161515919050565b6001600160a01b03165f9081525f516020611b025f395f51905f526020526040902054600116151591506118fb9050565b6040805163b700961360e01b81526001600160a01b03841660048201523060248201526001600160e01b03198516604482015291829060649082905afa5f9181611a5f575b501561193557611a58575f611935565b5050600190565b9091506040813d604011611aa4575b81611a7b60409383611416565b81010312610110576020611a8e826116e8565b91015163ffffffff81160361011057905f611a48565b3d9150611a6e565b60ff16908115611a585763ffffffff60e01b165f527fce1c17acaaa67de66e928cd49c8f658667a825223bee6fda99a14908362bcdab60205260405f2054908115611afb576001901b16151590565b50505f9056fece1c17acaaa67de66e928cd49c8f658667a825223bee6fda99a14908362bcdaa2e04875ee2641283b65dd528569752483368dad15bc7cf720b2748e39ada1b4c2e04875ee2641283b65dd528569752483368dad15bc7cf720b2748e39ada1b50a26469706673582212205ec6a4ded6a3ae167356ac6761092eb807d78e16f429517370510f6118eb08f964736f6c634300081e0033","linkReferences":{}},"methodIdentifiers":{"TokenCompliance_init(address,address[],string[])":"b0ee6e42","addComplianceModule(address,string)":"343a585d","addLotModule(bytes32,address)":"a2a4e64e","getApplicableModules(bytes32)":"c3cb178e","getComplianceModules()":"c8be2d1c","getModuleByName(string)":"f13d22c1","isModuleRegistered(address)":"1c5ebe2f","lotHasSpecificModules(bytes32)":"7e3e2cac","packedSelectors()":"3e62267c","processTransferCompliance(address,address,bytes32,uint256)":"9ef3182d","removeComplianceModule(address,string)":"e7b7a33c","setLotAffiliate(bytes32,address,bool)":"123cc3c6","setLotLockup(bytes32,uint256)":"140f8f71","setLotVesting(bytes32,address,uint256,uint256,uint256,uint256,bool)":"3681532c","validateTransferCompliance(address,address,bytes32,uint256)":"940cf658"},"id":250}