{"abi":[{"type":"function","name":"TokenMetadata_init","inputs":[{"name":"_name","type":"string","internalType":"string"},{"name":"_symbol","type":"string","internalType":"string"},{"name":"_decimals","type":"uint8","internalType":"uint8"},{"name":"_baseUri","type":"string","internalType":"string"}],"outputs":[],"stateMutability":"nonpayable"},{"type":"function","name":"baseURI","inputs":[],"outputs":[{"name":"","type":"string","internalType":"string"}],"stateMutability":"view"},{"type":"function","name":"decimals","inputs":[],"outputs":[{"name":"","type":"uint8","internalType":"uint8"}],"stateMutability":"view"},{"type":"function","name":"name","inputs":[],"outputs":[{"name":"","type":"string","internalType":"string"}],"stateMutability":"view"},{"type":"function","name":"packedSelectors","inputs":[],"outputs":[{"name":"","type":"bytes","internalType":"bytes"}],"stateMutability":"pure"},{"type":"function","name":"symbol","inputs":[],"outputs":[{"name":"","type":"string","internalType":"string"}],"stateMutability":"view"},{"type":"error","name":"Token_AlreadyInitialized","inputs":[]}],"bytecode":{"object":"0x608080604052346015576109fe908161001a8239f35b5f80fdfe60806040526004361015610011575f80fd5b5f3560e01c806306fdde03146107f2578063313ce567146107b35780633e62267c1461074c5780636c0360eb1461068f57806395d89b41146105955763f116f3cc1461005b575f80fd5b346105915760803660031901126105915760043567ffffffffffffffff81116105915761008c9036906004016108c0565b9060243567ffffffffffffffff8111610591576100ad9036906004016108c0565b6044939193359060ff82168092036105915760643567ffffffffffffffff8111610591576100df9036906004016108c0565b9390945f5160206109495f395f51905f5254906100fb826108ee565b6105825767ffffffffffffffff83116103635761011883926108ee565b601f8111610504575b505f90601f8311600114610479575f9261046e575b50508160011b915f199060031b1c1916175f5160206109495f395f51905f52555b67ffffffffffffffff81116103635761017d5f5160206109895f395f51905f52546108ee565b601f81116103ff575b505f601f82116001146103825781929394955f92610377575b50508160011b915f199060031b1c1916175f5160206109895f395f51905f52555b60ff197fa8d31c85d757810c11f5f60578050022017dabacf14505ece08eb685f50a23385416177fa8d31c85d757810c11f5f60578050022017dabacf14505ece08eb685f50a23385567ffffffffffffffff81116103635761022f5f5160206109695f395f51905f52546108ee565b601f81116102f4575b505f601f821160011461027d5781925f92610272575b50505f19600383901b1c191660019190911b175f5160206109695f395f51905f5255005b013590505f8061024e565b601f198216925f5160206109695f395f51905f525f5260205f20915f5b8581106102dc575083600195106102c3575b505050811b015f5160206109695f395f51905f5255005b01355f19600384901b60f8161c191690555f80806102ac565b9092602060018192868601358155019401910161029a565b5f5160206109695f395f51905f525f527f654a3b4ffd98c003e347e1b22e7974529a1c3ba9b6cf7dfd78a62dc7275551b7601f830160051c81019160208410610359575b601f0160051c01905b81811061034e5750610238565b5f8155600101610341565b9091508190610338565b634e487b7160e01b5f52604160045260245ffd5b013590505f8061019f565b601f198216955f5160206109895f395f51905f525f5260205f20915f5b8881106103e7575083600195969798106103ce575b505050811b015f5160206109895f395f51905f52556101c0565b01355f19600384901b60f8161c191690555f80806103b4565b9092602060018192868601358155019401910161039f565b5f5160206109895f395f51905f525f527fee3bfb134bacc295c3ebb2e4093b198180b945145e9d9efd2a03e23373af71f0601f830160051c81019160208410610464575b601f0160051c01905b8181106104595750610186565b5f815560010161044c565b9091508190610443565b013590505f80610136565b909150601f198316915f5160206109495f395f51905f525f525f5160206109a95f395f51905f52925f5b8181106104ec57509084600195949392106104d3575b505050811b015f5160206109495f395f51905f5255610157565b01355f19600384901b60f8161c191690555f80806104b9565b919360206001819287870135815501950192016104a3565b9091505f5160206109495f395f51905f525f52601f830160051c5f5160206109a95f395f51905f5201906020841061056d575b90601f8493920160051c5f5160206109a95f395f51905f5201905b81811061055f5750610121565b5f8155849350600101610552565b5f5160206109a95f395f51905f529150610537565b6393e721db60e01b5f5260045ffd5b5f80fd5b34610591575f366003190112610591576040515f5f5160206109895f395f51905f52546105c1816108ee565b808452906001811690811561066b5750600114610601575b6105fd836105e981850382610926565b60405191829160208352602083019061089c565b0390f35b5f5160206109895f395f51905f525f9081527fee3bfb134bacc295c3ebb2e4093b198180b945145e9d9efd2a03e23373af71f0939250905b808210610651575090915081016020016105e96105d9565b919260018160209254838588010152019101909291610639565b60ff191660208086019190915291151560051b840190910191506105e990506105d9565b34610591575f366003190112610591576040515f5f5160206109695f395f51905f52546106bb816108ee565b808452906001811690811561066b57506001146106e2576105fd836105e981850382610926565b5f5160206109695f395f51905f525f9081527f654a3b4ffd98c003e347e1b22e7974529a1c3ba9b6cf7dfd78a62dc7275551b7939250905b808210610732575090915081016020016105e96105d9565b91926001816020925483858801015201910190929161071a565b34610591575f36600319011261059157604051633c45bcf360e21b6020820152636c0360eb60e01b602482015263313ce56760e01b60288201526306fdde0360e01b602c8201526395d89b4160e01b6030820152601481526105fd906105e9603482610926565b34610591575f36600319011261059157602060ff7fa8d31c85d757810c11f5f60578050022017dabacf14505ece08eb685f50a23385416604051908152f35b34610591575f366003190112610591576040515f5f5160206109495f395f51905f525461081e816108ee565b808452906001811690811561066b5750600114610845576105fd836105e981850382610926565b5f5160206109495f395f51905f525f9081525f5160206109a95f395f51905f52939250905b808210610882575090915081016020016105e96105d9565b91926001816020925483858801015201910190929161086a565b805180835260209291819084018484015e5f828201840152601f01601f1916010190565b9181601f840112156105915782359167ffffffffffffffff8311610591576020838186019501011161059157565b90600182811c9216801561091c575b602083101461090857565b634e487b7160e01b5f52602260045260245ffd5b91607f16916108fd565b90601f8019910116810190811067ffffffffffffffff8211176103635760405256fea8d31c85d757810c11f5f60578050022017dabacf14505ece08eb685f50a2336a8d31c85d757810c11f5f60578050022017dabacf14505ece08eb685f50a2339a8d31c85d757810c11f5f60578050022017dabacf14505ece08eb685f50a23373012c9092bbb74f4332cd7c74bc5d404689a5b44bfb1fc7d411bbbab80a9f877a26469706673582212208d5908e6188cc1388c9ef1b17b73bc4c6971db6e2c3c0371f7ca87af71e96e4664736f6c634300081e0033","linkReferences":{}},"methodIdentifiers":{"TokenMetadata_init(string,string,uint8,string)":"f116f3cc","baseURI()":"6c0360eb","decimals()":"313ce567","name()":"06fdde03","packedSelectors()":"3e62267c","symbol()":"95d89b41"},"id":257}