{"abi":[{"type":"function","name":"freezeAccount","inputs":[{"name":"account","type":"address","internalType":"address"}],"outputs":[],"stateMutability":"nonpayable"},{"type":"function","name":"freezeLot","inputs":[{"name":"lotId","type":"bytes32","internalType":"bytes32"}],"outputs":[],"stateMutability":"nonpayable"},{"type":"function","name":"getBeforeTransferHook","inputs":[],"outputs":[{"name":"","type":"address","internalType":"address"}],"stateMutability":"view"},{"type":"function","name":"isAccountFrozen","inputs":[{"name":"account","type":"address","internalType":"address"}],"outputs":[{"name":"","type":"bool","internalType":"bool"}],"stateMutability":"view"},{"type":"function","name":"isLotFrozen","inputs":[{"name":"lotId","type":"bytes32","internalType":"bytes32"}],"outputs":[{"name":"","type":"bool","internalType":"bool"}],"stateMutability":"view"},{"type":"function","name":"isRetired","inputs":[],"outputs":[{"name":"","type":"bool","internalType":"bool"}],"stateMutability":"view"},{"type":"function","name":"maxSupply","inputs":[],"outputs":[{"name":"","type":"uint256","internalType":"uint256"}],"stateMutability":"view"},{"type":"function","name":"packedSelectors","inputs":[],"outputs":[{"name":"","type":"bytes","internalType":"bytes"}],"stateMutability":"pure"},{"type":"function","name":"pause","inputs":[],"outputs":[],"stateMutability":"nonpayable"},{"type":"function","name":"paused","inputs":[],"outputs":[{"name":"","type":"bool","internalType":"bool"}],"stateMutability":"view"},{"type":"function","name":"retireToken","inputs":[],"outputs":[],"stateMutability":"nonpayable"},{"type":"function","name":"retiredAt","inputs":[],"outputs":[{"name":"","type":"uint256","internalType":"uint256"}],"stateMutability":"view"},{"type":"function","name":"setBaseURI","inputs":[{"name":"newBaseURI","type":"string","internalType":"string"}],"outputs":[],"stateMutability":"nonpayable"},{"type":"function","name":"setBeforeTransferHook","inputs":[{"name":"hook","type":"address","internalType":"address"}],"outputs":[],"stateMutability":"nonpayable"},{"type":"function","name":"setMaxSupply","inputs":[{"name":"_maxSupply","type":"uint256","internalType":"uint256"}],"outputs":[],"stateMutability":"nonpayable"},{"type":"function","name":"unfreezeAccount","inputs":[{"name":"account","type":"address","internalType":"address"}],"outputs":[],"stateMutability":"nonpayable"},{"type":"function","name":"unfreezeLot","inputs":[{"name":"lotId","type":"bytes32","internalType":"bytes32"}],"outputs":[],"stateMutability":"nonpayable"},{"type":"function","name":"unpause","inputs":[],"outputs":[],"stateMutability":"nonpayable"},{"type":"function","name":"unretireToken","inputs":[],"outputs":[],"stateMutability":"nonpayable"},{"type":"event","name":"AccountFrozen","inputs":[{"name":"account","type":"address","indexed":true,"internalType":"address"}],"anonymous":false},{"type":"event","name":"AccountUnfrozen","inputs":[{"name":"account","type":"address","indexed":true,"internalType":"address"}],"anonymous":false},{"type":"event","name":"BaseURIUpdated","inputs":[{"name":"newBaseURI","type":"string","indexed":false,"internalType":"string"}],"anonymous":false},{"type":"event","name":"BeforeTransferHookSet","inputs":[{"name":"hook","type":"address","indexed":true,"internalType":"address"}],"anonymous":false},{"type":"event","name":"LotFrozen","inputs":[{"name":"lotId","type":"bytes32","indexed":true,"internalType":"bytes32"}],"anonymous":false},{"type":"event","name":"LotUnfrozen","inputs":[{"name":"lotId","type":"bytes32","indexed":true,"internalType":"bytes32"}],"anonymous":false},{"type":"event","name":"MaxSupplyUpdated","inputs":[{"name":"maxSupply","type":"uint256","indexed":false,"internalType":"uint256"}],"anonymous":false},{"type":"event","name":"Paused","inputs":[{"name":"account","type":"address","indexed":true,"internalType":"address"}],"anonymous":false},{"type":"event","name":"TokenRetired","inputs":[{"name":"timestamp","type":"uint256","indexed":false,"internalType":"uint256"}],"anonymous":false},{"type":"event","name":"TokenUnretired","inputs":[{"name":"timestamp","type":"uint256","indexed":false,"internalType":"uint256"}],"anonymous":false},{"type":"event","name":"Unpaused","inputs":[{"name":"account","type":"address","indexed":true,"internalType":"address"}],"anonymous":false},{"type":"error","name":"AccessControl_CallerIsNotAuthorized","inputs":[{"name":"caller","type":"address","internalType":"address"},{"name":"functionSig","type":"bytes4","internalType":"bytes4"}]},{"type":"error","name":"Token_AccountAlreadyFrozen","inputs":[]},{"type":"error","name":"Token_AccountNotFrozen","inputs":[]},{"type":"error","name":"Token_AlreadyPaused","inputs":[]},{"type":"error","name":"Token_AlreadyRetired","inputs":[]},{"type":"error","name":"Token_CannotRetireWithSupply","inputs":[]},{"type":"error","name":"Token_CannotRetireWithUnconvertedSAFEs","inputs":[]},{"type":"error","name":"Token_LotAlreadyFrozen","inputs":[]},{"type":"error","name":"Token_LotNotFrozen","inputs":[]},{"type":"error","name":"Token_NotPaused","inputs":[]},{"type":"error","name":"Token_NotRetired","inputs":[]}],"bytecode":{"object":"0x60808060405234601557611118908161001a8239f35b5f80fdfe6080806040526004361015610012575f80fd5b5f35908160e01c9081631c65bcb914610d4b575080632249ffde14610d045780633e62267c14610bc75780633f4ba83a14610b3c57806349343cee14610b0e5780634b19876f14610ad257806355f804b31461084f5780635c975abb146108215780636f8b44b0146107a257806372fd6667146105dc578063788649ea146105435780638456cb59146104b65780638929565f1461041d5780639300c8101461036a578063d486df95146102c4578063d5abeb0114610288578063dfc05aaf146101e0578063e816d97f146101a35763f26c159f146100ef575f80fd5b3461019f57602036600319011261019f576004356001600160a01b0381169182820361019f576001600160e01b0319166101298133610ddc565b15610189575060ff61013a82610da4565b541661017a5761014990610da4565b805460ff191660011790557f4f2a367e694e71282f29ab5eaa04c4c0be45ac5bf2ca74fb67068b98bdc2887d5f80a2005b637368178160e11b5f5260045ffd5b631d64bc3360e11b5f523360045260245260445ffd5b5f80fd5b3461019f57602036600319011261019f576004356001600160a01b038116810361019f5760ff6101d4602092610da4565b54166040519015158152f35b503461019f57602036600319011261019f57600435906001600160e01b03191661020a8133610ddc565b156101895750805f525f5160206110635f395f51905f5260205260ff60405f20541661027957805f525f5160206110635f395f51905f5260205260405f20600160ff198254161790557fadffb1dc8f05db4bf973a3d64d9f4a184b4ab3ecf6905dbca4a1b2eb11b57ba35f80a2005b631d56e58d60e01b5f5260045ffd5b3461019f575f36600319011261019f5760207f7a01f87f9a8f9e1b6c8162fa0fafecd3fd84d00f744103a9448c2f301ec4d71254604051908152f35b503461019f57602036600319011261019f57600435906001600160e01b0319166102ee8133610ddc565b156101895750805f525f5160206110635f395f51905f5260205260ff60405f2054161561035b57805f525f5160206110635f395f51905f5260205260405f2060ff1981541690557f68019ce31799213bf2c6f2d95022e7e8b7785fa5f2d016512006d7d6744e27a25f80a2005b637eec62e160e11b5f5260045ffd5b503461019f575f36600319011261019f576001600160e01b03191661038f8133610ddc565b15610189575f5160206110835f395f51905f525460ff81161561040e5760ff19165f5160206110835f395f51905f52555f7f7a01f87f9a8f9e1b6c8162fa0fafecd3fd84d00f744103a9448c2f301ec4d714557f80c7dea55ce4d66be2524242a0a81e6118fc2f3d81a6b7658f4372ff74aa805e6020604051428152a1005b6321662eed60e11b5f5260045ffd5b503461019f57602036600319011261019f576004356001600160a01b038116919082900361019f576001600160e01b0319166104598133610ddc565b1561018957507fc1fd0fc54f6c3a722064b53514ce890e310999f4a90cb54f46af085962d464a180546001600160a01b031916821790557f6b354c5f163626c6c1f2a0a7b551ee3cd06cbe5fd35e8fe74388b9c28f05d7685f80a2005b503461019f575f36600319011261019f576001600160e01b0319166104db8133610ddc565b15610189575f5160206110c35f395f51905f525460ff81166105345760ff19166001175f5160206110c35f395f51905f5255337f62e78cea01bee320cd4e420270b5ea74000d11b0c9f74754ebdbfc544b05a2585f80a2005b63f415877d60e01b5f5260045ffd5b503461019f57602036600319011261019f576004356001600160a01b0381169182820361019f576001600160e01b03191661057e8133610ddc565b15610189575060ff61058f82610da4565b5416156105cd5761059f90610da4565b805460ff191690557ff915cd9fe234de6e8d3afe7bf2388d35b2b6d48e8c629a24602019bde79c213a5f80a2005b63e6e4586160e01b5f5260045ffd5b503461019f575f36600319011261019f576001600160e01b0319166106018133610ddc565b15610189575f5160206110835f395f51905f525460ff8116610793577f884b97143fd2abce15e00e9522133610789cde1e35b2d8c3022698f6693d36c754610784575f806040516020810190638f51093b60e01b825260048152610666602482610d82565b5190305afa3d1561077c573d9067ffffffffffffffff8211610768576040519161069a601f8201601f191660200184610d82565b82523d5f602084013e5b8061075c575b610715575b60018260ff1916175f5160206110835f395f51905f5255427f7a01f87f9a8f9e1b6c8162fa0fafecd3fd84d00f744103a9448c2f301ec4d714557f8a01fe5875457966e558bd73170a1e8c158b78219805546e5349b8b4c787ed196020604051428152a1005b60608180518101031261019f57604060208201519101518115159182610751575b505061074257816106af565b632e6abf4b60e01b5f5260045ffd5b141590508280610736565b506060815110156106aa565b634e487b7160e01b5f52604160045260245ffd5b6060906106a4565b6371dfd0e360e11b5f5260045ffd5b63c459adf160e01b5f5260045ffd5b503461019f57602036600319011261019f57600435906001600160e01b0319166107cc8133610ddc565b15610189577f7810bd47de260c3e9ee10061cf438099dd12256c79485f12f94dbccc981e806c602083807f7a01f87f9a8f9e1b6c8162fa0fafecd3fd84d00f744103a9448c2f301ec4d71255604051908152a1005b3461019f575f36600319011261019f57602060ff5f5160206110c35f395f51905f5254166040519015158152f35b503461019f57602036600319011261019f576004359067ffffffffffffffff821161019f573660238301121561019f5781600401359067ffffffffffffffff821161019f57366024838501011161019f576001600160e01b0319166108b48133610ddc565b1561018957505f5160206110a35f395f51905f5254600181811c91168015610ac8575b6020821014610ab457601f8111610a45575b505f601f821160011461097e577f6741b2fc379fad678116fe3d4d4b9a1a184ab53ba36b86ad0fa66340b1ab41ad92826024936040935f91610971575b508160011b905f198360031b1c1916175f5160206110a35f395f51905f52555b8083519485936020855282602086015201848401375f828201840152601f01601f19168101030190a1005b859150830101355f610926565b5f5160206110a35f395f51905f525f9081527f654a3b4ffd98c003e347e1b22e7974529a1c3ba9b6cf7dfd78a62dc7275551b79190601f198416905b818110610a2a5750926040927f6741b2fc379fad678116fe3d4d4b9a1a184ab53ba36b86ad0fa66340b1ab41ad95928260249610610a0f575b5050600181811b015f5160206110a35f395f51905f5255610946565b83018501355f19600384901b60f8161c191690555f806109f3565b91926020600181926024878a010135815501940192016109ba565b5f5160206110a35f395f51905f525f527f654a3b4ffd98c003e347e1b22e7974529a1c3ba9b6cf7dfd78a62dc7275551b7601f830160051c81019160208410610aaa575b601f0160051c01905b818110610a9f57506108e9565b5f8155600101610a92565b9091508190610a89565b634e487b7160e01b5f52602260045260245ffd5b90607f16906108d7565b3461019f575f36600319011261019f5760207f7a01f87f9a8f9e1b6c8162fa0fafecd3fd84d00f744103a9448c2f301ec4d71454604051908152f35b3461019f575f36600319011261019f57602060ff5f5160206110835f395f51905f5254166040519015158152f35b503461019f575f36600319011261019f576001600160e01b031916610b618133610ddc565b15610189575f5160206110c35f395f51905f525460ff811615610bb85760ff19165f5160206110c35f395f51905f5255337f5db9ee0a495bf2e6ff9c91a7834c1ba4fdd244a5e8aa4e537bd38aeae4b073aa5f80a2005b636cb6579f60e01b5f5260045ffd5b3461019f575f36600319011261019f576040805163f26c159f60e01b6020820190815263dfc05aaf60e01b6024830152631124ffef60e11b602883015263e816d97f60e01b602c830152631c65bcb960e01b603083015263249a1e7760e11b603483015263d5abeb0160e01b6038830152638456cb5960e01b603c830152635c975abb60e01b828401526372fd666760e01b6044830152634b19876f60e01b6048808401919091526355f804b360e01b604c840152638929565f60e01b60508401526306f8b44b60e41b6054840152633c4324f560e11b605884015263d486df9560e01b605c840152631fa5d41d60e11b60608401526309300c8160e41b606484015282529190610cd9606882610d82565b8151928391602083525180918160208501528484015e5f828201840152601f01601f19168101030190f35b3461019f575f36600319011261019f577fc1fd0fc54f6c3a722064b53514ce890e310999f4a90cb54f46af085962d464a1546040516001600160a01b039091168152602090f35b3461019f57602036600319011261019f576020906004355f525f5160206110635f395f51905f52825260ff60405f20541615158152f35b90601f8019910116810190811067ffffffffffffffff82111761076857604052565b6001600160a01b03165f9081527f7a01f87f9a8f9e1b6c8162fa0fafecd3fd84d00f744103a9448c2f301ec4d7106020526040902090565b81610de691610e2d565b610e27577f511915e52b7f9e690b9fdc662acaf5600fd3722c87eb951d3abd26e93a784dca5c9060ff8216610e1b5750505f90565b610e249161100d565b90565b50600190565b7fce1c17acaaa67de66e928cd49c8f658667a825223bee6fda99a14908362bcdac546001600160a01b031680610f62575b5060018060a01b0381165f527fce1c17acaaa67de66e928cd49c8f658667a825223bee6fda99a14908362bcdaa60205260405f20549163ffffffff60e01b165f527fce1c17acaaa67de66e928cd49c8f658667a825223bee6fda99a14908362bcdab60205260405f2054908115610f1e576001600160a01b03165f9081527fce1c17acaaa67de66e928cd49c8f658667a825223bee6fda99a14908362bcdaa60205260409020546001161515918215610f1657505090565b161515919050565b6001600160a01b03165f9081527fce1c17acaaa67de66e928cd49c8f658667a825223bee6fda99a14908362bcdaa602052604090205460011615159150610e249050565b6040805163b700961360e01b81526001600160a01b03841660048201523060248201526001600160e01b03198516604482015291829060649082905afa5f9181610fbe575b5015610e5e57610fb7575f610e5e565b5050600190565b9091506040813d604011611005575b81610fda60409383610d82565b8101031261019f57805190811515820361019f576020015163ffffffff81160361019f57905f610fa7565b3d9150610fcd565b60ff16908115610fb75763ffffffff60e01b165f527fce1c17acaaa67de66e928cd49c8f658667a825223bee6fda99a14908362bcdab60205260405f205490811561105c576001901b16151590565b50505f9056fe7a01f87f9a8f9e1b6c8162fa0fafecd3fd84d00f744103a9448c2f301ec4d7117a01f87f9a8f9e1b6c8162fa0fafecd3fd84d00f744103a9448c2f301ec4d713a8d31c85d757810c11f5f60578050022017dabacf14505ece08eb685f50a23397a01f87f9a8f9e1b6c8162fa0fafecd3fd84d00f744103a9448c2f301ec4d70fa264697066735822122023499fe8c2b5ff644e8bf5f8830d309c85a4271e307e058462bbef925bd0e81164736f6c634300081e0033","linkReferences":{}},"methodIdentifiers":{"freezeAccount(address)":"f26c159f","freezeLot(bytes32)":"dfc05aaf","getBeforeTransferHook()":"2249ffde","isAccountFrozen(address)":"e816d97f","isLotFrozen(bytes32)":"1c65bcb9","isRetired()":"49343cee","maxSupply()":"d5abeb01","packedSelectors()":"3e62267c","pause()":"8456cb59","paused()":"5c975abb","retireToken()":"72fd6667","retiredAt()":"4b19876f","setBaseURI(string)":"55f804b3","setBeforeTransferHook(address)":"8929565f","setMaxSupply(uint256)":"6f8b44b0","unfreezeAccount(address)":"788649ea","unfreezeLot(bytes32)":"d486df95","unpause()":"3f4ba83a","unretireToken()":"9300c810"},"id":246}