{"abi":[{"type":"function","name":"TokenCompliance_init","inputs":[{"name":"admin","type":"address","internalType":"address"}],"outputs":[],"stateMutability":"nonpayable"},{"type":"function","name":"addComplianceModule","inputs":[{"name":"module","type":"address","internalType":"address"},{"name":"name","type":"string","internalType":"string"}],"outputs":[],"stateMutability":"nonpayable"},{"type":"function","name":"addLotModule","inputs":[{"name":"lotId","type":"bytes32","internalType":"bytes32"},{"name":"module","type":"address","internalType":"address"}],"outputs":[],"stateMutability":"nonpayable"},{"type":"function","name":"getApplicableModules","inputs":[{"name":"lotId","type":"bytes32","internalType":"bytes32"}],"outputs":[{"name":"","type":"address[]","internalType":"address[]"}],"stateMutability":"view"},{"type":"function","name":"getComplianceModules","inputs":[],"outputs":[{"name":"","type":"address[]","internalType":"address[]"}],"stateMutability":"view"},{"type":"function","name":"getModuleByName","inputs":[{"name":"name","type":"string","internalType":"string"}],"outputs":[{"name":"","type":"address","internalType":"address"}],"stateMutability":"view"},{"type":"function","name":"isModuleRegistered","inputs":[{"name":"module","type":"address","internalType":"address"}],"outputs":[{"name":"","type":"bool","internalType":"bool"}],"stateMutability":"view"},{"type":"function","name":"lotHasSpecificModules","inputs":[{"name":"lotId","type":"bytes32","internalType":"bytes32"}],"outputs":[{"name":"","type":"bool","internalType":"bool"}],"stateMutability":"view"},{"type":"function","name":"processTransferCompliance","inputs":[{"name":"from","type":"address","internalType":"address"},{"name":"to","type":"address","internalType":"address"},{"name":"lotId","type":"bytes32","internalType":"bytes32"},{"name":"quantity","type":"uint256","internalType":"uint256"}],"outputs":[],"stateMutability":"nonpayable"},{"type":"function","name":"removeComplianceModule","inputs":[{"name":"module","type":"address","internalType":"address"},{"name":"name","type":"string","internalType":"string"}],"outputs":[],"stateMutability":"nonpayable"},{"type":"function","name":"validateTransferCompliance","inputs":[{"name":"from","type":"address","internalType":"address"},{"name":"to","type":"address","internalType":"address"},{"name":"lotId","type":"bytes32","internalType":"bytes32"},{"name":"quantity","type":"uint256","internalType":"uint256"}],"outputs":[{"name":"","type":"bool","internalType":"bool"}],"stateMutability":"view"},{"type":"event","name":"ComplianceModuleAdded","inputs":[{"name":"module","type":"address","indexed":true,"internalType":"address"},{"name":"name","type":"string","indexed":false,"internalType":"string"}],"anonymous":false},{"type":"event","name":"ComplianceModuleRemoved","inputs":[{"name":"module","type":"address","indexed":true,"internalType":"address"},{"name":"name","type":"string","indexed":false,"internalType":"string"}],"anonymous":false},{"type":"event","name":"LotModuleAdded","inputs":[{"name":"lotId","type":"bytes32","indexed":true,"internalType":"bytes32"},{"name":"module","type":"address","indexed":true,"internalType":"address"}],"anonymous":false},{"type":"event","name":"TransferProcessed","inputs":[{"name":"from","type":"address","indexed":true,"internalType":"address"},{"name":"to","type":"address","indexed":true,"internalType":"address"},{"name":"lotId","type":"bytes32","indexed":true,"internalType":"bytes32"},{"name":"quantity","type":"uint256","indexed":false,"internalType":"uint256"}],"anonymous":false},{"type":"event","name":"UserRoleUpdated","inputs":[{"name":"user","type":"address","indexed":true,"internalType":"address"},{"name":"role","type":"uint8","indexed":true,"internalType":"uint8"},{"name":"enabled","type":"bool","indexed":false,"internalType":"bool"}],"anonymous":false},{"type":"error","name":"AccessControl_CallerIsNotAuthorized","inputs":[{"name":"caller","type":"address","internalType":"address"},{"name":"functionSig","type":"bytes4","internalType":"bytes4"}]},{"type":"error","name":"Token_InvalidModule","inputs":[]},{"type":"error","name":"Token_MaxModulesReached","inputs":[]},{"type":"error","name":"Token_ModuleAlreadyExists","inputs":[]},{"type":"error","name":"Token_ModuleNotFound","inputs":[]}],"bytecode":{"object":"0x60808060405234601557610f53908161001a8239f35b5f80fdfe60806040526004361015610011575f80fd5b5f358060e01c9081631c5ebe2f146108ed578163343a585d146107bf578163482ecf0a1461074b5781637e3e2cac14610710578163940cf658146106ea5781639ef3182d14610574578163a2a4e64e1461046f578163c3cb178e1461031f578163c8be2d1c146102f4578163e7b7a33c146100e8575063f13d22c114610095575f80fd5b346100e45760203660031901126100e45760043567ffffffffffffffff81116100e4576100da6100cb602092369060040161092f565b6001600160a01b039291610ab2565b5416604051908152f35b5f80fd5b346100e4576100f63661095d565b91909263ffffffff60e01b1661010c8133610ded565b156102de575060ff61011d82610a21565b5416156102cf576001600160a01b038116918391905f5b5f516020610efe5f395f51905f5254808210156102a1578561015583610a59565b905460039190911b1c6001600160a01b0316146101755750600101610134565b929391925f1981019190821161028d576101ac6101946101d093610a59565b905460039190911b1c6001600160a01b031691610a59565b81546001600160a01b0393841660039290921b91821b9390911b1916919091179055565b5f516020610efe5f395f51905f52548015610279577f82e4f4fd0d295fb3eb47f8f2ad29635566f9d369573f54e110210d94f47ff7f99361023e915f190161021781610a59565b81549060018060a01b039060031b1b191690555f516020610efe5f395f51905f5255610a21565b805460ff191690556102508282610ab2565b6bffffffffffffffffffffffff60a01b815416905561027460405192839283610aea565b0390a2005b634e487b7160e01b5f52603160045260245ffd5b634e487b7160e01b5f52601160045260245ffd5b5050909161023e7f82e4f4fd0d295fb3eb47f8f2ad29635566f9d369573f54e110210d94f47ff7f993610a21565b6311fedc5f60e31b5f5260045ffd5b631d64bc3360e11b5f523360045260245260445ffd5b346100e4575f3660031901126100e45761031b61030f610b33565b604051918291826109df565b0390f35b346100e45760203660031901126100e457610338610b33565b6004355f527f6f91acb62d95b157921a9afd6899507d78552295b3412b6de17ec4cdd026d7d160205260405f20604051908181549182825260208201905f5260205f20925f5b81811061044d57505061039392500382610b11565b6103a08251825190610de0565b916103aa83610b9e565b926103b86040519485610b11565b8084526103c7601f1991610b9e565b013660208501375f5b8151811015610401576001906001600160a01b036103ee8285610c41565b51166103fa8287610c41565b52016103d0565b505f5b825181101561043f576001906001600160a01b036104228286610c41565b5116610438610432838651610de0565b87610c41565b5201610404565b6040518061031b86826109df565b84546001600160a01b031683526001948501948694506020909301920161037e565b346100e45760403660031901126100e4576024356001600160a01b0381169160043591908382036100e4576001600160e01b0319166104ae8133610ded565b156102de5750821561056557815f527f6f91acb62d95b157921a9afd6899507d78552295b3412b6de17ec4cdd026d7d160205260405f2090815491600160401b83101561055157826101ac91600161050895018155610a9d565b805f525f516020610ede5f395f51905f5260205260405f20600160ff198254161790557f877aae19a7fe6eca59b82d698fdd8310d02db06c2d5a61e97faac3ef35f317585f80a3005b634e487b7160e01b5f52604160045260245ffd5b6301770e1160e21b5f5260045ffd5b346100e457610582366109a1565b9092831515806106c8575b156106ba576040516361e58bc760e11b8152600481018590525f81602481305afa9081156106af575f9161068d575b50925b5f5b845181101561064c576001905f806001600160a01b036105e1848a610c41565b5160405163e00e83c360e01b602082019081526001600160a01b03808b16602484015289166044830152606482018d9052608482018b905292909116919083906106388160a481015b03601f198101835282610b11565b51925af150610645610c55565b50016105c1565b5060405192835284926001600160a01b0391821692909116907ffbc5ebb414a148446a583dca30b3b8c8f3373883133f067f1cd426023b4b1b9990602090a4005b6106a991503d805f833e6106a18183610b11565b810190610bb6565b856105bc565b6040513d5f823e3d90fd5b6106c2610b33565b926105bf565b50835f525f516020610ede5f395f51905f5260205260ff60405f20541661058d565b346100e45760206107066106fd366109a1565b92919091610c94565b6040519015158152f35b346100e45760203660031901126100e4576004355f525f516020610ede5f395f51905f52602052602060ff60405f2054166040519015158152f35b346100e45760203660031901126100e4575f610765610919565b6001600160a01b03165f8181525f516020610ebe5f395f51905f5260209081526040918290208054600190811790915591519182527f4c9bdd0c8e073eb5eda2250b18d8e5121ff27b62064fbeeeed4869bb99bc5bf291a3005b346100e4576107cd3661095d565b90926001600160e01b0319166107e38133610ded565b156102de57506001600160a01b0382169283156105655760ff61080584610a21565b54166108de5760095f516020610efe5f395f51905f5254116108cf575f516020610efe5f395f51905f5254600160401b811015610551578361088f7fc0a019358cc82fa360a239955490df9bb63aa49aee0394e8595628ac63bce9d0956101ac84600161089496015f516020610efe5f395f51905f52555f516020610efe5f395f51905f52610a9d565b610a21565b805460ff191660011790556108a98282610ab2565b846bffffffffffffffffffffffff60a01b82541617905561027460405192839283610aea565b63ef9041b360e01b5f5260045ffd5b6372120d3760e11b5f5260045ffd5b346100e45760203660031901126100e457602060ff61090d61088f610919565b54166040519015158152f35b600435906001600160a01b03821682036100e457565b9181601f840112156100e45782359167ffffffffffffffff83116100e457602083818601950101116100e457565b9060406003198301126100e4576004356001600160a01b03811681036100e457916024359067ffffffffffffffff82116100e45761099d9160040161092f565b9091565b60809060031901126100e4576004356001600160a01b03811681036100e457906024356001600160a01b03811681036100e457906044359060643590565b60206040818301928281528451809452019201905f5b818110610a025750505090565b82516001600160a01b03168452602093840193909201916001016109f5565b6001600160a01b03165f9081527f6f91acb62d95b157921a9afd6899507d78552295b3412b6de17ec4cdd026d7cf6020526040902090565b5f516020610efe5f395f51905f5254811015610a89575f516020610efe5f395f51905f525f5260205f2001905f90565b634e487b7160e01b5f52603260045260245ffd5b8054821015610a89575f5260205f2001905f90565b60209082604051938492833781017f6f91acb62d95b157921a9afd6899507d78552295b3412b6de17ec4cdd026d7d081520301902090565b90918060409360208452816020850152848401375f828201840152601f01601f1916010190565b90601f8019910116810190811067ffffffffffffffff82111761055157604052565b604051905f516020610efe5f395f51905f525480835282602081015f516020610efe5f395f51905f525f5260205f20925f5b818110610b7c575050610b7a92500383610b11565b565b84546001600160a01b0316835260019485019487945060209093019201610b65565b67ffffffffffffffff81116105515760051b60200190565b6020818303126100e45780519067ffffffffffffffff82116100e457019080601f830112156100e457815190610beb82610b9e565b92610bf96040519485610b11565b82845260208085019360051b8201019182116100e457602001915b818310610c215750505090565b82516001600160a01b03811681036100e457815260209283019201610c14565b8051821015610a895760209160051b010190565b3d15610c8f573d9067ffffffffffffffff82116105515760405191610c84601f8201601f191660200184610b11565b82523d5f602084013e565b606090565b919283151580610dbe575b15610db0576040516361e58bc760e11b8152600481018590525f81602481305afa9081156106af575f91610d96575b50925b5f5b8451811015610d8b575f806001600160a01b03610cf08489610c41565b5160405163962b155960e01b602082019081526001600160a01b0380891660248401528a166044830152606482018c905260848201899052929091169190610d3b8160a4810161062a565b51915afa610d47610c55565b9015908115610d68575b50610d5e57600101610cd3565b5050505050505f90565b90506020818051810103126100e457602001518015908115036100e4575f610d51565b505050505050600190565b610daa91503d805f833e6106a18183610b11565b5f610cce565b610db8610b33565b92610cd1565b50835f525f516020610ede5f395f51905f5260205260ff60405f205416610c9f565b9190820180921161028d57565b6001600160a01b0381165f9081525f516020610ebe5f395f51905f5260205260409020549163ffffffff60e01b165f527f35edad4c931e57ec40cedc90b9e3e052832d1b49c07eb789b019aea9b39c91da60205260405f2054908115610e89576001600160a01b03165f9081525f516020610ebe5f395f51905f5260205260409020546001161515918215610e8157505090565b161515919050565b6001600160a01b03165f9081525f516020610ebe5f395f51905f52602052604090205460011615159150610eba9050565b9056fe35edad4c931e57ec40cedc90b9e3e052832d1b49c07eb789b019aea9b39c91d96f91acb62d95b157921a9afd6899507d78552295b3412b6de17ec4cdd026d7d26f91acb62d95b157921a9afd6899507d78552295b3412b6de17ec4cdd026d7cea264697066735822122053b5741a38b08716bfed3f061e416ada134004f08fd806051692dbf92e2e195064736f6c634300081e0033","linkReferences":{}},"methodIdentifiers":{"TokenCompliance_init(address)":"482ecf0a","addComplianceModule(address,string)":"343a585d","addLotModule(bytes32,address)":"a2a4e64e","getApplicableModules(bytes32)":"c3cb178e","getComplianceModules()":"c8be2d1c","getModuleByName(string)":"f13d22c1","isModuleRegistered(address)":"1c5ebe2f","lotHasSpecificModules(bytes32)":"7e3e2cac","processTransferCompliance(address,address,bytes32,uint256)":"9ef3182d","removeComplianceModule(address,string)":"e7b7a33c","validateTransferCompliance(address,address,bytes32,uint256)":"940cf658"},"id":4}