{"abi":[{"type":"function","name":"freezeAccount","inputs":[{"name":"account","type":"address","internalType":"address"}],"outputs":[],"stateMutability":"nonpayable"},{"type":"function","name":"freezeLot","inputs":[{"name":"lotId","type":"bytes32","internalType":"bytes32"}],"outputs":[],"stateMutability":"nonpayable"},{"type":"function","name":"isAccountFrozen","inputs":[{"name":"account","type":"address","internalType":"address"}],"outputs":[{"name":"","type":"bool","internalType":"bool"}],"stateMutability":"view"},{"type":"function","name":"isLotFrozen","inputs":[{"name":"lotId","type":"bytes32","internalType":"bytes32"}],"outputs":[{"name":"","type":"bool","internalType":"bool"}],"stateMutability":"view"},{"type":"function","name":"maxSupply","inputs":[],"outputs":[{"name":"","type":"uint256","internalType":"uint256"}],"stateMutability":"view"},{"type":"function","name":"pause","inputs":[],"outputs":[],"stateMutability":"nonpayable"},{"type":"function","name":"paused","inputs":[],"outputs":[{"name":"","type":"bool","internalType":"bool"}],"stateMutability":"view"},{"type":"function","name":"setBaseURI","inputs":[{"name":"newBaseURI","type":"string","internalType":"string"}],"outputs":[],"stateMutability":"nonpayable"},{"type":"function","name":"setMaxSupply","inputs":[{"name":"_maxSupply","type":"uint256","internalType":"uint256"}],"outputs":[],"stateMutability":"nonpayable"},{"type":"function","name":"unfreezeAccount","inputs":[{"name":"account","type":"address","internalType":"address"}],"outputs":[],"stateMutability":"nonpayable"},{"type":"function","name":"unfreezeLot","inputs":[{"name":"lotId","type":"bytes32","internalType":"bytes32"}],"outputs":[],"stateMutability":"nonpayable"},{"type":"function","name":"unpause","inputs":[],"outputs":[],"stateMutability":"nonpayable"},{"type":"event","name":"AccountFrozen","inputs":[{"name":"account","type":"address","indexed":true,"internalType":"address"}],"anonymous":false},{"type":"event","name":"AccountUnfrozen","inputs":[{"name":"account","type":"address","indexed":true,"internalType":"address"}],"anonymous":false},{"type":"event","name":"BaseURIUpdated","inputs":[{"name":"newBaseURI","type":"string","indexed":false,"internalType":"string"}],"anonymous":false},{"type":"event","name":"LotFrozen","inputs":[{"name":"lotId","type":"bytes32","indexed":true,"internalType":"bytes32"}],"anonymous":false},{"type":"event","name":"LotUnfrozen","inputs":[{"name":"lotId","type":"bytes32","indexed":true,"internalType":"bytes32"}],"anonymous":false},{"type":"event","name":"MaxSupplyUpdated","inputs":[{"name":"maxSupply","type":"uint256","indexed":false,"internalType":"uint256"}],"anonymous":false},{"type":"event","name":"Paused","inputs":[{"name":"account","type":"address","indexed":true,"internalType":"address"}],"anonymous":false},{"type":"event","name":"Unpaused","inputs":[{"name":"account","type":"address","indexed":true,"internalType":"address"}],"anonymous":false},{"type":"error","name":"AccessControl_CallerIsNotAuthorized","inputs":[{"name":"caller","type":"address","internalType":"address"},{"name":"functionSig","type":"bytes4","internalType":"bytes4"}]},{"type":"error","name":"Token_AccountAlreadyFrozen","inputs":[]},{"type":"error","name":"Token_AccountNotFrozen","inputs":[]},{"type":"error","name":"Token_AlreadyPaused","inputs":[]},{"type":"error","name":"Token_LotAlreadyFrozen","inputs":[]},{"type":"error","name":"Token_LotNotFrozen","inputs":[]},{"type":"error","name":"Token_NotPaused","inputs":[]}],"bytecode":{"object":"0x608080604052346015576109c4908161001a8239f35b5f80fdfe6080806040526004361015610012575f80fd5b5f35908160e01c9081631c65bcb9146107fe575080633f4ba83a1461077357806355f804b3146104f05780635c975abb146104c25780636f8b44b014610443578063788649ea146103aa5780638456cb591461031d578063d486df9514610277578063d5abeb011461023b578063dfc05aaf14610193578063e816d97f146101565763f26c159f146100a2575f80fd5b34610152576020366003190112610152576004356001600160a01b03811691828203610152576001600160e01b0319166100dc813361086d565b1561013c575060ff6100ed82610835565b541661012d576100fc90610835565b805460ff191660011790557f4f2a367e694e71282f29ab5eaa04c4c0be45ac5bf2ca74fb67068b98bdc2887d5f80a2005b637368178160e11b5f5260045ffd5b631d64bc3360e11b5f523360045260245260445ffd5b5f80fd5b34610152576020366003190112610152576004356001600160a01b03811681036101525760ff610187602092610835565b54166040519015158152f35b503461015257602036600319011261015257600435906001600160e01b0319166101bd813361086d565b1561013c5750805f525f51602061096f5f395f51905f5260205260ff60405f20541661022c57805f525f51602061096f5f395f51905f5260205260405f20600160ff198254161790557fadffb1dc8f05db4bf973a3d64d9f4a184b4ab3ecf6905dbca4a1b2eb11b57ba35f80a2005b631d56e58d60e01b5f5260045ffd5b34610152575f3660031901126101525760207fa1bf139cd1fbb7ab220fe2ad0c0725cf27749decebd3021e7171da15395e8fd454604051908152f35b503461015257602036600319011261015257600435906001600160e01b0319166102a1813361086d565b1561013c5750805f525f51602061096f5f395f51905f5260205260ff60405f2054161561030e57805f525f51602061096f5f395f51905f5260205260405f2060ff1981541690557f68019ce31799213bf2c6f2d95022e7e8b7785fa5f2d016512006d7d6744e27a25f80a2005b637eec62e160e11b5f5260045ffd5b5034610152575f366003190112610152576001600160e01b031916610342813361086d565b1561013c575f51602061092f5f395f51905f525460ff811661039b5760ff19166001175f51602061092f5f395f51905f5255337f62e78cea01bee320cd4e420270b5ea74000d11b0c9f74754ebdbfc544b05a2585f80a2005b63f415877d60e01b5f5260045ffd5b5034610152576020366003190112610152576004356001600160a01b03811691828203610152576001600160e01b0319166103e5813361086d565b1561013c575060ff6103f682610835565b5416156104345761040690610835565b805460ff191690557ff915cd9fe234de6e8d3afe7bf2388d35b2b6d48e8c629a24602019bde79c213a5f80a2005b63e6e4586160e01b5f5260045ffd5b503461015257602036600319011261015257600435906001600160e01b03191661046d813361086d565b1561013c577f7810bd47de260c3e9ee10061cf438099dd12256c79485f12f94dbccc981e806c602083807fa1bf139cd1fbb7ab220fe2ad0c0725cf27749decebd3021e7171da15395e8fd455604051908152a1005b34610152575f36600319011261015257602060ff5f51602061092f5f395f51905f5254166040519015158152f35b5034610152576020366003190112610152576004359067ffffffffffffffff821161015257366023830112156101525781600401359067ffffffffffffffff8211610152573660248385010111610152576001600160e01b031916610555813361086d565b1561013c57505f51602061094f5f395f51905f5254600181811c91168015610769575b602082101461075557601f81116106e6575b505f601f821160011461061f577f6741b2fc379fad678116fe3d4d4b9a1a184ab53ba36b86ad0fa66340b1ab41ad92826024936040935f91610612575b508160011b905f198360031b1c1916175f51602061094f5f395f51905f52555b8083519485936020855282602086015201848401375f828201840152601f01601f19168101030190a1005b859150830101355f6105c7565b5f51602061094f5f395f51905f525f9081527f78926ff2c6393c4af14ccf7ab4260f3ac7e5fe09de09064a81f8ccb9abf6658b9190601f198416905b8181106106cb5750926040927f6741b2fc379fad678116fe3d4d4b9a1a184ab53ba36b86ad0fa66340b1ab41ad959282602496106106b0575b5050600181811b015f51602061094f5f395f51905f52556105e7565b83018501355f19600384901b60f8161c191690555f80610694565b91926020600181926024878a0101358155019401920161065b565b5f51602061094f5f395f51905f525f527f78926ff2c6393c4af14ccf7ab4260f3ac7e5fe09de09064a81f8ccb9abf6658b601f830160051c8101916020841061074b575b601f0160051c01905b818110610740575061058a565b5f8155600101610733565b909150819061072a565b634e487b7160e01b5f52602260045260245ffd5b90607f1690610578565b5034610152575f366003190112610152576001600160e01b031916610798813361086d565b1561013c575f51602061092f5f395f51905f525460ff8116156107ef5760ff19165f51602061092f5f395f51905f5255337f5db9ee0a495bf2e6ff9c91a7834c1ba4fdd244a5e8aa4e537bd38aeae4b073aa5f80a2005b636cb6579f60e01b5f5260045ffd5b34610152576020366003190112610152576020906004355f525f51602061096f5f395f51905f52825260ff60405f20541615158152f35b6001600160a01b03165f9081527fa1bf139cd1fbb7ab220fe2ad0c0725cf27749decebd3021e7171da15395e8fd26020526040902090565b6001600160a01b03165f8181527f35edad4c931e57ec40cedc90b9e3e052832d1b49c07eb789b019aea9b39c91d960209081526040808320546001600160e01b031990951683527f35edad4c931e57ec40cedc90b9e3e052832d1b49c07eb789b019aea9b39c91da909152902054908115610926575f527f35edad4c931e57ec40cedc90b9e3e052832d1b49c07eb789b019aea9b39c91d9602052600160405f205416159182159261091e57505090565b161515919050565b50505060019056fea1bf139cd1fbb7ab220fe2ad0c0725cf27749decebd3021e7171da15395e8fd101c2455094cda0d5cdfedb8328ca92c26517e5682673870a2f9f06d0ec3f9ccca1bf139cd1fbb7ab220fe2ad0c0725cf27749decebd3021e7171da15395e8fd3a26469706673582212205e09862bd802b7a54b9c9665e79c5d7cfbc46b426d4ed98f94a761748da0049c64736f6c634300081e0033","linkReferences":{}},"methodIdentifiers":{"freezeAccount(address)":"f26c159f","freezeLot(bytes32)":"dfc05aaf","isAccountFrozen(address)":"e816d97f","isLotFrozen(bytes32)":"1c65bcb9","maxSupply()":"d5abeb01","pause()":"8456cb59","paused()":"5c975abb","setBaseURI(string)":"55f804b3","setMaxSupply(uint256)":"6f8b44b0","unfreezeAccount(address)":"788649ea","unfreezeLot(bytes32)":"d486df95","unpause()":"3f4ba83a"},"id":90}