{"abi":[{"type":"function","name":"earlyExerciseOption","inputs":[{"name":"grantId","type":"uint256","internalType":"uint256"},{"name":"sharesToExercise","type":"uint256","internalType":"uint256"}],"outputs":[{"name":"equityLotId","type":"bytes32","internalType":"bytes32"}],"stateMutability":"nonpayable"},{"type":"function","name":"exerciseOption","inputs":[{"name":"grantId","type":"uint256","internalType":"uint256"},{"name":"sharesToExercise","type":"uint256","internalType":"uint256"}],"outputs":[{"name":"equityLotId","type":"bytes32","internalType":"bytes32"}],"stateMutability":"nonpayable"},{"type":"function","name":"expireOptions","inputs":[{"name":"grantIds","type":"uint256[]","internalType":"uint256[]"}],"outputs":[{"name":"expiredCount","type":"uint256","internalType":"uint256"}],"stateMutability":"nonpayable"},{"type":"function","name":"forfeitOption","inputs":[{"name":"grantId","type":"uint256","internalType":"uint256"}],"outputs":[],"stateMutability":"nonpayable"},{"type":"function","name":"getCompanyWallet","inputs":[],"outputs":[{"name":"companyWallet","type":"address","internalType":"address"}],"stateMutability":"view"},{"type":"function","name":"getEarlyExerciseRecord","inputs":[{"name":"grantId","type":"uint256","internalType":"uint256"}],"outputs":[{"name":"record","type":"tuple","internalType":"struct ITokenOption.EarlyExerciseRecord","components":[{"name":"grantId","type":"uint256","internalType":"uint256"},{"name":"exerciseDate","type":"uint256","internalType":"uint256"},{"name":"totalShares","type":"uint256","internalType":"uint256"},{"name":"vestedAtExercise","type":"uint256","internalType":"uint256"},{"name":"unvestedAtExercise","type":"uint256","internalType":"uint256"},{"name":"repurchasePrice","type":"uint256","internalType":"uint256"},{"name":"election83bHash","type":"bytes32","internalType":"bytes32"},{"name":"election83bDeadline","type":"uint256","internalType":"uint256"},{"name":"election83bFiled","type":"bool","internalType":"bool"}]}],"stateMutability":"view"},{"type":"function","name":"getEquityToken","inputs":[],"outputs":[{"name":"equityToken","type":"address","internalType":"address"}],"stateMutability":"view"},{"type":"function","name":"getExercisableShares","inputs":[{"name":"grantId","type":"uint256","internalType":"uint256"}],"outputs":[{"name":"exercisableShares","type":"uint256","internalType":"uint256"}],"stateMutability":"view"},{"type":"function","name":"getISOGrantsInYear","inputs":[{"name":"recipient","type":"address","internalType":"address"}],"outputs":[{"name":"totalValue","type":"uint256","internalType":"uint256"}],"stateMutability":"view"},{"type":"function","name":"getOptionGrant","inputs":[{"name":"grantId","type":"uint256","internalType":"uint256"}],"outputs":[{"name":"grant","type":"tuple","internalType":"struct ITokenOption.OptionGrant","components":[{"name":"grantId","type":"uint256","internalType":"uint256"},{"name":"lotId","type":"bytes32","internalType":"bytes32"},{"name":"recipient","type":"address","internalType":"address"},{"name":"optionType","type":"uint8","internalType":"enum ITokenOption.OptionType"},{"name":"status","type":"uint8","internalType":"enum ITokenOption.OptionStatus"},{"name":"totalShares","type":"uint256","internalType":"uint256"},{"name":"exercisedShares","type":"uint256","internalType":"uint256"},{"name":"forfeitedShares","type":"uint256","internalType":"uint256"},{"name":"strikePrice","type":"uint256","internalType":"uint256"},{"name":"grantDate","type":"uint256","internalType":"uint256"},{"name":"expirationDate","type":"uint256","internalType":"uint256"},{"name":"earlyExercise","type":"bool","internalType":"bool"}]}],"stateMutability":"view"},{"type":"function","name":"getPlanURI","inputs":[],"outputs":[{"name":"uri","type":"string","internalType":"string"}],"stateMutability":"view"},{"type":"function","name":"getPoolStats","inputs":[],"outputs":[{"name":"authorized","type":"uint256","internalType":"uint256"},{"name":"granted","type":"uint256","internalType":"uint256"},{"name":"exercised","type":"uint256","internalType":"uint256"},{"name":"forfeited","type":"uint256","internalType":"uint256"},{"name":"available","type":"uint256","internalType":"uint256"}],"stateMutability":"view"},{"type":"function","name":"getRecipientGrants","inputs":[{"name":"recipient","type":"address","internalType":"address"}],"outputs":[{"name":"grantIds","type":"uint256[]","internalType":"uint256[]"}],"stateMutability":"view"},{"type":"function","name":"getUnvestedEarlyExerciseShares","inputs":[{"name":"grantId","type":"uint256","internalType":"uint256"}],"outputs":[{"name":"unvestedShares","type":"uint256","internalType":"uint256"}],"stateMutability":"view"},{"type":"function","name":"getVestedShares","inputs":[{"name":"grantId","type":"uint256","internalType":"uint256"}],"outputs":[{"name":"vestedShares","type":"uint256","internalType":"uint256"}],"stateMutability":"view"},{"type":"function","name":"getVestingModule","inputs":[],"outputs":[{"name":"vestingModule","type":"address","internalType":"address"}],"stateMutability":"view"},{"type":"function","name":"grantOption","inputs":[{"name":"recipient","type":"address","internalType":"address"},{"name":"optionType","type":"uint8","internalType":"enum ITokenOption.OptionType"},{"name":"totalShares","type":"uint256","internalType":"uint256"},{"name":"strikePrice","type":"uint256","internalType":"uint256"},{"name":"expirationDate","type":"uint256","internalType":"uint256"},{"name":"vestingDuration","type":"uint256","internalType":"uint256"},{"name":"cliffDuration","type":"uint256","internalType":"uint256"},{"name":"earlyExercise","type":"bool","internalType":"bool"}],"outputs":[{"name":"grantId","type":"uint256","internalType":"uint256"}],"stateMutability":"nonpayable"},{"type":"function","name":"initialize","inputs":[{"name":"params","type":"tuple","internalType":"struct ITokenOption.InitParams","components":[{"name":"equityToken","type":"address","internalType":"address"},{"name":"paymentToken","type":"address","internalType":"address"},{"name":"companyWallet","type":"address","internalType":"address"},{"name":"vestingModule","type":"address","internalType":"address"},{"name":"authorizedPool","type":"uint256","internalType":"uint256"},{"name":"planURI","type":"string","internalType":"string"}]}],"outputs":[],"stateMutability":"nonpayable"},{"type":"function","name":"packedSelectors","inputs":[],"outputs":[{"name":"","type":"bytes","internalType":"bytes"}],"stateMutability":"pure"},{"type":"function","name":"record83bElection","inputs":[{"name":"grantId","type":"uint256","internalType":"uint256"},{"name":"electionHash","type":"bytes32","internalType":"bytes32"}],"outputs":[],"stateMutability":"nonpayable"},{"type":"function","name":"repurchaseUnvestedShares","inputs":[{"name":"grantId","type":"uint256","internalType":"uint256"},{"name":"sharesToRepurchase","type":"uint256","internalType":"uint256"}],"outputs":[],"stateMutability":"nonpayable"},{"type":"event","name":"EarlyExerciseRecorded","inputs":[{"name":"grantId","type":"uint256","indexed":true,"internalType":"uint256"},{"name":"recipient","type":"address","indexed":true,"internalType":"address"},{"name":"totalShares","type":"uint256","indexed":false,"internalType":"uint256"},{"name":"unvestedShares","type":"uint256","indexed":false,"internalType":"uint256"},{"name":"election83bDeadline","type":"uint256","indexed":false,"internalType":"uint256"}],"anonymous":false},{"type":"event","name":"Election83bFiled","inputs":[{"name":"grantId","type":"uint256","indexed":true,"internalType":"uint256"},{"name":"electionHash","type":"bytes32","indexed":false,"internalType":"bytes32"}],"anonymous":false},{"type":"event","name":"OptionExercised","inputs":[{"name":"grantId","type":"uint256","indexed":true,"internalType":"uint256"},{"name":"recipient","type":"address","indexed":true,"internalType":"address"},{"name":"sharesExercised","type":"uint256","indexed":false,"internalType":"uint256"},{"name":"totalPayment","type":"uint256","indexed":false,"internalType":"uint256"},{"name":"equityLotId","type":"bytes32","indexed":false,"internalType":"bytes32"}],"anonymous":false},{"type":"event","name":"OptionExpired","inputs":[{"name":"grantId","type":"uint256","indexed":true,"internalType":"uint256"},{"name":"recipient","type":"address","indexed":true,"internalType":"address"},{"name":"sharesExpired","type":"uint256","indexed":false,"internalType":"uint256"}],"anonymous":false},{"type":"event","name":"OptionForfeited","inputs":[{"name":"grantId","type":"uint256","indexed":true,"internalType":"uint256"},{"name":"recipient","type":"address","indexed":true,"internalType":"address"},{"name":"sharesForfeited","type":"uint256","indexed":false,"internalType":"uint256"}],"anonymous":false},{"type":"event","name":"OptionGranted","inputs":[{"name":"grantId","type":"uint256","indexed":true,"internalType":"uint256"},{"name":"lotId","type":"bytes32","indexed":true,"internalType":"bytes32"},{"name":"recipient","type":"address","indexed":true,"internalType":"address"},{"name":"optionType","type":"uint8","indexed":false,"internalType":"enum ITokenOption.OptionType"},{"name":"totalShares","type":"uint256","indexed":false,"internalType":"uint256"},{"name":"strikePrice","type":"uint256","indexed":false,"internalType":"uint256"},{"name":"expirationDate","type":"uint256","indexed":false,"internalType":"uint256"}],"anonymous":false},{"type":"event","name":"OptionPlanInitialized","inputs":[{"name":"equityToken","type":"address","indexed":true,"internalType":"address"},{"name":"companyWallet","type":"address","indexed":true,"internalType":"address"},{"name":"authorizedPool","type":"uint256","indexed":false,"internalType":"uint256"},{"name":"planURI","type":"string","indexed":false,"internalType":"string"}],"anonymous":false},{"type":"event","name":"UnvestedSharesRepurchased","inputs":[{"name":"grantId","type":"uint256","indexed":true,"internalType":"uint256"},{"name":"recipient","type":"address","indexed":true,"internalType":"address"},{"name":"sharesRepurchased","type":"uint256","indexed":false,"internalType":"uint256"},{"name":"repurchaseAmount","type":"uint256","indexed":false,"internalType":"uint256"}],"anonymous":false},{"type":"event","name":"UserRoleUpdated","inputs":[{"name":"user","type":"address","indexed":true,"internalType":"address"},{"name":"role","type":"uint8","indexed":true,"internalType":"uint8"},{"name":"enabled","type":"bool","indexed":false,"internalType":"bool"}],"anonymous":false},{"type":"error","name":"AccessControl_CallerIsNotAuthorized","inputs":[{"name":"caller","type":"address","internalType":"address"},{"name":"functionSig","type":"bytes4","internalType":"bytes4"}]},{"type":"error","name":"Option_83bDeadlinePassed","inputs":[]},{"type":"error","name":"Option_AlreadyInitialized","inputs":[]},{"type":"error","name":"Option_EarlyExerciseNotAllowed","inputs":[]},{"type":"error","name":"Option_ExceedsRule701Limit","inputs":[]},{"type":"error","name":"Option_Expired","inputs":[]},{"type":"error","name":"Option_GrantNotActive","inputs":[]},{"type":"error","name":"Option_GrantNotFound","inputs":[]},{"type":"error","name":"Option_ISOExceedsAnnualLimit","inputs":[]},{"type":"error","name":"Option_InsufficientPoolCapacity","inputs":[]},{"type":"error","name":"Option_InsufficientVestedShares","inputs":[]},{"type":"error","name":"Option_InvalidRecipient","inputs":[]},{"type":"error","name":"Option_InvalidShareAmount","inputs":[]},{"type":"error","name":"Option_InvalidStrikePrice","inputs":[]},{"type":"error","name":"Option_No409AValuation","inputs":[]},{"type":"error","name":"Option_NotInitialized","inputs":[]},{"type":"error","name":"Option_NotRecipient","inputs":[]},{"type":"error","name":"Option_PaymentFailed","inputs":[]},{"type":"error","name":"Option_StrikeBelowFMV","inputs":[]},{"type":"error","name":"SafeERC20FailedOperation","inputs":[{"name":"token","type":"address","internalType":"address"}]}],"bytecode":{"object":"0x6080806040523460155761294b908161001a8239f35b5f80fdfe6080806040526004361015610012575f80fd5b5f905f358060e01c9182631a33b068146120d45750816326518a5214611cb0578163288d825414611c925781633e62267c14611b6457816346a1d1f014611a6a57816349cd60dc146113865781635dcf17061461134a57816372de0d7a1461127c57816374fcb73c146112445781637831efda146110d0578163797798af14610ef45781637c9c671214610bc15781637d03d60014610b9a578163864ddd5f146107225781638b144851146106ed5781638c078a64146106b857816399121ef814610553578163a4d38b0314610477578163ac5eed69146102be57508063b315515d1461019c5763bbb8518814610107575f80fd5b3461019957806003193601126101995760a07f4868f3cbac1aa2d224784e19f2e21ee8f98cf27bdcaf945aacf0330abf2c9965545f5160206128d65f395f51905f52545f5160206127b65f395f51905f52545f5160206128b65f395f51905f52549061017c8361017784876122d8565b6122f9565b926040519485526020850152604084015260608301526080820152f35b80fd5b5034610199576020366003190112610199576040816101209261010083516101c3816121ff565b82815282602082015282858201528260608201528260808201528260a08201528260c08201528260e0820152015260043581525f5160206128565f395f51905f5260205220604051610214816121ff565b8154918282526001810154602083019081526002820154604084019081526003830154606085019081526004840154906080860191825260058501549260a0870193845260068601549460c0880195865261010060ff600860078a01549960e08c019a8b52015416980197151588526040519889525160208901525160408801525160608701525160808601525160a08501525160c08401525160e0830152511515610100820152f35b90503461047357602036600319011261047357600435906001600160e01b0319166102e981336124d5565b1561045d57508082525f5160206128965f395f51905f52602052604082209081541561044e576002820160ff815460a81c16600581101561043a5761042b578361033c60038501546004860154906122f9565b93846005820155600160a91b60ff60a81b1984541617835561036c855f5160206128b65f395f51905f52546122d8565b5f5160206128b65f395f51905f52556001808060a01b035f5160206128765f395f51905f525416910154813b156104275782916024839260405194859384926332dc684360e01b845260048401525af1801561041c57610403575b5050546040519283526001600160a01b0316917ffd35acce2c93637c0cea4ac7107d941a52ba73eb4b91b29c8213f8f1e50cb90690602090a380f35b8161040d9161221c565b61041857835f6103c7565b8380fd5b6040513d84823e3d90fd5b8280fd5b635313cc9560e11b8452600484fd5b634e487b7160e01b85526021600452602485fd5b63d32b07bb60e01b8352600483fd5b631d64bc3360e11b835233600452602452604482fd5b5080fd5b8234610199576020366003190112610199576104cc61049461212a565b6001600160a01b03165f9081527f4868f3cbac1aa2d224784e19f2e21ee8f98cf27bdcaf945aacf0330abf2c996a6020526040902090565b604051908160208254918281520190819285526020852090855b81811061053d57505050826104fc91038361221c565b604051928392602084019060208552518091526040840192915b818110610524575050500390f35b8251845285945060209384019390920191600101610516565b82548452602090930192600192830192016104e6565b905034610473576105633661214d565b916001600160e01b03191661057881336124d5565b156106a257508083525f5160206128565f395f51905f52602052604083209182541561069357600483019283548211610684577f92bb90c4d96721ea650ac9faec2be80ef5fc915089615ce28e3424eb7497719d916040918487525f5160206128965f395f51905f52602052670de0b6b3a76400006105fe6005858a2093015484612313565b5f5160206127f65f395f51905f52546002939093018054865163a9059cbb60e01b60208201526001600160a01b0391821660248201529390920460448085018290528452989093909261065e9290911661065960648361221c565b61275d565b6106698382546122f9565b905560018060a01b039054169482519182526020820152a380f35b6311cfb3e560e11b8552600485fd5b63d32b07bb60e01b8452600484fd5b631d64bc3360e11b845233600452602452604483fd5b82346101995780600319360112610199575f5160206128765f395f51905f52546040516001600160a01b039091168152602090f35b82346101995780600319360112610199575f5160206127d65f395f51905f52546040516001600160a01b039091168152602090f35b8234610199576107313661214d565b90918281525f5160206128965f395f51905f526020526040812092835415610b8b576002840192835460ff8160a81c16600581101561043a5761042b576001600160a01b03163303610b7c5760ff60098601541615610b6d5760088501544211610b5e576003850180549560048101966107ad885480926122f9565b8411610b4f5760018060a01b035f5160206128765f395f51905f52541690602060018401546024604051809581936316c13b7b60e11b835260048301525afa918215610b44578792610b0c575b5080821115610b035761080c916122f9565b915b82841115610afa57600661082284866122f9565b925b0197610862670de0b6b3a764000061083d8b5488612313565b5f5160206127f65f395f51905f525491900490309033906001600160a01b0316612523565b61086d8582546122d8565b8155610887855f5160206127b65f395f51905f52546122d8565b5f5160206127b65f395f51905f525554905414610ae4575b86549162278d00420192834211610ad05797610965604092600888878b60c09e8851956108cb876121ff565b84875260208701904282528d8b89019081526060890191825260808901928d845260a08a0194855260c08d908b019680885260e08c019889526101008c0199818b5281525f5160206128565f395f51905f526020522099518a555160018a015551600289015551600388015551600487015551600586015551600685015551600784015551151591019060ff801983541691151516179055565b60018060a01b035f5160206128165f395f51905f525460081c1660018060a01b03895416918860018060a01b035f5160206127f65f395f51905f5254169154916109e586519d8e60606020820152600e60808201526d4541524c595f455845524349534560901b60a082015230898201528c606082015260a0815261221c565b610a0786519d8e9687958694630d9f387560e01b86528d42936004880161239e565b03925af1958615610ac5576020978697610a68575b50917fc26f63f637b061931a44759fcadd7db8a9df793d48d676ac7cb610a2404573f7939160609360018060a01b039054169650604051928352888301526040820152a3604051908152f35b60609391975091610ab27fc26f63f637b061931a44759fcadd7db8a9df793d48d676ac7cb610a2404573f7959360403d604011610abe575b610aaa818361221c565b810190612388565b50979193509193610a1c565b503d610aa0565b6040513d87823e3d90fd5b634e487b7160e01b87526011600452602487fd5b855460ff60a81b1916600160a81b17865561089f565b60068692610824565b5050849161080e565b9091506020813d602011610b3c575b81610b286020938361221c565b81010312610b38575190896107fa565b5f80fd5b3d9150610b1b565b6040513d89823e3d90fd5b6311cfb3e560e11b8652600486fd5b630fe37fd360e31b8352600483fd5b63feaf4fef60e01b8352600483fd5b63e051a1f560e01b8352600483fd5b63d32b07bb60e01b8252600482fd5b8234610199576020366003190112610199576020610bb96004356123f9565b604051908152f35b823461019957610bd03661214d565b8183525f5160206128965f395f51905f526020526040832091825415610693576002830191825460ff8160a81c166005811015610ee057610ed1576001600160a01b03163303610ec25760088401544211610eb35760018060a01b035f5160206128765f395f51905f52541692602060018601546024604051809781936316c13b7b60e11b835260048301525afa938415610e4f578694610e7f575b50610c7d60048601948554906122f9565b8211610e705760068501946003670de0b6b3a7640000610c9e885486612313565b0495610cc48760018060a01b035f5160206127f65f395f51905f52541630903390612523565b610ccf8582546122d8565b8155610ce9855f5160206127b65f395f51905f52546122d8565b5f5160206127b65f395f51905f52555491015414610e5a575b604060018060a01b035f5160206128165f395f51905f525460081c1660018060a01b038354169060018060a01b035f5160206127f65f395f51905f525416975489845199606060208c0152600f60808c01526e4f5054494f4e5f455845524349534560881b60a08c015230868c01528860608c015260a08b52610d8660c08c61221c565b610da886519b8c9687958694630d9f387560e01b86528c42936004880161239e565b03925af1948515610e4f5760209695610e06575b507f3fcfe2492b9410480fcbd8cd67b99294fae4a85324b33d79923d97a01cea88bf9160609160018060a01b039054169460405191825287820152856040820152a3604051908152f35b606091955091610e457f3fcfe2492b9410480fcbd8cd67b99294fae4a85324b33d79923d97a01cea88bf9360403d604011610abe57610aaa818361221c565b5095915091610dbc565b6040513d88823e3d90fd5b805460ff60a81b1916600160a81b178155610d02565b63317d579960e11b8652600486fd5b9093506020813d602011610eab575b81610e9b6020938361221c565b81010312610b3857519286610c6c565b3d9150610e8e565b630fe37fd360e31b8552600485fd5b63e051a1f560e01b8552600485fd5b635313cc9560e11b8652600486fd5b634e487b7160e01b87526021600452602487fd5b82346101995760203660031901126101995780610160604051610f16816121e2565b8281528260208201528260408201528260608201528260808201528260a08201528260c08201528260e0820152826101008201528261012082015282610140820152015260043581525f5160206128965f395f51905f526020526040812060405190610f81826121e2565b80548252600181015490602083019182526002810154604084019060018060a01b038116825260ff6060860191610fbd828260a01c168461236c565b60a81c16608086019060058110156110bc579086949392918152600384015460a0860190815260048501549160c0870192835261106260058701549460e089019586526006880154966101008a0197885260ff600960078b01549a6101208d019b8c5261014060088201549d019c8d520154169a6101608d019b15158c526040519c518d525160208d015260018060a01b0390511660408c01525160608b0190612140565b5160058110156110a857610180995060808901525160a08801525160c08701525160e0860152516101008501525161012084015251610140830152511515610160820152f35b634e487b7160e01b8a52602160045260248afd5b634e487b7160e01b88526021600452602488fd5b82346101995760203660031901126101995760043567ffffffffffffffff811161047357366023820112156104735780600401359067ffffffffffffffff8211610427576024810190602436918460051b010111610427578291835b81811061113e57602084604051908152f35b611149818385612378565b3585525f5160206128965f395f51905f5260205260408520600281019060ff825460a81c1660058110156110bc571580611237575b61118d575b505060010161112c565b94600561122f92876111ab60036001979a01546004830154906122f9565b9201829055805460ff60a81b1916600360a81b1781555f5160206128b65f395f51905f52546111db9083906122d8565b5f5160206128b65f395f51905f52557ed6766a92ae2e55aab4501e03f8a1fd28b730ae8fcb95ab17aa292b6bcd78eb60206112178a898b612378565b3592878060a01b0390541693604051908152a361235e565b939086611183565b506008810154421161117e565b82346101995760203660031901126101995760046040602092823581525f5160206128565f395f51905f528452200154604051908152f35b8234610199576040366003190112610199576004356024358183525f5160206128565f395f51905f5260205260408320805415610693576007810154421161133b578284525f5160206128965f395f51905f5260205260408420600201546001600160a01b0316330361132c57816008827ffe92e1a530406d079c7cff563237f04ebaed6c139ea32cbdd773a7d8a56cd154946006602095015501600160ff19825416179055604051908152a280f35b63e051a1f560e01b8452600484fd5b63304151bd60e01b8452600484fd5b823461019957602036600319011261019957604060209161137161136c61212a565b612326565b6301e133804204825283522054604051908152f35b8234610b3857610100366003190112610b38576113a161212a565b90602435926002841015610b38576044356064356084359160e43593841515809503610b38576001600160e01b0319166113db81336124d5565b15611a5457505f5160206128165f395f51905f52549460ff861615611a45576001600160a01b038716958615611a36578215611a27578315611a18576114696114547f4868f3cbac1aa2d224784e19f2e21ee8f98cf27bdcaf945aacf0330abf2c9965545f5160206128b65f395f51905f5254906122d8565b5f5160206128d65f395f51905f5254906122f9565b8311611a095760405163082bfe0b60e41b815260048101859052906020908290602490829060081c6001600160a01b03165afa9081156118cd575f916119cf575b50156119c057670de0b6b3a76400006114c38484612313565b04881561195d575b5f5160206127d65f395f51905f52545f5160206128165f395f51905f5254604080516376e4e52160e01b81526001600160a01b0360089390931c831660048201526024810185905292909183916044918391165afa9081156118cd575f91611923575b5015611914577f4868f3cbac1aa2d224784e19f2e21ee8f98cf27bdcaf945aacf0330abf2c99645480986115618261235e565b7f4868f3cbac1aa2d224784e19f2e21ee8f98cf27bdcaf945aacf0330abf2c9964558860405160208101903060601b82528460348201526001600160601b03198460601b166054820152426068820152606881526115c060888261221c565b519020988c604051916115d2836121e2565b8583528a60208401968d8852604085019586526115f360608601948561236c565b8b60808601985f8a5260a08701998d8b5260c08801965f885260e08901925f84526101008a019485526101208a01954287526101408b019788526101608b019889525f525f5160206128965f395f51905f5260205260405f2099518a555160018a0155600289019960018060a01b039051166001600160601b0360a01b8b5416178a5551600281101561190057895460ff60a01b191660a09190911b60ff60a01b1617895551956005871015611900576117009a6104949960099881549060ff60a81b9060a81b169060ff60a81b191617905551600389015551600488015551600587015551600686015551600785015551600884015551151591019060ff801983541691151516179055565b8054680100000000000000008110156118ec57600181018083558110156118d85789915f5260205f200155611743835f5160206128d65f395f51905f52546122d8565b5f5160206128d65f395f51905f52555f5160206128765f395f51905f52546001600160a01b0316803b15610b38575f809160e460405180948193633c892ab960e01b83528c60048401528d6024840152612710604484015242606484015260a435608484015260c43560a4840152600160c48401525af180156118cd576118b8575b505f5160206127d65f395f51905f52545f5160206128165f395f51905f525460081c6001600160a01b039081169116803b156104185760e48492838c936040519687958694633885794560e01b865260048601526024850152604484015260a06064840152600660a48401526537b83a34b7b760d11b60c48401528c60848401525af1801561041c576118a3575b505060209686937fc6e20156d25201ef14f89ac8517e98b452a571d22a59ccc09e9a7ae7fe21fd029360809361188c6040518095612140565b8a84015260408301526060820152a4604051908152f35b6118ae82809261221c565b6101995780611853565b6118c59192505f9061221c565b5f90896117c5565b6040513d5f823e3d90fd5b634e487b7160e01b5f52603260045260245ffd5b634e487b7160e01b5f52604160045260245ffd5b634e487b7160e01b5f52602160045260245ffd5b6333ee9b7160e11b5f5260045ffd5b90506040813d604011611955575b8161193e6040938361221c565b81010312610b385761194f90612306565b8a61152e565b3d9150611931565b6301e13380420461196d89612326565b815f5260205260405f205464174876e80061198884836122d8565b116119b15782611997916122d8565b906119a18a612326565b905f5260205260405f20556114cb565b63f93f32d760e01b5f5260045ffd5b635e60d67760e01b5f5260045ffd5b90506020813d602011611a01575b816119ea6020938361221c565b81010312610b38576119fb90612306565b896114aa565b3d91506119dd565b634992a2a960e01b5f5260045ffd5b632316303960e21b5f5260045ffd5b6311cfb3e560e11b5f5260045ffd5b63ce3648f360e01b5f5260045ffd5b6304c4d5a760e01b5f5260045ffd5b631d64bc3360e11b5f523360045260245260445ffd5b34610b38575f366003190112610b38576040515f5f5160206128f65f395f51905f5254611a96816121aa565b8084529060018116908115611b405750600114611ad6575b611ad283611abe8185038261221c565b604051918291602083526020830190612106565b0390f35b5f5160206128f65f395f51905f525f9081527fdddee2e9e7f78b921aef1dd5691b800a61e7acd7df3dfba423ff5c8185ace5ba939250905b808210611b2657509091508101602001611abe611aae565b919260018160209254838588010152019101909291611b0e565b60ff191660208086019190915291151560051b84019091019150611abe9050611aae565b34610b38575f366003190112610b38576040805163864ddd5f60e01b6020820152633e4e338960e11b6024820152633c18f7ed60e11b602882015263ac5eed6960e01b602c820152638b14485160e01b603082015263b315515d60e01b6034820152630346760d60e31b6038820152623e81eb60e91b603c820152632ee78b8360e11b9181019190915263797798af60e01b604482015263046a1d1f60e41b60488201526317770a3160e31b604c82015263a4d38b0360e01b605080830191909152631d3f2dcf60e21b6054830152630a23609560e21b6058830152632301e29960e21b605c830152631273583760e21b6060830152631328c52960e11b606483015263396f06bd60e11b606883015263132243df60e31b606c8301528152611ad290611abe60708261221c565b34610b38576020366003190112610b38576020610bb960043561223e565b34610b38576020366003190112610b385760043567ffffffffffffffff8111610b3857806004019060c06003198236030112610b38575f5160206128165f395f51905f525460ff81166120c557600190610100600160a81b03611d1285612163565b60081b166001600160a81b03199190911617175f5160206128165f395f51905f52556001600160a01b03611d4860248301612163565b166001600160601b0360a01b5f5160206127f65f395f51905f525416175f5160206127f65f395f51905f5255604481019160018060a01b03611d8984612163565b166001600160601b0360a01b5f5160206127d65f395f51905f525416175f5160206127d65f395f51905f525560018060a01b03611dc860648401612163565b166001600160601b0360a01b5f5160206128765f395f51905f525416175f5160206128765f395f51905f525560a4608483013592837f4868f3cbac1aa2d224784e19f2e21ee8f98cf27bdcaf945aacf0330abf2c99655501611e2a8183612177565b9067ffffffffffffffff82116118ec57611e515f5160206128f65f395f51905f52546121aa565b601f8111612056575b505f90601f8311600114611f91579282606093611f45937f6057e42d7da17eb401135a1ecbb489356aacaa0f0d8ebeaa299ca6077851eadd97965f92611f86575b50508160011b915f199060031b1c1916175f5160206128f65f395f51905f52555b60017f4868f3cbac1aa2d224784e19f2e21ee8f98cf27bdcaf945aacf0330abf2c996455335f525f5160206128365f395f51905f5260205260405f20600181541790555f604051600181527f4c9bdd0c8e073eb5eda2250b18d8e5121ff27b62064fbeeeed4869bb99bc5bf260203392a3611f3f611f3985612163565b97612163565b93612177565b94909285604051948593845260406020850152816040850152848401375f8287018401526001600160a01b03908116961694601f01601f19168101030190a3005b013590508980611e9b565b5f5160206128f65f395f51905f525f9081527fdddee2e9e7f78b921aef1dd5691b800a61e7acd7df3dfba423ff5c8185ace5ba9290601f198516905b81811061203e575093611f45937f6057e42d7da17eb401135a1ecbb489356aacaa0f0d8ebeaa299ca6077851eadd9796936001938360609810612025575b505050811b015f5160206128f65f395f51905f5255611ebc565b01355f19600384901b60f8161c1916905589808061200b565b91936020600181928787013581550195019201611fcd565b5f5160206128f65f395f51905f525f527fdddee2e9e7f78b921aef1dd5691b800a61e7acd7df3dfba423ff5c8185ace5ba601f840160051c810191602085106120bb575b601f0160051c01905b8181106120b05750611e5a565b5f81556001016120a3565b909150819061209a565b63f385fccb60e01b5f5260045ffd5b34610b38575f366003190112610b38575f5160206128165f395f51905f525460081c6001600160a01b03168152602090f35b805180835260209291819084018484015e5f828201840152601f01601f1916010190565b600435906001600160a01b0382168203610b3857565b9060028210156119005752565b6040906003190112610b38576004359060243590565b356001600160a01b0381168103610b385790565b903590601e1981360301821215610b38570180359067ffffffffffffffff8211610b3857602001918136038313610b3857565b90600182811c921680156121d8575b60208310146121c457565b634e487b7160e01b5f52602260045260245ffd5b91607f16916121b9565b610180810190811067ffffffffffffffff8211176118ec57604052565b610120810190811067ffffffffffffffff8211176118ec57604052565b90601f8019910116810190811067ffffffffffffffff8211176118ec57604052565b5f525f5160206128965f395f51905f5260205260405f208054156122d35760206001808060a01b035f5160206128765f395f51905f5254169201546024604051809481936316c13b7b60e11b835260048301525afa9081156118cd575f916122a4575090565b90506020813d6020116122cb575b816122bf6020938361221c565b81010312610b38575190565b3d91506122b2565b505f90565b919082018092116122e557565b634e487b7160e01b5f52601160045260245ffd5b919082039182116122e557565b51908115158203610b3857565b818102929181159184041417156122e557565b6001600160a01b03165f9081527f4868f3cbac1aa2d224784e19f2e21ee8f98cf27bdcaf945aacf0330abf2c996c6020526040902090565b5f1981146122e55760010190565b60028210156119005752565b91908110156118d85760051b0190565b9190826040910312610b38576020825192015190565b969591936123f49360e0955f979360018060a01b03168a5260208a015260018060a01b031660408901526060880152608087015261010060a08701528361010087015261012060c0870152610120860190612106565b930152565b5f525f5160206128965f395f51905f5260205260405f2080541580156124b9575b6122d35760018060a01b035f5160206128765f395f51905f52541690602060018201546024604051809581936316c13b7b60e11b835260048301525afa9182156118cd575f92612484575b50600401548082111561247e5761247b916122f9565b90565b50505f90565b9091506020813d6020116124b1575b816124a06020938361221c565b81010312610b385751906004612465565b3d9150612493565b5060ff600282015460a81c16600581101561190057151561241a565b816124df91612569565b61251d577f511915e52b7f9e690b9fdc662acaf5600fd3722c87eb951d3abd26e93a784dca5c9060ff82166125145750505f90565b61247b9161270e565b50600190565b6040516323b872dd60e01b60208201526001600160a01b0392831660248201529290911660448301526064808301939093529181526125679161065960848361221c565b565b7fce1c17acaaa67de66e928cd49c8f658667a825223bee6fda99a14908362bcdac546001600160a01b031680612665575b5060018060a01b0381165f525f5160206128365f395f51905f5260205260405f20549163ffffffff60e01b165f527fce1c17acaaa67de66e928cd49c8f658667a825223bee6fda99a14908362bcdab60205260405f2054908115612634576001600160a01b03165f9081525f5160206128365f395f51905f526020526040902054600116151591821561262c57505090565b161515919050565b6001600160a01b03165f9081525f5160206128365f395f51905f5260205260409020546001161515915061247b9050565b6040805163b700961360e01b81526001600160a01b03841660048201523060248201526001600160e01b03198516604482015291829060649082905afa5f91816126c1575b501561259a576126ba575f61259a565b5050600190565b9091506040813d604011612706575b816126dd6040938361221c565b81010312610b385760206126f082612306565b91015163ffffffff811603610b3857905f6126aa565b3d91506126d0565b60ff169081156126ba5763ffffffff60e01b165f527fce1c17acaaa67de66e928cd49c8f658667a825223bee6fda99a14908362bcdab60205260405f205490811561247e576001901b16151590565b905f602091828151910182855af1156118cd575f513d6127ac57506001600160a01b0381163b155b61278c5750565b635274afe760e01b5f9081526001600160a01b0391909116600452602490fd5b6001141561278556fe4868f3cbac1aa2d224784e19f2e21ee8f98cf27bdcaf945aacf0330abf2c99674868f3cbac1aa2d224784e19f2e21ee8f98cf27bdcaf945aacf0330abf2c99614868f3cbac1aa2d224784e19f2e21ee8f98cf27bdcaf945aacf0330abf2c99604868f3cbac1aa2d224784e19f2e21ee8f98cf27bdcaf945aacf0330abf2c995fce1c17acaaa67de66e928cd49c8f658667a825223bee6fda99a14908362bcdaa4868f3cbac1aa2d224784e19f2e21ee8f98cf27bdcaf945aacf0330abf2c996b4868f3cbac1aa2d224784e19f2e21ee8f98cf27bdcaf945aacf0330abf2c99624868f3cbac1aa2d224784e19f2e21ee8f98cf27bdcaf945aacf0330abf2c99694868f3cbac1aa2d224784e19f2e21ee8f98cf27bdcaf945aacf0330abf2c99684868f3cbac1aa2d224784e19f2e21ee8f98cf27bdcaf945aacf0330abf2c99664868f3cbac1aa2d224784e19f2e21ee8f98cf27bdcaf945aacf0330abf2c9963a2646970667358221220ce86a743c0d846a0634822cabc7571391ac4d43233932c5794612cab7b4134dd64736f6c634300081e0033","linkReferences":{}},"methodIdentifiers":{"earlyExerciseOption(uint256,uint256)":"864ddd5f","exerciseOption(uint256,uint256)":"7c9c6712","expireOptions(uint256[])":"7831efda","forfeitOption(uint256)":"ac5eed69","getCompanyWallet()":"8b144851","getEarlyExerciseRecord(uint256)":"b315515d","getEquityToken()":"1a33b068","getExercisableShares(uint256)":"7d03d600","getISOGrantsInYear(address)":"5dcf1706","getOptionGrant(uint256)":"797798af","getPlanURI()":"46a1d1f0","getPoolStats()":"bbb85188","getRecipientGrants(address)":"a4d38b03","getUnvestedEarlyExerciseShares(uint256)":"74fcb73c","getVestedShares(uint256)":"288d8254","getVestingModule()":"8c078a64","grantOption(address,uint8,uint256,uint256,uint256,uint256,uint256,bool)":"49cd60dc","initialize((address,address,address,address,uint256,string))":"26518a52","packedSelectors()":"3e62267c","record83bElection(uint256,bytes32)":"72de0d7a","repurchaseUnvestedShares(uint256,uint256)":"99121ef8"},"id":260}