{"abi":[{"type":"function","name":"TokenFactoryCore_init","inputs":[{"name":"diamondFactory","type":"address","internalType":"address"},{"name":"admin","type":"address","internalType":"address"}],"outputs":[],"stateMutability":"nonpayable"},{"type":"function","name":"activateModule","inputs":[{"name":"moduleName","type":"string","internalType":"string"}],"outputs":[],"stateMutability":"nonpayable"},{"type":"function","name":"createToken","inputs":[{"name":"config","type":"tuple","internalType":"struct ITokenFactory.TokenConfig","components":[{"name":"admin","type":"address","internalType":"address"},{"name":"decimals","type":"uint8","internalType":"uint8"},{"name":"name","type":"string","internalType":"string"},{"name":"symbol","type":"string","internalType":"string"},{"name":"baseURI","type":"string","internalType":"string"}]},{"name":"facets","type":"address[]","internalType":"address[]"},{"name":"initAddress","type":"address","internalType":"address"},{"name":"initData","type":"bytes","internalType":"bytes"},{"name":"complianceModules","type":"tuple[]","internalType":"struct ITokenFactory.ComplianceModuleConfig[]","components":[{"name":"moduleName","type":"string","internalType":"string"},{"name":"initData","type":"bytes","internalType":"bytes"}]},{"name":"salt","type":"bytes32","internalType":"bytes32"},{"name":"paymentToken","type":"address","internalType":"address"}],"outputs":[{"name":"result","type":"tuple","internalType":"struct ITokenFactory.DeploymentResult","components":[{"name":"tokenDiamond","type":"address","internalType":"address"},{"name":"complianceModules","type":"address[]","internalType":"address[]"},{"name":"moduleNames","type":"string[]","internalType":"string[]"}]}],"stateMutability":"payable"},{"type":"function","name":"deactivateModule","inputs":[{"name":"moduleName","type":"string","internalType":"string"}],"outputs":[],"stateMutability":"nonpayable"},{"type":"function","name":"getDiamondFactory","inputs":[],"outputs":[{"name":"","type":"address","internalType":"address"}],"stateMutability":"view"},{"type":"function","name":"getModuleImplementation","inputs":[{"name":"moduleName","type":"string","internalType":"string"}],"outputs":[{"name":"info","type":"tuple","internalType":"struct ITokenFactory.ModuleInfo","components":[{"name":"implementation","type":"address","internalType":"address"},{"name":"isActive","type":"bool","internalType":"bool"},{"name":"deployCount","type":"uint256","internalType":"uint256"}]}],"stateMutability":"view"},{"type":"function","name":"getRegisteredModules","inputs":[],"outputs":[{"name":"","type":"string[]","internalType":"string[]"}],"stateMutability":"view"},{"type":"function","name":"isInitialized","inputs":[],"outputs":[{"name":"","type":"bool","internalType":"bool"}],"stateMutability":"view"},{"type":"function","name":"packedSelectors","inputs":[],"outputs":[{"name":"","type":"bytes","internalType":"bytes"}],"stateMutability":"pure"},{"type":"function","name":"predictTokenAddress","inputs":[{"name":"deployer","type":"address","internalType":"address"},{"name":"facets","type":"address[]","internalType":"address[]"},{"name":"initAddress","type":"address","internalType":"address"},{"name":"initData","type":"bytes","internalType":"bytes"},{"name":"salt","type":"bytes32","internalType":"bytes32"}],"outputs":[{"name":"","type":"address","internalType":"address"}],"stateMutability":"view"},{"type":"function","name":"registerModuleImplementation","inputs":[{"name":"moduleName","type":"string","internalType":"string"},{"name":"implementation","type":"address","internalType":"address"}],"outputs":[],"stateMutability":"nonpayable"},{"type":"function","name":"setDiamondFactory","inputs":[{"name":"newFactory","type":"address","internalType":"address"}],"outputs":[],"stateMutability":"nonpayable"},{"type":"function","name":"updateModuleImplementation","inputs":[{"name":"moduleName","type":"string","internalType":"string"},{"name":"newImplementation","type":"address","internalType":"address"}],"outputs":[],"stateMutability":"nonpayable"},{"type":"event","name":"ComplianceModuleActivated","inputs":[{"name":"moduleName","type":"string","indexed":true,"internalType":"string"}],"anonymous":false},{"type":"event","name":"ComplianceModuleDeactivated","inputs":[{"name":"moduleName","type":"string","indexed":true,"internalType":"string"}],"anonymous":false},{"type":"event","name":"ComplianceModuleRegistered","inputs":[{"name":"moduleName","type":"string","indexed":true,"internalType":"string"},{"name":"implementation","type":"address","indexed":true,"internalType":"address"}],"anonymous":false},{"type":"event","name":"ComplianceModuleUpdated","inputs":[{"name":"moduleName","type":"string","indexed":true,"internalType":"string"},{"name":"oldImplementation","type":"address","indexed":true,"internalType":"address"},{"name":"newImplementation","type":"address","indexed":true,"internalType":"address"}],"anonymous":false},{"type":"event","name":"TokenCreated","inputs":[{"name":"tokenDiamond","type":"address","indexed":true,"internalType":"address"},{"name":"admin","type":"address","indexed":true,"internalType":"address"},{"name":"name","type":"string","indexed":false,"internalType":"string"},{"name":"symbol","type":"string","indexed":false,"internalType":"string"},{"name":"complianceModules","type":"address[]","indexed":false,"internalType":"address[]"},{"name":"salt","type":"bytes32","indexed":false,"internalType":"bytes32"}],"anonymous":false},{"type":"event","name":"TokenFactoryInitialized","inputs":[{"name":"diamondFactory","type":"address","indexed":true,"internalType":"address"},{"name":"admin","type":"address","indexed":true,"internalType":"address"}],"anonymous":false},{"type":"error","name":"AccessControl_CallerIsNotAuthorized","inputs":[{"name":"caller","type":"address","internalType":"address"},{"name":"functionSig","type":"bytes4","internalType":"bytes4"}]},{"type":"error","name":"TokenFactory_AlreadyInitialized","inputs":[]},{"type":"error","name":"TokenFactory_EIP1167CreateFailed","inputs":[]},{"type":"error","name":"TokenFactory_InvalidConfiguration","inputs":[]},{"type":"error","name":"TokenFactory_InvalidDiamondFactory","inputs":[]},{"type":"error","name":"TokenFactory_InvalidImplementationAddress","inputs":[]},{"type":"error","name":"TokenFactory_ModuleAlreadyRegistered","inputs":[{"name":"moduleName","type":"string","internalType":"string"}]},{"type":"error","name":"TokenFactory_ModuleInitializationFailed","inputs":[]},{"type":"error","name":"TokenFactory_ModuleNotActive","inputs":[{"name":"moduleName","type":"string","internalType":"string"}]},{"type":"error","name":"TokenFactory_ModuleNotFound","inputs":[{"name":"moduleName","type":"string","internalType":"string"}]},{"type":"error","name":"TokenFactory_ModuleRegistrationFailed","inputs":[]},{"type":"error","name":"TokenFactory_NotInitialized","inputs":[]}],"bytecode":{"object":"0x60808060405234601557611c7b908161001a8239f35b5f80fdfe60806040526004361015610011575f80fd5b5f3560e01c8063128f3af8146100e457806317db9b87146100df5780632d047181146100da578063392e53cd146100d55780633e62267c146100d057806344edfe28146100cb578063732de9ff146100c65780637d93c598146100c157806382af85f2146100bc578063853aac08146100b7578063b1403656146100b2578063de044bcc146100ad5763f0f963b4146100a8575f80fd5b610d5f565b610bf0565b610afa565b610a44565b610986565b610870565b61079b565b6105b5565b6104af565b61046d565b6103bf565b610295565b610177565b6001600160a01b038116036100fa57565b5f80fd5b6044359061010b826100e9565b565b60c4359061010b826100e9565b9181601f840112156100fa578235916001600160401b0383116100fa576020808501948460051b0101116100fa57565b9181601f840112156100fa578235916001600160401b0383116100fa57602083818601950101116100fa57565b346100fa5760a03660031901126100fa57600435610194816100e9565b6024356001600160401b0381116100fa576101b390369060040161011a565b91604435926101c1846100e9565b606435926001600160401b0384116100fa5761020e946101e86101f495369060040161014a565b93909260843595610ef6565b6040516001600160a01b0390911681529081906020820190565b0390f35b805180835260209291819084018484015e5f828201840152601f01601f1916010190565b602081016020825282518091526040820191602060408360051b8301019401925f915b83831061026857505050505090565b9091929394602080610286600193603f198682030187528951610212565b97019301930191939290610259565b346100fa575f3660031901126100fa575f516020611be65f395f51905f52546102bd81610fd8565b6102ca6040519182610e52565b8181525f516020611be65f395f51905f525f9081527f13e1721cf873d68fb3ae57bd4be277355a7b40a814db3b71e68f9497cad2dfbf9290602083015b82821061031c576040518061020e8682610236565b6040515f865461032b81610fef565b808452906001811690811561039c5750600114610365575b506001928261035785946020940382610e52565b815201950191019093610307565b5f888152602081209092505b81831061038657505081016020016001610343565b6001816020925483868801015201920191610371565b60ff191660208581019190915291151560051b8401909101915060019050610343565b346100fa5760203660031901126100fa576004356103dc816100e9565b5f356001600160e01b0319166103f281336115d4565b1561045757506001600160a01b038116156104125761041090611027565b005b60405162461bcd60e51b815260206004820152601760248201527f496e76616c696420666163746f727920616464726573730000000000000000006044820152606490fd5b631d64bc3360e11b5f523360045260245260445ffd5b346100fa575f3660031901126100fa57602060ff5f516020611c265f395f51905f5254166040519015158152f35b9060206104ac928181520190610212565b90565b346100fa575f3660031901126100fa5760405163378112f360e21b6020820152634157c2f960e11b6024820152630251e75f60e31b602882015263089dbfc560e31b602c8201526358a01b2b60e11b603082015261020e9063732de9ff60e01b6034820152633c3e58ed60e21b603882015263392e53cd60e01b603c8201526310a7558160e31b60408201526317db9b8760e01b6044820152630fb278b360e31b6048820152632d04718160e01b604c82015260308152610571605082610e52565b6040519182918261049b565b60406003198201126100fa57600435906001600160401b0382116100fa576105a79160040161014a565b90916024356104ac816100e9565b346100fa576105c33661057d565b91905f356001600160e01b0319166105db81336115d4565b1561045757506106006105fc5f516020611c265f395f51905f525460ff1690565b1590565b61075e576001600160a01b03831691821561074f5761062d610623368484611075565b6020815191012090565b61066a61065e610651835f525f516020611c065f395f51905f5260205260405f2090565b546001600160a01b031690565b6001600160a01b031690565b61072e5761070893946106bb6106f992610694610685610fbb565b6001600160a01b039094168452565b600160208401525f60408401525f525f516020611c065f395f51905f5260205260405f2090565b8151815460208401516001600160a01b039092166001600160a81b03199091161790151560a01b60ff60a01b16178155604090910151600190910155565b610703828261111f565b611259565b7f8a0d9d9a3dc59b62e13ef2c621311b9bcc16cb87cdfdc98ad6dc0a4f9f8fe3e05f80a3005b5061074b6040519283926303b51ec160e41b8452600484016110ab565b0390fd5b63ac0a3c5960e01b5f5260045ffd5b6323a7c77760e11b5f5260045ffd5b60206003198201126100fa57600435906001600160401b0382116100fa576107979160040161014a565b9091565b346100fa576107a93661076d565b905f356001600160e01b0319166107c081336115d4565b15610457575060ff5f516020611c265f395f51905f5254161561075e576108086107ee610623368585611075565b5f525f516020611c065f395f51905f5260205260405f2090565b80546001600160a01b03161561085357805460ff60a01b1916905561082d9190611259565b7ff4ec985f029341aef33ec4da28f68944f125843ff9e2f18f89df1cfb4ae8443e5f80a2005b5061074b60405192839263dbd63d5560e01b8452600484016110ab565b346100fa575f3660031901126100fa575f516020611c265f395f51905f525460405160089190911c6001600160a01b03168152602090f35b908160a09103126100fa5790565b90602080835192838152019201905f5b8181106108d35750505090565b82516001600160a01b03168452602093840193909201916001016108c6565b906020825260018060a01b0381511660208301526040610920602083015160608386015260808501906108b6565b910151916060601f1982840301910152815180825260208201916020808360051b8301019401925f915b83831061095957505050505090565b9091929394602080610977600193601f198682030187528951610212565b9701930193019193929061094a565b60e03660031901126100fa576004356001600160401b0381116100fa576109b19036906004016108a8565b6024356001600160401b0381116100fa576109d090369060040161011a565b916109d96100fe565b916064356001600160401b0381116100fa576109f990369060040161014a565b939094608435946001600160401b0386116100fa5761020e96610a23610a3897369060040161011a565b94909360a43596610a3261010d565b98611421565b604051918291826108f2565b346100fa57610a75610a553661076d565b5f60408051610a6381610e17565b82815282602082015201523691611075565b602081519101205f525f516020611c065f395f51905f5260205261020e60405f2060018154910154610ac460ff610aaa610fbb565b6001600160a01b03851681529360a01c1615156020840152565b6040828101918252805183516001600160a01b031681526020938401511515938101939093529051908201529081906060820190565b346100fa57610b083661057d565b905f356001600160e01b031916610b1f81336115d4565b156104575750610b406105fc5f516020611c265f395f51905f525460ff1690565b61075e576001600160a01b03821692831561074f57610b666107ee610623368585611075565b80546001600160a01b031693908415610bd25780546001600160a01b0319166001600160a01b03909216919091179055610ba09190611259565b6001600160a01b03909116907f0a31c984f5b85b8241a6fd46ff35d22eb5c29501b6e90a18afdc7e73e1e4af785f80a4005b505061074b60405192839263dbd63d5560e01b8452600484016110ab565b346100fa5760403660031901126100fa57600435610c0d816100e9565b602435610c19816100e9565b5f516020611c265f395f51905f525460ff16610d50576001600160a01b038216908115610d41576001600160a01b0316918215610d3257610c5990611027565b610c83600160ff195f516020611c265f395f51905f525416175f516020611c265f395f51905f5255565b610c8d60a0610fca565b63378112f360e21b815263089dbfc560e31b60208201526358a01b2b60e11b604082015263732de9ff60e01b6060820152633c3e58ed60e21b60808201526001905f5b60058110610d01575050507fd6bef0f7ac6edfb5aa1eee01eda1280471044de135ae84d11aca22ccfca140925f80a3005b80610d26610d21610d1386948661158d565b516001600160e01b03191690565b61159e565b82815417905501610cd0565b63f8bc375960e01b5f5260045ffd5b639e9084b360e01b5f5260045ffd5b635cc2141d60e11b5f5260045ffd5b346100fa57610d6d3661076d565b905f356001600160e01b031916610d8481336115d4565b15610457575060ff5f516020611c265f395f51905f5254161561075e57610db26107ee610623368585611075565b80546001600160a01b03161561085357805460ff60a01b1916600160a01b179055610ddd9190611259565b7f8cd45a140c416052d7fe8333070610e702e0f567e26b74f6c3093c27d2f940e25f80a2005b634e487b7160e01b5f52604160045260245ffd5b606081019081106001600160401b03821117610e3257604052565b610e03565b604081019081106001600160401b03821117610e3257604052565b90601f801991011681019081106001600160401b03821117610e3257604052565b908160209103126100fa57516104ac816100e9565b916020908281520191905f5b818110610ea15750505090565b9091926020806001928635610eb5816100e9565b848060a01b031681520194019101919091610e94565b908060209392818452848401375f828201840152601f01601f1916010190565b6040513d5f823e3d90fd5b90939295610f72610f519760209760018060a01b035f516020611c265f395f51905f525460081c16966040519a8b998a98899863d5cd29fd60e01b8a5260018060a01b031660048a015260a060248a015260a4890191610e88565b6001600160a01b039093166044870152858303600319016064870152610ecb565b90608483015203915afa908115610fb6575f91610f8d575090565b6104ac915060203d602011610faf575b610fa78183610e52565b810190610e73565b503d610f9d565b610eeb565b6040519061010b606083610e52565b9061010b6040519283610e52565b6001600160401b038111610e325760051b60200190565b90600182811c9216801561101d575b602083101461100957565b634e487b7160e01b5f52602260045260245ffd5b91607f1691610ffe565b5f516020611c265f395f51905f528054610100600160a81b03191660089290921b610100600160a81b0316919091179055565b6001600160401b038111610e3257601f01601f191660200190565b9291926110818261105a565b9161108f6040519384610e52565b8294818452818301116100fa578281602093845f960137010152565b9160206104ac938181520191610ecb565b634e487b7160e01b5f52603260045260245ffd5b601f82116110dd57505050565b5f5260205f20906020601f840160051c83019310611115575b601f0160051c01905b81811061110a575050565b5f81556001016110ff565b90915081906110f6565b91905f516020611be65f395f51905f525468010000000000000000811015610e325760018101805f516020611be65f395f51905f5255811015611254575f516020611be65f395f51905f525f527f13e1721cf873d68fb3ae57bd4be277355a7b40a814db3b71e68f9497cad2dfbf01906001600160401b038111610e32576111b1816111ab8454610fef565b846110d0565b5f601f82116001146111ef5781906111e09394955f926111e4575b50508160011b915f199060031b1c19161790565b9055565b013590505f806111cc565b601f19821694611202845f5260205f2090565b915f5b87811061123c575083600195969710611223575b505050811b019055565b01355f19600384901b60f8161c191690555f8080611219565b90926020600181928686013581550194019101611205565b6110bc565b81604051928392833781015f815203902090565b6040519061127a82610e17565b60606040835f81528260208201520152565b92919261129882610fd8565b936112a66040519586610e52565b602085848152019260051b8201918183116100fa5780935b8385106112cc575050505050565b84356001600160401b0381116100fa578201906040828503126100fa57604051916112f683610e37565b80356001600160401b0381116100fa57810185601f820112156100fa578581602061132393359101611075565b83526020810135906001600160401b0382116100fa57019084601f830112156100fa576020926113598684868096359101611075565b838201528152019401936112be565b96959490936113866060956113a3959460808b5260808b0191610e88565b6001600160a01b0390931660208901528783036040890152610ecb565b930152565b356104ac816100e9565b903590601e19813603018212156100fa57018035906001600160401b0382116100fa576020019181360383136100fa57565b9695949192606094611405611413936113a39660808c5260808c0191610ecb565b9189830360208b0152610ecb565b9086820360408801526108b6565b9661145a6020959761145f929794939761143961126d565b9c6114438c611622565b6001600160a01b03811661157e575b50369161128c565b611813565b60408b01528985019081525f516020611c265f395f51905f52549095906114b7908a906114999061065e9060081c6001600160a01b031681565b94604051998a9788968796632435834760e21b885260048801611368565b039134905af1908115610fb657611502611536927f87477e6a0d671c4cc667d1025a7767131dfa3369cfbcb7684641d4b4876fc108945f9161155f575b506001600160a01b03168752565b8551611559906001600160a01b03169561151b866113a8565b9261152960408801886113b2565b95909760608101906113b2565b91516040516001600160a01b039687169a909616989596879691939291876113e4565b0390a390565b611578915060203d602011610faf57610fa78183610e52565b5f6114f4565b611587906116b3565b5f611452565b9060058110156112545760051b0190565b63ffffffff60e01b165f527fce1c17acaaa67de66e928cd49c8f658667a825223bee6fda99a14908362bcdab60205260405f2090565b816115de916119a6565b61161c577f511915e52b7f9e690b9fdc662acaf5600fd3722c87eb951d3abd26e93a784dca5c9060ff82166116135750505f90565b6104ac91611b54565b50600190565b60ff5f516020611c265f395f51905f5254161561075e5761164660408201826113b2565b905015801561166e575b610d32573561165e816100e9565b6001600160a01b031615610d3257565b5061167c60608201826113b2565b905015611650565b3d156116ae573d906116958261105a565b916116a36040519384610e52565b82523d5f602084013e565b606090565b5f809160405160208101916393def2af60e01b835260018060a01b031660248201526040604482015260056064820152642a37b5b2b760d91b60848201526084815261170060a482610e52565b5190305af461170d611684565b90156117165750565b80511561172557805190602001fd5b60405162461bcd60e51b815260206004820152601560248201527418dbdb1b1958dd14185e5b595b9d0819985a5b1959605a1b6044820152606490fd5b9061176c82610fd8565b6117796040519182610e52565b828152809261178a601f1991610fd8565b0190602036910137565b9061179e82610fd8565b6117ab6040519182610e52565b82815280926117bc601f1991610fd8565b01905f5b8281106117cc57505050565b8060606020809385010152016117c0565b80518210156112545760209160051b010190565b5f1981146117ff5760010190565b634e487b7160e01b5f52601160045260245ffd5b9061181e8251611762565b6118288351611794565b925f5b8151811015611973576118506107ee61184483856117dd565b51516020815191012090565b80549091906001600160a01b03811690811561194b576118749060a01c60ff161590565b6119235761188190611b7f565b602061188d83866117dd565b510151516118ec575b6001926118b784926118a885896117dd565b6001600160a01b039091169052565b6118c183866117dd565b51516118cd848a6117dd565b526118d883896117dd565b50016118e481546117f1565b90550161182b565b5f8060206118fa85886117dd565b51015160208151910182855af161190f611684565b50611896576381c17f4760e01b5f5260045ffd5b61074b61193083866117dd565b5151604051630196d3cf60e71b81529182916004830161049b565b61074b61195884876117dd565b515160405163dbd63d5560e01b81529182916004830161049b565b50509190565b91908260409103126100fa57815180151581036100fa5760209092015163ffffffff811681036100fa5790565b7fce1c17acaaa67de66e928cd49c8f658667a825223bee6fda99a14908362bcdac546001600160a01b031680611ab4575b506001600160a01b0381165f9081527fce1c17acaaa67de66e928cd49c8f658667a825223bee6fda99a14908362bcdaa60205260409020611a1990549261159e565b54908115611a70576001600160a01b03165f9081527fce1c17acaaa67de66e928cd49c8f658667a825223bee6fda99a14908362bcdaa60205260409020546001161515918215611a6857505090565b161515919050565b6001600160a01b03165f9081527fce1c17acaaa67de66e928cd49c8f658667a825223bee6fda99a14908362bcdaa6020526040902054600116151591506104ac9050565b611ac6906001600160a01b031661065e565b6040805163b700961360e01b81526001600160a01b03841660048201523060248201526001600160e01b03198516604482015291829060649082905afa5f9181611b22575b50156119d757611b1b575f6119d7565b5050600190565b611b4591925060403d604011611b4d575b611b3d8183610e52565b810190611979565b50905f611b0b565b503d611b33565b60ff16908115611b1b57611b679061159e565b54908115611b79576001901b16151590565b50505f90565b604051733d602d80600a3d3981f3363d3d373d3d3d363d7360601b815260609190911b60148201526e5af43d82803e903d91602b57fd5bf360881b60288201526037905ff0906001600160a01b03821615611bd657565b630f49c00560e41b5f5260045ffdfe99fa463ac72e27d748241f34d809fa5cbc4e6b5e953eb655ecf429a533e3266e99fa463ac72e27d748241f34d809fa5cbc4e6b5e953eb655ecf429a533e3266d99fa463ac72e27d748241f34d809fa5cbc4e6b5e953eb655ecf429a533e3266ca2646970667358221220d46b2d6cf4ad6af0081450d068c48e8c5f538cfc1e18bb4cde4c71185f3b17ae64736f6c634300081e0033","linkReferences":{}},"methodIdentifiers":{"TokenFactoryCore_init(address,address)":"de044bcc","activateModule(string)":"f0f963b4","createToken((address,uint8,string,string,string),address[],address,bytes,(string,bytes)[],bytes32,address)":"82af85f2","deactivateModule(string)":"732de9ff","getDiamondFactory()":"7d93c598","getModuleImplementation(string)":"853aac08","getRegisteredModules()":"17db9b87","isInitialized()":"392e53cd","packedSelectors()":"3e62267c","predictTokenAddress(address,address[],address,bytes,bytes32)":"128f3af8","registerModuleImplementation(string,address)":"44edfe28","setDiamondFactory(address)":"2d047181","updateModuleImplementation(string,address)":"b1403656"},"id":267}