{"abi":[{"type":"function","name":"adjustBalance","inputs":[{"name":"account","type":"address","internalType":"address"},{"name":"quantityDelta","type":"int256","internalType":"int256"},{"name":"costBasis","type":"uint256","internalType":"uint256"},{"name":"reason","type":"string","internalType":"string"}],"outputs":[],"stateMutability":"nonpayable"},{"type":"function","name":"adjustLot","inputs":[{"name":"lotId","type":"bytes32","internalType":"bytes32"},{"name":"newQuantity","type":"uint256","internalType":"uint256"},{"name":"newCostBasis","type":"uint256","internalType":"uint256"},{"name":"reason","type":"string","internalType":"string"}],"outputs":[{"name":"newLotId","type":"bytes32","internalType":"bytes32"}],"stateMutability":"nonpayable"},{"type":"function","name":"createLot","inputs":[{"name":"to","type":"address","internalType":"address"},{"name":"amount","type":"uint256","internalType":"uint256"},{"name":"paymentCurrency","type":"address","internalType":"address"},{"name":"costBasis","type":"uint256","internalType":"uint256"},{"name":"acquisitionDate","type":"uint256","internalType":"uint256"},{"name":"uri","type":"string","internalType":"string"},{"name":"data","type":"bytes","internalType":"bytes"},{"name":"customId","type":"uint256","internalType":"uint256"}],"outputs":[{"name":"lotId","type":"bytes32","internalType":"bytes32"},{"name":"assignedCustomId","type":"uint256","internalType":"uint256"}],"stateMutability":"nonpayable"},{"type":"function","name":"customIdToLotId","inputs":[{"name":"customId","type":"uint256","internalType":"uint256"}],"outputs":[{"name":"","type":"bytes32","internalType":"bytes32"}],"stateMutability":"view"},{"type":"function","name":"getLot","inputs":[{"name":"lotId","type":"bytes32","internalType":"bytes32"}],"outputs":[{"name":"parentLotId","type":"bytes32","internalType":"bytes32"},{"name":"isValid","type":"bool","internalType":"bool"},{"name":"quantity","type":"uint256","internalType":"uint256"},{"name":"paymentCurrency","type":"address","internalType":"address"},{"name":"costBasis","type":"uint256","internalType":"uint256"},{"name":"acquisitionDate","type":"uint256","internalType":"uint256"},{"name":"lastUpdate","type":"uint256","internalType":"uint256"},{"name":"tType","type":"uint8","internalType":"enum IToken.TransferType"},{"name":"uri","type":"string","internalType":"string"},{"name":"data","type":"bytes","internalType":"bytes"}],"stateMutability":"view"},{"type":"function","name":"getLotsOf","inputs":[{"name":"account","type":"address","internalType":"address"}],"outputs":[{"name":"","type":"bytes32[]","internalType":"bytes32[]"}],"stateMutability":"view"},{"type":"function","name":"getTaxStrategy","inputs":[{"name":"user","type":"address","internalType":"address"}],"outputs":[{"name":"","type":"uint8","internalType":"uint8"}],"stateMutability":"view"},{"type":"function","name":"invalidateLot","inputs":[{"name":"lotId","type":"bytes32","internalType":"bytes32"}],"outputs":[],"stateMutability":"nonpayable"},{"type":"function","name":"isApprovedOrOwner","inputs":[{"name":"lotId","type":"bytes32","internalType":"bytes32"},{"name":"operator","type":"address","internalType":"address"}],"outputs":[{"name":"","type":"bool","internalType":"bool"}],"stateMutability":"view"},{"type":"function","name":"lotExists","inputs":[{"name":"lotId","type":"bytes32","internalType":"bytes32"}],"outputs":[{"name":"","type":"bool","internalType":"bool"}],"stateMutability":"view"},{"type":"function","name":"lotIdToCustomId","inputs":[{"name":"lotId","type":"bytes32","internalType":"bytes32"}],"outputs":[{"name":"","type":"uint256","internalType":"uint256"}],"stateMutability":"view"},{"type":"function","name":"nextCustomId","inputs":[],"outputs":[{"name":"","type":"uint256","internalType":"uint256"}],"stateMutability":"view"},{"type":"function","name":"selectLotsForAmount","inputs":[{"name":"user","type":"address","internalType":"address"},{"name":"amount","type":"uint256","internalType":"uint256"}],"outputs":[{"name":"selectedLots","type":"bytes32[]","internalType":"bytes32[]"},{"name":"quantities","type":"uint256[]","internalType":"uint256[]"}],"stateMutability":"view"},{"type":"function","name":"setLotApproval","inputs":[{"name":"lotId","type":"bytes32","internalType":"bytes32"},{"name":"operator","type":"address","internalType":"address"},{"name":"amount","type":"uint256","internalType":"uint256"}],"outputs":[],"stateMutability":"nonpayable"},{"type":"function","name":"setOperatorApproval","inputs":[{"name":"operator","type":"address","internalType":"address"},{"name":"approved","type":"bool","internalType":"bool"}],"outputs":[],"stateMutability":"nonpayable"},{"type":"function","name":"setTaxStrategy","inputs":[{"name":"strategy","type":"uint8","internalType":"uint8"}],"outputs":[],"stateMutability":"nonpayable"},{"type":"event","name":"BalanceAdjusted","inputs":[{"name":"account","type":"address","indexed":true,"internalType":"address"},{"name":"quantityDelta","type":"int256","indexed":false,"internalType":"int256"},{"name":"reason","type":"string","indexed":false,"internalType":"string"}],"anonymous":false},{"type":"event","name":"Initialized","inputs":[{"name":"version","type":"uint64","indexed":false,"internalType":"uint64"}],"anonymous":false},{"type":"event","name":"LotAdjusted","inputs":[{"name":"oldLotId","type":"bytes32","indexed":true,"internalType":"bytes32"},{"name":"newLotId","type":"bytes32","indexed":true,"internalType":"bytes32"},{"name":"owner","type":"address","indexed":true,"internalType":"address"},{"name":"oldQuantity","type":"uint256","indexed":false,"internalType":"uint256"},{"name":"newQuantity","type":"uint256","indexed":false,"internalType":"uint256"},{"name":"reason","type":"string","indexed":false,"internalType":"string"}],"anonymous":false},{"type":"event","name":"LotApproval","inputs":[{"name":"lotId","type":"bytes32","indexed":true,"internalType":"bytes32"},{"name":"operator","type":"address","indexed":true,"internalType":"address"},{"name":"amount","type":"uint256","indexed":false,"internalType":"uint256"}],"anonymous":false},{"type":"event","name":"LotCreated","inputs":[{"name":"to","type":"address","indexed":true,"internalType":"address"},{"name":"lotId","type":"bytes32","indexed":true,"internalType":"bytes32"},{"name":"customId","type":"uint256","indexed":true,"internalType":"uint256"},{"name":"quantity","type":"uint256","indexed":false,"internalType":"uint256"},{"name":"rawQuantity","type":"uint256","indexed":false,"internalType":"uint256"},{"name":"costBasis","type":"uint256","indexed":false,"internalType":"uint256"}],"anonymous":false},{"type":"event","name":"LotInvalidated","inputs":[{"name":"lotId","type":"bytes32","indexed":true,"internalType":"bytes32"}],"anonymous":false},{"type":"event","name":"OperatorApproval","inputs":[{"name":"owner","type":"address","indexed":true,"internalType":"address"},{"name":"operator","type":"address","indexed":true,"internalType":"address"},{"name":"approved","type":"bool","indexed":false,"internalType":"bool"}],"anonymous":false},{"type":"event","name":"TaxStrategyUpdated","inputs":[{"name":"user","type":"address","indexed":true,"internalType":"address"},{"name":"strategy","type":"uint8","indexed":false,"internalType":"uint8"}],"anonymous":false},{"type":"error","name":"CallerIsNotAuthorized","inputs":[]},{"type":"error","name":"DelegateNotAllowed","inputs":[]},{"type":"error","name":"InvalidInitialization","inputs":[]},{"type":"error","name":"NotInitializing","inputs":[]},{"type":"error","name":"OnlyDelegate","inputs":[]},{"type":"error","name":"ReentrancyGuardReentrantCall","inputs":[]}],"bytecode":{"object":"0x60a0806040523460b457306080525f516020612ce55f395f51905f525460ff8160401c1660a5576002600160401b03196001600160401b038216016053575b604051612c2c90816100b98239608051815050f35b6001600160401b0319166001600160401b039081175f516020612ce55f395f51905f525581527fc7f505b2f371ae2175ee4913f4499e1f2633a7b5936321eed1cdaeb6115181d290602090a15f80603e565b63f92ee8a960e01b5f5260045ffd5b5f80fdfe60806040526004361015610011575f80fd5b5f3560e01c806305424ebe1461011457806308af629a1461010f5780630d9f38751461010a57806314ff3606146101055780631ea47b0f14610100578063273f023c146100fb578063468819bc146100f65780635dfe7de2146100f15780636b8fb8ab146100ec5780638ce16f81146100e7578063964e14b7146100e2578063a63a1098146100dd578063cf209d01146100d8578063d01a0fca146100d3578063d202ad65146100ce5763fd92b355146100c9575f80fd5b610d64565b610c4b565b610b6c565b610b30565b610a1c565b6109b5565b61089a565b610771565b610708565b610659565b610610565b610505565b6104bc565b61041d565b61024d565b6101a6565b600435906001600160a01b038216820361012f57565b5f80fd5b604435906001600160a01b038216820361012f57565b602435906001600160a01b038216820361012f57565b90602080835192838152019201905f5b81811061017c5750505090565b825184526020938401939092019160010161016f565b9060206101a392818152019061015f565b90565b3461012f57602036600319011261012f576101f86101c2610119565b6001600160a01b03165f527f2d7b24d472d9aa4c34cc4ef3fd090f348e70e3cd6a815e8284aa4209bb0f233b60205260405f2090565b6040519081602082549182815201915f5260205f20905f5b818110610237576102338561022781870382610377565b60405191829182610192565b0390f35b8254845260209093019260019283019201610210565b3461012f57602036600319011261012f576004356040516301ffc9a760e01b8152639f3dfa9560e01b600482015260208180602481010381305afa90811561033f575f91610344575b50156102e857604051630435f69f60e51b81523360048201526001600160e01b03195f35166024820152602081604481305afa90811561033f575f91610310575b50156102e8576102e690611d21565b005b7f2e575215000000000000000000000000000000000000000000000000000000005f5260045ffd5b610332915060203d602011610338575b61032a8183610377565b810190610d95565b5f6102d7565b503d610320565b610daa565b61035d915060203d6020116103385761032a8183610377565b5f610296565b634e487b7160e01b5f52604160045260245ffd5b90601f8019910116810190811067ffffffffffffffff82111761039957604052565b610363565b604051906103ae61016083610377565b565b67ffffffffffffffff811161039957601f01601f191660200190565b9291926103d8826103b0565b916103e66040519384610377565b82948184528183011161012f578281602093845f960137010152565b9080601f8301121561012f578160206101a3933591016103cc565b3461012f5761010036600319011261012f57610437610119565b60243590610443610133565b9160643560843560a43567ffffffffffffffff811161012f5761046a903690600401610402565b9160c4359567ffffffffffffffff871161012f573660238801121561012f576104a06104aa9736906024816004013591016103cc565b9460e43596610db5565b60408051928352602083019190915290f35b3461012f57602036600319011261012f576004355f527f2d7b24d472d9aa4c34cc4ef3fd090f348e70e3cd6a815e8284aa4209bb0f233d602052602060405f2054604051908152f35b3461012f57608036600319011261012f5761051e610119565b60443560643567ffffffffffffffff811161012f57610541903690600401610402565b906040516301ffc9a760e01b81526020818061056b6004820190639f3dfa9560e01b602083019252565b0381305afa90811561033f575f916105f1575b50156102e857604051630435f69f60e51b81523360048201526001600160e01b03195f35166024820152602081604481305afa90811561033f575f916105d2575b50156102e8576102e6926024359061137e565b6105eb915060203d6020116103385761032a8183610377565b5f6105bf565b61060a915060203d6020116103385761032a8183610377565b5f61057e565b3461012f57602036600319011261012f576004355f527f2d7b24d472d9aa4c34cc4ef3fd090f348e70e3cd6a815e8284aa4209bb0f233e602052602060405f2054604051908152f35b3461012f57606036600319011261012f57600435610675610149565b907f365d337e4e0a965f2d819e3bfdcc45be94f90b9293b203e74f04fc5bfdf3bb4460206001600160a01b03604435946106b76106b23387612a05565b6117ee565b845f527f2d7b24d472d9aa4c34cc4ef3fd090f348e70e3cd6a815e8284aa4209bb0f233f8352856106fc8260405f20906001600160a01b03165f5260205260405f2090565b556040519586521693a3005b3461012f57602036600319011261012f57602060ff61075e610728610119565b6001600160a01b03165f527f2d7b24d472d9aa4c34cc4ef3fd090f348e70e3cd6a815e8284aa4209bb0f234160205260405f2090565b5416610769816107eb565b604051908152f35b3461012f57604036600319011261012f576107ad610799610790610119565b60243590612499565b60405192839260408452604084019061015f565b8281036020840152602080835192838152019201905f5b8181106107d2575050500390f35b82518452859450602093840193909201916001016107c4565b600511156107f557565b634e487b7160e01b5f52602160045260245ffd5b805180835260209291819084018484015e5f828201840152601f01601f1916010190565b9895929361088b97946101a39b9996936001600160a01b03938c52151560208c015260408b0152166060890152608088015260a087015260c0860152610872816107eb565b60e0850152610140610100850152610140840190610809565b91610120818403910152610809565b3461012f57602036600319011261012f576004355f525f516020612bd75f395f51905f5260205260405f206108d26001820154612ae5565b9061023360038201545f8060405160208101907fcadeb1f50000000000000000000000000000000000000000000000000000000082528460248201526024815261091d604482610377565b5190305afa61092a6122e8565b90156109ae57610944915060208082518301019101612317565b925b8254926006810154946109598660ff1690565b9561096e60028401546001600160a01b031690565b9160048401549061098860058601549360ff9060a81c1690565b936109a1600861099a60078901611839565b9701611839565b966040519a8b9a8b61082d565b5092610946565b3461012f57602036600319011261012f576004355f525f516020612bd75f395f51905f526020526020600660405f2001546001600160a01b038160081c1615159081610a07575b506040519015158152f35b60ff9150165f6109fc565b8015150361012f57565b3461012f57604036600319011261012f57610a35610119565b602435610a4181610a12565b6001600160a01b03821691823314610aec5781610aab610abc92610a95336001600160a01b03165f527f2d7b24d472d9aa4c34cc4ef3fd090f348e70e3cd6a815e8284aa4209bb0f234060205260405f2090565b906001600160a01b03165f5260205260405f2090565b9060ff801983541691151516179055565b60405190151581527fb0baad403121a51e86ba59d2d9cb1ecc18c008abaa311a7a5343e556a5030c2160203392a3005b606460405162461bcd60e51b815260206004820152601e60248201527f546f6b656e4c6f74733a2063616e6e6f7420617070726f76652073656c6600006044820152fd5b3461012f575f36600319011261012f5760207f2d7b24d472d9aa4c34cc4ef3fd090f348e70e3cd6a815e8284aa4209bb0f233c54604051908152f35b3461012f57602036600319011261012f5760043560ff811680820361012f5760048111610c075780610ba0610bd2926107eb565b335f9081527f2d7b24d472d9aa4c34cc4ef3fd090f348e70e3cd6a815e8284aa4209bb0f2341602052604090206118d7565b60405160ff91909116815233907f3b390bd003355e4bbebd3e567aa4f03175a8ea52b96cb987cc6bbc4fdf5b91fa90602090a2005b606460405162461bcd60e51b815260206004820152601f60248201527f546f6b656e4c6f74733a20696e76616c696420746178207374726174656779006044820152fd5b3461012f57608036600319011261012f5760243560043560443560643567ffffffffffffffff811161012f57610c85903690600401610402565b906040516301ffc9a760e01b815260208180610caf6004820190639f3dfa9560e01b602083019252565b0381305afa90811561033f575f91610d45575b50156102e857604051630435f69f60e51b81523360048201526001600160e01b03195f35166024820152602081604481305afa90811561033f575f91610d26575b50156102e85761023393610d169361196e565b6040519081529081906020820190565b610d3f915060203d6020116103385761032a8183610377565b5f610d03565b610d5e915060203d6020116103385761032a8183610377565b5f610cc2565b3461012f57604036600319011261012f576020610d8b600435610d85610149565b90612a05565b6040519015158152f35b9081602091031261012f57516101a381610a12565b6040513d5f823e3d90fd5b969594939291906040516301ffc9a760e01b815260208180610de56004820190639f3dfa9560e01b602083019252565b0381305afa90811561033f575f91610e6b575b50156102e857604051630435f69f60e51b81523360048201526001600160e01b03195f35166024820152602081604481305afa90811561033f575f91610e4c575b50156102e857610e4897611f91565b9091565b610e65915060203d6020116103385761032a8183610377565b5f610e39565b610e84915060203d6020116103385761032a8183610377565b5f610df8565b15610e9157565b606460405162461bcd60e51b815260206004820152601460248201527f546f6b656e4c6f74733a206e6f206368616e67650000000000000000000000006044820152fd5b634e487b7160e01b5f52601160045260245ffd5b7f80000000000000000000000000000000000000000000000000000000000000008114610f15575f0390565b610ed5565b15610f2157565b606460405162461bcd60e51b815260206004820152601f60248201527f546f6b656e4c6f74733a20696e73756666696369656e742062616c616e6365006044820152fd5b634e487b7160e01b5f52603260045260245ffd5b8051821015610f8d5760209160051b010190565b610f65565b5f19810191908211610f1557565b91908203918211610f1557565b5f198114610f155760010190565b9060806101a39260408152601b60408201527f41646d696e6973747261746976652061646a7573746d656e743a20000000000060608201528160208201520190610809565b5f9061100b826107eb565b52565b6040519061101d602083610377565b5f8252565b9061102c816107eb565b7fffffffffffffffffffff00ffffffffffffffffffffffffffffffffffffffffff75ff00000000000000000000000000000000000000000083549260a81b169116179055565b90600182811c921680156110a0575b602083101461108c57565b634e487b7160e01b5f52602260045260245ffd5b91607f1691611081565b601f82116110b757505050565b5f5260205f20906020601f840160051c830193106110ef575b601f0160051c01905b8181106110e4575050565b5f81556001016110d9565b90915081906110d0565b919091825167ffffffffffffffff8111610399576111218161111b8454611072565b846110aa565b6020601f82116001146111605781906111519394955f92611155575b50508160011b915f199060031b1c19161790565b9055565b015190505f8061113d565b601f19821690611173845f5260205f2090565b915f5b8181106111ad57509583600195969710611195575b505050811b019055565b01515f1960f88460031b161c191690555f808061118b565b9192602060018192868b015181550194019201611176565b60086101406103ae93805184556020810151600185015561122a6111f360408301516001600160a01b031690565b60028601906001600160a01b03167fffffffffffffffffffffffff0000000000000000000000000000000000000000825416179055565b606081015160038501556080810151600485015560a081015160058501556112e36006850161127161125f60c0850151151590565b829060ff801983541691151516179055565b6112ce61128860e08501516001600160a01b031690565b82547fffffffffffffffffffffff0000000000000000000000000000000000000000ff1660089190911b74ffffffffffffffffffffffffffffffffffffffff0016178255565b610100830151906112de826107eb565b611022565b6112f5610120820151600786016110f9565b015191016110f9565b8054821015610f8d575f5260205f2001905f90565b80546801000000000000000081101561039957611335916001820181556112fe565b819291549060031b91821b915f19901b1916179055565b9060018201809211610f1557565b91908201809211610f1557565b6040906101a3939281528160208201520190610809565b9192909261138d841515610e8a565b5f84131561164f579161164a6001600160a01b039261163c7f1888a30f8b0ad0c301c2b2e9e4d138ecc74b8e9415d34b568fd26518e864ab779561159d6113d389612326565b916113f7838860809160405191825260208201524260408201523060608201522090565b906114f97f2d7b24d472d9aa4c34cc4ef3fd090f348e70e3cd6a815e8284aa4209bb0f233c549161144e61142a84610fad565b7f2d7b24d472d9aa4c34cc4ef3fd090f348e70e3cd6a815e8284aa4209bb0f233c55565b604051611470816114628b60208301610fbb565b03601f198101835282610377565b61147861039e565b915f83528760208401525f604084015260608301524260808301524260a08301526114a660c0830160019052565b6001600160a01b038b1660e08301526114c26101008301611000565b6114ca61100e565b6101208301526101408201526114f4845f525f516020612bd75f395f51905f5260205260405f2090565b6111c5565b8161152b825f527f2d7b24d472d9aa4c34cc4ef3fd090f348e70e3cd6a815e8284aa4209bb0f233d60205260405f2090565b5561155d825f527f2d7b24d472d9aa4c34cc4ef3fd090f348e70e3cd6a815e8284aa4209bb0f233e60205260405f2090565b55611598876001600160a01b03165f527f2d7b24d472d9aa4c34cc4ef3fd090f348e70e3cd6a815e8284aa4209bb0f233b60205260405f2090565b611313565b6115d7856001600160a01b03165f527f1e4aaaa99f6df78fec1b4ccd91a73db6b79cd07fbf36aaeb793f4fa979f2212560205260405f2090565b6115e282825461135a565b9055611636611612827f1e4aaaa99f6df78fec1b4ccd91a73db6b79cd07fbf36aaeb793f4fa979f221265461135a565b7f1e4aaaa99f6df78fec1b4ccd91a73db6b79cd07fbf36aaeb793f4fa979f2212655565b846128ba565b604051938493169583611367565b0390a2565b509261166261165d84610ee9565b612326565b926116a9846116a1856001600160a01b03165f527f1e4aaaa99f6df78fec1b4ccd91a73db6b79cd07fbf36aaeb793f4fa979f2212560205260405f2090565b541015610f1a565b6116b38484612499565b9390955f5b875181101561173457806116ce6001928a610f79565b516116f86116dc838a610f79565b51915f525f516020612bd75f395f51905f5260205260405f2090565b83810180549192909181811161171d57505050600601805460ff191690555b016116b8565b9061172791610fa0565b9055600542910155611717565b506001600160a01b039396507f1888a30f8b0ad0c301c2b2e9e4d138ecc74b8e9415d34b568fd26518e864ab7794506117e961163661164a9394976117a9866001600160a01b03165f527f1e4aaaa99f6df78fec1b4ccd91a73db6b79cd07fbf36aaeb793f4fa979f2212560205260405f2090565b6117b4828254610fa0565b90556117e4611612827f1e4aaaa99f6df78fec1b4ccd91a73db6b79cd07fbf36aaeb793f4fa979f2212654610fa0565b610ee9565b61163c565b156117f557565b606460405162461bcd60e51b815260206004820152601960248201527f546f6b656e4c6f74733a206e6f7420617574686f72697a6564000000000000006044820152fd5b9060405191825f82549261184c84611072565b80845293600181169081156118b55750600114611871575b506103ae92500383610377565b90505f9291925260205f20905f915b8183106118995750509060206103ae928201015f611864565b6020919350806001915483858901015201910190918492611880565b9050602092506103ae94915060ff191682840152151560051b8201015f611864565b906118e1816107eb565b60ff80198354169116179055565b156118f657565b606460405162461bcd60e51b815260206004820152601860248201527f546f6b656e4c6f74733a206c6f74206e6f742076616c696400000000000000006044820152fd5b81810392915f138015828513169184121617610f1557565b6101a39392606092825260208201528160408201520190610809565b92909192611990815f525f516020612bd75f395f51905f5260205260405f2090565b91600683019384546119a28160ff1690565b6119ab906118ef565b60081c6001600160a01b03166001850154966119c688612ae5565b966119d084612326565b986119db908a61193a565b916119ff8a8560809160405191825260208201524260408201523060608201522090565b998a987f2d7b24d472d9aa4c34cc4ef3fd090f348e70e3cd6a815e8284aa4209bb0f233c5492611a2e84610fad565b7f2d7b24d472d9aa4c34cc4ef3fd090f348e70e3cd6a815e8284aa4209bb0f233c5560028201546001600160a01b031690600483015491611a6d61039e565b8c815260208101959095526001600160a01b03166040850152606084015260808301524260a0830152600160c08301526001600160a01b03861660e0830152611ab96101008301611000565b611ac560078201611839565b610120830152600801611ad790611839565b610140820152611afb895f525f516020612bd75f395f51905f5260205260405f2090565b90611b05916111c5565b87611b37825f527f2d7b24d472d9aa4c34cc4ef3fd090f348e70e3cd6a815e8284aa4209bb0f233d60205260405f2090565b55611b69885f527f2d7b24d472d9aa4c34cc4ef3fd090f348e70e3cd6a815e8284aa4209bb0f233e60205260405f2090565b5586611ba5846001600160a01b03165f527f2d7b24d472d9aa4c34cc4ef3fd090f348e70e3cd6a815e8284aa4209bb0f233b60205260405f2090565b90611baf91611313565b805460ff191690557ffb5ff8c5e70683316169c018cee7ec8f0ae15e85300f2bbf2f78e89af567d450936001600160a01b0393611c039280151580611c19575b611c09575b50604051948594169884611952565b0390a490565b611c1390856128ba565b5f611bf4565b5f821315611c9b57611c5b866001600160a01b03165f527f1e4aaaa99f6df78fec1b4ccd91a73db6b79cd07fbf36aaeb793f4fa979f2212560205260405f2090565b611c6683825461135a565b9055611c96611612837f1e4aaaa99f6df78fec1b4ccd91a73db6b79cd07fbf36aaeb793f4fa979f221265461135a565b611bef565b611ca482610ee9565b611ce9611ce1886001600160a01b03165f527f1e4aaaa99f6df78fec1b4ccd91a73db6b79cd07fbf36aaeb793f4fa979f2212560205260405f2090565b918254610fa0565b9055611c96611612611cfa84610ee9565b7f1e4aaaa99f6df78fec1b4ccd91a73db6b79cd07fbf36aaeb793f4fa979f2212654610fa0565b805f525f516020612bd75f395f51905f5260205260405f2060068101805490611d4c60ff83166118ef565b611d596106b23386612a05565b60018301611da56001600160a01b0382549460081c166001600160a01b03165f527f1e4aaaa99f6df78fec1b4ccd91a73db6b79cd07fbf36aaeb793f4fa979f2212560205260405f2090565b908154938403938411610f1557611e1393611e099255611dea61161282547f1e4aaaa99f6df78fec1b4ccd91a73db6b79cd07fbf36aaeb793f4fa979f2212654610fa0565b8254611e039060081c6001600160a01b03169154610ee9565b906128ba565b805460ff19169055565b6005429101557f0ff0ed35b733a3dabac7f6e6140e420911c45a59e7c56d0d817e1ebd1b5ad8275f80a2565b15611e4657565b606460405162461bcd60e51b815260206004820152601c60248201527f546f6b656e4c6f74733a20696e76616c696420726563697069656e74000000006044820152fd5b15611e9157565b606460405162461bcd60e51b815260206004820152601d60248201527f546f6b656e4c6f74733a20616d6f756e74206d757374206265203e20300000006044820152fd5b15611edc57565b606460405162461bcd60e51b815260206004820152601d60248201527f546f6b656e4c6f74733a2065786365656473206d617820737570706c790000006044820152fd5b15611f2757565b608460405162461bcd60e51b815260206004820152602360248201527f546f6b656e4c6f74733a20637573746f6d20494420616c726561647920696e2060448201527f75736500000000000000000000000000000000000000000000000000000000006064820152fd5b92979691979594956001600160a01b03841693611faf851515611e3f565b611fba831515611e8a565b611fcb611fc684612b27565b611ed5565b611fd483612326565b938061222f575083929161220b7f53452964ec88d5a43b2b8c361c3f4fd7ff88ea2420d7da9111be4c3b05cf1d3e95612228936120ed7f2d7b24d472d9aa4c34cc4ef3fd090f348e70e3cd6a815e8284aa4209bb0f233c5461203861142a82610fad565b9e8f9c5b61205f858560809160405191825260208201524260408201523060608201522090565b9e8f9d61208961206d61039e565b945f865288602087015260408601906001600160a01b03169052565b88606085015260808401524260a08401526120a760c0840160019052565b6001600160a01b03851660e08401526120c36101008401611000565b6101208301526101408201526114f48c5f525f516020612bd75f395f51905f5260205260405f2090565b8961211f8c5f527f2d7b24d472d9aa4c34cc4ef3fd090f348e70e3cd6a815e8284aa4209bb0f233d60205260405f2090565b558a6121528b5f527f2d7b24d472d9aa4c34cc4ef3fd090f348e70e3cd6a815e8284aa4209bb0f233e60205260405f2090565b556121918a611598836001600160a01b03165f527f2d7b24d472d9aa4c34cc4ef3fd090f348e70e3cd6a815e8284aa4209bb0f233b60205260405f2090565b6121cb816001600160a01b03165f527f1e4aaaa99f6df78fec1b4ccd91a73db6b79cd07fbf36aaeb793f4fa979f2212560205260405f2090565b6121d683825461135a565b9055612206611612837f1e4aaaa99f6df78fec1b4ccd91a73db6b79cd07fbf36aaeb793f4fa979f221265461135a565b6128ba565b604051938493846040919493926060820195825260208201520152565b0390a49190565b9182612269869c9695949993995f527f2d7b24d472d9aa4c34cc4ef3fd090f348e70e3cd6a815e8284aa4209bb0f233d60205260405f2090565b541561227490611f20565b809b8c997f2d7b24d472d9aa4c34cc4ef3fd090f348e70e3cd6a815e8284aa4209bb0f233c548310157f53452964ec88d5a43b2b8c361c3f4fd7ff88ea2420d7da9111be4c3b05cf1d3e986122289661220b956120ed936122d6575b5061203c565b61142a6122e29161134c565b5f6122d0565b3d15612312573d906122f9826103b0565b916123076040519384610377565b82523d5f602084013e565b606090565b9081602091031261012f575190565b5f8060405160208101907fa8603ea200000000000000000000000000000000000000000000000000000000825284602482015260248152612368604482610377565b5190305afa6123756122e8565b901561238f576101a3915060208082518301019101612317565b5090565b1561239a57565b606460405162461bcd60e51b815260206004820152601860248201527f546f6b656e4c6f74733a206e6f2076616c6964206c6f747300000000000000006044820152fd5b67ffffffffffffffff81116103995760051b60200190565b90612400826123de565b61240d6040519182610377565b828152809261241e601f19916123de565b0190602036910137565b1561242f57565b608460405162461bcd60e51b815260206004820152602760248201527f546f6b656e4c6f74733a20696e73756666696369656e74206c6f747320666f7260448201527f20616d6f756e74000000000000000000000000000000000000000000000000006064820152fd5b6124dc6124a582612b95565b916001600160a01b03165f527f2d7b24d472d9aa4c34cc4ef3fd090f348e70e3cd6a815e8284aa4209bb0f233b60205260405f2090565b915f925f918154925b83811061285c57506124f8851515612393565b612501856123f6565b9261250b866123f6565b94612515876123f6565b935f905f5b8481106127505750505050505f905b61253286610f92565b82101561263a575f5b61254d6125488489610fa0565b610f92565b81101561262e578061256160019286610f79565b5161257461256e8361134c565b87610f79565b5110612581575b0161253b565b61259361258d8261134c565b86610f79565b5161259e8287610f79565b516125b16125ab8461134c565b88610f79565b526125bc8287610f79565b526125c961256e8261134c565b516125d48288610f79565b516125e76125e18461134c565b89610f79565b526125f28288610f79565b526125ff6125ab8261134c565b5161260a8289610f79565b5161261d6126178461134c565b8a610f79565b526126288289610f79565b5261257b565b50600190910190612529565b959392915050612649846123f6565b94612653856123f6565b90925f945f955b87871080612747575b156126db576126bf876126b96126c59361267d8388610f79565b518a11156126cc578c6126a7826126a0612697878c610f79565b51965b8d610f79565b5192610f79565b52826126b3828a610f79565b52610fad565b97610fa0565b96610fad565b959461265a565b8c6126a7826126a08d9661269a565b949295509550506126ed915015612428565b6126f6816123f6565b91612700826123f6565b945f5b83811061271257505050509190565b8061271f60019284610f79565b5161272a8288610f79565b526127358185610f79565b51612740828a610f79565b5201612703565b50851515612663565b61276a61276082849d989d6112fe565b90549060031b1c90565b612788815f525f516020612bd75f395f51905f5260205260405f2090565b90612797600683015460ff1690565b6127a9575b505060010199949961251a565b936127e891600193956127bc838d610f79565b52808401546127cb838e610f79565b526127d5876107eb565b866127f057600401546126b3828b610f79565b92905f61279c565b6127f9876107eb565b86840361280f5760040154196126b3828b610f79565b612818876107eb565b6002870361282f5760030154196126b3828b610f79565b612838876107eb565b60038714612847575b50610fad565b60030154612855828b610f79565b525f612841565b612896600661288e61287461276085889c979c6112fe565b5f525f516020612bd75f395f51905f5260205260405f2090565b015460ff1690565b6128a6575b6001019590956124e5565b946128b2600191610fad565b95905061289b565b5f8212612906576128fe611151916001600160a01b03165f527f1e4aaaa99f6df78fec1b4ccd91a73db6b79cd07fbf36aaeb793f4fa979f2212760205260405f2090565b91825461135a565b9061291090610ee9565b908161294c826001600160a01b03165f527f1e4aaaa99f6df78fec1b4ccd91a73db6b79cd07fbf36aaeb793f4fa979f2212760205260405f2090565b541061299b5761298c906001600160a01b03165f527f1e4aaaa99f6df78fec1b4ccd91a73db6b79cd07fbf36aaeb793f4fa979f2212760205260405f2090565b8054918203918211610f155755565b608460405162461bcd60e51b815260206004820152602360248201527f546f6b656e4c6f74733a20696e73756666696369656e74207261772062616c6160448201527f6e636500000000000000000000000000000000000000000000000000000000006064820152fd5b90815f525f516020612bd75f395f51905f526020526001600160a01b03600660405f20015460081c166001600160a01b0382168114612add57612a7e82610a9560ff936001600160a01b03165f527f2d7b24d472d9aa4c34cc4ef3fd090f348e70e3cd6a815e8284aa4209bb0f234060205260405f2090565b5416612ad657612ac8915f527f2d7b24d472d9aa4c34cc4ef3fd090f348e70e3cd6a815e8284aa4209bb0f233f60205260405f20906001600160a01b03165f5260205260405f2090565b54612ad1575f90565b600190565b5050600190565b505050600190565b5f8060405160208101907f7d7dff0900000000000000000000000000000000000000000000000000000000825284602482015260248152612368604482610377565b5f809160405160208101917fc6b1fe58000000000000000000000000000000000000000000000000000000008352602482015260248152612b69604482610377565b5190305afa612b766122e8565b9015612b8f57806020806101a393518301019101610d95565b50600190565b612bd160ff916001600160a01b03165f527f2d7b24d472d9aa4c34cc4ef3fd090f348e70e3cd6a815e8284aa4209bb0f234160205260405f2090565b54169056fe2d7b24d472d9aa4c34cc4ef3fd090f348e70e3cd6a815e8284aa4209bb0f233aa26469706673582212203bc5e69a16d3324a613d7f3208648bdb8186c2feaf5f7b3b6329db673a0653de64736f6c634300081c0033f0c57e16840df040f15088dc2f81fe391c3923bec73e23a9662efc9c229c6a00","linkReferences":{}},"methodIdentifiers":{"adjustBalance(address,int256,uint256,string)":"1ea47b0f","adjustLot(bytes32,uint256,uint256,string)":"d202ad65","createLot(address,uint256,address,uint256,uint256,string,bytes,uint256)":"0d9f3875","customIdToLotId(uint256)":"14ff3606","getLot(bytes32)":"8ce16f81","getLotsOf(address)":"05424ebe","getTaxStrategy(address)":"5dfe7de2","invalidateLot(bytes32)":"08af629a","isApprovedOrOwner(bytes32,address)":"fd92b355","lotExists(bytes32)":"964e14b7","lotIdToCustomId(bytes32)":"273f023c","nextCustomId()":"cf209d01","selectLotsForAmount(address,uint256)":"6b8fb8ab","setLotApproval(bytes32,address,uint256)":"468819bc","setOperatorApproval(address,bool)":"a63a1098","setTaxStrategy(uint8)":"d01a0fca"},"id":216}