{"abi":[{"type":"function","name":"NOTE_TOKEN_ID","inputs":[],"outputs":[{"name":"","type":"uint256","internalType":"uint256"}],"stateMutability":"view"},{"type":"function","name":"TokenNote_init","inputs":[{"name":"admin","type":"address","internalType":"address"},{"name":"borrower","type":"address","internalType":"address"},{"name":"lender","type":"address","internalType":"address"},{"name":"terms","type":"tuple","internalType":"struct TokenNoteFacet.NoteTerms","components":[{"name":"principalAmount","type":"uint256","internalType":"uint256"},{"name":"interestRateBps","type":"uint16","internalType":"uint16"},{"name":"maturityDate","type":"uint256","internalType":"uint256"},{"name":"paymentFrequency","type":"uint8","internalType":"enum TokenNoteFacet.PaymentFrequency"},{"name":"paymentToken","type":"address","internalType":"address"},{"name":"allowEarlyRepayment","type":"bool","internalType":"bool"},{"name":"earlyRepaymentPenaltyBps","type":"uint16","internalType":"uint16"},{"name":"gracePeriodDays","type":"uint256","internalType":"uint256"}]}],"outputs":[],"stateMutability":"nonpayable"},{"type":"function","name":"accrueInterest","inputs":[],"outputs":[{"name":"newInterest","type":"uint256","internalType":"uint256"}],"stateMutability":"nonpayable"},{"type":"function","name":"activate","inputs":[{"name":"noteDocumentId","type":"bytes32","internalType":"bytes32"}],"outputs":[],"stateMutability":"nonpayable"},{"type":"function","name":"cancel","inputs":[],"outputs":[],"stateMutability":"nonpayable"},{"type":"function","name":"getBalanceDue","inputs":[],"outputs":[{"name":"principalDue","type":"uint256","internalType":"uint256"},{"name":"interestDue","type":"uint256","internalType":"uint256"},{"name":"totalDue","type":"uint256","internalType":"uint256"}],"stateMutability":"view"},{"type":"function","name":"getDaysUntilMaturity","inputs":[],"outputs":[{"name":"","type":"int256","internalType":"int256"}],"stateMutability":"view"},{"type":"function","name":"getNote","inputs":[],"outputs":[{"name":"borrower","type":"address","internalType":"address"},{"name":"lender","type":"address","internalType":"address"},{"name":"terms","type":"tuple","internalType":"struct TokenNoteFacet.NoteTerms","components":[{"name":"principalAmount","type":"uint256","internalType":"uint256"},{"name":"interestRateBps","type":"uint16","internalType":"uint16"},{"name":"maturityDate","type":"uint256","internalType":"uint256"},{"name":"paymentFrequency","type":"uint8","internalType":"enum TokenNoteFacet.PaymentFrequency"},{"name":"paymentToken","type":"address","internalType":"address"},{"name":"allowEarlyRepayment","type":"bool","internalType":"bool"},{"name":"earlyRepaymentPenaltyBps","type":"uint16","internalType":"uint16"},{"name":"gracePeriodDays","type":"uint256","internalType":"uint256"}]},{"name":"status","type":"uint8","internalType":"enum TokenNoteFacet.NoteStatus"},{"name":"totalPrincipalPaid","type":"uint256","internalType":"uint256"},{"name":"totalInterestPaid","type":"uint256","internalType":"uint256"},{"name":"accruedInterest","type":"uint256","internalType":"uint256"}],"stateMutability":"view"},{"type":"function","name":"getPayments","inputs":[],"outputs":[{"name":"","type":"tuple[]","internalType":"struct TokenNoteFacet.Payment[]","components":[{"name":"timestamp","type":"uint256","internalType":"uint256"},{"name":"principalPaid","type":"uint256","internalType":"uint256"},{"name":"interestPaid","type":"uint256","internalType":"uint256"}]}],"stateMutability":"view"},{"type":"function","name":"isPastMaturity","inputs":[],"outputs":[{"name":"","type":"bool","internalType":"bool"}],"stateMutability":"view"},{"type":"function","name":"isTransferable","inputs":[],"outputs":[{"name":"","type":"bool","internalType":"bool"}],"stateMutability":"view"},{"type":"function","name":"makePayment","inputs":[{"name":"principalPayment","type":"uint256","internalType":"uint256"},{"name":"interestPayment","type":"uint256","internalType":"uint256"}],"outputs":[],"stateMutability":"nonpayable"},{"type":"function","name":"markDefaulted","inputs":[],"outputs":[],"stateMutability":"nonpayable"},{"type":"function","name":"packedSelectors","inputs":[],"outputs":[{"name":"","type":"bytes","internalType":"bytes"}],"stateMutability":"pure"},{"type":"function","name":"payOff","inputs":[],"outputs":[],"stateMutability":"nonpayable"},{"type":"function","name":"setTransferable","inputs":[{"name":"_transferable","type":"bool","internalType":"bool"}],"outputs":[],"stateMutability":"nonpayable"},{"type":"event","name":"InterestAccrued","inputs":[{"name":"amount","type":"uint256","indexed":false,"internalType":"uint256"},{"name":"totalAccrued","type":"uint256","indexed":false,"internalType":"uint256"}],"anonymous":false},{"type":"event","name":"NoteActivated","inputs":[{"name":"lender","type":"address","indexed":true,"internalType":"address"},{"name":"noteDocumentId","type":"bytes32","indexed":false,"internalType":"bytes32"}],"anonymous":false},{"type":"event","name":"NoteCancelled","inputs":[{"name":"lender","type":"address","indexed":true,"internalType":"address"}],"anonymous":false},{"type":"event","name":"NoteDefaulted","inputs":[{"name":"lender","type":"address","indexed":true,"internalType":"address"},{"name":"outstandingPrincipal","type":"uint256","indexed":false,"internalType":"uint256"},{"name":"outstandingInterest","type":"uint256","indexed":false,"internalType":"uint256"}],"anonymous":false},{"type":"event","name":"NoteInitialized","inputs":[{"name":"borrower","type":"address","indexed":true,"internalType":"address"},{"name":"lender","type":"address","indexed":true,"internalType":"address"},{"name":"principalAmount","type":"uint256","indexed":false,"internalType":"uint256"},{"name":"interestRateBps","type":"uint16","indexed":false,"internalType":"uint16"},{"name":"maturityDate","type":"uint256","indexed":false,"internalType":"uint256"}],"anonymous":false},{"type":"event","name":"NotePaidOff","inputs":[{"name":"lender","type":"address","indexed":true,"internalType":"address"},{"name":"totalPrincipalPaid","type":"uint256","indexed":false,"internalType":"uint256"},{"name":"totalInterestPaid","type":"uint256","indexed":false,"internalType":"uint256"}],"anonymous":false},{"type":"event","name":"PaymentReceived","inputs":[{"name":"principalPaid","type":"uint256","indexed":false,"internalType":"uint256"},{"name":"interestPaid","type":"uint256","indexed":false,"internalType":"uint256"},{"name":"remainingPrincipal","type":"uint256","indexed":false,"internalType":"uint256"}],"anonymous":false},{"type":"event","name":"Transfer","inputs":[{"name":"from","type":"address","indexed":true,"internalType":"address"},{"name":"to","type":"address","indexed":true,"internalType":"address"},{"name":"value","type":"uint256","indexed":false,"internalType":"uint256"}],"anonymous":false},{"type":"event","name":"UserRoleUpdated","inputs":[{"name":"user","type":"address","indexed":true,"internalType":"address"},{"name":"role","type":"uint8","indexed":true,"internalType":"uint8"},{"name":"enabled","type":"bool","indexed":false,"internalType":"bool"}],"anonymous":false},{"type":"error","name":"AccessControl_CallerIsNotAuthorized","inputs":[{"name":"caller","type":"address","internalType":"address"},{"name":"functionSig","type":"bytes4","internalType":"bytes4"}]},{"type":"error","name":"Note_AlreadyInitialized","inputs":[]},{"type":"error","name":"Note_AlreadyMinted","inputs":[]},{"type":"error","name":"Note_AlreadyResolved","inputs":[]},{"type":"error","name":"Note_EarlyRepaymentNotAllowed","inputs":[]},{"type":"error","name":"Note_InvalidInterestRate","inputs":[]},{"type":"error","name":"Note_InvalidMaturity","inputs":[]},{"type":"error","name":"Note_NotActive","inputs":[]},{"type":"error","name":"Note_NotInitialized","inputs":[]},{"type":"error","name":"Note_NotMatured","inputs":[]},{"type":"error","name":"Note_TransferNotAllowed","inputs":[]},{"type":"error","name":"Note_ZeroAddress","inputs":[]},{"type":"error","name":"Note_ZeroAmount","inputs":[]}],"bytecode":{"object":"0x60808060405234601557611c3e908161001a8239f35b5f80fdfe60806040526004361015610011575f80fd5b5f358060e01c806303bbe543146110a55780630fe9cc7c1461108b5780632121dc751461105d5780633e62267c14610f475780633fac68d514610d7957806359db6e8514610ba15780638e0b239414610b495780639cd2370714610ae5578063a6afed9514610ac3578063b534e55714610aa8578063d390f97414610882578063d56bd14214610755578063dd541230146105b1578063df3ac476146103a2578063e178973c146102e25763ea8a1af0146100ca575f80fd5b346102de575f3660031901126102de576001600160e01b0319166100ee81336116b2565b156102c85760ff5f516020611b295f395f51905f525416156102b95760ff5f516020611b495f395f51905f52541660058110158061028a576002821480156102ad575b61029e57600460ff195f516020611b495f395f51905f525416175f516020611b495f395f51905f5255427f28070caa5da8d2fbbc8565c043b49879372bb986b41df49672f0c2cc6500e2835561028a576001146101c7575b5f516020611bc95f395f51905f52546001600160a01b03167ff5317072c8490dfbd425e7f958779ce43c5385ea1e06c9e076e173f5deaf66a55f80a2005b60015f9081527f38161cf2d4daf9803f126964f550a85421890f655ba069802277664ece3c33676020527fef543b2ab808402e96a46efec7665139645be18ed57f9b09a5804a02a8dfd27280546001600160a01b03191690555f516020611bc95f395f51905f5254610241906001600160a01b0316611572565b555f60018060a01b035f516020611bc95f395f51905f5254167fddf252ad1be2c89b69c2b068fc378daa952ba7f163c4a11628f55a4df523b3ef602060405160018152a3610189565b634e487b7160e01b5f52602160045260245ffd5b6301cd198960e71b5f5260045ffd5b50505f60038214610131565b63c3408bb360e01b5f5260045ffd5b631d64bc3360e11b5f523360045260245260445ffd5b5f80fd5b346102de575f3660031901126102de576103195f516020611a895f395f51905f52545f516020611ae95f395f51905f525490611422565b61037364496cebb80061035e61033d5f516020611ba95f395f51905f525442611422565b61035961ffff5f516020611aa95f395f51905f525416866114cf565b6114cf565b045f516020611be95f395f51905f52546114e2565b9061039e61038183836114e2565b604051938493846040919493926060820195825260208201520152565b0390f35b346102de575f3660031901126102de575f60e06040516103c181611490565b8281528260208201528260408201528260608201528260808201528260a08201528260c0820152015260018060a01b035f516020611b295f395f51905f525460081c1660018060a01b035f516020611bc95f395f51905f5254169060ff5f516020611b495f395f51905f525416915f516020611ae95f395f51905f52545f516020611b695f395f51905f5254905f516020611be95f395f51905f52549260405161046a81611490565b5f516020611a895f395f51905f525481525f516020611aa95f395f51905f525461ffff16602082019081525f516020611ac95f395f51905f5254604083019081525f516020611a695f395f51905f5254919290606082019060ff8416600481101561028a57825261ffff608084019560018060a01b038660081c16875260a085019460ff8760a81c16151586528260c082019760b01c1687527f28070caa5da8d2fbbc8565c043b49879372bb986b41df49672f0c2cc6500e27b549860e08201998a5260206040519e8f90815201525160408d0152511660608b01525160808a01525192600484101561028a5760a089019390935291516001600160a01b031660c08801529051151560e08701525161ffff1661010086015251610120850152600585101561028a576101c0946101408501526101608401526101808301526101a0820152f35b50346102de575f3660031901126102de576001600160e01b0319166105d681336116b2565b156102c85760ff5f516020611b495f395f51905f525416600581101561028a57600103610746575f516020611ac95f395f51905f52547f28070caa5da8d2fbbc8565c043b49879372bb986b41df49672f0c2cc6500e27b54620151808102908082046201518014901517156107325761064e916114e2565b4211156107235761065d6115aa565b50600360ff195f516020611b495f395f51905f525416175f516020611b495f395f51905f5255427f28070caa5da8d2fbbc8565c043b49879372bb986b41df49672f0c2cc6500e2835560018060a01b035f516020611bc95f395f51905f5254167fb3530f26032f1ddb60d1c417f7d43ad8f30d6342861e08638164a7da7a354a3660406107075f516020611a895f395f51905f52545f516020611ae95f395f51905f525490611422565b5f516020611be95f395f51905f525482519182526020820152a2005b634b0acc4160e11b5f5260045ffd5b634e487b7160e01b5f52601160045260245ffd5b631991b84b60e11b5f5260045ffd5b346102de575f3660031901126102de575f516020611b895f395f51905f525467ffffffffffffffff811161086e576040519061079760208260051b01836114ad565b8082525f516020611b895f395f51905f525f9081526020830191907fce320cee7dce78b5f7a8fb20cc6ccf9f824370a2c4f87552d247f72e76ac8067835b838310610837578486604051918291602083019060208452518091526040830191905f5b818110610807575050500390f35b919350916020606060019260408751805183528481015185840152015160408201520194019101918493926107f9565b6003602060019260405161084a81611474565b855481528486015483820152600286015460408201528152019201920191906107d5565b634e487b7160e01b5f52604160045260245ffd5b50346102de5760403660031901126102de5760043590602435906001600160e01b0319166108b081336116b2565b156102c857508091809160ff5f516020611b495f395f51905f525416600581101561028a5760010361074657811515908180610a91575b610a68575b6108f46115aa565b5080610a03575b505f516020611a895f395f51905f5254916109255f516020611ae95f395f51905f52548094611422565b916109d0575b50505061095160405161093d81611474565b4281528260208201528360408201526114ef565b7f243f8b521882d823492f47c974aec93c6b1f81e3f30a1eb6a6d18bd2fecf975b5f516020611a895f395f51905f5254925f516020611ae95f395f51905f52549261099f6103818587611422565b0390a11015806109ba575b6109b057005b6109b8611703565b005b505f516020611be95f395f51905f5254156109aa565b81106109f9575b50816109e2916114e2565b5f516020611ae95f395f51905f52555f808061092b565b91506109e26109d7565b5f516020611be95f395f51905f5254809111610a60575b84610a2491611422565b5f516020611be95f395f51905f5255610a4b845f516020611b695f395f51905f52546114e2565b5f516020611b695f395f51905f52555f6108fb565b935083610a1a565b60ff5f516020611a695f395f51905f525460a81c166108ec575b634941182960e11b5f5260045ffd5b505f516020611ac95f395f51905f525442106108e7565b346102de575f3660031901126102de57602060405160018152f35b346102de575f3660031901126102de576020610add6115aa565b604051908152f35b50346102de5760203660031901126102de57600435908115158092036102de576001600160e01b031916610b1981336116b2565b156102c8575060ff80195f516020611b095f395f51905f5254169116175f516020611b095f395f51905f52555f80f35b346102de575f3660031901126102de575f516020611ac95f395f51905f5254421180610b7d575b6020906040519015158152f35b5060ff5f516020611b495f395f51905f525416600581101561028a57600114610b70565b50346102de5760203660031901126102de57600435906001600160e01b031916610bcb81336116b2565b156102c8575060ff5f516020611b295f395f51905f525416156102b95760ff5f516020611b495f395f51905f525416600581101561028a57610d6a575f516020611b495f395f51905f52805460ff19166001908117909155427f28070caa5da8d2fbbc8565c043b49879372bb986b41df49672f0c2cc6500e27c8190555f516020611ba95f395f51905f52557f28070caa5da8d2fbbc8565c043b49879372bb986b41df49672f0c2cc6500e2848290555f516020611bc95f395f51905f52545f8290527f38161cf2d4daf9803f126964f550a85421890f655ba069802277664ece3c33676020527fef543b2ab808402e96a46efec7665139645be18ed57f9b09a5804a02a8dfd27280546001600160a01b0319166001600160a01b03929092169182179055610cf990611572565b557f46d2078352fb26fab70ee21533a0afc7410fce54a5a9f19c4f9a246eb48a30ec602060018060a01b035f516020611bc95f395f51905f52541692835f7fddf252ad1be2c89b69c2b068fc378daa952ba7f163c4a11628f55a4df523b3ef8460405160018152a3604051908152a2005b63c07fd67b60e01b5f5260045ffd5b50346102de575f3660031901126102de576001600160e01b031916610d9e81336116b2565b156102c85760ff5f516020611b495f395f51905f525416600581101561028a57600103610746575f516020611ac95f395f51905f5254421080610f2b575b610a8257610de86115aa565b505f5f516020611ac95f395f51905f5254421080610f0d575b610eb8575b6109b0905f516020611a895f395f51905f5254610e7a610e66610e375f516020611ae95f395f51905f525484611422565b935f516020611be95f395f51905f5254610e5182826114e2565b945f516020611ae95f395f51905f52556114e2565b5f516020611b695f395f51905f52546114e2565b5f516020611b695f395f51905f52555f5f516020611be95f395f51905f525560405191610ea683611474565b428352602083015260408201526114ef565b506109b0612710610f05610ee95f516020611a895f395f51905f52545f516020611ae95f395f51905f525490611422565b61ffff5f516020611a695f395f51905f525460b01c16906114cf565b049050610e06565b5061ffff5f516020611a695f395f51905f525460b01c161515610e01565b5060ff5f516020611a695f395f51905f525460a81c1615610ddc565b346102de575f3660031901126102de576040805163b534e55760e01b602082019081526303bbe54360e01b602483015263a6afed9560e01b60288301526359db6e8560e01b602c830152630ea8a1af60e41b603083015263385e25cf60e21b60348301526303fa731f60e21b6038830152636f9d623b60e11b603c80840191909152636ab5e8a160e11b83850152632382c8e560e21b6044840152632121dc7560e01b60488401526334e43e5d60e21b604c840152630dd5412360e41b6050840152633fac68d560e01b6054840152639cd2370760e01b605884015282529190611032605c826114ad565b8151928391602083525180918160208501528484015e5f828201840152601f01601f19168101030190f35b346102de575f3660031901126102de57602060ff5f516020611b095f395f51905f5254166040519015158152f35b346102de575f3660031901126102de576020610add61142f565b346102de576101603660031901126102de576004356001600160a01b038116908190036102de576024356001600160a01b038116908181036102de576044356001600160a01b03811693908490036102de576101003660631901126102de575f516020611b295f395f51905f52549160ff83166114025781156113f35783156113f35784156113f3576064359081156113e45761271061ffff611146611411565b16116113d55760a43593428511156113c6576001600160a81b03191660089190911b610100600160a81b0316176001175f516020611b295f395f51905f52555f516020611bc95f395f51905f5280546001600160a01b031916861790555f516020611a895f395f51905f5281905561ffff6111bf611411565b1661ffff195f516020611aa95f395f51905f525416175f516020611aa95f395f51905f5255825f516020611ac95f395f51905f525560c43560048110156102de5760ff80195f516020611a695f395f51905f5254169116175f516020611a695f395f51905f525560e43560018060a01b03811681036102de575f516020611a695f395f51905f528054610100600160a81b03191660089290921b610100600160a81b03169190911790556101043580151593908490036102de575f516020611a695f395f51905f525492610124359061ffff821682036102de577fbf18d4605127ec23543b75772ee468e24bae893221940f8f3885fc526b03517e95606095835f945061ffff60b01b9060b01b169160ff60a81b9060a81b169062ffffff60a81b191617175f516020611a695f395f51905f5255610144357f28070caa5da8d2fbbc8565c043b49879372bb986b41df49672f0c2cc6500e27b5560ff195f516020611b495f395f51905f5254165f516020611b495f395f51905f525560ff195f516020611b095f395f51905f5254165f516020611b095f395f51905f52558082525f516020611a495f395f51905f5260205260408220600181541790557f4c9bdd0c8e073eb5eda2250b18d8e5121ff27b62064fbeeeed4869bb99bc5bf2602060405160018152a361ffff6113b2611411565b6040519384521660208301526040820152a3005b63e61b2ceb60e01b5f5260045ffd5b633fc4c2a960e21b5f5260045ffd5b635f8e894960e11b5f5260045ffd5b6301070d2f60e61b5f5260045ffd5b63f0d141c160e01b5f5260045ffd5b60843561ffff811681036102de5790565b9190820391821161073257565b620151805f516020611ac95f395f51905f52548042101561145957611455904290611422565b0490565b6114639042611422565b04600160ff1b8114610732575f0390565b6060810190811067ffffffffffffffff82111761086e57604052565b610100810190811067ffffffffffffffff82111761086e57604052565b90601f8019910116810190811067ffffffffffffffff82111761086e57604052565b8181029291811591840414171561073257565b9190820180921161073257565b5f516020611b895f395f51905f52546801000000000000000081101561086e5760018101805f516020611b895f395f51905f525581101561155e5760406002915f516020611b895f395f51905f525f52600360205f209102019280518455602081015160018501550151910155565b634e487b7160e01b5f52603260045260245ffd5b6001600160a01b03165f9081527f38161cf2d4daf9803f126964f550a85421890f655ba069802277664ece3c33686020526040902090565b60ff5f516020611b495f395f51905f525416600581101561028a576001036116ae576115e45f516020611ba95f395f51905f525442611422565b80156116a95761163764496cebb8009161035961161e5f516020611a895f395f51905f52545f516020611ae95f395f51905f525490611422565b61ffff5f516020611aa95f395f51905f525416906114cf565b04908161164057565b7f3d8708181c6452c5711a2b4c6ed3f12149f6ea35f78549aba00a89d041e766ca604061167b845f516020611be95f395f51905f52546114e2565b805f516020611be95f395f51905f5255425f516020611ba95f395f51905f52558151908582526020820152a1565b505f90565b5f90565b816116bc9161184c565b6116fd577f511915e52b7f9e690b9fdc662acaf5600fd3722c87eb951d3abd26e93a784dca5c9060ff82166116f15750505f90565b6116fa916119f3565b90565b50600190565b5f516020611b495f395f51905f52805460ff19166002179055427f28070caa5da8d2fbbc8565c043b49879372bb986b41df49672f0c2cc6500e2835560015f9081527f38161cf2d4daf9803f126964f550a85421890f655ba069802277664ece3c33676020527fef543b2ab808402e96a46efec7665139645be18ed57f9b09a5804a02a8dfd27280546001600160a01b03191690555f516020611bc95f395f51905f52546117b9906001600160a01b0316611572565b5560018060a01b035f516020611bc95f395f51905f5254165f817fddf252ad1be2c89b69c2b068fc378daa952ba7f163c4a11628f55a4df523b3ef602060405160018152a37f33e2bb53b224f875d1f4628038f5eb162cf4e220a850174de0aa637e1c4ebda760405f516020611ae95f395f51905f52545f516020611b695f395f51905f525482519182526020820152a2565b7fce1c17acaaa67de66e928cd49c8f658667a825223bee6fda99a14908362bcdac546001600160a01b031680611948575b5060018060a01b0381165f525f516020611a495f395f51905f5260205260405f20549163ffffffff60e01b165f527fce1c17acaaa67de66e928cd49c8f658667a825223bee6fda99a14908362bcdab60205260405f2054908115611917576001600160a01b03165f9081525f516020611a495f395f51905f526020526040902054600116151591821561190f57505090565b161515919050565b6001600160a01b03165f9081525f516020611a495f395f51905f526020526040902054600116151591506116fa9050565b6040805163b700961360e01b81526001600160a01b03841660048201523060248201526001600160e01b03198516604482015291829060649082905afa5f91816119a4575b501561187d5761199d575f61187d565b5050600190565b9091506040813d6040116119eb575b816119c0604093836114ad565b810103126102de5780519081151582036102de576020015163ffffffff8116036102de57905f61198d565b3d91506119b3565b60ff1690811561199d5763ffffffff60e01b165f527fce1c17acaaa67de66e928cd49c8f658667a825223bee6fda99a14908362bcdab60205260405f2054908115611a42576001901b16151590565b50505f9056fece1c17acaaa67de66e928cd49c8f658667a825223bee6fda99a14908362bcdaa28070caa5da8d2fbbc8565c043b49879372bb986b41df49672f0c2cc6500e27a28070caa5da8d2fbbc8565c043b49879372bb986b41df49672f0c2cc6500e27728070caa5da8d2fbbc8565c043b49879372bb986b41df49672f0c2cc6500e27828070caa5da8d2fbbc8565c043b49879372bb986b41df49672f0c2cc6500e27928070caa5da8d2fbbc8565c043b49879372bb986b41df49672f0c2cc6500e27f28070caa5da8d2fbbc8565c043b49879372bb986b41df49672f0c2cc6500e28528070caa5da8d2fbbc8565c043b49879372bb986b41df49672f0c2cc6500e27528070caa5da8d2fbbc8565c043b49879372bb986b41df49672f0c2cc6500e28228070caa5da8d2fbbc8565c043b49879372bb986b41df49672f0c2cc6500e28028070caa5da8d2fbbc8565c043b49879372bb986b41df49672f0c2cc6500e28128070caa5da8d2fbbc8565c043b49879372bb986b41df49672f0c2cc6500e27e28070caa5da8d2fbbc8565c043b49879372bb986b41df49672f0c2cc6500e27628070caa5da8d2fbbc8565c043b49879372bb986b41df49672f0c2cc6500e27da264697066735822122013b86d9ac0ac6ffe2694355b0fbce2f1b25b64371b06a935b688dd77639ba66c64736f6c634300081e0033","linkReferences":{}},"methodIdentifiers":{"NOTE_TOKEN_ID()":"b534e557","TokenNote_init(address,address,address,(uint256,uint16,uint256,uint8,address,bool,uint16,uint256))":"03bbe543","accrueInterest()":"a6afed95","activate(bytes32)":"59db6e85","cancel()":"ea8a1af0","getBalanceDue()":"e178973c","getDaysUntilMaturity()":"0fe9cc7c","getNote()":"df3ac476","getPayments()":"d56bd142","isPastMaturity()":"8e0b2394","isTransferable()":"2121dc75","makePayment(uint256,uint256)":"d390f974","markDefaulted()":"dd541230","packedSelectors()":"3e62267c","payOff()":"3fac68d5","setTransferable(bool)":"9cd23707"},"id":259}