{"abi":[{"type":"function","name":"Token409A_init","inputs":[{"name":"admin","type":"address","internalType":"address"}],"outputs":[],"stateMutability":"nonpayable"},{"type":"function","name":"get409APriceAt","inputs":[{"name":"timestamp","type":"uint256","internalType":"uint256"}],"outputs":[{"name":"pricePerShare","type":"uint256","internalType":"uint256"}],"stateMutability":"view"},{"type":"function","name":"get409AValuation","inputs":[{"name":"valuationId","type":"uint256","internalType":"uint256"}],"outputs":[{"name":"valuation","type":"tuple","internalType":"struct IToken409A.Valuation409A","components":[{"name":"pricePerShare","type":"uint256","internalType":"uint256"},{"name":"effectiveDate","type":"uint256","internalType":"uint256"},{"name":"expirationDate","type":"uint256","internalType":"uint256"},{"name":"reportHash","type":"bytes32","internalType":"bytes32"},{"name":"valuationFirm","type":"address","internalType":"address"},{"name":"recordedAt","type":"uint256","internalType":"uint256"},{"name":"recordedBy","type":"address","internalType":"address"}]}],"stateMutability":"view"},{"type":"function","name":"get409AValuationHistory","inputs":[],"outputs":[{"name":"valuations","type":"tuple[]","internalType":"struct IToken409A.Valuation409A[]","components":[{"name":"pricePerShare","type":"uint256","internalType":"uint256"},{"name":"effectiveDate","type":"uint256","internalType":"uint256"},{"name":"expirationDate","type":"uint256","internalType":"uint256"},{"name":"reportHash","type":"bytes32","internalType":"bytes32"},{"name":"valuationFirm","type":"address","internalType":"address"},{"name":"recordedAt","type":"uint256","internalType":"uint256"},{"name":"recordedBy","type":"address","internalType":"address"}]}],"stateMutability":"view"},{"type":"function","name":"getCurrent409APrice","inputs":[],"outputs":[{"name":"pricePerShare","type":"uint256","internalType":"uint256"}],"stateMutability":"view"},{"type":"function","name":"getCurrent409AValuation","inputs":[],"outputs":[{"name":"valuation","type":"tuple","internalType":"struct IToken409A.Valuation409A","components":[{"name":"pricePerShare","type":"uint256","internalType":"uint256"},{"name":"effectiveDate","type":"uint256","internalType":"uint256"},{"name":"expirationDate","type":"uint256","internalType":"uint256"},{"name":"reportHash","type":"bytes32","internalType":"bytes32"},{"name":"valuationFirm","type":"address","internalType":"address"},{"name":"recordedAt","type":"uint256","internalType":"uint256"},{"name":"recordedBy","type":"address","internalType":"address"}]}],"stateMutability":"view"},{"type":"function","name":"hasValid409AValuation","inputs":[],"outputs":[{"name":"hasValid","type":"bool","internalType":"bool"}],"stateMutability":"view"},{"type":"function","name":"invalidate409AValuation","inputs":[{"name":"valuationId","type":"uint256","internalType":"uint256"},{"name":"reason","type":"string","internalType":"string"}],"outputs":[],"stateMutability":"nonpayable"},{"type":"function","name":"packedSelectors","inputs":[],"outputs":[{"name":"","type":"bytes","internalType":"bytes"}],"stateMutability":"pure"},{"type":"function","name":"record409AValuation","inputs":[{"name":"pricePerShare","type":"uint256","internalType":"uint256"},{"name":"effectiveDate","type":"uint256","internalType":"uint256"},{"name":"expirationDate","type":"uint256","internalType":"uint256"},{"name":"reportHash","type":"bytes32","internalType":"bytes32"},{"name":"valuationFirm","type":"address","internalType":"address"}],"outputs":[{"name":"valuationId","type":"uint256","internalType":"uint256"}],"stateMutability":"nonpayable"},{"type":"function","name":"validate409ACompliance","inputs":[{"name":"strikePrice","type":"uint256","internalType":"uint256"}],"outputs":[{"name":"isValid","type":"bool","internalType":"bool"}],"stateMutability":"view"},{"type":"event","name":"UserRoleUpdated","inputs":[{"name":"user","type":"address","indexed":true,"internalType":"address"},{"name":"role","type":"uint8","indexed":true,"internalType":"uint8"},{"name":"enabled","type":"bool","indexed":false,"internalType":"bool"}],"anonymous":false},{"type":"event","name":"Valuation409AInvalidated","inputs":[{"name":"valuationId","type":"uint256","indexed":true,"internalType":"uint256"},{"name":"reason","type":"string","indexed":false,"internalType":"string"}],"anonymous":false},{"type":"event","name":"Valuation409ARecorded","inputs":[{"name":"valuationId","type":"uint256","indexed":true,"internalType":"uint256"},{"name":"pricePerShare","type":"uint256","indexed":false,"internalType":"uint256"},{"name":"effectiveDate","type":"uint256","indexed":false,"internalType":"uint256"},{"name":"expirationDate","type":"uint256","indexed":false,"internalType":"uint256"},{"name":"reportHash","type":"bytes32","indexed":false,"internalType":"bytes32"},{"name":"valuationFirm","type":"address","indexed":true,"internalType":"address"}],"anonymous":false},{"type":"error","name":"AccessControl_CallerIsNotAuthorized","inputs":[{"name":"caller","type":"address","internalType":"address"},{"name":"functionSig","type":"bytes4","internalType":"bytes4"}]},{"type":"error","name":"Valuation409A_Expired","inputs":[]},{"type":"error","name":"Valuation409A_InvalidEffectiveDate","inputs":[]},{"type":"error","name":"Valuation409A_InvalidExpirationDate","inputs":[]},{"type":"error","name":"Valuation409A_InvalidPrice","inputs":[]},{"type":"error","name":"Valuation409A_NoValidValuation","inputs":[]},{"type":"error","name":"Valuation409A_NotFound","inputs":[]},{"type":"error","name":"Valuation409A_StrikeBelowFMV","inputs":[]}],"bytecode":{"object":"0x60808060405234601557610e28908161001a8239f35b5f80fdfe60806040526004361015610011575f80fd5b5f358060e01c9081630a9d9f7a1461069657816339046d7e146104cf575080633e62267c146103fa57806364c2b102146102f357806378fe680b146102a357806382bfe0b014610285578063859dcc78146102615780639318d7b11461018e578063a5e98a601461012c578063c96bb9e9146100bf5763f6ba09f614610095575f80fd5b346100bb5760203660031901126100bb5760206100b3600435610abc565b604051908152f35b5f80fd5b346100bb575f3660031901126100bb576100d7610a04565b505f516020610d935f395f51905f52541561011d5760e061010e6101085f516020610dd35f395f51905f525461095e565b506109a6565b61011b60405180926108ce565bf35b63ba8b1a0960e01b5f5260045ffd5b346100bb575f3660031901126100bb575f516020610d935f395f51905f52541561011d576101675f516020610dd35f395f51905f525461095e565b506002810154421161017f5760209054604051908152f35b6368829c2960e01b5f5260045ffd5b346100bb5760203660031901126100bb576004356001600160a01b0381168082036100bb577f6606315232c1e92fdf8bd259b20740d5cde0b700be82caaabc713e064f967b115460ff811661011d5760ff19166001177f6606315232c1e92fdf8bd259b20740d5cde0b700be82caaabc713e064f967b11556001600160a01b039091165f9081525f516020610db35f395f51905f5260205260408120909190600181541790557f4c9bdd0c8e073eb5eda2250b18d8e5121ff27b62064fbeeeed4869bb99bc5bf2602060405160018152a3005b346100bb575f3660031901126100bb57602061027b610a82565b6040519015158152f35b346100bb5760203660031901126100bb57602061027b600435610a3a565b346100bb5760203660031901126100bb576004356102bf610a04565b505f516020610d935f395f51905f52548110156102e45761010e61010860e09261095e565b631dc7e2f960e11b5f5260045ffd5b346100bb575f3660031901126100bb575f516020610d935f395f51905f525467ffffffffffffffff81116103e6576040519061033560208260051b018361093c565b8082526020820190815f516020610d935f395f51905f525f527f37cd8b04ab001411c409ae45cd7168e59f06270f2a6bf6a2682fa9f0fdc43c395f915b8383106103c8578486604051918291602083019060208452518091526040830191905f5b8181106103a4575050500390f35b91935091602060e0826103ba60019488516108ce565b019401910191849392610396565b600760206001926103d8856109a6565b815201920192019190610372565b634e487b7160e01b5f52604160045260245ffd5b346100bb575f3660031901126100bb5760408051639318d7b160e01b60208201908152637b5d04fb60e11b60248301526378fe680b60e01b602880840191909152633261588160e11b602c84015263052f4c5360e51b603084015263c96bb9e960e01b60348401526310b3b98f60e31b6038840152631c8236bf60e11b603c84015263054ecfbd60e11b8385015263082bfe0b60e41b6044840152825291906104a460488261093c565b8151928391602083525180918160208501528484015e5f828201840152601f01601f19168101030190f35b346100bb5760403660031901126100bb57600435906024359067ffffffffffffffff82116100bb57366023830112156100bb5781600401359067ffffffffffffffff82116100bb5736602483850101116100bb576001600160e01b0319166105378133610b48565b1561068057505f516020610d935f395f51905f52548310156102e45761055c8361095e565b506002429101555f516020610dd35f395f51905f525483146105cb575b60407fc28c6139faabc5fb067fa1cefccb758f684d5ca205f97dace1eec4c5a96111ea928260249383519485936020855282602086015201848401375f828201840152601f01601f19168101030190a2005b5f516020610d935f395f51905f52545f90819081805b82811061063957505050926024926040927fc28c6139faabc5fb067fa1cefccb758f684d5ca205f97dace1eec4c5a96111ea95610624575b509250925050610579565b5f516020610dd35f395f51905f525586610619565b6106428161095e565b50600281015442111580610673575b61065f575b506001016105e1565b600190810154919550935090508383610656565b5082600182015411610651565b631d64bc3360e11b5f523360045260245260445ffd5b346100bb5760a03660031901126100bb5760043560243591604435606435936084359260018060a01b0384168094036100bb576001600160e01b0319166106dd8133610b48565b15610680575083156108bf574281116108b057808211156108a15760405161070481610920565b848152602081019082825260408101848152606082018881526080830187815260a084019142835260c08501933385525f516020610d935f395f51905f5254680100000000000000008110156103e65780600161077092015f516020610d935f395f51905f525561095e565b97909761088e579551875594516001870155935160028601559251600385015591516004840180546001600160a01b03199081166001600160a01b0393841617909155925160058501559051600693909301805490921692169190911790555f516020610d935f395f51905f52545f1981019481861161087a5760209686947f1ff0bf88ea620768390df292bf9c852358b51fda7392ae54fa088398b216d537946001608095148015610855575b610840575b6040519384528984015260408301526060820152a3604051908152f35b865f516020610dd35f395f51905f5255610823565b50600161086f5f516020610dd35f395f51905f525461095e565b50015481101561081e565b634e487b7160e01b5f52601160045260245ffd5b634e487b7160e01b5f525f60045260245ffd5b63786b349160e01b5f5260045ffd5b6368b4432b60e01b5f5260045ffd5b6380f0de5360e01b5f5260045ffd5b60c0908051835260208101516020840152604081015160408401526060810151606084015260018060a01b03608082015116608084015260a081015160a08401528160018060a01b0391015116910152565b60e0810190811067ffffffffffffffff8211176103e657604052565b90601f8019910116810190811067ffffffffffffffff8211176103e657604052565b5f516020610d935f395f51905f5254811015610992575f516020610d935f395f51905f525f52600760205f20910201905f90565b634e487b7160e01b5f52603260045260245ffd5b906040516109b381610920565b8254815260018301546020820152600283015460408201526003830154606082015260048301546001600160a01b039081166080830152600584015460a083015260069093015490921660c0830152565b60405190610a1182610920565b5f60c0838281528260208201528260408201528260608201528260808201528260a08201520152565b5f516020610d935f395f51905f525415610a7d57610a655f516020610dd35f395f51905f525461095e565b5060028101544211610a775754111590565b50505f90565b505f90565b5f516020610d935f395f51905f525415610ab8576002610aaf5f516020610dd35f395f51905f525461095e565b50015442111590565b5f90565b5f516020610d935f395f51905f52545f19915f805b838110610af257505050505f198114610a7d57610aed9061095e565b505490565b610afb8161095e565b5060018101549084808311159182610b3a575b505080610b31575b610b24575b50600101610ad1565b9094509050836001610b1b565b50828111610b16565b60020154119050845f610b0e565b81610b5291610b99565b610b93577f511915e52b7f9e690b9fdc662acaf5600fd3722c87eb951d3abd26e93a784dca5c9060ff8216610b875750505f90565b610b9091610d43565b90565b50600190565b7fce1c17acaaa67de66e928cd49c8f658667a825223bee6fda99a14908362bcdac546001600160a01b031680610c98575b506001600160a01b0381165f9081525f516020610db35f395f51905f5260205260409020549163ffffffff60e01b165f527fce1c17acaaa67de66e928cd49c8f658667a825223bee6fda99a14908362bcdab60205260405f2054908115610c67576001600160a01b03165f9081525f516020610db35f395f51905f5260205260409020546001161515918215610c5f57505090565b161515919050565b6001600160a01b03165f9081525f516020610db35f395f51905f52602052604090205460011615159150610b909050565b6040805163b700961360e01b81526001600160a01b03841660048201523060248201526001600160e01b03198516604482015291829060649082905afa5f9181610cf4575b5015610bca57610ced575f610bca565b5050600190565b9091506040813d604011610d3b575b81610d106040938361093c565b810103126100bb5780519081151582036100bb576020015163ffffffff8116036100bb57905f610cdd565b3d9150610d03565b60ff16908115610ced5763ffffffff60e01b165f527fce1c17acaaa67de66e928cd49c8f658667a825223bee6fda99a14908362bcdab60205260405f2054908115610a77576001901b1615159056fe6606315232c1e92fdf8bd259b20740d5cde0b700be82caaabc713e064f967b0fce1c17acaaa67de66e928cd49c8f658667a825223bee6fda99a14908362bcdaa6606315232c1e92fdf8bd259b20740d5cde0b700be82caaabc713e064f967b10a2646970667358221220f6e313d8ef0d8f61f44f840175981d3fdb082d353bd92c4be14143cc08784cf764736f6c634300081e0033","linkReferences":{}},"methodIdentifiers":{"Token409A_init(address)":"9318d7b1","get409APriceAt(uint256)":"f6ba09f6","get409AValuation(uint256)":"78fe680b","get409AValuationHistory()":"64c2b102","getCurrent409APrice()":"a5e98a60","getCurrent409AValuation()":"c96bb9e9","hasValid409AValuation()":"859dcc78","invalidate409AValuation(uint256,string)":"39046d7e","packedSelectors()":"3e62267c","record409AValuation(uint256,uint256,uint256,bytes32,address)":"0a9d9f7a","validate409ACompliance(uint256)":"82bfe0b0"},"id":245}