{"abi":[{"type":"function","name":"adjustBalance","inputs":[{"name":"account","type":"address","internalType":"address"},{"name":"quantityDelta","type":"int256","internalType":"int256"},{"name":"costBasis","type":"uint256","internalType":"uint256"},{"name":"reason","type":"string","internalType":"string"}],"outputs":[],"stateMutability":"nonpayable"},{"type":"function","name":"adjustLot","inputs":[{"name":"params","type":"tuple","internalType":"struct ITokenLotsBase.AdjustLotParams","components":[{"name":"oldLotId","type":"bytes32","internalType":"bytes32"},{"name":"newQuantity","type":"uint256","internalType":"uint256"},{"name":"newCostBasis","type":"uint256","internalType":"uint256"},{"name":"newPaymentCurrency","type":"address","internalType":"address"},{"name":"newAcquisitionDate","type":"uint256","internalType":"uint256"},{"name":"newUri","type":"string","internalType":"string"},{"name":"newData","type":"bytes","internalType":"bytes"},{"name":"reason","type":"string","internalType":"string"},{"name":"customId","type":"uint256","internalType":"uint256"}]}],"outputs":[{"name":"newLotId","type":"bytes32","internalType":"bytes32"}],"stateMutability":"nonpayable"},{"type":"function","name":"createLot","inputs":[{"name":"to","type":"address","internalType":"address"},{"name":"amount","type":"uint256","internalType":"uint256"},{"name":"paymentCurrency","type":"address","internalType":"address"},{"name":"costBasis","type":"uint256","internalType":"uint256"},{"name":"acquisitionDate","type":"uint256","internalType":"uint256"},{"name":"uri","type":"string","internalType":"string"},{"name":"data","type":"bytes","internalType":"bytes"},{"name":"customId","type":"uint256","internalType":"uint256"}],"outputs":[{"name":"lotId","type":"bytes32","internalType":"bytes32"},{"name":"assignedCustomId","type":"uint256","internalType":"uint256"}],"stateMutability":"nonpayable"},{"type":"function","name":"customIdToLotId","inputs":[{"name":"customId","type":"uint256","internalType":"uint256"}],"outputs":[{"name":"","type":"bytes32","internalType":"bytes32"}],"stateMutability":"view"},{"type":"function","name":"getLot","inputs":[{"name":"lotId","type":"bytes32","internalType":"bytes32"}],"outputs":[{"name":"parentLotId","type":"bytes32","internalType":"bytes32"},{"name":"isValid","type":"bool","internalType":"bool"},{"name":"quantity","type":"uint256","internalType":"uint256"},{"name":"paymentCurrency","type":"address","internalType":"address"},{"name":"costBasis","type":"uint256","internalType":"uint256"},{"name":"acquisitionDate","type":"uint256","internalType":"uint256"},{"name":"lastUpdate","type":"uint256","internalType":"uint256"},{"name":"tType","type":"uint8","internalType":"enum IToken.TransferType"},{"name":"uri","type":"string","internalType":"string"},{"name":"data","type":"bytes","internalType":"bytes"}],"stateMutability":"view"},{"type":"function","name":"getLotsOf","inputs":[{"name":"account","type":"address","internalType":"address"}],"outputs":[{"name":"","type":"bytes32[]","internalType":"bytes32[]"}],"stateMutability":"view"},{"type":"function","name":"getTaxStrategy","inputs":[{"name":"user","type":"address","internalType":"address"}],"outputs":[{"name":"","type":"uint8","internalType":"uint8"}],"stateMutability":"view"},{"type":"function","name":"invalidateLot","inputs":[{"name":"lotId","type":"bytes32","internalType":"bytes32"}],"outputs":[],"stateMutability":"nonpayable"},{"type":"function","name":"isApprovedOrOwner","inputs":[{"name":"lotId","type":"bytes32","internalType":"bytes32"},{"name":"operator","type":"address","internalType":"address"}],"outputs":[{"name":"","type":"bool","internalType":"bool"}],"stateMutability":"view"},{"type":"function","name":"lotExists","inputs":[{"name":"lotId","type":"bytes32","internalType":"bytes32"}],"outputs":[{"name":"","type":"bool","internalType":"bool"}],"stateMutability":"view"},{"type":"function","name":"lotIdToCustomId","inputs":[{"name":"lotId","type":"bytes32","internalType":"bytes32"}],"outputs":[{"name":"","type":"uint256","internalType":"uint256"}],"stateMutability":"view"},{"type":"function","name":"nextCustomId","inputs":[],"outputs":[{"name":"","type":"uint256","internalType":"uint256"}],"stateMutability":"view"},{"type":"function","name":"selectLotsForAmount","inputs":[{"name":"user","type":"address","internalType":"address"},{"name":"amount","type":"uint256","internalType":"uint256"}],"outputs":[{"name":"selectedLots","type":"bytes32[]","internalType":"bytes32[]"},{"name":"quantities","type":"uint256[]","internalType":"uint256[]"}],"stateMutability":"view"},{"type":"function","name":"setLotApproval","inputs":[{"name":"lotId","type":"bytes32","internalType":"bytes32"},{"name":"operator","type":"address","internalType":"address"},{"name":"amount","type":"uint256","internalType":"uint256"}],"outputs":[],"stateMutability":"nonpayable"},{"type":"function","name":"setOperatorApproval","inputs":[{"name":"operator","type":"address","internalType":"address"},{"name":"approved","type":"bool","internalType":"bool"}],"outputs":[],"stateMutability":"nonpayable"},{"type":"function","name":"setTaxStrategy","inputs":[{"name":"strategy","type":"uint8","internalType":"uint8"}],"outputs":[],"stateMutability":"nonpayable"},{"type":"function","name":"updateCustomId","inputs":[{"name":"lotId","type":"bytes32","internalType":"bytes32"},{"name":"newCustomId","type":"uint256","internalType":"uint256"}],"outputs":[],"stateMutability":"nonpayable"},{"type":"event","name":"BalanceAdjusted","inputs":[{"name":"account","type":"address","indexed":true,"internalType":"address"},{"name":"quantityDelta","type":"int256","indexed":false,"internalType":"int256"},{"name":"reason","type":"string","indexed":false,"internalType":"string"}],"anonymous":false},{"type":"event","name":"CustomIdUpdated","inputs":[{"name":"lotId","type":"bytes32","indexed":true,"internalType":"bytes32"},{"name":"oldCustomId","type":"uint256","indexed":false,"internalType":"uint256"},{"name":"newCustomId","type":"uint256","indexed":false,"internalType":"uint256"}],"anonymous":false},{"type":"event","name":"Initialized","inputs":[{"name":"version","type":"uint64","indexed":false,"internalType":"uint64"}],"anonymous":false},{"type":"event","name":"LotAdjusted","inputs":[{"name":"oldLotId","type":"bytes32","indexed":true,"internalType":"bytes32"},{"name":"newLotId","type":"bytes32","indexed":true,"internalType":"bytes32"},{"name":"operator","type":"address","indexed":true,"internalType":"address"},{"name":"owner","type":"address","indexed":false,"internalType":"address"},{"name":"newQuantity","type":"uint256","indexed":false,"internalType":"uint256"},{"name":"newCostBasis","type":"uint256","indexed":false,"internalType":"uint256"},{"name":"paymentCurrency","type":"address","indexed":false,"internalType":"address"},{"name":"acquisitionDate","type":"uint256","indexed":false,"internalType":"uint256"},{"name":"uri","type":"string","indexed":false,"internalType":"string"},{"name":"data","type":"bytes","indexed":false,"internalType":"bytes"},{"name":"reason","type":"string","indexed":false,"internalType":"string"},{"name":"tType","type":"uint8","indexed":false,"internalType":"enum IToken.TransferType"},{"name":"adjustedCostBasis","type":"uint256","indexed":false,"internalType":"uint256"}],"anonymous":false},{"type":"event","name":"LotApproval","inputs":[{"name":"lotId","type":"bytes32","indexed":true,"internalType":"bytes32"},{"name":"operator","type":"address","indexed":true,"internalType":"address"},{"name":"amount","type":"uint256","indexed":false,"internalType":"uint256"}],"anonymous":false},{"type":"event","name":"LotCreated","inputs":[{"name":"to","type":"address","indexed":true,"internalType":"address"},{"name":"lotId","type":"bytes32","indexed":true,"internalType":"bytes32"},{"name":"customId","type":"uint256","indexed":true,"internalType":"uint256"},{"name":"quantity","type":"uint256","indexed":false,"internalType":"uint256"},{"name":"rawQuantity","type":"uint256","indexed":false,"internalType":"uint256"},{"name":"paymentCurrency","type":"address","indexed":false,"internalType":"address"},{"name":"costBasis","type":"uint256","indexed":false,"internalType":"uint256"},{"name":"acquisitionDate","type":"uint256","indexed":false,"internalType":"uint256"},{"name":"uri","type":"string","indexed":false,"internalType":"string"},{"name":"data","type":"bytes","indexed":false,"internalType":"bytes"},{"name":"tType","type":"uint8","indexed":false,"internalType":"enum IToken.TransferType"}],"anonymous":false},{"type":"event","name":"LotInvalidated","inputs":[{"name":"lotId","type":"bytes32","indexed":true,"internalType":"bytes32"}],"anonymous":false},{"type":"event","name":"OperatorApproval","inputs":[{"name":"owner","type":"address","indexed":true,"internalType":"address"},{"name":"operator","type":"address","indexed":true,"internalType":"address"},{"name":"approved","type":"bool","indexed":false,"internalType":"bool"}],"anonymous":false},{"type":"event","name":"TaxStrategyUpdated","inputs":[{"name":"user","type":"address","indexed":true,"internalType":"address"},{"name":"strategy","type":"uint8","indexed":false,"internalType":"uint8"}],"anonymous":false},{"type":"error","name":"CallerIsNotAuthorized","inputs":[]},{"type":"error","name":"DelegateNotAllowed","inputs":[]},{"type":"error","name":"InvalidInitialization","inputs":[]},{"type":"error","name":"NotInitializing","inputs":[]},{"type":"error","name":"OnlyDelegate","inputs":[]},{"type":"error","name":"ReentrancyGuardReentrantCall","inputs":[]},{"type":"error","name":"TokenLots_CannotApproveSelf","inputs":[]},{"type":"error","name":"TokenLots_CustomIdInUse","inputs":[]},{"type":"error","name":"TokenLots_CustomIdInUseByDifferentLot","inputs":[]},{"type":"error","name":"TokenLots_ExceedsMaxSupply","inputs":[]},{"type":"error","name":"TokenLots_InsufficientBalance","inputs":[]},{"type":"error","name":"TokenLots_InsufficientLotsForAmount","inputs":[]},{"type":"error","name":"TokenLots_InvalidQuantity","inputs":[]},{"type":"error","name":"TokenLots_InvalidRecipient","inputs":[]},{"type":"error","name":"TokenLots_InvalidTaxStrategy","inputs":[]},{"type":"error","name":"TokenLots_LotNotValid","inputs":[]},{"type":"error","name":"TokenLots_NoChange","inputs":[]},{"type":"error","name":"TokenLots_NoValidLots","inputs":[]},{"type":"error","name":"TokenLots_NotAuthorized","inputs":[]}],"bytecode":{"object":"0x60a0806040523460b457306080525f516020612d255f395f51905f525460ff8160401c1660a5576002600160401b03196001600160401b038216016053575b604051612c6c90816100b98239608051815050f35b6001600160401b0319166001600160401b039081175f516020612d255f395f51905f525581527fc7f505b2f371ae2175ee4913f4499e1f2633a7b5936321eed1cdaeb6115181d290602090a15f80603e565b63f92ee8a960e01b5f5260045ffd5b5f80fdfe60806040526004361015610011575f80fd5b5f3560e01c806305424ebe1461012457806306ef50881461011f57806308af629a1461011a5780630d9f38751461011557806314ff3606146101105780631ea47b0f1461010b578063273f023c14610106578063468819bc146101015780635dfe7de2146100fc5780636b8fb8ab146100f75780638ce16f81146100f2578063964e14b7146100ed578063a63a1098146100e8578063cf209d01146100e3578063d01a0fca146100de578063d37caa05146100d95763fd92b355146100d4575f80fd5b610cfe565b610c24565b610b9b565b610b72565b610a99565b610a33565b61093b565b610802565b6107c6565b6106d5565b61069f565b610599565b610563565b6104bd565b61032a565b6101ff565b610185565b6001600160a01b0381160361013a57565b5f80fd5b90602080835192838152019201905f5b81811061015b5750505090565b825184526020938401939092019160010161014e565b90602061018292818152019061013e565b90565b3461013a57602036600319011261013a576101aa6004356101a581610129565b610d32565b6040519081602082549182815201915f5260205f20905f5b8181106101e9576101e5856101d981870382610417565b60405191829182610171565b0390f35b82548452602090930192600192830192016101c2565b3461013a57602036600319011261013a5760043567ffffffffffffffff811161013a57610120600319823603011261013a576040516301ffc9a760e01b8152639f3dfa9560e01b6004820152602081602481305afa908115610306575f9161030b575b50156102c857604051630435f69f60e51b81523360048201526001600160e01b03195f35166024820152602081604481305afa908115610306575f916102d7575b50156102c8576102b86101e5916004016116ca565b6040519081529081906020820190565b632e57521560e01b5f5260045ffd5b6102f9915060203d6020116102ff575b6102f18183610417565b810190610e12565b5f6102a3565b503d6102e7565b610e27565b610324915060203d6020116102ff576102f18183610417565b5f610262565b3461013a57602036600319011261013a576004356040516301ffc9a760e01b8152639f3dfa9560e01b600482015260208180602481010381305afa908115610306575f916103e4575b50156102c857604051630435f69f60e51b81523360048201526001600160e01b03195f35166024820152602081604481305afa908115610306575f916103c5575b50156102c8576103c390611816565b005b6103de915060203d6020116102ff576102f18183610417565b5f6103b4565b6103fd915060203d6020116102ff576102f18183610417565b5f610373565b634e487b7160e01b5f52604160045260245ffd5b90601f8019910116810190811067ffffffffffffffff82111761043957604052565b610403565b6040519061044e61016083610417565b565b67ffffffffffffffff811161043957601f01601f191660200190565b92919261047882610450565b916104866040519384610417565b82948184528183011161013a578281602093845f960137010152565b9080601f8301121561013a578160206101829335910161046c565b3461013a5761010036600319011261013a576004356104db81610129565b604435906024356104eb83610129565b60643560843560a43567ffffffffffffffff811161013a576105119036906004016104a2565b9160c4359567ffffffffffffffff871161013a573660238801121561013a5761054761055197369060248160040135910161046c565b9460e43596610e32565b60408051928352602083019190915290f35b3461013a57602036600319011261013a576004355f525f516020612bb75f395f51905f52602052602060405f2054604051908152f35b3461013a57608036600319011261013a576004356105b681610129565b60443560643567ffffffffffffffff811161013a576105d99036906004016104a2565b6040516301ffc9a760e01b8152639f3dfa9560e01b6004820152909190602081602481305afa908115610306575f91610680575b50156102c857604051630435f69f60e51b81523360048201526001600160e01b03195f35166024820152602081604481305afa908115610306575f91610661575b50156102c8576103c39260243590611301565b61067a915060203d6020116102ff576102f18183610417565b5f61064e565b610699915060203d6020116102ff576102f18183610417565b5f61060d565b3461013a57602036600319011261013a576004355f525f516020612c175f395f51905f52602052602060405f2054604051908152f35b3461013a57606036600319011261013a576024356004356106f582610129565b604435916107033383612110565b15610781575f8281527f2d7b24d472d9aa4c34cc4ef3fd090f348e70e3cd6a815e8284aa4209bb0f233f602090815260408083206001600160a01b038516845282529091207f365d337e4e0a965f2d819e3bfdcc45be94f90b9293b203e74f04fc5bfdf3bb4492908590556040519485526001600160a01b031693a3005b60405162461bcd60e51b815260206004820152601960248201527f546f6b656e4c6f74733a206e6f7420617574686f72697a6564000000000000006044820152606490fd5b3461013a57602036600319011261013a57602060ff6107ef6004356107ea81610129565b610d6a565b54166107fa81610880565b604051908152f35b3461013a57604036600319011261013a5761084261082e60043561082581610129565b60243590611cec565b60405192839260408452604084019061013e565b8281036020840152602080835192838152019201905f5b818110610867575050500390f35b8251845285945060209384019390920191600101610859565b6005111561088a57565b634e487b7160e01b5f52602160045260245ffd5b5f906108a982610880565b52565b805180835260209291819084018484015e5f828201840152601f01601f1916010190565b9895926101829a98959261092c9895928b52151560208b015260408a015260018060a01b03166060890152608088015260a087015260c086015261091381610880565b60e08501526101406101008501526101408401906108ac565b916101208184039101526108ac565b3461013a57602036600319011261013a576004355f525f516020612bd75f395f51905f5260205260405f2060018101545f806040516020810190637d7dff0960e01b825284602482015260248152610994604482610417565b5190305afa6109a1611c10565b9015610a2c576109bb915060208082518301019101611c3f565b905b6101e56109cd60038301546121f0565b928254926006810154946109e18660ff1690565b60028301546004840154600585015492986001600160a01b0390921693909160a81c60ff1693610a1f6008610a1860078901611672565b9701611672565b966040519a8b9a8b6108d0565b50906109bd565b3461013a57602036600319011261013a576004355f525f516020612bd75f395f51905f526020526020600660405f20015460018060a01b038160081c1615159081610a84575b506040519015158152f35b60ff9150165f610a79565b8015150361013a57565b3461013a57604036600319011261013a57600435610ab681610129565b602435610ac281610a8f565b6001600160a01b03821691338314610b6357335f9081527f2d7b24d472d9aa4c34cc4ef3fd090f348e70e3cd6a815e8284aa4209bb0f234060205260409020610b33918391610b2291905b9060018060a01b03165f5260205260405f2090565b9060ff801983541691151516179055565b60405190151581527fb0baad403121a51e86ba59d2d9cb1ecc18c008abaa311a7a5343e556a5030c2160203392a3005b6335bc2cc360e01b5f5260045ffd5b3461013a575f36600319011261013a5760205f516020612b975f395f51905f5254604051908152f35b3461013a57602036600319011261013a5760043560ff811680910361013a5760048111610c1557610bcb81610880565b610bd433610d6a565b610bdd82610880565b8160ff198254161790556040519081527f3b390bd003355e4bbebd3e567aa4f03175a8ea52b96cb987cc6bbc4fdf5b91fa60203392a2005b635f850a2d60e01b5f5260045ffd5b3461013a57604036600319011261013a576004356024356040516301ffc9a760e01b8152639f3dfa9560e01b600482015260208180602481010381305afa908115610306575f91610cdf575b50156102c857604051630435f69f60e51b81523360048201526001600160e01b03195f35166024820152602081604481305afa908115610306575f91610cc0575b50156102c8576103c391612219565b610cd9915060203d6020116102ff576102f18183610417565b5f610cb1565b610cf8915060203d6020116102ff576102f18183610417565b5f610c70565b3461013a57604036600319011261013a576020610d28602435600435610d2382610129565b612110565b6040519015158152f35b6001600160a01b03165f9081527f2d7b24d472d9aa4c34cc4ef3fd090f348e70e3cd6a815e8284aa4209bb0f233b6020526040902090565b6001600160a01b03165f9081527f2d7b24d472d9aa4c34cc4ef3fd090f348e70e3cd6a815e8284aa4209bb0f23416020526040902090565b6001600160a01b03165f9081527f1e4aaaa99f6df78fec1b4ccd91a73db6b79cd07fbf36aaeb793f4fa979f221256020526040902090565b6001600160a01b03165f9081527f1e4aaaa99f6df78fec1b4ccd91a73db6b79cd07fbf36aaeb793f4fa979f221276020526040902090565b9081602091031261013a575161018281610a8f565b6040513d5f823e3d90fd5b6040516301ffc9a760e01b8152639f3dfa9560e01b6004820152909796959493929190602081602481305afa908115610306575f91610edf575b50156102c857604051630435f69f60e51b81523360048201526001600160e01b03195f35166024820152602081604481305afa908115610306575f91610ec0575b50156102c857610ebc97611952565b9091565b610ed9915060203d6020116102ff576102f18183610417565b5f610ead565b610ef8915060203d6020116102ff576102f18183610417565b5f610e6c565b5f525f516020612bd75f395f51905f5260205260405f2090565b5f525f516020612bb75f395f51905f5260205260405f2090565b634e487b7160e01b5f52601160045260245ffd5b600160ff1b8114610f56575f0390565b610f32565b634e487b7160e01b5f52603260045260245ffd5b8051821015610f835760209160051b010190565b610f5b565b5f19810191908211610f5657565b91908203918211610f5657565b5f198114610f565760010190565b9060806101829260408152601b60408201527f41646d696e6973747261746976652061646a7573746d656e743a200000000000606082015281602082015201906108ac565b60405190611005602083610417565b5f8252565b6110135f610880565b805460ff60a81b19169055565b9061102a81610880565b815460ff60a81b191660a89190911b60ff60a81b16179055565b90600182811c92168015611072575b602083101461105e57565b634e487b7160e01b5f52602260045260245ffd5b91607f1691611053565b601f821161108957505050565b5f5260205f20906020601f840160051c830193106110c1575b601f0160051c01905b8181106110b6575050565b5f81556001016110ab565b90915081906110a2565b919091825167ffffffffffffffff8111610439576110f3816110ed8454611044565b8461107c565b6020601f82116001146111325781906111239394955f92611127575b50508160011b915f199060031b1c19161790565b9055565b015190505f8061110f565b601f19821690611145845f5260205f2090565b915f5b81811061117f57509583600195969710611167575b505050811b019055565b01515f1960f88460031b161c191690555f808061115d565b9192602060018192868b015181550194019201611148565b815181556020820151600182015560408201516002820180546001600160a01b0319166001600160a01b0390921691909117905561044e9160089061014090606081015160038501556080810151600485015560a081015160058501556112666006850161121d61120b60c0850151151590565b829060ff801983541691151516179055565b60e0830151611251906001600160a01b03168254610100600160a81b03191660089190911b610100600160a81b0316178255565b6101008301519061126182610880565b611020565b611278610120820151600786016110cb565b015191016110cb565b8054821015610f83575f5260205f2001905f90565b805468010000000000000000811015610439576112b891600182018155611281565b819291549060031b91821b915f19901b1916179055565b9060018201809211610f5657565b91908201809211610f5657565b6040906101829392815281602082015201906108ac565b90929183156115e2575f8413156114cd57906114b07f1888a30f8b0ad0c301c2b2e9e4d138ecc74b8e9415d34b568fd26518e864ab77939261146861134587611c4e565b91611369838660809160405191825260208201524260408201523060608201522090565b906114305f516020612b975f395f51905f52549161139a61138984610fa3565b5f516020612b975f395f51905f5255565b6040516113bc816113ae8c60208301610fb1565b03601f198101835282610417565b6113c461043e565b915f83528760208401525f604084015260608301524260808301524260a08301526113f260c0830160019052565b6001600160a01b03891660e083015261140e610100830161089e565b611416610ff6565b61012083015261014082015261142b84610efe565b611197565b8161143a82610f18565b55611459825f525f516020612c175f395f51905f5260205260405f2090565b5561146385610d32565b611296565b61147183610da2565b61147c8282546112dd565b90556114aa611499825f516020612bf75f395f51905f52546112dd565b5f516020612bf75f395f51905f5255565b826120be565b6114c860405192839260018060a01b031695836112ea565b0390a2565b50926114e06114db84610f46565b611c4e565b92836114eb86610da2565b54106115d3576114fb8486611cec565b9390955f5b875181101561156757806115166001928a610f6f565b5161152b611524838a610f6f565b5191610efe565b83810180549192909181811161155057505050600601805460ff191690555b01611500565b9061155a91610f96565b905560054291015561154a565b5091946115ce919396507f1888a30f8b0ad0c301c2b2e9e4d138ecc74b8e9415d34b568fd26518e864ab7794506114aa906115a184610da2565b6115ac828254610f96565b90556115c9611499825f516020612bf75f395f51905f5254610f96565b610f46565b6114b0565b6322abca7d60e01b5f5260045ffd5b63473b3f1160e01b5f5260045ffd5b5f929181549161160083611044565b8083529260018116908115611655575060011461161c57505050565b5f9081526020812093945091925b83831061163b575060209250010190565b60018160209294939454838587010152019101919061162a565b915050602093945060ff929192191683830152151560051b010190565b9061044e61168692604051938480926115f1565b0383610417565b3561018281610129565b903590601e198136030182121561013a570180359067ffffffffffffffff821161013a5760200191813603831361013a57565b80356116d581610efe565b6006810154909260ff8216156116ea565b1590565b611807576117d5937f0d62be9d0f1335f2a2759d829e6e8bbc87d8a780a96d99fa5eec91d92483ed5392611801926117ea9160081c6001600160a01b031695600184015491602081013561173d81611c4e565b986117e26003611752610100860135876122fb565b986117768d8560809160405191825260208201524260408201523060608201522090565b9d8e9d8e996117a1878c8b8d86896117906060850161168d565b9260806040860135950135956123bb565b6117cc848c6117c48c6117b760a0820182611697565b92909160c0810190611697565b949093612743565b868d858d6128d1565b01549360e0810190611697565b959094612a57565b604051918291829190602060408401935f81520152565b0390a290565b63c68ce75b60e01b5f5260045ffd5b61181f81610efe565b6006810180549060ff8216156118075761183c6116e63386612110565b6118e4576001830180546118b8936118ae929190611871906118699060081c6001600160a01b0316610da2565b918254610f96565b905561188f61149982545f516020612bf75f395f51905f5254610f96565b82546118a89060081c6001600160a01b03169154610f46565b906120be565b805460ff19169055565b6005429101557f0ff0ed35b733a3dabac7f6e6140e420911c45a59e7c56d0d817e1ebd1b5ad8275f80a2565b631663ad0f60e21b5f5260045ffd5b979692946119449460e096611936945f99948c5260208c015260018060a01b031660408b015260608a0152608089015261010060a08901526101008801906108ac565b9086820360c08801526108ac565b9361194e83610880565b0152565b94979692959394936001600160a01b0385169391908415611c01578115611bf35761197c82611c4e565b927fcf899704781df25faf75e485332a0eb6ea0ad9e80a1db7dddea19da688422ecf5480611bc1575b5080611b6f57505f516020612b975f395f51905f52546119c761138982610fa3565b998a975b6119ee858960809160405191825260208201524260408201523060608201522090565b998a986119f961043e565b5f8152602081018890526001600160a01b03891660408201528260608201528360808201524260a082015260c08101611a329060019052565b6001600160a01b03821660e0820152611a4e610100820161089e565b8461012082015285610140820152611a658b610efe565b90611a6f91611197565b89611a798c610f18565b558a611a998b5f525f516020612c175f395f51905f5260205260405f2090565b5589611aa482610d32565b90611aae91611296565b611ab781610da2565b87815490611ac4916112dd565b905586805f516020612bf75f395f51905f525490611ae1916112dd565b5f516020612bf75f395f51905f5255611af9916120be565b604051968796611b0996886118f3565b037f687b367c482332dac1300811d257bb260ce7a27cdd76a31fb4746966fc20f30891a48060405180611b4786829190602060408401935f81520152565b037f0d62be9d0f1335f2a2759d829e6e8bbc87d8a780a96d99fa5eec91d92483ed5391a29190565b9699611b7a88610f18565b54611bb257879a8b985f516020612b975f395f51905f5254811015611ba0575b506119cb565b611389611bac916112cf565b5f611b9a565b637031403d60e11b5f5260045ffd5b611bd9855f516020612bf75f395f51905f52546112dd565b11611be4575f6119a5565b631a6fa56d60e21b5f5260045ffd5b62088d2d60e31b5f5260045ffd5b636d9400a160e11b5f5260045ffd5b3d15611c3a573d90611c2182610450565b91611c2f6040519384610417565b82523d5f602084013e565b606090565b9081602091031261013a575190565b5f8060405160208101906354301f5160e11b825284602482015260248152611c77604482610417565b5190305afa611c84611c10565b9015611c9e57610182915060208082518301019101611c3f565b5090565b67ffffffffffffffff81116104395760051b60200190565b90611cc482611ca2565b611cd16040519182610417565b8281528092611ce2601f1991611ca2565b0190602036910137565b919091611d01611cfb82612b86565b91610d32565b915f925f918154925b83811061207b5750841561206c5794611d2285611cba565b92611d2c86611cba565b94611d3687611cba565b935f905f5b848110611f755750505050505f905b611d5386610f88565b821015611e5b575f5b611d6e611d698489610f96565b610f88565b811015611e4f5780611d8260019286610f6f565b51611d95611d8f836112cf565b87610f6f565b5110611da2575b01611d5c565b611db4611dae826112cf565b86610f6f565b51611dbf8287610f6f565b51611dd2611dcc846112cf565b88610f6f565b52611ddd8287610f6f565b52611dea611d8f826112cf565b51611df58288610f6f565b51611e08611e02846112cf565b89610f6f565b52611e138288610f6f565b52611e20611dcc826112cf565b51611e2b8289610f6f565b51611e3e611e38846112cf565b8a610f6f565b52611e498289610f6f565b52611d9c565b50600190910190611d4a565b91505093919093611e6b84611cba565b611e7485611cba565b91925f945f955b87871080611f6c575b15611ef657611ede89611ed8611ee493611e9e8b88610f6f565b518a1115611eeb57611ebb8b611eb4818a610f6f565b5194610f6f565b51611ec6828a610f6f565b5282611ed2828b610f6f565b52610fa3565b97610f96565b96610fa3565b9594611e7b565b611ebb8b8b94610f6f565b949395509550509450611f5d57611f0c81611cba565b91611f1682611cba565b945f5b838110611f2857505050509190565b80611f3560019284610f6f565b51611f408288610f6f565b52611f4b8185610f6f565b51611f56828a610f6f565b5201611f19565b633753335760e01b5f5260045ffd5b50851515611e84565b611f8f611f8582849d989d611281565b90549060031b1c90565b611f9881610efe565b90611fa7600683015460ff1690565b611fb9575b5050600101999499611d3b565b93611ff89160019395611fcc838d610f6f565b5280840154611fdb838e610f6f565b52611fe587610880565b866120005760040154611ed2828b610f6f565b92905f611fac565b61200987610880565b86840361201f576004015419611ed2828b610f6f565b61202887610880565b6002870361203f576003015419611ed2828b610f6f565b61204887610880565b60038714612057575b50610fa3565b60030154612065828b610f6f565b525f612051565b630707c15360e31b5f5260045ffd5b61209d6006612095612090611f858588611281565b610efe565b015460ff1690565b6120aa575b600101611d0a565b946120b6600191610fa3565b9590506120a2565b5f82126120dd576120ce90610dda565b8054918201809211610f565755565b906120e790610f46565b90816120f282610dda565b54106115d35761210190610dda565b8054918203918211610f565755565b5f8181525f516020612bd75f395f51905f52602052604090206006015490919060081c6001600160a01b0390811690821681146121e8576001600160a01b03165f9081527f2d7b24d472d9aa4c34cc4ef3fd090f348e70e3cd6a815e8284aa4209bb0f23406020526040902060ff9061218a908390610b0d565b54166121e1576121d3915f527f2d7b24d472d9aa4c34cc4ef3fd090f348e70e3cd6a815e8284aa4209bb0f233f60205260405f209060018060a01b03165f5260205260405f2090565b546121dc575f90565b600190565b5050600190565b505050600190565b5f80604051602081019063cadeb1f560e01b825284602482015260248152611c77604482610417565b9061223160ff600661222a85610efe565b0154161590565b6118075761223e81610f18565b54611bb2577f0d62be9d0f1335f2a2759d829e6e8bbc87d8a780a96d99fa5eec91d92483ed5390612283835f525f516020612c175f395f51905f5260205260405f2090565b545f61228e82610f18565b558361229983610f18565b55816122b9855f525f516020612c175f395f51905f5260205260405f2090565b555f516020612b975f395f51905f52548210156122ea575b60408051918252602082019290925290819081016114c8565b6122f6611389836112cf565b6122d1565b5f9081525f516020612c175f395f51905f5260205260409020549080156123a1575f8181525f516020612bb75f395f51905f526020526040902054151580612397575b61238857809181141580612370575b612355575090565b61235e906112cf565b5f516020612b975f395f51905f525590565b505f516020612b975f395f51905f525481101561234d565b63736ad52160e01b5f5260045ffd5b508181141561233e565b50505f516020612b975f395f51905f525461235e81610fa3565b93916125719561044e989361255695600699946123ed895f516020612bd75f395f51905f52905f5260205260405f2090565b55600161240f895f516020612bd75f395f51905f52905f5260205260405f2090565b01556001600160a01b0381161561258d57612466905b6002612446895f516020612bd75f395f51905f52905f5260205260405f2090565b0180546001600160a01b0319166001600160a01b03909216919091179055565b8015612582575b600361248e875f516020612bd75f395f51905f52905f5260205260405f2090565b0155811561257757505b60046124b9855f516020612bd75f395f51905f52905f5260205260405f2090565b01554260056124dd855f516020612bd75f395f51905f52905f5260205260405f2090565b015561251085612502855f516020612bd75f395f51905f52905f5260205260405f2090565b01805460ff19166001179055565b84612530845f516020612bd75f395f51905f52905f5260205260405f2090565b018054610100600160a81b03191660089290921b610100600160a81b0316919091179055565b5f516020612bd75f395f51905f52905f5260205260405f2090565b0161100a565b600491500154612498565b50600381015461246d565b506002820154612466906001600160a01b0316612425565b919091828114612681576125b98354611044565b67ffffffffffffffff8111610439576125d6816110ed8454611044565b5f93601f82116001146126105761112392939482915f926126055750508160011b915f199060031b1c19161790565b015490505f8061110f565b612622601f198316915f5260205f2090565b94612630845f5260205f2090565b915f5b8181106126695750958360019596971061265157505050811b019055565b01545f1960f88460031b161c191690555f808061115d565b9192600180602092868b015481550194019201612633565b509050565b90929167ffffffffffffffff8111610439576126a6816110ed8454611044565b5f601f82116001146126df5781906111239394955f926126d45750508160011b915f199060031b1c19161790565b013590505f8061110f565b601f198216946126f2845f5260205f2090565b915f5b87811061272b57508360019596971061271257505050811b019055565b01355f19600384901b60f8161c191690555f808061115d565b909260206001819286860135815501940191016126f5565b90949392909190801561288b57825f525f516020612bd75f395f51905f52602052600760405f20019167ffffffffffffffff82116104395761278f826127898554611044565b8561107c565b5f90601f8311600114612821576127bc92915f91836126d45750508160011b915f199060031b1c19161790565b90555b82156127f15761044e93506127eb6008915f516020612bd75f395f51905f52905f5260205260405f2090565b01612686565b915050600861281b8161044e9401925f516020612bd75f395f51905f52905f5260205260405f2090565b016125a5565b601f19831691612834855f5260205f2090565b925f5b818110612873575090846001959493921061285a575b505050811b0190556127bf565b01355f19600384901b60f8161c191690555f808061284d565b91936020600181928787013581550195019201612837565b5050805f525f516020612bd75f395f51905f526020526128b460078501600760405f20016125a5565b6127bf565b81810392915f138015828513169184121617610f5657565b6129529061296995949693816128fc825f516020612bb75f395f51905f52905f5260205260405f2090565b555f8281525f516020612c175f395f51905f5260205260409020556001600160a01b0387165f9081527f2d7b24d472d9aa4c34cc4ef3fd090f348e70e3cd6a815e8284aa4209bb0f233b60205260409020611296565b60068101805460ff191690556005429101556128b9565b5f8113156129e5576001600160a01b0382165f9081527f1e4aaaa99f6df78fec1b4ccd91a73db6b79cd07fbf36aaeb793f4fa979f221256020526040902061044e92906129b78382546112dd565b90556129d1825f516020612bf75f395f51905f52546112dd565b5f516020612bf75f395f51905f52556120be565b5f81126129f0575050565b61044e916129d1612a0083610f46565b6001600160a01b0383165f9081527f1e4aaaa99f6df78fec1b4ccd91a73db6b79cd07fbf36aaeb793f4fa979f2212560205260409020612a41828254610f96565b90555f516020612bf75f395f51905f5254610f96565b9390949291855f525f516020612bd75f395f51905f5260205260405f2093600385015492888185115f14612b555750830392808411610f565788612b1b7fd8525fc46660e4e9e4b22d254fa8f874a1d71d0703d3e3636477ce531ee60df797602096935b60018060a01b036002830154166004830154916040519a8b9960018060a01b03168a528a8a015260408901526060880152608087015261014060a08701526008612b0c6101408801600784016115f1565b9187830360c0890152016115f1565b9284840360e0860152818452858401375f848a84010152612b3f610100840161089e565b6101208301523397601f01601f191601030190a4565b6020949150612b1b7fd8525fc46660e4e9e4b22d254fa8f874a1d71d0703d3e3636477ce531ee60df7975f93612abb565b612b9160ff91610d6a565b54169056fe2d7b24d472d9aa4c34cc4ef3fd090f348e70e3cd6a815e8284aa4209bb0f233c2d7b24d472d9aa4c34cc4ef3fd090f348e70e3cd6a815e8284aa4209bb0f233d2d7b24d472d9aa4c34cc4ef3fd090f348e70e3cd6a815e8284aa4209bb0f233a1e4aaaa99f6df78fec1b4ccd91a73db6b79cd07fbf36aaeb793f4fa979f221262d7b24d472d9aa4c34cc4ef3fd090f348e70e3cd6a815e8284aa4209bb0f233ea26469706673582212205154da8c592e0c2cbf7b4e0207dbc1208f91ad173bf99cb3313e53ba2fb5a49a64736f6c634300081c0033f0c57e16840df040f15088dc2f81fe391c3923bec73e23a9662efc9c229c6a00","linkReferences":{}},"methodIdentifiers":{"adjustBalance(address,int256,uint256,string)":"1ea47b0f","adjustLot((bytes32,uint256,uint256,address,uint256,string,bytes,string,uint256))":"06ef5088","createLot(address,uint256,address,uint256,uint256,string,bytes,uint256)":"0d9f3875","customIdToLotId(uint256)":"14ff3606","getLot(bytes32)":"8ce16f81","getLotsOf(address)":"05424ebe","getTaxStrategy(address)":"5dfe7de2","invalidateLot(bytes32)":"08af629a","isApprovedOrOwner(bytes32,address)":"fd92b355","lotExists(bytes32)":"964e14b7","lotIdToCustomId(bytes32)":"273f023c","nextCustomId()":"cf209d01","selectLotsForAmount(address,uint256)":"6b8fb8ab","setLotApproval(bytes32,address,uint256)":"468819bc","setOperatorApproval(address,bool)":"a63a1098","setTaxStrategy(uint8)":"d01a0fca","updateCustomId(bytes32,uint256)":"d37caa05"},"id":246}