{"abi":[{"type":"function","name":"SAFE_TOKEN_ID","inputs":[],"outputs":[{"name":"","type":"uint256","internalType":"uint256"}],"stateMutability":"view"},{"type":"function","name":"TokenSAFE_init","inputs":[{"name":"admin","type":"address","internalType":"address"},{"name":"issuer","type":"address","internalType":"address"},{"name":"investor","type":"address","internalType":"address"},{"name":"investmentAmount","type":"uint256","internalType":"uint256"},{"name":"paymentToken","type":"address","internalType":"address"},{"name":"terms","type":"tuple","internalType":"struct TokenSAFEFacet.SAFETerms","components":[{"name":"valuationCap","type":"uint256","internalType":"uint256"},{"name":"discountBasisPoints","type":"uint16","internalType":"uint16"},{"name":"hasMFN","type":"bool","internalType":"bool"},{"name":"hasProRata","type":"bool","internalType":"bool"}]}],"outputs":[],"stateMutability":"nonpayable"},{"type":"function","name":"activate","inputs":[{"name":"agreementDocumentId","type":"bytes32","internalType":"bytes32"}],"outputs":[],"stateMutability":"nonpayable"},{"type":"function","name":"cancel","inputs":[],"outputs":[],"stateMutability":"nonpayable"},{"type":"function","name":"convert","inputs":[{"name":"pricePerShare","type":"uint256","internalType":"uint256"}],"outputs":[],"stateMutability":"nonpayable"},{"type":"function","name":"getSAFE","inputs":[],"outputs":[{"name":"issuer","type":"address","internalType":"address"},{"name":"investor","type":"address","internalType":"address"},{"name":"investmentAmount","type":"uint256","internalType":"uint256"},{"name":"paymentToken","type":"address","internalType":"address"},{"name":"terms","type":"tuple","internalType":"struct TokenSAFEFacet.SAFETerms","components":[{"name":"valuationCap","type":"uint256","internalType":"uint256"},{"name":"discountBasisPoints","type":"uint16","internalType":"uint16"},{"name":"hasMFN","type":"bool","internalType":"bool"},{"name":"hasProRata","type":"bool","internalType":"bool"}]},{"name":"status","type":"uint8","internalType":"enum TokenSAFEFacet.SAFEStatus"},{"name":"targetEquityToken","type":"address","internalType":"address"},{"name":"sharesReceived","type":"uint256","internalType":"uint256"}],"stateMutability":"view"},{"type":"function","name":"getStatus","inputs":[],"outputs":[{"name":"","type":"uint8","internalType":"enum TokenSAFEFacet.SAFEStatus"}],"stateMutability":"view"},{"type":"function","name":"getTerms","inputs":[],"outputs":[{"name":"","type":"tuple","internalType":"struct TokenSAFEFacet.SAFETerms","components":[{"name":"valuationCap","type":"uint256","internalType":"uint256"},{"name":"discountBasisPoints","type":"uint16","internalType":"uint16"},{"name":"hasMFN","type":"bool","internalType":"bool"},{"name":"hasProRata","type":"bool","internalType":"bool"}]}],"stateMutability":"view"},{"type":"function","name":"isActive","inputs":[],"outputs":[{"name":"","type":"bool","internalType":"bool"}],"stateMutability":"view"},{"type":"function","name":"isConverted","inputs":[],"outputs":[{"name":"","type":"bool","internalType":"bool"}],"stateMutability":"view"},{"type":"function","name":"isTransferable","inputs":[],"outputs":[{"name":"","type":"bool","internalType":"bool"}],"stateMutability":"view"},{"type":"function","name":"packedSelectors","inputs":[],"outputs":[{"name":"","type":"bytes","internalType":"bytes"}],"stateMutability":"pure"},{"type":"function","name":"previewConversion","inputs":[{"name":"pricePerShare","type":"uint256","internalType":"uint256"}],"outputs":[{"name":"effectivePrice","type":"uint256","internalType":"uint256"},{"name":"sharesWouldReceive","type":"uint256","internalType":"uint256"}],"stateMutability":"view"},{"type":"function","name":"setTargetEquityToken","inputs":[{"name":"equityToken","type":"address","internalType":"address"}],"outputs":[],"stateMutability":"nonpayable"},{"type":"function","name":"setTransferable","inputs":[{"name":"_transferable","type":"bool","internalType":"bool"}],"outputs":[],"stateMutability":"nonpayable"},{"type":"event","name":"SAFEActivated","inputs":[{"name":"investor","type":"address","indexed":true,"internalType":"address"},{"name":"agreementDocumentId","type":"bytes32","indexed":false,"internalType":"bytes32"}],"anonymous":false},{"type":"event","name":"SAFECancelled","inputs":[{"name":"investor","type":"address","indexed":true,"internalType":"address"},{"name":"refundAmount","type":"uint256","indexed":false,"internalType":"uint256"}],"anonymous":false},{"type":"event","name":"SAFEConverted","inputs":[{"name":"investor","type":"address","indexed":true,"internalType":"address"},{"name":"equityToken","type":"address","indexed":true,"internalType":"address"},{"name":"conversionPrice","type":"uint256","indexed":false,"internalType":"uint256"},{"name":"sharesReceived","type":"uint256","indexed":false,"internalType":"uint256"}],"anonymous":false},{"type":"event","name":"SAFEInitialized","inputs":[{"name":"issuer","type":"address","indexed":true,"internalType":"address"},{"name":"investor","type":"address","indexed":true,"internalType":"address"},{"name":"investmentAmount","type":"uint256","indexed":false,"internalType":"uint256"},{"name":"valuationCap","type":"uint256","indexed":false,"internalType":"uint256"},{"name":"discountBasisPoints","type":"uint16","indexed":false,"internalType":"uint16"}],"anonymous":false},{"type":"event","name":"TargetEquityTokenSet","inputs":[{"name":"equityToken","type":"address","indexed":true,"internalType":"address"}],"anonymous":false},{"type":"event","name":"Transfer","inputs":[{"name":"from","type":"address","indexed":true,"internalType":"address"},{"name":"to","type":"address","indexed":true,"internalType":"address"},{"name":"value","type":"uint256","indexed":false,"internalType":"uint256"}],"anonymous":false},{"type":"event","name":"UserRoleUpdated","inputs":[{"name":"user","type":"address","indexed":true,"internalType":"address"},{"name":"role","type":"uint8","indexed":true,"internalType":"uint8"},{"name":"enabled","type":"bool","indexed":false,"internalType":"bool"}],"anonymous":false},{"type":"error","name":"AccessControl_CallerIsNotAuthorized","inputs":[{"name":"caller","type":"address","internalType":"address"},{"name":"functionSig","type":"bytes4","internalType":"bytes4"}]},{"type":"error","name":"SAFE_AlreadyConverted","inputs":[]},{"type":"error","name":"SAFE_AlreadyInitialized","inputs":[]},{"type":"error","name":"SAFE_AlreadyMinted","inputs":[]},{"type":"error","name":"SAFE_ConversionPriceNotSet","inputs":[]},{"type":"error","name":"SAFE_InvalidDiscount","inputs":[]},{"type":"error","name":"SAFE_NotActive","inputs":[]},{"type":"error","name":"SAFE_NotInitialized","inputs":[]},{"type":"error","name":"SAFE_TargetEquityNotSet","inputs":[]},{"type":"error","name":"SAFE_TransferNotAllowed","inputs":[]},{"type":"error","name":"SAFE_ZeroAddress","inputs":[]},{"type":"error","name":"SAFE_ZeroAmount","inputs":[]}],"bytecode":{"object":"0x608080604052346015576115b1908161001a8239f35b5f80fdfe60806040526004361015610011575f80fd5b5f358060e01c8063168700bb14610f6b5780631879553914610e425780632121dc7514610e1457806322f3e2d414610ddb5780633e62267c14610ce15780634173b41714610c8b5780634b0b5a3f14610c705780634e69d56014610c3d57806359db6e8514610a765780635c0e5f5a14610a3d57806370421ab9146109d85780639b394dfc146106cc5780639cd2370714610668578063a3908e1b146102a45763ea8a1af0146100bf575f80fd5b346102a0575f3660031901126102a0576001600160e01b0319166100e381336111b7565b1561028a5760ff5f51602061155c5f395f51905f5254161561027b5760ff5f5160206114dc5f395f51905f52541660048110156102675760028114610258575f5160206114dc5f395f51905f52805460ff19166003179055600114610195575b60018060a01b035f5160206114bc5f395f51905f5254167fa3636e737fa781e8ecfcfb27205fe1ffc53eddb1a7c6911c50cae6febf64726860205f51602061145c5f395f51905f5254604051908152a2005b60015f9081527f38161cf2d4daf9803f126964f550a85421890f655ba069802277664ece3c33676020527fef543b2ab808402e96a46efec7665139645be18ed57f9b09a5804a02a8dfd27280546001600160a01b03191690555f5160206114bc5f395f51905f525461020f906001600160a01b0316611150565b555f60018060a01b035f5160206114bc5f395f51905f5254167fddf252ad1be2c89b69c2b068fc378daa952ba7f163c4a11628f55a4df523b3ef602060405160018152a3610143565b632abc7d7160e21b5f5260045ffd5b634e487b7160e01b5f52602160045260245ffd5b6382a5915360e01b5f5260045ffd5b631d64bc3360e11b5f523360045260245260445ffd5b5f80fd5b50346102a05760203660031901126102a057600435906001600160e01b0319166102ce81336111b7565b1561028a575060ff5f51602061155c5f395f51905f5254161561027b5760ff5f5160206114dc5f395f51905f525416600481101561026757600103610659575f51602061149c5f395f51905f52546001600160a01b03161561064a57801561063b5761033990611208565b5f51602061145c5f395f51905f5254670de0b6b3a7640000810290808204670de0b6b3a76400001490151715610627578161037391611188565b5f5160206114dc5f395f51905f52805460ff191660021790557fbf79048ab22a59fee03ac2a06c07bfcd3fcec7a46a3d3efc9b0a8b6b460563038290557fbf79048ab22a59fee03ac2a06c07bfcd3fcec7a46a3d3efc9b0a8b6b46056304819055427fbf79048ab22a59fee03ac2a06c07bfcd3fcec7a46a3d3efc9b0a8b6b460563055560015f9081527f38161cf2d4daf9803f126964f550a85421890f655ba069802277664ece3c33676020527fef543b2ab808402e96a46efec7665139645be18ed57f9b09a5804a02a8dfd27280546001600160a01b03191690555f5160206114bc5f395f51905f5254919291610474906001600160a01b0316611150565b55610579604060018060a01b035f5160206114bc5f395f51905f5254165f817fddf252ad1be2c89b69c2b068fc378daa952ba7f163c4a11628f55a4df523b3ef6020855160018152a360018060a01b035f51602061149c5f395f51905f52541660018060a01b035f51602061151c5f395f51905f5254165f845193856020860152600f60608601526e29a0a322afa1a7a72b22a929a4a7a760891b608086015230868601526080855261052860a0866110a3565b855196879586948593630d9f387560e01b855260048501528b6024850152604484015289606484015242608484015261010060a48401528361010484015261012060c484015261012483019061104f565b8260e483015203925af1801561061c576105f1575b505f5160206114bc5f395f51905f52545f51602061149c5f395f51905f52546040805193845260208401949094526001600160a01b03908116939116917f76c87f0a1afe5d6715031e5a18da16fbd98e8cedf0e103783e9acdbeec7900bd9190a3005b604090813d8311610615575b61060781836110a3565b810103126102a0575f61058e565b503d6105fd565b6040513d5f823e3d90fd5b634e487b7160e01b5f52601160045260245ffd5b63372fae4360e21b5f5260045ffd5b6302136e1360e61b5f5260045ffd5b632e07dd0960e21b5f5260045ffd5b50346102a05760203660031901126102a057600435908115158092036102a0576001600160e01b03191661069c81336111b7565b1561028a575060ff80195f51602061153c5f395f51905f5254169116175f51602061153c5f395f51905f52555f80f35b346102a0576101203660031901126102a0576106e661102c565b602435906001600160a01b038216908183036102a0576044356001600160a01b03811693908490036102a0576064356084356001600160a01b038116908190036102a05760803660a31901126102a0575f51602061155c5f395f51905f52549260ff84166109c9576001600160a01b0385169384156109ba5786156109ba5787156109ba5783156109ab5761271061ffff61077f6111a6565b161161099c576001916101008360a81b039060081b16906affffffffffffffffffffff60a81b1617175f51602061155c5f395f51905f5255856bffffffffffffffffffffffff60a01b5f5160206114bc5f395f51905f525416175f5160206114bc5f395f51905f5255815f51602061145c5f395f51905f52556bffffffffffffffffffffffff60a01b5f51602061151c5f395f51905f525416175f51602061151c5f395f51905f525560a43592837fbf79048ab22a59fee03ac2a06c07bfcd3fcec7a46a3d3efc9b0a8b6b460563005561ffff61085a6111a6565b16935f5160206114fc5f395f51905f52549460e43594851515958681036102a0575061010435801515948582036102a0577fd48f18bb5474febf79e8f7b5c39fabdde0f3a2218adf8fa50d6282fc9642ed8e9860609862ff00005f9663ff00000061ffff9a61094d975060181b169363ffffffff1916179160101b1617175f5160206114fc5f395f51905f525560ff195f5160206114dc5f395f51905f5254165f5160206114dc5f395f51905f525560ff195f51602061153c5f395f51905f5254165f51602061153c5f395f51905f525560018060a01b03165f525f51602061147c5f395f51905f5260205260405f2090565b600181541790557f4c9bdd0c8e073eb5eda2250b18d8e5121ff27b62064fbeeeed4869bb99bc5bf2602060405160018152a36109876111a6565b906040519384526020840152166040820152a3005b63a6e09c3360e01b5f5260045ffd5b63b06d031160e01b5f5260045ffd5b63853abfcd60e01b5f5260045ffd5b63077f34a560e51b5f5260045ffd5b346102a05760203660031901126102a0576109f4600435611208565b5f51602061145c5f395f51905f525490670de0b6b3a7640000820291808304670de0b6b3a7640000149015171561062757610a3181604093611188565b82519182526020820152f35b346102a0575f3660031901126102a05760ff5f5160206114dc5f395f51905f525416600481101561026757602090600260405191148152f35b50346102a05760203660031901126102a057600435906001600160e01b031916610aa081336111b7565b1561028a575060ff5f51602061155c5f395f51905f5254161561027b5760ff5f5160206114dc5f395f51905f525416600481101561026757610c2e575f5160206114dc5f395f51905f52805460ff19166001908117909155427fbf79048ab22a59fee03ac2a06c07bfcd3fcec7a46a3d3efc9b0a8b6b460562ff557fbf79048ab22a59fee03ac2a06c07bfcd3fcec7a46a3d3efc9b0a8b6b460563078290555f5160206114bc5f395f51905f52545f8290527f38161cf2d4daf9803f126964f550a85421890f655ba069802277664ece3c33676020527fef543b2ab808402e96a46efec7665139645be18ed57f9b09a5804a02a8dfd27280546001600160a01b0319166001600160a01b03929092169182179055610bbd90611150565b557f41a2a664dfb9c52738003a9362165359e563aa29e576241d6c7db0f14732efef602060018060a01b035f5160206114bc5f395f51905f52541692835f7fddf252ad1be2c89b69c2b068fc378daa952ba7f163c4a11628f55a4df523b3ef8460405160018152a3604051908152a2005b630923490760e11b5f5260045ffd5b346102a0575f3660031901126102a057602060ff5f5160206114dc5f395f51905f525416610c6e6040518092611042565bf35b346102a0575f3660031901126102a057602060405160018152f35b346102a0575f3660031901126102a057610ca36110c5565b506080610cae6110e9565b610c6e6040518092606080918051845261ffff602082015116602085015260408101511515604085015201511515910152565b346102a0575f3660031901126102a05760408051634b0b5a3f60e01b60208201526326ce537f60e21b60248201526359db6e8560e01b6028820152630ea8a1af60e41b602c82015263a3908e1b60e01b6030820152631879553960e01b60348201526302734eab60e51b603880830191909152634173b41760e01b603c8301526308bcf8b560e21b92820192909252632e072fad60e11b6044820152632121dc7560e01b60488201526370421ab960e01b604c82015263168700bb60e01b6050820152639cd2370760e01b6054820152908152610dd790610dc36058826110a3565b60405191829160208352602083019061104f565b0390f35b346102a0575f3660031901126102a05760ff5f5160206114dc5f395f51905f525416600481101561026757602090600160405191148152f35b346102a0575f3660031901126102a057602060ff5f51602061153c5f395f51905f5254166040519015158152f35b346102a0575f3660031901126102a057610e5a6110c5565b505f51602061155c5f395f51905f52545f5160206114bc5f395f51905f52545f51602061145c5f395f51905f52545f51602061151c5f395f51905f52545f5160206114dc5f395f51905f52545f51602061149c5f395f51905f52547fbf79048ab22a59fee03ac2a06c07bfcd3fcec7a46a3d3efc9b0a8b6b46056304546101609660081c6001600160a01b0390811696919592811694610f5d9460ff1693610f52938316929190911690610f0c6110e9565b92604051998a5260208a0152604089015260608801526080870190606080918051845261ffff602082015116602085015260408101511515604085015201511515910152565b610100850190611042565b610120830152610140820152f35b50346102a05760203660031901126102a057610f8561102c565b906001600160e01b031916610f9a81336111b7565b1561028a57506001600160a01b031680156109ba5760ff5f51602061155c5f395f51905f5254161561027b5760ff5f5160206114dc5f395f51905f525416600481101561026757600214610258575f51602061149c5f395f51905f5280546001600160a01b031916821790557f35a74215b8edffe736c29370d95b3ccb7576f0e0791c6e207fc6ff62e34600e35f80a2005b600435906001600160a01b03821682036102a057565b9060048210156102675752565b805180835260209291819084018484015e5f828201840152601f01601f1916010190565b6080810190811067ffffffffffffffff82111761108f57604052565b634e487b7160e01b5f52604160045260245ffd5b90601f8019910116810190811067ffffffffffffffff82111761108f57604052565b604051906110d282611073565b5f6060838281528260208201528260408201520152565b604051906110f682611073565b817fbf79048ab22a59fee03ac2a06c07bfcd3fcec7a46a3d3efc9b0a8b6b46056300548152606060ff5f5160206114fc5f395f51905f525461ffff81166020850152818160101c161515604085015260181c161515910152565b6001600160a01b03165f9081527f38161cf2d4daf9803f126964f550a85421890f655ba069802277664ece3c33686020526040902090565b8115611192570490565b634e487b7160e01b5f52601260045260245ffd5b60c43561ffff811681036102a05790565b816111c19161125c565b611202577f511915e52b7f9e690b9fdc662acaf5600fd3722c87eb951d3abd26e93a784dca5c9060ff82166111f65750505f90565b6111ff91611406565b90565b50600190565b8061ffff5f5160206114fc5f395f51905f5254168061122657505090565b6127100361ffff81116106275761ffff16808202908282041482151715610627576127109004908110611257575090565b905090565b7fce1c17acaaa67de66e928cd49c8f658667a825223bee6fda99a14908362bcdac546001600160a01b03168061135b575b506001600160a01b0381165f9081525f51602061147c5f395f51905f5260205260409020549163ffffffff60e01b165f527fce1c17acaaa67de66e928cd49c8f658667a825223bee6fda99a14908362bcdab60205260405f205490811561132a576001600160a01b03165f9081525f51602061147c5f395f51905f526020526040902054600116151591821561132257505090565b161515919050565b6001600160a01b03165f9081525f51602061147c5f395f51905f526020526040902054600116151591506111ff9050565b6040805163b700961360e01b81526001600160a01b03841660048201523060248201526001600160e01b03198516604482015291829060649082905afa5f91816113b7575b501561128d576113b0575f61128d565b5050600190565b9091506040813d6040116113fe575b816113d3604093836110a3565b810103126102a05780519081151582036102a0576020015163ffffffff8116036102a057905f6113a0565b3d91506113c6565b60ff169081156113b05763ffffffff60e01b165f527fce1c17acaaa67de66e928cd49c8f658667a825223bee6fda99a14908362bcdab60205260405f2054908115611455576001901b16151590565b50505f9056febf79048ab22a59fee03ac2a06c07bfcd3fcec7a46a3d3efc9b0a8b6b460562fdce1c17acaaa67de66e928cd49c8f658667a825223bee6fda99a14908362bcdaabf79048ab22a59fee03ac2a06c07bfcd3fcec7a46a3d3efc9b0a8b6b46056302bf79048ab22a59fee03ac2a06c07bfcd3fcec7a46a3d3efc9b0a8b6b460562fcbf79048ab22a59fee03ac2a06c07bfcd3fcec7a46a3d3efc9b0a8b6b46056306bf79048ab22a59fee03ac2a06c07bfcd3fcec7a46a3d3efc9b0a8b6b46056301bf79048ab22a59fee03ac2a06c07bfcd3fcec7a46a3d3efc9b0a8b6b460562febf79048ab22a59fee03ac2a06c07bfcd3fcec7a46a3d3efc9b0a8b6b46056308bf79048ab22a59fee03ac2a06c07bfcd3fcec7a46a3d3efc9b0a8b6b460562fba2646970667358221220c6c507d635c136df3efb824e7f936270b4b2084b017dd6b604bd4f663769843664736f6c634300081e0033","linkReferences":{}},"methodIdentifiers":{"SAFE_TOKEN_ID()":"4b0b5a3f","TokenSAFE_init(address,address,address,uint256,address,(uint256,uint16,bool,bool))":"9b394dfc","activate(bytes32)":"59db6e85","cancel()":"ea8a1af0","convert(uint256)":"a3908e1b","getSAFE()":"18795539","getStatus()":"4e69d560","getTerms()":"4173b417","isActive()":"22f3e2d4","isConverted()":"5c0e5f5a","isTransferable()":"2121dc75","packedSelectors()":"3e62267c","previewConversion(uint256)":"70421ab9","setTargetEquityToken(address)":"168700bb","setTransferable(bool)":"9cd23707"},"id":262}