{"abi":[{"type":"function","name":"createLot","inputs":[{"name":"owner","type":"address","internalType":"address"},{"name":"quantity","type":"uint256","internalType":"uint256"},{"name":"paymentCurrency","type":"address","internalType":"address"},{"name":"costBasis","type":"uint256","internalType":"uint256"},{"name":"acquisitionDate","type":"uint256","internalType":"uint256"},{"name":"uri","type":"string","internalType":"string"},{"name":"data","type":"bytes","internalType":"bytes"},{"name":"customId","type":"uint256","internalType":"uint256"}],"outputs":[{"name":"lotId","type":"bytes32","internalType":"bytes32"},{"name":"assignedCustomId","type":"uint256","internalType":"uint256"}],"stateMutability":"nonpayable"},{"type":"function","name":"customIdToLotId","inputs":[{"name":"customId","type":"uint256","internalType":"uint256"}],"outputs":[{"name":"","type":"bytes32","internalType":"bytes32"}],"stateMutability":"view"},{"type":"function","name":"getLot","inputs":[{"name":"lotId","type":"bytes32","internalType":"bytes32"}],"outputs":[{"name":"","type":"tuple","internalType":"struct IToken.Lot","components":[{"name":"owner","type":"address","internalType":"address"},{"name":"paymentCurrency","type":"address","internalType":"address"},{"name":"isValid","type":"bool","internalType":"bool"},{"name":"tType","type":"uint8","internalType":"enum IToken.TransferType"},{"name":"quantity","type":"uint256","internalType":"uint256"},{"name":"costBasis","type":"uint256","internalType":"uint256"},{"name":"acquisitionDate","type":"uint256","internalType":"uint256"},{"name":"lastUpdate","type":"uint256","internalType":"uint256"},{"name":"parentLotId","type":"bytes32","internalType":"bytes32"},{"name":"uri","type":"string","internalType":"string"},{"name":"data","type":"bytes","internalType":"bytes"}]}],"stateMutability":"view"},{"type":"function","name":"getLotsOf","inputs":[{"name":"account","type":"address","internalType":"address"}],"outputs":[{"name":"","type":"bytes32[]","internalType":"bytes32[]"}],"stateMutability":"view"},{"type":"function","name":"invalidateLot","inputs":[{"name":"lotId","type":"bytes32","internalType":"bytes32"}],"outputs":[],"stateMutability":"nonpayable"},{"type":"function","name":"lotExists","inputs":[{"name":"lotId","type":"bytes32","internalType":"bytes32"}],"outputs":[{"name":"","type":"bool","internalType":"bool"}],"stateMutability":"view"},{"type":"function","name":"lotIdToCustomId","inputs":[{"name":"lotId","type":"bytes32","internalType":"bytes32"}],"outputs":[{"name":"","type":"uint256","internalType":"uint256"}],"stateMutability":"view"},{"type":"function","name":"nextCustomId","inputs":[],"outputs":[{"name":"","type":"uint256","internalType":"uint256"}],"stateMutability":"view"},{"type":"function","name":"transferLot","inputs":[{"name":"lotId","type":"bytes32","internalType":"bytes32"},{"name":"to","type":"address","internalType":"address"},{"name":"quantity","type":"uint256","internalType":"uint256"},{"name":"tType","type":"uint8","internalType":"enum IToken.TransferType"},{"name":"newCostBasis","type":"uint256","internalType":"uint256"},{"name":"uri","type":"string","internalType":"string"},{"name":"data","type":"bytes","internalType":"bytes"}],"outputs":[{"name":"newLotId","type":"bytes32","internalType":"bytes32"}],"stateMutability":"nonpayable"},{"type":"function","name":"transferLotAs","inputs":[{"name":"owner","type":"address","internalType":"address"},{"name":"lotId","type":"bytes32","internalType":"bytes32"},{"name":"to","type":"address","internalType":"address"},{"name":"quantity","type":"uint256","internalType":"uint256"},{"name":"tType","type":"uint8","internalType":"enum IToken.TransferType"},{"name":"newCostBasis","type":"uint256","internalType":"uint256"},{"name":"uri","type":"string","internalType":"string"},{"name":"data","type":"bytes","internalType":"bytes"}],"outputs":[{"name":"newLotId","type":"bytes32","internalType":"bytes32"}],"stateMutability":"nonpayable"},{"type":"event","name":"LotCreated","inputs":[{"name":"lotId","type":"bytes32","indexed":true,"internalType":"bytes32"},{"name":"customId","type":"uint256","indexed":true,"internalType":"uint256"},{"name":"owner","type":"address","indexed":true,"internalType":"address"},{"name":"quantity","type":"uint256","indexed":false,"internalType":"uint256"}],"anonymous":false},{"type":"event","name":"LotInvalidated","inputs":[{"name":"lotId","type":"bytes32","indexed":true,"internalType":"bytes32"}],"anonymous":false},{"type":"event","name":"LotTransferred","inputs":[{"name":"newLotId","type":"bytes32","indexed":true,"internalType":"bytes32"},{"name":"from","type":"address","indexed":true,"internalType":"address"},{"name":"to","type":"address","indexed":true,"internalType":"address"},{"name":"quantity","type":"uint256","indexed":false,"internalType":"uint256"},{"name":"uri","type":"string","indexed":false,"internalType":"string"},{"name":"data","type":"bytes","indexed":false,"internalType":"bytes"},{"name":"tType","type":"uint8","indexed":false,"internalType":"enum IToken.TransferType"},{"name":"newCostBasis","type":"uint256","indexed":false,"internalType":"uint256"}],"anonymous":false},{"type":"event","name":"Transfer","inputs":[{"name":"from","type":"address","indexed":true,"internalType":"address"},{"name":"to","type":"address","indexed":true,"internalType":"address"},{"name":"value","type":"uint256","indexed":false,"internalType":"uint256"}],"anonymous":false},{"type":"error","name":"AccessControl_CallerIsNotAuthorized","inputs":[{"name":"caller","type":"address","internalType":"address"},{"name":"functionSig","type":"bytes4","internalType":"bytes4"}]},{"type":"error","name":"Token_InvalidAddress","inputs":[]},{"type":"error","name":"Token_InvalidCustomId","inputs":[]},{"type":"error","name":"Token_InvalidQuantity","inputs":[]},{"type":"error","name":"Token_LotNotExists","inputs":[]},{"type":"error","name":"Token_LotTransferValidationFailed","inputs":[]},{"type":"error","name":"Token_NotLotOwner","inputs":[]}],"bytecode":{"object":"0x60808060405234601557611bf0908161001a8239f35b5f80fdfe60806040526004361015610011575f80fd5b5f358060e01c90816305424ebe146115f957816308af629a146114fd5781630d9f387514610fc65750806314ff360614610f9057806319cfd38014610998578063273f023c146109625780638bdcb65a146102dd5780638ce16f81146100f8578063964e14b7146100b75763cf209d011461008a575f80fd5b346100b3575f3660031901126100b35760205f516020611b3b5f395f51905f5254604051908152f35b5f80fd5b346100b35760203660031901126100b3576004355f525f516020611afb5f395f51905f52602052602060ff600160405f20015460a01c166040519015158152f35b346100b35760203660031901126100b357606061014060405161011a8161179b565b5f81525f60208201525f60408201525f838201525f60808201525f60a08201525f60c08201525f60e08201525f6101008201528261012082015201526004355f525f516020611afb5f395f51905f526020526040805f206102d98251916101808361179b565b60018060a01b0381541683526102c56007600183015494602081019560018060a01b03811687528782019060ff8160a01c16151582526101ca60ff606085019260a81c16826117f3565b60028601546080840190815260038701549060a0850191825261029060048901549360c0870194855260058a01549560e0880196875260068b01549761010081019889526102298f6102228e9151809d819301611953565b038b6117b7565b6101208101998a5261024e8f610247600891519e8f92839101611953565b038d6117b7565b61014081019b8c528e519e8f9e8f926020845260018060a01b03905116602084015260018060a01b0390511691015251151560608d01525160808c01906116fa565b5160a08a01525160c08901525160e0880152516101008701525161012086015251610160610140860152610180850190611707565b9051838203601f1901610160850152611707565b0390f35b346100b35760e03660031901126100b3576004356024356001600160a01b03811681036100b357600560643510156100b3576084359060a4356001600160401b0381116100b3576103329036906004016116cd565b60c4939193356001600160401b0381116100b3576103549036906004016116cd565b5f8781525f516020611afb5f395f51905f52602052604090209193916001600160a01b0386161561095357600181019081549060ff8260a01c16156109445780546001600160a01b0316330361093557604435158015610926575b6109175760405163656a036f60e11b602082019081523360248301526001600160a01b038a166044830152606482018c90525f918291906103fd81608481015b03601f1981018352826117b7565b5190305afa61040a611917565b50156109085760028101906104226044358354611946565b809255600542910155156108f8575b50505f516020611b3b5f395f51905f52549561044c876117e5565b5f516020611b3b5f395f51905f5255604051606087901b6001600160601b03191660208201908152603482018990524260548301524360748301529061049581609481016103ef565b51902096805f525f516020611b9b5f395f51905f526020528760405f2055875f525f516020611b7b5f395f51905f5260205260405f2055875f525f516020611afb5f395f51905f5260205260405f209260018060a01b036001850154169381155f146108f157600391500154975b604051936105108561179b565b6001600160a01b0388168552602085015260016040850152610537606435606086016117f3565b60443560808501528860a08501524260c08501524260e085015261010084015261056236858361181a565b61012084015261057336838761181a565b6101408401525f8781525f516020611afb5f395f51905f526020908152604091829020855181546001600160a01b0319166001600160a01b0391821617825591860151600182018054948801516001600160a81b0319909516919093161792151560a01b60ff60a01b16929092178155909390606082015160058110156108dd57815460ff60a81b191660a89190911b60ff60a81b161790556080810151600285015560a0810151600385015560c0810151600485015560e081015160058501556101008101516006850155610120810151805160078601916001600160401b0382116108565761066e826106688554611850565b85611888565b602090601f83116001146108755791806106a3926101409695945f9261086a575b50508160011b915f199060031b1c19161790565b90555b0151918251986001600160401b038a11610856578989946106d960209c6106d060088a0154611850565b60088a01611888565b8b90601f83116001146107d35761071d8361078295945f516020611b1b5f395f51905f52999a946008945f926107c85750508160011b915f199060031b1c19161790565b9101555b6107338661072e8b61172b565b6118d7565b61073c33611763565b6107496044358254611946565b905561075489611763565b61076160443582546117d8565b905560405193849360018060a01b038b169933996064359360443588611ab5565b0390a460405160443581526001600160a01b039091169033907fddf252ad1be2c89b69c2b068fc378daa952ba7f163c4a11628f55a4df523b3ef908590a3604051908152f35b015190505f8061068f565b600888939298015f52875f20905f5b601f198416811061083c5750826008925f516020611b1b5f395f51905f52999a600193610782989796601f19811610610824575b505050811b01910155610721565b01515f1960f88460031b161c191690558f8080610816565b818a01518355988e01988d98506001909201918e016107e2565b634e487b7160e01b5f52604160045260245ffd5b015190508e8061068f565b90601f19831691845f52815f20925f5b8181106108c5575091600193918561014098979694106108ad575b505050811b0190556106a6565b01515f1960f88460031b161c191690558d80806108a0565b92936020600181928786015181550195019301610885565b634e487b7160e01b5f52602160045260245ffd5b5097610503565b60ff60a01b191690558780610431565b63427a232160e01b5f5260045ffd5b637782662560e01b5f5260045ffd5b506002810154604435116103af565b631001f5ed60e31b5f5260045ffd5b63f5c8d26960e01b5f5260045ffd5b6352397bf960e01b5f5260045ffd5b346100b35760203660031901126100b3576004355f525f516020611b7b5f395f51905f52602052602060405f2054604051908152f35b346100b3576101003660031901126100b3576109b26116a1565b602435906109be6116b7565b90600560843510156100b35760a4359160c4356001600160401b0381116100b3576109ed9036906004016116cd565b60e4949194356001600160401b0381116100b357610a0f9036906004016116cd565b5f8881525f516020611afb5f395f51905f52602052604090209193916001600160a01b0386161561095357600181019081549060ff8260a01c16156109445780546001600160a01b03908116908a160361093557606435158015610f81575b6109175760405163656a036f60e11b602082019081526001600160a01b03808c1660248401528a166044830152606482018d90525f91829190610ab481608481016103ef565b5190305afa610ac1611917565b5015610908576002810190610ad96064358354611946565b80925560054291015515610f71575b50505f516020611b3b5f395f51905f525496610b03886117e5565b5f516020611b3b5f395f51905f5255604051606087901b6001600160601b03191660208201908152603482018a905242605483015243607483015290610b4c81609481016103ef565b51902097805f525f516020611b9b5f395f51905f526020528860405f2055885f525f516020611b7b5f395f51905f5260205260405f2055885f525f516020611afb5f395f51905f5260205260405f209260018060a01b036001850154169381155f14610f6a57600391500154985b60405193610bc78561179b565b6001600160a01b0388168552602085015260016040850152610bee608435606086016117f3565b60643560808501528960a08501524260c08501524260e0850152610100840152610c1936858361181a565b610120840152610c2a36838761181a565b6101408401525f8881525f516020611afb5f395f51905f526020908152604091829020855181546001600160a01b0319166001600160a01b0391821617825591860151600182018054948801516001600160a81b0319909516919093161792151560a01b60ff60a01b16929092178155909390606082015160058110156108dd57815460ff60a81b191660a89190911b60ff60a81b161790556080810151600285015560a0810151600385015560c0810151600485015560e081015160058501556101008101516006850155610120810151805160078601916001600160401b03821161085657610d1f826106688554611850565b602090601f8311600114610f02579180610d53926101409695945f92610ef75750508160011b915f199060031b1c19161790565b90555b0151918251996001600160401b038b11610856578a8a94610d8060209d6106d060088a0154611850565b8c90601f8311600114610e7457610dc483610e2c95945f516020611b1b5f395f51905f52999a946008945f926107c85750508160011b915f199060031b1c19161790565b9101555b610dd58661072e8b61172b565b610dde8a611763565b610deb6064358254611946565b9055610df689611763565b610e0360643582546117d8565b90556040516001600160a01b038a811699908c1698919586956084359390929160643588611ab5565b0390a460405160643581526001600160a01b0391821692909116907fddf252ad1be2c89b69c2b068fc378daa952ba7f163c4a11628f55a4df523b3ef908590a3604051908152f35b600888939298015f52875f20905f5b601f1984168110610edd5750826008925f516020611b1b5f395f51905f52999a600193610e2c989796601f19811610610ec5575b505050811b01910155610dc8565b01515f1960f88460031b161c191690555f8080610eb7565b818a01518355988f01988e98506001909201918f01610e83565b015190508f8061068f565b90601f19831691845f52815f20925f5b818110610f5257509160019391856101409897969410610f3a575b505050811b019055610d56565b01515f1960f88460031b161c191690558e8080610f2d565b92936020600181928786015181550195019301610f12565b5098610bba565b60ff60a01b191690558880610ae8565b50600281015460643511610a6e565b346100b35760203660031901126100b3576004355f525f516020611b9b5f395f51905f52602052602060405f2054604051908152f35b346100b3576101003660031901126100b357610fe06116a1565b9060243591610fed6116b7565b9160a4356001600160401b0381116100b35761100d9036906004016116cd565b92909360c4356001600160401b0381116100b35761102f9036906004016116cd565b60e435949192916001600160e01b03191661104a81336119d4565b156114e757506001600160a01b038416948515610953578815610917575f516020611b3b5f395f51905f5254156114d1575b8061147957505f516020611b3b5f395f51905f525461109a816117e5565b5f516020611b3b5f395f51905f5255955b6040516001600160601b0319606087901b166020820190815260348201899052426054830152436074808401919091528252906110e96094826117b7565b519020978894604051946110fc8661179b565b8886526020860190600160a01b600190031681528b604087019160018352606088015f81526080890192835260a0890193606435855260c08a0195608435875260e08b01974289526101008c01995f8b5236906111589261181a565b996101208c019a8b52369061116c9261181a565b6101408b019081525f9b8c525f516020611afb5f395f51905f526020526040909b2099518a546001600160a01b0319166001600160a01b03918216178b55925160018b01805492516001600160a81b0319909316919094161790151560a01b60ff60a01b161782555160058110156108dd57815460ff60a81b191660a89190911b60ff60a81b1617905551600287015551600386015551600485015551600584015551600683015551805160078301916001600160401b03821161085657611238826106688554611850565b602090601f831160011461141257918061126b9260089695945f926114075750508160011b915f199060031b1c19161790565b90555b0190518051906001600160401b03821161085657611290826106688554611850565b602090601f83116001146113775797611331879589956112ec867f1df47d6d7975d9e9ee4bb097b24fa8c4387f7b78a15a637434a890890011503d9760209760409f5f92610ef75750508160011b915f199060031b1c19161790565b90555b6112fc8661072e8361172b565b865f525f516020611b9b5f395f51905f528452858b5f2055855f525f516020611b7b5f395f51905f528452868b5f2055611763565b61133c8282546117d8565b9055611356815f516020611b5b5f395f51905f52546117d8565b5f516020611b5b5f395f51905f52558851908152a482519182526020820152f35b90601f19831691845f52815f20925f5b8181106113ef575095899560018660209660409e96611331967f1df47d6d7975d9e9ee4bb097b24fa8c4387f7b78a15a637434a890890011503d9a8f9d106113d7575b505050811b0190556112ef565b01515f1960f88460031b161c191690558e80806113ca565b92936020600181928786015181550195019301611387565b015190508c8061068f565b90601f19831691845f52815f20925f5b818110611461575091600193918560089897969410611449575b505050811b01905561126e565b01515f1960f88460031b161c191690558b808061143c565b92936020600181928786015181550195019301611422565b955f516020611b3b5f395f51905f525487106114c257600187018088116114ae575f516020611b3b5f395f51905f52556110ab565b634e487b7160e01b5f52601160045260245ffd5b631231d59560e01b5f5260045ffd5b60015f516020611b3b5f395f51905f525561107c565b631d64bc3360e11b5f523360045260245260445ffd5b346100b35760203660031901126100b357600435805f525f516020611afb5f395f51905f5260205260405f2090600182019182549060ff8260a01c16156109445780546001600160a01b03163303610935575f8094600283019081549460ff60a01b191690555560054291015561157333611763565b61157e828254611946565b9055611598815f516020611b5b5f395f51905f5254611946565b5f516020611b5b5f395f51905f5255604051917f0ff0ed35b733a3dabac7f6e6140e420911c45a59e7c56d0d817e1ebd1b5ad8278480a281527fddf252ad1be2c89b69c2b068fc378daa952ba7f163c4a11628f55a4df523b3ef60203392a3005b346100b35760203660031901126100b35761161a6116156116a1565b61172b565b604051806020835491828152019081935f5260205f20905f5b81811061168b57505050816116499103826117b7565b604051918291602083019060208452518091526040830191905f5b818110611672575050500390f35b8251845285945060209384019390920191600101611664565b8254845260209093019260019283019201611633565b600435906001600160a01b03821682036100b357565b604435906001600160a01b03821682036100b357565b9181601f840112156100b3578235916001600160401b0383116100b357602083818601950101116100b357565b9060058210156108dd5752565b805180835260209291819084018484015e5f828201840152601f01601f1916010190565b6001600160a01b03165f9081527fbb80544f46fb5c2085f6bc2f792e864547c925700161a9d963eda74e9abcaae26020526040902090565b6001600160a01b03165f9081527fd23e1c200954d4d8dfbb94fac163ee8fc2dd9f8c360d040e972612b831c31b356020526040902090565b61016081019081106001600160401b0382111761085657604052565b90601f801991011681019081106001600160401b0382111761085657604052565b919082018092116114ae57565b5f1981146114ae5760010190565b60058210156108dd5752565b6001600160401b03811161085657601f01601f191660200190565b929192611826826117ff565b9161183460405193846117b7565b8294818452818301116100b3578281602093845f960137010152565b90600182811c9216801561187e575b602083101461186a57565b634e487b7160e01b5f52602260045260245ffd5b91607f169161185f565b601f821161189557505050565b5f5260205f20906020601f840160051c830193106118cd575b601f0160051c01905b8181106118c2575050565b5f81556001016118b7565b90915081906118ae565b805490680100000000000000008210156108565760018201808255821015611903575f5260205f200155565b634e487b7160e01b5f52603260045260245ffd5b3d15611941573d90611928826117ff565b9161193660405193846117b7565b82523d5f602084013e565b606090565b919082039182116114ae57565b5f929181549161196283611850565b80835292600181169081156119b7575060011461197e57505050565b5f9081526020812093945091925b83831061199d575060209250010190565b60018160209294939454838587010152019101919061198c565b915050602093945060ff929192191683830152151560051b010190565b6001600160a01b03165f8181527f35edad4c931e57ec40cedc90b9e3e052832d1b49c07eb789b019aea9b39c91d960209081526040808320546001600160e01b031990951683527f35edad4c931e57ec40cedc90b9e3e052832d1b49c07eb789b019aea9b39c91da909152902054908115611a8d575f527f35edad4c931e57ec40cedc90b9e3e052832d1b49c07eb789b019aea9b39c91d9602052600160405f2054161591821592611a8557505090565b161515919050565b505050600190565b908060209392818452848401375f828201840152601f01601f1916010190565b939094611add611aeb93611af6956080989b9a999b885260a0602089015260a0880191611a95565b918583036040870152611a95565b9560608301906116fa565b015256febb80544f46fb5c2085f6bc2f792e864547c925700161a9d963eda74e9abcaae18cc737cf11bdfd79c228a016eca672e0382ca654c2cec98e10e03faa913a76bcbb80544f46fb5c2085f6bc2f792e864547c925700161a9d963eda74e9abcaae3d23e1c200954d4d8dfbb94fac163ee8fc2dd9f8c360d040e972612b831c31b36bb80544f46fb5c2085f6bc2f792e864547c925700161a9d963eda74e9abcaae5bb80544f46fb5c2085f6bc2f792e864547c925700161a9d963eda74e9abcaae4a2646970667358221220f1694f8a57e1218024e0178b317fb1266cdd28cd2d194bec0c26a77365a3919564736f6c634300081e0033","linkReferences":{}},"methodIdentifiers":{"createLot(address,uint256,address,uint256,uint256,string,bytes,uint256)":"0d9f3875","customIdToLotId(uint256)":"14ff3606","getLot(bytes32)":"8ce16f81","getLotsOf(address)":"05424ebe","invalidateLot(bytes32)":"08af629a","lotExists(bytes32)":"964e14b7","lotIdToCustomId(bytes32)":"273f023c","nextCustomId()":"cf209d01","transferLot(bytes32,address,uint256,uint8,uint256,string,bytes)":"8bdcb65a","transferLotAs(address,bytes32,address,uint256,uint8,uint256,string,bytes)":"19cfd380"},"id":98}