{"abi":[{"type":"function","name":"TokenBalances_init","inputs":[],"outputs":[],"stateMutability":"nonpayable"},{"type":"function","name":"applyBalanceAdjustment","inputs":[{"name":"adjustmentNum","type":"uint256","internalType":"uint256"},{"name":"adjustmentDen","type":"uint256","internalType":"uint256"},{"name":"reason","type":"string","internalType":"string"}],"outputs":[],"stateMutability":"nonpayable"},{"type":"function","name":"applyCostBasisAdjustment","inputs":[{"name":"adjustmentNum","type":"uint256","internalType":"uint256"},{"name":"adjustmentDen","type":"uint256","internalType":"uint256"},{"name":"reason","type":"string","internalType":"string"}],"outputs":[],"stateMutability":"nonpayable"},{"type":"function","name":"balanceOf","inputs":[{"name":"account","type":"address","internalType":"address"}],"outputs":[{"name":"","type":"uint256","internalType":"uint256"}],"stateMutability":"view"},{"type":"function","name":"convertRawToReal","inputs":[{"name":"rawQuantity","type":"uint256","internalType":"uint256"}],"outputs":[{"name":"","type":"uint256","internalType":"uint256"}],"stateMutability":"view"},{"type":"function","name":"convertRawToRealCostBasis","inputs":[{"name":"rawBasis","type":"uint256","internalType":"uint256"}],"outputs":[{"name":"","type":"uint256","internalType":"uint256"}],"stateMutability":"view"},{"type":"function","name":"convertRealToRaw","inputs":[{"name":"realQuantity","type":"uint256","internalType":"uint256"}],"outputs":[{"name":"","type":"uint256","internalType":"uint256"}],"stateMutability":"view"},{"type":"function","name":"getAdjustmentInfo","inputs":[],"outputs":[{"name":"lastDate","type":"uint256","internalType":"uint256"},{"name":"reason","type":"string","internalType":"string"},{"name":"count","type":"uint256","internalType":"uint256"}],"stateMutability":"view"},{"type":"function","name":"getAdjustmentRatios","inputs":[],"outputs":[{"name":"adjustmentNum","type":"uint256","internalType":"uint256"},{"name":"adjustmentDen","type":"uint256","internalType":"uint256"},{"name":"costBasisNum","type":"uint256","internalType":"uint256"},{"name":"costBasisDen","type":"uint256","internalType":"uint256"}],"stateMutability":"view"},{"type":"function","name":"packedSelectors","inputs":[],"outputs":[{"name":"","type":"bytes","internalType":"bytes"}],"stateMutability":"pure"},{"type":"function","name":"rawBalanceOf","inputs":[{"name":"account","type":"address","internalType":"address"}],"outputs":[{"name":"","type":"uint256","internalType":"uint256"}],"stateMutability":"view"},{"type":"function","name":"rawTotalSupply","inputs":[],"outputs":[{"name":"","type":"uint256","internalType":"uint256"}],"stateMutability":"view"},{"type":"function","name":"totalSupply","inputs":[],"outputs":[{"name":"","type":"uint256","internalType":"uint256"}],"stateMutability":"view"},{"type":"event","name":"BalanceAdjustmentApplied","inputs":[{"name":"adjustmentNum","type":"uint256","indexed":false,"internalType":"uint256"},{"name":"adjustmentDen","type":"uint256","indexed":false,"internalType":"uint256"},{"name":"reason","type":"string","indexed":false,"internalType":"string"}],"anonymous":false},{"type":"event","name":"CostBasisAdjustmentApplied","inputs":[{"name":"adjustmentNum","type":"uint256","indexed":false,"internalType":"uint256"},{"name":"adjustmentDen","type":"uint256","indexed":false,"internalType":"uint256"},{"name":"reason","type":"string","indexed":false,"internalType":"string"}],"anonymous":false},{"type":"error","name":"AccessControl_CallerIsNotAuthorized","inputs":[{"name":"caller","type":"address","internalType":"address"},{"name":"functionSig","type":"bytes4","internalType":"bytes4"}]},{"type":"error","name":"Token_AlreadyInitialized","inputs":[]},{"type":"error","name":"Token_InvalidRatio","inputs":[]}],"bytecode":{"object":"0x6080806040523460155761106e908161001a8239f35b5f80fdfe60806040526004361015610011575f80fd5b5f358060e01c90816312064c3414610a9f57816318160ddd14610a635781633d396d92146109fd5781633e62267c1461091d5781635663775d14610661578163704cb90c146105e757816370a082311461058157816377940c2e14610282575080637d7dff0914610264578063a592d9ec14610228578063a8603ea21461020a578063cadeb1f5146101e45763ef4af41b146100ab575f80fd5b346101e0575f3660031901126101e0577f884b97143fd2abce15e00e9522133610789cde1e35b2d8c3022698f6693d36c8545f516020610fd95f395f51905f525490604051915f835f516020610fb95f395f51905f52549161010c83610b8f565b80835292600181169081156101c15750600114610156575b61013092500384610b28565b61014c6040519384938452606060208501526060840190610b04565b9060408301520390f35b505f516020610fb95f395f51905f525f90815290917f9b982c0ce5fc14b6e95bf3488c3db152680ed900651599c50ec1adc9de8297db5b8183106101a557505090602061013092820101610124565b6020919350806001915483858a0101520191019091859261018d565b6020925061013094915060ff191682840152151560051b820101610124565b5f80fd5b346101e05760203660031901126101e0576020610202600435610d0b565b604051908152f35b346101e05760203660031901126101e0576020610202600435610cd3565b346101e0575f3660031901126101e05760207f884b97143fd2abce15e00e9522133610789cde1e35b2d8c3022698f6693d36c754604051908152f35b346101e05760203660031901126101e0576020610202600435610c31565b346101e05760603660031901126101e057600435602435906044359267ffffffffffffffff84116101e057366023850112156101e057836004013567ffffffffffffffff811161054057604051946102e4601f8301601f191660200187610b28565b81865236602483830101116101e057815f9260246020930183890137860101526001600160e01b0319166103188133610c71565b1561056b575080158015610563575b61055457610386610346825f516020610ff95f395f51905f5254610b4a565b61035e845f5160206110195f395f51905f5254610b4a565b61037261036b8284610cbf565b8093610b71565b5f516020610ff95f395f51905f5255610b71565b5f5160206110195f395f51905f5255427f884b97143fd2abce15e00e9522133610789cde1e35b2d8c3022698f6693d36c85582519267ffffffffffffffff8411610540576103ea846103e55f516020610fb95f395f51905f5254610b8f565b610bc7565b602093601f81116001146104a1579061043d82610491937fc7bb26e98b5ceeaa8b6ea278590902d6cb7fcbc3223da46b0836b1e09cd3a692975f91610496575b508160011b915f199060031b1c19161790565b5f516020610fb95f395f51905f52555b6104645f516020610fd95f395f51905f5254610c23565b5f516020610fd95f395f51905f525560405193849384526020840152606060408401526060830190610b04565b0390a1005b90508301518861042a565b601f198116945f516020610fb95f395f51905f525f52805f20955f5b8181106105285750917fc7bb26e98b5ceeaa8b6ea278590902d6cb7fcbc3223da46b0836b1e09cd3a6929660019282610491969510610510575b5050811b015f516020610fb95f395f51905f525561044d565b8401515f1960f88460031b161c1916905587806104f7565b848301518855600190970196602092830192016104bd565b634e487b7160e01b5f52604160045260245ffd5b6315c402e160e11b5f5260045ffd5b508115610327565b631d64bc3360e11b5f523360045260245260445ffd5b346101e05760203660031901126101e0576004356001600160a01b03811681036101e0576001600160a01b03165f9081527f884b97143fd2abce15e00e9522133610789cde1e35b2d8c3022698f6693d36c6602090815260409091206102029054610c31565b346101e0575f3660031901126101e0575f516020610ff95f395f51905f52546106525760015f516020610ff95f395f51905f525560015f5160206110195f395f51905f525560015f516020610f995f395f51905f525560015f516020610f795f395f51905f52555f80f35b6393e721db60e01b5f5260045ffd5b346101e05760603660031901126101e057600435602435906044359267ffffffffffffffff84116101e057366023850112156101e05783600401359067ffffffffffffffff82116101e05736602483870101116101e0576001600160e01b0319166106cc8133610c71565b1561056b575081158015610915575b610554576107336106fa835f516020610f995f395f51905f5254610b4a565b610712855f516020610f795f395f51905f5254610b4a565b61071f61036b8284610cbf565b5f516020610f995f395f51905f5255610b71565b5f516020610f795f395f51905f5255427f884b97143fd2abce15e00e9522133610789cde1e35b2d8c3022698f6693d36c855610780816103e55f516020610fb95f395f51905f5254610b8f565b5f93601f821160011461084d5790806024608094936107d583807f7552bda26ad2a193e54b938a90913b3bb18e1b86ffab09e3efcdd14cb5a0a1bc9a5f9161084057508160011b915f199060031b1c19161790565b5f516020610fb95f395f51905f52555b6107fc5f516020610fd95f395f51905f5254610c23565b5f516020610fd95f395f51905f5255604051968795865260208601526060604086015282606086015201848401375f828201840152601f01601f19168101030190a1005b859150840101358b61042a565b5f516020610fb95f395f51905f525f9081527f9b982c0ce5fc14b6e95bf3488c3db152680ed900651599c50ec1adc9de8297db90601f198416905b8181106108fa5750839283927f7552bda26ad2a193e54b938a90913b3bb18e1b86ffab09e3efcdd14cb5a0a1bc9860809796602494106108df575b5050600183811b015f516020610fb95f395f51905f52556107e5565b82018301355f19600386901b60f8161c1916905588806108c3565b83880160240135835560209788019760019093019201610888565b5082156106db565b346101e0575f3660031901126101e05760408051631c132e4360e21b6020820152633bca061760e11b6024820152635663775d60e01b60288201526370a0823160e01b602c820152637d7dff0960e01b60308083019190915263cadeb1f560e01b60348301526354301f5160e11b603883015263ef4af41b60e01b603c830152631e9cb6c960e11b92820192909252630481930d60e21b6044820152632964b67b60e21b60488201526318160ddd60e01b604c8201529081526109f9906109e5605082610b28565b604051918291602083526020830190610b04565b0390f35b346101e0575f3660031901126101e05760805f516020610ff95f395f51905f52545f5160206110195f395f51905f52545f516020610f995f395f51905f52545f516020610f795f395f51905f525491604051938452602084015260408301526060820152f35b346101e0575f3660031901126101e05760206102027f884b97143fd2abce15e00e9522133610789cde1e35b2d8c3022698f6693d36c754610c31565b346101e05760203660031901126101e0576004356001600160a01b03811681036101e0576001600160a01b03165f9081527f884b97143fd2abce15e00e9522133610789cde1e35b2d8c3022698f6693d36c66020908152604090912054604051908152f35b805180835260209291819084018484015e5f828201840152601f01601f1916010190565b90601f8019910116810190811067ffffffffffffffff82111761054057604052565b81810292918115918404141715610b5d57565b634e487b7160e01b5f52601160045260245ffd5b8115610b7b570490565b634e487b7160e01b5f52601260045260245ffd5b90600182811c92168015610bbd575b6020831014610ba957565b634e487b7160e01b5f52602260045260245ffd5b91607f1691610b9e565b601f8111610bd3575050565b5f516020610fb95f395f51905f525f5260205f20906020601f840160051c83019310610c19575b601f0160051c01905b818110610c0e575050565b5f8155600101610c03565b9091508190610bfa565b5f198114610b5d5760010190565b610c495f516020610ff95f395f51905f525482610b4a565b5f5160206110195f395f51905f5254908115610c6c57610c699250610b71565b90565b505090565b81610c7b91610d43565b610cb9577f511915e52b7f9e690b9fdc662acaf5600fd3722c87eb951d3abd26e93a784dca5c9060ff8216610cb05750505f90565b610c6991610f23565b50600190565b905b8015610ccf57809106610cc1565b5090565b610ceb5f5160206110195f395f51905f525482610b4a565b5f516020610ff95f395f51905f5254908115610c6c57610c699250610b71565b610d235f516020610f995f395f51905f525482610b4a565b5f516020610f795f395f51905f5254908115610c6c57610c699250610b71565b7fce1c17acaaa67de66e928cd49c8f658667a825223bee6fda99a14908362bcdac546001600160a01b031680610e78575b5060018060a01b0381165f527fce1c17acaaa67de66e928cd49c8f658667a825223bee6fda99a14908362bcdaa60205260405f20549163ffffffff60e01b165f527fce1c17acaaa67de66e928cd49c8f658667a825223bee6fda99a14908362bcdab60205260405f2054908115610e34576001600160a01b03165f9081527fce1c17acaaa67de66e928cd49c8f658667a825223bee6fda99a14908362bcdaa60205260409020546001161515918215610e2c57505090565b161515919050565b6001600160a01b03165f9081527fce1c17acaaa67de66e928cd49c8f658667a825223bee6fda99a14908362bcdaa602052604090205460011615159150610c699050565b6040805163b700961360e01b81526001600160a01b03841660048201523060248201526001600160e01b03198516604482015291829060649082905afa5f9181610ed4575b5015610d7457610ecd575f610d74565b5050600190565b9091506040813d604011610f1b575b81610ef060409383610b28565b810103126101e05780519081151582036101e0576020015163ffffffff8116036101e057905f610ebd565b3d9150610ee3565b60ff16908115610ecd5763ffffffff60e01b165f527fce1c17acaaa67de66e928cd49c8f658667a825223bee6fda99a14908362bcdab60205260405f2054908115610f72576001901b16151590565b50505f9056fe884b97143fd2abce15e00e9522133610789cde1e35b2d8c3022698f6693d36c5884b97143fd2abce15e00e9522133610789cde1e35b2d8c3022698f6693d36c4884b97143fd2abce15e00e9522133610789cde1e35b2d8c3022698f6693d36c9884b97143fd2abce15e00e9522133610789cde1e35b2d8c3022698f6693d36ca884b97143fd2abce15e00e9522133610789cde1e35b2d8c3022698f6693d36c2884b97143fd2abce15e00e9522133610789cde1e35b2d8c3022698f6693d36c3a264697066735822122056461637bd0086178410dfb92c50b727113758591f63bcebe3b911e6ff4f4b4a64736f6c634300081e0033","linkReferences":{}},"methodIdentifiers":{"TokenBalances_init()":"704cb90c","applyBalanceAdjustment(uint256,uint256,string)":"77940c2e","applyCostBasisAdjustment(uint256,uint256,string)":"5663775d","balanceOf(address)":"70a08231","convertRawToReal(uint256)":"7d7dff09","convertRawToRealCostBasis(uint256)":"cadeb1f5","convertRealToRaw(uint256)":"a8603ea2","getAdjustmentInfo()":"ef4af41b","getAdjustmentRatios()":"3d396d92","packedSelectors()":"3e62267c","rawBalanceOf(address)":"12064c34","rawTotalSupply()":"a592d9ec","totalSupply()":"18160ddd"},"id":247}