{"abi":[{"type":"function","name":"areTransfersEnabled","inputs":[],"outputs":[{"name":"","type":"bool","internalType":"bool"}],"stateMutability":"view"},{"type":"function","name":"packedSelectors","inputs":[],"outputs":[{"name":"","type":"bytes","internalType":"bytes"}],"stateMutability":"pure"},{"type":"function","name":"setTransfersEnabled","inputs":[{"name":"enabled","type":"bool","internalType":"bool"}],"outputs":[],"stateMutability":"nonpayable"},{"type":"function","name":"validateLotTransfer","inputs":[{"name":"from","type":"address","internalType":"address"},{"name":"to","type":"address","internalType":"address"},{"name":"lotId","type":"bytes32","internalType":"bytes32"},{"name":"quantity","type":"uint256","internalType":"uint256"}],"outputs":[],"stateMutability":"view"},{"type":"function","name":"validateTransfer","inputs":[{"name":"from","type":"address","internalType":"address"},{"name":"to","type":"address","internalType":"address"}],"outputs":[],"stateMutability":"view"},{"type":"error","name":"AccessControl_CallerIsNotAuthorized","inputs":[{"name":"caller","type":"address","internalType":"address"},{"name":"functionSig","type":"bytes4","internalType":"bytes4"}]},{"type":"error","name":"Token_AccountFrozen","inputs":[]},{"type":"error","name":"Token_ComplianceCheckFailed","inputs":[]},{"type":"error","name":"Token_LotFrozen","inputs":[]},{"type":"error","name":"Token_Paused","inputs":[]}],"bytecode":{"object":"0x6080806040523460155761079f908161001a8239f35b5f80fdfe60806040526004361015610011575f80fd5b5f5f358060e01c90816326b9ce13146103dd57508063379ef195146103af5780633e62267c14610329578063588784191461016357636f475e7f14610054575f80fd5b346101605760403660031901126101605761006d610456565b61007561046c565b9060ff5f51602061074a5f395f51905f525416156101515760ff7f7a01f87f9a8f9e1b6c8162fa0fafecd3fd84d00f744103a9448c2f301ec4d70f5416610151576001600160a01b03165f9081527f7a01f87f9a8f9e1b6c8162fa0fafecd3fd84d00f744103a9448c2f301ec4d710602052604090205460ff16610142576001600160a01b03165f9081527f7a01f87f9a8f9e1b6c8162fa0fafecd3fd84d00f744103a9448c2f301ec4d710602052604090205460ff166101335780f35b6376cbdd2f60e01b8152600490fd5b6376cbdd2f60e01b8252600482fd5b631becb6a160e01b8352600483fd5b80fd5b50346103255760803660031901126103255761017d610456565b9061018661046c565b604435303b1561032557604051636f475e7f60e01b81526001600160a01b03948516600482018190529290941660248501819052935f81604481305afa801561031a57610305575b508083527f7a01f87f9a8f9e1b6c8162fa0fafecd3fd84d00f744103a9448c2f301ec4d71160205260ff6040842054166102f65790829383926040519160208301936312819ecb60e31b855260248401526044830152606482015260643560848201526084815261024060a482610482565b5190305afa3d156102ee573d9067ffffffffffffffff82116102da5760405191610274601f8201601f191660200184610482565b82523d83602084013e5b1590811561029e575b5061028f5780f35b63e66fb12d60e01b8152600490fd5b80518015159250826102b3575b50505f610287565b81925090602091810103126102d65760206102ce91016104b8565b155f806102ab565b5080fd5b634e487b7160e01b83526041600452602483fd5b60609061027e565b63459693ef60e01b8352600483fd5b6103129193505f90610482565b5f915f6101ce565b6040513d5f823e3d90fd5b5f80fd5b34610325575f366003190112610325576040805163379ef19560e01b602082019081526326b9ce1360e01b6024830152635887841960e01b6028830152636f475e7f60e01b602c830152601082529190610384603082610482565b8151928391602083525180918160208501528484015e5f828201840152601f01601f19168101030190f35b34610325575f36600319011261032557602060ff5f51602061074a5f395f51905f5254166040519015158152f35b346103255760203660031901126103255760043590811515809203610325576001600160e01b03191661041081336104c5565b15610440575060ff80195f51602061074a5f395f51905f5254169116175f51602061074a5f395f51905f52555f80f35b631d64bc3360e11b5f523360045260245260445ffd5b600435906001600160a01b038216820361032557565b602435906001600160a01b038216820361032557565b90601f8019910116810190811067ffffffffffffffff8211176104a457604052565b634e487b7160e01b5f52604160045260245ffd5b5190811515820361032557565b816104cf91610516565b610510577f511915e52b7f9e690b9fdc662acaf5600fd3722c87eb951d3abd26e93a784dca5c9060ff82166105045750505f90565b61050d916106f4565b90565b50600190565b7fce1c17acaaa67de66e928cd49c8f658667a825223bee6fda99a14908362bcdac546001600160a01b03168061064b575b5060018060a01b0381165f527fce1c17acaaa67de66e928cd49c8f658667a825223bee6fda99a14908362bcdaa60205260405f20549163ffffffff60e01b165f527fce1c17acaaa67de66e928cd49c8f658667a825223bee6fda99a14908362bcdab60205260405f2054908115610607576001600160a01b03165f9081527fce1c17acaaa67de66e928cd49c8f658667a825223bee6fda99a14908362bcdaa602052604090205460011615159182156105ff57505090565b161515919050565b6001600160a01b03165f9081527fce1c17acaaa67de66e928cd49c8f658667a825223bee6fda99a14908362bcdaa60205260409020546001161515915061050d9050565b6040805163b700961360e01b81526001600160a01b03841660048201523060248201526001600160e01b03198516604482015291829060649082905afa5f91816106a7575b5015610547576106a0575f610547565b5050600190565b9091506040813d6040116106ec575b816106c360409383610482565b810103126103255760206106d6826104b8565b91015163ffffffff81160361032557905f610690565b3d91506106b6565b60ff169081156106a05763ffffffff60e01b165f527fce1c17acaaa67de66e928cd49c8f658667a825223bee6fda99a14908362bcdab60205260405f2054908115610743576001901b16151590565b50505f9056feccf08c97b790b082ed42fcb2b4c898404a41532f3d07e8c8fe437c23ae643017a2646970667358221220e1ca9c8ac54be07007ca77957d04cfcafa1e8e8bae221fab547b1029ab0f813f64736f6c634300081e0033","linkReferences":{}},"methodIdentifiers":{"areTransfersEnabled()":"379ef195","packedSelectors()":"3e62267c","setTransfersEnabled(bool)":"26b9ce13","validateLotTransfer(address,address,bytes32,uint256)":"58878419","validateTransfer(address,address)":"6f475e7f"},"id":263}