{"abi":[{"type":"function","name":"TokenBalances_init","inputs":[],"outputs":[],"stateMutability":"nonpayable"},{"type":"function","name":"applyBalanceAdjustment","inputs":[{"name":"adjustmentNum","type":"uint256","internalType":"uint256"},{"name":"adjustmentDen","type":"uint256","internalType":"uint256"},{"name":"reason","type":"string","internalType":"string"}],"outputs":[],"stateMutability":"nonpayable"},{"type":"function","name":"applyCostBasisAdjustment","inputs":[{"name":"adjustmentNum","type":"uint256","internalType":"uint256"},{"name":"adjustmentDen","type":"uint256","internalType":"uint256"},{"name":"reason","type":"string","internalType":"string"}],"outputs":[],"stateMutability":"nonpayable"},{"type":"function","name":"balanceOf","inputs":[{"name":"account","type":"address","internalType":"address"}],"outputs":[{"name":"","type":"uint256","internalType":"uint256"}],"stateMutability":"view"},{"type":"function","name":"convertRawToReal","inputs":[{"name":"rawQuantity","type":"uint256","internalType":"uint256"}],"outputs":[{"name":"","type":"uint256","internalType":"uint256"}],"stateMutability":"view"},{"type":"function","name":"convertRawToRealCostBasis","inputs":[{"name":"rawBasis","type":"uint256","internalType":"uint256"}],"outputs":[{"name":"","type":"uint256","internalType":"uint256"}],"stateMutability":"view"},{"type":"function","name":"convertRealToRaw","inputs":[{"name":"realQuantity","type":"uint256","internalType":"uint256"}],"outputs":[{"name":"","type":"uint256","internalType":"uint256"}],"stateMutability":"view"},{"type":"function","name":"initializeBalances","inputs":[],"outputs":[],"stateMutability":"nonpayable"},{"type":"function","name":"rawBalanceOf","inputs":[{"name":"account","type":"address","internalType":"address"}],"outputs":[{"name":"","type":"uint256","internalType":"uint256"}],"stateMutability":"view"},{"type":"function","name":"rawTotalSupply","inputs":[],"outputs":[{"name":"","type":"uint256","internalType":"uint256"}],"stateMutability":"view"},{"type":"function","name":"totalSupply","inputs":[],"outputs":[{"name":"","type":"uint256","internalType":"uint256"}],"stateMutability":"view"},{"type":"event","name":"BalanceAdjustmentApplied","inputs":[{"name":"adjustmentNum","type":"uint256","indexed":false,"internalType":"uint256"},{"name":"adjustmentDen","type":"uint256","indexed":false,"internalType":"uint256"},{"name":"reason","type":"string","indexed":false,"internalType":"string"}],"anonymous":false},{"type":"event","name":"CostBasisAdjustmentApplied","inputs":[{"name":"adjustmentNum","type":"uint256","indexed":false,"internalType":"uint256"},{"name":"adjustmentDen","type":"uint256","indexed":false,"internalType":"uint256"},{"name":"reason","type":"string","indexed":false,"internalType":"string"}],"anonymous":false},{"type":"event","name":"Initialized","inputs":[{"name":"version","type":"uint64","indexed":false,"internalType":"uint64"}],"anonymous":false},{"type":"event","name":"Transfer","inputs":[{"name":"from","type":"address","indexed":true,"internalType":"address"},{"name":"to","type":"address","indexed":true,"internalType":"address"},{"name":"amount","type":"uint256","indexed":false,"internalType":"uint256"}],"anonymous":false},{"type":"error","name":"CallerIsNotAuthorized","inputs":[]},{"type":"error","name":"DelegateNotAllowed","inputs":[]},{"type":"error","name":"InvalidInitialization","inputs":[]},{"type":"error","name":"NotInitializing","inputs":[]},{"type":"error","name":"OnlyDelegate","inputs":[]},{"type":"error","name":"ReentrancyGuardReentrantCall","inputs":[]}],"bytecode":{"object":"0x60a0806040523460b457306080525f516020610feb5f395f51905f525460ff8160401c1660a5576002600160401b03196001600160401b038216016053575b604051610f3290816100b98239608051815050f35b6001600160401b0319166001600160401b039081175f516020610feb5f395f51905f525581527fc7f505b2f371ae2175ee4913f4499e1f2633a7b5936321eed1cdaeb6115181d290602090a15f80603e565b63f92ee8a960e01b5f5260045ffd5b5f80fdfe60806040526004361015610011575f80fd5b5f358060e01c806312064c3414610b8257806318160ddd14610b465780635663775d14610983578063704cb90c1461087557806370a08231146107f257806377940c2e146103a45780637d7dff0914610386578063a592d9ec1461034a578063a8603ea21461032c578063cadeb1f5146102b95763f232e35114610093575f80fd5b346102b5575f3660031901126102b5576040516301ffc9a760e01b8152639f3dfa9560e01b6004820152602081602481305afa90811561028b575f91610296575b501561023457604051630435f69f60e51b81523360048201527fffffffff00000000000000000000000000000000000000000000000000000000919091166024820152602081604481305afa90811561028b575f9161025c575b5015610234576102325f7f1e4aaaa99f6df78fec1b4ccd91a73db6b79cd07fbf36aaeb793f4fa979f221265560017f1e4aaaa99f6df78fec1b4ccd91a73db6b79cd07fbf36aaeb793f4fa979f221215560017f1e4aaaa99f6df78fec1b4ccd91a73db6b79cd07fbf36aaeb793f4fa979f221225560017f1e4aaaa99f6df78fec1b4ccd91a73db6b79cd07fbf36aaeb793f4fa979f221235560017f1e4aaaa99f6df78fec1b4ccd91a73db6b79cd07fbf36aaeb793f4fa979f22124555f7f1e4aaaa99f6df78fec1b4ccd91a73db6b79cd07fbf36aaeb793f4fa979f22128555f7f1e4aaaa99f6df78fec1b4ccd91a73db6b79cd07fbf36aaeb793f4fa979f2212b55565b005b7f2e575215000000000000000000000000000000000000000000000000000000005f5260045ffd5b61027e915060203d602011610284575b6102768183610c05565b810190610ca7565b5f61012e565b503d61026c565b6040513d5f823e3d90fd5b6102af915060203d602011610284576102768183610c05565b5f6100d4565b5f80fd5b346102b55760203660031901126102b55760206103246102fc7f1e4aaaa99f6df78fec1b4ccd91a73db6b79cd07fbf36aaeb793f4fa979f2212454600435610d73565b7f1e4aaaa99f6df78fec1b4ccd91a73db6b79cd07fbf36aaeb793f4fa979f221235490610dbe565b604051908152f35b346102b55760203660031901126102b5576020610324600435610e70565b346102b5575f3660031901126102b55760207f1e4aaaa99f6df78fec1b4ccd91a73db6b79cd07fbf36aaeb793f4fa979f2212654604051908152f35b346102b55760203660031901126102b5576020610324600435610ddc565b50346102b5576103b336610c27565b91926040516301ffc9a760e01b8152639f3dfa9560e01b6004820152602081602481305afa90811561028b575f916107d3575b501561023457604051630435f69f60e51b81523360048201527fffffffff00000000000000000000000000000000000000000000000000000000919091166024820152602081604481305afa90811561028b575f916107b4575b501561023457610451831515610cbf565b61045c811515610d19565b610487837f1e4aaaa99f6df78fec1b4ccd91a73db6b79cd07fbf36aaeb793f4fa979f2212154610d73565b7f1e4aaaa99f6df78fec1b4ccd91a73db6b79cd07fbf36aaeb793f4fa979f22121556104d4817f1e4aaaa99f6df78fec1b4ccd91a73db6b79cd07fbf36aaeb793f4fa979f2212254610d73565b7f1e4aaaa99f6df78fec1b4ccd91a73db6b79cd07fbf36aaeb793f4fa979f2212255427f1e4aaaa99f6df78fec1b4ccd91a73db6b79cd07fbf36aaeb793f4fa979f221295581519267ffffffffffffffff84116107a0577f1e4aaaa99f6df78fec1b4ccd91a73db6b79cd07fbf36aaeb793f4fa979f2212a54600181811c91168015610796575b602082101461078257601f8111610700575b50602093601f81116001146106605780919293945f91610655575b508160011b915f199060031b1c1916177f1e4aaaa99f6df78fec1b4ccd91a73db6b79cd07fbf36aaeb793f4fa979f2212a555b7f1e4aaaa99f6df78fec1b4ccd91a73db6b79cd07fbf36aaeb793f4fa979f2212b545f198114610641577fc7bb26e98b5ceeaa8b6ea278590902d6cb7fcbc3223da46b0836b1e09cd3a69293600161063c92017f1e4aaaa99f6df78fec1b4ccd91a73db6b79cd07fbf36aaeb793f4fa979f2212b5560405193849384610d86565b0390a1005b634e487b7160e01b5f52601160045260245ffd5b90508401515f610588565b601f198116947f1e4aaaa99f6df78fec1b4ccd91a73db6b79cd07fbf36aaeb793f4fa979f2212a5f52805f20905f5b8781106106e8575082600194959697106106d0575b5050811b017f1e4aaaa99f6df78fec1b4ccd91a73db6b79cd07fbf36aaeb793f4fa979f2212a556105bb565b8601515f1960f88460031b161c191690555f806106a4565b9091602060018192858a01518155019301910161068f565b7f1e4aaaa99f6df78fec1b4ccd91a73db6b79cd07fbf36aaeb793f4fa979f2212a5f527fc3b764cbc20f7895c84e94b8132922da4f58bba0aafebcfb043e80b2e82c3b10601f860160051c81019160208710610778575b601f0160051c01905b81811061076d575061056d565b5f8155600101610760565b9091508190610757565b634e487b7160e01b5f52602260045260245ffd5b90607f169061055b565b634e487b7160e01b5f52604160045260245ffd5b6107cd915060203d602011610284576102768183610c05565b5f610440565b6107ec915060203d602011610284576102768183610c05565b5f6103e6565b346102b55760203660031901126102b55760043573ffffffffffffffffffffffffffffffffffffffff811681036102b55761032461086f60209273ffffffffffffffffffffffffffffffffffffffff165f527f1e4aaaa99f6df78fec1b4ccd91a73db6b79cd07fbf36aaeb793f4fa979f2212560205260405f2090565b54610ddc565b346102b5575f3660031901126102b5576102325f7f1e4aaaa99f6df78fec1b4ccd91a73db6b79cd07fbf36aaeb793f4fa979f221265560017f1e4aaaa99f6df78fec1b4ccd91a73db6b79cd07fbf36aaeb793f4fa979f221215560017f1e4aaaa99f6df78fec1b4ccd91a73db6b79cd07fbf36aaeb793f4fa979f221225560017f1e4aaaa99f6df78fec1b4ccd91a73db6b79cd07fbf36aaeb793f4fa979f221235560017f1e4aaaa99f6df78fec1b4ccd91a73db6b79cd07fbf36aaeb793f4fa979f22124555f7f1e4aaaa99f6df78fec1b4ccd91a73db6b79cd07fbf36aaeb793f4fa979f22128555f7f1e4aaaa99f6df78fec1b4ccd91a73db6b79cd07fbf36aaeb793f4fa979f2212b55565b50346102b55761099236610c27565b926040929192516301ffc9a760e01b8152639f3dfa9560e01b6004820152602081602481305afa90811561028b575f91610b27575b501561023457604051630435f69f60e51b81523360048201527fffffffff00000000000000000000000000000000000000000000000000000000919091166024820152602081604481305afa90811561028b575f91610b08575b50156102345761063c7f7552bda26ad2a193e54b938a90913b3bb18e1b86ffab09e3efcdd14cb5a0a1bc93610a57831515610cbf565b610a62841515610d19565b610a8d837f1e4aaaa99f6df78fec1b4ccd91a73db6b79cd07fbf36aaeb793f4fa979f2212354610d73565b7f1e4aaaa99f6df78fec1b4ccd91a73db6b79cd07fbf36aaeb793f4fa979f2212355610ada847f1e4aaaa99f6df78fec1b4ccd91a73db6b79cd07fbf36aaeb793f4fa979f2212454610d73565b7f1e4aaaa99f6df78fec1b4ccd91a73db6b79cd07fbf36aaeb793f4fa979f221245560405193849384610d86565b610b21915060203d602011610284576102768183610c05565b5f610a21565b610b40915060203d602011610284576102768183610c05565b5f6109c7565b346102b5575f3660031901126102b55760206103247f1e4aaaa99f6df78fec1b4ccd91a73db6b79cd07fbf36aaeb793f4fa979f2212654610ddc565b346102b55760203660031901126102b55760043573ffffffffffffffffffffffffffffffffffffffff811681036102b557610bfc60209173ffffffffffffffffffffffffffffffffffffffff165f527f1e4aaaa99f6df78fec1b4ccd91a73db6b79cd07fbf36aaeb793f4fa979f2212560205260405f2090565b54604051908152f35b90601f8019910116810190811067ffffffffffffffff8211176107a057604052565b60606003198201126102b557600435916024359160443567ffffffffffffffff81116102b557816023820112156102b55780600401359067ffffffffffffffff82116107a05760405192610c85601f8401601f191660200185610c05565b828452602483830101116102b557815f92602460209301838601378301015290565b908160209103126102b5575180151581036102b55790565b15610cc657565b608460405162461bcd60e51b815260206004820152602660248201527f42616c616e6365733a2061646a7573746d656e744e756d2063616e6e6f74206260448201526565207a65726f60d01b6064820152fd5b15610d2057565b608460405162461bcd60e51b815260206004820152602660248201527f42616c616e6365733a2061646a7573746d656e7444656e2063616e6e6f74206260448201526565207a65726f60d01b6064820152fd5b8181029291811591840414171561064157565b9192608093602092845282840152606060408401528051918291826060860152018484015e5f828201840152601f01601f1916010190565b8115610dc8570490565b634e487b7160e01b5f52601260045260245ffd5b7f1e4aaaa99f6df78fec1b4ccd91a73db6b79cd07fbf36aaeb793f4fa979f221215480158015610e47575b610e4357610e1890610e4092610d73565b7f1e4aaaa99f6df78fec1b4ccd91a73db6b79cd07fbf36aaeb793f4fa979f221225490610dbe565b90565b5090565b507f1e4aaaa99f6df78fec1b4ccd91a73db6b79cd07fbf36aaeb793f4fa979f221225415610e07565b7f1e4aaaa99f6df78fec1b4ccd91a73db6b79cd07fbf36aaeb793f4fa979f221215480158015610ed3575b610e4357610ece610e40927f1e4aaaa99f6df78fec1b4ccd91a73db6b79cd07fbf36aaeb793f4fa979f221225490610d73565b610dbe565b507f1e4aaaa99f6df78fec1b4ccd91a73db6b79cd07fbf36aaeb793f4fa979f221225415610e9b56fea2646970667358221220769b5c4823ac7947ed4ee1e0a2058098e6e86f05cfe8d077d9a9f9e3a7092a7064736f6c634300081c0033f0c57e16840df040f15088dc2f81fe391c3923bec73e23a9662efc9c229c6a00","linkReferences":{}},"methodIdentifiers":{"TokenBalances_init()":"704cb90c","applyBalanceAdjustment(uint256,uint256,string)":"77940c2e","applyCostBasisAdjustment(uint256,uint256,string)":"5663775d","balanceOf(address)":"70a08231","convertRawToReal(uint256)":"7d7dff09","convertRawToRealCostBasis(uint256)":"cadeb1f5","convertRealToRaw(uint256)":"a8603ea2","initializeBalances()":"f232e351","rawBalanceOf(address)":"12064c34","rawTotalSupply()":"a592d9ec","totalSupply()":"18160ddd"},"id":192}