{"abi":[{"type":"function","name":"CFI_COMMON_SHARES","inputs":[],"outputs":[{"name":"","type":"bytes6","internalType":"bytes6"}],"stateMutability":"view"},{"type":"function","name":"CFI_DAO_TOKEN","inputs":[],"outputs":[{"name":"","type":"bytes6","internalType":"bytes6"}],"stateMutability":"view"},{"type":"function","name":"CFI_DEBT","inputs":[],"outputs":[{"name":"","type":"bytes6","internalType":"bytes6"}],"stateMutability":"view"},{"type":"function","name":"CFI_PREFERRED_SHARES","inputs":[],"outputs":[{"name":"","type":"bytes6","internalType":"bytes6"}],"stateMutability":"view"},{"type":"function","name":"CFI_SAFE","inputs":[],"outputs":[{"name":"","type":"bytes6","internalType":"bytes6"}],"stateMutability":"view"},{"type":"function","name":"CFI_TOKENIZED_ASSET","inputs":[],"outputs":[{"name":"","type":"bytes6","internalType":"bytes6"}],"stateMutability":"view"},{"type":"function","name":"CFI_UNITS","inputs":[],"outputs":[{"name":"","type":"bytes6","internalType":"bytes6"}],"stateMutability":"view"},{"type":"function","name":"TokenType_init","inputs":[{"name":"cfiCode","type":"bytes6","internalType":"bytes6"},{"name":"assetType","type":"string","internalType":"string"}],"outputs":[],"stateMutability":"nonpayable"},{"type":"function","name":"getAssetType","inputs":[],"outputs":[{"name":"assetType","type":"string","internalType":"string"}],"stateMutability":"view"},{"type":"function","name":"getCfiCode","inputs":[],"outputs":[{"name":"cfiCode","type":"bytes6","internalType":"bytes6"}],"stateMutability":"view"},{"type":"function","name":"getTokenClassification","inputs":[],"outputs":[{"name":"cfiCode","type":"bytes6","internalType":"bytes6"},{"name":"assetType","type":"string","internalType":"string"}],"stateMutability":"view"},{"type":"function","name":"isTokenTypeInitialized","inputs":[],"outputs":[{"name":"initialized","type":"bool","internalType":"bool"}],"stateMutability":"view"},{"type":"function","name":"packedSelectors","inputs":[],"outputs":[{"name":"","type":"bytes","internalType":"bytes"}],"stateMutability":"pure"},{"type":"event","name":"TokenTypeSet","inputs":[{"name":"cfiCode","type":"bytes6","indexed":true,"internalType":"bytes6"},{"name":"assetType","type":"string","indexed":false,"internalType":"string"}],"anonymous":false},{"type":"error","name":"TokenType_AlreadyInitialized","inputs":[]},{"type":"error","name":"TokenType_InvalidAssetType","inputs":[]},{"type":"error","name":"TokenType_InvalidCfiCode","inputs":[]}],"bytecode":{"object":"0x608080604052346015576108d1908161001a8239f35b5f80fdfe60806040526004361015610011575f80fd5b5f3560e01c80630d0f4d02146104bf578063236afa5a1461049b5780632761c4bf146104775780633e62267c146103af5780636c702e3f14610378578063833dd04d14610354578063896317b8146102715780638bd2c8261461024d5780638f35981014610229578063adbcac3014610205578063b976ae8a146100fe578063ede5850f146100da5763f4c4a5c8146100a8575f80fd5b346100d6575f3660031901126100d657602060ff5f51602061085c5f395f51905f5254166040519015158152f35b5f80fd5b346100d6575f3660031901126100d6576040516504454303030360d41b8152602090f35b346100d6575f3660031901126100d6575f51602061087c5f395f51905f525460d01b604051905f825f51602061083c5f395f51905f52549161013f836107ad565b80835292600181169081156101e6575060011461018e575b610163925003836107e5565b61018a60405192839265ffffffffffff60d01b168352604060208401526040830190610789565b0390f35b505f51602061083c5f395f51905f525f90815290915f51602061081c5f395f51905f525b8183106101ca57505090602061016392820101610157565b60209193508060019154838589010152019101909184926101b2565b6020925061016394915060ff191682840152151560051b820101610157565b346100d6575f3660031901126100d6576040516504555303030360d41b8152602090f35b346100d6575f3660031901126100d6576040516504550303030360d41b8152602090f35b346100d6575f3660031901126100d6576040516504553303030360d41b8152602090f35b346100d6575f3660031901126100d6576040515f5f51602061083c5f395f51905f525461029d816107ad565b808452906001811690811561033057506001146102d9575b61018a836102c5818503826107e5565b604051918291602083526020830190610789565b5f51602061083c5f395f51905f525f9081525f51602061081c5f395f51905f52939250905b808210610316575090915081016020016102c56102b5565b9192600181602092548385880101520191019092916102fe565b60ff191660208086019190915291151560051b840190910191506102c590506102b5565b346100d6575f3660031901126100d657604051654d43544b4e4160d01b8152602090f35b346100d6575f3660031901126100d65760205f51602061087c5f395f51905f525460d01b6040519065ffffffffffff60d01b168152f35b346100d6575f3660031901126100d657604080516345e9641360e11b60208201526311b57d2d60e11b602482015263ede5850f60e01b60288201526308f3598160e41b602c820152632761c4bf60e01b60308083019190915263833dd04d60e01b6034830152630adbcac360e41b6038830152630687a68160e11b603c83015263112c62f760e31b92820192909252636c702e3f60e01b6044820152635cbb574560e11b6048820152631e9894b960e31b604c82015290815261018a906102c56050826107e5565b346100d6575f3660031901126100d657604051654d435341464560d01b8152602090f35b346100d6575f3660031901126100d657604051651350d11053d560d21b8152602090f35b346100d65760403660031901126100d6576004356001600160d01b031981168082036100d65760243567ffffffffffffffff81116100d657366023820112156100d65780600401359267ffffffffffffffff84116100d65736602485840101116100d65760ff5f51602061085c5f395f51905f52541661077a57821561076b57831561075c5760d01c65ffffffffffff195f51602061087c5f395f51905f525416175f51602061087c5f395f51905f52556105875f51602061083c5f395f51905f52546107ad565b601f8111610700575b505f92601f811160011461064c57602491816040927fae235d699a92064786f1d2cfccb9e25c2889abab69235a95657d8ae9aa087f5e95965f9161063f575b508160011b905f198360031b1c1916175f51602061083c5f395f51905f52555b600160ff195f51602061085c5f395f51905f525416175f51602061085c5f395f51905f52558083519485936020855282602086015201848401375f828201840152601f01601f19168101030190a2005b85915083010135876105cf565b5f51602061083c5f395f51905f525f9081525f51602061081c5f395f51905f5290601f198316905b8181106106e5575091602493917fae235d699a92064786f1d2cfccb9e25c2889abab69235a95657d8ae9aa087f5e959682604095106106ca575b5050600181811b015f51602061083c5f395f51905f52556105ef565b83018501355f19600384901b60f8161c1916905586806106ae565b84870160240135835560209687019660019093019201610674565b5f51602061083c5f395f51905f525f525f51602061081c5f395f51905f52601f850160051c81019160208610610752575b601f0160051c01905b8181106107475750610590565b5f815560010161073a565b9091508190610731565b63b1a2eb5560e01b5f5260045ffd5b6328d3787560e01b5f5260045ffd5b63645fb12b60e11b5f5260045ffd5b805180835260209291819084018484015e5f828201840152601f01601f1916010190565b90600182811c921680156107db575b60208310146107c757565b634e487b7160e01b5f52602260045260245ffd5b91607f16916107bc565b90601f8019910116810190811067ffffffffffffffff82111761080757604052565b634e487b7160e01b5f52604160045260245ffdfe4cdf6b4eea34685cb21b9e233445d5915fd30fe882e750ac23217a7eb83bc79f877708917c957a56ab52bf3d0b37664ebc4b35ceb74f0091fa7dcca3f8cb74bb877708917c957a56ab52bf3d0b37664ebc4b35ceb74f0091fa7dcca3f8cb74bc877708917c957a56ab52bf3d0b37664ebc4b35ceb74f0091fa7dcca3f8cb74baa264697066735822122099aa6952dbcd849ffa47d3cef30acdea63708f367f05e59db2eb48eba7e0029064736f6c634300081e0033","linkReferences":{}},"methodIdentifiers":{"CFI_COMMON_SHARES()":"8bd2c826","CFI_DAO_TOKEN()":"236afa5a","CFI_DEBT()":"ede5850f","CFI_PREFERRED_SHARES()":"8f359810","CFI_SAFE()":"2761c4bf","CFI_TOKENIZED_ASSET()":"833dd04d","CFI_UNITS()":"adbcac30","TokenType_init(bytes6,string)":"0d0f4d02","getAssetType()":"896317b8","getCfiCode()":"6c702e3f","getTokenClassification()":"b976ae8a","isTokenTypeInitialized()":"f4c4a5c8","packedSelectors()":"3e62267c"},"id":264}