{"abi":[{"type":"function","name":"TokenBalances_init","inputs":[],"outputs":[],"stateMutability":"nonpayable"},{"type":"function","name":"applyBalanceAdjustment","inputs":[{"name":"adjustmentNum","type":"uint256","internalType":"uint256"},{"name":"adjustmentDen","type":"uint256","internalType":"uint256"},{"name":"reason","type":"string","internalType":"string"}],"outputs":[],"stateMutability":"nonpayable"},{"type":"function","name":"applyCostBasisAdjustment","inputs":[{"name":"adjustmentNum","type":"uint256","internalType":"uint256"},{"name":"adjustmentDen","type":"uint256","internalType":"uint256"},{"name":"reason","type":"string","internalType":"string"}],"outputs":[],"stateMutability":"nonpayable"},{"type":"function","name":"balanceOf","inputs":[{"name":"account","type":"address","internalType":"address"}],"outputs":[{"name":"","type":"uint256","internalType":"uint256"}],"stateMutability":"view"},{"type":"function","name":"convertRawToReal","inputs":[{"name":"rawQuantity","type":"uint256","internalType":"uint256"}],"outputs":[{"name":"","type":"uint256","internalType":"uint256"}],"stateMutability":"view"},{"type":"function","name":"convertRawToRealCostBasis","inputs":[{"name":"rawBasis","type":"uint256","internalType":"uint256"}],"outputs":[{"name":"","type":"uint256","internalType":"uint256"}],"stateMutability":"view"},{"type":"function","name":"convertRealToRaw","inputs":[{"name":"realQuantity","type":"uint256","internalType":"uint256"}],"outputs":[{"name":"","type":"uint256","internalType":"uint256"}],"stateMutability":"view"},{"type":"function","name":"getAdjustmentInfo","inputs":[],"outputs":[{"name":"lastDate","type":"uint256","internalType":"uint256"},{"name":"reason","type":"string","internalType":"string"},{"name":"count","type":"uint256","internalType":"uint256"}],"stateMutability":"view"},{"type":"function","name":"getAdjustmentRatios","inputs":[],"outputs":[{"name":"adjustmentNum","type":"uint256","internalType":"uint256"},{"name":"adjustmentDen","type":"uint256","internalType":"uint256"},{"name":"costBasisNum","type":"uint256","internalType":"uint256"},{"name":"costBasisDen","type":"uint256","internalType":"uint256"}],"stateMutability":"view"},{"type":"function","name":"rawBalanceOf","inputs":[{"name":"account","type":"address","internalType":"address"}],"outputs":[{"name":"","type":"uint256","internalType":"uint256"}],"stateMutability":"view"},{"type":"function","name":"rawTotalSupply","inputs":[],"outputs":[{"name":"","type":"uint256","internalType":"uint256"}],"stateMutability":"view"},{"type":"function","name":"totalSupply","inputs":[],"outputs":[{"name":"","type":"uint256","internalType":"uint256"}],"stateMutability":"view"},{"type":"event","name":"BalanceAdjustmentApplied","inputs":[{"name":"adjustmentNum","type":"uint256","indexed":false,"internalType":"uint256"},{"name":"adjustmentDen","type":"uint256","indexed":false,"internalType":"uint256"},{"name":"reason","type":"string","indexed":false,"internalType":"string"}],"anonymous":false},{"type":"event","name":"CostBasisAdjustmentApplied","inputs":[{"name":"adjustmentNum","type":"uint256","indexed":false,"internalType":"uint256"},{"name":"adjustmentDen","type":"uint256","indexed":false,"internalType":"uint256"},{"name":"reason","type":"string","indexed":false,"internalType":"string"}],"anonymous":false},{"type":"error","name":"AccessControl_CallerIsNotAuthorized","inputs":[{"name":"caller","type":"address","internalType":"address"},{"name":"functionSig","type":"bytes4","internalType":"bytes4"}]},{"type":"error","name":"Token_AlreadyInitialized","inputs":[]},{"type":"error","name":"Token_InvalidRatio","inputs":[]}],"bytecode":{"object":"0x60808060405234601557610dc1908161001a8239f35b5f80fdfe60806040526004361015610011575f80fd5b5f358060e01c90816312064c34146109b457816318160ddd146109785781633d396d92146109125781635663775d14610656578163704cb90c146105dc57816370a082311461057657816377940c2e14610277575080637d7dff0914610259578063a592d9ec1461021d578063a8603ea2146101ff578063cadeb1f5146101d95763ef4af41b146100a0575f80fd5b346101d5575f3660031901126101d5577fd23e1c200954d4d8dfbb94fac163ee8fc2dd9f8c360d040e972612b831c31b37545f516020610cec5f395f51905f525490604051915f835f516020610d0c5f395f51905f52549161010183610aa4565b80835292600181169081156101b6575060011461014b575b61012592500384610a19565b6101416040519384938452606060208501526060840190610a3b565b9060408301520390f35b505f516020610d0c5f395f51905f525f90815290917f3358493536758833ee160d713f70cab0c0b5bbfb4f6bc8e94c2c22994aa712c65b81831061019a57505090602061012592820101610119565b6020919350806001915483858a01015201910190918592610182565b6020925061012594915060ff191682840152151560051b820101610119565b5f80fd5b346101d55760203660031901126101d55760206101f7600435610c93565b604051908152f35b346101d55760203660031901126101d55760206101f7600435610c5b565b346101d5575f3660031901126101d55760207fd23e1c200954d4d8dfbb94fac163ee8fc2dd9f8c360d040e972612b831c31b3654604051908152f35b346101d55760203660031901126101d55760206101f7600435610b46565b346101d55760603660031901126101d557600435602435906044359267ffffffffffffffff84116101d557366023850112156101d557836004013567ffffffffffffffff811161053557604051946102d9601f8301601f191660200187610a19565b81865236602483830101116101d557815f9260246020930183890137860101526001600160e01b03191661030d8133610b86565b15610560575080158015610558575b6105495761037b61033b825f516020610d6c5f395f51905f5254610a5f565b610353845f516020610d4c5f395f51905f5254610a5f565b6103676103608284610c47565b8093610a86565b5f516020610d6c5f395f51905f5255610a86565b5f516020610d4c5f395f51905f5255427fd23e1c200954d4d8dfbb94fac163ee8fc2dd9f8c360d040e972612b831c31b375582519267ffffffffffffffff8411610535576103df846103da5f516020610d0c5f395f51905f5254610aa4565b610adc565b602093601f8111600114610496579061043282610486937fc7bb26e98b5ceeaa8b6ea278590902d6cb7fcbc3223da46b0836b1e09cd3a692975f9161048b575b508160011b915f199060031b1c19161790565b5f516020610d0c5f395f51905f52555b6104595f516020610cec5f395f51905f5254610b38565b5f516020610cec5f395f51905f525560405193849384526020840152606060408401526060830190610a3b565b0390a1005b90508301518861041f565b601f198116945f516020610d0c5f395f51905f525f52805f20955f5b81811061051d5750917fc7bb26e98b5ceeaa8b6ea278590902d6cb7fcbc3223da46b0836b1e09cd3a6929660019282610486969510610505575b5050811b015f516020610d0c5f395f51905f5255610442565b8401515f1960f88460031b161c1916905587806104ec565b848301518855600190970196602092830192016104b2565b634e487b7160e01b5f52604160045260245ffd5b6315c402e160e11b5f5260045ffd5b50811561031c565b631d64bc3360e11b5f523360045260245260445ffd5b346101d55760203660031901126101d5576004356001600160a01b03811681036101d5576001600160a01b03165f9081527fd23e1c200954d4d8dfbb94fac163ee8fc2dd9f8c360d040e972612b831c31b35602090815260409091206101f79054610b46565b346101d5575f3660031901126101d5575f516020610d6c5f395f51905f52546106475760015f516020610d6c5f395f51905f525560015f516020610d4c5f395f51905f525560015f516020610d2c5f395f51905f525560015f516020610ccc5f395f51905f52555f80f35b6393e721db60e01b5f5260045ffd5b346101d55760603660031901126101d557600435602435906044359267ffffffffffffffff84116101d557366023850112156101d55783600401359067ffffffffffffffff82116101d55736602483870101116101d5576001600160e01b0319166106c18133610b86565b1561056057508115801561090a575b610549576107286106ef835f516020610d2c5f395f51905f5254610a5f565b610707855f516020610ccc5f395f51905f5254610a5f565b6107146103608284610c47565b5f516020610d2c5f395f51905f5255610a86565b5f516020610ccc5f395f51905f5255427fd23e1c200954d4d8dfbb94fac163ee8fc2dd9f8c360d040e972612b831c31b3755610775816103da5f516020610d0c5f395f51905f5254610aa4565b5f93601f82116001146108425790806024608094936107ca83807f7552bda26ad2a193e54b938a90913b3bb18e1b86ffab09e3efcdd14cb5a0a1bc9a5f9161083557508160011b915f199060031b1c19161790565b5f516020610d0c5f395f51905f52555b6107f15f516020610cec5f395f51905f5254610b38565b5f516020610cec5f395f51905f5255604051968795865260208601526060604086015282606086015201848401375f828201840152601f01601f19168101030190a1005b859150840101358b61041f565b5f516020610d0c5f395f51905f525f9081527f3358493536758833ee160d713f70cab0c0b5bbfb4f6bc8e94c2c22994aa712c690601f198416905b8181106108ef5750839283927f7552bda26ad2a193e54b938a90913b3bb18e1b86ffab09e3efcdd14cb5a0a1bc9860809796602494106108d4575b5050600183811b015f516020610d0c5f395f51905f52556107da565b82018301355f19600386901b60f8161c1916905588806108b8565b8388016024013583556020978801976001909301920161087d565b5082156106d0565b346101d5575f3660031901126101d55760805f516020610d6c5f395f51905f52545f516020610d4c5f395f51905f52545f516020610d2c5f395f51905f52545f516020610ccc5f395f51905f525491604051938452602084015260408301526060820152f35b346101d5575f3660031901126101d55760206101f77fd23e1c200954d4d8dfbb94fac163ee8fc2dd9f8c360d040e972612b831c31b3654610b46565b346101d55760203660031901126101d5576004356001600160a01b03811681036101d5576001600160a01b03165f9081527fd23e1c200954d4d8dfbb94fac163ee8fc2dd9f8c360d040e972612b831c31b356020908152604090912054604051908152f35b90601f8019910116810190811067ffffffffffffffff82111761053557604052565b805180835260209291819084018484015e5f828201840152601f01601f1916010190565b81810292918115918404141715610a7257565b634e487b7160e01b5f52601160045260245ffd5b8115610a90570490565b634e487b7160e01b5f52601260045260245ffd5b90600182811c92168015610ad2575b6020831014610abe57565b634e487b7160e01b5f52602260045260245ffd5b91607f1691610ab3565b601f8111610ae8575050565b5f516020610d0c5f395f51905f525f5260205f20906020601f840160051c83019310610b2e575b601f0160051c01905b818110610b23575050565b5f8155600101610b18565b9091508190610b0f565b5f198114610a725760010190565b610b5e5f516020610d6c5f395f51905f525482610a5f565b5f516020610d4c5f395f51905f5254908115610b8157610b7e9250610a86565b90565b505090565b6001600160a01b03165f8181527f35edad4c931e57ec40cedc90b9e3e052832d1b49c07eb789b019aea9b39c91d960209081526040808320546001600160e01b031990951683527f35edad4c931e57ec40cedc90b9e3e052832d1b49c07eb789b019aea9b39c91da909152902054908115610c3f575f527f35edad4c931e57ec40cedc90b9e3e052832d1b49c07eb789b019aea9b39c91d9602052600160405f2054161591821592610c3757505090565b161515919050565b505050600190565b905b8015610c5757809106610c49565b5090565b610c735f516020610d4c5f395f51905f525482610a5f565b5f516020610d6c5f395f51905f5254908115610b8157610b7e9250610a86565b610cab5f516020610d2c5f395f51905f525482610a5f565b5f516020610ccc5f395f51905f5254908115610b8157610b7e9250610a8656fed23e1c200954d4d8dfbb94fac163ee8fc2dd9f8c360d040e972612b831c31b34d23e1c200954d4d8dfbb94fac163ee8fc2dd9f8c360d040e972612b831c31b39d23e1c200954d4d8dfbb94fac163ee8fc2dd9f8c360d040e972612b831c31b38d23e1c200954d4d8dfbb94fac163ee8fc2dd9f8c360d040e972612b831c31b33d23e1c200954d4d8dfbb94fac163ee8fc2dd9f8c360d040e972612b831c31b32d23e1c200954d4d8dfbb94fac163ee8fc2dd9f8c360d040e972612b831c31b31a264697066735822122005557abc71881148b2030bc87276085d1362a439295e46b1499dc1d6225c791164736f6c634300081e0033","linkReferences":{}},"methodIdentifiers":{"TokenBalances_init()":"704cb90c","applyBalanceAdjustment(uint256,uint256,string)":"77940c2e","applyCostBasisAdjustment(uint256,uint256,string)":"5663775d","balanceOf(address)":"70a08231","convertRawToReal(uint256)":"7d7dff09","convertRawToRealCostBasis(uint256)":"cadeb1f5","convertRealToRaw(uint256)":"a8603ea2","getAdjustmentInfo()":"ef4af41b","getAdjustmentRatios()":"3d396d92","rawBalanceOf(address)":"12064c34","rawTotalSupply()":"a592d9ec","totalSupply()":"18160ddd"},"id":91}