{"abi":[{"type":"function","name":"TokenDistribution_init","inputs":[{"name":"defaultMembershipToken","type":"address","internalType":"address"}],"outputs":[],"stateMutability":"nonpayable"},{"type":"function","name":"cancelDistribution","inputs":[{"name":"distributionId","type":"uint256","internalType":"uint256"}],"outputs":[],"stateMutability":"nonpayable"},{"type":"function","name":"claimDistribution","inputs":[{"name":"distributionId","type":"uint256","internalType":"uint256"}],"outputs":[{"name":"amount","type":"uint256","internalType":"uint256"}],"stateMutability":"nonpayable"},{"type":"function","name":"claimMultipleDistributions","inputs":[{"name":"distributionIds","type":"uint256[]","internalType":"uint256[]"}],"outputs":[{"name":"totalAmount","type":"uint256","internalType":"uint256"}],"stateMutability":"nonpayable"},{"type":"function","name":"createDistribution","inputs":[{"name":"paymentToken","type":"address","internalType":"address"},{"name":"amount","type":"uint256","internalType":"uint256"},{"name":"expiresAt","type":"uint256","internalType":"uint256"}],"outputs":[{"name":"distributionId","type":"uint256","internalType":"uint256"}],"stateMutability":"nonpayable"},{"type":"function","name":"createDistributionWithToken","inputs":[{"name":"paymentToken","type":"address","internalType":"address"},{"name":"membershipToken","type":"address","internalType":"address"},{"name":"amount","type":"uint256","internalType":"uint256"},{"name":"expiresAt","type":"uint256","internalType":"uint256"}],"outputs":[{"name":"distributionId","type":"uint256","internalType":"uint256"}],"stateMutability":"nonpayable"},{"type":"function","name":"getClaimableAmount","inputs":[{"name":"distributionId","type":"uint256","internalType":"uint256"},{"name":"claimant","type":"address","internalType":"address"}],"outputs":[{"name":"amount","type":"uint256","internalType":"uint256"}],"stateMutability":"view"},{"type":"function","name":"getDefaultMembershipToken","inputs":[],"outputs":[{"name":"","type":"address","internalType":"address"}],"stateMutability":"view"},{"type":"function","name":"getDistribution","inputs":[{"name":"distributionId","type":"uint256","internalType":"uint256"}],"outputs":[{"name":"","type":"tuple","internalType":"struct ITokenDistribution.Distribution","components":[{"name":"id","type":"uint256","internalType":"uint256"},{"name":"paymentToken","type":"address","internalType":"address"},{"name":"membershipToken","type":"address","internalType":"address"},{"name":"totalAmount","type":"uint256","internalType":"uint256"},{"name":"totalClaimed","type":"uint256","internalType":"uint256"},{"name":"snapshotSupply","type":"uint256","internalType":"uint256"},{"name":"createdAt","type":"uint256","internalType":"uint256"},{"name":"expiresAt","type":"uint256","internalType":"uint256"},{"name":"cancelled","type":"bool","internalType":"bool"}]}],"stateMutability":"view"},{"type":"function","name":"getDistributionCount","inputs":[],"outputs":[{"name":"","type":"uint256","internalType":"uint256"}],"stateMutability":"view"},{"type":"function","name":"hasClaimed","inputs":[{"name":"distributionId","type":"uint256","internalType":"uint256"},{"name":"claimant","type":"address","internalType":"address"}],"outputs":[{"name":"","type":"bool","internalType":"bool"}],"stateMutability":"view"},{"type":"function","name":"isTokenDistributionInitialized","inputs":[],"outputs":[{"name":"","type":"bool","internalType":"bool"}],"stateMutability":"view"},{"type":"function","name":"packedSelectors","inputs":[],"outputs":[{"name":"","type":"bytes","internalType":"bytes"}],"stateMutability":"pure"},{"type":"event","name":"DistributionCancelled","inputs":[{"name":"distributionId","type":"uint256","indexed":true,"internalType":"uint256"},{"name":"refundAmount","type":"uint256","indexed":false,"internalType":"uint256"}],"anonymous":false},{"type":"event","name":"DistributionClaimed","inputs":[{"name":"distributionId","type":"uint256","indexed":true,"internalType":"uint256"},{"name":"claimant","type":"address","indexed":true,"internalType":"address"},{"name":"amount","type":"uint256","indexed":false,"internalType":"uint256"}],"anonymous":false},{"type":"event","name":"DistributionCreated","inputs":[{"name":"distributionId","type":"uint256","indexed":true,"internalType":"uint256"},{"name":"paymentToken","type":"address","indexed":true,"internalType":"address"},{"name":"membershipToken","type":"address","indexed":true,"internalType":"address"},{"name":"totalAmount","type":"uint256","indexed":false,"internalType":"uint256"},{"name":"snapshotSupply","type":"uint256","indexed":false,"internalType":"uint256"}],"anonymous":false},{"type":"error","name":"AccessControl_CallerIsNotAuthorized","inputs":[{"name":"caller","type":"address","internalType":"address"},{"name":"functionSig","type":"bytes4","internalType":"bytes4"}]},{"type":"error","name":"ReentrancyGuard_ReentrantCall","inputs":[]},{"type":"error","name":"SafeERC20FailedOperation","inputs":[{"name":"token","type":"address","internalType":"address"}]},{"type":"error","name":"TokenDistribution_AlreadyClaimed","inputs":[]},{"type":"error","name":"TokenDistribution_AlreadyInitialized","inputs":[]},{"type":"error","name":"TokenDistribution_DistributionCancelled","inputs":[]},{"type":"error","name":"TokenDistribution_DistributionExpired","inputs":[]},{"type":"error","name":"TokenDistribution_DistributionNotFound","inputs":[]},{"type":"error","name":"TokenDistribution_InvalidAmount","inputs":[]},{"type":"error","name":"TokenDistribution_InvalidToken","inputs":[]},{"type":"error","name":"TokenDistribution_NotEligible","inputs":[]},{"type":"error","name":"TokenDistribution_NotInitialized","inputs":[]},{"type":"error","name":"TokenDistribution_NothingToClaim","inputs":[]}],"bytecode":{"object":"0x608080604052346015576111f4908161001a8239f35b5f80fdfe60806040526004361015610011575f80fd5b5f358060e01c90816305a9e0e6146108cf578163286abee81461088e57816335f86a361461080c5781633ac91d82146106935781633b345a87146105345781633e62267c1461044557816342c91605146103f95781635c177608146102be57816378c5195e14610290578163873f6f9e14610238578163cc397a9f1461017a57508063d08663f1146100dd5763fcb25c8a146100ab575f80fd5b346100d9575f3660031901126100d957602060ff5f51602061117f5f395f51905f5254166040519015158152f35b5f80fd5b346100d95760203660031901126100d9576100f6610ab0565b5f51602061117f5f395f51905f525460ff811661016b576001600160a01b0382161561015c576001600160a81b03191660089190911b610100600160a81b03161760019081175f51602061117f5f395f51905f52555f51602061119f5f395f51905f5255005b637377b75560e01b5f5260045ffd5b63e013c44560e01b5f5260045ffd5b346100d95760803660031901126100d957610193610ab0565b61019b610ac6565b916001600160e01b0319166101b08133610cdf565b15610222575060ff5f51602061117f5f395f51905f52541615610213576020916101e9916101dc610bb1565b6064359160443591610d2d565b60ff195f51602061113f5f395f51905f5254165f51602061113f5f395f51905f5255604051908152f35b6339e5504b60e01b5f5260045ffd5b631d64bc3360e11b5f523360045260245260445ffd5b346100d95760403660031901126100d957610251610ac6565b6004355f525f51602061115f5f395f51905f52602052600860405f20019060018060a01b03165f52602052602060ff60405f2054166040519015158152f35b346100d95760403660031901126100d95760206102b66102ae610ac6565b600435610b3c565b604051908152f35b346100d95760203660031901126100d957600435906001600160e01b0319166102e78133610cdf565b15610222575060ff5f51602061117f5f395f51905f525416156102135761030c610bb1565b805f525f51602061115f5f395f51905f5260205260405f206005810154156103ea5760078101805460ff81166103db5760ff19166001179055600281015460038201549091818303908382116103c757816020937f8f57be603637360284fb4088c29f1d5a8f5d37c7462010e43f122d0bce59df7095036103a9575b5050604051908152a25f51602061113f5f395f51905f52805460ff19169055005b90546103c0919033906001600160a01b0316610c9d565b8481610388565b634e487b7160e01b5f52601160045260245ffd5b63cb9b15ef60e01b5f5260045ffd5b630735d6b760e21b5f5260045ffd5b346100d9575f3660031901126100d95760ff5f51602061117f5f395f51905f52541615610213575f51602061119f5f395f51905f52545f1981019081116103c757602090604051908152f35b346100d9575f3660031901126100d9576040805163d08663f160e01b60208201908152630b82eec160e31b6024830152631d648ec160e11b60288301526302d4f07360e11b602c830152631afc351b60e11b60308084019190915263cc397a9f60e01b6034840152633c628caf60e11b603884015263050d57dd60e31b603c840152633b345a8760e01b838501526342c9160560e01b604484015263439fb7cf60e11b6048840152637e592e4560e11b604c84015282529190610509605082610b1a565b8151928391602083525180918160208501528484015e5f828201840152601f01601f19168101030190f35b346100d95760203660031901126100d9576004355f61010060405161055881610ae9565b8281528260208201528260408201528260608201528260808201528260a08201528260c08201528260e0820152015260ff5f51602061117f5f395f51905f5254161561021357805f525f51602061115f5f395f51905f5260205260405f2090600582015480156103ea576101209260018060a01b038154169160018060a01b03600183015416600283015460038401549060048501549260ff60076006880154970154169661010060405161060c81610ae9565b8a81526020810192835260408101938452606081019485526080810195865260a0810196875260c0810197885260e0810198895201971515885260405198895260018060a01b03905116602089015260018060a01b0390511660408801525160608701525160808601525160a08501525160c08401525160e0830152511515610100820152f35b346100d95760203660031901126100d95760043560ff5f51602061117f5f395f51905f52541615610213576106c6610bb1565b805f525f51602061115f5f395f51905f5260205260405f206005810154156103ea5760ff6007820154166103db57600881019160018060a01b0333165f528260205260ff60405f2054166107fd57600682015480151590816107f3575b506107e4576107323383610bef565b9182156107d5578261077f9160209560018060a01b0333165f52865260405f20600160ff198254161790556003810161076c838254610adc565b90555433906001600160a01b0316610c9d565b604051908282527f64bdb55782b54d32d4886f2dc4f69cf7344fd99862caaa6703164c8fc13f2ea8843393a360ff195f51602061113f5f395f51905f5254165f51602061113f5f395f51905f5255604051908152f35b633581839760e21b5f5260045ffd5b631ed1e73960e31b5f5260045ffd5b9050421184610723565b63077ec01560e51b5f5260045ffd5b346100d95760603660031901126100d957610825610ab0565b906001600160e01b03191661083a8133610cdf565b15610222575060ff5f51602061117f5f395f51905f52541615610213576101e9602091610865610bb1565b5f51602061117f5f395f51905f5254604435916024359160081c6001600160a01b031690610d2d565b346100d9575f3660031901126100d9575f51602061117f5f395f51905f525460ff8116156102135760405160089190911c6001600160a01b03168152602090f35b346100d95760203660031901126100d95760043567ffffffffffffffff81116100d957366023820112156100d957806004013567ffffffffffffffff81116100d9573660248260051b840101116100d95760ff5f51602061117f5f395f51905f525416156102135761093f610bb1565b5f80335b83821015610a6d5760248260051b8601013591825f525f51602061115f5f395f51905f5260205260405f2092600584015415610a625760ff600785015416610a62576008840190835f528160205260ff60405f205416610a4c5760068501548015159081610a58575b50610a4c576109bb3386610bef565b918215610a3f57826109fa816001979899610a0b948a5f5260205260405f208960ff1982541617905560038b016109f3838254610adc565b9055610adc565b973390878060a01b03905416610c9d565b6040519182527f64bdb55782b54d32d4886f2dc4f69cf7344fd99862caaa6703164c8fc13f2ea860203393a35b0190610943565b5050506001919250610a38565b50506001919250610a38565b90504211896109ac565b506001919250610a38565b828015610aa15760209060ff195f51602061113f5f395f51905f5254165f51602061113f5f395f51905f5255604051908152f35b63594eeda160e01b5f5260045ffd5b600435906001600160a01b03821682036100d957565b602435906001600160a01b03821682036100d957565b919082018092116103c757565b610120810190811067ffffffffffffffff821117610b0657604052565b634e487b7160e01b5f52604160045260245ffd5b90601f8019910116810190811067ffffffffffffffff821117610b0657604052565b5f525f51602061115f5f395f51905f5260205260405f209060ff600783015416610ba1576001600160a01b0381165f90815260088301602052604090205460ff16610ba15760068201548015159081610ba7575b50610ba157610b9e91610bef565b90565b50505f90565b905042115f610b90565b5f51602061113f5f395f51905f525460ff8116610be05760ff19166001175f51602061113f5f395f51905f5255565b638ac2de0f60e01b5f5260045ffd5b60018101546040516370a0823160e01b81526001600160a01b039384166004820152919260209183916024918391165afa908115610c92575f91610c60575b508015610ba1576004820154918215610c5957600201548181029181830414901517156103c7570490565b5050505f90565b90506020813d602011610c8a575b81610c7b60209383610b1a565b810103126100d957515f610c2e565b3d9150610c6e565b6040513d5f823e3d90fd5b60405163a9059cbb60e01b60208201526001600160a01b039092166024830152604480830193909352918152610cdd91610cd8606483610b1a565b610eb7565b565b81610ce991610f0f565b610d27577f511915e52b7f9e690b9fdc662acaf5600fd3722c87eb951d3abd26e93a784dca5c9060ff8216610d1e5750505f90565b610b9e916110ef565b50600190565b9293926001600160a01b031690811561015c576001600160a01b031691821561015c578015610ea857610d906040516323b872dd60e01b602082015233602482015230604482015282606482015260648152610d8a608482610b1a565b83610eb7565b6040516318160ddd60e01b815290602082600481875afa918215610c92575f92610e74575b505f51602061119f5f395f51905f5254915f1983146103c7577f0258828c73ddce386a974ee61e4a4e4733b9dd93933496a076e0be2177d4abd191604091600185015f51602061119f5f395f51905f52558498855f525f51602061115f5f395f51905f526020526006845f20886bffffffffffffffffffffffff60a01b825416178155600181018a6bffffffffffffffffffffffff60a01b825416179055846002820155836004820155426005820155015582519182526020820152a4565b9091506020813d602011610ea0575b81610e9060209383610b1a565b810103126100d95751905f610db5565b3d9150610e83565b630529c67f60e31b5f5260045ffd5b905f602091828151910182855af115610c92575f513d610f0657506001600160a01b0381163b155b610ee65750565b635274afe760e01b5f9081526001600160a01b0391909116600452602490fd5b60011415610edf565b7fce1c17acaaa67de66e928cd49c8f658667a825223bee6fda99a14908362bcdac546001600160a01b031680611044575b5060018060a01b0381165f527fce1c17acaaa67de66e928cd49c8f658667a825223bee6fda99a14908362bcdaa60205260405f20549163ffffffff60e01b165f527fce1c17acaaa67de66e928cd49c8f658667a825223bee6fda99a14908362bcdab60205260405f2054908115611000576001600160a01b03165f9081527fce1c17acaaa67de66e928cd49c8f658667a825223bee6fda99a14908362bcdaa60205260409020546001161515918215610ff857505090565b161515919050565b6001600160a01b03165f9081527fce1c17acaaa67de66e928cd49c8f658667a825223bee6fda99a14908362bcdaa602052604090205460011615159150610b9e9050565b6040805163b700961360e01b81526001600160a01b03841660048201523060248201526001600160e01b03198516604482015291829060649082905afa5f91816110a0575b5015610f4057611099575f610f40565b5050600190565b9091506040813d6040116110e7575b816110bc60409383610b1a565b810103126100d95780519081151582036100d9576020015163ffffffff8116036100d957905f611089565b3d91506110af565b60ff169081156110995763ffffffff60e01b165f527fce1c17acaaa67de66e928cd49c8f658667a825223bee6fda99a14908362bcdab60205260405f2054908115610ba1576001901b1615159056fe0dbc862179e7dd4188cf2cd6f46b98781f59ec6fc25ed07fcc476c2fb8d0592caef3aab12fe77091736af58bf11b20b86060beb7ff70413c3caadd92a1015419aef3aab12fe77091736af58bf11b20b86060beb7ff70413c3caadd92a1015417aef3aab12fe77091736af58bf11b20b86060beb7ff70413c3caadd92a1015418a264697066735822122057adf8da0fed011279d5a2d940476ab72072d4fb0358781c347555437b3ee05664736f6c634300081e0033","linkReferences":{}},"methodIdentifiers":{"TokenDistribution_init(address)":"d08663f1","cancelDistribution(uint256)":"5c177608","claimDistribution(uint256)":"3ac91d82","claimMultipleDistributions(uint256[])":"05a9e0e6","createDistribution(address,uint256,uint256)":"35f86a36","createDistributionWithToken(address,address,uint256,uint256)":"cc397a9f","getClaimableAmount(uint256,address)":"78c5195e","getDefaultMembershipToken()":"286abee8","getDistribution(uint256)":"3b345a87","getDistributionCount()":"42c91605","hasClaimed(uint256,address)":"873f6f9e","isTokenDistributionInitialized()":"fcb25c8a","packedSelectors()":"3e62267c"},"id":356}