{"abi":[{"type":"function","name":"allowance","inputs":[{"name":"owner","type":"address","internalType":"address"},{"name":"spender","type":"address","internalType":"address"}],"outputs":[{"name":"","type":"uint256","internalType":"uint256"}],"stateMutability":"view"},{"type":"function","name":"approve","inputs":[{"name":"spender","type":"address","internalType":"address"},{"name":"amount","type":"uint256","internalType":"uint256"}],"outputs":[{"name":"","type":"bool","internalType":"bool"}],"stateMutability":"nonpayable"},{"type":"function","name":"packedSelectors","inputs":[],"outputs":[{"name":"","type":"bytes","internalType":"bytes"}],"stateMutability":"pure"},{"type":"function","name":"transfer","inputs":[{"name":"to","type":"address","internalType":"address"},{"name":"amount","type":"uint256","internalType":"uint256"}],"outputs":[{"name":"","type":"bool","internalType":"bool"}],"stateMutability":"nonpayable"},{"type":"function","name":"transferFrom","inputs":[{"name":"from","type":"address","internalType":"address"},{"name":"to","type":"address","internalType":"address"},{"name":"amount","type":"uint256","internalType":"uint256"}],"outputs":[{"name":"","type":"bool","internalType":"bool"}],"stateMutability":"nonpayable"},{"type":"event","name":"Approval","inputs":[{"name":"owner","type":"address","indexed":true,"internalType":"address"},{"name":"spender","type":"address","indexed":true,"internalType":"address"},{"name":"value","type":"uint256","indexed":false,"internalType":"uint256"}],"anonymous":false},{"type":"event","name":"LotTransferred","inputs":[{"name":"newLotId","type":"bytes32","indexed":true,"internalType":"bytes32"},{"name":"from","type":"address","indexed":true,"internalType":"address"},{"name":"to","type":"address","indexed":true,"internalType":"address"},{"name":"quantity","type":"uint256","indexed":false,"internalType":"uint256"},{"name":"uri","type":"string","indexed":false,"internalType":"string"},{"name":"data","type":"bytes","indexed":false,"internalType":"bytes"},{"name":"tType","type":"uint8","indexed":false,"internalType":"enum IToken.TransferType"},{"name":"newCostBasis","type":"uint256","indexed":false,"internalType":"uint256"}],"anonymous":false},{"type":"event","name":"Transfer","inputs":[{"name":"from","type":"address","indexed":true,"internalType":"address"},{"name":"to","type":"address","indexed":true,"internalType":"address"},{"name":"value","type":"uint256","indexed":false,"internalType":"uint256"}],"anonymous":false},{"type":"error","name":"Token_InsufficientAllowance","inputs":[]},{"type":"error","name":"Token_InsufficientBalance","inputs":[]},{"type":"error","name":"Token_LotTransferValidationFailed","inputs":[]},{"type":"error","name":"Token_TransferHookFailed","inputs":[]},{"type":"error","name":"Token_TransferToZeroAddress","inputs":[]},{"type":"error","name":"Token_TransferValidationFailed","inputs":[]}],"bytecode":{"object":"0x608080604052346015576113d2908161001a8239f35b5f80fdfe60806040526004361015610011575f80fd5b5f3560e01c8063095ea7b31461018157806323b872dd146101525780633e62267c146100cc578063a9059cbb1461009b5763dd62ed3e14610050575f80fd5b34610097576040366003190112610097576100696101fa565b61007a610074610210565b91610226565b9060018060a01b03165f52602052602060405f2054604051908152f35b5f80fd5b346100975760403660031901126100975760206100c26100b96101fa565b6024359061050f565b6040519015158152f35b34610097575f3660031901126100975760408051636eb1769f60e11b6020820190815263095ea7b360e01b602483015263a9059cbb60e01b60288301526323b872dd60e01b602c83015260108252919061012760308261025e565b8151928391602083525180918160208501528484015e5f828201840152601f01601f19168101030190f35b346100975760603660031901126100975760206100c26101706101fa565b610178610210565b604435916102fb565b346100975760403660031901126100975761019a6101fa565b602435906101a733610226565b6001600160a01b03919091165f8181526020928352604090819020849055519283529133917f8c5be1e5ebec7d5bd14f71427d1e84f3dd0314c0f7b2291e5b200ac8c7c3b92591a3602060405160018152f35b600435906001600160a01b038216820361009757565b602435906001600160a01b038216820361009757565b6001600160a01b03165f9081527fa8d31c85d757810c11f5f60578050022017dabacf14505ece08eb685f50a233a6020526040902090565b90601f8019910116810190811067ffffffffffffffff82111761028057604052565b634e487b7160e01b5f52604160045260245ffd5b3d156102ce573d9067ffffffffffffffff821161028057604051916102c3601f8201601f19166020018461025e565b82523d5f602084013e565b606090565b80518210156102e75760209160051b010190565b634e487b7160e01b5f52603260045260245ffd5b9290916001600160a01b03831690811561050057604051636f475e7f60e01b602082019081526001600160a01b038088166024840152861660448301525f9182919061035481606481015b03601f19810183528261025e565b5190305afa610361610294565b50156104f15761037085610226565b335f9081526020919091526040902054600181016104b5575b5080156104ab5761039b9084866106f0565b93915f9391935b845181101561045457806103b8600192886102d3565b516103c4575b016103a2565b6103eb828060a01b036103d783896102d3565b51166103e3838a6102d3565b51908b6108ab565b818060a01b036103fb82886102d3565b511661040782896102d3565b516040519081525f51602061137d5f395f51905f526020858060a01b038d1692a361044f828060a01b0361043b83896102d3565b5116610447838a6102d3565b51908b61119f565b6103be565b509350939150938261046a575b50505050600190565b6104a2936104798484846108ab565b6040518481526001600160a01b038316905f51602061137d5f395f51905f5290602090a361119f565b5f808080610461565b5050915050600190565b8181106104e2576104c586610226565b60018060a01b0333165f526020528160405f20910390555f610389565b6313612ceb60e11b5f5260045ffd5b6325f4da8960e11b5f5260045ffd5b63bfdb58c360e01b5f5260045ffd5b906001600160a01b03821690811561050057801561063d57604051636f475e7f60e01b602082019081523360248301526001600160a01b03851660448301525f918291906105608160648101610346565b5190305afa61056d610294565b50156104f15761057e9083336106f0565b94915f9391935b8451811015610630578061059b600192896102d3565b516105a7575b01610585565b6105ce828060a01b036105ba83896102d3565b51166105c6838b6102d3565b5190336108ab565b818060a01b036105de82886102d3565b51166105ea828a6102d3565b516040519081525f51602061137d5f395f51905f5260203392a361062b828060a01b0361061783896102d3565b5116610623838b6102d3565b51903361119f565b6105a1565b5092509290935081610645575b505050600190565b610673926106548383336108ab565b6040518381525f51602061137d5f395f51905f5260203392a33361119f565b5f808061063d565b67ffffffffffffffff81116102805760051b60200190565b9080601f830112156100975781516106aa8161067b565b926106b8604051948561025e565b81845260208085019260051b82010192831161009757602001905b8282106106e05750505090565b81518152602091820191016106d3565b7fc1fd0fc54f6c3a722064b53514ce890e310999f4a90cb54f46af085962d464a1549293926001600160a01b031691821561085457604051631ffb811f60e01b602082019081526001600160a01b039384166024830152929091166044820152606481019490945291925f9283929161076c8160848101610346565b51915af4610778610294565b90156108455780518101916060826020850194031261009757602082015191604081015167ffffffffffffffff81116100975781019380603f860112156100975760208501516107c78161067b565b956107d5604051978861025e565b8187526020808089019360051b830101019083821161009757604001915b8183106108255750505060608201519167ffffffffffffffff83116100975761081f9201602001610693565b91929190565b82516001600160a01b0381168103610097578152602092830192016107f3565b6397cb33d960e01b5f5260045ffd5b50505060209060405192610868838561025e565b5f84525f3681376040519261087d818561025e565b5f8452505f368137929190565b9190820391821161089757565b634e487b7160e01b5f52601160045260245ffd5b92905f806040516020810190636b8fb8ab60e01b825260018060a01b0388166024820152866044820152604481526108e460648261025e565b5190305afa6108f1610294565b90156111905780518101906040816020840193031261009757602081015167ffffffffffffffff81116100975781019180603f840112156100975760208301519261093b8461067b565b93610949604051958661025e565b8085526020808087019260051b840101019183831161009757604001905b8282106111805750505060408201519167ffffffffffffffff8311610097576109939201602001610693565b925f5b82518110156110dc576109a981846102d3565b51906109b581876102d3565b515f8381527f22ce1d58dbbbe3f2573a8aa67a5b301036cf40c4046c3db053dee7e96fed6ac3602090815260408083209051635887841960e01b9281019283526001600160a01b03808e1660248301528a1660448201526064810187905260848101859052909392918291610a2d8160a48101610346565b5190305afa610a3a610294565b50156110cd5760028201610a4f82825461088a565b809155426005840155156110b9575b7f22ce1d58dbbbe3f2573a8aa67a5b301036cf40c4046c3db053dee7e96fed6ac5545f19811461089757600181017f22ce1d58dbbbe3f2573a8aa67a5b301036cf40c4046c3db053dee7e96fed6ac55560405160208101906bffffffffffffffffffffffff198a60601b16825282603482015242605482015243607482015260748152610aec60948261025e565b51902090805f527f22ce1d58dbbbe3f2573a8aa67a5b301036cf40c4046c3db053dee7e96fed6ac66020528160405f2055815f527f22ce1d58dbbbe3f2573a8aa67a5b301036cf40c4046c3db053dee7e96fed6ac760205260405f205560018060a01b03600184015416600384015460405191610160830183811067ffffffffffffffff8211176102805760405260018060a01b038b1683526020830152600160408301526008606083015283608083015260a08201524260c08201524260e0820152856101008201526040515f81600787015491610bca836111f5565b808352926001811690811561109a5750600114611056575b610bee9250038261025e565b6101208201908152604051610c1181610c0a8160088a0161122d565b038261025e565b6101408301525f8381527f22ce1d58dbbbe3f2573a8aa67a5b301036cf40c4046c3db053dee7e96fed6ac36020908152604091829020845181546001600160a01b0319166001600160a01b0391821617825591850151600182018054948701516001600160a81b0319909516919093161792151560a01b60ff60a01b169290921781556060840151919291600a81101561104257815460ff60a81b191660a89190911b60ff60a81b161790556080830151600283015560a0830151600383015560c0830151600483015560e0830151600583015561010083015160068301555180519067ffffffffffffffff821161028057610d1d82610d1460078601546111f5565b600786016112ae565b602090601f8311600114610fd157826008936101409593610d53935f92610f5f575b50508160011b915f199060031b1c19161790565b60078201555b0191015180519067ffffffffffffffff821161028057610d8382610d7d85546111f5565b856112ae565b602090601f8311600114610f6a57610db192915f9183610f5f5750508160011b915f199060031b1c19161790565b90555b6001600160a01b0388165f9081527f22ce1d58dbbbe3f2573a8aa67a5b301036cf40c4046c3db053dee7e96fed6ac460205260409020918254926801000000000000000084101561028057600184018082558410156102e7576001965f958b8f95808998610f49968a5260208a200155610e5d8260018060a01b03165f527f22ce1d58dbbbe3f2573a8aa67a5b301036cf40c4046c3db053dee7e96fed6ac460205260405f2090565b548189527f22ce1d58dbbbe3f2573a8aa67a5b301036cf40c4046c3db053dee7e96fed6acb60205260408920557f8cc737cf11bdfd79c228a016eca672e0382ca654c2cec98e10e03faa913a76bc600384015492610ee36040519589875260a060208801526008610ed460a089016007840161122d565b9188830360408a01520161122d565b936008606087015260808601528c8060a01b031693808d8060a01b038a16940390a4604051639ef3182d60e01b602082019081526001600160a01b039586166024830152948c166044820152606481019190915260848101929092528160a48101610346565b519082305af150610f58610294565b5001610996565b015190505f80610d3f565b9190835f52805f20905f935b601f1984168510610fb6576001945083601f19811610610f9e575b505050811b019055610db4565b01515f1960f88460031b161c191690555f8080610f91565b81810151835560209485019460019093019290910190610f76565b90600784015f52805f20915f5b601f198516811061102a575092610140949260019260089583601f19811610611012575b505050811b016007820155610d59565b01515f1960f88460031b161c191690555f8080611002565b91926020600181928685015181550194019201610fde565b634e487b7160e01b5f52602160045260245ffd5b5050600786015f528160205f20915f925b81841061107e5750506020610bee92820101610be2565b6020919250806001915483868801015201920191908391611067565b60209250610bee94915060ff191682840152151560051b820101610be2565b60018201805460ff60a01b19169055610a5e565b63427a232160e01b5f5260045ffd5b509493611171935061112c91506110f2906112fd565b6001600160a01b039094165f9081527f884b97143fd2abce15e00e9522133610789cde1e35b2d8c3022698f6693d36c66020526040902090565b61113784825461088a565b90556001600160a01b03165f9081527f884b97143fd2abce15e00e9522133610789cde1e35b2d8c3022698f6693d36c66020526040902090565b80549182018092116108975755565b8151815260209182019101610967565b631a2a58d360e01b5f5260045ffd5b604051636fb12c5f60e11b602082019081526001600160a01b03928316602483015291909216604483015260648201929092525f9182916111e38160848101610346565b519082305af1506111f2610294565b50565b90600182811c92168015611223575b602083101461120f57565b634e487b7160e01b5f52602260045260245ffd5b91607f1691611204565b5f929181549161123c836111f5565b8083529260018116908115611291575060011461125857505050565b5f9081526020812093945091925b838310611277575060209250010190565b600181602092949394548385870101520191019190611266565b915050602093945060ff929192191683830152151560051b010190565b601f82116112bb57505050565b5f5260205f20906020601f840160051c830193106112f3575b601f0160051c01905b8181106112e8575050565b5f81556001016112dd565b90915081906112d4565b7f884b97143fd2abce15e00e9522133610789cde1e35b2d8c3022698f6693d36c35490811561137757818102918183041490151715610897577f884b97143fd2abce15e00e9522133610789cde1e35b2d8c3022698f6693d36c254908115611363570490565b634e487b7160e01b5f52601260045260245ffd5b90509056feddf252ad1be2c89b69c2b068fc378daa952ba7f163c4a11628f55a4df523b3efa2646970667358221220c09aad50df0b0588d7b270f90d63ca177336b4a820a95519199c3d40a2db66ba64736f6c634300081e0033","linkReferences":{}},"methodIdentifiers":{"allowance(address,address)":"dd62ed3e","approve(address,uint256)":"095ea7b3","packedSelectors()":"3e62267c","transfer(address,uint256)":"a9059cbb","transferFrom(address,address,uint256)":"23b872dd"},"id":253}