{"abi":[{"type":"function","name":"TokenMetadata_init","inputs":[{"name":"_name","type":"string","internalType":"string"},{"name":"_symbol","type":"string","internalType":"string"},{"name":"_decimals","type":"uint8","internalType":"uint8"},{"name":"_baseURI","type":"string","internalType":"string"}],"outputs":[],"stateMutability":"nonpayable"},{"type":"function","name":"baseURI","inputs":[],"outputs":[{"name":"","type":"string","internalType":"string"}],"stateMutability":"view"},{"type":"function","name":"decimals","inputs":[],"outputs":[{"name":"","type":"uint8","internalType":"uint8"}],"stateMutability":"view"},{"type":"function","name":"initialize","inputs":[{"name":"_name","type":"string","internalType":"string"},{"name":"_symbol","type":"string","internalType":"string"},{"name":"_decimals","type":"uint8","internalType":"uint8"},{"name":"_baseURI","type":"string","internalType":"string"}],"outputs":[],"stateMutability":"nonpayable"},{"type":"function","name":"name","inputs":[],"outputs":[{"name":"","type":"string","internalType":"string"}],"stateMutability":"view"},{"type":"function","name":"setBaseURI","inputs":[{"name":"newBaseURI","type":"string","internalType":"string"}],"outputs":[],"stateMutability":"nonpayable"},{"type":"function","name":"symbol","inputs":[],"outputs":[{"name":"","type":"string","internalType":"string"}],"stateMutability":"view"},{"type":"event","name":"BaseURIUpdated","inputs":[{"name":"newBaseURI","type":"string","indexed":false,"internalType":"string"}],"anonymous":false},{"type":"event","name":"Initialized","inputs":[{"name":"version","type":"uint64","indexed":false,"internalType":"uint64"}],"anonymous":false},{"type":"event","name":"TokenInitialized","inputs":[{"name":"name","type":"string","indexed":false,"internalType":"string"},{"name":"symbol","type":"string","indexed":false,"internalType":"string"},{"name":"decimals","type":"uint8","indexed":false,"internalType":"uint8"}],"anonymous":false},{"type":"error","name":"CallerIsNotAuthorized","inputs":[]},{"type":"error","name":"DelegateNotAllowed","inputs":[]},{"type":"error","name":"InvalidInitialization","inputs":[]},{"type":"error","name":"NotInitializing","inputs":[]},{"type":"error","name":"OnlyDelegate","inputs":[]},{"type":"error","name":"ReentrancyGuardReentrantCall","inputs":[]},{"type":"error","name":"TokenMetadata_AlreadyInitialized","inputs":[]},{"type":"error","name":"TokenMetadata_InvalidParameters","inputs":[]}],"bytecode":{"object":"0x60a0806040523460b457306080525f5160206114565f395f51905f525460ff8160401c1660a5576002600160401b03196001600160401b038216016053575b60405161139d90816100b98239608051815050f35b6001600160401b0319166001600160401b039081175f5160206114565f395f51905f525581527fc7f505b2f371ae2175ee4913f4499e1f2633a7b5936321eed1cdaeb6115181d290602090a15f80603e565b63f92ee8a960e01b5f5260045ffd5b5f80fdfe60806040526004361015610011575f80fd5b5f358060e01c90816306fdde03146110e1578163313ce567146110a257816355f804b314610de25781636c0360eb14610d2557816395d89b4114610c2b578163cdbed7ad146105dc575063f116f3cc14610069575f80fd5b346105d8576100773661123a565b929190825167ffffffffffffffff811161037b576100a25f5160206113485f395f51905f52546112b7565b601f811161052b575b50806020601f8211600114610491575f91610486575b508160011b915f199060031b1c1916175f5160206113485f395f51905f52555b815167ffffffffffffffff811161037b576101095f5160206113285f395f51905f52546112b7565b601f8111610417575b506020601f821160011461039a57908060ff93925f9161038f575b508160011b915f199060031b1c1916175f5160206113285f395f51905f52555b16908160ff197f237cefb478972ca402e1abe1f5389ebd3f52ec06b9175997340c9286ce645bb15416177f237cefb478972ca402e1abe1f5389ebd3f52ec06b9175997340c9286ce645bb155835167ffffffffffffffff811161037b576101c15f5160206113085f395f51905f52546112b7565b601f811161030c575b506020601f8211600114610266579181610250926102429695947fc96494d0badbbf36b25a694b7e342ea9992c3482b4b1b5b9da344b5a90140f87985f9261025b575b50508160011b915f199060031b1c1916175f5160206113085f395f51905f52555b60405194859460608652606086019061119e565b90848203602086015261119e565b9060408301520390a1005b015190505f8061020d565b601f198216955f5160206113085f395f51905f525f52815f20965f5b8181106102f45750927fc96494d0badbbf36b25a694b7e342ea9992c3482b4b1b5b9da344b5a90140f8797610242979695936001938361025097106102dc575b505050811b015f5160206113085f395f51905f525561022e565b01515f1960f88460031b161c191690555f80806102c2565b83830151895560019098019760209384019301610282565b5f5160206113085f395f51905f525f527f11b1bafd62d096ea0f562792484edb2380d586bfb9277a788ad0805dc1d91245601f830160051c81019160208410610371575b601f0160051c01905b81811061036657506101ca565b5f8155600101610359565b9091508190610350565b634e487b7160e01b5f52604160045260245ffd5b90508401515f61012d565b601f198216905f5160206113285f395f51905f525f52805f20915f5b8181106103ff575091839160ff9594600194106103e7575b5050811b015f5160206113285f395f51905f525561014d565b8601515f1960f88460031b161c191690555f806103ce565b9192602060018192868a0151815501940192016103b6565b5f5160206113285f395f51905f525f527f1436853194e27554d0c941fb8c02623d8bd20ebddc52eecd73c9cf071004cef4601f830160051c8101916020841061047c575b601f0160051c01905b8181106104715750610112565b5f8155600101610464565b909150819061045b565b90508401515f6100c1565b5f5160206113485f395f51905f525f9081527ff66185ca2cda1d8a1a12be386d4c5ba7a8ae600e1de3953d96f0fbe2d577c20f9250601f198416905b818110610513575090836001949392106104fb575b5050811b015f5160206113485f395f51905f52556100e1565b8601515f1960f88460031b161c191690555f806104e2565b9192602060018192868b0151815501940192016104cd565b5f5160206113485f395f51905f525f52601f820160051c7ff66185ca2cda1d8a1a12be386d4c5ba7a8ae600e1de3953d96f0fbe2d577c20f0190602083106105b0575b601f0160051c7ff66185ca2cda1d8a1a12be386d4c5ba7a8ae600e1de3953d96f0fbe2d577c20f01905b8181106105a557506100ab565b5f8155600101610598565b7ff66185ca2cda1d8a1a12be386d4c5ba7a8ae600e1de3953d96f0fbe2d577c20f915061056e565b5f80fd5b346105d8576105ea3661123a565b936040516301ffc9a760e01b8152639f3dfa9560e01b6004820152602081602481305afa908115610c01575f91610c0c575b5015610baa57604051630435f69f60e51b81523360048201527fffffffff00000000000000000000000000000000000000000000000000000000919091166024820152602081604481305afa908115610c01575f91610bd2575b5015610baa57825167ffffffffffffffff811161037b576106a45f5160206113485f395f51905f52546112b7565b601f8111610afd575b50806020601f8211600114610a63575f91610a58575b508160011b915f199060031b1c1916175f5160206113485f395f51905f52555b815167ffffffffffffffff811161037b5761070b5f5160206113285f395f51905f52546112b7565b601f81116109e9575b506020601f821160011461096c57908060ff93925f91610961575b508160011b915f199060031b1c1916175f5160206113285f395f51905f52555b16908160ff197f237cefb478972ca402e1abe1f5389ebd3f52ec06b9175997340c9286ce645bb15416177f237cefb478972ca402e1abe1f5389ebd3f52ec06b9175997340c9286ce645bb155835167ffffffffffffffff811161037b576107c35f5160206113085f395f51905f52546112b7565b601f81116108f2575b506020601f821160011461084d579181610250926102429695947fc96494d0badbbf36b25a694b7e342ea9992c3482b4b1b5b9da344b5a90140f87985f926108425750508160011b915f199060031b1c1916175f5160206113085f395f51905f525560405194859460608652606086019061119e565b01519050888061020d565b601f198216955f5160206113085f395f51905f525f52815f20965f5b8181106108da5750927fc96494d0badbbf36b25a694b7e342ea9992c3482b4b1b5b9da344b5a90140f8797610242979695936001938361025097106108c257505050811b015f5160206113085f395f51905f525561022e565b01515f1960f88460031b161c191690558880806102c2565b83830151895560019098019760209384019301610869565b5f5160206113085f395f51905f525f527f11b1bafd62d096ea0f562792484edb2380d586bfb9277a788ad0805dc1d91245601f830160051c81019160208410610957575b601f0160051c01905b81811061094c57506107cc565b5f815560010161093f565b9091508190610936565b90508401518761072f565b601f198216905f5160206113285f395f51905f525f52805f20915f5b8181106109d1575091839160ff9594600194106109b9575b5050811b015f5160206113285f395f51905f525561074f565b8601515f1960f88460031b161c1916905587806109a0565b9192602060018192868a015181550194019201610988565b5f5160206113285f395f51905f525f527f1436853194e27554d0c941fb8c02623d8bd20ebddc52eecd73c9cf071004cef4601f830160051c81019160208410610a4e575b601f0160051c01905b818110610a435750610714565b5f8155600101610a36565b9091508190610a2d565b9050840151866106c3565b5f5160206113485f395f51905f525f9081527ff66185ca2cda1d8a1a12be386d4c5ba7a8ae600e1de3953d96f0fbe2d577c20f9250601f198416905b818110610ae557509083600194939210610acd575b5050811b015f5160206113485f395f51905f52556106e3565b8601515f1960f88460031b161c191690558680610ab4565b9192602060018192868b015181550194019201610a9f565b5f5160206113485f395f51905f525f52601f820160051c7ff66185ca2cda1d8a1a12be386d4c5ba7a8ae600e1de3953d96f0fbe2d577c20f019060208310610b82575b601f0160051c7ff66185ca2cda1d8a1a12be386d4c5ba7a8ae600e1de3953d96f0fbe2d577c20f01905b818110610b7757506106ad565b5f8155600101610b6a565b7ff66185ca2cda1d8a1a12be386d4c5ba7a8ae600e1de3953d96f0fbe2d577c20f9150610b40565b7f2e575215000000000000000000000000000000000000000000000000000000005f5260045ffd5b610bf4915060203d602011610bfa575b610bec81836111c2565b8101906112ef565b85610676565b503d610be2565b6040513d5f823e3d90fd5b610c25915060203d602011610bfa57610bec81836111c2565b8661061c565b346105d8575f3660031901126105d8576040515f5f5160206113285f395f51905f5254610c57816112b7565b8084529060018116908115610d015750600114610c97575b610c9383610c7f818503826111c2565b60405191829160208352602083019061119e565b0390f35b5f5160206113285f395f51905f525f9081527f1436853194e27554d0c941fb8c02623d8bd20ebddc52eecd73c9cf071004cef4939250905b808210610ce757509091508101602001610c7f610c6f565b919260018160209254838588010152019101909291610ccf565b60ff191660208086019190915291151560051b84019091019150610c7f9050610c6f565b346105d8575f3660031901126105d8576040515f5f5160206113085f395f51905f5254610d51816112b7565b8084529060018116908115610d015750600114610d7857610c9383610c7f818503826111c2565b5f5160206113085f395f51905f525f9081527f11b1bafd62d096ea0f562792484edb2380d586bfb9277a788ad0805dc1d91245939250905b808210610dc857509091508101602001610c7f610c6f565b919260018160209254838588010152019101909291610db0565b346105d85760203660031901126105d85760043567ffffffffffffffff81116105d857610e139036906004016111e4565b906040516301ffc9a760e01b8152639f3dfa9560e01b6004820152602081602481305afa908115610c01575f91611083575b5015610baa57604051630435f69f60e51b81523360048201527fffffffff00000000000000000000000000000000000000000000000000000000919091166024820152602081604481305afa908115610c01575f91611064575b5015610baa57805167ffffffffffffffff811161037b57610ecd5f5160206113085f395f51905f52546112b7565b601f8111610ff5575b506020601f8211600114610f56579181610f46927f6741b2fc379fad678116fe3d4d4b9a1a184ab53ba36b86ad0fa66340b1ab41ad945f91610f4b575b508160011b915f199060031b1c1916175f5160206113085f395f51905f525560405191829160208352602083019061119e565b0390a1005b905082015185610f13565b601f198216905f5160206113085f395f51905f525f52805f20915f5b818110610fdd5750927f6741b2fc379fad678116fe3d4d4b9a1a184ab53ba36b86ad0fa66340b1ab41ad949260019282610f469610610fc5575b5050811b015f5160206113085f395f51905f5255610c7f565b8401515f1960f88460031b161c191690558580610fac565b91926020600181928689015181550194019201610f72565b5f5160206113085f395f51905f525f527f11b1bafd62d096ea0f562792484edb2380d586bfb9277a788ad0805dc1d91245601f830160051c8101916020841061105a575b601f0160051c01905b81811061104f5750610ed6565b5f8155600101611042565b9091508190611039565b61107d915060203d602011610bfa57610bec81836111c2565b82610e9f565b61109c915060203d602011610bfa57610bec81836111c2565b83610e45565b346105d8575f3660031901126105d857602060ff7f237cefb478972ca402e1abe1f5389ebd3f52ec06b9175997340c9286ce645bb15416604051908152f35b346105d8575f3660031901126105d8576040515f5f5160206113485f395f51905f525461110d816112b7565b8084529060018116908115610d01575060011461113457610c9383610c7f818503826111c2565b5f5160206113485f395f51905f525f9081527ff66185ca2cda1d8a1a12be386d4c5ba7a8ae600e1de3953d96f0fbe2d577c20f939250905b80821061118457509091508101602001610c7f610c6f565b91926001816020925483858801015201910190929161116c565b805180835260209291819084018484015e5f828201840152601f01601f1916010190565b90601f8019910116810190811067ffffffffffffffff82111761037b57604052565b81601f820112156105d85780359067ffffffffffffffff821161037b5760405192611219601f8401601f1916602001856111c2565b828452602083830101116105d857815f926020809301838601378301015290565b9060806003198301126105d85760043567ffffffffffffffff81116105d85782611266916004016111e4565b9160243567ffffffffffffffff81116105d85781611286916004016111e4565b9160443560ff811681036105d857916064359067ffffffffffffffff82116105d8576112b4916004016111e4565b90565b90600182811c921680156112e5575b60208310146112d157565b634e487b7160e01b5f52602260045260245ffd5b91607f16916112c6565b908160209103126105d8575180151581036105d8579056fe237cefb478972ca402e1abe1f5389ebd3f52ec06b9175997340c9286ce645bb2237cefb478972ca402e1abe1f5389ebd3f52ec06b9175997340c9286ce645bb0237cefb478972ca402e1abe1f5389ebd3f52ec06b9175997340c9286ce645bafa26469706673582212209afc2dcda8e5fd180c671ca4457b0db2c703b526bb22714f83cdaa3ebcb38ca964736f6c634300081c0033f0c57e16840df040f15088dc2f81fe391c3923bec73e23a9662efc9c229c6a00","linkReferences":{}},"methodIdentifiers":{"TokenMetadata_init(string,string,uint8,string)":"f116f3cc","baseURI()":"6c0360eb","decimals()":"313ce567","initialize(string,string,uint8,string)":"cdbed7ad","name()":"06fdde03","setBaseURI(string)":"55f804b3","symbol()":"95d89b41"},"id":221}