{"abi":[{"type":"function","name":"TokenERC721_init","inputs":[],"outputs":[],"stateMutability":"nonpayable"},{"type":"function","name":"approve","inputs":[{"name":"to","type":"address","internalType":"address"},{"name":"tokenId","type":"uint256","internalType":"uint256"}],"outputs":[],"stateMutability":"nonpayable"},{"type":"function","name":"balanceOf","inputs":[{"name":"owner","type":"address","internalType":"address"}],"outputs":[{"name":"","type":"uint256","internalType":"uint256"}],"stateMutability":"view"},{"type":"function","name":"burn","inputs":[{"name":"tokenId","type":"uint256","internalType":"uint256"}],"outputs":[],"stateMutability":"nonpayable"},{"type":"function","name":"getApproved","inputs":[{"name":"tokenId","type":"uint256","internalType":"uint256"}],"outputs":[{"name":"","type":"address","internalType":"address"}],"stateMutability":"view"},{"type":"function","name":"isApprovedForAll","inputs":[{"name":"owner","type":"address","internalType":"address"},{"name":"operator","type":"address","internalType":"address"}],"outputs":[{"name":"","type":"bool","internalType":"bool"}],"stateMutability":"view"},{"type":"function","name":"mint","inputs":[{"name":"to","type":"address","internalType":"address"},{"name":"tokenId","type":"uint256","internalType":"uint256"}],"outputs":[],"stateMutability":"nonpayable"},{"type":"function","name":"ownerOf","inputs":[{"name":"tokenId","type":"uint256","internalType":"uint256"}],"outputs":[{"name":"","type":"address","internalType":"address"}],"stateMutability":"view"},{"type":"function","name":"packedSelectors","inputs":[],"outputs":[{"name":"","type":"bytes","internalType":"bytes"}],"stateMutability":"pure"},{"type":"function","name":"safeTransferFrom","inputs":[{"name":"from","type":"address","internalType":"address"},{"name":"to","type":"address","internalType":"address"},{"name":"tokenId","type":"uint256","internalType":"uint256"}],"outputs":[],"stateMutability":"nonpayable"},{"type":"function","name":"safeTransferFrom","inputs":[{"name":"from","type":"address","internalType":"address"},{"name":"to","type":"address","internalType":"address"},{"name":"tokenId","type":"uint256","internalType":"uint256"},{"name":"data","type":"bytes","internalType":"bytes"}],"outputs":[],"stateMutability":"nonpayable"},{"type":"function","name":"setApprovalForAll","inputs":[{"name":"operator","type":"address","internalType":"address"},{"name":"approved","type":"bool","internalType":"bool"}],"outputs":[],"stateMutability":"nonpayable"},{"type":"function","name":"tokenURI","inputs":[{"name":"tokenId","type":"uint256","internalType":"uint256"}],"outputs":[{"name":"","type":"string","internalType":"string"}],"stateMutability":"view"},{"type":"function","name":"transferFrom","inputs":[{"name":"from","type":"address","internalType":"address"},{"name":"to","type":"address","internalType":"address"},{"name":"tokenId","type":"uint256","internalType":"uint256"}],"outputs":[],"stateMutability":"nonpayable"},{"type":"event","name":"Approval","inputs":[{"name":"owner","type":"address","indexed":true,"internalType":"address"},{"name":"approved","type":"address","indexed":true,"internalType":"address"},{"name":"tokenId","type":"uint256","indexed":true,"internalType":"uint256"}],"anonymous":false},{"type":"event","name":"ApprovalForAll","inputs":[{"name":"owner","type":"address","indexed":true,"internalType":"address"},{"name":"operator","type":"address","indexed":true,"internalType":"address"},{"name":"approved","type":"bool","indexed":false,"internalType":"bool"}],"anonymous":false},{"type":"event","name":"Transfer","inputs":[{"name":"from","type":"address","indexed":true,"internalType":"address"},{"name":"to","type":"address","indexed":true,"internalType":"address"},{"name":"tokenId","type":"uint256","indexed":true,"internalType":"uint256"}],"anonymous":false},{"type":"error","name":"AccessControl_CallerIsNotAuthorized","inputs":[{"name":"caller","type":"address","internalType":"address"},{"name":"functionSig","type":"bytes4","internalType":"bytes4"}]},{"type":"error","name":"Token_AlreadyInitialized","inputs":[]},{"type":"error","name":"Token_ERC721IncorrectOwner","inputs":[{"name":"sender","type":"address","internalType":"address"},{"name":"tokenId","type":"uint256","internalType":"uint256"},{"name":"owner","type":"address","internalType":"address"}]},{"type":"error","name":"Token_ERC721InsufficientApproval","inputs":[{"name":"operator","type":"address","internalType":"address"},{"name":"tokenId","type":"uint256","internalType":"uint256"}]},{"type":"error","name":"Token_ERC721InvalidOperator","inputs":[{"name":"operator","type":"address","internalType":"address"}]},{"type":"error","name":"Token_ERC721InvalidOwner","inputs":[{"name":"owner","type":"address","internalType":"address"}]},{"type":"error","name":"Token_ERC721InvalidReceiver","inputs":[{"name":"receiver","type":"address","internalType":"address"}]},{"type":"error","name":"Token_ERC721NonexistentToken","inputs":[{"name":"tokenId","type":"uint256","internalType":"uint256"}]},{"type":"error","name":"Token_ERC721TransferRejected","inputs":[{"name":"receiver","type":"address","internalType":"address"}]},{"type":"error","name":"Token_InvalidQuantity","inputs":[]}],"bytecode":{"object":"0x608080604052346015576112f9908161001a8239f35b5f80fdfe60806040526004361015610011575f80fd5b5f3560e01c8063081812fc146100f4578063095ea7b3146100ef57806323b872dd146100ea5780633e62267c146100e557806340c10f19146100e057806342842e0e146100db57806342966c68146100d65780636352211e146100d157806370a08231146100cc578063a22cb465146100c7578063b88d4fde146100c2578063c0781b7f146100bd578063c87b56dd146100b85763e985e9c5146100b3575f80fd5b610887565b610854565b6107e0565b610770565b6106db565b610682565b61063a565b610559565b610524565b61043f565b610364565b610313565b6101a8565b34610178576020366003190112610178576004355f8181525f5160206112a45f395f51905f5260205260409020546001600160a01b031615610166575f9081525f5160206112845f395f51905f5260209081526040918290205491516001600160a01b039092168252819081015b0390f35b639b374a6f60e01b5f5260045260245ffd5b5f80fd5b600435906001600160a01b038216820361017857565b602435906001600160a01b038216820361017857565b34610178576040366003190112610178576101c161017c565b602435906101de6101d1836108c4565b546001600160a01b031690565b6001600160a01b038116919082156102c557823314159081610289575b506102715761024181610222855f525f5160206112845f395f51905f5260205260405f2090565b80546001600160a01b0319166001600160a01b03909216919091179055565b6001600160a01b0316907f8c5be1e5ebec7d5bd14f71427d1e84f3dd0314c0f7b2291e5b200ac8c7c3b9255f80a4005b632abc413760e01b5f5233600452602483905260445ffd5b6102bf91506102b46102bb9161029f33916108de565b9060018060a01b03165f5260205260405f2090565b5460ff1690565b1590565b5f6101fb565b639b374a6f60e01b5f52600484905260245ffd5b6060906003190112610178576004356001600160a01b038116810361017857906024356001600160a01b0381168103610178579060443590565b346101785761032a610324366102d9565b91610ba2565b005b805180835260209291819084018484015e5f828201840152601f01601f1916010190565b90602061036192818152019061032c565b90565b34610178575f3660031901126101785760405163c0781b7f60e01b602082015263095ea7b360e01b60248201526370a0823160e01b6028820152630852cd8d60e31b602c8201526101629063020604bf60e21b603082015263e985e9c560e01b60348201526340c10f1960e01b60388201526331a9108f60e11b603c820152632142170760e11b6040820152635c46a7ef60e11b604482015263a22cb46560e01b604882015263c87b56dd60e01b604c8201526323b872dd60e01b605082015260348152610433605482610962565b60405191829182610350565b346101785760403660031901126101785761045861017c565b602435905f356001600160e01b0319166104728133610d11565b1561050e57506001600160a01b0381169081156104fb576104a46104986101d1856108c4565b6001600160a01b031690565b6104ec57806104b56104c592610916565b80546001019055610222846108c4565b5f7fddf252ad1be2c89b69c2b068fc378daa952ba7f163c4a11628f55a4df523b3ef8180a4005b637782662560e01b5f5260045ffd5b6343ab999d60e01b5f525f60045260245ffd5b631d64bc3360e11b5f523360045260245260445ffd5b346101785761032a610535366102d9565b90610541828285610ba2565b60405192610550602085610962565b5f845233610ddf565b34610178576020366003190112610178576004355f356001600160e01b0319166105838133610d11565b1561050e57505f8181525f5160206112a45f395f51905f5260205260409020546001600160a01b03168015610627575f906105e56105d5845f525f5160206112845f395f51905f5260205260405f2090565b80546001600160a01b0319169055565b6105ee81610916565b80545f190190556106016105d5846108c4565b7fddf252ad1be2c89b69c2b068fc378daa952ba7f163c4a11628f55a4df523b3ef8280a4005b50639b374a6f60e01b5f5260045260245ffd5b34610178576020366003190112610178576004355f8181525f5160206112a45f395f51905f5260205260409020546001600160a01b0316801561062757602090604051908152f35b346101785760203660031901126101785761069b61017c565b6001600160a01b03811680156106bf5760206106b683610916565b54604051908152f35b6360e1397360e11b5f5260045260245ffd5b8015150361017857565b34610178576040366003190112610178576106f461017c565b602435610700816106d1565b6001600160a01b03821691821561075d5761071e9061029f336108de565b60ff1981541660ff8315151617905560405190151581527f17307eab39ab6107e8899845ad3d59bd9653f200f220920489ca2b5937696c3160203392a3005b82639f51f27560e01b5f5260045260245ffd5b346101785760803660031901126101785761078961017c565b610791610192565b6064359160443567ffffffffffffffff841161017857366023850112156101785783600401359267ffffffffffffffff841161017857366024858701011161017857602461032a9501926109b9565b34610178575f366003190112610178577f38161cf2d4daf9803f126964f550a85421890f655ba069802277664ece3c33665460ff81166108455760ff19166001177f38161cf2d4daf9803f126964f550a85421890f655ba069802277664ece3c336655005b6393e721db60e01b5f5260045ffd5b3461017857602036600319011261017857610162610873600435610a45565b60405191829160208352602083019061032c565b3461017857604036600319011261017857602060ff6108b86108a761017c565b61029f6108b2610192565b916108de565b54166040519015158152f35b5f525f5160206112a45f395f51905f5260205260405f2090565b6001600160a01b03165f9081527f38161cf2d4daf9803f126964f550a85421890f655ba069802277664ece3c336a6020526040902090565b6001600160a01b03165f9081527f38161cf2d4daf9803f126964f550a85421890f655ba069802277664ece3c33686020526040902090565b634e487b7160e01b5f52604160045260245ffd5b90601f8019910116810190811067ffffffffffffffff82111761098457604052565b61094e565b67ffffffffffffffff811161098457601f01601f191660200190565b604051906109b4602083610962565b5f8252565b9392936109c7838383610ba2565b6109d084610989565b936109de6040519586610962565b8085523681870111610178576020815f92610a0198838901378601015233610ddf565b565b805191908290602001825e015f815290565b610a0190610a37610a3194936040519586936020850190610a03565b90610a03565b03601f198101845283610962565b5f8181525f5160206112a45f395f51905f5260205260409020546001600160a01b031615610166576040515f7fa8d31c85d757810c11f5f60578050022017dabacf14505ece08eb685f50a2339548060011c91600182168015610b98575b602084108114610b845783855284926020840191908115610b6b5750600114610af7575b50610ad492500382610962565b805115610aed57610ae761036192610f6a565b90610a15565b50506103616109a5565b7fa8d31c85d757810c11f5f60578050022017dabacf14505ece08eb685f50a23395f90815291507f654a3b4ffd98c003e347e1b22e7974529a1c3ba9b6cf7dfd78a62dc7275551b75b848310610b545750610ad49350015f610ac7565b805482840152859350602090920191600101610b40565b60ff1916825250610ad493151560051b0190505f610ac7565b634e487b7160e01b5f52602260045260245ffd5b92607f1692610aa3565b6001600160a01b038216918215610cfd57610bbf6101d1856108c4565b6001600160a01b03811692908315610ce9576001600160a01b03821693849003610cc35750823303610c60575b90610c1a610c3a92610c156105d5885f525f5160206112845f395f51905f5260205260405f2090565b610916565b80545f19019055610c2a81610916565b80546001019055610222856108c4565b7fddf252ad1be2c89b69c2b068fc378daa952ba7f163c4a11628f55a4df523b3ef5f80a4565b610c736102bb6102b43361029f856108de565b80610c96575b15610bec57632abc413760e01b5f5233600452602485905260445ffd5b50610cbb6104986101d1875f525f5160206112845f395f51905f5260205260405f2090565b331415610c79565b63e64fec3760e01b5f526001600160a01b0391821660045260248690521660445260645ffd5b639b374a6f60e01b5f52600486905260245ffd5b6343ab999d60e01b5f90815260045260245ffd5b81610d1b9161104c565b610d59577f511915e52b7f9e690b9fdc662acaf5600fd3722c87eb951d3abd26e93a784dca5c9060ff8216610d505750505f90565b6103619161122b565b50600190565b9081602091031261017857516001600160e01b0319811681036101785790565b6001600160a01b0391821681529116602082015260408101919091526080606082018190526103619291019061032c565b3d15610dda573d90610dc182610989565b91610dcf6040519384610962565b82523d5f602084013e565b606090565b939193843b610df0575b5050505050565b610e116020936040519586948594630a85bd0160e11b865260048601610d7f565b03815f6001600160a01b0387165af15f9181610e9f575b50610e625750610e36610db0565b8051919082610e5b57631647140f60e21b5f526001600160a01b03821660045260245ffd5b9050602001fd5b6001600160e01b03191663757a42ff60e11b01610e8457505f80808080610de9565b631647140f60e21b5f526001600160a01b031660045260245ffd5b610ec291925060203d602011610ec9575b610eba8183610962565b810190610d5f565b905f610e28565b503d610eb0565b634e487b7160e01b5f52601160045260245ffd5b5f198114610ef25760010190565b610ed0565b90610f0182610989565b610f0e6040519182610962565b8281528092610f1f601f1991610989565b0190602036910137565b5f19810191908211610ef257565b6030019081603011610ef257565b908151811015610f56570160200190565b634e487b7160e01b5f52603260045260245ffd5b908115610fff575f82805b610fe0575080610f858492610ef7565b915b610f9057509150565b610f9c610fd991610f29565b93610fc5610fb5610faf600a8406610f37565b60ff1690565b60f81b6001600160f81b03191690565b5f1a610fd18685610f45565b53600a900490565b9283610f87565b9290610fee610ff691610ee4565b93600a900490565b80939193610f75565b905060405161100f604082610962565b60018152600360fc1b602082015290565b91908260409103126101785760208251611039816106d1565b92015163ffffffff811681036101785790565b7fce1c17acaaa67de66e928cd49c8f658667a825223bee6fda99a14908362bcdac546001600160a01b03168061118b575b506001600160a01b0381165f9081527fce1c17acaaa67de66e928cd49c8f658667a825223bee6fda99a14908362bcdaa602052604090206110f090549263ffffffff60e01b165f527fce1c17acaaa67de66e928cd49c8f658667a825223bee6fda99a14908362bcdab60205260405f2090565b54908115611147576001600160a01b03165f9081527fce1c17acaaa67de66e928cd49c8f658667a825223bee6fda99a14908362bcdaa6020526040902054600116151591821561113f57505090565b161515919050565b6001600160a01b03165f9081527fce1c17acaaa67de66e928cd49c8f658667a825223bee6fda99a14908362bcdaa6020526040902054600116151591506103619050565b61119d906001600160a01b0316610498565b6040805163b700961360e01b81526001600160a01b03841660048201523060248201526001600160e01b03198516604482015291829060649082905afa5f91816111f9575b501561107d576111f2575f61107d565b5050600190565b61121c91925060403d604011611224575b6112148183610962565b810190611020565b50905f6111e2565b503d61120a565b60ff169081156111f2576001600160e01b0319165f9081527fce1c17acaaa67de66e928cd49c8f658667a825223bee6fda99a14908362bcdab602052604090205490811561127d576001901b16151590565b50505f9056fe38161cf2d4daf9803f126964f550a85421890f655ba069802277664ece3c336938161cf2d4daf9803f126964f550a85421890f655ba069802277664ece3c3367a26469706673582212205b5cc51983773d1885239330ab5b746124ec160f425e85efa6e304feaf9d59e864736f6c634300081e0033","linkReferences":{}},"methodIdentifiers":{"TokenERC721_init()":"c0781b7f","approve(address,uint256)":"095ea7b3","balanceOf(address)":"70a08231","burn(uint256)":"42966c68","getApproved(uint256)":"081812fc","isApprovedForAll(address,address)":"e985e9c5","mint(address,uint256)":"40c10f19","ownerOf(uint256)":"6352211e","packedSelectors()":"3e62267c","safeTransferFrom(address,address,uint256)":"42842e0e","safeTransferFrom(address,address,uint256,bytes)":"b88d4fde","setApprovalForAll(address,bool)":"a22cb465","tokenURI(uint256)":"c87b56dd","transferFrom(address,address,uint256)":"23b872dd"},"id":254}