{"abi":[{"type":"function","name":"burn","inputs":[{"name":"from","type":"address","internalType":"address"},{"name":"amount","type":"uint256","internalType":"uint256"}],"outputs":[],"stateMutability":"nonpayable"},{"type":"function","name":"mint","inputs":[{"name":"to","type":"address","internalType":"address"},{"name":"amount","type":"uint256","internalType":"uint256"}],"outputs":[{"name":"lotId","type":"bytes32","internalType":"bytes32"}],"stateMutability":"nonpayable"},{"type":"function","name":"packedSelectors","inputs":[],"outputs":[{"name":"","type":"bytes","internalType":"bytes"}],"stateMutability":"pure"},{"type":"event","name":"Burned","inputs":[{"name":"from","type":"address","indexed":true,"internalType":"address"},{"name":"amount","type":"uint256","indexed":false,"internalType":"uint256"}],"anonymous":false},{"type":"event","name":"LotInvalidated","inputs":[{"name":"lotId","type":"bytes32","indexed":true,"internalType":"bytes32"}],"anonymous":false},{"type":"event","name":"Minted","inputs":[{"name":"to","type":"address","indexed":true,"internalType":"address"},{"name":"amount","type":"uint256","indexed":false,"internalType":"uint256"},{"name":"lotId","type":"bytes32","indexed":false,"internalType":"bytes32"}],"anonymous":false},{"type":"event","name":"Transfer","inputs":[{"name":"from","type":"address","indexed":true,"internalType":"address"},{"name":"to","type":"address","indexed":true,"internalType":"address"},{"name":"value","type":"uint256","indexed":false,"internalType":"uint256"}],"anonymous":false},{"type":"error","name":"AccessControl_CallerIsNotAuthorized","inputs":[{"name":"caller","type":"address","internalType":"address"},{"name":"functionSig","type":"bytes4","internalType":"bytes4"}]},{"type":"error","name":"TokenMintBurn_BurnFailed","inputs":[]},{"type":"error","name":"TokenMintBurn_InsufficientBalance","inputs":[]},{"type":"error","name":"TokenMintBurn_InvalidAddress","inputs":[]},{"type":"error","name":"TokenMintBurn_InvalidAmount","inputs":[]},{"type":"error","name":"TokenMintBurn_MintFailed","inputs":[]}],"bytecode":{"object":"0x608080604052346015576109bb908161001a8239f35b5f80fdfe6080806040526004361015610012575f80fd5b5f35908160e01c9081633e62267c146105995750806340c10f191461045957639dc29fac1461003f575f80fd5b346103f35761004d36610603565b916001600160e01b03191661006281336106ff565b1561044357506001600160a01b038116918215610434578015610425576001600160a01b0382165f9081527f884b97143fd2abce15e00e9522133610789cde1e35b2d8c3022698f6693d36c66020526040902081905410610416575f806040516020810190636b8fb8ab60e01b8252866024820152846044820152604481526100ec606482610629565b5190305afa906100fa61065f565b9115610407578151820190604083602084019303126103f357602083015167ffffffffffffffff81116103f35783019282603f850112156103f3576020840151936101448561069e565b946101526040519687610629565b8086526020808088019260051b84010101918583116103f357604001905b8282106103f75750505060408101519067ffffffffffffffff82116103f357019180603f840112156103f35760208301516101aa8161069e565b936101b86040519586610629565b8185526020808087019360051b830101019283116103f357604001905b8282106103e3575050505f5b83518110156102b357806101f7600192866106b6565b515f527f22ce1d58dbbbe3f2573a8aa67a5b301036cf40c4046c3db053dee7e96fed6ac360205260405f2082810160ff815460a01c16156102ac5761023c83876106b6565b5190600283019182548082145f1461029b575050805460ff60a01b191690555f905561026882876106b6565b517f0ff0ed35b733a3dabac7f6e6140e420911c45a59e7c56d0d817e1ebd1b5ad8275f80a25b6005429101555b016101e1565b6102a592506106de565b905561028e565b5050610295565b857f696de425f79f4a40bc6d2122ca50507f0efbeabbff86a84871b7196ab8ea8df76020846103118960018060a01b03165f527f884b97143fd2abce15e00e9522133610789cde1e35b2d8c3022698f6693d36c660205260405f2090565b61031c8282546106de565b9055610349817f884b97143fd2abce15e00e9522133610789cde1e35b2d8c3022698f6693d36c7546106de565b7f884b97143fd2abce15e00e9522133610789cde1e35b2d8c3022698f6693d36c7555f8060405184810190636fb12c5f60e11b82528760248201528260448201528460648201526064815261039f608482610629565b519082305af1506103ae61065f565b505f847fddf252ad1be2c89b69c2b068fc378daa952ba7f163c4a11628f55a4df523b3ef84604051858152a3604051908152a2005b81518152602091820191016101d5565b5f80fd5b8151815260209182019101610170565b630357492f60e51b5f5260045ffd5b6314c399c760e31b5f5260045ffd5b6375cb81bd60e11b5f5260045ffd5b63944bcb6f60e01b5f5260045ffd5b631d64bc3360e11b5f523360045260245260445ffd5b50346103f35761046836610603565b916001600160e01b03191661047d81336106ff565b1561044357506001600160a01b0316908115610434578015610425575f806040516020810190630d9f387560e01b82528560248201528460448201528260648201528260848201524260a482015261010060c48201528261012482015261012060e48201528261014482015282610104820152610144815261050161016482610629565b519082305af19161051061065f565b921561058a576040838051810103126103f3577fc263b302aec62d29105026245f19e16f8e0137066ccd4a8bd941f716bd4096bb604060208095015193835f7fddf252ad1be2c89b69c2b068fc378daa952ba7f163c4a11628f55a4df523b3ef888551858152a381519081528486820152a2604051908152f35b6362eb4e5960e11b5f5260045ffd5b346103f3575f3660031901126103f357632770a7eb60e21b602082019081526340c10f1960e01b602483015260088252906040906105d8602882610629565b8151928391602083525180918160208501528484015e5f828201840152601f01601f19168101030190f35b60409060031901126103f3576004356001600160a01b03811681036103f3579060243590565b90601f8019910116810190811067ffffffffffffffff82111761064b57604052565b634e487b7160e01b5f52604160045260245ffd5b3d15610699573d9067ffffffffffffffff821161064b576040519161068e601f8201601f191660200184610629565b82523d5f602084013e565b606090565b67ffffffffffffffff811161064b5760051b60200190565b80518210156106ca5760209160051b010190565b634e487b7160e01b5f52603260045260245ffd5b919082039182116106eb57565b634e487b7160e01b5f52601160045260245ffd5b8161070991610750565b61074a577f511915e52b7f9e690b9fdc662acaf5600fd3722c87eb951d3abd26e93a784dca5c9060ff821661073e5750505f90565b61074791610930565b90565b50600190565b7fce1c17acaaa67de66e928cd49c8f658667a825223bee6fda99a14908362bcdac546001600160a01b031680610885575b5060018060a01b0381165f527fce1c17acaaa67de66e928cd49c8f658667a825223bee6fda99a14908362bcdaa60205260405f20549163ffffffff60e01b165f527fce1c17acaaa67de66e928cd49c8f658667a825223bee6fda99a14908362bcdab60205260405f2054908115610841576001600160a01b03165f9081527fce1c17acaaa67de66e928cd49c8f658667a825223bee6fda99a14908362bcdaa6020526040902054600116151591821561083957505090565b161515919050565b6001600160a01b03165f9081527fce1c17acaaa67de66e928cd49c8f658667a825223bee6fda99a14908362bcdaa6020526040902054600116151591506107479050565b6040805163b700961360e01b81526001600160a01b03841660048201523060248201526001600160e01b03198516604482015291829060649082905afa5f91816108e1575b5015610781576108da575f610781565b5050600190565b9091506040813d604011610928575b816108fd60409383610629565b810103126103f35780519081151582036103f3576020015163ffffffff8116036103f357905f6108ca565b3d91506108f0565b60ff169081156108da5763ffffffff60e01b165f527fce1c17acaaa67de66e928cd49c8f658667a825223bee6fda99a14908362bcdab60205260405f205490811561097f576001901b16151590565b50505f9056fea2646970667358221220e38f7b9b15190fc8562213ce36ecbf0bf9ed95807683c5cff0e7b0b16b75df0764736f6c634300081e0033","linkReferences":{}},"methodIdentifiers":{"burn(address,uint256)":"9dc29fac","mint(address,uint256)":"40c10f19","packedSelectors()":"3e62267c"},"id":258}