{"abi":[{"type":"function","name":"TokenCorporateActions_init","inputs":[],"outputs":[],"stateMutability":"nonpayable"},{"type":"function","name":"applyStockDividend","inputs":[{"name":"divNum","type":"uint256","internalType":"uint256"},{"name":"divDen","type":"uint256","internalType":"uint256"},{"name":"reducesBasis","type":"bool","internalType":"bool"}],"outputs":[],"stateMutability":"nonpayable"},{"type":"function","name":"applyStockSplit","inputs":[{"name":"splitNum","type":"uint256","internalType":"uint256"},{"name":"splitDen","type":"uint256","internalType":"uint256"}],"outputs":[],"stateMutability":"nonpayable"},{"type":"function","name":"getCorporateActionStats","inputs":[],"outputs":[{"name":"totalSplits","type":"uint256","internalType":"uint256"},{"name":"totalDividends","type":"uint256","internalType":"uint256"}],"stateMutability":"view"},{"type":"function","name":"getCumulativeRatios","inputs":[],"outputs":[{"name":"splitNum","type":"uint256","internalType":"uint256"},{"name":"splitDen","type":"uint256","internalType":"uint256"},{"name":"divNum","type":"uint256","internalType":"uint256"},{"name":"divDen","type":"uint256","internalType":"uint256"},{"name":"divCostBasisNum","type":"uint256","internalType":"uint256"},{"name":"divCostBasisDen","type":"uint256","internalType":"uint256"}],"stateMutability":"view"},{"type":"function","name":"getLastActionInfo","inputs":[],"outputs":[{"name":"lastActionDate","type":"uint256","internalType":"uint256"},{"name":"lastActionReason","type":"string","internalType":"string"}],"stateMutability":"view"},{"type":"event","name":"StockDividendApplied","inputs":[{"name":"divNum","type":"uint256","indexed":false,"internalType":"uint256"},{"name":"divDen","type":"uint256","indexed":false,"internalType":"uint256"},{"name":"reducesBasis","type":"bool","indexed":false,"internalType":"bool"}],"anonymous":false},{"type":"event","name":"StockSplitApplied","inputs":[{"name":"splitNum","type":"uint256","indexed":false,"internalType":"uint256"},{"name":"splitDen","type":"uint256","indexed":false,"internalType":"uint256"}],"anonymous":false},{"type":"error","name":"AccessControl_CallerIsNotAuthorized","inputs":[{"name":"caller","type":"address","internalType":"address"},{"name":"functionSig","type":"bytes4","internalType":"bytes4"}]},{"type":"error","name":"Token_AlreadyInitialized","inputs":[]},{"type":"error","name":"Token_BalanceAdjustmentFailed","inputs":[]},{"type":"error","name":"Token_CostBasisAdjustmentFailed","inputs":[]},{"type":"error","name":"Token_DividendMustIncreaseShares","inputs":[]},{"type":"error","name":"Token_InvalidRatio","inputs":[]},{"type":"error","name":"Token_MaxSupplyExceeded","inputs":[]}],"bytecode":{"object":"0x60808060405234601557611198908161001a8239f35b5f80fdfe60806040526004361015610011575f80fd5b5f358060e01c8063140f19e51461082557806326f50e88146107c35780639809b964146106985780639c053e4314610609578063c78d4bef1461052c5763f3047e651461005c575f80fd5b346105285760403660031901126105285760243590600435906001600160e01b0319166100898133610ed4565b1561051257508015801561050a575b6104fb577fa1bf139cd1fbb7ab220fe2ad0c0725cf27749decebd3021e7171da15395e8fd45480610457575b506020916101236100e3835f5160206110a35f395f51905f5254610d31565b6100fb835f5160206111435f395f51905f5254610d31565b61010f6101088284610f95565b8093610d58565b5f5160206110a35f395f51905f5255610d58565b5f5160206111435f395f51905f525561015c7fe50a9a29f7518e5acce66ac079da49e4502ebbb06d368fb73c26da28ad696e9d54610d76565b7fe50a9a29f7518e5acce66ac079da49e4502ebbb06d368fb73c26da28ad696e9d55427fe50a9a29f7518e5acce66ac079da49e4502ebbb06d368fb73c26da28ad696e9f5561021160056101af84610fa9565b602d866101bb86610fa9565b6040519889946c029ba37b1b59029b83634ba1d1609d1b828701528051918291018587015e840190642d666f722d60d81b84830152805192839101603283015e01015f838201520301601f198101855284610d84565b825167ffffffffffffffff8111610443576102395f5160206110835f395f51905f5254610da6565b601f81116103d4575b506020601f821160011461035957819293945f9261034e575b50508160011b915f199060031b1c1916175f5160206110835f395f51905f52555b5f806040516020810190633bca061760e11b82526102b0816102a2878960248401610dde565b03601f198101835282610d84565b519082305af16102be610ea5565b501561033f575f806040516020810190635663775d60e01b82526102ea816102a2888860248401610dde565b519082305af16102f8610ea5565b5015610330577f533bf83c797d53aba879124c96e89de2a2561c335b985fe8f7fd97ed757663a39160409182519182526020820152a1005b63054692b360e31b5f5260045ffd5b6385b1152560e01b5f5260045ffd5b015190505f8061025b565b601f198216905f5160206110835f395f51905f525f52805f20915f5b8181106103bc575095836001959697106103a4575b505050811b015f5160206110835f395f51905f525561027c565b01515f1960f88460031b161c191690555f808061038a565b9192602060018192868b015181550194019201610375565b5f5160206110835f395f51905f525f527f36c227ee9cd345872b1f9b5be8fa9773e4eb2cf4e3880bd08eb206e38e1b610a601f830160051c81019160208410610439575b601f0160051c01905b81811061042e5750610242565b5f8155600101610421565b9091508190610418565b634e487b7160e01b5f52604160045260245ffd5b6104e1836104dc846104d76104af7fd23e1c200954d4d8dfbb94fac163ee8fc2dd9f8c360d040e972612b831c31b36547fd23e1c200954d4d8dfbb94fac163ee8fc2dd9f8c360d040e972612b831c31b315490610d31565b7fd23e1c200954d4d8dfbb94fac163ee8fc2dd9f8c360d040e972612b831c31b325490610d58565b610d31565b610d58565b116104ec575f6100c4565b634e18fd2160e01b5f5260045ffd5b6315c402e160e11b5f5260045ffd5b508115610098565b631d64bc3360e11b5f523360045260245260445ffd5b5f80fd5b34610528575f366003190112610528577fe50a9a29f7518e5acce66ac079da49e4502ebbb06d368fb73c26da28ad696e965460ff81166105fa5760019060ff1916177fe50a9a29f7518e5acce66ac079da49e4502ebbb06d368fb73c26da28ad696e965560015f5160206110a35f395f51905f525560015f5160206111435f395f51905f525560015f5160206110e35f395f51905f525560015f5160206110c35f395f51905f525560015f5160206111235f395f51905f525560015f5160206111035f395f51905f52555f80f35b6393e721db60e01b5f5260045ffd5b34610528575f3660031901126105285760c05f5160206110a35f395f51905f52545f5160206111435f395f51905f52545f5160206110e35f395f51905f52545f5160206110c35f395f51905f52545f5160206111235f395f51905f5254915f5160206111035f395f51905f525493604051958652602086015260408501526060840152608083015260a0820152f35b34610528575f366003190112610528577fe50a9a29f7518e5acce66ac079da49e4502ebbb06d368fb73c26da28ad696e9f546040515f915f5160206110835f395f51905f52546106e781610da6565b8084526020840191600181169081156107a85750600114610744575b5061071383606094950385610d84565b6040519384928352604060208401525180918160408501528484015e5f828201840152601f01601f19168101030190f35b5f5160206110835f395f51905f525f9081529094507f36c227ee9cd345872b1f9b5be8fa9773e4eb2cf4e3880bd08eb206e38e1b610a5b858210610792575083016020019350610713610703565b600181602092548385890101520191019061077b565b60ff1916835250151560051b83016020019350610713610703565b34610528575f3660031901126105285760407fe50a9a29f7518e5acce66ac079da49e4502ebbb06d368fb73c26da28ad696e9d547fe50a9a29f7518e5acce66ac079da49e4502ebbb06d368fb73c26da28ad696e9e5482519182526020820152f35b50346105285760603660031901126105285760043560243560443580151593848203610528576001600160e01b03191661085f8133610ed4565b15610512575082158015610d29575b6104fb57818310610d1a577fa1bf139cd1fbb7ab220fe2ad0c0725cf27749decebd3021e7171da15395e8fd45480610cb7575b506108fd6108bd845f5160206110e35f395f51905f5254610d31565b826108d6855f5160206110c35f395f51905f5254610d31565b90610c64575b6108e96101088284610f95565b5f5160206110e35f395f51905f5255610d58565b5f5160206110c35f395f51905f525561094e5f5160206111235f395f51905f52545f5160206111035f395f51905f525461093a6101088284610f95565b5f5160206111235f395f51905f5255610d58565b5f5160206111035f395f51905f52556109877fe50a9a29f7518e5acce66ac079da49e4502ebbb06d368fb73c26da28ad696e9e54610d76565b7fe50a9a29f7518e5acce66ac079da49e4502ebbb06d368fb73c26da28ad696e9e55427fe50a9a29f7518e5acce66ac079da49e4502ebbb06d368fb73c26da28ad696e9f556020610a3d60016109dc86610fa9565b6030846109e888610fa9565b6040519687946f029ba37b1b5902234bb34b232b7321d160851b828701528051918291018587015e840190602f60f81b84830152805192839101603183015e01015f838201520301601f198101835282610d84565b80519067ffffffffffffffff8211610443578190610a685f5160206110835f395f51905f5254610da6565b601f8111610bea575b50602090601f8311600114610b6c575f92610b61575b50508160011b915f199060031b1c1916175f5160206110835f395f51905f52555b5f806040516020810190633bca061760e11b8252610ace816102a2888a60248401610dde565b519082305af1610adc610ea5565b501561033f57610b20575b907fecc78d6ce272d0fc4f4e7fb0f45d75e85ef62de13797c6dac3cd0098784f110f9260609260405192835260208301526040820152a1005b905f806040516020810190635663775d60e01b8252610b47816102a2878960248401610dde565b519082305af1610b55610ea5565b50156103305790610ae7565b015190505f80610a87565b5f5160206110835f395f51905f525f9081528281209350601f198516905b818110610bd25750908460019594939210610bba575b505050811b015f5160206110835f395f51905f5255610aa8565b01515f1960f88460031b161c191690555f8080610ba0565b92936020600181928786015181550195019301610b8a565b5f5160206110835f395f51905f525f529091507f36c227ee9cd345872b1f9b5be8fa9773e4eb2cf4e3880bd08eb206e38e1b610a601f840160051c81019160208510610c5a575b90601f859493920160051c01905b818110610c4c5750610a71565b5f8155849350600101610c3f565b9091508190610c31565b610c7c855f5160206111235f395f51905f5254610d31565b5f5160206111235f395f51905f5255610ca3865f5160206111035f395f51905f5254610d31565b5f5160206111035f395f51905f52556108dc565b610d0f836104dc866104d76104af7fd23e1c200954d4d8dfbb94fac163ee8fc2dd9f8c360d040e972612b831c31b36547fd23e1c200954d4d8dfbb94fac163ee8fc2dd9f8c360d040e972612b831c31b315490610d31565b116104ec575f6108a1565b6315e93c2960e01b5f5260045ffd5b50811561086e565b81810292918115918404141715610d4457565b634e487b7160e01b5f52601160045260245ffd5b8115610d62570490565b634e487b7160e01b5f52601260045260245ffd5b5f198114610d445760010190565b90601f8019910116810190811067ffffffffffffffff82111761044357604052565b90600182811c92168015610dd4575b6020831014610dc057565b634e487b7160e01b5f52602260045260245ffd5b91607f1691610db5565b909160609282526020820152816040820152015f5160206110835f395f51905f525f91815491610e0d83610da6565b8083529260018116908115610e685750600114610e2b575b50505090565b5f90815260208120929350915b838310610e4e57506020925001015f8080610e25565b600181602092949394548385870101520191019190610e38565b9150506020935060ff929192191683830152151560051b01015f8080610e25565b67ffffffffffffffff811161044357601f01601f191660200190565b3d15610ecf573d90610eb682610e89565b91610ec46040519384610d84565b82523d5f602084013e565b606090565b6001600160a01b03165f8181527f35edad4c931e57ec40cedc90b9e3e052832d1b49c07eb789b019aea9b39c91d960209081526040808320546001600160e01b031990951683527f35edad4c931e57ec40cedc90b9e3e052832d1b49c07eb789b019aea9b39c91da909152902054908115610f8d575f527f35edad4c931e57ec40cedc90b9e3e052832d1b49c07eb789b019aea9b39c91d9602052600160405f2054161591821592610f8557505090565b161515919050565b505050600190565b905b8015610fa557809106610f97565b5090565b8015611062575f81805b61104e5750610fc181610e89565b90610fcf6040519283610d84565b808252601f19610fde82610e89565b013660208401375b80928015611047575f198201918211610d44578193600a82066030019283603011610d44578451111561103357600a9260f81b6001600160f81b0319165f1a908401601f01530491610fe6565b634e487b7160e01b5f52603260045260245ffd5b5050905090565b9061105a600a91610d76565b910480610fb3565b50604051611071604082610d84565b60018152600360fc1b60208201529056fee50a9a29f7518e5acce66ac079da49e4502ebbb06d368fb73c26da28ad696ea0e50a9a29f7518e5acce66ac079da49e4502ebbb06d368fb73c26da28ad696e97e50a9a29f7518e5acce66ac079da49e4502ebbb06d368fb73c26da28ad696e9ae50a9a29f7518e5acce66ac079da49e4502ebbb06d368fb73c26da28ad696e99e50a9a29f7518e5acce66ac079da49e4502ebbb06d368fb73c26da28ad696e9ce50a9a29f7518e5acce66ac079da49e4502ebbb06d368fb73c26da28ad696e9be50a9a29f7518e5acce66ac079da49e4502ebbb06d368fb73c26da28ad696e98a264697066735822122040e4993a330b202a43b8e263ad234cec8a83090c69233edf5edc47da65338ca564736f6c634300081e0033","linkReferences":{}},"methodIdentifiers":{"TokenCorporateActions_init()":"c78d4bef","applyStockDividend(uint256,uint256,bool)":"140f19e5","applyStockSplit(uint256,uint256)":"f3047e65","getCorporateActionStats()":"26f50e88","getCumulativeRatios()":"9c053e43","getLastActionInfo()":"9809b964"},"id":93}