{"abi":[{"type":"function","name":"TokenFactoryCore_init","inputs":[{"name":"diamondFactory","type":"address","internalType":"address"},{"name":"admin","type":"address","internalType":"address"}],"outputs":[],"stateMutability":"nonpayable"},{"type":"function","name":"activateComplianceModule","inputs":[{"name":"moduleName","type":"string","internalType":"string"}],"outputs":[],"stateMutability":"nonpayable"},{"type":"function","name":"createToken","inputs":[{"name":"config","type":"tuple","internalType":"struct ITokenFactory.TokenConfig","components":[{"name":"admin","type":"address","internalType":"address"},{"name":"decimals","type":"uint8","internalType":"uint8"},{"name":"name","type":"string","internalType":"string"},{"name":"symbol","type":"string","internalType":"string"},{"name":"baseURI","type":"string","internalType":"string"}]},{"name":"facetCuts","type":"tuple[]","internalType":"struct IDiamondCut.FacetCut[]","components":[{"name":"facetAddress","type":"address","internalType":"address"},{"name":"action","type":"uint8","internalType":"enum IDiamondCut.FacetCutAction"},{"name":"functionSelectors","type":"bytes4[]","internalType":"bytes4[]"}]},{"name":"initAddress","type":"address","internalType":"address"},{"name":"initData","type":"bytes","internalType":"bytes"},{"name":"complianceModules","type":"tuple[]","internalType":"struct ITokenFactory.ComplianceModuleConfig[]","components":[{"name":"moduleName","type":"string","internalType":"string"},{"name":"initData","type":"bytes","internalType":"bytes"}]},{"name":"salt","type":"bytes32","internalType":"bytes32"}],"outputs":[{"name":"result","type":"tuple","internalType":"struct ITokenFactory.DeploymentResult","components":[{"name":"tokenDiamond","type":"address","internalType":"address"},{"name":"complianceModules","type":"address[]","internalType":"address[]"},{"name":"moduleNames","type":"string[]","internalType":"string[]"}]}],"stateMutability":"payable"},{"type":"function","name":"deactivateComplianceModule","inputs":[{"name":"moduleName","type":"string","internalType":"string"}],"outputs":[],"stateMutability":"nonpayable"},{"type":"function","name":"getComplianceModule","inputs":[{"name":"moduleName","type":"string","internalType":"string"}],"outputs":[{"name":"info","type":"tuple","internalType":"struct ITokenFactory.ModuleInfo","components":[{"name":"implementation","type":"address","internalType":"address"},{"name":"isActive","type":"bool","internalType":"bool"},{"name":"deployCount","type":"uint256","internalType":"uint256"}]}],"stateMutability":"view"},{"type":"function","name":"getDiamondFactory","inputs":[],"outputs":[{"name":"","type":"address","internalType":"address"}],"stateMutability":"view"},{"type":"function","name":"getRegisteredModules","inputs":[],"outputs":[{"name":"","type":"string[]","internalType":"string[]"}],"stateMutability":"view"},{"type":"function","name":"isInitialized","inputs":[],"outputs":[{"name":"","type":"bool","internalType":"bool"}],"stateMutability":"view"},{"type":"function","name":"predictTokenAddress","inputs":[{"name":"deployer","type":"address","internalType":"address"},{"name":"facetCuts","type":"tuple[]","internalType":"struct IDiamondCut.FacetCut[]","components":[{"name":"facetAddress","type":"address","internalType":"address"},{"name":"action","type":"uint8","internalType":"enum IDiamondCut.FacetCutAction"},{"name":"functionSelectors","type":"bytes4[]","internalType":"bytes4[]"}]},{"name":"initAddress","type":"address","internalType":"address"},{"name":"initData","type":"bytes","internalType":"bytes"},{"name":"salt","type":"bytes32","internalType":"bytes32"}],"outputs":[{"name":"","type":"address","internalType":"address"}],"stateMutability":"view"},{"type":"function","name":"registerComplianceModule","inputs":[{"name":"moduleName","type":"string","internalType":"string"},{"name":"implementation","type":"address","internalType":"address"}],"outputs":[],"stateMutability":"nonpayable"},{"type":"function","name":"updateComplianceModule","inputs":[{"name":"moduleName","type":"string","internalType":"string"},{"name":"newImplementation","type":"address","internalType":"address"}],"outputs":[],"stateMutability":"nonpayable"},{"type":"event","name":"ComplianceModuleActivated","inputs":[{"name":"moduleName","type":"string","indexed":true,"internalType":"string"}],"anonymous":false},{"type":"event","name":"ComplianceModuleDeactivated","inputs":[{"name":"moduleName","type":"string","indexed":true,"internalType":"string"}],"anonymous":false},{"type":"event","name":"ComplianceModuleRegistered","inputs":[{"name":"moduleName","type":"string","indexed":true,"internalType":"string"},{"name":"implementation","type":"address","indexed":true,"internalType":"address"}],"anonymous":false},{"type":"event","name":"ComplianceModuleUpdated","inputs":[{"name":"moduleName","type":"string","indexed":true,"internalType":"string"},{"name":"oldImplementation","type":"address","indexed":true,"internalType":"address"},{"name":"newImplementation","type":"address","indexed":true,"internalType":"address"}],"anonymous":false},{"type":"event","name":"TokenCreated","inputs":[{"name":"tokenDiamond","type":"address","indexed":true,"internalType":"address"},{"name":"admin","type":"address","indexed":true,"internalType":"address"},{"name":"name","type":"string","indexed":false,"internalType":"string"},{"name":"symbol","type":"string","indexed":false,"internalType":"string"},{"name":"complianceModules","type":"address[]","indexed":false,"internalType":"address[]"},{"name":"salt","type":"bytes32","indexed":false,"internalType":"bytes32"}],"anonymous":false},{"type":"event","name":"TokenFactoryInitialized","inputs":[{"name":"diamondFactory","type":"address","indexed":true,"internalType":"address"},{"name":"admin","type":"address","indexed":true,"internalType":"address"}],"anonymous":false},{"type":"error","name":"AccessControl_CallerIsNotAuthorized","inputs":[{"name":"caller","type":"address","internalType":"address"},{"name":"functionSig","type":"bytes4","internalType":"bytes4"}]},{"type":"error","name":"TokenFactory_AlreadyInitialized","inputs":[]},{"type":"error","name":"TokenFactory_EIP1167CreateFailed","inputs":[]},{"type":"error","name":"TokenFactory_InvalidConfiguration","inputs":[]},{"type":"error","name":"TokenFactory_InvalidDiamondFactory","inputs":[]},{"type":"error","name":"TokenFactory_InvalidImplementationAddress","inputs":[]},{"type":"error","name":"TokenFactory_ModuleAlreadyRegistered","inputs":[{"name":"moduleName","type":"string","internalType":"string"}]},{"type":"error","name":"TokenFactory_ModuleInitializationFailed","inputs":[]},{"type":"error","name":"TokenFactory_ModuleNotActive","inputs":[{"name":"moduleName","type":"string","internalType":"string"}]},{"type":"error","name":"TokenFactory_ModuleNotFound","inputs":[{"name":"moduleName","type":"string","internalType":"string"}]},{"type":"error","name":"TokenFactory_NotInitialized","inputs":[]}],"bytecode":{"object":"0x60808060405234601557611964908161001a8239f35b5f80fdfe60806040526004361015610011575f80fd5b5f3560e01c8063160a5d0c146100c457806317db9b87146100bf578063354c58a2146100ba578063392e53cd146100b557806342f56994146100b057806354ec0f1b146100ab57806378dbd25c146100a65780637d93c598146100a15780639c802c7e1461009c578063de044bcc146100975763e30abdc514610092575f80fd5b610bfc565b610a5a565b6108d7565b61089f565b610796565b6106a8565b610604565b6105d6565b6104c9565b610371565b610253565b908160a09103126100d75790565b5f80fd5b9181601f840112156100d7578235916001600160401b0383116100d7576020808501948460051b0101116100d757565b6001600160a01b038116036100d757565b604435906101298261010b565b565b9181601f840112156100d7578235916001600160401b0383116100d757602083818601950101116100d757565b805180835260209291819084018484015e5f828201840152601f01601f1916010190565b9080602083519182815201916020808360051b8301019401925f915b8383106101a757505050505090565b90919293946020806101c5600193601f198682030187528951610158565b97019301930191939290610198565b602080825282516001600160a01b031681830152808301516060604084015280516080840181905293949360a08401939291909101905f5b81811061023457505050604061023193940151906060601f198285030191015261017c565b90565b82516001600160a01b031685526020948501949092019160010161020c565b60c03660031901126100d7576004356001600160401b0381116100d75761027e9036906004016100c9565b6024356001600160401b0381116100d75761029d9036906004016100db565b916102a661011c565b926064356001600160401b0381116100d7576102c690369060040161012b565b60843594916001600160401b0386116100d75761030e966102ee6103029736906004016100db565b95909460a435976102fd610d20565b610d3f565b604051918291826101d4565b0390f35b602081016020825282518091526040820191602060408360051b8301019401925f915b83831061034457505050505090565b9091929394602080610362600193603f198682030187528951610158565b97019301930191939290610335565b346100d7575f3660031901126100d7575f5160206118cf5f395f51905f525461039981610f4c565b6103a66040519182610ce2565b8181525f5160206118cf5f395f51905f525f9081527f0b92da510106013d8464786d1a775a5dbfc2743d5f53b343431fee3e7a68ddd99290602083015b8282106103f8576040518061030e8682610312565b6040515f865461040781611295565b80845290600181169081156104785750600114610441575b506001928261043385946020940382610ce2565b8152019501910190936103e3565b5f888152602081209092505b8183106104625750508101602001600161041f565b600181602092548386880101520192019161044d565b60ff191660208581019190915291151560051b840190910191506001905061041f565b60206003198201126100d757600435906001600160401b0382116100d7576104c59160040161012b565b9091565b346100d7576104d73661049b565b905f356001600160e01b0319166104ee8133611550565b156105c0575060ff5f5160206118ef5f395f51905f525416156105b15761054061052661051c368585610f7e565b6020815191012090565b5f525f51602061190f5f395f51905f5260205260405f2090565b80546001600160a01b03161561059057805460ff60a01b1916905561056a91906112de565b6112de565b7ff4ec985f029341aef33ec4da28f68944f125843ff9e2f18f89df1cfb4ae8443e5f80a2005b506105ad60405192839263dbd63d5560e01b8452600484016112cd565b0390fd5b6323a7c77760e11b5f5260045ffd5b631d64bc3360e11b5f523360045260245260445ffd5b346100d7575f3660031901126100d757602060ff5f5160206118ef5f395f51905f5254166040519015158152f35b346100d7576106123661049b565b905f356001600160e01b0319166106298133611550565b156105c0575060ff5f5160206118ef5f395f51905f525416156105b15761065761052661051c368585610f7e565b80546001600160a01b03161561059057805460ff60a01b1916600160a01b17905561068291906112de565b7f8cd45a140c416052d7fe8333070610e702e0f567e26b74f6c3093c27d2f940e25f80a2005b346100d7576106d96106b93661049b565b5f604080516106c781610ca7565b82815282602082015201523691610f7e565b602081519101205f525f51602061190f5f395f51905f5260205261030e60405f206001815491015461072860ff61070e610d03565b6001600160a01b03851681529360a01c1615156020840152565b6040828101918252805183516001600160a01b031681526020938401511515938101939093529051908201529081906060820190565b60406003198201126100d757600435906001600160401b0382116100d7576107889160040161012b565b90916024356102318161010b565b346100d7576107a43661075e565b905f356001600160e01b0319166107bb8133611550565b156105c057506107e06107dc5f5160206118ef5f395f51905f525460ff1690565b1590565b6105b1576001600160a01b0382169283156108905761080661052661051c368585610f7e565b80546001600160a01b0316939084156108725780546001600160a01b0319166001600160a01b0390921691909117905561084091906112de565b6001600160a01b03909116907f0a31c984f5b85b8241a6fd46ff35d22eb5c29501b6e90a18afdc7e73e1e4af785f80a4005b50506105ad60405192839263dbd63d5560e01b8452600484016112cd565b63ac0a3c5960e01b5f5260045ffd5b346100d7575f3660031901126100d7575f5160206118ef5f395f51905f525460405160089190911c6001600160a01b03168152602090f35b346100d7576108e53661075e565b91905f356001600160e01b0319166108fd8133611550565b156105c0575061091e6107dc5f5160206118ef5f395f51905f525460ff1690565b6105b1576001600160a01b0383169182156108905761094161051c368484610f7e565b61097e610972610965835f525f51602061190f5f395f51905f5260205260405f2090565b546001600160a01b031690565b6001600160a01b031690565b610a3d57610a1793946109cf610a0d926109a8610999610d03565b6001600160a01b039094168452565b600160208401525f60408401525f525f51602061190f5f395f51905f5260205260405f2090565b8151815460208401516001600160a01b039092166001600160a81b03199091161790151560a01b60ff60a01b16178155604090910151600190910155565b6105658282611355565b7f8a0d9d9a3dc59b62e13ef2c621311b9bcc16cb87cdfdc98ad6dc0a4f9f8fe3e05f80a3005b506105ad6040519283926303b51ec160e41b8452600484016112cd565b346100d75760403660031901126100d757600435610a778161010b565b602435610a838161010b565b5f5160206118ef5f395f51905f525460ff16610bed576001600160a01b038216908115610bde576001600160a01b0316918215610bcf575f5160206118ef5f395f51905f528054600160089390931b610100600160a81b03166001600160a81b031990911617919091179055610af960a0610d12565b63378112f360e21b8152634e40163f60e11b6020820152631e36f49760e21b6040820152631aa62c5160e11b60608201526310bd5a6560e21b60808201526001905f5b60058110610b6d575050507fd6bef0f7ac6edfb5aa1eee01eda1280471044de135ae84d11aca22ccfca140925f80a3005b80610bc3610b8d610b7f86948661148f565b516001600160e01b03191690565b63ffffffff60e01b165f527f35edad4c931e57ec40cedc90b9e3e052832d1b49c07eb789b019aea9b39c91da60205260405f2090565b82815417905501610b3c565b63f8bc375960e01b5f5260045ffd5b639e9084b360e01b5f5260045ffd5b635cc2141d60e11b5f5260045ffd5b346100d75760a03660031901126100d757600435610c198161010b565b6024356001600160401b0381116100d757610c389036906004016100db565b9160443592610c468461010b565b606435926001600160401b0384116100d75761030e94610c6d610c7995369060040161012b565b939092608435956114a0565b6040516001600160a01b0390911681529081906020820190565b634e487b7160e01b5f52604160045260245ffd5b606081019081106001600160401b03821117610cc257604052565b610c93565b604081019081106001600160401b03821117610cc257604052565b90601f801991011681019081106001600160401b03821117610cc257604052565b60405190610129606083610ce2565b906101296040519283610ce2565b60405190610d2d82610ca7565b60606040835f81528260208201520152565b989590969391979263ffffffff60e01b5f3516610d5c8133611550565b156105c05750610d7d6107dc5f5160206118ef5f395f51905f525460ff1690565b6105b1576040880194610d90868a610f10565b9050158015610efa575b610bcf576001600160a01b03610daf8a610f42565b1615610bcf57610dc6610dcb916020963691610fb4565b611702565b60408c01528a85019081525f5160206118ef5f395f51905f5254909990610e23908990610e05906109729060081c6001600160a01b031681565b94604051998a9788968796630504c76b60e01b8852600488016111d7565b039134905af18015610ef5577f87477e6a0d671c4cc667d1025a7767131dfa3369cfbcb7684641d4b4876fc10893610e71610ec092610e9d955f91610ec6575b506001600160a01b03168952565b87516001600160a01b031696610e90610e8988610f42565b9488610f10565b9590976060810190610f10565b91516040516001600160a01b039687169a90961698959687969193929187611222565b0390a390565b610ee8915060203d602011610eee575b610ee08183610ce2565b810190611090565b5f610e63565b503d610ed6565b611217565b50610f0860608a018a610f10565b905015610d9a565b903590601e19813603018212156100d757018035906001600160401b0382116100d7576020019181360383136100d757565b356102318161010b565b6001600160401b038111610cc25760051b60200190565b6001600160401b038111610cc257601f01601f191660200190565b929192610f8a82610f63565b91610f986040519384610ce2565b8294818452818301116100d7578281602093845f960137010152565b929192610fc082610f4c565b93610fce6040519586610ce2565b602085848152019260051b8201918183116100d75780935b838510610ff4575050505050565b84356001600160401b0381116100d7578201906040828503126100d7576040519161101e83610cc7565b80356001600160401b0381116100d757810185601f820112156100d7578581602061104b93359101610f7e565b83526020810135906001600160401b0382116100d757019084601f830112156100d7576020926110818684868096359101610f7e565b83820152815201940193610fe6565b908160209103126100d757516102318161010b565b916020908281520191905f905b8082106110bf5750505090565b90919283359063ffffffff60e01b82168092036100d7576020816001938293520194019201906110b2565b906020838281520160208260051b85010193835f915b8483106111105750505050505090565b909192939495601f198282030185528635605e19843603018112156100d7578301803561113c8161010b565b6001600160a01b03168252602081013560038110156100d75760208301526040810135601e19823603018112156100d75701602081359101906001600160401b0381116100d7578060051b360382136100d7576111a96020928392606086816040600199015201916110a5565b980196950193019190611100565b908060209392818452848401375f828201840152601f01601f1916010190565b96959490936111f5606095611212959460808b5260808b01916110ea565b6001600160a01b03909316602089015287830360408901526111b7565b930152565b6040513d5f823e3d90fd5b969594939061123e9061124c949360808a5260808a01916111b7565b9187830360208901526111b7565b908482036040860152602080825193848152019101915f5b81811061127657505060609150930152565b83516001600160a01b0316835260209384019390920191600101611264565b90600182811c921680156112c3575b60208310146112af57565b634e487b7160e01b5f52602260045260245ffd5b91607f16916112a4565b9160206102319381815201916111b7565b81604051928392833781015f815203902090565b634e487b7160e01b5f52603260045260245ffd5b601f821161131357505050565b5f5260205f20906020601f840160051c8301931061134b575b601f0160051c01905b818110611340575050565b5f8155600101611335565b909150819061132c565b91905f5160206118cf5f395f51905f525468010000000000000000811015610cc25760018101805f5160206118cf5f395f51905f525581101561148a575f5160206118cf5f395f51905f525f527f0b92da510106013d8464786d1a775a5dbfc2743d5f53b343431fee3e7a68ddd901906001600160401b038111610cc2576113e7816113e18454611295565b84611306565b5f601f82116001146114255781906114169394955f9261141a575b50508160011b915f199060031b1c19161790565b9055565b013590505f80611402565b601f19821694611438845f5260205f2090565b915f5b878110611472575083600195969710611459575b505050811b019055565b01355f19600384901b60f8161c191690555f808061144f565b9092602060018192868601358155019401910161143b565b6112f2565b90600581101561148a5760051b0190565b9093929561151c6114fb9760209760018060a01b035f5160206118ef5f395f51905f525460081c16966040519a8b998a9889986311f06bc960e11b8a5260018060a01b031660048a015260a060248a015260a48901916110ea565b6001600160a01b0390931660448701528583036003190160648701526111b7565b90608483015203915afa908115610ef5575f91611537575090565b610231915060203d602011610eee57610ee08183610ce2565b6001600160a01b03165f8181527f35edad4c931e57ec40cedc90b9e3e052832d1b49c07eb789b019aea9b39c91d960209081526040808320546001600160e01b031990951683527f35edad4c931e57ec40cedc90b9e3e052832d1b49c07eb789b019aea9b39c91da909152902054908115611609575f527f35edad4c931e57ec40cedc90b9e3e052832d1b49c07eb789b019aea9b39c91d9602052600160405f205416159182159261160157505090565b161515919050565b505050600190565b9061161b82610f4c565b6116286040519182610ce2565b8281528092611639601f1991610f4c565b0190602036910137565b9061164d82610f4c565b61165a6040519182610ce2565b828152809261166b601f1991610f4c565b01905f5b82811061167b57505050565b80606060208093850101520161166f565b805182101561148a5760209160051b010190565b906020610231928181520190610158565b3d156116db573d906116c282610f63565b916116d06040519384610ce2565b82523d5f602084013e565b606090565b5f1981146116ee5760010190565b634e487b7160e01b5f52601160045260245ffd5b9061170d8251611611565b6117178351611643565b925f5b81518110156118625761173f610526611733838561168c565b51516020815191012090565b80549091906001600160a01b03811690811561183a576117639060a01c60ff161590565b6118125761177090611868565b602061177c838661168c565b510151516117db575b6001926117a68492611797858961168c565b6001600160a01b039091169052565b6117b0838661168c565b51516117bc848a61168c565b526117c7838961168c565b50016117d381546116e0565b90550161171a565b5f8060206117e9858861168c565b51015160208151910182855af16117fe6116b1565b50611785576381c17f4760e01b5f5260045ffd5b6105ad61181f838661168c565b5151604051630196d3cf60e71b8152918291600483016116a0565b6105ad611847848761168c565b515160405163dbd63d5560e01b8152918291600483016116a0565b50509190565b604051733d602d80600a3d3981f3363d3d373d3d3d363d7360601b815260609190911b60148201526e5af43d82803e903d91602b57fd5bf360881b60288201526037905ff0906001600160a01b038216156118bf57565b630f49c00560e41b5f5260045ffdfe3fefdcb54e953db3ddb11f3ce93e8d8399261c65daba0db5abf727be5d5c8b4d3fefdcb54e953db3ddb11f3ce93e8d8399261c65daba0db5abf727be5d5c8b4b3fefdcb54e953db3ddb11f3ce93e8d8399261c65daba0db5abf727be5d5c8b4ca264697066735822122002f4fc6e8859acbbd90fa1038c3bc05beeb17dc4d289be2a50d70c5a12c68c6d64736f6c634300081e0033","linkReferences":{}},"methodIdentifiers":{"TokenFactoryCore_init(address,address)":"de044bcc","activateComplianceModule(string)":"42f56994","createToken((address,uint8,string,string,string),(address,uint8,bytes4[])[],address,bytes,(string,bytes)[],bytes32)":"160a5d0c","deactivateComplianceModule(string)":"354c58a2","getComplianceModule(string)":"54ec0f1b","getDiamondFactory()":"7d93c598","getRegisteredModules()":"17db9b87","isInitialized()":"392e53cd","predictTokenAddress(address,(address,uint8,bytes4[])[],address,bytes,bytes32)":"e30abdc5","registerComplianceModule(string,address)":"9c802c7e","updateComplianceModule(string,address)":"78dbd25c"},"id":103}