{"abi":[{"type":"function","name":"approveLot","inputs":[{"name":"lotId","type":"bytes32","internalType":"bytes32"},{"name":"spender","type":"address","internalType":"address"},{"name":"amount","type":"uint256","internalType":"uint256"}],"outputs":[],"stateMutability":"nonpayable"},{"type":"function","name":"customIdToLotId","inputs":[{"name":"customId","type":"uint256","internalType":"uint256"}],"outputs":[{"name":"","type":"bytes32","internalType":"bytes32"}],"stateMutability":"view"},{"type":"function","name":"getLot","inputs":[{"name":"lotId","type":"bytes32","internalType":"bytes32"}],"outputs":[{"name":"","type":"tuple","internalType":"struct IToken.Lot","components":[{"name":"owner","type":"address","internalType":"address"},{"name":"paymentCurrency","type":"address","internalType":"address"},{"name":"isValid","type":"bool","internalType":"bool"},{"name":"tType","type":"uint8","internalType":"enum IToken.TransferType"},{"name":"quantity","type":"uint256","internalType":"uint256"},{"name":"costBasis","type":"uint256","internalType":"uint256"},{"name":"acquisitionDate","type":"uint256","internalType":"uint256"},{"name":"lastUpdate","type":"uint256","internalType":"uint256"},{"name":"parentLotId","type":"bytes32","internalType":"bytes32"},{"name":"uri","type":"string","internalType":"string"},{"name":"data","type":"bytes","internalType":"bytes"}]}],"stateMutability":"view"},{"type":"function","name":"getLotApproval","inputs":[{"name":"lotId","type":"bytes32","internalType":"bytes32"},{"name":"spender","type":"address","internalType":"address"}],"outputs":[{"name":"","type":"uint256","internalType":"uint256"}],"stateMutability":"view"},{"type":"function","name":"getLotsOf","inputs":[{"name":"account","type":"address","internalType":"address"}],"outputs":[{"name":"","type":"bytes32[]","internalType":"bytes32[]"}],"stateMutability":"view"},{"type":"function","name":"isApprovedForAllLots","inputs":[{"name":"owner","type":"address","internalType":"address"},{"name":"operator","type":"address","internalType":"address"}],"outputs":[{"name":"","type":"bool","internalType":"bool"}],"stateMutability":"view"},{"type":"function","name":"lotExists","inputs":[{"name":"lotId","type":"bytes32","internalType":"bytes32"}],"outputs":[{"name":"","type":"bool","internalType":"bool"}],"stateMutability":"view"},{"type":"function","name":"lotIdToCustomId","inputs":[{"name":"lotId","type":"bytes32","internalType":"bytes32"}],"outputs":[{"name":"","type":"uint256","internalType":"uint256"}],"stateMutability":"view"},{"type":"function","name":"packedSelectors","inputs":[],"outputs":[{"name":"","type":"bytes","internalType":"bytes"}],"stateMutability":"pure"},{"type":"function","name":"setApprovalForAllLots","inputs":[{"name":"operator","type":"address","internalType":"address"},{"name":"approved","type":"bool","internalType":"bool"}],"outputs":[],"stateMutability":"nonpayable"},{"type":"function","name":"transferLot","inputs":[{"name":"lotId","type":"bytes32","internalType":"bytes32"},{"name":"to","type":"address","internalType":"address"},{"name":"quantity","type":"uint256","internalType":"uint256"},{"name":"tType","type":"uint8","internalType":"enum IToken.TransferType"},{"name":"newCostBasis","type":"uint256","internalType":"uint256"},{"name":"uri","type":"string","internalType":"string"},{"name":"data","type":"bytes","internalType":"bytes"}],"outputs":[{"name":"newLotId","type":"bytes32","internalType":"bytes32"}],"stateMutability":"nonpayable"},{"type":"function","name":"transferLotFrom","inputs":[{"name":"lotId","type":"bytes32","internalType":"bytes32"},{"name":"from","type":"address","internalType":"address"},{"name":"to","type":"address","internalType":"address"},{"name":"quantity","type":"uint256","internalType":"uint256"},{"name":"tType","type":"uint8","internalType":"enum IToken.TransferType"},{"name":"newCostBasis","type":"uint256","internalType":"uint256"},{"name":"uri","type":"string","internalType":"string"},{"name":"data","type":"bytes","internalType":"bytes"}],"outputs":[{"name":"newLotId","type":"bytes32","internalType":"bytes32"}],"stateMutability":"nonpayable"},{"type":"event","name":"ApprovalForAll","inputs":[{"name":"owner","type":"address","indexed":true,"internalType":"address"},{"name":"operator","type":"address","indexed":true,"internalType":"address"},{"name":"approved","type":"bool","indexed":false,"internalType":"bool"}],"anonymous":false},{"type":"event","name":"LotApproval","inputs":[{"name":"lotId","type":"bytes32","indexed":true,"internalType":"bytes32"},{"name":"owner","type":"address","indexed":true,"internalType":"address"},{"name":"spender","type":"address","indexed":true,"internalType":"address"},{"name":"amount","type":"uint256","indexed":false,"internalType":"uint256"}],"anonymous":false},{"type":"error","name":"Token_LotNotExists","inputs":[]},{"type":"error","name":"Token_LotTransferValidationFailed","inputs":[]},{"type":"error","name":"Token_NotAuthorized","inputs":[]},{"type":"error","name":"Token_NotLotOwner","inputs":[]}],"bytecode":{"object":"0x60808060405234601557610dcf908161001a8239f35b5f80fdfe60806040526004361015610011575f80fd5b5f3560e01c806305424ebe146100d457806314ff3606146100cf57806322e9c71e146100ca578063273f023c146100c55780633e62267c146100c0578063639fde00146100bb57806365baf447146100b657806373e2e26f146100b15780638bdcb65a146100ac5780638ce16f81146100a7578063964e14b7146100a25763a7507cb51461009d575f80fd5b61080c565b6107cb565b610696565b610537565b6104bf565b610469565b6103cf565b610309565b61029c565b61024a565b610201565b610158565b600435906001600160a01b03821682036100ef57565b5f80fd5b602435906001600160a01b03821682036100ef57565b604435906001600160a01b03821682036100ef57565b60206040818301928281528451809452019201905f5b8181106101425750505090565b8251845260209384019390920191600101610135565b346100ef5760203660031901126100ef576101ac6101746100d9565b6001600160a01b03165f9081527f22ce1d58dbbbe3f2573a8aa67a5b301036cf40c4046c3db053dee7e96fed6ac46020526040902090565b6040519081602082549182815201915f5260205f20905f5b8181106101eb576101e7856101db81870382610961565b6040519182918261011f565b0390f35b82548452602090930192600192830192016101c4565b346100ef5760203660031901126100ef576004355f527f22ce1d58dbbbe3f2573a8aa67a5b301036cf40c4046c3db053dee7e96fed6ac6602052602060405f2054604051908152f35b346100ef5760403660031901126100ef57602060ff61029061026a6100d9565b61027b6102756100f3565b916108f3565b9060018060a01b03165f5260205260405f2090565b54166040519015158152f35b346100ef5760203660031901126100ef576004355f527f22ce1d58dbbbe3f2573a8aa67a5b301036cf40c4046c3db053dee7e96fed6ac7602052602060405f2054604051908152f35b805180835260209291819084018484015e5f828201840152601f01601f1916010190565b346100ef575f3660031901126100ef5760405163a7507cb560e01b60208201526365baf44760e01b6024820152631174e38f60e11b60288201526373e2e26f60e01b602c8201526231cfef60e91b6030820152601481526101e79061036f603482610961565b6040519182916020835260208301906102e5565b60843590600a8210156100ef57565b60643590600a8210156100ef57565b9181601f840112156100ef5782359167ffffffffffffffff83116100ef57602083818601950101116100ef57565b346100ef576101003660031901126100ef576004356103ec6100f3565b906103f5610109565b9160643591610402610383565b60a4359060c43567ffffffffffffffff81116100ef576104269036906004016103a1565b92909160e4359667ffffffffffffffff88116100ef576101e7986104516104599936906004016103a1565b989097610a63565b6040519081529081906020820190565b346100ef5760403660031901126100ef5760206104b660043561048a6100f3565b905f525f516020610d7a5f395f51905f52835260405f209060018060a01b03165f5260205260405f2090565b54604051908152f35b346100ef5760403660031901126100ef576104d86100d9565b602435908115158092036100ef576104f38161027b336108f3565b60ff1981541660ff841617905560405191825260018060a01b0316907f17307eab39ab6107e8899845ad3d59bd9653f200f220920489ca2b5937696c3160203392a3005b346100ef5760e03660031901126100ef576004356105536100f3565b9060443591610560610392565b9160843560a43567ffffffffffffffff81116100ef576105849036906004016103a1565b9160c4359567ffffffffffffffff87116100ef576101e7976105ad6104599836906004016103a1565b979096610b92565b600a11156105bf57565b634e487b7160e01b5f52602160045260245ffd5b90600a8210156105bf5752565b602080825282516001600160a01b031690820152610693919060208201516001600160a01b0316604082015260408201511515606082015261062a606083015160808301906105d3565b608082015160a082015260a082015160c082015260c082015160e082015260e082015161010082015261010082015161012082015261014061067d610120840151610160838501526101808401906102e5565b92015190610160601f19828503019101526102e5565b90565b346100ef5760203660031901126100ef5760043560606101406040516106bb8161093f565b5f81525f60208201525f60408201525f838201525f60808201525f60a08201525f60c08201525f60e08201525f6101008201528261012082015201525f525f516020610d5a5f395f51905f526020526101e760405f206107b9600861071e610a03565b83546001600160a01b031681529260018101546001600160a01b038116602086015261076e906107659061075c60a082901c60ff1615156040890152565b60a81c60ff1690565b60608601610bcd565b60028101546080850152600381015460a0850152600481015460c0850152600581015460e085015260068101546101008501526107ad60078201610c11565b61012085015201610c11565b610140820152604051918291826105e0565b346100ef5760203660031901126100ef576004355f525f516020610d5a5f395f51905f52602052602060ff600160405f20015460a01c166040519015158152f35b346100ef5760603660031901126100ef576004356108286100f3565b9060443590805f525f516020610d5a5f395f51905f5260205260405f2061085e61085a600183015460ff9060a01c1690565b1590565b6108e45754336001600160a01b03909116036108d557816108978461027b845f525f516020610d7a5f395f51905f5260205260405f2090565b556040519182526001600160a01b03929092169133917ff9862ffb7129d7ab76c743b5068738869121859f69331bd0f2d5eb78892cf9d590602090a4005b631001f5ed60e31b5f5260045ffd5b63f5c8d26960e01b5f5260045ffd5b6001600160a01b03165f9081527f22ce1d58dbbbe3f2573a8aa67a5b301036cf40c4046c3db053dee7e96fed6ac96020526040902090565b634e487b7160e01b5f52604160045260245ffd5b610160810190811067ffffffffffffffff82111761095c57604052565b61092b565b90601f8019910116810190811067ffffffffffffffff82111761095c57604052565b908060209392818452848401375f828201840152601f01601f1916010190565b98969490936109f5969360ff936106939c9a9660018060a01b03168c5260208c015260018060a01b031660408b015260608a015216608088015260a087015261010060c0870152610100860191610983565b9260e0818503910152610983565b60405190610a1361016083610961565b565b3d15610a4f573d9067ffffffffffffffff821161095c5760405191610a44601f8201601f191660200184610961565b82523d5f602084013e565b606090565b908160209103126100ef575190565b939497909698919598610a8a855f525f516020610d5a5f395f51905f5260205260405f2090565b6001810154610a9d9060a01c60ff161590565b6108e457546001600160a01b038981169116036108d5575f998a99610b009786610acb610af2988a8e610caf565b610ad4826105b5565b6040519a8b9960208b019d8e62339fa760e71b905260248c016109a3565b03601f198101835282610961565b519082305af1610b0e610a15565b9015610b27578060208061069393518301019101610a54565b80519081610b3e5763427a232160e01b5f5260045ffd5b602001fd5b979593610693999793610b84969360ff938b5260018060a01b031660208b015260408a0152166060880152608087015260e060a087015260e0860191610983565b9260c0818503910152610983565b95979092919496600a8310156105bf575f988998610b0096610af295604051998a9860208a019c8d6345ee5b2d60e11b905260248b01610b43565b600a8210156105bf5752565b90600182811c92168015610c07575b6020831014610bf357565b634e487b7160e01b5f52602260045260245ffd5b91607f1691610be8565b9060405191825f825492610c2484610bd9565b8084529360018116908115610c8d5750600114610c49575b50610a1392500383610961565b90505f9291925260205f20905f915b818310610c71575050906020610a13928201015f610c3c565b6020919350806001915483858901015201910190918492610c58565b905060209250610a1394915060ff191682840152151560051b8201015f610c3c565b610ccf610cbd60ff926108f3565b335f9081526020919091526040902090565b5416610d55575f8181525f516020610d7a5f395f51905f52602090815260408083203384529091529020549180831015610d12576381e6467560e01b5f5260045ffd5b8203918211610d4157610d3e9061027b33915f525f516020610d7a5f395f51905f5260205260405f2090565b55565b634e487b7160e01b5f52601160045260245ffd5b505056fe22ce1d58dbbbe3f2573a8aa67a5b301036cf40c4046c3db053dee7e96fed6ac322ce1d58dbbbe3f2573a8aa67a5b301036cf40c4046c3db053dee7e96fed6ac8a26469706673582212209f7199a6c2096f38cba13f4e307cfd2bfb340342d6f4e1be1b8cf46482d84e6a64736f6c634300081e0033","linkReferences":{}},"methodIdentifiers":{"approveLot(bytes32,address,uint256)":"a7507cb5","customIdToLotId(uint256)":"14ff3606","getLot(bytes32)":"8ce16f81","getLotApproval(bytes32,address)":"65baf447","getLotsOf(address)":"05424ebe","isApprovedForAllLots(address,address)":"22e9c71e","lotExists(bytes32)":"964e14b7","lotIdToCustomId(bytes32)":"273f023c","packedSelectors()":"3e62267c","setApprovalForAllLots(address,bool)":"73e2e26f","transferLot(bytes32,address,uint256,uint8,uint256,string,bytes)":"8bdcb65a","transferLotFrom(bytes32,address,address,uint256,uint8,uint256,string,bytes)":"639fde00"},"id":255}