{"abi":[{"type":"receive","stateMutability":"payable"},{"type":"function","name":"attestMilestone","inputs":[{"name":"milestoneId","type":"bytes32","internalType":"bytes32"}],"outputs":[],"stateMutability":"nonpayable"},{"type":"function","name":"cancelDistribution","inputs":[{"name":"distributionId","type":"uint256","internalType":"uint256"}],"outputs":[],"stateMutability":"nonpayable"},{"type":"function","name":"claimAllDistributions","inputs":[{"name":"beneficialInterestToken","type":"address","internalType":"address"}],"outputs":[{"name":"totalAmount","type":"uint256","internalType":"uint256"}],"stateMutability":"nonpayable"},{"type":"function","name":"claimDistribution","inputs":[{"name":"distributionId","type":"uint256","internalType":"uint256"}],"outputs":[{"name":"amount","type":"uint256","internalType":"uint256"}],"stateMutability":"nonpayable"},{"type":"function","name":"claimMilestoneDistribution","inputs":[{"name":"milestoneId","type":"bytes32","internalType":"bytes32"}],"outputs":[{"name":"amount","type":"uint256","internalType":"uint256"}],"stateMutability":"nonpayable"},{"type":"function","name":"createClaimableDistribution","inputs":[{"name":"paymentToken","type":"address","internalType":"address"},{"name":"beneficialInterestToken","type":"address","internalType":"address"},{"name":"amount","type":"uint256","internalType":"uint256"},{"name":"distType","type":"uint8","internalType":"enum TrustStorage.DistributionType"}],"outputs":[{"name":"distributionId","type":"uint256","internalType":"uint256"}],"stateMutability":"nonpayable"},{"type":"function","name":"createDistributionSchedule","inputs":[{"name":"beneficiary","type":"address","internalType":"address"},{"name":"totalAmount","type":"uint256","internalType":"uint256"},{"name":"startTime","type":"uint256","internalType":"uint256"},{"name":"endTime","type":"uint256","internalType":"uint256"},{"name":"cliffDuration","type":"uint256","internalType":"uint256"},{"name":"intervalSeconds","type":"uint256","internalType":"uint256"},{"name":"trigger","type":"uint8","internalType":"enum TrustStorage.DistributionTrigger"},{"name":"isRevocable","type":"bool","internalType":"bool"}],"outputs":[],"stateMutability":"nonpayable"},{"type":"function","name":"createMilestone","inputs":[{"name":"beneficiary","type":"address","internalType":"address"},{"name":"description","type":"string","internalType":"string"},{"name":"unlockAmount","type":"uint256","internalType":"uint256"}],"outputs":[{"name":"milestoneId","type":"bytes32","internalType":"bytes32"}],"stateMutability":"nonpayable"},{"type":"function","name":"getAnnualDistributionStatus","inputs":[],"outputs":[{"name":"limit","type":"uint256","internalType":"uint256"},{"name":"distributed","type":"uint256","internalType":"uint256"},{"name":"remaining","type":"uint256","internalType":"uint256"}],"stateMutability":"view"},{"type":"function","name":"getClaimableAmount","inputs":[{"name":"distributionId","type":"uint256","internalType":"uint256"},{"name":"beneficiary","type":"address","internalType":"address"}],"outputs":[{"name":"amount","type":"uint256","internalType":"uint256"}],"stateMutability":"view"},{"type":"function","name":"getClaimableDistribution","inputs":[{"name":"distributionId","type":"uint256","internalType":"uint256"}],"outputs":[{"name":"","type":"tuple","internalType":"struct ITrustDistribution.ClaimableDistribution","components":[{"name":"id","type":"uint256","internalType":"uint256"},{"name":"paymentToken","type":"address","internalType":"address"},{"name":"beneficialInterestToken","type":"address","internalType":"address"},{"name":"totalAmount","type":"uint256","internalType":"uint256"},{"name":"totalClaimed","type":"uint256","internalType":"uint256"},{"name":"distType","type":"uint8","internalType":"enum TrustStorage.DistributionType"},{"name":"createdAt","type":"uint256","internalType":"uint256"},{"name":"expiresAt","type":"uint256","internalType":"uint256"},{"name":"cancelled","type":"bool","internalType":"bool"}]}],"stateMutability":"view"},{"type":"function","name":"getClaimableDistributionCount","inputs":[],"outputs":[{"name":"","type":"uint256","internalType":"uint256"}],"stateMutability":"view"},{"type":"function","name":"getDistributionSchedule","inputs":[{"name":"beneficiary","type":"address","internalType":"address"}],"outputs":[{"name":"","type":"tuple","internalType":"struct TrustStorage.DistributionSchedule","components":[{"name":"beneficiary","type":"address","internalType":"address"},{"name":"totalAmount","type":"uint256","internalType":"uint256"},{"name":"releasedAmount","type":"uint256","internalType":"uint256"},{"name":"startTime","type":"uint256","internalType":"uint256"},{"name":"endTime","type":"uint256","internalType":"uint256"},{"name":"cliffDuration","type":"uint256","internalType":"uint256"},{"name":"intervalSeconds","type":"uint256","internalType":"uint256"},{"name":"trigger","type":"uint8","internalType":"enum TrustStorage.DistributionTrigger"},{"name":"isRevocable","type":"bool","internalType":"bool"},{"name":"isRevoked","type":"bool","internalType":"bool"},{"name":"exists","type":"bool","internalType":"bool"}]}],"stateMutability":"view"},{"type":"function","name":"getMilestone","inputs":[{"name":"milestoneId","type":"bytes32","internalType":"bytes32"}],"outputs":[{"name":"","type":"tuple","internalType":"struct TrustStorage.Milestone","components":[{"name":"id","type":"bytes32","internalType":"bytes32"},{"name":"description","type":"string","internalType":"string"},{"name":"beneficiary","type":"address","internalType":"address"},{"name":"unlockAmount","type":"uint256","internalType":"uint256"},{"name":"achieved","type":"bool","internalType":"bool"},{"name":"achievedAt","type":"uint256","internalType":"uint256"},{"name":"attestedBy","type":"address","internalType":"address"}]}],"stateMutability":"view"},{"type":"function","name":"getTotalDistributedTo","inputs":[{"name":"beneficiary","type":"address","internalType":"address"}],"outputs":[{"name":"","type":"uint256","internalType":"uint256"}],"stateMutability":"view"},{"type":"function","name":"getVestedAmounts","inputs":[{"name":"beneficiary","type":"address","internalType":"address"}],"outputs":[{"name":"vestedAmount","type":"uint256","internalType":"uint256"},{"name":"releasedAmount","type":"uint256","internalType":"uint256"},{"name":"availableAmount","type":"uint256","internalType":"uint256"}],"stateMutability":"view"},{"type":"function","name":"hasClaimed","inputs":[{"name":"distributionId","type":"uint256","internalType":"uint256"},{"name":"beneficiary","type":"address","internalType":"address"}],"outputs":[{"name":"","type":"bool","internalType":"bool"}],"stateMutability":"view"},{"type":"function","name":"packedSelectors","inputs":[],"outputs":[{"name":"","type":"bytes","internalType":"bytes"}],"stateMutability":"pure"},{"type":"function","name":"releaseVestedAmount","inputs":[{"name":"beneficiary","type":"address","internalType":"address"}],"outputs":[{"name":"amount","type":"uint256","internalType":"uint256"}],"stateMutability":"nonpayable"},{"type":"function","name":"revokeDistributionSchedule","inputs":[{"name":"beneficiary","type":"address","internalType":"address"}],"outputs":[],"stateMutability":"nonpayable"},{"type":"event","name":"ClaimableDistributionCreated","inputs":[{"name":"distributionId","type":"uint256","indexed":true,"internalType":"uint256"},{"name":"distType","type":"uint8","indexed":false,"internalType":"enum TrustStorage.DistributionType"},{"name":"paymentToken","type":"address","indexed":true,"internalType":"address"},{"name":"beneficialInterestToken","type":"address","indexed":true,"internalType":"address"},{"name":"totalAmount","type":"uint256","indexed":false,"internalType":"uint256"}],"anonymous":false},{"type":"event","name":"DistributionCancelled","inputs":[{"name":"distributionId","type":"uint256","indexed":true,"internalType":"uint256"},{"name":"refundedAmount","type":"uint256","indexed":false,"internalType":"uint256"}],"anonymous":false},{"type":"event","name":"DistributionClaimed","inputs":[{"name":"distributionId","type":"uint256","indexed":true,"internalType":"uint256"},{"name":"beneficiary","type":"address","indexed":true,"internalType":"address"},{"name":"amount","type":"uint256","indexed":false,"internalType":"uint256"}],"anonymous":false},{"type":"event","name":"DistributionScheduleCreated","inputs":[{"name":"beneficiary","type":"address","indexed":true,"internalType":"address"},{"name":"totalAmount","type":"uint256","indexed":false,"internalType":"uint256"},{"name":"startTime","type":"uint256","indexed":false,"internalType":"uint256"},{"name":"endTime","type":"uint256","indexed":false,"internalType":"uint256"},{"name":"trigger","type":"uint8","indexed":false,"internalType":"enum TrustStorage.DistributionTrigger"}],"anonymous":false},{"type":"event","name":"DistributionScheduleRevoked","inputs":[{"name":"beneficiary","type":"address","indexed":true,"internalType":"address"},{"name":"revokedBy","type":"address","indexed":true,"internalType":"address"}],"anonymous":false},{"type":"event","name":"MilestoneAchieved","inputs":[{"name":"milestoneId","type":"bytes32","indexed":true,"internalType":"bytes32"},{"name":"beneficiary","type":"address","indexed":true,"internalType":"address"},{"name":"attestedBy","type":"address","indexed":true,"internalType":"address"},{"name":"unlockedAmount","type":"uint256","indexed":false,"internalType":"uint256"}],"anonymous":false},{"type":"event","name":"MilestoneCreated","inputs":[{"name":"milestoneId","type":"bytes32","indexed":true,"internalType":"bytes32"},{"name":"beneficiary","type":"address","indexed":true,"internalType":"address"},{"name":"description","type":"string","indexed":false,"internalType":"string"},{"name":"unlockAmount","type":"uint256","indexed":false,"internalType":"uint256"}],"anonymous":false},{"type":"event","name":"VestedAmountReleased","inputs":[{"name":"beneficiary","type":"address","indexed":true,"internalType":"address"},{"name":"amount","type":"uint256","indexed":false,"internalType":"uint256"},{"name":"totalReleased","type":"uint256","indexed":false,"internalType":"uint256"},{"name":"remaining","type":"uint256","indexed":false,"internalType":"uint256"}],"anonymous":false},{"type":"error","name":"ReentrancyGuard_ReentrantCall","inputs":[]},{"type":"error","name":"SafeERC20FailedOperation","inputs":[{"name":"token","type":"address","internalType":"address"}]},{"type":"error","name":"Trust_AlreadyClaimed","inputs":[]},{"type":"error","name":"Trust_AnnualLimitExceeded","inputs":[]},{"type":"error","name":"Trust_CliffNotPassed","inputs":[]},{"type":"error","name":"Trust_DistributionCancelled","inputs":[]},{"type":"error","name":"Trust_DistributionExpired","inputs":[]},{"type":"error","name":"Trust_InvalidAmount","inputs":[]},{"type":"error","name":"Trust_InvalidToken","inputs":[]},{"type":"error","name":"Trust_MilestoneAlreadyAchieved","inputs":[]},{"type":"error","name":"Trust_MilestoneExists","inputs":[]},{"type":"error","name":"Trust_MilestoneNotFound","inputs":[]},{"type":"error","name":"Trust_NoVestedAmount","inputs":[]},{"type":"error","name":"Trust_NotAuthorizedToAttest","inputs":[]},{"type":"error","name":"Trust_NotEligible","inputs":[]},{"type":"error","name":"Trust_NothingToClaim","inputs":[]},{"type":"error","name":"Trust_ScheduleExists","inputs":[]},{"type":"error","name":"Trust_ScheduleNotFound","inputs":[]},{"type":"error","name":"Trust_ScheduleNotRevocable","inputs":[]},{"type":"error","name":"Trust_ScheduleRevoked","inputs":[]}],"bytecode":{"object":"0x6080806040523460155761270f908161001a8239f35b5f80fdfe6080604052600436101561001a575b3615610018575f80fd5b005b5f3560e01c80630e1d038314611b7e5780633ac91d821461197d5780633e62267c1461184757806347c24d071461155e5780635b78857a146113db5780635c177608146112ee5780635df10b7c146112c25780636b72a7e8146110fb57806378c5195e146110cd5780637a2144ae146110115780637ef6f6d014610eb8578063873f6f9e14610e635780638c7a5a3014610bee57806394f2cdc014610af95780639fbda33b14610a6d578063ad17dc6514610899578063d834920314610854578063dd25f58e14610374578063de06493e146101275763eb5ee90d0361000e5734610123575f3660031901126101235760205f51602061267a5f395f51905f5254604051908152f35b5f80fd5b3461012357602036600319011261012357610140611d06565b610148612053565b5f906001600160a01b031633825b5f51602061267a5f395f51905f525484101561033257835f525f51602061269a5f395f51905f5260205260405f20908360018060a01b036002840154160361031e5760ff60088301541661031e57845f525f51602061261a5f395f51905f5260205260405f20835f5260205260ff60405f20541661031e5760078201548015159081610328575b5061031e576101ec338661238f565b91821561031357916102ec916102ba826001956102098233612138565b895f525f51602061261a5f395f51905f5260205260405f20885f5260205260405f208760ff19825416179055895f527f86878a99538037290cd187b2452d005da176e531120e6cf503e15bbf3ca0a02e60205260405f20885f526020528160405f20556004810161027b838254611e29565b905561028633611d49565b610291838254611e29565b905560ff60046102a033611d81565b0154166102f5575b339087808060a01b03910154166124a3565b604051828152877f64bdb55782b54d32d4886f2dc4f69cf7344fd99862caaa6703164c8fc13f2ea860203393a3611e29565b935b0192610156565b600261030033611d81565b0161030c838254611e29565b90556102a8565b5093600191506102ee565b93600191506102ee565b90504211866101dd565b80156103655760209060ff195f5160206125fa5f395f51905f5254165f5160206125fa5f395f51905f5255604051908152f35b63035e0c6b60e51b5f5260045ffd5b346101235760603660031901126101235761038d611d06565b6024359067ffffffffffffffff821161012357366023830112156101235781600401359067ffffffffffffffff82116101235760248301926024833692010111610123576044359160ff5f5160206126ba5f395f51905f5254161561080b576103f533612091565b15610845576001600160a01b0382169182156108365783156108365761041a81611d81565b60ff6004820154161590811561081a575b5061080b5760405160208101916bffffffffffffffffffffffff199060601b168252828660348301376104706020603483868101428382015203018084520182611e8c565b51902092835f525f51602061263a5f395f51905f52602052600360405f2001546107fc576040516104a081611e70565b8481526104ac83611eae565b6104b96040519182611e8c565b838152838760208301375f6020858301015260208201908152604082018581526060830184815260808401905f825260a08501925f845260c08601945f86528a5f525f51602061263a5f395f51905f5260205260405f209651875560018701905180519067ffffffffffffffff821161072a576105368354611f12565b601f81116107b7575b50602090601f83116001146107495791806105bb96949260069a999896945f9261073e575b50508160011b915f199060031b1c19161790555b516002880180546001600160a01b039092166001600160a01b03199092169190911790555160038701555160048601805460ff191691151560ff16919091179055565b51600584015551910180546001600160a01b0319166001600160a01b03929092169190911790557f86878a99538037290cd187b2452d005da176e531120e6cf503e15bbf3ca0a03354600160401b81101561072a5761067a6106648260018894017f86878a99538037290cd187b2452d005da176e531120e6cf503e15bbf3ca0a033557f86878a99538037290cd187b2452d005da176e531120e6cf503e15bbf3ca0a03361202a565b819391549060031b91821b915f19901b19161790565b9055825f527f86878a99538037290cd187b2452d005da176e531120e6cf503e15bbf3ca0a03460205260405f2091825492600160401b84101561072a57602096827f5f50c4cdfdb180d33dd2f25262e84762e9509990e7dbfdae49afd96742f4dfab94886106f4610664896060976001859c01815561202a565b905560405194859360408552816040860152858501375f83830185015289830152601f01601f19168101030190a3604051908152f35b634e487b7160e01b5f52604160045260245ffd5b015190505f80610564565b90601f19831691845f52815f20925f5b81811061079f575092600192859260069c9b9a98966105bb9a989610610787575b505050811b019055610578565b01515f1960f88460031b161c191690555f808061077a565b92936020600181928786015181550195019301610759565b835f5260205f20601f840160051c810191602085106107f2575b601f0160051c01905b8181106107e7575061053f565b5f81556001016107da565b90915081906107d1565b637a7454cd60e01b5f5260045ffd5b63404fb1b560e11b5f5260045ffd5b546003915060a01c60ff1661082e81611d32565b14158661042b565b630fe3a46b60e11b5f5260045ffd5b639f96c10b60e01b5f5260045ffd5b3461012357602036600319011261012357610895610878610873611d06565b611fe0565b604080519384526020840192909252908201529081906060820190565b0390f35b34610123576020366003190112610123576108b2611d06565b5f5160206126ba5f395f51905f525460ff81161561080b5760101c60ff166004811015610a59578015159081610a4d575b50610a3e576108f0612053565b6108f981611db9565b600781015460ff8160181c161561080b5760101c60ff16610a3e576109276003820154600583015490611e29565b4210610a2f57610936816124e5565b929150508115610a215761094a8284612138565b600281019061095a838354611e29565b825561096584611d49565b610970848254611e29565b9055600261097d85611d81565b01610989848254611e29565b90555f80808086885af161099b611eca565b5015610836576020936109d77f62c7c16fbe07feabd5b7bf2e6beb835af4d8f5290af71fcb7e52bac80f347fb292600194549485910154611f05565b6040805186815260208101959095528401526001600160a01b031691606090a260ff195f5160206125fa5f395f51905f5254165f5160206125fa5f395f51905f5255604051908152f35b62338be960e01b5f5260045ffd5b63c648b78560e01b5f5260045ffd5b6304d85f5360e31b5f5260045ffd5b600391501415826108e3565b634e487b7160e01b5f52602160045260245ffd5b34610123575f366003190112610123577f86878a99538037290cd187b2452d005da176e531120e6cf503e15bbf3ca0a038545f51602061265a5f395f51905f52549080610ad7576108955f195b604051938493846040919493926060820195825260208201520152565b808210610ae7576108955f610aba565b610895610af48383611f05565b610aba565b346101235760203660031901126101235760043560ff5f5160206126ba5f395f51905f5254161561080b57610b2d33612091565b1561084557805f525f51602061263a5f395f51905f5260205260405f206003810190815415610bdf5760048101805460ff8116610bd05760ff191660011790554260058201556006810180546001600160a01b03191633908117909155600290910154915460405190815290926001600160a01b039290921691907ff345c9c6b527e6f586461b2bf65b8a5105cf67e8f4452104f880ce7f4056d81c90602090a4005b632bd2da0360e01b5f5260045ffd5b637f9063a560e01b5f5260045ffd5b346101235761010036600319011261012357610c08611d06565b602435604435916064359160c43560058110156101235760e43593841515809503610123575f5160206126ba5f395f51905f525460ff81161561080b57610c4e33612091565b156108455760101c60ff166004811015610a59578015159081610e57575b50610a3e576001600160a01b03841695861561083657610c8b85611d81565b60ff60048201541615908115610e3b575b5061080b5760ff6007610cae87611db9565b015460181c16610e2c57826080957f9290090107827227afbf55108c86ae48c2b7e17a9cb64d6f589d2532d2fc1d329783155f14610e255742905b6007604051610cf781611e53565b8c815260208101938a855260408201905f8252606083019081528c83018a815260a0840191608435835260c085019360a4358552610d3860e087019b611d32565b8d8b5261010086019788526101208601985f8a52610d5e61014088019b60018d52611db9565b965187546001600160a01b0319166001600160a01b0391909116178755516001870155516002860155516003850155516004840155516005830155516006820155945194019390610dae82611d32565b610db782611d32565b60ff61ff0086549251151560081b1692169061ffff19161717835551151562ff000083549160101b169062ff0000191617825551151563ff00000082549160181b169063ff000000191617905560405193845260208401526040830152610e1d81611d32565b6060820152a2005b8390610ce9565b630cdc29dd60e21b5f5260045ffd5b546003915060a01c60ff16610e4f81611d32565b141588610c9c565b60039150141587610c6c565b3461012357604036600319011261012357610e7c611d1c565b6004355f525f51602061261a5f395f51905f5260205260405f209060018060a01b03165f52602052602060ff60405f2054166040519015158152f35b34610123576020366003190112610123575f610100604051610ed981611e36565b8281528260208201528260408201528260608201528260808201528260a08201528260c08201528260e082015201526004355f525f51602061269a5f395f51905f5260205261012060405f2080549060018060a01b036001820154169060018060a01b03600282015416610ffa6003830154600484015460ff6005860154169160068601549460ff60086007890154980154169760405199610f7a8b611e36565b8a5260208a0190815260408a0191825260608a0192835260808a01938452610fa660a08b019586611ef9565b60c08a0196875260e08a019788526101008a01981515895260405199518a5260018060a01b0390511660208a015260018060a01b0390511660408901525160608801525160808701525160a0860190611d3c565b5160c08401525160e0830152511515610100820152f35b346101235760203660031901126101235761102a611d06565b60ff5f5160206126ba5f395f51905f5254161561080b5761104a33612091565b1561084557600761105a82611db9565b01805460ff8160181c161561080b5760ff8160101c16610a3e5760ff8160081c16156110be5762ff000019166201000017905533906001600160a01b03167f3ca37e9b133aec73d28e23f21a1a2f4a6d21583ba9d8e65c6938833d74dd817d5f80a3005b6309d2ebd960e21b5f5260045ffd5b346101235760403660031901126101235760206110f36110eb611d1c565b600435611f4a565b604051908152f35b34610123576020366003190112610123575f60c060405161111b81611e70565b828152606060208201528260408201528260608201528260808201528260a082015201526004355f525f51602061263a5f395f51905f5260205260405f2060405161116581611e70565b81548152600182019160405192835f82549261118084611f12565b80845293600181169081156112a0575060011461125c575b506111a592500384611e8c565b6020820192835260018060a01b0360028201541690604083019182526003810154906060840191825260ff60048201541660808501901515815260058201549160a08601928352600660018060a01b03910154169260c08601938452611227604051978897602089525160208901525160e06040890152610100880190611ce2565b94516001600160a01b039081166060880152905160808701529051151560a0860152905160c085015290511660e08301520390f35b90505f9291925260205f20905f915b8183106112845750509060206111a59282010186611198565b6020919350806001915483858a0101520191019091859261126b565b9050602092506111a594915060ff191682840152151560051b82010186611198565b346101235760203660031901126101235760206112e56112e0611d06565b611d49565b54604051908152f35b346101235760203660031901126101235760043561130b33612091565b1561084557611318612053565b805f525f51602061269a5f395f51905f5260205260405f20600881019081549060ff82166113cc577f8f57be603637360284fb4088c29f1d5a8f5d37c7462010e43f122d0bce59df7092600160209360ff19161790556113816003820154600483015490611f05565b9081806113aa575b5050604051908152a25f5160206125fa5f395f51905f52805460ff19169055005b6001909101546113c5919033906001600160a01b03166124a3565b8481611389565b634609a3cb60e11b5f5260045ffd5b346101235760203660031901126101235761016061144c6113fa611d06565b5f61014060405161140a81611e53565b8281528260208201528260408201528260608201528260808201528260a08201528260c08201528260e082015282610100820152826101208201520152611db9565b6040519061145982611e53565b80546001600160a01b03168252600181015460208301908152600282015460408401908152600383015460608501908152600484015460808601908152600585015460a08701908152600686015460c088019081526007909601549560e088019390929060ff88166114ca81611d32565b855261010089019560ff8960081c16151587526101208a019760ff8a60101c161515895260ff6101408c019a60181c1615158a526040519a60018060a01b039051168b525160208b01525160408a01525160608901525160808801525160a08701525160c08601525161153c81611d32565b60e0850152511515610100840152511515610120830152511515610140820152f35b3461012357608036600319011261012357611577611d06565b61157f611d1c565b9060443591606435916003831015610123575f5160206126ba5f395f51905f525460ff81161561080b576115b233612091565b156108455760101c60ff166004811015610a5957801515908161183b575b50610a3e576115dd612053565b8315610836576001600160a01b031690811561182c576001600160a01b031690811561182c5761163d6040516323b872dd60e01b602082015233602482015230604482015285606482015260648152611637608482611e8c565b826125a1565b5f51602061267a5f395f51905f5254925f19841461181857600184015f51602061267a5f395f51905f52556040519061167582611e36565b848252602082019583875260408301918583526060840191808352608085015f815260a08601906116a68483611ef9565b4260c088019081525f60e089018181526101008a018281528d83525f51602061269a5f395f51905f52602052604090922099518a559c5160018a0180546001600160a01b03199081166001600160a01b0393841617909155985160028b018054909a16911617909755945160038089019190915590516004880155905199949560058101918b1015610a595760088a977f0392680d5a449429940cec47fc4cc43f193daaf1bd66bb4b95a1b0c65fd6670d976040976117909560209f60ff8019835416911617905551600685015551600784015551151591019060ff801983541691151516179055565b6117bb817f86878a99538037290cd187b2452d005da176e531120e6cf503e15bbf3ca0a02f54611e29565b7f86878a99538037290cd187b2452d005da176e531120e6cf503e15bbf3ca0a02f556117e983518093611d3c565b88820152a460ff195f5160206125fa5f395f51905f5254165f5160206125fa5f395f51905f5255604051908152f35b634e487b7160e01b5f52601160045260245ffd5b6313073a2f60e11b5f5260045ffd5b600391501415856115d0565b34610123575f3660031901126101235760408051630253cb3760e61b6020820152630b82eec160e31b6024820152636f03249f60e11b6028820152631d648ec160e11b602c820152630e1d038360e01b60308201526347c24d0760e01b60348201526308c7a5a360e41b6038820152636e92fac760e11b603c820152639fbda33b60e01b91810191909152633c628caf60e11b60448201526307ef6f6d60e41b604882015263eb5ee90d60e01b604c80830191909152632dbc42bd60e11b6050830152630d6e54fd60e31b605483015263177c42df60e21b605883015263d834920360e01b605c83015263439fb7cf60e11b606083015263ad17dc6560e01b6064830152633d10a25760e11b6068830152815261089590611969606c82611e8c565b604051918291602083526020830190611ce2565b3461012357602036600319011261012357600435611999612053565b805f525f51602061269a5f395f51905f5260205260405f209060ff6008830154166113cc575f8181525f51602061261a5f395f51905f526020908152604080832033845290915290205460ff16611b6f5760078201548015159081611b65575b50611b5657611a08338261238f565b908115611b4757611ad382602094611a208233612138565b5f8481525f51602061261a5f395f51905f528752604080822033808452908952818320805460ff191660011790558683527f86878a99538037290cd187b2452d005da176e531120e6cf503e15bbf3ca0a02e895281832090835288529020829055600481018054611a92908490611e29565b9055611a9d33611d49565b611aa8838254611e29565b905560ff6004611ab733611d81565b015416611b29575b6001015433906001600160a01b03166124a3565b604051908282527f64bdb55782b54d32d4886f2dc4f69cf7344fd99862caaa6703164c8fc13f2ea8843393a360ff195f5160206125fa5f395f51905f5254165f5160206125fa5f395f51905f5255604051908152f35b6002611b3433611d81565b01611b40838254611e29565b9055611abf565b634170b34560e01b5f5260045ffd5b6315728a4360e21b5f5260045ffd5b90504211836119f9565b63450e03ed60e11b5f5260045ffd5b34610123576020366003190112610123575f5160206126ba5f395f51905f525460ff81161561080b5760101c60ff166004811015610a59578015159081611cd6575b50610a3e57611bcd612053565b6004355f525f51602061263a5f395f51905f5260205260405f20600381018054918215610bdf5760ff60048201541615610bdf5760020180546001600160a01b0316913383141580611cc6575b610845575f9055824710610836575f8084819493611c39828496612138565b8054611c4d906001600160a01b0316611d49565b611c58838254611e29565b90558054600290611c71906001600160a01b0316611d81565b01611c7d838254611e29565b9055546001600160a01b03165af1611c93611eca565b50156108365760209060ff195f5160206125fa5f395f51905f5254165f5160206125fa5f395f51905f5255604051908152f35b50611cd033612091565b15611c1a565b60039150141581611bc0565b805180835260209291819084018484015e5f828201840152601f01601f1916010190565b600435906001600160a01b038216820361012357565b602435906001600160a01b038216820361012357565b60051115610a5957565b906003821015610a595752565b6001600160a01b03165f9081527f86878a99538037290cd187b2452d005da176e531120e6cf503e15bbf3ca0a0306020526040902090565b6001600160a01b03165f9081527f86878a99538037290cd187b2452d005da176e531120e6cf503e15bbf3ca0a0236020526040902090565b6001600160a01b03165f9081527f86878a99538037290cd187b2452d005da176e531120e6cf503e15bbf3ca0a0316020526040902090565b6001600160a01b03165f9081527f86878a99538037290cd187b2452d005da176e531120e6cf503e15bbf3ca0a03c6020526040902090565b9190820180921161181857565b610120810190811067ffffffffffffffff82111761072a57604052565b610160810190811067ffffffffffffffff82111761072a57604052565b60e0810190811067ffffffffffffffff82111761072a57604052565b90601f8019910116810190811067ffffffffffffffff82111761072a57604052565b67ffffffffffffffff811161072a57601f01601f191660200190565b3d15611ef4573d90611edb82611eae565b91611ee96040519384611e8c565b82523d5f602084013e565b606090565b6003821015610a595752565b9190820391821161181857565b90600182811c92168015611f40575b6020831014611f2c57565b634e487b7160e01b5f52602260045260245ffd5b91607f1691611f21565b90815f525f51602061269a5f395f51905f5260205260405f2060ff6008820154168015611fac575b611fa557600701548015159081611f9b575b50611f9557611f929161238f565b90565b50505f90565b905042115f611f84565b5050505f90565b50825f525f51602061261a5f395f51905f5260205260405f2060018060a01b0383165f5260205260ff60405f205416611f72565b611fe990611db9565b600781015460ff8160181c161590811561201c575b506120135761200c906124e5565b9192909190565b505f905f905f90565b60ff915060101c165f611ffe565b805482101561203f575f5260205f2001905f90565b634e487b7160e01b5f52603260045260245ffd5b5f5160206125fa5f395f51905f525460ff81166120825760ff19166001175f5160206125fa5f395f51905f5255565b638ac2de0f60e01b5f5260045ffd5b7f86878a99538037290cd187b2452d005da176e531120e6cf503e15bbf3ca0a0275490815f5b8381106120c657505050505f90565b8181101561203f577f86878a99538037290cd187b2452d005da176e531120e6cf503e15bbf3ca0a0275f527f02d53257e505cdcc34b56883ae3c4f882f6f862018d75ac8318f149565495f8b8101546001600160a01b0384811691161461212f576001016120b7565b50505050600190565b7f86878a99538037290cd187b2452d005da176e531120e6cf503e15bbf3ca0a03a546301e13380810180911161181857421015612266575b7f86878a99538037290cd187b2452d005da176e531120e6cf503e15bbf3ca0a0385480612243575b506001600160a01b0381165f9081527f86878a99538037290cd187b2452d005da176e531120e6cf503e15bbf3ca0a03b602052604090205480612216575b5061220a612212916121f6845f51602061265a5f395f51905f5254611e29565b5f51602061265a5f395f51905f5255611df1565b918254611e29565b9055565b6122298361222384611df1565b54611e29565b11612234575f6121d6565b6354e598ab60e11b5f5260045ffd5b61225b835f51602061265a5f395f51905f5254611e29565b11612234575f612198565b9190427f86878a99538037290cd187b2452d005da176e531120e6cf503e15bbf3ca0a03a555f5f51602061265a5f395f51905f52555f5b7f86878a99538037290cd187b2452d005da176e531120e6cf503e15bbf3ca0a02954811015612356577f86878a99538037290cd187b2452d005da176e531120e6cf503e15bbf3ca0a0295481101561203f577f86878a99538037290cd187b2452d005da176e531120e6cf503e15bbf3ca0a0295f9081527f45125aca6a81b652f146b3daf4cc6a7c04938495579c82eb11275490c5641502820154600192919061234f906001600160a01b0316611df1565b550161229d565b509091612170565b8181029291811591840414171561181857565b811561237b570490565b634e487b7160e01b5f52601260045260245ffd5b5f525f51602061269a5f395f51905f5260205260405f2060018060a01b0360028201541690604051926370a0823160e01b845260018060a01b03166004840152602083602481855afa928315612464575f9361246f575b508215611fa5576020600492604051938480926318160ddd60e01b82525afa918215612464575f92612430575b508115611fa557611f9292600361242b92015461235e565b612371565b9091506020813d60201161245c575b8161244c60209383611e8c565b810103126101235751905f612413565b3d915061243f565b6040513d5f823e3d90fd5b9092506020813d60201161249b575b8161248b60209383611e8c565b810103126101235751915f6123e6565b3d915061247e565b60405163a9059cbb60e01b60208201526001600160a01b0390921660248301526044808301939093529181526124e3916124de606483611e8c565b6125a1565b565b90600182015480156125945760038301548042106125865761250b600585015482611e29565b421061258657600484015460029291811580158061257c575b1561254757505050925b0154908183111561254357611f928284611f05565b5f90565b156125545750509261252e565b61257692916125708261256a61242b9442611f05565b92611f05565b9261235e565b9261252e565b5082421015612524565b50506002909101545f918290565b506002909101545f918290565b905f602091828151910182855af115612464575f513d6125f057506001600160a01b0381163b155b6125d05750565b635274afe760e01b5f9081526001600160a01b0391909116600452602490fd5b600114156125c956fe0dbc862179e7dd4188cf2cd6f46b98781f59ec6fc25ed07fcc476c2fb8d0592c86878a99538037290cd187b2452d005da176e531120e6cf503e15bbf3ca0a02d86878a99538037290cd187b2452d005da176e531120e6cf503e15bbf3ca0a03286878a99538037290cd187b2452d005da176e531120e6cf503e15bbf3ca0a03986878a99538037290cd187b2452d005da176e531120e6cf503e15bbf3ca0a02b86878a99538037290cd187b2452d005da176e531120e6cf503e15bbf3ca0a02c86878a99538037290cd187b2452d005da176e531120e6cf503e15bbf3ca0a01fa2646970667358221220c7087d25c779ba812358543d62a65f21c81abd4ef3a3c910d52bec63d7585d9e64736f6c634300081e0033","linkReferences":{}},"methodIdentifiers":{"attestMilestone(bytes32)":"94f2cdc0","cancelDistribution(uint256)":"5c177608","claimAllDistributions(address)":"de06493e","claimDistribution(uint256)":"3ac91d82","claimMilestoneDistribution(bytes32)":"0e1d0383","createClaimableDistribution(address,address,uint256,uint8)":"47c24d07","createDistributionSchedule(address,uint256,uint256,uint256,uint256,uint256,uint8,bool)":"8c7a5a30","createMilestone(address,string,uint256)":"dd25f58e","getAnnualDistributionStatus()":"9fbda33b","getClaimableAmount(uint256,address)":"78c5195e","getClaimableDistribution(uint256)":"7ef6f6d0","getClaimableDistributionCount()":"eb5ee90d","getDistributionSchedule(address)":"5b78857a","getMilestone(bytes32)":"6b72a7e8","getTotalDistributedTo(address)":"5df10b7c","getVestedAmounts(address)":"d8349203","hasClaimed(uint256,address)":"873f6f9e","packedSelectors()":"3e62267c","releaseVestedAmount(address)":"ad17dc65","revokeDistributionSchedule(address)":"7a2144ae"},"id":363}