{"abi":[{"type":"function","name":"acceptTrusteeship","inputs":[],"outputs":[],"stateMutability":"nonpayable"},{"type":"function","name":"declareIncapacity","inputs":[{"name":"trustee","type":"address","internalType":"address"}],"outputs":[],"stateMutability":"nonpayable"},{"type":"function","name":"declineTrusteeship","inputs":[],"outputs":[],"stateMutability":"nonpayable"},{"type":"function","name":"getActiveSuccessorIndex","inputs":[],"outputs":[{"name":"","type":"uint256","internalType":"uint256"}],"stateMutability":"view"},{"type":"function","name":"getIncapacityDeclaration","inputs":[{"name":"trustee","type":"address","internalType":"address"}],"outputs":[{"name":"","type":"tuple","internalType":"struct TrustStorage.IncapacityDeclaration","components":[{"name":"declaredBy","type":"address","internalType":"address"},{"name":"declaredAt","type":"uint256","internalType":"uint256"},{"name":"isActive","type":"bool","internalType":"bool"},{"name":"reinstatedAt","type":"uint256","internalType":"uint256"}]}],"stateMutability":"view"},{"type":"function","name":"getNextSuccessor","inputs":[],"outputs":[{"name":"","type":"address","internalType":"address"}],"stateMutability":"view"},{"type":"function","name":"getRemainingSuccessors","inputs":[],"outputs":[{"name":"","type":"address[]","internalType":"address[]"}],"stateMutability":"view"},{"type":"function","name":"isIncapacitated","inputs":[{"name":"trustee","type":"address","internalType":"address"}],"outputs":[{"name":"","type":"bool","internalType":"bool"}],"stateMutability":"view"},{"type":"function","name":"isSuccessionTriggered","inputs":[],"outputs":[{"name":"","type":"bool","internalType":"bool"}],"stateMutability":"view"},{"type":"function","name":"packedSelectors","inputs":[],"outputs":[{"name":"","type":"bytes","internalType":"bytes"}],"stateMutability":"pure"},{"type":"function","name":"resignAsTrustee","inputs":[],"outputs":[],"stateMutability":"nonpayable"},{"type":"function","name":"restoreCapacity","inputs":[{"name":"trustee","type":"address","internalType":"address"}],"outputs":[],"stateMutability":"nonpayable"},{"type":"function","name":"triggerSuccession","inputs":[{"name":"reason","type":"string","internalType":"string"}],"outputs":[],"stateMutability":"nonpayable"},{"type":"event","name":"CapacityRestored","inputs":[{"name":"trustee","type":"address","indexed":true,"internalType":"address"},{"name":"restoredBy","type":"address","indexed":true,"internalType":"address"},{"name":"timestamp","type":"uint256","indexed":false,"internalType":"uint256"}],"anonymous":false},{"type":"event","name":"IncapacityDeclared","inputs":[{"name":"trustee","type":"address","indexed":true,"internalType":"address"},{"name":"declaredBy","type":"address","indexed":true,"internalType":"address"},{"name":"timestamp","type":"uint256","indexed":false,"internalType":"uint256"}],"anonymous":false},{"type":"event","name":"SuccessionTriggered","inputs":[{"name":"previousTrustee","type":"address","indexed":true,"internalType":"address"},{"name":"successorTrustee","type":"address","indexed":true,"internalType":"address"},{"name":"reason","type":"string","indexed":false,"internalType":"string"}],"anonymous":false},{"type":"event","name":"TrusteeResigned","inputs":[{"name":"trustee","type":"address","indexed":true,"internalType":"address"},{"name":"successor","type":"address","indexed":true,"internalType":"address"},{"name":"timestamp","type":"uint256","indexed":false,"internalType":"uint256"}],"anonymous":false},{"type":"event","name":"TrusteeshipAccepted","inputs":[{"name":"successor","type":"address","indexed":true,"internalType":"address"},{"name":"timestamp","type":"uint256","indexed":false,"internalType":"uint256"}],"anonymous":false},{"type":"event","name":"TrusteeshipDeclined","inputs":[{"name":"successor","type":"address","indexed":true,"internalType":"address"},{"name":"timestamp","type":"uint256","indexed":false,"internalType":"uint256"}],"anonymous":false},{"type":"error","name":"Trust_AcceptancePeriodExpired","inputs":[]},{"type":"error","name":"Trust_AlreadyIncapacitated","inputs":[]},{"type":"error","name":"Trust_CannotResignWithoutSuccessor","inputs":[]},{"type":"error","name":"Trust_NoSuccessors","inputs":[]},{"type":"error","name":"Trust_NotAuthorizedForIncapacity","inputs":[]},{"type":"error","name":"Trust_NotIncapacitated","inputs":[]},{"type":"error","name":"Trust_NotSuccessor","inputs":[]},{"type":"error","name":"Trust_SuccessionAlreadyTriggered","inputs":[]},{"type":"error","name":"Trust_SuccessionNotTriggered","inputs":[]}],"bytecode":{"object":"0x608080604052346015576114ec908161001a8239f35b5f80fdfe6080806040526004361015610012575f80fd5b5f3560e01c9081630add7eb814610f6d5750806316bf2b1b14610c425780632592bfe314610c165780633e62267c14610b335780633f5ff34b14610a76578063758cd25714610948578063865dbbba1461054d578063a22d25051461051f578063baee7a30146103ba578063dfed4f281461027e578063f096a5b31461019d578063f136cc15146100ef5763ff30ee6a146100ab575f80fd5b346100eb5760203660031901126100eb576004356001600160a01b03811681036100eb5760ff60026100de602093610fb7565b0154166040519015158152f35b5f80fd5b346100eb5760203660031901126100eb576004356001600160a01b03811681036100eb5761013e6080915f606060405161012881610fef565b8281528260208201528260408201520152610fb7565b60405161014a81610fef565b60018060a01b03825416918282526001810154602083019081526060600360ff60028501541693604086019415158552015493019283526040519384525160208401525115156040830152516060820152f35b346100eb5760203660031901126100eb576004356001600160a01b038116908181036100eb5760ff5f5160206114775f395f51905f5254161561026f576101e333611139565b158061025f575b610250576101f790610fb7565b60028101805460ff8116156102415760ff19169055600342910155604051904282527f2cffb1c9252db7cff0ef88e6c7931acfa78b6b7801016c00ec8f6cd27d9bdc9760203393a3005b639b2f723560e01b5f5260045ffd5b63444c3f1b60e01b5f5260045ffd5b506102693361134f565b156101ea565b630549fb5f60e41b5f5260045ffd5b346100eb575f3660031901126100eb575f5160206114375f395f51905f52545f5160206114575f395f51905f525490818111156103b25781810390811161039e57905b6102ca82611121565b916102d8604051938461100b565b8083526102e481611121565b602084019290601f19013684375f5b828110610347578385604051918291602083019060208452518091526040830191905f5b818110610325575050500390f35b82516001600160a01b0316845285945060209384019390920191600101610317565b80820180831161039e5761035a9061105d565b9054865160039290921b1c6001600160a01b0316919081101561038a5760019160208260051b88010152016102f3565b634e487b7160e01b5f52603260045260245ffd5b634e487b7160e01b5f52601160045260245ffd5b505f906102c1565b346100eb575f3660031901126100eb5760ff5f5160206114775f395f51905f5254161561026f575f5160206114575f395f51905f52545f5160206114375f395f51905f52549081811015610501576104118161105d565b905460039190911b1c6001600160a01b031633036105105760ff5f5160206114975f395f51905f5254161561026f57610475906040514281527fa14f101481e3e853064791135032a60c4c916a5ff694c833152fa99b2e8825d360203392a2611113565b90815f5160206114575f395f51905f5255811015610501576104969061105d565b60018060a01b0391549060031b1c1660405160208152601b60208201527f70726576696f757320737563636573736f72206465636c696e6564000000000060408201527fdb0da6252c5f4580a3d0bdb9df7256cb1bca6cc630d58a9c6a123058a25e8bf060603392a3005b63525fad9760e01b5f5260045ffd5b636aefe11f60e11b5f5260045ffd5b346100eb575f3660031901126100eb57602060ff5f5160206114975f395f51905f5254166040519015158152f35b346100eb575f3660031901126100eb5760ff5f5160206114775f395f51905f5254161561026f575f5160206114575f395f51905f52545f5160206114375f395f51905f5254811015610501576105a29061105d565b905460039190911b1c6001600160a01b031633036105105760ff5f5160206114975f395f51905f5254161561026f575f5160206113f75f395f51905f5254680100000000000000008110156109345761061081600161062e93015f5160206113f75f395f51905f525561102d565b81546001600160a01b0360039290921b91821b19163390911b179055565b335f9081527f86878a99538037290cd187b2452d005da176e531120e6cf503e15bbf3ca0a02360205260409020805460ff60a01b1916600160a01b1790556040513360601b602082019081526014825261068960348361100b565b60ff610694836110d5565b5416156106ec575b60ff195f5160206114975f395f51905f5254165f5160206114975f395f51905f52556040514281527f07b5d53c500e86c2d1eb393eecf8ca7f435c610b323625cfd7afb680785d6bc560203392a2005b7f480144b1b455a0fe78db9dc5dd1b2d4c571f1de5c4ffa2484c50217a3dfae7b5545f527f480144b1b455a0fe78db9dc5dd1b2d4c571f1de5c4ffa2484c50217a3dfae7b860205260405f209180519267ffffffffffffffff8411610934578054600181811c9116801561092a575b602082101461091657601f81116108d1575b50602093601f811160011461086f5780602094955f91610864575b508160011b915f199060031b1c19161790555b6107a4816110d5565b600160ff19825416179055604051928391518091835e81017f480144b1b455a0fe78db9dc5dd1b2d4c571f1de5c4ffa2484c50217a3dfae7ba81520301902060ff1981541690556108157f480144b1b455a0fe78db9dc5dd1b2d4c571f1de5c4ffa2484c50217a3dfae7b554611113565b7f480144b1b455a0fe78db9dc5dd1b2d4c571f1de5c4ffa2484c50217a3dfae7b55561084e5f5160206114175f395f51905f5254611113565b5f5160206114175f395f51905f5255808061069c565b905083015186610788565b601f198116825f52855f20905f5b8181106108b9575090602095968360019493106108a1575b5050811b01905561079b565b8501515f1960f88460031b161c191690558680610895565b8588015183556020978801976001909301920161087d565b815f5260205f20601f860160051c8101916020871061090c575b601f0160051c01905b818110610901575061076d565b5f81556001016108f4565b90915081906108eb565b634e487b7160e01b5f52602260045260245ffd5b90607f169061075b565b634e487b7160e01b5f52604160045260245ffd5b346100eb5760203660031901126100eb576004356001600160a01b038116908181036100eb5760ff5f5160206114775f395f51905f5254161561026f5761098e33611139565b1580610a66575b610250576109a281611139565b15610250576109b090610fb7565b600281019081549060ff8216610a57575f926001600393336bffffffffffffffffffffffff60a01b855416178455428285015560ff19161790550155604051904282527f4a749386bd910ac3a6d256a5abfc84dc2b9065002174206e661e7c5491d6621660203393a3610a2161118e565b15610a2857005b610a55604051610a3960408261100b565b600a815269696e636170616369747960b01b60208201526111f9565b005b6396f96cc160e01b5f5260045ffd5b50610a703361134f565b15610995565b346100eb5760203660031901126100eb5760043567ffffffffffffffff81116100eb57366023820112156100eb5780600401359067ffffffffffffffff82116100eb5736602483830101116100eb5760ff5f5160206114775f395f51905f5254161561026f57610ae533611139565b1580610b23575b610250575f6020610a559380602483601f19601f8401160195610b12604051978861100b565b8287520183860137830101526111f9565b50610b2d3361134f565b15610aec565b346100eb575f3660031901126100eb576040805163432edddd60e11b602082015263758cd25760e01b6024820152630baee7a360e41b602882015263015bafd760e31b602c82015263f136cc1560e01b603080830191909152632592bfe360e01b6034830152631bfda9e560e31b60388301526001626788cb60e11b0319603c83015263a22d250560e01b928201929092526316bf2b1b60e01b604482015263f096a5b360e01b6048820152633f5ff34b60e01b604c820152908152610c1290610bfe60508261100b565b604051918291602083526020830190610f93565b0390f35b346100eb575f3660031901126100eb576020610c3061108d565b6040516001600160a01b039091168152f35b346100eb575f3660031901126100eb5760ff5f5160206114775f395f51905f5254161561026f57610c7233611139565b1561025057610c7f61118e565b60015f5160206114375f395f51905f52545f5160206114575f395f51905f52541091111580610f65575b610f56575f5b5f5160206113f75f395f51905f52549081811015610f4f57610cd08161102d565b905460039190911b1c6001600160a01b03163314610cf2576001915001610caf565b5f19820191821161039e57610d24610d0c610d489361102d565b905460039190911b1c6001600160a01b03169161102d565b81546001600160a01b0393841660039290921b91821b9390911b1916919091179055565b5f5160206113f75f395f51905f52548015610f3b575f1901610d698161102d565b81549060018060a01b039060031b1b191690555f5160206113f75f395f51905f52555b335f9081527f86878a99538037290cd187b2452d005da176e531120e6cf503e15bbf3ca0a02360205260409020600401805460ff191690556040513360601b602082015260148152610ddf60348261100b565b60ff610dea826110d5565b5416610eb1575b50610dfa61118e565b1580610eaa575b610e77575b15610e7157610e225f5160206114575f395f51905f525461105d565b905460039190911b1c6001600160a01b03165b6040514281526001600160a01b039091169033907f7de5773646ae871f330f05f660ca0b361f57a405afa222c464349ef47632e6fe90602090a3005b5f610e35565b610ea5604051610e8860408261100b565b600b81526a3932b9b4b3b730ba34b7b760a91b60208201526111f9565b610e06565b5080610e01565b610eba906110d5565b805460ff191690555f5160206114175f395f51905f5254801561039e575f19015f5160206114175f395f51905f5255610f137f480144b1b455a0fe78db9dc5dd1b2d4c571f1de5c4ffa2484c50217a3dfae7b654611113565b7f480144b1b455a0fe78db9dc5dd1b2d4c571f1de5c4ffa2484c50217a3dfae7b65581610df1565b634e487b7160e01b5f52603160045260245ffd5b5050610d8c565b631fa7298d60e21b5f5260045ffd5b508015610ca9565b346100eb575f3660031901126100eb576020905f5160206114575f395f51905f52548152f35b805180835260209291819084018484015e5f828201840152601f01601f1916010190565b6001600160a01b03165f9081527f86878a99538037290cd187b2452d005da176e531120e6cf503e15bbf3ca0a0366020526040902090565b6080810190811067ffffffffffffffff82111761093457604052565b90601f8019910116810190811067ffffffffffffffff82111761093457604052565b5f5160206113f75f395f51905f525481101561038a575f5160206113f75f395f51905f525f5260205f2001905f90565b5f5160206114375f395f51905f525481101561038a575f5160206114375f395f51905f525f5260205f2001905f90565b5f5160206114575f395f51905f52545f5160206114375f395f51905f52548110156110d0576110bb9061105d565b905460039190911b1c6001600160a01b031690565b505f90565b60208091604051928184925191829101835e81017f480144b1b455a0fe78db9dc5dd1b2d4c571f1de5c4ffa2484c50217a3dfae7b981520301902090565b5f19811461039e5760010190565b67ffffffffffffffff81116109345760051b60200190565b5f5160206113f75f395f51905f5254905f5b828110611159575050505f90565b6111628161102d565b905460039190911b1c6001600160a01b03908116908316146111865760010161114b565b505050600190565b5f905f5f5160206113f75f395f51905f5254905b8181106111ad575050565b60ff60026111d46111bd8461102d565b905460039190911b1c6001600160a01b0316610fb7565b015416156111e5575b6001016111a2565b926111f1600191611113565b9390506111dd565b5f5160206114975f395f51905f52549060ff8216611340575f5160206114575f395f51905f5254915f5160206114375f395f51905f52548310156105015760ff19166001175f5160206114975f395f51905f52555f5160206113f75f395f51905f525415611312575f5160206113f75f395f51905f52541561038a575f5160206113f75f395f51905f525f527f02d53257e505cdcc34b56883ae3c4f882f6f862018d75ac8318f149565495f8b546001600160a01b0316917fdb0da6252c5f4580a3d0bdb9df7256cb1bca6cc630d58a9c6a123058a25e8bf09061130d906112e09061105d565b60018060a01b0391549060031b1c16936040519182916020835260018060a01b0316946020830190610f93565b0390a3565b7fdb0da6252c5f4580a3d0bdb9df7256cb1bca6cc630d58a9c6a123058a25e8bf061130d6112e05f9461105d565b6345fbae6160e11b5f5260045ffd5b7f86878a99538037290cd187b2452d005da176e531120e6cf503e15bbf3ca0a02a5490815f5b83811061138457505050505f90565b8181101561038a577f86878a99538037290cd187b2452d005da176e531120e6cf503e15bbf3ca0a02a5f527f29d2fb3e2e3a59c17692f1acc8d0261d0fe7968d0e60d71e570a5d8ab47d3ec18101546001600160a01b038481169116146113ed57600101611375565b5050505060019056fe86878a99538037290cd187b2452d005da176e531120e6cf503e15bbf3ca0a027480144b1b455a0fe78db9dc5dd1b2d4c571f1de5c4ffa2484c50217a3dfae7b786878a99538037290cd187b2452d005da176e531120e6cf503e15bbf3ca0a02886878a99538037290cd187b2452d005da176e531120e6cf503e15bbf3ca0a03586878a99538037290cd187b2452d005da176e531120e6cf503e15bbf3ca0a01f86878a99538037290cd187b2452d005da176e531120e6cf503e15bbf3ca0a037a2646970667358221220b83db45f6a06a0f392bfa63517c8cf28e44c032bdd99563d64aaa6099227bcb664736f6c634300081e0033","linkReferences":{}},"methodIdentifiers":{"acceptTrusteeship()":"865dbbba","declareIncapacity(address)":"758cd257","declineTrusteeship()":"baee7a30","getActiveSuccessorIndex()":"0add7eb8","getIncapacityDeclaration(address)":"f136cc15","getNextSuccessor()":"2592bfe3","getRemainingSuccessors()":"dfed4f28","isIncapacitated(address)":"ff30ee6a","isSuccessionTriggered()":"a22d2505","packedSelectors()":"3e62267c","resignAsTrustee()":"16bf2b1b","restoreCapacity(address)":"f096a5b3","triggerSuccession(string)":"3f5ff34b"},"id":364}