{"abi":[{"type":"function","name":"TrustCore_init","inputs":[{"name":"trustType","type":"uint8","internalType":"enum TrustStorage.TrustType"},{"name":"grantor","type":"address","internalType":"address"},{"name":"trustee","type":"address","internalType":"address"},{"name":"trustInstrumentHash","type":"bytes32","internalType":"bytes32"},{"name":"isRevocable","type":"bool","internalType":"bool"}],"outputs":[],"stateMutability":"nonpayable"},{"type":"function","name":"addBeneficiary","inputs":[{"name":"account","type":"address","internalType":"address"},{"name":"benefitShare","type":"uint256","internalType":"uint256"},{"name":"name","type":"string","internalType":"string"}],"outputs":[],"stateMutability":"nonpayable"},{"type":"function","name":"addProtector","inputs":[{"name":"account","type":"address","internalType":"address"},{"name":"name","type":"string","internalType":"string"}],"outputs":[],"stateMutability":"nonpayable"},{"type":"function","name":"addSuccessorTrustee","inputs":[{"name":"account","type":"address","internalType":"address"},{"name":"name","type":"string","internalType":"string"}],"outputs":[],"stateMutability":"nonpayable"},{"type":"function","name":"getBeneficiaries","inputs":[],"outputs":[{"name":"","type":"address[]","internalType":"address[]"}],"stateMutability":"view"},{"type":"function","name":"getParticipant","inputs":[{"name":"account","type":"address","internalType":"address"}],"outputs":[{"name":"","type":"tuple","internalType":"struct TrustStorage.Participant","components":[{"name":"account","type":"address","internalType":"address"},{"name":"role","type":"uint8","internalType":"enum TrustStorage.ParticipantRole"},{"name":"benefitShare","type":"uint256","internalType":"uint256"},{"name":"distributionsReceived","type":"uint256","internalType":"uint256"},{"name":"addedAt","type":"uint256","internalType":"uint256"},{"name":"isActive","type":"bool","internalType":"bool"},{"name":"name","type":"string","internalType":"string"}]}],"stateMutability":"view"},{"type":"function","name":"getSuccessorTrustees","inputs":[],"outputs":[{"name":"","type":"address[]","internalType":"address[]"}],"stateMutability":"view"},{"type":"function","name":"getTotalBeneficiaryShares","inputs":[],"outputs":[{"name":"","type":"uint256","internalType":"uint256"}],"stateMutability":"view"},{"type":"function","name":"getTrustInfo","inputs":[],"outputs":[{"name":"trustType","type":"uint8","internalType":"enum TrustStorage.TrustType"},{"name":"status","type":"uint8","internalType":"enum TrustStorage.TrustStatus"},{"name":"isRevocable","type":"bool","internalType":"bool"},{"name":"grantor","type":"address","internalType":"address"},{"name":"dateEstablished","type":"uint256","internalType":"uint256"},{"name":"trustInstrumentHash","type":"bytes32","internalType":"bytes32"}],"stateMutability":"view"},{"type":"function","name":"getTrustees","inputs":[],"outputs":[{"name":"","type":"address[]","internalType":"address[]"}],"stateMutability":"view"},{"type":"function","name":"isBeneficiary","inputs":[{"name":"account","type":"address","internalType":"address"}],"outputs":[{"name":"","type":"bool","internalType":"bool"}],"stateMutability":"view"},{"type":"function","name":"isTrustee","inputs":[{"name":"account","type":"address","internalType":"address"}],"outputs":[{"name":"","type":"bool","internalType":"bool"}],"stateMutability":"view"},{"type":"function","name":"packedSelectors","inputs":[],"outputs":[{"name":"","type":"bytes","internalType":"bytes"}],"stateMutability":"pure"},{"type":"function","name":"removeBeneficiary","inputs":[{"name":"account","type":"address","internalType":"address"}],"outputs":[],"stateMutability":"nonpayable"},{"type":"function","name":"revokeTrust","inputs":[],"outputs":[],"stateMutability":"nonpayable"},{"type":"function","name":"updateBeneficiaryShare","inputs":[{"name":"account","type":"address","internalType":"address"},{"name":"newShare","type":"uint256","internalType":"uint256"}],"outputs":[],"stateMutability":"nonpayable"},{"type":"function","name":"updateTrustInstrument","inputs":[{"name":"newHash","type":"bytes32","internalType":"bytes32"}],"outputs":[],"stateMutability":"nonpayable"},{"type":"function","name":"updateTrustStatus","inputs":[{"name":"newStatus","type":"uint8","internalType":"enum TrustStorage.TrustStatus"}],"outputs":[],"stateMutability":"nonpayable"},{"type":"event","name":"BeneficiaryShareUpdated","inputs":[{"name":"beneficiary","type":"address","indexed":true,"internalType":"address"},{"name":"oldShare","type":"uint256","indexed":false,"internalType":"uint256"},{"name":"newShare","type":"uint256","indexed":false,"internalType":"uint256"}],"anonymous":false},{"type":"event","name":"ParticipantAdded","inputs":[{"name":"account","type":"address","indexed":true,"internalType":"address"},{"name":"role","type":"uint8","indexed":false,"internalType":"enum TrustStorage.ParticipantRole"},{"name":"benefitShare","type":"uint256","indexed":false,"internalType":"uint256"},{"name":"name","type":"string","indexed":false,"internalType":"string"}],"anonymous":false},{"type":"event","name":"ParticipantRemoved","inputs":[{"name":"account","type":"address","indexed":true,"internalType":"address"},{"name":"role","type":"uint8","indexed":false,"internalType":"enum TrustStorage.ParticipantRole"}],"anonymous":false},{"type":"event","name":"TrustInitialized","inputs":[{"name":"trustType","type":"uint8","indexed":false,"internalType":"enum TrustStorage.TrustType"},{"name":"grantor","type":"address","indexed":true,"internalType":"address"},{"name":"trustee","type":"address","indexed":true,"internalType":"address"},{"name":"isRevocable","type":"bool","indexed":false,"internalType":"bool"}],"anonymous":false},{"type":"event","name":"TrustInstrumentUpdated","inputs":[{"name":"oldHash","type":"bytes32","indexed":false,"internalType":"bytes32"},{"name":"newHash","type":"bytes32","indexed":false,"internalType":"bytes32"}],"anonymous":false},{"type":"event","name":"TrustRevoked","inputs":[{"name":"revokedBy","type":"address","indexed":true,"internalType":"address"},{"name":"timestamp","type":"uint256","indexed":false,"internalType":"uint256"}],"anonymous":false},{"type":"event","name":"TrustStatusChanged","inputs":[{"name":"oldStatus","type":"uint8","indexed":false,"internalType":"enum TrustStorage.TrustStatus"},{"name":"newStatus","type":"uint8","indexed":false,"internalType":"enum TrustStorage.TrustStatus"}],"anonymous":false},{"type":"error","name":"Trust_AlreadyInitialized","inputs":[]},{"type":"error","name":"Trust_CannotRemoveLastTrustee","inputs":[]},{"type":"error","name":"Trust_InvalidBenefitShare","inputs":[]},{"type":"error","name":"Trust_InvalidParticipant","inputs":[]},{"type":"error","name":"Trust_NoTrustees","inputs":[]},{"type":"error","name":"Trust_NotGrantor","inputs":[]},{"type":"error","name":"Trust_NotInitialized","inputs":[]},{"type":"error","name":"Trust_NotRevocable","inputs":[]},{"type":"error","name":"Trust_NotTrustee","inputs":[]},{"type":"error","name":"Trust_ParticipantExists","inputs":[]},{"type":"error","name":"Trust_ParticipantNotFound","inputs":[]},{"type":"error","name":"Trust_SharesExceedTotal","inputs":[]},{"type":"error","name":"Trust_Terminated","inputs":[]}],"bytecode":{"object":"0x6080806040523460155761220f908161001a8239f35b5f80fdfe60806040526004361015610011575f80fd5b5f3560e01c80630bab8f78146117145780630c0ec068146113db57806310ae17de1461106b5780633e62267c14610f4f5780635941cd0214610f2d57806359633a1c14610d8757806362b2af6814610d105780636a94c39614610c455780637143059f14610a855780638d17016e146109a3578063901d239014610894578063913b722c1461081d578063935a619e146104195780639ae3ea56146102d25780639d19b22614610279578063beffaf09146101f2578063c784cd17146101c55763ec4a9116146100df575f80fd5b346101c15760203660031901126101c1576004355f5160206121ba5f395f51905f525460ff8116156101b25761011433612008565b156101a35760101c60ff16600481101561018f576002146101805760407fe1f909b88e76c357d8c5125c871be32763a9e091b24788551e58922612a4c40a915f51602061215a5f395f51905f525490805f51602061215a5f395f51905f525582519182526020820152a1005b633e693d6d60e11b5f5260045ffd5b634e487b7160e01b5f52602160045260245ffd5b6316ebe9fd60e11b5f5260045ffd5b6346a4c2bb60e01b5f5260045ffd5b5f80fd5b346101c15760203660031901126101c15760206101e86101e3611d0a565b612008565b6040519015158152f35b346101c1575f3660031901126101c1576040515f5160206120fa5f395f51905f525480825260208201905f5160206120fa5f395f51905f525f5260205f20905f5b81811061025a576102568561024a81870382611e2e565b60405191829182611db6565b0390f35b82546001600160a01b0316845260209093019260019283019201610233565b346101c15760203660031901126101c15761029a610295611d0a565b611f7f565b60ff60048201541690816102b6575b6020826040519015158152f35b60ff91505460a01c16600581101561018f5760031460206102a9565b346101c1575f3660031901126101c1575f5160206121ba5f395f51905f525460ff8116156101b2577f86878a99538037290cd187b2452d005da176e531120e6cf503e15bbf3ca0a026546001600160a01b0316330361040a5760ff7f86878a99538037290cd187b2452d005da176e531120e6cf503e15bbf3ca0a0225416156103fb5760101c60ff16600481101561018f57600281146101805760407f568a1a851b157627c6b125783cbb61c5886d3ba98624d0ac0aac727e6a8725e1916202000062ff0000195f5160206121ba5f395f51905f525416175f5160206121ba5f395f51905f52556103c582518092611e05565b60026020820152a16040514281527fbdc2070f1b1f561e8f4c0eadbaef0800df4d775d7bc89054555b5b64784c079460203392a2005b630433954b60e51b5f5260045ffd5b6316f1045760e11b5f5260045ffd5b346101c15760603660031901126101c157610432611d0a565b60243560443567ffffffffffffffff81116101c157610455903690600401611d20565b90915f5160206121ba5f395f51905f525460ff8116156101b25761047833612008565b156101a35760101c60ff16600481101561018f57600214610180576001600160a01b03841693841561080e5761271082116107ff576104b681611f7f565b60ff60048201541690816107e4575b506107d5576127106104de836104d9612089565b611ffb565b116107c6575f51602061213a5f395f51905f5254600160401b8110156107b2578161052c82600161055094015f51602061213a5f395f51905f52555f51602061213a5f395f51905f52611e80565b81546001600160a01b0393841660039290921b91821b9390911b1916919091179055565b61055b368486611f19565b60405161056781611e12565b868152602081019060038252604081019185835260608201905f82526080830142815260a08401916001835260c085019687526105a388611f7f565b945185546001600160a01b0319166001600160a01b03919091161785555192600584101561018f576005956106149486549060ff60a01b9060a01b169060ff60a01b1916178655516001860155516002850155516003840155511515600483019060ff801983541691151516179055565b01905180519067ffffffffffffffff82116107b2576106338354611fc3565b601f811161076d575b50602090601f831160011461070557610672949392915f91836106fa575b50508160011b915f199060031b1c1916179055611e95565b5f51602061217a5f395f51905f52545f1981146106e6577f53a863fbf4ebdba2e73d21fe3debacd14ebe8021a86b380477878c422e2d5d349360016106e192015f51602061217a5f395f51905f5255604051938493600385526020850152606060408501526060840191611f5f565b0390a2005b634e487b7160e01b5f52601160045260245ffd5b01519050898061065a565b90601f19831691845f52815f20925f5b8181106107555750916001939185610672989796941061073d575b505050811b019055611e95565b01515f1960f88460031b161c19169055898080610730565b92936020600181928786015181550195019301610715565b835f5260205f20601f840160051c810191602085106107a8575b601f0160051c01905b81811061079d575061063c565b5f8155600101610790565b9091508190610787565b634e487b7160e01b5f52604160045260245ffd5b631107843f60e11b5f5260045ffd5b6340f8730760e01b5f5260045ffd5b60ff91505460a01c16600581101561018f57600314866104c5565b634513ee0360e01b5f5260045ffd5b63190f2c0d60e01b5f5260045ffd5b346101c1575f3660031901126101c1576040515f51602061213a5f395f51905f525480825260208201905f51602061213a5f395f51905f525f5260205f20905f5b818110610875576102568561024a81870382611e2e565b82546001600160a01b031684526020909301926001928301920161085e565b346101c15760403660031901126101c1576108ad611d0a565b6024355f5160206121ba5f395f51905f525460ff8116156101b2576108d133612008565b156101a35760101c60ff16600481101561018f576002146101805761271081116107ff576108fe82611f7f565b60ff600482015416158015610988575b61097957600101805492610920612089565b8481039081116106e6576109378461271092611ffb565b116107c657827f9473d8a71a432655bc2aba3d14ea5922105a1bfa7ff34aaa4bac75811ae8d74993604093558251948552602085015260018060a01b031692a2005b63c952254960e01b5f5260045ffd5b5060ff815460a01c16600581101561018f576003141561090e565b346101c1575f3660031901126101c15760c05f5160206121ba5f395f51905f525460ff7f86878a99538037290cd187b2452d005da176e531120e6cf503e15bbf3ca0a022541660018060a01b037f86878a99538037290cd187b2452d005da176e531120e6cf503e15bbf3ca0a02654167f86878a99538037290cd187b2452d005da176e531120e6cf503e15bbf3ca0a02154905f51602061215a5f395f51905f525492610a6d60405195610a5d8760ff8360081c16611df8565b60ff602088019160101c16611e05565b151560408501526060840152608083015260a0820152f35b346101c15760203660031901126101c157610ad8610aa1611d0a565b606060c0604051610ab181611e12565b5f81525f60208201525f60408201525f838201525f60808201525f60a08201520152611f7f565b60405190610ae582611e12565b80546001600160a01b0381168352602083019190610b099060a01c60ff1683611fb7565b6001810154916040840192835260028201549160608501928352600381015460808601908152600560ff6004840154169260a088019315158452019260405193845f825492610b5784611fc3565b8084529360018116908115610c235750600114610bdf575b50610b7c92500385611e2e565b60c08701938452604051602080825297516001600160a01b0316978101979097525193600585101561018f5786956102569560408801525160608701525160808601525160a085015251151560c08401525160e080840152610100830190611d92565b90505f9291925260205f20905f915b818310610c07575050906020610b7c928201018a610b6f565b6020919350806001915483858b01015201910190918692610bee565b905060209250610b7c94915060ff191682840152151560051b8201018a610b6f565b346101c15760203660031901126101c15760043560048110156101c1575f5160206121ba5f395f51905f525460ff8116156101b257610c8333612008565b156101a35760101c60ff1690600482101561018f5760028214610180577f568a1a851b157627c6b125783cbb61c5886d3ba98624d0ac0aac727e6a8725e191610d0d6040925f5160206121ba5f395f51905f525462ff00008260101b169062ff00001916175f5160206121ba5f395f51905f5255610d0384518094611e05565b6020830190611e05565ba1005b346101c1575f3660031901126101c1576040515f51602061219a5f395f51905f525480825260208201905f51602061219a5f395f51905f525f5260205f20905f5b818110610d68576102568561024a81870382611e2e565b82546001600160a01b0316845260209093019260019283019201610d51565b346101c15760203660031901126101c157610da0611d0a565b5f5160206121ba5f395f51905f525460ff8116156101b257610dc133612008565b156101a35760101c60ff16600481101561018f5760021461018057610de581611f7f565b600481019081549060ff821615908115610f11575b506109795760ff191690556001600160a01b03165f5b5f51602061213a5f395f51905f52549081811015610f0a5782610e3282611e50565b905460039190911b1c6001600160a01b031614610e53576001915001610e10565b5f1982019182116106e65761052c610e6d610e8593611e50565b905460039190911b1c6001600160a01b031691611e50565b5f51602061213a5f395f51905f52548015610ef6575f1901610ea681611e50565b81549060018060a01b039060031b1b191690555f51602061213a5f395f51905f52555b7f606ccd029f915996edf927a1fc266795225a5e14550f220a5e658907a8414471602060405160038152a2005b634e487b7160e01b5f52603160045260245ffd5b5050610ec9565b60ff91505460a01c16600581101561018f576003141584610dfa565b346101c1575f3660031901126101c1576020610f47612089565b604051908152f35b346101c1575f3660031901126101c1576040805163017571ef60e31b60208201526349ad30cf60e11b6024820152630181d80d60e31b60288201526308570bef60e11b602c82015263244edc8b60e21b6030820152637143059f60e01b6034820152630c5655ed60e31b6038820152632ca0e68160e11b603c82015263468b80b760e11b9181019190915263beffaf0960e01b604480830191909152634e8cd91360e11b604883015263c784cd1760e01b604c830152631658ce8760e21b6050830152634d71f52b60e11b6054830152630901d23960e41b6058830152637625488b60e11b605c83015263354a61cb60e11b6060830152815261025690611057606482611e2e565b604051918291602083526020830190611d92565b346101c15761107936611d4e565b905f5160206121ba5f395f51905f525460ff8116156101b25761109b33612008565b156101a35760101c60ff16600481101561018f57600214610180576001600160a01b03831692831561080e575f51602061219a5f395f51905f5254805f5b828110611374575050505f51602061219a5f395f51905f5254600160401b8110156107b2578161052c82600161112c94015f51602061219a5f395f51905f52555f51602061219a5f395f51905f52611e80565b611137368484611f19565b60405161114381611e12565b85815260208101906002825260408101915f835260608201905f82526080830142815260a08401916001835260c0850196875261117f88611f7f565b945185546001600160a01b0319166001600160a01b03919091161785555192600584101561018f576005956111f09486549060ff60a01b9060a01b169060ff60a01b1916178655516001860155516002850155516003840155511515600483019060ff801983541691151516179055565b01905180519067ffffffffffffffff82116107b25761120f8354611fc3565b601f811161132f575b50602090601f83116001146112c85761124d949392915f91836112bd5750508160011b915f199060031b1c1916179055611e95565b5f51602061217a5f395f51905f5254915f1983146106e65760017f53a863fbf4ebdba2e73d21fe3debacd14ebe8021a86b380477878c422e2d5d3493015f51602061217a5f395f51905f52556106e1604051928392600284525f6020850152606060408501526060840191611f5f565b01519050888061065a565b90601f19831691845f52815f20925f5b818110611317575091600193918561124d98979694106112ff57505050811b019055611e95565b01515f1960f88460031b161c19169055888080610730565b929360206001819287860151815501950193016112d8565b835f5260205f20601f840160051c8101916020851061136a575b601f0160051c01905b81811061135f5750611218565b5f8155600101611352565b9091508190611349565b818110156113c7575f51602061219a5f395f51905f525f527fa2930031a60ae506e2af06e9bd7e603d45f8023e065efba38300480041ac9f328101546001600160a01b031687146107d5576001016110d9565b634e487b7160e01b5f52603260045260245ffd5b346101c1576113e936611d4e565b905f5160206121ba5f395f51905f525460ff8116156101b25761140b33612008565b156101a35760101c60ff16600481101561018f57600214610180576001600160a01b03831692831561080e575f51602061211a5f395f51905f5254805f5b8281106116c1575050505f51602061211a5f395f51905f5254600160401b8110156107b2578161052c82600161149c94015f51602061211a5f395f51905f52555f51602061211a5f395f51905f52611e80565b6114a7368484611f19565b6040516114b381611e12565b85815260208101906004825260408101915f835260608201905f82526080830142815260a08401916001835260c085019687526114ef88611f7f565b945185546001600160a01b0319166001600160a01b03919091161785555192600584101561018f576005956115609486549060ff60a01b9060a01b169060ff60a01b1916178655516001860155516002850155516003840155511515600483019060ff801983541691151516179055565b01905180519067ffffffffffffffff82116107b25761157f8354611fc3565b601f811161167c575b50602090601f831160011461162d576115bd949392915f91836112bd5750508160011b915f199060031b1c1916179055611e95565b5f51602061217a5f395f51905f5254915f1983146106e65760017f53a863fbf4ebdba2e73d21fe3debacd14ebe8021a86b380477878c422e2d5d3493015f51602061217a5f395f51905f52556106e1604051928392600484525f6020850152606060408501526060840191611f5f565b90601f19831691845f52815f20925f5b81811061166457509160019391856115bd98979694106112ff57505050811b019055611e95565b9293602060018192878601518155019501930161163d565b835f5260205f20601f840160051c810191602085106116b7575b601f0160051c01905b8181106116ac5750611588565b5f815560010161169f565b9091508190611696565b818110156113c7575f51602061211a5f395f51905f525f527f29d2fb3e2e3a59c17692f1acc8d0261d0fe7968d0e60d71e570a5d8ab47d3ec18101546001600160a01b031687146107d557600101611449565b346101c15760a03660031901126101c157600435600e8110156101c1576024356001600160a01b038116908181036101c1576044356001600160a01b038116939091908483036101c157608435928315158094036101c1575f5160206121ba5f395f51905f525460ff8116611cfb57851561080e57861561080e5762ff00001961ffff19909116600884901b61ff001617600117165f5160206121ba5f395f51905f52556064355f51602061215a5f395f51905f52557f86878a99538037290cd187b2452d005da176e531120e6cf503e15bbf3ca0a022805460ff861660ff1991909116179055427f86878a99538037290cd187b2452d005da176e531120e6cf503e15bbf3ca0a021557f86878a99538037290cd187b2452d005da176e531120e6cf503e15bbf3ca0a02680546001600160a01b03191686179055604080519093906118608582611e2e565b600781526623b930b73a37b960c91b6020820152845161187f81611e12565b87815260208101905f8252868101915f835260608201905f82526080830142815260a08401916001835260c085019687526118b988611f7f565b945185546001600160a01b0319166001600160a01b03919091161785555192600584101561018f5760059561192a9486549060ff60a01b9060a01b169060ff60a01b1916178655516001860155516002850155516003840155511515600483019060ff801983541691151516179055565b01905180519067ffffffffffffffff82116107b2576119498354611fc3565b601f8111611cb6575b50602090601f8311600114611c4f57611987949392915f9183611c445750508160011b915f199060031b1c1916179055611e95565b5f51602061217a5f395f51905f52545f1981146106e6576001015f51602061217a5f395f51905f52555f5160206120fa5f395f51905f5254600160401b8110156107b2578161052c8260016119f994015f5160206120fa5f395f51905f52555f5160206120fa5f395f51905f52611e80565b8251611a058482611e2e565b60078152665472757374656560c81b60208201528351611a2481611e12565b878152602081019060018252858101915f835260608201905f82526080830142815260a08401916001835260c08501968752611a5f88611f7f565b945185546001600160a01b0319166001600160a01b03919091161785555192600584101561018f57600595611ad09486549060ff60a01b9060a01b169060ff60a01b1916178655516001860155516002850155516003840155511515600483019060ff801983541691151516179055565b01905180519067ffffffffffffffff82116107b257611aef8354611fc3565b601f8111611bff575b50602090601f8311600114611b9857611b2d949392915f9183611b8d5750508160011b915f199060031b1c1916179055611e95565b5f51602061217a5f395f51905f5254925f1984146106e65760017fa98e355366fa7e68d50cffce4e47651c09506716778daa38f5690654228eab0394015f51602061217a5f395f51905f5255611b8583518093611df8565b6020820152a3005b015190508a8061065a565b90601f19831691845f52815f20925f5b818110611be75750916001939185611b2d9897969410611bcf57505050811b019055611e95565b01515f1960f88460031b161c191690558a8080610730565b92936020600181928786015181550195019301611ba8565b835f5260205f20601f840160051c81019160208510611c3a575b601f0160051c01905b818110611c2f5750611af8565b5f8155600101611c22565b9091508190611c19565b015190508b8061065a565b90601f19831691845f52815f20925f5b818110611c9e57509160019391856119879897969410611c8657505050811b019055611e95565b01515f1960f88460031b161c191690558b8080610730565b92936020600181928786015181550195019301611c5f565b835f5260205f20601f840160051c81019160208510611cf1575b601f0160051c01905b818110611ce65750611952565b5f8155600101611cd9565b9091508190611cd0565b637b4f789160e11b5f5260045ffd5b600435906001600160a01b03821682036101c157565b9181601f840112156101c15782359167ffffffffffffffff83116101c157602083818601950101116101c157565b9060406003198301126101c1576004356001600160a01b03811681036101c157916024359067ffffffffffffffff82116101c157611d8e91600401611d20565b9091565b805180835260209291819084018484015e5f828201840152601f01601f1916010190565b60206040818301928281528451809452019201905f5b818110611dd95750505090565b82516001600160a01b0316845260209384019390920191600101611dcc565b90600e82101561018f5752565b90600482101561018f5752565b60e0810190811067ffffffffffffffff8211176107b257604052565b90601f8019910116810190811067ffffffffffffffff8211176107b257604052565b5f51602061213a5f395f51905f52548110156113c7575f51602061213a5f395f51905f525f5260205f2001905f90565b80548210156113c7575f5260205f2001905f90565b7f86878a99538037290cd187b2452d005da176e531120e6cf503e15bbf3ca0a0245490600160401b8210156107b25761052c826001611f1794017f86878a99538037290cd187b2452d005da176e531120e6cf503e15bbf3ca0a024557f86878a99538037290cd187b2452d005da176e531120e6cf503e15bbf3ca0a024611e80565b565b92919267ffffffffffffffff82116107b25760405191611f43601f8201601f191660200184611e2e565b8294818452818301116101c1578281602093845f960137010152565b908060209392818452848401375f828201840152601f01601f1916010190565b6001600160a01b03165f9081527f86878a99538037290cd187b2452d005da176e531120e6cf503e15bbf3ca0a0236020526040902090565b600582101561018f5752565b90600182811c92168015611ff1575b6020831014611fdd57565b634e487b7160e01b5f52602260045260245ffd5b91607f1691611fd2565b919082018092116106e657565b5f5160206120fa5f395f51905f525490815f5b83811061202a57505050505f90565b818110156113c7575f5160206120fa5f395f51905f525f527f02d53257e505cdcc34b56883ae3c4f882f6f862018d75ac8318f149565495f8b8101546001600160a01b038481169116146120805760010161201b565b50505050600190565b5f905f5f51602061213a5f395f51905f5254905b8181106120a8575050565b6120cb6120b482611e50565b905460039190911b1c6001600160a01b0316611f7f565b60ff6004820154166120e1575b5060010161209d565b60019194826120f292015490611ffb565b93906120d856fe86878a99538037290cd187b2452d005da176e531120e6cf503e15bbf3ca0a02786878a99538037290cd187b2452d005da176e531120e6cf503e15bbf3ca0a02a86878a99538037290cd187b2452d005da176e531120e6cf503e15bbf3ca0a02986878a99538037290cd187b2452d005da176e531120e6cf503e15bbf3ca0a02086878a99538037290cd187b2452d005da176e531120e6cf503e15bbf3ca0a02586878a99538037290cd187b2452d005da176e531120e6cf503e15bbf3ca0a02886878a99538037290cd187b2452d005da176e531120e6cf503e15bbf3ca0a01fa2646970667358221220cb873e0afc80eff89d46de840f0f397984df1e87e4eb90ecedb7061d3cfed1b464736f6c634300081e0033","linkReferences":{}},"methodIdentifiers":{"TrustCore_init(uint8,address,address,bytes32,bool)":"0bab8f78","addBeneficiary(address,uint256,string)":"935a619e","addProtector(address,string)":"0c0ec068","addSuccessorTrustee(address,string)":"10ae17de","getBeneficiaries()":"913b722c","getParticipant(address)":"7143059f","getSuccessorTrustees()":"62b2af68","getTotalBeneficiaryShares()":"5941cd02","getTrustInfo()":"8d17016e","getTrustees()":"beffaf09","isBeneficiary(address)":"9d19b226","isTrustee(address)":"c784cd17","packedSelectors()":"3e62267c","removeBeneficiary(address)":"59633a1c","revokeTrust()":"9ae3ea56","updateBeneficiaryShare(address,uint256)":"901d2390","updateTrustInstrument(bytes32)":"ec4a9116","updateTrustStatus(uint8)":"6a94c396"},"id":362}