{"abi":[{"type":"function","name":"packedSelectors","inputs":[],"outputs":[{"name":"","type":"bytes","internalType":"bytes"}],"stateMutability":"pure"},{"type":"function","name":"upgradeDiamond","inputs":[{"name":"_facets","type":"address[]","internalType":"address[]"},{"name":"_init","type":"address","internalType":"address"},{"name":"_calldata","type":"bytes","internalType":"bytes"}],"outputs":[],"stateMutability":"nonpayable"},{"type":"event","name":"DiamondFunctionAdded","inputs":[{"name":"selector","type":"bytes4","indexed":true,"internalType":"bytes4"},{"name":"facet","type":"address","indexed":true,"internalType":"address"}],"anonymous":false},{"type":"event","name":"DiamondFunctionRemoved","inputs":[{"name":"selector","type":"bytes4","indexed":true,"internalType":"bytes4"}],"anonymous":false},{"type":"event","name":"DiamondFunctionReplaced","inputs":[{"name":"selector","type":"bytes4","indexed":true,"internalType":"bytes4"},{"name":"facet","type":"address","indexed":true,"internalType":"address"}],"anonymous":false},{"type":"error","name":"AccessControl_CallerIsNotAuthorized","inputs":[{"name":"caller","type":"address","internalType":"address"},{"name":"functionSig","type":"bytes4","internalType":"bytes4"}]},{"type":"error","name":"Diamond_FacetHasNoCode","inputs":[{"name":"facet","type":"address","internalType":"address"}]},{"type":"error","name":"Diamond_InitReverted","inputs":[{"name":"init","type":"address","internalType":"address"},{"name":"data","type":"bytes","internalType":"bytes"}]},{"type":"error","name":"Diamond_InvalidFacetAddress","inputs":[]},{"type":"error","name":"Diamond_NoSelectorsFromFacet","inputs":[{"name":"facet","type":"address","internalType":"address"}]}],"bytecode":{"object":"0x60808060405234601557610ffd908161001a8239f35b5f80fdfe60806040526004361015610011575f80fd5b5f3560e01c80631b9e4b921461003457633e62267c1461002f575f80fd5b610137565b346100c15760603660031901126100c15760043567ffffffffffffffff81116100c157366023820112156100c15780600401359067ffffffffffffffff82116100c1573660248360051b830101116100c15761008e6100d6565b906044359167ffffffffffffffff83116100c1576100bf936100b660249436906004016100e5565b94909301610182565b005b5f80fd5b6001600160a01b038116036100c157565b602435906100e3826100c5565b565b9181601f840112156100c15782359167ffffffffffffffff83116100c157602083818601950101116100c157565b805180835260209291819084018484015e5f828201840152601f01601f1916010190565b346100c1575f3660031901126100c157604051630dcf25c960e11b60208201526004815261017e9061016a60248261072a565b604051918291602083526020830190610113565b0390f35b9193915f356001600160e01b03191661019b8133610a68565b156106a957505f915f5b8181106105c357506101b68361082c565b916101c08461082c565b915f905f5b8181106104d157505050505f5b83811061036b5750505f516020610fa85f395f51905f5254805b610209575050506100e39291610203913691610a32565b90610beb565b610212906109b4565b8061022c61021f826108ed565b90549060031b1c60e01b90565b6001600160e01b031981165f805b87811061031b575b5015610250575b50506101ec565b5f916102a7917f6311a3cdc840c8a27d61ef6e38b0ed92396f082c7fa1438dd3d820a42cf9472c8480a26102915f516020610fa85f395f51905f52546109c0565b8085036102af575b506102a26109ce565b610880565b555f80610249565b6102be61021f610315926108ed565b6102e8816102cb886108ed565b90919063ffffffff83549160031b9260e01c831b921b1916179055565b6102f661ffff871691610880565b805461ffff60a01b191660a09290921b61ffff60a01b16919091179055565b5f610299565b909192938361034b61033e610330858b61085e565b516001600160e01b03191690565b6001600160e01b03191690565b1461035e5750600101908493929161023a565b939291505060015f610242565b8061037b6103306001938661085e565b610395610388838661085e565b516001600160a01b031690565b6103bd6103b16103a484610880565b546001600160a01b031690565b6001600160a01b031690565b8061045557506104106103df5f516020610fa85f395f51905f525461ffff1690565b6104026103ea61074c565b6001600160a01b03851681529161ffff166020830152565b61040b84610880565b6108b6565b61041982610966565b838060a01b03169063ffffffff60e01b167f8ebe71df07c7735e3354de642e0e78bd4883f86387fd862933fb2bda80a33ac45f80a35b016101d2565b9190848060a01b03811680930361046f575b50505061044f565b61049b9061047c83610880565b80546001600160a01b0319166001600160a01b03909216919091179055565b6001600160e01b0319167fa8562a319d3313d1e64f110b64a04c1875e8111d50d68e3507b9b5121dee27bc5f80a35f8080610467565b6104e46104df8284876106d3565b6106e8565b604051630f98899f60e21b81525f816004816001600160a01b0386165afa9081156105be575f9161059c575b508051919493929160021c905f955b888a848910610539575050505050600191929350016101c5565b9661058a8361057b8361058f95610576899a9b9c9d8f84602060019c9d6105669360021b0101519261085e565b6001600160e01b03199091169052565b61085e565b6001600160a01b039091169052565b610872565b960195949392919061051f565b6105b891503d805f833e6105b0818361072a565b8101906107bd565b5f610510565b6107e3565b926105d26104df8584866106d3565b6001600160a01b038116801561069a57813b1561067e57905f60049260405193848092630f98899f60e21b82525afa9182156105be575f92610662575b5081518015908115610655575b5061063a5750516001916106339160021c90610802565b93016101a5565b639204b01f60e01b5f526001600160a01b031660045260245ffd5b600316905015155f61061c565b6106779192503d805f833e6105b0818361072a565b905f61060f565b630be58b3960e11b5f526001600160a01b03821660045260245ffd5b637a529df560e11b5f5260045ffd5b631d64bc3360e11b5f523360045260245260445ffd5b634e487b7160e01b5f52603260045260245ffd5b91908110156106e35760051b0190565b6106bf565b356106f2816100c5565b90565b634e487b7160e01b5f52604160045260245ffd5b6040810190811067ffffffffffffffff82111761072557604052565b6106f5565b90601f8019910116810190811067ffffffffffffffff82111761072557604052565b604051906100e360408361072a565b67ffffffffffffffff811161072557601f01601f191660200190565b81601f820112156100c15780519061078e8261075b565b9261079c604051948561072a565b828452602083830101116100c157815f9260208093018386015e8301015290565b906020828203126100c157815167ffffffffffffffff81116100c1576106f29201610777565b6040513d5f823e3d90fd5b634e487b7160e01b5f52601160045260245ffd5b9190820180921161080f57565b6107ee565b67ffffffffffffffff81116107255760051b60200190565b9061083682610814565b610843604051918261072a565b8281528092610854601f1991610814565b0190602036910137565b80518210156106e35760209160051b010190565b5f19811461080f5760010190565b63ffffffff60e01b165f527f49e5d4b4dffd3ea9dfcc29574ccfe2842c2a5e7f5ff2aa4017ab24c98e92155560205260405f2090565b8151815460209093015161ffff60a01b60a09190911b166001600160b01b03199093166001600160a01b0390911617919091179055565b905f516020610fa85f395f51905f52548210156106e3575f516020610fa85f395f51905f525f52600382901c7fdaf47bc1c9212e8f00f9438529ac76fddd192cd49f69c265ab7ecf51df03a66e019160021b601c1690565b91909180548310156106e3575f52601c60205f208360031c019260021b1690565b5f516020610fa85f395f51905f52549068010000000000000000821015610725576102cb8260016100e394015f516020610fa85f395f51905f52555f516020610fa85f395f51905f52610945565b801561080f575f190190565b5f1981019190821161080f57565b5f516020610fa85f395f51905f52548015610a1e575f19016109fd815f516020610fa85f395f51905f52610945565b63ffffffff82549160031b1b191690555f516020610fa85f395f51905f5255565b634e487b7160e01b5f52603160045260245ffd5b929192610a3e8261075b565b91610a4c604051938461072a565b8294818452818301116100c1578281602093845f960137010152565b81610a7291610d70565b610ab0577f511915e52b7f9e690b9fdc662acaf5600fd3722c87eb951d3abd26e93a784dca5c9060ff8216610aa75750505f90565b6106f291610f4f565b50600190565b6020818303126100c15780519067ffffffffffffffff82116100c157019080601f830112156100c157815191610aeb83610814565b92610af9604051948561072a565b80845260208085019160051b830101918383116100c15760208101915b838310610b2557505050505090565b825167ffffffffffffffff81116100c1578201906040828703601f1901126100c15760405190610b5482610709565b6020830151610b62816100c5565b825260408301519167ffffffffffffffff83116100c157610b8b88602080969581960101610777565b83820152815201920191610b16565b3d15610bc4573d90610bab8261075b565b91610bb9604051938461072a565b82523d5f602084013e565b606090565b6001600160a01b0390911681526040602082018190526106f292910190610113565b906001600160a01b0382168015610d3e5773d1a302d1a302d1a302d1a302d1a302d1a302d1a314610c6b57813b1561067e575f80825160208401855af491610c31610b9a565b9215610c3c57505050565b825115610c4b57825160208401fd5b610c67604051928392636be7954360e11b845260048401610bc9565b0390fd5b610c7f915060208082518301019101610ab6565b80515f5b818110610c8f57505050565b610caa610c9c828561085e565b51516001600160a01b031690565b803b15610d23575f806020610cbf858861085e565b510151602081519101845af490610cd4610b9a565b9115610ce4575050600101610c83565b81518390869015610cf757835160208501fd5b602091610d039161085e565b510151604051636be7954360e11b8152918291610c679160048401610bc9565b630be58b3960e11b5f526001600160a01b031660045260245ffd5b505050565b91908260409103126100c157815180151581036100c15760209092015163ffffffff811681036100c15790565b7fce1c17acaaa67de66e928cd49c8f658667a825223bee6fda99a14908362bcdac546001600160a01b031680610eaf575b506001600160a01b0381165f9081527fce1c17acaaa67de66e928cd49c8f658667a825223bee6fda99a14908362bcdaa60205260409020610e1490549263ffffffff60e01b165f527fce1c17acaaa67de66e928cd49c8f658667a825223bee6fda99a14908362bcdab60205260405f2090565b54908115610e6b576001600160a01b03165f9081527fce1c17acaaa67de66e928cd49c8f658667a825223bee6fda99a14908362bcdaa60205260409020546001161515918215610e6357505090565b161515919050565b6001600160a01b03165f9081527fce1c17acaaa67de66e928cd49c8f658667a825223bee6fda99a14908362bcdaa6020526040902054600116151591506106f29050565b610ec1906001600160a01b03166103b1565b6040805163b700961360e01b81526001600160a01b03841660048201523060248201526001600160e01b03198516604482015291829060649082905afa5f9181610f1d575b5015610da157610f16575f610da1565b5050600190565b610f4091925060403d604011610f48575b610f38818361072a565b810190610d43565b50905f610f06565b503d610f2e565b60ff16908115610f16576001600160e01b0319165f9081527fce1c17acaaa67de66e928cd49c8f658667a825223bee6fda99a14908362bcdab6020526040902054908115610fa1576001901b16151590565b50505f9056fe49e5d4b4dffd3ea9dfcc29574ccfe2842c2a5e7f5ff2aa4017ab24c98e921556a2646970667358221220eaf2be7d49b8d767d89cb673f0b56d285e97564e3b3a69c0ff751ac42faf742564736f6c634300081e0033","linkReferences":{}},"methodIdentifiers":{"packedSelectors()":"3e62267c","upgradeDiamond(address[],address,bytes)":"1b9e4b92"},"id":125}