{"abi":[{"type":"function","name":"VaultAdapter_init","inputs":[],"outputs":[],"stateMutability":"nonpayable"},{"type":"function","name":"addToVaultPosition","inputs":[{"name":"investmentId","type":"uint256","internalType":"uint256"},{"name":"assets","type":"uint256","internalType":"uint256"}],"outputs":[{"name":"sharesReceived","type":"uint256","internalType":"uint256"}],"stateMutability":"nonpayable"},{"type":"function","name":"depositToVault","inputs":[{"name":"vault","type":"address","internalType":"address"},{"name":"assets","type":"uint256","internalType":"uint256"},{"name":"description","type":"string","internalType":"string"}],"outputs":[{"name":"investmentId","type":"uint256","internalType":"uint256"},{"name":"sharesReceived","type":"uint256","internalType":"uint256"}],"stateMutability":"nonpayable"},{"type":"function","name":"exitVaultPosition","inputs":[{"name":"investmentId","type":"uint256","internalType":"uint256"}],"outputs":[{"name":"assetsReceived","type":"uint256","internalType":"uint256"},{"name":"realizedGain","type":"int256","internalType":"int256"}],"stateMutability":"nonpayable"},{"type":"function","name":"getAllVaultPositions","inputs":[],"outputs":[{"name":"positions","type":"tuple[]","internalType":"struct IVaultAdapter.VaultPosition[]","components":[{"name":"investmentId","type":"uint256","internalType":"uint256"},{"name":"vault","type":"address","internalType":"address"},{"name":"asset","type":"address","internalType":"address"},{"name":"sharesBalance","type":"uint256","internalType":"uint256"},{"name":"costBasis","type":"uint256","internalType":"uint256"},{"name":"currentValue","type":"uint256","internalType":"uint256"},{"name":"lastUpdated","type":"uint256","internalType":"uint256"}]}],"stateMutability":"view"},{"type":"function","name":"getRegisteredVaults","inputs":[],"outputs":[{"name":"","type":"address[]","internalType":"address[]"}],"stateMutability":"view"},{"type":"function","name":"getTotalVaultValue","inputs":[],"outputs":[{"name":"totalValue","type":"uint256","internalType":"uint256"}],"stateMutability":"view"},{"type":"function","name":"getUnrealizedGains","inputs":[],"outputs":[{"name":"unrealizedGain","type":"int256","internalType":"int256"}],"stateMutability":"view"},{"type":"function","name":"getVaultPosition","inputs":[{"name":"investmentId","type":"uint256","internalType":"uint256"}],"outputs":[{"name":"position","type":"tuple","internalType":"struct IVaultAdapter.VaultPosition","components":[{"name":"investmentId","type":"uint256","internalType":"uint256"},{"name":"vault","type":"address","internalType":"address"},{"name":"asset","type":"address","internalType":"address"},{"name":"sharesBalance","type":"uint256","internalType":"uint256"},{"name":"costBasis","type":"uint256","internalType":"uint256"},{"name":"currentValue","type":"uint256","internalType":"uint256"},{"name":"lastUpdated","type":"uint256","internalType":"uint256"}]}],"stateMutability":"view"},{"type":"function","name":"isVaultAdapterInitialized","inputs":[],"outputs":[{"name":"","type":"bool","internalType":"bool"}],"stateMutability":"view"},{"type":"function","name":"isVaultRegistered","inputs":[{"name":"vault","type":"address","internalType":"address"}],"outputs":[{"name":"","type":"bool","internalType":"bool"}],"stateMutability":"view"},{"type":"function","name":"packedSelectors","inputs":[],"outputs":[{"name":"","type":"bytes","internalType":"bytes"}],"stateMutability":"pure"},{"type":"function","name":"previewDeposit","inputs":[{"name":"vault","type":"address","internalType":"address"},{"name":"assets","type":"uint256","internalType":"uint256"}],"outputs":[{"name":"sharesExpected","type":"uint256","internalType":"uint256"}],"stateMutability":"view"},{"type":"function","name":"previewWithdraw","inputs":[{"name":"investmentId","type":"uint256","internalType":"uint256"},{"name":"shares","type":"uint256","internalType":"uint256"}],"outputs":[{"name":"assetsExpected","type":"uint256","internalType":"uint256"},{"name":"expectedGain","type":"int256","internalType":"int256"}],"stateMutability":"view"},{"type":"function","name":"registerVault","inputs":[{"name":"vault","type":"address","internalType":"address"},{"name":"name","type":"string","internalType":"string"}],"outputs":[],"stateMutability":"nonpayable"},{"type":"function","name":"unregisterVault","inputs":[{"name":"vault","type":"address","internalType":"address"}],"outputs":[],"stateMutability":"nonpayable"},{"type":"function","name":"updateAllVaultValuations","inputs":[],"outputs":[{"name":"totalValue","type":"uint256","internalType":"uint256"}],"stateMutability":"nonpayable"},{"type":"function","name":"updateVaultValuation","inputs":[{"name":"investmentId","type":"uint256","internalType":"uint256"}],"outputs":[{"name":"newValue","type":"uint256","internalType":"uint256"}],"stateMutability":"nonpayable"},{"type":"function","name":"withdrawFromVault","inputs":[{"name":"investmentId","type":"uint256","internalType":"uint256"},{"name":"shares","type":"uint256","internalType":"uint256"}],"outputs":[{"name":"assetsReceived","type":"uint256","internalType":"uint256"},{"name":"realizedGain","type":"int256","internalType":"int256"}],"stateMutability":"nonpayable"},{"type":"event","name":"VaultDeposit","inputs":[{"name":"investmentId","type":"uint256","indexed":true,"internalType":"uint256"},{"name":"vault","type":"address","indexed":true,"internalType":"address"},{"name":"asset","type":"address","indexed":true,"internalType":"address"},{"name":"assetsDeposited","type":"uint256","indexed":false,"internalType":"uint256"},{"name":"sharesReceived","type":"uint256","indexed":false,"internalType":"uint256"}],"anonymous":false},{"type":"event","name":"VaultRegistered","inputs":[{"name":"vault","type":"address","indexed":true,"internalType":"address"},{"name":"asset","type":"address","indexed":true,"internalType":"address"},{"name":"name","type":"string","indexed":false,"internalType":"string"}],"anonymous":false},{"type":"event","name":"VaultUnregistered","inputs":[{"name":"vault","type":"address","indexed":true,"internalType":"address"}],"anonymous":false},{"type":"event","name":"VaultValuationUpdated","inputs":[{"name":"investmentId","type":"uint256","indexed":true,"internalType":"uint256"},{"name":"vault","type":"address","indexed":true,"internalType":"address"},{"name":"oldValue","type":"uint256","indexed":false,"internalType":"uint256"},{"name":"newValue","type":"uint256","indexed":false,"internalType":"uint256"}],"anonymous":false},{"type":"event","name":"VaultWithdrawal","inputs":[{"name":"investmentId","type":"uint256","indexed":true,"internalType":"uint256"},{"name":"vault","type":"address","indexed":true,"internalType":"address"},{"name":"sharesRedeemed","type":"uint256","indexed":false,"internalType":"uint256"},{"name":"assetsReceived","type":"uint256","indexed":false,"internalType":"uint256"},{"name":"realizedGain","type":"uint256","indexed":false,"internalType":"uint256"},{"name":"isFullExit","type":"bool","indexed":false,"internalType":"bool"}],"anonymous":false},{"type":"error","name":"AccessControl_CallerIsNotAuthorized","inputs":[{"name":"caller","type":"address","internalType":"address"},{"name":"functionSig","type":"bytes4","internalType":"bytes4"}]},{"type":"error","name":"SafeERC20FailedOperation","inputs":[{"name":"token","type":"address","internalType":"address"}]},{"type":"error","name":"Vault_AlreadyInitialized","inputs":[]},{"type":"error","name":"Vault_ApproveFailed","inputs":[]},{"type":"error","name":"Vault_DepositFailed","inputs":[]},{"type":"error","name":"Vault_InsufficientBalance","inputs":[]},{"type":"error","name":"Vault_InvalidAmount","inputs":[]},{"type":"error","name":"Vault_InvalidVault","inputs":[]},{"type":"error","name":"Vault_InvestmentNotFound","inputs":[]},{"type":"error","name":"Vault_NotInitialized","inputs":[]},{"type":"error","name":"Vault_NotRegistered","inputs":[]},{"type":"error","name":"Vault_WithdrawFailed","inputs":[]}],"bytecode":{"object":"0x608080604052346015576127aa908161001a8239f35b5f80fdfe60806040526004361015610011575f80fd5b5f5f358060e01c8063105a88e314611a4f5780632633b70f146118a25780632f8c41c7146116ce5780633e12529e146115aa5780633e62267c1461147d578063488bd7b0146113865780634b8bccd31461135857806352eca321146112645780635cec286f146111a457806370005d7f14610e69578063709748181461090d578063720ba44a146107f05780638a6f9cd7146105df578063b8f82b261461051f578063b955367914610341578063bd3b40601461026d578063c37e9f15146101f1578063da16ac2d1461019e5763e5912b76146100ec575f80fd5b3461019a57604036600319011261019a57610105611a83565b9060243567ffffffffffffffff811161019657610126903690600401611b24565b90916001600160e01b03191661013c8133611f1f565b15610180575060ff5f5160206127355f395f51905f525416156101725761016f9291610169913691611d15565b90611f70565b80f35b6222e3b760e71b8452600484fd5b631d64bc3360e11b855233600452602452604484fd5b8380fd5b5080fd5b82346101ee57806003193601126101ee575f5160206127355f395f51905f525460ff81166101df5760ff19166001175f5160206127355f395f51905f525580f35b6390a3530760e01b8252600482fd5b80fd5b503461019a57602036600319011261019a576001600160e01b0319166102178133611f1f565b15610257575060ff5f5160206127355f395f51905f52541615610249576020610241600435611d93565b604051908152f35b6222e3b760e71b8152600490fd5b631d64bc3360e11b825233600452602452604490fd5b82346101ee57806003193601126101ee576040515f5160206127155f395f51905f528054808352908352602082019081907f2c77d0fb0e3bb90865acec5e10c861e60fb9427e82ef52b2b38068a95bb37cfb90855b81811061032257505050826102d8910383611c3b565b604051928392602084019060208552518091526040840192915b818110610300575050500390f35b82516001600160a01b03168452859450602093840193909201916001016102f2565b82546001600160a01b03168452602090930192600192830192016102c2565b503461019a578160031936011261019a576001600160e01b0319166103668133611f1f565b15610257575060ff5f5160206127355f395f51905f52541615610249575f5160206126f55f395f51905f525481805b8281106103a757602084604051908152f35b6103b081611bce565b90549060031b1c8083525f5160206127555f395f51905f526020526040832090600182015490816103e7575b505050600101610395565b909195600287015490602060018060a01b03895416946024604051809781936303d1689d60e11b835260048301525afa9384156105145786946104db575b5083610436914260038b0155611d08565b96303b156104cc57604051636dc0fc6b60e01b8152836004820152846024820152868160448183305af180156104d0579087916104b7575b505060406001959493927f561ee9f957292f10ac2d0557e8b0a667f98d66b4db67f7c523b40235ef73752692878060a01b039054169482519182526020820152a3905f806103dc565b816104c191611c3b565b6104cc57855f61046e565b8580fd5b6040513d89823e3d90fd5b9093506020813d821161050c575b816104f660209383611c3b565b81010312610508575192610436610425565b5f80fd5b3d91506104e9565b6040513d88823e3d90fd5b82346101ee5760403660031901126101ee57610539611a83565b9060ff600261054784611b52565b015416156105d05760405163ef8b30f760e01b81526024803560048301529092602091849182906001600160a01b03165afa9081156105c45790610591575b602090604051908152f35b506020813d6020116105bc575b816105ab60209383611c3b565b810103126105085760209051610586565b3d915061059e565b604051903d90823e3d90fd5b630bf9d5d160e31b8152600490fd5b5090346101ee576105ef36611b0e565b90926001600160e01b0319166106058133611f1f565b156107da575060ff5f5160206127355f395f51905f525416156107cc5780156107bd578282525f5160206127555f395f51905f52602052604082209260018060a01b038454169081156107ae576106708361065f84611b52565b9360018060a01b038554169061223c565b9360018601610680868254611d08565b80915560028701610692868254611d08565b905542600388015586546040516303d1689d60e11b81526004810192909252602090829060249082906001600160a01b03165afa90811561077157829161077c575b50303b1561019a5760405190636dc0fc6b60e01b82528360048301526024820152818160448183305af180156107715761075c575b505093549054604080519384526020848101869052956001600160a01b039283169493909216927fb648d4458e04eaf6869d61fda6c9a5e33ef9525c97cd8a879d28f7876d17e55a9190a4604051908152f35b610767828092611c3b565b6101ee5780610709565b6040513d84823e3d90fd5b90506020813d6020116107a6575b8161079760209383611c3b565b8101031261050857515f6106d4565b3d915061078a565b63ca579c0560e01b8452600484fd5b63fce1c40d60e01b8252600482fd5b6222e3b760e71b8252600482fd5b631d64bc3360e11b835233600452602452604482fd5b82346101ee5760203660031901126101ee5760043561080d611c75565b508082525f5160206127555f395f51905f526020526040822080546001600160a01b03169081156107ae5761084182611b52565b60018201549091908015610904576040516303d1689d60e11b81526004810182905295602087602481885afa9081156105c457906108d1575b60e09650925b60018060a01b039054166003600284015493015494604051966108a288611c0b565b8752602087015260408601526060850152608084015260a083015260c08201526108cf6040518092611a99565bf35b506020863d6020116108fc575b816108eb60209383611c3b565b810103126105085760e0955161087a565b3d91506108de565b60e09592610880565b5090346101ee5761091d36611b0e565b91909263ffffffff60e01b166109338133611f1f565b15610e52575060ff5f5160206127355f395f51905f5254161561024957818382525f5160206127555f395f51905f52602052604082209360018060a01b038554169182156107ae5715610e46575b60018501908154808611610e37578596818697149160206109b060028401926109ab8c8554611cd7565b611cea565b9660648b6040519a8b938492635d043b2960e11b845260048401523060248401523060448401525af1968715610d30578897610e03575b508615610df457610a116109fb8789611cbf565b96610a078b8854611bfe565b8097558254611bfe565b905542600382015580546001600160a01b0316610a2d81611b52565b948315610d3b575050303b15610d2c576040516309b010d360e11b8152836004820152866024820152866044820152878160648183305af18015610d3057908891610d17575b50505f5160206126f55f395f51905f525496805b888110610c3e575b5090919293949596505b808613948515610c375786955b610b01575b50506040967f9b65d94b56d7dede968f940cbbd097371dff585ce46f78a13e524c8326a73d5d9260809260018060a01b03905416958951928352886020840152898301526060820152a382519182526020820152f35b6001808060a01b03825416910190604051917002b30bab63a103cb4b2b63210333937b69607d1b60208401528284825492610b3b84611d5b565b9360018116908115610c165750600114610bd6575b50610b64925003601f198101845283611c3b565b303b15610bd257610bac9183916040519384928392636bbb3ef560e11b845260048401528a60248401524260448401526001606484015260a0608484015260a4830190611aea565b038183305af180156107715715610aab57610bc8828092611c3b565b6101ee5780610aab565b8280fd5b9150508452826020852085905b838210610bfb5750506031610b64928201015f610b50565b60209192508060019154603185890101520191018491610be3565b905060319250610b6494915060ff191682840152801515028201015f610b50565b8195610aa6565b84610c4882611bce565b90549060031b1c14610c5c57600101610a87565b90919293949596975f198101908111610d035790610c8c610c7f610ca493611bce565b90549060031b1c91611bce565b90919082549060031b91821b915f19901b1916179055565b5f5160206126f55f395f51905f52548015610cef575f1901610cc581611bce565b8154905f199060031b1b191690555f5160206126f55f395f51905f5255908695949392915f610a8f565b634e487b7160e01b82526031600452602482fd5b634e487b7160e01b83526011600452602483fd5b81610d2191611c3b565b610d2c57865f610a73565b8680fd5b6040513d8a823e3d90fd5b602090602460409a9495969798999a51809481936303d1689d60e11b835260048301525afa908115610771578291610dc2575b50303b1561019a5760405190636dc0fc6b60e01b82528560048301526024820152818160448183305af1801561077157908291610dad575b5050610a99565b81610db791611c3b565b6101ee57805f610da6565b90506020813d602011610dec575b81610ddd60209383611c3b565b8101031261050857515f610d6e565b3d9150610dd0565b63a90b0bf160e01b8852600488fd5b9096506020813d602011610e2f575b81610e1f60209383611c3b565b810103126105085751955f6109e7565b3d9150610e12565b6301d8c68960e51b8552600485fd5b60018501549350610981565b631d64bc3360e11b82523360045260245260449150fd5b50903461050857606036600319011261050857610e84611a83565b9060243560443567ffffffffffffffff811161050857610ea8903690600401611b24565b93909463ffffffff60e01b16610ebe8133611f1f565b1561118e575060ff5f5160206127355f395f51905f52541615611180578115611171576001600160a01b03811690811561116257610efb81611b52565b9560ff60028801541615611134575b8560846020926040519889938492636dd05f4d60e11b84528860048501526005602485015260606044850152816064850152848401375f838284010152601f801991011681010301815f305af19485156110f5575f95611100575b508554610f7d9184916001600160a01b03169061223c565b92303b1561050857604051623422d360e81b81528560048201528360248201525f8160448183305af180156110f5576110e2575b506040516080810181811067ffffffffffffffff8211176110ce576040908152838252602080830187815283830187815242606086019081528a87525f5160206127555f395f51905f52909352928520935184546001600160a01b0319166001600160a01b03919091161784555160018401559051600283015551600391909101555f5160206126f55f395f51905f525490600160401b8210156110ba57507fb648d4458e04eaf6869d61fda6c9a5e33ef9525c97cd8a879d28f7876d17e55a6040809761109688610c8c8660018398015f5160206126f55f395f51905f5255611bce565b548151958652602086018790526001600160a01b031694a482519182526020820152f35b634e487b7160e01b81526041600452602490fd5b634e487b7160e01b83526041600452602483fd5b6110ee91505f90611c3b565b5f5f610fb1565b6040513d5f823e3d90fd5b9094506020813d60201161112c575b8161111c60209383611c3b565b8101031261050857519382610f65565b3d915061110f565b955061114a611144368789611d15565b82611f70565b602085608461115884611b52565b9892505050610f0a565b63535b530f60e01b5f5260045ffd5b63fce1c40d60e01b5f5260045ffd5b6222e3b760e71b5f5260045ffd5b631d64bc3360e11b5f523360045260245260445ffd5b5034610508576020366003190112610508576001600160e01b0319166111ca8133611f1f565b1561118e5760ff5f5160206127355f395f51905f5254161561118057604051630e12e90360e31b815260043560048201525f60248201526040816044815f305af180156110f5575f905f9061122a575b6040809350519182526020820152f35b50506040813d60401161125c575b8161124560409383611c3b565b81010312610508578060206040925191015161121a565b3d9150611238565b34610508575f366003190112610508575f5f5160206126f55f395f51905f52545f5b81811061129857602083604051908152f35b6112a181611bce565b90549060031b1c5f525f5160206127555f395f51905f5260205260405f20600181015490816112d5575b5050600101611286565b546040516303d1689d60e11b81526004810192909252919391602090829060249082906001600160a01b03165afa9081156110f5575f91611326575b5061131e90600192611d08565b9290846112cb565b90506020813d8211611350575b8161134060209383611c3b565b8101031261050857516001611311565b3d9150611333565b34610508575f36600319011261050857602060ff5f5160206127355f395f51905f5254166040519015158152f35b346105085761139436611b0e565b5f9182525f5160206127555f395f51905f52602052604090912080546001600160a01b0316919081831561146e5715611462575b6020602492936040519384809263266d6a8360e11b82528760048301525afa9182156110f5575f9261142a575b5061141881600161140f604096600261141e960154611cd7565b91015490611cea565b82611cbf565b82519182526020820152f35b9291506020833d60201161145a575b8161144660209383611c3b565b8101031261050857915190916114186113f5565b3d9150611439565b600181015491506113c8565b63ca579c0560e01b5f5260045ffd5b34610508575f366003190112610508576040805163da16ac2d60e01b6020820152638a6f9cd760e01b60248201526370005d7f60e01b6028820152635cec286f60e01b602c820152632f8c41c760e01b60308201526305e9da0360e51b60348201526352eca32160e01b6038820152631f09294f60e11b603c820152633905d22560e11b91810191909152634b8bccd360e01b604482015263105a88e360e01b604880830191909152635c7c159360e11b604c830152630488bd7b60e41b60508301526372c895bb60e11b6054830152632633b70f60e01b605883015263b955367960e01b605c83015263c37e9f1560e01b6060830152630e12e90360e31b606483015281526115a690611592606882611c3b565b604051918291602083526020830190611aea565b0390f35b34610508575f366003190112610508575f5f5160206126f55f395f51905f52545f5b8181106115de57602083604051908152f35b6115e781611bce565b90549060031b1c5f525f5160206127555f395f51905f5260205260405f206001810154908161161b575b50506001016115cc565b80546040516303d1689d60e11b81526004810193909352929492602090839060249082906001600160a01b03165afa9182156110f5575f9261169a575b506002015461166691611cbf565b905f82820192831291129080158216911516176116865791600184611611565b634e487b7160e01b5f52601160045260245ffd5b91506020823d82116116c6575b816116b460209383611c3b565b81010312610508579051906002611658565b3d91506116a7565b34610508575f366003190112610508575f5160206126f55f395f51905f52546116f681611c5d565b906117046040519283611c3b565b808252601f1961171382611c5d565b015f5b81811061188b5750505f5b81811061177857826040518091602082016020835281518091526020604084019201905f5b818110611754575050500390f35b91935091602060e08261176a6001948851611a99565b019401910191849392611746565b61178181611bce565b90549060031b1c90815f525f5160206127555f395f51905f5260205260405f209160018060a01b038354166117b581611b52565b6001850154948515611881576040516303d1689d60e11b81526004810187905295602087602481875afa80156110f5575f9061184f575b60019750925b878060a01b0390541660036002840154930154946040519661181388611c0b565b8752602087015260408601526060850152608084015260a083015260c082015261183d8286611cab565b526118488185611cab565b5001611721565b506020873d8211611879575b8161186860209383611c3b565b8101031261050857600196516117ec565b3d915061185b565b6001955f926117f2565b602090611896611c75565b82828701015201611716565b5034610508576020366003190112610508576118bc611a83565b906001600160e01b0319166118d18133611f1f565b1561118e575060ff5f5160206127355f395f51905f525416156111805760ff60026118fb83611b52565b01541615611a4057600261190e82611b52565b01805460ff191690555f5160206127155f395f51905f52546001600160a01b03909116905f5b818110611963575b827f6fd85269676191488efa05d4b8cef674e502d3db3864638c729a0394048423cf5f80a2005b8261196d82611b8a565b905460039190911b1c6001600160a01b03161461198c57600101611934565b5f198201918211611686576119be6119a66119e293611b8a565b905460039190911b1c6001600160a01b031691611b8a565b81546001600160a01b0393841660039290921b91821b9390911b1916919091179055565b5f5160206127155f395f51905f52548015611a2c575f1901611a0381611b8a565b81549060018060a01b039060031b1b191690555f5160206127155f395f51905f5255818061193c565b634e487b7160e01b5f52603160045260245ffd5b630bf9d5d160e31b5f5260045ffd5b3461050857602036600319011261050857602060ff6002611a76611a71611a83565b611b52565b0154166040519015158152f35b600435906001600160a01b038216820361050857565b60c080918051845260018060a01b03602082015116602085015260018060a01b036040820151166040850152606081015160608501526080810151608085015260a081015160a08501520151910152565b805180835260209291819084018484015e5f828201840152601f01601f1916010190565b6040906003190112610508576004359060243590565b9181601f840112156105085782359167ffffffffffffffff8311610508576020838186019501011161050857565b6001600160a01b03165f9081527faa3bad15900421fa65824e5fb397f9aae65ca7157bfa84a01d282ac46cc61f8e6020526040902090565b5f5160206127155f395f51905f5254811015611bba575f5160206127155f395f51905f525f5260205f2001905f90565b634e487b7160e01b5f52603260045260245ffd5b5f5160206126f55f395f51905f5254811015611bba575f5160206126f55f395f51905f525f5260205f2001905f90565b9190820391821161168657565b60e0810190811067ffffffffffffffff821117611c2757604052565b634e487b7160e01b5f52604160045260245ffd5b90601f8019910116810190811067ffffffffffffffff821117611c2757604052565b67ffffffffffffffff8111611c275760051b60200190565b60405190611c8282611c0b565b5f60c0838281528260208201528260408201528260608201528260808201528260a08201520152565b8051821015611bba5760209160051b010190565b81810392915f13801582851316918412161761168657565b8181029291811591840414171561168657565b8115611cf4570490565b634e487b7160e01b5f52601260045260245ffd5b9190820180921161168657565b92919267ffffffffffffffff8211611c275760405191611d3f601f8201601f191660200184611c3b565b829481845281830111610508578281602093845f960137010152565b90600182811c92168015611d89575b6020831014611d7557565b634e487b7160e01b5f52602260045260245ffd5b91607f1691611d6a565b90815f525f5160206127555f395f51905f5260205260405f209160018060a01b0383541690811561146e5760018401548015611f17576040516303d1689d60e11b81526004810182905290602082602481875afa9182156110f5575f92611ee2575b506020906024604051809681936303d1689d60e11b835260048301525afa9283156110f5575f93611eae575b508294426003820155303b156105085760405191636dc0fc6b60e01b83528360048401528460248401525f8360448183305af19182156110f5577f561ee9f957292f10ac2d0557e8b0a667f98d66b4db67f7c523b40235ef73752693604093611e9e575b5060018060a01b039054169482519182526020820152a3565b5f611ea891611c3b565b5f611e85565b9092506020813d602011611eda575b81611eca60209383611c3b565b810103126105085751915f611e21565b3d9150611ebd565b9091506020813d602011611f0f575b81611efe60209383611c3b565b810103126105085751906020611df5565b3d9150611ef1565b505f93505050565b81611f2991612467565b611f6a577f511915e52b7f9e690b9fdc662acaf5600fd3722c87eb951d3abd26e93a784dca5c9060ff8216611f5e5750505f90565b611f6791612647565b90565b50600190565b906001600160a01b038216908115611162576040516338d52e0f60e01b8152602081600481865afa5f91816121f8575b50611fb45763535b530f60e01b5f5260045ffd5b6001600160a01b03169283156111625760ff6002611fd183611b52565b015416156121b8575b6040516060810181811067ffffffffffffffff821117611c275760405284815260208101838152612012604083019360018552611b52565b915182546001600160a01b0319166001600160a01b0391909116178255518051600183019167ffffffffffffffff8211611c27576120508354611d5b565b601f8111612173575b50602090601f83116001146120e65792826002937f6df9cb8641fe90049e3a6431a1ee0bbc6709ede5bb9f6d47d5214bc9a0f58e399896936120d698965f926120db575b50508160011b915f199060031b1c19161790555b019051151560ff80198354169116179055604051918291602083526020830190611aea565b0390a3565b015190505f8061209d565b90601f19831691845f52815f20925f5b81811061215b5750937f6df9cb8641fe90049e3a6431a1ee0bbc6709ede5bb9f6d47d5214bc9a0f58e399896936120d69896936001938360029810612143575b505050811b0190556120b1565b01515f1960f88460031b161c191690555f8080612136565b929360206001819287860151815501950193016120f6565b835f5260205f20601f840160051c810191602085106121ae575b601f0160051c01905b8181106121a35750612059565b5f8155600101612196565b909150819061218d565b5f5160206127155f395f51905f5254600160401b811015611c2757816119be8260016121f394015f5160206127155f395f51905f5255611b8a565b611fda565b9091506020813d602011612234575b8161221460209383611c3b565b8101031261050857516001600160a01b038116810361050857905f611fa0565b3d9150612207565b6040516370a0823160e01b815230600482015292939290916001600160a01b031690602081602481855afa80156110f55785915f91612432575b501061242357604051636eb1769f60e11b81523060048201526001600160a01b039092166024830181905291602081604481855afa9081156110f5575f916123eb575b5084602093926122cc5f97604494611d08565b8588604051928284019063095ea7b360e01b8252886024860152878501528684526122f8606485611c3b565b83519082865af188513d826123cc575b50501561238b575b50506040519586938492636e553f6560e01b845260048401523060248401525af19182156110f5575f92612357575b50811561234857565b63240066eb60e21b5f5260045ffd5b9091506020813d602011612383575b8161237360209383611c3b565b810103126105085751905f61233f565b3d9150612366565b6123c5916123c060405163095ea7b360e01b898201528760248201528a878201528681526123ba606482611c3b565b8261269c565b61269c565b5f80612310565b9091501589146123e35750813b15155b5f80612308565b6001146123dc565b90506020929192813d60201161241b575b8161240960209383611c3b565b810103126105085751909190846122b9565b3d91506123fc565b6301d8c68960e51b5f5260045ffd5b9150506020813d60201161245f575b8161244e60209383611c3b565b81010312610508578490515f612276565b3d9150612441565b7fce1c17acaaa67de66e928cd49c8f658667a825223bee6fda99a14908362bcdac546001600160a01b03168061259c575b5060018060a01b0381165f527fce1c17acaaa67de66e928cd49c8f658667a825223bee6fda99a14908362bcdaa60205260405f20549163ffffffff60e01b165f527fce1c17acaaa67de66e928cd49c8f658667a825223bee6fda99a14908362bcdab60205260405f2054908115612558576001600160a01b03165f9081527fce1c17acaaa67de66e928cd49c8f658667a825223bee6fda99a14908362bcdaa6020526040902054600116151591821561255057505090565b161515919050565b6001600160a01b03165f9081527fce1c17acaaa67de66e928cd49c8f658667a825223bee6fda99a14908362bcdaa602052604090205460011615159150611f679050565b6040805163b700961360e01b81526001600160a01b03841660048201523060248201526001600160e01b03198516604482015291829060649082905afa5f91816125f8575b5015612498576125f1575f612498565b5050600190565b9091506040813d60401161263f575b8161261460409383611c3b565b81010312610508578051908115158203610508576020015163ffffffff81160361050857905f6125e1565b3d9150612607565b60ff169081156125f15763ffffffff60e01b165f527fce1c17acaaa67de66e928cd49c8f658667a825223bee6fda99a14908362bcdab60205260405f2054908115612696576001901b16151590565b50505f90565b905f602091828151910182855af1156110f5575f513d6126eb57506001600160a01b0381163b155b6126cb5750565b635274afe760e01b5f9081526001600160a01b0391909116600452602490fd5b600114156126c456feaa3bad15900421fa65824e5fb397f9aae65ca7157bfa84a01d282ac46cc61f90aa3bad15900421fa65824e5fb397f9aae65ca7157bfa84a01d282ac46cc61f8daa3bad15900421fa65824e5fb397f9aae65ca7157bfa84a01d282ac46cc61f8caa3bad15900421fa65824e5fb397f9aae65ca7157bfa84a01d282ac46cc61f8fa2646970667358221220ac86c337dcc92a69f887fbb1400cf27e18141dbd63fd8a1afddb89658f11ef1d64736f6c634300081e0033","linkReferences":{}},"methodIdentifiers":{"VaultAdapter_init()":"da16ac2d","addToVaultPosition(uint256,uint256)":"8a6f9cd7","depositToVault(address,uint256,string)":"70005d7f","exitVaultPosition(uint256)":"5cec286f","getAllVaultPositions()":"2f8c41c7","getRegisteredVaults()":"bd3b4060","getTotalVaultValue()":"52eca321","getUnrealizedGains()":"3e12529e","getVaultPosition(uint256)":"720ba44a","isVaultAdapterInitialized()":"4b8bccd3","isVaultRegistered(address)":"105a88e3","packedSelectors()":"3e62267c","previewDeposit(address,uint256)":"b8f82b26","previewWithdraw(uint256,uint256)":"488bd7b0","registerVault(address,string)":"e5912b76","unregisterVault(address)":"2633b70f","updateAllVaultValuations()":"b9553679","updateVaultValuation(uint256)":"c37e9f15","withdrawFromVault(uint256,uint256)":"70974818"},"id":355}