{"abi":[{"type":"function","name":"VehicleConfig_init","inputs":[{"name":"fundingMode","type":"uint8","internalType":"enum IVehicleConfig.FundingMode"},{"name":"openEnded","type":"bool","internalType":"bool"}],"outputs":[],"stateMutability":"nonpayable"},{"type":"function","name":"getFundingMode","inputs":[],"outputs":[{"name":"","type":"uint8","internalType":"enum IVehicleConfig.FundingMode"}],"stateMutability":"view"},{"type":"function","name":"isCommitmentAllowed","inputs":[],"outputs":[{"name":"","type":"bool","internalType":"bool"}],"stateMutability":"view"},{"type":"function","name":"isDirectInvestmentAllowed","inputs":[],"outputs":[{"name":"","type":"bool","internalType":"bool"}],"stateMutability":"view"},{"type":"function","name":"isOpenEnded","inputs":[],"outputs":[{"name":"","type":"bool","internalType":"bool"}],"stateMutability":"view"},{"type":"function","name":"isVehicleConfigInitialized","inputs":[],"outputs":[{"name":"","type":"bool","internalType":"bool"}],"stateMutability":"view"},{"type":"function","name":"packedSelectors","inputs":[],"outputs":[{"name":"","type":"bytes","internalType":"bytes"}],"stateMutability":"pure"},{"type":"function","name":"requireCommitmentAllowed","inputs":[],"outputs":[],"stateMutability":"view"},{"type":"function","name":"requireDirectInvestmentAllowed","inputs":[],"outputs":[],"stateMutability":"view"},{"type":"function","name":"setFundingMode","inputs":[{"name":"newMode","type":"uint8","internalType":"enum IVehicleConfig.FundingMode"}],"outputs":[],"stateMutability":"nonpayable"},{"type":"function","name":"setOpenEnded","inputs":[{"name":"openEnded","type":"bool","internalType":"bool"}],"outputs":[],"stateMutability":"nonpayable"},{"type":"event","name":"FundingModeSet","inputs":[{"name":"oldMode","type":"uint8","indexed":true,"internalType":"enum IVehicleConfig.FundingMode"},{"name":"newMode","type":"uint8","indexed":true,"internalType":"enum IVehicleConfig.FundingMode"}],"anonymous":false},{"type":"event","name":"OpenEndedSet","inputs":[{"name":"oldValue","type":"bool","indexed":false,"internalType":"bool"},{"name":"newValue","type":"bool","indexed":false,"internalType":"bool"}],"anonymous":false},{"type":"event","name":"VehicleConfigInitialized","inputs":[{"name":"fundingMode","type":"uint8","indexed":false,"internalType":"enum IVehicleConfig.FundingMode"},{"name":"isOpenEnded","type":"bool","indexed":false,"internalType":"bool"}],"anonymous":false},{"type":"error","name":"AccessControl_CallerIsNotAuthorized","inputs":[{"name":"caller","type":"address","internalType":"address"},{"name":"functionSig","type":"bytes4","internalType":"bytes4"}]},{"type":"error","name":"VehicleConfig_AlreadyInitialized","inputs":[]},{"type":"error","name":"VehicleConfig_CommitmentNotAllowed","inputs":[]},{"type":"error","name":"VehicleConfig_DirectInvestmentNotAllowed","inputs":[]},{"type":"error","name":"VehicleConfig_InvalidFundingMode","inputs":[{"name":"required","type":"uint8","internalType":"enum IVehicleConfig.FundingMode"},{"name":"actual","type":"uint8","internalType":"enum IVehicleConfig.FundingMode"}]},{"type":"error","name":"VehicleConfig_NotInitialized","inputs":[]},{"type":"error","name":"VehicleConfig_PendingRedemptionsExist","inputs":[{"name":"pendingCount","type":"uint256","internalType":"uint256"}]},{"type":"error","name":"VehicleConfig_UnfundedCommitmentsExist","inputs":[{"name":"unfundedAmount","type":"uint256","internalType":"uint256"}]}],"bytecode":{"object":"0x60808060405234601557610b07908161001a8239f35b5f80fdfe60806040526004361015610011575f80fd5b5f358060e01c9081631505000c1461044e57816327380396146103f65781633e62267c1461032157816353d75918146102b1575080637b0f8a701461026c578063804b0a4c1461021957806382fd4e82146101e8578063b990230914610183578063e1fd9394146100fd578063e48eff24146100cf5763f5a701ff14610095575f80fd5b346100cb575f3660031901126100cb57602060ff5f516020610ab25f395f51905f525460081c166100c9604051809261050d565bf35b5f80fd5b346100cb575f3660031901126100cb57602060ff5f516020610ab25f395f51905f5254166040519015158152f35b346100cb575f3660031901126100cb575f516020610ab25f395f51905f525460ff8116156101745760081c60ff166003811015610160578015159081610154575b5061014557005b63e6263e0560e01b5f5260045ffd5b6002915014158161013e565b634e487b7160e01b5f52602160045260245ffd5b6330acf0c960e11b5f5260045ffd5b346100cb575f3660031901126100cb575f516020610ab25f395f51905f525460ff8116156101745760081c60ff16600381101561016057600181141590816101dc575b506101cd57005b6359df219560e01b5f5260045ffd5b600291501415816101c6565b346100cb575f3660031901126100cb57602060ff5f516020610ab25f395f51905f525460101c166040519015158152f35b346100cb575f3660031901126100cb5760ff5f516020610ab25f395f51905f525460081c1660038110156101605780600160209214908115610261575b506040519015158152f35b600291501482610256565b346100cb575f3660031901126100cb5760ff5f516020610ab25f395f51905f525460081c16600381101561016057806020911590811561026157506040519015158152f35b346100cb5760203660031901126100cb576004359060038210156100cb576001600160e01b0319166102e381336106c9565b1561030b575060ff5f516020610ab25f395f51905f52541615610174576103099061061d565b005b631d64bc3360e11b5f523360045260245260445ffd5b346100cb575f3660031901126100cb5760408051630541400360e21b6020820190815263f5a701ff60e01b60248301526307b0f8a760e41b602880840191909152632012c29360e21b602c84015263417ea74160e11b6030840152633923bfc960e21b603484015263387f64e560e21b603884015263b990230960e01b603c840152630a7aeb2360e31b8385015263139c01cb60e11b6044840152825291906103cb6048826105e7565b8151928391602083525180918160208501528484015e5f828201840152601f01601f19168101030190f35b346100cb5760203660031901126100cb576004359081151582036100cb576001600160e01b03191661042881336106c9565b1561030b575060ff5f516020610ab25f395f51905f525416156101745761030990610585565b346100cb5760403660031901126100cb5760043560038110156100cb57602435801515918282036100cb5760ff5f516020610ab25f395f51905f5254166104fe577f629e46eee005a69127b7911914d8a0e318f2f8fffcae5b4bd8ca7b975e90dd8b926104c56040936104c08461051a565b610552565b600160ff195f516020610ab25f395f51905f525416175f516020610ab25f395f51905f52556104f68351809361050d565b6020820152a1005b634d46b82b60e11b5f5260045ffd5b9060038210156101605752565b60038110156101605761ff005f516020610ab25f395f51905f52549160081b169061ff001916175f516020610ab25f395f51905f5255565b62ff00005f516020610ab25f395f51905f525491151560101b169062ff00001916175f516020610ab25f395f51905f5255565b60ff5f516020610ab25f395f51905f525460101c16908015159115158281146105e2577f937776f9b68144cda6455f6da6d99bae13755c6748e9a12ac7bc445ef3545e4f926105d5604093610552565b82519182526020820152a1565b505050565b90601f8019910116810190811067ffffffffffffffff82111761060957604052565b634e487b7160e01b5f52604160045260245ffd5b60ff5f516020610ab25f395f51905f525460081c16600382101561016057600381101580610160578282146105e25760018314610688575b61065e8361051a565b610160577fdd267dad049b3208fcf07e1e462b2e8ad9b36c7c0aed5349c41e943db6df2f315f80a3565b505f811580156106bd575b15610655576106a0610727565b806106ab5750610655565b63601cc5f360e11b5f5260045260245ffd5b50505f60028214610693565b816106d39161087e565b610714577f511915e52b7f9e690b9fdc662acaf5600fd3722c87eb951d3abd26e93a784dca5c9060ff82166107085750505f90565b61071191610a5c565b90565b50600190565b519081151582036100cb57565b604051635107568960e01b8152602081600481305afa5f9181610842575b5061074f57505f90565b1561083e57604051638397e0ab60e01b815260c081600481305afa908115610833575f916107ad575b506040815191015180821161078d5750505f90565b81039081116107995790565b634e487b7160e01b5f52601160045260245ffd5b905060c0813d60c01161082b575b816107c860c093836105e7565b810103126100cb576040519060c082019082821067ffffffffffffffff8311176106095760a0916040528051835260208101516020840152604081015160408401526060810151606084015260808101516080840152015160a08201525f610778565b3d91506107bb565b6040513d5f823e3d90fd5b5f90565b9091506020813d602011610876575b8161085e602093836105e7565b810103126100cb5761086f9061071a565b905f610745565b3d9150610851565b7fce1c17acaaa67de66e928cd49c8f658667a825223bee6fda99a14908362bcdac546001600160a01b0316806109b3575b5060018060a01b0381165f527fce1c17acaaa67de66e928cd49c8f658667a825223bee6fda99a14908362bcdaa60205260405f20549163ffffffff60e01b165f527fce1c17acaaa67de66e928cd49c8f658667a825223bee6fda99a14908362bcdab60205260405f205490811561096f576001600160a01b03165f9081527fce1c17acaaa67de66e928cd49c8f658667a825223bee6fda99a14908362bcdaa6020526040902054600116151591821561096757505090565b161515919050565b6001600160a01b03165f9081527fce1c17acaaa67de66e928cd49c8f658667a825223bee6fda99a14908362bcdaa6020526040902054600116151591506107119050565b6040805163b700961360e01b81526001600160a01b03841660048201523060248201526001600160e01b03198516604482015291829060649082905afa5f9181610a0f575b50156108af57610a08575f6108af565b5050600190565b9091506040813d604011610a54575b81610a2b604093836105e7565b810103126100cb576020610a3e8261071a565b91015163ffffffff8116036100cb57905f6109f8565b3d9150610a1e565b60ff16908115610a085763ffffffff60e01b165f527fce1c17acaaa67de66e928cd49c8f658667a825223bee6fda99a14908362bcdab60205260405f2054908115610aab576001901b16151590565b50505f9056fe4d56cfcaa703b5faec2f215e9307560eb8a9211c5e57e40f8f3fdac56257c9eca2646970667358221220458977c94ac63ae0255c7632c302dac81fcde42873419a3a8baa146cbf61eb0664736f6c634300081e0033","linkReferences":{}},"methodIdentifiers":{"VehicleConfig_init(uint8,bool)":"1505000c","getFundingMode()":"f5a701ff","isCommitmentAllowed()":"7b0f8a70","isDirectInvestmentAllowed()":"804b0a4c","isOpenEnded()":"82fd4e82","isVehicleConfigInitialized()":"e48eff24","packedSelectors()":"3e62267c","requireCommitmentAllowed()":"e1fd9394","requireDirectInvestmentAllowed()":"b9902309","setFundingMode(uint8)":"53d75918","setOpenEnded(bool)":"27380396"},"id":366}