{"abi":[{"type":"function","name":"createVestingSchedule","inputs":[{"name":"lotId","type":"bytes32","internalType":"bytes32"},{"name":"tokenHolder","type":"address","internalType":"address"},{"name":"totalBasisPoints","type":"uint256","internalType":"uint256"},{"name":"startTime","type":"uint256","internalType":"uint256"},{"name":"duration","type":"uint256","internalType":"uint256"},{"name":"cliffDuration","type":"uint256","internalType":"uint256"},{"name":"revocable","type":"bool","internalType":"bool"}],"outputs":[],"stateMutability":"nonpayable"},{"type":"function","name":"getHolderVestingLots","inputs":[{"name":"tokenHolder","type":"address","internalType":"address"}],"outputs":[{"name":"","type":"bytes32[]","internalType":"bytes32[]"}],"stateMutability":"view"},{"type":"function","name":"getReleasableAmount","inputs":[{"name":"lotId","type":"bytes32","internalType":"bytes32"}],"outputs":[{"name":"","type":"uint256","internalType":"uint256"}],"stateMutability":"view"},{"type":"function","name":"getRemainingVestingTime","inputs":[{"name":"lotId","type":"bytes32","internalType":"bytes32"}],"outputs":[{"name":"","type":"uint256","internalType":"uint256"}],"stateMutability":"view"},{"type":"function","name":"getVestedAmount","inputs":[{"name":"lotId","type":"bytes32","internalType":"bytes32"}],"outputs":[{"name":"","type":"uint256","internalType":"uint256"}],"stateMutability":"view"},{"type":"function","name":"getVestingSchedule","inputs":[{"name":"lotId","type":"bytes32","internalType":"bytes32"}],"outputs":[{"name":"","type":"tuple","internalType":"struct VestingComplianceModule.VestingSchedule","components":[{"name":"tokenHolder","type":"address","internalType":"address"},{"name":"revocable","type":"bool","internalType":"bool"},{"name":"revoked","type":"bool","internalType":"bool"},{"name":"totalBasisPoints","type":"uint256","internalType":"uint256"},{"name":"releasedBasisPoints","type":"uint256","internalType":"uint256"},{"name":"startTime","type":"uint256","internalType":"uint256"},{"name":"duration","type":"uint256","internalType":"uint256"},{"name":"cliffDuration","type":"uint256","internalType":"uint256"}]}],"stateMutability":"view"},{"type":"function","name":"holderLots","inputs":[{"name":"","type":"address","internalType":"address"},{"name":"","type":"uint256","internalType":"uint256"}],"outputs":[{"name":"","type":"bytes32","internalType":"bytes32"}],"stateMutability":"view"},{"type":"function","name":"lotToToken","inputs":[{"name":"","type":"bytes32","internalType":"bytes32"}],"outputs":[{"name":"","type":"address","internalType":"address"}],"stateMutability":"view"},{"type":"function","name":"moduleName","inputs":[],"outputs":[{"name":"","type":"string","internalType":"string"}],"stateMutability":"pure"},{"type":"function","name":"moduleVersion","inputs":[],"outputs":[{"name":"","type":"string","internalType":"string"}],"stateMutability":"pure"},{"type":"function","name":"processTransfer","inputs":[{"name":"from","type":"address","internalType":"address"},{"name":"to","type":"address","internalType":"address"},{"name":"lotId","type":"bytes32","internalType":"bytes32"},{"name":"quantity","type":"uint256","internalType":"uint256"}],"outputs":[],"stateMutability":"pure"},{"type":"function","name":"releaseVestedTokens","inputs":[{"name":"lotId","type":"bytes32","internalType":"bytes32"}],"outputs":[{"name":"amount","type":"uint256","internalType":"uint256"}],"stateMutability":"nonpayable"},{"type":"function","name":"revokeVestingSchedule","inputs":[{"name":"lotId","type":"bytes32","internalType":"bytes32"}],"outputs":[],"stateMutability":"nonpayable"},{"type":"function","name":"schedules","inputs":[{"name":"","type":"bytes32","internalType":"bytes32"}],"outputs":[{"name":"tokenHolder","type":"address","internalType":"address"},{"name":"revocable","type":"bool","internalType":"bool"},{"name":"revoked","type":"bool","internalType":"bool"},{"name":"totalBasisPoints","type":"uint256","internalType":"uint256"},{"name":"releasedBasisPoints","type":"uint256","internalType":"uint256"},{"name":"startTime","type":"uint256","internalType":"uint256"},{"name":"duration","type":"uint256","internalType":"uint256"},{"name":"cliffDuration","type":"uint256","internalType":"uint256"}],"stateMutability":"view"},{"type":"function","name":"validateTransfer","inputs":[{"name":"from","type":"address","internalType":"address"},{"name":"to","type":"address","internalType":"address"},{"name":"lotId","type":"bytes32","internalType":"bytes32"},{"name":"quantityRaw","type":"uint256","internalType":"uint256"}],"outputs":[{"name":"","type":"bool","internalType":"bool"}],"stateMutability":"view"},{"type":"event","name":"TokensReleased","inputs":[{"name":"tokenHolder","type":"address","indexed":true,"internalType":"address"},{"name":"lotId","type":"bytes32","indexed":true,"internalType":"bytes32"},{"name":"releasedBasisPoints","type":"uint256","indexed":false,"internalType":"uint256"}],"anonymous":false},{"type":"event","name":"VestingScheduleCreated","inputs":[{"name":"tokenHolder","type":"address","indexed":true,"internalType":"address"},{"name":"lotId","type":"bytes32","indexed":true,"internalType":"bytes32"},{"name":"totalBasisPoints","type":"uint256","indexed":false,"internalType":"uint256"},{"name":"startTime","type":"uint256","indexed":false,"internalType":"uint256"},{"name":"duration","type":"uint256","indexed":false,"internalType":"uint256"},{"name":"cliffDuration","type":"uint256","indexed":false,"internalType":"uint256"},{"name":"revocable","type":"bool","indexed":false,"internalType":"bool"}],"anonymous":false},{"type":"event","name":"VestingScheduleRevoked","inputs":[{"name":"tokenHolder","type":"address","indexed":true,"internalType":"address"},{"name":"lotId","type":"bytes32","indexed":true,"internalType":"bytes32"}],"anonymous":false},{"type":"error","name":"Vesting_AlreadyRevoked","inputs":[]},{"type":"error","name":"Vesting_InvalidAmount","inputs":[]},{"type":"error","name":"Vesting_InvalidBasisPoints","inputs":[]},{"type":"error","name":"Vesting_InvalidCliffDuration","inputs":[]},{"type":"error","name":"Vesting_InvalidDuration","inputs":[]},{"type":"error","name":"Vesting_InvalidLotId","inputs":[]},{"type":"error","name":"Vesting_InvalidTokenHolder","inputs":[]},{"type":"error","name":"Vesting_NoVestingSchedule","inputs":[]},{"type":"error","name":"Vesting_NotRevocable","inputs":[]},{"type":"error","name":"Vesting_ScheduleAlreadyExists","inputs":[]},{"type":"error","name":"Vesting_TokensNotVested","inputs":[]},{"type":"error","name":"Vesting_UnauthorizedCaller","inputs":[]}],"bytecode":{"object":"0x60808060405234601557610cda908161001a8239f35b5f80fdfe60806040526004361015610011575f80fd5b5f3560e01c80632742673b146107b15780632d8276f61461079357806332dc6843146106db5780633c892ab91461048a5780638f5011641461046c57806393f0899a1461042b578063962b1559146104055780639ef346b4146102fd578063a6c6fa0c146102cb578063baa3b4d714610288578063c1203850146101d4578063d1e16bfa14610150578063e00e83c314610140578063e1c49991146100e85763e72997f9146100be575f80fd5b346100e45760203660031901126100e45760206100dc600435610ab9565b604051908152f35b5f80fd5b346100e45760403660031901126100e4576101016107cf565b6001600160a01b03165f908152600160205260409020805460243591908210156100e4576020916101319161084d565b90549060031b1c604051908152f35b346100e45761014e3661080f565b005b346100e45760203660031901126100e4576004355f525f60205261010060405f208054906001810154906002810154600382015490600560048401549301549360ff6040519660018060a01b0381168852818160a01c161515602089015260a81c16151560408701526060860152608085015260a084015260c083015260e0820152f35b346100e45760203660031901126100e4576001600160a01b036101f56107cf565b165f52600160205260405f20604051806020835491828152019081935f5260205f20905f5b818110610272575050508161023091038261098c565b604051918291602083019060208452518091526040830191905f5b818110610259575050500390f35b825184528594506020938401939092019160010161024b565b825484526020909301926001928301920161021a565b346100e4575f3660031901126100e4576102c76040516102a960408261098c565b60058152640312e302e360dc1b6020820152604051918291826107e5565b0390f35b346100e45760203660031901126100e4576004355f526002602052602060018060a01b0360405f205416604051908152f35b346100e45760203660031901126100e4575f60e060405161031d8161096f565b8281528260208201528260408201528260608201528260808201528260a08201528260c082015201526004355f525f60205261010060405f206040516103628161096f565b81549160018060a01b03831692838352602083019060ff8160a01c161515825260ff604085019160a81c16151581526001830154606085019081526002840154916080860192835260038501549360a0870194855260e0600560048801549760c08a0198895201549701968752604051978852511515602088015251151560408701525160608601525160808501525160a08401525160c08301525160e0820152f35b346100e45760206104216104183661080f565b92909150610a41565b6040519015158152f35b346100e4575f3660031901126100e4576102c760405161044c60408261098c565b600781526656657374696e6760c81b6020820152604051918291826107e5565b346100e45760203660031901126100e45760206100dc6004356109ae565b346100e45760e03660031901126100e4576004356024356001600160a01b038116908190036100e4576044356064356084359160a43560c435908115158092036100e4576104d787610c19565b86156106cc5785156106bd57821580156106b2575b6106a35784156106945784811161068557865f525f602052600160405f2001546106765760405161051c8161096f565b86815260058860208301858152604084015f81526060850188815260808601905f825260a08701928b845260c08801948d865260e08901968a88525f525f60205260405f209860018060a01b039060018060a01b03905116166bffffffffffffffffffffffff60a01b8a541617895551151588549060ff60a01b9060a01b169060ff60a01b191617885551151587549060ff60a81b9060a81b169060ff60a81b191617875551600187015551600286015551600385015551600484015551910155855f52600160205260405f20948554946801000000000000000086101561066257610631867fb1b0fd7ea8f19858c5fbdb22cd2c20e84d7a1f68f2a22d8367060be27ccb8d9b98600160a09901815561084d565b81549060031b908b821b915f19901b19161790556040519485526020850152604084015260608301526080820152a3005b634e487b7160e01b5f52604160045260245ffd5b632ff3c54f60e01b5f5260045ffd5b637d84ebd160e01b5f5260045ffd5b63980ea1ed60e01b5f5260045ffd5b631fa1d18360e11b5f5260045ffd5b5061271083116104ec565b630a77a1cf60e21b5f5260045ffd5b633125dfdd60e21b5f5260045ffd5b346100e45760203660031901126100e4576004356106f881610c19565b805f525f60205260405f206001810154156107845780549060ff8260a81c166107755760ff8260a01c16156107665760ff60a81b198216600160a81b1790556001600160a01b03167f59bfb804f59a049862dff9f741f2e3b03b7499e8d1a0b8111ac96bb827bdfeb75f80a3005b63f8222ef760e01b5f5260045ffd5b634393ba6960e11b5f5260045ffd5b6394c5422b60e01b5f5260045ffd5b346100e45760203660031901126100e45760206100dc60043561090f565b346100e45760203660031901126100e45760206100dc6004356108a4565b600435906001600160a01b03821682036100e457565b602060409281835280519182918282860152018484015e5f828201840152601f01601f1916010190565b60809060031901126100e4576004356001600160a01b03811681036100e457906024356001600160a01b03811681036100e457906044359060643590565b8054821015610862575f5260205f2001905f90565b634e487b7160e01b5f52603260045260245ffd5b9190820180921161088357565b634e487b7160e01b5f52601160045260245ffd5b9190820391821161088357565b5f525f60205260405f2060018101541580156108ee575b6108e95780600460036108d393015491015490610876565b804210156108e9576108e6904290610897565b90565b505f90565b5060ff815460a81c166108bb565b8181029291811591840414171561088357565b805f525f60205260405f2060018101549081158015610961575b61095a576109516109569261094b6109456305f5e10096610b03565b93610ba9565b926108fc565b6108fc565b0490565b5050505f90565b5060ff815460a81c16610929565b610100810190811067ffffffffffffffff82111761066257604052565b90601f8019910116810190811067ffffffffffffffff82111761066257604052565b805f525f60205260405f209060018201541561078457815460ff8160a81c166107755760026109dc84610ba9565b9301906109eb82548095610897565b938415610a38577fcc76a2e4f63b6e2068d2020d6fafe17088200f40d0753dbe232a3a720b611fb091610a2086602093610876565b938490556040519384526001600160a01b031692a390565b50505050505f90565b815f525f60205260405f20600181015415610ab0575460ff8160a81c16610aa8576001600160a01b03908116911603610aa257610a86610a808261090f565b91610c6e565b80821115610a9c57610a9791610897565b101590565b50501590565b50505f90565b505050505f90565b50505050600190565b805f525f60205260405f20600181015415908115610af4575b506108e957610ae3610a808261090f565b80821115610aa2576108e691610897565b60ff91505460a81c165f610ad2565b5f818152600260205260409020546001600160a01b0316908115610aa2575f91829160405160208101916319393e3560e01b8352602482015260248152610b4b60448261098c565b51915afa3d15610ba1573d9067ffffffffffffffff82116106625760405191610b7e601f8201601f19166020018461098c565b82523d5f602084013e5b156108e9576020818051810103126100e4576020015190565b606090610b88565b600381015490610bbd600582015483610876565b4210610aa2576004015490610bd28282610876565b421015610c1157610be39042610897565b806127100290612710820403610883578115610bfd570490565b634e487b7160e01b5f52601260045260245ffd5b505061271090565b5f818152600260205260409020546001600160a01b031680610c5557505f90815260026020526040902080546001600160a01b03191633179055565b90503303610c5f57565b63c442f34d60e01b5f5260045ffd5b6109566305f5e10091805f525f6020526002610c9b610c9060405f2093610b03565b6001840154906108fc565b910154906108fc56fea26469706673582212209234412999a0b44115b5b08e4b8b35280953f6ae3c94386a291118e4f4f8dbcb64736f6c634300081e0033","linkReferences":{}},"methodIdentifiers":{"createVestingSchedule(bytes32,address,uint256,uint256,uint256,uint256,bool)":"3c892ab9","getHolderVestingLots(address)":"c1203850","getReleasableAmount(bytes32)":"e72997f9","getRemainingVestingTime(bytes32)":"2742673b","getVestedAmount(bytes32)":"2d8276f6","getVestingSchedule(bytes32)":"9ef346b4","holderLots(address,uint256)":"e1c49991","lotToToken(bytes32)":"a6c6fa0c","moduleName()":"93f0899a","moduleVersion()":"baa3b4d7","processTransfer(address,address,bytes32,uint256)":"e00e83c3","releaseVestedTokens(bytes32)":"8f501164","revokeVestingSchedule(bytes32)":"32dc6843","schedules(bytes32)":"d1e16bfa","validateTransfer(address,address,bytes32,uint256)":"962b1559"},"id":242}