{"abi":[{"type":"function","name":"config","inputs":[{"name":"","type":"address","internalType":"address"}],"outputs":[{"name":"limitBps","type":"uint256","internalType":"uint256"},{"name":"windowSeconds","type":"uint256","internalType":"uint256"},{"name":"enabled","type":"bool","internalType":"bool"}],"stateMutability":"view"},{"type":"function","name":"getCurrentWindowVolume","inputs":[{"name":"token","type":"address","internalType":"address"},{"name":"holder","type":"address","internalType":"address"}],"outputs":[{"name":"","type":"uint256","internalType":"uint256"}],"stateMutability":"view"},{"type":"function","name":"getRemainingVolume","inputs":[{"name":"token","type":"address","internalType":"address"},{"name":"holder","type":"address","internalType":"address"}],"outputs":[{"name":"","type":"uint256","internalType":"uint256"}],"stateMutability":"view"},{"type":"function","name":"getTimeRemainingInWindow","inputs":[{"name":"token","type":"address","internalType":"address"},{"name":"holder","type":"address","internalType":"address"}],"outputs":[{"name":"","type":"uint256","internalType":"uint256"}],"stateMutability":"view"},{"type":"function","name":"moduleName","inputs":[],"outputs":[{"name":"","type":"string","internalType":"string"}],"stateMutability":"pure"},{"type":"function","name":"moduleVersion","inputs":[],"outputs":[{"name":"","type":"string","internalType":"string"}],"stateMutability":"pure"},{"type":"function","name":"processTransfer","inputs":[{"name":"from","type":"address","internalType":"address"},{"name":"to","type":"address","internalType":"address"},{"name":"","type":"bytes32","internalType":"bytes32"},{"name":"quantity","type":"uint256","internalType":"uint256"}],"outputs":[],"stateMutability":"nonpayable"},{"type":"function","name":"setVolumeConfig","inputs":[{"name":"token","type":"address","internalType":"address"},{"name":"limitBps","type":"uint256","internalType":"uint256"},{"name":"windowSeconds","type":"uint256","internalType":"uint256"},{"name":"enabled","type":"bool","internalType":"bool"}],"outputs":[],"stateMutability":"nonpayable"},{"type":"function","name":"setVolumeEnabled","inputs":[{"name":"token","type":"address","internalType":"address"},{"name":"enabled","type":"bool","internalType":"bool"}],"outputs":[],"stateMutability":"nonpayable"},{"type":"function","name":"setVolumeLimit","inputs":[{"name":"token","type":"address","internalType":"address"},{"name":"limitBps","type":"uint256","internalType":"uint256"},{"name":"windowSeconds","type":"uint256","internalType":"uint256"}],"outputs":[],"stateMutability":"nonpayable"},{"type":"function","name":"tokenOwner","inputs":[{"name":"","type":"address","internalType":"address"}],"outputs":[{"name":"","type":"address","internalType":"address"}],"stateMutability":"view"},{"type":"function","name":"validateTransfer","inputs":[{"name":"from","type":"address","internalType":"address"},{"name":"to","type":"address","internalType":"address"},{"name":"","type":"bytes32","internalType":"bytes32"},{"name":"quantity","type":"uint256","internalType":"uint256"}],"outputs":[{"name":"","type":"bool","internalType":"bool"}],"stateMutability":"view"},{"type":"function","name":"windows","inputs":[{"name":"","type":"address","internalType":"address"},{"name":"","type":"address","internalType":"address"}],"outputs":[{"name":"startTime","type":"uint256","internalType":"uint256"},{"name":"volume","type":"uint256","internalType":"uint256"}],"stateMutability":"view"},{"type":"event","name":"VolumeConfigSet","inputs":[{"name":"token","type":"address","indexed":true,"internalType":"address"},{"name":"limitBps","type":"uint256","indexed":false,"internalType":"uint256"},{"name":"windowSeconds","type":"uint256","indexed":false,"internalType":"uint256"},{"name":"enabled","type":"bool","indexed":false,"internalType":"bool"}],"anonymous":false},{"type":"event","name":"VolumeRecorded","inputs":[{"name":"token","type":"address","indexed":true,"internalType":"address"},{"name":"holder","type":"address","indexed":true,"internalType":"address"},{"name":"volume","type":"uint256","indexed":false,"internalType":"uint256"},{"name":"windowStart","type":"uint256","indexed":false,"internalType":"uint256"}],"anonymous":false},{"type":"event","name":"WindowReset","inputs":[{"name":"token","type":"address","indexed":true,"internalType":"address"},{"name":"holder","type":"address","indexed":true,"internalType":"address"},{"name":"newWindowStart","type":"uint256","indexed":false,"internalType":"uint256"}],"anonymous":false},{"type":"error","name":"VolumeLimit_ExceedsLimit","inputs":[]},{"type":"error","name":"VolumeLimit_InvalidBps","inputs":[]},{"type":"error","name":"VolumeLimit_UnauthorizedCaller","inputs":[]}],"bytecode":{"object":"0x60808060405234601557610bcf908161001a8239f35b5f80fdfe60806040526004361015610011575f80fd5b5f3560e01c806304dc44011461052e5780630e68ec95146104cf57806320e5d1071461042b57806322565904146103ff5780633ab69b62146103bf57806387d3e564146102dd57806393f0899a14610290578063962b15591461026b578063baa3b4d714610228578063c294deda146101cd578063d439a99a146100fb578063e00e83c3146100e05763ec71e4bf146100a8575f80fd5b346100dc5760403660031901126100dc5760206100d46100c661055a565b6100ce610570565b90610a22565b604051908152f35b5f80fd5b346100dc576100f96100f1366105b0565b929050610900565b005b346100dc5760603660031901126100dc5761011461055a565b60243560443561012383610b3a565b61271082116101bf577f8cf383e07cf53cc783565f32908a48da4c61967affb8700c7e2abcc9ede73e66916060916101aa604051610160816105ee565b8381526002602082019784895260408301906001825260018060a01b031698895f525f60205260405f209351845551600184015551151591019060ff801983541691151516179055565b604051918252602082015260016040820152a2005b625bc07360e11b5f5260045ffd5b346100dc5760403660031901126100dc576101e661055a565b6101ee610570565b9060018060a01b03165f52600160205260405f209060018060a01b03165f526020526040805f206001815491015482519182526020820152f35b346100dc575f3660031901126100dc5761026760405161024960408261063a565b60058152640312e302e360dc1b602082015260405191829182610586565b0390f35b346100dc57602061028661027e366105b0565b9290506107a0565b6040519015158152f35b346100dc575f3660031901126100dc576102676040516102b160408261063a565b6013815272566f6c756d65204c696d6974204d6f64756c6560681b602082015260405191829182610586565b346100dc5760803660031901126100dc576102f661055a565b6064356044356024358215158084036100dc5761031285610b3a565b61271082116101bf577f8cf383e07cf53cc783565f32908a48da4c61967affb8700c7e2abcc9ede73e66936103996103ba92600260405191610353836105ee565b8683526020830199888b526040840191825260018060a01b0316998a5f525f60205260405f209351845551600184015551151591019060ff801983541691151516179055565b60405193849384919260409194936060840195845260208401521515910152565b0390a2005b346100dc5760203660031901126100dc576001600160a01b036103e061055a565b165f526002602052602060018060a01b0360405f205416604051908152f35b346100dc5760403660031901126100dc5760206100d461041d61055a565b610425610570565b9061071c565b346100dc5760403660031901126100dc5761044461055a565b6024359081151582036100dc578061047c7f8cf383e07cf53cc783565f32908a48da4c61967affb8700c7e2abcc9ede73e6692610b3a565b6001600160a01b03165f818152602081815260409182902060028101805460ff191660ff9715159788161790558054600190910154835191825291810191909152908101939093529180606081016103ba565b346100dc5760203660031901126100dc576001600160a01b036104f061055a565b165f525f60205260405f20805461026760ff600260018501549401541660405193849384919260409194936060840195845260208401521515910152565b346100dc5760403660031901126100dc5760206100d461054c61055a565b610554610570565b9061067d565b600435906001600160a01b03821682036100dc57565b602435906001600160a01b03821682036100dc57565b602060409281835280519182918282860152018484015e5f828201840152601f01601f1916010190565b60809060031901126100dc576004356001600160a01b03811681036100dc57906024356001600160a01b03811681036100dc57906044359060643590565b6060810190811067ffffffffffffffff82111761060a57604052565b634e487b7160e01b5f52604160045260245ffd5b6040810190811067ffffffffffffffff82111761060a57604052565b90601f8019910116810190811067ffffffffffffffff82111761060a57604052565b9190820180921161066957565b634e487b7160e01b5f52601160045260245ffd5b60018060a01b031690815f52600160205260405f209060018060a01b03165f526020526106ff60405f206001604051916106b68361061e565b80548352015492602082019384525f525f60205260405f20906040516106db816105ee565b82548152604060ff600260018601549586602086015201541615159101525161065c565b42101561070a575190565b505f90565b9190820391821161066957565b6001600160a01b039081165f8181526001602081815260408084209690951683529490945282902091516107779390926107558461061e565b80548452015460208301525f525f60205260405f20906040516106db816105ee565b8042101561070a5761078a90429061070f565b90565b8181029291811591840414171561066957565b91906001600160a01b038316159081156108ee575b506108e757335f525f60205260405f206040516107d1816105ee565b8154815260ff60026001840154936020840194855201541615801560408301526108de576040516318160ddd60e01b815290602082600481335afa9182156108d3575f9261089f575b508115610895576127109161083091519061078d565b0492335f52600160205260405f209060018060a01b03165f5260205261087860405f20604051926108608461061e565b6020600183549384875201549401938452519061065c565b42101561088f579061088a915161065c565b111590565b50111590565b5050505050600190565b9091506020813d6020116108cb575b816108bb6020938361063a565b810103126100dc5751905f61081a565b3d91506108ae565b6040513d5f823e3d90fd5b50505050600190565b5050600190565b6001600160a01b03161590505f6107b5565b6001600160a01b031691908215908115610a10575b50610a0c57335f525f60205260405f2090604051610932816105ee565b8254815260ff600260018501549460208401958652015416159060408215910152610a0757335f52600160205260405f20835f5260205261097b60405f2092835490519061065c565b42106109f1574282556001820155816040514281527fd7a5216236d397930b34bfc41a75543f8c770a3f0fdd2bee3b1192b84019b5db60203392a35b6001810154905460405191825260208201527f47c90adcb0c0fcbb1d4f75fb0bd2938d7807a3909709148d660a6c43e69ab76260403392a3565b610a006001830191825461065c565b90556109b7565b505050565b5050565b6001600160a01b03161590505f610915565b60018060a01b031690815f525f60205260405f2090604051610a43816105ee565b8254815260ff6002600185015494602084019586520154161580156040830152610b31576040516318160ddd60e01b815290602082600481885afa9182156108d3575f92610afd575b508115610af45761271091610aa291519061078d565b04925f52600160205260405f209060018060a01b03165f52602052610ad160405f20604051926108608461061e565b421015610af0575181811015610aea5761078a9161070f565b50505f90565b5090565b50505050505f90565b9091506020813d602011610b29575b81610b196020938361063a565b810103126100dc5751905f610a8c565b3d9150610b0c565b505050505f1990565b6001600160a01b039081165f8181526002602052604090205490911680610b8057505f52600260205260405f20336bffffffffffffffffffffffff60a01b825416179055565b90503303610b8a57565b630b77bcbb60e41b5f5260045ffdfea2646970667358221220e1b8467b1e588d077ebe285b0a2cd82f438cf87cb8f7fd8cbe3b81520898608064736f6c634300081e0033","linkReferences":{}},"methodIdentifiers":{"config(address)":"0e68ec95","getCurrentWindowVolume(address,address)":"04dc4401","getRemainingVolume(address,address)":"ec71e4bf","getTimeRemainingInWindow(address,address)":"22565904","moduleName()":"93f0899a","moduleVersion()":"baa3b4d7","processTransfer(address,address,bytes32,uint256)":"e00e83c3","setVolumeConfig(address,uint256,uint256,bool)":"87d3e564","setVolumeEnabled(address,bool)":"20e5d107","setVolumeLimit(address,uint256,uint256)":"d439a99a","tokenOwner(address)":"3ab69b62","validateTransfer(address,address,bytes32,uint256)":"962b1559","windows(address,address)":"c294deda"},"id":243}