{"abi":[{"type":"function","name":"addRequiredSigner","inputs":[{"name":"documentId","type":"bytes32","internalType":"bytes32"},{"name":"signer","type":"address","internalType":"address"}],"outputs":[],"stateMutability":"nonpayable"},{"type":"function","name":"createDocument","inputs":[{"name":"documentId","type":"bytes32","internalType":"bytes32"},{"name":"contentHash","type":"bytes32","internalType":"bytes32"},{"name":"storageURI","type":"string","internalType":"string"},{"name":"category","type":"string","internalType":"string"},{"name":"requiredSigners","type":"address[]","internalType":"address[]"},{"name":"title","type":"string","internalType":"string"},{"name":"parentDocumentId","type":"bytes32","internalType":"bytes32"}],"outputs":[],"stateMutability":"nonpayable"},{"type":"function","name":"getAllDocuments","inputs":[],"outputs":[{"name":"","type":"bytes32[]","internalType":"bytes32[]"}],"stateMutability":"view"},{"type":"function","name":"getDocument","inputs":[{"name":"documentId","type":"bytes32","internalType":"bytes32"}],"outputs":[{"name":"contentHash","type":"bytes32","internalType":"bytes32"},{"name":"storageURI","type":"string","internalType":"string"},{"name":"creator","type":"address","internalType":"address"},{"name":"createdAt","type":"uint256","internalType":"uint256"},{"name":"requiredSigners","type":"address[]","internalType":"address[]"},{"name":"title","type":"string","internalType":"string"},{"name":"category","type":"string","internalType":"string"},{"name":"parentDocumentId","type":"bytes32","internalType":"bytes32"}],"stateMutability":"view"},{"type":"function","name":"getDocumentSignatureHash","inputs":[{"name":"documentId","type":"bytes32","internalType":"bytes32"},{"name":"signer","type":"address","internalType":"address"},{"name":"timestamp","type":"uint256","internalType":"uint256"}],"outputs":[{"name":"","type":"bytes32","internalType":"bytes32"}],"stateMutability":"view"},{"type":"function","name":"getDocumentsByCategory","inputs":[{"name":"category","type":"string","internalType":"string"}],"outputs":[{"name":"","type":"bytes32[]","internalType":"bytes32[]"}],"stateMutability":"view"},{"type":"function","name":"hasDocumentCategory","inputs":[{"name":"category","type":"string","internalType":"string"}],"outputs":[{"name":"","type":"bool","internalType":"bool"}],"stateMutability":"view"},{"type":"function","name":"isDocumentSigned","inputs":[{"name":"signer","type":"address","internalType":"address"},{"name":"documentId","type":"bytes32","internalType":"bytes32"}],"outputs":[{"name":"hasSigned","type":"bool","internalType":"bool"},{"name":"signedAt","type":"uint256","internalType":"uint256"}],"stateMutability":"view"},{"type":"function","name":"isDocumentVoided","inputs":[{"name":"documentId","type":"bytes32","internalType":"bytes32"}],"outputs":[{"name":"isVoided","type":"bool","internalType":"bool"},{"name":"voidedAt","type":"uint256","internalType":"uint256"},{"name":"voidedBy","type":"address","internalType":"address"},{"name":"reason","type":"string","internalType":"string"}],"stateMutability":"view"},{"type":"function","name":"packedSelectors","inputs":[],"outputs":[{"name":"","type":"bytes","internalType":"bytes"}],"stateMutability":"pure"},{"type":"function","name":"signDocument","inputs":[{"name":"documentId","type":"bytes32","internalType":"bytes32"},{"name":"signature","type":"bytes","internalType":"bytes"}],"outputs":[],"stateMutability":"nonpayable"},{"type":"function","name":"signDocumentFor","inputs":[{"name":"documentId","type":"bytes32","internalType":"bytes32"},{"name":"signer","type":"address","internalType":"address"}],"outputs":[],"stateMutability":"nonpayable"},{"type":"function","name":"verifyDocumentSignature","inputs":[{"name":"documentId","type":"bytes32","internalType":"bytes32"},{"name":"signer","type":"address","internalType":"address"},{"name":"timestamp","type":"uint256","internalType":"uint256"},{"name":"signature","type":"bytes","internalType":"bytes"}],"outputs":[{"name":"","type":"bool","internalType":"bool"}],"stateMutability":"view"},{"type":"function","name":"voidDocument","inputs":[{"name":"documentId","type":"bytes32","internalType":"bytes32"},{"name":"reason","type":"string","internalType":"string"}],"outputs":[],"stateMutability":"nonpayable"},{"type":"event","name":"DocumentCreated","inputs":[{"name":"documentId","type":"bytes32","indexed":true,"internalType":"bytes32"},{"name":"creator","type":"address","indexed":true,"internalType":"address"},{"name":"category","type":"string","indexed":false,"internalType":"string"},{"name":"requiredSigners","type":"address[]","indexed":false,"internalType":"address[]"},{"name":"title","type":"string","indexed":false,"internalType":"string"}],"anonymous":false},{"type":"event","name":"DocumentSigned","inputs":[{"name":"documentId","type":"bytes32","indexed":true,"internalType":"bytes32"},{"name":"signer","type":"address","indexed":true,"internalType":"address"},{"name":"timestamp","type":"uint256","indexed":false,"internalType":"uint256"}],"anonymous":false},{"type":"event","name":"DocumentSignedWithSignature","inputs":[{"name":"documentId","type":"bytes32","indexed":true,"internalType":"bytes32"},{"name":"signer","type":"address","indexed":true,"internalType":"address"},{"name":"signature","type":"bytes","indexed":false,"internalType":"bytes"},{"name":"timestamp","type":"uint256","indexed":false,"internalType":"uint256"}],"anonymous":false},{"type":"event","name":"DocumentUploaded","inputs":[{"name":"documentId","type":"bytes32","indexed":true,"internalType":"bytes32"},{"name":"contentHash","type":"bytes32","indexed":true,"internalType":"bytes32"},{"name":"creator","type":"address","indexed":true,"internalType":"address"}],"anonymous":false},{"type":"event","name":"DocumentVoided","inputs":[{"name":"documentId","type":"bytes32","indexed":true,"internalType":"bytes32"},{"name":"voidedBy","type":"address","indexed":true,"internalType":"address"},{"name":"timestamp","type":"uint256","indexed":false,"internalType":"uint256"},{"name":"reason","type":"string","indexed":false,"internalType":"string"}],"anonymous":false},{"type":"event","name":"RequiredSignerAdded","inputs":[{"name":"documentId","type":"bytes32","indexed":true,"internalType":"bytes32"},{"name":"signer","type":"address","indexed":true,"internalType":"address"}],"anonymous":false},{"type":"error","name":"AccessControl_CallerIsNotAuthorized","inputs":[{"name":"caller","type":"address","internalType":"address"},{"name":"functionSig","type":"bytes4","internalType":"bytes4"}]},{"type":"error","name":"WalletDocuments_AlreadySigned","inputs":[]},{"type":"error","name":"WalletDocuments_DocumentAlreadyExists","inputs":[]},{"type":"error","name":"WalletDocuments_DocumentFullySigned","inputs":[]},{"type":"error","name":"WalletDocuments_DocumentNotFound","inputs":[]},{"type":"error","name":"WalletDocuments_DocumentVoided","inputs":[]},{"type":"error","name":"WalletDocuments_InvalidDocumentId","inputs":[]},{"type":"error","name":"WalletDocuments_InvalidSignature","inputs":[]},{"type":"error","name":"WalletDocuments_InvalidSigner","inputs":[]},{"type":"error","name":"WalletDocuments_NotAuthorizedSigner","inputs":[]},{"type":"error","name":"WalletDocuments_NotDocumentCreator","inputs":[]}],"bytecode":{"object":"0x60808060405234601557611ab0908161001a8239f35b5f80fdfe60806040526004361015610011575f80fd5b5f3560e01c8063385dbda4146100f45780633e62267c146100ef57806342099927146100ea57806350459e25146100e5578063522f1b83146100e057806375ca9a3c146100db5780639fa5f50b146100d6578063a4c96e75146100d1578063b10d6b41146100cc578063bbdc85a7146100c7578063beeb2a57146100c2578063ce262095146100bd578063cfa52c53146100b85763e56bfd16146100b3575f80fd5b610c97565b610c25565b610ba3565b610b58565b610ab5565b6109ac565b610754565b6106da565b61067e565b610552565b6104f7565b6104a1565b610317565b610127565b602435906001600160a01b038216820361010f57565b5f80fd5b35906001600160a01b038216820361010f57565b3461010f57604036600319011261010f576004356101436100f9565b905f356001600160e01b03191661015a81336114f5565b156102c9575061017d610179600861017184610cf3565b015460ff1690565b1590565b6102ba5761019a600861018f83610cf3565b015460081c60ff1690565b6102ab576101b8816101ab84610d0d565b905f5260205260405f2090565b5461029c5760046101c882610cf3565b0180549081610222575b5050426101e2826101ab85610d0d565b556040514281526001600160a01b03909216917fcb4765881b79e3f3e656357a384db0c5ebdbdad01ab9fbc82ea10f38b7730dbc9080602081015b0390a3005b5f91906001600160a01b03851690835b838110610259575b505050501561024a575f806101d2565b630e980da360e31b5f5260045ffd5b8261027e6102678385610d45565b90546001600160a01b039260039290921b1c821690565b161461028c57600101610232565b505050505060015f80808061023a565b635bc15ad560e11b5f5260045ffd5b631d5e8a0560e11b5f5260045ffd5b632b6a7dad60e21b5f5260045ffd5b631d64bc3360e11b5f523360045260245260445ffd5b805180835260209291819084018484015e5f828201840152601f01601f1916010190565b9060206103149281815201906102df565b90565b3461010f575f36600319011261010f576040516350459e2560e01b602082015263bbdc85a760e01b6024820152639fa5f50b60e01b602882015263b10d6b4160e01b602c8201526103f2906372b5fe8b60e11b603082015263ce26209560e01b6034820152631d72a68f60e21b603882015263beeb2a5760e01b603c82015263cfa52c5360e01b604082015263a4c96e7560e01b6044820152630e176f6960e21b6048820152634209992760e01b604c82015263522f1b8360e01b6050820152603481526103e660548261040a565b60405191829182610303565b0390f35b634e487b7160e01b5f52604160045260245ffd5b90601f801991011681019081106001600160401b0382111761042b57604052565b6103f6565b604051906104406101a08361040a565b565b6001600160401b03811161042b57601f01601f191660200190565b81601f8201121561010f5760208135910161047782610442565b92610485604051948561040a565b8284528282011161010f57815f92602092838601378301015290565b3461010f57608036600319011261010f576004356104bd6100f9565b90606435906044356001600160401b03831161010f576020936104e76104ed94369060040161045d565b92610d6e565b6040519015158152f35b3461010f57604036600319011261010f576004356105136100f9565b5f356001600160e01b0319169161052a83336114f5565b1561053b576105399250610e02565b005b82631d64bc3360e11b5f523360045260245260445ffd5b3461010f57604036600319011261010f576004356024356001600160401b03811161010f5761058590369060040161045d565b905f356001600160e01b03191661059c81336114f5565b156102c957506105ab81610cf3565b600881019081546105bf6101798260ff1690565b6102ba5760081c60ff166102ab576105d683611762565b61064557600b84916105f46106149461010061ff0019825416179055565b426009820155600a810180546001600160a01b0319163317905501610f49565b7f43cf56fcff3b537f42d9f29ff2febdfcfb6498a1f9dfb453e0ce9ab0b8e179216040518061021d33954283611014565b630595cfd960e21b5f5260045ffd5b602060031982011261010f57600435906001600160401b03821161010f576103149160040161045d565b3461010f57602061069661069136610654565b61102b565b541515604051908152f35b60206040818301928281528451809452019201905f5b8181106106c45750505090565b82518452602093840193909201916001016106b7565b3461010f575f36600319011261010f576040515f516020611a5b5f395f51905f525480825260208201905f516020611a5b5f395f51905f525f5260205f20905f5b81811061073e576103f2856107328187038261040a565b604051918291826106a1565b825484526020909301926001928301920161071b565b3461010f57604036600319011261010f576004356024356001600160401b03811161010f5761078790369060040161045d565b9061079181610cf3565b9160088301546107a46101798260ff1690565b6102ba5760081c60ff166102ab576107ca816107c585544290339087611543565b6116b7565b6001600160a01b03811693841580156108f8575b6108e9576107ef846101ab84610d0d565b5461029c5760040180548061087d575b50507ff25ef65115ecb1568cf76e507eb481a4c3585a1d6df6dbed031037ae5f8e03b09161021d91610835856101ab4293610d0d565b5584847fcb4765881b79e3f3e656357a384db0c5ebdbdad01ab9fbc82ea10f38b7730dbc6040518061086c42829190602083019252565b0390a3604051918291429083611069565b855f925f5b83811061089a575b505050501561024a575f806107ff565b826108cc6108c06108ab8486610d45565b905460039190911b1c6001600160a01b031690565b6001600160a01b031690565b146108d957600101610882565b505050505060015f85818061088a565b633c10e4f560e11b5f5260045ffd5b50338514156107de565b90602080835192838152019201905f5b81811061091f5750505090565b82516001600160a01b0316845260209384019390920191600101610912565b98979693926109a7956109999461096960e099956101008e61098b97815281602082015201906102df565b6001600160a01b0390931660408d015260608c01528a820360808c0152610902565b9088820360a08a01526102df565b9086820360c08801526102df565b930152565b3461010f57602036600319011261010f576004355f9081525f516020611a3b5f395f51905f5260205260409020600881015460ff16156102ba57805460028201546103f2906001600160a01b031692600381015493600782015491610a1360018201611080565b95610a206004830161111e565b90610a396006610a3260058601611080565b9401611080565b936040519889988961093e565b9080601f8301121561010f578135916001600160401b03831161042b578260051b9060405193610a79602084018661040a565b845260208085019282010192831161010f57602001905b828210610a9d5750505090565b60208091610aaa84610113565b815201910190610a90565b3461010f5760e036600319011261010f576024356004356044356001600160401b03811161010f57610aeb90369060040161045d565b916064356001600160401b03811161010f57610b0b90369060040161045d565b6084356001600160401b03811161010f57610b2a903690600401610a46565b9060a435946001600160401b03861161010f57610b4e61053996369060040161045d565b9360c435956113c4565b3461010f57604036600319011261010f576004356001600160a01b038116810361010f57610b8860243591610d0d565b905f526020526040805f205481519080151582526020820152f35b3461010f57610bb461069136610654565b60405190805480835260208301915f5260205f20905f5b818110610be2576103f2856107328187038261040a565b8254845260209093019260019283019201610bcb565b9092608092610314959415158352602083015260018060a01b0316604082015281606082015201906102df565b3461010f57602036600319011261010f576004355f525f516020611a3b5f395f51905f5260205260405f20600881015460ff8116156102ba576009820154600a83015460ff936103f292916001600160a01b031690610c8690600b01611080565b9160405195869560081c1685610bf8565b3461010f57606036600319011261010f57600435610cb36100f9565b60443590825f525f516020611a3b5f395f51905f5260205260405f209260ff600885015416156102ba57610ce8935490611543565b604051908152602090f35b5f525f516020611a3b5f395f51905f5260205260405f2090565b6001600160a01b03165f9081527f480144b1b455a0fe78db9dc5dd1b2d4c571f1de5c4ffa2484c50217a3dfae7bc6020526040902090565b8054821015610d5a575f5260205f2001905f90565b634e487b7160e01b5f52603260045260245ffd5b929092805f525f516020611a3b5f395f51905f5260205260405f209260ff60088501541615610db857846107c592610da7955490611543565b6001600160a01b0390811691161490565b50505050505f90565b8054600160401b81101561042b57610dde91600182018155610d45565b81546001600160a01b0393841660039290921b91821b9390911b1916919091179055565b610e13610179600861017184610cf3565b6102ba57610e25600861018f83610cf3565b6102ab576001600160a01b038216918215610ea957610e4382610cf3565b60040180545f5b818110610e8357505090610e5d91610dc1565b7ff423ea79bc99e6796ba530677a5c10483e4a7b201eccb884de028d467e0e9df25f80a3565b85610e946108c06108ab8487610d45565b14610ea157600101610e4a565b505050505050565b631b39f58f60e31b5f5260045ffd5b90600182811c92168015610ee6575b6020831014610ed257565b634e487b7160e01b5f52602260045260245ffd5b91607f1691610ec7565b818110610efb575050565b5f8155600101610ef0565b9190601f8111610f1557505050565b610440925f5260205f20906020601f840160051c83019310610f3f575b601f0160051c0190610ef0565b9091508190610f32565b91909182516001600160401b03811161042b57610f7081610f6a8454610eb8565b84610f06565b6020601f8211600114610faf578190610fa09394955f92610fa4575b50508160011b915f199060031b1c19161790565b9055565b015190505f80610f8c565b601f19821690610fc2845f5260205f2090565b915f5b818110610ffc57509583600195969710610fe4575b505050811b019055565b01515f1960f88460031b161c191690555f8080610fda565b9192602060018192868b015181550194019201610fc5565b6040906103149392815281602082015201906102df565b60208091604051928184925191829101835e81017f480144b1b455a0fe78db9dc5dd1b2d4c571f1de5c4ffa2484c50217a3dfae7bd81520301902090565b9291906109a76020916040865260408601906102df565b9060405191825f82549261109384610eb8565b80845293600181169081156110fc57506001146110b8575b506104409250038361040a565b90505f9291925260205f20905f915b8183106110e0575050906020610440928201015f6110ab565b60209193508060019154838589010152019101909184926110c7565b90506020925061044094915060ff191682840152151560051b8201015f6110ab565b90604051918281549182825260208201905f5260205f20925f5b81811061114d5750506104409250038361040a565b84546001600160a01b0316835260019485019487945060209093019201611138565b6040519061117e60208361040a565b5f8252565b8151916001600160401b03831161042b57600160401b831161042b5760209082548484558085106111e4575b5001905f5260205f205f5b8381106111c75750505050565b82516001600160a01b0316818301556020909201916001016111ba565b6111f990845f5285845f209182019101610ef0565b5f6111af565b600b610180610440938051845561121d602082015160018601610f49565b60408101516002850180546001600160a01b0319166001600160a01b039092169190911790556060810151600385015561125e608082015160048601611183565b61126f60a082015160058601610f49565b61128060c082015160068601610f49565b60e081015160078501556112d2600885016112b46112a2610100850151151590565b829060ff801983541691151516179055565b6101208301511515815461ff00191690151560081b61ff0016179055565b6101408101516009850155610160810151600a850180546001600160a01b0319166001600160a01b0390921691909117905501519101610f49565b5f516020611a5b5f395f51905f5254600160401b81101561042b57611355816001610fa093015f516020611a5b5f395f51905f52555f516020611a5b5f395f51905f52610d45565b819391549060031b91821b915f19901b19161790565b805490600160401b82101561042b5781611355916001610fa094018155610d45565b916113b6906113a861031495936060865260608601906102df565b908482036020860152610902565b9160408184039101526102df565b949593929591909185156114e6576113e0600861017188610cf3565b6114d7576114826114d2927fba69960fb83db7d36bb61693585ea8ef7c8e64d54fde4d9872577c80f9ccae3a96611415610430565b86815260208101929092523360408301524260608301528660808301528360a08301528960c083015260e0820152611451610100820160019052565b5f6101208201525f6101408201525f61016082015261146e61116f565b61018082015261147d88610cf3565b6111ff565b6114948661148f8961102b565b61136b565b61149d8661130d565b6040519384933390887fff2403b26088b665800aa5c25a6ce82dc16e914df0faaaeeddcd1de432358cf95f80a433978461138d565b0390a3565b631bc5c3a760e01b5f5260045ffd5b633e69943360e01b5f5260045ffd5b816114ff91611809565b61153d577f511915e52b7f9e690b9fdc662acaf5600fd3722c87eb951d3abd26e93a784dca5c9060ff82166115345750505f90565b610314916119e8565b50600190565b9290916040519260208401947f62a9114b2cd4ae785fee49d87e4b341f8044799544c8d4d67a7e2ee88196a53586526040850152606084015260018060a01b0316608083015260a082015260a0815261159d60c08261040a565b5190206116496116806040926011602085516115b9878261040a565b82815201704361705369676e20446f63756d656e747360781b8152206116496116576001602088516115eb8a8261040a565b828152603160f81b91019081522087517f8b73c3c69bb8fe3d512ecc4cf759cc79239f7b179b0ffacaa9a75d522b39400f60208201908152604082019590955260608101919091524660808201523060a082015291829060c0820190565b03601f19810183528261040a565b5190209351928391602083019586909160429261190160f01b8352600283015260228201520190565b51902090565b60ff601b9116019060ff821161169857565b634e487b7160e01b5f52601160045260245ffd5b6040513d5f823e3d90fd5b90604181510361175c57602081015191606060408301519201515f1a90601b821061174c575b60ff8216601b8114159081611740575b50611738576117205f93602095604051948594859094939260ff6060936080840197845216602083015260408201520152565b838052039060015afa15611733575f5190565b6116ac565b505050505f90565b601c915014155f6116ed565b9061175690611686565b906116dd565b50505f90565b805f525f516020611a3b5f395f51905f52602052600460405f20019081549182156117d5575f5b8381106117995750505050600190565b6117bd6117a68284610d45565b905460039190911b1c6001600160a01b0316610d0d565b835f5260205260405f20541561173857600101611789565b5050505f90565b919082604091031261010f578151801515810361010f5760209092015163ffffffff8116810361010f5790565b7fce1c17acaaa67de66e928cd49c8f658667a825223bee6fda99a14908362bcdac546001600160a01b031680611948575b506001600160a01b0381165f9081527fce1c17acaaa67de66e928cd49c8f658667a825223bee6fda99a14908362bcdaa602052604090206118ad90549263ffffffff60e01b165f527fce1c17acaaa67de66e928cd49c8f658667a825223bee6fda99a14908362bcdab60205260405f2090565b54908115611904576001600160a01b03165f9081527fce1c17acaaa67de66e928cd49c8f658667a825223bee6fda99a14908362bcdaa602052604090205460011615159182156118fc57505090565b161515919050565b6001600160a01b03165f9081527fce1c17acaaa67de66e928cd49c8f658667a825223bee6fda99a14908362bcdaa6020526040902054600116151591506103149050565b61195a906001600160a01b03166108c0565b6040805163b700961360e01b81526001600160a01b03841660048201523060248201526001600160e01b03198516604482015291829060649082905afa5f91816119b6575b501561183a576119af575f61183a565b5050600190565b6119d991925060403d6040116119e1575b6119d1818361040a565b8101906117dc565b50905f61199f565b503d6119c7565b60ff169081156119af576001600160e01b0319165f9081527fce1c17acaaa67de66e928cd49c8f658667a825223bee6fda99a14908362bcdab602052604090205490811561175c576001901b1615159056fe480144b1b455a0fe78db9dc5dd1b2d4c571f1de5c4ffa2484c50217a3dfae7bb480144b1b455a0fe78db9dc5dd1b2d4c571f1de5c4ffa2484c50217a3dfae7bea2646970667358221220c8eac87ac2484cc5c14f78c49a9c3fde2760358b7256ce84129af382edc3c7fe64736f6c634300081e0033","linkReferences":{}},"methodIdentifiers":{"addRequiredSigner(bytes32,address)":"50459e25","createDocument(bytes32,bytes32,string,string,address[],string,bytes32)":"bbdc85a7","getAllDocuments()":"9fa5f50b","getDocument(bytes32)":"b10d6b41","getDocumentSignatureHash(bytes32,address,uint256)":"e56bfd16","getDocumentsByCategory(string)":"ce262095","hasDocumentCategory(string)":"75ca9a3c","isDocumentSigned(address,bytes32)":"beeb2a57","isDocumentVoided(bytes32)":"cfa52c53","packedSelectors()":"3e62267c","signDocument(bytes32,bytes)":"a4c96e75","signDocumentFor(bytes32,address)":"385dbda4","verifyDocumentSignature(bytes32,address,uint256,bytes)":"42099927","voidDocument(bytes32,string)":"522f1b83"},"id":357}