{"abi":[{"type":"function","name":"addAttestation","inputs":[{"name":"attestationUID","type":"bytes32","internalType":"bytes32"},{"name":"attestationType","type":"string","internalType":"string"}],"outputs":[],"stateMutability":"nonpayable"},{"type":"function","name":"getAllAttestations","inputs":[],"outputs":[{"name":"","type":"bytes32[]","internalType":"bytes32[]"}],"stateMutability":"view"},{"type":"function","name":"getAttestationsByType","inputs":[{"name":"attestationType","type":"string","internalType":"string"}],"outputs":[{"name":"","type":"bytes32[]","internalType":"bytes32[]"}],"stateMutability":"view"},{"type":"function","name":"hasAttestation","inputs":[{"name":"attestationUID","type":"bytes32","internalType":"bytes32"}],"outputs":[{"name":"exists","type":"bool","internalType":"bool"},{"name":"revoked","type":"bool","internalType":"bool"}],"stateMutability":"view"},{"type":"function","name":"revokeAttestation","inputs":[{"name":"attestationUID","type":"bytes32","internalType":"bytes32"}],"outputs":[],"stateMutability":"nonpayable"},{"type":"event","name":"AttestationAdded","inputs":[{"name":"attestationUID","type":"bytes32","indexed":true,"internalType":"bytes32"},{"name":"attestationType","type":"string","indexed":true,"internalType":"string"},{"name":"timestamp","type":"uint256","indexed":false,"internalType":"uint256"}],"anonymous":false},{"type":"event","name":"AttestationRevoked","inputs":[{"name":"attestationUID","type":"bytes32","indexed":true,"internalType":"bytes32"},{"name":"timestamp","type":"uint256","indexed":false,"internalType":"uint256"}],"anonymous":false},{"type":"error","name":"WalletIdentity_AttestationAlreadyExists","inputs":[]},{"type":"error","name":"WalletIdentity_AttestationNotFound","inputs":[]},{"type":"error","name":"WalletIdentity_InvalidAttestationUID","inputs":[]}],"bytecode":{"object":"0x60808060405234601557610790908161001a8239f35b5f80fdfe6080806040526004361015610012575f80fd5b5f3560e01c90816335deba3314610524575080634d5e1da61461048657806359a8fea0146104185780635f12013e146100e45763fa5e136514610053575f80fd5b346100e05760203660031901126100e05760043567ffffffffffffffff81116100e05761008761008c9136906004016105e3565b610629565b60405190805480835260208301915f5260205f20905f5b8181106100ca576100c6856100ba818703826105a5565b6040519182918261056c565b0390f35b82548452602090930192600192830192016100a3565b5f80fd5b346100e05760403660031901126100e05760043560243567ffffffffffffffff81116100e0576101189036906004016105e3565b90610121610667565b801561040957805f525f51602061071b5f395f51905f52602052600260405f2001546103fa57604051916080830183811067ffffffffffffffff821117610312576040528183526020830192818452604081019042825260608101915f8352845f525f51602061071b5f395f51905f5260205260405f209151825560018201955195865167ffffffffffffffff8111610312578154600181811c911680156103f0575b60208210146103dc57601f8111610397575b506020601f82116001146103315781906003969798995f92610326575b50508160011b915f1990871b1c19161790555b516002820155019051151560ff801983541691161790555f51602061073b5f395f51905f5254600160401b8110156103125760018101805f51602061073b5f395f51905f52558110156102fe575f51602061073b5f395f51905f525f527f9767fdc08559d1a3469499f6616cb4820fbcabfd11a9d551a6da209b76bd598e0182905561029181610629565b90815491600160401b83101561031257600183018082558310156102fe5760209284915f52835f200155604051918183925191829101835e81015f8152039020907f4833723d5f6641b2027a09e6b3e693014c5caab4c1f9999490f37ee81e2e35e76020604051428152a3005b634e487b7160e01b5f52603260045260245ffd5b634e487b7160e01b5f52604160045260245ffd5b0151905089806101f3565b601f19821698835f52815f20995f5b81811061037f57509160039798999a91846001959410610368575b505050811b019055610206565b01515f1983891b60f8161c1916905589808061035b565b838301518c556001909b019a60209384019301610340565b825f5260205f20601f830160051c810191602084106103d2575b601f0160051c01905b8181106103c757506101d6565b5f81556001016103ba565b90915081906103b1565b634e487b7160e01b5f52602260045260245ffd5b90607f16906101c4565b6319a91aa160e21b5f5260045ffd5b63dfb6a57960e01b5f5260045ffd5b346100e0575f3660031901126100e0576040515f51602061073b5f395f51905f525480825260208201905f51602061073b5f395f51905f525f5260205f20905f5b818110610470576100c6856100ba818703826105a5565b8254845260209093019260019283019201610459565b346100e05760203660031901126100e0576004356104a2610667565b805f525f51602061071b5f395f51905f52602052600260405f2001541561051557805f525f51602061071b5f395f51905f52602052600360405f2001600160ff198254161790557faafc3b26acdc39edbc4e65dcb8377301b0889581bc9d384f494c983cc81f58176020604051428152a2005b630e8e139560e41b5f5260045ffd5b346100e05760203660031901126100e0576040906004355f525f51602061071b5f395f51905f52602052815f2060ff6003600283015415159201541690825215156020820152f35b60206040818301928281528451809452019201905f5b81811061058f5750505090565b8251845260209384019390920191600101610582565b90601f8019910116810190811067ffffffffffffffff82111761031257604052565b67ffffffffffffffff811161031257601f01601f191660200190565b81601f820112156100e0578035906105fa826105c7565b9261060860405194856105a5565b828452602083830101116100e057815f926020809301838601378301015290565b60208091604051928184925191829101835e81017fccb486fbd1a55a5ca959a0cad88f4854b635a54c72b6425f3bc486a7bf9e1c0681520301902090565b3033146106e4575f80604051602081019063145c351b60e31b8252336024820152602481526106976044826105a5565b5190305afa3d15610713573d6106ac816105c7565b906106ba60405192836105a5565b81523d5f602083013e5b81610708575b816106e6575b506106e457630e8e139560e41b5f5260045ffd5b565b90506020818051810103126100e0576020015180151581036100e0575f6106d0565b8051151591506106ca565b60606106c456feccb486fbd1a55a5ca959a0cad88f4854b635a54c72b6425f3bc486a7bf9e1c04ccb486fbd1a55a5ca959a0cad88f4854b635a54c72b6425f3bc486a7bf9e1c05a26469706673582212205a86d3a4d55e4f09e6ff5cdde577fa0d499574398f6ef03553cc8294aeca5c7464736f6c634300081e0033","linkReferences":{}},"methodIdentifiers":{"addAttestation(bytes32,string)":"5f12013e","getAllAttestations()":"59a8fea0","getAttestationsByType(string)":"fa5e1365","hasAttestation(bytes32)":"35deba33","revokeAttestation(bytes32)":"4d5e1da6"},"id":157}