{"abi":[{"type":"function","name":"WalletPaymasterPolicy_init","inputs":[{"name":"paymasterAddress_","type":"address","internalType":"address"},{"name":"dailyBudget_","type":"uint256","internalType":"uint256"}],"outputs":[],"stateMutability":"nonpayable"},{"type":"function","name":"addAllowedOperation","inputs":[{"name":"role","type":"uint8","internalType":"uint8"},{"name":"operation","type":"bytes4","internalType":"bytes4"}],"outputs":[],"stateMutability":"nonpayable"},{"type":"function","name":"canSponsorUser","inputs":[{"name":"user","type":"address","internalType":"address"},{"name":"operation","type":"bytes4","internalType":"bytes4"}],"outputs":[{"name":"canSponsor","type":"bool","internalType":"bool"},{"name":"reason","type":"string","internalType":"string"}],"stateMutability":"view"},{"type":"function","name":"getPaymasterInfo","inputs":[],"outputs":[{"name":"enabled","type":"bool","internalType":"bool"},{"name":"dailyBudget","type":"uint256","internalType":"uint256"},{"name":"spent","type":"uint256","internalType":"uint256"}],"stateMutability":"view"},{"type":"function","name":"getRolePolicy","inputs":[{"name":"role","type":"uint8","internalType":"uint8"}],"outputs":[{"name":"canBeSponsored","type":"bool","internalType":"bool"},{"name":"dailyLimit","type":"uint256","internalType":"uint256"},{"name":"allowedOperations","type":"bytes4[]","internalType":"bytes4[]"}],"stateMutability":"view"},{"type":"function","name":"getUserSpending","inputs":[{"name":"user","type":"address","internalType":"address"}],"outputs":[{"name":"spent","type":"uint256","internalType":"uint256"},{"name":"lastSpend","type":"uint48","internalType":"uint48"}],"stateMutability":"view"},{"type":"function","name":"isOperationAllowed","inputs":[{"name":"role","type":"uint8","internalType":"uint8"},{"name":"operation","type":"bytes4","internalType":"bytes4"}],"outputs":[{"name":"allowed","type":"bool","internalType":"bool"}],"stateMutability":"view"},{"type":"function","name":"packedSelectors","inputs":[],"outputs":[{"name":"","type":"bytes","internalType":"bytes"}],"stateMutability":"pure"},{"type":"function","name":"recordSpending","inputs":[{"name":"user","type":"address","internalType":"address"},{"name":"amount","type":"uint256","internalType":"uint256"}],"outputs":[],"stateMutability":"nonpayable"},{"type":"function","name":"removeAllowedOperation","inputs":[{"name":"role","type":"uint8","internalType":"uint8"},{"name":"operation","type":"bytes4","internalType":"bytes4"}],"outputs":[],"stateMutability":"nonpayable"},{"type":"function","name":"setDailyBudget","inputs":[{"name":"budget","type":"uint256","internalType":"uint256"}],"outputs":[],"stateMutability":"nonpayable"},{"type":"function","name":"setPaymasterAddress","inputs":[{"name":"paymaster","type":"address","internalType":"address"}],"outputs":[],"stateMutability":"nonpayable"},{"type":"function","name":"setPaymasterEnabled","inputs":[{"name":"enabled","type":"bool","internalType":"bool"}],"outputs":[],"stateMutability":"nonpayable"},{"type":"function","name":"setRolePolicy","inputs":[{"name":"role","type":"uint8","internalType":"uint8"},{"name":"canBeSponsored","type":"bool","internalType":"bool"},{"name":"dailyLimit","type":"uint256","internalType":"uint256"},{"name":"allowedOperations","type":"bytes4[]","internalType":"bytes4[]"}],"outputs":[],"stateMutability":"nonpayable"},{"type":"event","name":"DailyBudgetSet","inputs":[{"name":"budget","type":"uint256","indexed":false,"internalType":"uint256"}],"anonymous":false},{"type":"event","name":"OperationRemoved","inputs":[{"name":"role","type":"uint8","indexed":true,"internalType":"uint8"},{"name":"operation","type":"bytes4","indexed":false,"internalType":"bytes4"}],"anonymous":false},{"type":"event","name":"OperationWhitelisted","inputs":[{"name":"role","type":"uint8","indexed":true,"internalType":"uint8"},{"name":"operation","type":"bytes4","indexed":false,"internalType":"bytes4"}],"anonymous":false},{"type":"event","name":"PaymasterAddressSet","inputs":[{"name":"paymaster","type":"address","indexed":true,"internalType":"address"}],"anonymous":false},{"type":"event","name":"PaymasterEnabled","inputs":[{"name":"enabled","type":"bool","indexed":false,"internalType":"bool"}],"anonymous":false},{"type":"event","name":"RolePolicySet","inputs":[{"name":"role","type":"uint8","indexed":true,"internalType":"uint8"},{"name":"canBeSponsored","type":"bool","indexed":false,"internalType":"bool"},{"name":"dailyLimit","type":"uint256","indexed":false,"internalType":"uint256"}],"anonymous":false},{"type":"event","name":"SpendingRecorded","inputs":[{"name":"user","type":"address","indexed":true,"internalType":"address"},{"name":"amount","type":"uint256","indexed":false,"internalType":"uint256"}],"anonymous":false},{"type":"error","name":"WalletPaymasterPolicy_AlreadyInitialized","inputs":[]},{"type":"error","name":"Wallet_BudgetExceeded","inputs":[]},{"type":"error","name":"Wallet_InvalidPaymasterAddress","inputs":[]},{"type":"error","name":"Wallet_InvalidRole","inputs":[]},{"type":"error","name":"Wallet_OnlyPaymaster","inputs":[]},{"type":"error","name":"Wallet_OperationNotAllowed","inputs":[]},{"type":"error","name":"Wallet_PaymasterNotEnabled","inputs":[]},{"type":"error","name":"Wallet_Unauthorized","inputs":[]},{"type":"error","name":"Wallet_UserLimitExceeded","inputs":[]}],"bytecode":{"object":"0x6080806040523460155761168a908161001a8239f35b5f80fdfe60806040526004361015610011575f80fd5b5f3560e01c806309dd7c2414610dc157806323f905f814610baf57806334dfbfee14610a415780633e62267c1461095857806343bf4e8d146108b6578063632b3b471461088457806378183705146108525780637cfc2db4146107e35780639b23fb0a146107ad578063a1ad778b14610733578063a9ab9072146104a5578063bebf4e981461018c578063cb9ad4451461013f5763ced4d851146100b3575f80fd5b3461013b575f36600319011261013b575f5160206116155f395f51905f525465ffffffffffff6100f2815f5160206116355f395f51905f525416610f63565b16421015610134575b60609060ff5f5160206115f55f395f51905f525416905f5160206115d55f395f51905f5254604051921515835260208301526040820152f35b505f6100fb565b5f80fd5b3461013b57604036600319011261013b5761016961015b610e19565b610163610e63565b90611275565b9061018860405192839215158352604060208401526040830190610e2f565b0390f35b3461013b57608036600319011261013b576101a5610e53565b60243580151580910361013b576044356064359267ffffffffffffffff841161013b573660238501121561013b5783600401359367ffffffffffffffff8511610470578460051b90604051956101fe6020840188610e7a565b8652602460208701928201019036821161013b57602401915b8183106104845750505061022961155f565b6040516060810181811067ffffffffffffffff8211176104705760405283815260026020820191848352604081019287845261026485610fda565b9151151560ff8019845416911617825551600182015501905180519067ffffffffffffffff821161047057600160401b8211610470578254828455808310610416575b50602001915f5260205f208160031c915f5b8381106103cb5750600719811690038061035a575b50505050604060ff7ff987fa24fb87ea64439b8ad501ffde629620f37a10c577293c95b5d88d52c3bc921693849382519182526020820152a25f5b825181101561035857600190827f1bdb30bc8dcc113aec53004495417409049f3f328f21f8eaa44ce701e5707ffe602063ffffffff60e01b818560051b8901015116604051908152a201610309565b005b925f935f5b818110610396575050500155604060ff7ff987fa24fb87ea64439b8ad501ffde629620f37a10c577293c95b5d88d52c3bc876102ce565b90919460206103c1600192885160e01c908560021b63ffffffff809160031b9316831b921b19161790565b960192910161035f565b5f5f5b600881106103e35750838201556001016102b9565b9590602061040d600192845160e01c908a60021b63ffffffff809160031b9316831b921b19161790565b920196016103ce565b835f5260205f20600780850160031c8201920160031c0190601c8460021b1680610455575b505b81811061044a57506102a7565b5f815560010161043d565b5f198201908154905f199060200360031b1c1690558961043b565b634e487b7160e01b5f52604160045260245ffd5b82356001600160e01b03198116810361013b57815260209283019201610217565b3461013b57602036600319011261013b576104c66104c1610e53565b610fda565b60ff81541660026001830154920190604051808160208554928381520180955f5260205f20925f905b80600783011061068e5761054a94549181811061066f575b818110610650575b818110610631575b818110610612575b8181106105f3575b8181106105d4575b8181106105b7575b106105a2575b5095949392950385610e7a565b604051938493606085019215158552602085015260606040850152518091526080830191905f5b81811061057f575050500390f35b82516001600160e01b031916845285945060209384019390920191600101610571565b6001600160e01b03191681526020018761053d565b602083811b6001600160e01b031916855290930192600101610537565b604083901b6001600160e01b031916845260209093019260010161052f565b606083901b6001600160e01b0319168452602090930192600101610527565b608083901b6001600160e01b031916845260209093019260010161051f565b60a083901b6001600160e01b0319168452602090930192600101610517565b60c083901b6001600160e01b031916845260209093019260010161050f565b60e083901b6001600160e01b0319168452602090930192600101610507565b916008919350610100600191865463ffffffff60e01b8160e01b16825263ffffffff60e01b8160c01b16602083015263ffffffff60e01b8160a01b16604083015263ffffffff60e01b8160801b16606083015263ffffffff60e01b8160601b16608083015263ffffffff60e01b8160401b1660a083015263ffffffff60e01b8160201b1660c083015263ffffffff60e01b1660e08201520194019201849293916104ef565b3461013b57602036600319011261013b5760043580151580910361013b5760207f191484692b5e00b8cc63fb644dba478a1c075b13d1a289bc295647e29a4a89539161077d61155f565b60ff195f5160206115f55f395f51905f52541660ff8216175f5160206115f55f395f51905f5255604051908152a1005b3461013b57604036600319011261013b5760206107d96107cb610e53565b6107d3610e63565b906111ec565b6040519015158152f35b3461013b57602036600319011261013b576107fc610e19565b61080461155f565b6001600160a01b0381169081156108445761081e90610e9c565b7f24bbce86f9232b036fb3b1b306ccab1cd608eb413bb4fd02f7d8bbe69c527b5b5f80a2005b6223408b60e71b5f5260045ffd5b3461013b57604036600319011261013b5761035861086e610e53565b610876610e63565b9061087f61155f565b6110dc565b3461013b57604036600319011261013b576103586108a0610e53565b6108a8610e63565b906108b161155f565b61100a565b3461013b57602036600319011261013b5760406108d1610e19565b6108da81610f95565b549065ffffffffffff6108fc815f5160206116355f395f51905f525416610f63565b16421015610950575b6001600160a01b03165f9081527f96639f4e12bf9c3372f97e246bd53e98577e377d6e561f3d997d8d16d88624546020526040902065ffffffffffff90541682519182526020820152f35b5f9150610905565b3461013b575f36600319011261013b576040805163047f20bf60e31b602082015263632b3b4760e01b602482015263cb9ad44560e01b602882015263ced4d85160e01b602c8201526354d5c83960e11b60308201526343bf4e8d60e01b603480830191909152634d91fd8560e11b6038830152631a6fdff760e11b603c830152637818370560e01b928201929092526302775f0960e21b6044820152631f3f0b6d60e21b604882015263a1ad778b60e01b604c8201526317d7e9d360e31b605082015290815261018890610a2d605482610e7a565b604051918291602083526020830190610e2f565b3461013b57604036600319011261013b57610a5a610e19565b7f96639f4e12bf9c3372f97e246bd53e98577e377d6e561f3d997d8d16d88624515460243591906001600160a01b03163303610ba05760207fd9e8ae322a817db2b0c3eaaa156509cbd06f2683e26d00465151938c9ec45e2f9165ffffffffffff610ad4815f5160206116355f395f51905f525416610f63565b16421015610b7a575b610ae681610f95565b610af1858254610fcd565b9055610b0b845f5160206116155f395f51905f5254610fcd565b5f5160206116155f395f51905f52556001600160a01b0381165f9081527f96639f4e12bf9c3372f97e246bd53e98577e377d6e561f3d997d8d16d886245460205260409020805465ffffffffffff19164265ffffffffffff161790556040519384526001600160a01b031692a2005b610b8b65ffffffffffff4216610efc565b5f5f5160206116155f395f51905f5255610add565b637b3a78cb60e11b5f5260045ffd5b3461013b57604036600319011261013b57610bc8610e19565b6024355f5160206115f55f395f51905f525460ff8116610db25760ff19166001175f5160206115f55f395f51905f5255610c0182610e9c565b805f5160206115d55f395f51905f5255610c2265ffffffffffff4216610efc565b5f80527f96639f4e12bf9c3372f97e246bd53e98577e377d6e561f3d997d8d16d88624526020527f2e693cab0b18efbb1a1310e5810eccc6aa4682afd3d34b079d6bb7cbe425fbe2805460ff19166001179055670de0b6b3a76400007f2e693cab0b18efbb1a1310e5810eccc6aa4682afd3d34b079d6bb7cbe425fbe3557f2e693cab0b18efbb1a1310e5810eccc6aa4682afd3d34b079d6bb7cbe425fbe4805490929091600160401b83101561047057610d06837fd7992138ad08aafd8a15af0a5d8c5207a66fcb949c6317f548bcc0050af4c684956001602096018155610f2e565b63ffffffff82549160031b1b908119161790557f191484692b5e00b8cc63fb644dba478a1c075b13d1a289bc295647e29a4a89538360405160018152a1604051916001600160a01b03167f24bbce86f9232b036fb3b1b306ccab1cd608eb413bb4fd02f7d8bbe69c527b5b5f80a28152a15f7ff987fa24fb87ea64439b8ad501ffde629620f37a10c577293c95b5d88d52c3bc6040805160018152670de0b6b3a76400006020820152a2005b63df0bc98960e01b5f5260045ffd5b3461013b57602036600319011261013b577fd7992138ad08aafd8a15af0a5d8c5207a66fcb949c6317f548bcc0050af4c6846020600435610e0061155f565b805f5160206115d55f395f51905f5255604051908152a1005b600435906001600160a01b038216820361013b57565b805180835260209291819084018484015e5f828201840152601f01601f1916010190565b6004359060ff8216820361013b57565b602435906001600160e01b03198216820361013b57565b90601f8019910116810190811067ffffffffffffffff82111761047057604052565b60018060a01b03166bffffffffffffffffffffffff60a01b7f96639f4e12bf9c3372f97e246bd53e98577e377d6e561f3d997d8d16d88624515416177f96639f4e12bf9c3372f97e246bd53e98577e377d6e561f3d997d8d16d886245155565b65ffffffffffff1665ffffffffffff195f5160206116355f395f51905f525416175f5160206116355f395f51905f5255565b9190918054831015610f4f575f52601c60205f208360031c019260021b1690565b634e487b7160e01b5f52603260045260245ffd5b65ffffffffffff620151809116019065ffffffffffff8211610f8157565b634e487b7160e01b5f52601160045260245ffd5b6001600160a01b03165f9081527f96639f4e12bf9c3372f97e246bd53e98577e377d6e561f3d997d8d16d88624536020526040902090565b91908201809211610f8157565b60ff165f527f96639f4e12bf9c3372f97e246bd53e98577e377d6e561f3d997d8d16d886245260205260405f2090565b61101381610fda565b60020180545f5b8181106110a4575050805490600160401b821015610470577f1bdb30bc8dcc113aec53004495417409049f3f328f21f8eaa44ce701e5707ffe9261108c61106b8460ff946001602097018155610f2e565b8760e09392931c9083549063ffffffff809160031b9316831b921b19161790565b90556040516001600160e01b031990951685521692a2565b6110ae8184610f2e565b90546001600160e01b031960039290921b1c60e01b8116908616146110d55760010161101a565b5050505050565b906110e682610fda565b600201915f5b8354808210156110d5576111008286610f2e565b90546001600160e01b0319868116939260031b9190911c60e01b16821461112b5750506001016110ec565b90949293505f198101908111610f815763ffffffff61115e61115061117c9386610f2e565b90549060031b1c9385610f2e565b919093169083549063ffffffff809160031b9316831b921b19161790565b9055805480156111d8577fb525b4b2639d8c733faf1a72125ed7da0ec9c1bbb5c1b5786e03fd986c0790659260209260ff925f1901906111bc8282610f2e565b63ffffffff82549160031b1b19169055556040519485521692a2565b634e487b7160e01b5f52603160045260245ffd5b6111f590610fda565b6002018054915f5b83811061120c57505050505f90565b6112168184610f2e565b90546001600160e01b031960039290921b1c60e01b811690831614801561124d575b611244576001016111fd565b50505050600190565b506112588184610f2e565b90546001600160e01b031960039290921b1c60e01b811614611238565b9060ff5f5160206115f55f395f51905f525416156115285765ffffffffffff6112ad815f5160206116355f395f51905f525416610f63565b1642109182159280611502575b6114c2576040516274d5e160e81b81526001600160a01b038216600482015292602084602481305afa9384156114b7575f94611483575b505f5b60ff811661010081101561144b576001901b85166113215760ff905b1660ff8114610f81576001016112f4565b9390919261132e85610fda565b9460ff865416156113d0575f5f600288018054915b8281106113dd575b505050156113d0575050505f146113be575060015f915b015411156113815760019060405161137b602082610e7a565b5f815290565b5f90604051611391604082610e7a565b601981527f55736572206461696c79206c696d697420657863656564656400000000000000602082015290565b6113c9600191610f95565b5491611362565b60ff919493929550611310565b6113e78183610f2e565b90546001600160e01b031960039290921b1c60e01b8116908716148015611423575b61141557600101611343565b5050505060015f808061134b565b5061142e8183610f2e565b90546001600160e01b031960039290921b1c60e01b811614611409565b5050505050505f90604051611461604082610e7a565b60128152714e6f20617574686f72697a656420726f6c6560701b602082015290565b9093506020813d6020116114af575b8161149f60209383610e7a565b8101031261013b5751925f6112f1565b3d9150611492565b6040513d5f823e3d90fd5b5050505f906040516114d5604082610e7a565b601c81527f456e74697479206461696c792062756467657420657863656564656400000000602082015290565b505f5160206116155f395f51905f52545f5160206115d55f395f51905f525411156112ba565b50505f9060405161153a604082610e7a565b601581527414185e5b585cdd195c881b9bdd08195b98589b1959605a1b602082015290565b3033146115d25760ff6040516020808201913360601b835260148152611586603482610e7a565b604051928391518091835e81017f480144b1b455a0fe78db9dc5dd1b2d4c571f1de5c4ffa2484c50217a3dfae7b98152030190205416156115c357565b631bbfbd0760e21b5f5260045ffd5b56fe96639f4e12bf9c3372f97e246bd53e98577e377d6e561f3d997d8d16d886245096639f4e12bf9c3372f97e246bd53e98577e377d6e561f3d997d8d16d886244f96639f4e12bf9c3372f97e246bd53e98577e377d6e561f3d997d8d16d886245596639f4e12bf9c3372f97e246bd53e98577e377d6e561f3d997d8d16d8862456a2646970667358221220cc1424a1af59129aa632d8537ea049e4562a6780cb2a5626cc28b55d6bea79bb64736f6c634300081e0033","linkReferences":{}},"methodIdentifiers":{"WalletPaymasterPolicy_init(address,uint256)":"23f905f8","addAllowedOperation(uint8,bytes4)":"632b3b47","canSponsorUser(address,bytes4)":"cb9ad445","getPaymasterInfo()":"ced4d851","getRolePolicy(uint8)":"a9ab9072","getUserSpending(address)":"43bf4e8d","isOperationAllowed(uint8,bytes4)":"9b23fb0a","packedSelectors()":"3e62267c","recordSpending(address,uint256)":"34dfbfee","removeAllowedOperation(uint8,bytes4)":"78183705","setDailyBudget(uint256)":"09dd7c24","setPaymasterAddress(address)":"7cfc2db4","setPaymasterEnabled(bool)":"a1ad778b","setRolePolicy(uint8,bool,uint256,bytes4[])":"bebf4e98"},"id":344}