{"abi":[{"type":"function","name":"WalletType_init","inputs":[{"name":"classification","type":"tuple","internalType":"struct IWalletType.EntityClassification","components":[{"name":"elfCode","type":"bytes4","internalType":"bytes4"},{"name":"elfName","type":"string","internalType":"string"},{"name":"lei","type":"bytes20","internalType":"bytes20"},{"name":"jurisdictionCode","type":"bytes2","internalType":"bytes2"},{"name":"jurisdictionSub","type":"string","internalType":"string"},{"name":"formationDate","type":"uint256","internalType":"uint256"}]}],"outputs":[],"stateMutability":"nonpayable"},{"type":"function","name":"getElfCode","inputs":[],"outputs":[{"name":"elfCode","type":"bytes4","internalType":"bytes4"}],"stateMutability":"view"},{"type":"function","name":"getElfName","inputs":[],"outputs":[{"name":"elfName","type":"string","internalType":"string"}],"stateMutability":"view"},{"type":"function","name":"getEntityClassification","inputs":[],"outputs":[{"name":"classification","type":"tuple","internalType":"struct IWalletType.EntityClassification","components":[{"name":"elfCode","type":"bytes4","internalType":"bytes4"},{"name":"elfName","type":"string","internalType":"string"},{"name":"lei","type":"bytes20","internalType":"bytes20"},{"name":"jurisdictionCode","type":"bytes2","internalType":"bytes2"},{"name":"jurisdictionSub","type":"string","internalType":"string"},{"name":"formationDate","type":"uint256","internalType":"uint256"}]}],"stateMutability":"view"},{"type":"function","name":"getFormationDate","inputs":[],"outputs":[{"name":"formationDate","type":"uint256","internalType":"uint256"}],"stateMutability":"view"},{"type":"function","name":"getJurisdiction","inputs":[],"outputs":[{"name":"countryCode","type":"bytes2","internalType":"bytes2"},{"name":"subdivision","type":"string","internalType":"string"}],"stateMutability":"view"},{"type":"function","name":"getLEI","inputs":[],"outputs":[{"name":"lei","type":"bytes20","internalType":"bytes20"}],"stateMutability":"view"},{"type":"function","name":"isWalletTypeInitialized","inputs":[],"outputs":[{"name":"initialized","type":"bool","internalType":"bool"}],"stateMutability":"view"},{"type":"function","name":"packedSelectors","inputs":[],"outputs":[{"name":"","type":"bytes","internalType":"bytes"}],"stateMutability":"pure"},{"type":"function","name":"setFormationDate","inputs":[{"name":"formationDate","type":"uint256","internalType":"uint256"}],"outputs":[],"stateMutability":"nonpayable"},{"type":"function","name":"setLEI","inputs":[{"name":"lei","type":"bytes20","internalType":"bytes20"}],"outputs":[],"stateMutability":"nonpayable"},{"type":"event","name":"EntityTypeSet","inputs":[{"name":"elfCode","type":"bytes4","indexed":true,"internalType":"bytes4"},{"name":"jurisdictionCode","type":"bytes2","indexed":true,"internalType":"bytes2"},{"name":"elfName","type":"string","indexed":false,"internalType":"string"}],"anonymous":false},{"type":"event","name":"LEISet","inputs":[{"name":"lei","type":"bytes20","indexed":true,"internalType":"bytes20"}],"anonymous":false},{"type":"error","name":"AccessControl_CallerIsNotAuthorized","inputs":[{"name":"caller","type":"address","internalType":"address"},{"name":"functionSig","type":"bytes4","internalType":"bytes4"}]},{"type":"error","name":"WalletType_AlreadyInitialized","inputs":[]},{"type":"error","name":"WalletType_InvalidElfCode","inputs":[]},{"type":"error","name":"WalletType_InvalidElfName","inputs":[]},{"type":"error","name":"WalletType_InvalidJurisdiction","inputs":[]},{"type":"error","name":"WalletType_InvalidLEI","inputs":[]},{"type":"error","name":"WalletType_NotInitialized","inputs":[]}],"bytecode":{"object":"0x608080604052346015576110a8908161001a8239f35b5f80fdfe60806040526004361015610011575f80fd5b5f358060e01c9081630893dea814610a365781631fa1087c146109e557816328069e661461089f5781632e0a41a1146108845781633e62267c146107be578163669505171461072357508063690a80e9146106f5578063b370871e146106bf578063b78047bc146100f7578063d82b5885146100c25763f0f5175914610095575f80fd5b346100be575f3660031901126100be5760205f5160206110535f395f51905f5254604051908152f35b5f80fd5b346100be575f3660031901126100be5760205f516020610fb35f395f51905f525460e01b6040519063ffffffff60e01b168152f35b346100be5760203660031901126100be5760043567ffffffffffffffff81116100be578060040160c060031983360301126100be5760ff5f516020610fd35f395f51905f5254166106b0576001600160e01b031961015482610cba565b16156106a15760248201906101698282610ccf565b9050156106925760648301916001600160f01b031961018784610d02565b161561068357604484019361019b85610d17565b506101a583610cba565b60e01c63ffffffff195f516020610fb35f395f51905f525416175f516020610fb35f395f51905f52556101d88284610ccf565b9067ffffffffffffffff821161054a5781906102015f516020610ff35f395f51905f5254610a98565b601f8111610609575b505f90601f8311600114610569575f9261055e575b50508160011b915f199060031b1c1916175f516020610ff35f395f51905f52555b61025161024c86610d17565b610c8a565b61025a84610d02565b5f5160206110135f395f51905f52805461ffff60a01b191660509290921c61ffff60a01b169190911790556102926084820184610ccf565b9067ffffffffffffffff821161054a576102b95f5160206110335f395f51905f5254610a98565b601f81116104db575b505f90601f8311600114610413576040959383610375947f9def15cf1583b9af9419f230ea0d86d298eda64e8799d24fb32e5d1dd77caf59979460a4945f92610408575b50508160011b915f199060031b1c1916175f5160206110335f395f51905f52555b01355f5160206110535f395f51905f5255600160ff195f516020610fd35f395f51905f525416175f516020610fd35f395f51905f525561036f61036984610cba565b96610d02565b92610ccf565b93908492825193849260208452816020850152848401375f8287018401526001600160f01b031916956001600160e01b03191694601f01601f19168101030190a36001600160601b03196103c882610d17565b166103cf57005b6103e16001600160601b031991610d17565b167fed3183d66cae5b4a5912ebf7dec451b0125086b4c7953341e5419f2de4e61b4e5f80a2005b013590508b80610306565b5f5160206110335f395f51905f525f9081527f8b598f4bd8564402b9cb6d09156ffda63d815efc9b48b9abd16a3d0d849c62119290601f198516905b8181106104c35750847f9def15cf1583b9af9419f230ea0d86d298eda64e8799d24fb32e5d1dd77caf59979460a49460409a989461037598600195106104aa575b505050811b015f5160206110335f395f51905f5255610327565b01355f19600384901b60f8161c191690558b8080610490565b9193602060018192878701358155019501920161044f565b5f5160206110335f395f51905f525f527f8b598f4bd8564402b9cb6d09156ffda63d815efc9b48b9abd16a3d0d849c6211601f840160051c81019160208510610540575b601f0160051c01905b81811061053557506102c2565b5f8155600101610528565b909150819061051f565b634e487b7160e01b5f52604160045260245ffd5b01359050878061021f565b5f516020610ff35f395f51905f525f9081527f52b4d1934334a64108829811162100309ee84bd26e4ada82e6b5ff80a9c78c6f9350909190601f198516905b8181106105f157509084600195949392106105d8575b505050811b015f516020610ff35f395f51905f5255610240565b01355f19600384901b60f8161c191690558780806105be565b919360206001819287870135815501950192016105a8565b5f516020610ff35f395f51905f525f529091507f52b4d1934334a64108829811162100309ee84bd26e4ada82e6b5ff80a9c78c6f601f840160051c81019160208510610679575b90601f859493920160051c01905b81811061066b575061020a565b5f815584935060010161065e565b9091508190610650565b63795432ed60e11b5f5260045ffd5b63a756e52f60e01b5f5260045ffd5b63196e27b160e31b5f5260045ffd5b630925c33560e41b5f5260045ffd5b346100be575f3660031901126100be5760205f5160206110135f395f51905f525460601b604051906001600160601b0319168152f35b346100be575f3660031901126100be57602060ff5f516020610fd35f395f51905f5254166040519015158152f35b346100be5760203660031901126100be576004356001600160601b03198116918282036100be576001600160e01b03191661075e8133610d2c565b156107a8575081156107995761077390610c8a565b7fed3183d66cae5b4a5912ebf7dec451b0125086b4c7953341e5419f2de4e61b4e5f80a2005b633d10d38b60e21b5f5260045ffd5b631d64bc3360e11b5f523360045260245260445ffd5b346100be575f3660031901126100be5760408051632de011ef60e21b602082015263d82b588560e01b6024820152632e0a41a160e01b6028808301919091526314034f3360e11b602c83015263f0f5175960e01b60308301526307e8421f60e21b60348301526359b8438f60e11b603883015263690a80e960e01b603c8301526301127bd560e31b92820192909252636695051760e01b60448201529081526108809061086c604882610aec565b604051918291602083526020830190610a74565b0390f35b346100be575f3660031901126100be5761088061086c610bdd565b346100be575f3660031901126100be575f60a06040516108be81610ad0565b828152606060208201528260408201528260608201526060608082015201525f516020610fb35f395f51905f525460e01b5f5160206110135f395f51905f5254905f5160206110535f395f51905f52546040519161091b83610ad0565b6001600160e01b03191682526109da610932610bdd565b936020840194855260408401906001600160601b03198160601b168252606085019061ffff60f01b9060501b168152610969610b0e565b906080860191825260a086019485526109a76040519788976020895263ffffffff60e01b90511660208901525160c0604089015260e0880190610a74565b92516001600160601b0319166060870152516001600160f01b031916608086015251848203601f190160a0860152610a74565b905160c08301520390f35b346100be575f3660031901126100be575f5160206110135f395f51905f525460501b6001600160f01b031916610a19610b0e565b906108806040519283928352604060208401526040830190610a74565b346100be5760203660031901126100be576001600160e01b031916610a5b8133610d2c565b156107a8576004355f5160206110535f395f51905f5255005b805180835260209291819084018484015e5f828201840152601f01601f1916010190565b90600182811c92168015610ac6575b6020831014610ab257565b634e487b7160e01b5f52602260045260245ffd5b91607f1691610aa7565b60c0810190811067ffffffffffffffff82111761054a57604052565b90601f8019910116810190811067ffffffffffffffff82111761054a57604052565b604051905f825f5160206110335f395f51905f525491610b2d83610a98565b8083529260018116908115610bbe5750600114610b53575b610b5192500383610aec565b565b505f5160206110335f395f51905f525f90815290917f8b598f4bd8564402b9cb6d09156ffda63d815efc9b48b9abd16a3d0d849c62115b818310610ba2575050906020610b5192820101610b45565b6020919350806001915483858901015201910190918492610b8a565b60209250610b5194915060ff191682840152151560051b820101610b45565b604051905f825f516020610ff35f395f51905f525491610bfc83610a98565b8083529260018116908115610bbe5750600114610c1f57610b5192500383610aec565b505f516020610ff35f395f51905f525f90815290917f52b4d1934334a64108829811162100309ee84bd26e4ada82e6b5ff80a9c78c6f5b818310610c6e575050906020610b5192820101610b45565b6020919350806001915483858901015201910190918492610c56565b60601c6001600160601b0360a01b5f5160206110135f395f51905f525416175f5160206110135f395f51905f5255565b356001600160e01b0319811681036100be5790565b903590601e19813603018212156100be570180359067ffffffffffffffff82116100be576020019181360383136100be57565b356001600160f01b0319811681036100be5790565b356001600160601b0319811681036100be5790565b81610d3691610d7d565b610d77577f511915e52b7f9e690b9fdc662acaf5600fd3722c87eb951d3abd26e93a784dca5c9060ff8216610d6b5750505f90565b610d7491610f5d565b90565b50600190565b7fce1c17acaaa67de66e928cd49c8f658667a825223bee6fda99a14908362bcdac546001600160a01b031680610eb2575b5060018060a01b0381165f527fce1c17acaaa67de66e928cd49c8f658667a825223bee6fda99a14908362bcdaa60205260405f20549163ffffffff60e01b165f527fce1c17acaaa67de66e928cd49c8f658667a825223bee6fda99a14908362bcdab60205260405f2054908115610e6e576001600160a01b03165f9081527fce1c17acaaa67de66e928cd49c8f658667a825223bee6fda99a14908362bcdaa60205260409020546001161515918215610e6657505090565b161515919050565b6001600160a01b03165f9081527fce1c17acaaa67de66e928cd49c8f658667a825223bee6fda99a14908362bcdaa602052604090205460011615159150610d749050565b6040805163b700961360e01b81526001600160a01b03841660048201523060248201526001600160e01b03198516604482015291829060649082905afa5f9181610f0e575b5015610dae57610f07575f610dae565b5050600190565b9091506040813d604011610f55575b81610f2a60409383610aec565b810103126100be5780519081151582036100be576020015163ffffffff8116036100be57905f610ef7565b3d9150610f1d565b60ff16908115610f075763ffffffff60e01b165f527fce1c17acaaa67de66e928cd49c8f658667a825223bee6fda99a14908362bcdab60205260405f2054908115610fac576001901b16151590565b50505f9056fe1dd1512e82509614e07e4f650a91fb4b6f06d60358a07d57b79a916fbb6e3e1b1dd1512e82509614e07e4f650a91fb4b6f06d60358a07d57b79a916fbb6e3e201dd1512e82509614e07e4f650a91fb4b6f06d60358a07d57b79a916fbb6e3e1c1dd1512e82509614e07e4f650a91fb4b6f06d60358a07d57b79a916fbb6e3e1d1dd1512e82509614e07e4f650a91fb4b6f06d60358a07d57b79a916fbb6e3e1e1dd1512e82509614e07e4f650a91fb4b6f06d60358a07d57b79a916fbb6e3e1fa26469706673582212201288186c011481a938cf411ddc6ab91e5c37fefc74cb5f8dee64813613aebf3764736f6c634300081e0033","linkReferences":{}},"methodIdentifiers":{"WalletType_init((bytes4,string,bytes20,bytes2,string,uint256))":"b78047bc","getElfCode()":"d82b5885","getElfName()":"2e0a41a1","getEntityClassification()":"28069e66","getFormationDate()":"f0f51759","getJurisdiction()":"1fa1087c","getLEI()":"b370871e","isWalletTypeInitialized()":"690a80e9","packedSelectors()":"3e62267c","setFormationDate(uint256)":"0893dea8","setLEI(bytes20)":"66950517"},"id":350}