{"abi":[{"type":"function","name":"WalletFactoryCore_init","inputs":[{"name":"diamondFactory","type":"address","internalType":"address"},{"name":"admin","type":"address","internalType":"address"}],"outputs":[],"stateMutability":"nonpayable"},{"type":"function","name":"createWallet","inputs":[{"name":"config","type":"tuple","internalType":"struct IWalletFactory.WalletConfig","components":[{"name":"ownerType","type":"uint8","internalType":"enum IWalletFactory.OwnerType"},{"name":"ownerData","type":"bytes","internalType":"bytes"},{"name":"salt","type":"bytes32","internalType":"bytes32"}]},{"name":"facetCuts","type":"tuple[]","internalType":"struct IDiamondCut.FacetCut[]","components":[{"name":"facetAddress","type":"address","internalType":"address"},{"name":"action","type":"uint8","internalType":"enum IDiamondCut.FacetCutAction"},{"name":"functionSelectors","type":"bytes4[]","internalType":"bytes4[]"}]},{"name":"initAddress","type":"address","internalType":"address"},{"name":"initData","type":"bytes","internalType":"bytes"}],"outputs":[{"name":"result","type":"tuple","internalType":"struct IWalletFactory.DeploymentResult","components":[{"name":"walletDiamond","type":"address","internalType":"address"}]}],"stateMutability":"payable"},{"type":"function","name":"getDiamondFactory","inputs":[],"outputs":[{"name":"","type":"address","internalType":"address"}],"stateMutability":"view"},{"type":"function","name":"getWalletCount","inputs":[],"outputs":[{"name":"","type":"uint256","internalType":"uint256"}],"stateMutability":"view"},{"type":"function","name":"isInitialized","inputs":[],"outputs":[{"name":"","type":"bool","internalType":"bool"}],"stateMutability":"view"},{"type":"function","name":"predictWalletAddress","inputs":[{"name":"deployer","type":"address","internalType":"address"},{"name":"facetCuts","type":"tuple[]","internalType":"struct IDiamondCut.FacetCut[]","components":[{"name":"facetAddress","type":"address","internalType":"address"},{"name":"action","type":"uint8","internalType":"enum IDiamondCut.FacetCutAction"},{"name":"functionSelectors","type":"bytes4[]","internalType":"bytes4[]"}]},{"name":"initAddress","type":"address","internalType":"address"},{"name":"initData","type":"bytes","internalType":"bytes"},{"name":"salt","type":"bytes32","internalType":"bytes32"}],"outputs":[{"name":"","type":"address","internalType":"address"}],"stateMutability":"view"},{"type":"event","name":"WalletCreated","inputs":[{"name":"walletDiamond","type":"address","indexed":true,"internalType":"address"},{"name":"deployer","type":"address","indexed":true,"internalType":"address"},{"name":"ownerType","type":"uint8","indexed":false,"internalType":"uint8"},{"name":"salt","type":"bytes32","indexed":true,"internalType":"bytes32"},{"name":"owner","type":"address","indexed":false,"internalType":"address"}],"anonymous":false},{"type":"event","name":"WalletFactoryInitialized","inputs":[{"name":"diamondFactory","type":"address","indexed":true,"internalType":"address"},{"name":"admin","type":"address","indexed":true,"internalType":"address"}],"anonymous":false},{"type":"error","name":"WalletFactory_AlreadyInitialized","inputs":[]},{"type":"error","name":"WalletFactory_InvalidConfiguration","inputs":[]},{"type":"error","name":"WalletFactory_InvalidDiamondFactory","inputs":[]},{"type":"error","name":"WalletFactory_InvalidOwnerData","inputs":[]},{"type":"error","name":"WalletFactory_NotInitialized","inputs":[]}],"bytecode":{"object":"0x608080604052346015576109e4908161001a8239f35b5f80fdfe6080806040526004361015610012575f80fd5b5f3560e01c908163392e53cd14610687575080636a0ccc8d146105065780636b9886f0146103db578063745bd5a21461039f5780637d93c598146103675763a2dff1aa1461005e575f80fd5b60803660031901126103545760043567ffffffffffffffff81116103545780600401606060031983360301126103545760243567ffffffffffffffff8111610354576100ae9036906004016106de565b6100b99391936106c8565b9260643567ffffffffffffffff8111610354576100da90369060040161070f565b93604051956100e88761073d565b5f87525f51602061098f5f395f51905f525460ff8116156103585760248301986101128a87610900565b9050156102ee5785359660038810156103545761012f8b88610900565b905061013a896107ae565b88158015610341575b156102fd576020036102ee576101a56101849460446020975b01359a60405198899788968796630504c76b60e01b88526080600489015260848801916107cc565b6001600160a01b0390931660248601528483036003190160448601526108e0565b606482018a90520391349060081c6001600160a01b03165af19081156102e3575f916102b4575b506001600160a01b031684527f3e0ccabf47aacf2bb277ab0f486715836f36798db505fbf65d3508a3f5c23e27545f1981146102a05760209561023e92600161023793017f3e0ccabf47aacf2bb277ab0f486715836f36798db505fbf65d3508a3f5c23e2755610900565b9083610933565b83516001600160a01b031690610253836107ae565b60ff6040519316835260018060a01b0316858301527f9333d5ef1b16afb45543c753d0d3b3bda62c5901d20756edb6d784185417ec5f60403393a460405190516001600160a01b03168152f35b634e487b7160e01b5f52601160045260245ffd5b6102d6915060203d6020116102dc575b6102ce818361076d565b81019061078f565b5f6101cc565b503d6102c4565b6040513d5f823e3d90fd5b634b9d26e960e11b5f5260045ffd5b5f94919293945061030d896107ae565b6001891461032b575b50906101a5610184949392604460209761015c565b9093929190603f19016102ee579091925f610316565b5061034b896107ae565b60028914610143565b5f80fd5b6309cb704d60e01b5f5260045ffd5b34610354575f366003190112610354575f51602061098f5f395f51905f525460405160089190911c6001600160a01b03168152602090f35b34610354575f3660031901126103545760207f3e0ccabf47aacf2bb277ab0f486715836f36798db505fbf65d3508a3f5c23e2754604051908152f35b346103545760a0366003190112610354576103f46106b2565b60243567ffffffffffffffff8111610354576104149036906004016106de565b9061041d6106c8565b6064359267ffffffffffffffff841161035457610499946104ba610447602096369060040161070f565b5f51602061098f5f395f51905f52546040516311f06bc960e11b81526001600160a01b03958616600482015260a06024820152998a9860089290921c909516968896879691949260a4880191906107cc565b6001600160a01b0390931660448601528483036003190160648601526108e0565b608435608483015203915afa80156102e3576020915f916104e9575b506040516001600160a01b039091168152f35b6105009150823d84116102dc576102ce818361076d565b826104d6565b346103545760403660031901126103545761051f6106b2565b6024356001600160a01b0381169190829003610354575f51602061098f5f395f51905f52549060ff8216610678576001600160a01b03811691821561066957831561065a576001916101008360a81b039060081b16906affffffffffffffffffffff60a81b1617175f51602061098f5f395f51905f5255815f527f35edad4c931e57ec40cedc90b9e3e052832d1b49c07eb789b019aea9b39c91d960205260405f20600181541790556040516105d48161073d565b636a0ccc8d60e01b81525f5b60018110156106325760019063ffffffff60e01b8160051b840151165f527f35edad4c931e57ec40cedc90b9e3e052832d1b49c07eb789b019aea9b39c91da60205260405f20828154179055016105e0565b50507f0725e9092c54720b6a637f0cafa297dc0ca830930b90fa9e889bda32014e934c5f80a3005b631c45d43d60e01b5f5260045ffd5b63e562e14560e01b5f5260045ffd5b632dcaa8ef60e01b5f5260045ffd5b34610354575f3660031901126103545760209060ff5f51602061098f5f395f51905f52541615158152f35b600435906001600160a01b038216820361035457565b604435906001600160a01b038216820361035457565b9181601f840112156103545782359167ffffffffffffffff8311610354576020808501948460051b01011161035457565b9181601f840112156103545782359167ffffffffffffffff8311610354576020838186019501011161035457565b6020810190811067ffffffffffffffff82111761075957604052565b634e487b7160e01b5f52604160045260245ffd5b90601f8019910116810190811067ffffffffffffffff82111761075957604052565b9081602091031261035457516001600160a01b03811681036103545790565b600311156107b857565b634e487b7160e01b5f52602160045260245ffd5b9091602081848152019260208160051b83010193835f935b8385106107f45750505050505090565b909192939495601f198282030184528635605e1984360301811215610354576060820190840180356001600160a01b038116908190036103545783526020810135600381101561035457610847816107ae565b60208401526040810135601e19823603018112156103545701906020823592019267ffffffffffffffff8311610354578260051b36038413610354578260809260606040840152520191905f905b8082106108b55750505060208060019298019401950193929491906107e4565b90919283359063ffffffff60e01b821680920361035457602081600193829352019401920190610895565b908060209392818452848401375f828201840152601f01601f1916010190565b903590601e1981360301821215610354570180359067ffffffffffffffff82116103545760200191813603831361035457565b61093c816107ae565b801590811561097a575b506109515750505f90565b359060208110610969575b506001600160a01b031690565b5f199060200360031b1b165f61095c565b60029150610987816107ae565b145f61094656fe3e0ccabf47aacf2bb277ab0f486715836f36798db505fbf65d3508a3f5c23e26a264697066735822122028d8e3c160ac08106f574c79e13bd419124143ef87995295f382f36b15322ba064736f6c634300081e0033","linkReferences":{}},"methodIdentifiers":{"WalletFactoryCore_init(address,address)":"6a0ccc8d","createWallet((uint8,bytes,bytes32),(address,uint8,bytes4[])[],address,bytes)":"a2dff1aa","getDiamondFactory()":"7d93c598","getWalletCount()":"745bd5a2","isInitialized()":"392e53cd","predictWalletAddress(address,(address,uint8,bytes4[])[],address,bytes,bytes32)":"6b9886f0"},"id":160}