{"abi":[{"type":"function","name":"WalletFactoryCore_init","inputs":[{"name":"diamondFactory","type":"address","internalType":"address"},{"name":"admin","type":"address","internalType":"address"}],"outputs":[],"stateMutability":"nonpayable"},{"type":"function","name":"createWallet","inputs":[{"name":"config","type":"tuple","internalType":"struct IWalletFactory.WalletConfig","components":[{"name":"ownerType","type":"uint8","internalType":"enum IWalletFactory.OwnerType"},{"name":"ownerData","type":"bytes","internalType":"bytes"},{"name":"salt","type":"bytes32","internalType":"bytes32"},{"name":"signature","type":"bytes","internalType":"bytes"}]},{"name":"facets","type":"address[]","internalType":"address[]"},{"name":"initAddress","type":"address","internalType":"address"},{"name":"initData","type":"bytes","internalType":"bytes"}],"outputs":[{"name":"walletDiamond","type":"address","internalType":"address"}],"stateMutability":"payable"},{"type":"function","name":"getDiamondFactory","inputs":[],"outputs":[{"name":"","type":"address","internalType":"address"}],"stateMutability":"view"},{"type":"function","name":"getWalletCount","inputs":[],"outputs":[{"name":"","type":"uint256","internalType":"uint256"}],"stateMutability":"view"},{"type":"function","name":"isInitialized","inputs":[],"outputs":[{"name":"","type":"bool","internalType":"bool"}],"stateMutability":"view"},{"type":"function","name":"packedSelectors","inputs":[],"outputs":[{"name":"","type":"bytes","internalType":"bytes"}],"stateMutability":"pure"},{"type":"function","name":"predictWalletAddress","inputs":[{"name":"facets","type":"address[]","internalType":"address[]"},{"name":"initAddress","type":"address","internalType":"address"},{"name":"initData","type":"bytes","internalType":"bytes"},{"name":"salt","type":"bytes32","internalType":"bytes32"}],"outputs":[{"name":"","type":"address","internalType":"address"}],"stateMutability":"view"},{"type":"function","name":"setDiamondFactory","inputs":[{"name":"newFactory","type":"address","internalType":"address"}],"outputs":[],"stateMutability":"nonpayable"},{"type":"event","name":"WalletCreated","inputs":[{"name":"walletDiamond","type":"address","indexed":true,"internalType":"address"},{"name":"deployer","type":"address","indexed":true,"internalType":"address"},{"name":"ownerType","type":"uint8","indexed":false,"internalType":"uint8"},{"name":"salt","type":"bytes32","indexed":true,"internalType":"bytes32"},{"name":"owner","type":"address","indexed":false,"internalType":"address"}],"anonymous":false},{"type":"event","name":"WalletFactoryInitialized","inputs":[{"name":"diamondFactory","type":"address","indexed":true,"internalType":"address"},{"name":"admin","type":"address","indexed":true,"internalType":"address"}],"anonymous":false},{"type":"error","name":"AccessControl_CallerIsNotAuthorized","inputs":[{"name":"caller","type":"address","internalType":"address"},{"name":"functionSig","type":"bytes4","internalType":"bytes4"}]},{"type":"error","name":"ECDSAInvalidSignature","inputs":[]},{"type":"error","name":"ECDSAInvalidSignatureLength","inputs":[{"name":"length","type":"uint256","internalType":"uint256"}]},{"type":"error","name":"ECDSAInvalidSignatureS","inputs":[{"name":"s","type":"bytes32","internalType":"bytes32"}]},{"type":"error","name":"WalletFactory_AlreadyInitialized","inputs":[]},{"type":"error","name":"WalletFactory_InvalidConfiguration","inputs":[]},{"type":"error","name":"WalletFactory_InvalidDiamondFactory","inputs":[]},{"type":"error","name":"WalletFactory_InvalidOwnerData","inputs":[]},{"type":"error","name":"WalletFactory_InvalidSignature","inputs":[]},{"type":"error","name":"WalletFactory_NotInitialized","inputs":[]}],"bytecode":{"object":"0x6080806040523460155761119c908161001a8239f35b5f80fdfe60806040526004361015610011575f80fd5b5f358060e01c9081632d04718114610abc57508063392e53cd14610a8e5780633e62267c146109e15780636a0ccc8d14610858578063745bd5a21461081c5780637d607367146101e65780637d93c598146101ae5763a9a7a63914610074575f80fd5b346101aa5760803660031901126101aa5760043567ffffffffffffffff81116101aa576100a5903690600401610ba0565b906100ae610b8a565b9160443567ffffffffffffffff81116101aa57602092610122926100d9610143933690600401610bd1565b93909660018060a01b035f5160206111475f395f51905f525460081c16946040519889978896879663d5cd29fd60e01b885230600489015260a0602489015260a4880191610ca6565b6001600160a01b039093166044860152848303600319016064860152610cea565b606435608483015203915afa801561019f576020915f91610172575b506040516001600160a01b039091168152f35b6101929150823d8411610198575b61018a8183610c32565b810190610c87565b5f61015f565b503d610180565b6040513d5f823e3d90fd5b5f80fd5b346101aa575f3660031901126101aa575f5160206111475f395f51905f525460405160089190911c6001600160a01b03168152602090f35b60803660031901126101aa5760043567ffffffffffffffff81116101aa5780600401608060031983360301126101aa5760243567ffffffffffffffff81116101aa57610236903690600401610ba0565b9290916044356001600160a01b03811691908290036101aa5760643567ffffffffffffffff81116101aa5761026f903690600401610bd1565b9390945f5160206111475f395f51905f52549060ff82161561080d57602483019761029a8986610c54565b9050156107be5784359560038710156101aa576102b78a87610c54565b881591505f9082156107cd576014036107be575b6101aa57610432575b9061032261030b94939260446020970135996040519b8c9788968796632435834760e21b8852608060048901526084880191610ca6565b926024860152600319858403016044860152610cea565b606482018990520391349060081c6001600160a01b03165af193841561019f575f94610411575b507fcc2405183abd2617bf608d036ee54c2dd17439649ad0605281e242eaf931ebfd545f1981146103fd576020956103b09260016103a993017fcc2405183abd2617bf608d036ee54c2dd17439649ad0605281e242eaf931ebfd55610c54565b9083610dc0565b6040805160ff9390931683526001600160a01b0391821686840152931692339184917f9333d5ef1b16afb45543c753d0d3b3bda62c5901d20756edb6d784185417ec5f91a4604051908152f35b634e487b7160e01b5f52601160045260245ffd5b61042b91945060203d6020116101985761018a8183610c32565b9285610349565b9291906104486104428b88610c54565b90610d77565b604051610456606082610c32565b602a8152602081019060403683378051156107aa57603082538051600110156107aa57607860218201536040918251936104908486610c32565b601085526f181899199a1a9b1b9c1cb0b131b232b360811b60208601526001600160a01b0316936029855b6001821161076957505050610529604d8451809360208201957f417574686f72697a65204361705369676e2077616c6c6574206465706c6f796d87526c032b73a103337b91022a7a09d1609d1b888401525180918484015e81015f838201520301601f198101835282610c32565b8051915f8372184f03e93ff9f4daa797ed6e38ed64bf6a1f0160401b811015610747575b806d04ee2d6d415b85acef8100000000600a92101561072c575b662386f26fc10000811015610718575b6305f5e100811015610707575b6127108110156106f8575b60648110156106ea575b10156106e2575b6001810193600a60216105ca6105b588610d5b565b976105c28a51998a610c32565b808952610d5b565b602088019490601f19013686378701015b5f1901916f181899199a1a9b1b9c1cb0b131b232b360811b8282061a83530490811561060957600a906105db565b5050603a61066792865194859360208501977f19457468657265756d205369676e6564204d6573736167653a0a00000000000089525180918587015e840190838201905f8252519283915e01015f815203601f198101835282610c32565b519020610677606489018a610c54565b92909161068f61068685610d5b565b92519283610c32565b83825236848401116101aa575f6020856106bd966106b496838701378401015261100a565b90929192611044565b6001600160a01b0316036106d3579091926102d4565b6319f60c1f60e31b5f5260045ffd5b6001016105a0565b606460029104920191610599565b6127106004910492019161058f565b6305f5e10060089104920191610584565b662386f26fc1000060109104920191610577565b6d04ee2d6d415b85acef810000000060209104920191610567565b5084905072184f03e93ff9f4daa797ed6e38ed64bf6a1f0160401b840461054d565b6001600160f81b031961077f600f831685610ff9565b51165f1a61078d8387610ff9565b5360041c60016001609c1b03169080156103fd575f1901906104bb565b634e487b7160e01b5f52603260045260245ffd5b634b9d26e960e11b5f5260045ffd5b5f915060018a036107ee576040146102cb57634b9d26e960e11b5f5260045ffd5b5f915060028a14610800575b506102cb565b6014036107be578c6107fa565b6309cb704d60e01b5f5260045ffd5b346101aa575f3660031901126101aa5760207fcc2405183abd2617bf608d036ee54c2dd17439649ad0605281e242eaf931ebfd54604051908152f35b346101aa5760403660031901126101aa57610871610b74565b610879610b8a565b60ff5f5160206111475f395f51905f5254166109d2576001600160a01b0382169081156109c3576001600160a01b03169182156109b4576108b990610bff565b600160ff195f5160206111475f395f51905f525416175f5160206111475f395f51905f5255815f525f5160206111275f395f51905f5260205260405f20600181541790556040516020810181811067ffffffffffffffff8211176109a057604052636a0ccc8d60e01b81525f5b60018110156109785760019063ffffffff60e01b8160051b840151165f527fce1c17acaaa67de66e928cd49c8f658667a825223bee6fda99a14908362bcdab60205260405f2082815417905501610926565b50507f0725e9092c54720b6a637f0cafa297dc0ca830930b90fa9e889bda32014e934c5f80a3005b634e487b7160e01b5f52604160045260245ffd5b631c45d43d60e01b5f5260045ffd5b63e562e14560e01b5f5260045ffd5b632dcaa8ef60e01b5f5260045ffd5b346101aa575f3660031901126101aa5760408051636a0ccc8d60e01b60208201908152637d60736760e01b602483015263a9a7a63960e01b6028830152630fb278b360e31b602c830152632d04718160e01b6030830152633a2dead160e11b603483015263392e53cd60e01b6038830152601c82529190610a63603c82610c32565b8151928391602083525180918160208501528484015e5f828201840152601f01601f19168101030190f35b346101aa575f3660031901126101aa57602060ff5f5160206111475f395f51905f5254166040519015158152f35b346101aa5760203660031901126101aa57610ad5610b74565b906001600160e01b031916610aea8133610d0a565b15610b5e57506001600160a01b03811615610b0a57610b0890610bff565b005b60405162461bcd60e51b815260206004820152602660248201527f57616c6c6574466163746f72793a20496e76616c696420666163746f7279206160448201526564647265737360d01b6064820152608490fd5b631d64bc3360e11b5f523360045260245260445ffd5b600435906001600160a01b03821682036101aa57565b602435906001600160a01b03821682036101aa57565b9181601f840112156101aa5782359167ffffffffffffffff83116101aa576020808501948460051b0101116101aa57565b9181601f840112156101aa5782359167ffffffffffffffff83116101aa57602083818601950101116101aa57565b5f5160206111475f395f51905f528054610100600160a81b03191660089290921b610100600160a81b0316919091179055565b90601f8019910116810190811067ffffffffffffffff8211176109a057604052565b903590601e19813603018212156101aa570180359067ffffffffffffffff82116101aa576020019181360383136101aa57565b908160209103126101aa57516001600160a01b03811681036101aa5790565b916020908281520191905f905b808210610cc05750505090565b90919283359060018060a01b0382168092036101aa57602081600193829352019401920190610cb3565b908060209392818452848401375f828201840152601f01601f1916010190565b81610d1491610dfd565b610d55577f511915e52b7f9e690b9fdc662acaf5600fd3722c87eb951d3abd26e93a784dca5c9060ff8216610d495750505f90565b610d5291610fa4565b90565b50600190565b67ffffffffffffffff81116109a057601f01601f191660200190565b35906bffffffffffffffffffffffff1982169160148210610d9b575b505060601c90565b6bffffffffffffffffffffffff1960149290920360031b82901b161690505f80610d93565b6003811015610de9578015908115610dde575b50610d775750505f90565b60029150145f610dd3565b634e487b7160e01b5f52602160045260245ffd5b7fce1c17acaaa67de66e928cd49c8f658667a825223bee6fda99a14908362bcdac546001600160a01b031680610ef9575b5060018060a01b0381165f525f5160206111275f395f51905f5260205260405f20549163ffffffff60e01b165f527fce1c17acaaa67de66e928cd49c8f658667a825223bee6fda99a14908362bcdab60205260405f2054908115610ec8576001600160a01b03165f9081525f5160206111275f395f51905f5260205260409020546001161515918215610ec057505090565b161515919050565b6001600160a01b03165f9081525f5160206111275f395f51905f52602052604090205460011615159150610d529050565b6040805163b700961360e01b81526001600160a01b03841660048201523060248201526001600160e01b03198516604482015291829060649082905afa5f9181610f55575b5015610e2e57610f4e575f610e2e565b5050600190565b9091506040813d604011610f9c575b81610f7160409383610c32565b810103126101aa5780519081151582036101aa576020015163ffffffff8116036101aa57905f610f3e565b3d9150610f64565b60ff16908115610f4e5763ffffffff60e01b165f527fce1c17acaaa67de66e928cd49c8f658667a825223bee6fda99a14908362bcdab60205260405f2054908115610ff3576001901b16151590565b50505f90565b9081518110156107aa570160200190565b815191906041830361103a576110339250602082015190606060408401519301515f1a906110a4565b9192909190565b50505f9160029190565b6004811015610de95780611056575050565b6001810361106d5763f645eedf60e01b5f5260045ffd5b60028103611088575063fce698f760e01b5f5260045260245ffd5b6003146110925750565b6335e2f38360e21b5f5260045260245ffd5b91907f7fffffffffffffffffffffffffffffff5d576e7357a4501ddfe92f46681b20a0841161111b579160209360809260ff5f9560405194855216868401526040830152606082015282805260015afa1561019f575f516001600160a01b0381161561111157905f905f90565b505f906001905f90565b5050505f916003919056fece1c17acaaa67de66e928cd49c8f658667a825223bee6fda99a14908362bcdaacc2405183abd2617bf608d036ee54c2dd17439649ad0605281e242eaf931ebfca26469706673582212200c0f56fe0859c361167ce209a7eb49a68b808fd8ec26291f6a1a57571ef10b3a64736f6c634300081e0033","linkReferences":{}},"methodIdentifiers":{"WalletFactoryCore_init(address,address)":"6a0ccc8d","createWallet((uint8,bytes,bytes32,bytes),address[],address,bytes)":"7d607367","getDiamondFactory()":"7d93c598","getWalletCount()":"745bd5a2","isInitialized()":"392e53cd","packedSelectors()":"3e62267c","predictWalletAddress(address[],address,bytes,bytes32)":"a9a7a639","setDiamondFactory(address)":"2d047181"},"id":368}