{"abi":[{"type":"function","name":"createDocument","inputs":[{"name":"documentId","type":"bytes32","internalType":"bytes32"},{"name":"contentHash","type":"bytes32","internalType":"bytes32"},{"name":"storageURI","type":"string","internalType":"string"},{"name":"category","type":"string","internalType":"string"},{"name":"requiredSigners","type":"address[]","internalType":"address[]"},{"name":"title","type":"string","internalType":"string"}],"outputs":[],"stateMutability":"nonpayable"},{"type":"function","name":"getAllDocuments","inputs":[],"outputs":[{"name":"","type":"bytes32[]","internalType":"bytes32[]"}],"stateMutability":"view"},{"type":"function","name":"getDocument","inputs":[{"name":"documentId","type":"bytes32","internalType":"bytes32"}],"outputs":[{"name":"contentHash","type":"bytes32","internalType":"bytes32"},{"name":"storageURI","type":"string","internalType":"string"},{"name":"creator","type":"address","internalType":"address"},{"name":"createdAt","type":"uint256","internalType":"uint256"},{"name":"requiredSigners","type":"address[]","internalType":"address[]"},{"name":"title","type":"string","internalType":"string"},{"name":"category","type":"string","internalType":"string"}],"stateMutability":"view"},{"type":"function","name":"getDocumentsByCategory","inputs":[{"name":"category","type":"string","internalType":"string"}],"outputs":[{"name":"","type":"bytes32[]","internalType":"bytes32[]"}],"stateMutability":"view"},{"type":"function","name":"hasDocumentCategory","inputs":[{"name":"category","type":"string","internalType":"string"}],"outputs":[{"name":"","type":"bool","internalType":"bool"}],"stateMutability":"view"},{"type":"function","name":"isDocumentSigned","inputs":[{"name":"signer","type":"address","internalType":"address"},{"name":"documentId","type":"bytes32","internalType":"bytes32"}],"outputs":[{"name":"hasSigned","type":"bool","internalType":"bool"},{"name":"signedAt","type":"uint256","internalType":"uint256"}],"stateMutability":"view"},{"type":"function","name":"signDocumentFor","inputs":[{"name":"documentId","type":"bytes32","internalType":"bytes32"},{"name":"signer","type":"address","internalType":"address"}],"outputs":[],"stateMutability":"nonpayable"},{"type":"event","name":"DocumentCreated","inputs":[{"name":"documentId","type":"bytes32","indexed":true,"internalType":"bytes32"},{"name":"creator","type":"address","indexed":true,"internalType":"address"},{"name":"category","type":"string","indexed":false,"internalType":"string"},{"name":"requiredSigners","type":"address[]","indexed":false,"internalType":"address[]"},{"name":"title","type":"string","indexed":false,"internalType":"string"}],"anonymous":false},{"type":"event","name":"DocumentSigned","inputs":[{"name":"documentId","type":"bytes32","indexed":true,"internalType":"bytes32"},{"name":"signer","type":"address","indexed":true,"internalType":"address"},{"name":"timestamp","type":"uint256","indexed":false,"internalType":"uint256"}],"anonymous":false},{"type":"event","name":"DocumentUploaded","inputs":[{"name":"documentId","type":"bytes32","indexed":true,"internalType":"bytes32"},{"name":"contentHash","type":"bytes32","indexed":true,"internalType":"bytes32"},{"name":"creator","type":"address","indexed":true,"internalType":"address"}],"anonymous":false},{"type":"error","name":"WalletDocuments_AlreadySigned","inputs":[]},{"type":"error","name":"WalletDocuments_DocumentAlreadyExists","inputs":[]},{"type":"error","name":"WalletDocuments_DocumentNotFound","inputs":[]},{"type":"error","name":"WalletDocuments_InvalidDocumentId","inputs":[]},{"type":"error","name":"WalletDocuments_NotAuthorizedSigner","inputs":[]}],"bytecode":{"object":"0x60808060405234601557610e00908161001a8239f35b5f80fdfe60806040526004361015610011575f80fd5b5f3560e01c8063385dbda4146109ad57806375ca9a3c1461096d5780639fa5f50b146108ff578063b10d6b41146107cc578063beeb2a5714610782578063ce262095146106f65763ea990d5314610066575f80fd5b346106d25760c03660031901126106d2576024356004356044356001600160401b0381116106d25761009c903690600401610b0f565b916064356001600160401b0381116106d2576100bc903690600401610b0f565b608435916001600160401b0383116106d257366023840112156106d2578260040135926001600160401b03841161047f578360051b90604051946101036020840187610aee565b855260246020860192820101903682116106d257602401915b8183106106d65750505060a4356001600160401b0381116106d257610145903690600401610b0f565b9484156106c357845f525f516020610d8b5f395f51905f5260205260ff600760405f200154166106b45760405161010081018181106001600160401b0382111761047f576040528281526020810191825260408101338152606082014281526080830187815260a08401918a835260c085019388855260e0860196600188528b5f525f516020610d8b5f395f51905f5260205260405f20965187556001870190518051906001600160401b03821161047f5781906102038454610c9c565b601f8111610684575b50602090601f8311600114610621575f92610616575b50508160011b915f199060031b1c19161790555b516002860180546001600160a01b0319166001600160a01b03929092169190911790555160038501555180519060048501906001600160401b03831161047f57600160401b831161047f5760209082548484558085106105fb575b5001905f5260205f205f5b8381106105de57505050506005830190518051906001600160401b03821161047f5781906102ca8454610c9c565b601f81116105ae575b50602090601f831160011461054b575f92610540575b50508160011b915f199060031b1c19161790555b51805160068301916001600160401b03821161047f5761031d8354610c9c565b601f8111610505575b50602090601f831160011461049e576007949392915f9183610493575b50508160011b915f199060031b1c19161790555b019051151560ff8019835416911617905561037182610c5e565b8054600160401b81101561047f5761039381879360016103a994018155610c35565b819391549060031b91821b915f19901b19161790565b90555f516020610dab5f395f51905f525492600160401b84101561047f5761046b61047a918661041d6103938860017fba69960fb83db7d36bb61693585ea8ef7c8e64d54fde4d9872577c80f9ccae3a9a015f516020610dab5f395f51905f52555f516020610dab5f395f51905f52610c35565b905561045d60405195869533908a7fff2403b26088b665800aa5c25a6ce82dc16e914df0faaaeeddcd1de432358cf95f80a4606086526060860190610b9d565b908482036020860152610bc1565b82810360408401523396610b9d565b0390a3005b634e487b7160e01b5f52604160045260245ffd5b015190505f80610343565b90601f19831691845f52815f20925f5b8181106104ed5750916001939185600798979694106104d5575b505050811b019055610357565b01515f1960f88460031b161c191690555f80806104c8565b929360206001819287860151815501950193016104ae565b61053090845f5260205f20601f850160051c81019160208610610536575b601f0160051c0190610d74565b5f610326565b9091508190610523565b015190505f806102e9565b5f8581528281209350601f198516905b818110610596575090846001959493921061057e575b505050811b0190556102fd565b01515f1960f88460031b161c191690555f8080610571565b9293602060018192878601518155019501930161055b565b6105d890855f5260205f20601f850160051c8101916020861061053657601f0160051c0190610d74565b5f6102d3565b82516001600160a01b03168183015560209092019160010161029c565b61061090845f5285845f209182019101610d74565b5f610291565b015190505f80610222565b5f8581528281209350601f198516905b81811061066c5750908460019594939210610654575b505050811b019055610236565b01515f1960f88460031b161c191690555f8080610647565b92936020600181928786015181550195019301610631565b6106ae90855f5260205f20601f850160051c8101916020861061053657601f0160051c0190610d74565b5f61020c565b631bc5c3a760e01b5f5260045ffd5b633e69943360e01b5f5260045ffd5b5f80fd5b82356001600160a01b03811681036106d25781526020928301920161011c565b346106d25760203660031901126106d2576004356001600160401b0381116106d25761072961072e913690600401610b0f565b610c5e565b60405190805480835260208301915f5260205f20905f5b81811061076c576107688561075c81870382610aee565b60405191829182610b64565b0390f35b8254845260209093019260019283019201610745565b346106d25760403660031901126106d2576004356001600160a01b03811681036106d2576107af90610bfd565b6024355f526020526040805f205481519080151582526020820152f35b346106d25760203660031901126106d2576004355f525f516020610d8b5f395f51905f5260205260405f2060ff600782015416156108f057805460028201546003830154600484019390916001600160a01b031661082c60018301610cd4565b946040519081602082549182815201915f5260205f20905f5b8181106108d1575050506108c392826108686107689796946108b5940382610aee565b610880600661087960058701610cd4565b9501610cd4565b9561089d6040519a8b9a8b5260e060208c015260e08b0190610b9d565b9260408a015260608901528782036080890152610bc1565b9085820360a0870152610b9d565b9083820360c0850152610b9d565b82546001600160a01b0316845260209093019260019283019201610845565b632b6a7dad60e21b5f5260045ffd5b346106d2575f3660031901126106d2576040515f516020610dab5f395f51905f525480825260208201905f516020610dab5f395f51905f525f5260205f20905f5b818110610957576107688561075c81870382610aee565b8254845260209093019260019283019201610940565b346106d25760203660031901126106d2576004356001600160401b0381116106d2576109a26107296020923690600401610b0f565b541515604051908152f35b346106d25760403660031901126106d2576024356001600160a01b03811690600435908281036106d257815f525f516020610d8b5f395f51905f5260205260ff600760405f20015416156108f057610a0481610bfd565b825f5260205260405f2054610adf57815f525f516020610d8b5f395f51905f52602052600460405f2001805480610a79575b5050610a4190610bfd565b815f526020524260405f20557fcb4765881b79e3f3e656357a384db0c5ebdbdad01ab9fbc82ea10f38b7730dbc6020604051428152a3005b845f925f5b838110610aa5575b5050505015610a96578380610a36565b630e980da360e31b5f5260045ffd5b82610ab08284610c35565b905460039190911b1c6001600160a01b031614610acf57600101610a7e565b5050505050600184848180610a86565b635bc15ad560e11b5f5260045ffd5b90601f801991011681019081106001600160401b0382111761047f57604052565b81601f820112156106d2578035906001600160401b03821161047f5760405192610b43601f8401601f191660200185610aee565b828452602083830101116106d257815f926020809301838601378301015290565b60206040818301928281528451809452019201905f5b818110610b875750505090565b8251845260209384019390920191600101610b7a565b805180835260209291819084018484015e5f828201840152601f01601f1916010190565b90602080835192838152019201905f5b818110610bde5750505090565b82516001600160a01b0316845260209384019390920191600101610bd1565b6001600160a01b03165f9081527fccb486fbd1a55a5ca959a0cad88f4854b635a54c72b6425f3bc486a7bf9e1c016020526040902090565b8054821015610c4a575f5260205f2001905f90565b634e487b7160e01b5f52603260045260245ffd5b60208091604051928184925191829101835e81017fccb486fbd1a55a5ca959a0cad88f4854b635a54c72b6425f3bc486a7bf9e1c0281520301902090565b90600182811c92168015610cca575b6020831014610cb657565b634e487b7160e01b5f52602260045260245ffd5b91607f1691610cab565b9060405191825f825492610ce784610c9c565b8084529360018116908115610d525750600114610d0e575b50610d0c92500383610aee565b565b90505f9291925260205f20905f915b818310610d36575050906020610d0c928201015f610cff565b6020919350806001915483858901015201910190918492610d1d565b905060209250610d0c94915060ff191682840152151560051b8201015f610cff565b818110610d7f575050565b5f8155600101610d7456feccb486fbd1a55a5ca959a0cad88f4854b635a54c72b6425f3bc486a7bf9e1c00ccb486fbd1a55a5ca959a0cad88f4854b635a54c72b6425f3bc486a7bf9e1c03a2646970667358221220399f0264661dbb5cb98b193393d8511ee6fa18d6833ce35f3f159671212de53664736f6c634300081e0033","linkReferences":{}},"methodIdentifiers":{"createDocument(bytes32,bytes32,string,string,address[],string)":"ea990d53","getAllDocuments()":"9fa5f50b","getDocument(bytes32)":"b10d6b41","getDocumentsByCategory(string)":"ce262095","hasDocumentCategory(string)":"75ca9a3c","isDocumentSigned(address,bytes32)":"beeb2a57","signDocumentFor(bytes32,address)":"385dbda4"},"id":156}