{"abi":[{"type":"function","name":"DISCLOSURE_THRESHOLD","inputs":[],"outputs":[{"name":"","type":"uint256","internalType":"uint256"}],"stateMutability":"pure"},{"type":"function","name":"MINIMUM_AGGREGATE_LIMIT","inputs":[],"outputs":[{"name":"","type":"uint256","internalType":"uint256"}],"stateMutability":"pure"},{"type":"function","name":"PERCENTAGE_LIMIT_BPS","inputs":[],"outputs":[{"name":"","type":"uint256","internalType":"uint256"}],"stateMutability":"pure"},{"type":"function","name":"WalletRule701_init","inputs":[{"name":"admin","type":"address","internalType":"address"}],"outputs":[],"stateMutability":"nonpayable"},{"type":"function","name":"authorizePlan","inputs":[{"name":"planAddress","type":"address","internalType":"address"}],"outputs":[],"stateMutability":"nonpayable"},{"type":"function","name":"get12MonthAggregateValue","inputs":[],"outputs":[{"name":"aggregateValue","type":"uint256","internalType":"uint256"}],"stateMutability":"view"},{"type":"function","name":"getCompanyMetrics","inputs":[],"outputs":[{"name":"metrics","type":"tuple","internalType":"struct IWalletRule701.CompanyMetrics","components":[{"name":"totalAssets","type":"uint256","internalType":"uint256"},{"name":"asOfDate","type":"uint256","internalType":"uint256"},{"name":"reportHash","type":"bytes32","internalType":"bytes32"}]}],"stateMutability":"view"},{"type":"function","name":"getCurrentLimit","inputs":[],"outputs":[{"name":"limit","type":"uint256","internalType":"uint256"}],"stateMutability":"view"},{"type":"function","name":"getDisclosureStatus","inputs":[],"outputs":[{"name":"provided","type":"bool","internalType":"bool"},{"name":"disclosureHash","type":"bytes32","internalType":"bytes32"}],"stateMutability":"view"},{"type":"function","name":"getGrantStatsByType","inputs":[{"name":"grantType","type":"string","internalType":"string"}],"outputs":[{"name":"count","type":"uint256","internalType":"uint256"},{"name":"value","type":"uint256","internalType":"uint256"}],"stateMutability":"view"},{"type":"function","name":"getGrantsInPeriod","inputs":[],"outputs":[{"name":"grants","type":"tuple[]","internalType":"struct IWalletRule701.Rule701Grant[]","components":[{"name":"grantId","type":"uint256","internalType":"uint256"},{"name":"tokenAddress","type":"address","internalType":"address"},{"name":"planAddress","type":"address","internalType":"address"},{"name":"grantDate","type":"uint256","internalType":"uint256"},{"name":"grantValue","type":"uint256","internalType":"uint256"},{"name":"grantType","type":"string","internalType":"string"},{"name":"recipient","type":"address","internalType":"address"}]}],"stateMutability":"view"},{"type":"function","name":"getRegisteredEquityTokens","inputs":[],"outputs":[{"name":"tokens","type":"tuple[]","internalType":"struct IWalletRule701.RegisteredEquityToken[]","components":[{"name":"tokenAddress","type":"address","internalType":"address"},{"name":"tokenClass","type":"string","internalType":"string"}]}],"stateMutability":"view"},{"type":"function","name":"getRemainingCapacity","inputs":[],"outputs":[{"name":"capacity","type":"uint256","internalType":"uint256"}],"stateMutability":"view"},{"type":"function","name":"getSecuritiesLimitForToken","inputs":[{"name":"tokenAddress","type":"address","internalType":"address"}],"outputs":[{"name":"limit","type":"uint256","internalType":"uint256"}],"stateMutability":"view"},{"type":"function","name":"isDisclosureRequired","inputs":[],"outputs":[{"name":"required","type":"bool","internalType":"bool"}],"stateMutability":"view"},{"type":"function","name":"isPlanAuthorized","inputs":[{"name":"planAddress","type":"address","internalType":"address"}],"outputs":[{"name":"authorized","type":"bool","internalType":"bool"}],"stateMutability":"view"},{"type":"function","name":"packedSelectors","inputs":[],"outputs":[{"name":"","type":"bytes","internalType":"bytes"}],"stateMutability":"pure"},{"type":"function","name":"provideDisclosure","inputs":[{"name":"disclosureHash","type":"bytes32","internalType":"bytes32"}],"outputs":[],"stateMutability":"nonpayable"},{"type":"function","name":"registerEquityToken","inputs":[{"name":"tokenAddress","type":"address","internalType":"address"},{"name":"tokenClass","type":"string","internalType":"string"}],"outputs":[],"stateMutability":"nonpayable"},{"type":"function","name":"registerGrant","inputs":[{"name":"tokenAddress","type":"address","internalType":"address"},{"name":"grantId","type":"uint256","internalType":"uint256"},{"name":"grantValue","type":"uint256","internalType":"uint256"},{"name":"grantType","type":"string","internalType":"string"},{"name":"recipient","type":"address","internalType":"address"}],"outputs":[],"stateMutability":"nonpayable"},{"type":"function","name":"revokePlanAuthorization","inputs":[{"name":"planAddress","type":"address","internalType":"address"}],"outputs":[],"stateMutability":"nonpayable"},{"type":"function","name":"unregisterEquityToken","inputs":[{"name":"tokenAddress","type":"address","internalType":"address"}],"outputs":[],"stateMutability":"nonpayable"},{"type":"function","name":"updateCompanyMetrics","inputs":[{"name":"totalAssets","type":"uint256","internalType":"uint256"},{"name":"reportHash","type":"bytes32","internalType":"bytes32"}],"outputs":[],"stateMutability":"nonpayable"},{"type":"function","name":"validateGrant","inputs":[{"name":"tokenAddress","type":"address","internalType":"address"},{"name":"grantValue","type":"uint256","internalType":"uint256"}],"outputs":[{"name":"allowed","type":"bool","internalType":"bool"},{"name":"remainingCapacity","type":"uint256","internalType":"uint256"}],"stateMutability":"view"},{"type":"event","name":"CompanyMetricsUpdated","inputs":[{"name":"totalAssets","type":"uint256","indexed":false,"internalType":"uint256"},{"name":"asOfDate","type":"uint256","indexed":false,"internalType":"uint256"},{"name":"reportHash","type":"bytes32","indexed":false,"internalType":"bytes32"}],"anonymous":false},{"type":"event","name":"DisclosureProvided","inputs":[{"name":"disclosureHash","type":"bytes32","indexed":false,"internalType":"bytes32"}],"anonymous":false},{"type":"event","name":"DisclosureThresholdCrossed","inputs":[{"name":"aggregateValue","type":"uint256","indexed":false,"internalType":"uint256"},{"name":"threshold","type":"uint256","indexed":false,"internalType":"uint256"}],"anonymous":false},{"type":"event","name":"EquityTokenRegistered","inputs":[{"name":"tokenAddress","type":"address","indexed":true,"internalType":"address"},{"name":"tokenClass","type":"string","indexed":false,"internalType":"string"}],"anonymous":false},{"type":"event","name":"EquityTokenUnregistered","inputs":[{"name":"tokenAddress","type":"address","indexed":true,"internalType":"address"}],"anonymous":false},{"type":"event","name":"Rule701GrantRegistered","inputs":[{"name":"grantId","type":"uint256","indexed":true,"internalType":"uint256"},{"name":"tokenAddress","type":"address","indexed":true,"internalType":"address"},{"name":"planAddress","type":"address","indexed":true,"internalType":"address"},{"name":"recipient","type":"address","indexed":false,"internalType":"address"},{"name":"grantValue","type":"uint256","indexed":false,"internalType":"uint256"},{"name":"grantType","type":"string","indexed":false,"internalType":"string"},{"name":"newAggregateValue","type":"uint256","indexed":false,"internalType":"uint256"}],"anonymous":false},{"type":"event","name":"UserRoleUpdated","inputs":[{"name":"user","type":"address","indexed":true,"internalType":"address"},{"name":"role","type":"uint8","indexed":true,"internalType":"uint8"},{"name":"enabled","type":"bool","indexed":false,"internalType":"bool"}],"anonymous":false},{"type":"error","name":"AccessControl_CallerIsNotAuthorized","inputs":[{"name":"caller","type":"address","internalType":"address"},{"name":"functionSig","type":"bytes4","internalType":"bytes4"}]},{"type":"error","name":"Rule701_ExceedsLimit","inputs":[]},{"type":"error","name":"Rule701_InvalidGrantValue","inputs":[]},{"type":"error","name":"Rule701_InvalidTotalAssets","inputs":[]},{"type":"error","name":"Rule701_PlanNotAuthorized","inputs":[]},{"type":"error","name":"Rule701_StaleMetrics","inputs":[]},{"type":"error","name":"Rule701_TokenAlreadyRegistered","inputs":[]},{"type":"error","name":"Rule701_TokenNotRegistered","inputs":[]}],"bytecode":{"object":"0x6080806040523460155761202b908161001a8239f35b5f80fdfe60806040526004361015610011575f80fd5b5f358060e01c9081630a95bcfd146113985781631397556d146113675781632e0de514146112a45781633885794514610edb5781633e62267c14610d6d5781634453a8fa14610b185781634d2b6fda14610af857816351a3eacc14610ace57816353ad195514610a6757816366ba281b14610a445781636ef817e3146109f85781637533637d146109d957816376e4e521146109a45781638538ffc8146108cd57816386ff61211461066257816387be0faf14610648578163a3228ead14610535578163aaf355b314610432578163ac3c9c4014610353578163ad63095d1461030b578163ae494a8b146102e9578163b2e6e3a7146102cd578163c30233f01461026b575063c9f1727914610124575f80fd5b34610267575f366003190112610267575f516020611f965f395f51905f525461014c81611a00565b9061015a60405192836118a2565b8082525f516020611f965f395f51905f525f9081526020830191907f040c65c646ca61defa1019668e757e1a8dfd8d011cee2d6723e8560f070a20a6835b83831061021d57848660405191829160208301906020845251809152604083019060408160051b85010192915f905b8282106101d657505050500390f35b9193600191939550602061020d8192603f198a82030186526040838a51878060a01b038151168452015191818582015201906115b2565b96019201920185949391926101c7565b6002602060019260405161023081611887565b848060a01b0386541681526040516102558161024e81898b01611a2b565b03826118a2565b83820152815201920192019190610198565b5f80fd5b346102675760203660031901126102675761028461156f565b6001600160e01b03199091169061029b8233611afd565b156102b6576102a99061160e565b805460ff19166001179055005b50631d64bc3360e11b5f523360045260245260445ffd5b34610267575f3660031901126102675760206040516105dc8152f35b34610267575f366003190112610267576020610303611b4b565b604051908152f35b346102675760203660031901126102675761032461156f565b6001600160e01b03199091169061033b8233611afd565b156102b6576103499061160e565b805460ff19169055005b3461026757602036600319011261026757600435906001600160e01b03191661037c8133611afd565b1561041c577f643dc8ea021381eee0587d18318dcb0fb4d73fed2b40da07c1526ad62d98655b602083600160ff197f35d37f2c545b82b16b9dfe8ae37b5ce0365fe2e79a1c180dd34df0577e6222795416177f35d37f2c545b82b16b9dfe8ae37b5ce0365fe2e79a1c180dd34df0577e62227955807f35d37f2c545b82b16b9dfe8ae37b5ce0365fe2e79a1c180dd34df0577e62227a55604051908152a1005b631d64bc3360e11b5f523360045260245260445ffd5b346102675760403660031901126102675760043590602435906001600160e01b03191661045f8133611afd565b1561041c57508115610526577f1d6c32df7384ebb60db0de8283bfe144b24c5eb8dfd5a0a685c59c390bf6714d91816060926040805161049e81611851565b8481524260208201520152817f35d37f2c545b82b16b9dfe8ae37b5ce0365fe2e79a1c180dd34df0577e62227155427f35d37f2c545b82b16b9dfe8ae37b5ce0365fe2e79a1c180dd34df0577e62227255807f35d37f2c545b82b16b9dfe8ae37b5ce0365fe2e79a1c180dd34df0577e622273556040519182524260208301526040820152a1005b630470251d60e11b5f5260045ffd5b34610267576020366003190112610267576004356001600160401b03811161026757610565903690600401611585565b5f905f906301e1337f19420193428511610634576105849136916118d0565b602081519101205f935f516020611fd65f395f51905f5254945b8581106105b5576040858582519182526020820152f35b8160036105c183611915565b500154101580610606575b6105d9575b60010161059e565b92936105fe6105e96001926119f2565b9560046105f587611915565b500154906118c3565b9390506105d1565b5082600561062761061684611915565b5061024e6040518094819301611a2b565b60208151910120146105cc565b634e487b7160e01b5f52601160045260245ffd5b34610267575f366003190112610267576020610303611aac565b34610267575f366003190112610267576301e1337f194201428111610634575f516020611fd65f395f51905f52545f91825b82811061089b57506106a583611a00565b926106b360405194856118a2565b8084526106c2601f1991611a00565b015f5b8181106108595750505f905f5b83811061079b57846040518091602082016020835281518091526040830190602060408260051b8601019301915f905b82821061071157505050500390f35b919360019193955060208091603f1989820301855287519081518152848060a01b03838301511683820152848060a01b036040830151166040820152606082015160608201526080820151608082015260c061077c60a084015160e060a085015260e08401906115b2565b9281878060a01b03910151169101529601920192018594939192610702565b808260036107aa600194611915565b50015410156107ba575b016106d2565b6108536107c682611915565b50946107d1816119f2565b95604051906107df8261186c565b80548252858060a01b0386820154166020830152858060a01b036002820154166040830152600381015460608301526004810154608083015260405161082c8161024e8160058601611a2b565b60a08301526006868060a01b039101541660c082015261084c828a611a17565b5287611a17565b506107b4565b6020906040516108688161186c565b5f81525f838201525f60408201525f60608201525f6080820152606060a08201525f60c0820152828288010152016106c5565b8160036108a783611915565b50015410156108b9575b600101610694565b926108c56001916119f2565b9390506108b1565b34610267576020366003190112610267576108e661156f565b7f35d37f2c545b82b16b9dfe8ae37b5ce0365fe2e79a1c180dd34df0577e622270549060ff821661099557600160ff199290921682177f35d37f2c545b82b16b9dfe8ae37b5ce0365fe2e79a1c180dd34df0577e622270556001600160a01b03165f8181525f516020611fb65f395f51905f52602090815260408083208054861790555193845290927f4c9bdd0c8e073eb5eda2250b18d8e5121ff27b62064fbeeeed4869bb99bc5bf29190a3005b63e2f1b1dd60e01b5f5260045ffd5b346102675760403660031901126102675760406109cb6109c261156f565b602435906119a5565b825191151582526020820152f35b34610267575f36600319011261026757602060405164e8d4a510008152f35b34610267575f366003190112610267575f516020611f965f395f51905f525415610a39576020610303610a2961168e565b50546001600160a01b0316611bce565b60206103035f611bce565b34610267576020366003190112610267576020610303610a6261156f565b611982565b34610267575f36600319011261026757604060ff7f35d37f2c545b82b16b9dfe8ae37b5ce0365fe2e79a1c180dd34df0577e62227954167f35d37f2c545b82b16b9dfe8ae37b5ce0365fe2e79a1c180dd34df0577e62227a54825191151582526020820152f35b34610267575f3660031901126102675760206509184e72a000610aef611b4b565b11604051908152f35b34610267575f3660031901126102675760206040516509184e72a0008152f35b3461026757604036600319011261026757610b3161156f565b6024356001600160401b03811161026757610b50903690600401611585565b926001600160e01b031916610b658133611afd565b1561041c575060ff610b76836115d6565b54166109955760405192610b8984611887565b6001600160a01b03831680855292610ba23683856118d0565b94602081019586525f516020611f965f395f51905f5254600160401b811015610d4657806001610be192015f516020611f965f395f51905f5255611646565b610d5a57905181546001600160a01b0319166001600160a01b0391909116178155945180519095600101906001600160401b038111610d4657610c2e81610c2884546116e5565b84611733565b6020601f8211600114610cbd5781610c8b949392610c84927fb4aff657c0caa19a7f0933cbc8d42babaec7e75762653ff0b6ff7603d2cf953c999a5f92610cb2575b50508160011b915f199060031b1c19161790565b90556115d6565b600160ff19825416179055610cad604051928392602084526020840191611962565b0390a2005b015190508a80610c70565b601f19821697835f52815f20985f5b818110610d2e5750986001928492610c8b9796957fb4aff657c0caa19a7f0933cbc8d42babaec7e75762653ff0b6ff7603d2cf953c9b9c10610d16575b505050811b0190556115d6565b01515f1960f88460031b161c19169055898080610d09565b838301518b556001909a019960209384019301610ccc565b634e487b7160e01b5f52604160045260245ffd5b634e487b7160e01b5f525f60045260245ffd5b34610267575f3660031901126102675760408051632695b7ed60e11b6020820152637533637d60e01b602482015263b2e6e3a760e01b60288201526310a71ff960e31b602c820152630c30233f60e41b603082015263ae494a8b60e01b6034820152630b83794560e21b6038820152636ef817e360e01b603c8201526353ad195560e01b9181019190915263a3228ead60e01b60448201526386ff612160e01b604882015263c9f1727960e01b604c8201526387be0faf60e01b60508201526366ba281b60e01b6054820152631468fab360e21b6058820152631397556d60e01b605c808301919091526302b0f27160e61b6060830152632229d47d60e11b6064830152633885794560e01b606883015263ad63095d60e01b606c830152630a95bcfd60e01b607083015263aaf355b360e01b60748301526376e4e52160e01b60788301528152610ed790610ec3607c826118a2565b6040519182916020835260208301906115b2565b0390f35b346102675760a036600319011261026757610ef461156f565b602435604435916064356001600160401b03811161026757610f1a903690600401611585565b90926084356001600160a01b0381169392908490036102675760ff610f3e3361160e565b5416156112955760ff610f50846115d6565b54161561128657851561127757610f65611b4b565b94610f6f84611bce565b610f7988886118c3565b116112685760405160208101903360601b825284603482015260348152610fa16054826118a2565b51902090604051610fb18161186c565b848152602081019560018060a01b031695868152604082013381526060830142815260808401908c8252610fe63689886118d0565b9260a0860193845260c08601948c86525f516020611fd65f395f51905f5254600160401b811015610d465780600161102d92015f516020611fd65f395f51905f5255611915565b979097610d5a57518755516001870180546001600160a01b03199081166001600160a01b03938416179091559151600288018054909316911617905551600385015551600484015551805160058401916001600160401b038211610d465761109f8261109985546116e5565b85611733565b602090601f83116001146112015791806110d29260069695945f926111f65750508160011b915f199060031b1c19161790565b90555b51910180546001600160a01b0319166001600160a01b03929092169190911790555f516020611fd65f395f51905f52545f19810193908411610634577ff8a0742acebbe94aca0e9af44f69f0afe127ca0f0e860986b15a4f8ce2a78c3d93611189935f527f35d37f2c545b82b16b9dfe8ae37b5ce0365fe2e79a1c180dd34df0577e62227560205260405f205561116c89896118c3565b986040519788526020880152608060408801526080870191611962565b938660608201528033950390a46509184e72a000821190816111e5575b506111ad57005b60407f26a022f9e4902ed017a3aae86818858c52927f5dabeb4951ebda35950ee218b39181519081526509184e72a0006020820152a1005b6509184e72a00091501115826111a6565b015190508f80610c70565b90601f19831691845f52815f20925f5b818110611250575091600193918560069897969410611238575b505050811b0190556110d5565b01515f1960f88460031b161c191690558e808061122b565b92936020600181928786015181550195019301611211565b63b94e0e3160e01b5f5260045ffd5b635e58e72360e11b5f5260045ffd5b63e113441b60e01b5f5260045ffd5b63684e055b60e01b5f5260045ffd5b34610267575f366003190112610267575f604080516112c281611851565b828152826020820152015260606040516112db81611851565b7f35d37f2c545b82b16b9dfe8ae37b5ce0365fe2e79a1c180dd34df0577e62227154908181527f35d37f2c545b82b16b9dfe8ae37b5ce0365fe2e79a1c180dd34df0577e622272546020820190815260407f35d37f2c545b82b16b9dfe8ae37b5ce0365fe2e79a1c180dd34df0577e622273549201918252604051928352516020830152516040820152f35b3461026757602036600319011261026757602060ff61138c61138761156f565b61160e565b54166040519015158152f35b34610267576020366003190112610267576113b161156f565b906001600160e01b0319166113c68133611afd565b1561041c575060ff6113d7826115d6565b541615611286576001600160a01b038116905f5b5f516020611f965f395f51905f525480821015611564578361140c83611646565b50546001600160a01b03161461142557506001016113eb565b5f1981019081116106345761143c61144391611646565b5091611646565b610d5a57818103611530575b50505f516020611f965f395f51905f5254801561151c575f19019061147382611646565b929092610d5a576001835f6114ab95550161148e81546116e5565b90816114d9575b50505f516020611f965f395f51905f52556115d6565b805460ff191690557f77365cea892bbb5788ebc83eb1ce95deb901ca0c68d4610cd65cf4f98e6a0a425f80a2005b81601f5f93116001146114f05750555b8480611495565b8183526020832061150c91601f0160051c81019060010161171d565b80825281602081209155556114e9565b634e487b7160e01b5f52603160045260245ffd5b815481546001600160a01b0319166001600160a01b039190911617815561155d9160019081019101611778565b828061144f565b50506114ab906115d6565b600435906001600160a01b038216820361026757565b9181601f84011215610267578235916001600160401b038311610267576020838186019501011161026757565b805180835260209291819084018484015e5f828201840152601f01601f1916010190565b6001600160a01b03165f9081527f35d37f2c545b82b16b9dfe8ae37b5ce0365fe2e79a1c180dd34df0577e6222776020526040902090565b6001600160a01b03165f9081527f35d37f2c545b82b16b9dfe8ae37b5ce0365fe2e79a1c180dd34df0577e6222786020526040902090565b5f516020611f965f395f51905f525481101561167a575f516020611f965f395f51905f525f5260205f209060011b01905f90565b634e487b7160e01b5f52603260045260245ffd5b5f516020611f965f395f51905f52541561167a575f516020611f965f395f51905f525f9081527f040c65c646ca61defa1019668e757e1a8dfd8d011cee2d6723e8560f070a20a691565b9190820391821161063457565b90600182811c92168015611713575b60208310146116ff57565b634e487b7160e01b5f52602260045260245ffd5b91607f16916116f4565b818110611728575050565b5f815560010161171d565b9190601f811161174257505050565b61176c925f5260205f20906020601f840160051c8301931061176e575b601f0160051c019061171d565b565b909150819061175f565b91909182811461184c5761178c83546116e5565b6001600160401b038111610d46576117a881610c2884546116e5565b5f93601f82116001146117e6576117d792939482915f926117db5750508160011b915f199060031b1c19161790565b9055565b015490505f80610c70565b601f198216905f5260205f2094835f5260205f20915f5b8181106118345750958360019596971061181c575b505050811b019055565b01545f1960f88460031b161c191690555f8080611812565b9192600180602092868b0154815501940192016117fd565b509050565b606081019081106001600160401b03821117610d4657604052565b60e081019081106001600160401b03821117610d4657604052565b604081019081106001600160401b03821117610d4657604052565b90601f801991011681019081106001600160401b03821117610d4657604052565b9190820180921161063457565b9291926001600160401b038211610d4657604051916118f9601f8201601f1916602001846118a2565b829481845281830111610267578281602093845f960137010152565b5f516020611fd65f395f51905f525481101561167a575f516020611fd65f395f51905f525f52600760205f20910201905f90565b805482101561167a575f52600760205f20910201905f90565b908060209392818452848401375f828201840152601f01601f1916010190565b60ff61198d826115d6565b5416156119a05761199d90611c99565b90565b505f90565b60ff6119b0826115d6565b5416156119ea576119c86119c2611b4b565b91611bce565b90818110156119e1576119da916116d8565b8091111591565b5050505f905f90565b50505f905f90565b5f1981146106345760010190565b6001600160401b038111610d465760051b60200190565b805182101561167a5760209160051b010190565b5f9291815491611a3a836116e5565b8083529260018116908115611a8f5750600114611a5657505050565b5f9081526020812093945091925b838310611a75575060209250010190565b600181602092949394548385870101520191019190611a64565b915050602093945060ff929192191683830152151560051b010190565b5f516020611f965f395f51905f525415611af757611ac861168e565b50546001600160a01b03165b611adf6119c2611b4b565b9081811015611af15761199d916116d8565b50505f90565b5f611ad4565b81611b0791611d9c565b611b45577f511915e52b7f9e690b9fdc662acaf5600fd3722c87eb951d3abd26e93a784dca5c9060ff8216611b3c5750505f90565b61199d91611f46565b50600190565b5f906301e1337f194201428111610634575f516020611fd65f395f51905f5254905f5b828110611b7a57505050565b816003611b94835f516020611fd65f395f51905f52611949565b5001541015611ba6575b600101611b6e565b93611bc660019160046105f5885f516020611fd65f395f51905f52611949565b949050611b9e565b9064e8d4a51000917f35d37f2c545b82b16b9dfe8ae37b5ce0365fe2e79a1c180dd34df0577e6222715480158015611c6c575b50506001600160a01b0381168015159081611c36575b50611c1f5750565b611c2890611c99565b828111611c325750565b9150565b90505f527f35d37f2c545b82b16b9dfe8ae37b5ce0365fe2e79a1c180dd34df0577e62227760205260ff60405f2054165f611c17565b6105dc82029182046105dc141715610634576127109004838111611c91575b80611c01565b92505f611c8b565b6040516318160ddd60e01b8152906001600160a01b0316602082600481845afa918215611d91575f92611d5d575b508115611af15760206004916040519283809263052f4c5360e51b82525afa5f9181611d29575b50611cf95750505f90565b80820291820403610634576105dc8102908082046105dc14901517156106345769021e19e0c9bab2400000900490565b9091506020813d602011611d55575b81611d45602093836118a2565b810103126102675751905f611cee565b3d9150611d38565b9091506020813d602011611d89575b81611d79602093836118a2565b810103126102675751905f611cc7565b3d9150611d6c565b6040513d5f823e3d90fd5b7fce1c17acaaa67de66e928cd49c8f658667a825223bee6fda99a14908362bcdac546001600160a01b031680611e9b575b506001600160a01b0381165f9081525f516020611fb65f395f51905f5260205260409020549163ffffffff60e01b165f527fce1c17acaaa67de66e928cd49c8f658667a825223bee6fda99a14908362bcdab60205260405f2054908115611e6a576001600160a01b03165f9081525f516020611fb65f395f51905f5260205260409020546001161515918215611e6257505090565b161515919050565b6001600160a01b03165f9081525f516020611fb65f395f51905f5260205260409020546001161515915061199d9050565b6040805163b700961360e01b81526001600160a01b03841660048201523060248201526001600160e01b03198516604482015291829060649082905afa5f9181611ef7575b5015611dcd57611ef0575f611dcd565b5050600190565b9091506040813d604011611f3e575b81611f13604093836118a2565b81010312610267578051908115158203610267576020015163ffffffff81160361026757905f611ee0565b3d9150611f06565b60ff16908115611ef05763ffffffff60e01b165f527fce1c17acaaa67de66e928cd49c8f658667a825223bee6fda99a14908362bcdab60205260405f2054908115611af1576001901b1615159056fe35d37f2c545b82b16b9dfe8ae37b5ce0365fe2e79a1c180dd34df0577e622276ce1c17acaaa67de66e928cd49c8f658667a825223bee6fda99a14908362bcdaa35d37f2c545b82b16b9dfe8ae37b5ce0365fe2e79a1c180dd34df0577e622274a2646970667358221220a7b22636c9481510dba56282983368d98f4a39a7c24b00a3574a04c582ed4f4b64736f6c634300081e0033","linkReferences":{}},"methodIdentifiers":{"DISCLOSURE_THRESHOLD()":"4d2b6fda","MINIMUM_AGGREGATE_LIMIT()":"7533637d","PERCENTAGE_LIMIT_BPS()":"b2e6e3a7","WalletRule701_init(address)":"8538ffc8","authorizePlan(address)":"c30233f0","get12MonthAggregateValue()":"ae494a8b","getCompanyMetrics()":"2e0de514","getCurrentLimit()":"6ef817e3","getDisclosureStatus()":"53ad1955","getGrantStatsByType(string)":"a3228ead","getGrantsInPeriod()":"86ff6121","getRegisteredEquityTokens()":"c9f17279","getRemainingCapacity()":"87be0faf","getSecuritiesLimitForToken(address)":"66ba281b","isDisclosureRequired()":"51a3eacc","isPlanAuthorized(address)":"1397556d","packedSelectors()":"3e62267c","provideDisclosure(bytes32)":"ac3c9c40","registerEquityToken(address,string)":"4453a8fa","registerGrant(address,uint256,uint256,string,address)":"38857945","revokePlanAuthorization(address)":"ad63095d","unregisterEquityToken(address)":"0a95bcfd","updateCompanyMetrics(uint256,bytes32)":"aaf355b3","validateGrant(address,uint256)":"76e4e521"},"id":351}