{"abi":[{"type":"receive","stateMutability":"payable"},{"type":"function","name":"WalletCore_init","inputs":[{"name":"owners","type":"bytes[]","internalType":"bytes[]"},{"name":"walletType","type":"string","internalType":"string"},{"name":"entryPoint_","type":"address","internalType":"address"}],"outputs":[],"stateMutability":"nonpayable"},{"type":"function","name":"activateEmergencyMode","inputs":[],"outputs":[],"stateMutability":"nonpayable"},{"type":"function","name":"addOwnerAddress","inputs":[{"name":"owner","type":"address","internalType":"address"}],"outputs":[],"stateMutability":"nonpayable"},{"type":"function","name":"addOwnerPublicKey","inputs":[{"name":"x","type":"bytes32","internalType":"bytes32"},{"name":"y","type":"bytes32","internalType":"bytes32"}],"outputs":[],"stateMutability":"nonpayable"},{"type":"function","name":"deactivateEmergencyMode","inputs":[],"outputs":[],"stateMutability":"nonpayable"},{"type":"function","name":"entryPoint","inputs":[],"outputs":[{"name":"","type":"address","internalType":"address"}],"stateMutability":"view"},{"type":"function","name":"execute","inputs":[{"name":"target","type":"address","internalType":"address"},{"name":"value","type":"uint256","internalType":"uint256"},{"name":"data","type":"bytes","internalType":"bytes"}],"outputs":[{"name":"success","type":"bool","internalType":"bool"},{"name":"result","type":"bytes","internalType":"bytes"}],"stateMutability":"nonpayable"},{"type":"function","name":"executeBatch","inputs":[{"name":"targets","type":"address[]","internalType":"address[]"},{"name":"values","type":"uint256[]","internalType":"uint256[]"},{"name":"datas","type":"bytes[]","internalType":"bytes[]"}],"outputs":[],"stateMutability":"nonpayable"},{"type":"function","name":"getWalletInfo","inputs":[],"outputs":[{"name":"walletType","type":"string","internalType":"string"},{"name":"ownerCount_","type":"uint256","internalType":"uint256"},{"name":"emergencyMode","type":"bool","internalType":"bool"}],"stateMutability":"view"},{"type":"function","name":"isEmergencyMode","inputs":[],"outputs":[{"name":"","type":"bool","internalType":"bool"}],"stateMutability":"view"},{"type":"function","name":"isOwnerAddress","inputs":[{"name":"account","type":"address","internalType":"address"}],"outputs":[{"name":"","type":"bool","internalType":"bool"}],"stateMutability":"view"},{"type":"function","name":"isOwnerBytes","inputs":[{"name":"account","type":"bytes","internalType":"bytes"}],"outputs":[{"name":"","type":"bool","internalType":"bool"}],"stateMutability":"view"},{"type":"function","name":"isOwnerPublicKey","inputs":[{"name":"x","type":"bytes32","internalType":"bytes32"},{"name":"y","type":"bytes32","internalType":"bytes32"}],"outputs":[{"name":"","type":"bool","internalType":"bool"}],"stateMutability":"view"},{"type":"function","name":"nextOwnerIndex","inputs":[],"outputs":[{"name":"","type":"uint256","internalType":"uint256"}],"stateMutability":"view"},{"type":"function","name":"ownerAtIndex","inputs":[{"name":"index","type":"uint256","internalType":"uint256"}],"outputs":[{"name":"","type":"bytes","internalType":"bytes"}],"stateMutability":"view"},{"type":"function","name":"ownerCount","inputs":[],"outputs":[{"name":"","type":"uint256","internalType":"uint256"}],"stateMutability":"view"},{"type":"function","name":"removeOwnerAtIndex","inputs":[{"name":"index","type":"uint256","internalType":"uint256"},{"name":"owner","type":"bytes","internalType":"bytes"}],"outputs":[],"stateMutability":"nonpayable"},{"type":"event","name":"EmergencyModeActivated","inputs":[{"name":"activatedBy","type":"address","indexed":true,"internalType":"address"},{"name":"timestamp","type":"uint256","indexed":false,"internalType":"uint256"}],"anonymous":false},{"type":"event","name":"EmergencyModeDeactivated","inputs":[{"name":"deactivatedBy","type":"address","indexed":true,"internalType":"address"},{"name":"timestamp","type":"uint256","indexed":false,"internalType":"uint256"}],"anonymous":false},{"type":"event","name":"OwnerAdded","inputs":[{"name":"owner","type":"bytes","indexed":true,"internalType":"bytes"},{"name":"ownerType","type":"uint8","indexed":false,"internalType":"uint8"}],"anonymous":false},{"type":"event","name":"OwnerRemoved","inputs":[{"name":"owner","type":"bytes","indexed":true,"internalType":"bytes"},{"name":"index","type":"uint256","indexed":false,"internalType":"uint256"}],"anonymous":false},{"type":"event","name":"TransactionExecuted","inputs":[{"name":"target","type":"address","indexed":true,"internalType":"address"},{"name":"value","type":"uint256","indexed":false,"internalType":"uint256"},{"name":"data","type":"bytes","indexed":false,"internalType":"bytes"}],"anonymous":false},{"type":"event","name":"WalletInitialized","inputs":[{"name":"owner","type":"address","indexed":true,"internalType":"address"},{"name":"walletType","type":"string","indexed":false,"internalType":"string"}],"anonymous":false},{"type":"error","name":"ReentrancyGuard_ReentrantCall","inputs":[]},{"type":"error","name":"WalletCore_AlreadyInitialized","inputs":[]},{"type":"error","name":"WalletCore_BatchLengthMismatch","inputs":[]},{"type":"error","name":"WalletCore_CannotRemoveLastOwner","inputs":[]},{"type":"error","name":"WalletCore_EmergencyModeActive","inputs":[]},{"type":"error","name":"WalletCore_ExecutionFailed","inputs":[]},{"type":"error","name":"WalletCore_InvalidOwnerData","inputs":[]},{"type":"error","name":"WalletCore_InvalidOwnerIndex","inputs":[]},{"type":"error","name":"WalletCore_NoOwnersProvided","inputs":[]},{"type":"error","name":"WalletCore_NotAuthorized","inputs":[]},{"type":"error","name":"WalletCore_OwnerAlreadyExists","inputs":[]},{"type":"error","name":"WalletCore_OwnerDoesNotExist","inputs":[]}],"bytecode":{"object":"0x6080806040523460155761169d908161001a8239f35b5f80fdfe6080604052600436101561001a575b3615610018575f80fd5b005b5f3560e01c8063066a1eb7146101295780630db02622146101245780630f0f3f241461011f57806319c9eb1f1461011a5780631ca5393f1461011557806320a194b81461011057806329565e3b1461010b57806347e1da2a1461010657806389625b57146101015780638ea69029146100fc57806399b20eaf146100f7578063a2e1a8d8146100f2578063b0d691fe146100ed578063b61d27f6146100e8578063c352dae2146100e3578063d0096010146100de5763d948fd2e0361000e57610d13565b610c85565b610b60565b610a84565b610a21565b6109dd565b610975565b610916565b610730565b6105a5565b610564565b610536565b6104ee565b610270565b6101c6565b61018c565b3461018857604036600319011261018857602060ff61017c6004356101776024359161016960405193849288840160209093929193604081019481520152565b03601f198101835282610477565b6111aa565b54166040519015158152f35b5f80fd5b34610188575f3660031901126101885760205f5160206115e85f395f51905f5254604051908152f35b6001600160a01b0381160361018857565b34610188576020366003190112610188576100186004356101e6816101b5565b6101ee611222565b6040519060018060a01b031660208201526020815261020e604082610477565b611374565b9181601f84011215610188578235916001600160401b038311610188576020808501948460051b01011161018857565b9181601f84011215610188578235916001600160401b038311610188576020838186019501011161018857565b34610188576060366003190112610188576004356001600160401b038111610188576102a0903690600401610213565b6024356001600160401b038111610188576102bf903690600401610243565b9190926044356102ce816101b5565b7fccb486fbd1a55a5ca959a0cad88f4854b635a54c72b6425f3bc486a7bf9e1bf75460ff16610454578215610445576103bb90610351600160ff197fccb486fbd1a55a5ca959a0cad88f4854b635a54c72b6425f3bc486a7bf9e1bf75416177fccb486fbd1a55a5ca959a0cad88f4854b635a54c72b6425f3bc486a7bf9e1bf755565b61035b8587610dcf565b60018060a01b03166bffffffffffffffffffffffff60a01b7fccb486fbd1a55a5ca959a0cad88f4854b635a54c72b6425f3bc486a7bf9e1bf95416177fccb486fbd1a55a5ca959a0cad88f4854b635a54c72b6425f3bc486a7bf9e1bf955565b5f5b828110610424575061040e6103f77fe2708a37e3f5c90afe2f04cadf24c1b114b6a905ae92b47ed96166d7abf5cbf6949361040993610f00565b6001600160a01b0393913691906104b8565b6114e9565b169261041f60405192839283610fa0565b0390a2005b8061043f61020e6104386001948787610f3f565b36916104b8565b016103bd565b6392d7115560e01b5f5260045ffd5b63a5f2f53760e01b5f5260045ffd5b634e487b7160e01b5f52604160045260245ffd5b90601f801991011681019081106001600160401b0382111761049857604052565b610463565b6001600160401b03811161049857601f01601f191660200190565b9291926104c48261049d565b916104d26040519384610477565b829481845281830111610188578281602093845f960137010152565b34610188576020366003190112610188576004356001600160401b03811161018857366023820112156101885760ff61017c61017760209336906024816004013591016104b8565b34610188575f36600319011261018857602060ff5f5160206116485f395f51905f5254166040519015158152f35b346101885760403660031901126101885761001860243561020e600435610589611222565b6040805160208101929092528101929092528160608101610169565b34610188576060366003190112610188576004356001600160401b038111610188576105d5903690600401610213565b906024356001600160401b038111610188576105f5903690600401610213565b6044939193356001600160401b03811161018857610617903690600401610213565b919092610622611222565b61062a61151e565b610632611545565b818114801590610726575b610717575f5b81811061065257610018611583565b5f8061066761066284868b610fb1565b610fc1565b61067284878c610fb1565b3561067e85898b610f3f565b919061068f60405180948193610fcb565b03925af161069b610fd8565b901561070f5750806106b3610662600193858a610fb1565b7f47d99ad340f52da66535aff7e10da1ceb85a32bcbd9fa1c42314d194545e14d26107066106e284888d610fb1565b35926106ef858a8c610f3f565b604093919351938493898060a01b03169684611007565b0390a201610643565b602081519101fd5b630836f86160e01b5f5260045ffd5b508282141561063d565b34610188576040366003190112610188576004356024356001600160401b03811161018857610763903690600401610243565b61076b611222565b60015f5160206115e85f395f51905f525411156108e3576107a86107a3845f525f5160206116085f395f51905f5260205260405f2090565b61109f565b8051156108d457602081519101206107c13683856104b8565b60208151910120036108c5576108b4818361080d61080361041f957fd2617dd4a4369fec346346174cb589ef82358cc352ecf1e3e9c5e86131923cd4976110ba565b805460ff19169055565b61083361082e875f525f5160206116085f395f51905f5260205260405f2090565b611106565b61085e61084d5f5160206115e85f395f51905f5254611165565b5f5160206115e85f395f51905f5255565b6108af61088b7fccb486fbd1a55a5ca959a0cad88f4854b635a54c72b6425f3bc486a7bf9e1bfb54611176565b7fccb486fbd1a55a5ca959a0cad88f4854b635a54c72b6425f3bc486a7bf9e1bfb55565b611184565b604051938452929081906020820190565b633c40885960e11b5f5260045ffd5b633c07696960e01b5f5260045ffd5b6312ffd67b60e01b5f5260045ffd5b805180835260209291819084018484015e5f828201840152601f01601f1916010190565b34610188576020366003190112610188576004355f525f5160206116085f395f51905f5260205261097161095661095d60405f206040519283809261101e565b0382610477565b6040519182916020835260208301906108f2565b0390f35b34610188575f3660031901126101885761098d611222565b60ff195f5160206116485f395f51905f5254165f5160206116485f395f51905f52556040514281527f081290595212b102be0fdb64c1ac6ebd5ae4f06a47328806981745f7d906b3b560203392a2005b3461018857602036600319011261018857602060ff61017c600435610a01816101b5565b604080516001600160a01b03909216858301528482526101779082610477565b34610188575f366003190112610188577fccb486fbd1a55a5ca959a0cad88f4854b635a54c72b6425f3bc486a7bf9e1bf9546040516001600160a01b039091168152602090f35b604090610a8193921515815281602082015201906108f2565b90565b3461018857606036600319011261018857600435610aa1816101b5565b6024356044356001600160401b03811161018857610ac3903690600401610243565b610ace929192611222565b610ad661151e565b610ade611545565b5f806040518386823780848101838152039085885af192610afd610fd8565b948415610b5857610b3e7f47d99ad340f52da66535aff7e10da1ceb85a32bcbd9fa1c42314d194545e14d29360405193849360018060a01b03169684611007565b0390a2610b49611583565b61097160405192839283610a68565b855160208701fd5b34610188575f366003190112610188575f5160206115e85f395f51905f525460ff5f5160206116485f395f51905f52541690604051905f925f5160206115c85f395f51905f5254610bb081610d3c565b8085529060018116908115610c615750600114610bfd575b50610bd883610bec950384610477565b6040519384936060855260608501906108f2565b916020840152151560408301520390f35b5f5160206115c85f395f51905f525f9081529094507fb1dbae334217bfdb4f3c2cad0ad3610f3168145c7a47cee7390322171bff61b15b858210610c4b575083016020019350610bd8610bc8565b6001816020925483858901015201910190610c34565b60ff191660208087019190915291151560051b85019091019450610bd89050610bc8565b34610188575f36600319011261018857610c9d611222565b600160ff195f5160206116485f395f51905f525416175f5160206116485f395f51905f5255427fccb486fbd1a55a5ca959a0cad88f4854b635a54c72b6425f3bc486a7bf9e1c08556040514281527f16ea6c4a0ff7e3a4c096560a5a71632e344907cd03af0f6e655b409a61d549ef60203392a2005b34610188575f3660031901126101885760205f5160206116285f395f51905f5254604051908152f35b90600182811c92168015610d6a575b6020831014610d5657565b634e487b7160e01b5f52602260045260245ffd5b91607f1691610d4b565b818110610d7f575050565b5f8155600101610d74565b9190601f8111610d9957505050565b610dc3925f5260205f20906020601f840160051c83019310610dc5575b601f0160051c0190610d74565b565b9091508190610db6565b91906001600160401b03811161049857610e0d81610dfa5f5160206115c85f395f51905f5254610d3c565b5f5160206115c85f395f51905f52610d8a565b5f601f8211600114610e57578190610e3b93945f92610e4c575b50508160011b915f199060031b1c19161790565b5f5160206115c85f395f51905f5255565b013590505f80610e27565b5f5160206115c85f395f51905f525f52601f198216937fb1dbae334217bfdb4f3c2cad0ad3610f3168145c7a47cee7390322171bff61b1915f5b868110610ed45750836001959610610ebb575b505050811b015f5160206115c85f395f51905f5255565b01355f19600384901b60f8161c191690555f8080610ea4565b90926020600181928686013581550194019101610e91565b634e487b7160e01b5f52603260045260245ffd5b9015610f3a57803590601e19813603018212156101885701908135916001600160401b038311610188576020018236038113610188579190565b610eec565b9190811015610f3a5760051b81013590601e19813603018212156101885701908135916001600160401b038311610188576020018236038113610188579190565b908060209392818452848401375f828201840152601f01601f1916010190565b916020610a81938181520191610f80565b9190811015610f3a5760051b0190565b35610a81816101b5565b908092918237015f815290565b3d15611002573d90610fe98261049d565b91610ff76040519384610477565b82523d5f602084013e565b606090565b604090610a81949281528160208201520191610f80565b5f929181549161102d83610d3c565b8083529260018116908115611082575060011461104957505050565b5f9081526020812093945091925b838310611068575060209250010190565b600181602092949394548385870101520191019190611057565b915050602093945060ff929192191683830152151560051b010190565b90610dc36110b3926040519384809261101e565b0383610477565b60209082604051938492833781017fccb486fbd1a55a5ca959a0cad88f4854b635a54c72b6425f3bc486a7bf9e1bfe81520301902090565b634e487b7160e01b5f52601160045260245ffd5b6111108154610d3c565b908161111a575050565b81601f5f931160011461112b575055565b8183526020832061114791601f0160051c810190600101610d74565b808252602082209081548360011b9084198560031b1c191617905555565b8015611171575f190190565b6110f2565b5f1981146111715760010190565b81604051928392833781015f815203902090565b805191908290602001825e015f815290565b60206111bc9160405192838092611198565b7fccb486fbd1a55a5ca959a0cad88f4854b635a54c72b6425f3bc486a7bf9e1bfe81520301902090565b60206111f89160405192838092611198565b7fccb486fbd1a55a5ca959a0cad88f4854b635a54c72b6425f3bc486a7bf9e1bff81520301902090565b303314610dc35760ff61124660405133602082015260208152610177604082610477565b54161561124f57565b631f21a70f60e11b5f5260045ffd5b91909182516001600160401b038111610498576112858161127f8454610d3c565b84610d8a565b6020601f82116001146112c35781906112b49394955f926112b85750508160011b915f199060031b1c19161790565b9055565b015190505f80610e27565b601f198216906112d6845f5260205f2090565b915f5b818110611310575095836001959697106112f8575b505050811b019055565b01515f1960f88460031b161c191690555f80806112ee565b9192602060018192868b0151815501940192016112d9565b6003111561133257565b634e487b7160e01b5f52602160045260245ffd5b9060038110156113325760ff80198354169116179055565b61136e9060405191828092611198565b03902090565b611387611380826111aa565b5460ff1690565b6114da578051602081141590816114ce575b506108c5576113b76113aa826111aa565b805460ff19166001179055565b6113ec816113e75f5160206116285f395f51905f52545f525f5160206116085f395f51905f5260205260405f2090565b61125e565b61140661084d5f5160206115e85f395f51905f5254611176565b805160200361149f577f4fddddd9b0c7ed407277040ecf91c8f99c8fee1ec0a7f40e81d5992cb09463fc61147161145c5f935b61145760ff861661144981611328565b611452836111e6565b611346565b61135e565b60405160ff9094168452929081906020820190565b0390a2610dc361148e5f5160206116285f395f51905f5254611176565b5f5160206116285f395f51905f5255565b7f4fddddd9b0c7ed407277040ecf91c8f99c8fee1ec0a7f40e81d5992cb09463fc61147161145c600193611439565b6040915014155f611399565b631de43c3d60e21b5f5260045ffd5b8051602081146114f95750505f90565b81602091810103126101885760200151611512816101b5565b6001600160a01b031690565b60ff5f5160206116485f395f51905f52541661153657565b635d585da560e01b5f5260045ffd5b5f5160206115a85f395f51905f525460ff81166115745760ff19166001175f5160206115a85f395f51905f5255565b638ac2de0f60e01b5f5260045ffd5b60ff195f5160206115a85f395f51905f5254165f5160206115a85f395f51905f525556fed948dd6ac496132145ff5927eaa3fae9853f104805c9c31caed38fcf46e9dc5fccb486fbd1a55a5ca959a0cad88f4854b635a54c72b6425f3bc486a7bf9e1bf8ccb486fbd1a55a5ca959a0cad88f4854b635a54c72b6425f3bc486a7bf9e1bfcccb486fbd1a55a5ca959a0cad88f4854b635a54c72b6425f3bc486a7bf9e1bfdccb486fbd1a55a5ca959a0cad88f4854b635a54c72b6425f3bc486a7bf9e1bfaccb486fbd1a55a5ca959a0cad88f4854b635a54c72b6425f3bc486a7bf9e1c07a2646970667358221220f322e9329fe38dcd4f4d3b21ae52b5ca1856cab1ebaa35fda977d5d89533fdbc64736f6c634300081e0033","linkReferences":{}},"methodIdentifiers":{"WalletCore_init(bytes[],string,address)":"19c9eb1f","activateEmergencyMode()":"d0096010","addOwnerAddress(address)":"0f0f3f24","addOwnerPublicKey(bytes32,bytes32)":"29565e3b","deactivateEmergencyMode()":"99b20eaf","entryPoint()":"b0d691fe","execute(address,uint256,bytes)":"b61d27f6","executeBatch(address[],uint256[],bytes[])":"47e1da2a","getWalletInfo()":"c352dae2","isEmergencyMode()":"20a194b8","isOwnerAddress(address)":"a2e1a8d8","isOwnerBytes(bytes)":"1ca5393f","isOwnerPublicKey(bytes32,bytes32)":"066a1eb7","nextOwnerIndex()":"d948fd2e","ownerAtIndex(uint256)":"8ea69029","ownerCount()":"0db02622","removeOwnerAtIndex(uint256,bytes)":"89625b57"},"id":155}