{"abi":[{"type":"function","name":"getDocument","inputs":[{"name":"documentId","type":"bytes32","internalType":"bytes32"}],"outputs":[{"name":"contentHash","type":"bytes32","internalType":"bytes32"},{"name":"storageURI","type":"string","internalType":"string"},{"name":"creator","type":"address","internalType":"address"},{"name":"createdAt","type":"uint256","internalType":"uint256"},{"name":"requiredSigners","type":"address[]","internalType":"address[]"},{"name":"title","type":"string","internalType":"string"},{"name":"category","type":"string","internalType":"string"}],"stateMutability":"view"},{"type":"function","name":"getDocumentCount","inputs":[],"outputs":[{"name":"","type":"uint256","internalType":"uint256"}],"stateMutability":"view"},{"type":"function","name":"getDocumentsByCategory","inputs":[{"name":"category","type":"string","internalType":"string"}],"outputs":[{"name":"","type":"bytes32[]","internalType":"bytes32[]"}],"stateMutability":"view"},{"type":"function","name":"getWalletDocuments","inputs":[],"outputs":[{"name":"","type":"bytes32[]","internalType":"bytes32[]"}],"stateMutability":"view"},{"type":"function","name":"isDocumentSigned","inputs":[{"name":"signer","type":"address","internalType":"address"},{"name":"documentId","type":"bytes32","internalType":"bytes32"}],"outputs":[{"name":"hasSigned","type":"bool","internalType":"bool"},{"name":"signedAt","type":"uint256","internalType":"uint256"}],"stateMutability":"view"},{"type":"function","name":"signDocument","inputs":[{"name":"documentId","type":"bytes32","internalType":"bytes32"}],"outputs":[],"stateMutability":"nonpayable"},{"type":"function","name":"uploadDocument","inputs":[{"name":"contentHash","type":"bytes32","internalType":"bytes32"},{"name":"storageURI","type":"string","internalType":"string"},{"name":"category","type":"string","internalType":"string"},{"name":"requiredSigners","type":"address[]","internalType":"address[]"},{"name":"title","type":"string","internalType":"string"}],"outputs":[{"name":"documentId","type":"bytes32","internalType":"bytes32"}],"stateMutability":"nonpayable"},{"type":"event","name":"DocumentDeleted","inputs":[{"name":"documentId","type":"bytes32","indexed":true,"internalType":"bytes32"},{"name":"deletedBy","type":"address","indexed":true,"internalType":"address"}],"anonymous":false},{"type":"event","name":"DocumentSigned","inputs":[{"name":"documentId","type":"bytes32","indexed":true,"internalType":"bytes32"},{"name":"signer","type":"address","indexed":true,"internalType":"address"},{"name":"timestamp","type":"uint256","indexed":false,"internalType":"uint256"}],"anonymous":false},{"type":"event","name":"DocumentUploaded","inputs":[{"name":"documentId","type":"bytes32","indexed":true,"internalType":"bytes32"},{"name":"contentHash","type":"bytes32","indexed":true,"internalType":"bytes32"},{"name":"creator","type":"address","indexed":true,"internalType":"address"}],"anonymous":false},{"type":"event","name":"Initialized","inputs":[{"name":"version","type":"uint64","indexed":false,"internalType":"uint64"}],"anonymous":false},{"type":"error","name":"CallerIsNotAuthorized","inputs":[]},{"type":"error","name":"DelegateNotAllowed","inputs":[]},{"type":"error","name":"InvalidInitialization","inputs":[]},{"type":"error","name":"NotInitializing","inputs":[]},{"type":"error","name":"OnlyDelegate","inputs":[]},{"type":"error","name":"ReentrancyGuardReentrantCall","inputs":[]},{"type":"error","name":"WalletDocuments_DocumentAlreadyExists","inputs":[]},{"type":"error","name":"WalletDocuments_DocumentNotFound","inputs":[]},{"type":"error","name":"WalletDocuments_NotAuthorizedSigner","inputs":[]}],"bytecode":{"object":"0x60a0806040523460b457306080525f516020610f695f395f51905f525460ff8160401c1660a5576002600160401b03196001600160401b038216016053575b604051610eb090816100b98239608051815050f35b6001600160401b0319166001600160401b039081175f516020610f695f395f51905f525581527fc7f505b2f371ae2175ee4913f4499e1f2633a7b5936321eed1cdaeb6115181d290602090a15f80603e565b63f92ee8a960e01b5f5260045ffd5b5f80fdfe60806040526004361015610011575f80fd5b5f3560e01c8063166cba3814610aea57806322bbc053146103d15780633d1c227314610395578063b10d6b4114610207578063beeb2a571461018c578063ce2620951461010e5763d78798c214610066575f80fd5b3461010a575f36600319011261010a576040517f5c769ab44e1e9d598435acd969269a2e74e62d1666a1441b2be67cb7b556706a5480825260208201907f5c769ab44e1e9d598435acd969269a2e74e62d1666a1441b2be67cb7b556706a5f5260205f20905f5b8181106100f4576100f0856100e481870382610cec565b60405191829182610c8a565b0390f35b82548452602090930192600192830192016100cd565b5f80fd5b3461010a57602036600319011261010a5760043567ffffffffffffffff811161010a57610142610148913690600401610c38565b90610da2565b60405190805480835260208301915f5260205f20905f5b818110610176576100f0856100e481870382610cec565b825484526020909301926001928301920161015f565b3461010a57604036600319011261010a576004356001600160a01b038116810361010a576101ea906001600160a01b03165f527f5c769ab44e1e9d598435acd969269a2e74e62d1666a1441b2be67cb7b556706860205260405f2090565b6024355f526020526040805f205481519080151582526020820152f35b3461010a57602036600319011261010a576004355f527f5c769ab44e1e9d598435acd969269a2e74e62d1666a1441b2be67cb7b556706760205260405f2060ff6007820154161561036d5780546001600160a01b0360028301541691600381015490600481019061027a60018201610dda565b94604051806020855491828152019081955f5260205f20905f5b81811061034e57505050906102ad816020930382610cec565b6102c560066102be60058701610dda565b9501610dda565b956102e1604051998a998a5260e0858b015260e08a0190610c66565b9360408901526060880152868303608088015251918281520192905f5b81811061032c575050508161031e91856100f095940360a0870152610c66565b9083820360c0850152610c66565b82516001600160a01b03168552879650602094850194909201916001016102fe565b82546001600160a01b0316845260209093019260019283019201610294565b7fada9f6b4000000000000000000000000000000000000000000000000000000005f5260045ffd5b3461010a575f36600319011261010a5760207f5c769ab44e1e9d598435acd969269a2e74e62d1666a1441b2be67cb7b556706a54604051908152f35b3461010a5760a036600319011261010a5760043560243567ffffffffffffffff811161010a57610405903690600401610c38565b909160443567ffffffffffffffff811161010a57610427903690600401610c38565b9060643567ffffffffffffffff811161010a573660238201121561010a5780600401359567ffffffffffffffff871161010a578660051b966024888401019736891161010a5760843567ffffffffffffffff811161010a5761048d903690600401610c38565b60405160208101908a8252426040820152336060820152606081526104b3608082610cec565b519020998a5f527f5c769ab44e1e9d598435acd969269a2e74e62d1666a1441b2be67cb7b556706760205260ff600760405f20015416610ac2576040519561010087019187831067ffffffffffffffff8411176108695761051b926040528b88523691610d0e565b9560208601968752604086019b338d5260608701954287526105436020604051970187610cec565b85526024602086019201915b818310610aa2575050509061056c91608086019384523691610d0e565b9160a0840192835261057f368888610d0e565b9960c085019a8b5260e0850195600187528a5f527f5c769ab44e1e9d598435acd969269a2e74e62d1666a1441b2be67cb7b556706760205260405f209551865560018601905180519067ffffffffffffffff82116108695781906105e38454610d54565b601f8111610a72575b50602090601f8311600114610a0f575f92610a04575b50508160011b915f199060031b1c19161790555b6001600160a01b03600286019151167fffffffffffffffffffffffff00000000000000000000000000000000000000008254161790555160038401556004830190519081519167ffffffffffffffff8311610869576801000000000000000083116108695760209082548484558085106109e9575b5001905f5260205f205f5b8381106109cc575050505060058201905180519067ffffffffffffffff82116108695781906106c58454610d54565b601f811161099c575b50602090601f8311600114610939575f9261092e575b50508160011b915f199060031b1c19161790555b60068101965196875167ffffffffffffffff81116108695761071a8254610d54565b601f81116108f3575b506020601f8211600114610888579080600794939261076f999a9b5f9261087d575b50508160011b915f199060031b1c19161790555b019051151560ff80198354169116179055610da2565b8054680100000000000000008110156108695761079681859360016107ac94018155610cc3565b819391549060031b91821b915f19901b19161790565b90557f5c769ab44e1e9d598435acd969269a2e74e62d1666a1441b2be67cb7b556706a5491680100000000000000008310156108695780610838610796856001602097017f5c769ab44e1e9d598435acd969269a2e74e62d1666a1441b2be67cb7b556706a557f5c769ab44e1e9d598435acd969269a2e74e62d1666a1441b2be67cb7b556706a610cc3565b9055604051913390827fff2403b26088b665800aa5c25a6ce82dc16e914df0faaaeeddcd1de432358cf95f80a48152f35b634e487b7160e01b5f52604160045260245ffd5b015190508b80610745565b601f19821699835f52815f209a5f5b8181106108db57509a6001928492600797969561076f9c9d9e106108c3575b505050811b019055610759565b01515f1960f88460031b161c191690558b80806108b6565b838301518d556001909c019b60209384019301610897565b61091e90835f5260205f20601f840160051c81019160208510610924575b601f0160051c0190610d8c565b89610723565b9091508190610911565b015190508a806106e4565b5f8581528281209350601f198516905b818110610984575090846001959493921061096c575b505050811b0190556106f8565b01515f1960f88460031b161c191690558a808061095f565b92936020600181928786015181550195019301610949565b6109c690855f5260205f20601f850160051c8101916020861061092457601f0160051c0190610d8c565b8b6106ce565b60019060206001600160a01b038551169401938184015501610696565b6109fe90845f5285845f209182019101610d8c565b8c61068b565b015190508e80610602565b5f8581528281209350601f198516905b818110610a5a5750908460019594939210610a42575b505050811b019055610616565b01515f1960f88460031b161c191690558e8080610a35565b92936020600181928786015181550195019301610a1f565b610a9c90855f5260205f20601f850160051c8101916020861061092457601f0160051c0190610d8c565b8f6105ec565b82356001600160a01b038116810361010a5781526020928301920161054f565b7f1bc5c3a7000000000000000000000000000000000000000000000000000000005f5260045ffd5b3461010a57602036600319011261010a57600435805f527f5c769ab44e1e9d598435acd969269a2e74e62d1666a1441b2be67cb7b556706760205260405f2060ff6007820154161561036d575f906001600160a01b0360028201541633145f14610be857505060015b15610bc057335f9081527f5c769ab44e1e9d598435acd969269a2e74e62d1666a1441b2be67cb7b556706860205260409020815f526020524260405f2055604051904282527fcb4765881b79e3f3e656357a384db0c5ebdbdad01ab9fbc82ea10f38b7730dbc60203393a3005b7f74c06d18000000000000000000000000000000000000000000000000000000005f5260045ffd5b6004018054905f5b828110610c00575b505050610b53565b6001600160a01b03610c128284610cc3565b905460039190911b1c163314610c2a57600101610bf0565b505050506001828080610bf8565b9181601f8401121561010a5782359167ffffffffffffffff831161010a576020838186019501011161010a57565b805180835260209291819084018484015e5f828201840152601f01601f1916010190565b60206040818301928281528451809452019201905f5b818110610cad5750505090565b8251845260209384019390920191600101610ca0565b8054821015610cd8575f5260205f2001905f90565b634e487b7160e01b5f52603260045260245ffd5b90601f8019910116810190811067ffffffffffffffff82111761086957604052565b92919267ffffffffffffffff82116108695760405191610d38601f8201601f191660200184610cec565b82948184528183011161010a578281602093845f960137010152565b90600182811c92168015610d82575b6020831014610d6e57565b634e487b7160e01b5f52602260045260245ffd5b91607f1691610d63565b818110610d97575050565b5f8155600101610d8c565b60209082604051938492833781017f5c769ab44e1e9d598435acd969269a2e74e62d1666a1441b2be67cb7b556706981520301902090565b9060405191825f825492610ded84610d54565b8084529360018116908115610e585750600114610e14575b50610e1292500383610cec565b565b90505f9291925260205f20905f915b818310610e3c575050906020610e12928201015f610e05565b6020919350806001915483858901015201910190918492610e23565b905060209250610e1294915060ff191682840152151560051b8201015f610e0556fea2646970667358221220cf05b445423a705934c47ea521fee3561f9201642da3b826bc798bd828235f1564736f6c634300081c0033f0c57e16840df040f15088dc2f81fe391c3923bec73e23a9662efc9c229c6a00","linkReferences":{}},"methodIdentifiers":{"getDocument(bytes32)":"b10d6b41","getDocumentCount()":"3d1c2273","getDocumentsByCategory(string)":"ce262095","getWalletDocuments()":"d78798c2","isDocumentSigned(address,bytes32)":"beeb2a57","signDocument(bytes32)":"166cba38","uploadDocument(bytes32,string,string,address[],string)":"22bbc053"},"id":247}