{"abi":[{"type":"function","name":"WalletSigner_init","inputs":[{"name":"signers","type":"tuple[]","internalType":"struct IWalletSigner.AddSignerParams[]","components":[{"name":"signerType","type":"uint8","internalType":"enum IWalletSigner.SignerType"},{"name":"pubKeyX","type":"uint256","internalType":"uint256"},{"name":"pubKeyY","type":"uint256","internalType":"uint256"},{"name":"signerAddress","type":"address","internalType":"address"},{"name":"roleId","type":"uint8","internalType":"uint8"},{"name":"validUntil","type":"uint48","internalType":"uint48"},{"name":"label","type":"string","internalType":"string"}]}],"outputs":[],"stateMutability":"nonpayable"},{"type":"function","name":"addSigner","inputs":[{"name":"params","type":"tuple","internalType":"struct IWalletSigner.AddSignerParams","components":[{"name":"signerType","type":"uint8","internalType":"enum IWalletSigner.SignerType"},{"name":"pubKeyX","type":"uint256","internalType":"uint256"},{"name":"pubKeyY","type":"uint256","internalType":"uint256"},{"name":"signerAddress","type":"address","internalType":"address"},{"name":"roleId","type":"uint8","internalType":"uint8"},{"name":"validUntil","type":"uint48","internalType":"uint48"},{"name":"label","type":"string","internalType":"string"}]}],"outputs":[{"name":"signerId","type":"bytes32","internalType":"bytes32"}],"stateMutability":"nonpayable"},{"type":"function","name":"addSignerAddress","inputs":[{"name":"signer","type":"address","internalType":"address"},{"name":"roleId","type":"uint8","internalType":"uint8"},{"name":"validUntil","type":"uint48","internalType":"uint48"},{"name":"label","type":"string","internalType":"string"}],"outputs":[{"name":"signerId","type":"bytes32","internalType":"bytes32"}],"stateMutability":"nonpayable"},{"type":"function","name":"addSignerPasskey","inputs":[{"name":"x","type":"uint256","internalType":"uint256"},{"name":"y","type":"uint256","internalType":"uint256"},{"name":"roleId","type":"uint8","internalType":"uint8"},{"name":"validUntil","type":"uint48","internalType":"uint48"},{"name":"label","type":"string","internalType":"string"}],"outputs":[{"name":"signerId","type":"bytes32","internalType":"bytes32"}],"stateMutability":"nonpayable"},{"type":"function","name":"canSign","inputs":[{"name":"signerId","type":"bytes32","internalType":"bytes32"}],"outputs":[{"name":"","type":"bool","internalType":"bool"}],"stateMutability":"view"},{"type":"function","name":"computeSignerIdForAddress","inputs":[{"name":"signer","type":"address","internalType":"address"}],"outputs":[{"name":"","type":"bytes32","internalType":"bytes32"}],"stateMutability":"pure"},{"type":"function","name":"computeSignerIdForPasskey","inputs":[{"name":"x","type":"uint256","internalType":"uint256"},{"name":"y","type":"uint256","internalType":"uint256"}],"outputs":[{"name":"","type":"bytes32","internalType":"bytes32"}],"stateMutability":"pure"},{"type":"function","name":"getSigner","inputs":[{"name":"signerId","type":"bytes32","internalType":"bytes32"}],"outputs":[{"name":"","type":"tuple","internalType":"struct IWalletSigner.AuthorizedSigner","components":[{"name":"signerId","type":"bytes32","internalType":"bytes32"},{"name":"signerType","type":"uint8","internalType":"enum IWalletSigner.SignerType"},{"name":"pubKeyX","type":"uint256","internalType":"uint256"},{"name":"pubKeyY","type":"uint256","internalType":"uint256"},{"name":"signerAddress","type":"address","internalType":"address"},{"name":"roleId","type":"uint8","internalType":"uint8"},{"name":"validUntil","type":"uint48","internalType":"uint48"},{"name":"isActive","type":"bool","internalType":"bool"},{"name":"label","type":"string","internalType":"string"},{"name":"addedAt","type":"uint256","internalType":"uint256"}]}],"stateMutability":"view"},{"type":"function","name":"isAuthorizedSigner","inputs":[{"name":"signerId","type":"bytes32","internalType":"bytes32"}],"outputs":[{"name":"","type":"bool","internalType":"bool"}],"stateMutability":"view"},{"type":"function","name":"listSigners","inputs":[],"outputs":[{"name":"","type":"tuple[]","internalType":"struct IWalletSigner.AuthorizedSigner[]","components":[{"name":"signerId","type":"bytes32","internalType":"bytes32"},{"name":"signerType","type":"uint8","internalType":"enum IWalletSigner.SignerType"},{"name":"pubKeyX","type":"uint256","internalType":"uint256"},{"name":"pubKeyY","type":"uint256","internalType":"uint256"},{"name":"signerAddress","type":"address","internalType":"address"},{"name":"roleId","type":"uint8","internalType":"uint8"},{"name":"validUntil","type":"uint48","internalType":"uint48"},{"name":"isActive","type":"bool","internalType":"bool"},{"name":"label","type":"string","internalType":"string"},{"name":"addedAt","type":"uint256","internalType":"uint256"}]}],"stateMutability":"view"},{"type":"function","name":"packedSelectors","inputs":[],"outputs":[{"name":"","type":"bytes","internalType":"bytes"}],"stateMutability":"pure"},{"type":"function","name":"reinstateSigner","inputs":[{"name":"signerId","type":"bytes32","internalType":"bytes32"}],"outputs":[],"stateMutability":"nonpayable"},{"type":"function","name":"removeSigner","inputs":[{"name":"signerId","type":"bytes32","internalType":"bytes32"}],"outputs":[],"stateMutability":"nonpayable"},{"type":"function","name":"signerCount","inputs":[],"outputs":[{"name":"","type":"uint256","internalType":"uint256"}],"stateMutability":"view"},{"type":"function","name":"suspendSigner","inputs":[{"name":"signerId","type":"bytes32","internalType":"bytes32"}],"outputs":[],"stateMutability":"nonpayable"},{"type":"function","name":"updateSignerExpiry","inputs":[{"name":"signerId","type":"bytes32","internalType":"bytes32"},{"name":"newValidUntil","type":"uint48","internalType":"uint48"}],"outputs":[],"stateMutability":"nonpayable"},{"type":"function","name":"updateSignerRole","inputs":[{"name":"signerId","type":"bytes32","internalType":"bytes32"},{"name":"newRoleId","type":"uint8","internalType":"uint8"}],"outputs":[],"stateMutability":"nonpayable"},{"type":"event","name":"SignerAdded","inputs":[{"name":"signerId","type":"bytes32","indexed":true,"internalType":"bytes32"},{"name":"signerType","type":"uint8","indexed":true,"internalType":"uint8"},{"name":"roleId","type":"uint8","indexed":false,"internalType":"uint8"},{"name":"validUntil","type":"uint48","indexed":false,"internalType":"uint48"},{"name":"label","type":"string","indexed":false,"internalType":"string"}],"anonymous":false},{"type":"event","name":"SignerExpiryUpdated","inputs":[{"name":"signerId","type":"bytes32","indexed":true,"internalType":"bytes32"},{"name":"oldExpiry","type":"uint48","indexed":false,"internalType":"uint48"},{"name":"newExpiry","type":"uint48","indexed":false,"internalType":"uint48"}],"anonymous":false},{"type":"event","name":"SignerReinstated","inputs":[{"name":"signerId","type":"bytes32","indexed":true,"internalType":"bytes32"},{"name":"reinstatedBy","type":"address","indexed":true,"internalType":"address"}],"anonymous":false},{"type":"event","name":"SignerRemoved","inputs":[{"name":"signerId","type":"bytes32","indexed":true,"internalType":"bytes32"},{"name":"removedBy","type":"address","indexed":true,"internalType":"address"}],"anonymous":false},{"type":"event","name":"SignerRoleUpdated","inputs":[{"name":"signerId","type":"bytes32","indexed":true,"internalType":"bytes32"},{"name":"oldRole","type":"uint8","indexed":false,"internalType":"uint8"},{"name":"newRole","type":"uint8","indexed":false,"internalType":"uint8"}],"anonymous":false},{"type":"event","name":"SignerSuspended","inputs":[{"name":"signerId","type":"bytes32","indexed":true,"internalType":"bytes32"},{"name":"suspendedBy","type":"address","indexed":true,"internalType":"address"}],"anonymous":false},{"type":"event","name":"UserOperationExecuted","inputs":[{"name":"userOpHash","type":"bytes32","indexed":true,"internalType":"bytes32"},{"name":"signerId","type":"bytes32","indexed":true,"internalType":"bytes32"},{"name":"signerRole","type":"uint8","indexed":false,"internalType":"uint8"},{"name":"target","type":"address","indexed":false,"internalType":"address"},{"name":"selector","type":"bytes4","indexed":false,"internalType":"bytes4"},{"name":"success","type":"bool","indexed":false,"internalType":"bool"}],"anonymous":false},{"type":"error","name":"WalletSigner_AlreadyInitialized","inputs":[]},{"type":"error","name":"WalletSigner_CannotRemoveSelf","inputs":[]},{"type":"error","name":"WalletSigner_InvalidRole","inputs":[{"name":"roleId","type":"uint8","internalType":"uint8"}]},{"type":"error","name":"WalletSigner_InvalidSignerData","inputs":[]},{"type":"error","name":"WalletSigner_SignerAlreadyExists","inputs":[{"name":"signerId","type":"bytes32","internalType":"bytes32"}]},{"type":"error","name":"WalletSigner_SignerDoesNotExist","inputs":[{"name":"signerId","type":"bytes32","internalType":"bytes32"}]},{"type":"error","name":"WalletSigner_SignerExpired","inputs":[{"name":"signerId","type":"bytes32","internalType":"bytes32"},{"name":"expiredAt","type":"uint48","internalType":"uint48"}]},{"type":"error","name":"WalletSigner_SignerNotActive","inputs":[{"name":"signerId","type":"bytes32","internalType":"bytes32"}]}],"bytecode":{"object":"0x608080604052346015576116b5908161001a8239f35b5f80fdfe60806040526004361015610011575f80fd5b5f3560e01c806311f646a3146109a75780631544caa3146108dc57806319f00185146108405780631e9f9c0314610749578063315b9f951461069857806336cfd5ba146106575780633e62267c1461054e578063437375cf146105285780634e47bbc1146104d35780635b3fb37d1461048357806365683b90146103c85780637a5ee0ca146102cc5780637ca548c6146102a35780638cc6f44c1461020b5780639044e55314610141578063bc182cfa146101005763f0fb990e146100d4575f80fd5b346100fc5760203660031901126100fc5760206100f26004356110b0565b6040519015158152f35b5f80fd5b346100fc5760403660031901126100fc576020604051818101906004358252602435604082015260408152610136606082610d26565b519020604051908152f35b346100fc5760203660031901126100fc5760043561015d611110565b805f525f5160206116205f395f51905f5260205260405f208054156101f857600401805460ff8160d81c16156101e55760ff60d81b191690555f5160206116405f395f51905f52546101ae906110a4565b5f5160206116405f395f51905f525533907f4f60ca7be69ab90f1bd86f534d9a453126c4d838e1af724c6af231de7198329a5f80a3005b82630c1eb82360e01b5f5260045260245ffd5b506390c6952560e01b5f5260045260245ffd5b346100fc5760203660031901126100fc57600435610227611110565b805f525f5160206116205f395f51905f5260205260405f208054156101f857600401805460ff60d81b191690555f5160206116405f395f51905f525461026c906110a4565b5f5160206116405f395f51905f525533907f695959c50041fdc0ec9858dc987c0e8ddbafbb7a5f71f1e30f2da86eccd9e4025f80a3005b346100fc575f3660031901126100fc5760205f5160206116405f395f51905f5254604051908152f35b346100fc5760203660031901126100fc576102e5610d5e565b506004355f525f5160206116205f395f51905f526020526103b760405f2080549060ff600182015416155f146103bb5761039760055f925b60ff600282015460038301546004840154916103506006860154986040519a6103458c610cdb565b8b5260208b01610e0f565b604089015260608801526001600160a01b038116608088015260a081811c83169088015260a881901c65ffffffffffff1660c088015260d81c16151560e086015201610e53565b610100830152610120820152604051918291602083526020830190610be1565b0390f35b610397600560019261031d565b346100fc5760803660031901126100fc576103e1610cc5565b6103e9610c88565b906044359065ffffffffffff82168092036100fc57606435916001600160401b0383116100fc5760209360ff6104719261042a61047b963690600401610c98565b929093610435611110565b6040519661044288610d0b565b5f8089528a890181905260408901526001600160a01b0316606088015216608086015260a08501523691610f22565b60c08201526111fc565b604051908152f35b346100fc5760203660031901126100fc576004356001600160401b0381116100fc5760e060031982360301126100fc5761047b6104ce6020926104c4611110565b3690600401610f58565b6111fc565b346100fc5760203660031901126100fc576004355f525f5160206116205f395f51905f52602052602060405f20805415159081610516575b506040519015158152f35b60ff91506004015460d81c168261050b565b346100fc5760203660031901126100fc57610541611110565b61054c600435611012565b005b346100fc575f3660031901126100fc5760408051631e9f9c0360e01b6020820152635b3fb37d60e01b602482015263065683b960e41b60288201526319f0018560e01b602c82015263787dcc8760e11b6030820152631b67eadd60e11b6034820152635e0c167d60e11b6038820152633d2f706560e11b603c820152634e47bbc160e01b818301526311f646a360e01b604482015263437375cf60e01b6048820152632331bd1360e21b604c820152633e52a46360e11b6050820152639044e55360e01b6054820152631544caa360e01b605882015263315b9f9560e01b605c8201529081526103b790610643606082610d26565b604051918291602083526020830190610bbd565b346100fc5760203660031901126100fc576020610672610cc5565b604051828101916001600160601b03199060601b16825260148152610136603482610d26565b346100fc5760403660031901126100fc576004356106b4610c88565b6106bc611110565b815f525f5160206116205f395f51905f5260205260405f2080541561073657600401805460ff60a01b60a084811b9190911660ff60a01b198316179092557f69f707e69fa156f06b6d14c406d37b3aa703cf21238310428620aba8063d3c559260409260ff92901c821691908351928352166020820152a2005b826390c6952560e01b5f5260045260245ffd5b346100fc5760203660031901126100fc576004356001600160401b0381116100fc57366023820112156100fc578060040135906001600160401b0382116100fc573660248360051b830101116100fc577f480144b1b455a0fe78db9dc5dd1b2d4c571f1de5c4ffa2484c50217a3dfae7c75460ff81166108315760ff19166001177f480144b1b455a0fe78db9dc5dd1b2d4c571f1de5c4ffa2484c50217a3dfae7c7553681900361010219019082905f5b8281101561054c5760248160051b8301013590848212156100fc5761082a6104ce60019360243691870101610f58565b50016107fa565b631473bfe560e21b5f5260045ffd5b346100fc5760a03660031901126100fc5760443560ff81168091036100fc5760643565ffffffffffff81168091036100fc57608435916001600160401b0383116100fc5761047161047b9261089b6020953690600401610c98565b90916108a5611110565b604051946108b286610d0b565b600186526004358887015260243560408701525f6060870152608086015260a08501523691610f22565b346100fc5760403660031901126100fc5760043560243565ffffffffffff8116908181036100fc5761090c611110565b825f525f5160206116205f395f51905f5260205260405f209081541561099457600491909101805465ffffffffffff60a81b19811660a893841b65ffffffffffff60a81b16179091557f535fa837b20253fcc6a7f0090f7c601f36406ca0aeccec496a46a86572adb7e4926040929190911c65ffffffffffff169082519182526020820152a2005b836390c6952560e01b5f5260045260245ffd5b346100fc575f3660031901126100fc575f5160206116405f395f51905f52546109cf81610d47565b906109dd6040519283610d26565b808252601f196109ec82610d47565b015f5b818110610ba65750505f5f5160206116605f395f51905f5254915f5b83811080610b9d575b15610b3657610a2281610dcb565b90549060031b1c5f525f5160206116205f395f51905f5260205260405f20600481015460ff8160d81c169182610a64575b505050610a5f90610da9565b610a0b565b91610a5f939591610af7600585610b1e96549460ff600183015416155f14610b275765ffffffffffff5f955b6002840154600385015490610abc6006870154996040519b610ab18d610cdb565b8c5260208c01610e0f565b60408a015260608901526001600160a01b038116608089015260a081811c60ff169089015260a81c1660c0870152151560e086015201610e53565b610100830152610120820152610b0d8289610ef3565b52610b188188610ef3565b50610da9565b92908680610a53565b65ffffffffffff600195610a90565b846040518091602082016020835281518091526040830190602060408260051b8601019301915f905b828210610b6e57505050500390f35b91936001919395506020610b8d8192603f198a82030186528851610be1565b9601920192018594939192610b5f565b50818310610a14565b602090610bb1610d5e565b828287010152016109ef565b805180835260209291819084018484015e5f828201840152601f01601f1916010190565b908151815260208201516002811015610c74576020820152604082015160408201526060820151606082015260018060a01b03608083015116608082015260ff60a08301511660a082015265ffffffffffff60c08301511660c082015260e0820151151560e082015261012080610c6b610100850151610140610100860152610140850190610bbd565b93015191015290565b634e487b7160e01b5f52602160045260245ffd5b6024359060ff821682036100fc57565b9181601f840112156100fc578235916001600160401b0383116100fc57602083818601950101116100fc57565b600435906001600160a01b03821682036100fc57565b61014081019081106001600160401b03821117610cf757604052565b634e487b7160e01b5f52604160045260245ffd5b60e081019081106001600160401b03821117610cf757604052565b90601f801991011681019081106001600160401b03821117610cf757604052565b6001600160401b038111610cf75760051b60200190565b60405190610d6b82610cdb565b5f610120838281528260208201528260408201528260608201528260808201528260a08201528260c08201528260e082015260606101008201520152565b5f198114610db75760010190565b634e487b7160e01b5f52601160045260245ffd5b5f5160206116605f395f51905f5254811015610dfb575f5160206116605f395f51905f525f5260205f2001905f90565b634e487b7160e01b5f52603260045260245ffd5b6002821015610c745752565b90600182811c92168015610e49575b6020831014610e3557565b634e487b7160e01b5f52602260045260245ffd5b91607f1691610e2a565b9060405191825f825492610e6684610e1b565b8084529360018116908115610ed15750600114610e8d575b50610e8b92500383610d26565b565b90505f9291925260205f20905f915b818310610eb5575050906020610e8b928201015f610e7e565b6020919350806001915483858901015201910190918492610e9c565b905060209250610e8b94915060ff191682840152151560051b8201015f610e7e565b8051821015610dfb5760209160051b010190565b6001600160401b038111610cf757601f01601f191660200190565b929192610f2e82610f07565b91610f3c6040519384610d26565b8294818452818301116100fc578281602093845f960137010152565b919060e0838203126100fc5760405190610f7182610d0b565b8193803560028110156100fc578352602081810135908401526040808201359084015260608101356001600160a01b03811681036100fc576060840152608081013560ff811681036100fc57608084015260a081013565ffffffffffff811681036100fc5760a084015260c0810135906001600160401b0382116100fc570181601f820112156100fc5760c09181602061100d93359101610f22565b910152565b805f525f5160206116205f395f51905f5260205260405f208054156101f857600401805460ff8160d81c1661109f5760ff60d81b1916600160d81b1790555f5160206116405f395f51905f525461106890610da9565b5f5160206116405f395f51905f525533907f928a6c9b8dcfc482ea0f56513e339813fe15a73d6b27a72e69c046bb10e971885f80a3565b505050565b8015610db7575f190190565b5f525f5160206116205f395f51905f5260205260405f2080541561110b576004015460ff8160d81c161561110b5760a81c65ffffffffffff168015159081611101575b506110fd57600190565b5f90565b905042115f6110f3565b505f90565b303314610e8b575f806040513360601b602082015260148152611134603482610d26565b60405161116c8161115e6020820194631ca5393f60e01b8652602060248401526044830190610bbd565b03601f198101835282610d26565b5190305afa3d156111f4573d9061118282610f07565b916111906040519384610d26565b82523d5f602084013e5b159081156111b9575b506111aa57565b63360660b160e01b5f5260045ffd5b805160208110159250826111d0575b50505f6111a3565b81925090602091810103126100fc57602001518015908115036100fc575f806111c8565b60609061119a565b80516002811015610c7457159081156115d4576060810180516001600160a01b0316156111aa575160405160208101916001600160601b03199060601b1682526014815261124b603482610d26565b519020915b825f525f5160206116205f395f51905f5260205260405f20546115c157156115ba575f5b602082015191604081015190600160a01b6001900360608201511693856080830193845160ff169660a0850196875165ffffffffffff1660c08701998a5194604051976112c089610cdb565b878952602089019460ff16855260408901908152606089019182526080890195865260a0890192835260c0890193845260e0890194600186526101008a019788526101208a0198428a525f525f5160206116205f395f51905f5260205260405f2099518a5560018a01905160ff1660ff198254161790555160028901555160038801556004870193600160a01b600190039051166001600160601b0360a01b8554161784555160ff1661138990849081549060ff60a01b9060a01b169060ff60a01b1916179055565b51825465ffffffffffff60a81b191660a89190911b65ffffffffffff60a81b1617825551815460ff60d81b191690151560d81b60ff60d81b1617905551805160058401916001600160401b038211610cf7576113e58354610e1b565b601f8111611575575b50602090601f831160011461150e576006949392915f9183611503575b50508160011b915f199060031b1c19161790555b519101555f5160206116605f395f51905f525468010000000000000000811015610cf75780600161145f92015f5160206116605f395f51905f5255610dcb565b81549060031b9087821b915f19901b191617905561148a5f5160206116405f395f51905f5254610da9565b5f5160206116405f395f51905f525551926002841015610c745784926114fd60ff65ffffffffffff817fe1b33a6c977d7602d583078fbc6840a7c4f415ea02059b66329b8a3f797e575b965116935116935196604051948594855260208501526060604085015216956060830190610bbd565b0390a390565b015190505f8061140b565b90601f19831691845f52815f20925f5b81811061155d575091600193918560069897969410611545575b505050811b01905561141f565b01515f1960f88460031b161c191690555f8080611538565b9293602060018192878601518155019501930161151e565b835f5260205f20601f840160051c810191602085106115b0575b601f0160051c01905b8181106115a557506113ee565b5f8155600101611598565b909150819061158f565b6001611274565b82631a65148960e21b5f5260045260245ffd5b6020810180511580611613575b6111aa57516040820151604051906020820192835260408201526040815261160a606082610d26565b51902091611250565b506040820151156115e156fe480144b1b455a0fe78db9dc5dd1b2d4c571f1de5c4ffa2484c50217a3dfae7c4480144b1b455a0fe78db9dc5dd1b2d4c571f1de5c4ffa2484c50217a3dfae7c6480144b1b455a0fe78db9dc5dd1b2d4c571f1de5c4ffa2484c50217a3dfae7c5a2646970667358221220c2384b546a9f4c70702fb5475b54ce1030961312f018feb49877d5ba4dd7538964736f6c634300081e0033","linkReferences":{}},"methodIdentifiers":{"WalletSigner_init((uint8,uint256,uint256,address,uint8,uint48,string)[])":"1e9f9c03","addSigner((uint8,uint256,uint256,address,uint8,uint48,string))":"5b3fb37d","addSignerAddress(address,uint8,uint48,string)":"65683b90","addSignerPasskey(uint256,uint256,uint8,uint48,string)":"19f00185","canSign(bytes32)":"f0fb990e","computeSignerIdForAddress(address)":"36cfd5ba","computeSignerIdForPasskey(uint256,uint256)":"bc182cfa","getSigner(bytes32)":"7a5ee0ca","isAuthorizedSigner(bytes32)":"4e47bbc1","listSigners()":"11f646a3","packedSelectors()":"3e62267c","reinstateSigner(bytes32)":"437375cf","removeSigner(bytes32)":"8cc6f44c","signerCount()":"7ca548c6","suspendSigner(bytes32)":"9044e553","updateSignerExpiry(bytes32,uint48)":"1544caa3","updateSignerRole(bytes32,uint8)":"315b9f95"},"id":354}