{"abi":[{"type":"function","name":"canCall","inputs":[{"name":"caller","type":"address","internalType":"address"},{"name":"target","type":"address","internalType":"address"},{"name":"selector","type":"bytes4","internalType":"bytes4"}],"outputs":[{"name":"immediate","type":"bool","internalType":"bool"},{"name":"delay","type":"uint32","internalType":"uint32"}],"stateMutability":"view"},{"type":"function","name":"cancel","inputs":[{"name":"","type":"address","internalType":"address"},{"name":"","type":"address","internalType":"address"},{"name":"","type":"bytes","internalType":"bytes"}],"outputs":[{"name":"","type":"uint32","internalType":"uint32"}],"stateMutability":"pure"},{"type":"function","name":"consumeScheduledOp","inputs":[{"name":"","type":"address","internalType":"address"},{"name":"","type":"bytes","internalType":"bytes"}],"outputs":[],"stateMutability":"pure"},{"type":"function","name":"execute","inputs":[{"name":"","type":"address","internalType":"address"},{"name":"","type":"bytes","internalType":"bytes"}],"outputs":[{"name":"","type":"uint32","internalType":"uint32"}],"stateMutability":"payable"},{"type":"function","name":"expiration","inputs":[],"outputs":[{"name":"","type":"uint32","internalType":"uint32"}],"stateMutability":"pure"},{"type":"function","name":"getAccess","inputs":[{"name":"roleId","type":"uint64","internalType":"uint64"},{"name":"account","type":"address","internalType":"address"}],"outputs":[{"name":"","type":"uint48","internalType":"uint48"},{"name":"","type":"uint32","internalType":"uint32"},{"name":"","type":"uint32","internalType":"uint32"},{"name":"","type":"uint48","internalType":"uint48"}],"stateMutability":"view"},{"type":"function","name":"getNonce","inputs":[{"name":"","type":"bytes32","internalType":"bytes32"}],"outputs":[{"name":"","type":"uint32","internalType":"uint32"}],"stateMutability":"pure"},{"type":"function","name":"getRoleAdmin","inputs":[{"name":"","type":"uint64","internalType":"uint64"}],"outputs":[{"name":"","type":"uint64","internalType":"uint64"}],"stateMutability":"pure"},{"type":"function","name":"getRoleGrantDelay","inputs":[{"name":"","type":"uint64","internalType":"uint64"}],"outputs":[{"name":"","type":"uint32","internalType":"uint32"}],"stateMutability":"pure"},{"type":"function","name":"getRoleGuardian","inputs":[{"name":"","type":"uint64","internalType":"uint64"}],"outputs":[{"name":"","type":"uint64","internalType":"uint64"}],"stateMutability":"pure"},{"type":"function","name":"getSchedule","inputs":[{"name":"","type":"bytes32","internalType":"bytes32"}],"outputs":[{"name":"","type":"uint48","internalType":"uint48"}],"stateMutability":"pure"},{"type":"function","name":"getTargetAdminDelay","inputs":[{"name":"","type":"address","internalType":"address"}],"outputs":[{"name":"","type":"uint32","internalType":"uint32"}],"stateMutability":"pure"},{"type":"function","name":"getTargetFunctionRole","inputs":[{"name":"target","type":"address","internalType":"address"},{"name":"selector","type":"bytes4","internalType":"bytes4"}],"outputs":[{"name":"","type":"uint64","internalType":"uint64"}],"stateMutability":"view"},{"type":"function","name":"getTargetFunctionRoleId","inputs":[{"name":"target","type":"address","internalType":"address"},{"name":"selector","type":"bytes4","internalType":"bytes4"}],"outputs":[{"name":"","type":"uint8","internalType":"uint8"}],"stateMutability":"view"},{"type":"function","name":"grantRole","inputs":[{"name":"","type":"uint64","internalType":"uint64"},{"name":"","type":"address","internalType":"address"},{"name":"","type":"uint32","internalType":"uint32"}],"outputs":[],"stateMutability":"pure"},{"type":"function","name":"hasRole","inputs":[{"name":"roleId","type":"uint64","internalType":"uint64"},{"name":"account","type":"address","internalType":"address"}],"outputs":[{"name":"","type":"bool","internalType":"bool"},{"name":"","type":"uint32","internalType":"uint32"}],"stateMutability":"view"},{"type":"function","name":"hashOperation","inputs":[{"name":"","type":"address","internalType":"address"},{"name":"","type":"address","internalType":"address"},{"name":"","type":"bytes","internalType":"bytes"}],"outputs":[{"name":"","type":"bytes32","internalType":"bytes32"}],"stateMutability":"pure"},{"type":"function","name":"isTargetClosed","inputs":[{"name":"","type":"address","internalType":"address"}],"outputs":[{"name":"","type":"bool","internalType":"bool"}],"stateMutability":"pure"},{"type":"function","name":"labelRole","inputs":[{"name":"","type":"uint64","internalType":"uint64"},{"name":"","type":"string","internalType":"string"}],"outputs":[],"stateMutability":"pure"},{"type":"function","name":"minSetback","inputs":[],"outputs":[{"name":"","type":"uint32","internalType":"uint32"}],"stateMutability":"pure"},{"type":"function","name":"packedSelectors","inputs":[],"outputs":[{"name":"","type":"bytes","internalType":"bytes"}],"stateMutability":"pure"},{"type":"function","name":"renounceRole","inputs":[{"name":"","type":"uint64","internalType":"uint64"},{"name":"","type":"address","internalType":"address"}],"outputs":[],"stateMutability":"pure"},{"type":"function","name":"revokeRole","inputs":[{"name":"","type":"uint64","internalType":"uint64"},{"name":"","type":"address","internalType":"address"}],"outputs":[],"stateMutability":"pure"},{"type":"function","name":"schedule","inputs":[{"name":"","type":"address","internalType":"address"},{"name":"","type":"bytes","internalType":"bytes"},{"name":"","type":"uint48","internalType":"uint48"}],"outputs":[{"name":"","type":"bytes32","internalType":"bytes32"},{"name":"","type":"uint32","internalType":"uint32"}],"stateMutability":"pure"},{"type":"function","name":"setGrantDelay","inputs":[{"name":"","type":"uint64","internalType":"uint64"},{"name":"","type":"uint32","internalType":"uint32"}],"outputs":[],"stateMutability":"pure"},{"type":"function","name":"setRoleAdmin","inputs":[{"name":"","type":"uint64","internalType":"uint64"},{"name":"","type":"uint64","internalType":"uint64"}],"outputs":[],"stateMutability":"pure"},{"type":"function","name":"setRoleGuardian","inputs":[{"name":"","type":"uint64","internalType":"uint64"},{"name":"","type":"uint64","internalType":"uint64"}],"outputs":[],"stateMutability":"pure"},{"type":"function","name":"setTargetAdminDelay","inputs":[{"name":"","type":"address","internalType":"address"},{"name":"","type":"uint32","internalType":"uint32"}],"outputs":[],"stateMutability":"pure"},{"type":"function","name":"setTargetClosed","inputs":[{"name":"","type":"address","internalType":"address"},{"name":"","type":"bool","internalType":"bool"}],"outputs":[],"stateMutability":"pure"},{"type":"function","name":"setTargetFunctionRole","inputs":[{"name":"","type":"address","internalType":"address"},{"name":"","type":"bytes4[]","internalType":"bytes4[]"},{"name":"","type":"uint64","internalType":"uint64"}],"outputs":[],"stateMutability":"pure"},{"type":"function","name":"setTargetFunctionRole","inputs":[{"name":"target","type":"address","internalType":"address"},{"name":"selector","type":"bytes4","internalType":"bytes4"},{"name":"roleId","type":"uint8","internalType":"uint8"}],"outputs":[],"stateMutability":"nonpayable"},{"type":"function","name":"setTargetFunctionRoleBatch","inputs":[{"name":"target","type":"address","internalType":"address"},{"name":"selectors","type":"bytes4[]","internalType":"bytes4[]"},{"name":"roleIds","type":"uint8[]","internalType":"uint8[]"}],"outputs":[],"stateMutability":"nonpayable"},{"type":"function","name":"updateAuthority","inputs":[{"name":"","type":"address","internalType":"address"},{"name":"","type":"address","internalType":"address"}],"outputs":[],"stateMutability":"pure"},{"type":"event","name":"OperationCanceled","inputs":[{"name":"operationId","type":"bytes32","indexed":true,"internalType":"bytes32"},{"name":"nonce","type":"uint32","indexed":true,"internalType":"uint32"}],"anonymous":false},{"type":"event","name":"OperationExecuted","inputs":[{"name":"operationId","type":"bytes32","indexed":true,"internalType":"bytes32"},{"name":"nonce","type":"uint32","indexed":true,"internalType":"uint32"}],"anonymous":false},{"type":"event","name":"OperationScheduled","inputs":[{"name":"operationId","type":"bytes32","indexed":true,"internalType":"bytes32"},{"name":"nonce","type":"uint32","indexed":true,"internalType":"uint32"},{"name":"schedule","type":"uint48","indexed":false,"internalType":"uint48"},{"name":"caller","type":"address","indexed":false,"internalType":"address"},{"name":"target","type":"address","indexed":false,"internalType":"address"},{"name":"data","type":"bytes","indexed":false,"internalType":"bytes"}],"anonymous":false},{"type":"event","name":"RoleAdminChanged","inputs":[{"name":"roleId","type":"uint64","indexed":true,"internalType":"uint64"},{"name":"admin","type":"uint64","indexed":true,"internalType":"uint64"}],"anonymous":false},{"type":"event","name":"RoleGrantDelayChanged","inputs":[{"name":"roleId","type":"uint64","indexed":true,"internalType":"uint64"},{"name":"delay","type":"uint32","indexed":false,"internalType":"uint32"},{"name":"since","type":"uint48","indexed":false,"internalType":"uint48"}],"anonymous":false},{"type":"event","name":"RoleGranted","inputs":[{"name":"roleId","type":"uint64","indexed":true,"internalType":"uint64"},{"name":"account","type":"address","indexed":true,"internalType":"address"},{"name":"delay","type":"uint32","indexed":false,"internalType":"uint32"},{"name":"since","type":"uint48","indexed":false,"internalType":"uint48"},{"name":"newMember","type":"bool","indexed":false,"internalType":"bool"}],"anonymous":false},{"type":"event","name":"RoleGuardianChanged","inputs":[{"name":"roleId","type":"uint64","indexed":true,"internalType":"uint64"},{"name":"guardian","type":"uint64","indexed":true,"internalType":"uint64"}],"anonymous":false},{"type":"event","name":"RoleLabel","inputs":[{"name":"roleId","type":"uint64","indexed":true,"internalType":"uint64"},{"name":"label","type":"string","indexed":false,"internalType":"string"}],"anonymous":false},{"type":"event","name":"RoleRevoked","inputs":[{"name":"roleId","type":"uint64","indexed":true,"internalType":"uint64"},{"name":"account","type":"address","indexed":true,"internalType":"address"}],"anonymous":false},{"type":"event","name":"TargetAdminDelayUpdated","inputs":[{"name":"target","type":"address","indexed":true,"internalType":"address"},{"name":"delay","type":"uint32","indexed":false,"internalType":"uint32"},{"name":"since","type":"uint48","indexed":false,"internalType":"uint48"}],"anonymous":false},{"type":"event","name":"TargetClosed","inputs":[{"name":"target","type":"address","indexed":true,"internalType":"address"},{"name":"closed","type":"bool","indexed":false,"internalType":"bool"}],"anonymous":false},{"type":"event","name":"TargetFunctionRoleUpdated","inputs":[{"name":"target","type":"address","indexed":true,"internalType":"address"},{"name":"selector","type":"bytes4","indexed":false,"internalType":"bytes4"},{"name":"roleId","type":"uint64","indexed":true,"internalType":"uint64"}],"anonymous":false},{"type":"event","name":"WalletTargetFunctionRoleSet","inputs":[{"name":"target","type":"address","indexed":true,"internalType":"address"},{"name":"selector","type":"bytes4","indexed":true,"internalType":"bytes4"},{"name":"roleId","type":"uint8","indexed":false,"internalType":"uint8"}],"anonymous":false},{"type":"error","name":"AccessControl_CallerIsNotAuthorized","inputs":[{"name":"caller","type":"address","internalType":"address"},{"name":"functionSig","type":"bytes4","internalType":"bytes4"}]},{"type":"error","name":"AccessManagerAlreadyScheduled","inputs":[{"name":"operationId","type":"bytes32","internalType":"bytes32"}]},{"type":"error","name":"AccessManagerBadConfirmation","inputs":[]},{"type":"error","name":"AccessManagerExpired","inputs":[{"name":"operationId","type":"bytes32","internalType":"bytes32"}]},{"type":"error","name":"AccessManagerInvalidInitialAdmin","inputs":[{"name":"initialAdmin","type":"address","internalType":"address"}]},{"type":"error","name":"AccessManagerLockedRole","inputs":[{"name":"roleId","type":"uint64","internalType":"uint64"}]},{"type":"error","name":"AccessManagerNotReady","inputs":[{"name":"operationId","type":"bytes32","internalType":"bytes32"}]},{"type":"error","name":"AccessManagerNotScheduled","inputs":[{"name":"operationId","type":"bytes32","internalType":"bytes32"}]},{"type":"error","name":"AccessManagerUnauthorizedAccount","inputs":[{"name":"msgsender","type":"address","internalType":"address"},{"name":"roleId","type":"uint64","internalType":"uint64"}]},{"type":"error","name":"AccessManagerUnauthorizedCall","inputs":[{"name":"caller","type":"address","internalType":"address"},{"name":"target","type":"address","internalType":"address"},{"name":"selector","type":"bytes4","internalType":"bytes4"}]},{"type":"error","name":"AccessManagerUnauthorizedCancel","inputs":[{"name":"msgsender","type":"address","internalType":"address"},{"name":"caller","type":"address","internalType":"address"},{"name":"target","type":"address","internalType":"address"},{"name":"selector","type":"bytes4","internalType":"bytes4"}]},{"type":"error","name":"AccessManagerUnauthorizedConsume","inputs":[{"name":"target","type":"address","internalType":"address"}]}],"bytecode":{"object":"0x60808060405234601557610fbd908161001a8239f35b5f80fdfe6080806040526004361015610012575f80fd5b5f358060e01c91826308d6122d1461099e575081630b0a93ba146104fd57816312be872714610985578163167bd3951461095c57816317c4905c146107e157816318ff183c146107c85781631cff79cd146107bf57816325c471a0146107945781633078f1141461074957816330cae187146105025781633adc277a1461072e5781633e62267c1461053b5781634136a33c146105255781634665096d146105075781634c1da1e2146103bf5781635296295214610502578163530dd456146104fd5781635af6435d14610439575080636d5115bd1461021c578063853551b8146103f957806394c7d7ee146103e3578063a166aa89146103bf578063a64d95ce146103a6578063abd9bd2a14610205578063b700961314610318578063b7d2b162146102f0578063cc1b6c81146102d6578063d1f856ee14610289578063d22b598914610267578063d34e090a1461021c578063d6bb62c614610205578063f801a698146101b55763fe0776f514610189575f80fd5b346101b15760403660031901126101b1576101a2610aae565b506101ab610a52565b50610bfb565b5f80fd5b346101b15760603660031901126101b1576101ce610a3c565b506024356001600160401b0381116101b1576101ee903690600401610ada565b505060443565ffffffffffff811614610bfb575f80fd5b346101b15761021336610ba9565b50505050610bfb565b346101b15760403660031901126101b157610235610a3c565b610246610240610b92565b91610c62565b9063ffffffff60e01b165f52602052602060ff60405f205416604051908152f35b346101b15760403660031901126101b157610280610a3c565b506101ab610b5d565b346101b15760403660031901126101b1576102d26102ba6102a8610aae565b60ff6102b2610a52565b911690610dc0565b6040805191151582525f602083015290918291820190565b0390f35b346101b1575f3660031901126101b15760206040515f8152f35b346101b15760403660031901126101b157610309610aae565b50610312610a52565b50610ce7565b346101b15760603660031901126101b157610331610a3c565b610339610a52565b60443563ffffffff60e01b81168091036101b1576102d2928261035e6102ba94610c62565b835f5260205260ff60405f2054169283159182610385575b505015610dc0575f9150610dc0565b610390919250610c62565b905f5260205260ff60405f205416158580610376565b346101b15760403660031901126101b157610280610aae565b346101b15760203660031901126101b1576103d8610a3c565b5060206040515f8152f35b346101b1576103f136610b07565b505050610bfb565b346101b15760403660031901126101b157610412610aae565b506024356001600160401b0381116101b157610432903690600401610ada565b5050610bfb565b346101b15760603660031901126101b157610452610a3c565b9061045b610b92565b916044359160ff83168093036101b1576001600160e01b03191661047f8133610d6f565b156104e757506020816104b27f9d7c139a33cf99ee2cf8be5c6b746c13cbf85bd7f7e0a93fc9f8d9df0e6c756c93610c62565b6001600160e01b03199095165f818152958352604095869020805460ff19168617905594519384526001600160a01b031692a3005b631d64bc3360e11b5f523360045260245260445ffd5b610985565b610b70565b346101b1575f3660031901126101b157602060405163ffffffff8152f35b346101b157602036600319011215610bfb575f80fd5b346101b1575f3660031901126101b1576040805163b700961360e01b60208201908152636b5db16360e11b6024830152634a63ebf760e11b6028830152631cff79cd60e01b602c830152634665096d60e01b6030830152630c1e3c4560e21b603483015263104da8cf60e21b6038830152632986ea2b60e11b603c8301526312be872760e01b8284015263058549dd60e11b6044830152631d6e13bd60e11b604883015263260ed0f160e11b604c830152636d5115bd60e01b60508301526369a7048560e11b605483015263012e238d60e51b60588301526368fc2b7760e11b605c8301526355ecde9560e11b606083015263a166aa8960e01b60648301526310a6aa3760e31b606883015263cc1b6c8160e01b606c83015263fe0776f560e01b6070830152635be958b160e11b6074830152631f0034d360e31b6078830152635326cae760e11b607c8301526330cae18760e01b60808084019190915263294b14a960e11b608484015263d22b598960e01b608884015263167bd39560e01b608c840152635af6435d60e01b60908401526308d6122d60e01b60948401526305f1241760e21b609884015263063fc60f60e21b609c8401528252919061070360a082610d3a565b8151928391602083525180918160208501528484015e5f828201840152601f01601f19168101030190f35b346101b15760203660031901126101b15760206040515f8152f35b346101b15760403660031901126101b1576107656102a8610aae565b1561078c57608060015b60ff604051911681525f60208201525f60408201525f6060820152f35b60805f61076f565b346101b15760603660031901126101b1576107ad610aae565b506107b6610a52565b50610312610b4a565b6103f136610b07565b346101b15760403660031901126101b1576101a2610a3c565b346101b15760603660031901126101b1576107fa610a3c565b6024356001600160401b0381116101b157610819903690600401610a68565b6044939193356001600160401b0381116101b15761083b903690600401610a68565b9390926001600160e01b0319166108528133610d6f565b156104e757508382036109255790926001600160a01b03821691905f5b85811061087857005b8061088e6108896001938589610c30565b610c54565b61089785610c62565b6001600160e01b03196108b36108ae858c8e610c30565b610cd2565b165f5260205260ff60405f20911660ff198254161790556108d86108ae82898b610c30565b857f9d7c139a33cf99ee2cf8be5c6b746c13cbf85bd7f7e0a93fc9f8d9df0e6c756c602061090a61088986898d610c30565b9360ff6040519516855263ffffffff60e01b1693a30161086f565b60405162461bcd60e51b815260206004820152600f60248201526e098cadccee8d040dad2e6dac2e8c6d608b1b6044820152606490fd5b346101b15760403660031901126101b157610975610a3c565b5060243580151514610bfb575f80fd5b346101b15760203660031901126101b1576103d8610aae565b346101b15760603660031901126101b1576109b7610a3c565b50602435906001600160401b0382116101b1576109da6084923690600401610a68565b50506109e4610a98565b5062461bcd60e51b815260206004820152602f60248201527f5573652073657454617267657446756e6374696f6e526f6c652861646472657360448201526e732c6279746573342c75696e74382960881b6064820152fd5b600435906001600160a01b03821682036101b157565b602435906001600160a01b03821682036101b157565b9181601f840112156101b1578235916001600160401b0383116101b1576020808501948460051b0101116101b157565b604435906001600160401b03821682036101b157565b600435906001600160401b03821682036101b157565b602435906001600160401b03821682036101b157565b9181601f840112156101b1578235916001600160401b0383116101b157602083818601950101116101b157565b9060406003198301126101b1576004356001600160a01b03811681036101b15791602435906001600160401b0382116101b157610b4691600401610ada565b9091565b6044359063ffffffff821682036101b157565b6024359063ffffffff821682036101b157565b346101b15760403660031901126101b157610b89610aae565b506101ab610ac4565b602435906001600160e01b0319821682036101b157565b60606003198201126101b1576004356001600160a01b03811681036101b157916024356001600160a01b03811681036101b15791604435906001600160401b0382116101b157610b4691600401610ada565b60405162461bcd60e51b815260206004820152600d60248201526c139bdd081cdd5c1c1bdc9d1959609a1b6044820152606490fd5b9190811015610c405760051b0190565b634e487b7160e01b5f52603260045260245ffd5b3560ff811681036101b15790565b6001600160a01b03165f9081527fb11122326745c45940921dc2233419ec9c2c877683f85a319d0d252d486ed3d16020526040902090565b6001600160a01b03165f9081527fce1c17acaaa67de66e928cd49c8f658667a825223bee6fda99a14908362bcdaa6020526040902090565b356001600160e01b0319811681036101b15790565b60405162461bcd60e51b815260206004820152602560248201527f5573652073657455736572526f6c65206f6e20416363657373436f6e74726f6c604482015264119858d95d60da1b6064820152608490fd5b90601f801991011681019081106001600160401b03821117610d5b57604052565b634e487b7160e01b5f52604160045260245ffd5b81610d7991610dd7565b610dba577f511915e52b7f9e690b9fdc662acaf5600fd3722c87eb951d3abd26e93a784dca5c9060ff8216610dae5750505f90565b610db791610f32565b90565b50600190565b60ff610dcd600192610c9a565b5492161b16151590565b7fce1c17acaaa67de66e928cd49c8f658667a825223bee6fda99a14908362bcdac546001600160a01b031680610e87575b50610e1281610c9a565b549163ffffffff60e01b165f527fce1c17acaaa67de66e928cd49c8f658667a825223bee6fda99a14908362bcdab60205260405f2054908115610e7257610e5a600191610c9a565b54161515918215610e6a57505090565b161515919050565b60019250610e809150610c9a565b5416151590565b6040805163b700961360e01b81526001600160a01b03841660048201523060248201526001600160e01b03198516604482015291829060649082905afa5f9181610ee3575b5015610e0857610edc575f610e08565b5050600190565b9091506040813d604011610f2a575b81610eff60409383610d3a565b810103126101b15780519081151582036101b1576020015163ffffffff8116036101b157905f610ecc565b3d9150610ef2565b60ff16908115610edc5763ffffffff60e01b165f527fce1c17acaaa67de66e928cd49c8f658667a825223bee6fda99a14908362bcdab60205260405f2054908115610f81576001901b16151590565b50505f9056fea2646970667358221220afd8ff901f4b70576119e2fc5436c68e4b90c49425e8228aece601d91f69b45164736f6c634300081e0033","linkReferences":{}},"methodIdentifiers":{"canCall(address,address,bytes4)":"b7009613","cancel(address,address,bytes)":"d6bb62c6","consumeScheduledOp(address,bytes)":"94c7d7ee","execute(address,bytes)":"1cff79cd","expiration()":"4665096d","getAccess(uint64,address)":"3078f114","getNonce(bytes32)":"4136a33c","getRoleAdmin(uint64)":"530dd456","getRoleGrantDelay(uint64)":"12be8727","getRoleGuardian(uint64)":"0b0a93ba","getSchedule(bytes32)":"3adc277a","getTargetAdminDelay(address)":"4c1da1e2","getTargetFunctionRole(address,bytes4)":"6d5115bd","getTargetFunctionRoleId(address,bytes4)":"d34e090a","grantRole(uint64,address,uint32)":"25c471a0","hasRole(uint64,address)":"d1f856ee","hashOperation(address,address,bytes)":"abd9bd2a","isTargetClosed(address)":"a166aa89","labelRole(uint64,string)":"853551b8","minSetback()":"cc1b6c81","packedSelectors()":"3e62267c","renounceRole(uint64,address)":"fe0776f5","revokeRole(uint64,address)":"b7d2b162","schedule(address,bytes,uint48)":"f801a698","setGrantDelay(uint64,uint32)":"a64d95ce","setRoleAdmin(uint64,uint64)":"30cae187","setRoleGuardian(uint64,uint64)":"52962952","setTargetAdminDelay(address,uint32)":"d22b5989","setTargetClosed(address,bool)":"167bd395","setTargetFunctionRole(address,bytes4,uint8)":"5af6435d","setTargetFunctionRole(address,bytes4[],uint64)":"08d6122d","setTargetFunctionRoleBatch(address,bytes4[],uint8[])":"17c4905c","updateAuthority(address,address)":"18ff183c"},"id":343}