{
  "abi": [
    {
      "type": "fallback",
      "stateMutability": "payable"
    },
    {
      "type": "receive",
      "stateMutability": "payable"
    },
    {
      "type": "function",
      "name": "WalletCore_init",
      "inputs": [
        {
          "name": "owners",
          "type": "bytes[]",
          "internalType": "bytes[]"
        },
        {
          "name": "walletType",
          "type": "string",
          "internalType": "string"
        }
      ],
      "outputs": [],
      "stateMutability": "nonpayable"
    },
    {
      "type": "function",
      "name": "activateEmergencyMode",
      "inputs": [],
      "outputs": [],
      "stateMutability": "nonpayable"
    },
    {
      "type": "function",
      "name": "addOwnerAddress",
      "inputs": [
        {
          "name": "owner",
          "type": "address",
          "internalType": "address"
        }
      ],
      "outputs": [],
      "stateMutability": "nonpayable"
    },
    {
      "type": "function",
      "name": "addOwnerPublicKey",
      "inputs": [
        {
          "name": "x",
          "type": "bytes32",
          "internalType": "bytes32"
        },
        {
          "name": "y",
          "type": "bytes32",
          "internalType": "bytes32"
        }
      ],
      "outputs": [],
      "stateMutability": "nonpayable"
    },
    {
      "type": "function",
      "name": "deactivateEmergencyMode",
      "inputs": [],
      "outputs": [],
      "stateMutability": "nonpayable"
    },
    {
      "type": "function",
      "name": "entryPoint",
      "inputs": [],
      "outputs": [
        {
          "name": "",
          "type": "address",
          "internalType": "address"
        }
      ],
      "stateMutability": "view"
    },
    {
      "type": "function",
      "name": "execute",
      "inputs": [
        {
          "name": "target",
          "type": "address",
          "internalType": "address"
        },
        {
          "name": "value",
          "type": "uint256",
          "internalType": "uint256"
        },
        {
          "name": "data",
          "type": "bytes",
          "internalType": "bytes"
        }
      ],
      "outputs": [
        {
          "name": "success",
          "type": "bool",
          "internalType": "bool"
        },
        {
          "name": "result",
          "type": "bytes",
          "internalType": "bytes"
        }
      ],
      "stateMutability": "nonpayable"
    },
    {
      "type": "function",
      "name": "executeBatch",
      "inputs": [
        {
          "name": "targets",
          "type": "address[]",
          "internalType": "address[]"
        },
        {
          "name": "values",
          "type": "uint256[]",
          "internalType": "uint256[]"
        },
        {
          "name": "datas",
          "type": "bytes[]",
          "internalType": "bytes[]"
        }
      ],
      "outputs": [],
      "stateMutability": "nonpayable"
    },
    {
      "type": "function",
      "name": "getWalletInfo",
      "inputs": [],
      "outputs": [
        {
          "name": "walletType",
          "type": "string",
          "internalType": "string"
        },
        {
          "name": "ownerCount",
          "type": "uint256",
          "internalType": "uint256"
        },
        {
          "name": "emergencyMode",
          "type": "bool",
          "internalType": "bool"
        }
      ],
      "stateMutability": "view"
    },
    {
      "type": "function",
      "name": "isEmergencyMode",
      "inputs": [],
      "outputs": [
        {
          "name": "",
          "type": "bool",
          "internalType": "bool"
        }
      ],
      "stateMutability": "view"
    },
    {
      "type": "function",
      "name": "isOwnerAddress",
      "inputs": [
        {
          "name": "account",
          "type": "address",
          "internalType": "address"
        }
      ],
      "outputs": [
        {
          "name": "",
          "type": "bool",
          "internalType": "bool"
        }
      ],
      "stateMutability": "view"
    },
    {
      "type": "function",
      "name": "isOwnerBytes",
      "inputs": [
        {
          "name": "account",
          "type": "bytes",
          "internalType": "bytes"
        }
      ],
      "outputs": [
        {
          "name": "",
          "type": "bool",
          "internalType": "bool"
        }
      ],
      "stateMutability": "view"
    },
    {
      "type": "function",
      "name": "isOwnerPublicKey",
      "inputs": [
        {
          "name": "x",
          "type": "bytes32",
          "internalType": "bytes32"
        },
        {
          "name": "y",
          "type": "bytes32",
          "internalType": "bytes32"
        }
      ],
      "outputs": [
        {
          "name": "",
          "type": "bool",
          "internalType": "bool"
        }
      ],
      "stateMutability": "view"
    },
    {
      "type": "function",
      "name": "nextOwnerIndex",
      "inputs": [],
      "outputs": [
        {
          "name": "",
          "type": "uint256",
          "internalType": "uint256"
        }
      ],
      "stateMutability": "view"
    },
    {
      "type": "function",
      "name": "ownerAtIndex",
      "inputs": [
        {
          "name": "index",
          "type": "uint256",
          "internalType": "uint256"
        }
      ],
      "outputs": [
        {
          "name": "",
          "type": "bytes",
          "internalType": "bytes"
        }
      ],
      "stateMutability": "view"
    },
    {
      "type": "function",
      "name": "ownerCount",
      "inputs": [],
      "outputs": [
        {
          "name": "",
          "type": "uint256",
          "internalType": "uint256"
        }
      ],
      "stateMutability": "view"
    },
    {
      "type": "function",
      "name": "removeLastOwner",
      "inputs": [
        {
          "name": "index",
          "type": "uint256",
          "internalType": "uint256"
        },
        {
          "name": "owner",
          "type": "bytes",
          "internalType": "bytes"
        }
      ],
      "outputs": [],
      "stateMutability": "nonpayable"
    },
    {
      "type": "function",
      "name": "removeOwnerAtIndex",
      "inputs": [
        {
          "name": "index",
          "type": "uint256",
          "internalType": "uint256"
        },
        {
          "name": "owner",
          "type": "bytes",
          "internalType": "bytes"
        }
      ],
      "outputs": [],
      "stateMutability": "nonpayable"
    },
    {
      "type": "function",
      "name": "removedOwnersCount",
      "inputs": [],
      "outputs": [
        {
          "name": "",
          "type": "uint256",
          "internalType": "uint256"
        }
      ],
      "stateMutability": "view"
    },
    {
      "type": "function",
      "name": "setEntryPoint",
      "inputs": [
        {
          "name": "_entryPoint",
          "type": "address",
          "internalType": "address"
        }
      ],
      "outputs": [],
      "stateMutability": "nonpayable"
    },
    {
      "type": "function",
      "name": "validateUserOp",
      "inputs": [
        {
          "name": "userOp",
          "type": "tuple",
          "internalType": "struct PackedUserOperation",
          "components": [
            {
              "name": "sender",
              "type": "address",
              "internalType": "address"
            },
            {
              "name": "nonce",
              "type": "uint256",
              "internalType": "uint256"
            },
            {
              "name": "initCode",
              "type": "bytes",
              "internalType": "bytes"
            },
            {
              "name": "callData",
              "type": "bytes",
              "internalType": "bytes"
            },
            {
              "name": "accountGasLimits",
              "type": "bytes32",
              "internalType": "bytes32"
            },
            {
              "name": "preVerificationGas",
              "type": "uint256",
              "internalType": "uint256"
            },
            {
              "name": "gasFees",
              "type": "bytes32",
              "internalType": "bytes32"
            },
            {
              "name": "paymasterAndData",
              "type": "bytes",
              "internalType": "bytes"
            },
            {
              "name": "signature",
              "type": "bytes",
              "internalType": "bytes"
            }
          ]
        },
        {
          "name": "userOpHash",
          "type": "bytes32",
          "internalType": "bytes32"
        },
        {
          "name": "missingAccountFunds",
          "type": "uint256",
          "internalType": "uint256"
        }
      ],
      "outputs": [
        {
          "name": "validationData",
          "type": "uint256",
          "internalType": "uint256"
        }
      ],
      "stateMutability": "nonpayable"
    },
    {
      "type": "event",
      "name": "AddOwner",
      "inputs": [
        {
          "name": "index",
          "type": "uint256",
          "indexed": true,
          "internalType": "uint256"
        },
        {
          "name": "owner",
          "type": "bytes",
          "indexed": false,
          "internalType": "bytes"
        }
      ],
      "anonymous": false
    },
    {
      "type": "event",
      "name": "EmergencyModeActivated",
      "inputs": [
        {
          "name": "activator",
          "type": "address",
          "indexed": true,
          "internalType": "address"
        }
      ],
      "anonymous": false
    },
    {
      "type": "event",
      "name": "EmergencyModeDeactivated",
      "inputs": [
        {
          "name": "deactivator",
          "type": "address",
          "indexed": true,
          "internalType": "address"
        }
      ],
      "anonymous": false
    },
    {
      "type": "event",
      "name": "EntryPointUpdated",
      "inputs": [
        {
          "name": "oldEntryPoint",
          "type": "address",
          "indexed": true,
          "internalType": "address"
        },
        {
          "name": "newEntryPoint",
          "type": "address",
          "indexed": true,
          "internalType": "address"
        }
      ],
      "anonymous": false
    },
    {
      "type": "event",
      "name": "Initialized",
      "inputs": [
        {
          "name": "version",
          "type": "uint64",
          "indexed": false,
          "internalType": "uint64"
        }
      ],
      "anonymous": false
    },
    {
      "type": "event",
      "name": "RemoveOwner",
      "inputs": [
        {
          "name": "index",
          "type": "uint256",
          "indexed": true,
          "internalType": "uint256"
        },
        {
          "name": "owner",
          "type": "bytes",
          "indexed": false,
          "internalType": "bytes"
        }
      ],
      "anonymous": false
    },
    {
      "type": "event",
      "name": "TransactionExecuted",
      "inputs": [
        {
          "name": "target",
          "type": "address",
          "indexed": true,
          "internalType": "address"
        },
        {
          "name": "value",
          "type": "uint256",
          "indexed": false,
          "internalType": "uint256"
        },
        {
          "name": "data",
          "type": "bytes",
          "indexed": false,
          "internalType": "bytes"
        },
        {
          "name": "success",
          "type": "bool",
          "indexed": false,
          "internalType": "bool"
        }
      ],
      "anonymous": false
    },
    {
      "type": "event",
      "name": "WalletInitialized",
      "inputs": [
        {
          "name": "wallet",
          "type": "address",
          "indexed": true,
          "internalType": "address"
        },
        {
          "name": "walletType",
          "type": "string",
          "indexed": false,
          "internalType": "string"
        }
      ],
      "anonymous": false
    },
    {
      "type": "error",
      "name": "AlreadyOwner",
      "inputs": [
        {
          "name": "owner",
          "type": "bytes",
          "internalType": "bytes"
        }
      ]
    },
    {
      "type": "error",
      "name": "CallerIsNotAuthorized",
      "inputs": []
    },
    {
      "type": "error",
      "name": "DelegateNotAllowed",
      "inputs": []
    },
    {
      "type": "error",
      "name": "InvalidEthereumAddressOwner",
      "inputs": [
        {
          "name": "owner",
          "type": "bytes",
          "internalType": "bytes"
        }
      ]
    },
    {
      "type": "error",
      "name": "InvalidInitialization",
      "inputs": []
    },
    {
      "type": "error",
      "name": "InvalidOwnerBytesLength",
      "inputs": [
        {
          "name": "owner",
          "type": "bytes",
          "internalType": "bytes"
        }
      ]
    },
    {
      "type": "error",
      "name": "LastOwner",
      "inputs": []
    },
    {
      "type": "error",
      "name": "NoOwnerAtIndex",
      "inputs": [
        {
          "name": "index",
          "type": "uint256",
          "internalType": "uint256"
        }
      ]
    },
    {
      "type": "error",
      "name": "NotInitializing",
      "inputs": []
    },
    {
      "type": "error",
      "name": "NotLastOwner",
      "inputs": [
        {
          "name": "ownersRemaining",
          "type": "uint256",
          "internalType": "uint256"
        }
      ]
    },
    {
      "type": "error",
      "name": "OnlyDelegate",
      "inputs": []
    },
    {
      "type": "error",
      "name": "ReentrancyGuardReentrantCall",
      "inputs": []
    },
    {
      "type": "error",
      "name": "Unauthorized",
      "inputs": []
    },
    {
      "type": "error",
      "name": "WalletAdmin_InvalidEntryPoint",
      "inputs": []
    },
    {
      "type": "error",
      "name": "WalletAdmin_OwnerInitializationFailed",
      "inputs": []
    },
    {
      "type": "error",
      "name": "WalletAdmin_OwnersAlreadyInitialized",
      "inputs": []
    },
    {
      "type": "error",
      "name": "WalletCore_AlreadyInitialized",
      "inputs": []
    },
    {
      "type": "error",
      "name": "WalletCore_InsufficientApprovals",
      "inputs": []
    },
    {
      "type": "error",
      "name": "WalletCore_InvalidNonceKey",
      "inputs": [
        {
          "name": "key",
          "type": "uint256",
          "internalType": "uint256"
        }
      ]
    },
    {
      "type": "error",
      "name": "WalletCore_InvalidSignatureLength",
      "inputs": [
        {
          "name": "length",
          "type": "uint256",
          "internalType": "uint256"
        }
      ]
    },
    {
      "type": "error",
      "name": "WalletCore_MalformedSignature",
      "inputs": []
    },
    {
      "type": "error",
      "name": "WalletCore_OwnerInitializationFailed",
      "inputs": []
    },
    {
      "type": "error",
      "name": "WrongOwnerAtIndex",
      "inputs": [
        {
          "name": "index",
          "type": "uint256",
          "internalType": "uint256"
        },
        {
          "name": "expectedOwner",
          "type": "bytes",
          "internalType": "bytes"
        },
        {
          "name": "actualOwner",
          "type": "bytes",
          "internalType": "bytes"
        }
      ]
    },
    {
      "type": "event",
      "name": "DocumentUploaded",
      "inputs": [
        {
          "name": "documentId",
          "type": "bytes32",
          "indexed": true
        },
        {
          "name": "contentHash",
          "type": "bytes32",
          "indexed": true
        },
        {
          "name": "creator",
          "type": "address",
          "indexed": true
        }
      ],
      "anonymous": false
    },
    {
      "type": "event",
      "name": "DocumentSigned",
      "inputs": [
        {
          "name": "documentId",
          "type": "bytes32",
          "indexed": true
        },
        {
          "name": "signer",
          "type": "address",
          "indexed": true
        },
        {
          "name": "timestamp",
          "type": "uint256",
          "indexed": false
        }
      ],
      "anonymous": false
    },
    {
      "type": "event",
      "name": "DocumentDeleted",
      "inputs": [
        {
          "name": "documentId",
          "type": "bytes32",
          "indexed": true
        },
        {
          "name": "deletedBy",
          "type": "address",
          "indexed": true
        }
      ],
      "anonymous": false
    }
  ],
  "bytecode": {
    "object": "0x60a0806040523460b457306080525f516020611c095f395f51905f525460ff8160401c1660a5576002600160401b03196001600160401b038216016053575b604051611b5090816100b98239608051815050f35b6001600160401b0319166001600160401b039081175f516020611c095f395f51905f525581527fc7f505b2f371ae2175ee4913f4499e1f2633a7b5936321eed1cdaeb6115181d290602090a15f80603e565b63f92ee8a960e01b5f5260045ffd5b5f80fdfe6080806040526004361015610043575b503615610041575f3560e01c63bc197c81811463f23a6e6182141763150b7a0282141761003857005b6020526020603cf35b005b5f3560e01c908163066a1eb714610b76575080630db0262214610b545780630f0f3f2414610b0f57806319822f7c14610a4d5780631ca5393f14610a0457806320a194b8146109c357806329565e3b1461093a57806336d9cf9b146108fe57806347e1da2a146107865780634bc3d32f14610729578063584465f21461060757806389625b57146105b05780638ea690291461057d57806399b20eaf146104f6578063a2e1a8d8146104a6578063b0d691fe1461047b578063b61d27f6146103b4578063b819736714610356578063c352dae214610200578063d0096010146101765763d948fd2e14610136575f61000f565b34610172575f3660031901126101725760207fb4ae619d4d3b0fe53c7d7c84bfd26482cb5fcf3a27fa40f3f7a677f83bbebde654604051908152f35b5f80fd5b34610172575f3660031901126101725761018e610f09565b600160ff197fb4ae619d4d3b0fe53c7d7c84bfd26482cb5fcf3a27fa40f3f7a677f83bbebdeb5416177fb4ae619d4d3b0fe53c7d7c84bfd26482cb5fcf3a27fa40f3f7a677f83bbebdeb55337f43f3e8d1092da4d3201e4d117b99bf80e75127516bc6523bd8cdb4464a923cde5f80a2005b34610172575f3660031901126101725760ff7fb4ae619d4d3b0fe53c7d7c84bfd26482cb5fcf3a27fa40f3f7a677f83bbebdeb541661023d610e72565b604051905f927fb4ae619d4d3b0fe53c7d7c84bfd26482cb5fcf3a27fa40f3f7a677f83bbebde45461026e81610fbf565b808552906001811690811561033257506001146102bb575b50610296836102aa950384610bd1565b604051938493606085526060850190610cec565b916020840152151560408301520390f35b7fb4ae619d4d3b0fe53c7d7c84bfd26482cb5fcf3a27fa40f3f7a677f83bbebde45f9081529094507fe0832352c934e5cdd4f2e892b4173cf519e565e97925ba0978bff0398cb56ad75b85821061031c575083016020019350610296610286565b6001816020925483858901015201910190610305565b60ff191660208087019190915291151560051b850190910194506102969050610286565b346101725761036436610cb8565b9061036d610f09565b610375610e72565b9260018411610388576100419350611881565b837f823f1aa8000000000000000000000000000000000000000000000000000000005f5260045260245ffd5b34610172576060366003190112610172576103cd610bbb565b6044359067ffffffffffffffff8211610172576104416103f461044b933690600401610c8a565b6001600160a01b03610404610deb565b16330361046e575b61043a60ff7fb4ae619d4d3b0fe53c7d7c84bfd26482cb5fcf3a27fa40f3f7a677f83bbebdeb541615610d32565b3691610c23565b90602435906112d5565b9061046a60405192839215158352604060208401526040830190610cec565b0390f35b610476610f09565b61040c565b34610172575f366003190112610172576020610495610deb565b6001600160a01b0360405191168152f35b3461017257602036600319011261017257602060ff6104ea6104c6610bbb565b6001600160a01b036040519116848201528381526104e5604082610bd1565b610e34565b54166040519015158152f35b34610172575f3660031901126101725761050e610f09565b60ff197fb4ae619d4d3b0fe53c7d7c84bfd26482cb5fcf3a27fa40f3f7a677f83bbebdeb54167fb4ae619d4d3b0fe53c7d7c84bfd26482cb5fcf3a27fa40f3f7a677f83bbebdeb55337fbd95437b04432c9bbcf6d10c00e0e1cdc482151ffe5da10870858d456ee9fc235f80a2005b346101725760203660031901126101725761046a61059c600435611a50565b604051918291602083526020830190610cec565b34610172576105be36610cb8565b906105c7610f09565b60016105d1610e72565b146105df5761004192611881565b7f948bf897000000000000000000000000000000000000000000000000000000005f5260045ffd5b34610172576020366003190112610172576001600160a01b03610628610bbb565b610630610f09565b1680156106e5576001600160a01b037fb4ae619d4d3b0fe53c7d7c84bfd26482cb5fcf3a27fa40f3f7a677f83bbebde554168173ffffffffffffffffffffffffffffffffffffffff197fb4ae619d4d3b0fe53c7d7c84bfd26482cb5fcf3a27fa40f3f7a677f83bbebde55416177fb4ae619d4d3b0fe53c7d7c84bfd26482cb5fcf3a27fa40f3f7a677f83bbebde5557f9efc8bb238b1965522b3e784290f41e0229e21a34f499fd2f71b64463283a4165f80a3005b606460405162461bcd60e51b815260206004820152600f60248201527f456e747279506f696e74207a65726f00000000000000000000000000000000006044820152fd5b346101725760403660031901126101725760043567ffffffffffffffff81116101725761075a903690600401610c59565b6024359167ffffffffffffffff83116101725761077e610041933690600401610c8a565b92909161138f565b346101725760603660031901126101725760043567ffffffffffffffff8111610172576107b7903690600401610c59565b9060243567ffffffffffffffff8111610172576107d8903690600401610c59565b9260443567ffffffffffffffff8111610172576107f9903690600401610c59565b916001600160a01b0361080a610deb565b1633036108f1575b61084060ff7fb4ae619d4d3b0fe53c7d7c84bfd26482cb5fcf3a27fa40f3f7a677f83bbebdeb541615610d32565b858114806108e8575b156108a4575f5b81811061085957005b610864818388610d7d565b35906001600160a01b03821682036101725761089c600192610887838b8a610d7d565b3561089661043a858a8a610dd4565b916112d5565b505001610850565b606460405162461bcd60e51b815260206004820152601560248201527f4172726179206c656e677468206d69736d6174636800000000000000000000006044820152fd5b50828614610849565b6108f9610f09565b610812565b34610172575f3660031901126101725760207fb4ae619d4d3b0fe53c7d7c84bfd26482cb5fcf3a27fa40f3f7a677f83bbebde754604051908152f35b346101725761004161094b36610ba5565b610953610f09565b604051916020830152604082015260408152610970606082610bd1565b7fb4ae619d4d3b0fe53c7d7c84bfd26482cb5fcf3a27fa40f3f7a677f83bbebde6549061099c82610d10565b7fb4ae619d4d3b0fe53c7d7c84bfd26482cb5fcf3a27fa40f3f7a677f83bbebde65561100d565b34610172575f36600319011261017257602060ff7fb4ae619d4d3b0fe53c7d7c84bfd26482cb5fcf3a27fa40f3f7a677f83bbebdeb54166040519015158152f35b346101725760203660031901126101725760043567ffffffffffffffff811161017257366023820112156101725760ff6104ea6104e56020933690602481600401359101610c23565b346101725760603660031901126101725760043567ffffffffffffffff8111610172576101206003198236030112610172576044356001600160a01b03610a92610deb565b163303610acb5780610aac6020936024359060040161121e565b91610abb575b50604051908152f35b5f9081803892335af15082610ab2565b606460405162461bcd60e51b815260206004820152600f60248201527f4f6e6c7920456e747279506f696e7400000000000000000000000000000000006044820152fd5b3461017257602036600319011261017257610041610b2b610bbb565b610b33610f09565b6001600160a01b036040519116602082015260208152610970604082610bd1565b34610172575f366003190112610172576020610b6e610e72565b604051908152f35b346101725760ff6104ea602092610b8c36610ba5565b90858301526040820152604081526104e5606082610bd1565b6040906003190112610172576004359060243590565b600435906001600160a01b038216820361017257565b90601f8019910116810190811067ffffffffffffffff821117610bf357604052565b634e487b7160e01b5f52604160045260245ffd5b67ffffffffffffffff8111610bf357601f01601f191660200190565b929192610c2f82610c07565b91610c3d6040519384610bd1565b829481845281830111610172578281602093845f960137010152565b9181601f840112156101725782359167ffffffffffffffff8311610172576020808501948460051b01011161017257565b9181601f840112156101725782359167ffffffffffffffff8311610172576020838186019501011161017257565b90604060031983011261017257600435916024359067ffffffffffffffff821161017257610ce891600401610c8a565b9091565b805180835260209291819084018484015e5f828201840152601f01601f1916010190565b5f198114610d1e5760010190565b634e487b7160e01b5f52601160045260245ffd5b15610d3957565b606460405162461bcd60e51b815260206004820152601560248201527f456d657267656e6379206d6f64652061637469766500000000000000000000006044820152fd5b9190811015610d8d5760051b0190565b634e487b7160e01b5f52603260045260245ffd5b903590601e1981360301821215610172570180359067ffffffffffffffff82116101725760200191813603831361017257565b90821015610d8d57610ce89160051b810190610da1565b7fb4ae619d4d3b0fe53c7d7c84bfd26482cb5fcf3a27fa40f3f7a677f83bbebde5546001600160a01b03168015610e1f5790565b506f71727de22e5e9d8baf0edac6f37da03290565b60208091604051928184925191829101835e81017fb4ae619d4d3b0fe53c7d7c84bfd26482cb5fcf3a27fa40f3f7a677f83bbebdea81520301902090565b7fb4ae619d4d3b0fe53c7d7c84bfd26482cb5fcf3a27fa40f3f7a677f83bbebde6547fb4ae619d4d3b0fe53c7d7c84bfd26482cb5fcf3a27fa40f3f7a677f83bbebde7548103908111610d1e5790565b3d15610eec573d90610ed382610c07565b91610ee16040519384610bd1565b82523d5f602084013e565b606090565b90816020910312610172575180151581036101725790565b303314610f98575f8060405160208101907fa2e1a8d800000000000000000000000000000000000000000000000000000000825233602482015260248152610f52604482610bd1565b5190305afa610f5f610ec2565b81610fb4575b81610f9a575b50610f98577f82b42900000000000000000000000000000000000000000000000000000000005f5260045ffd5b565b610fae915060208082518301019101610ef1565b5f610f6b565b805115159150610f65565b90600182811c92168015610fed575b6020831014610fd957565b634e487b7160e01b5f52602260045260245ffd5b91607f1691610fce565b818110611002575050565b5f8155600101610ff7565b60ff61101882610e34565b54166111bc5761102781610e34565b600160ff19825416179055815f527fb4ae619d4d3b0fe53c7d7c84bfd26482cb5fcf3a27fa40f3f7a677f83bbebde960205260405f20815167ffffffffffffffff8111610bf3576110788254610fbf565b601f8111611181575b506020601f82116001146110fb57916110d5827f38109edc26e166b5579352ce56a50813177eb25208fd90d61f2f37838622022095936110eb955f916110f0575b508160011b915f199060031b1c19161790565b9055604051918291602083526020830190610cec565b0390a2565b90508401515f6110c2565b601f19821690835f52805f20915f5b8181106111695750926110eb9492600192827f38109edc26e166b5579352ce56a50813177eb25208fd90d61f2f378386220220989610611151575b5050811b01905561059c565b8501515f1960f88460031b161c191690555f80611145565b9192602060018192868a01518155019401920161110a565b6111ac90835f5260205f20601f840160051c810191602085106111b2575b601f0160051c0190610ff7565b5f611081565b909150819061119f565b6111fa906040519182917f8d16255a000000000000000000000000000000000000000000000000000000008352602060048401526024830190610cec565b0390fd5b908060209392818452848401375f828201840152601f01601f1916010190565b5f9161128b6112338493610100810190610da1565b61127d60409392935193849260208401967f333daf9200000000000000000000000000000000000000000000000000000000885260248501526040604485015260648401916111fe565b03601f198101835282610bd1565b5190305afa611298610ec2565b901580156112cc575b6112c657806020806112b893518301019101610ef1565b156112c1575f90565b600190565b50600190565b508051156112a1565b9290917ff0ac34b0a7e049fef9c9fbfbb165ac9cfeca6938437ecea3c3556bd6bf8684c45f8083516020850187895af19161130e610ec2565b946001600160a01b0384976113356040519485948552606060208601526060850190610cec565b951515604084015216930390a2565b1561134b57565b606460405162461bcd60e51b815260206004820152601b60248201527f57616c6c657420747970652063616e6e6f7420626520656d70747900000000006044820152fd5b611397610e72565b7fb4ae619d4d3b0fe53c7d7c84bfd26482cb5fcf3a27fa40f3f7a677f83bbebde3549060ff82169081611877575b5061187057821561182c576001906113de861515611344565b60ff1916177fb4ae619d4d3b0fe53c7d7c84bfd26482cb5fcf3a27fa40f3f7a677f83bbebde355611410368585610c23565b61141c81511515611344565b80519067ffffffffffffffff8211610bf3576114587fb4ae619d4d3b0fe53c7d7c84bfd26482cb5fcf3a27fa40f3f7a677f83bbebde454610fbf565b601f81116117bf575b50602090601f831160011461171c5761149192915f9183611711575b50508160011b915f199060031b1c19161790565b7fb4ae619d4d3b0fe53c7d7c84bfd26482cb5fcf3a27fa40f3f7a677f83bbebde4555b7fb4ae619d4d3b0fe53c7d7c84bfd26482cb5fcf3a27fa40f3f7a677f83bbebde5546001600160a01b038116156116c0575b507fb4ae619d4d3b0fe53c7d7c84bfd26482cb5fcf3a27fa40f3f7a677f83bbebde654915f5b818110611574575050507fe2708a37e3f5c90afe2f04cadf24c1b114b6a905ae92b47ed96166d7abf5cbf6916110eb917fb4ae619d4d3b0fe53c7d7c84bfd26482cb5fcf3a27fa40f3f7a677f83bbebde65560405191829160208352309560208401916111fe565b9091926020611584838587610dd4565b90501415806116a9575b61166157602061159f838587610dd4565b90501480611629575b6115e157816115db6001926115c3869588976115d699610dd4565b97906115ce83610d10565b983691610c23565b61100d565b0161150c565b50906115ec92610dd4565b6111fa6040519283927fbff1ac650000000000000000000000000000000000000000000000000000000084526020600485015260248401916111fe565b506001600160a01b0361163d838587610dd4565b90359060208110611650575b50116115a8565b5f199060200360031b1b165f611649565b509061166c92610dd4565b6111fa6040519283927f4eeab7220000000000000000000000000000000000000000000000000000000084526020600485015260248401916111fe565b5060406116b7838587610dd4565b9050141561158e565b73ffffffffffffffffffffffffffffffffffffffff19166f71727de22e5e9d8baf0edac6f37da032177fb4ae619d4d3b0fe53c7d7c84bfd26482cb5fcf3a27fa40f3f7a677f83bbebde5555f6114e6565b015190505f8061147d565b90601f198316917fb4ae619d4d3b0fe53c7d7c84bfd26482cb5fcf3a27fa40f3f7a677f83bbebde45f52815f20925f5b8181106117a7575090846001959493921061178f575b505050811b017fb4ae619d4d3b0fe53c7d7c84bfd26482cb5fcf3a27fa40f3f7a677f83bbebde4556114b4565b01515f1960f88460031b161c191690555f8080611762565b9293602060018192878601518155019501930161174c565b7fb4ae619d4d3b0fe53c7d7c84bfd26482cb5fcf3a27fa40f3f7a677f83bbebde45f52611826907fe0832352c934e5cdd4f2e892b4173cf519e565e97925ba0978bff0398cb56ad7601f850160051c810191602086106111b257601f0160051c0190610ff7565b5f611461565b606460405162461bcd60e51b815260206004820152601c60248201527f4d7573742068617665206174206c65617374206f6e65206f776e6572000000006044820152fd5b5050505050565b905015155f6113c5565b9161188b83611a50565b91825115611a2457825160208401206118a5368484610c23565b60208151910120036119ca5750506110eb816118e17fcf95bbfe6f870f8cc40482dc3dccdafd268f0e9ce0a4f24ea1bea9be64e505ff93610e34565b60ff198154169055835f527fb4ae619d4d3b0fe53c7d7c84bfd26482cb5fcf3a27fa40f3f7a677f83bbebde960205260405f2061191e8154610fbf565b9081611987575b50506119517fb4ae619d4d3b0fe53c7d7c84bfd26482cb5fcf3a27fa40f3f7a677f83bbebde754610d10565b7fb4ae619d4d3b0fe53c7d7c84bfd26482cb5fcf3a27fa40f3f7a677f83bbebde755604051918291602083526020830190610cec565b81601f5f931160011461199e5750555b5f80611925565b818352602083206119ba91601f0160051c810190600101610ff7565b8082528160208120915555611997565b6111fa83611a1286936040519586957f781f2e3900000000000000000000000000000000000000000000000000000000875260048701526060602487015260648601916111fe565b83810360031901604485015290610cec565b837f68188e7a000000000000000000000000000000000000000000000000000000005f5260045260245ffd5b5f527fb4ae619d4d3b0fe53c7d7c84bfd26482cb5fcf3a27fa40f3f7a677f83bbebde960205260405f2060405190815f825492611a8c84610fbf565b8084529360018116908115611af85750600114611ab4575b50611ab192500382610bd1565b90565b90505f9291925260205f20905f915b818310611adc575050906020611ab1928201015f611aa4565b6020919350806001915483858801015201910190918392611ac3565b905060209250611ab194915060ff191682840152151560051b8201015f611aa456fea26469706673582212200fb7bd0ecd20d2e66bdde36dd1f19d3747a1fef58fb9e56a61f5932a0aef234164736f6c634300081c0033f0c57e16840df040f15088dc2f81fe391c3923bec73e23a9662efc9c229c6a00",
    "linkReferences": {}
  },
  "methodIdentifiers": {
    "WalletCore_init(bytes[],string)": "4bc3d32f",
    "activateEmergencyMode()": "d0096010",
    "addOwnerAddress(address)": "0f0f3f24",
    "addOwnerPublicKey(bytes32,bytes32)": "29565e3b",
    "deactivateEmergencyMode()": "99b20eaf",
    "entryPoint()": "b0d691fe",
    "execute(address,uint256,bytes)": "b61d27f6",
    "executeBatch(address[],uint256[],bytes[])": "47e1da2a",
    "getWalletInfo()": "c352dae2",
    "isEmergencyMode()": "20a194b8",
    "isOwnerAddress(address)": "a2e1a8d8",
    "isOwnerBytes(bytes)": "1ca5393f",
    "isOwnerPublicKey(bytes32,bytes32)": "066a1eb7",
    "nextOwnerIndex()": "d948fd2e",
    "ownerAtIndex(uint256)": "8ea69029",
    "ownerCount()": "0db02622",
    "removeLastOwner(uint256,bytes)": "b8197367",
    "removeOwnerAtIndex(uint256,bytes)": "89625b57",
    "removedOwnersCount()": "36d9cf9b",
    "setEntryPoint(address)": "584465f2",
    "validateUserOp((address,uint256,bytes,bytes,bytes32,uint256,bytes32,bytes,bytes),bytes32,uint256)": "19822f7c"
  },
  "id": 242
}