{"abi":[{"type":"function","name":"WalletCore_init","inputs":[{"name":"owners","type":"bytes[]","internalType":"bytes[]"},{"name":"walletType","type":"string","internalType":"string"},{"name":"entryPoint_","type":"address","internalType":"address"}],"outputs":[],"stateMutability":"nonpayable"},{"type":"function","name":"activateEmergencyMode","inputs":[],"outputs":[],"stateMutability":"nonpayable"},{"type":"function","name":"addOwnerAddress","inputs":[{"name":"owner","type":"address","internalType":"address"}],"outputs":[],"stateMutability":"nonpayable"},{"type":"function","name":"addOwnerPublicKey","inputs":[{"name":"x","type":"bytes32","internalType":"bytes32"},{"name":"y","type":"bytes32","internalType":"bytes32"}],"outputs":[],"stateMutability":"nonpayable"},{"type":"function","name":"cacheIndirectOwners","inputs":[{"name":"managerWallet","type":"address","internalType":"address"}],"outputs":[],"stateMutability":"nonpayable"},{"type":"function","name":"clearIndirectOwners","inputs":[{"name":"managerWallet","type":"address","internalType":"address"}],"outputs":[],"stateMutability":"nonpayable"},{"type":"function","name":"deactivateEmergencyMode","inputs":[],"outputs":[],"stateMutability":"nonpayable"},{"type":"function","name":"entryPoint","inputs":[],"outputs":[{"name":"","type":"address","internalType":"address"}],"stateMutability":"view"},{"type":"function","name":"execute","inputs":[{"name":"target","type":"address","internalType":"address"},{"name":"value","type":"uint256","internalType":"uint256"},{"name":"data","type":"bytes","internalType":"bytes"}],"outputs":[{"name":"success","type":"bool","internalType":"bool"},{"name":"result","type":"bytes","internalType":"bytes"}],"stateMutability":"payable"},{"type":"function","name":"executeBatch","inputs":[{"name":"targets","type":"address[]","internalType":"address[]"},{"name":"values","type":"uint256[]","internalType":"uint256[]"},{"name":"datas","type":"bytes[]","internalType":"bytes[]"}],"outputs":[],"stateMutability":"payable"},{"type":"function","name":"getChildWallets","inputs":[],"outputs":[{"name":"","type":"address[]","internalType":"address[]"}],"stateMutability":"view"},{"type":"function","name":"getWalletInfo","inputs":[],"outputs":[{"name":"walletType","type":"string","internalType":"string"},{"name":"ownerCount_","type":"uint256","internalType":"uint256"},{"name":"emergencyMode","type":"bool","internalType":"bool"}],"stateMutability":"view"},{"type":"function","name":"isChildWallet","inputs":[{"name":"child","type":"address","internalType":"address"}],"outputs":[{"name":"","type":"bool","internalType":"bool"}],"stateMutability":"view"},{"type":"function","name":"isEmergencyMode","inputs":[],"outputs":[{"name":"","type":"bool","internalType":"bool"}],"stateMutability":"view"},{"type":"function","name":"isIndirectOwner","inputs":[{"name":"account","type":"address","internalType":"address"}],"outputs":[{"name":"isIndirect","type":"bool","internalType":"bool"},{"name":"managerWallet","type":"address","internalType":"address"}],"stateMutability":"view"},{"type":"function","name":"isOwnerAddress","inputs":[{"name":"account","type":"address","internalType":"address"}],"outputs":[{"name":"","type":"bool","internalType":"bool"}],"stateMutability":"view"},{"type":"function","name":"isOwnerBytes","inputs":[{"name":"account","type":"bytes","internalType":"bytes"}],"outputs":[{"name":"","type":"bool","internalType":"bool"}],"stateMutability":"view"},{"type":"function","name":"isOwnerPublicKey","inputs":[{"name":"x","type":"bytes32","internalType":"bytes32"},{"name":"y","type":"bytes32","internalType":"bytes32"}],"outputs":[{"name":"","type":"bool","internalType":"bool"}],"stateMutability":"view"},{"type":"function","name":"nextOwnerIndex","inputs":[],"outputs":[{"name":"","type":"uint256","internalType":"uint256"}],"stateMutability":"view"},{"type":"function","name":"ownerAtIndex","inputs":[{"name":"index","type":"uint256","internalType":"uint256"}],"outputs":[{"name":"","type":"bytes","internalType":"bytes"}],"stateMutability":"view"},{"type":"function","name":"ownerCount","inputs":[],"outputs":[{"name":"","type":"uint256","internalType":"uint256"}],"stateMutability":"view"},{"type":"function","name":"packedSelectors","inputs":[],"outputs":[{"name":"","type":"bytes","internalType":"bytes"}],"stateMutability":"pure"},{"type":"function","name":"registerChildWallet","inputs":[],"outputs":[],"stateMutability":"nonpayable"},{"type":"function","name":"removeOwnerAtIndex","inputs":[{"name":"index","type":"uint256","internalType":"uint256"},{"name":"owner","type":"bytes","internalType":"bytes"}],"outputs":[],"stateMutability":"nonpayable"},{"type":"function","name":"syncIndirectOwners","inputs":[],"outputs":[],"stateMutability":"nonpayable"},{"type":"function","name":"unregisterChildWallet","inputs":[],"outputs":[],"stateMutability":"nonpayable"},{"type":"event","name":"ChildWalletRegistered","inputs":[{"name":"child","type":"address","indexed":true,"internalType":"address"}],"anonymous":false},{"type":"event","name":"ChildWalletUnregistered","inputs":[{"name":"child","type":"address","indexed":true,"internalType":"address"}],"anonymous":false},{"type":"event","name":"EmergencyModeActivated","inputs":[{"name":"activatedBy","type":"address","indexed":true,"internalType":"address"},{"name":"timestamp","type":"uint256","indexed":false,"internalType":"uint256"}],"anonymous":false},{"type":"event","name":"EmergencyModeDeactivated","inputs":[{"name":"deactivatedBy","type":"address","indexed":true,"internalType":"address"},{"name":"timestamp","type":"uint256","indexed":false,"internalType":"uint256"}],"anonymous":false},{"type":"event","name":"EtherReceived","inputs":[{"name":"from","type":"address","indexed":true,"internalType":"address"},{"name":"amount","type":"uint256","indexed":false,"internalType":"uint256"}],"anonymous":false},{"type":"event","name":"IndirectOwnersSynced","inputs":[{"name":"managerWallet","type":"address","indexed":true,"internalType":"address"},{"name":"ownerCount","type":"uint256","indexed":false,"internalType":"uint256"}],"anonymous":false},{"type":"event","name":"OwnerAdded","inputs":[{"name":"owner","type":"bytes","indexed":true,"internalType":"bytes"},{"name":"ownerType","type":"uint8","indexed":false,"internalType":"uint8"}],"anonymous":false},{"type":"event","name":"OwnerRemoved","inputs":[{"name":"owner","type":"bytes","indexed":true,"internalType":"bytes"},{"name":"index","type":"uint256","indexed":false,"internalType":"uint256"}],"anonymous":false},{"type":"event","name":"TransactionExecuted","inputs":[{"name":"target","type":"address","indexed":true,"internalType":"address"},{"name":"value","type":"uint256","indexed":false,"internalType":"uint256"},{"name":"data","type":"bytes","indexed":false,"internalType":"bytes"}],"anonymous":false},{"type":"event","name":"UserOperationExecuted","inputs":[{"name":"userOpHash","type":"bytes32","indexed":true,"internalType":"bytes32"},{"name":"signerId","type":"bytes32","indexed":true,"internalType":"bytes32"},{"name":"signerRole","type":"uint8","indexed":false,"internalType":"uint8"},{"name":"target","type":"address","indexed":false,"internalType":"address"},{"name":"selector","type":"bytes4","indexed":false,"internalType":"bytes4"},{"name":"success","type":"bool","indexed":false,"internalType":"bool"}],"anonymous":false},{"type":"event","name":"UserRoleUpdated","inputs":[{"name":"user","type":"address","indexed":true,"internalType":"address"},{"name":"role","type":"uint8","indexed":true,"internalType":"uint8"},{"name":"enabled","type":"bool","indexed":false,"internalType":"bool"}],"anonymous":false},{"type":"event","name":"WalletInitialized","inputs":[{"name":"owner","type":"address","indexed":true,"internalType":"address"},{"name":"walletType","type":"string","indexed":false,"internalType":"string"}],"anonymous":false},{"type":"error","name":"ReentrancyGuard_ReentrantCall","inputs":[]},{"type":"error","name":"WalletCore_AlreadyInitialized","inputs":[]},{"type":"error","name":"WalletCore_AlreadyRegistered","inputs":[]},{"type":"error","name":"WalletCore_BatchLengthMismatch","inputs":[]},{"type":"error","name":"WalletCore_CannotRemoveLastOwner","inputs":[]},{"type":"error","name":"WalletCore_EmergencyModeActive","inputs":[]},{"type":"error","name":"WalletCore_ExecutionFailed","inputs":[]},{"type":"error","name":"WalletCore_InvalidOwnerData","inputs":[]},{"type":"error","name":"WalletCore_InvalidOwnerIndex","inputs":[]},{"type":"error","name":"WalletCore_NoOwnersProvided","inputs":[]},{"type":"error","name":"WalletCore_NotAnOwner","inputs":[]},{"type":"error","name":"WalletCore_NotAuthorized","inputs":[]},{"type":"error","name":"WalletCore_NotRegistered","inputs":[]},{"type":"error","name":"WalletCore_OwnerAlreadyExists","inputs":[]},{"type":"error","name":"WalletCore_OwnerDoesNotExist","inputs":[]}],"bytecode":{"object":"0x60808060405234601557612c4a908161001a8239f35b5f80fdfe60806040526004361015610011575f80fd5b5f3560e01c8063066a1eb7146101b45780630db02622146101af5780630f0f3f24146101aa57806319c9eb1f146101a55780631ca5393f146101a057806320a194b81461019b57806329565e3b146101965780633e62267c1461019157806347e1da2a1461018c5780635f2209151461018757806389625b57146101825780638a9a89ff1461017d5780638ea690291461017857806394fa15801461017357806399b20eaf1461016e578063a2e1a8d814610169578063a842ab2a14610164578063b0d691fe1461015f578063b61d27f61461015a578063b7f204f914610155578063bf07bddd14610150578063c352dae21461014b578063d009601014610146578063d948fd2e14610141578063dfb5d5b11461013c5763e148cfc414610137575f80fd5b6117fd565b6117d4565b6117ab565b61171d565b6115f8565b6114f5565b6114c8565b6112be565b61125e565b611123565b6110d9565b611071565b610fdc565b610f3f565b610f12565b610ca9565b610bb6565b61089e565b610723565b6106aa565b61067c565b610634565b610373565b61025b565b610221565b3461021357604036600319011261021357602060ff610207600435610202602435916101f460405193849288840160209093929193604081019481520152565b03601f1981018352826105bd565b611d1b565b54166040519015158152f35b5f80fd5b5f91031261021357565b34610213575f3660031901126102135760205f516020612b155f395f51905f5254604051908152f35b6001600160a01b0381160361021357565b34610213576020366003190112610213576004356102788161024a565b6102806122c1565b604051606082901b6001600160601b03191660208201526102ad906102a881603481016101f4565b612406565b803b6102be575b6102bc6125a3565b005b6001600160a01b03811690813b15610213575f806102f693600460405180948193635421559560e11b83525af16102fc575b50612567565b5f6102b4565b8061030a5f610310936105bd565b80610217565b5f6102f0565b9181601f84011215610213578235916001600160401b038311610213576020808501948460051b01011161021357565b9181601f84011215610213578235916001600160401b038311610213576020838186019501011161021357565b34610213576060366003190112610213576004356001600160401b038111610213576103a3903690600401610316565b6024356001600160401b038111610213576103c2903690600401610346565b9190926044356103d18161024a565b7f480144b1b455a0fe78db9dc5dd1b2d4c571f1de5c4ffa2484c50217a3dfae7b25460ff1661059a57821561058b576104b990610454600160ff197f480144b1b455a0fe78db9dc5dd1b2d4c571f1de5c4ffa2484c50217a3dfae7b25416177f480144b1b455a0fe78db9dc5dd1b2d4c571f1de5c4ffa2484c50217a3dfae7b255565b61045e858761190b565b60018060a01b03166001600160601b0360a01b7f480144b1b455a0fe78db9dc5dd1b2d4c571f1de5c4ffa2484c50217a3dfae7b45416177f480144b1b455a0fe78db9dc5dd1b2d4c571f1de5c4ffa2484c50217a3dfae7b455565b5f5b82811061052b57506105156104fe7fe2708a37e3f5c90afe2f04cadf24c1b114b6a905ae92b47ed96166d7abf5cbf69493610510936104f93061268b565b611a3c565b6001600160a01b0393913691906105fe565b612674565b169261052660405192839283611adc565b0390a2005b806105466102a861053f6001948787611a7b565b36916105fe565b61055761051061053f838787611a7b565b828060a01b03811661056b575b50016104bb565b6105748161268b565b803b15610564575f610585916127fa565b5f610564565b6392d7115560e01b5f5260045ffd5b63a5f2f53760e01b5f5260045ffd5b634e487b7160e01b5f52604160045260245ffd5b90601f801991011681019081106001600160401b038211176105de57604052565b6105a9565b6001600160401b0381116105de57601f01601f191660200190565b92919261060a826105e3565b9161061860405193846105bd565b829481845281830111610213578281602093845f960137010152565b34610213576020366003190112610213576004356001600160401b03811161021357366023820112156102135760ff61020761020260209336906024816004013591016105fe565b34610213575f36600319011261021357602060ff5f516020612bd55f395f51905f5254166040519015158152f35b34610213576040366003190112610213576102b46024356102a86004356106cf6122c1565b60408051602081019290925281019290925281606081016101f4565b805180835260209291819084018484015e5f828201840152601f01601f1916010190565b9060206107209281815201906106eb565b90565b34610213575f366003190112610213576040516319c9eb1f60e01b602082015261089a90630d00960160e41b60248201526303c3cfc960e21b60288201526329565e3b60e01b602c820152638a9a89ff60e01b603082015263b7f204f960e01b60348201526399b20eaf60e01b603882015263586b48ff60e11b603c820152635b0e93fb60e11b60408201526323f0ed1560e11b6044820152630129f42b60e71b60488201526361a96d7160e11b604c82015263dfb5d5b160e01b6050820152630414329760e31b605482015263385233f160e21b605882015263145c351b60e31b605c820152631ca5393f60e01b606082015263066a1eb760e01b6064820152636ca47e9760e11b6068820152638ea6902960e01b606c8201526306d8131160e11b6070820152635421559560e11b60748201526389625b5760e01b6078820152635f22091560e01b607c82015263bf07bddd60e01b60808201526064815261088e6084826105bd565b6040519182918261070f565b0390f35b6060366003190112610213576004356001600160401b038111610213576108c9903690600401610316565b6024356001600160401b038111610213576108e8903690600401610316565b6044929192356001600160401b0381116102135761090a903690600401610316565b94909261091561297c565b61091d6129c4565b6109256129eb565b828114801590610bac575b610b9d5761093c612a4d565b94919590975f976f71727de22e5e9d8baf0edac6f37da0323314985b858110610967576102bc612a29565b8980610b73575b610b1a575b5f80610988610983848a8c611b31565b611b41565b610993848987611b31565b3561099f85888a611a7b565b91906109b060405180948193611b4b565b03925af16109bc611b58565b8115610b125750908989828a8f8b6001978b7f47d99ad340f52da66535aff7e10da1ceb85a32bcbd9fa1c42314d194545e14d2610a348f610a1c8f8f9290610a158c8093610a0f6109838f8e8591611b31565b96611b31565b3596611a7b565b604093919351938f9384869560a01b03169684611b87565b0390a28b8b87610a4e575b50505050505050505001610958565b86610af7948183856004610a8a7fdecfc9e329bd6222958e60f1abb24c70213b1c9dee759b367bede2e6c6fcaa169d61098398610ab79a611a7b565b905010155f14610b0857610ab192610aab92610aa592611a7b565b90611aed565b90611afb565b97611b31565b6040805160ff90951685526001600160a01b0390911660208501526001600160e01b03199094169383019390935291151560608201529081906080820190565b0390a38989828a8f8b5f8b8b610a3f565b5050505f97611b31565b602081519101fd5b6004610b27828587611a7b565b905010155f14610b6757610b52610b4e610b48610aab610aa585888a611a7b565b8d612ab8565b1590565b15610973575b631f21a70f60e11b5f5260045ffd5b610b52610b4e5f610b48565b507f6270edb7c868f86fda4adedba75108201087268ea345934db8bad688e1feb91b89141561096e565b630836f86160e01b5f5260045ffd5b5085831415610930565b34610213575f36600319011261021357610bce6122c1565b5f516020612b755f395f51905f5254805b610c5d575f5b5f516020612bb55f395f51905f52548110156102bc5780610c24610c1f6001935f525f516020612b355f395f51905f5260205260405f2090565b611cb2565b6014815114610c35575b5001610be5565b610c41610c4791611ec8565b60601c90565b803b15610c2e57610c5790612567565b82610c2e565b80610c96610c86610c81610c7b610c76610ca396611bc3565b611c01565b50611cb2565b611cdf565b80546001600160a01b0319169055565b610c9e611dfc565b611bb2565b80610bdf565b34610213576040366003190112610213576004356024356001600160401b03811161021357610cdc903690600401610346565b90610ce56122c1565b60015f516020612b155f395f51905f52541115610f0357610d1d610c1f845f525f516020612b355f395f51905f5260205260405f2090565b805115610ef45760208151910120610d363684846105fe565b6020815191012003610ee55760148214610e4e575b610e328282610d8b610d817fd2617dd4a4369fec346346174cb589ef82358cc352ecf1e3e9c5e86131923cd496610e4396611f1f565b805460ff19169055565b610db1610dac875f525f516020612b355f395f51905f5260205260405f2090565b611da7565b610ddc610dcb5f516020612b155f395f51905f5254611bb2565b5f516020612b155f395f51905f5255565b610e2d610e097f480144b1b455a0fe78db9dc5dd1b2d4c571f1de5c4ffa2484c50217a3dfae7b654611f57565b7f480144b1b455a0fe78db9dc5dd1b2d4c571f1de5c4ffa2484c50217a3dfae7b655565b611f65565b604051938452929081906020820190565b0390a26102bc6125a3565b610e5b610c418383611f04565b803b610e68575b50610d4b565b610e7181612193565b6001600160a01b0316803b15610213577fd2617dd4a4369fec346346174cb589ef82358cc352ecf1e3e9c5e86131923cd492610e43925f80610e329460046040518094819363bf07bddd60e01b83525af1610ed1575b5092509250610e62565b8061030a5f610edf936105bd565b5f610ec7565b633c40885960e11b5f5260045ffd5b633c07696960e01b5f5260045ffd5b6312ffd67b60e01b5f5260045ffd5b34610213576020366003190112610213576102bc600435610f328161024a565b610f3a6122c1565b612567565b34610213576020366003190112610213576004355f525f516020612b355f395f51905f5260205261089a610f7f610f8660405f2060405192838092611c31565b03826105bd565b6040519182916020835260208301906106eb565b60206040818301928281528451809452019201905f5b818110610fbd5750505090565b82516001600160a01b0316845260209384019390920191600101610fb0565b34610213575f366003190112610213576040515f516020612b955f395f51905f5280548083525f91825260208301917f962b63e24992766933f0086a980c7acc7d2d4e81f53c6d3edc9b3293277ba16491905b8181106110525761089a85611046818703826105bd565b60405191829182610f9a565b82546001600160a01b031684526020909301926001928301920161102f565b34610213575f366003190112610213576110896122c1565b60ff195f516020612bd55f395f51905f5254165f516020612bd55f395f51905f52556040514281527f081290595212b102be0fdb64c1ac6ebd5ae4f06a47328806981745f7d906b3b560203392a2005b3461021357602036600319011261021357602060ff6102076101f46102026004356111038161024a565b6040519283918783016014916001600160601b03199060601b1681520190565b34610213575f36600319011261021357611177602060405161115d816101f4308583016014916001600160601b03199060601b1681520190565b60405180938192631ca5393f60e01b83526004830161070f565b0381335afa5f918161122d575b5061122857505f5b15611219576111a461119d33611f91565b5460ff1690565b61120a575f516020612b955f395f51905f52546111c033611fc9565b556111ca33612001565b6111e36111d633611f91565b805460ff19166001179055565b337f3d24aec8b03082a8823ca1774ec76a8f9442dbf61cfc4e21f7f4711a87634b295f80a2005b63c725db8960e01b5f5260045ffd5b630fc6f0a360e31b5f5260045ffd5b61118c565b61125091925060203d602011611257575b61124881836105bd565b810190611f79565b905f611184565b503d61123e565b34610213575f366003190112610213577f480144b1b455a0fe78db9dc5dd1b2d4c571f1de5c4ffa2484c50217a3dfae7b4546040516001600160a01b039091168152602090f35b60409061072093921515815281602082015201906106eb565b6060366003190112610213576004356112d68161024a565b602435906044356001600160401b038111610213576112f9903690600401610346565b61130492919261297c565b61130c6129c4565b6113146129eb565b61131c612a4d565b929193906f71727de22e5e9d8baf0edac6f37da03233148061149e575b61145d575b5f806040518061134f81888c611b4b565b03908a865af19561135e611b58565b978715611455577f47d99ad340f52da66535aff7e10da1ceb85a32bcbd9fa1c42314d194545e14d26040518061139f888660018060a01b038a169684611b87565b0390a286856113c2575b88906113b3612a29565b61089a604051928392836112a5565b7fdecfc9e329bd6222958e60f1abb24c70213b1c9dee759b367bede2e6c6fcaa16946004811061144957610aab6113fc9161143a94611aed565b6040805160ff90951685526001600160a01b0390951660208501526001600160e01b0319169383019390935291151560608201529081906080820190565b0390a35f8080808080866113a9565b5061143a91505f6113fc565b885160208a01fd5b600483106114925761147e610b4e611478610aab868a611aed565b83612ab8565b1561133e57631f21a70f60e11b5f5260045ffd5b61147e610b4e5f611478565b507f6270edb7c868f86fda4adedba75108201087268ea345934db8bad688e1feb91b851415611339565b34610213576020366003190112610213576102bc6004356114e88161024a565b6114f06122c1565b612193565b34610213575f36600319011261021357611514610b4e61119d33611f91565b6115e95761152133611fc9565b546115395f516020612b955f395f51905f5254611bc3565b808203611587575b61154961224a565b611555610d8133611f91565b5f61155f33611fc9565b55337fbed8b17e0b7c89e9ed65212f0a7f171604677cbc1f2203123e6e3117da142ac75f80a2005b6115ab6115966115e192611bd1565b905460039190911b1c6001600160a01b031690565b6115dc816115b885611bd1565b81546001600160a01b0393841660039290921b91821b9390911b1916919091179055565b611fc9565b555f80611541565b637b244cd160e11b5f5260045ffd5b34610213575f366003190112610213575f516020612b155f395f51905f525460ff5f516020612bd55f395f51905f52541690604051905f925f516020612b555f395f51905f525461164881611878565b80855290600181169081156116f95750600114611695575b50611670836116849503846105bd565b6040519384936060855260608501906106eb565b916020840152151560408301520390f35b5f516020612b555f395f51905f525f9081529094507f5ec87e9e4c73dda3c7e0fae1b6b9f19644dc51ac639eee37776be61a5b7b28f75b8582106116e3575083016020019350611670611660565b60018160209254838589010152019101906116cc565b60ff191660208087019190915291151560051b850190910194506116709050611660565b34610213575f366003190112610213576117356122c1565b600160ff195f516020612bd55f395f51905f525416175f516020612bd55f395f51905f5255427f480144b1b455a0fe78db9dc5dd1b2d4c571f1de5c4ffa2484c50217a3dfae7c3556040514281527f16ea6c4a0ff7e3a4c096560a5a71632e344907cd03af0f6e655b409a61d549ef60203392a2005b34610213575f3660031901126102135760205f516020612bb55f395f51905f5254604051908152f35b3461021357602036600319011261021357602060ff6102076004356117f88161024a565b611f91565b346102135760203660031901126102135760406101f46118426004356118228161024a565b8351928391602083016014916001600160601b03199060601b1681520190565b6001600160a01b039061185490611cdf565b541681519080151582526020820152f35b634e487b7160e01b5f525f60045260245ffd5b90600182811c921680156118a6575b602083101461189257565b634e487b7160e01b5f52602260045260245ffd5b91607f1691611887565b8181106118bb575050565b5f81556001016118b0565b9190601f81116118d557505050565b6118ff925f5260205f20906020601f840160051c83019310611901575b601f0160051c01906118b0565b565b90915081906118f2565b91906001600160401b0381116105de57611949816119365f516020612b555f395f51905f5254611878565b5f516020612b555f395f51905f526118c6565b5f601f821160011461199357819061197793945f92611988575b50508160011b915f199060031b1c19161790565b5f516020612b555f395f51905f5255565b013590505f80611963565b5f516020612b555f395f51905f525f52601f198216937f5ec87e9e4c73dda3c7e0fae1b6b9f19644dc51ac639eee37776be61a5b7b28f7915f5b868110611a1057508360019596106119f7575b505050811b015f516020612b555f395f51905f5255565b01355f19600384901b60f8161c191690555f80806119e0565b909260206001819286860135815501940191016119cd565b634e487b7160e01b5f52603260045260245ffd5b9015611a7657803590601e19813603018212156102135701908135916001600160401b038311610213576020018236038113610213579190565b611a28565b9190811015611a765760051b81013590601e19813603018212156102135701908135916001600160401b038311610213576020018236038113610213579190565b908060209392818452848401375f828201840152601f01601f1916010190565b916020610720938181520191611abc565b906004116102135790600490565b356001600160e01b0319811692919060048210611b16575050565b6001600160e01b031960049290920360031b82901b16169150565b9190811015611a765760051b0190565b356107208161024a565b908092918237015f815290565b3d15611b82573d90611b69826105e3565b91611b7760405193846105bd565b82523d5f602084013e565b606090565b604090610720949281528160208201520191611abc565b634e487b7160e01b5f52601160045260245ffd5b8015611bbe575f190190565b611b9e565b5f19810191908211611bbe57565b5f516020612b955f395f51905f5254811015611a76575f516020612b955f395f51905f525f5260205f2001905f90565b5f516020612b755f395f51905f5254811015611a76575f516020612b755f395f51905f525f5260205f2001905f90565b5f9291815491611c4083611878565b8083529260018116908115611c955750600114611c5c57505050565b5f9081526020812093945091925b838310611c7b575060209250010190565b600181602092949394548385870101520191019190611c6a565b915050602093945060ff929192191683830152151560051b010190565b906118ff611cc69260405193848092611c31565b03836105bd565b805191908290602001825e015f815290565b6020611cf19160405192838092611ccd565b7f480144b1b455a0fe78db9dc5dd1b2d4c571f1de5c4ffa2484c50217a3dfae7c881520301902090565b6020611d2d9160405192838092611ccd565b7f480144b1b455a0fe78db9dc5dd1b2d4c571f1de5c4ffa2484c50217a3dfae7b981520301902090565b6020611d699160405192838092611ccd565b7f480144b1b455a0fe78db9dc5dd1b2d4c571f1de5c4ffa2484c50217a3dfae7ba81520301902090565b634e487b7160e01b5f52603160045260245ffd5b611db18154611878565b9081611dbb575050565b601f8211600114611dcc575f905550565b611dec6118ff92825f526001601f60205f20920160051c820191016118b0565b5f81815260208120918190559055565b5f516020612b755f395f51905f52548015611ec3575f198101905f516020612b755f395f51905f5254821015611a76575f516020612b755f395f51905f525f527f6785aeeff5f2038c62ff873c2a2fed23a961fa243f184d6bfce01b9ab677e1bd01611e688154611878565b9081611e82575b50505f516020612b755f395f51905f5255565b601f8211600114611e99575f9055505b5f80611e6f565b611dec611eb992825f526001601f60205f20920160051c820191016118b0565b611e92565b611865565b611d93565b9060208251920151916001600160601b031983169260148210611ee9575050565b6001600160601b031960149290920360031b82901b16169150565b356001600160601b0319811692919060148210611ee9575050565b60209082604051938492833781017f480144b1b455a0fe78db9dc5dd1b2d4c571f1de5c4ffa2484c50217a3dfae7b981520301902090565b5f198114611bbe5760010190565b81604051928392833781015f815203902090565b90816020910312610213575180151581036102135790565b6001600160a01b03165f9081527f480144b1b455a0fe78db9dc5dd1b2d4c571f1de5c4ffa2484c50217a3dfae7cb6020526040902090565b6001600160a01b03165f9081527f480144b1b455a0fe78db9dc5dd1b2d4c571f1de5c4ffa2484c50217a3dfae7cc6020526040902090565b5f516020612b955f395f51905f525490600160401b8210156105de57600182015f516020612b955f395f51905f52555f516020612b955f395f51905f5254821015611a76575f516020612b955f395f51905f525f527f962b63e24992766933f0086a980c7acc7d2d4e81f53c6d3edc9b3293277ba16490910180546001600160a01b0319166001600160a01b03909216919091179055565b91909182811461217f576120ad8354611878565b6001600160401b0381116105de576120cf816120c98454611878565b846118c6565b5f93601f821160011461210d576120fe92939482915f926121025750508160011b915f199060031b1c19161790565b9055565b015490505f80611963565b61211f601f198316915f5260205f2090565b9461212d845f5260205f2090565b915f5b8181106121675750958360019596971061214f575b505050811b019055565b01545f1960f88460031b161c191690555f8080612145565b9192600180602092868b015481550194019201612130565b509050565b9190611ebe576118ff91612099565b5f516020612b755f395f51905f5254805b6121ac575050565b5f19810190808211611bbe57610f7f6121d76121ca6121fa94611c01565b5060405192838092611c31565b6121e081611cdf565b546001600160a01b03858116911614612200575b50611bb2565b806121a4565b610c8661220c91611cdf565b61223c612229610c765f516020612b755f395f51905f5254611bc3565b50612236610c7684611bc3565b90612184565b612244611dfc565b5f6121f4565b5f516020612b955f395f51905f52548015611ec3575f198101905f516020612b955f395f51905f5254821015611a76575f516020612b955f395f51905f525f8190527f962b63e24992766933f0086a980c7acc7d2d4e81f53c6d3edc9b3293277ba16390910180546001600160a01b031916905555565b3033146118ff576040513360601b6001600160601b031916602082015260ff906122f29061020281603481016101f4565b541615610b5857565b91909182516001600160401b0381116105de5761231c816120c98454611878565b6020601f82116001146123565781906120fe9394955f9261234b5750508160011b915f199060031b1c19161790565b015190505f80611963565b601f19821690612369845f5260205f2090565b915f5b8181106123a25750958360019596971061238a57505050811b019055565b01515f1960f88460031b161c191690555f8080612145565b9192602060018192868b01518155019401920161236c565b600311156123c457565b634e487b7160e01b5f52602160045260245ffd5b9060038110156123c45760ff80198354169116179055565b6124009060405191828092611ccd565b03902090565b61241261119d82611d1b565b6125585780516014811415908161254c575b50610ee5576124356111d682611d1b565b61246a816124655f516020612bb55f395f51905f52545f525f516020612b355f395f51905f5260205260405f2090565b6122fb565b612484610dcb5f516020612b155f395f51905f5254611f57565b805160140361251d577f4fddddd9b0c7ed407277040ecf91c8f99c8fee1ec0a7f40e81d5992cb09463fc6124ef6124da5f935b6124d560ff86166124c7816123ba565b6124d083611d57565b6123d8565b6123f0565b60405160ff9094168452929081906020820190565b0390a26118ff61250c5f516020612bb55f395f51905f5254611f57565b5f516020612bb55f395f51905f5255565b7f4fddddd9b0c7ed407277040ecf91c8f99c8fee1ec0a7f40e81d5992cb09463fc6124ef6124da6001936124b7565b6040915014155f612424565b631de43c3d60e21b5f5260045ffd5b604051606082901b6001600160601b031916602082015260ff906125929061020281603481016101f4565b541615610b58575f6118ff916127fa565b5f516020612b955f395f51905f52545f5b8181106125bf575050565b6125e26125cb82611bd1565b90546001600160a01b039260039290921b1c821690565b1690813b1561021357604051638a9a89ff60e01b8152306004820152600192905f8160248183865af19081612660575b5061261f575b50016125b4565b5f516020612b155f395f51905f52546040519081527f4dcce41bc583fbff6c9fc5bcb1287a978123a91a547a0f14cb561e142ce082fa90602090a25f612618565b8061030a5f61266e936105bd565b5f612612565b601481511461268257505f90565b610c4190611ec8565b6001600160a01b03165f8181527fce1c17acaaa67de66e928cd49c8f658667a825223bee6fda99a14908362bcdaa602090815260408083208054600190811790915590519081529192917f4c9bdd0c8e073eb5eda2250b18d8e5121ff27b62064fbeeeed4869bb99bc5bf29190a3565b90816020910312610213575190565b602081830312610213578051906001600160401b038211610213570181601f820112156102135780519061273d826105e3565b9261274b60405194856105bd565b8284526020838301011161021357815f9260208093018386015e8301015290565b5f516020612b755f395f51905f525490600160401b8210156105de57600182015f516020612b755f395f51905f52555f516020612b755f395f51905f5254821015611a76575f516020612b755f395f51905f525f526118ff917f6785aeeff5f2038c62ff873c2a2fed23a961fa243f184d6bfce01b9ab677e1be016122fb565b9060018201809211611bbe57565b90600a8111612978576040516306d8131160e11b8152916001600160a01b03811690602084600481855afa5f9481612947575b50612839575b50505050565b5f5b8481106128485750612833565b604051638ea6902960e01b8152600481018290525f81602481875afa5f9181612923575b5061287c57506001905b0161283b565b805161288c575b50600190612876565b6001600160a01b036128ad6128a083611cdf565b546001600160a01b031690565b16156128e9575b601481510361288357610c416128c991611ec8565b803b15612883576128e3906128dd866127ec565b906127fa565b5f612883565b612915836128f683611cdf565b80546001600160a01b0319166001600160a01b03909216919091179055565b61291e8161276c565b6128b4565b6129409192503d805f833e61293881836105bd565b81019061270a565b905f61286c565b61296a91955060203d602011612971575b61296281836105bd565b8101906126fb565b935f61282d565b503d612958565b5050565b3033146118ff576f71727de22e5e9d8baf0edac6f37da03233146118ff576040513360601b6001600160601b031916602082015260ff906122f29061020281603481016101f4565b60ff5f516020612bd55f395f51905f5254166129dc57565b635d585da560e01b5f5260045ffd5b5f516020612bf55f395f51905f525460ff8116612a1a5760ff19166001175f516020612bf55f395f51905f5255565b638ac2de0f60e01b5f5260045ffd5b60ff195f516020612bf55f395f51905f5254165f516020612bf55f395f51905f5255565b7f6cec6458bb712f8aa279057e3d1782ec1b93ac4ed576246c32048c11c6d0d8105c907f511915e52b7f9e690b9fdc662acaf5600fd3722c87eb951d3abd26e93a784dca5c907fe1f5617150ce81740730da5ddcc281ffcc8d26b38857415065d0d33f84ded7155c90565b60ff16908115612b0d5763ffffffff60e01b165f527fce1c17acaaa67de66e928cd49c8f658667a825223bee6fda99a14908362bcdab60205260405f2054908115612b07576001901b16151590565b50505f90565b505060019056fe480144b1b455a0fe78db9dc5dd1b2d4c571f1de5c4ffa2484c50217a3dfae7b7480144b1b455a0fe78db9dc5dd1b2d4c571f1de5c4ffa2484c50217a3dfae7b8480144b1b455a0fe78db9dc5dd1b2d4c571f1de5c4ffa2484c50217a3dfae7b3480144b1b455a0fe78db9dc5dd1b2d4c571f1de5c4ffa2484c50217a3dfae7c9480144b1b455a0fe78db9dc5dd1b2d4c571f1de5c4ffa2484c50217a3dfae7ca480144b1b455a0fe78db9dc5dd1b2d4c571f1de5c4ffa2484c50217a3dfae7b5480144b1b455a0fe78db9dc5dd1b2d4c571f1de5c4ffa2484c50217a3dfae7c25b339fece45c62eca222cba6d0078bec0e95ec332f94c6518e6d88358ab5bbb0a2646970667358221220a79fd8ff1e7abcbbaa0d6bf141cb9c01d381f365092a64bf8000b651046647be64736f6c634300081e0033","linkReferences":{}},"methodIdentifiers":{"WalletCore_init(bytes[],string,address)":"19c9eb1f","activateEmergencyMode()":"d0096010","addOwnerAddress(address)":"0f0f3f24","addOwnerPublicKey(bytes32,bytes32)":"29565e3b","cacheIndirectOwners(address)":"8a9a89ff","clearIndirectOwners(address)":"b7f204f9","deactivateEmergencyMode()":"99b20eaf","entryPoint()":"b0d691fe","execute(address,uint256,bytes)":"b61d27f6","executeBatch(address[],uint256[],bytes[])":"47e1da2a","getChildWallets()":"94fa1580","getWalletInfo()":"c352dae2","isChildWallet(address)":"dfb5d5b1","isEmergencyMode()":"20a194b8","isIndirectOwner(address)":"e148cfc4","isOwnerAddress(address)":"a2e1a8d8","isOwnerBytes(bytes)":"1ca5393f","isOwnerPublicKey(bytes32,bytes32)":"066a1eb7","nextOwnerIndex()":"d948fd2e","ownerAtIndex(uint256)":"8ea69029","ownerCount()":"0db02622","packedSelectors()":"3e62267c","registerChildWallet()":"a842ab2a","removeOwnerAtIndex(uint256,bytes)":"89625b57","syncIndirectOwners()":"5f220915","unregisterChildWallet()":"bf07bddd"},"id":352}